{
  "contractName": "Admin",
  "abi": [
    {
      "constant": true,
      "inputs": [
        {
          "name": "",
          "type": "address"
        }
      ],
      "name": "admins",
      "outputs": [
        {
          "name": "",
          "type": "bool"
        }
      ],
      "payable": false,
      "stateMutability": "view",
      "type": "function"
    },
    {
      "inputs": [],
      "payable": false,
      "stateMutability": "nonpayable",
      "type": "constructor"
    },
    {
      "anonymous": false,
      "inputs": [
        {
          "indexed": true,
          "name": "previousAdmin",
          "type": "address"
        }
      ],
      "name": "AdminshipRenounced",
      "type": "event"
    },
    {
      "anonymous": false,
      "inputs": [
        {
          "indexed": true,
          "name": "previousAdmin",
          "type": "address"
        },
        {
          "indexed": true,
          "name": "newAdmin",
          "type": "address"
        }
      ],
      "name": "AdminshipTransferred",
      "type": "event"
    },
    {
      "constant": true,
      "inputs": [
        {
          "name": "_admin",
          "type": "address"
        }
      ],
      "name": "isAdmin",
      "outputs": [
        {
          "name": "",
          "type": "bool"
        }
      ],
      "payable": false,
      "stateMutability": "view",
      "type": "function"
    },
    {
      "constant": false,
      "inputs": [
        {
          "name": "_previousAdmin",
          "type": "address"
        }
      ],
      "name": "renounceAdminship",
      "outputs": [],
      "payable": false,
      "stateMutability": "nonpayable",
      "type": "function"
    },
    {
      "constant": false,
      "inputs": [
        {
          "name": "_newAdmin",
          "type": "address"
        }
      ],
      "name": "transferAdminship",
      "outputs": [],
      "payable": false,
      "stateMutability": "nonpayable",
      "type": "function"
    }
  ],
  "bytecode": "0x608060405234801561001057600080fd5b50336000908152602081905260409020805460ff191660011790556103298061003a6000396000f3006080604052600436106100615763ffffffff7c010000000000000000000000000000000000000000000000000000000060003504166324d7806c8114610066578063429b62e5146100a85780635be7cc16146100d65780636fce9d8814610106575b600080fd5b34801561007257600080fd5b5061009473ffffffffffffffffffffffffffffffffffffffff60043516610134565b604080519115158252519081900360200190f35b3480156100b457600080fd5b5061009473ffffffffffffffffffffffffffffffffffffffff6004351661015f565b3480156100e257600080fd5b5061010473ffffffffffffffffffffffffffffffffffffffff60043516610174565b005b34801561011257600080fd5b5061010473ffffffffffffffffffffffffffffffffffffffff6004351661019e565b73ffffffffffffffffffffffffffffffffffffffff1660009081526020819052604090205460ff1690565b60006020819052908152604090205460ff1681565b3360009081526020819052604090205460ff16151561019257600080fd5b61019b81610249565b50565b3360009081526020819052604090205460ff1615156101bc57600080fd5b60405173ffffffffffffffffffffffffffffffffffffffff8216907f1a2dbeec1a0714342f862f53c671a69a6cb438bf5aa44fc01a7ccff6fbde85ef90600090a273ffffffffffffffffffffffffffffffffffffffff16600090815260208190526040902080547fffffffffffffffffffffffffffffffffffffffffffffffffffffffffffffff00169055565b73ffffffffffffffffffffffffffffffffffffffff8116151561026b57600080fd5b60405173ffffffffffffffffffffffffffffffffffffffff82169033907f2931ebb3d190545dcf6801c37aa686b74f2e1000e753d0fac6e471a2aa5a621390600090a373ffffffffffffffffffffffffffffffffffffffff16600090815260208190526040902080547fffffffffffffffffffffffffffffffffffffffffffffffffffffffffffffff001660011790555600a165627a7a72305820f314b2b0ed1a54ad289d6394ec1b211acb78c8b0660ca815ff4847be7997cd980029",
  "source": "pragma solidity ^0.4.24;\n\n\n/**\n * @title Ownable\n * @dev The Ownable contract has an admin address, and provides basic authorization control\n * functions, this simplifies the implementation of \"user permissions\".\n */\ncontract Admin {\n  mapping (address => bool) public admins;\n\n\n  event AdminshipRenounced(address indexed previousAdmin);\n  event AdminshipTransferred(\n    address indexed previousAdmin,\n    address indexed newAdmin\n  );\n\n\n  /**\n   * @dev The Ownable constructor sets the original `admin` of the contract to the sender\n   * account.\n   */\n  constructor() public {\n    admins[msg.sender] = true;\n  }\n\n  /**\n   * @dev Throws if called by any account other than the admin.\n   */\n  modifier onlyAdmin() {\n    require(admins[msg.sender]);\n    _;\n  }\n\n  function isAdmin(address _admin) public view returns(bool) {\n    return admins[_admin];\n  }\n\n  /**\n   * @dev Allows the current admin to relinquish control of the contract.\n   * @notice Renouncing to adminship will leave the contract without an admin.\n   * It will not be possible to call the functions with the `onlyAdmin`\n   * modifier anymore.\n   */\n  function renounceAdminship(address _previousAdmin) public onlyAdmin {\n    emit AdminshipRenounced(_previousAdmin);\n    admins[_previousAdmin] = false;\n  }\n\n  /**\n   * @dev Allows the current admin to transfer control of the contract to a newAdmin.\n   * @param _newAdmin The address to transfer adminship to.\n   */\n  function transferAdminship(address _newAdmin) public onlyAdmin {\n    _transferAdminship(_newAdmin);\n  }\n\n  /**\n   * @dev Transfers control of the contract to a newAdmin.\n   * @param _newAdmin The address to transfer adminship to.\n   */\n  function _transferAdminship(address _newAdmin) internal {\n    require(_newAdmin != address(0));\n    emit AdminshipTransferred(msg.sender, _newAdmin);\n    admins[_newAdmin] = true;\n  }\n}\n",
  "sourcePath": "/home/billyrennekamp/GitHub.com/clovers-network/clovers-contracts/contracts/helpers/Admin.sol",
  "compiler": {
    "name": "solc",
    "version": "0.4.24+commit.e67f0147.Emscripten.clang"
  },
  "schemaVersion": "2.0.1",
  "updatedAt": "2019-08-14T20:15:56.429Z"
}