{
  "contractName": "Admin",
  "abi": [
    {
      "constant": true,
      "inputs": [
        {
          "name": "",
          "type": "address"
        }
      ],
      "name": "admins",
      "outputs": [
        {
          "name": "",
          "type": "bool"
        }
      ],
      "payable": false,
      "stateMutability": "view",
      "type": "function"
    },
    {
      "inputs": [],
      "payable": false,
      "stateMutability": "nonpayable",
      "type": "constructor"
    },
    {
      "anonymous": false,
      "inputs": [
        {
          "indexed": true,
          "name": "previousAdmin",
          "type": "address"
        }
      ],
      "name": "AdminshipRenounced",
      "type": "event"
    },
    {
      "anonymous": false,
      "inputs": [
        {
          "indexed": true,
          "name": "previousAdmin",
          "type": "address"
        },
        {
          "indexed": true,
          "name": "newAdmin",
          "type": "address"
        }
      ],
      "name": "AdminshipTransferred",
      "type": "event"
    },
    {
      "constant": true,
      "inputs": [
        {
          "name": "_admin",
          "type": "address"
        }
      ],
      "name": "isAdmin",
      "outputs": [
        {
          "name": "",
          "type": "bool"
        }
      ],
      "payable": false,
      "stateMutability": "view",
      "type": "function"
    },
    {
      "constant": false,
      "inputs": [
        {
          "name": "_previousAdmin",
          "type": "address"
        }
      ],
      "name": "renounceAdminship",
      "outputs": [],
      "payable": false,
      "stateMutability": "nonpayable",
      "type": "function"
    },
    {
      "constant": false,
      "inputs": [
        {
          "name": "_newAdmin",
          "type": "address"
        }
      ],
      "name": "transferAdminship",
      "outputs": [],
      "payable": false,
      "stateMutability": "nonpayable",
      "type": "function"
    }
  ],
  "bytecode": "0x608060405234801561001057600080fd5b5060016000803373ffffffffffffffffffffffffffffffffffffffff1673ffffffffffffffffffffffffffffffffffffffff16815260200190815260200160002060006101000a81548160ff02191690831515021790555061048b806100776000396000f300608060405260043610610062576000357c0100000000000000000000000000000000000000000000000000000000900463ffffffff16806324d7806c14610067578063429b62e5146100c25780635be7cc161461011d5780636fce9d8814610160575b600080fd5b34801561007357600080fd5b506100a8600480360381019080803573ffffffffffffffffffffffffffffffffffffffff1690602001909291905050506101a3565b604051808215151515815260200191505060405180910390f35b3480156100ce57600080fd5b50610103600480360381019080803573ffffffffffffffffffffffffffffffffffffffff1690602001909291905050506101f8565b604051808215151515815260200191505060405180910390f35b34801561012957600080fd5b5061015e600480360381019080803573ffffffffffffffffffffffffffffffffffffffff169060200190929190505050610218565b005b34801561016c57600080fd5b506101a1600480360381019080803573ffffffffffffffffffffffffffffffffffffffff16906020019092919050505061027b565b005b60008060008373ffffffffffffffffffffffffffffffffffffffff1673ffffffffffffffffffffffffffffffffffffffff16815260200190815260200160002060009054906101000a900460ff169050919050565b60006020528060005260406000206000915054906101000a900460ff1681565b6000803373ffffffffffffffffffffffffffffffffffffffff1673ffffffffffffffffffffffffffffffffffffffff16815260200190815260200160002060009054906101000a900460ff16151561026f57600080fd5b6102788161036f565b50565b6000803373ffffffffffffffffffffffffffffffffffffffff1673ffffffffffffffffffffffffffffffffffffffff16815260200190815260200160002060009054906101000a900460ff1615156102d257600080fd5b8073ffffffffffffffffffffffffffffffffffffffff167f1a2dbeec1a0714342f862f53c671a69a6cb438bf5aa44fc01a7ccff6fbde85ef60405160405180910390a260008060008373ffffffffffffffffffffffffffffffffffffffff1673ffffffffffffffffffffffffffffffffffffffff16815260200190815260200160002060006101000a81548160ff02191690831515021790555050565b600073ffffffffffffffffffffffffffffffffffffffff168173ffffffffffffffffffffffffffffffffffffffff16141515156103ab57600080fd5b8073ffffffffffffffffffffffffffffffffffffffff163373ffffffffffffffffffffffffffffffffffffffff167f2931ebb3d190545dcf6801c37aa686b74f2e1000e753d0fac6e471a2aa5a621360405160405180910390a360016000808373ffffffffffffffffffffffffffffffffffffffff1673ffffffffffffffffffffffffffffffffffffffff16815260200190815260200160002060006101000a81548160ff021916908315150217905550505600a165627a7a72305820e21ca38818b9d81e31d9ee41df2efa63b880c9c55ecca37fa370abe462c3a3080029",
  "source": "pragma solidity ^0.4.24;\n\n\n/**\n * @title Ownable\n * @dev The Ownable contract has an admin address, and provides basic authorization control\n * functions, this simplifies the implementation of \"user permissions\".\n */\ncontract Admin {\n  mapping (address => bool) public admins;\n\n\n  event AdminshipRenounced(address indexed previousAdmin);\n  event AdminshipTransferred(\n    address indexed previousAdmin,\n    address indexed newAdmin\n  );\n\n\n  /**\n   * @dev The Ownable constructor sets the original `admin` of the contract to the sender\n   * account.\n   */\n  constructor() public {\n    admins[msg.sender] = true;\n  }\n\n  /**\n   * @dev Throws if called by any account other than the admin.\n   */\n  modifier onlyAdmin() {\n    require(admins[msg.sender]);\n    _;\n  }\n\n  function isAdmin(address _admin) public view returns(bool) {\n    return admins[_admin];\n  }\n\n  /**\n   * @dev Allows the current admin to relinquish control of the contract.\n   * @notice Renouncing to adminship will leave the contract without an admin.\n   * It will not be possible to call the functions with the `onlyAdmin`\n   * modifier anymore.\n   */\n  function renounceAdminship(address _previousAdmin) public onlyAdmin {\n    emit AdminshipRenounced(_previousAdmin);\n    admins[_previousAdmin] = false;\n  }\n\n  /**\n   * @dev Allows the current admin to transfer control of the contract to a newAdmin.\n   * @param _newAdmin The address to transfer adminship to.\n   */\n  function transferAdminship(address _newAdmin) public onlyAdmin {\n    _transferAdminship(_newAdmin);\n  }\n\n  /**\n   * @dev Transfers control of the contract to a newAdmin.\n   * @param _newAdmin The address to transfer adminship to.\n   */\n  function _transferAdminship(address _newAdmin) internal {\n    require(_newAdmin != address(0));\n    emit AdminshipTransferred(msg.sender, _newAdmin);\n    admins[_newAdmin] = true;\n  }\n}\n",
  "sourcePath": "/home/billyrennekamp/GitHub.com/clovers-network/clovers-contracts/contracts/helpers/Admin.sol",
  "compiler": {
    "name": "solc",
    "version": "0.4.24+commit.e67f0147.Emscripten.clang"
  },
  "schemaVersion": "2.0.1",
  "updatedAt": "2019-08-14T11:01:25.437Z"
}