{
  "contractName": "BancorFormula",
  "abi": [
    {
      "constant": true,
      "inputs": [],
      "name": "version",
      "outputs": [
        {
          "name": "",
          "type": "string"
        }
      ],
      "payable": false,
      "stateMutability": "view",
      "type": "function"
    },
    {
      "inputs": [],
      "payable": false,
      "stateMutability": "nonpayable",
      "type": "constructor"
    },
    {
      "constant": true,
      "inputs": [
        {
          "name": "_supply",
          "type": "uint256"
        },
        {
          "name": "_connectorBalance",
          "type": "uint256"
        },
        {
          "name": "_connectorWeight",
          "type": "uint32"
        },
        {
          "name": "_depositAmount",
          "type": "uint256"
        }
      ],
      "name": "calculatePurchaseReturn",
      "outputs": [
        {
          "name": "",
          "type": "uint256"
        }
      ],
      "payable": false,
      "stateMutability": "view",
      "type": "function"
    },
    {
      "constant": true,
      "inputs": [
        {
          "name": "_supply",
          "type": "uint256"
        },
        {
          "name": "_connectorBalance",
          "type": "uint256"
        },
        {
          "name": "_connectorWeight",
          "type": "uint32"
        },
        {
          "name": "_sellAmount",
          "type": "uint256"
        }
      ],
      "name": "calculateSaleReturn",
      "outputs": [
        {
          "name": "",
          "type": "uint256"
        }
      ],
      "payable": false,
      "stateMutability": "view",
      "type": "function"
    },
    {
      "constant": true,
      "inputs": [
        {
          "name": "_fromConnectorBalance",
          "type": "uint256"
        },
        {
          "name": "_fromConnectorWeight",
          "type": "uint32"
        },
        {
          "name": "_toConnectorBalance",
          "type": "uint256"
        },
        {
          "name": "_toConnectorWeight",
          "type": "uint32"
        },
        {
          "name": "_amount",
          "type": "uint256"
        }
      ],
      "name": "calculateCrossConnectorReturn",
      "outputs": [
        {
          "name": "",
          "type": "uint256"
        }
      ],
      "payable": false,
      "stateMutability": "view",
      "type": "function"
    }
  ],
  "bytecode": "0x60c0604052600360808190527f302e33000000000000000000000000000000000000000000000000000000000060a0908152620000409160009190620007f7565b503480156200004e57600080fd5b506001606060020a641c35fedd1502036021556001605e60020a646c3390ecc902036022556001606160020a640cf801476102036023556001605f60020a6431bdb23e1d02036024556001605b60020a6502fb1d8fe08302036025556001605a60020a6505b771955b3702036026556001605960020a650af67a93bb5102036027556001605860020a6515060c256cb302036028556001605860020a651428a2f98d7302036029556001605660020a654d51566397090203602a556001605560020a65944620b0e70f0203602b557011c592761c666fffffffffffffffffffff602c5570110a688680a757ffffffffffffffffffff602d55701056f1b5bedf77ffffffffffffffffffff602e55700faadceceeff8bffffffffffffffffffff602f55700f05dc6b27edadffffffffffffffffffff603055700e67a5a25da4107fffffffffffffffffff603155700dcff115b14eedffffffffffffffffffff603255700d3e7a392431239fffffffffffffffffff603355700cb2ff529eb71e4fffffffffffffffffff603455700c2d415c3db974afffffffffffffffffff603555700bad03e7d883f69bffffffffffffffffff603655700b320d03b2c343d5ffffffffffffffffff603755700abc25204e02828dffffffffffffffffff603855700a4b16f74ee4bb207fffffffffffffffff6039557009deaf736ac1f569ffffffffffffffffff603a55700976bd9952c7aa957fffffffffffffffff603b557009131271922eaa606fffffffffffffffff603c557008b380f3558668c46fffffffffffffffff603d55700857ddf0117efa215bffffffffffffffff603e556001608360020a03603f557007abbf6f6abb9d087fffffffffffffffff60405570075af62cbac95f7dfa7fffffffffffffff60415570070d7fb7452e187ac13fffffffffffffff6042557006c3390ecc8af379295fffffffffffffff60435570067c00a3b07ffc01fd6fffffffffffffff604455700637b647c39cbb9d3d27ffffffffffffff6045557005f63b1fc104dbd39587ffffffffffffff6046557005b771955b36e12f7235ffffffffffffff60475570057b3d49dda84556d6f6ffffffffffffff60485570054183095b2c8ececf30ffffffffffffff60495570050a28be635ca2b888f77fffffffffffff604a557004d5156639708c9db33c3fffffffffffff604b557004a23105873875bd52dfdfffffffffffff604c55700471649d87199aa990756fffffffffffff604d557004429a21a029d4c1457cfbffffffffffff604e55700415bc6d6fb7dd71af2cb3ffffffffffff604f557003eab73b3bbfe282243ce1ffffffffffff6050557003c1771ac9fb6b4c18e229ffffffffffff605155700399e96897690418f785257fffffffffff605255700373fc456c53bb779bf0ea9fffffffffff60535570034f9e8e490c48e67e6ab8bfffffffffff60545570032cbfd4a7adc790560b3337ffffffffff60555570030b50570f6e5d2acca94613ffffffffff6056557002eb40f9f620fda6b56c2861ffffffffff6057557002cc8340ecb0d0f520a6af58ffffffffff6058557002af09481380a0a35cf1ba02ffffffffff605955700292c5bdd3b92ec810287b1b3fffffffff605a55700277abdcdab07d5a77ac6d6b9fffffffff605b5570025daf6654b1eaa55fd64df5efffffffff605c55700244c49c648baa98192dce88b7ffffffff605d5570022ce03cd5619a311b2471268bffffffff605e55700215f77c045fbe885654a44a0fffffffff605f556001608160020a036060557001eaefdbdaaee7421fc4d3ede5ffffffff6061557001d6bd8b2eb257df7e8ca57b09bfffffff6062557001c35fedd14b861eb0443f7f133fffffff6063557001b0ce43b322bcde4a56e8ada5afffffff60645570019f0028ec1fff007f5a195a39dfffffff60655570018ded91f0e72ee74f49b15ba527ffffff60665570017d8ec7f04136f4e5615fd41a63ffffff60675570016ddc6556cdb84bdc8d12d22e6fffffff60685570015ecf52776a1155b5bd8395814f7fffff60695570015060c256cb23b3b3cc3754cf40ffffff606a557001428a2f98d728ae223ddab715be3fffff606b5570013545598e5c23276ccf0ede68034fffff606c557001288c4161ce1d6f54b7f61081194fffff606d5570011c592761c666aa641d5a01a40f17ffff606e55700110a688680a7530515f3e6e6cfdcdffff606f557001056f1b5bedf75c6bcb2ce8aed428ffff6070556ffaadceceeff8a0890f3875f008277fff6071556ff05dc6b27edad306388a600f6ba0bfff6072556fe67a5a25da41063de1495d5b18cdbfff6073556fdcff115b14eedde6fc3aa5353f2e4fff6074556fd3e7a3924312399f9aae2e0f868f8fff6075556fcb2ff529eb71e41582cccd5a1ee26fff6076556fc2d415c3db974ab32a51840c0b67edff6077556fbad03e7d883f69ad5b0a186184e06bff6078556fb320d03b2c343d4829abd6075f0cc5ff6079556fabc25204e02828d73c6e80bcdb1a95bf607a556fa4b16f74ee4bb2040a1ec6c15fbbf2df607b556f9deaf736ac1f569deb1b5ae3f36c130f607c556f976bd9952c7aa957f5937d790ef65037607d556f9131271922eaa6064b73a22d0bd4f2bf607e556f8b380f3558668c46c91c49a2f8e967b9607f556f857ddf0117efa215952912839f6473e66080556200089c565b828054600181600116156101000203166002900490600052602060002090601f016020900481019282601f106200083a57805160ff19168380011785556200086a565b828001600101855582156200086a579182015b828111156200086a5782518255916020019190600101906200084d565b50620008789291506200087c565b5090565b6200089991905b8082111562000878576000815560010162000883565b90565b61167a80620008ac6000396000f3006080604052600436106100615763ffffffff7c010000000000000000000000000000000000000000000000000000000060003504166329a00e7c811461006657806349f9b0f71461009f57806354fd4d50146100c657806365098bb314610150575b600080fd5b34801561007257600080fd5b5061008d60043560243563ffffffff6044351660643561017e565b60408051918252519081900360200190f35b3480156100ab57600080fd5b5061008d60043560243563ffffffff6044351660643561024c565b3480156100d257600080fd5b506100db61033d565b6040805160208082528351818301528351919283929083019185019080838360005b838110156101155781810151838201526020016100fd565b50505050905090810190601f1680156101425780820380516001836020036101000a031916815260200191505b509250505060405180910390f35b34801561015c57600080fd5b5061008d60043563ffffffff60243581169060443590606435166084356103e9565b600080600080600080891180156101955750600088115b80156101a7575060008763ffffffff16115b80156101bc5750620f424063ffffffff881611155b15156101c757600080fd5b8515156101d75760009450610240565b63ffffffff8716620f4240141561020457876101f38a886104e6565b8115156101fc57fe5b049450610240565b61020e8689610511565b915061021f828989620f4240610520565b909450925060ff83166102328a866104e6565b9060020a9004905088810394505b50505050949350505050565b60008060008060008060008a1180156102655750600089115b8015610277575060008863ffffffff16115b801561028c5750620f424063ffffffff891611155b80156102985750898711155b15156102a357600080fd5b8615156102b35760009550610330565b898714156102c357889550610330565b63ffffffff8816620f424014156102f057896102df8a896104e6565b8115156102e857fe5b049550610330565b868a0392506103048a84620f42408b610520565b909550935061031389866104e6565b91505060ff831660020a88028481830381151561032c57fe5b0495505b5050505050949350505050565b6000805460408051602060026001851615610100027fffffffffffffffffffffffffffffffffffffffffffffffffffffffffffffffff0190941693909304601f810184900484028201840190925281815292918301828280156103e15780601f106103b6576101008083540402835291602001916103e1565b820191906000526020600020905b8154815290600101906020018083116103c457829003601f168201915b505050505081565b60008060008060008060008b118015610408575060008a63ffffffff16115b801561041d5750620f424063ffffffff8b1611155b80156104295750600089115b801561043b575060008863ffffffff16115b80156104505750620f424063ffffffff891611155b151561045b57600080fd5b8763ffffffff168a63ffffffff161415610494576104798b88610511565b6104838a896104e6565b81151561048c57fe5b0495506104d8565b61049e8b88610511565b92506104ac838c8c8b610520565b90955093506104bb89866104e6565b91505060ff831660020a8802848183038115156104d457fe5b0495505b505050505095945050505050565b600082820283158061050257508284828115156104ff57fe5b04145b151561050a57fe5b9392505050565b60008282018381101561050a57fe5b600080808080807002000000000000000000000000000000008a1061054457600080fd5b886f800000000000000000000000000000008b0281151561056157fe5b04925070015bf0a8b1457695355fb8ac404e7a79e383101561058d5761058683610616565b9350610599565b61059683610b0a565b93505b8663ffffffff168863ffffffff1685028115156105b257fe5b0491507008000000000000000000000000000000008210156105e2576105d782610c49565b607f95509550610609565b6105eb8261112e565b905061060360ff607f8390031660020a8304826111bb565b81955095505b5050505094509492505050565b6000808080806fd3094c70f034de4b96ff7d5b6f99fcd88610610671576f4000000000000000000000000000000093909301926fd3094c70f034de4b96ff7d5b6f99fcd86f8000000000000000000000000000000087020495505b6fa45af1e1f40c333b3de1db4dd55f29a786106106c6576f2000000000000000000000000000000093909301926fa45af1e1f40c333b3de1db4dd55f29a76f8000000000000000000000000000000087020495505b6f910b022db7ae67ce76b441c27035c6a1861061071b576f1000000000000000000000000000000093909301926f910b022db7ae67ce76b441c27035c6a16f8000000000000000000000000000000087020495505b6f88415abbe9a76bead8d00cf112e4d4a88610610770576f0800000000000000000000000000000093909301926f88415abbe9a76bead8d00cf112e4d4a86f8000000000000000000000000000000087020495505b6f84102b00893f64c705e841d5d4064bd386106107c5576f0400000000000000000000000000000093909301926f84102b00893f64c705e841d5d4064bd36f8000000000000000000000000000000087020495505b6f8204055aaef1c8bd5c3259f4822735a2861061081a576f0200000000000000000000000000000093909301926f8204055aaef1c8bd5c3259f4822735a26f8000000000000000000000000000000087020495505b6f810100ab00222d861931c15e39b44e99861061086f576f0100000000000000000000000000000093909301926f810100ab00222d861931c15e39b44e996f8000000000000000000000000000000087020495505b6f808040155aabbbe9451521693554f73386106108c3576e80000000000000000000000000000093909301926f808040155aabbbe9451521693554f7336f8000000000000000000000000000000087020495505b7fffffffffffffffffffffffffffffffff80000000000000000000000000000000860192508291506f8000000000000000000000000000000082800204905070010000000000000000000000000000000083810383020493909301926f800000000000000000000000000000008282020491507002000000000000000000000000000000006faaaaaaaaaaaaaaaaaaaaaaaaaaaaaaaa84900383020493909301926f800000000000000000000000000000008282020491507003000000000000000000000000000000006f9999999999999999999999999999999984900383020493909301926f800000000000000000000000000000008282020491507004000000000000000000000000000000006f9249249249249249249249249249249284900383020493909301926f800000000000000000000000000000008282020491507005000000000000000000000000000000006f8e38e38e38e38e38e38e38e38e38e38e84900383020493909301926f800000000000000000000000000000008282020491507006000000000000000000000000000000006f8ba2e8ba2e8ba2e8ba2e8ba2e8ba2e8b84900383020493909301926f800000000000000000000000000000008282020491507007000000000000000000000000000000006f89d89d89d89d89d89d89d89d89d89d8984900383020493909301926f800000000000000000000000000000008282020491507008000000000000000000000000000000006f888888888888888888888888888888888490038302049390930195945050505050565b60008080807001000000000000000000000000000000008510610b6657610b426f8000000000000000000000000000000086046115de565b60ff8116600281900a909604956f8000000000000000000000000000000002935091505b6f80000000000000000000000000000000851115610c195750607f5b60008160ff161115610c19576f800000000000000000000000000000008580020494507001000000000000000000000000000000008510610bf2576002948590049460ff7fffffffffffffffffffffffffffffffffffffffffffffffffffffffffffffffff830116900a92909201915b7fffffffffffffffffffffffffffffffffffffffffffffffffffffffffffffffff01610b82565b6f05b9de1d10bf4103d647b0955897ba806f03f80fe03f80fe03f80fe03f80fe03f884020493505b505050919050565b6000670168244fdac780006f800000000000000000000000000000006f0fffffffffffffffffffffffffffffff84168080028290048082028390048083028490049485026710e1b3be415a00009092026705a0913f6b1e000091909102010192909181830204905080664807432bc1800002830192506f80000000000000000000000000000000828202811515610cdc57fe5b04905080660c0135dca0400002830192506f80000000000000000000000000000000828202811515610d0a57fe5b049050806601b707b1cdc00002830192506f80000000000000000000000000000000828202811515610d3857fe5b049050806536e0f639b80002830192506f80000000000000000000000000000000828202811515610d6557fe5b04905080650618fee9f80002830192506f80000000000000000000000000000000828202811515610d9257fe5b04905080649c197dcc0002830192506f80000000000000000000000000000000828202811515610dbe57fe5b04905080640e30dce40002830192506f80000000000000000000000000000000828202811515610dea57fe5b0490508064012ebd130002830192506f80000000000000000000000000000000828202811515610e1657fe5b049050806317499f0002830192506f80000000000000000000000000000000828202811515610e4157fe5b049050806301a9d48002830192506f80000000000000000000000000000000828202811515610e6c57fe5b04905080621c638002830192506f80000000000000000000000000000000828202811515610e9657fe5b049050806201c63802830192506f80000000000000000000000000000000828202811515610ec057fe5b04905080611ab802830192506f80000000000000000000000000000000828202811515610ee957fe5b0490508061017c02830192506f80000000000000000000000000000000828202811515610f1257fe5b04905080601402830192506f80000000000000000000000000000000828202811515610f3a57fe5b6721c3677c82b400009190049384010482016f80000000000000000000000000000000019290506f10000000000000000000000000000000851615610fa35770018ebef9eac820ae8682b9793ac6d1e7767001c3d6a24ed82218787d624d3e5eba95f984020492505b6f20000000000000000000000000000000851615610fe5577001368b2fc6f9609fe7aceb46aa619baed470018ebef9eac820ae8682b9793ac6d1e77884020492505b6f40000000000000000000000000000000851615611026576fbc5ab1b16779be3575bd8f0520a9f21f7001368b2fc6f9609fe7aceb46aa619baed584020492505b6f80000000000000000000000000000000851615611066576f454aaa8efe072e7f6ddbab84b40a55c96fbc5ab1b16779be3575bd8f0520a9f21e84020492505b7001000000000000000000000000000000008516156110a7576f0960aadc109e7a3bf4578099615711ea6f454aaa8efe072e7f6ddbab84b40a55c584020492505b7002000000000000000000000000000000008516156110e7576e2bf84208204f5977f9a8cf01fdce3d6f0960aadc109e7a3bf4578099615711d784020492505b700400000000000000000000000000000000851615611125576d03c6ab775dd0b95b4cbee7e65d116e2bf84208204f5977f9a8cf01fdc30784020492505b50909392505050565b60006020607f825b8160ff168360010160ff16101561117b57600260ff8484011604905084600160ff83166080811061116357fe5b01541061117257809250611176565b8091505b611136565b84600160ff84166080811061118c57fe5b01541061119b57819350610c41565b84600160ff8516608081106111ac57fe5b01541061006157829350610c41565b6000806000849150600090508360ff168583029060020a90049150816f03442c4e6074a82f1797f72ac000000002810190508360ff168583029060020a90049150816f0116b96f757c380fb287fd0e4000000002810190508360ff168583029060020a90049150816e45ae5bdd5f0e03eca1ff439000000002810190508360ff168583029060020a90049150816e0defabf91302cd95b9ffda5000000002810190508360ff168583029060020a90049150816e02529ca9832b22439efff9b800000002810190508360ff168583029060020a90049150816d54f1cf12bd04e516b6da8800000002810190508360ff168583029060020a90049150816d0a9e39e257a09ca2d6db5100000002810190508360ff168583029060020a90049150816d012e066e7b839fa050c30900000002810190508360ff168583029060020a90049150816c1e33d7d926c329a1ad1a80000002810190508360ff168583029060020a90049150816c02bee513bdb4a6b19b5f80000002810190508360ff168583029060020a90049150816b3a9316fa79b88eccf2a0000002810190508360ff168583029060020a90049150816b048177ebe1fa81237520000002810190508360ff168583029060020a90049150816a5263fe90242dcbacf0000002810190508360ff168583029060020a90049150816a057e22099c030d9410000002810190508360ff168583029060020a90049150816957e22099c030d941000002810190508360ff168583029060020a900491508169052b6b5456997631000002810190508360ff168583029060020a9004915081684985f67696bf74800002810190508360ff168583029060020a90049150816803dea12ea99e49800002810190508360ff168583029060020a90049150816731880f2214b6e00002810190508360ff168583029060020a900491508167025bcff56eb3600002810190508360ff168583029060020a9004915081661b722e10ab100002810190508360ff168583029060020a90049150816601317c7007700002810190508360ff168583029060020a9004915081650cba84aafa0002810190508360ff168583029060020a90049150816482573a0a0002810190508360ff168583029060020a90049150816405035ad90002810190508360ff168583029060020a9004915081632f881b0002810190508360ff168583029060020a90049150816301b2934002810190508360ff168583029060020a9004915081620efc4002810190508360ff168583029060020a9004915081617fe002810190508360ff168583029060020a900491508161042002810190508360ff168583029060020a9004915081602102810190508360ff168583029060020a9004915081600102810190508360ff1660019060020a02856f0688589cc0e9505e2f2fee5580000000838115156115d257fe5b04010195945050505050565b6000808061010084101561160d575b600184111561160857600290930492600191909101906115ed565b611647565b5060805b60008160ff1611156116475760ff811660020a841061163a5760ff811660020a90930492908117905b600260ff90911604611611565b50929150505600a165627a7a723058206cedc4f657ad0e0cc5ea4fe7e481fd07418536cb12fa9cbab30f2ae452b538bd0029",
  "source": "pragma solidity ^0.4.24;\nimport './interfaces/IBancorFormula.sol';\nimport '../utility/Utils.sol';\n\ncontract BancorFormula is IBancorFormula, Utils {\n    string public version = '0.3';\n\n    uint256 private constant ONE = 1;\n    uint32 private constant MAX_WEIGHT = 1000000;\n    uint8 private constant MIN_PRECISION = 32;\n    uint8 private constant MAX_PRECISION = 127;\n\n    /**\n        Auto-generated via 'PrintIntScalingFactors.py'\n    */\n    uint256 private constant FIXED_1 = 0x080000000000000000000000000000000;\n    uint256 private constant FIXED_2 = 0x100000000000000000000000000000000;\n    uint256 private constant MAX_NUM = 0x200000000000000000000000000000000;\n\n    /**\n        Auto-generated via 'PrintLn2ScalingFactors.py'\n    */\n    uint256 private constant LN2_NUMERATOR   = 0x3f80fe03f80fe03f80fe03f80fe03f8;\n    uint256 private constant LN2_DENOMINATOR = 0x5b9de1d10bf4103d647b0955897ba80;\n\n    /**\n        Auto-generated via 'PrintFunctionOptimalLog.py' and 'PrintFunctionOptimalExp.py'\n    */\n    uint256 private constant OPT_LOG_MAX_VAL = 0x15bf0a8b1457695355fb8ac404e7a79e3;\n    uint256 private constant OPT_EXP_MAX_VAL = 0x800000000000000000000000000000000;\n\n    /**\n        Auto-generated via 'PrintFunctionConstructor.py'\n    */\n    uint256[128] private maxExpArray;\n    constructor() public {\n    //  maxExpArray[  0] = 0x6bffffffffffffffffffffffffffffffff;\n    //  maxExpArray[  1] = 0x67ffffffffffffffffffffffffffffffff;\n    //  maxExpArray[  2] = 0x637fffffffffffffffffffffffffffffff;\n    //  maxExpArray[  3] = 0x5f6fffffffffffffffffffffffffffffff;\n    //  maxExpArray[  4] = 0x5b77ffffffffffffffffffffffffffffff;\n    //  maxExpArray[  5] = 0x57b3ffffffffffffffffffffffffffffff;\n    //  maxExpArray[  6] = 0x5419ffffffffffffffffffffffffffffff;\n    //  maxExpArray[  7] = 0x50a2ffffffffffffffffffffffffffffff;\n    //  maxExpArray[  8] = 0x4d517fffffffffffffffffffffffffffff;\n    //  maxExpArray[  9] = 0x4a233fffffffffffffffffffffffffffff;\n    //  maxExpArray[ 10] = 0x47165fffffffffffffffffffffffffffff;\n    //  maxExpArray[ 11] = 0x4429afffffffffffffffffffffffffffff;\n    //  maxExpArray[ 12] = 0x415bc7ffffffffffffffffffffffffffff;\n    //  maxExpArray[ 13] = 0x3eab73ffffffffffffffffffffffffffff;\n    //  maxExpArray[ 14] = 0x3c1771ffffffffffffffffffffffffffff;\n    //  maxExpArray[ 15] = 0x399e96ffffffffffffffffffffffffffff;\n    //  maxExpArray[ 16] = 0x373fc47fffffffffffffffffffffffffff;\n    //  maxExpArray[ 17] = 0x34f9e8ffffffffffffffffffffffffffff;\n    //  maxExpArray[ 18] = 0x32cbfd5fffffffffffffffffffffffffff;\n    //  maxExpArray[ 19] = 0x30b5057fffffffffffffffffffffffffff;\n    //  maxExpArray[ 20] = 0x2eb40f9fffffffffffffffffffffffffff;\n    //  maxExpArray[ 21] = 0x2cc8340fffffffffffffffffffffffffff;\n    //  maxExpArray[ 22] = 0x2af09481ffffffffffffffffffffffffff;\n    //  maxExpArray[ 23] = 0x292c5bddffffffffffffffffffffffffff;\n    //  maxExpArray[ 24] = 0x277abdcdffffffffffffffffffffffffff;\n    //  maxExpArray[ 25] = 0x25daf6657fffffffffffffffffffffffff;\n    //  maxExpArray[ 26] = 0x244c49c65fffffffffffffffffffffffff;\n    //  maxExpArray[ 27] = 0x22ce03cd5fffffffffffffffffffffffff;\n    //  maxExpArray[ 28] = 0x215f77c047ffffffffffffffffffffffff;\n    //  maxExpArray[ 29] = 0x1fffffffffffffffffffffffffffffffff;\n    //  maxExpArray[ 30] = 0x1eaefdbdabffffffffffffffffffffffff;\n    //  maxExpArray[ 31] = 0x1d6bd8b2ebffffffffffffffffffffffff;\n        maxExpArray[ 32] = 0x1c35fedd14ffffffffffffffffffffffff;\n        maxExpArray[ 33] = 0x1b0ce43b323fffffffffffffffffffffff;\n        maxExpArray[ 34] = 0x19f0028ec1ffffffffffffffffffffffff;\n        maxExpArray[ 35] = 0x18ded91f0e7fffffffffffffffffffffff;\n        maxExpArray[ 36] = 0x17d8ec7f0417ffffffffffffffffffffff;\n        maxExpArray[ 37] = 0x16ddc6556cdbffffffffffffffffffffff;\n        maxExpArray[ 38] = 0x15ecf52776a1ffffffffffffffffffffff;\n        maxExpArray[ 39] = 0x15060c256cb2ffffffffffffffffffffff;\n        maxExpArray[ 40] = 0x1428a2f98d72ffffffffffffffffffffff;\n        maxExpArray[ 41] = 0x13545598e5c23fffffffffffffffffffff;\n        maxExpArray[ 42] = 0x1288c4161ce1dfffffffffffffffffffff;\n        maxExpArray[ 43] = 0x11c592761c666fffffffffffffffffffff;\n        maxExpArray[ 44] = 0x110a688680a757ffffffffffffffffffff;\n        maxExpArray[ 45] = 0x1056f1b5bedf77ffffffffffffffffffff;\n        maxExpArray[ 46] = 0x0faadceceeff8bffffffffffffffffffff;\n        maxExpArray[ 47] = 0x0f05dc6b27edadffffffffffffffffffff;\n        maxExpArray[ 48] = 0x0e67a5a25da4107fffffffffffffffffff;\n        maxExpArray[ 49] = 0x0dcff115b14eedffffffffffffffffffff;\n        maxExpArray[ 50] = 0x0d3e7a392431239fffffffffffffffffff;\n        maxExpArray[ 51] = 0x0cb2ff529eb71e4fffffffffffffffffff;\n        maxExpArray[ 52] = 0x0c2d415c3db974afffffffffffffffffff;\n        maxExpArray[ 53] = 0x0bad03e7d883f69bffffffffffffffffff;\n        maxExpArray[ 54] = 0x0b320d03b2c343d5ffffffffffffffffff;\n        maxExpArray[ 55] = 0x0abc25204e02828dffffffffffffffffff;\n        maxExpArray[ 56] = 0x0a4b16f74ee4bb207fffffffffffffffff;\n        maxExpArray[ 57] = 0x09deaf736ac1f569ffffffffffffffffff;\n        maxExpArray[ 58] = 0x0976bd9952c7aa957fffffffffffffffff;\n        maxExpArray[ 59] = 0x09131271922eaa606fffffffffffffffff;\n        maxExpArray[ 60] = 0x08b380f3558668c46fffffffffffffffff;\n        maxExpArray[ 61] = 0x0857ddf0117efa215bffffffffffffffff;\n        maxExpArray[ 62] = 0x07ffffffffffffffffffffffffffffffff;\n        maxExpArray[ 63] = 0x07abbf6f6abb9d087fffffffffffffffff;\n        maxExpArray[ 64] = 0x075af62cbac95f7dfa7fffffffffffffff;\n        maxExpArray[ 65] = 0x070d7fb7452e187ac13fffffffffffffff;\n        maxExpArray[ 66] = 0x06c3390ecc8af379295fffffffffffffff;\n        maxExpArray[ 67] = 0x067c00a3b07ffc01fd6fffffffffffffff;\n        maxExpArray[ 68] = 0x0637b647c39cbb9d3d27ffffffffffffff;\n        maxExpArray[ 69] = 0x05f63b1fc104dbd39587ffffffffffffff;\n        maxExpArray[ 70] = 0x05b771955b36e12f7235ffffffffffffff;\n        maxExpArray[ 71] = 0x057b3d49dda84556d6f6ffffffffffffff;\n        maxExpArray[ 72] = 0x054183095b2c8ececf30ffffffffffffff;\n        maxExpArray[ 73] = 0x050a28be635ca2b888f77fffffffffffff;\n        maxExpArray[ 74] = 0x04d5156639708c9db33c3fffffffffffff;\n        maxExpArray[ 75] = 0x04a23105873875bd52dfdfffffffffffff;\n        maxExpArray[ 76] = 0x0471649d87199aa990756fffffffffffff;\n        maxExpArray[ 77] = 0x04429a21a029d4c1457cfbffffffffffff;\n        maxExpArray[ 78] = 0x0415bc6d6fb7dd71af2cb3ffffffffffff;\n        maxExpArray[ 79] = 0x03eab73b3bbfe282243ce1ffffffffffff;\n        maxExpArray[ 80] = 0x03c1771ac9fb6b4c18e229ffffffffffff;\n        maxExpArray[ 81] = 0x0399e96897690418f785257fffffffffff;\n        maxExpArray[ 82] = 0x0373fc456c53bb779bf0ea9fffffffffff;\n        maxExpArray[ 83] = 0x034f9e8e490c48e67e6ab8bfffffffffff;\n        maxExpArray[ 84] = 0x032cbfd4a7adc790560b3337ffffffffff;\n        maxExpArray[ 85] = 0x030b50570f6e5d2acca94613ffffffffff;\n        maxExpArray[ 86] = 0x02eb40f9f620fda6b56c2861ffffffffff;\n        maxExpArray[ 87] = 0x02cc8340ecb0d0f520a6af58ffffffffff;\n        maxExpArray[ 88] = 0x02af09481380a0a35cf1ba02ffffffffff;\n        maxExpArray[ 89] = 0x0292c5bdd3b92ec810287b1b3fffffffff;\n        maxExpArray[ 90] = 0x0277abdcdab07d5a77ac6d6b9fffffffff;\n        maxExpArray[ 91] = 0x025daf6654b1eaa55fd64df5efffffffff;\n        maxExpArray[ 92] = 0x0244c49c648baa98192dce88b7ffffffff;\n        maxExpArray[ 93] = 0x022ce03cd5619a311b2471268bffffffff;\n        maxExpArray[ 94] = 0x0215f77c045fbe885654a44a0fffffffff;\n        maxExpArray[ 95] = 0x01ffffffffffffffffffffffffffffffff;\n        maxExpArray[ 96] = 0x01eaefdbdaaee7421fc4d3ede5ffffffff;\n        maxExpArray[ 97] = 0x01d6bd8b2eb257df7e8ca57b09bfffffff;\n        maxExpArray[ 98] = 0x01c35fedd14b861eb0443f7f133fffffff;\n        maxExpArray[ 99] = 0x01b0ce43b322bcde4a56e8ada5afffffff;\n        maxExpArray[100] = 0x019f0028ec1fff007f5a195a39dfffffff;\n        maxExpArray[101] = 0x018ded91f0e72ee74f49b15ba527ffffff;\n        maxExpArray[102] = 0x017d8ec7f04136f4e5615fd41a63ffffff;\n        maxExpArray[103] = 0x016ddc6556cdb84bdc8d12d22e6fffffff;\n        maxExpArray[104] = 0x015ecf52776a1155b5bd8395814f7fffff;\n        maxExpArray[105] = 0x015060c256cb23b3b3cc3754cf40ffffff;\n        maxExpArray[106] = 0x01428a2f98d728ae223ddab715be3fffff;\n        maxExpArray[107] = 0x013545598e5c23276ccf0ede68034fffff;\n        maxExpArray[108] = 0x01288c4161ce1d6f54b7f61081194fffff;\n        maxExpArray[109] = 0x011c592761c666aa641d5a01a40f17ffff;\n        maxExpArray[110] = 0x0110a688680a7530515f3e6e6cfdcdffff;\n        maxExpArray[111] = 0x01056f1b5bedf75c6bcb2ce8aed428ffff;\n        maxExpArray[112] = 0x00faadceceeff8a0890f3875f008277fff;\n        maxExpArray[113] = 0x00f05dc6b27edad306388a600f6ba0bfff;\n        maxExpArray[114] = 0x00e67a5a25da41063de1495d5b18cdbfff;\n        maxExpArray[115] = 0x00dcff115b14eedde6fc3aa5353f2e4fff;\n        maxExpArray[116] = 0x00d3e7a3924312399f9aae2e0f868f8fff;\n        maxExpArray[117] = 0x00cb2ff529eb71e41582cccd5a1ee26fff;\n        maxExpArray[118] = 0x00c2d415c3db974ab32a51840c0b67edff;\n        maxExpArray[119] = 0x00bad03e7d883f69ad5b0a186184e06bff;\n        maxExpArray[120] = 0x00b320d03b2c343d4829abd6075f0cc5ff;\n        maxExpArray[121] = 0x00abc25204e02828d73c6e80bcdb1a95bf;\n        maxExpArray[122] = 0x00a4b16f74ee4bb2040a1ec6c15fbbf2df;\n        maxExpArray[123] = 0x009deaf736ac1f569deb1b5ae3f36c130f;\n        maxExpArray[124] = 0x00976bd9952c7aa957f5937d790ef65037;\n        maxExpArray[125] = 0x009131271922eaa6064b73a22d0bd4f2bf;\n        maxExpArray[126] = 0x008b380f3558668c46c91c49a2f8e967b9;\n        maxExpArray[127] = 0x00857ddf0117efa215952912839f6473e6;\n    }\n\n    /**\n        @dev given a token supply, connector balance, weight and a deposit amount (in the connector token),\n        calculates the return for a given conversion (in the main token)\n\n        Formula:\n        Return = _supply * ((1 + _depositAmount / _connectorBalance) ^ (_connectorWeight / 1000000) - 1)\n\n        @param _supply              token total supply\n        @param _connectorBalance    total connector balance\n        @param _connectorWeight     connector weight, represented in ppm, 1-1000000\n        @param _depositAmount       deposit amount, in connector token\n\n        @return purchase return amount\n    */\n    function calculatePurchaseReturn(uint256 _supply, uint256 _connectorBalance, uint32 _connectorWeight, uint256 _depositAmount) public view returns (uint256) {\n        // validate input\n        require(_supply > 0 && _connectorBalance > 0 && _connectorWeight > 0 && _connectorWeight <= MAX_WEIGHT);\n\n        // special case for 0 deposit amount\n        if (_depositAmount == 0)\n            return 0;\n\n        // special case if the weight = 100%\n        if (_connectorWeight == MAX_WEIGHT)\n            return safeMul(_supply, _depositAmount) / _connectorBalance;\n\n        uint256 result;\n        uint8 precision;\n        uint256 baseN = safeAdd(_depositAmount, _connectorBalance);\n        (result, precision) = power(baseN, _connectorBalance, _connectorWeight, MAX_WEIGHT);\n        uint256 temp = safeMul(_supply, result) >> precision;\n        return temp - _supply;\n    }\n\n    /**\n        @dev given a token supply, connector balance, weight and a sell amount (in the main token),\n        calculates the return for a given conversion (in the connector token)\n\n        Formula:\n        Return = _connectorBalance * (1 - (1 - _sellAmount / _supply) ^ (1 / (_connectorWeight / 1000000)))\n\n        @param _supply              token total supply\n        @param _connectorBalance    total connector\n        @param _connectorWeight     constant connector Weight, represented in ppm, 1-1000000\n        @param _sellAmount          sell amount, in the token itself\n\n        @return sale return amount\n    */\n    function calculateSaleReturn(uint256 _supply, uint256 _connectorBalance, uint32 _connectorWeight, uint256 _sellAmount) public view returns (uint256) {\n        // validate input\n        require(_supply > 0 && _connectorBalance > 0 && _connectorWeight > 0 && _connectorWeight <= MAX_WEIGHT && _sellAmount <= _supply);\n\n        // special case for 0 sell amount\n        if (_sellAmount == 0)\n            return 0;\n\n        // special case for selling the entire supply\n        if (_sellAmount == _supply)\n            return _connectorBalance;\n\n        // special case if the weight = 100%\n        if (_connectorWeight == MAX_WEIGHT)\n            return safeMul(_connectorBalance, _sellAmount) / _supply;\n\n        uint256 result;\n        uint8 precision;\n        uint256 baseD = _supply - _sellAmount;\n        (result, precision) = power(_supply, baseD, MAX_WEIGHT, _connectorWeight);\n        uint256 temp1 = safeMul(_connectorBalance, result);\n        uint256 temp2 = _connectorBalance << precision;\n        return (temp1 - temp2) / result;\n    }\n\n    /**\n        @dev given two connector balances/weights and a sell amount (in the first connector token),\n        calculates the return for a conversion from the first connector token to the second connector token (in the second connector token)\n\n        Formula:\n        Return = _toConnectorBalance * (1 - (_fromConnectorBalance / (_fromConnectorBalance + _amount)) ^ (_fromConnectorWeight / _toConnectorWeight))\n\n        @param _fromConnectorBalance    input connector balance\n        @param _fromConnectorWeight     input connector weight, represented in ppm, 1-1000000\n        @param _toConnectorBalance      output connector balance\n        @param _toConnectorWeight       output connector weight, represented in ppm, 1-1000000\n        @param _amount                  input connector amount\n\n        @return second connector amount\n    */\n    function calculateCrossConnectorReturn(uint256 _fromConnectorBalance, uint32 _fromConnectorWeight, uint256 _toConnectorBalance, uint32 _toConnectorWeight, uint256 _amount) public view returns (uint256) {\n        // validate input\n        require(_fromConnectorBalance > 0 && _fromConnectorWeight > 0 && _fromConnectorWeight <= MAX_WEIGHT && _toConnectorBalance > 0 && _toConnectorWeight > 0 && _toConnectorWeight <= MAX_WEIGHT);\n\n        // special case for equal weights\n        if (_fromConnectorWeight == _toConnectorWeight)\n            return safeMul(_toConnectorBalance, _amount) / safeAdd(_fromConnectorBalance, _amount);\n\n        uint256 result;\n        uint8 precision;\n        uint256 baseN = safeAdd(_fromConnectorBalance, _amount);\n        (result, precision) = power(baseN, _fromConnectorBalance, _fromConnectorWeight, _toConnectorWeight);\n        uint256 temp1 = safeMul(_toConnectorBalance, result);\n        uint256 temp2 = _toConnectorBalance << precision;\n        return (temp1 - temp2) / result;\n    }\n\n    /**\n        General Description:\n            Determine a value of precision.\n            Calculate an integer approximation of (_baseN / _baseD) ^ (_expN / _expD) * 2 ^ precision.\n            Return the result along with the precision used.\n\n        Detailed Description:\n            Instead of calculating \"base ^ exp\", we calculate \"e ^ (log(base) * exp)\".\n            The value of \"log(base)\" is represented with an integer slightly smaller than \"log(base) * 2 ^ precision\".\n            The larger \"precision\" is, the more accurately this value represents the real value.\n            However, the larger \"precision\" is, the more bits are required in order to store this value.\n            And the exponentiation function, which takes \"x\" and calculates \"e ^ x\", is limited to a maximum exponent (maximum value of \"x\").\n            This maximum exponent depends on the \"precision\" used, and it is given by \"maxExpArray[precision] >> (MAX_PRECISION - precision)\".\n            Hence we need to determine the highest precision which can be used for the given input, before calling the exponentiation function.\n            This allows us to compute \"base ^ exp\" with maximum accuracy and without exceeding 256 bits in any of the intermediate computations.\n            This functions assumes that \"_expN < 2 ^ 256 / log(MAX_NUM - 1)\", otherwise the multiplication should be replaced with a \"safeMul\".\n    */\n    function power(uint256 _baseN, uint256 _baseD, uint32 _expN, uint32 _expD) internal view returns (uint256, uint8) {\n        require(_baseN < MAX_NUM);\n\n        uint256 baseLog;\n        uint256 base = _baseN * FIXED_1 / _baseD;\n        if (base < OPT_LOG_MAX_VAL) {\n            baseLog = optimalLog(base);\n        }\n        else {\n            baseLog = generalLog(base);\n        }\n\n        uint256 baseLogTimesExp = baseLog * _expN / _expD;\n        if (baseLogTimesExp < OPT_EXP_MAX_VAL) {\n            return (optimalExp(baseLogTimesExp), MAX_PRECISION);\n        }\n        else {\n            uint8 precision = findPositionInMaxExpArray(baseLogTimesExp);\n            return (generalExp(baseLogTimesExp >> (MAX_PRECISION - precision), precision), precision);\n        }\n    }\n\n    /**\n        Compute log(x / FIXED_1) * FIXED_1.\n        This functions assumes that \"x >= FIXED_1\", because the output would be negative otherwise.\n    */\n    function generalLog(uint256 x) internal pure returns (uint256) {\n        uint256 res = 0;\n\n        // If x >= 2, then we compute the integer part of log2(x), which is larger than 0.\n        if (x >= FIXED_2) {\n            uint8 count = floorLog2(x / FIXED_1);\n            x >>= count; // now x < 2\n            res = count * FIXED_1;\n        }\n\n        // If x > 1, then we compute the fraction part of log2(x), which is larger than 0.\n        if (x > FIXED_1) {\n            for (uint8 i = MAX_PRECISION; i > 0; --i) {\n                x = (x * x) / FIXED_1; // now 1 < x < 4\n                if (x >= FIXED_2) {\n                    x >>= 1; // now 1 < x < 2\n                    res += ONE << (i - 1);\n                }\n            }\n        }\n\n        return res * LN2_NUMERATOR / LN2_DENOMINATOR;\n    }\n\n    /**\n        Compute the largest integer smaller than or equal to the binary logarithm of the input.\n    */\n    function floorLog2(uint256 _n) internal pure returns (uint8) {\n        uint8 res = 0;\n\n        if (_n < 256) {\n            // At most 8 iterations\n            while (_n > 1) {\n                _n >>= 1;\n                res += 1;\n            }\n        }\n        else {\n            // Exactly 8 iterations\n            for (uint8 s = 128; s > 0; s >>= 1) {\n                if (_n >= (ONE << s)) {\n                    _n >>= s;\n                    res |= s;\n                }\n            }\n        }\n\n        return res;\n    }\n\n    /**\n        The global \"maxExpArray\" is sorted in descending order, and therefore the following statements are equivalent:\n        - This function finds the position of [the smallest value in \"maxExpArray\" larger than or equal to \"x\"]\n        - This function finds the highest position of [a value in \"maxExpArray\" larger than or equal to \"x\"]\n    */\n    function findPositionInMaxExpArray(uint256 _x) internal view returns (uint8) {\n        uint8 lo = MIN_PRECISION;\n        uint8 hi = MAX_PRECISION;\n\n        while (lo + 1 < hi) {\n            uint8 mid = (lo + hi) / 2;\n            if (maxExpArray[mid] >= _x)\n                lo = mid;\n            else\n                hi = mid;\n        }\n\n        if (maxExpArray[hi] >= _x)\n            return hi;\n        if (maxExpArray[lo] >= _x)\n            return lo;\n\n        require(false);\n        return 0;\n    }\n\n    /**\n        This function can be auto-generated by the script 'PrintFunctionGeneralExp.py'.\n        It approximates \"e ^ x\" via maclaurin summation: \"(x^0)/0! + (x^1)/1! + ... + (x^n)/n!\".\n        It returns \"e ^ (x / 2 ^ precision) * 2 ^ precision\", that is, the result is upshifted for accuracy.\n        The global \"maxExpArray\" maps each \"precision\" to \"((maximumExponent + 1) << (MAX_PRECISION - precision)) - 1\".\n        The maximum permitted value for \"x\" is therefore given by \"maxExpArray[precision] >> (MAX_PRECISION - precision)\".\n    */\n    function generalExp(uint256 _x, uint8 _precision) internal pure returns (uint256) {\n        uint256 xi = _x;\n        uint256 res = 0;\n\n        xi = (xi * _x) >> _precision; res += xi * 0x3442c4e6074a82f1797f72ac0000000; // add x^02 * (33! / 02!)\n        xi = (xi * _x) >> _precision; res += xi * 0x116b96f757c380fb287fd0e40000000; // add x^03 * (33! / 03!)\n        xi = (xi * _x) >> _precision; res += xi * 0x045ae5bdd5f0e03eca1ff4390000000; // add x^04 * (33! / 04!)\n        xi = (xi * _x) >> _precision; res += xi * 0x00defabf91302cd95b9ffda50000000; // add x^05 * (33! / 05!)\n        xi = (xi * _x) >> _precision; res += xi * 0x002529ca9832b22439efff9b8000000; // add x^06 * (33! / 06!)\n        xi = (xi * _x) >> _precision; res += xi * 0x00054f1cf12bd04e516b6da88000000; // add x^07 * (33! / 07!)\n        xi = (xi * _x) >> _precision; res += xi * 0x0000a9e39e257a09ca2d6db51000000; // add x^08 * (33! / 08!)\n        xi = (xi * _x) >> _precision; res += xi * 0x000012e066e7b839fa050c309000000; // add x^09 * (33! / 09!)\n        xi = (xi * _x) >> _precision; res += xi * 0x000001e33d7d926c329a1ad1a800000; // add x^10 * (33! / 10!)\n        xi = (xi * _x) >> _precision; res += xi * 0x0000002bee513bdb4a6b19b5f800000; // add x^11 * (33! / 11!)\n        xi = (xi * _x) >> _precision; res += xi * 0x00000003a9316fa79b88eccf2a00000; // add x^12 * (33! / 12!)\n        xi = (xi * _x) >> _precision; res += xi * 0x0000000048177ebe1fa812375200000; // add x^13 * (33! / 13!)\n        xi = (xi * _x) >> _precision; res += xi * 0x0000000005263fe90242dcbacf00000; // add x^14 * (33! / 14!)\n        xi = (xi * _x) >> _precision; res += xi * 0x000000000057e22099c030d94100000; // add x^15 * (33! / 15!)\n        xi = (xi * _x) >> _precision; res += xi * 0x0000000000057e22099c030d9410000; // add x^16 * (33! / 16!)\n        xi = (xi * _x) >> _precision; res += xi * 0x00000000000052b6b54569976310000; // add x^17 * (33! / 17!)\n        xi = (xi * _x) >> _precision; res += xi * 0x00000000000004985f67696bf748000; // add x^18 * (33! / 18!)\n        xi = (xi * _x) >> _precision; res += xi * 0x000000000000003dea12ea99e498000; // add x^19 * (33! / 19!)\n        xi = (xi * _x) >> _precision; res += xi * 0x00000000000000031880f2214b6e000; // add x^20 * (33! / 20!)\n        xi = (xi * _x) >> _precision; res += xi * 0x000000000000000025bcff56eb36000; // add x^21 * (33! / 21!)\n        xi = (xi * _x) >> _precision; res += xi * 0x000000000000000001b722e10ab1000; // add x^22 * (33! / 22!)\n        xi = (xi * _x) >> _precision; res += xi * 0x0000000000000000001317c70077000; // add x^23 * (33! / 23!)\n        xi = (xi * _x) >> _precision; res += xi * 0x00000000000000000000cba84aafa00; // add x^24 * (33! / 24!)\n        xi = (xi * _x) >> _precision; res += xi * 0x00000000000000000000082573a0a00; // add x^25 * (33! / 25!)\n        xi = (xi * _x) >> _precision; res += xi * 0x00000000000000000000005035ad900; // add x^26 * (33! / 26!)\n        xi = (xi * _x) >> _precision; res += xi * 0x000000000000000000000002f881b00; // add x^27 * (33! / 27!)\n        xi = (xi * _x) >> _precision; res += xi * 0x0000000000000000000000001b29340; // add x^28 * (33! / 28!)\n        xi = (xi * _x) >> _precision; res += xi * 0x00000000000000000000000000efc40; // add x^29 * (33! / 29!)\n        xi = (xi * _x) >> _precision; res += xi * 0x0000000000000000000000000007fe0; // add x^30 * (33! / 30!)\n        xi = (xi * _x) >> _precision; res += xi * 0x0000000000000000000000000000420; // add x^31 * (33! / 31!)\n        xi = (xi * _x) >> _precision; res += xi * 0x0000000000000000000000000000021; // add x^32 * (33! / 32!)\n        xi = (xi * _x) >> _precision; res += xi * 0x0000000000000000000000000000001; // add x^33 * (33! / 33!)\n\n        return res / 0x688589cc0e9505e2f2fee5580000000 + _x + (ONE << _precision); // divide by 33! and then add x^1 / 1! + x^0 / 0!\n    }\n\n    /**\n        Return log(x / FIXED_1) * FIXED_1\n        Input range: FIXED_1 <= x <= LOG_EXP_MAX_VAL - 1\n        Auto-generated via 'PrintFunctionOptimalLog.py'\n        Detailed description:\n        - Rewrite the input as a product of natural exponents and a single residual r, such that 1 < r < 2\n        - The natural logarithm of each (pre-calculated) exponent is the degree of the exponent\n        - The natural logarithm of r is calculated via Taylor series for log(1 + x), where x = r - 1\n        - The natural logarithm of the input is calculated by summing up the intermediate results above\n        - For example: log(250) = log(e^4 * e^1 * e^0.5 * 1.021692859) = 4 + 1 + 0.5 + log(1 + 0.021692859)\n    */\n    function optimalLog(uint256 x) internal pure returns (uint256) {\n        uint256 res = 0;\n\n        uint256 y;\n        uint256 z;\n        uint256 w;\n\n        if (x >= 0xd3094c70f034de4b96ff7d5b6f99fcd8) {res += 0x40000000000000000000000000000000; x = x * FIXED_1 / 0xd3094c70f034de4b96ff7d5b6f99fcd8;} // add 1 / 2^1\n        if (x >= 0xa45af1e1f40c333b3de1db4dd55f29a7) {res += 0x20000000000000000000000000000000; x = x * FIXED_1 / 0xa45af1e1f40c333b3de1db4dd55f29a7;} // add 1 / 2^2\n        if (x >= 0x910b022db7ae67ce76b441c27035c6a1) {res += 0x10000000000000000000000000000000; x = x * FIXED_1 / 0x910b022db7ae67ce76b441c27035c6a1;} // add 1 / 2^3\n        if (x >= 0x88415abbe9a76bead8d00cf112e4d4a8) {res += 0x08000000000000000000000000000000; x = x * FIXED_1 / 0x88415abbe9a76bead8d00cf112e4d4a8;} // add 1 / 2^4\n        if (x >= 0x84102b00893f64c705e841d5d4064bd3) {res += 0x04000000000000000000000000000000; x = x * FIXED_1 / 0x84102b00893f64c705e841d5d4064bd3;} // add 1 / 2^5\n        if (x >= 0x8204055aaef1c8bd5c3259f4822735a2) {res += 0x02000000000000000000000000000000; x = x * FIXED_1 / 0x8204055aaef1c8bd5c3259f4822735a2;} // add 1 / 2^6\n        if (x >= 0x810100ab00222d861931c15e39b44e99) {res += 0x01000000000000000000000000000000; x = x * FIXED_1 / 0x810100ab00222d861931c15e39b44e99;} // add 1 / 2^7\n        if (x >= 0x808040155aabbbe9451521693554f733) {res += 0x00800000000000000000000000000000; x = x * FIXED_1 / 0x808040155aabbbe9451521693554f733;} // add 1 / 2^8\n\n        z = y = x - FIXED_1;\n        w = y * y / FIXED_1;\n        res += z * (0x100000000000000000000000000000000 - y) / 0x100000000000000000000000000000000; z = z * w / FIXED_1; // add y^01 / 01 - y^02 / 02\n        res += z * (0x0aaaaaaaaaaaaaaaaaaaaaaaaaaaaaaaa - y) / 0x200000000000000000000000000000000; z = z * w / FIXED_1; // add y^03 / 03 - y^04 / 04\n        res += z * (0x099999999999999999999999999999999 - y) / 0x300000000000000000000000000000000; z = z * w / FIXED_1; // add y^05 / 05 - y^06 / 06\n        res += z * (0x092492492492492492492492492492492 - y) / 0x400000000000000000000000000000000; z = z * w / FIXED_1; // add y^07 / 07 - y^08 / 08\n        res += z * (0x08e38e38e38e38e38e38e38e38e38e38e - y) / 0x500000000000000000000000000000000; z = z * w / FIXED_1; // add y^09 / 09 - y^10 / 10\n        res += z * (0x08ba2e8ba2e8ba2e8ba2e8ba2e8ba2e8b - y) / 0x600000000000000000000000000000000; z = z * w / FIXED_1; // add y^11 / 11 - y^12 / 12\n        res += z * (0x089d89d89d89d89d89d89d89d89d89d89 - y) / 0x700000000000000000000000000000000; z = z * w / FIXED_1; // add y^13 / 13 - y^14 / 14\n        res += z * (0x088888888888888888888888888888888 - y) / 0x800000000000000000000000000000000;                      // add y^15 / 15 - y^16 / 16\n\n        return res;\n    }\n\n    /**\n        Return e ^ (x / FIXED_1) * FIXED_1\n        Input range: 0 <= x <= OPT_EXP_MAX_VAL - 1\n        Auto-generated via 'PrintFunctionOptimalExp.py'\n        Detailed description:\n        - Rewrite the input as a sum of binary exponents and a single residual r, as small as possible\n        - The exponentiation of each binary exponent is given (pre-calculated)\n        - The exponentiation of r is calculated via Taylor series for e^x, where x = r\n        - The exponentiation of the input is calculated by multiplying the intermediate results above\n        - For example: e^5.021692859 = e^(4 + 1 + 0.5 + 0.021692859) = e^4 * e^1 * e^0.5 * e^0.021692859\n    */\n    function optimalExp(uint256 x) internal pure returns (uint256) {\n        uint256 res = 0;\n\n        uint256 y;\n        uint256 z;\n\n        z = y = x % 0x10000000000000000000000000000000; // get the input modulo 2^(-3)\n        z = z * y / FIXED_1; res += z * 0x10e1b3be415a0000; // add y^02 * (20! / 02!)\n        z = z * y / FIXED_1; res += z * 0x05a0913f6b1e0000; // add y^03 * (20! / 03!)\n        z = z * y / FIXED_1; res += z * 0x0168244fdac78000; // add y^04 * (20! / 04!)\n        z = z * y / FIXED_1; res += z * 0x004807432bc18000; // add y^05 * (20! / 05!)\n        z = z * y / FIXED_1; res += z * 0x000c0135dca04000; // add y^06 * (20! / 06!)\n        z = z * y / FIXED_1; res += z * 0x0001b707b1cdc000; // add y^07 * (20! / 07!)\n        z = z * y / FIXED_1; res += z * 0x000036e0f639b800; // add y^08 * (20! / 08!)\n        z = z * y / FIXED_1; res += z * 0x00000618fee9f800; // add y^09 * (20! / 09!)\n        z = z * y / FIXED_1; res += z * 0x0000009c197dcc00; // add y^10 * (20! / 10!)\n        z = z * y / FIXED_1; res += z * 0x0000000e30dce400; // add y^11 * (20! / 11!)\n        z = z * y / FIXED_1; res += z * 0x000000012ebd1300; // add y^12 * (20! / 12!)\n        z = z * y / FIXED_1; res += z * 0x0000000017499f00; // add y^13 * (20! / 13!)\n        z = z * y / FIXED_1; res += z * 0x0000000001a9d480; // add y^14 * (20! / 14!)\n        z = z * y / FIXED_1; res += z * 0x00000000001c6380; // add y^15 * (20! / 15!)\n        z = z * y / FIXED_1; res += z * 0x000000000001c638; // add y^16 * (20! / 16!)\n        z = z * y / FIXED_1; res += z * 0x0000000000001ab8; // add y^17 * (20! / 17!)\n        z = z * y / FIXED_1; res += z * 0x000000000000017c; // add y^18 * (20! / 18!)\n        z = z * y / FIXED_1; res += z * 0x0000000000000014; // add y^19 * (20! / 19!)\n        z = z * y / FIXED_1; res += z * 0x0000000000000001; // add y^20 * (20! / 20!)\n        res = res / 0x21c3677c82b40000 + y + FIXED_1; // divide by 20! and then add y^1 / 1! + y^0 / 0!\n\n        if ((x & 0x010000000000000000000000000000000) != 0) res = res * 0x1c3d6a24ed82218787d624d3e5eba95f9 / 0x18ebef9eac820ae8682b9793ac6d1e776; // multiply by e^2^(-3)\n        if ((x & 0x020000000000000000000000000000000) != 0) res = res * 0x18ebef9eac820ae8682b9793ac6d1e778 / 0x1368b2fc6f9609fe7aceb46aa619baed4; // multiply by e^2^(-2)\n        if ((x & 0x040000000000000000000000000000000) != 0) res = res * 0x1368b2fc6f9609fe7aceb46aa619baed5 / 0x0bc5ab1b16779be3575bd8f0520a9f21f; // multiply by e^2^(-1)\n        if ((x & 0x080000000000000000000000000000000) != 0) res = res * 0x0bc5ab1b16779be3575bd8f0520a9f21e / 0x0454aaa8efe072e7f6ddbab84b40a55c9; // multiply by e^2^(+0)\n        if ((x & 0x100000000000000000000000000000000) != 0) res = res * 0x0454aaa8efe072e7f6ddbab84b40a55c5 / 0x00960aadc109e7a3bf4578099615711ea; // multiply by e^2^(+1)\n        if ((x & 0x200000000000000000000000000000000) != 0) res = res * 0x00960aadc109e7a3bf4578099615711d7 / 0x0002bf84208204f5977f9a8cf01fdce3d; // multiply by e^2^(+2)\n        if ((x & 0x400000000000000000000000000000000) != 0) res = res * 0x0002bf84208204f5977f9a8cf01fdc307 / 0x0000003c6ab775dd0b95b4cbee7e65d11; // multiply by e^2^(+3)\n\n        return res;\n    }\n}\n",
  "sourcePath": "bancor-contracts/solidity/contracts/converter/BancorFormula.sol",
  "compiler": {
    "name": "solc",
    "version": "0.4.24+commit.e67f0147.Emscripten.clang"
  },
  "schemaVersion": "2.0.1",
  "updatedAt": "2019-08-14T20:15:56.643Z"
}