{
  "contractName": "BancorFormula",
  "abi": [
    {
      "constant": true,
      "inputs": [],
      "name": "version",
      "outputs": [
        {
          "name": "",
          "type": "string"
        }
      ],
      "payable": false,
      "stateMutability": "view",
      "type": "function"
    },
    {
      "inputs": [],
      "payable": false,
      "stateMutability": "nonpayable",
      "type": "constructor"
    },
    {
      "constant": true,
      "inputs": [
        {
          "name": "_supply",
          "type": "uint256"
        },
        {
          "name": "_connectorBalance",
          "type": "uint256"
        },
        {
          "name": "_connectorWeight",
          "type": "uint32"
        },
        {
          "name": "_depositAmount",
          "type": "uint256"
        }
      ],
      "name": "calculatePurchaseReturn",
      "outputs": [
        {
          "name": "",
          "type": "uint256"
        }
      ],
      "payable": false,
      "stateMutability": "view",
      "type": "function"
    },
    {
      "constant": true,
      "inputs": [
        {
          "name": "_supply",
          "type": "uint256"
        },
        {
          "name": "_connectorBalance",
          "type": "uint256"
        },
        {
          "name": "_connectorWeight",
          "type": "uint32"
        },
        {
          "name": "_sellAmount",
          "type": "uint256"
        }
      ],
      "name": "calculateSaleReturn",
      "outputs": [
        {
          "name": "",
          "type": "uint256"
        }
      ],
      "payable": false,
      "stateMutability": "view",
      "type": "function"
    },
    {
      "constant": true,
      "inputs": [
        {
          "name": "_fromConnectorBalance",
          "type": "uint256"
        },
        {
          "name": "_fromConnectorWeight",
          "type": "uint32"
        },
        {
          "name": "_toConnectorBalance",
          "type": "uint256"
        },
        {
          "name": "_toConnectorWeight",
          "type": "uint32"
        },
        {
          "name": "_amount",
          "type": "uint256"
        }
      ],
      "name": "calculateCrossConnectorReturn",
      "outputs": [
        {
          "name": "",
          "type": "uint256"
        }
      ],
      "payable": false,
      "stateMutability": "view",
      "type": "function"
    }
  ],
  "bytecode": "0x60806040526040805190810160405280600381526020017f302e330000000000000000000000000000000000000000000000000000000000815250600090805190602001906200005192919062000f56565b503480156200005f57600080fd5b50701c35fedd14ffffffffffffffffffffffff600160206080811015156200008357fe5b0181905550701b0ce43b323fffffffffffffffffffffff60016021608081101515620000ab57fe5b01819055507019f0028ec1ffffffffffffffffffffffff60016022608081101515620000d357fe5b01819055507018ded91f0e7fffffffffffffffffffffff60016023608081101515620000fb57fe5b01819055507017d8ec7f0417ffffffffffffffffffffff600160246080811015156200012357fe5b01819055507016ddc6556cdbffffffffffffffffffffff600160256080811015156200014b57fe5b01819055507015ecf52776a1ffffffffffffffffffffff600160266080811015156200017357fe5b01819055507015060c256cb2ffffffffffffffffffffff600160276080811015156200019b57fe5b0181905550701428a2f98d72ffffffffffffffffffffff60016028608081101515620001c357fe5b01819055507013545598e5c23fffffffffffffffffffff60016029608081101515620001eb57fe5b0181905550701288c4161ce1dfffffffffffffffffffff6001602a6080811015156200021357fe5b01819055507011c592761c666fffffffffffffffffffff6001602b6080811015156200023b57fe5b018190555070110a688680a757ffffffffffffffffffff6001602c6080811015156200026357fe5b0181905550701056f1b5bedf77ffffffffffffffffffff6001602d6080811015156200028b57fe5b0181905550700faadceceeff8bffffffffffffffffffff6001602e608081101515620002b357fe5b0181905550700f05dc6b27edadffffffffffffffffffff6001602f608081101515620002db57fe5b0181905550700e67a5a25da4107fffffffffffffffffff600160306080811015156200030357fe5b0181905550700dcff115b14eedffffffffffffffffffff600160316080811015156200032b57fe5b0181905550700d3e7a392431239fffffffffffffffffff600160326080811015156200035357fe5b0181905550700cb2ff529eb71e4fffffffffffffffffff600160336080811015156200037b57fe5b0181905550700c2d415c3db974afffffffffffffffffff60016034608081101515620003a357fe5b0181905550700bad03e7d883f69bffffffffffffffffff60016035608081101515620003cb57fe5b0181905550700b320d03b2c343d5ffffffffffffffffff60016036608081101515620003f357fe5b0181905550700abc25204e02828dffffffffffffffffff600160376080811015156200041b57fe5b0181905550700a4b16f74ee4bb207fffffffffffffffff600160386080811015156200044357fe5b01819055507009deaf736ac1f569ffffffffffffffffff600160396080811015156200046b57fe5b0181905550700976bd9952c7aa957fffffffffffffffff6001603a6080811015156200049357fe5b01819055507009131271922eaa606fffffffffffffffff6001603b608081101515620004bb57fe5b01819055507008b380f3558668c46fffffffffffffffff6001603c608081101515620004e357fe5b0181905550700857ddf0117efa215bffffffffffffffff6001603d6080811015156200050b57fe5b01819055507007ffffffffffffffffffffffffffffffff6001603e6080811015156200053357fe5b01819055507007abbf6f6abb9d087fffffffffffffffff6001603f6080811015156200055b57fe5b018190555070075af62cbac95f7dfa7fffffffffffffff600160406080811015156200058357fe5b018190555070070d7fb7452e187ac13fffffffffffffff60016041608081101515620005ab57fe5b01819055507006c3390ecc8af379295fffffffffffffff60016042608081101515620005d357fe5b018190555070067c00a3b07ffc01fd6fffffffffffffff60016043608081101515620005fb57fe5b0181905550700637b647c39cbb9d3d27ffffffffffffff600160446080811015156200062357fe5b01819055507005f63b1fc104dbd39587ffffffffffffff600160456080811015156200064b57fe5b01819055507005b771955b36e12f7235ffffffffffffff600160466080811015156200067357fe5b018190555070057b3d49dda84556d6f6ffffffffffffff600160476080811015156200069b57fe5b018190555070054183095b2c8ececf30ffffffffffffff60016048608081101515620006c357fe5b018190555070050a28be635ca2b888f77fffffffffffff60016049608081101515620006eb57fe5b01819055507004d5156639708c9db33c3fffffffffffff6001604a6080811015156200071357fe5b01819055507004a23105873875bd52dfdfffffffffffff6001604b6080811015156200073b57fe5b0181905550700471649d87199aa990756fffffffffffff6001604c6080811015156200076357fe5b01819055507004429a21a029d4c1457cfbffffffffffff6001604d6080811015156200078b57fe5b0181905550700415bc6d6fb7dd71af2cb3ffffffffffff6001604e608081101515620007b357fe5b01819055507003eab73b3bbfe282243ce1ffffffffffff6001604f608081101515620007db57fe5b01819055507003c1771ac9fb6b4c18e229ffffffffffff600160506080811015156200080357fe5b0181905550700399e96897690418f785257fffffffffff600160516080811015156200082b57fe5b0181905550700373fc456c53bb779bf0ea9fffffffffff600160526080811015156200085357fe5b018190555070034f9e8e490c48e67e6ab8bfffffffffff600160536080811015156200087b57fe5b018190555070032cbfd4a7adc790560b3337ffffffffff60016054608081101515620008a357fe5b018190555070030b50570f6e5d2acca94613ffffffffff60016055608081101515620008cb57fe5b01819055507002eb40f9f620fda6b56c2861ffffffffff60016056608081101515620008f357fe5b01819055507002cc8340ecb0d0f520a6af58ffffffffff600160576080811015156200091b57fe5b01819055507002af09481380a0a35cf1ba02ffffffffff600160586080811015156200094357fe5b0181905550700292c5bdd3b92ec810287b1b3fffffffff600160596080811015156200096b57fe5b0181905550700277abdcdab07d5a77ac6d6b9fffffffff6001605a6080811015156200099357fe5b018190555070025daf6654b1eaa55fd64df5efffffffff6001605b608081101515620009bb57fe5b0181905550700244c49c648baa98192dce88b7ffffffff6001605c608081101515620009e357fe5b018190555070022ce03cd5619a311b2471268bffffffff6001605d60808110151562000a0b57fe5b0181905550700215f77c045fbe885654a44a0fffffffff6001605e60808110151562000a3357fe5b01819055507001ffffffffffffffffffffffffffffffff6001605f60808110151562000a5b57fe5b01819055507001eaefdbdaaee7421fc4d3ede5ffffffff6001606060808110151562000a8357fe5b01819055507001d6bd8b2eb257df7e8ca57b09bfffffff6001606160808110151562000aab57fe5b01819055507001c35fedd14b861eb0443f7f133fffffff6001606260808110151562000ad357fe5b01819055507001b0ce43b322bcde4a56e8ada5afffffff6001606360808110151562000afb57fe5b018190555070019f0028ec1fff007f5a195a39dfffffff6001606460808110151562000b2357fe5b018190555070018ded91f0e72ee74f49b15ba527ffffff6001606560808110151562000b4b57fe5b018190555070017d8ec7f04136f4e5615fd41a63ffffff6001606660808110151562000b7357fe5b018190555070016ddc6556cdb84bdc8d12d22e6fffffff6001606760808110151562000b9b57fe5b018190555070015ecf52776a1155b5bd8395814f7fffff6001606860808110151562000bc357fe5b018190555070015060c256cb23b3b3cc3754cf40ffffff6001606960808110151562000beb57fe5b01819055507001428a2f98d728ae223ddab715be3fffff6001606a60808110151562000c1357fe5b018190555070013545598e5c23276ccf0ede68034fffff6001606b60808110151562000c3b57fe5b01819055507001288c4161ce1d6f54b7f61081194fffff6001606c60808110151562000c6357fe5b018190555070011c592761c666aa641d5a01a40f17ffff6001606d60808110151562000c8b57fe5b0181905550700110a688680a7530515f3e6e6cfdcdffff6001606e60808110151562000cb357fe5b01819055507001056f1b5bedf75c6bcb2ce8aed428ffff6001606f60808110151562000cdb57fe5b01819055506ffaadceceeff8a0890f3875f008277fff6001607060808110151562000d0257fe5b01819055506ff05dc6b27edad306388a600f6ba0bfff6001607160808110151562000d2957fe5b01819055506fe67a5a25da41063de1495d5b18cdbfff6001607260808110151562000d5057fe5b01819055506fdcff115b14eedde6fc3aa5353f2e4fff6001607360808110151562000d7757fe5b01819055506fd3e7a3924312399f9aae2e0f868f8fff6001607460808110151562000d9e57fe5b01819055506fcb2ff529eb71e41582cccd5a1ee26fff6001607560808110151562000dc557fe5b01819055506fc2d415c3db974ab32a51840c0b67edff6001607660808110151562000dec57fe5b01819055506fbad03e7d883f69ad5b0a186184e06bff6001607760808110151562000e1357fe5b01819055506fb320d03b2c343d4829abd6075f0cc5ff6001607860808110151562000e3a57fe5b01819055506fabc25204e02828d73c6e80bcdb1a95bf6001607960808110151562000e6157fe5b01819055506fa4b16f74ee4bb2040a1ec6c15fbbf2df6001607a60808110151562000e8857fe5b01819055506f9deaf736ac1f569deb1b5ae3f36c130f6001607b60808110151562000eaf57fe5b01819055506f976bd9952c7aa957f5937d790ef650376001607c60808110151562000ed657fe5b01819055506f9131271922eaa6064b73a22d0bd4f2bf6001607d60808110151562000efd57fe5b01819055506f8b380f3558668c46c91c49a2f8e967b96001607e60808110151562000f2457fe5b01819055506f857ddf0117efa215952912839f6473e66001607f60808110151562000f4b57fe5b018190555062001005565b828054600181600116156101000203166002900490600052602060002090601f016020900481019282601f1062000f9957805160ff191683800117855562000fca565b8280016001018555821562000fca579182015b8281111562000fc957825182559160200191906001019062000fac565b5b50905062000fd9919062000fdd565b5090565b6200100291905b8082111562000ffe57600081600090555060010162000fe4565b5090565b90565b61196f80620010156000396000f300608060405260043610610062576000357c0100000000000000000000000000000000000000000000000000000000900463ffffffff16806329a00e7c1461006757806349f9b0f7146100cc57806354fd4d501461013157806365098bb3146101c1575b600080fd5b34801561007357600080fd5b506100b66004803603810190808035906020019092919080359060200190929190803563ffffffff16906020019092919080359060200190929190505050610236565b6040518082815260200191505060405180910390f35b3480156100d857600080fd5b5061011b6004803603810190808035906020019092919080359060200190929190803563ffffffff16906020019092919080359060200190929190505050610315565b6040518082815260200191505060405180910390f35b34801561013d57600080fd5b50610146610419565b6040518080602001828103825283818151815260200191508051906020019080838360005b8381101561018657808201518184015260208101905061016b565b50505050905090810190601f1680156101b35780820380516001836020036101000a031916815260200191505b509250505060405180910390f35b3480156101cd57600080fd5b5061022060048036038101908080359060200190929190803563ffffffff16906020019092919080359060200190929190803563ffffffff169060200190929190803590602001909291905050506104b7565b6040518082815260200191505060405180910390f35b6000806000806000808911801561024d5750600088115b801561025f575060008763ffffffff16115b801561027a5750620f424063ffffffff168763ffffffff1611155b151561028557600080fd5b60008614156102975760009450610309565b620f424063ffffffff168763ffffffff1614156102ca57876102b98a886105c5565b8115156102c257fe5b049450610309565b6102d486896105f8565b91506102e5828989620f4240610616565b80945081955050508260ff166102fb8a866105c5565b9060020a9004905088810394505b50505050949350505050565b60008060008060008060008a11801561032e5750600089115b8015610340575060008863ffffffff16115b801561035b5750620f424063ffffffff168863ffffffff1611155b80156103675750898711155b151561037257600080fd5b6000871415610384576000955061040c565b898714156103945788955061040c565b620f424063ffffffff168863ffffffff1614156103c757896103b68a896105c5565b8115156103bf57fe5b04955061040c565b868a0392506103db8a84620f42408b610616565b80955081965050506103ed89866105c5565b91508360ff16899060020a0290508481830381151561040857fe5b0495505b5050505050949350505050565b60008054600181600116156101000203166002900480601f0160208091040260200160405190810160405280929190818152602001828054600181600116156101000203166002900480156104af5780601f10610484576101008083540402835291602001916104af565b820191906000526020600020905b81548152906001019060200180831161049257829003601f168201915b505050505081565b60008060008060008060008b1180156104d6575060008a63ffffffff16115b80156104f15750620f424063ffffffff168a63ffffffff1611155b80156104fd5750600089115b801561050f575060008863ffffffff16115b801561052a5750620f424063ffffffff168863ffffffff1611155b151561053557600080fd5b8763ffffffff168a63ffffffff16141561056e576105538b886105f8565b61055d8a896105c5565b81151561056657fe5b0495506105b7565b6105788b886105f8565b9250610586838c8c8b610616565b809550819650505061059889866105c5565b91508360ff16899060020a029050848183038115156105b357fe5b0495505b505050505095945050505050565b600080828402905060008414806105e657508284828115156105e357fe5b04145b15156105ee57fe5b8091505092915050565b600080828401905083811015151561060c57fe5b8091505092915050565b6000806000806000807002000000000000000000000000000000008a10151561063b57fe5b886f800000000000000000000000000000008b0281151561065857fe5b04925070015bf0a8b1457695355fb8ac404e7a79e38310156106845761067d8361070e565b9350610690565b61068d83610cdd565b93505b8663ffffffff168863ffffffff1685028115156106a957fe5b0491507008000000000000000000000000000000008210156106d9576106ce82610e13565b607f95509550610701565b6106e2826113d3565b90506106fb81607f0360ff16839060020a900482611493565b81955095505b5050505094509492505050565b60008060008060008093506fd3094c70f034de4b96ff7d5b6f99fcd886101515610778576f40000000000000000000000000000000840193506fd3094c70f034de4b96ff7d5b6f99fcd86f80000000000000000000000000000000870281151561077457fe5b0495505b6fa45af1e1f40c333b3de1db4dd55f29a7861015156107d7576f20000000000000000000000000000000840193506fa45af1e1f40c333b3de1db4dd55f29a76f8000000000000000000000000000000087028115156107d357fe5b0495505b6f910b022db7ae67ce76b441c27035c6a186101515610836576f10000000000000000000000000000000840193506f910b022db7ae67ce76b441c27035c6a16f80000000000000000000000000000000870281151561083257fe5b0495505b6f88415abbe9a76bead8d00cf112e4d4a886101515610895576f08000000000000000000000000000000840193506f88415abbe9a76bead8d00cf112e4d4a86f80000000000000000000000000000000870281151561089157fe5b0495505b6f84102b00893f64c705e841d5d4064bd3861015156108f4576f04000000000000000000000000000000840193506f84102b00893f64c705e841d5d4064bd36f8000000000000000000000000000000087028115156108f057fe5b0495505b6f8204055aaef1c8bd5c3259f4822735a286101515610953576f02000000000000000000000000000000840193506f8204055aaef1c8bd5c3259f4822735a26f80000000000000000000000000000000870281151561094f57fe5b0495505b6f810100ab00222d861931c15e39b44e99861015156109b2576f01000000000000000000000000000000840193506f810100ab00222d861931c15e39b44e996f8000000000000000000000000000000087028115156109ae57fe5b0495505b6f808040155aabbbe9451521693554f73386101515610a10576e800000000000000000000000000000840193506f808040155aabbbe9451521693554f7336f800000000000000000000000000000008702811515610a0c57fe5b0495505b6f80000000000000000000000000000000860392508291506f80000000000000000000000000000000838402811515610a4557fe5b04905070010000000000000000000000000000000083700100000000000000000000000000000000038302811515610a7957fe5b04840193506f80000000000000000000000000000000818302811515610a9b57fe5b049150700200000000000000000000000000000000836faaaaaaaaaaaaaaaaaaaaaaaaaaaaaaaa038302811515610ace57fe5b04840193506f80000000000000000000000000000000818302811515610af057fe5b049150700300000000000000000000000000000000836f99999999999999999999999999999999038302811515610b2357fe5b04840193506f80000000000000000000000000000000818302811515610b4557fe5b049150700400000000000000000000000000000000836f92492492492492492492492492492492038302811515610b7857fe5b04840193506f80000000000000000000000000000000818302811515610b9a57fe5b049150700500000000000000000000000000000000836f8e38e38e38e38e38e38e38e38e38e38e038302811515610bcd57fe5b04840193506f80000000000000000000000000000000818302811515610bef57fe5b049150700600000000000000000000000000000000836f8ba2e8ba2e8ba2e8ba2e8ba2e8ba2e8b038302811515610c2257fe5b04840193506f80000000000000000000000000000000818302811515610c4457fe5b049150700700000000000000000000000000000000836f89d89d89d89d89d89d89d89d89d89d89038302811515610c7757fe5b04840193506f80000000000000000000000000000000818302811515610c9957fe5b049150700800000000000000000000000000000000836f88888888888888888888888888888888038302811515610ccc57fe5b048401935083945050505050919050565b6000806000806000925070010000000000000000000000000000000085101515610d4d57610d256f8000000000000000000000000000000086811515610d1f57fe5b046118b7565b91508160ff16859060020a900494506f800000000000000000000000000000008260ff160292505b6f80000000000000000000000000000000851115610ddb57607f90505b60008160ff161115610dda576f80000000000000000000000000000000858602811515610d9357fe5b04945070010000000000000000000000000000000085101515610dce576001859060020a900494506001810360ff1660019060020a02830192505b80600190039050610d6a565b5b6f05b9de1d10bf4103d647b0955897ba806f03f80fe03f80fe03f80fe03f80fe03f88402811515610e0857fe5b049350505050919050565b600080600080600092506f1000000000000000000000000000000085811515610e3857fe5b0691508190506f80000000000000000000000000000000828202811515610e5b57fe5b0490506710e1b3be415a00008102830192506f80000000000000000000000000000000828202811515610e8a57fe5b0490506705a0913f6b1e00008102830192506f80000000000000000000000000000000828202811515610eb957fe5b049050670168244fdac780008102830192506f80000000000000000000000000000000828202811515610ee857fe5b049050664807432bc180008102830192506f80000000000000000000000000000000828202811515610f1657fe5b049050660c0135dca040008102830192506f80000000000000000000000000000000828202811515610f4457fe5b0490506601b707b1cdc0008102830192506f80000000000000000000000000000000828202811515610f7257fe5b0490506536e0f639b8008102830192506f80000000000000000000000000000000828202811515610f9f57fe5b049050650618fee9f8008102830192506f80000000000000000000000000000000828202811515610fcc57fe5b049050649c197dcc008102830192506f80000000000000000000000000000000828202811515610ff857fe5b049050640e30dce4008102830192506f8000000000000000000000000000000082820281151561102457fe5b04905064012ebd13008102830192506f8000000000000000000000000000000082820281151561105057fe5b0490506317499f008102830192506f8000000000000000000000000000000082820281151561107b57fe5b0490506301a9d4808102830192506f800000000000000000000000000000008282028115156110a657fe5b049050621c63808102830192506f800000000000000000000000000000008282028115156110d057fe5b0490506201c6388102830192506f800000000000000000000000000000008282028115156110fa57fe5b049050611ab88102830192506f8000000000000000000000000000000082820281151561112357fe5b04905061017c8102830192506f8000000000000000000000000000000082820281151561114c57fe5b04905060148102830192506f8000000000000000000000000000000082820281151561117457fe5b04905060018102830192506f80000000000000000000000000000000826721c3677c82b40000858115156111a457fe5b040101925060006f1000000000000000000000000000000086161415156111f85770018ebef9eac820ae8682b9793ac6d1e7767001c3d6a24ed82218787d624d3e5eba95f984028115156111f457fe5b0492505b60006f200000000000000000000000000000008616141515611247577001368b2fc6f9609fe7aceb46aa619baed470018ebef9eac820ae8682b9793ac6d1e778840281151561124357fe5b0492505b60006f400000000000000000000000000000008616141515611295576fbc5ab1b16779be3575bd8f0520a9f21f7001368b2fc6f9609fe7aceb46aa619baed5840281151561129157fe5b0492505b60006f8000000000000000000000000000000086161415156112e2576f454aaa8efe072e7f6ddbab84b40a55c96fbc5ab1b16779be3575bd8f0520a9f21e84028115156112de57fe5b0492505b60007001000000000000000000000000000000008616141515611330576f0960aadc109e7a3bf4578099615711ea6f454aaa8efe072e7f6ddbab84b40a55c5840281151561132c57fe5b0492505b6000700200000000000000000000000000000000861614151561137d576e2bf84208204f5977f9a8cf01fdce3d6f0960aadc109e7a3bf4578099615711d7840281151561137957fe5b0492505b600070040000000000000000000000000000000086161415156113c8576d03c6ab775dd0b95b4cbee7e65d116e2bf84208204f5977f9a8cf01fdc30784028115156113c457fe5b0492505b829350505050919050565b60008060008060209250607f91505b8160ff166001840160ff16101561143457600282840160ff1681151561140457fe5b0490508460018260ff1660808110151561141a57fe5b015410151561142b5780925061142f565b8091505b6113e2565b8460018360ff1660808110151561144757fe5b01541015156114585781935061148b565b8460018460ff1660808110151561146b57fe5b015410151561147c5782935061148b565b6000151561148657fe5b600093505b505050919050565b6000806000849150600090508360ff168583029060020a900491506f03442c4e6074a82f1797f72ac00000008202810190508360ff168583029060020a900491506f0116b96f757c380fb287fd0e400000008202810190508360ff168583029060020a900491506e45ae5bdd5f0e03eca1ff43900000008202810190508360ff168583029060020a900491506e0defabf91302cd95b9ffda500000008202810190508360ff168583029060020a900491506e02529ca9832b22439efff9b80000008202810190508360ff168583029060020a900491506d54f1cf12bd04e516b6da880000008202810190508360ff168583029060020a900491506d0a9e39e257a09ca2d6db510000008202810190508360ff168583029060020a900491506d012e066e7b839fa050c3090000008202810190508360ff168583029060020a900491506c1e33d7d926c329a1ad1a8000008202810190508360ff168583029060020a900491506c02bee513bdb4a6b19b5f8000008202810190508360ff168583029060020a900491506b3a9316fa79b88eccf2a000008202810190508360ff168583029060020a900491506b048177ebe1fa8123752000008202810190508360ff168583029060020a900491506a5263fe90242dcbacf000008202810190508360ff168583029060020a900491506a057e22099c030d941000008202810190508360ff168583029060020a900491506957e22099c030d94100008202810190508360ff168583029060020a9004915069052b6b545699763100008202810190508360ff168583029060020a90049150684985f67696bf7480008202810190508360ff168583029060020a900491506803dea12ea99e4980008202810190508360ff168583029060020a900491506731880f2214b6e0008202810190508360ff168583029060020a9004915067025bcff56eb360008202810190508360ff168583029060020a90049150661b722e10ab10008202810190508360ff168583029060020a900491506601317c700770008202810190508360ff168583029060020a90049150650cba84aafa008202810190508360ff168583029060020a900491506482573a0a008202810190508360ff168583029060020a900491506405035ad9008202810190508360ff168583029060020a90049150632f881b008202810190508360ff168583029060020a900491506301b293408202810190508360ff168583029060020a90049150620efc408202810190508360ff168583029060020a90049150617fe08202810190508360ff168583029060020a900491506104208202810190508360ff168583029060020a9004915060218202810190508360ff168583029060020a9004915060018202810190508360ff1660019060020a02856f0688589cc0e9505e2f2fee5580000000838115156118aa57fe5b0401019250505092915050565b60008060008091506101008410156118ee575b60018411156118e9576001849060020a900493506001820191506118ca565b611939565b608090505b60008160ff161115611938578060ff1660019060020a0284101515611925578060ff16849060020a9004935080821791505b60018160ff169060020a900490506118f3565b5b81925050509190505600a165627a7a72305820b94962385d905941503679db69c4cd19ab70aa108de7916d4ffaee36cf0d55600029",
  "source": "pragma solidity ^0.4.23;\nimport './interfaces/IBancorFormula.sol';\nimport '../utility/Utils.sol';\n\ncontract BancorFormula is IBancorFormula, Utils {\n    string public version = '0.3';\n\n    uint256 private constant ONE = 1;\n    uint32 private constant MAX_WEIGHT = 1000000;\n    uint8 private constant MIN_PRECISION = 32;\n    uint8 private constant MAX_PRECISION = 127;\n\n    /**\n        Auto-generated via 'PrintIntScalingFactors.py'\n    */\n    uint256 private constant FIXED_1 = 0x080000000000000000000000000000000;\n    uint256 private constant FIXED_2 = 0x100000000000000000000000000000000;\n    uint256 private constant MAX_NUM = 0x200000000000000000000000000000000;\n\n    /**\n        Auto-generated via 'PrintLn2ScalingFactors.py'\n    */\n    uint256 private constant LN2_NUMERATOR   = 0x3f80fe03f80fe03f80fe03f80fe03f8;\n    uint256 private constant LN2_DENOMINATOR = 0x5b9de1d10bf4103d647b0955897ba80;\n\n    /**\n        Auto-generated via 'PrintFunctionOptimalLog.py' and 'PrintFunctionOptimalExp.py'\n    */\n    uint256 private constant OPT_LOG_MAX_VAL = 0x15bf0a8b1457695355fb8ac404e7a79e3;\n    uint256 private constant OPT_EXP_MAX_VAL = 0x800000000000000000000000000000000;\n\n    /**\n        Auto-generated via 'PrintFunctionBancorFormula.py'\n    */\n    uint256[128] private maxExpArray;\n    constructor() public {\n    //  maxExpArray[  0] = 0x6bffffffffffffffffffffffffffffffff;\n    //  maxExpArray[  1] = 0x67ffffffffffffffffffffffffffffffff;\n    //  maxExpArray[  2] = 0x637fffffffffffffffffffffffffffffff;\n    //  maxExpArray[  3] = 0x5f6fffffffffffffffffffffffffffffff;\n    //  maxExpArray[  4] = 0x5b77ffffffffffffffffffffffffffffff;\n    //  maxExpArray[  5] = 0x57b3ffffffffffffffffffffffffffffff;\n    //  maxExpArray[  6] = 0x5419ffffffffffffffffffffffffffffff;\n    //  maxExpArray[  7] = 0x50a2ffffffffffffffffffffffffffffff;\n    //  maxExpArray[  8] = 0x4d517fffffffffffffffffffffffffffff;\n    //  maxExpArray[  9] = 0x4a233fffffffffffffffffffffffffffff;\n    //  maxExpArray[ 10] = 0x47165fffffffffffffffffffffffffffff;\n    //  maxExpArray[ 11] = 0x4429afffffffffffffffffffffffffffff;\n    //  maxExpArray[ 12] = 0x415bc7ffffffffffffffffffffffffffff;\n    //  maxExpArray[ 13] = 0x3eab73ffffffffffffffffffffffffffff;\n    //  maxExpArray[ 14] = 0x3c1771ffffffffffffffffffffffffffff;\n    //  maxExpArray[ 15] = 0x399e96ffffffffffffffffffffffffffff;\n    //  maxExpArray[ 16] = 0x373fc47fffffffffffffffffffffffffff;\n    //  maxExpArray[ 17] = 0x34f9e8ffffffffffffffffffffffffffff;\n    //  maxExpArray[ 18] = 0x32cbfd5fffffffffffffffffffffffffff;\n    //  maxExpArray[ 19] = 0x30b5057fffffffffffffffffffffffffff;\n    //  maxExpArray[ 20] = 0x2eb40f9fffffffffffffffffffffffffff;\n    //  maxExpArray[ 21] = 0x2cc8340fffffffffffffffffffffffffff;\n    //  maxExpArray[ 22] = 0x2af09481ffffffffffffffffffffffffff;\n    //  maxExpArray[ 23] = 0x292c5bddffffffffffffffffffffffffff;\n    //  maxExpArray[ 24] = 0x277abdcdffffffffffffffffffffffffff;\n    //  maxExpArray[ 25] = 0x25daf6657fffffffffffffffffffffffff;\n    //  maxExpArray[ 26] = 0x244c49c65fffffffffffffffffffffffff;\n    //  maxExpArray[ 27] = 0x22ce03cd5fffffffffffffffffffffffff;\n    //  maxExpArray[ 28] = 0x215f77c047ffffffffffffffffffffffff;\n    //  maxExpArray[ 29] = 0x1fffffffffffffffffffffffffffffffff;\n    //  maxExpArray[ 30] = 0x1eaefdbdabffffffffffffffffffffffff;\n    //  maxExpArray[ 31] = 0x1d6bd8b2ebffffffffffffffffffffffff;\n        maxExpArray[ 32] = 0x1c35fedd14ffffffffffffffffffffffff;\n        maxExpArray[ 33] = 0x1b0ce43b323fffffffffffffffffffffff;\n        maxExpArray[ 34] = 0x19f0028ec1ffffffffffffffffffffffff;\n        maxExpArray[ 35] = 0x18ded91f0e7fffffffffffffffffffffff;\n        maxExpArray[ 36] = 0x17d8ec7f0417ffffffffffffffffffffff;\n        maxExpArray[ 37] = 0x16ddc6556cdbffffffffffffffffffffff;\n        maxExpArray[ 38] = 0x15ecf52776a1ffffffffffffffffffffff;\n        maxExpArray[ 39] = 0x15060c256cb2ffffffffffffffffffffff;\n        maxExpArray[ 40] = 0x1428a2f98d72ffffffffffffffffffffff;\n        maxExpArray[ 41] = 0x13545598e5c23fffffffffffffffffffff;\n        maxExpArray[ 42] = 0x1288c4161ce1dfffffffffffffffffffff;\n        maxExpArray[ 43] = 0x11c592761c666fffffffffffffffffffff;\n        maxExpArray[ 44] = 0x110a688680a757ffffffffffffffffffff;\n        maxExpArray[ 45] = 0x1056f1b5bedf77ffffffffffffffffffff;\n        maxExpArray[ 46] = 0x0faadceceeff8bffffffffffffffffffff;\n        maxExpArray[ 47] = 0x0f05dc6b27edadffffffffffffffffffff;\n        maxExpArray[ 48] = 0x0e67a5a25da4107fffffffffffffffffff;\n        maxExpArray[ 49] = 0x0dcff115b14eedffffffffffffffffffff;\n        maxExpArray[ 50] = 0x0d3e7a392431239fffffffffffffffffff;\n        maxExpArray[ 51] = 0x0cb2ff529eb71e4fffffffffffffffffff;\n        maxExpArray[ 52] = 0x0c2d415c3db974afffffffffffffffffff;\n        maxExpArray[ 53] = 0x0bad03e7d883f69bffffffffffffffffff;\n        maxExpArray[ 54] = 0x0b320d03b2c343d5ffffffffffffffffff;\n        maxExpArray[ 55] = 0x0abc25204e02828dffffffffffffffffff;\n        maxExpArray[ 56] = 0x0a4b16f74ee4bb207fffffffffffffffff;\n        maxExpArray[ 57] = 0x09deaf736ac1f569ffffffffffffffffff;\n        maxExpArray[ 58] = 0x0976bd9952c7aa957fffffffffffffffff;\n        maxExpArray[ 59] = 0x09131271922eaa606fffffffffffffffff;\n        maxExpArray[ 60] = 0x08b380f3558668c46fffffffffffffffff;\n        maxExpArray[ 61] = 0x0857ddf0117efa215bffffffffffffffff;\n        maxExpArray[ 62] = 0x07ffffffffffffffffffffffffffffffff;\n        maxExpArray[ 63] = 0x07abbf6f6abb9d087fffffffffffffffff;\n        maxExpArray[ 64] = 0x075af62cbac95f7dfa7fffffffffffffff;\n        maxExpArray[ 65] = 0x070d7fb7452e187ac13fffffffffffffff;\n        maxExpArray[ 66] = 0x06c3390ecc8af379295fffffffffffffff;\n        maxExpArray[ 67] = 0x067c00a3b07ffc01fd6fffffffffffffff;\n        maxExpArray[ 68] = 0x0637b647c39cbb9d3d27ffffffffffffff;\n        maxExpArray[ 69] = 0x05f63b1fc104dbd39587ffffffffffffff;\n        maxExpArray[ 70] = 0x05b771955b36e12f7235ffffffffffffff;\n        maxExpArray[ 71] = 0x057b3d49dda84556d6f6ffffffffffffff;\n        maxExpArray[ 72] = 0x054183095b2c8ececf30ffffffffffffff;\n        maxExpArray[ 73] = 0x050a28be635ca2b888f77fffffffffffff;\n        maxExpArray[ 74] = 0x04d5156639708c9db33c3fffffffffffff;\n        maxExpArray[ 75] = 0x04a23105873875bd52dfdfffffffffffff;\n        maxExpArray[ 76] = 0x0471649d87199aa990756fffffffffffff;\n        maxExpArray[ 77] = 0x04429a21a029d4c1457cfbffffffffffff;\n        maxExpArray[ 78] = 0x0415bc6d6fb7dd71af2cb3ffffffffffff;\n        maxExpArray[ 79] = 0x03eab73b3bbfe282243ce1ffffffffffff;\n        maxExpArray[ 80] = 0x03c1771ac9fb6b4c18e229ffffffffffff;\n        maxExpArray[ 81] = 0x0399e96897690418f785257fffffffffff;\n        maxExpArray[ 82] = 0x0373fc456c53bb779bf0ea9fffffffffff;\n        maxExpArray[ 83] = 0x034f9e8e490c48e67e6ab8bfffffffffff;\n        maxExpArray[ 84] = 0x032cbfd4a7adc790560b3337ffffffffff;\n        maxExpArray[ 85] = 0x030b50570f6e5d2acca94613ffffffffff;\n        maxExpArray[ 86] = 0x02eb40f9f620fda6b56c2861ffffffffff;\n        maxExpArray[ 87] = 0x02cc8340ecb0d0f520a6af58ffffffffff;\n        maxExpArray[ 88] = 0x02af09481380a0a35cf1ba02ffffffffff;\n        maxExpArray[ 89] = 0x0292c5bdd3b92ec810287b1b3fffffffff;\n        maxExpArray[ 90] = 0x0277abdcdab07d5a77ac6d6b9fffffffff;\n        maxExpArray[ 91] = 0x025daf6654b1eaa55fd64df5efffffffff;\n        maxExpArray[ 92] = 0x0244c49c648baa98192dce88b7ffffffff;\n        maxExpArray[ 93] = 0x022ce03cd5619a311b2471268bffffffff;\n        maxExpArray[ 94] = 0x0215f77c045fbe885654a44a0fffffffff;\n        maxExpArray[ 95] = 0x01ffffffffffffffffffffffffffffffff;\n        maxExpArray[ 96] = 0x01eaefdbdaaee7421fc4d3ede5ffffffff;\n        maxExpArray[ 97] = 0x01d6bd8b2eb257df7e8ca57b09bfffffff;\n        maxExpArray[ 98] = 0x01c35fedd14b861eb0443f7f133fffffff;\n        maxExpArray[ 99] = 0x01b0ce43b322bcde4a56e8ada5afffffff;\n        maxExpArray[100] = 0x019f0028ec1fff007f5a195a39dfffffff;\n        maxExpArray[101] = 0x018ded91f0e72ee74f49b15ba527ffffff;\n        maxExpArray[102] = 0x017d8ec7f04136f4e5615fd41a63ffffff;\n        maxExpArray[103] = 0x016ddc6556cdb84bdc8d12d22e6fffffff;\n        maxExpArray[104] = 0x015ecf52776a1155b5bd8395814f7fffff;\n        maxExpArray[105] = 0x015060c256cb23b3b3cc3754cf40ffffff;\n        maxExpArray[106] = 0x01428a2f98d728ae223ddab715be3fffff;\n        maxExpArray[107] = 0x013545598e5c23276ccf0ede68034fffff;\n        maxExpArray[108] = 0x01288c4161ce1d6f54b7f61081194fffff;\n        maxExpArray[109] = 0x011c592761c666aa641d5a01a40f17ffff;\n        maxExpArray[110] = 0x0110a688680a7530515f3e6e6cfdcdffff;\n        maxExpArray[111] = 0x01056f1b5bedf75c6bcb2ce8aed428ffff;\n        maxExpArray[112] = 0x00faadceceeff8a0890f3875f008277fff;\n        maxExpArray[113] = 0x00f05dc6b27edad306388a600f6ba0bfff;\n        maxExpArray[114] = 0x00e67a5a25da41063de1495d5b18cdbfff;\n        maxExpArray[115] = 0x00dcff115b14eedde6fc3aa5353f2e4fff;\n        maxExpArray[116] = 0x00d3e7a3924312399f9aae2e0f868f8fff;\n        maxExpArray[117] = 0x00cb2ff529eb71e41582cccd5a1ee26fff;\n        maxExpArray[118] = 0x00c2d415c3db974ab32a51840c0b67edff;\n        maxExpArray[119] = 0x00bad03e7d883f69ad5b0a186184e06bff;\n        maxExpArray[120] = 0x00b320d03b2c343d4829abd6075f0cc5ff;\n        maxExpArray[121] = 0x00abc25204e02828d73c6e80bcdb1a95bf;\n        maxExpArray[122] = 0x00a4b16f74ee4bb2040a1ec6c15fbbf2df;\n        maxExpArray[123] = 0x009deaf736ac1f569deb1b5ae3f36c130f;\n        maxExpArray[124] = 0x00976bd9952c7aa957f5937d790ef65037;\n        maxExpArray[125] = 0x009131271922eaa6064b73a22d0bd4f2bf;\n        maxExpArray[126] = 0x008b380f3558668c46c91c49a2f8e967b9;\n        maxExpArray[127] = 0x00857ddf0117efa215952912839f6473e6;\n    }\n\n    /**\n        @dev given a token supply, connector balance, weight and a deposit amount (in the connector token),\n        calculates the return for a given conversion (in the main token)\n\n        Formula:\n        Return = _supply * ((1 + _depositAmount / _connectorBalance) ^ (_connectorWeight / 1000000) - 1)\n\n        @param _supply              token total supply\n        @param _connectorBalance    total connector balance\n        @param _connectorWeight     connector weight, represented in ppm, 1-1000000\n        @param _depositAmount       deposit amount, in connector token\n\n        @return purchase return amount\n    */\n    function calculatePurchaseReturn(uint256 _supply, uint256 _connectorBalance, uint32 _connectorWeight, uint256 _depositAmount) public view returns (uint256) {\n        // validate input\n        require(_supply > 0 && _connectorBalance > 0 && _connectorWeight > 0 && _connectorWeight <= MAX_WEIGHT);\n\n        // special case for 0 deposit amount\n        if (_depositAmount == 0)\n            return 0;\n\n        // special case if the weight = 100%\n        if (_connectorWeight == MAX_WEIGHT)\n            return safeMul(_supply, _depositAmount) / _connectorBalance;\n\n        uint256 result;\n        uint8 precision;\n        uint256 baseN = safeAdd(_depositAmount, _connectorBalance);\n        (result, precision) = power(baseN, _connectorBalance, _connectorWeight, MAX_WEIGHT);\n        uint256 temp = safeMul(_supply, result) >> precision;\n        return temp - _supply;\n    }\n\n    /**\n        @dev given a token supply, connector balance, weight and a sell amount (in the main token),\n        calculates the return for a given conversion (in the connector token)\n\n        Formula:\n        Return = _connectorBalance * (1 - (1 - _sellAmount / _supply) ^ (1 / (_connectorWeight / 1000000)))\n\n        @param _supply              token total supply\n        @param _connectorBalance    total connector\n        @param _connectorWeight     constant connector Weight, represented in ppm, 1-1000000\n        @param _sellAmount          sell amount, in the token itself\n\n        @return sale return amount\n    */\n    function calculateSaleReturn(uint256 _supply, uint256 _connectorBalance, uint32 _connectorWeight, uint256 _sellAmount) public view returns (uint256) {\n        // validate input\n        require(_supply > 0 && _connectorBalance > 0 && _connectorWeight > 0 && _connectorWeight <= MAX_WEIGHT && _sellAmount <= _supply);\n\n        // special case for 0 sell amount\n        if (_sellAmount == 0)\n            return 0;\n\n        // special case for selling the entire supply\n        if (_sellAmount == _supply)\n            return _connectorBalance;\n\n        // special case if the weight = 100%\n        if (_connectorWeight == MAX_WEIGHT)\n            return safeMul(_connectorBalance, _sellAmount) / _supply;\n\n        uint256 result;\n        uint8 precision;\n        uint256 baseD = _supply - _sellAmount;\n        (result, precision) = power(_supply, baseD, MAX_WEIGHT, _connectorWeight);\n        uint256 temp1 = safeMul(_connectorBalance, result);\n        uint256 temp2 = _connectorBalance << precision;\n        return (temp1 - temp2) / result;\n    }\n\n    /**\n        @dev given two connector balances/weights and a sell amount (in the first connector token),\n        calculates the return for a conversion from the first connector token to the second connector token (in the second connector token)\n\n        Formula:\n        Return = _toConnectorBalance * (1 - (_fromConnectorBalance / (_fromConnectorBalance + _amount)) ^ (_fromConnectorWeight / _toConnectorWeight))\n\n        @param _fromConnectorBalance    input connector balance\n        @param _fromConnectorWeight     input connector weight, represented in ppm, 1-1000000\n        @param _toConnectorBalance      output connector balance\n        @param _toConnectorWeight       output connector weight, represented in ppm, 1-1000000\n        @param _amount                  input connector amount\n\n        @return second connector amount\n    */\n    function calculateCrossConnectorReturn(uint256 _fromConnectorBalance, uint32 _fromConnectorWeight, uint256 _toConnectorBalance, uint32 _toConnectorWeight, uint256 _amount) public view returns (uint256) {\n        // validate input\n        require(_fromConnectorBalance > 0 && _fromConnectorWeight > 0 && _fromConnectorWeight <= MAX_WEIGHT && _toConnectorBalance > 0 && _toConnectorWeight > 0 && _toConnectorWeight <= MAX_WEIGHT);\n\n        // special case for equal weights\n        if (_fromConnectorWeight == _toConnectorWeight)\n            return safeMul(_toConnectorBalance, _amount) / safeAdd(_fromConnectorBalance, _amount);\n\n        uint256 result;\n        uint8 precision;\n        uint256 baseN = safeAdd(_fromConnectorBalance, _amount);\n        (result, precision) = power(baseN, _fromConnectorBalance, _fromConnectorWeight, _toConnectorWeight);\n        uint256 temp1 = safeMul(_toConnectorBalance, result);\n        uint256 temp2 = _toConnectorBalance << precision;\n        return (temp1 - temp2) / result;\n    }\n\n    /**\n        General Description:\n            Determine a value of precision.\n            Calculate an integer approximation of (_baseN / _baseD) ^ (_expN / _expD) * 2 ^ precision.\n            Return the result along with the precision used.\n\n        Detailed Description:\n            Instead of calculating \"base ^ exp\", we calculate \"e ^ (log(base) * exp)\".\n            The value of \"log(base)\" is represented with an integer slightly smaller than \"log(base) * 2 ^ precision\".\n            The larger \"precision\" is, the more accurately this value represents the real value.\n            However, the larger \"precision\" is, the more bits are required in order to store this value.\n            And the exponentiation function, which takes \"x\" and calculates \"e ^ x\", is limited to a maximum exponent (maximum value of \"x\").\n            This maximum exponent depends on the \"precision\" used, and it is given by \"maxExpArray[precision] >> (MAX_PRECISION - precision)\".\n            Hence we need to determine the highest precision which can be used for the given input, before calling the exponentiation function.\n            This allows us to compute \"base ^ exp\" with maximum accuracy and without exceeding 256 bits in any of the intermediate computations.\n            This functions assumes that \"_expN < 2 ^ 256 / log(MAX_NUM - 1)\", otherwise the multiplication should be replaced with a \"safeMul\".\n    */\n    function power(uint256 _baseN, uint256 _baseD, uint32 _expN, uint32 _expD) internal view returns (uint256, uint8) {\n        assert(_baseN < MAX_NUM);\n\n        uint256 baseLog;\n        uint256 base = _baseN * FIXED_1 / _baseD;\n        if (base < OPT_LOG_MAX_VAL) {\n            baseLog = optimalLog(base);\n        }\n        else {\n            baseLog = generalLog(base);\n        }\n\n        uint256 baseLogTimesExp = baseLog * _expN / _expD;\n        if (baseLogTimesExp < OPT_EXP_MAX_VAL) {\n            return (optimalExp(baseLogTimesExp), MAX_PRECISION);\n        }\n        else {\n            uint8 precision = findPositionInMaxExpArray(baseLogTimesExp);\n            return (generalExp(baseLogTimesExp >> (MAX_PRECISION - precision), precision), precision);\n        }\n    }\n\n    /**\n        Compute log(x / FIXED_1) * FIXED_1.\n        This functions assumes that \"x >= FIXED_1\", because the output would be negative otherwise.\n    */\n    function generalLog(uint256 x) internal pure returns (uint256) {\n        uint256 res = 0;\n\n        // If x >= 2, then we compute the integer part of log2(x), which is larger than 0.\n        if (x >= FIXED_2) {\n            uint8 count = floorLog2(x / FIXED_1);\n            x >>= count; // now x < 2\n            res = count * FIXED_1;\n        }\n\n        // If x > 1, then we compute the fraction part of log2(x), which is larger than 0.\n        if (x > FIXED_1) {\n            for (uint8 i = MAX_PRECISION; i > 0; --i) {\n                x = (x * x) / FIXED_1; // now 1 < x < 4\n                if (x >= FIXED_2) {\n                    x >>= 1; // now 1 < x < 2\n                    res += ONE << (i - 1);\n                }\n            }\n        }\n\n        return res * LN2_NUMERATOR / LN2_DENOMINATOR;\n    }\n\n    /**\n        Compute the largest integer smaller than or equal to the binary logarithm of the input.\n    */\n    function floorLog2(uint256 _n) internal pure returns (uint8) {\n        uint8 res = 0;\n\n        if (_n < 256) {\n            // At most 8 iterations\n            while (_n > 1) {\n                _n >>= 1;\n                res += 1;\n            }\n        }\n        else {\n            // Exactly 8 iterations\n            for (uint8 s = 128; s > 0; s >>= 1) {\n                if (_n >= (ONE << s)) {\n                    _n >>= s;\n                    res |= s;\n                }\n            }\n        }\n\n        return res;\n    }\n\n    /**\n        The global \"maxExpArray\" is sorted in descending order, and therefore the following statements are equivalent:\n        - This function finds the position of [the smallest value in \"maxExpArray\" larger than or equal to \"x\"]\n        - This function finds the highest position of [a value in \"maxExpArray\" larger than or equal to \"x\"]\n    */\n    function findPositionInMaxExpArray(uint256 _x) internal view returns (uint8) {\n        uint8 lo = MIN_PRECISION;\n        uint8 hi = MAX_PRECISION;\n\n        while (lo + 1 < hi) {\n            uint8 mid = (lo + hi) / 2;\n            if (maxExpArray[mid] >= _x)\n                lo = mid;\n            else\n                hi = mid;\n        }\n\n        if (maxExpArray[hi] >= _x)\n            return hi;\n        if (maxExpArray[lo] >= _x)\n            return lo;\n\n        assert(false);\n        return 0;\n    }\n\n    /**\n        This function can be auto-generated by the script 'PrintFunctionGeneralExp.py'.\n        It approximates \"e ^ x\" via maclaurin summation: \"(x^0)/0! + (x^1)/1! + ... + (x^n)/n!\".\n        It returns \"e ^ (x / 2 ^ precision) * 2 ^ precision\", that is, the result is upshifted for accuracy.\n        The global \"maxExpArray\" maps each \"precision\" to \"((maximumExponent + 1) << (MAX_PRECISION - precision)) - 1\".\n        The maximum permitted value for \"x\" is therefore given by \"maxExpArray[precision] >> (MAX_PRECISION - precision)\".\n    */\n    function generalExp(uint256 _x, uint8 _precision) internal pure returns (uint256) {\n        uint256 xi = _x;\n        uint256 res = 0;\n\n        xi = (xi * _x) >> _precision; res += xi * 0x3442c4e6074a82f1797f72ac0000000; // add x^02 * (33! / 02!)\n        xi = (xi * _x) >> _precision; res += xi * 0x116b96f757c380fb287fd0e40000000; // add x^03 * (33! / 03!)\n        xi = (xi * _x) >> _precision; res += xi * 0x045ae5bdd5f0e03eca1ff4390000000; // add x^04 * (33! / 04!)\n        xi = (xi * _x) >> _precision; res += xi * 0x00defabf91302cd95b9ffda50000000; // add x^05 * (33! / 05!)\n        xi = (xi * _x) >> _precision; res += xi * 0x002529ca9832b22439efff9b8000000; // add x^06 * (33! / 06!)\n        xi = (xi * _x) >> _precision; res += xi * 0x00054f1cf12bd04e516b6da88000000; // add x^07 * (33! / 07!)\n        xi = (xi * _x) >> _precision; res += xi * 0x0000a9e39e257a09ca2d6db51000000; // add x^08 * (33! / 08!)\n        xi = (xi * _x) >> _precision; res += xi * 0x000012e066e7b839fa050c309000000; // add x^09 * (33! / 09!)\n        xi = (xi * _x) >> _precision; res += xi * 0x000001e33d7d926c329a1ad1a800000; // add x^10 * (33! / 10!)\n        xi = (xi * _x) >> _precision; res += xi * 0x0000002bee513bdb4a6b19b5f800000; // add x^11 * (33! / 11!)\n        xi = (xi * _x) >> _precision; res += xi * 0x00000003a9316fa79b88eccf2a00000; // add x^12 * (33! / 12!)\n        xi = (xi * _x) >> _precision; res += xi * 0x0000000048177ebe1fa812375200000; // add x^13 * (33! / 13!)\n        xi = (xi * _x) >> _precision; res += xi * 0x0000000005263fe90242dcbacf00000; // add x^14 * (33! / 14!)\n        xi = (xi * _x) >> _precision; res += xi * 0x000000000057e22099c030d94100000; // add x^15 * (33! / 15!)\n        xi = (xi * _x) >> _precision; res += xi * 0x0000000000057e22099c030d9410000; // add x^16 * (33! / 16!)\n        xi = (xi * _x) >> _precision; res += xi * 0x00000000000052b6b54569976310000; // add x^17 * (33! / 17!)\n        xi = (xi * _x) >> _precision; res += xi * 0x00000000000004985f67696bf748000; // add x^18 * (33! / 18!)\n        xi = (xi * _x) >> _precision; res += xi * 0x000000000000003dea12ea99e498000; // add x^19 * (33! / 19!)\n        xi = (xi * _x) >> _precision; res += xi * 0x00000000000000031880f2214b6e000; // add x^20 * (33! / 20!)\n        xi = (xi * _x) >> _precision; res += xi * 0x000000000000000025bcff56eb36000; // add x^21 * (33! / 21!)\n        xi = (xi * _x) >> _precision; res += xi * 0x000000000000000001b722e10ab1000; // add x^22 * (33! / 22!)\n        xi = (xi * _x) >> _precision; res += xi * 0x0000000000000000001317c70077000; // add x^23 * (33! / 23!)\n        xi = (xi * _x) >> _precision; res += xi * 0x00000000000000000000cba84aafa00; // add x^24 * (33! / 24!)\n        xi = (xi * _x) >> _precision; res += xi * 0x00000000000000000000082573a0a00; // add x^25 * (33! / 25!)\n        xi = (xi * _x) >> _precision; res += xi * 0x00000000000000000000005035ad900; // add x^26 * (33! / 26!)\n        xi = (xi * _x) >> _precision; res += xi * 0x000000000000000000000002f881b00; // add x^27 * (33! / 27!)\n        xi = (xi * _x) >> _precision; res += xi * 0x0000000000000000000000001b29340; // add x^28 * (33! / 28!)\n        xi = (xi * _x) >> _precision; res += xi * 0x00000000000000000000000000efc40; // add x^29 * (33! / 29!)\n        xi = (xi * _x) >> _precision; res += xi * 0x0000000000000000000000000007fe0; // add x^30 * (33! / 30!)\n        xi = (xi * _x) >> _precision; res += xi * 0x0000000000000000000000000000420; // add x^31 * (33! / 31!)\n        xi = (xi * _x) >> _precision; res += xi * 0x0000000000000000000000000000021; // add x^32 * (33! / 32!)\n        xi = (xi * _x) >> _precision; res += xi * 0x0000000000000000000000000000001; // add x^33 * (33! / 33!)\n\n        return res / 0x688589cc0e9505e2f2fee5580000000 + _x + (ONE << _precision); // divide by 33! and then add x^1 / 1! + x^0 / 0!\n    }\n\n    /**\n        Return log(x / FIXED_1) * FIXED_1\n        Input range: FIXED_1 <= x <= LOG_EXP_MAX_VAL - 1\n        Auto-generated via 'PrintFunctionOptimalLog.py'\n    */\n    function optimalLog(uint256 x) internal pure returns (uint256) {\n        uint256 res = 0;\n\n        uint256 y;\n        uint256 z;\n        uint256 w;\n\n        if (x >= 0xd3094c70f034de4b96ff7d5b6f99fcd8) {res += 0x40000000000000000000000000000000; x = x * FIXED_1 / 0xd3094c70f034de4b96ff7d5b6f99fcd8;}\n        if (x >= 0xa45af1e1f40c333b3de1db4dd55f29a7) {res += 0x20000000000000000000000000000000; x = x * FIXED_1 / 0xa45af1e1f40c333b3de1db4dd55f29a7;}\n        if (x >= 0x910b022db7ae67ce76b441c27035c6a1) {res += 0x10000000000000000000000000000000; x = x * FIXED_1 / 0x910b022db7ae67ce76b441c27035c6a1;}\n        if (x >= 0x88415abbe9a76bead8d00cf112e4d4a8) {res += 0x08000000000000000000000000000000; x = x * FIXED_1 / 0x88415abbe9a76bead8d00cf112e4d4a8;}\n        if (x >= 0x84102b00893f64c705e841d5d4064bd3) {res += 0x04000000000000000000000000000000; x = x * FIXED_1 / 0x84102b00893f64c705e841d5d4064bd3;}\n        if (x >= 0x8204055aaef1c8bd5c3259f4822735a2) {res += 0x02000000000000000000000000000000; x = x * FIXED_1 / 0x8204055aaef1c8bd5c3259f4822735a2;}\n        if (x >= 0x810100ab00222d861931c15e39b44e99) {res += 0x01000000000000000000000000000000; x = x * FIXED_1 / 0x810100ab00222d861931c15e39b44e99;}\n        if (x >= 0x808040155aabbbe9451521693554f733) {res += 0x00800000000000000000000000000000; x = x * FIXED_1 / 0x808040155aabbbe9451521693554f733;}\n\n        z = y = x - FIXED_1;\n        w = y * y / FIXED_1;\n        res += z * (0x100000000000000000000000000000000 - y) / 0x100000000000000000000000000000000; z = z * w / FIXED_1;\n        res += z * (0x0aaaaaaaaaaaaaaaaaaaaaaaaaaaaaaaa - y) / 0x200000000000000000000000000000000; z = z * w / FIXED_1;\n        res += z * (0x099999999999999999999999999999999 - y) / 0x300000000000000000000000000000000; z = z * w / FIXED_1;\n        res += z * (0x092492492492492492492492492492492 - y) / 0x400000000000000000000000000000000; z = z * w / FIXED_1;\n        res += z * (0x08e38e38e38e38e38e38e38e38e38e38e - y) / 0x500000000000000000000000000000000; z = z * w / FIXED_1;\n        res += z * (0x08ba2e8ba2e8ba2e8ba2e8ba2e8ba2e8b - y) / 0x600000000000000000000000000000000; z = z * w / FIXED_1;\n        res += z * (0x089d89d89d89d89d89d89d89d89d89d89 - y) / 0x700000000000000000000000000000000; z = z * w / FIXED_1;\n        res += z * (0x088888888888888888888888888888888 - y) / 0x800000000000000000000000000000000;\n\n        return res;\n    }\n\n    /**\n        Return e ^ (x / FIXED_1) * FIXED_1\n        Input range: 0 <= x <= OPT_EXP_MAX_VAL - 1\n        Auto-generated via 'PrintFunctionOptimalExp.py'\n    */\n    function optimalExp(uint256 x) internal pure returns (uint256) {\n        uint256 res = 0;\n\n        uint256 y;\n        uint256 z;\n\n        z = y = x % 0x10000000000000000000000000000000;\n        z = z * y / FIXED_1; res += z * 0x10e1b3be415a0000; // add y^02 * (20! / 02!)\n        z = z * y / FIXED_1; res += z * 0x05a0913f6b1e0000; // add y^03 * (20! / 03!)\n        z = z * y / FIXED_1; res += z * 0x0168244fdac78000; // add y^04 * (20! / 04!)\n        z = z * y / FIXED_1; res += z * 0x004807432bc18000; // add y^05 * (20! / 05!)\n        z = z * y / FIXED_1; res += z * 0x000c0135dca04000; // add y^06 * (20! / 06!)\n        z = z * y / FIXED_1; res += z * 0x0001b707b1cdc000; // add y^07 * (20! / 07!)\n        z = z * y / FIXED_1; res += z * 0x000036e0f639b800; // add y^08 * (20! / 08!)\n        z = z * y / FIXED_1; res += z * 0x00000618fee9f800; // add y^09 * (20! / 09!)\n        z = z * y / FIXED_1; res += z * 0x0000009c197dcc00; // add y^10 * (20! / 10!)\n        z = z * y / FIXED_1; res += z * 0x0000000e30dce400; // add y^11 * (20! / 11!)\n        z = z * y / FIXED_1; res += z * 0x000000012ebd1300; // add y^12 * (20! / 12!)\n        z = z * y / FIXED_1; res += z * 0x0000000017499f00; // add y^13 * (20! / 13!)\n        z = z * y / FIXED_1; res += z * 0x0000000001a9d480; // add y^14 * (20! / 14!)\n        z = z * y / FIXED_1; res += z * 0x00000000001c6380; // add y^15 * (20! / 15!)\n        z = z * y / FIXED_1; res += z * 0x000000000001c638; // add y^16 * (20! / 16!)\n        z = z * y / FIXED_1; res += z * 0x0000000000001ab8; // add y^17 * (20! / 17!)\n        z = z * y / FIXED_1; res += z * 0x000000000000017c; // add y^18 * (20! / 18!)\n        z = z * y / FIXED_1; res += z * 0x0000000000000014; // add y^19 * (20! / 19!)\n        z = z * y / FIXED_1; res += z * 0x0000000000000001; // add y^20 * (20! / 20!)\n        res = res / 0x21c3677c82b40000 + y + FIXED_1; // divide by 20! and then add y^1 / 1! + y^0 / 0!\n\n        if ((x & 0x010000000000000000000000000000000) != 0) res = res * 0x1c3d6a24ed82218787d624d3e5eba95f9 / 0x18ebef9eac820ae8682b9793ac6d1e776;\n        if ((x & 0x020000000000000000000000000000000) != 0) res = res * 0x18ebef9eac820ae8682b9793ac6d1e778 / 0x1368b2fc6f9609fe7aceb46aa619baed4;\n        if ((x & 0x040000000000000000000000000000000) != 0) res = res * 0x1368b2fc6f9609fe7aceb46aa619baed5 / 0x0bc5ab1b16779be3575bd8f0520a9f21f;\n        if ((x & 0x080000000000000000000000000000000) != 0) res = res * 0x0bc5ab1b16779be3575bd8f0520a9f21e / 0x0454aaa8efe072e7f6ddbab84b40a55c9;\n        if ((x & 0x100000000000000000000000000000000) != 0) res = res * 0x0454aaa8efe072e7f6ddbab84b40a55c5 / 0x00960aadc109e7a3bf4578099615711ea;\n        if ((x & 0x200000000000000000000000000000000) != 0) res = res * 0x00960aadc109e7a3bf4578099615711d7 / 0x0002bf84208204f5977f9a8cf01fdce3d;\n        if ((x & 0x400000000000000000000000000000000) != 0) res = res * 0x0002bf84208204f5977f9a8cf01fdc307 / 0x0000003c6ab775dd0b95b4cbee7e65d11;\n\n        return res;\n    }\n}\n",
  "sourcePath": "bancor-contracts/solidity/contracts/converter/BancorFormula.sol",
  "compiler": {
    "name": "solc",
    "version": "0.4.24+commit.e67f0147.Emscripten.clang"
  },
  "schemaVersion": "2.0.1",
  "updatedAt": "2018-08-17T15:42:34.742Z"
}