{
  "contractName": "BurnableToken",
  "abi": [
    {
      "constant": true,
      "inputs": [],
      "name": "totalSupply",
      "outputs": [
        {
          "name": "",
          "type": "uint256"
        }
      ],
      "payable": false,
      "stateMutability": "view",
      "type": "function"
    },
    {
      "constant": true,
      "inputs": [
        {
          "name": "_owner",
          "type": "address"
        }
      ],
      "name": "balanceOf",
      "outputs": [
        {
          "name": "",
          "type": "uint256"
        }
      ],
      "payable": false,
      "stateMutability": "view",
      "type": "function"
    },
    {
      "constant": false,
      "inputs": [
        {
          "name": "_to",
          "type": "address"
        },
        {
          "name": "_value",
          "type": "uint256"
        }
      ],
      "name": "transfer",
      "outputs": [
        {
          "name": "",
          "type": "bool"
        }
      ],
      "payable": false,
      "stateMutability": "nonpayable",
      "type": "function"
    },
    {
      "anonymous": false,
      "inputs": [
        {
          "indexed": true,
          "name": "burner",
          "type": "address"
        },
        {
          "indexed": false,
          "name": "value",
          "type": "uint256"
        }
      ],
      "name": "Burn",
      "type": "event"
    },
    {
      "anonymous": false,
      "inputs": [
        {
          "indexed": true,
          "name": "from",
          "type": "address"
        },
        {
          "indexed": true,
          "name": "to",
          "type": "address"
        },
        {
          "indexed": false,
          "name": "value",
          "type": "uint256"
        }
      ],
      "name": "Transfer",
      "type": "event"
    },
    {
      "constant": false,
      "inputs": [
        {
          "name": "_value",
          "type": "uint256"
        }
      ],
      "name": "burn",
      "outputs": [],
      "payable": false,
      "stateMutability": "nonpayable",
      "type": "function"
    }
  ],
  "bytecode": "0x608060405234801561001057600080fd5b506103f0806100206000396000f3006080604052600436106100615763ffffffff7c010000000000000000000000000000000000000000000000000000000060003504166318160ddd811461006657806342966c681461008d57806370a08231146100a7578063a9059cbb146100d5575b600080fd5b34801561007257600080fd5b5061007b61011a565b60408051918252519081900360200190f35b34801561009957600080fd5b506100a5600435610120565b005b3480156100b357600080fd5b5061007b73ffffffffffffffffffffffffffffffffffffffff6004351661012d565b3480156100e157600080fd5b5061010673ffffffffffffffffffffffffffffffffffffffff60043516602435610155565b604080519115158252519081900360200190f35b60015490565b61012a338261025d565b50565b73ffffffffffffffffffffffffffffffffffffffff1660009081526020819052604090205490565b600073ffffffffffffffffffffffffffffffffffffffff8316151561017957600080fd5b3360009081526020819052604090205482111561019557600080fd5b336000908152602081905260409020546101b5908363ffffffff61039f16565b336000908152602081905260408082209290925573ffffffffffffffffffffffffffffffffffffffff8516815220546101f4908363ffffffff6103b116565b73ffffffffffffffffffffffffffffffffffffffff8416600081815260208181526040918290209390935580518581529051919233927fddf252ad1be2c89b69c2b068fc378daa952ba7f163c4a11628f55a4df523b3ef9281900390910190a350600192915050565b73ffffffffffffffffffffffffffffffffffffffff821660009081526020819052604090205481111561028f57600080fd5b73ffffffffffffffffffffffffffffffffffffffff82166000908152602081905260409020546102c5908263ffffffff61039f16565b73ffffffffffffffffffffffffffffffffffffffff83166000908152602081905260409020556001546102fe908263ffffffff61039f16565b60015560408051828152905173ffffffffffffffffffffffffffffffffffffffff8416917fcc16f5dbb4873280815c1ee09dbd06736cffcc184412cf7a71a0fdb75d397ca5919081900360200190a260408051828152905160009173ffffffffffffffffffffffffffffffffffffffff8516917fddf252ad1be2c89b69c2b068fc378daa952ba7f163c4a11628f55a4df523b3ef9181900360200190a35050565b6000828211156103ab57fe5b50900390565b818101828110156103be57fe5b929150505600a165627a7a723058208255e0d1d79f8884ec4c30d94db7473cee2bfce4fc56d6ce9dacb1ea291839520029",
  "source": "pragma solidity ^0.4.24;\n\nimport \"./BasicToken.sol\";\n\n\n/**\n * @title Burnable Token\n * @dev Token that can be irreversibly burned (destroyed).\n */\ncontract BurnableToken is BasicToken {\n\n  event Burn(address indexed burner, uint256 value);\n\n  /**\n   * @dev Burns a specific amount of tokens.\n   * @param _value The amount of token to be burned.\n   */\n  function burn(uint256 _value) public {\n    _burn(msg.sender, _value);\n  }\n\n  function _burn(address _who, uint256 _value) internal {\n    require(_value <= balances[_who]);\n    // no need to require value <= totalSupply, since that would imply the\n    // sender's balance is greater than the totalSupply, which *should* be an assertion failure\n\n    balances[_who] = balances[_who].sub(_value);\n    totalSupply_ = totalSupply_.sub(_value);\n    emit Burn(_who, _value);\n    emit Transfer(_who, address(0), _value);\n  }\n}\n",
  "sourcePath": "zeppelin-solidity/contracts/token/ERC20/BurnableToken.sol",
  "compiler": {
    "name": "solc",
    "version": "0.4.24+commit.e67f0147.Emscripten.clang"
  },
  "schemaVersion": "2.0.1",
  "updatedAt": "2019-08-10T12:32:14.720Z"
}