{
  "contractName": "Clovers",
  "abi": [
    {
      "constant": true,
      "inputs": [],
      "name": "name",
      "outputs": [
        {
          "name": "",
          "type": "string"
        }
      ],
      "payable": false,
      "stateMutability": "view",
      "type": "function"
    },
    {
      "constant": true,
      "inputs": [
        {
          "name": "_tokenId",
          "type": "uint256"
        }
      ],
      "name": "getApproved",
      "outputs": [
        {
          "name": "",
          "type": "address"
        }
      ],
      "payable": false,
      "stateMutability": "view",
      "type": "function"
    },
    {
      "constant": false,
      "inputs": [
        {
          "name": "_to",
          "type": "address"
        },
        {
          "name": "_tokenId",
          "type": "uint256"
        }
      ],
      "name": "approve",
      "outputs": [],
      "payable": false,
      "stateMutability": "nonpayable",
      "type": "function"
    },
    {
      "constant": true,
      "inputs": [],
      "name": "totalSupply",
      "outputs": [
        {
          "name": "",
          "type": "uint256"
        }
      ],
      "payable": false,
      "stateMutability": "view",
      "type": "function"
    },
    {
      "constant": false,
      "inputs": [
        {
          "name": "_from",
          "type": "address"
        },
        {
          "name": "_to",
          "type": "address"
        },
        {
          "name": "_tokenId",
          "type": "uint256"
        }
      ],
      "name": "transferFrom",
      "outputs": [],
      "payable": false,
      "stateMutability": "nonpayable",
      "type": "function"
    },
    {
      "constant": true,
      "inputs": [
        {
          "name": "_owner",
          "type": "address"
        },
        {
          "name": "_index",
          "type": "uint256"
        }
      ],
      "name": "tokenOfOwnerByIndex",
      "outputs": [
        {
          "name": "",
          "type": "uint256"
        }
      ],
      "payable": false,
      "stateMutability": "view",
      "type": "function"
    },
    {
      "constant": false,
      "inputs": [
        {
          "name": "_from",
          "type": "address"
        },
        {
          "name": "_to",
          "type": "address"
        },
        {
          "name": "_tokenId",
          "type": "uint256"
        }
      ],
      "name": "safeTransferFrom",
      "outputs": [],
      "payable": false,
      "stateMutability": "nonpayable",
      "type": "function"
    },
    {
      "constant": true,
      "inputs": [
        {
          "name": "",
          "type": "bytes32"
        }
      ],
      "name": "commits",
      "outputs": [
        {
          "name": "",
          "type": "address"
        }
      ],
      "payable": false,
      "stateMutability": "view",
      "type": "function"
    },
    {
      "constant": true,
      "inputs": [
        {
          "name": "_tokenId",
          "type": "uint256"
        }
      ],
      "name": "exists",
      "outputs": [
        {
          "name": "",
          "type": "bool"
        }
      ],
      "payable": false,
      "stateMutability": "view",
      "type": "function"
    },
    {
      "constant": true,
      "inputs": [
        {
          "name": "_index",
          "type": "uint256"
        }
      ],
      "name": "tokenByIndex",
      "outputs": [
        {
          "name": "",
          "type": "uint256"
        }
      ],
      "payable": false,
      "stateMutability": "view",
      "type": "function"
    },
    {
      "constant": true,
      "inputs": [
        {
          "name": "_tokenId",
          "type": "uint256"
        }
      ],
      "name": "ownerOf",
      "outputs": [
        {
          "name": "",
          "type": "address"
        }
      ],
      "payable": false,
      "stateMutability": "view",
      "type": "function"
    },
    {
      "constant": true,
      "inputs": [
        {
          "name": "",
          "type": "uint256"
        }
      ],
      "name": "clovers",
      "outputs": [
        {
          "name": "symmetries",
          "type": "bytes1"
        },
        {
          "name": "blockMinted",
          "type": "uint256"
        },
        {
          "name": "rewards",
          "type": "uint256"
        }
      ],
      "payable": false,
      "stateMutability": "view",
      "type": "function"
    },
    {
      "constant": true,
      "inputs": [
        {
          "name": "_owner",
          "type": "address"
        }
      ],
      "name": "balanceOf",
      "outputs": [
        {
          "name": "",
          "type": "uint256"
        }
      ],
      "payable": false,
      "stateMutability": "view",
      "type": "function"
    },
    {
      "constant": true,
      "inputs": [],
      "name": "owner",
      "outputs": [
        {
          "name": "",
          "type": "address"
        }
      ],
      "payable": false,
      "stateMutability": "view",
      "type": "function"
    },
    {
      "constant": true,
      "inputs": [
        {
          "name": "",
          "type": "bytes32"
        }
      ],
      "name": "stakes",
      "outputs": [
        {
          "name": "",
          "type": "uint256"
        }
      ],
      "payable": false,
      "stateMutability": "view",
      "type": "function"
    },
    {
      "constant": true,
      "inputs": [],
      "name": "symbol",
      "outputs": [
        {
          "name": "",
          "type": "string"
        }
      ],
      "payable": false,
      "stateMutability": "view",
      "type": "function"
    },
    {
      "constant": false,
      "inputs": [
        {
          "name": "_to",
          "type": "address"
        },
        {
          "name": "_approved",
          "type": "bool"
        }
      ],
      "name": "setApprovalForAll",
      "outputs": [],
      "payable": false,
      "stateMutability": "nonpayable",
      "type": "function"
    },
    {
      "constant": false,
      "inputs": [
        {
          "name": "_from",
          "type": "address"
        },
        {
          "name": "_to",
          "type": "address"
        },
        {
          "name": "_tokenId",
          "type": "uint256"
        },
        {
          "name": "_data",
          "type": "bytes"
        }
      ],
      "name": "safeTransferFrom",
      "outputs": [],
      "payable": false,
      "stateMutability": "nonpayable",
      "type": "function"
    },
    {
      "constant": true,
      "inputs": [
        {
          "name": "_tokenId",
          "type": "uint256"
        }
      ],
      "name": "tokenURI",
      "outputs": [
        {
          "name": "",
          "type": "string"
        }
      ],
      "payable": false,
      "stateMutability": "view",
      "type": "function"
    },
    {
      "constant": true,
      "inputs": [
        {
          "name": "_owner",
          "type": "address"
        },
        {
          "name": "_operator",
          "type": "address"
        }
      ],
      "name": "isApprovedForAll",
      "outputs": [
        {
          "name": "",
          "type": "bool"
        }
      ],
      "payable": false,
      "stateMutability": "view",
      "type": "function"
    },
    {
      "constant": false,
      "inputs": [
        {
          "name": "newOwner",
          "type": "address"
        }
      ],
      "name": "transferOwnership",
      "outputs": [],
      "payable": false,
      "stateMutability": "nonpayable",
      "type": "function"
    },
    {
      "inputs": [
        {
          "name": "name",
          "type": "string"
        },
        {
          "name": "symbol",
          "type": "string"
        }
      ],
      "payable": false,
      "stateMutability": "nonpayable",
      "type": "constructor"
    },
    {
      "payable": true,
      "stateMutability": "payable",
      "type": "fallback"
    },
    {
      "anonymous": false,
      "inputs": [
        {
          "indexed": true,
          "name": "previousOwner",
          "type": "address"
        },
        {
          "indexed": true,
          "name": "newOwner",
          "type": "address"
        }
      ],
      "name": "OwnershipTransferred",
      "type": "event"
    },
    {
      "anonymous": false,
      "inputs": [
        {
          "indexed": true,
          "name": "_from",
          "type": "address"
        },
        {
          "indexed": true,
          "name": "_to",
          "type": "address"
        },
        {
          "indexed": false,
          "name": "_tokenId",
          "type": "uint256"
        }
      ],
      "name": "Transfer",
      "type": "event"
    },
    {
      "anonymous": false,
      "inputs": [
        {
          "indexed": true,
          "name": "_owner",
          "type": "address"
        },
        {
          "indexed": true,
          "name": "_approved",
          "type": "address"
        },
        {
          "indexed": false,
          "name": "_tokenId",
          "type": "uint256"
        }
      ],
      "name": "Approval",
      "type": "event"
    },
    {
      "anonymous": false,
      "inputs": [
        {
          "indexed": true,
          "name": "_owner",
          "type": "address"
        },
        {
          "indexed": true,
          "name": "_operator",
          "type": "address"
        },
        {
          "indexed": false,
          "name": "_approved",
          "type": "bool"
        }
      ],
      "name": "ApprovalForAll",
      "type": "event"
    },
    {
      "constant": true,
      "inputs": [],
      "name": "implementation",
      "outputs": [
        {
          "name": "",
          "type": "address"
        }
      ],
      "payable": false,
      "stateMutability": "view",
      "type": "function"
    },
    {
      "constant": true,
      "inputs": [
        {
          "name": "_tokenId",
          "type": "uint256"
        }
      ],
      "name": "tokenMetadata",
      "outputs": [
        {
          "name": "_infoUrl",
          "type": "string"
        }
      ],
      "payable": false,
      "stateMutability": "view",
      "type": "function"
    },
    {
      "constant": true,
      "inputs": [
        {
          "name": "moves",
          "type": "bytes28[2]"
        }
      ],
      "name": "getHash",
      "outputs": [
        {
          "name": "",
          "type": "bytes32"
        }
      ],
      "payable": false,
      "stateMutability": "view",
      "type": "function"
    },
    {
      "constant": true,
      "inputs": [
        {
          "name": "movesHash",
          "type": "bytes32"
        }
      ],
      "name": "getStake",
      "outputs": [
        {
          "name": "",
          "type": "uint256"
        }
      ],
      "payable": false,
      "stateMutability": "view",
      "type": "function"
    },
    {
      "constant": true,
      "inputs": [
        {
          "name": "movesHash",
          "type": "bytes32"
        }
      ],
      "name": "getCommit",
      "outputs": [
        {
          "name": "",
          "type": "address"
        }
      ],
      "payable": false,
      "stateMutability": "view",
      "type": "function"
    },
    {
      "constant": true,
      "inputs": [
        {
          "name": "_tokenId",
          "type": "uint256"
        }
      ],
      "name": "getBlockMinted",
      "outputs": [
        {
          "name": "",
          "type": "uint256"
        }
      ],
      "payable": false,
      "stateMutability": "view",
      "type": "function"
    },
    {
      "constant": true,
      "inputs": [
        {
          "name": "_tokenId",
          "type": "uint256"
        }
      ],
      "name": "getCloverMoves",
      "outputs": [
        {
          "name": "",
          "type": "bytes28[2]"
        }
      ],
      "payable": false,
      "stateMutability": "view",
      "type": "function"
    },
    {
      "constant": true,
      "inputs": [
        {
          "name": "_tokenId",
          "type": "uint256"
        }
      ],
      "name": "getReward",
      "outputs": [
        {
          "name": "",
          "type": "uint256"
        }
      ],
      "payable": false,
      "stateMutability": "view",
      "type": "function"
    },
    {
      "constant": true,
      "inputs": [
        {
          "name": "_tokenId",
          "type": "uint256"
        }
      ],
      "name": "getSymmetries",
      "outputs": [
        {
          "name": "",
          "type": "bytes1"
        }
      ],
      "payable": false,
      "stateMutability": "view",
      "type": "function"
    },
    {
      "constant": true,
      "inputs": [],
      "name": "getAllSymmetries",
      "outputs": [
        {
          "name": "",
          "type": "uint256"
        },
        {
          "name": "",
          "type": "uint256"
        },
        {
          "name": "",
          "type": "uint256"
        },
        {
          "name": "",
          "type": "uint256"
        },
        {
          "name": "",
          "type": "uint256"
        },
        {
          "name": "",
          "type": "uint256"
        }
      ],
      "payable": false,
      "stateMutability": "view",
      "type": "function"
    },
    {
      "constant": false,
      "inputs": [
        {
          "name": "_to",
          "type": "address"
        },
        {
          "name": "amount",
          "type": "uint256"
        }
      ],
      "name": "moveEth",
      "outputs": [
        {
          "name": "",
          "type": "bool"
        }
      ],
      "payable": false,
      "stateMutability": "nonpayable",
      "type": "function"
    },
    {
      "constant": false,
      "inputs": [
        {
          "name": "amount",
          "type": "uint256"
        },
        {
          "name": "_to",
          "type": "address"
        },
        {
          "name": "token",
          "type": "address"
        }
      ],
      "name": "moveToken",
      "outputs": [
        {
          "name": "",
          "type": "bool"
        }
      ],
      "payable": false,
      "stateMutability": "nonpayable",
      "type": "function"
    },
    {
      "constant": false,
      "inputs": [
        {
          "name": "amount",
          "type": "uint256"
        },
        {
          "name": "_to",
          "type": "address"
        },
        {
          "name": "token",
          "type": "address"
        }
      ],
      "name": "approveToken",
      "outputs": [
        {
          "name": "",
          "type": "bool"
        }
      ],
      "payable": false,
      "stateMutability": "nonpayable",
      "type": "function"
    },
    {
      "constant": false,
      "inputs": [
        {
          "name": "movesHash",
          "type": "bytes32"
        },
        {
          "name": "stake",
          "type": "uint256"
        }
      ],
      "name": "setStake",
      "outputs": [],
      "payable": false,
      "stateMutability": "nonpayable",
      "type": "function"
    },
    {
      "constant": false,
      "inputs": [
        {
          "name": "movesHash",
          "type": "bytes32"
        },
        {
          "name": "commiter",
          "type": "address"
        }
      ],
      "name": "setCommit",
      "outputs": [],
      "payable": false,
      "stateMutability": "nonpayable",
      "type": "function"
    },
    {
      "constant": false,
      "inputs": [
        {
          "name": "_tokenId",
          "type": "uint256"
        },
        {
          "name": "value",
          "type": "uint256"
        }
      ],
      "name": "setBlockMinted",
      "outputs": [],
      "payable": false,
      "stateMutability": "nonpayable",
      "type": "function"
    },
    {
      "constant": false,
      "inputs": [
        {
          "name": "_tokenId",
          "type": "uint256"
        },
        {
          "name": "moves",
          "type": "bytes28[2]"
        }
      ],
      "name": "setCloverMoves",
      "outputs": [],
      "payable": false,
      "stateMutability": "nonpayable",
      "type": "function"
    },
    {
      "constant": false,
      "inputs": [
        {
          "name": "_tokenId",
          "type": "uint256"
        },
        {
          "name": "_amount",
          "type": "uint256"
        }
      ],
      "name": "setReward",
      "outputs": [],
      "payable": false,
      "stateMutability": "nonpayable",
      "type": "function"
    },
    {
      "constant": false,
      "inputs": [
        {
          "name": "_tokenId",
          "type": "uint256"
        },
        {
          "name": "_symmetries",
          "type": "bytes1"
        }
      ],
      "name": "setSymmetries",
      "outputs": [],
      "payable": false,
      "stateMutability": "nonpayable",
      "type": "function"
    },
    {
      "constant": false,
      "inputs": [
        {
          "name": "_totalSymmetries",
          "type": "uint256"
        },
        {
          "name": "RotSym",
          "type": "uint256"
        },
        {
          "name": "Y0Sym",
          "type": "uint256"
        },
        {
          "name": "X0Sym",
          "type": "uint256"
        },
        {
          "name": "XYSym",
          "type": "uint256"
        },
        {
          "name": "XnYSym",
          "type": "uint256"
        }
      ],
      "name": "setAllSymmetries",
      "outputs": [],
      "payable": false,
      "stateMutability": "nonpayable",
      "type": "function"
    },
    {
      "constant": false,
      "inputs": [
        {
          "name": "_tokenId",
          "type": "uint256"
        }
      ],
      "name": "deleteClover",
      "outputs": [],
      "payable": false,
      "stateMutability": "nonpayable",
      "type": "function"
    },
    {
      "constant": false,
      "inputs": [
        {
          "name": "_cloversController",
          "type": "address"
        }
      ],
      "name": "updateCloversControllerAddress",
      "outputs": [],
      "payable": false,
      "stateMutability": "nonpayable",
      "type": "function"
    },
    {
      "constant": false,
      "inputs": [
        {
          "name": "_cloversMetadata",
          "type": "address"
        }
      ],
      "name": "updateCloversMetadataAddress",
      "outputs": [],
      "payable": false,
      "stateMutability": "nonpayable",
      "type": "function"
    },
    {
      "constant": false,
      "inputs": [
        {
          "name": "_to",
          "type": "address"
        },
        {
          "name": "_tokenId",
          "type": "uint256"
        }
      ],
      "name": "mint",
      "outputs": [],
      "payable": false,
      "stateMutability": "nonpayable",
      "type": "function"
    },
    {
      "constant": false,
      "inputs": [
        {
          "name": "_tokenId",
          "type": "uint256"
        }
      ],
      "name": "unmint",
      "outputs": [],
      "payable": false,
      "stateMutability": "nonpayable",
      "type": "function"
    }
  ],
  "bytecode": "0x606060405234156200001057600080fd5b6040516200446e3803806200446e833981016040526200003a9067800000000000000090620001d9565b8181816004908051906020019062000054929190620000b9565b5080600590805190602001906200006d929190620000b9565b50505033600b60006101000a81548173ffffffffffffffffffffffffffffffffffffffff021916908373ffffffffffffffffffffffffffffffffffffffff16021790555050506200030f565b828054600181600116156101000203166002900490600052602060002090601f016020900481019282601f10620000fc57805160ff19168380011785556200012d565b828001600101855582156200012d579182015b828111156200012c5782518255916020019190600101906200010f565b5b5090506200013c919062000140565b5090565b6200016591905b808211156200016157600081600090555060010162000147565b5090565b90565b600082601f830112600081146200017f5762000184565b600080fd5b5081516200019c6200019682620002a2565b6200026a565b91508082526020830160208301858383011160018114620001bd57620001c2565b600080fd5b50620001d0838284620002d9565b50505092915050565b60008060408385031260018114620001f157620001f6565b600080fd5b50600083015167ffffffffffffffff81116001811462000216576200021b565b600080fd5b506200022a8582860162000168565b925050602083015167ffffffffffffffff8111600181146200024c5762000251565b600080fd5b50620002608582860162000168565b9150509250929050565b6000604051905081810181811067ffffffffffffffff82111760018114620002925762000297565b600080fd5b508060405250919050565b600067ffffffffffffffff821160018114620002be57620002c3565b600080fd5b50601f19601f8301169050602081019050919050565b60005b83811015620002f9578082015181840152602081019050620002dc565b8381111562000309576000848401525b50505050565b61414f806200031f6000396000f300606060405260043610610230576000357c0100000000000000000000000000000000000000000000000000000000900463ffffffff16806303a53d6b1461023257806306fdde0314610268578063081812fc14610291578063095ea7b3146102c75780630b628395146102e95780630e8310d61461030b5780631732e9411461032d57806318160ddd146103635780631c4b774b1461038c5780631cc1472d146103c25780631dba5660146103f85780631dbd9d911461041a57806323b872dd1461043c5780632f745c591461045e5780633541fd531461049457806340c10f19146104b657806342842e0e146104d857806347885781146104fa5780634e485f88146105305780634f558e79146105525780634f6ccce7146105885780635c60da1b146105be57806362f9acf9146105e75780636352211e1461061d57806364e779b1146106535780636914db6014610675578063708fa7f7146106ab57806370a08231146106e3578063785d8d71146107195780638784ea96146107475780638a56a2261461077d5780638b1b2ba81461079f5780638da5cb5b146107c15780638fee6407146107ea57806395d89b4114610820578063a22cb46514610849578063a47bd4961461086b578063b7f8aa001461088d578063b88d4fde146108c3578063c53b4bf9146108e5578063c87b56dd1461091b578063e3100d1e14610951578063e765c12214610973578063e985e9c5146109a9578063f2fde38b146109df578063f760a4e214610a01575b005b341561023d57600080fd5b610252600461024d9036906139c9565b610a37565b60405161025f9190613e36565b60405180910390f35b341561027357600080fd5b61027b610a57565b6040516102889190613e14565b60405180910390f35b341561029c57600080fd5b6102b160046102ac9036906139c9565b610aff565b6040516102be9190613cd4565b60405180910390f35b34156102d257600080fd5b6102e760046102e2903690613896565b610b3c565b005b34156102f457600080fd5b6103096004610304903690613a53565b610d02565b005b341561031657600080fd5b61032b60046103269036906139c9565b610de0565b005b341561033857600080fd5b61034d60046103489036906138db565b610ee1565b60405161035a9190613dde565b60405180910390f35b341561036e57600080fd5b610376610f28565b6040516103839190613e36565b60405180910390f35b341561039757600080fd5b6103ac60046103a79036906139c9565b610f35565b6040516103b99190613e36565b60405180910390f35b34156103cd57600080fd5b6103e260046103dd903690613896565b610f55565b6040516103ef9190613d71565b60405180910390f35b341561040357600080fd5b6104186004610413903690613a98565b61106e565b005b341561042557600080fd5b61043a600461043590369061393f565b611175565b005b341561044757600080fd5b61045c600461045790369061376c565b611287565b005b341561046957600080fd5b61047e6004610479903690613896565b61139e565b60405161048b9190613e36565b60405180910390f35b341561049f57600080fd5b6104b460046104af903690613984565b611416565b005b34156104c157600080fd5b6104d660046104d1903690613896565b6114ee565b005b34156104e357600080fd5b6104f860046104f390369061376c565b6115b0565b005b341561050557600080fd5b61051a600461051590369061390d565b6115e8565b6040516105279190613cd4565b60405180910390f35b341561053b57600080fd5b610550600461054b9036906136f5565b61161b565b005b341561055d57600080fd5b610572600461056d9036906139c9565b6116e1565b60405161057f9190613d71565b60405180910390f35b341561059357600080fd5b6105a860046105a39036906139c9565b611752565b6040516105b59190613e36565b60405180910390f35b34156105c957600080fd5b6105d161178b565b6040516105de9190613cd4565b60405180910390f35b34156105f257600080fd5b61060760046106029036906139c9565b6117b5565b6040516106149190613d56565b60405180910390f35b341561062857600080fd5b61063d60046106389036906139c9565b61182e565b60405161064a9190613cd4565b60405180910390f35b341561065e57600080fd5b610673600461066e9036906139c9565b6118ab565b005b341561068057600080fd5b61069560046106909036906139c9565b611974565b6040516106a29190613e14565b60405180910390f35b34156106b657600080fd5b6106cb60046106c69036906139c9565b6119ec565b6040516106da93929190613da7565b60405180910390f35b34156106ee57600080fd5b61070360046106fe9036906136f5565b611a42565b6040516107109190613e36565b60405180910390f35b341561072457600080fd5b61072c611ac6565b60405161073e96959493929190613e51565b60405180910390f35b341561075257600080fd5b610767600461076290369061390d565b611b40565b6040516107749190613cd4565b60405180910390f35b341561078857600080fd5b61079d60046107989036906136f5565b611b85565b005b34156107aa57600080fd5b6107bf60046107ba903690613b22565b611c4b565b005b34156107cc57600080fd5b6107d4611d7c565b6040516107e19190613cd4565b60405180910390f35b34156107f557600080fd5b61080a600461080590369061390d565b611da2565b6040516108179190613e36565b60405180910390f35b341561082b57600080fd5b610833611dba565b6040516108409190613e14565b60405180910390f35b341561085457600080fd5b6108696004610864903690613851565b611e62565b005b341561087657600080fd5b61088b6004610886903690613add565b611f9a565b005b341561089857600080fd5b6108ad60046108a89036906139fb565b61206d565b6040516108ba9190613d71565b60405180910390f35b34156108ce57600080fd5b6108e360046108de9036906137c4565b6121c0565b005b34156108f057600080fd5b61090560046109009036906139c9565b6121ff565b6040516109129190613d8c565b60405180910390f35b341561092657600080fd5b61093b60046109369036906139c9565b61224b565b6040516109489190613e14565b60405180910390f35b341561095c57600080fd5b610971600461096c903690613add565b61231a565b005b341561097e57600080fd5b610993600461098e90369061390d565b6123ed565b6040516109a09190613e36565b60405180910390f35b34156109b457600080fd5b6109c960046109c4903690613727565b612412565b6040516109d69190613d71565b60405180910390f35b34156109ea57600080fd5b6109ff60046109fa9036906136f5565b6124a6565b005b3415610a0c57600080fd5b610a216004610a1c9036906139fb565b6125fe565b604051610a2e9190613d71565b60405180910390f35b600060146000838152602001908152602001600020600301549050919050565b610a5f6133a4565b60048054600181600116156101000203166002900480601f016020809104026020016040519081016040528092919081815260200182805460018160011615610100020316600290048015610af55780601f10610aca57610100808354040283529160200191610af5565b820191906000526020600020905b815481529060010190602001808311610ad857829003601f168201915b5050505050905090565b60006001600083815260200190815260200160002060009054906101000a900473ffffffffffffffffffffffffffffffffffffffff169050919050565b6000610b478261182e565b90508073ffffffffffffffffffffffffffffffffffffffff168373ffffffffffffffffffffffffffffffffffffffff1614151515610b8457600080fd5b8073ffffffffffffffffffffffffffffffffffffffff163373ffffffffffffffffffffffffffffffffffffffff161480610bc45750610bc38133612412565b5b1515610bcf57600080fd5b600073ffffffffffffffffffffffffffffffffffffffff16610bf083610aff565b73ffffffffffffffffffffffffffffffffffffffff16141580610c405750600073ffffffffffffffffffffffffffffffffffffffff168373ffffffffffffffffffffffffffffffffffffffff1614155b15610cfd57826001600084815260200190815260200160002060006101000a81548173ffffffffffffffffffffffffffffffffffffffff021916908373ffffffffffffffffffffffffffffffffffffffff1602179055508273ffffffffffffffffffffffffffffffffffffffff168173ffffffffffffffffffffffffffffffffffffffff167f8c5be1e5ebec7d5bd14f71427d1e84f3dd0314c0f7b2291e5b200ac8c7c3b92584604051610cf49190613e36565b60405180910390a35b505050565b601360009054906101000a900473ffffffffffffffffffffffffffffffffffffffff1673ffffffffffffffffffffffffffffffffffffffff163373ffffffffffffffffffffffffffffffffffffffff161480610dab5750600b60009054906101000a900473ffffffffffffffffffffffffffffffffffffffff1673ffffffffffffffffffffffffffffffffffffffff163373ffffffffffffffffffffffffffffffffffffffff16145b1515610db657600080fd5b8060146000848152602001908152602001600020600101906002610ddb9291906133b8565b505050565b601360009054906101000a900473ffffffffffffffffffffffffffffffffffffffff1673ffffffffffffffffffffffffffffffffffffffff163373ffffffffffffffffffffffffffffffffffffffff161480610e895750600b60009054906101000a900473ffffffffffffffffffffffffffffffffffffffff1673ffffffffffffffffffffffffffffffffffffffff163373ffffffffffffffffffffffffffffffffffffffff16145b1515610e9457600080fd5b60146000828152602001908152602001600020600080820160006101000a81549060ff0219169055600182016000610ecc919061342f565b60038201600090556004820160009055505050565b6000816040518082600260200280838360005b83811015610f0f578082015181840152602081019050610ef4565b5050505090500191505060405180910390209050919050565b6000600880549050905090565b600060146000838152602001908152602001600020600401549050919050565b6000601360009054906101000a900473ffffffffffffffffffffffffffffffffffffffff1673ffffffffffffffffffffffffffffffffffffffff163373ffffffffffffffffffffffffffffffffffffffff1614806110005750600b60009054906101000a900473ffffffffffffffffffffffffffffffffffffffff1673ffffffffffffffffffffffffffffffffffffffff163373ffffffffffffffffffffffffffffffffffffffff16145b151561100b57600080fd5b3073ffffffffffffffffffffffffffffffffffffffff1631821115151561103157600080fd5b8273ffffffffffffffffffffffffffffffffffffffff166108fc839081150290604051600060405180830381858888f19350505050905092915050565b601360009054906101000a900473ffffffffffffffffffffffffffffffffffffffff1673ffffffffffffffffffffffffffffffffffffffff163373ffffffffffffffffffffffffffffffffffffffff1614806111175750600b60009054906101000a900473ffffffffffffffffffffffffffffffffffffffff1673ffffffffffffffffffffffffffffffffffffffff163373ffffffffffffffffffffffffffffffffffffffff16145b151561112257600080fd5b806014600084815260200190815260200160002060000160006101000a81548160ff02191690837f0100000000000000000000000000000000000000000000000000000000000000900402179055505050565b601360009054906101000a900473ffffffffffffffffffffffffffffffffffffffff1673ffffffffffffffffffffffffffffffffffffffff163373ffffffffffffffffffffffffffffffffffffffff16148061121e5750600b60009054906101000a900473ffffffffffffffffffffffffffffffffffffffff1673ffffffffffffffffffffffffffffffffffffffff163373ffffffffffffffffffffffffffffffffffffffff16145b151561122957600080fd5b8060156000846000191660001916815260200190815260200160002060006101000a81548173ffffffffffffffffffffffffffffffffffffffff021916908373ffffffffffffffffffffffffffffffffffffffff1602179055505050565b8061129233826127f1565b151561129d57600080fd5b600073ffffffffffffffffffffffffffffffffffffffff168473ffffffffffffffffffffffffffffffffffffffff16141515156112d957600080fd5b600073ffffffffffffffffffffffffffffffffffffffff168373ffffffffffffffffffffffffffffffffffffffff161415151561131557600080fd5b61131f8483612886565b61132984836129ef565b6113338383612c0a565b8273ffffffffffffffffffffffffffffffffffffffff168473ffffffffffffffffffffffffffffffffffffffff167fddf252ad1be2c89b69c2b068fc378daa952ba7f163c4a11628f55a4df523b3ef846040516113909190613e36565b60405180910390a350505050565b60006113a983611a42565b821015156113b657600080fd5b600660008473ffffffffffffffffffffffffffffffffffffffff1673ffffffffffffffffffffffffffffffffffffffff1681526020019081526020016000208281548110151561140257fe5b906000526020600020900154905092915050565b601360009054906101000a900473ffffffffffffffffffffffffffffffffffffffff1673ffffffffffffffffffffffffffffffffffffffff163373ffffffffffffffffffffffffffffffffffffffff1614806114bf5750600b60009054906101000a900473ffffffffffffffffffffffffffffffffffffffff1673ffffffffffffffffffffffffffffffffffffffff163373ffffffffffffffffffffffffffffffffffffffff16145b15156114ca57600080fd5b80601660008460001916600019168152602001908152602001600020819055505050565b601360009054906101000a900473ffffffffffffffffffffffffffffffffffffffff1673ffffffffffffffffffffffffffffffffffffffff163373ffffffffffffffffffffffffffffffffffffffff1614806115975750600b60009054906101000a900473ffffffffffffffffffffffffffffffffffffffff1673ffffffffffffffffffffffffffffffffffffffff163373ffffffffffffffffffffffffffffffffffffffff16145b15156115a257600080fd5b6115ac8282612cde565b5050565b806115bb33826127f1565b15156115c657600080fd5b6115e284848460206040519081016040528060008152506121c0565b50505050565b60156020528060005260406000206000915054906101000a900473ffffffffffffffffffffffffffffffffffffffff1681565b600b60009054906101000a900473ffffffffffffffffffffffffffffffffffffffff1673ffffffffffffffffffffffffffffffffffffffff163373ffffffffffffffffffffffffffffffffffffffff1614151561167757600080fd5b60008173ffffffffffffffffffffffffffffffffffffffff161415151561169d57600080fd5b80600c60006101000a81548173ffffffffffffffffffffffffffffffffffffffff021916908373ffffffffffffffffffffffffffffffffffffffff16021790555050565b60008060008084815260200190815260200160002060009054906101000a900473ffffffffffffffffffffffffffffffffffffffff169050600073ffffffffffffffffffffffffffffffffffffffff168173ffffffffffffffffffffffffffffffffffffffff161415915050919050565b600061175c610f28565b8210151561176957600080fd5b60088281548110151561177857fe5b9060005260206000209001549050919050565b6000600c60009054906101000a900473ffffffffffffffffffffffffffffffffffffffff16905090565b6117bd61343d565b60146000838152602001908152602001600020600101600280602002604051908101604052809291908260028015611822576020028201915b8160009054906101000a90046401000000000263ffffffff1916815260200190600101908083116117f6575b50505050509050919050565b60008060008084815260200190815260200160002060009054906101000a900473ffffffffffffffffffffffffffffffffffffffff169050600073ffffffffffffffffffffffffffffffffffffffff168173ffffffffffffffffffffffffffffffffffffffff16141515156118a257600080fd5b80915050919050565b601360009054906101000a900473ffffffffffffffffffffffffffffffffffffffff1673ffffffffffffffffffffffffffffffffffffffff163373ffffffffffffffffffffffffffffffffffffffff1614806119545750600b60009054906101000a900473ffffffffffffffffffffffffffffffffffffffff1673ffffffffffffffffffffffffffffffffffffffff163373ffffffffffffffffffffffffffffffffffffffff16145b151561195f57600080fd5b61197161196b8261182e565b82612d32565b50565b61197c6133a4565b600061198661346b565b61198e61178b565b91506000368080601f0160208091040260200160405190810160405280939291908181526020018383808284378201915050505050509050600080825160208401855af43d604051816000823e82600081146119e8578282f35b8282fd5b60146020528060005260406000206000915090508060000160009054906101000a90047f010000000000000000000000000000000000000000000000000000000000000002908060030154908060040154905083565b60008073ffffffffffffffffffffffffffffffffffffffff168273ffffffffffffffffffffffffffffffffffffffff1614151515611a7f57600080fd5b600260008373ffffffffffffffffffffffffffffffffffffffff1673ffffffffffffffffffffffffffffffffffffffff168152602001908152602001600020549050919050565b600080600080600080600d54600e6000600581101515611ae257fe5b0154600e6001600581101515611af457fe5b0154600e6002600581101515611b0657fe5b0154600e6003600581101515611b1857fe5b0154600e6004600581101515611b2a57fe5b0154955095509550955095509550909192939495565b600060156000836000191660001916815260200190815260200160002060009054906101000a900473ffffffffffffffffffffffffffffffffffffffff169050919050565b600b60009054906101000a900473ffffffffffffffffffffffffffffffffffffffff1673ffffffffffffffffffffffffffffffffffffffff163373ffffffffffffffffffffffffffffffffffffffff16141515611be157600080fd5b60008173ffffffffffffffffffffffffffffffffffffffff1614151515611c0757600080fd5b80601360006101000a81548173ffffffffffffffffffffffffffffffffffffffff021916908373ffffffffffffffffffffffffffffffffffffffff16021790555050565b601360009054906101000a900473ffffffffffffffffffffffffffffffffffffffff1673ffffffffffffffffffffffffffffffffffffffff163373ffffffffffffffffffffffffffffffffffffffff161480611cf45750600b60009054906101000a900473ffffffffffffffffffffffffffffffffffffffff1673ffffffffffffffffffffffffffffffffffffffff163373ffffffffffffffffffffffffffffffffffffffff16145b1515611cff57600080fd5b85600d8190555084600e6000600581101515611d1757fe5b018190555083600e6001600581101515611d2d57fe5b018190555082600e6002600581101515611d4357fe5b018190555081600e6003600581101515611d5957fe5b018190555080600e6004600581101515611d6f57fe5b0181905550505050505050565b600b60009054906101000a900473ffffffffffffffffffffffffffffffffffffffff1681565b60166020528060005260406000206000915090505481565b611dc26133a4565b60058054600181600116156101000203166002900480601f016020809104026020016040519081016040528092919081815260200182805460018160011615610100020316600290048015611e585780601f10611e2d57610100808354040283529160200191611e58565b820191906000526020600020905b815481529060010190602001808311611e3b57829003601f168201915b5050505050905090565b3373ffffffffffffffffffffffffffffffffffffffff168273ffffffffffffffffffffffffffffffffffffffff1614151515611e9d57600080fd5b80600360003373ffffffffffffffffffffffffffffffffffffffff1673ffffffffffffffffffffffffffffffffffffffff16815260200190815260200160002060008473ffffffffffffffffffffffffffffffffffffffff1673ffffffffffffffffffffffffffffffffffffffff16815260200190815260200160002060006101000a81548160ff0219169083151502179055508173ffffffffffffffffffffffffffffffffffffffff163373ffffffffffffffffffffffffffffffffffffffff167f17307eab39ab6107e8899845ad3d59bd9653f200f220920489ca2b5937696c3183604051611f8e9190613d71565b60405180910390a35050565b601360009054906101000a900473ffffffffffffffffffffffffffffffffffffffff1673ffffffffffffffffffffffffffffffffffffffff163373ffffffffffffffffffffffffffffffffffffffff1614806120435750600b60009054906101000a900473ffffffffffffffffffffffffffffffffffffffff1673ffffffffffffffffffffffffffffffffffffffff163373ffffffffffffffffffffffffffffffffffffffff16145b151561204e57600080fd5b8060146000848152602001908152602001600020600401819055505050565b6000601360009054906101000a900473ffffffffffffffffffffffffffffffffffffffff1673ffffffffffffffffffffffffffffffffffffffff163373ffffffffffffffffffffffffffffffffffffffff1614806121185750600b60009054906101000a900473ffffffffffffffffffffffffffffffffffffffff1673ffffffffffffffffffffffffffffffffffffffff163373ffffffffffffffffffffffffffffffffffffffff16145b151561212357600080fd5b8173ffffffffffffffffffffffffffffffffffffffff1663095ea7b384866000604051602001526040518363ffffffff167c0100000000000000000000000000000000000000000000000000000000028152600401612183929190613cef565b602060405180830381600087803b151561219c57600080fd5b6102c65a03f115156121ad57600080fd5b5050506040518051905090509392505050565b816121cb33826127f1565b15156121d657600080fd5b6121e1858585611287565b6121ed85858585612e6d565b15156121f857600080fd5b5050505050565b60006014600083815260200190815260200160002060000160009054906101000a90047f0100000000000000000000000000000000000000000000000000000000000000029050919050565b6122536133a4565b61225c826116e1565b151561226757600080fd5b600a60008381526020019081526020016000208054600181600116156101000203166002900480601f01602080910402602001604051908101604052809291908181526020018280546001816001161561010002031660029004801561230e5780601f106122e35761010080835404028352916020019161230e565b820191906000526020600020905b8154815290600101906020018083116122f157829003601f168201915b50505050509050919050565b601360009054906101000a900473ffffffffffffffffffffffffffffffffffffffff1673ffffffffffffffffffffffffffffffffffffffff163373ffffffffffffffffffffffffffffffffffffffff1614806123c35750600b60009054906101000a900473ffffffffffffffffffffffffffffffffffffffff1673ffffffffffffffffffffffffffffffffffffffff163373ffffffffffffffffffffffffffffffffffffffff16145b15156123ce57600080fd5b8060146000848152602001908152602001600020600301819055505050565b6000601660008360001916600019168152602001908152602001600020549050919050565b6000600360008473ffffffffffffffffffffffffffffffffffffffff1673ffffffffffffffffffffffffffffffffffffffff16815260200190815260200160002060008373ffffffffffffffffffffffffffffffffffffffff1673ffffffffffffffffffffffffffffffffffffffff16815260200190815260200160002060009054906101000a900460ff16905092915050565b600b60009054906101000a900473ffffffffffffffffffffffffffffffffffffffff1673ffffffffffffffffffffffffffffffffffffffff163373ffffffffffffffffffffffffffffffffffffffff1614151561250257600080fd5b600073ffffffffffffffffffffffffffffffffffffffff168173ffffffffffffffffffffffffffffffffffffffff161415151561253e57600080fd5b8073ffffffffffffffffffffffffffffffffffffffff16600b60009054906101000a900473ffffffffffffffffffffffffffffffffffffffff1673ffffffffffffffffffffffffffffffffffffffff167f8be0079c531659141344cd1fd0a4f28419497f9722a3daafe3b4186f6b6457e060405160405180910390a380600b60006101000a81548173ffffffffffffffffffffffffffffffffffffffff021916908373ffffffffffffffffffffffffffffffffffffffff16021790555050565b6000601360009054906101000a900473ffffffffffffffffffffffffffffffffffffffff1673ffffffffffffffffffffffffffffffffffffffff163373ffffffffffffffffffffffffffffffffffffffff1614806126a95750600b60009054906101000a900473ffffffffffffffffffffffffffffffffffffffff1673ffffffffffffffffffffffffffffffffffffffff163373ffffffffffffffffffffffffffffffffffffffff16145b15156126b457600080fd5b8173ffffffffffffffffffffffffffffffffffffffff166370a08231306000604051602001526040518263ffffffff167c01000000000000000000000000000000000000000000000000000000000281526004016127129190613df9565b602060405180830381600087803b151561272b57600080fd5b6102c65a03f1151561273c57600080fd5b50505060405180519050841115151561275457600080fd5b8173ffffffffffffffffffffffffffffffffffffffff1663a9059cbb84866000604051602001526040518363ffffffff167c01000000000000000000000000000000000000000000000000000000000281526004016127b4929190613cef565b602060405180830381600087803b15156127cd57600080fd5b6102c65a03f115156127de57600080fd5b5050506040518051905090509392505050565b6000806127fd8361182e565b90508073ffffffffffffffffffffffffffffffffffffffff168473ffffffffffffffffffffffffffffffffffffffff16148061286c57508373ffffffffffffffffffffffffffffffffffffffff1661285484610aff565b73ffffffffffffffffffffffffffffffffffffffff16145b8061287d575061287c8185612412565b5b91505092915050565b8173ffffffffffffffffffffffffffffffffffffffff166128a68261182e565b73ffffffffffffffffffffffffffffffffffffffff161415156128c857600080fd5b600073ffffffffffffffffffffffffffffffffffffffff166001600083815260200190815260200160002060009054906101000a900473ffffffffffffffffffffffffffffffffffffffff1673ffffffffffffffffffffffffffffffffffffffff161415156129eb5760006001600083815260200190815260200160002060006101000a81548173ffffffffffffffffffffffffffffffffffffffff021916908373ffffffffffffffffffffffffffffffffffffffff160217905550600073ffffffffffffffffffffffffffffffffffffffff168273ffffffffffffffffffffffffffffffffffffffff167f8c5be1e5ebec7d5bd14f71427d1e84f3dd0314c0f7b2291e5b200ac8c7c3b925836040516129e29190613e36565b60405180910390a35b5050565b60008060006129fe8585612fa6565b60076000858152602001908152602001600020549250612a6a6001600660008873ffffffffffffffffffffffffffffffffffffffff1673ffffffffffffffffffffffffffffffffffffffff168152602001908152602001600020805490506130d490919063ffffffff16565b9150600660008673ffffffffffffffffffffffffffffffffffffffff1673ffffffffffffffffffffffffffffffffffffffff16815260200190815260200160002082815481101515612ab857fe5b906000526020600020900154905080600660008773ffffffffffffffffffffffffffffffffffffffff1673ffffffffffffffffffffffffffffffffffffffff16815260200190815260200160002084815481101515612b1357fe5b9060005260206000209001819055506000600660008773ffffffffffffffffffffffffffffffffffffffff1673ffffffffffffffffffffffffffffffffffffffff16815260200190815260200160002083815481101515612b7057fe5b906000526020600020900181905550600660008673ffffffffffffffffffffffffffffffffffffffff1673ffffffffffffffffffffffffffffffffffffffff168152602001908152602001600020805480919060019003612bd1919061347f565b50600060076000868152602001908152602001600020819055508260076000838152602001908152602001600020819055505050505050565b6000612c1683836130ed565b600660008473ffffffffffffffffffffffffffffffffffffffff1673ffffffffffffffffffffffffffffffffffffffff168152602001908152602001600020805490509050600660008473ffffffffffffffffffffffffffffffffffffffff1673ffffffffffffffffffffffffffffffffffffffff1681526020019081526020016000208054806001018281612cac91906134ab565b916000526020600020900160008490919091505550806007600084815260200190815260200160002081905550505050565b612ce88282613245565b600880549050600960008381526020019081526020016000208190555060088054806001018281612d1991906134ab565b9160005260206000209001600083909190915055505050565b6000806000612d4185856132f5565b6000600a6000868152602001908152602001600020805460018160011615610100020316600290049050141515612d9257600a60008581526020019081526020016000206000612d9191906134d7565b5b60096000858152602001908152602001600020549250612dc160016008805490506130d490919063ffffffff16565b9150600882815481101515612dd257fe5b906000526020600020900154905080600884815481101515612df057fe5b9060005260206000209001819055506000600883815481101515612e1057fe5b9060005260206000209001819055506008805480919060019003612e34919061347f565b50600060096000868152602001908152602001600020819055508260096000838152602001908152602001600020819055505050505050565b600080612e8f8573ffffffffffffffffffffffffffffffffffffffff16613373565b1515612e9e5760019150612f9d565b8473ffffffffffffffffffffffffffffffffffffffff1663f0b9e5ba8786866000604051602001526040518463ffffffff167c0100000000000000000000000000000000000000000000000000000000028152600401612f0093929190613d18565b602060405180830381600087803b1515612f1957600080fd5b6102c65a03f11515612f2a57600080fd5b50505060405180519050905063f0b9e5ba7c0100000000000000000000000000000000000000000000000000000000027bffffffffffffffffffffffffffffffffffffffffffffffffffffffff1916817bffffffffffffffffffffffffffffffffffffffffffffffffffffffff19161491505b50949350505050565b8173ffffffffffffffffffffffffffffffffffffffff16612fc68261182e565b73ffffffffffffffffffffffffffffffffffffffff16141515612fe857600080fd5b61303b6001600260008573ffffffffffffffffffffffffffffffffffffffff1673ffffffffffffffffffffffffffffffffffffffff168152602001908152602001600020546130d490919063ffffffff16565b600260008473ffffffffffffffffffffffffffffffffffffffff1673ffffffffffffffffffffffffffffffffffffffff16815260200190815260200160002081905550600080600083815260200190815260200160002060006101000a81548173ffffffffffffffffffffffffffffffffffffffff021916908373ffffffffffffffffffffffffffffffffffffffff1602179055505050565b60008282111515156130e257fe5b818303905092915050565b600073ffffffffffffffffffffffffffffffffffffffff1660008083815260200190815260200160002060009054906101000a900473ffffffffffffffffffffffffffffffffffffffff1673ffffffffffffffffffffffffffffffffffffffff1614151561315a57600080fd5b8160008083815260200190815260200160002060006101000a81548173ffffffffffffffffffffffffffffffffffffffff021916908373ffffffffffffffffffffffffffffffffffffffff1602179055506131fe6001600260008573ffffffffffffffffffffffffffffffffffffffff1673ffffffffffffffffffffffffffffffffffffffff1681526020019081526020016000205461338690919063ffffffff16565b600260008473ffffffffffffffffffffffffffffffffffffffff1673ffffffffffffffffffffffffffffffffffffffff168152602001908152602001600020819055505050565b600073ffffffffffffffffffffffffffffffffffffffff168273ffffffffffffffffffffffffffffffffffffffff161415151561328157600080fd5b61328b8282612c0a565b8173ffffffffffffffffffffffffffffffffffffffff16600073ffffffffffffffffffffffffffffffffffffffff167fddf252ad1be2c89b69c2b068fc378daa952ba7f163c4a11628f55a4df523b3ef836040516132e99190613e36565b60405180910390a35050565b6132ff8282612886565b61330982826129ef565b600073ffffffffffffffffffffffffffffffffffffffff168273ffffffffffffffffffffffffffffffffffffffff167fddf252ad1be2c89b69c2b068fc378daa952ba7f163c4a11628f55a4df523b3ef836040516133679190613e36565b60405180910390a35050565b600080823b905060008111915050919050565b600080828401905083811015151561339a57fe5b8091505092915050565b602060405190810160405280600081525090565b826002810192821561341e579160200282015b8281111561341d5782518260006101000a8154817bffffffffffffffffffffffffffffffffffffffffffffffffffffffff021916908364010000000090040217905550916020019190600101906133cb565b5b50905061342b919061351f565b5090565b506000815560010160009055565b60408051908101604052806002905b600063ffffffff191681526020019060019003908161344c5790505090565b602060405190810160405280600081525090565b8154818355818115116134a6578183600052602060002091820191016134a5919061356a565b5b505050565b8154818355818115116134d2578183600052602060002091820191016134d1919061356a565b5b505050565b50805460018160011615610100020316600290046000825580601f106134fd575061351c565b601f01602090049060005260206000209081019061351b919061356a565b5b50565b61356791905b8082111561356357600081816101000a8154907bffffffffffffffffffffffffffffffffffffffffffffffffffffffff021916905550600101613525565b5090565b90565b61358c91905b80821115613588576000816000905550600101613570565b5090565b90565b600061359b8235614018565b905092915050565b600082601f830112600081146135b8576135bd565b600080fd5b5060026135d16135cc82613ee8565b613eb2565b915081838560208402820111600181146135ea576135ef565b600080fd5b5060005b8381101561362057816136068882613652565b8452602084019350602083019250506001810190506135f3565b5050505092915050565b60006136368235614038565b905092915050565b600061364a8235614044565b905092915050565b600061365e8235614070565b905092915050565b6000613672823561409c565b905092915050565b600082601f8301126000811461368f57613694565b600080fd5b5081356136a86136a382613f13565b613eb2565b915080825260208301602083018583830111600181146136c7576136cc565b600080fd5b506136d88382846140c2565b50505092915050565b60006136ed82356140a6565b905092915050565b60006020828403126001811461370a5761370f565b600080fd5b50600061371e8482850161358f565b91505092915050565b6000806040838503126001811461373d57613742565b600080fd5b5060006137518582860161358f565b92505060206137628582860161358f565b9150509250929050565b60008060006060848603126001811461378457613789565b600080fd5b5060006137988682870161358f565b93505060206137a98682870161358f565b92505060406137ba868287016136e1565b9150509250925092565b600080600080608085870312600181146137dd576137e2565b600080fd5b5060006137f18782880161358f565b94505060206138028782880161358f565b9350506040613813878288016136e1565b925050606085013567ffffffffffffffff81116001811461383357613838565b600080fd5b506138458782880161367a565b91505092959194509250565b600080604083850312600181146138675761386c565b600080fd5b50600061387b8582860161358f565b925050602061388c8582860161362a565b9150509250929050565b600080604083850312600181146138ac576138b1565b600080fd5b5060006138c08582860161358f565b92505060206138d1858286016136e1565b9150509250929050565b6000604082840312600181146138f0576138f5565b600080fd5b506000613904848285016135a3565b91505092915050565b60006020828403126001811461392257613927565b600080fd5b50600061393684828501613666565b91505092915050565b600080604083850312600181146139555761395a565b600080fd5b50600061396985828601613666565b925050602061397a8582860161358f565b9150509250929050565b6000806040838503126001811461399a5761399f565b600080fd5b5060006139ae85828601613666565b92505060206139bf858286016136e1565b9150509250929050565b6000602082840312600181146139de576139e3565b600080fd5b5060006139f2848285016136e1565b91505092915050565b600080600060608486031260018114613a1357613a18565b600080fd5b506000613a27868287016136e1565b9350506020613a388682870161358f565b9250506040613a498682870161358f565b9150509250925092565b60008060608385031260018114613a6957613a6e565b600080fd5b506000613a7d858286016136e1565b9250506020613a8e858286016135a3565b9150509250929050565b60008060408385031260018114613aae57613ab3565b600080fd5b506000613ac2858286016136e1565b9250506020613ad38582860161363e565b9150509250929050565b60008060408385031260018114613af357613af8565b600080fd5b506000613b07858286016136e1565b9250506020613b18858286016136e1565b9150509250929050565b60008060008060008060c08789031260018114613b3e57613b43565b600080fd5b506000613b5289828a016136e1565b9650506020613b6389828a016136e1565b9550506040613b7489828a016136e1565b9450506060613b8589828a016136e1565b9350506080613b9689828a016136e1565b92505060a0613ba789828a016136e1565b9150509295509295509295565b613bbd81613f80565b82525050565b613bcc81613f52565b613bd582613f48565b60005b82811015613c0757613beb858351613c2c565b613bf482613f73565b9150602085019450600181019050613bd8565b5050505050565b613c1781613fa0565b82525050565b613c2681613fac565b82525050565b613c3581613fd8565b82525050565b613c4481614004565b82525050565b6000613c5582613f5d565b808452613c698160208601602086016140d1565b613c7281614104565b602085010191505092915050565b613c89816140b0565b82525050565b6000613c9a82613f68565b808452613cae8160208601602086016140d1565b613cb781614104565b602085010191505092915050565b613cce8161400e565b82525050565b6000602082019050613ce96000830184613bb4565b92915050565b6000604082019050613d046000830185613bb4565b613d116020830184613cc5565b9392505050565b6000606082019050613d2d6000830186613bb4565b613d3a6020830185613cc5565b8181036040830152613d4c8184613c4a565b9050949350505050565b6000604082019050613d6b6000830184613bc3565b92915050565b6000602082019050613d866000830184613c0e565b92915050565b6000602082019050613da16000830184613c1d565b92915050565b6000606082019050613dbc6000830186613c1d565b613dc96020830185613cc5565b613dd66040830184613cc5565b949350505050565b6000602082019050613df36000830184613c3b565b92915050565b6000602082019050613e0e6000830184613c80565b92915050565b60006020820190508181036000830152613e2e8184613c8f565b905092915050565b6000602082019050613e4b6000830184613cc5565b92915050565b600060c082019050613e666000830189613cc5565b613e736020830188613cc5565b613e806040830187613cc5565b613e8d6060830186613cc5565b613e9a6080830185613cc5565b613ea760a0830184613cc5565b979650505050505050565b6000604051905081810181811067ffffffffffffffff82111760018114613ed857613edd565b600080fd5b508060405250919050565b600067ffffffffffffffff821160018114613f0257613f07565b600080fd5b50602082029050919050565b600067ffffffffffffffff821160018114613f2d57613f32565b600080fd5b50601f19601f8301169050602081019050919050565b6000819050919050565b600060029050919050565b600081519050919050565b600081519050919050565b6000602082019050919050565b600073ffffffffffffffffffffffffffffffffffffffff82169050919050565b60008115159050919050565b60007fff0000000000000000000000000000000000000000000000000000000000000082169050919050565b60007fffffffffffffffffffffffffffffffffffffffffffffffffffffffff0000000082169050919050565b6000819050919050565b6000819050919050565b600073ffffffffffffffffffffffffffffffffffffffff82169050919050565b60008115159050919050565b60007fff0000000000000000000000000000000000000000000000000000000000000082169050919050565b60007fffffffffffffffffffffffffffffffffffffffffffffffffffffffff0000000082169050919050565b6000819050919050565b6000819050919050565b60006140bb82613f80565b9050919050565b82818337600083830152505050565b60005b838110156140ef5780820151818401526020810190506140d4565b838111156140fe576000848401525b50505050565b6000601f19601f83011690509190505600a265627a7a72305820f7ccfc40b8692c57d9fbbc9d96c39de443f48e010e25e3f774597cb0e41bb9d46c6578706572696d656e74616cf50037",
  "source": "pragma solidity ^0.4.19;\npragma experimental ABIEncoderV2;\n\n/**\n * Digital Asset Registry for the Non Fungible Token Clover\n * with upgradeable contract reference for returning metadata.\n */\n\nimport \"zeppelin-solidity/contracts/token/ERC20/ERC20.sol\";\n\nimport \"zeppelin-solidity/contracts/token/ERC721/ERC721Token.sol\";\nimport \"zeppelin-solidity/contracts/ownership/Ownable.sol\";\nimport \"./IClovers.sol\";\nimport \"./CloversMetadata.sol\";\n\n\ncontract Clovers is IClovers, ERC721Token, Ownable {\n\n    address private cloversMetadata;\n    uint256 totalSymmetries;\n    uint256[5] symmetries; // RotSym, Y0Sym, X0Sym, XYSym, XnYSym\n    address cloversController;\n\n    mapping (uint256 => Clover) public clovers;\n    struct Clover {\n        bytes1 symmetries;\n        bytes28[2] cloverMoves;\n        uint256 blockMinted;\n        uint256 rewards;\n    }\n    mapping (bytes32 => address) public commits;\n    mapping (bytes32 => uint256) public stakes;\n\n    modifier onlyOwnerOrController() {\n        require(\n            msg.sender == cloversController ||\n            msg.sender == owner\n        );\n        _;\n    }\n\n    function Clovers (string name, string symbol) public\n        ERC721Token(name, symbol)\n    { }\n\n    function () public payable {}\n\n    function implementation() public view returns (address) {\n        return cloversMetadata;\n    }\n\n    function tokenMetadata(uint _tokenId) public view returns (string _infoUrl) {\n        // require(ownerOf(_tokenId) != 0);\n        address _impl = implementation();\n        bytes memory data = msg.data;\n        assembly {\n            let result := delegatecall(gas, _impl, add(data, 0x20), mload(data), 0, 0)\n            let size := returndatasize\n            let ptr := mload(0x40)\n            returndatacopy(ptr, 0, size)\n            switch result\n            case 0 { revert(ptr, size) }\n            default { return(ptr, size) }\n        }\n        // return CloversMetadata(cloversMetadata).tokenMetadata(_tokenId);\n    }\n    function getHash(bytes28[2] moves) public view returns (bytes32) {\n        return keccak256(moves);\n    }\n    function getStake(bytes32 movesHash) public view returns (uint256) {\n        return stakes[movesHash];\n    }\n    function getCommit(bytes32 movesHash) public view returns (address) {\n        return commits[movesHash];\n    }\n    function getBlockMinted(uint256 _tokenId) public view returns (uint256) {\n        return clovers[_tokenId].blockMinted;\n    }\n    function getCloverMoves(uint256 _tokenId) public view returns (bytes28[2]) {\n        return clovers[_tokenId].cloverMoves;\n    }\n    function getReward(uint256 _tokenId) public view returns (uint256) {\n        return clovers[_tokenId].rewards;\n    }\n    function getSymmetries(uint256 _tokenId) public view returns (bytes1) {\n        return clovers[_tokenId].symmetries;\n    }\n    function getAllSymmetries() public view returns (uint256, uint256, uint256, uint256, uint256, uint256) {\n        return (\n            totalSymmetries,\n            symmetries[0], //RotSym,\n            symmetries[1], //Y0Sym,\n            symmetries[2], //X0Sym,\n            symmetries[3], //XYSym,\n            symmetries[4] //XnYSym\n        );\n    }\n\n/* ---------------------------------------------------------------------------------------------------------------------- */\n\n    function moveEth(address _to, uint256 amount) public onlyOwnerOrController returns (bool) {\n        require(amount <= this.balance);\n        return _to.send(amount);\n    }\n    function moveToken(uint256 amount, address _to, address token) public onlyOwnerOrController returns (bool) {\n        require(amount <= ERC20(token).balanceOf(this));\n        return ERC20(token).transfer(_to, amount);\n    }\n    function approveToken(uint256 amount, address _to, address token) public onlyOwnerOrController returns (bool) {\n        return ERC20(token).approve(_to, amount);\n    }\n\n    function setStake(bytes32 movesHash, uint256 stake) public onlyOwnerOrController {\n        stakes[movesHash] = stake;\n    }\n    function setCommit(bytes32 movesHash, address commiter) public onlyOwnerOrController {\n        commits[movesHash] = commiter;\n    }\n    function setBlockMinted(uint256 _tokenId, uint256 value) public onlyOwnerOrController {\n        clovers[_tokenId].blockMinted = value;\n    }\n    function setCloverMoves(uint256 _tokenId, bytes28[2] moves) public onlyOwnerOrController {\n        clovers[_tokenId].cloverMoves = moves;\n    }\n    function setReward(uint256 _tokenId, uint256 _amount) public onlyOwnerOrController {\n        clovers[_tokenId].rewards = _amount;\n    }\n    function setSymmetries(uint256 _tokenId, bytes1 _symmetries) public onlyOwnerOrController {\n        clovers[_tokenId].symmetries = _symmetries;\n    }\n    function setAllSymmetries(uint256 _totalSymmetries, uint256 RotSym, uint256 Y0Sym, uint256 X0Sym, uint256 XYSym, uint256 XnYSym) public onlyOwnerOrController {\n        totalSymmetries = _totalSymmetries;\n        symmetries[0] = RotSym;\n        symmetries[1] = Y0Sym;\n        symmetries[2] = X0Sym;\n        symmetries[3] = XYSym;\n        symmetries[4] = XnYSym;\n    }\n    function deleteClover(uint256 _tokenId) public onlyOwnerOrController {\n        delete(clovers[_tokenId]);\n    }\n\n    function updateCloversControllerAddress(address _cloversController) public onlyOwner {\n        require(_cloversController != 0);\n        cloversController = _cloversController;\n    }\n    function updateCloversMetadataAddress(address _cloversMetadata) public onlyOwner {\n        require(_cloversMetadata != 0);\n        cloversMetadata = _cloversMetadata;\n    }\n\n    function mint (address _to, uint256 _tokenId) public onlyOwnerOrController {\n        super._mint(_to, _tokenId);\n    }\n    function unmint (uint256 _tokenId) public onlyOwnerOrController {\n        super._burn(ownerOf(_tokenId), _tokenId);\n        // address _owner = ownerOf(_tokenId); // needs to be changed from private to internal\n        // if (getApproved(_tokenId) != 0) {\n        //     tokenApprovals[_tokenId] = 0;\n        //     Approval(_owner, 0x0, _tokenId);\n        // }\n        // removeTokenFrom(_owner, _tokenId); // needs to be changed from private to internal\n        // Transfer(_owner, 0x0, _tokenId);\n    }\n\n}\n",
  "sourcePath": "/Users/billy/sol/clovers-contracts/contracts/Clovers.sol",
  "compiler": {
    "name": "solc",
    "version": "0.4.19+commit.c4cbbb05.Emscripten.clang"
  },
  "schemaVersion": "1.0.1",
  "updatedAt": "2018-04-05T17:44:43.863Z"
}