{
  "contractName": "Clovers",
  "abi": [
    {
      "constant": true,
      "inputs": [],
      "name": "name",
      "outputs": [
        {
          "name": "",
          "type": "string"
        }
      ],
      "payable": false,
      "stateMutability": "view",
      "type": "function"
    },
    {
      "constant": true,
      "inputs": [
        {
          "name": "_tokenId",
          "type": "uint256"
        }
      ],
      "name": "getApproved",
      "outputs": [
        {
          "name": "",
          "type": "address"
        }
      ],
      "payable": false,
      "stateMutability": "view",
      "type": "function"
    },
    {
      "constant": false,
      "inputs": [
        {
          "name": "_to",
          "type": "address"
        },
        {
          "name": "_tokenId",
          "type": "uint256"
        }
      ],
      "name": "approve",
      "outputs": [],
      "payable": false,
      "stateMutability": "nonpayable",
      "type": "function"
    },
    {
      "constant": true,
      "inputs": [],
      "name": "totalSupply",
      "outputs": [
        {
          "name": "",
          "type": "uint256"
        }
      ],
      "payable": false,
      "stateMutability": "view",
      "type": "function"
    },
    {
      "constant": false,
      "inputs": [
        {
          "name": "_from",
          "type": "address"
        },
        {
          "name": "_to",
          "type": "address"
        },
        {
          "name": "_tokenId",
          "type": "uint256"
        }
      ],
      "name": "transferFrom",
      "outputs": [],
      "payable": false,
      "stateMutability": "nonpayable",
      "type": "function"
    },
    {
      "constant": true,
      "inputs": [
        {
          "name": "_owner",
          "type": "address"
        },
        {
          "name": "_index",
          "type": "uint256"
        }
      ],
      "name": "tokenOfOwnerByIndex",
      "outputs": [
        {
          "name": "",
          "type": "uint256"
        }
      ],
      "payable": false,
      "stateMutability": "view",
      "type": "function"
    },
    {
      "constant": false,
      "inputs": [
        {
          "name": "_from",
          "type": "address"
        },
        {
          "name": "_to",
          "type": "address"
        },
        {
          "name": "_tokenId",
          "type": "uint256"
        }
      ],
      "name": "safeTransferFrom",
      "outputs": [],
      "payable": false,
      "stateMutability": "nonpayable",
      "type": "function"
    },
    {
      "constant": true,
      "inputs": [
        {
          "name": "",
          "type": "bytes32"
        }
      ],
      "name": "commits",
      "outputs": [
        {
          "name": "",
          "type": "address"
        }
      ],
      "payable": false,
      "stateMutability": "view",
      "type": "function"
    },
    {
      "constant": true,
      "inputs": [
        {
          "name": "_tokenId",
          "type": "uint256"
        }
      ],
      "name": "exists",
      "outputs": [
        {
          "name": "",
          "type": "bool"
        }
      ],
      "payable": false,
      "stateMutability": "view",
      "type": "function"
    },
    {
      "constant": true,
      "inputs": [
        {
          "name": "_index",
          "type": "uint256"
        }
      ],
      "name": "tokenByIndex",
      "outputs": [
        {
          "name": "",
          "type": "uint256"
        }
      ],
      "payable": false,
      "stateMutability": "view",
      "type": "function"
    },
    {
      "constant": true,
      "inputs": [
        {
          "name": "_tokenId",
          "type": "uint256"
        }
      ],
      "name": "ownerOf",
      "outputs": [
        {
          "name": "",
          "type": "address"
        }
      ],
      "payable": false,
      "stateMutability": "view",
      "type": "function"
    },
    {
      "constant": true,
      "inputs": [
        {
          "name": "",
          "type": "uint256"
        }
      ],
      "name": "clovers",
      "outputs": [
        {
          "name": "symmetries",
          "type": "bytes1"
        },
        {
          "name": "blockMinted",
          "type": "uint256"
        },
        {
          "name": "rewards",
          "type": "uint256"
        }
      ],
      "payable": false,
      "stateMutability": "view",
      "type": "function"
    },
    {
      "constant": true,
      "inputs": [
        {
          "name": "_owner",
          "type": "address"
        }
      ],
      "name": "balanceOf",
      "outputs": [
        {
          "name": "",
          "type": "uint256"
        }
      ],
      "payable": false,
      "stateMutability": "view",
      "type": "function"
    },
    {
      "constant": true,
      "inputs": [],
      "name": "owner",
      "outputs": [
        {
          "name": "",
          "type": "address"
        }
      ],
      "payable": false,
      "stateMutability": "view",
      "type": "function"
    },
    {
      "constant": true,
      "inputs": [
        {
          "name": "",
          "type": "bytes32"
        }
      ],
      "name": "stakes",
      "outputs": [
        {
          "name": "",
          "type": "uint256"
        }
      ],
      "payable": false,
      "stateMutability": "view",
      "type": "function"
    },
    {
      "constant": true,
      "inputs": [],
      "name": "symbol",
      "outputs": [
        {
          "name": "",
          "type": "string"
        }
      ],
      "payable": false,
      "stateMutability": "view",
      "type": "function"
    },
    {
      "constant": false,
      "inputs": [
        {
          "name": "_to",
          "type": "address"
        },
        {
          "name": "_approved",
          "type": "bool"
        }
      ],
      "name": "setApprovalForAll",
      "outputs": [],
      "payable": false,
      "stateMutability": "nonpayable",
      "type": "function"
    },
    {
      "constant": false,
      "inputs": [
        {
          "name": "_from",
          "type": "address"
        },
        {
          "name": "_to",
          "type": "address"
        },
        {
          "name": "_tokenId",
          "type": "uint256"
        },
        {
          "name": "_data",
          "type": "bytes"
        }
      ],
      "name": "safeTransferFrom",
      "outputs": [],
      "payable": false,
      "stateMutability": "nonpayable",
      "type": "function"
    },
    {
      "constant": true,
      "inputs": [
        {
          "name": "_owner",
          "type": "address"
        },
        {
          "name": "_operator",
          "type": "address"
        }
      ],
      "name": "isApprovedForAll",
      "outputs": [
        {
          "name": "",
          "type": "bool"
        }
      ],
      "payable": false,
      "stateMutability": "view",
      "type": "function"
    },
    {
      "constant": false,
      "inputs": [
        {
          "name": "newOwner",
          "type": "address"
        }
      ],
      "name": "transferOwnership",
      "outputs": [],
      "payable": false,
      "stateMutability": "nonpayable",
      "type": "function"
    },
    {
      "inputs": [
        {
          "name": "name",
          "type": "string"
        },
        {
          "name": "symbol",
          "type": "string"
        }
      ],
      "payable": false,
      "stateMutability": "nonpayable",
      "type": "constructor"
    },
    {
      "payable": true,
      "stateMutability": "payable",
      "type": "fallback"
    },
    {
      "anonymous": false,
      "inputs": [
        {
          "indexed": true,
          "name": "previousOwner",
          "type": "address"
        },
        {
          "indexed": true,
          "name": "newOwner",
          "type": "address"
        }
      ],
      "name": "OwnershipTransferred",
      "type": "event"
    },
    {
      "anonymous": false,
      "inputs": [
        {
          "indexed": true,
          "name": "_from",
          "type": "address"
        },
        {
          "indexed": true,
          "name": "_to",
          "type": "address"
        },
        {
          "indexed": false,
          "name": "_tokenId",
          "type": "uint256"
        }
      ],
      "name": "Transfer",
      "type": "event"
    },
    {
      "anonymous": false,
      "inputs": [
        {
          "indexed": true,
          "name": "_owner",
          "type": "address"
        },
        {
          "indexed": true,
          "name": "_approved",
          "type": "address"
        },
        {
          "indexed": false,
          "name": "_tokenId",
          "type": "uint256"
        }
      ],
      "name": "Approval",
      "type": "event"
    },
    {
      "anonymous": false,
      "inputs": [
        {
          "indexed": true,
          "name": "_owner",
          "type": "address"
        },
        {
          "indexed": true,
          "name": "_operator",
          "type": "address"
        },
        {
          "indexed": false,
          "name": "_approved",
          "type": "bool"
        }
      ],
      "name": "ApprovalForAll",
      "type": "event"
    },
    {
      "constant": true,
      "inputs": [],
      "name": "implementation",
      "outputs": [
        {
          "name": "",
          "type": "address"
        }
      ],
      "payable": false,
      "stateMutability": "view",
      "type": "function"
    },
    {
      "constant": true,
      "inputs": [
        {
          "name": "_tokenId",
          "type": "uint256"
        }
      ],
      "name": "tokenURI",
      "outputs": [
        {
          "name": "_infoUrl",
          "type": "string"
        }
      ],
      "payable": false,
      "stateMutability": "view",
      "type": "function"
    },
    {
      "constant": true,
      "inputs": [
        {
          "name": "moves",
          "type": "bytes28[2]"
        }
      ],
      "name": "getHash",
      "outputs": [
        {
          "name": "",
          "type": "bytes32"
        }
      ],
      "payable": false,
      "stateMutability": "view",
      "type": "function"
    },
    {
      "constant": true,
      "inputs": [
        {
          "name": "movesHash",
          "type": "bytes32"
        }
      ],
      "name": "getStake",
      "outputs": [
        {
          "name": "",
          "type": "uint256"
        }
      ],
      "payable": false,
      "stateMutability": "view",
      "type": "function"
    },
    {
      "constant": true,
      "inputs": [
        {
          "name": "movesHash",
          "type": "bytes32"
        }
      ],
      "name": "getCommit",
      "outputs": [
        {
          "name": "",
          "type": "address"
        }
      ],
      "payable": false,
      "stateMutability": "view",
      "type": "function"
    },
    {
      "constant": true,
      "inputs": [
        {
          "name": "_tokenId",
          "type": "uint256"
        }
      ],
      "name": "getBlockMinted",
      "outputs": [
        {
          "name": "",
          "type": "uint256"
        }
      ],
      "payable": false,
      "stateMutability": "view",
      "type": "function"
    },
    {
      "constant": true,
      "inputs": [
        {
          "name": "_tokenId",
          "type": "uint256"
        }
      ],
      "name": "getCloverMoves",
      "outputs": [
        {
          "name": "",
          "type": "bytes28[2]"
        }
      ],
      "payable": false,
      "stateMutability": "view",
      "type": "function"
    },
    {
      "constant": true,
      "inputs": [
        {
          "name": "_tokenId",
          "type": "uint256"
        }
      ],
      "name": "getReward",
      "outputs": [
        {
          "name": "",
          "type": "uint256"
        }
      ],
      "payable": false,
      "stateMutability": "view",
      "type": "function"
    },
    {
      "constant": true,
      "inputs": [
        {
          "name": "_tokenId",
          "type": "uint256"
        }
      ],
      "name": "getSymmetries",
      "outputs": [
        {
          "name": "",
          "type": "bytes1"
        }
      ],
      "payable": false,
      "stateMutability": "view",
      "type": "function"
    },
    {
      "constant": true,
      "inputs": [],
      "name": "getAllSymmetries",
      "outputs": [
        {
          "name": "",
          "type": "uint256"
        },
        {
          "name": "",
          "type": "uint256"
        },
        {
          "name": "",
          "type": "uint256"
        },
        {
          "name": "",
          "type": "uint256"
        },
        {
          "name": "",
          "type": "uint256"
        },
        {
          "name": "",
          "type": "uint256"
        }
      ],
      "payable": false,
      "stateMutability": "view",
      "type": "function"
    },
    {
      "constant": false,
      "inputs": [
        {
          "name": "_to",
          "type": "address"
        },
        {
          "name": "amount",
          "type": "uint256"
        }
      ],
      "name": "moveEth",
      "outputs": [
        {
          "name": "",
          "type": "bool"
        }
      ],
      "payable": false,
      "stateMutability": "nonpayable",
      "type": "function"
    },
    {
      "constant": false,
      "inputs": [
        {
          "name": "amount",
          "type": "uint256"
        },
        {
          "name": "_to",
          "type": "address"
        },
        {
          "name": "token",
          "type": "address"
        }
      ],
      "name": "moveToken",
      "outputs": [
        {
          "name": "",
          "type": "bool"
        }
      ],
      "payable": false,
      "stateMutability": "nonpayable",
      "type": "function"
    },
    {
      "constant": false,
      "inputs": [
        {
          "name": "amount",
          "type": "uint256"
        },
        {
          "name": "_to",
          "type": "address"
        },
        {
          "name": "token",
          "type": "address"
        }
      ],
      "name": "approveToken",
      "outputs": [
        {
          "name": "",
          "type": "bool"
        }
      ],
      "payable": false,
      "stateMutability": "nonpayable",
      "type": "function"
    },
    {
      "constant": false,
      "inputs": [
        {
          "name": "movesHash",
          "type": "bytes32"
        },
        {
          "name": "stake",
          "type": "uint256"
        }
      ],
      "name": "setStake",
      "outputs": [],
      "payable": false,
      "stateMutability": "nonpayable",
      "type": "function"
    },
    {
      "constant": false,
      "inputs": [
        {
          "name": "movesHash",
          "type": "bytes32"
        },
        {
          "name": "commiter",
          "type": "address"
        }
      ],
      "name": "setCommit",
      "outputs": [],
      "payable": false,
      "stateMutability": "nonpayable",
      "type": "function"
    },
    {
      "constant": false,
      "inputs": [
        {
          "name": "_tokenId",
          "type": "uint256"
        },
        {
          "name": "value",
          "type": "uint256"
        }
      ],
      "name": "setBlockMinted",
      "outputs": [],
      "payable": false,
      "stateMutability": "nonpayable",
      "type": "function"
    },
    {
      "constant": false,
      "inputs": [
        {
          "name": "_tokenId",
          "type": "uint256"
        },
        {
          "name": "moves",
          "type": "bytes28[2]"
        }
      ],
      "name": "setCloverMoves",
      "outputs": [],
      "payable": false,
      "stateMutability": "nonpayable",
      "type": "function"
    },
    {
      "constant": false,
      "inputs": [
        {
          "name": "_tokenId",
          "type": "uint256"
        },
        {
          "name": "_amount",
          "type": "uint256"
        }
      ],
      "name": "setReward",
      "outputs": [],
      "payable": false,
      "stateMutability": "nonpayable",
      "type": "function"
    },
    {
      "constant": false,
      "inputs": [
        {
          "name": "_tokenId",
          "type": "uint256"
        },
        {
          "name": "_symmetries",
          "type": "bytes1"
        }
      ],
      "name": "setSymmetries",
      "outputs": [],
      "payable": false,
      "stateMutability": "nonpayable",
      "type": "function"
    },
    {
      "constant": false,
      "inputs": [
        {
          "name": "_totalSymmetries",
          "type": "uint256"
        },
        {
          "name": "RotSym",
          "type": "uint256"
        },
        {
          "name": "Y0Sym",
          "type": "uint256"
        },
        {
          "name": "X0Sym",
          "type": "uint256"
        },
        {
          "name": "XYSym",
          "type": "uint256"
        },
        {
          "name": "XnYSym",
          "type": "uint256"
        }
      ],
      "name": "setAllSymmetries",
      "outputs": [],
      "payable": false,
      "stateMutability": "nonpayable",
      "type": "function"
    },
    {
      "constant": false,
      "inputs": [
        {
          "name": "_tokenId",
          "type": "uint256"
        }
      ],
      "name": "deleteClover",
      "outputs": [],
      "payable": false,
      "stateMutability": "nonpayable",
      "type": "function"
    },
    {
      "constant": false,
      "inputs": [
        {
          "name": "_cloversController",
          "type": "address"
        }
      ],
      "name": "updateCloversControllerAddress",
      "outputs": [],
      "payable": false,
      "stateMutability": "nonpayable",
      "type": "function"
    },
    {
      "constant": false,
      "inputs": [
        {
          "name": "_cloversMetadata",
          "type": "address"
        }
      ],
      "name": "updateCloversMetadataAddress",
      "outputs": [],
      "payable": false,
      "stateMutability": "nonpayable",
      "type": "function"
    },
    {
      "constant": false,
      "inputs": [
        {
          "name": "_to",
          "type": "address"
        },
        {
          "name": "_tokenId",
          "type": "uint256"
        }
      ],
      "name": "mint",
      "outputs": [],
      "payable": false,
      "stateMutability": "nonpayable",
      "type": "function"
    },
    {
      "constant": false,
      "inputs": [
        {
          "name": "_tokenId",
          "type": "uint256"
        }
      ],
      "name": "unmint",
      "outputs": [],
      "payable": false,
      "stateMutability": "nonpayable",
      "type": "function"
    }
  ],
  "bytecode": "0x606060405234156200001057600080fd5b6040516200435e3803806200435e833981016040526200003a9067800000000000000090620001d9565b8181816004908051906020019062000054929190620000b9565b5080600590805190602001906200006d929190620000b9565b50505033600b60006101000a81548173ffffffffffffffffffffffffffffffffffffffff021916908373ffffffffffffffffffffffffffffffffffffffff16021790555050506200030f565b828054600181600116156101000203166002900490600052602060002090601f016020900481019282601f10620000fc57805160ff19168380011785556200012d565b828001600101855582156200012d579182015b828111156200012c5782518255916020019190600101906200010f565b5b5090506200013c919062000140565b5090565b6200016591905b808211156200016157600081600090555060010162000147565b5090565b90565b600082601f830112600081146200017f5762000184565b600080fd5b5081516200019c6200019682620002a2565b6200026a565b91508082526020830160208301858383011160018114620001bd57620001c2565b600080fd5b50620001d0838284620002d9565b50505092915050565b60008060408385031260018114620001f157620001f6565b600080fd5b50600083015167ffffffffffffffff81116001811462000216576200021b565b600080fd5b506200022a8582860162000168565b925050602083015167ffffffffffffffff8111600181146200024c5762000251565b600080fd5b50620002608582860162000168565b9150509250929050565b6000604051905081810181811067ffffffffffffffff82111760018114620002925762000297565b600080fd5b508060405250919050565b600067ffffffffffffffff821160018114620002be57620002c3565b600080fd5b50601f19601f8301169050602081019050919050565b60005b83811015620002f9578082015181840152602081019050620002dc565b8381111562000309576000848401525b50505050565b61403f806200031f6000396000f300606060405260043610610225576000357c0100000000000000000000000000000000000000000000000000000000900463ffffffff16806303a53d6b1461022757806306fdde031461025d578063081812fc14610286578063095ea7b3146102bc5780630b628395146102de5780630e8310d6146103005780631732e9411461032257806318160ddd146103585780631c4b774b146103815780631cc1472d146103b75780631dba5660146103ed5780631dbd9d911461040f57806323b872dd146104315780632f745c59146104535780633541fd531461048957806340c10f19146104ab57806342842e0e146104cd57806347885781146104ef5780634e485f88146105255780634f558e79146105475780634f6ccce71461057d5780635c60da1b146105b357806362f9acf9146105dc5780636352211e1461061257806364e779b114610648578063708fa7f71461066a57806370a08231146106a2578063785d8d71146106d85780638784ea96146107065780638a56a2261461073c5780638b1b2ba81461075e5780638da5cb5b146107805780638fee6407146107a957806395d89b41146107df578063a22cb46514610808578063a47bd4961461082a578063b7f8aa001461084c578063b88d4fde14610882578063c53b4bf9146108a4578063c87b56dd146108da578063e3100d1e14610910578063e765c12214610932578063e985e9c514610968578063f2fde38b1461099e578063f760a4e2146109c0575b005b341561023257600080fd5b61024760046102429036906138b9565b6109f6565b6040516102549190613d26565b60405180910390f35b341561026857600080fd5b610270610a16565b60405161027d9190613d04565b60405180910390f35b341561029157600080fd5b6102a660046102a19036906138b9565b610abe565b6040516102b39190613bc4565b60405180910390f35b34156102c757600080fd5b6102dc60046102d7903690613786565b610afb565b005b34156102e957600080fd5b6102fe60046102f9903690613943565b610cc1565b005b341561030b57600080fd5b610320600461031b9036906138b9565b610d9f565b005b341561032d57600080fd5b610342600461033d9036906137cb565b610ea0565b60405161034f9190613cce565b60405180910390f35b341561036357600080fd5b61036b610ee7565b6040516103789190613d26565b60405180910390f35b341561038c57600080fd5b6103a1600461039c9036906138b9565b610ef4565b6040516103ae9190613d26565b60405180910390f35b34156103c257600080fd5b6103d760046103d2903690613786565b610f14565b6040516103e49190613c61565b60405180910390f35b34156103f857600080fd5b61040d6004610408903690613988565b61102d565b005b341561041a57600080fd5b61042f600461042a90369061382f565b611134565b005b341561043c57600080fd5b610451600461044c90369061365c565b611246565b005b341561045e57600080fd5b610473600461046e903690613786565b61135d565b6040516104809190613d26565b60405180910390f35b341561049457600080fd5b6104a960046104a4903690613874565b6113d5565b005b34156104b657600080fd5b6104cb60046104c6903690613786565b6114ad565b005b34156104d857600080fd5b6104ed60046104e890369061365c565b61156f565b005b34156104fa57600080fd5b61050f600461050a9036906137fd565b6115a7565b60405161051c9190613bc4565b60405180910390f35b341561053057600080fd5b61054560046105409036906135e5565b6115da565b005b341561055257600080fd5b61056760046105629036906138b9565b6116a0565b6040516105749190613c61565b60405180910390f35b341561058857600080fd5b61059d60046105989036906138b9565b611711565b6040516105aa9190613d26565b60405180910390f35b34156105be57600080fd5b6105c661174a565b6040516105d39190613bc4565b60405180910390f35b34156105e757600080fd5b6105fc60046105f79036906138b9565b611774565b6040516106099190613c46565b60405180910390f35b341561061d57600080fd5b610632600461062d9036906138b9565b6117ed565b60405161063f9190613bc4565b60405180910390f35b341561065357600080fd5b61066860046106639036906138b9565b61186a565b005b341561067557600080fd5b61068a60046106859036906138b9565b611933565b60405161069993929190613c97565b60405180910390f35b34156106ad57600080fd5b6106c260046106bd9036906135e5565b611989565b6040516106cf9190613d26565b60405180910390f35b34156106e357600080fd5b6106eb611a0d565b6040516106fd96959493929190613d41565b60405180910390f35b341561071157600080fd5b61072660046107219036906137fd565b611a87565b6040516107339190613bc4565b60405180910390f35b341561074757600080fd5b61075c60046107579036906135e5565b611acc565b005b341561076957600080fd5b61077e6004610779903690613a12565b611b92565b005b341561078b57600080fd5b610793611cc3565b6040516107a09190613bc4565b60405180910390f35b34156107b457600080fd5b6107c960046107c49036906137fd565b611ce9565b6040516107d69190613d26565b60405180910390f35b34156107ea57600080fd5b6107f2611d01565b6040516107ff9190613d04565b60405180910390f35b341561081357600080fd5b6108286004610823903690613741565b611da9565b005b341561083557600080fd5b61084a60046108459036906139cd565b611ee1565b005b341561085757600080fd5b61086c60046108679036906138eb565b611fb4565b6040516108799190613c61565b60405180910390f35b341561088d57600080fd5b6108a2600461089d9036906136b4565b612107565b005b34156108af57600080fd5b6108c460046108bf9036906138b9565b612146565b6040516108d19190613c7c565b60405180910390f35b34156108e557600080fd5b6108fa60046108f59036906138b9565b612192565b6040516109079190613d04565b60405180910390f35b341561091b57600080fd5b610930600461092b9036906139cd565b61220a565b005b341561093d57600080fd5b610952600461094d9036906137fd565b6122dd565b60405161095f9190613d26565b60405180910390f35b341561097357600080fd5b6109886004610983903690613617565b612302565b6040516109959190613c61565b60405180910390f35b34156109a957600080fd5b6109be60046109b99036906135e5565b612396565b005b34156109cb57600080fd5b6109e060046109db9036906138eb565b6124ee565b6040516109ed9190613c61565b60405180910390f35b600060146000838152602001908152602001600020600301549050919050565b610a1e613294565b60048054600181600116156101000203166002900480601f016020809104026020016040519081016040528092919081815260200182805460018160011615610100020316600290048015610ab45780601f10610a8957610100808354040283529160200191610ab4565b820191906000526020600020905b815481529060010190602001808311610a9757829003601f168201915b5050505050905090565b60006001600083815260200190815260200160002060009054906101000a900473ffffffffffffffffffffffffffffffffffffffff169050919050565b6000610b06826117ed565b90508073ffffffffffffffffffffffffffffffffffffffff168373ffffffffffffffffffffffffffffffffffffffff1614151515610b4357600080fd5b8073ffffffffffffffffffffffffffffffffffffffff163373ffffffffffffffffffffffffffffffffffffffff161480610b835750610b828133612302565b5b1515610b8e57600080fd5b600073ffffffffffffffffffffffffffffffffffffffff16610baf83610abe565b73ffffffffffffffffffffffffffffffffffffffff16141580610bff5750600073ffffffffffffffffffffffffffffffffffffffff168373ffffffffffffffffffffffffffffffffffffffff1614155b15610cbc57826001600084815260200190815260200160002060006101000a81548173ffffffffffffffffffffffffffffffffffffffff021916908373ffffffffffffffffffffffffffffffffffffffff1602179055508273ffffffffffffffffffffffffffffffffffffffff168173ffffffffffffffffffffffffffffffffffffffff167f8c5be1e5ebec7d5bd14f71427d1e84f3dd0314c0f7b2291e5b200ac8c7c3b92584604051610cb39190613d26565b60405180910390a35b505050565b601360009054906101000a900473ffffffffffffffffffffffffffffffffffffffff1673ffffffffffffffffffffffffffffffffffffffff163373ffffffffffffffffffffffffffffffffffffffff161480610d6a5750600b60009054906101000a900473ffffffffffffffffffffffffffffffffffffffff1673ffffffffffffffffffffffffffffffffffffffff163373ffffffffffffffffffffffffffffffffffffffff16145b1515610d7557600080fd5b8060146000848152602001908152602001600020600101906002610d9a9291906132a8565b505050565b601360009054906101000a900473ffffffffffffffffffffffffffffffffffffffff1673ffffffffffffffffffffffffffffffffffffffff163373ffffffffffffffffffffffffffffffffffffffff161480610e485750600b60009054906101000a900473ffffffffffffffffffffffffffffffffffffffff1673ffffffffffffffffffffffffffffffffffffffff163373ffffffffffffffffffffffffffffffffffffffff16145b1515610e5357600080fd5b60146000828152602001908152602001600020600080820160006101000a81549060ff0219169055600182016000610e8b919061331f565b60038201600090556004820160009055505050565b6000816040518082600260200280838360005b83811015610ece578082015181840152602081019050610eb3565b5050505090500191505060405180910390209050919050565b6000600880549050905090565b600060146000838152602001908152602001600020600401549050919050565b6000601360009054906101000a900473ffffffffffffffffffffffffffffffffffffffff1673ffffffffffffffffffffffffffffffffffffffff163373ffffffffffffffffffffffffffffffffffffffff161480610fbf5750600b60009054906101000a900473ffffffffffffffffffffffffffffffffffffffff1673ffffffffffffffffffffffffffffffffffffffff163373ffffffffffffffffffffffffffffffffffffffff16145b1515610fca57600080fd5b3073ffffffffffffffffffffffffffffffffffffffff16318211151515610ff057600080fd5b8273ffffffffffffffffffffffffffffffffffffffff166108fc839081150290604051600060405180830381858888f19350505050905092915050565b601360009054906101000a900473ffffffffffffffffffffffffffffffffffffffff1673ffffffffffffffffffffffffffffffffffffffff163373ffffffffffffffffffffffffffffffffffffffff1614806110d65750600b60009054906101000a900473ffffffffffffffffffffffffffffffffffffffff1673ffffffffffffffffffffffffffffffffffffffff163373ffffffffffffffffffffffffffffffffffffffff16145b15156110e157600080fd5b806014600084815260200190815260200160002060000160006101000a81548160ff02191690837f0100000000000000000000000000000000000000000000000000000000000000900402179055505050565b601360009054906101000a900473ffffffffffffffffffffffffffffffffffffffff1673ffffffffffffffffffffffffffffffffffffffff163373ffffffffffffffffffffffffffffffffffffffff1614806111dd5750600b60009054906101000a900473ffffffffffffffffffffffffffffffffffffffff1673ffffffffffffffffffffffffffffffffffffffff163373ffffffffffffffffffffffffffffffffffffffff16145b15156111e857600080fd5b8060156000846000191660001916815260200190815260200160002060006101000a81548173ffffffffffffffffffffffffffffffffffffffff021916908373ffffffffffffffffffffffffffffffffffffffff1602179055505050565b8061125133826126e1565b151561125c57600080fd5b600073ffffffffffffffffffffffffffffffffffffffff168473ffffffffffffffffffffffffffffffffffffffff161415151561129857600080fd5b600073ffffffffffffffffffffffffffffffffffffffff168373ffffffffffffffffffffffffffffffffffffffff16141515156112d457600080fd5b6112de8483612776565b6112e884836128df565b6112f28383612afa565b8273ffffffffffffffffffffffffffffffffffffffff168473ffffffffffffffffffffffffffffffffffffffff167fddf252ad1be2c89b69c2b068fc378daa952ba7f163c4a11628f55a4df523b3ef8460405161134f9190613d26565b60405180910390a350505050565b600061136883611989565b8210151561137557600080fd5b600660008473ffffffffffffffffffffffffffffffffffffffff1673ffffffffffffffffffffffffffffffffffffffff168152602001908152602001600020828154811015156113c157fe5b906000526020600020900154905092915050565b601360009054906101000a900473ffffffffffffffffffffffffffffffffffffffff1673ffffffffffffffffffffffffffffffffffffffff163373ffffffffffffffffffffffffffffffffffffffff16148061147e5750600b60009054906101000a900473ffffffffffffffffffffffffffffffffffffffff1673ffffffffffffffffffffffffffffffffffffffff163373ffffffffffffffffffffffffffffffffffffffff16145b151561148957600080fd5b80601660008460001916600019168152602001908152602001600020819055505050565b601360009054906101000a900473ffffffffffffffffffffffffffffffffffffffff1673ffffffffffffffffffffffffffffffffffffffff163373ffffffffffffffffffffffffffffffffffffffff1614806115565750600b60009054906101000a900473ffffffffffffffffffffffffffffffffffffffff1673ffffffffffffffffffffffffffffffffffffffff163373ffffffffffffffffffffffffffffffffffffffff16145b151561156157600080fd5b61156b8282612bce565b5050565b8061157a33826126e1565b151561158557600080fd5b6115a18484846020604051908101604052806000815250612107565b50505050565b60156020528060005260406000206000915054906101000a900473ffffffffffffffffffffffffffffffffffffffff1681565b600b60009054906101000a900473ffffffffffffffffffffffffffffffffffffffff1673ffffffffffffffffffffffffffffffffffffffff163373ffffffffffffffffffffffffffffffffffffffff1614151561163657600080fd5b60008173ffffffffffffffffffffffffffffffffffffffff161415151561165c57600080fd5b80600c60006101000a81548173ffffffffffffffffffffffffffffffffffffffff021916908373ffffffffffffffffffffffffffffffffffffffff16021790555050565b60008060008084815260200190815260200160002060009054906101000a900473ffffffffffffffffffffffffffffffffffffffff169050600073ffffffffffffffffffffffffffffffffffffffff168173ffffffffffffffffffffffffffffffffffffffff161415915050919050565b600061171b610ee7565b8210151561172857600080fd5b60088281548110151561173757fe5b9060005260206000209001549050919050565b6000600c60009054906101000a900473ffffffffffffffffffffffffffffffffffffffff16905090565b61177c61332d565b601460008381526020019081526020016000206001016002806020026040519081016040528092919082600280156117e1576020028201915b8160009054906101000a90046401000000000263ffffffff1916815260200190600101908083116117b5575b50505050509050919050565b60008060008084815260200190815260200160002060009054906101000a900473ffffffffffffffffffffffffffffffffffffffff169050600073ffffffffffffffffffffffffffffffffffffffff168173ffffffffffffffffffffffffffffffffffffffff161415151561186157600080fd5b80915050919050565b601360009054906101000a900473ffffffffffffffffffffffffffffffffffffffff1673ffffffffffffffffffffffffffffffffffffffff163373ffffffffffffffffffffffffffffffffffffffff1614806119135750600b60009054906101000a900473ffffffffffffffffffffffffffffffffffffffff1673ffffffffffffffffffffffffffffffffffffffff163373ffffffffffffffffffffffffffffffffffffffff16145b151561191e57600080fd5b61193061192a826117ed565b82612c22565b50565b60146020528060005260406000206000915090508060000160009054906101000a90047f010000000000000000000000000000000000000000000000000000000000000002908060030154908060040154905083565b60008073ffffffffffffffffffffffffffffffffffffffff168273ffffffffffffffffffffffffffffffffffffffff16141515156119c657600080fd5b600260008373ffffffffffffffffffffffffffffffffffffffff1673ffffffffffffffffffffffffffffffffffffffff168152602001908152602001600020549050919050565b600080600080600080600d54600e6000600581101515611a2957fe5b0154600e6001600581101515611a3b57fe5b0154600e6002600581101515611a4d57fe5b0154600e6003600581101515611a5f57fe5b0154600e6004600581101515611a7157fe5b0154955095509550955095509550909192939495565b600060156000836000191660001916815260200190815260200160002060009054906101000a900473ffffffffffffffffffffffffffffffffffffffff169050919050565b600b60009054906101000a900473ffffffffffffffffffffffffffffffffffffffff1673ffffffffffffffffffffffffffffffffffffffff163373ffffffffffffffffffffffffffffffffffffffff16141515611b2857600080fd5b60008173ffffffffffffffffffffffffffffffffffffffff1614151515611b4e57600080fd5b80601360006101000a81548173ffffffffffffffffffffffffffffffffffffffff021916908373ffffffffffffffffffffffffffffffffffffffff16021790555050565b601360009054906101000a900473ffffffffffffffffffffffffffffffffffffffff1673ffffffffffffffffffffffffffffffffffffffff163373ffffffffffffffffffffffffffffffffffffffff161480611c3b5750600b60009054906101000a900473ffffffffffffffffffffffffffffffffffffffff1673ffffffffffffffffffffffffffffffffffffffff163373ffffffffffffffffffffffffffffffffffffffff16145b1515611c4657600080fd5b85600d8190555084600e6000600581101515611c5e57fe5b018190555083600e6001600581101515611c7457fe5b018190555082600e6002600581101515611c8a57fe5b018190555081600e6003600581101515611ca057fe5b018190555080600e6004600581101515611cb657fe5b0181905550505050505050565b600b60009054906101000a900473ffffffffffffffffffffffffffffffffffffffff1681565b60166020528060005260406000206000915090505481565b611d09613294565b60058054600181600116156101000203166002900480601f016020809104026020016040519081016040528092919081815260200182805460018160011615610100020316600290048015611d9f5780601f10611d7457610100808354040283529160200191611d9f565b820191906000526020600020905b815481529060010190602001808311611d8257829003601f168201915b5050505050905090565b3373ffffffffffffffffffffffffffffffffffffffff168273ffffffffffffffffffffffffffffffffffffffff1614151515611de457600080fd5b80600360003373ffffffffffffffffffffffffffffffffffffffff1673ffffffffffffffffffffffffffffffffffffffff16815260200190815260200160002060008473ffffffffffffffffffffffffffffffffffffffff1673ffffffffffffffffffffffffffffffffffffffff16815260200190815260200160002060006101000a81548160ff0219169083151502179055508173ffffffffffffffffffffffffffffffffffffffff163373ffffffffffffffffffffffffffffffffffffffff167f17307eab39ab6107e8899845ad3d59bd9653f200f220920489ca2b5937696c3183604051611ed59190613c61565b60405180910390a35050565b601360009054906101000a900473ffffffffffffffffffffffffffffffffffffffff1673ffffffffffffffffffffffffffffffffffffffff163373ffffffffffffffffffffffffffffffffffffffff161480611f8a5750600b60009054906101000a900473ffffffffffffffffffffffffffffffffffffffff1673ffffffffffffffffffffffffffffffffffffffff163373ffffffffffffffffffffffffffffffffffffffff16145b1515611f9557600080fd5b8060146000848152602001908152602001600020600401819055505050565b6000601360009054906101000a900473ffffffffffffffffffffffffffffffffffffffff1673ffffffffffffffffffffffffffffffffffffffff163373ffffffffffffffffffffffffffffffffffffffff16148061205f5750600b60009054906101000a900473ffffffffffffffffffffffffffffffffffffffff1673ffffffffffffffffffffffffffffffffffffffff163373ffffffffffffffffffffffffffffffffffffffff16145b151561206a57600080fd5b8173ffffffffffffffffffffffffffffffffffffffff1663095ea7b384866000604051602001526040518363ffffffff167c01000000000000000000000000000000000000000000000000000000000281526004016120ca929190613bdf565b602060405180830381600087803b15156120e357600080fd5b6102c65a03f115156120f457600080fd5b5050506040518051905090509392505050565b8161211233826126e1565b151561211d57600080fd5b612128858585611246565b61213485858585612d5d565b151561213f57600080fd5b5050505050565b60006014600083815260200190815260200160002060000160009054906101000a90047f0100000000000000000000000000000000000000000000000000000000000000029050919050565b61219a613294565b60006121a461335b565b6121ac61174a565b91506000368080601f0160208091040260200160405190810160405280939291908181526020018383808284378201915050505050509050600080825160208401855af43d604051816000823e8260008114612206578282f35b8282fd5b601360009054906101000a900473ffffffffffffffffffffffffffffffffffffffff1673ffffffffffffffffffffffffffffffffffffffff163373ffffffffffffffffffffffffffffffffffffffff1614806122b35750600b60009054906101000a900473ffffffffffffffffffffffffffffffffffffffff1673ffffffffffffffffffffffffffffffffffffffff163373ffffffffffffffffffffffffffffffffffffffff16145b15156122be57600080fd5b8060146000848152602001908152602001600020600301819055505050565b6000601660008360001916600019168152602001908152602001600020549050919050565b6000600360008473ffffffffffffffffffffffffffffffffffffffff1673ffffffffffffffffffffffffffffffffffffffff16815260200190815260200160002060008373ffffffffffffffffffffffffffffffffffffffff1673ffffffffffffffffffffffffffffffffffffffff16815260200190815260200160002060009054906101000a900460ff16905092915050565b600b60009054906101000a900473ffffffffffffffffffffffffffffffffffffffff1673ffffffffffffffffffffffffffffffffffffffff163373ffffffffffffffffffffffffffffffffffffffff161415156123f257600080fd5b600073ffffffffffffffffffffffffffffffffffffffff168173ffffffffffffffffffffffffffffffffffffffff161415151561242e57600080fd5b8073ffffffffffffffffffffffffffffffffffffffff16600b60009054906101000a900473ffffffffffffffffffffffffffffffffffffffff1673ffffffffffffffffffffffffffffffffffffffff167f8be0079c531659141344cd1fd0a4f28419497f9722a3daafe3b4186f6b6457e060405160405180910390a380600b60006101000a81548173ffffffffffffffffffffffffffffffffffffffff021916908373ffffffffffffffffffffffffffffffffffffffff16021790555050565b6000601360009054906101000a900473ffffffffffffffffffffffffffffffffffffffff1673ffffffffffffffffffffffffffffffffffffffff163373ffffffffffffffffffffffffffffffffffffffff1614806125995750600b60009054906101000a900473ffffffffffffffffffffffffffffffffffffffff1673ffffffffffffffffffffffffffffffffffffffff163373ffffffffffffffffffffffffffffffffffffffff16145b15156125a457600080fd5b8173ffffffffffffffffffffffffffffffffffffffff166370a08231306000604051602001526040518263ffffffff167c01000000000000000000000000000000000000000000000000000000000281526004016126029190613ce9565b602060405180830381600087803b151561261b57600080fd5b6102c65a03f1151561262c57600080fd5b50505060405180519050841115151561264457600080fd5b8173ffffffffffffffffffffffffffffffffffffffff1663a9059cbb84866000604051602001526040518363ffffffff167c01000000000000000000000000000000000000000000000000000000000281526004016126a4929190613bdf565b602060405180830381600087803b15156126bd57600080fd5b6102c65a03f115156126ce57600080fd5b5050506040518051905090509392505050565b6000806126ed836117ed565b90508073ffffffffffffffffffffffffffffffffffffffff168473ffffffffffffffffffffffffffffffffffffffff16148061275c57508373ffffffffffffffffffffffffffffffffffffffff1661274484610abe565b73ffffffffffffffffffffffffffffffffffffffff16145b8061276d575061276c8185612302565b5b91505092915050565b8173ffffffffffffffffffffffffffffffffffffffff16612796826117ed565b73ffffffffffffffffffffffffffffffffffffffff161415156127b857600080fd5b600073ffffffffffffffffffffffffffffffffffffffff166001600083815260200190815260200160002060009054906101000a900473ffffffffffffffffffffffffffffffffffffffff1673ffffffffffffffffffffffffffffffffffffffff161415156128db5760006001600083815260200190815260200160002060006101000a81548173ffffffffffffffffffffffffffffffffffffffff021916908373ffffffffffffffffffffffffffffffffffffffff160217905550600073ffffffffffffffffffffffffffffffffffffffff168273ffffffffffffffffffffffffffffffffffffffff167f8c5be1e5ebec7d5bd14f71427d1e84f3dd0314c0f7b2291e5b200ac8c7c3b925836040516128d29190613d26565b60405180910390a35b5050565b60008060006128ee8585612e96565b6007600085815260200190815260200160002054925061295a6001600660008873ffffffffffffffffffffffffffffffffffffffff1673ffffffffffffffffffffffffffffffffffffffff16815260200190815260200160002080549050612fc490919063ffffffff16565b9150600660008673ffffffffffffffffffffffffffffffffffffffff1673ffffffffffffffffffffffffffffffffffffffff168152602001908152602001600020828154811015156129a857fe5b906000526020600020900154905080600660008773ffffffffffffffffffffffffffffffffffffffff1673ffffffffffffffffffffffffffffffffffffffff16815260200190815260200160002084815481101515612a0357fe5b9060005260206000209001819055506000600660008773ffffffffffffffffffffffffffffffffffffffff1673ffffffffffffffffffffffffffffffffffffffff16815260200190815260200160002083815481101515612a6057fe5b906000526020600020900181905550600660008673ffffffffffffffffffffffffffffffffffffffff1673ffffffffffffffffffffffffffffffffffffffff168152602001908152602001600020805480919060019003612ac1919061336f565b50600060076000868152602001908152602001600020819055508260076000838152602001908152602001600020819055505050505050565b6000612b068383612fdd565b600660008473ffffffffffffffffffffffffffffffffffffffff1673ffffffffffffffffffffffffffffffffffffffff168152602001908152602001600020805490509050600660008473ffffffffffffffffffffffffffffffffffffffff1673ffffffffffffffffffffffffffffffffffffffff1681526020019081526020016000208054806001018281612b9c919061339b565b916000526020600020900160008490919091505550806007600084815260200190815260200160002081905550505050565b612bd88282613135565b600880549050600960008381526020019081526020016000208190555060088054806001018281612c09919061339b565b9160005260206000209001600083909190915055505050565b6000806000612c3185856131e5565b6000600a6000868152602001908152602001600020805460018160011615610100020316600290049050141515612c8257600a60008581526020019081526020016000206000612c8191906133c7565b5b60096000858152602001908152602001600020549250612cb16001600880549050612fc490919063ffffffff16565b9150600882815481101515612cc257fe5b906000526020600020900154905080600884815481101515612ce057fe5b9060005260206000209001819055506000600883815481101515612d0057fe5b9060005260206000209001819055506008805480919060019003612d24919061336f565b50600060096000868152602001908152602001600020819055508260096000838152602001908152602001600020819055505050505050565b600080612d7f8573ffffffffffffffffffffffffffffffffffffffff16613263565b1515612d8e5760019150612e8d565b8473ffffffffffffffffffffffffffffffffffffffff1663f0b9e5ba8786866000604051602001526040518463ffffffff167c0100000000000000000000000000000000000000000000000000000000028152600401612df093929190613c08565b602060405180830381600087803b1515612e0957600080fd5b6102c65a03f11515612e1a57600080fd5b50505060405180519050905063f0b9e5ba7c0100000000000000000000000000000000000000000000000000000000027bffffffffffffffffffffffffffffffffffffffffffffffffffffffff1916817bffffffffffffffffffffffffffffffffffffffffffffffffffffffff19161491505b50949350505050565b8173ffffffffffffffffffffffffffffffffffffffff16612eb6826117ed565b73ffffffffffffffffffffffffffffffffffffffff16141515612ed857600080fd5b612f2b6001600260008573ffffffffffffffffffffffffffffffffffffffff1673ffffffffffffffffffffffffffffffffffffffff16815260200190815260200160002054612fc490919063ffffffff16565b600260008473ffffffffffffffffffffffffffffffffffffffff1673ffffffffffffffffffffffffffffffffffffffff16815260200190815260200160002081905550600080600083815260200190815260200160002060006101000a81548173ffffffffffffffffffffffffffffffffffffffff021916908373ffffffffffffffffffffffffffffffffffffffff1602179055505050565b6000828211151515612fd257fe5b818303905092915050565b600073ffffffffffffffffffffffffffffffffffffffff1660008083815260200190815260200160002060009054906101000a900473ffffffffffffffffffffffffffffffffffffffff1673ffffffffffffffffffffffffffffffffffffffff1614151561304a57600080fd5b8160008083815260200190815260200160002060006101000a81548173ffffffffffffffffffffffffffffffffffffffff021916908373ffffffffffffffffffffffffffffffffffffffff1602179055506130ee6001600260008573ffffffffffffffffffffffffffffffffffffffff1673ffffffffffffffffffffffffffffffffffffffff1681526020019081526020016000205461327690919063ffffffff16565b600260008473ffffffffffffffffffffffffffffffffffffffff1673ffffffffffffffffffffffffffffffffffffffff168152602001908152602001600020819055505050565b600073ffffffffffffffffffffffffffffffffffffffff168273ffffffffffffffffffffffffffffffffffffffff161415151561317157600080fd5b61317b8282612afa565b8173ffffffffffffffffffffffffffffffffffffffff16600073ffffffffffffffffffffffffffffffffffffffff167fddf252ad1be2c89b69c2b068fc378daa952ba7f163c4a11628f55a4df523b3ef836040516131d99190613d26565b60405180910390a35050565b6131ef8282612776565b6131f982826128df565b600073ffffffffffffffffffffffffffffffffffffffff168273ffffffffffffffffffffffffffffffffffffffff167fddf252ad1be2c89b69c2b068fc378daa952ba7f163c4a11628f55a4df523b3ef836040516132579190613d26565b60405180910390a35050565b600080823b905060008111915050919050565b600080828401905083811015151561328a57fe5b8091505092915050565b602060405190810160405280600081525090565b826002810192821561330e579160200282015b8281111561330d5782518260006101000a8154817bffffffffffffffffffffffffffffffffffffffffffffffffffffffff021916908364010000000090040217905550916020019190600101906132bb565b5b50905061331b919061340f565b5090565b506000815560010160009055565b60408051908101604052806002905b600063ffffffff191681526020019060019003908161333c5790505090565b602060405190810160405280600081525090565b81548183558181151161339657818360005260206000209182019101613395919061345a565b5b505050565b8154818355818115116133c2578183600052602060002091820191016133c1919061345a565b5b505050565b50805460018160011615610100020316600290046000825580601f106133ed575061340c565b601f01602090049060005260206000209081019061340b919061345a565b5b50565b61345791905b8082111561345357600081816101000a8154907bffffffffffffffffffffffffffffffffffffffffffffffffffffffff021916905550600101613415565b5090565b90565b61347c91905b80821115613478576000816000905550600101613460565b5090565b90565b600061348b8235613f08565b905092915050565b600082601f830112600081146134a8576134ad565b600080fd5b5060026134c16134bc82613dd8565b613da2565b915081838560208402820111600181146134da576134df565b600080fd5b5060005b8381101561351057816134f68882613542565b8452602084019350602083019250506001810190506134e3565b5050505092915050565b60006135268235613f28565b905092915050565b600061353a8235613f34565b905092915050565b600061354e8235613f60565b905092915050565b60006135628235613f8c565b905092915050565b600082601f8301126000811461357f57613584565b600080fd5b50813561359861359382613e03565b613da2565b915080825260208301602083018583830111600181146135b7576135bc565b600080fd5b506135c8838284613fb2565b50505092915050565b60006135dd8235613f96565b905092915050565b6000602082840312600181146135fa576135ff565b600080fd5b50600061360e8482850161347f565b91505092915050565b6000806040838503126001811461362d57613632565b600080fd5b5060006136418582860161347f565b92505060206136528582860161347f565b9150509250929050565b60008060006060848603126001811461367457613679565b600080fd5b5060006136888682870161347f565b93505060206136998682870161347f565b92505060406136aa868287016135d1565b9150509250925092565b600080600080608085870312600181146136cd576136d2565b600080fd5b5060006136e18782880161347f565b94505060206136f28782880161347f565b9350506040613703878288016135d1565b925050606085013567ffffffffffffffff81116001811461372357613728565b600080fd5b506137358782880161356a565b91505092959194509250565b600080604083850312600181146137575761375c565b600080fd5b50600061376b8582860161347f565b925050602061377c8582860161351a565b9150509250929050565b6000806040838503126001811461379c576137a1565b600080fd5b5060006137b08582860161347f565b92505060206137c1858286016135d1565b9150509250929050565b6000604082840312600181146137e0576137e5565b600080fd5b5060006137f484828501613493565b91505092915050565b60006020828403126001811461381257613817565b600080fd5b50600061382684828501613556565b91505092915050565b600080604083850312600181146138455761384a565b600080fd5b50600061385985828601613556565b925050602061386a8582860161347f565b9150509250929050565b6000806040838503126001811461388a5761388f565b600080fd5b50600061389e85828601613556565b92505060206138af858286016135d1565b9150509250929050565b6000602082840312600181146138ce576138d3565b600080fd5b5060006138e2848285016135d1565b91505092915050565b60008060006060848603126001811461390357613908565b600080fd5b506000613917868287016135d1565b93505060206139288682870161347f565b92505060406139398682870161347f565b9150509250925092565b600080606083850312600181146139595761395e565b600080fd5b50600061396d858286016135d1565b925050602061397e85828601613493565b9150509250929050565b6000806040838503126001811461399e576139a3565b600080fd5b5060006139b2858286016135d1565b92505060206139c38582860161352e565b9150509250929050565b600080604083850312600181146139e3576139e8565b600080fd5b5060006139f7858286016135d1565b9250506020613a08858286016135d1565b9150509250929050565b60008060008060008060c08789031260018114613a2e57613a33565b600080fd5b506000613a4289828a016135d1565b9650506020613a5389828a016135d1565b9550506040613a6489828a016135d1565b9450506060613a7589828a016135d1565b9350506080613a8689828a016135d1565b92505060a0613a9789828a016135d1565b9150509295509295509295565b613aad81613e70565b82525050565b613abc81613e42565b613ac582613e38565b60005b82811015613af757613adb858351613b1c565b613ae482613e63565b9150602085019450600181019050613ac8565b5050505050565b613b0781613e90565b82525050565b613b1681613e9c565b82525050565b613b2581613ec8565b82525050565b613b3481613ef4565b82525050565b6000613b4582613e4d565b808452613b59816020860160208601613fc1565b613b6281613ff4565b602085010191505092915050565b613b7981613fa0565b82525050565b6000613b8a82613e58565b808452613b9e816020860160208601613fc1565b613ba781613ff4565b602085010191505092915050565b613bbe81613efe565b82525050565b6000602082019050613bd96000830184613aa4565b92915050565b6000604082019050613bf46000830185613aa4565b613c016020830184613bb5565b9392505050565b6000606082019050613c1d6000830186613aa4565b613c2a6020830185613bb5565b8181036040830152613c3c8184613b3a565b9050949350505050565b6000604082019050613c5b6000830184613ab3565b92915050565b6000602082019050613c766000830184613afe565b92915050565b6000602082019050613c916000830184613b0d565b92915050565b6000606082019050613cac6000830186613b0d565b613cb96020830185613bb5565b613cc66040830184613bb5565b949350505050565b6000602082019050613ce36000830184613b2b565b92915050565b6000602082019050613cfe6000830184613b70565b92915050565b60006020820190508181036000830152613d1e8184613b7f565b905092915050565b6000602082019050613d3b6000830184613bb5565b92915050565b600060c082019050613d566000830189613bb5565b613d636020830188613bb5565b613d706040830187613bb5565b613d7d6060830186613bb5565b613d8a6080830185613bb5565b613d9760a0830184613bb5565b979650505050505050565b6000604051905081810181811067ffffffffffffffff82111760018114613dc857613dcd565b600080fd5b508060405250919050565b600067ffffffffffffffff821160018114613df257613df7565b600080fd5b50602082029050919050565b600067ffffffffffffffff821160018114613e1d57613e22565b600080fd5b50601f19601f8301169050602081019050919050565b6000819050919050565b600060029050919050565b600081519050919050565b600081519050919050565b6000602082019050919050565b600073ffffffffffffffffffffffffffffffffffffffff82169050919050565b60008115159050919050565b60007fff0000000000000000000000000000000000000000000000000000000000000082169050919050565b60007fffffffffffffffffffffffffffffffffffffffffffffffffffffffff0000000082169050919050565b6000819050919050565b6000819050919050565b600073ffffffffffffffffffffffffffffffffffffffff82169050919050565b60008115159050919050565b60007fff0000000000000000000000000000000000000000000000000000000000000082169050919050565b60007fffffffffffffffffffffffffffffffffffffffffffffffffffffffff0000000082169050919050565b6000819050919050565b6000819050919050565b6000613fab82613e70565b9050919050565b82818337600083830152505050565b60005b83811015613fdf578082015181840152602081019050613fc4565b83811115613fee576000848401525b50505050565b6000601f19601f83011690509190505600a265627a7a72305820157899db100fd5aac7a21d4f471387cb5cf15dd106504c5f0ac0e0f86e32214c6c6578706572696d656e74616cf50037",
  "source": "pragma solidity ^0.4.19;\npragma experimental ABIEncoderV2;\n\n/**\n * Digital Asset Registry for the Non Fungible Token Clover\n * with upgradeable contract reference for returning metadata.\n */\n\nimport \"zeppelin-solidity/contracts/token/ERC20/ERC20.sol\";\n\nimport \"zeppelin-solidity/contracts/token/ERC721/ERC721Token.sol\";\nimport \"zeppelin-solidity/contracts/ownership/Ownable.sol\";\nimport \"./IClovers.sol\";\nimport \"./CloversMetadata.sol\";\n\n\ncontract Clovers is IClovers, ERC721Token, Ownable {\n\n    address private cloversMetadata;\n    uint256 totalSymmetries;\n    uint256[5] symmetries; // RotSym, Y0Sym, X0Sym, XYSym, XnYSym\n    address cloversController;\n\n    mapping (uint256 => Clover) public clovers;\n    struct Clover {\n        bytes1 symmetries;\n        bytes28[2] cloverMoves;\n        uint256 blockMinted;\n        uint256 rewards;\n    }\n    mapping (bytes32 => address) public commits;\n    mapping (bytes32 => uint256) public stakes;\n\n    modifier onlyOwnerOrController() {\n        require(\n            msg.sender == cloversController ||\n            msg.sender == owner\n        );\n        _;\n    }\n\n    function Clovers (string name, string symbol) public\n        ERC721Token(name, symbol)\n    { }\n\n    function () public payable {}\n\n    function implementation() public view returns (address) {\n        return cloversMetadata;\n    }\n\n    function tokenURI(uint _tokenId) public view returns (string _infoUrl) {\n        // require(ownerOf(_tokenId) != 0);\n        address _impl = implementation();\n        bytes memory data = msg.data;\n        assembly {\n            let result := delegatecall(gas, _impl, add(data, 0x20), mload(data), 0, 0)\n            let size := returndatasize\n            let ptr := mload(0x40)\n            returndatacopy(ptr, 0, size)\n            switch result\n            case 0 { revert(ptr, size) }\n            default { return(ptr, size) }\n        }\n        // return CloversMetadata(cloversMetadata).tokenMetadata(_tokenId);\n    }\n    function getHash(bytes28[2] moves) public view returns (bytes32) {\n        return keccak256(moves);\n    }\n    function getStake(bytes32 movesHash) public view returns (uint256) {\n        return stakes[movesHash];\n    }\n    function getCommit(bytes32 movesHash) public view returns (address) {\n        return commits[movesHash];\n    }\n    function getBlockMinted(uint256 _tokenId) public view returns (uint256) {\n        return clovers[_tokenId].blockMinted;\n    }\n    function getCloverMoves(uint256 _tokenId) public view returns (bytes28[2]) {\n        return clovers[_tokenId].cloverMoves;\n    }\n    function getReward(uint256 _tokenId) public view returns (uint256) {\n        return clovers[_tokenId].rewards;\n    }\n    function getSymmetries(uint256 _tokenId) public view returns (bytes1) {\n        return clovers[_tokenId].symmetries;\n    }\n    function getAllSymmetries() public view returns (uint256, uint256, uint256, uint256, uint256, uint256) {\n        return (\n            totalSymmetries,\n            symmetries[0], //RotSym,\n            symmetries[1], //Y0Sym,\n            symmetries[2], //X0Sym,\n            symmetries[3], //XYSym,\n            symmetries[4] //XnYSym\n        );\n    }\n\n/* ---------------------------------------------------------------------------------------------------------------------- */\n\n    function moveEth(address _to, uint256 amount) public onlyOwnerOrController returns (bool) {\n        require(amount <= this.balance);\n        return _to.send(amount);\n    }\n    function moveToken(uint256 amount, address _to, address token) public onlyOwnerOrController returns (bool) {\n        require(amount <= ERC20(token).balanceOf(this));\n        return ERC20(token).transfer(_to, amount);\n    }\n    function approveToken(uint256 amount, address _to, address token) public onlyOwnerOrController returns (bool) {\n        return ERC20(token).approve(_to, amount);\n    }\n\n    function setStake(bytes32 movesHash, uint256 stake) public onlyOwnerOrController {\n        stakes[movesHash] = stake;\n    }\n    function setCommit(bytes32 movesHash, address commiter) public onlyOwnerOrController {\n        commits[movesHash] = commiter;\n    }\n    function setBlockMinted(uint256 _tokenId, uint256 value) public onlyOwnerOrController {\n        clovers[_tokenId].blockMinted = value;\n    }\n    function setCloverMoves(uint256 _tokenId, bytes28[2] moves) public onlyOwnerOrController {\n        clovers[_tokenId].cloverMoves = moves;\n    }\n    function setReward(uint256 _tokenId, uint256 _amount) public onlyOwnerOrController {\n        clovers[_tokenId].rewards = _amount;\n    }\n    function setSymmetries(uint256 _tokenId, bytes1 _symmetries) public onlyOwnerOrController {\n        clovers[_tokenId].symmetries = _symmetries;\n    }\n    function setAllSymmetries(uint256 _totalSymmetries, uint256 RotSym, uint256 Y0Sym, uint256 X0Sym, uint256 XYSym, uint256 XnYSym) public onlyOwnerOrController {\n        totalSymmetries = _totalSymmetries;\n        symmetries[0] = RotSym;\n        symmetries[1] = Y0Sym;\n        symmetries[2] = X0Sym;\n        symmetries[3] = XYSym;\n        symmetries[4] = XnYSym;\n    }\n    function deleteClover(uint256 _tokenId) public onlyOwnerOrController {\n        delete(clovers[_tokenId]);\n    }\n\n    function updateCloversControllerAddress(address _cloversController) public onlyOwner {\n        require(_cloversController != 0);\n        cloversController = _cloversController;\n    }\n    function updateCloversMetadataAddress(address _cloversMetadata) public onlyOwner {\n        require(_cloversMetadata != 0);\n        cloversMetadata = _cloversMetadata;\n    }\n\n    function mint (address _to, uint256 _tokenId) public onlyOwnerOrController {\n        super._mint(_to, _tokenId);\n    }\n    function unmint (uint256 _tokenId) public onlyOwnerOrController {\n        super._burn(ownerOf(_tokenId), _tokenId);\n        // address _owner = ownerOf(_tokenId); // needs to be changed from private to internal\n        // if (getApproved(_tokenId) != 0) {\n        //     tokenApprovals[_tokenId] = 0;\n        //     Approval(_owner, 0x0, _tokenId);\n        // }\n        // removeTokenFrom(_owner, _tokenId); // needs to be changed from private to internal\n        // Transfer(_owner, 0x0, _tokenId);\n    }\n\n}\n",
  "sourcePath": "/Users/billy/sol/clovers-contracts/contracts/Clovers.sol",
  "compiler": {
    "name": "solc",
    "version": "0.4.19+commit.c4cbbb05.Emscripten.clang"
  },
  "schemaVersion": "1.0.1",
  "updatedAt": "2018-04-06T02:10:48.078Z"
}