{
  "contractName": "CloversController",
  "abi": [
    {
      "constant": true,
      "inputs": [],
      "name": "clovers",
      "outputs": [
        {
          "name": "",
          "type": "address"
        }
      ],
      "payable": false,
      "stateMutability": "view",
      "type": "function"
    },
    {
      "constant": false,
      "inputs": [
        {
          "name": "token",
          "type": "address"
        }
      ],
      "name": "reclaimToken",
      "outputs": [],
      "payable": false,
      "stateMutability": "nonpayable",
      "type": "function"
    },
    {
      "constant": true,
      "inputs": [],
      "name": "payMultiplier",
      "outputs": [
        {
          "name": "",
          "type": "uint256"
        }
      ],
      "payable": false,
      "stateMutability": "view",
      "type": "function"
    },
    {
      "constant": true,
      "inputs": [
        {
          "name": "",
          "type": "bytes32"
        }
      ],
      "name": "commits",
      "outputs": [
        {
          "name": "collected",
          "type": "bool"
        },
        {
          "name": "stake",
          "type": "uint256"
        },
        {
          "name": "committer",
          "type": "address"
        }
      ],
      "payable": false,
      "stateMutability": "view",
      "type": "function"
    },
    {
      "constant": true,
      "inputs": [],
      "name": "stakeAmount",
      "outputs": [
        {
          "name": "",
          "type": "uint256"
        }
      ],
      "payable": false,
      "stateMutability": "view",
      "type": "function"
    },
    {
      "constant": false,
      "inputs": [],
      "name": "renounceOwnership",
      "outputs": [],
      "payable": false,
      "stateMutability": "nonpayable",
      "type": "function"
    },
    {
      "constant": true,
      "inputs": [],
      "name": "curationMarket",
      "outputs": [
        {
          "name": "",
          "type": "address"
        }
      ],
      "payable": false,
      "stateMutability": "view",
      "type": "function"
    },
    {
      "constant": true,
      "inputs": [],
      "name": "oracle",
      "outputs": [
        {
          "name": "",
          "type": "address"
        }
      ],
      "payable": false,
      "stateMutability": "view",
      "type": "function"
    },
    {
      "constant": true,
      "inputs": [],
      "name": "owner",
      "outputs": [
        {
          "name": "",
          "type": "address"
        }
      ],
      "payable": false,
      "stateMutability": "view",
      "type": "function"
    },
    {
      "constant": true,
      "inputs": [],
      "name": "simpleCloversMarket",
      "outputs": [
        {
          "name": "",
          "type": "address"
        }
      ],
      "payable": false,
      "stateMutability": "view",
      "type": "function"
    },
    {
      "constant": false,
      "inputs": [],
      "name": "reclaimEther",
      "outputs": [],
      "payable": false,
      "stateMutability": "nonpayable",
      "type": "function"
    },
    {
      "constant": true,
      "inputs": [],
      "name": "clubTokenController",
      "outputs": [
        {
          "name": "",
          "type": "address"
        }
      ],
      "payable": false,
      "stateMutability": "view",
      "type": "function"
    },
    {
      "constant": false,
      "inputs": [
        {
          "name": "from_",
          "type": "address"
        },
        {
          "name": "value_",
          "type": "uint256"
        },
        {
          "name": "data_",
          "type": "bytes"
        }
      ],
      "name": "tokenFallback",
      "outputs": [],
      "payable": false,
      "stateMutability": "nonpayable",
      "type": "function"
    },
    {
      "constant": true,
      "inputs": [],
      "name": "stakePeriod",
      "outputs": [
        {
          "name": "",
          "type": "uint256"
        }
      ],
      "payable": false,
      "stateMutability": "view",
      "type": "function"
    },
    {
      "constant": true,
      "inputs": [],
      "name": "basePrice",
      "outputs": [
        {
          "name": "",
          "type": "uint256"
        }
      ],
      "payable": false,
      "stateMutability": "view",
      "type": "function"
    },
    {
      "constant": true,
      "inputs": [],
      "name": "priceMultiplier",
      "outputs": [
        {
          "name": "",
          "type": "uint256"
        }
      ],
      "payable": false,
      "stateMutability": "view",
      "type": "function"
    },
    {
      "constant": true,
      "inputs": [],
      "name": "clubToken",
      "outputs": [
        {
          "name": "",
          "type": "address"
        }
      ],
      "payable": false,
      "stateMutability": "view",
      "type": "function"
    },
    {
      "constant": false,
      "inputs": [
        {
          "name": "_newOwner",
          "type": "address"
        }
      ],
      "name": "transferOwnership",
      "outputs": [],
      "payable": false,
      "stateMutability": "nonpayable",
      "type": "function"
    },
    {
      "inputs": [
        {
          "name": "_clovers",
          "type": "address"
        },
        {
          "name": "_clubToken",
          "type": "address"
        },
        {
          "name": "_clubTokenController",
          "type": "address"
        }
      ],
      "payable": false,
      "stateMutability": "nonpayable",
      "type": "constructor"
    },
    {
      "payable": false,
      "stateMutability": "nonpayable",
      "type": "fallback"
    },
    {
      "anonymous": false,
      "inputs": [
        {
          "indexed": false,
          "name": "movesHash",
          "type": "bytes32"
        },
        {
          "indexed": false,
          "name": "owner",
          "type": "address"
        }
      ],
      "name": "cloverCommitted",
      "type": "event"
    },
    {
      "anonymous": false,
      "inputs": [
        {
          "indexed": false,
          "name": "moves",
          "type": "bytes28[2]"
        },
        {
          "indexed": false,
          "name": "tokenId",
          "type": "uint256"
        },
        {
          "indexed": false,
          "name": "owner",
          "type": "address"
        },
        {
          "indexed": false,
          "name": "stake",
          "type": "uint256"
        },
        {
          "indexed": false,
          "name": "reward",
          "type": "uint256"
        },
        {
          "indexed": false,
          "name": "symmetries",
          "type": "uint256"
        },
        {
          "indexed": false,
          "name": "keep",
          "type": "bool"
        }
      ],
      "name": "cloverClaimed",
      "type": "event"
    },
    {
      "anonymous": false,
      "inputs": [
        {
          "indexed": false,
          "name": "tokenId",
          "type": "uint256"
        },
        {
          "indexed": false,
          "name": "owner",
          "type": "address"
        },
        {
          "indexed": false,
          "name": "stake",
          "type": "uint256"
        }
      ],
      "name": "stakeRetrieved",
      "type": "event"
    },
    {
      "anonymous": false,
      "inputs": [
        {
          "indexed": false,
          "name": "moves",
          "type": "bytes28[2]"
        },
        {
          "indexed": false,
          "name": "tokenId",
          "type": "uint256"
        },
        {
          "indexed": false,
          "name": "owner",
          "type": "address"
        },
        {
          "indexed": false,
          "name": "challenger",
          "type": "address"
        },
        {
          "indexed": false,
          "name": "stake",
          "type": "uint256"
        }
      ],
      "name": "cloverChallenged",
      "type": "event"
    },
    {
      "anonymous": false,
      "inputs": [
        {
          "indexed": true,
          "name": "previousOwner",
          "type": "address"
        }
      ],
      "name": "OwnershipRenounced",
      "type": "event"
    },
    {
      "anonymous": false,
      "inputs": [
        {
          "indexed": true,
          "name": "previousOwner",
          "type": "address"
        },
        {
          "indexed": true,
          "name": "newOwner",
          "type": "address"
        }
      ],
      "name": "OwnershipTransferred",
      "type": "event"
    },
    {
      "constant": true,
      "inputs": [
        {
          "name": "movesHash",
          "type": "bytes32"
        }
      ],
      "name": "getStake",
      "outputs": [
        {
          "name": "",
          "type": "uint256"
        }
      ],
      "payable": false,
      "stateMutability": "view",
      "type": "function"
    },
    {
      "constant": true,
      "inputs": [
        {
          "name": "movesHash",
          "type": "bytes32"
        }
      ],
      "name": "getCommit",
      "outputs": [
        {
          "name": "",
          "type": "address"
        }
      ],
      "payable": false,
      "stateMutability": "view",
      "type": "function"
    },
    {
      "constant": true,
      "inputs": [
        {
          "name": "_tokenId",
          "type": "uint256"
        }
      ],
      "name": "getMovesHash",
      "outputs": [
        {
          "name": "",
          "type": "bytes32"
        }
      ],
      "payable": false,
      "stateMutability": "view",
      "type": "function"
    },
    {
      "constant": true,
      "inputs": [
        {
          "name": "moves",
          "type": "bytes28[2]"
        }
      ],
      "name": "isValid",
      "outputs": [
        {
          "name": "",
          "type": "bool"
        }
      ],
      "payable": false,
      "stateMutability": "view",
      "type": "function"
    },
    {
      "constant": true,
      "inputs": [
        {
          "components": [
            {
              "name": "error",
              "type": "bool"
            },
            {
              "name": "complete",
              "type": "bool"
            },
            {
              "name": "symmetrical",
              "type": "bool"
            },
            {
              "name": "RotSym",
              "type": "bool"
            },
            {
              "name": "Y0Sym",
              "type": "bool"
            },
            {
              "name": "X0Sym",
              "type": "bool"
            },
            {
              "name": "XYSym",
              "type": "bool"
            },
            {
              "name": "XnYSym",
              "type": "bool"
            },
            {
              "name": "board",
              "type": "bytes16"
            },
            {
              "name": "first32Moves",
              "type": "bytes28"
            },
            {
              "name": "lastMoves",
              "type": "bytes28"
            },
            {
              "name": "currentPlayer",
              "type": "uint8"
            },
            {
              "name": "moveKey",
              "type": "uint8"
            },
            {
              "name": "blackScore",
              "type": "uint8"
            },
            {
              "name": "whiteScore",
              "type": "uint8"
            }
          ],
          "name": "game",
          "type": "tuple"
        }
      ],
      "name": "isValidGame",
      "outputs": [
        {
          "name": "",
          "type": "bool"
        }
      ],
      "payable": false,
      "stateMutability": "pure",
      "type": "function"
    },
    {
      "constant": true,
      "inputs": [
        {
          "name": "_tokenId",
          "type": "uint256"
        }
      ],
      "name": "isVerified",
      "outputs": [
        {
          "name": "",
          "type": "bool"
        }
      ],
      "payable": false,
      "stateMutability": "view",
      "type": "function"
    },
    {
      "constant": true,
      "inputs": [
        {
          "name": "_symmetries",
          "type": "uint256"
        }
      ],
      "name": "calculateReward",
      "outputs": [
        {
          "name": "",
          "type": "uint256"
        }
      ],
      "payable": false,
      "stateMutability": "view",
      "type": "function"
    },
    {
      "constant": false,
      "inputs": [
        {
          "name": "moves",
          "type": "bytes28[2]"
        },
        {
          "name": "_tokenId",
          "type": "uint256"
        },
        {
          "name": "_symmetries",
          "type": "uint256"
        },
        {
          "name": "_keep",
          "type": "bool"
        }
      ],
      "name": "claimClover",
      "outputs": [
        {
          "name": "",
          "type": "bool"
        }
      ],
      "payable": true,
      "stateMutability": "payable",
      "type": "function"
    },
    {
      "constant": false,
      "inputs": [
        {
          "name": "_tokenId",
          "type": "uint256"
        }
      ],
      "name": "retrieveStake",
      "outputs": [
        {
          "name": "",
          "type": "bool"
        }
      ],
      "payable": true,
      "stateMutability": "payable",
      "type": "function"
    },
    {
      "constant": true,
      "inputs": [
        {
          "name": "_board",
          "type": "bytes16"
        }
      ],
      "name": "convertBytes16ToUint",
      "outputs": [
        {
          "name": "number",
          "type": "uint256"
        }
      ],
      "payable": false,
      "stateMutability": "view",
      "type": "function"
    },
    {
      "constant": false,
      "inputs": [
        {
          "name": "_tokenId",
          "type": "uint256"
        }
      ],
      "name": "challengeClover",
      "outputs": [
        {
          "name": "",
          "type": "bool"
        }
      ],
      "payable": false,
      "stateMutability": "nonpayable",
      "type": "function"
    },
    {
      "constant": false,
      "inputs": [
        {
          "name": "_from",
          "type": "address"
        },
        {
          "name": "_to",
          "type": "address"
        },
        {
          "name": "_tokenId",
          "type": "uint256"
        }
      ],
      "name": "transferFrom",
      "outputs": [],
      "payable": false,
      "stateMutability": "nonpayable",
      "type": "function"
    },
    {
      "constant": false,
      "inputs": [
        {
          "name": "_curationMarket",
          "type": "address"
        }
      ],
      "name": "updateCurationMarket",
      "outputs": [],
      "payable": false,
      "stateMutability": "nonpayable",
      "type": "function"
    },
    {
      "constant": false,
      "inputs": [
        {
          "name": "_oracle",
          "type": "address"
        }
      ],
      "name": "updateOracle",
      "outputs": [],
      "payable": false,
      "stateMutability": "nonpayable",
      "type": "function"
    },
    {
      "constant": false,
      "inputs": [
        {
          "name": "_simpleCloversMarket",
          "type": "address"
        }
      ],
      "name": "updateSimpleCloversMarket",
      "outputs": [],
      "payable": false,
      "stateMutability": "nonpayable",
      "type": "function"
    },
    {
      "constant": false,
      "inputs": [
        {
          "name": "_clubTokenController",
          "type": "address"
        }
      ],
      "name": "updateClubTokenController",
      "outputs": [],
      "payable": false,
      "stateMutability": "nonpayable",
      "type": "function"
    },
    {
      "constant": false,
      "inputs": [
        {
          "name": "_stakeAmount",
          "type": "uint256"
        }
      ],
      "name": "updateStakeAmount",
      "outputs": [],
      "payable": false,
      "stateMutability": "nonpayable",
      "type": "function"
    },
    {
      "constant": false,
      "inputs": [
        {
          "name": "_stakePeriod",
          "type": "uint256"
        }
      ],
      "name": "updateStakePeriod",
      "outputs": [],
      "payable": false,
      "stateMutability": "nonpayable",
      "type": "function"
    },
    {
      "constant": false,
      "inputs": [
        {
          "name": "_payMultiplier",
          "type": "uint256"
        }
      ],
      "name": "updatePayMultipier",
      "outputs": [],
      "payable": false,
      "stateMutability": "nonpayable",
      "type": "function"
    },
    {
      "constant": false,
      "inputs": [
        {
          "name": "_priceMultiplier",
          "type": "uint256"
        }
      ],
      "name": "updatePriceMultipier",
      "outputs": [],
      "payable": false,
      "stateMutability": "nonpayable",
      "type": "function"
    },
    {
      "constant": false,
      "inputs": [
        {
          "name": "_basePrice",
          "type": "uint256"
        }
      ],
      "name": "updateBasePrice",
      "outputs": [],
      "payable": false,
      "stateMutability": "nonpayable",
      "type": "function"
    },
    {
      "constant": false,
      "inputs": [
        {
          "name": "movesHash",
          "type": "bytes32"
        },
        {
          "name": "committer",
          "type": "address"
        }
      ],
      "name": "_setCommit",
      "outputs": [],
      "payable": false,
      "stateMutability": "nonpayable",
      "type": "function"
    }
  ],
  "bytecode": "0x60806040523480156200001157600080fd5b5060405160608062005fc5833981018060405262000033919081019062000165565b336000806101000a81548173ffffffffffffffffffffffffffffffffffffffff021916908373ffffffffffffffffffffffffffffffffffffffff1602179055506000341415156200008357600080fd5b82600260006101000a81548173ffffffffffffffffffffffffffffffffffffffff021916908373ffffffffffffffffffffffffffffffffffffffff16021790555081600360006101000a81548173ffffffffffffffffffffffffffffffffffffffff021916908373ffffffffffffffffffffffffffffffffffffffff16021790555080600460006101000a81548173ffffffffffffffffffffffffffffffffffffffff021916908373ffffffffffffffffffffffffffffffffffffffff160217905550505050620001db565b60006200015d8251620001bb565b905092915050565b6000806000606084860312156200017b57600080fd5b60006200018b868287016200014f565b93505060206200019e868287016200014f565b9250506040620001b1868287016200014f565b9150509250925092565b600073ffffffffffffffffffffffffffffffffffffffff82169050919050565b615dda80620001eb6000396000f3006080604052600436106101ed576000357c0100000000000000000000000000000000000000000000000000000000900463ffffffff1680627173c8146101fc5780630d576bfa1461022557806317ffc320146102505780631cb44dfc1461027957806323b872dd146102a2578063271eff94146102cb57806337b6d96b146103085780633afcba961461034557806343be08801461037057806346d2ce20146103a057806347885781146103c95780635759f3f71461040857806360c7dc4714610431578063715018a61461045c57806372420f06146104735780637b7db9fa1461049e5780637dc0d1d0146104db5780638784ea96146105065780638a05aafa146105435780638da5cb5b1461056c5780639564e18014610597578063975e4b2a146105c05780639f727c27146105eb578063a4a83ca614610602578063a7e901b01461063f578063a89b55da14610668578063c0ee0b8a14610693578063c1699a99146106bc578063c1fe551a146106e7578063c7876ea414610717578063c90054ee14610742578063d010ed701461076b578063d09687f714610794578063d2d7231f146107d1578063d50cb88b1461080e578063d76bbd5214610839578063e765c12214610864578063f2fde38b146108a1578063f8a68a56146108ca578063fd5baa8814610907575b3480156101f957600080fd5b50005b34801561020857600080fd5b50610223600480360361021e91908101906154ba565b610930565b005b34801561023157600080fd5b5061023a6109cf565b60405161024791906158dd565b60405180910390f35b34801561025c57600080fd5b506102776004803603610272919081019061570a565b6109f5565b005b34801561028557600080fd5b506102a0600480360361029b91908101906154ba565b610b4b565b005b3480156102ae57600080fd5b506102c960048036036102c491908101906154e3565b610bea565b005b3480156102d757600080fd5b506102f260048036036102ed919081019061559e565b610d50565b6040516102ff9190615a1b565b60405180910390f35b34801561031457600080fd5b5061032f600480360361032a919081019061575d565b610d76565b60405161033c9190615a1b565b60405180910390f35b34801561035157600080fd5b5061035a610e76565b6040516103679190615acc565b60405180910390f35b61038a600480360361038591908101906155f0565b610e7c565b6040516103979190615a1b565b60405180910390f35b3480156103ac57600080fd5b506103c760048036036103c291908101906156ce565b6118b4565b005b3480156103d557600080fd5b506103f060048036036103eb91908101906156a5565b61191d565b6040516103ff93929190615a36565b60405180910390f35b34801561041457600080fd5b5061042f600480360361042a919081019061575d565b611974565b005b34801561043d57600080fd5b506104466119d9565b6040516104539190615acc565b60405180910390f35b34801561046857600080fd5b506104716119df565b005b34801561047f57600080fd5b50610488611ae1565b60405161049591906158dd565b60405180910390f35b3480156104aa57600080fd5b506104c560048036036104c0919081019061575d565b611b07565b6040516104d29190615a1b565b60405180910390f35b3480156104e757600080fd5b506104f06120d6565b6040516104fd91906158dd565b60405180910390f35b34801561051257600080fd5b5061052d600480360361052891908101906156a5565b6120fc565b60405161053a91906158dd565b60405180910390f35b34801561054f57600080fd5b5061056a6004803603610565919081019061575d565b612144565b005b34801561057857600080fd5b506105816121a9565b60405161058e91906158dd565b60405180910390f35b3480156105a357600080fd5b506105be60048036036105b991908101906154ba565b6121ce565b005b3480156105cc57600080fd5b506105d561226d565b6040516105e291906158dd565b60405180910390f35b3480156105f757600080fd5b50610600612293565b005b34801561060e57600080fd5b506106296004803603610624919081019061567c565b61236f565b6040516106369190615acc565b60405180910390f35b34801561064b57600080fd5b506106666004803603610661919081019061575d565b6123ff565b005b34801561067457600080fd5b5061067d612464565b60405161068a91906158dd565b60405180910390f35b34801561069f57600080fd5b506106ba60048036036106b59190810190615532565b61248a565b005b3480156106c857600080fd5b506106d161248f565b6040516106de9190615acc565b60405180910390f35b61070160048036036106fc919081019061575d565b612495565b60405161070e9190615a1b565b60405180910390f35b34801561072357600080fd5b5061072c612c5f565b6040516107399190615acc565b60405180910390f35b34801561074e57600080fd5b506107696004803603610764919081019061575d565b612c65565b005b34801561077757600080fd5b50610792600480360361078d91908101906154ba565b612cca565b005b3480156107a057600080fd5b506107bb60048036036107b6919081019061575d565b612d69565b6040516107c89190615a6d565b60405180910390f35b3480156107dd57600080fd5b506107f860048036036107f3919081019061575d565b612e77565b6040516108059190615acc565b60405180910390f35b34801561081a57600080fd5b5061082361310d565b6040516108309190615acc565b60405180910390f35b34801561084557600080fd5b5061084e613113565b60405161085b91906158dd565b60405180910390f35b34801561087057600080fd5b5061088b600480360361088691908101906156a5565b613139565b6040516108989190615acc565b60405180910390f35b3480156108ad57600080fd5b506108c860048036036108c391908101906154ba565b613161565b005b3480156108d657600080fd5b506108f160048036036108ec9190810190615733565b6131c8565b6040516108fe9190615a1b565b60405180910390f35b34801561091357600080fd5b5061092e6004803603610929919081019061575d565b6131fb565b005b6000809054906101000a900473ffffffffffffffffffffffffffffffffffffffff1673ffffffffffffffffffffffffffffffffffffffff163373ffffffffffffffffffffffffffffffffffffffff1614151561098b57600080fd5b80600660006101000a81548173ffffffffffffffffffffffffffffffffffffffff021916908373ffffffffffffffffffffffffffffffffffffffff16021790555050565b600260009054906101000a900473ffffffffffffffffffffffffffffffffffffffff1681565b60008060009054906101000a900473ffffffffffffffffffffffffffffffffffffffff1673ffffffffffffffffffffffffffffffffffffffff163373ffffffffffffffffffffffffffffffffffffffff16141515610a5257600080fd5b8173ffffffffffffffffffffffffffffffffffffffff166370a08231306040518263ffffffff167c0100000000000000000000000000000000000000000000000000000000028152600401610aa79190615ab1565b602060405180830381600087803b158015610ac157600080fd5b505af1158015610ad5573d6000803e3d6000fd5b505050506040513d601f19601f82011682018060405250610af99190810190615786565b9050610b476000809054906101000a900473ffffffffffffffffffffffffffffffffffffffff16828473ffffffffffffffffffffffffffffffffffffffff166132609092919063ffffffff16565b5050565b6000809054906101000a900473ffffffffffffffffffffffffffffffffffffffff1673ffffffffffffffffffffffffffffffffffffffff163373ffffffffffffffffffffffffffffffffffffffff16141515610ba657600080fd5b80600160006101000a81548173ffffffffffffffffffffffffffffffffffffffff021916908373ffffffffffffffffffffffffffffffffffffffff16021790555050565b600560009054906101000a900473ffffffffffffffffffffffffffffffffffffffff1673ffffffffffffffffffffffffffffffffffffffff163373ffffffffffffffffffffffffffffffffffffffff161480610c935750600660009054906101000a900473ffffffffffffffffffffffffffffffffffffffff1673ffffffffffffffffffffffffffffffffffffffff163373ffffffffffffffffffffffffffffffffffffffff16145b1515610c9e57600080fd5b600260009054906101000a900473ffffffffffffffffffffffffffffffffffffffff1673ffffffffffffffffffffffffffffffffffffffff166323b872dd8484846040518463ffffffff167c0100000000000000000000000000000000000000000000000000000000028152600401610d19939291906158f8565b600060405180830381600087803b158015610d3357600080fd5b505af1158015610d47573d6000803e3d6000fd5b50505050505050565b6000610d5a614f8a565b610d6383613319565b9050610d6e816131c8565b915050919050565b600080600260009054906101000a900473ffffffffffffffffffffffffffffffffffffffff1673ffffffffffffffffffffffffffffffffffffffff166303a53d6b846040518263ffffffff167c0100000000000000000000000000000000000000000000000000000000028152600401610df09190615acc565b602060405180830381600087803b158015610e0a57600080fd5b505af1158015610e1e573d6000803e3d6000fd5b505050506040513d601f19601f82011682018060405250610e429190810190615786565b90506000811415610e565760009150610e70565b600b54610e6c824361365d90919063ffffffff16565b1191505b50919050565b60095481565b600080600080876040518082600260200280838360005b83811015610eae578082015181840152602081019050610e93565b5050505090500191505060405180910390209250600a543410151515610ed357600080fd5b6000610ede846120fc565b73ffffffffffffffffffffffffffffffffffffffff16141515610f0057600080fd5b610f0a8333613676565b6000600a541115610f8d57610f2183600a546136d7565b600260009054906101000a900473ffffffffffffffffffffffffffffffffffffffff1673ffffffffffffffffffffffffffffffffffffffff166108fc600a549081150290604051600060405180830381858888f19350505050158015610f8b573d6000803e3d6000fd5b505b7f4c0f83654ac2972673e4d81058f833de298389df1dce04cc2db9f231b907d5ff8333604051610fbe929190615a88565b60405180910390a1600260009054906101000a900473ffffffffffffffffffffffffffffffffffffffff1673ffffffffffffffffffffffffffffffffffffffff16634f558e79886040518263ffffffff167c010000000000000000000000000000000000000000000000000000000002815260040161103d9190615acc565b602060405180830381600087803b15801561105757600080fd5b505af115801561106b573d6000803e3d6000fd5b505050506040513d601f19601f8201168201806040525061108f9190810190615653565b15151561109b57600080fd5b6000600260009054906101000a900473ffffffffffffffffffffffffffffffffffffffff1673ffffffffffffffffffffffffffffffffffffffff166303a53d6b896040518263ffffffff167c01000000000000000000000000000000000000000000000000000000000281526004016111149190615acc565b602060405180830381600087803b15801561112e57600080fd5b505af1158015611142573d6000803e3d6000fd5b505050506040513d601f19601f820116820180604052506111669190810190615786565b14151561117257600080fd5b600260009054906101000a900473ffffffffffffffffffffffffffffffffffffffff1673ffffffffffffffffffffffffffffffffffffffff1663e3100d1e88436040518363ffffffff167c01000000000000000000000000000000000000000000000000000000000281526004016111eb929190615b70565b600060405180830381600087803b15801561120557600080fd5b505af1158015611219573d6000803e3d6000fd5b50505050600260009054906101000a900473ffffffffffffffffffffffffffffffffffffffff1673ffffffffffffffffffffffffffffffffffffffff16630b628395888a6040518363ffffffff167c0100000000000000000000000000000000000000000000000000000000028152600401611296929190615b1e565b600060405180830381600087803b1580156112b057600080fd5b505af11580156112c4573d6000803e3d6000fd5b50505050600260009054906101000a900473ffffffffffffffffffffffffffffffffffffffff1673ffffffffffffffffffffffffffffffffffffffff166376e4a87f88876040518363ffffffff167c0100000000000000000000000000000000000000000000000000000000028152600401611341929190615b47565b600060405180830381600087803b15801561135b57600080fd5b505af115801561136f573d6000803e3d6000fd5b5050505060008611156114de57600260009054906101000a900473ffffffffffffffffffffffffffffffffffffffff1673ffffffffffffffffffffffffffffffffffffffff1663dc3f775888886040518363ffffffff167c01000000000000000000000000000000000000000000000000000000000281526004016113f5929190615b70565b600060405180830381600087803b15801561140f57600080fd5b505af1158015611423573d6000803e3d6000fd5b5050505061143086612e77565b9150600260009054906101000a900473ffffffffffffffffffffffffffffffffffffffff1673ffffffffffffffffffffffffffffffffffffffff1663a47bd49688846040518363ffffffff167c01000000000000000000000000000000000000000000000000000000000281526004016114ab929190615b70565b600060405180830381600087803b1580156114c557600080fd5b505af11580156114d9573d6000803e3d6000fd5b505050505b6114f3826007546136fe90919063ffffffff16565b90508480156115025750600081115b156117935780600360009054906101000a900473ffffffffffffffffffffffffffffffffffffffff1673ffffffffffffffffffffffffffffffffffffffff166370a08231336040518263ffffffff167c010000000000000000000000000000000000000000000000000000000002815260040161157f91906158dd565b602060405180830381600087803b15801561159957600080fd5b505af11580156115ad573d6000803e3d6000fd5b505050506040513d601f19601f820116820180604052506115d19190810190615786565b10156116a257600460009054906101000a900473ffffffffffffffffffffffffffffffffffffffff1673ffffffffffffffffffffffffffffffffffffffff1663f088d547336040518263ffffffff167c010000000000000000000000000000000000000000000000000000000002815260040161164e91906158dd565b602060405180830381600087803b15801561166857600080fd5b505af115801561167c573d6000803e3d6000fd5b505050506040513d601f19601f820116820180604052506116a09190810190615653565b505b600360009054906101000a900473ffffffffffffffffffffffffffffffffffffffff1673ffffffffffffffffffffffffffffffffffffffff166323b872dd33600260009054906101000a900473ffffffffffffffffffffffffffffffffffffffff16846040518463ffffffff167c010000000000000000000000000000000000000000000000000000000002815260040161173f939291906158f8565b602060405180830381600087803b15801561175957600080fd5b505af115801561176d573d6000803e3d6000fd5b505050506040513d601f19601f820116820180604052506117919190810190615653565b505b600260009054906101000a900473ffffffffffffffffffffffffffffffffffffffff1673ffffffffffffffffffffffffffffffffffffffff166340c10f19600260009054906101000a900473ffffffffffffffffffffffffffffffffffffffff16896040518363ffffffff167c010000000000000000000000000000000000000000000000000000000002815260040161182e92919061592f565b600060405180830381600087803b15801561184857600080fd5b505af115801561185c573d6000803e3d6000fd5b505050507f1c3b3e1e72950ae52150ec48810521d17cea4b30c2a59c807d1ba2f8dff57e65888833600a54868b8b60405161189d97969594939291906159ab565b60405180910390a160019350505050949350505050565b6000809054906101000a900473ffffffffffffffffffffffffffffffffffffffff1673ffffffffffffffffffffffffffffffffffffffff163373ffffffffffffffffffffffffffffffffffffffff1614151561190f57600080fd5b6119198282613676565b5050565b600c6020528060005260406000206000915090508060000160009054906101000a900460ff16908060010154908060020160009054906101000a900473ffffffffffffffffffffffffffffffffffffffff16905083565b6000809054906101000a900473ffffffffffffffffffffffffffffffffffffffff1673ffffffffffffffffffffffffffffffffffffffff163373ffffffffffffffffffffffffffffffffffffffff161415156119cf57600080fd5b80600b8190555050565b600a5481565b6000809054906101000a900473ffffffffffffffffffffffffffffffffffffffff1673ffffffffffffffffffffffffffffffffffffffff163373ffffffffffffffffffffffffffffffffffffffff16141515611a3a57600080fd5b6000809054906101000a900473ffffffffffffffffffffffffffffffffffffffff1673ffffffffffffffffffffffffffffffffffffffff167ff8df31144d9c2f0f6b59d69b8b98abd5459d07f2742c4df920b25aae33c6482060405160405180910390a260008060006101000a81548173ffffffffffffffffffffffffffffffffffffffff021916908373ffffffffffffffffffffffffffffffffffffffff160217905550565b600660009054906101000a900473ffffffffffffffffffffffffffffffffffffffff1681565b600080611b1261503e565b611b1a614f8a565b60008060008060019650600260009054906101000a900473ffffffffffffffffffffffffffffffffffffffff1673ffffffffffffffffffffffffffffffffffffffff166362f9acf98a6040518263ffffffff167c0100000000000000000000000000000000000000000000000000000000028152600401611b9b9190615acc565b6040805180830381600087803b158015611bb457600080fd5b505af1158015611bc8573d6000803e3d6000fd5b505050506040513d601f19601f82011682018060405250611bec91908101906155c7565b95506000809054906101000a900473ffffffffffffffffffffffffffffffffffffffff1673ffffffffffffffffffffffffffffffffffffffff163373ffffffffffffffffffffffffffffffffffffffff1614158015611c995750600160009054906101000a900473ffffffffffffffffffffffffffffffffffffffff1673ffffffffffffffffffffffffffffffffffffffff163373ffffffffffffffffffffffffffffffffffffffff1614155b15611e7d57611ca786613319565b945088611cb886610100015161236f565b141515611cc457600096505b868015611cd65750611cd5856131c8565b5b15611e6a57600260009054906101000a900473ffffffffffffffffffffffffffffffffffffffff1673ffffffffffffffffffffffffffffffffffffffff1663c53b4bf98a6040518263ffffffff167c0100000000000000000000000000000000000000000000000000000000028152600401611d529190615acc565b602060405180830381600087803b158015611d6c57600080fd5b505af1158015611d80573d6000803e3d6000fd5b505050506040513d601f19601f82011682018060405250611da49190810190615786565b935084606001511515600060016004879060020a90041611151514611dca576000611dcc565b865b965084608001511515600060016003879060020a90041611151514611df2576000611df4565b865b96508460a001511515600060016002879060020a90041611151514611e1a576000611e1c565b865b96508460c0015115156000600180879060020a90041611151514611e41576000611e43565b865b96508460e00151151560006001861611151514611e61576000611e63565b865b9650611e6f565b600096505b86151515611e7c57600080fd5b5b856040518082600260200280838360005b83811015611ea9578082015181840152602081019050611e8e565b5050505090500191505060405180910390209250611ec683613139565b9150611ed189610d76565b158015611ede5750600082115b15611f8f57600260009054906101000a900473ffffffffffffffffffffffffffffffffffffffff1673ffffffffffffffffffffffffffffffffffffffff16631cc1472d33846040518363ffffffff167c0100000000000000000000000000000000000000000000000000000000028152600401611f5c92919061592f565b600060405180830381600087803b158015611f7657600080fd5b505af1158015611f8a573d6000803e3d6000fd5b505050505b600c6000846000191660001916815260200190815260200160002060000160009054906101000a900460ff1615611fca57611fc98961371a565b5b611fd3836120fc565b90507f23e709ab80a4bee9454ba0d08c0b669d684531b4ec766524c43abd788cc3ca76868a83338660405161200c959493929190615958565b60405180910390a1600260009054906101000a900473ffffffffffffffffffffffffffffffffffffffff1673ffffffffffffffffffffffffffffffffffffffff16630e8310d68a6040518263ffffffff167c010000000000000000000000000000000000000000000000000000000002815260040161208b9190615acc565b600060405180830381600087803b1580156120a557600080fd5b505af11580156120b9573d6000803e3d6000fd5b505050506120c683613a43565b6001975050505050505050919050565b600160009054906101000a900473ffffffffffffffffffffffffffffffffffffffff1681565b6000600c6000836000191660001916815260200190815260200160002060020160009054906101000a900473ffffffffffffffffffffffffffffffffffffffff169050919050565b6000809054906101000a900473ffffffffffffffffffffffffffffffffffffffff1673ffffffffffffffffffffffffffffffffffffffff163373ffffffffffffffffffffffffffffffffffffffff1614151561219f57600080fd5b8060098190555050565b6000809054906101000a900473ffffffffffffffffffffffffffffffffffffffff1681565b6000809054906101000a900473ffffffffffffffffffffffffffffffffffffffff1673ffffffffffffffffffffffffffffffffffffffff163373ffffffffffffffffffffffffffffffffffffffff1614151561222957600080fd5b80600460006101000a81548173ffffffffffffffffffffffffffffffffffffffff021916908373ffffffffffffffffffffffffffffffffffffffff16021790555050565b600560009054906101000a900473ffffffffffffffffffffffffffffffffffffffff1681565b6000809054906101000a900473ffffffffffffffffffffffffffffffffffffffff1673ffffffffffffffffffffffffffffffffffffffff163373ffffffffffffffffffffffffffffffffffffffff161415156122ee57600080fd5b6000809054906101000a900473ffffffffffffffffffffffffffffffffffffffff1673ffffffffffffffffffffffffffffffffffffffff166108fc3073ffffffffffffffffffffffffffffffffffffffff16319081150290604051600060405180830381858888f1935050505015801561236c573d6000803e3d6000fd5b50565b600080600090505b601060ff168110156123f95760018101601060ff160360080260020a83826010811015156123a157fe5b1a7f0100000000000000000000000000000000000000000000000000000000000000027f0100000000000000000000000000000000000000000000000000000000000000900402820191508080600101915050612377565b50919050565b6000809054906101000a900473ffffffffffffffffffffffffffffffffffffffff1673ffffffffffffffffffffffffffffffffffffffff163373ffffffffffffffffffffffffffffffffffffffff1614151561245a57600080fd5b8060088190555050565b600460009054906101000a900473ffffffffffffffffffffffffffffffffffffffff1681565b600080fd5b600b5481565b600061249f61503e565b6000806000806000600260009054906101000a900473ffffffffffffffffffffffffffffffffffffffff1673ffffffffffffffffffffffffffffffffffffffff166362f9acf9896040518263ffffffff167c010000000000000000000000000000000000000000000000000000000002815260040161251e9190615acc565b6040805180830381600087803b15801561253757600080fd5b505af115801561254b573d6000803e3d6000fd5b505050506040513d601f19601f8201168201806040525061256f91908101906155c7565b9550856040518082600260200280838360005b8381101561259d578082015181840152602081019050612582565b5050505090500191505060405180910390209450600c6000866000191660001916815260200190815260200160002060000160009054906101000a900460ff161515156125e957600080fd5b6001600c6000876000191660001916815260200190815260200160002060000160006101000a81548160ff02191690831515021790555061262988610d76565b8061268057506000809054906101000a900473ffffffffffffffffffffffffffffffffffffffff1673ffffffffffffffffffffffffffffffffffffffff163373ffffffffffffffffffffffffffffffffffffffff16145b806126d85750600160009054906101000a900473ffffffffffffffffffffffffffffffffffffffff1673ffffffffffffffffffffffffffffffffffffffff163373ffffffffffffffffffffffffffffffffffffffff16145b15156126e357600080fd5b6126ec85613139565b93506126f788613aa7565b612700856120fc565b92508273ffffffffffffffffffffffffffffffffffffffff163373ffffffffffffffffffffffffffffffffffffffff1614151561273c57600080fd5b600260009054906101000a900473ffffffffffffffffffffffffffffffffffffffff1673ffffffffffffffffffffffffffffffffffffffff16631c4b774b896040518263ffffffff167c01000000000000000000000000000000000000000000000000000000000281526004016127b39190615acc565b602060405180830381600087803b1580156127cd57600080fd5b505af11580156127e1573d6000803e3d6000fd5b505050506040513d601f19601f820116820180604052506128059190810190615786565b9150600260009054906101000a900473ffffffffffffffffffffffffffffffffffffffff1673ffffffffffffffffffffffffffffffffffffffff166304952631896040518263ffffffff167c010000000000000000000000000000000000000000000000000000000002815260040161287e9190615acc565b602060405180830381600087803b15801561289857600080fd5b505af11580156128ac573d6000803e3d6000fd5b505050506040513d601f19601f820116820180604052506128d09190810190615653565b905080156129ac57600260009054906101000a900473ffffffffffffffffffffffffffffffffffffffff1673ffffffffffffffffffffffffffffffffffffffff166323b872dd600260009054906101000a900473ffffffffffffffffffffffffffffffffffffffff16858b6040518463ffffffff167c0100000000000000000000000000000000000000000000000000000000028152600401612975939291906158f8565b600060405180830381600087803b15801561298f57600080fd5b505af11580156129a3573d6000803e3d6000fd5b50505050612b60565b600560009054906101000a900473ffffffffffffffffffffffffffffffffffffffff1673ffffffffffffffffffffffffffffffffffffffff1663d79875eb89612a14612a0360085487613dd090919063ffffffff16565b6007546136fe90919063ffffffff16565b6040518363ffffffff167c0100000000000000000000000000000000000000000000000000000000028152600401612a4d929190615b70565b600060405180830381600087803b158015612a6757600080fd5b505af1158015612a7b573d6000803e3d6000fd5b505050506000821115612b5f57600360009054906101000a900473ffffffffffffffffffffffffffffffffffffffff1673ffffffffffffffffffffffffffffffffffffffff166340c10f1984846040518363ffffffff167c0100000000000000000000000000000000000000000000000000000000028152600401612b0192919061592f565b602060405180830381600087803b158015612b1b57600080fd5b505af1158015612b2f573d6000803e3d6000fd5b505050506040513d601f19601f82011682018060405250612b539190810190615653565b1515612b5e57600080fd5b5b5b6000841115612c1557600260009054906101000a900473ffffffffffffffffffffffffffffffffffffffff1673ffffffffffffffffffffffffffffffffffffffff16631cc1472d84866040518363ffffffff167c0100000000000000000000000000000000000000000000000000000000028152600401612be292919061592f565b600060405180830381600087803b158015612bfc57600080fd5b505af1158015612c10573d6000803e3d6000fd5b505050505b7fa8a1a24efbea93a5c7f29342ba7652cd030828e12cc15c1416480fecee73d589888486604051612c4893929190615ae7565b60405180910390a160019650505050505050919050565b60075481565b6000809054906101000a900473ffffffffffffffffffffffffffffffffffffffff1673ffffffffffffffffffffffffffffffffffffffff163373ffffffffffffffffffffffffffffffffffffffff16141515612cc057600080fd5b80600a8190555050565b6000809054906101000a900473ffffffffffffffffffffffffffffffffffffffff1673ffffffffffffffffffffffffffffffffffffffff163373ffffffffffffffffffffffffffffffffffffffff16141515612d2557600080fd5b80600560006101000a81548173ffffffffffffffffffffffffffffffffffffffff021916908373ffffffffffffffffffffffffffffffffffffffff16021790555050565b6000600260009054906101000a900473ffffffffffffffffffffffffffffffffffffffff1673ffffffffffffffffffffffffffffffffffffffff166362f9acf9836040518263ffffffff167c0100000000000000000000000000000000000000000000000000000000028152600401612de29190615acc565b6040805180830381600087803b158015612dfb57600080fd5b505af1158015612e0f573d6000803e3d6000fd5b505050506040513d601f19601f82011682018060405250612e3391908101906155c7565b6040518082600260200280838360005b83811015612e5e578082015181840152602081019050612e43565b5050505090500191505060405180910390209050919050565b600080600080600080600080600260009054906101000a900473ffffffffffffffffffffffffffffffffffffffff1673ffffffffffffffffffffffffffffffffffffffff1663785d8d716040518163ffffffff167c010000000000000000000000000000000000000000000000000000000002815260040160c060405180830381600087803b158015612f0957600080fd5b505af1158015612f1d573d6000803e3d6000fd5b505050506040513d601f19601f82011682018060405250612f4191908101906157af565b809750819850829950839a50849b50859c505050505050506000905060018060048b9060020a9004161415612fb257612faf612fa060018801612f9260018b01600954613dd090919063ffffffff16565b613e0890919063ffffffff16565b826136fe90919063ffffffff16565b90505b60018060038b9060020a900416141561300757613004612ff560018701612fe760018b01600954613dd090919063ffffffff16565b613e0890919063ffffffff16565b826136fe90919063ffffffff16565b90505b60018060028b9060020a900416141561305c5761305961304a6001860161303c60018b01600954613dd090919063ffffffff16565b613e0890919063ffffffff16565b826136fe90919063ffffffff16565b90505b60018060018b9060020a90041614156130b1576130ae61309f6001850161309160018b01600954613dd090919063ffffffff16565b613e0890919063ffffffff16565b826136fe90919063ffffffff16565b90505b6001808a1614156130fe576130fb6130ec600184016130de60018b01600954613dd090919063ffffffff16565b613e0890919063ffffffff16565b826136fe90919063ffffffff16565b90505b80975050505050505050919050565b60085481565b600360009054906101000a900473ffffffffffffffffffffffffffffffffffffffff1681565b6000600c60008360001916600019168152602001908152602001600020600101549050919050565b6000809054906101000a900473ffffffffffffffffffffffffffffffffffffffff1673ffffffffffffffffffffffffffffffffffffffff163373ffffffffffffffffffffffffffffffffffffffff161415156131bc57600080fd5b6131c581613e1e565b50565b60008160000151156131dd57600090506131f6565b816020015115156131f157600090506131f6565b600190505b919050565b6000809054906101000a900473ffffffffffffffffffffffffffffffffffffffff1673ffffffffffffffffffffffffffffffffffffffff163373ffffffffffffffffffffffffffffffffffffffff1614151561325657600080fd5b8060078190555050565b8273ffffffffffffffffffffffffffffffffffffffff1663a9059cbb83836040518363ffffffff167c01000000000000000000000000000000000000000000000000000000000281526004016132b792919061592f565b602060405180830381600087803b1580156132d157600080fd5b505af11580156132e5573d6000803e3d6000fd5b505050506040513d601f19601f820116820180604052506133099190810190615653565b151561331457600080fd5b505050565b613321614f8a565b613329614f8a565b60008060008060008088600060028110151561334157fe5b602002015187610120019063ffffffff1916908163ffffffff19168152505088600160028110151561336f57fe5b602002015187610140019063ffffffff1916908163ffffffff191681525050600087610180019060ff16908160ff16815250506002876101a0019060ff16908160ff16815250506002876101c0019060ff16908160ff168152505060008760000190151590811515815250506000876020019015159081151581525050600187610160019060ff16908160ff16815250506ffffffffffffffe7ffdbfffffffffffff700100000000000000000000000000000000028761010001906fffffffffffffffffffffffffffffffff191690816fffffffffffffffffffffffffffffffff191681525050600091505b603c8260ff1610801561346c575085155b1561361b57602087610180015160ff161061348c57866101400151613493565b8661012001515b90506134b581602089610180015160ff168115156134ad57fe5b066020613f18565b94506134c085613f5c565b80945081955050506134d185613f9b565b15955060008260ff161480156134fa575060028460ff161415806134f9575060038360ff1614155b5b15613515576001955060018760000190151590811515815250505b85158015613526575060088460ff16105b8015613535575060088360ff16105b8015613545575060008460ff1610155b8015613555575060008360ff1610155b1561360e57613565878585613fac565b965060018761018001510187610180019060ff16908160ff168152505086600001511561360d576000876000019015159081151581525050600160ff1687610160015160ff1614156135ca57600287610160019060ff16908160ff16815250506135df565b600187610160019060ff16908160ff16815250505b6135ea878585613fac565b965086600001511561360c576001876000019015159081151581525050600195505b5b5b818060010192505061345b565b8660000151151561364e576000876000019015159081151581525050613640876142ae565b965061364b876145ed565b96505b86975050505050505050919050565b600082821115151561366b57fe5b818303905092915050565b80600c6000846000191660001916815260200190815260200160002060020160006101000a81548173ffffffffffffffffffffffffffffffffffffffff021916908373ffffffffffffffffffffffffffffffffffffffff1602179055505050565b80600c60008460001916600019168152602001908152602001600020600101819055505050565b6000818301905082811015151561371157fe5b80905092915050565b6000806000806000806000600260009054906101000a900473ffffffffffffffffffffffffffffffffffffffff1673ffffffffffffffffffffffffffffffffffffffff1663785d8d716040518163ffffffff167c010000000000000000000000000000000000000000000000000000000002815260040160c060405180830381600087803b1580156137ab57600080fd5b505af11580156137bf573d6000803e3d6000fd5b505050506040513d601f19601f820116820180604052506137e391908101906157af565b809750819850829950839a50849b50859c50505050505050600260009054906101000a900473ffffffffffffffffffffffffffffffffffffffff1673ffffffffffffffffffffffffffffffffffffffff1663c53b4bf9896040518263ffffffff167c01000000000000000000000000000000000000000000000000000000000281526004016138729190615acc565b602060405180830381600087803b15801561388c57600080fd5b505af11580156138a0573d6000803e3d6000fd5b505050506040513d601f19601f820116820180604052506138c49190810190615786565b90506138ed600082116138d85760006138db565b60015b60ff168861365d90919063ffffffff16565b965061390d60016004839060020a9004168761365d90919063ffffffff16565b955061392d60016003839060020a9004168661365d90919063ffffffff16565b945061394d60016002839060020a9004168561365d90919063ffffffff16565b935061396c600180839060020a9004168461365d90919063ffffffff16565b9250613984600182168361365d90919063ffffffff16565b9150600260009054906101000a900473ffffffffffffffffffffffffffffffffffffffff1673ffffffffffffffffffffffffffffffffffffffff16638b1b2ba88888888888886040518763ffffffff167c0100000000000000000000000000000000000000000000000000000000028152600401613a0796959493929190615b99565b600060405180830381600087803b158015613a2157600080fd5b505af1158015613a35573d6000803e3d6000fd5b505050505050505050505050565b600c60008260001916600019168152602001908152602001600020600080820160006101000a81549060ff021916905560018201600090556002820160006101000a81549073ffffffffffffffffffffffffffffffffffffffff0219169055505050565b6000806000806000806000600260009054906101000a900473ffffffffffffffffffffffffffffffffffffffff1673ffffffffffffffffffffffffffffffffffffffff1663785d8d716040518163ffffffff167c010000000000000000000000000000000000000000000000000000000002815260040160c060405180830381600087803b158015613b3857600080fd5b505af1158015613b4c573d6000803e3d6000fd5b505050506040513d601f19601f82011682018060405250613b7091908101906157af565b809750819850829950839a50849b50859c50505050505050600260009054906101000a900473ffffffffffffffffffffffffffffffffffffffff1673ffffffffffffffffffffffffffffffffffffffff1663c53b4bf9896040518263ffffffff167c0100000000000000000000000000000000000000000000000000000000028152600401613bff9190615acc565b602060405180830381600087803b158015613c1957600080fd5b505af1158015613c2d573d6000803e3d6000fd5b505050506040513d601f19601f82011682018060405250613c519190810190615786565b9050613c7a60008211613c65576000613c68565b60015b60ff16886136fe90919063ffffffff16565b9650613c9a60016004839060020a900416876136fe90919063ffffffff16565b9550613cba60016003839060020a900416866136fe90919063ffffffff16565b9450613cda60016002839060020a900416856136fe90919063ffffffff16565b9350613cf9600180839060020a900416846136fe90919063ffffffff16565b9250613d1160018216836136fe90919063ffffffff16565b9150600260009054906101000a900473ffffffffffffffffffffffffffffffffffffffff1673ffffffffffffffffffffffffffffffffffffffff16638b1b2ba88888888888886040518763ffffffff167c0100000000000000000000000000000000000000000000000000000000028152600401613d9496959493929190615b99565b600060405180830381600087803b158015613dae57600080fd5b505af1158015613dc2573d6000803e3d6000fd5b505050505050505050505050565b600080831415613de35760009050613e02565b8183029050818382811515613df457fe5b04141515613dfe57fe5b8090505b92915050565b60008183811515613e1557fe5b04905092915050565b600073ffffffffffffffffffffffffffffffffffffffff168173ffffffffffffffffffffffffffffffffffffffff1614151515613e5a57600080fd5b8073ffffffffffffffffffffffffffffffffffffffff166000809054906101000a900473ffffffffffffffffffffffffffffffffffffffff1673ffffffffffffffffffffffffffffffffffffffff167f8be0079c531659141344cd1fd0a4f28419497f9722a3daafe3b4186f6b6457e060405160405180910390a3806000806101000a81548173ffffffffffffffffffffffffffffffffffffffff021916908373ffffffffffffffffffffffffffffffffffffffff16021790555050565b6000806000607f64010000000002915060078086026007860203039050818160ff168763ffffffff19169060020a9004166401000000009004925050509392505050565b60008060008060408503945060088560ff16811515613f7757fe5b069150600882860360ff16811515613f8b57fe5b0490508181935093505050915091565b600060408260ff1610159050919050565b613fb4614f8a565b613fbc615060565b600080600080600080600080600360ff16613fdd8e61010001518e8e6148e5565b60ff161415156140005760018d60000190151590811515815250508c995061429e565b61400b8d8d8d61495b565b809950819a50505060008860ff1614156140385760018d60000190151590811515815250508c995061429e565b60009150600090505b8760ff168160ff16101561419e5760009650600095506140788d8a8360ff1660088110151561406c57fe5b60200201518e8e614c9a565b8097508198505050600092505b8560ff168360ff1610156141915781151561409f57600191505b6140b26140ad888589613f18565b613f5c565b80955081965050506140d08d61010001518e61016001518787614dfe565b8d61010001906fffffffffffffffffffffffffffffffff191690816fffffffffffffffffffffffffffffffff191681525050600260ff168d610160015160ff16141561414f5760018d6101c0018181510191509060ff16908160ff168152505060018d6101a0018181510391509060ff16908160ff1681525050614184565b60018d6101c0018181510391509060ff16908160ff168152505060018d6101a0018181510191509060ff16908160ff16815250505b8280600101935050614085565b8080600101915050614041565b811561423f576141ba8d61010001518e61016001518e8e614dfe565b8d61010001906fffffffffffffffffffffffffffffffff191690816fffffffffffffffffffffffffffffffff191681525050600260ff168d610160015160ff16141561421f5760018d6101c0018181510191509060ff16908160ff168152505061423a565b60018d6101a0018181510191509060ff16908160ff16815250505b614258565b60018d60000190151590811515815250508c995061429e565b600160ff168d610160015160ff1614156142855760028d610160019060ff16908160ff168152505061429a565b60018d610160019060ff16908160ff16815250505b8c99505b5050505050505050509392505050565b6142b6614f8a565b6142be61508f565b60008060008060006142ce6150be565b603c89610180015160ff1614156142f85760018960200190151590811515815250508897506145e1565b60009550600094505b60408560ff1610156143da5761434b8961010001516008808860ff1681151561432657fe5b06880360ff1681151561433557fe5b0460088860ff1681151561434557fe5b066148e5565b9350600360ff168460ff1614156143cd5760408051908101604052806008808860ff1681151561437757fe5b06880360ff1681151561438657fe5b0460ff1660ff16815260200160088760ff168115156143a157fe5b0660ff1660ff16815250878760ff16603c811015156143bc57fe5b602002018190525085806001019650505b8480600101955050614301565b6000925060008660ff16111561459e578861010001519150600094505b8560ff168560ff1610801561440a575082155b1561456a57868560ff16603c8110151561442057fe5b60200201519050600189610160019060ff16908160ff16815250506000896000019015159081151581525050818961010001906fffffffffffffffffffffffffffffffff191690816fffffffffffffffffffffffffffffffff1916815250506144b08982600060028110151561449257fe5b60200201518360016002811015156144a657fe5b6020020151613fac565b9850886000015115156144c257600192505b600289610160019060ff16908160ff16815250506000896000019015159081151581525050818961010001906fffffffffffffffffffffffffffffffff191690816fffffffffffffffffffffffffffffffff19168152505061454b8982600060028110151561452d57fe5b602002015183600160028110151561454157fe5b6020020151613fac565b98508860000151151561455d57600192505b84806001019550506143f7565b818961010001906fffffffffffffffffffffffffffffffff191690816fffffffffffffffffffffffffffffffff1916815250505b82156145ba5760018960000190151590811515815250506145dd565b600189602001901515908115158152505060008960000190151590811515815250505b8897505b50505050505050919050565b6145f5614f8a565b60008060008060008060006001965060019550600194506001935060019250600091505b60088260ff16108015614649575086806146305750855b806146385750845b806146405750835b806146485750825b5b1561484e57600090505b60088160ff161080156146835750868061466a5750855b806146725750845b8061467a5750835b806146825750825b5b156148415761469e8961010001518360070383600703614eca565b6fffffffffffffffffffffffffffffffff19166146c18a61010001518484614eca565b6fffffffffffffffffffffffffffffffff19161415156146e057600096505b6146f38961010001518383600703614eca565b6fffffffffffffffffffffffffffffffff19166147168a61010001518484614eca565b6fffffffffffffffffffffffffffffffff191614151561473557600095505b6147488961010001518360070383614eca565b6fffffffffffffffffffffffffffffffff191661476b8a61010001518484614eca565b6fffffffffffffffffffffffffffffffff191614151561478a57600094505b6147a08961010001518260070384600703614eca565b6fffffffffffffffffffffffffffffffff19166147c38a61010001518484614eca565b6fffffffffffffffffffffffffffffffff19161415156147e257600093505b6147f28961010001518284614eca565b6fffffffffffffffffffffffffffffffff19166148158a61010001518484614eca565b6fffffffffffffffffffffffffffffffff191614151561483457600092505b8080600101915050614653565b8180600101925050614619565b86806148575750855b8061485f5750845b806148675750835b8061486f5750825b156148d65760018960400190151590811515815250508689606001901515908115158152505085896080019015159081151581525050848960a0019015159081151581525050838960c0019015159081151581525050828960e00190151590811515815250505b88975050505050505050919050565b60008060006148f48585614f26565b9150600370010000000000000000000000000000000002826fffffffffffffffffffffffffffffffff16876fffffffffffffffffffffffffffffffff19169060020a9004169050807001000000000000000000000000000000009004925050509392505050565b614963615060565b600061496d615060565b6000614977615060565b6000806149826150e0565b600080600096506101006040519081016040528060408051908101604052807fffffffffffffffffffffffffffffffffffffffffffffffffffffffffffffffff60000b60000b81526020016000800b60000b815250815260200160408051908101604052807fffffffffffffffffffffffffffffffffffffffffffffffffffffffffffffffff60000b60000b8152602001600160000b60000b815250815260200160408051908101604052806000800b60000b8152602001600160000b60000b81525081526020016040805190810160405280600160000b60000b8152602001600160000b60000b81525081526020016040805190810160405280600160000b60000b81526020016000800b60000b81525081526020016040805190810160405280600160000b60000b81526020017fffffffffffffffffffffffffffffffffffffffffffffffffffffffffffffffff60000b60000b815250815260200160408051908101604052806000800b60000b81526020017fffffffffffffffffffffffffffffffffffffffffffffffffffffffffffffffff60000b60000b815250815260200160408051908101604052807fffffffffffffffffffffffffffffffffffffffffffffffffffffffffffffffff60000b60000b81526020017fffffffffffffffffffffffffffffffffffffffffffffffffffffffffffffffff60000b60000b8152508152509550600090505b60088160ff161015614c8457858160ff16600881101515614bae57fe5b60200201519250826000600281101515614bc457fe5b60200201518c019350826001600281101515614bdc57fe5b60200201518b01945060078560000b1380614bfa575060008560000b125b80614c08575060078460000b135b80614c16575060008460000b125b1515614c7757614c2c8d610100015185876148e5565b91508c610160015160ff168260ff16141515614c7657600360ff168260ff16141515614c755782888860ff16600881101515614c6457fe5b602002018190525086806001019750505b5b5b8080600101915050614b91565b8787995099505050505050505050935093915050565b60008060008060008060008060008060009650600160ff168e610160015160ff161415614cca5760029550614ccf565b600195505b60009450600190505b60098160ff161015614de757841515614dda578b8d6000600281101515614cfb57fe5b602002015182020193508a8d6001600281101515614d1557fe5b6020020151820201925060078460000b1380614d34575060008460000b125b80614d42575060078360000b135b80614d50575060008360000b125b15614d6657600097506000965060019450614dd9565b614d768e610100015185856148e5565b91508560ff168260ff161415614d9f57614d9288888686614f42565b8098508199505050614dd8565b8d610160015160ff168260ff16148015614dbc575060018160ff16115b15614dca5760019450614dd7565b6000975060009650600194505b5b5b5b8080600101915050614cd8565b878799509950505050505050505094509492505050565b600080600060078560ff161115614e1457600080fd5b60078460ff161115614e2557600080fd5b614e2f8585614f26565b9150816fffffffffffffffffffffffffffffffff166003700100000000000000000000000000000000026fffffffffffffffffffffffffffffffff19169060020a02905086818818169650816fffffffffffffffffffffffffffffffff168660ff16700100000000000000000000000000000000026fffffffffffffffffffffffffffffffff19169060020a02871792505050949350505050565b600080614ed78484614f26565b9050600370010000000000000000000000000000000002816fffffffffffffffffffffffffffffffff16866fffffffffffffffffffffffffffffffff19169060020a9004169150509392505050565b600060026001838560080201016040030260ff16905092915050565b600080600060406008850286010160ff1664010000000002905060078763ffffffff19169060020a029650808717965085806001019650508686925092505094509492505050565b6101e06040519081016040528060001515815260200160001515815260200160001515815260200160001515815260200160001515815260200160001515815260200160001515815260200160001515815260200160006fffffffffffffffffffffffffffffffff19168152602001600063ffffffff19168152602001600063ffffffff19168152602001600060ff168152602001600060ff168152602001600060ff168152602001600060ff1681525090565b6040805190810160405280600290602082028038833980820191505090505090565b610200604051908101604052806008905b615079615102565b8152602001906001900390816150715790505090565b610f0060405190810160405280603c905b6150a8615124565b8152602001906001900390816150a05790505090565b6040805190810160405280600290602082028038833980820191505090505090565b6040805190810160405280600290602082028038833980820191505090505090565b6040805190810160405280600290602082028038833980820191505090505090565b6040805190810160405280600290602082028038833980820191505090505090565b60006151528235615cd7565b905092915050565b600082601f830112151561516d57600080fd5b600261518061517b82615c27565b615bfa565b9150818385602084028201111561519657600080fd5b60005b838110156151c657816151ac8882615282565b845260208401935060208301925050600181019050615199565b5050505092915050565b600082601f83011215156151e357600080fd5b60026151f66151f182615c27565b615bfa565b9150818385602084028201111561520c57600080fd5b60005b8381101561523c57816152228882615296565b84526020840193506020830192505060018101905061520f565b5050505092915050565b60006152528235615cf7565b905092915050565b60006152668251615cf7565b905092915050565b600061527a8235615d03565b905092915050565b600061528e8235615d2f565b905092915050565b60006152a28251615d2f565b905092915050565b60006152b68235615d5b565b905092915050565b60008083601f84011215156152d257600080fd5b8235905067ffffffffffffffff8111156152eb57600080fd5b60208301915083600182028301111561530357600080fd5b9250929050565b60006153168235615d65565b905092915050565b60006101e0828403121561533157600080fd5b61533c6101e0615bfa565b9050600061534c84828501615246565b600083015250602061536084828501615246565b602083015250604061537484828501615246565b604083015250606061538884828501615246565b606083015250608061539c84828501615246565b60808301525060a06153b084828501615246565b60a08301525060c06153c484828501615246565b60c08301525060e06153d884828501615246565b60e0830152506101006153ed8482850161526e565b6101008301525061012061540384828501615282565b6101208301525061014061541984828501615282565b6101408301525061016061542f848285016154a6565b61016083015250610180615445848285016154a6565b610180830152506101a061545b848285016154a6565b6101a0830152506101c0615471848285016154a6565b6101c08301525092915050565b600061548a8235615d77565b905092915050565b600061549e8251615d77565b905092915050565b60006154b28235615d81565b905092915050565b6000602082840312156154cc57600080fd5b60006154da84828501615146565b91505092915050565b6000806000606084860312156154f857600080fd5b600061550686828701615146565b935050602061551786828701615146565b92505060406155288682870161547e565b9150509250925092565b6000806000806060858703121561554857600080fd5b600061555687828801615146565b94505060206155678782880161547e565b935050604085013567ffffffffffffffff81111561558457600080fd5b615590878288016152be565b925092505092959194509250565b6000604082840312156155b057600080fd5b60006155be8482850161515a565b91505092915050565b6000604082840312156155d957600080fd5b60006155e7848285016151d0565b91505092915050565b60008060008060a0858703121561560657600080fd5b60006156148782880161515a565b94505060406156258782880161547e565b93505060606156368782880161547e565b925050608061564787828801615246565b91505092959194509250565b60006020828403121561566557600080fd5b60006156738482850161525a565b91505092915050565b60006020828403121561568e57600080fd5b600061569c8482850161526e565b91505092915050565b6000602082840312156156b757600080fd5b60006156c5848285016152aa565b91505092915050565b600080604083850312156156e157600080fd5b60006156ef858286016152aa565b925050602061570085828601615146565b9150509250929050565b60006020828403121561571c57600080fd5b600061572a8482850161530a565b91505092915050565b60006101e0828403121561574657600080fd5b60006157548482850161531e565b91505092915050565b60006020828403121561576f57600080fd5b600061577d8482850161547e565b91505092915050565b60006020828403121561579857600080fd5b60006157a684828501615492565b91505092915050565b60008060008060008060c087890312156157c857600080fd5b60006157d689828a01615492565b96505060206157e789828a01615492565b95505060406157f889828a01615492565b945050606061580989828a01615492565b935050608061581a89828a01615492565b92505060a061582b89828a01615492565b9150509295509295509295565b61584181615c6b565b82525050565b61585081615c53565b61585982615c49565b60005b8281101561588b5761586f8583516158a1565b61587882615c5e565b915060208501945060018101905061585c565b5050505050565b61589b81615c8b565b82525050565b6158aa81615c97565b82525050565b6158b981615cc3565b82525050565b6158c881615d8e565b82525050565b6158d781615ccd565b82525050565b60006020820190506158f26000830184615838565b92915050565b600060608201905061590d6000830186615838565b61591a6020830185615838565b61592760408301846158ce565b949350505050565b60006040820190506159446000830185615838565b61595160208301846158ce565b9392505050565b600060c08201905061596d6000830188615847565b61597a60408301876158ce565b6159876060830186615838565b6159946080830185615838565b6159a160a08301846158ce565b9695505050505050565b6000610100820190506159c1600083018a615847565b6159ce60408301896158ce565b6159db6060830188615838565b6159e860808301876158ce565b6159f560a08301866158ce565b615a0260c08301856158ce565b615a0f60e0830184615892565b98975050505050505050565b6000602082019050615a306000830184615892565b92915050565b6000606082019050615a4b6000830186615892565b615a5860208301856158ce565b615a656040830184615838565b949350505050565b6000602082019050615a8260008301846158b0565b92915050565b6000604082019050615a9d60008301856158b0565b615aaa6020830184615838565b9392505050565b6000602082019050615ac660008301846158bf565b92915050565b6000602082019050615ae160008301846158ce565b92915050565b6000606082019050615afc60008301866158ce565b615b096020830185615838565b615b1660408301846158ce565b949350505050565b6000606082019050615b3360008301856158ce565b615b406020830184615847565b9392505050565b6000604082019050615b5c60008301856158ce565b615b696020830184615892565b9392505050565b6000604082019050615b8560008301856158ce565b615b9260208301846158ce565b9392505050565b600060c082019050615bae60008301896158ce565b615bbb60208301886158ce565b615bc860408301876158ce565b615bd560608301866158ce565b615be260808301856158ce565b615bef60a08301846158ce565b979650505050505050565b6000604051905081810181811067ffffffffffffffff82111715615c1d57600080fd5b8060405250919050565b600067ffffffffffffffff821115615c3e57600080fd5b602082029050919050565b6000819050919050565b600060029050919050565b6000602082019050919050565b600073ffffffffffffffffffffffffffffffffffffffff82169050919050565b60008115159050919050565b60007fffffffffffffffffffffffffffffffffffffffffffffffffffffffff0000000082169050919050565b6000819050919050565b6000819050919050565b600073ffffffffffffffffffffffffffffffffffffffff82169050919050565b60008115159050919050565b60007fffffffffffffffffffffffffffffffff0000000000000000000000000000000082169050919050565b60007fffffffffffffffffffffffffffffffffffffffffffffffffffffffff0000000082169050919050565b6000819050919050565b6000615d7082615c6b565b9050919050565b6000819050919050565b600060ff82169050919050565b6000615d9982615c6b565b90509190505600a265627a7a72305820b8f653bb9af966e747e13b421173abb84ec5699efa7ca9ff37a54bd02bda58456c6578706572696d656e74616cf50037",
  "source": "pragma solidity ^0.4.18;\npragma experimental ABIEncoderV2;\n\n/**\n * The CloversController is a replaceable endpoint for minting and unminting Clovers.sol and ClubToken.sol\n */\n\nimport \"./Reversi.sol\";\nimport \"./IClovers.sol\";\nimport \"./IClubToken.sol\";\nimport \"./ICloversController.sol\";\nimport \"./IClubTokenController.sol\";\nimport \"./ISimpleCloversMarket.sol\";\nimport \"zeppelin-solidity/contracts/ownership/HasNoTokens.sol\";\nimport \"zeppelin-solidity/contracts/ownership/HasNoEther.sol\";\nimport \"zeppelin-solidity/contracts/math/SafeMath.sol\";\n\n\ncontract CloversController is HasNoEther, HasNoTokens {\n    event cloverCommitted(bytes32 movesHash, address owner);\n    event cloverClaimed(bytes28[2] moves, uint256 tokenId, address owner, uint stake, uint reward, uint256 symmetries, bool keep);\n    event stakeRetrieved(uint256 tokenId, address owner, uint stake);\n    event cloverChallenged(bytes28[2] moves, uint256 tokenId, address owner, address challenger, uint stake);\n\n    using SafeMath for uint256;\n\n    address public oracle;\n    address public clovers;\n    address public clubToken;\n    address public clubTokenController;\n    address public simpleCloversMarket;\n    address public curationMarket;\n\n    uint256 public basePrice;\n    uint256 public priceMultiplier;\n    uint256 public payMultiplier;\n    uint256 public stakeAmount;\n    uint256 public stakePeriod;\n\n    struct Commit {\n        bool collected;\n        uint256 stake;\n        address committer;\n    }\n\n    mapping (bytes32 => Commit) public commits;\n\n    constructor(address _clovers, address _clubToken, address _clubTokenController) public {\n        clovers = _clovers;\n        clubToken = _clubToken;\n        clubTokenController = _clubTokenController;\n    }\n    /**\n    * @dev Gets the current stake of a Clover based on the hash of the moves.\n    * @param movesHash The hash of the moves that make up the clover.\n    * @return A uint256 value of stake.\n    */\n    function getStake(bytes32 movesHash) public view returns (uint256) {\n        return commits[movesHash].stake;\n    }\n    /**\n    * @dev Gets the address of the committer of a Clover based on the hash of the moves.\n    * @param movesHash The hash of the moves that make up the clover.\n    * @return The address of the committer.\n    */\n    function getCommit(bytes32 movesHash) public view returns (address) {\n        return commits[movesHash].committer;\n    }\n    /**\n    * @dev Gets the current staking period needed to verify a Clover.\n    * @param _tokenId The token Id of the clover.\n    * @return A uint256 value of stake period in seconds.\n    */\n    function getMovesHash(uint _tokenId) public constant returns (bytes32) {\n        return keccak256(IClovers(clovers).getCloverMoves(_tokenId));\n    }\n    /**\n    * @dev Checks whether the game is valid.\n    * @param moves The moves needed to play validate the game.\n    * @return A boolean representing whether or not the game is valid.\n    */\n    function isValid(bytes28[2] moves) public constant returns (bool) {\n        Reversi.Game memory game = Reversi.playGame(moves);\n        return isValidGame(game);\n    }\n\n    /**\n    * @dev Checks whether the game is valid.\n    * @param game The pre-played game.\n    * @return A boolean representing whether or not the game is valid.\n    */\n    function isValidGame(Reversi.Game game) public pure returns (bool) {\n        if (game.error) return false;\n        if (!game.complete) return false;\n        return true;\n    }\n    /**\n    * @dev Checks whether the game has passed the verification period.\n    * @param _tokenId The board being checked.\n    * @return A boolean representing whether or not the game has been verified.\n    */\n    function isVerified(uint256 _tokenId) public constant returns (bool) {\n        uint256 _blockMinted = IClovers(clovers).getBlockMinted(_tokenId);\n        if(_blockMinted == 0) return false;\n        return block.number.sub(_blockMinted) > stakePeriod;\n    }\n    /**\n    * @dev Calculates the reward of the board.\n    * @param _symmetries symmetries saved as a uint256 value like 00010101 where bits represent symmetry types.\n    * @return A uint256 representing the reward that would be returned for claiming the board.\n    */\n    function calculateReward(uint256 _symmetries) public constant returns (uint256) {\n        uint256 Symmetricals;\n        uint256 RotSym;\n        uint256 Y0Sym;\n        uint256 X0Sym;\n        uint256 XYSym;\n        uint256 XnYSym;\n        (Symmetricals,\n        RotSym,\n        Y0Sym,\n        X0Sym,\n        XYSym,\n        XnYSym) = IClovers(clovers).getAllSymmetries();\n        uint256 base = 0;\n        if (_symmetries >> 4 & 1 == 1) base = base.add(payMultiplier.mul(Symmetricals + 1).div(RotSym + 1));\n        if (_symmetries >> 3 & 1 == 1) base = base.add(payMultiplier.mul(Symmetricals + 1).div(Y0Sym + 1));\n        if (_symmetries >> 2 & 1 == 1) base = base.add(payMultiplier.mul(Symmetricals + 1).div(X0Sym + 1));\n        if (_symmetries >> 1 & 1 == 1) base = base.add(payMultiplier.mul(Symmetricals + 1).div(XYSym + 1));\n        if (_symmetries & 1 == 1) base = base.add(payMultiplier.mul(Symmetricals + 1).div(XnYSym + 1));\n        return base;\n    }\n\n/*\n    // NOTE: Disabled to reduce contract size\n    function instantClaimClover(bytes28[2] moves, bool _keep) public payable returns (bool) {\n        Reversi.Game memory game = Reversi.playGame(moves);\n        require(isValidGame(game));\n        uint256 tokenId = uint256(game.board);\n        require(IClovers(clovers).getBlockMinted(tokenId) == 0);\n        require(!IClovers(clovers).exists(tokenId));\n        IClovers(clovers).setBlockMinted(tokenId, block.number);\n        IClovers(clovers).setCloverMoves(tokenId, moves);\n\n        uint256 symmetries = Reversi.returnSymmetricals(game.RotSym, game.Y0Sym, game.X0Sym, game.XYSym, game.XnYSym);\n        uint256 reward;\n\n        if (uint256(symmetries) > 0) {\n            IClovers(clovers).setSymmetries(tokenId, uint256(symmetries));\n            reward = calculateReward(uint256(symmetries));\n            IClovers(clovers).setReward(tokenId, reward);\n        }\n        if (_keep) {\n            // If the user decides to keep the Clover, they must\n            // pay for it in club tokens according to the reward price.\n            if (IClubToken(clubToken).balanceOf(msg.sender) < reward) {\n                IClubTokenController(clubTokenController).buy(msg.sender); // msg.value needs to be enough to buy \"reward\" amount of Club Token\n            }\n            if (reward > 0) {\n                // IClubToken(clubToken).transferFrom(msg.sender, clubToken, reward); // if we'd rather keep the money\n                IClubToken(clubToken).burn(msg.sender, reward);\n            }\n            IClovers(clovers).mint(msg.sender, tokenId);\n        } else {\n            // If the user decides not to keep the Clover, they will\n            // receive the reward price in club tokens, and the clover will\n            // go for sale at 10x the reward price.\n            if (reward > 0) {\n                require(IClubToken(clubToken).mint(msg.sender, reward));\n            }\n            IClovers(clovers).mint(clovers, tokenId);\n        }\n\n    } */\n\n\n    /**\n    * @dev Claim the Clover without a commit or reveal. Payable so you can attach enough for the stake,\n    * as well as enough to buy tokens if needed to keep the Clover.\n    * @param moves The moves that make up the Clover reversi game.\n    * @param _tokenId The board that results from the moves.\n    * @param _symmetries symmetries saved as a uint256 value like 00010101 where bits represent symmetry\n    * types.\n    * @return A boolean representing whether or not the claim was successful.\n    */\n    function claimClover(bytes28[2] moves, uint256 _tokenId, uint256 _symmetries, bool _keep) public payable returns (bool) {\n        bytes32 movesHash = keccak256(moves);\n\n        require(msg.value >= stakeAmount);\n        require(getCommit(movesHash) == 0);\n\n        setCommit(movesHash, msg.sender);\n        if (stakeAmount > 0) {\n            setStake(movesHash, stakeAmount);\n            clovers.transfer(stakeAmount);\n        }\n\n        emit cloverCommitted(movesHash, msg.sender);\n\n        require(!IClovers(clovers).exists(_tokenId));\n        require(IClovers(clovers).getBlockMinted(_tokenId) == 0);\n\n        IClovers(clovers).setBlockMinted(_tokenId, block.number);\n        IClovers(clovers).setCloverMoves(_tokenId, moves);\n        IClovers(clovers).setKeep(_tokenId, _keep);\n\n        uint256 reward;\n        if (_symmetries > 0) {\n            IClovers(clovers).setSymmetries(_tokenId, _symmetries);\n            reward = calculateReward(_symmetries);\n            IClovers(clovers).setReward(_tokenId, reward);\n        }\n        uint256 price = basePrice.add(reward);\n        if (_keep && price > 0) {\n            // If the user decides to keep the Clover, they must\n            // pay for it in club tokens according to the reward price.\n            if (IClubToken(clubToken).balanceOf(msg.sender) < price) {\n                IClubTokenController(clubTokenController).buy(msg.sender);\n            }\n            IClubToken(clubToken).transferFrom(msg.sender, clovers, price);\n            /* IClubToken(clubToken).burn(committer, price); */\n        }\n        IClovers(clovers).mint(clovers, _tokenId);\n        emit cloverClaimed(moves, _tokenId, msg.sender, stakeAmount, reward, _symmetries, _keep);\n\n        return true;\n    }\n    /**\n    * @dev Commit the hash of the moves needed to claim the Clover. A stake should be\n    * made for counterfactual verification.\n    * @param movesHash The hash of the moves that makes up the Clover reversi\n    * game.\n    * @return A boolean representing whether or not the commit was successful.\n    NOTE: Disabled for contract size, if front running becomes a problem it can be\n    implemented with an upgrade\n    */\n    /* function claimCloverCommit(bytes32 movesHash) public payable returns (bool) {\n        require(msg.value <= stakeAmount);\n        require(getCommit(movesHash) == 0);\n\n        setCommit(movesHash, msg.sender);\n        setStake(movesHash, stakeAmount);\n\n        clovers.transfer(stakeAmount);\n\n        emit cloverCommitted(movesHash, msg.sender);\n        return true;\n    } */\n    /**\n    * @dev Reveal the solution to the previous commit to claim the Clover.\n    * @param moves The moves that make up the Clover reversi game.\n    * @param _tokenId The board that results from the moves.\n    * @param _symmetries symmetries saved as a uint256 value like 00010101 where bits represent symmetry types.\n    * @return A boolean representing whether or not the reveal and claim was successful.\n    NOTE: Disabled for contract size, if front running becomes a problem it can be implemented with an upgrade\n    */\n    /* function claimCloverReveal(bytes28[2] moves, uint256 _tokenId, uint256 _symmetries, bool _keep) public returns (bool) {\n        bytes32 movesHash = keccak256(moves);\n        address committer = getCommit(movesHash);\n\n        require(IClovers(clovers).getBlockMinted(_tokenId) == 0);\n\n        IClovers(clovers).setBlockMinted(_tokenId, block.number);\n        IClovers(clovers).setCloverMoves(_tokenId, moves);\n        IClovers(clovers).setKeep(_tokenId, _keep);\n        uint256 reward;\n        if (_symmetries > 0) {\n            IClovers(clovers).setSymmetries(_tokenId, _symmetries);\n            reward = calculateReward(_symmetries);\n            IClovers(clovers).setReward(_tokenId, reward);\n        }\n        if (_keep) {\n            IClubToken(clubToken).increaseApproval(address(this), basePrice.add(reward));\n        }\n        uint256 stake = getStake(movesHash);\n        emit cloverClaimed(moves, _tokenId, committer, stake, reward, _symmetries, _keep);\n        return true;\n    } */\n\n    /**\n    * @dev Retrieve the stake from a Clover claim after the stake period has ended, or with the authority of the oracle.\n    * @param _tokenId The board which holds the stake.\n    * @return A boolean representing whether or not the retrieval was successful.\n    */\n    function retrieveStake(uint256 _tokenId) public payable returns (bool) {\n        bytes28[2] memory moves = IClovers(clovers).getCloverMoves(_tokenId);\n        bytes32 movesHash = keccak256(moves);\n\n        require(!commits[movesHash].collected);\n        commits[movesHash].collected = true;\n\n        require(isVerified(_tokenId) || msg.sender == owner || msg.sender == oracle);\n\n        uint256 stake = getStake(movesHash);\n        addSymmetries(_tokenId);\n        address committer = getCommit(movesHash);\n        require(msg.sender == committer);\n\n        uint256 reward = IClovers(clovers).getReward(_tokenId);\n        bool _keep = IClovers(clovers).getKeep(_tokenId);\n\n        if (_keep) {\n            // If the user decided to keep the Clover, they will\n            // receive the clover now that it has been verified\n            IClovers(clovers).transferFrom(clovers, committer, _tokenId);\n        } else {\n            // If the user decided not to keep the Clover, they will\n            // receive the reward price in club tokens, and the clover will\n            // go for sale by the contract.\n            ISimpleCloversMarket(simpleCloversMarket).sell(_tokenId, basePrice.add(reward.mul(priceMultiplier)));\n            if (reward > 0) {\n                require(IClubToken(clubToken).mint(committer, reward));\n            }\n        }\n        if (stake > 0) {\n            IClovers(clovers).moveEth(committer, stake);\n        }\n        emit stakeRetrieved(_tokenId, committer, stake);\n        return true;\n    }\n\n\n    /**\n    * @dev Convert a bytes16 board into a uint256.\n    * @param _board The board being converted.\n    * @return number the uint256 being converted.\n    */\n    function convertBytes16ToUint(bytes16 _board) public view returns(uint256 number) {\n        for(uint i=0;i<_board.length;i++){\n            number = number + uint(_board[i])*(2**(8*(_board.length-(i+1))));\n        }\n    }\n\n    /**\n    * @dev Challenge a staked Clover for being invalid.\n    * @param _tokenId The board being challenged.\n    * @return A boolean representing whether or not the challenge was successful.\n    */\n    function challengeClover(uint256 _tokenId) public returns (bool) {\n        bool valid = true;\n        bytes28[2] memory moves = IClovers(clovers).getCloverMoves(_tokenId);\n\n        if (msg.sender != owner && msg.sender != oracle) {\n            Reversi.Game memory game = Reversi.playGame(moves);\n            if(convertBytes16ToUint(game.board) != _tokenId) {\n                valid = false;\n            }\n            if(valid && isValidGame(game)) {\n                uint256 _symmetries = IClovers(clovers).getSymmetries(_tokenId);\n                valid = (_symmetries >> 4 & 1) > 0 == game.RotSym ? valid : false;\n                valid = (_symmetries >> 3 & 1) > 0 == game.Y0Sym ? valid : false;\n                valid = (_symmetries >> 2 & 1) > 0 == game.X0Sym ? valid : false;\n                valid = (_symmetries >> 1 & 1) > 0 == game.XYSym ? valid : false;\n                valid = (_symmetries & 1) > 0 == game.XnYSym ? valid : false;\n            } else {\n                valid = false;\n            }\n            require(!valid);\n        }\n        bytes32 movesHash = keccak256(moves);\n        uint256 stake = getStake(movesHash);\n        if (!isVerified(_tokenId) && stake > 0) {\n            IClovers(clovers).moveEth(msg.sender, stake);\n        }\n        if (commits[movesHash].collected) {\n            removeSymmetries(_tokenId);\n        }\n\n        address committer = getCommit(movesHash);\n        emit cloverChallenged(moves, _tokenId, committer, msg.sender, stake);\n\n        IClovers(clovers).deleteClover(_tokenId);\n        deleteCommit(movesHash);\n        return true;\n    }\n\n\n    /**\n    * @dev Moves clovers without explicit allow permission for use by simpleCloversMarket\n    * in order to avoid double transaction (allow, transferFrom)\n    * @param _from The current owner of the Clover\n    * @param _to The future owner of the Clover\n    * @param _tokenId The Clover\n    */\n    function transferFrom(address _from, address _to, uint256 _tokenId) public {\n        require(msg.sender == simpleCloversMarket || msg.sender == curationMarket);\n        IClovers(clovers).transferFrom(_from, _to, _tokenId);\n    }\n\n    /**\n    * @dev Updates curationMarket Address.\n    * @param _curationMarket The new curationMarket Address.\n    */\n    function updateCurationMarket(address _curationMarket) public onlyOwner {\n        curationMarket = _curationMarket;\n    }\n    /**\n    * @dev Updates oracle Address.\n    * @param _oracle The new oracle Address.\n    */\n    function updateOracle(address _oracle) public onlyOwner {\n        oracle = _oracle;\n    }\n\n    /**\n    * @dev Updates simpleCloversMarket Address.\n    * @param _simpleCloversMarket The new simpleCloversMarket address.\n    */\n    function updateSimpleCloversMarket(address _simpleCloversMarket) public onlyOwner {\n        simpleCloversMarket = _simpleCloversMarket;\n    }\n\n    /**\n    * @dev Updates clubTokenController Address.\n    * @param _clubTokenController The new clubTokenController address.\n    */\n    function updateClubTokenController(address _clubTokenController) public onlyOwner {\n        clubTokenController = _clubTokenController;\n    }\n    /**\n    * @dev Updates the stake amount.\n    * @param _stakeAmount The new amount needed to stake.\n    */\n    function updateStakeAmount(uint256 _stakeAmount) public onlyOwner {\n        stakeAmount = _stakeAmount;\n    }\n    /**\n    * @dev Updates the stake period.\n    * @param _stakePeriod The uint256 value of time needed to stake before being verified.\n    */\n    function updateStakePeriod(uint256 _stakePeriod) public onlyOwner {\n        stakePeriod = _stakePeriod;\n    }\n    /**\n    * @dev Updates the pay multiplier, used to calculate token reward.\n    * @param _payMultiplier The uint256 value of pay multiplier.\n    */\n    function updatePayMultipier(uint256 _payMultiplier) public onlyOwner {\n        payMultiplier = _payMultiplier;\n    }\n    /**\n    * @dev Updates the price multiplier, used to calculate the clover price (multiplied by the original reward).\n    * @param _priceMultiplier The uint256 value of the price multiplier.\n    */\n    function updatePriceMultipier(uint256 _priceMultiplier) public onlyOwner {\n        priceMultiplier = _priceMultiplier;\n    }\n    /**\n    * @dev Updates the base price, used to calculate the clover cost.\n    * @param _basePrice The uint256 value of the base price.\n    */\n    function updateBasePrice(uint256 _basePrice) public onlyOwner {\n        basePrice = _basePrice;\n    }\n\n    /**\n    * @dev Sets the stake of a Clover based on the hash of the moves.\n    * @param movesHash The hash of the moves that make up the clover.\n    * @param stake A uint256 value of stake.\n    */\n    function setStake(bytes32 movesHash, uint256 stake) private {\n        commits[movesHash].stake = stake;\n    }\n\n    /**\n    * @dev Sets the address of the committer of a Clover based on the hash of the moves.\n    * @param movesHash The hash of the moves that make up the clover.\n    * @param committer The address of the committer.\n    */\n    function setCommit(bytes32 movesHash, address committer) private {\n        commits[movesHash].committer = committer;\n    }\n\n    function _setCommit(bytes32 movesHash, address committer) onlyOwner {\n        setCommit(movesHash, committer);\n    }\n    function deleteCommit(bytes32 movesHash) private {\n        delete(commits[movesHash]);\n    }\n\n    /**\n    * @dev Adds new tallys of the totals numbers of clover symmetries.\n    * @param _tokenId The token which needs to be examined.\n    */\n    function addSymmetries(uint256 _tokenId) private {\n        uint256 Symmetricals;\n        uint256 RotSym;\n        uint256 Y0Sym;\n        uint256 X0Sym;\n        uint256 XYSym;\n        uint256 XnYSym;\n        (Symmetricals,\n        RotSym,\n        Y0Sym,\n        X0Sym,\n        XYSym,\n        XnYSym) = IClovers(clovers).getAllSymmetries();\n        uint256 _symmetries = IClovers(clovers).getSymmetries(_tokenId);\n        Symmetricals = Symmetricals.add(_symmetries > 0 ? 1 : 0);\n        RotSym = RotSym.add(uint256(_symmetries >> 4 & 1));\n        Y0Sym = Y0Sym.add(uint256(_symmetries >> 3 & 1));\n        X0Sym = X0Sym.add(uint256(_symmetries >> 2 & 1));\n        XYSym = XYSym.add(uint256(_symmetries >> 1 & 1));\n        XnYSym = XnYSym.add(uint256(_symmetries & 1));\n        IClovers(clovers).setAllSymmetries(Symmetricals, RotSym, Y0Sym, X0Sym, XYSym, XnYSym);\n    }\n    /**\n    * @dev Remove false tallys of the totals numbers of clover symmetries.\n    * @param _tokenId The token which needs to be examined.\n    */\n    function removeSymmetries(uint256 _tokenId) private {\n        uint256 Symmetricals;\n        uint256 RotSym;\n        uint256 Y0Sym;\n        uint256 X0Sym;\n        uint256 XYSym;\n        uint256 XnYSym;\n        (Symmetricals,\n        RotSym,\n        Y0Sym,\n        X0Sym,\n        XYSym,\n        XnYSym) = IClovers(clovers).getAllSymmetries();\n        uint256 _symmetries = IClovers(clovers).getSymmetries(_tokenId);\n        Symmetricals = Symmetricals.sub(_symmetries > 0 ? 1 : 0);\n        RotSym = RotSym.sub(uint256(_symmetries >> 4 & 1));\n        Y0Sym = Y0Sym.sub(uint256(_symmetries >> 3 & 1));\n        X0Sym = X0Sym.sub(uint256(_symmetries >> 2 & 1));\n        XYSym = XYSym.sub(uint256(_symmetries >> 1 & 1));\n        XnYSym = XnYSym.sub(uint256(_symmetries & 1));\n        IClovers(clovers).setAllSymmetries(Symmetricals, RotSym, Y0Sym, X0Sym, XYSym, XnYSym);\n    }\n\n}\n",
  "sourcePath": "/Users/billy/clovers/clovers-contracts/contracts/CloversController.sol",
  "compiler": {
    "name": "solc",
    "version": "0.4.24+commit.e67f0147.Emscripten.clang"
  },
  "schemaVersion": "2.0.1",
  "updatedAt": "2018-08-04T09:51:31.706Z"
}