{
  "contractName": "CloversController",
  "abi": [
    {
      "constant": false,
      "inputs": [
        {
          "name": "token",
          "type": "address"
        }
      ],
      "name": "reclaimToken",
      "outputs": [],
      "payable": false,
      "stateMutability": "nonpayable",
      "type": "function"
    },
    {
      "constant": false,
      "inputs": [],
      "name": "renounceOwnership",
      "outputs": [],
      "payable": false,
      "stateMutability": "nonpayable",
      "type": "function"
    },
    {
      "constant": true,
      "inputs": [],
      "name": "owner",
      "outputs": [
        {
          "name": "",
          "type": "address"
        }
      ],
      "payable": false,
      "stateMutability": "view",
      "type": "function"
    },
    {
      "constant": false,
      "inputs": [],
      "name": "reclaimEther",
      "outputs": [],
      "payable": false,
      "stateMutability": "nonpayable",
      "type": "function"
    },
    {
      "constant": false,
      "inputs": [
        {
          "name": "from_",
          "type": "address"
        },
        {
          "name": "value_",
          "type": "uint256"
        },
        {
          "name": "data_",
          "type": "bytes"
        }
      ],
      "name": "tokenFallback",
      "outputs": [],
      "payable": false,
      "stateMutability": "nonpayable",
      "type": "function"
    },
    {
      "constant": false,
      "inputs": [
        {
          "name": "_newOwner",
          "type": "address"
        }
      ],
      "name": "transferOwnership",
      "outputs": [],
      "payable": false,
      "stateMutability": "nonpayable",
      "type": "function"
    },
    {
      "inputs": [
        {
          "name": "_clovers",
          "type": "address"
        },
        {
          "name": "_clubToken",
          "type": "address"
        }
      ],
      "payable": false,
      "stateMutability": "nonpayable",
      "type": "constructor"
    },
    {
      "payable": false,
      "stateMutability": "nonpayable",
      "type": "fallback"
    },
    {
      "anonymous": false,
      "inputs": [
        {
          "indexed": false,
          "name": "movesHash",
          "type": "bytes32"
        },
        {
          "indexed": false,
          "name": "owner",
          "type": "address"
        }
      ],
      "name": "cloverCommitted",
      "type": "event"
    },
    {
      "anonymous": false,
      "inputs": [
        {
          "indexed": false,
          "name": "moves",
          "type": "bytes28[2]"
        },
        {
          "indexed": false,
          "name": "tokenId",
          "type": "uint256"
        },
        {
          "indexed": false,
          "name": "owner",
          "type": "address"
        },
        {
          "indexed": false,
          "name": "stake",
          "type": "uint256"
        },
        {
          "indexed": false,
          "name": "reward",
          "type": "uint256"
        },
        {
          "indexed": false,
          "name": "symmetries",
          "type": "uint256"
        }
      ],
      "name": "cloverClaimed",
      "type": "event"
    },
    {
      "anonymous": false,
      "inputs": [
        {
          "indexed": false,
          "name": "tokenId",
          "type": "uint256"
        },
        {
          "indexed": false,
          "name": "owner",
          "type": "address"
        },
        {
          "indexed": false,
          "name": "stake",
          "type": "uint256"
        },
        {
          "indexed": false,
          "name": "reward",
          "type": "uint256"
        }
      ],
      "name": "stakeAndRewardRetrieved",
      "type": "event"
    },
    {
      "anonymous": false,
      "inputs": [
        {
          "indexed": false,
          "name": "moves",
          "type": "bytes28[2]"
        },
        {
          "indexed": false,
          "name": "tokenId",
          "type": "uint256"
        },
        {
          "indexed": false,
          "name": "owner",
          "type": "address"
        },
        {
          "indexed": false,
          "name": "challenger",
          "type": "address"
        },
        {
          "indexed": false,
          "name": "stake",
          "type": "uint256"
        }
      ],
      "name": "cloverChallenged",
      "type": "event"
    },
    {
      "anonymous": false,
      "inputs": [
        {
          "indexed": true,
          "name": "previousOwner",
          "type": "address"
        }
      ],
      "name": "OwnershipRenounced",
      "type": "event"
    },
    {
      "anonymous": false,
      "inputs": [
        {
          "indexed": true,
          "name": "previousOwner",
          "type": "address"
        },
        {
          "indexed": true,
          "name": "newOwner",
          "type": "address"
        }
      ],
      "name": "OwnershipTransferred",
      "type": "event"
    },
    {
      "constant": true,
      "inputs": [],
      "name": "currentStakeAmount",
      "outputs": [
        {
          "name": "",
          "type": "uint256"
        }
      ],
      "payable": false,
      "stateMutability": "view",
      "type": "function"
    },
    {
      "constant": true,
      "inputs": [],
      "name": "currentStakePeriod",
      "outputs": [
        {
          "name": "",
          "type": "uint256"
        }
      ],
      "payable": false,
      "stateMutability": "view",
      "type": "function"
    },
    {
      "constant": true,
      "inputs": [],
      "name": "getMultiplier",
      "outputs": [
        {
          "name": "",
          "type": "uint256"
        }
      ],
      "payable": false,
      "stateMutability": "view",
      "type": "function"
    },
    {
      "constant": true,
      "inputs": [
        {
          "name": "_tokenId",
          "type": "uint256"
        }
      ],
      "name": "getMovesHash",
      "outputs": [
        {
          "name": "",
          "type": "bytes32"
        }
      ],
      "payable": false,
      "stateMutability": "view",
      "type": "function"
    },
    {
      "constant": true,
      "inputs": [
        {
          "name": "moves",
          "type": "bytes28[2]"
        }
      ],
      "name": "isValid",
      "outputs": [
        {
          "name": "",
          "type": "bool"
        }
      ],
      "payable": false,
      "stateMutability": "view",
      "type": "function"
    },
    {
      "constant": true,
      "inputs": [
        {
          "components": [
            {
              "name": "error",
              "type": "bool"
            },
            {
              "name": "complete",
              "type": "bool"
            },
            {
              "name": "symmetrical",
              "type": "bool"
            },
            {
              "name": "RotSym",
              "type": "bool"
            },
            {
              "name": "Y0Sym",
              "type": "bool"
            },
            {
              "name": "X0Sym",
              "type": "bool"
            },
            {
              "name": "XYSym",
              "type": "bool"
            },
            {
              "name": "XnYSym",
              "type": "bool"
            },
            {
              "name": "board",
              "type": "bytes16"
            },
            {
              "name": "first32Moves",
              "type": "bytes28"
            },
            {
              "name": "lastMoves",
              "type": "bytes28"
            },
            {
              "name": "currentPlayer",
              "type": "uint8"
            },
            {
              "name": "moveKey",
              "type": "uint8"
            },
            {
              "name": "blackScore",
              "type": "uint8"
            },
            {
              "name": "whiteScore",
              "type": "uint8"
            }
          ],
          "name": "game",
          "type": "tuple"
        }
      ],
      "name": "isValidGame",
      "outputs": [
        {
          "name": "",
          "type": "bool"
        }
      ],
      "payable": false,
      "stateMutability": "pure",
      "type": "function"
    },
    {
      "constant": true,
      "inputs": [
        {
          "name": "_tokenId",
          "type": "uint256"
        }
      ],
      "name": "isVerified",
      "outputs": [
        {
          "name": "",
          "type": "bool"
        }
      ],
      "payable": false,
      "stateMutability": "view",
      "type": "function"
    },
    {
      "constant": true,
      "inputs": [
        {
          "name": "_symmetries",
          "type": "uint256"
        }
      ],
      "name": "calculateReward",
      "outputs": [
        {
          "name": "",
          "type": "uint256"
        }
      ],
      "payable": false,
      "stateMutability": "view",
      "type": "function"
    },
    {
      "constant": false,
      "inputs": [
        {
          "name": "moves",
          "type": "bytes28[2]"
        },
        {
          "name": "_tokenId",
          "type": "uint256"
        },
        {
          "name": "_symmetries",
          "type": "uint256"
        },
        {
          "name": "_to",
          "type": "address"
        }
      ],
      "name": "claimClover",
      "outputs": [
        {
          "name": "",
          "type": "bool"
        }
      ],
      "payable": true,
      "stateMutability": "payable",
      "type": "function"
    },
    {
      "constant": false,
      "inputs": [
        {
          "name": "movesHash",
          "type": "bytes32"
        },
        {
          "name": "_to",
          "type": "address"
        }
      ],
      "name": "claimCloverCommit",
      "outputs": [
        {
          "name": "",
          "type": "bool"
        }
      ],
      "payable": true,
      "stateMutability": "payable",
      "type": "function"
    },
    {
      "constant": false,
      "inputs": [
        {
          "name": "moves",
          "type": "bytes28[2]"
        },
        {
          "name": "_tokenId",
          "type": "uint256"
        },
        {
          "name": "_symmetries",
          "type": "uint256"
        }
      ],
      "name": "claimCloverReveal",
      "outputs": [
        {
          "name": "",
          "type": "bool"
        }
      ],
      "payable": false,
      "stateMutability": "nonpayable",
      "type": "function"
    },
    {
      "constant": false,
      "inputs": [
        {
          "name": "_tokenId",
          "type": "uint256"
        }
      ],
      "name": "retrieveStake",
      "outputs": [
        {
          "name": "",
          "type": "bool"
        }
      ],
      "payable": false,
      "stateMutability": "nonpayable",
      "type": "function"
    },
    {
      "constant": false,
      "inputs": [
        {
          "name": "_tokenId",
          "type": "uint256"
        },
        {
          "name": "_to",
          "type": "address"
        }
      ],
      "name": "challengeClover",
      "outputs": [
        {
          "name": "",
          "type": "bool"
        }
      ],
      "payable": false,
      "stateMutability": "nonpayable",
      "type": "function"
    },
    {
      "constant": false,
      "inputs": [
        {
          "name": "_stakeAmount",
          "type": "uint256"
        }
      ],
      "name": "updateStakeAmount",
      "outputs": [],
      "payable": false,
      "stateMutability": "nonpayable",
      "type": "function"
    },
    {
      "constant": false,
      "inputs": [
        {
          "name": "_stakePeriod",
          "type": "uint256"
        }
      ],
      "name": "updateStakePeriod",
      "outputs": [],
      "payable": false,
      "stateMutability": "nonpayable",
      "type": "function"
    },
    {
      "constant": false,
      "inputs": [
        {
          "name": "_payMultiplier",
          "type": "uint256"
        }
      ],
      "name": "updatePayMultipier",
      "outputs": [],
      "payable": false,
      "stateMutability": "nonpayable",
      "type": "function"
    }
  ],
  "bytecode": "0x60806040523480156200001157600080fd5b5060405160408062005b66833981018060405262000033919081019062000123565b336000806101000a81548173ffffffffffffffffffffffffffffffffffffffff021916908373ffffffffffffffffffffffffffffffffffffffff1602179055506000341415156200008357600080fd5b81600160006101000a81548173ffffffffffffffffffffffffffffffffffffffff021916908373ffffffffffffffffffffffffffffffffffffffff16021790555080600260006101000a81548173ffffffffffffffffffffffffffffffffffffffff021916908373ffffffffffffffffffffffffffffffffffffffff160217905550505062000184565b60006200011b825162000164565b905092915050565b600080604083850312156200013757600080fd5b600062000147858286016200010d565b92505060206200015a858286016200010d565b9150509250929050565b600073ffffffffffffffffffffffffffffffffffffffff82169050919050565b6159d280620001946000396000f300608060405260043610610128576000357c0100000000000000000000000000000000000000000000000000000000900463ffffffff168063038f13281461013757806317ffc32014610167578063271eff941461019057806332cda779146101cd57806335f71899146101f857806337b6d96b1461022857806340490a90146102655780635759f3f71461029057806358fcd4b6146102b95780636cb6b41f146102f6578063715018a6146103215780638a05aafa146103385780638da5cb5b146103615780639f727c271461038c578063acd37b7b146103a3578063c0ee0b8a146103e0578063c1fe551a14610409578063c90054ee14610446578063d09687f71461046f578063d2d7231f146104ac578063f2fde38b146104e9578063f8a68a5614610512575b34801561013457600080fd5b50005b610151600480360361014c91908101906151d9565b61054f565b60405161015e91906155c6565b60405180910390f35b34801561017357600080fd5b5061018e600480360361018991908101906152a1565b610c2b565b005b34801561019c57600080fd5b506101b760048036036101b29190810190615138565b610d81565b6040516101c491906155c6565b60405180910390f35b3480156101d957600080fd5b506101e2610da7565b6040516101ef91906156bb565b60405180910390f35b610212600480360361020d9190810190615265565b610db1565b60405161021f91906155c6565b60405180910390f35b34801561023457600080fd5b5061024f600480360361024a91908101906152f4565b6110db565b60405161025c91906155c6565b60405180910390f35b34801561027157600080fd5b5061027a6111cb565b60405161028791906156bb565b60405180910390f35b34801561029c57600080fd5b506102b760048036036102b291908101906152f4565b6111d5565b005b3480156102c557600080fd5b506102e060048036036102db919081019061518a565b61123a565b6040516102ed91906155c6565b60405180910390f35b34801561030257600080fd5b5061030b6118db565b60405161031891906156bb565b60405180910390f35b34801561032d57600080fd5b506103366118e5565b005b34801561034457600080fd5b5061035f600480360361035a91908101906152f4565b6119e7565b005b34801561036d57600080fd5b50610376611a4c565b60405161038391906154ce565b60405180910390f35b34801561039857600080fd5b506103a1611a71565b005b3480156103af57600080fd5b506103ca60048036036103c59190810190615346565b611b4d565b6040516103d791906155c6565b60405180910390f35b3480156103ec57600080fd5b50610407600480360361040291908101906150cc565b6123d4565b005b34801561041557600080fd5b50610430600480360361042b91908101906152f4565b6123d9565b60405161043d91906155c6565b60405180910390f35b34801561045257600080fd5b5061046d600480360361046891908101906152f4565b612a55565b005b34801561047b57600080fd5b50610496600480360361049191908101906152f4565b612aba565b6040516104a391906155e1565b60405180910390f35b3480156104b857600080fd5b506104d360048036036104ce91908101906152f4565b612bc8565b6040516104e091906156bb565b60405180910390f35b3480156104f557600080fd5b50610510600480360361050b919081019061507a565b612e5e565b005b34801561051e57600080fd5b50610539600480360361053491908101906152ca565b612ec5565b60405161054691906155c6565b60405180910390f35b6000806000806401000000000287600060028110151561056b57fe5b602002015163ffffffff19161415151561058457600080fd5b6004543414151561059457600080fd5b866040518082600260200280838360005b838110156105c05780820151818401526020810190506105a5565b5050505090500191505060405180910390209150600160009054906101000a900473ffffffffffffffffffffffffffffffffffffffff1673ffffffffffffffffffffffffffffffffffffffff16631dbd9d9183866040518363ffffffff167c010000000000000000000000000000000000000000000000000000000002815260040161064d9291906155fc565b600060405180830381600087803b15801561066757600080fd5b505af115801561067b573d6000803e3d6000fd5b50505050600160009054906101000a900473ffffffffffffffffffffffffffffffffffffffff1673ffffffffffffffffffffffffffffffffffffffff16633541fd53836004546040518363ffffffff167c01000000000000000000000000000000000000000000000000000000000281526004016106fa929190615677565b600060405180830381600087803b15801561071457600080fd5b505af1158015610728573d6000803e3d6000fd5b50505050600160009054906101000a900473ffffffffffffffffffffffffffffffffffffffff1673ffffffffffffffffffffffffffffffffffffffff166108fc6004549081150290604051600060405180830381858888f19350505050158015610796573d6000803e3d6000fd5b506000600160009054906101000a900473ffffffffffffffffffffffffffffffffffffffff1673ffffffffffffffffffffffffffffffffffffffff166303a53d6b886040518263ffffffff167c010000000000000000000000000000000000000000000000000000000002815260040161081091906156bb565b602060405180830381600087803b15801561082a57600080fd5b505af115801561083e573d6000803e3d6000fd5b505050506040513d601f19601f82011682018060405250610862919081019061531d565b14151561086e57600080fd5b600160009054906101000a900473ffffffffffffffffffffffffffffffffffffffff1673ffffffffffffffffffffffffffffffffffffffff1663e3100d1e87436040518363ffffffff167c01000000000000000000000000000000000000000000000000000000000281526004016108e7929190615744565b600060405180830381600087803b15801561090157600080fd5b505af1158015610915573d6000803e3d6000fd5b50505050600160009054906101000a900473ffffffffffffffffffffffffffffffffffffffff1673ffffffffffffffffffffffffffffffffffffffff16630b62839587896040518363ffffffff167c010000000000000000000000000000000000000000000000000000000002815260040161099292919061571b565b600060405180830381600087803b1580156109ac57600080fd5b505af11580156109c0573d6000803e3d6000fd5b505050506000851115610b2f57600160009054906101000a900473ffffffffffffffffffffffffffffffffffffffff1673ffffffffffffffffffffffffffffffffffffffff1663dc3f775887876040518363ffffffff167c0100000000000000000000000000000000000000000000000000000000028152600401610a46929190615744565b600060405180830381600087803b158015610a6057600080fd5b505af1158015610a74573d6000803e3d6000fd5b50505050610a8185612bc8565b9050600160009054906101000a900473ffffffffffffffffffffffffffffffffffffffff1673ffffffffffffffffffffffffffffffffffffffff1663a47bd49687836040518363ffffffff167c0100000000000000000000000000000000000000000000000000000000028152600401610afc929190615744565b600060405180830381600087803b158015610b1657600080fd5b505af1158015610b2a573d6000803e3d6000fd5b505050505b600160009054906101000a900473ffffffffffffffffffffffffffffffffffffffff1673ffffffffffffffffffffffffffffffffffffffff166340c10f1985886040518363ffffffff167c0100000000000000000000000000000000000000000000000000000000028152600401610ba89291906154e9565b600060405180830381600087803b158015610bc257600080fd5b505af1158015610bd6573d6000803e3d6000fd5b505050507f9e2bcf76790c190a87d6418084ca9f7d35a8166a4acbecc10088b106360fd38b878786600454858a604051610c1596959493929190615565565b60405180910390a1600192505050949350505050565b60008060009054906101000a900473ffffffffffffffffffffffffffffffffffffffff1673ffffffffffffffffffffffffffffffffffffffff163373ffffffffffffffffffffffffffffffffffffffff16141515610c8857600080fd5b8173ffffffffffffffffffffffffffffffffffffffff166370a08231306040518263ffffffff167c0100000000000000000000000000000000000000000000000000000000028152600401610cdd91906156a0565b602060405180830381600087803b158015610cf757600080fd5b505af1158015610d0b573d6000803e3d6000fd5b505050506040513d601f19601f82011682018060405250610d2f919081019061531d565b9050610d7d6000809054906101000a900473ffffffffffffffffffffffffffffffffffffffff16828473ffffffffffffffffffffffffffffffffffffffff16612ef89092919063ffffffff16565b5050565b6000610d8b614b36565b610d9483612fb1565b9050610d9f81612ec5565b915050919050565b6000600554905090565b6000808273ffffffffffffffffffffffffffffffffffffffff1614151515610dd857600080fd5b60045434141515610de857600080fd5b6000600160009054906101000a900473ffffffffffffffffffffffffffffffffffffffff1673ffffffffffffffffffffffffffffffffffffffff16638784ea96856040518263ffffffff167c0100000000000000000000000000000000000000000000000000000000028152600401610e6191906155e1565b602060405180830381600087803b158015610e7b57600080fd5b505af1158015610e8f573d6000803e3d6000fd5b505050506040513d601f19601f82011682018060405250610eb391908101906150a3565b73ffffffffffffffffffffffffffffffffffffffff16141515610ed557600080fd5b600160009054906101000a900473ffffffffffffffffffffffffffffffffffffffff1673ffffffffffffffffffffffffffffffffffffffff16631dbd9d9184846040518363ffffffff167c0100000000000000000000000000000000000000000000000000000000028152600401610f4e9291906155fc565b600060405180830381600087803b158015610f6857600080fd5b505af1158015610f7c573d6000803e3d6000fd5b50505050600160009054906101000a900473ffffffffffffffffffffffffffffffffffffffff1673ffffffffffffffffffffffffffffffffffffffff16633541fd53846004546040518363ffffffff167c0100000000000000000000000000000000000000000000000000000000028152600401610ffb929190615677565b600060405180830381600087803b15801561101557600080fd5b505af1158015611029573d6000803e3d6000fd5b50505050600160009054906101000a900473ffffffffffffffffffffffffffffffffffffffff1673ffffffffffffffffffffffffffffffffffffffff166108fc6004549081150290604051600060405180830381858888f19350505050158015611097573d6000803e3d6000fd5b507f4c0f83654ac2972673e4d81058f833de298389df1dce04cc2db9f231b907d5ff83836040516110c99291906155fc565b60405180910390a16001905092915050565b600080600160009054906101000a900473ffffffffffffffffffffffffffffffffffffffff1673ffffffffffffffffffffffffffffffffffffffff166303a53d6b846040518263ffffffff167c010000000000000000000000000000000000000000000000000000000002815260040161115591906156bb565b602060405180830381600087803b15801561116f57600080fd5b505af1158015611183573d6000803e3d6000fd5b505050506040513d601f19601f820116820180604052506111a7919081019061531d565b905060008114156111bb57600091506111c5565b6005548143031191505b50919050565b6000600354905090565b6000809054906101000a900473ffffffffffffffffffffffffffffffffffffffff1673ffffffffffffffffffffffffffffffffffffffff163373ffffffffffffffffffffffffffffffffffffffff1614151561123057600080fd5b8060058190555050565b6000806000806000806401000000000288600060028110151561125957fe5b602002015163ffffffff19161415151561127257600080fd5b876040518082600260200280838360005b8381101561129e578082015181840152602081019050611283565b5050505090500191505060405180910390209350600160009054906101000a900473ffffffffffffffffffffffffffffffffffffffff1673ffffffffffffffffffffffffffffffffffffffff16638784ea96856040518263ffffffff167c010000000000000000000000000000000000000000000000000000000002815260040161132991906155e1565b602060405180830381600087803b15801561134357600080fd5b505af1158015611357573d6000803e3d6000fd5b505050506040513d601f19601f8201168201806040525061137b91908101906150a3565b92506000600160009054906101000a900473ffffffffffffffffffffffffffffffffffffffff1673ffffffffffffffffffffffffffffffffffffffff166303a53d6b896040518263ffffffff167c01000000000000000000000000000000000000000000000000000000000281526004016113f691906156bb565b602060405180830381600087803b15801561141057600080fd5b505af1158015611424573d6000803e3d6000fd5b505050506040513d601f19601f82011682018060405250611448919081019061531d565b14151561145457600080fd5b600160009054906101000a900473ffffffffffffffffffffffffffffffffffffffff1673ffffffffffffffffffffffffffffffffffffffff1663e3100d1e88436040518363ffffffff167c01000000000000000000000000000000000000000000000000000000000281526004016114cd929190615744565b600060405180830381600087803b1580156114e757600080fd5b505af11580156114fb573d6000803e3d6000fd5b50505050600160009054906101000a900473ffffffffffffffffffffffffffffffffffffffff1673ffffffffffffffffffffffffffffffffffffffff16630b628395888a6040518363ffffffff167c010000000000000000000000000000000000000000000000000000000002815260040161157892919061571b565b600060405180830381600087803b15801561159257600080fd5b505af11580156115a6573d6000803e3d6000fd5b50505050600086111561171557600160009054906101000a900473ffffffffffffffffffffffffffffffffffffffff1673ffffffffffffffffffffffffffffffffffffffff1663dc3f775888886040518363ffffffff167c010000000000000000000000000000000000000000000000000000000002815260040161162c929190615744565b600060405180830381600087803b15801561164657600080fd5b505af115801561165a573d6000803e3d6000fd5b5050505061166786612bc8565b9150600160009054906101000a900473ffffffffffffffffffffffffffffffffffffffff1673ffffffffffffffffffffffffffffffffffffffff1663a47bd49688846040518363ffffffff167c01000000000000000000000000000000000000000000000000000000000281526004016116e2929190615744565b600060405180830381600087803b1580156116fc57600080fd5b505af1158015611710573d6000803e3d6000fd5b505050505b600160009054906101000a900473ffffffffffffffffffffffffffffffffffffffff1673ffffffffffffffffffffffffffffffffffffffff166340c10f1984896040518363ffffffff167c010000000000000000000000000000000000000000000000000000000002815260040161178e9291906154e9565b600060405180830381600087803b1580156117a857600080fd5b505af11580156117bc573d6000803e3d6000fd5b50505050600160009054906101000a900473ffffffffffffffffffffffffffffffffffffffff1673ffffffffffffffffffffffffffffffffffffffff1663e765c122856040518263ffffffff167c010000000000000000000000000000000000000000000000000000000002815260040161183791906155e1565b602060405180830381600087803b15801561185157600080fd5b505af1158015611865573d6000803e3d6000fd5b505050506040513d601f19601f82011682018060405250611889919081019061531d565b90507f9e2bcf76790c190a87d6418084ca9f7d35a8166a4acbecc10088b106360fd38b88888584868b6040516118c496959493929190615565565b60405180910390a160019450505050509392505050565b6000600454905090565b6000809054906101000a900473ffffffffffffffffffffffffffffffffffffffff1673ffffffffffffffffffffffffffffffffffffffff163373ffffffffffffffffffffffffffffffffffffffff1614151561194057600080fd5b6000809054906101000a900473ffffffffffffffffffffffffffffffffffffffff1673ffffffffffffffffffffffffffffffffffffffff167ff8df31144d9c2f0f6b59d69b8b98abd5459d07f2742c4df920b25aae33c6482060405160405180910390a260008060006101000a81548173ffffffffffffffffffffffffffffffffffffffff021916908373ffffffffffffffffffffffffffffffffffffffff160217905550565b6000809054906101000a900473ffffffffffffffffffffffffffffffffffffffff1673ffffffffffffffffffffffffffffffffffffffff163373ffffffffffffffffffffffffffffffffffffffff16141515611a4257600080fd5b8060038190555050565b6000809054906101000a900473ffffffffffffffffffffffffffffffffffffffff1681565b6000809054906101000a900473ffffffffffffffffffffffffffffffffffffffff1673ffffffffffffffffffffffffffffffffffffffff163373ffffffffffffffffffffffffffffffffffffffff16141515611acc57600080fd5b6000809054906101000a900473ffffffffffffffffffffffffffffffffffffffff1673ffffffffffffffffffffffffffffffffffffffff166108fc3073ffffffffffffffffffffffffffffffffffffffff16319081150290604051600060405180830381858888f19350505050158015611b4a573d6000803e3d6000fd5b50565b600080611b58614bea565b611b60614b36565b60008060008060019650600160009054906101000a900473ffffffffffffffffffffffffffffffffffffffff1673ffffffffffffffffffffffffffffffffffffffff166362f9acf98b6040518263ffffffff167c0100000000000000000000000000000000000000000000000000000000028152600401611be191906156bb565b6040805180830381600087803b158015611bfa57600080fd5b505af1158015611c0e573d6000803e3d6000fd5b505050506040513d601f19601f82011682018060405250611c329190810190615161565b9550600064010000000002866000600281101515611c4c57fe5b602002015163ffffffff191614151515611c6557600080fd5b611c6e86612fb1565b9450611c7985612ec5565b15611e0d57600160009054906101000a900473ffffffffffffffffffffffffffffffffffffffff1673ffffffffffffffffffffffffffffffffffffffff1663c53b4bf98b6040518263ffffffff167c0100000000000000000000000000000000000000000000000000000000028152600401611cf591906156bb565b602060405180830381600087803b158015611d0f57600080fd5b505af1158015611d23573d6000803e3d6000fd5b505050506040513d601f19601f82011682018060405250611d47919081019061531d565b935084606001511515600060016004879060020a90041611151514611d6d576000611d6f565b865b965084608001511515600060016003879060020a90041611151514611d95576000611d97565b865b96508460a001511515600060016002879060020a90041611151514611dbd576000611dbf565b865b96508460c0015115156000600180879060020a90041611151514611de4576000611de6565b865b96508460e00151151560006001861611151514611e04576000611e06565b865b9650611e12565b600096505b86151515611e1f57600080fd5b600160009054906101000a900473ffffffffffffffffffffffffffffffffffffffff1673ffffffffffffffffffffffffffffffffffffffff16630e8310d68b6040518263ffffffff167c0100000000000000000000000000000000000000000000000000000000028152600401611e9691906156bb565b600060405180830381600087803b158015611eb057600080fd5b505af1158015611ec4573d6000803e3d6000fd5b50505050856040518082600260200280838360005b83811015611ef4578082015181840152602081019050611ed9565b5050505090500191505060405180910390209250611f118a6110db565b15156120af57600160009054906101000a900473ffffffffffffffffffffffffffffffffffffffff1673ffffffffffffffffffffffffffffffffffffffff1663e765c122846040518263ffffffff167c0100000000000000000000000000000000000000000000000000000000028152600401611f8e91906155e1565b602060405180830381600087803b158015611fa857600080fd5b505af1158015611fbc573d6000803e3d6000fd5b505050506040513d601f19601f82011682018060405250611fe0919081019061531d565b9150600160009054906101000a900473ffffffffffffffffffffffffffffffffffffffff1673ffffffffffffffffffffffffffffffffffffffff16631cc1472d8a846040518363ffffffff167c010000000000000000000000000000000000000000000000000000000002815260040161205b9291906154e9565b602060405180830381600087803b15801561207557600080fd5b505af1158015612089573d6000803e3d6000fd5b505050506040513d601f19601f820116820180604052506120ad919081019061523c565b505b600160009054906101000a900473ffffffffffffffffffffffffffffffffffffffff1673ffffffffffffffffffffffffffffffffffffffff166364e779b18b6040518263ffffffff167c010000000000000000000000000000000000000000000000000000000002815260040161212691906156bb565b600060405180830381600087803b15801561214057600080fd5b505af1158015612154573d6000803e3d6000fd5b50505050600160009054906101000a900473ffffffffffffffffffffffffffffffffffffffff1673ffffffffffffffffffffffffffffffffffffffff16631dbd9d918460006040518363ffffffff167c01000000000000000000000000000000000000000000000000000000000281526004016121d2929190615625565b600060405180830381600087803b1580156121ec57600080fd5b505af1158015612200573d6000803e3d6000fd5b50505050600160009054906101000a900473ffffffffffffffffffffffffffffffffffffffff1673ffffffffffffffffffffffffffffffffffffffff16633541fd538460006040518363ffffffff167c010000000000000000000000000000000000000000000000000000000002815260040161227e92919061564e565b600060405180830381600087803b15801561229857600080fd5b505af11580156122ac573d6000803e3d6000fd5b505050506122b98a6132f5565b600160009054906101000a900473ffffffffffffffffffffffffffffffffffffffff1673ffffffffffffffffffffffffffffffffffffffff16638784ea96846040518263ffffffff167c010000000000000000000000000000000000000000000000000000000002815260040161233091906155e1565b602060405180830381600087803b15801561234a57600080fd5b505af115801561235e573d6000803e3d6000fd5b505050506040513d601f19601f8201168201806040525061238291908101906150a3565b90507f23e709ab80a4bee9454ba0d08c0b669d684531b4ec766524c43abd788cc3ca76868b838c866040516123bb959493929190615512565b60405180910390a1600197505050505050505092915050565b600080fd5b60006123e3614bea565b600080600080600160009054906101000a900473ffffffffffffffffffffffffffffffffffffffff1673ffffffffffffffffffffffffffffffffffffffff166362f9acf9886040518263ffffffff167c010000000000000000000000000000000000000000000000000000000002815260040161246091906156bb565b6040805180830381600087803b15801561247957600080fd5b505af115801561248d573d6000803e3d6000fd5b505050506040513d601f19601f820116820180604052506124b19190810190615161565b94506000640100000000028560006002811015156124cb57fe5b602002015163ffffffff1916141515156124e457600080fd5b846040518082600260200280838360005b838110156125105780820151818401526020810190506124f5565b5050505090500191505060405180910390209350600160009054906101000a900473ffffffffffffffffffffffffffffffffffffffff1673ffffffffffffffffffffffffffffffffffffffff1663e765c122856040518263ffffffff167c010000000000000000000000000000000000000000000000000000000002815260040161259b91906155e1565b602060405180830381600087803b1580156125b557600080fd5b505af11580156125c9573d6000803e3d6000fd5b505050506040513d601f19601f820116820180604052506125ed919081019061531d565b9250600083141515156125ff57600080fd5b612608876110db565b151561261357600080fd5b600160009054906101000a900473ffffffffffffffffffffffffffffffffffffffff1673ffffffffffffffffffffffffffffffffffffffff16633541fd538560006040518363ffffffff167c010000000000000000000000000000000000000000000000000000000002815260040161268d92919061564e565b600060405180830381600087803b1580156126a757600080fd5b505af11580156126bb573d6000803e3d6000fd5b505050506126c88761361e565b600160009054906101000a900473ffffffffffffffffffffffffffffffffffffffff1673ffffffffffffffffffffffffffffffffffffffff16638784ea96856040518263ffffffff167c010000000000000000000000000000000000000000000000000000000002815260040161273f91906155e1565b602060405180830381600087803b15801561275957600080fd5b505af115801561276d573d6000803e3d6000fd5b505050506040513d601f19601f8201168201806040525061279191908101906150a3565b9150600160009054906101000a900473ffffffffffffffffffffffffffffffffffffffff1673ffffffffffffffffffffffffffffffffffffffff16631c4b774b886040518263ffffffff167c010000000000000000000000000000000000000000000000000000000002815260040161280a91906156bb565b602060405180830381600087803b15801561282457600080fd5b505af1158015612838573d6000803e3d6000fd5b505050506040513d601f19601f8201168201806040525061285c919081019061531d565b9050600260009054906101000a900473ffffffffffffffffffffffffffffffffffffffff1673ffffffffffffffffffffffffffffffffffffffff166340c10f1983836040518363ffffffff167c01000000000000000000000000000000000000000000000000000000000281526004016128d79291906154e9565b602060405180830381600087803b1580156128f157600080fd5b505af1158015612905573d6000803e3d6000fd5b505050506040513d601f19601f82011682018060405250612929919081019061523c565b151561293457600080fd5b600160009054906101000a900473ffffffffffffffffffffffffffffffffffffffff1673ffffffffffffffffffffffffffffffffffffffff16631cc1472d83856040518363ffffffff167c01000000000000000000000000000000000000000000000000000000000281526004016129ad9291906154e9565b602060405180830381600087803b1580156129c757600080fd5b505af11580156129db573d6000803e3d6000fd5b505050506040513d601f19601f820116820180604052506129ff919081019061523c565b1515612a0a57600080fd5b7f0f6fbbd692b7cc84f71dd9524d2324b1a22fcc80e825463499f3cfb51b149c1387838584604051612a3f94939291906156d6565b60405180910390a1600195505050505050919050565b6000809054906101000a900473ffffffffffffffffffffffffffffffffffffffff1673ffffffffffffffffffffffffffffffffffffffff163373ffffffffffffffffffffffffffffffffffffffff16141515612ab057600080fd5b8060048190555050565b6000600160009054906101000a900473ffffffffffffffffffffffffffffffffffffffff1673ffffffffffffffffffffffffffffffffffffffff166362f9acf9836040518263ffffffff167c0100000000000000000000000000000000000000000000000000000000028152600401612b3391906156bb565b6040805180830381600087803b158015612b4c57600080fd5b505af1158015612b60573d6000803e3d6000fd5b505050506040513d601f19601f82011682018060405250612b849190810190615161565b6040518082600260200280838360005b83811015612baf578082015181840152602081019050612b94565b5050505090500191505060405180910390209050919050565b600080600080600080600080600160009054906101000a900473ffffffffffffffffffffffffffffffffffffffff1673ffffffffffffffffffffffffffffffffffffffff1663785d8d716040518163ffffffff167c010000000000000000000000000000000000000000000000000000000002815260040160c060405180830381600087803b158015612c5a57600080fd5b505af1158015612c6e573d6000803e3d6000fd5b505050506040513d601f19601f82011682018060405250612c929190810190615382565b809750819850829950839a50849b50859c505050505050506000905060018060048b9060020a9004161415612d0357612d00612cf160018801612ce360018b0160035461394790919063ffffffff16565b61397f90919063ffffffff16565b8261399590919063ffffffff16565b90505b60018060038b9060020a9004161415612d5857612d55612d4660018701612d3860018b0160035461394790919063ffffffff16565b61397f90919063ffffffff16565b8261399590919063ffffffff16565b90505b60018060028b9060020a9004161415612dad57612daa612d9b60018601612d8d60018b0160035461394790919063ffffffff16565b61397f90919063ffffffff16565b8261399590919063ffffffff16565b90505b60018060018b9060020a9004161415612e0257612dff612df060018501612de260018b0160035461394790919063ffffffff16565b61397f90919063ffffffff16565b8261399590919063ffffffff16565b90505b6001808a161415612e4f57612e4c612e3d60018401612e2f60018b0160035461394790919063ffffffff16565b61397f90919063ffffffff16565b8261399590919063ffffffff16565b90505b80975050505050505050919050565b6000809054906101000a900473ffffffffffffffffffffffffffffffffffffffff1673ffffffffffffffffffffffffffffffffffffffff163373ffffffffffffffffffffffffffffffffffffffff16141515612eb957600080fd5b612ec2816139b1565b50565b6000816000015115612eda5760009050612ef3565b81602001511515612eee5760009050612ef3565b600190505b919050565b8273ffffffffffffffffffffffffffffffffffffffff1663a9059cbb83836040518363ffffffff167c0100000000000000000000000000000000000000000000000000000000028152600401612f4f9291906154e9565b602060405180830381600087803b158015612f6957600080fd5b505af1158015612f7d573d6000803e3d6000fd5b505050506040513d601f19601f82011682018060405250612fa1919081019061523c565b1515612fac57600080fd5b505050565b612fb9614b36565b612fc1614b36565b600080600080600080886000600281101515612fd957fe5b602002015187610120019063ffffffff1916908163ffffffff19168152505088600160028110151561300757fe5b602002015187610140019063ffffffff1916908163ffffffff191681525050600087610180019060ff16908160ff16815250506002876101a0019060ff16908160ff16815250506002876101c0019060ff16908160ff168152505060008760000190151590811515815250506000876020019015159081151581525050600187610160019060ff16908160ff16815250506ffffffffffffffe7ffdbfffffffffffff700100000000000000000000000000000000028761010001906fffffffffffffffffffffffffffffffff191690816fffffffffffffffffffffffffffffffff191681525050600091505b603c8260ff16108015613104575085155b156132b357602087610180015160ff16106131245786610140015161312b565b8661012001515b905061314d81602089610180015160ff1681151561314557fe5b066020613aab565b945061315885613aef565b809450819550505061316985613b2e565b15955060008260ff16148015613192575060028460ff16141580613191575060038360ff1614155b5b156131ad576001955060018760000190151590811515815250505b851580156131be575060088460ff16105b80156131cd575060088360ff16105b80156131dd575060008460ff1610155b80156131ed575060008360ff1610155b156132a6576131fd878585613b3f565b965060018761018001510187610180019060ff16908160ff16815250508660000151156132a5576000876000019015159081151581525050600160ff1687610160015160ff16141561326257600287610160019060ff16908160ff1681525050613277565b600187610160019060ff16908160ff16815250505b613282878585613b3f565b96508660000151156132a4576001876000019015159081151581525050600195505b5b5b81806001019250506130f3565b866000015115156132e65760008760000190151590811515815250506132d887613e41565b96506132e387614180565b96505b86975050505050505050919050565b6000806000806000806000600160009054906101000a900473ffffffffffffffffffffffffffffffffffffffff1673ffffffffffffffffffffffffffffffffffffffff1663785d8d716040518163ffffffff167c010000000000000000000000000000000000000000000000000000000002815260040160c060405180830381600087803b15801561338657600080fd5b505af115801561339a573d6000803e3d6000fd5b505050506040513d601f19601f820116820180604052506133be9190810190615382565b809750819850829950839a50849b50859c50505050505050600160009054906101000a900473ffffffffffffffffffffffffffffffffffffffff1673ffffffffffffffffffffffffffffffffffffffff1663c53b4bf9896040518263ffffffff167c010000000000000000000000000000000000000000000000000000000002815260040161344d91906156bb565b602060405180830381600087803b15801561346757600080fd5b505af115801561347b573d6000803e3d6000fd5b505050506040513d601f19601f8201168201806040525061349f919081019061531d565b90506134c8600082116134b35760006134b6565b60015b60ff168861447890919063ffffffff16565b96506134e860016004839060020a9004168761447890919063ffffffff16565b955061350860016003839060020a9004168661447890919063ffffffff16565b945061352860016002839060020a9004168561447890919063ffffffff16565b9350613547600180839060020a9004168461447890919063ffffffff16565b925061355f600182168361447890919063ffffffff16565b9150600160009054906101000a900473ffffffffffffffffffffffffffffffffffffffff1673ffffffffffffffffffffffffffffffffffffffff16638b1b2ba88888888888886040518763ffffffff167c01000000000000000000000000000000000000000000000000000000000281526004016135e29695949392919061576d565b600060405180830381600087803b1580156135fc57600080fd5b505af1158015613610573d6000803e3d6000fd5b505050505050505050505050565b6000806000806000806000600160009054906101000a900473ffffffffffffffffffffffffffffffffffffffff1673ffffffffffffffffffffffffffffffffffffffff1663785d8d716040518163ffffffff167c010000000000000000000000000000000000000000000000000000000002815260040160c060405180830381600087803b1580156136af57600080fd5b505af11580156136c3573d6000803e3d6000fd5b505050506040513d601f19601f820116820180604052506136e79190810190615382565b809750819850829950839a50849b50859c50505050505050600160009054906101000a900473ffffffffffffffffffffffffffffffffffffffff1673ffffffffffffffffffffffffffffffffffffffff1663c53b4bf9896040518263ffffffff167c010000000000000000000000000000000000000000000000000000000002815260040161377691906156bb565b602060405180830381600087803b15801561379057600080fd5b505af11580156137a4573d6000803e3d6000fd5b505050506040513d601f19601f820116820180604052506137c8919081019061531d565b90506137f1600082116137dc5760006137df565b60015b60ff168861399590919063ffffffff16565b965061381160016004839060020a9004168761399590919063ffffffff16565b955061383160016003839060020a9004168661399590919063ffffffff16565b945061385160016002839060020a9004168561399590919063ffffffff16565b9350613870600180839060020a9004168461399590919063ffffffff16565b9250613888600182168361399590919063ffffffff16565b9150600160009054906101000a900473ffffffffffffffffffffffffffffffffffffffff1673ffffffffffffffffffffffffffffffffffffffff16638b1b2ba88888888888886040518763ffffffff167c010000000000000000000000000000000000000000000000000000000002815260040161390b9695949392919061576d565b600060405180830381600087803b15801561392557600080fd5b505af1158015613939573d6000803e3d6000fd5b505050505050505050505050565b60008083141561395a5760009050613979565b818302905081838281151561396b57fe5b0414151561397557fe5b8090505b92915050565b6000818381151561398c57fe5b04905092915050565b600081830190508281101515156139a857fe5b80905092915050565b600073ffffffffffffffffffffffffffffffffffffffff168173ffffffffffffffffffffffffffffffffffffffff16141515156139ed57600080fd5b8073ffffffffffffffffffffffffffffffffffffffff166000809054906101000a900473ffffffffffffffffffffffffffffffffffffffff1673ffffffffffffffffffffffffffffffffffffffff167f8be0079c531659141344cd1fd0a4f28419497f9722a3daafe3b4186f6b6457e060405160405180910390a3806000806101000a81548173ffffffffffffffffffffffffffffffffffffffff021916908373ffffffffffffffffffffffffffffffffffffffff16021790555050565b6000806000607f64010000000002915060078086026007860203039050818160ff168763ffffffff19169060020a9004166401000000009004925050509392505050565b60008060008060408503945060088560ff16811515613b0a57fe5b069150600882860360ff16811515613b1e57fe5b0490508181935093505050915091565b600060408260ff1610159050919050565b613b47614b36565b613b4f614c0c565b600080600080600080600080600360ff16613b708e61010001518e8e614491565b60ff16141515613b935760018d60000190151590811515815250508c9950613e31565b613b9e8d8d8d614507565b809950819a50505060008860ff161415613bcb5760018d60000190151590811515815250508c9950613e31565b60009150600090505b8760ff168160ff161015613d31576000965060009550613c0b8d8a8360ff16600881101515613bff57fe5b60200201518e8e614846565b8097508198505050600092505b8560ff168360ff161015613d2457811515613c3257600191505b613c45613c40888589613aab565b613aef565b8095508196505050613c638d61010001518e610160015187876149aa565b8d61010001906fffffffffffffffffffffffffffffffff191690816fffffffffffffffffffffffffffffffff191681525050600260ff168d610160015160ff161415613ce25760018d6101c0018181510191509060ff16908160ff168152505060018d6101a0018181510391509060ff16908160ff1681525050613d17565b60018d6101c0018181510391509060ff16908160ff168152505060018d6101a0018181510191509060ff16908160ff16815250505b8280600101935050613c18565b8080600101915050613bd4565b8115613dd257613d4d8d61010001518e61016001518e8e6149aa565b8d61010001906fffffffffffffffffffffffffffffffff191690816fffffffffffffffffffffffffffffffff191681525050600260ff168d610160015160ff161415613db25760018d6101c0018181510191509060ff16908160ff1681525050613dcd565b60018d6101a0018181510191509060ff16908160ff16815250505b613deb565b60018d60000190151590811515815250508c9950613e31565b600160ff168d610160015160ff161415613e185760028d610160019060ff16908160ff1681525050613e2d565b60018d610160019060ff16908160ff16815250505b8c99505b5050505050505050509392505050565b613e49614b36565b613e51614c3b565b6000806000806000613e61614c6a565b603c89610180015160ff161415613e8b576001896020019015159081151581525050889750614174565b60009550600094505b60408560ff161015613f6d57613ede8961010001516008808860ff16811515613eb957fe5b06880360ff16811515613ec857fe5b0460088860ff16811515613ed857fe5b06614491565b9350600360ff168460ff161415613f605760408051908101604052806008808860ff16811515613f0a57fe5b06880360ff16811515613f1957fe5b0460ff1660ff16815260200160088760ff16811515613f3457fe5b0660ff1660ff16815250878760ff16603c81101515613f4f57fe5b602002018190525085806001019650505b8480600101955050613e94565b6000925060008660ff161115614131578861010001519150600094505b8560ff168560ff16108015613f9d575082155b156140fd57868560ff16603c81101515613fb357fe5b60200201519050600189610160019060ff16908160ff16815250506000896000019015159081151581525050818961010001906fffffffffffffffffffffffffffffffff191690816fffffffffffffffffffffffffffffffff1916815250506140438982600060028110151561402557fe5b602002015183600160028110151561403957fe5b6020020151613b3f565b98508860000151151561405557600192505b600289610160019060ff16908160ff16815250506000896000019015159081151581525050818961010001906fffffffffffffffffffffffffffffffff191690816fffffffffffffffffffffffffffffffff1916815250506140de898260006002811015156140c057fe5b60200201518360016002811015156140d457fe5b6020020151613b3f565b9850886000015115156140f057600192505b8480600101955050613f8a565b818961010001906fffffffffffffffffffffffffffffffff191690816fffffffffffffffffffffffffffffffff1916815250505b821561414d576001896000019015159081151581525050614170565b600189602001901515908115158152505060008960000190151590811515815250505b8897505b50505050505050919050565b614188614b36565b60008060008060008060006001965060019550600194506001935060019250600091505b60088260ff161080156141dc575086806141c35750855b806141cb5750845b806141d35750835b806141db5750825b5b156143e157600090505b60088160ff16108015614216575086806141fd5750855b806142055750845b8061420d5750835b806142155750825b5b156143d4576142318961010001518360070383600703614a76565b6fffffffffffffffffffffffffffffffff19166142548a61010001518484614a76565b6fffffffffffffffffffffffffffffffff191614151561427357600096505b6142868961010001518383600703614a76565b6fffffffffffffffffffffffffffffffff19166142a98a61010001518484614a76565b6fffffffffffffffffffffffffffffffff19161415156142c857600095505b6142db8961010001518360070383614a76565b6fffffffffffffffffffffffffffffffff19166142fe8a61010001518484614a76565b6fffffffffffffffffffffffffffffffff191614151561431d57600094505b6143338961010001518260070384600703614a76565b6fffffffffffffffffffffffffffffffff19166143568a61010001518484614a76565b6fffffffffffffffffffffffffffffffff191614151561437557600093505b6143858961010001518284614a76565b6fffffffffffffffffffffffffffffffff19166143a88a61010001518484614a76565b6fffffffffffffffffffffffffffffffff19161415156143c757600092505b80806001019150506141e6565b81806001019250506141ac565b86806143ea5750855b806143f25750845b806143fa5750835b806144025750825b156144695760018960400190151590811515815250508689606001901515908115158152505085896080019015159081151581525050848960a0019015159081151581525050838960c0019015159081151581525050828960e00190151590811515815250505b88975050505050505050919050565b600082821115151561448657fe5b818303905092915050565b60008060006144a08585614ad2565b9150600370010000000000000000000000000000000002826fffffffffffffffffffffffffffffffff16876fffffffffffffffffffffffffffffffff19169060020a9004169050807001000000000000000000000000000000009004925050509392505050565b61450f614c0c565b6000614519614c0c565b6000614523614c0c565b60008061452e614c8c565b600080600096506101006040519081016040528060408051908101604052807fffffffffffffffffffffffffffffffffffffffffffffffffffffffffffffffff60000b60000b81526020016000800b60000b815250815260200160408051908101604052807fffffffffffffffffffffffffffffffffffffffffffffffffffffffffffffffff60000b60000b8152602001600160000b60000b815250815260200160408051908101604052806000800b60000b8152602001600160000b60000b81525081526020016040805190810160405280600160000b60000b8152602001600160000b60000b81525081526020016040805190810160405280600160000b60000b81526020016000800b60000b81525081526020016040805190810160405280600160000b60000b81526020017fffffffffffffffffffffffffffffffffffffffffffffffffffffffffffffffff60000b60000b815250815260200160408051908101604052806000800b60000b81526020017fffffffffffffffffffffffffffffffffffffffffffffffffffffffffffffffff60000b60000b815250815260200160408051908101604052807fffffffffffffffffffffffffffffffffffffffffffffffffffffffffffffffff60000b60000b81526020017fffffffffffffffffffffffffffffffffffffffffffffffffffffffffffffffff60000b60000b8152508152509550600090505b60088160ff16101561483057858160ff1660088110151561475a57fe5b6020020151925082600060028110151561477057fe5b60200201518c01935082600160028110151561478857fe5b60200201518b01945060078560000b13806147a6575060008560000b125b806147b4575060078460000b135b806147c2575060008460000b125b1515614823576147d88d61010001518587614491565b91508c610160015160ff168260ff1614151561482257600360ff168260ff161415156148215782888860ff1660088110151561481057fe5b602002018190525086806001019750505b5b5b808060010191505061473d565b8787995099505050505050505050935093915050565b60008060008060008060008060008060009650600160ff168e610160015160ff161415614876576002955061487b565b600195505b60009450600190505b60098160ff16101561499357841515614986578b8d60006002811015156148a757fe5b602002015182020193508a8d60016002811015156148c157fe5b6020020151820201925060078460000b13806148e0575060008460000b125b806148ee575060078360000b135b806148fc575060008360000b125b1561491257600097506000965060019450614985565b6149228e61010001518585614491565b91508560ff168260ff16141561494b5761493e88888686614aee565b8098508199505050614984565b8d610160015160ff168260ff16148015614968575060018160ff16115b156149765760019450614983565b6000975060009650600194505b5b5b5b8080600101915050614884565b878799509950505050505050505094509492505050565b600080600060078560ff1611156149c057600080fd5b60078460ff1611156149d157600080fd5b6149db8585614ad2565b9150816fffffffffffffffffffffffffffffffff166003700100000000000000000000000000000000026fffffffffffffffffffffffffffffffff19169060020a02905086818818169650816fffffffffffffffffffffffffffffffff168660ff16700100000000000000000000000000000000026fffffffffffffffffffffffffffffffff19169060020a02871792505050949350505050565b600080614a838484614ad2565b9050600370010000000000000000000000000000000002816fffffffffffffffffffffffffffffffff16866fffffffffffffffffffffffffffffffff19169060020a9004169150509392505050565b600060026001838560080201016040030260ff16905092915050565b600080600060406008850286010160ff1664010000000002905060078763ffffffff19169060020a029650808717965085806001019650508686925092505094509492505050565b6101e06040519081016040528060001515815260200160001515815260200160001515815260200160001515815260200160001515815260200160001515815260200160001515815260200160001515815260200160006fffffffffffffffffffffffffffffffff19168152602001600063ffffffff19168152602001600063ffffffff19168152602001600060ff168152602001600060ff168152602001600060ff168152602001600060ff1681525090565b6040805190810160405280600290602082028038833980820191505090505090565b610200604051908101604052806008905b614c25614cae565b815260200190600190039081614c1d5790505090565b610f0060405190810160405280603c905b614c54614cd0565b815260200190600190039081614c4c5790505090565b6040805190810160405280600290602082028038833980820191505090505090565b6040805190810160405280600290602082028038833980820191505090505090565b6040805190810160405280600290602082028038833980820191505090505090565b6040805190810160405280600290602082028038833980820191505090505090565b6000614cfe82356158ab565b905092915050565b6000614d1282516158ab565b905092915050565b600082601f8301121515614d2d57600080fd5b6002614d40614d3b826157fb565b6157ce565b91508183856020840282011115614d5657600080fd5b60005b83811015614d865781614d6c8882614e42565b845260208401935060208301925050600181019050614d59565b5050505092915050565b600082601f8301121515614da357600080fd5b6002614db6614db1826157fb565b6157ce565b91508183856020840282011115614dcc57600080fd5b60005b83811015614dfc5781614de28882614e56565b845260208401935060208301925050600181019050614dcf565b5050505092915050565b6000614e1282356158cb565b905092915050565b6000614e2682516158cb565b905092915050565b6000614e3a82356158d7565b905092915050565b6000614e4e8235615903565b905092915050565b6000614e628251615903565b905092915050565b6000614e76823561592f565b905092915050565b60008083601f8401121515614e9257600080fd5b8235905067ffffffffffffffff811115614eab57600080fd5b602083019150836001820283011115614ec357600080fd5b9250929050565b6000614ed68235615939565b905092915050565b60006101e08284031215614ef157600080fd5b614efc6101e06157ce565b90506000614f0c84828501614e06565b6000830152506020614f2084828501614e06565b6020830152506040614f3484828501614e06565b6040830152506060614f4884828501614e06565b6060830152506080614f5c84828501614e06565b60808301525060a0614f7084828501614e06565b60a08301525060c0614f8484828501614e06565b60c08301525060e0614f9884828501614e06565b60e083015250610100614fad84828501614e2e565b61010083015250610120614fc384828501614e42565b61012083015250610140614fd984828501614e42565b61014083015250610160614fef84828501615066565b6101608301525061018061500584828501615066565b610180830152506101a061501b84828501615066565b6101a0830152506101c061503184828501615066565b6101c08301525092915050565b600061504a823561594b565b905092915050565b600061505e825161594b565b905092915050565b60006150728235615955565b905092915050565b60006020828403121561508c57600080fd5b600061509a84828501614cf2565b91505092915050565b6000602082840312156150b557600080fd5b60006150c384828501614d06565b91505092915050565b600080600080606085870312156150e257600080fd5b60006150f087828801614cf2565b94505060206151018782880161503e565b935050604085013567ffffffffffffffff81111561511e57600080fd5b61512a87828801614e7e565b925092505092959194509250565b60006040828403121561514a57600080fd5b600061515884828501614d1a565b91505092915050565b60006040828403121561517357600080fd5b600061518184828501614d90565b91505092915050565b60008060006080848603121561519f57600080fd5b60006151ad86828701614d1a565b93505060406151be8682870161503e565b92505060606151cf8682870161503e565b9150509250925092565b60008060008060a085870312156151ef57600080fd5b60006151fd87828801614d1a565b945050604061520e8782880161503e565b935050606061521f8782880161503e565b925050608061523087828801614cf2565b91505092959194509250565b60006020828403121561524e57600080fd5b600061525c84828501614e1a565b91505092915050565b6000806040838503121561527857600080fd5b600061528685828601614e6a565b925050602061529785828601614cf2565b9150509250929050565b6000602082840312156152b357600080fd5b60006152c184828501614eca565b91505092915050565b60006101e082840312156152dd57600080fd5b60006152eb84828501614ede565b91505092915050565b60006020828403121561530657600080fd5b60006153148482850161503e565b91505092915050565b60006020828403121561532f57600080fd5b600061533d84828501615052565b91505092915050565b6000806040838503121561535957600080fd5b60006153678582860161503e565b925050602061537885828601614cf2565b9150509250929050565b60008060008060008060c0878903121561539b57600080fd5b60006153a989828a01615052565b96505060206153ba89828a01615052565b95505060406153cb89828a01615052565b94505060606153dc89828a01615052565b93505060806153ed89828a01615052565b92505060a06153fe89828a01615052565b9150509295509295509295565b6154148161583f565b82525050565b61542381615827565b61542c8261581d565b60005b8281101561545e57615442858351615474565b61544b82615832565b915060208501945060018101905061542f565b5050505050565b61546e8161585f565b82525050565b61547d8161586b565b82525050565b61548c81615897565b82525050565b61549b81615962565b82525050565b6154aa81615974565b82525050565b6154b981615986565b82525050565b6154c8816158a1565b82525050565b60006020820190506154e3600083018461540b565b92915050565b60006040820190506154fe600083018561540b565b61550b60208301846154bf565b9392505050565b600060c082019050615527600083018861541a565b61553460408301876154bf565b615541606083018661540b565b61554e608083018561540b565b61555b60a08301846154bf565b9695505050505050565b600060e08201905061557a600083018961541a565b61558760408301886154bf565b615594606083018761540b565b6155a160808301866154bf565b6155ae60a08301856154bf565b6155bb60c08301846154bf565b979650505050505050565b60006020820190506155db6000830184615465565b92915050565b60006020820190506155f66000830184615483565b92915050565b60006040820190506156116000830185615483565b61561e602083018461540b565b9392505050565b600060408201905061563a6000830185615483565b61564760208301846154a1565b9392505050565b60006040820190506156636000830185615483565b61567060208301846154b0565b9392505050565b600060408201905061568c6000830185615483565b61569960208301846154bf565b9392505050565b60006020820190506156b56000830184615492565b92915050565b60006020820190506156d060008301846154bf565b92915050565b60006080820190506156eb60008301876154bf565b6156f8602083018661540b565b61570560408301856154bf565b61571260608301846154bf565b95945050505050565b600060608201905061573060008301856154bf565b61573d602083018461541a565b9392505050565b600060408201905061575960008301856154bf565b61576660208301846154bf565b9392505050565b600060c08201905061578260008301896154bf565b61578f60208301886154bf565b61579c60408301876154bf565b6157a960608301866154bf565b6157b660808301856154bf565b6157c360a08301846154bf565b979650505050505050565b6000604051905081810181811067ffffffffffffffff821117156157f157600080fd5b8060405250919050565b600067ffffffffffffffff82111561581257600080fd5b602082029050919050565b6000819050919050565b600060029050919050565b6000602082019050919050565b600073ffffffffffffffffffffffffffffffffffffffff82169050919050565b60008115159050919050565b60007fffffffffffffffffffffffffffffffffffffffffffffffffffffffff0000000082169050919050565b6000819050919050565b6000819050919050565b600073ffffffffffffffffffffffffffffffffffffffff82169050919050565b60008115159050919050565b60007fffffffffffffffffffffffffffffffff0000000000000000000000000000000082169050919050565b60007fffffffffffffffffffffffffffffffffffffffffffffffffffffffff0000000082169050919050565b6000819050919050565b60006159448261583f565b9050919050565b6000819050919050565b600060ff82169050919050565b600061596d8261583f565b9050919050565b600061597f8261583f565b9050919050565b6000615991826158a1565b90509190505600a265627a7a72305820780c6f53c6546ed8624b56ed048651fb8c4fc9f544f65f271310c46d4687c5886c6578706572696d656e74616cf50037",
  "source": "pragma solidity ^0.4.18;\npragma experimental ABIEncoderV2;\n\n/**\n * The CloversController is replaceable endpoint for minting and unminting Clovers.sol and ClubToken.sol\n */\n\nimport \"./Reversi.sol\";\nimport \"./IClovers.sol\";\nimport \"./helpers/IMintable.sol\";\nimport \"./ICloversController.sol\";\nimport \"zeppelin-solidity/contracts/ownership/HasNoTokens.sol\";\nimport \"zeppelin-solidity/contracts/ownership/HasNoEther.sol\";\nimport \"zeppelin-solidity/contracts/math/SafeMath.sol\";\n\n\ncontract CloversController is ICloversController, HasNoTokens, HasNoEther {\n    event cloverCommitted(bytes32 movesHash, address owner);\n    event cloverClaimed(bytes28[2] moves, uint256 tokenId, address owner, uint stake, uint reward, uint256 symmetries);\n    event stakeAndRewardRetrieved(uint256 tokenId, address owner, uint stake, uint reward);\n    event cloverChallenged(bytes28[2] moves, uint256 tokenId, address owner, address challenger, uint stake);\n\n    using SafeMath for uint256;\n\n    address clovers;\n    address clubToken;\n\n    uint256 payMultiplier;\n    uint256 stakeAmount;\n    uint256 stakePeriod;\n\n    function CloversController(address _clovers, address _clubToken) public {\n        clovers = _clovers;\n        clubToken = _clubToken;\n    }    \n\n    /**\n    * @dev Gets the current staking amount needed to claim a Clover.\n    * @return A uint256 value of how much stake is needed.\n    */\n    function currentStakeAmount() public constant returns (uint256) {\n        return stakeAmount;\n    }\n    /**\n    * @dev Gets the current staking period needed to verify a Clover.\n    * @return A uint256 value of stake period in seconds.\n    */\n    function currentStakePeriod() public constant returns (uint256) {\n        return stakePeriod;\n    }\n    /**\n    * @dev Gets the current staking period needed to verify a Clover.\n    * @return A uint256 value of stake period in seconds.\n    */\n    function getMultiplier() public constant returns (uint256) {\n        return payMultiplier;\n    }\n    /**\n    * @dev Gets the current staking period needed to verify a Clover.\n    * @return A uint256 value of stake period in seconds.\n    */\n    function getMovesHash(uint _tokenId) public constant returns (bytes32) {\n        return keccak256(IClovers(clovers).getCloverMoves(_tokenId));\n    }\n    /**\n    * @dev Checks whether the game is valid.\n    * @param moves The moves needed to play validate the game.\n    * @return A boolean representing whether or not the game is valid.\n    */\n    function isValid(bytes28[2] moves) public constant returns (bool) {\n        Reversi.Game memory game = Reversi.playGame(moves);\n        return isValidGame(game);\n    }\n    /**\n    * @dev Checks whether the game is valid.\n    * @param game The pre-played game.\n    * @return A boolean representing whether or not the game is valid.\n    */\n    function isValidGame(Reversi.Game game) public pure returns (bool) {\n        if (game.error) return false;\n        if (!game.complete) return false;\n        return true;\n    }\n    /**\n    * @dev Checks whether the game has passed the verification period.\n    * @param _tokenId The board being checked.\n    * @return A boolean representing whether or not the game has been verified.\n    */\n    function isVerified(uint256 _tokenId) public constant returns (bool) {\n        uint256 _blockMinted = IClovers(clovers).getBlockMinted(_tokenId);\n        if(_blockMinted == 0) return false;\n        // require(block.number > _blockMinted);\n        return (block.number - _blockMinted) > stakePeriod;\n    }\n    /**\n    * @dev Calculates the reward of the board.\n    * @param _symmetries symmetries saved as a uint256 value like 00010101 where bits represent symmetry types.\n    * @return A uint256 representing the reward that would be returned for claiming the board.\n    */\n    function calculateReward(uint256 _symmetries) public constant returns (uint256) {\n        uint256 Symmetricals;\n        uint256 RotSym;\n        uint256 Y0Sym;\n        uint256 X0Sym;\n        uint256 XYSym;\n        uint256 XnYSym;\n        (Symmetricals,\n        RotSym,\n        Y0Sym,\n        X0Sym,\n        XYSym,\n        XnYSym) = IClovers(clovers).getAllSymmetries();\n        uint256 base = 0;\n        if (_symmetries >> 4 & 1 == 1) base = base.add(payMultiplier.mul(Symmetricals + 1).div(RotSym + 1));\n        if (_symmetries >> 3 & 1 == 1) base = base.add(payMultiplier.mul(Symmetricals + 1).div(Y0Sym + 1));\n        if (_symmetries >> 2 & 1 == 1) base = base.add(payMultiplier.mul(Symmetricals + 1).div(X0Sym + 1));\n        if (_symmetries >> 1 & 1 == 1) base = base.add(payMultiplier.mul(Symmetricals + 1).div(XYSym + 1));\n        if (_symmetries & 1 == 1) base = base.add(payMultiplier.mul(Symmetricals + 1).div(XnYSym + 1));\n        return base;\n    }\n\n    /**\n    * @dev Claim the Clover without a commit or reveal.\n    * @param moves The moves that make up the Clover reversi game.\n    * @param _tokenId The board that results from the moves.\n    * @param _symmetries symmetries saved as a uint256 value like 00010101 where bits represent symmetry types.\n    * @param _to The address claiming the Clover.\n    * @return A boolean representing whether or not the claim was successful.\n    */\n    function claimClover(bytes28[2] moves, uint256 _tokenId, uint256 _symmetries, address _to) public payable returns (bool) {\n        require(moves[0] != 0);\n        require(msg.value == stakeAmount);\n        bytes32 movesHash = keccak256(moves);\n        IClovers(clovers).setCommit(movesHash, _to);\n        IClovers(clovers).setStake(movesHash, stakeAmount);\n        clovers.transfer(stakeAmount);\n        require(IClovers(clovers).getBlockMinted(_tokenId) == 0);\n        IClovers(clovers).setBlockMinted(_tokenId, block.number);\n        IClovers(clovers).setCloverMoves(_tokenId, moves);\n        if (_symmetries > 0) {\n            IClovers(clovers).setSymmetries(_tokenId, _symmetries);\n            uint256 reward = calculateReward(_symmetries);\n            IClovers(clovers).setReward(_tokenId, reward);\n        }\n        IClovers(clovers).mint(_to, _tokenId);\n        cloverClaimed(moves, _tokenId, _to, stakeAmount, reward, _symmetries);\n        return true;\n    }\n    /**\n    * @dev Commit the hash of the moves needed to claim the Clover. A stake should be made for counterfactual verification.\n    * @param movesHash The hash of the moves that makes up the Clover reversi game.\n    * @param _to The address claiming the Clover.\n    * @return A boolean representing whether or not the commit was successful.\n    */\n    function claimCloverCommit(bytes32 movesHash, address _to) public payable returns (bool) {\n        require(_to != 0);\n        require(msg.value == stakeAmount);\n        require(IClovers(clovers).getCommit(movesHash) == 0);\n        IClovers(clovers).setCommit(movesHash, _to);\n        IClovers(clovers).setStake(movesHash, stakeAmount);\n        clovers.transfer(stakeAmount);\n        cloverCommitted(movesHash, _to);\n        return true;\n    }\n    /**\n    * @dev Reveal the solution to the previous commit to claim the Clover.\n    * @param moves The moves that make up the Clover reversi game.\n    * @param _tokenId The board that results from the moves.\n    * @param _symmetries symmetries saved as a uint256 value like 00010101 where bits represent symmetry types.\n    * @return A boolean representing whether or not the reveal and claim was successful.\n    */\n    function claimCloverReveal(bytes28[2] moves, uint256 _tokenId, uint256 _symmetries) public returns (bool) {\n        require(moves[0] != 0);\n        bytes32 movesHash = keccak256(moves);\n        address commiter = IClovers(clovers).getCommit(movesHash);\n        require(IClovers(clovers).getBlockMinted(_tokenId) == 0);\n        IClovers(clovers).setBlockMinted(_tokenId, block.number);\n        IClovers(clovers).setCloverMoves(_tokenId, moves);\n        if (_symmetries > 0) {\n            IClovers(clovers).setSymmetries(_tokenId, _symmetries);\n            uint256 reward = calculateReward(_symmetries);\n            IClovers(clovers).setReward(_tokenId, reward);\n        }\n        IClovers(clovers).mint(commiter, _tokenId);\n        uint256 stake = IClovers(clovers).getStake(movesHash);\n        cloverClaimed(moves, _tokenId, commiter, stake, reward, _symmetries);\n        return true;\n    }\n    /**\n    * @dev Retrieve the stake from a Clover claim after the stake period has ended.\n    * @param _tokenId The board which holds the stake.\n    * @return A boolean representing whether or not the retrieval was successful.\n    */\n    function retrieveStake(uint256 _tokenId) public returns (bool) {\n        bytes28[2] memory moves = IClovers(clovers).getCloverMoves(_tokenId);\n        require(moves[0] != 0);\n        bytes32 movesHash = keccak256(moves);\n        uint256 stake = IClovers(clovers).getStake(movesHash);\n        require(stake != 0);\n        require(isVerified(_tokenId));\n        IClovers(clovers).setStake(movesHash, 0);\n        addSymmetries(_tokenId);\n        address commiter = IClovers(clovers).getCommit(movesHash);\n        uint256 reward = IClovers(clovers).getReward(_tokenId);\n        require(IMintable(clubToken).mint(commiter, reward));\n        require(IClovers(clovers).moveEth(commiter, stake));\n        stakeAndRewardRetrieved(_tokenId, commiter, stake, reward);\n        return true;\n    }\n    /**\n    * @dev Challenge a staked Clover for being invalid.\n    * @param _tokenId The board being challenged.\n    * @param _to The address challenging the Clover.\n    * @return A boolean representing whether or not the challenge was successful.\n    */\n    function challengeClover(uint256 _tokenId, address _to) public returns (bool) {\n        bool valid = true;\n        bytes28[2] memory moves = IClovers(clovers).getCloverMoves(_tokenId);\n        require(moves[0] != 0);\n        Reversi.Game memory game = Reversi.playGame(moves);\n        if(isValidGame(game)) {\n            uint256 _symmetries = IClovers(clovers).getSymmetries(_tokenId);\n\n            valid = (_symmetries >> 4 & 1) > 0 == game.RotSym ? valid : false;\n            valid = (_symmetries >> 3 & 1) > 0 == game.Y0Sym ? valid : false;\n            valid = (_symmetries >> 2 & 1) > 0 == game.X0Sym ? valid : false;\n            valid = (_symmetries >> 1 & 1) > 0 == game.XYSym ? valid : false;\n            valid = (_symmetries & 1) > 0 == game.XnYSym ? valid : false;\n\n        } else {\n            valid = false;\n        }\n        require(!valid);\n\n        IClovers(clovers).deleteClover(_tokenId);\n        bytes32 movesHash = keccak256(moves);\n        if (!isVerified(_tokenId)) {\n            uint256 stake = IClovers(clovers).getStake(movesHash);\n            IClovers(clovers).moveEth(_to, stake);\n        }\n        IClovers(clovers).unmint(_tokenId);\n        IClovers(clovers).setCommit(movesHash, 0);\n        IClovers(clovers).setStake(movesHash, 0);\n        removeSymmetries(_tokenId);\n\n        address commiter = IClovers(clovers).getCommit(movesHash);\n        cloverChallenged(moves, _tokenId, commiter, _to, stake);\n        return true;\n    }\n\n    /**\n    * @dev Updates the stake amount.\n    * @param _stakeAmount The new amount needed to stake.\n    */\n    function updateStakeAmount(uint256 _stakeAmount) public onlyOwner {\n        stakeAmount = _stakeAmount;\n    }\n    /**\n    * @dev Updates the stake period.\n    * @param _stakePeriod The uint256 value of time needed to stake before being verified.\n    */\n    function updateStakePeriod(uint256 _stakePeriod) public onlyOwner {\n        stakePeriod = _stakePeriod;\n    }\n    /**\n    * @dev Updates the pay multiplier, used to calculate token reward.\n    * @param _payMultiplier The uint256 value of pay multiplier.\n    */\n    function updatePayMultipier(uint256 _payMultiplier) public onlyOwner {\n        payMultiplier = _payMultiplier;\n    }\n    /**\n    * @dev Adds new tallys of the totals numbers of clover symmetries.\n    * @param _tokenId The token which needs to be examined.\n    */\n    function addSymmetries(uint256 _tokenId) private {\n        uint256 Symmetricals;\n        uint256 RotSym;\n        uint256 Y0Sym;\n        uint256 X0Sym;\n        uint256 XYSym;\n        uint256 XnYSym;\n        (Symmetricals,\n        RotSym,\n        Y0Sym,\n        X0Sym,\n        XYSym,\n        XnYSym) = IClovers(clovers).getAllSymmetries();\n        uint256 _symmetries = IClovers(clovers).getSymmetries(_tokenId);\n        Symmetricals = Symmetricals.add(_symmetries > 0 ? 1 : 0);\n        RotSym = RotSym.add(uint256(_symmetries >> 4 & 1));\n        Y0Sym = Y0Sym.add(uint256(_symmetries >> 3 & 1));\n        X0Sym = X0Sym.add(uint256(_symmetries >> 2 & 1));\n        XYSym = XYSym.add(uint256(_symmetries >> 1 & 1));\n        XnYSym = XnYSym.add(uint256(_symmetries & 1));\n        IClovers(clovers).setAllSymmetries(Symmetricals, RotSym, Y0Sym, X0Sym, XYSym, XnYSym);\n    }\n    /**\n    * @dev Remove false tallys of the totals numbers of clover symmetries.\n    * @param _tokenId The token which needs to be examined.\n    */\n    function removeSymmetries(uint256 _tokenId) private {\n        uint256 Symmetricals;\n        uint256 RotSym;\n        uint256 Y0Sym;\n        uint256 X0Sym;\n        uint256 XYSym;\n        uint256 XnYSym;\n        (Symmetricals,\n        RotSym,\n        Y0Sym,\n        X0Sym,\n        XYSym,\n        XnYSym) = IClovers(clovers).getAllSymmetries();\n        uint256 _symmetries = IClovers(clovers).getSymmetries(_tokenId);\n        Symmetricals = Symmetricals.sub(_symmetries > 0 ? 1 : 0);\n        RotSym = RotSym.sub(uint256(_symmetries >> 4 & 1));\n        Y0Sym = Y0Sym.sub(uint256(_symmetries >> 3 & 1));\n        X0Sym = X0Sym.sub(uint256(_symmetries >> 2 & 1));\n        XYSym = XYSym.sub(uint256(_symmetries >> 1 & 1));\n        XnYSym = XnYSym.sub(uint256(_symmetries & 1));\n        IClovers(clovers).setAllSymmetries(Symmetricals, RotSym, Y0Sym, X0Sym, XYSym, XnYSym);\n    }\n\n}",
  "sourcePath": "/Users/billy/clovers/clovers-contracts/contracts/CloversController.sol",
  "compiler": {
    "name": "solc",
    "version": "0.4.24+commit.e67f0147.Emscripten.clang"
  },
  "schemaVersion": "2.0.1",
  "updatedAt": "2018-07-28T12:26:27.721Z"
}