{
  "contractName": "CloversMetadata",
  "abi": [
    {
      "constant": true,
      "inputs": [
        {
          "name": "_tokenId",
          "type": "uint256"
        }
      ],
      "name": "tokenURI",
      "outputs": [
        {
          "name": "_infoUrl",
          "type": "string"
        }
      ],
      "payable": false,
      "stateMutability": "view",
      "type": "function"
    }
  ],
  "bytecode": "0x608060405234801561001057600080fd5b50610485806100206000396000f300608060405260043610610041576000357c0100000000000000000000000000000000000000000000000000000000900463ffffffff168063c87b56dd14610046575b600080fd5b34801561005257600080fd5b50610071600480360381019080803590602001909291905050506100ec565b6040518080602001828103825283818151815260200191508051906020019080838360005b838110156100b1578082015181840152602081019050610096565b50505050905090810190601f1680156100de5780820380516001836020036101000a031916815260200191505b509250505060405180910390f35b606080606080606060405190810160405280603081526020017f68747470733a2f2f617069322e636c6f766572732e6e6574776f726b2f636c6f81526020017f766572732f6d657461646174612f307800000000000000000000000000000000815250925061015a856101be565b9150602060405190810160405280600081525090506101b461017b82610344565b6101a66101a161018a86610344565b61019388610344565b61037290919063ffffffff16565b610344565b61037290919063ffffffff16565b9350505050919050565b6060600080600060606000806000881415610210576040805190810160405280600181526020017f30000000000000000000000000000000000000000000000000000000000000008152509650610339565b8795505b6000861415156102365784806001019550506004869060020a90049550610214565b600f9350846040519080825280601f01601f19166020018201604052801561026d5781602001602082028038833980820191505090505b5092506001850391505b600088141515610335578388169050600981116102b957806030017f0100000000000000000000000000000000000000000000000000000000000000026102e0565b806037017f0100000000000000000000000000000000000000000000000000000000000000025b8383806001900394508151811015156102f557fe5b9060200101907effffffffffffffffffffffffffffffffffffffffffffffffffffffffffffff1916908160001a9053506004889060020a90049750610277565b8296505b505050505050919050565b61034c61043f565b600060208301905060408051908101604052808451815260200182815250915050919050565b606080600083600001518560000151016040519080825280601f01601f1916602001820160405280156103b45781602001602082028038833980820191505090505b5091506020820190506103d081866020015187600001516103f4565b6103e985600001518201856020015186600001516103f4565b819250505092915050565b60005b60208210151561041c57825184526020840193506020830192506020820391506103f7565b6001826020036101000a0390508019835116818551168181178652505050505050565b6040805190810160405280600081526020016000815250905600a165627a7a72305820adcdb54b34756d3af78cf142159d402209630592da6c0355c929bc04b76826210029",
  "source": "pragma solidity ^0.4.18;\n\n/**\n* CloversMetadata contract is upgradeable and returns metadata about Clovers\n*/\n\nimport \"./helpers/strings.sol\";\n\n\ncontract CloversMetadata {\n    using strings for *;\n\n    function tokenURI(uint _tokenId) public view returns (string _infoUrl) {\n        string memory base = \"https://api2.clovers.network/clovers/metadata/0x\";\n        string memory id = uint2hexstr(_tokenId);\n        string memory suffix = \"\";\n        return base.toSlice().concat(id.toSlice()).toSlice().concat(suffix.toSlice());\n    }\n    function uint2hexstr(uint i) internal pure returns (string) {\n        if (i == 0) return \"0\";\n        uint j = i;\n        uint length;\n        while (j != 0) {\n            length++;\n            j = j >> 4;\n        }\n        uint mask = 15;\n        bytes memory bstr = new bytes(length);\n        uint k = length - 1;\n        while (i != 0){\n            uint curr = (i & mask);\n            bstr[k--] = curr > 9 ? byte(55 + curr) : byte(48 + curr); // 55 = 65 - 10\n            i = i >> 4;\n        }\n        return string(bstr);\n    }\n}\n",
  "sourcePath": "/home/billyrennekamp/GitHub.com/clovers-network/clovers-contracts/contracts/CloversMetadata.sol",
  "compiler": {
    "name": "solc",
    "version": "0.4.24+commit.e67f0147.Emscripten.clang"
  },
  "schemaVersion": "2.0.1",
  "updatedAt": "2019-08-14T11:18:01.184Z"
}