{
  "contractName": "CloversController",
  "abi": [
    {
      "constant": true,
      "inputs": [],
      "name": "clovers",
      "outputs": [
        {
          "name": "",
          "type": "address"
        }
      ],
      "payable": false,
      "stateMutability": "view",
      "type": "function"
    },
    {
      "constant": false,
      "inputs": [
        {
          "name": "token",
          "type": "address"
        }
      ],
      "name": "reclaimToken",
      "outputs": [],
      "payable": false,
      "stateMutability": "nonpayable",
      "type": "function"
    },
    {
      "constant": true,
      "inputs": [],
      "name": "payMultiplier",
      "outputs": [
        {
          "name": "",
          "type": "uint256"
        }
      ],
      "payable": false,
      "stateMutability": "view",
      "type": "function"
    },
    {
      "constant": true,
      "inputs": [
        {
          "name": "",
          "type": "bytes32"
        }
      ],
      "name": "commits",
      "outputs": [
        {
          "name": "collected",
          "type": "bool"
        },
        {
          "name": "stake",
          "type": "uint256"
        },
        {
          "name": "committer",
          "type": "address"
        }
      ],
      "payable": false,
      "stateMutability": "view",
      "type": "function"
    },
    {
      "constant": true,
      "inputs": [],
      "name": "stakeAmount",
      "outputs": [
        {
          "name": "",
          "type": "uint256"
        }
      ],
      "payable": false,
      "stateMutability": "view",
      "type": "function"
    },
    {
      "constant": false,
      "inputs": [],
      "name": "renounceOwnership",
      "outputs": [],
      "payable": false,
      "stateMutability": "nonpayable",
      "type": "function"
    },
    {
      "constant": true,
      "inputs": [],
      "name": "curationMarket",
      "outputs": [
        {
          "name": "",
          "type": "address"
        }
      ],
      "payable": false,
      "stateMutability": "view",
      "type": "function"
    },
    {
      "constant": true,
      "inputs": [],
      "name": "oracle",
      "outputs": [
        {
          "name": "",
          "type": "address"
        }
      ],
      "payable": false,
      "stateMutability": "view",
      "type": "function"
    },
    {
      "constant": true,
      "inputs": [],
      "name": "owner",
      "outputs": [
        {
          "name": "",
          "type": "address"
        }
      ],
      "payable": false,
      "stateMutability": "view",
      "type": "function"
    },
    {
      "constant": true,
      "inputs": [],
      "name": "simpleCloversMarket",
      "outputs": [
        {
          "name": "",
          "type": "address"
        }
      ],
      "payable": false,
      "stateMutability": "view",
      "type": "function"
    },
    {
      "constant": false,
      "inputs": [],
      "name": "reclaimEther",
      "outputs": [],
      "payable": false,
      "stateMutability": "nonpayable",
      "type": "function"
    },
    {
      "constant": true,
      "inputs": [],
      "name": "clubTokenController",
      "outputs": [
        {
          "name": "",
          "type": "address"
        }
      ],
      "payable": false,
      "stateMutability": "view",
      "type": "function"
    },
    {
      "constant": false,
      "inputs": [
        {
          "name": "from_",
          "type": "address"
        },
        {
          "name": "value_",
          "type": "uint256"
        },
        {
          "name": "data_",
          "type": "bytes"
        }
      ],
      "name": "tokenFallback",
      "outputs": [],
      "payable": false,
      "stateMutability": "nonpayable",
      "type": "function"
    },
    {
      "constant": true,
      "inputs": [],
      "name": "stakePeriod",
      "outputs": [
        {
          "name": "",
          "type": "uint256"
        }
      ],
      "payable": false,
      "stateMutability": "view",
      "type": "function"
    },
    {
      "constant": true,
      "inputs": [],
      "name": "basePrice",
      "outputs": [
        {
          "name": "",
          "type": "uint256"
        }
      ],
      "payable": false,
      "stateMutability": "view",
      "type": "function"
    },
    {
      "constant": true,
      "inputs": [],
      "name": "priceMultiplier",
      "outputs": [
        {
          "name": "",
          "type": "uint256"
        }
      ],
      "payable": false,
      "stateMutability": "view",
      "type": "function"
    },
    {
      "constant": true,
      "inputs": [],
      "name": "clubToken",
      "outputs": [
        {
          "name": "",
          "type": "address"
        }
      ],
      "payable": false,
      "stateMutability": "view",
      "type": "function"
    },
    {
      "constant": false,
      "inputs": [
        {
          "name": "_newOwner",
          "type": "address"
        }
      ],
      "name": "transferOwnership",
      "outputs": [],
      "payable": false,
      "stateMutability": "nonpayable",
      "type": "function"
    },
    {
      "inputs": [
        {
          "name": "_clovers",
          "type": "address"
        },
        {
          "name": "_clubToken",
          "type": "address"
        },
        {
          "name": "_clubTokenController",
          "type": "address"
        }
      ],
      "payable": false,
      "stateMutability": "nonpayable",
      "type": "constructor"
    },
    {
      "payable": false,
      "stateMutability": "nonpayable",
      "type": "fallback"
    },
    {
      "anonymous": false,
      "inputs": [
        {
          "indexed": false,
          "name": "movesHash",
          "type": "bytes32"
        },
        {
          "indexed": false,
          "name": "owner",
          "type": "address"
        }
      ],
      "name": "cloverCommitted",
      "type": "event"
    },
    {
      "anonymous": false,
      "inputs": [
        {
          "indexed": false,
          "name": "moves",
          "type": "bytes28[2]"
        },
        {
          "indexed": false,
          "name": "tokenId",
          "type": "uint256"
        },
        {
          "indexed": false,
          "name": "owner",
          "type": "address"
        },
        {
          "indexed": false,
          "name": "stake",
          "type": "uint256"
        },
        {
          "indexed": false,
          "name": "reward",
          "type": "uint256"
        },
        {
          "indexed": false,
          "name": "symmetries",
          "type": "uint256"
        },
        {
          "indexed": false,
          "name": "keep",
          "type": "bool"
        }
      ],
      "name": "cloverClaimed",
      "type": "event"
    },
    {
      "anonymous": false,
      "inputs": [
        {
          "indexed": false,
          "name": "tokenId",
          "type": "uint256"
        },
        {
          "indexed": false,
          "name": "owner",
          "type": "address"
        },
        {
          "indexed": false,
          "name": "stake",
          "type": "uint256"
        }
      ],
      "name": "stakeRetrieved",
      "type": "event"
    },
    {
      "anonymous": false,
      "inputs": [
        {
          "indexed": false,
          "name": "moves",
          "type": "bytes28[2]"
        },
        {
          "indexed": false,
          "name": "tokenId",
          "type": "uint256"
        },
        {
          "indexed": false,
          "name": "owner",
          "type": "address"
        },
        {
          "indexed": false,
          "name": "challenger",
          "type": "address"
        },
        {
          "indexed": false,
          "name": "stake",
          "type": "uint256"
        }
      ],
      "name": "cloverChallenged",
      "type": "event"
    },
    {
      "anonymous": false,
      "inputs": [
        {
          "indexed": true,
          "name": "previousOwner",
          "type": "address"
        }
      ],
      "name": "OwnershipRenounced",
      "type": "event"
    },
    {
      "anonymous": false,
      "inputs": [
        {
          "indexed": true,
          "name": "previousOwner",
          "type": "address"
        },
        {
          "indexed": true,
          "name": "newOwner",
          "type": "address"
        }
      ],
      "name": "OwnershipTransferred",
      "type": "event"
    },
    {
      "constant": true,
      "inputs": [
        {
          "name": "movesHash",
          "type": "bytes32"
        }
      ],
      "name": "getStake",
      "outputs": [
        {
          "name": "",
          "type": "uint256"
        }
      ],
      "payable": false,
      "stateMutability": "view",
      "type": "function"
    },
    {
      "constant": true,
      "inputs": [
        {
          "name": "movesHash",
          "type": "bytes32"
        }
      ],
      "name": "getCommit",
      "outputs": [
        {
          "name": "",
          "type": "address"
        }
      ],
      "payable": false,
      "stateMutability": "view",
      "type": "function"
    },
    {
      "constant": true,
      "inputs": [
        {
          "name": "_tokenId",
          "type": "uint256"
        }
      ],
      "name": "getMovesHash",
      "outputs": [
        {
          "name": "",
          "type": "bytes32"
        }
      ],
      "payable": false,
      "stateMutability": "view",
      "type": "function"
    },
    {
      "constant": true,
      "inputs": [
        {
          "name": "moves",
          "type": "bytes28[2]"
        }
      ],
      "name": "isValid",
      "outputs": [
        {
          "name": "",
          "type": "bool"
        }
      ],
      "payable": false,
      "stateMutability": "view",
      "type": "function"
    },
    {
      "constant": true,
      "inputs": [
        {
          "components": [
            {
              "name": "error",
              "type": "bool"
            },
            {
              "name": "complete",
              "type": "bool"
            },
            {
              "name": "symmetrical",
              "type": "bool"
            },
            {
              "name": "RotSym",
              "type": "bool"
            },
            {
              "name": "Y0Sym",
              "type": "bool"
            },
            {
              "name": "X0Sym",
              "type": "bool"
            },
            {
              "name": "XYSym",
              "type": "bool"
            },
            {
              "name": "XnYSym",
              "type": "bool"
            },
            {
              "name": "board",
              "type": "bytes16"
            },
            {
              "name": "first32Moves",
              "type": "bytes28"
            },
            {
              "name": "lastMoves",
              "type": "bytes28"
            },
            {
              "name": "currentPlayer",
              "type": "uint8"
            },
            {
              "name": "moveKey",
              "type": "uint8"
            },
            {
              "name": "blackScore",
              "type": "uint8"
            },
            {
              "name": "whiteScore",
              "type": "uint8"
            }
          ],
          "name": "game",
          "type": "tuple"
        }
      ],
      "name": "isValidGame",
      "outputs": [
        {
          "name": "",
          "type": "bool"
        }
      ],
      "payable": false,
      "stateMutability": "pure",
      "type": "function"
    },
    {
      "constant": true,
      "inputs": [
        {
          "name": "_tokenId",
          "type": "uint256"
        }
      ],
      "name": "isVerified",
      "outputs": [
        {
          "name": "",
          "type": "bool"
        }
      ],
      "payable": false,
      "stateMutability": "view",
      "type": "function"
    },
    {
      "constant": true,
      "inputs": [
        {
          "name": "_symmetries",
          "type": "uint256"
        }
      ],
      "name": "calculateReward",
      "outputs": [
        {
          "name": "",
          "type": "uint256"
        }
      ],
      "payable": false,
      "stateMutability": "view",
      "type": "function"
    },
    {
      "constant": true,
      "inputs": [
        {
          "name": "_symmetries",
          "type": "uint256"
        }
      ],
      "name": "getPrice",
      "outputs": [
        {
          "name": "",
          "type": "uint256"
        }
      ],
      "payable": false,
      "stateMutability": "view",
      "type": "function"
    },
    {
      "constant": false,
      "inputs": [
        {
          "name": "moves",
          "type": "bytes28[2]"
        },
        {
          "name": "_tokenId",
          "type": "uint256"
        },
        {
          "name": "_symmetries",
          "type": "uint256"
        },
        {
          "name": "_keep",
          "type": "bool"
        }
      ],
      "name": "claimClover",
      "outputs": [
        {
          "name": "",
          "type": "bool"
        }
      ],
      "payable": true,
      "stateMutability": "payable",
      "type": "function"
    },
    {
      "constant": false,
      "inputs": [
        {
          "name": "_tokenId",
          "type": "uint256"
        }
      ],
      "name": "retrieveStake",
      "outputs": [
        {
          "name": "",
          "type": "bool"
        }
      ],
      "payable": true,
      "stateMutability": "payable",
      "type": "function"
    },
    {
      "constant": true,
      "inputs": [
        {
          "name": "_board",
          "type": "bytes16"
        }
      ],
      "name": "convertBytes16ToUint",
      "outputs": [
        {
          "name": "number",
          "type": "uint256"
        }
      ],
      "payable": false,
      "stateMutability": "view",
      "type": "function"
    },
    {
      "constant": false,
      "inputs": [
        {
          "name": "_tokenId",
          "type": "uint256"
        }
      ],
      "name": "challengeClover",
      "outputs": [
        {
          "name": "",
          "type": "bool"
        }
      ],
      "payable": false,
      "stateMutability": "nonpayable",
      "type": "function"
    },
    {
      "constant": false,
      "inputs": [
        {
          "name": "_from",
          "type": "address"
        },
        {
          "name": "_to",
          "type": "address"
        },
        {
          "name": "_tokenId",
          "type": "uint256"
        }
      ],
      "name": "transferFrom",
      "outputs": [],
      "payable": false,
      "stateMutability": "nonpayable",
      "type": "function"
    },
    {
      "constant": false,
      "inputs": [
        {
          "name": "_curationMarket",
          "type": "address"
        }
      ],
      "name": "updateCurationMarket",
      "outputs": [],
      "payable": false,
      "stateMutability": "nonpayable",
      "type": "function"
    },
    {
      "constant": false,
      "inputs": [
        {
          "name": "_oracle",
          "type": "address"
        }
      ],
      "name": "updateOracle",
      "outputs": [],
      "payable": false,
      "stateMutability": "nonpayable",
      "type": "function"
    },
    {
      "constant": false,
      "inputs": [
        {
          "name": "_simpleCloversMarket",
          "type": "address"
        }
      ],
      "name": "updateSimpleCloversMarket",
      "outputs": [],
      "payable": false,
      "stateMutability": "nonpayable",
      "type": "function"
    },
    {
      "constant": false,
      "inputs": [
        {
          "name": "_clubTokenController",
          "type": "address"
        }
      ],
      "name": "updateClubTokenController",
      "outputs": [],
      "payable": false,
      "stateMutability": "nonpayable",
      "type": "function"
    },
    {
      "constant": false,
      "inputs": [
        {
          "name": "_stakeAmount",
          "type": "uint256"
        }
      ],
      "name": "updateStakeAmount",
      "outputs": [],
      "payable": false,
      "stateMutability": "nonpayable",
      "type": "function"
    },
    {
      "constant": false,
      "inputs": [
        {
          "name": "_stakePeriod",
          "type": "uint256"
        }
      ],
      "name": "updateStakePeriod",
      "outputs": [],
      "payable": false,
      "stateMutability": "nonpayable",
      "type": "function"
    },
    {
      "constant": false,
      "inputs": [
        {
          "name": "_payMultiplier",
          "type": "uint256"
        }
      ],
      "name": "updatePayMultipier",
      "outputs": [],
      "payable": false,
      "stateMutability": "nonpayable",
      "type": "function"
    },
    {
      "constant": false,
      "inputs": [
        {
          "name": "_priceMultiplier",
          "type": "uint256"
        }
      ],
      "name": "updatePriceMultipier",
      "outputs": [],
      "payable": false,
      "stateMutability": "nonpayable",
      "type": "function"
    },
    {
      "constant": false,
      "inputs": [
        {
          "name": "_basePrice",
          "type": "uint256"
        }
      ],
      "name": "updateBasePrice",
      "outputs": [],
      "payable": false,
      "stateMutability": "nonpayable",
      "type": "function"
    },
    {
      "constant": false,
      "inputs": [
        {
          "name": "movesHash",
          "type": "bytes32"
        },
        {
          "name": "committer",
          "type": "address"
        }
      ],
      "name": "_setCommit",
      "outputs": [],
      "payable": false,
      "stateMutability": "nonpayable",
      "type": "function"
    }
  ],
  "bytecode": "0x60806040523480156200001157600080fd5b50604051606080620047d38339810180604052620000339190810190620000a9565b60008054600160a060020a0319163317905534156200005157600080fd5b60028054600160a060020a03948516600160a060020a03199182161790915560038054938516938216939093179092556004805491909316911617905562000109565b6000620000a28251620000fd565b9392505050565b600080600060608486031215620000bf57600080fd5b6000620000cd868662000094565b9350506020620000e08682870162000094565b9250506040620000f38682870162000094565b9150509250925092565b600160a060020a031690565b6146ba80620001196000396000f3006080604052600436106101f75763ffffffff7c01000000000000000000000000000000000000000000000000000000006000350416627173c881146102065780630d576bfa1461022857806317ffc320146102535780631cb44dfc1461027357806323b872dd14610293578063271eff94146102b357806337b6d96b146102e05780633afcba961461030057806343be08801461032257806346d2ce201461033557806347885781146103555780635759f3f71461038457806360c7dc47146103a4578063715018a6146103b957806372420f06146103ce5780637b7db9fa146103e35780637dc0d1d0146104035780638784ea96146104185780638a05aafa146104385780638da5cb5b146104585780639564e1801461046d578063975e4b2a1461048d5780639f727c27146104a2578063a4a83ca6146104b7578063a7e901b0146104d7578063a89b55da146104f7578063c0ee0b8a1461050c578063c1699a991461052c578063c1fe551a14610541578063c7876ea414610554578063c90054ee14610569578063d010ed7014610589578063d09687f7146105a9578063d2d7231f146105c9578063d50cb88b146105e9578063d76bbd52146105fe578063e757223014610613578063e765c12214610633578063f2fde38b14610653578063f8a68a5614610673578063fd5baa8814610693575b34801561020357600080fd5b50005b34801561021257600080fd5b50610226610221366004614045565b6106b3565b005b34801561023457600080fd5b5061023d61071e565b60405161024a91906143af565b60405180910390f35b34801561025f57600080fd5b5061022661026e366004614251565b61073a565b34801561027f57600080fd5b5061022661028e366004614045565b610837565b34801561029f57600080fd5b506102266102ae36600461406b565b6108a2565b3480156102bf57600080fd5b506102d36102ce366004614120565b61097b565b60405161024a91906144a9565b3480156102ec57600080fd5b506102d36102fb3660046141f9565b6109a2565b34801561030c57600080fd5b50610315610a7c565b60405161024a91906144df565b6102d361033036600461415c565b610a82565b34801561034157600080fd5b50610226610350366004614217565b611342565b34801561036157600080fd5b506103756103703660046141f9565b611370565b60405161024a939291906144b7565b34801561039057600080fd5b5061022661039f3660046141f9565b6113ab565b3480156103b057600080fd5b506103156113d4565b3480156103c557600080fd5b506102266113da565b3480156103da57600080fd5b5061023d61146b565b3480156103ef57600080fd5b506102d36103fe3660046141f9565b611487565b34801561040f57600080fd5b5061023d611931565b34801561042457600080fd5b5061023d6104333660046141f9565b61194d565b34801561044457600080fd5b506102266104533660046141f9565b61197b565b34801561046457600080fd5b5061023d6119a4565b34801561047957600080fd5b50610226610488366004614045565b6119c0565b34801561049957600080fd5b5061023d611a2b565b3480156104ae57600080fd5b50610226611a47565b3480156104c357600080fd5b506103156104d23660046141db565b611ab6565b3480156104e357600080fd5b506102266104f23660046141f9565b611b16565b34801561050357600080fd5b5061023d611b3f565b34801561051857600080fd5b506102266105273660046140b8565b611b5b565b34801561053857600080fd5b50610315611b60565b6102d361054f3660046141f9565b611b66565b34801561056057600080fd5b506103156121bc565b34801561057557600080fd5b506102266105843660046141f9565b6121c2565b34801561059557600080fd5b506102266105a4366004614045565b6121eb565b3480156105b557600080fd5b506103156105c43660046141f9565b612256565b3480156105d557600080fd5b506103156105e43660046141f9565b61233f565b3480156105f557600080fd5b5061031561253e565b34801561060a57600080fd5b5061023d612544565b34801561061f57600080fd5b5061031561062e3660046141f9565b612560565b34801561063f57600080fd5b5061031561064e3660046141f9565b612574565b34801561065f57600080fd5b5061022661066e366004614045565b612589565b34801561067f57600080fd5b506102d361068e36600461426f565b6125b6565b34801561069f57600080fd5b506102266106ae3660046141f9565b6125e3565b60005473ffffffffffffffffffffffffffffffffffffffff1633146106d757600080fd5b600680547fffffffffffffffffffffffff00000000000000000000000000000000000000001673ffffffffffffffffffffffffffffffffffffffff92909216919091179055565b60025473ffffffffffffffffffffffffffffffffffffffff1681565b6000805473ffffffffffffffffffffffffffffffffffffffff16331461075f57600080fd5b6040517f70a0823100000000000000000000000000000000000000000000000000000000815273ffffffffffffffffffffffffffffffffffffffff8316906370a08231906107b1903090600401614508565b602060405180830381600087803b1580156107cb57600080fd5b505af11580156107df573d6000803e3d6000fd5b505050506040513d601f19601f82011682018060405250610803919081019061428e565b6000549091506108339073ffffffffffffffffffffffffffffffffffffffff84811691168363ffffffff61260c16565b5050565b60005473ffffffffffffffffffffffffffffffffffffffff16331461085b57600080fd5b600180547fffffffffffffffffffffffff00000000000000000000000000000000000000001673ffffffffffffffffffffffffffffffffffffffff92909216919091179055565b60055473ffffffffffffffffffffffffffffffffffffffff163314806108df575060065473ffffffffffffffffffffffffffffffffffffffff1633145b15156108ea57600080fd5b6002546040517f23b872dd00000000000000000000000000000000000000000000000000000000815273ffffffffffffffffffffffffffffffffffffffff909116906323b872dd90610944908690869086906004016143bd565b600060405180830381600087803b15801561095e57600080fd5b505af1158015610972573d6000803e3d6000fd5b50505050505050565b6000610985613c5c565b61098e836126c2565b9050610999816125b6565b91505b50919050565b6002546040517f03a53d6b000000000000000000000000000000000000000000000000000000008152600091829173ffffffffffffffffffffffffffffffffffffffff909116906303a53d6b906109fd9086906004016144df565b602060405180830381600087803b158015610a1757600080fd5b505af1158015610a2b573d6000803e3d6000fd5b505050506040513d601f19601f82011682018060405250610a4f919081019061428e565b9050801515610a61576000915061099c565b600b54610a74438363ffffffff6128f716565b119392505050565b60095481565b6000806000807f1c3b3e1e72950ae52150ec48810521d17cea4b30c2a59c807d1ba2f8dff57e658888338a8b8b8b604051610ac3979695949392919061444c565b60405180910390a1876040518082600260200280838360005b83811015610af4578181015183820152602001610adc565b5050505090500191505060405180910390209250600a543410151515610b1957600080fd5b610b228361194d565b73ffffffffffffffffffffffffffffffffffffffff1615610b4257600080fd5b610b4c8333612909565b6000600a541115610bae57610b6383600a5461295f565b600254600a5460405173ffffffffffffffffffffffffffffffffffffffff9092169181156108fc0291906000818181858888f19350505050158015610bac573d6000803e3d6000fd5b505b7f4c0f83654ac2972673e4d81058f833de298389df1dce04cc2db9f231b907d5ff8333604051610bdf9291906144ed565b60405180910390a16002546040517f4f558e7900000000000000000000000000000000000000000000000000000000815273ffffffffffffffffffffffffffffffffffffffff90911690634f558e7990610c3d908a906004016144df565b602060405180830381600087803b158015610c5757600080fd5b505af1158015610c6b573d6000803e3d6000fd5b505050506040513d601f19601f82011682018060405250610c8f91908101906141bd565b15610c9957600080fd5b6002546040517f03a53d6b00000000000000000000000000000000000000000000000000000000815273ffffffffffffffffffffffffffffffffffffffff909116906303a53d6b90610cef908a906004016144df565b602060405180830381600087803b158015610d0957600080fd5b505af1158015610d1d573d6000803e3d6000fd5b505050506040513d601f19601f82011682018060405250610d41919081019061428e565b15610d4b57600080fd5b6002546040517fe3100d1e00000000000000000000000000000000000000000000000000000000815273ffffffffffffffffffffffffffffffffffffffff9091169063e3100d1e90610da3908a90439060040161455a565b600060405180830381600087803b158015610dbd57600080fd5b505af1158015610dd1573d6000803e3d6000fd5b50506002546040517f0b62839500000000000000000000000000000000000000000000000000000000815273ffffffffffffffffffffffffffffffffffffffff9091169250630b6283959150610e2d908a908c90600401614524565b600060405180830381600087803b158015610e4757600080fd5b505af1158015610e5b573d6000803e3d6000fd5b50506002546040517f76e4a87f00000000000000000000000000000000000000000000000000000000815273ffffffffffffffffffffffffffffffffffffffff90911692506376e4a87f9150610eb7908a90899060040161453f565b600060405180830381600087803b158015610ed157600080fd5b505af1158015610ee5573d6000803e3d6000fd5b505050506000861115611011576002546040517fdc3f775800000000000000000000000000000000000000000000000000000000815273ffffffffffffffffffffffffffffffffffffffff9091169063dc3f775890610f4a908a908a9060040161455a565b600060405180830381600087803b158015610f6457600080fd5b505af1158015610f78573d6000803e3d6000fd5b50505050610f858661233f565b6002546040517fa47bd49600000000000000000000000000000000000000000000000000000000815291935073ffffffffffffffffffffffffffffffffffffffff169063a47bd49690610fde908a90869060040161455a565b600060405180830381600087803b158015610ff857600080fd5b505af115801561100c573d6000803e3d6000fd5b505050505b600754611024908363ffffffff61297416565b90508480156110335750600081115b15611265576003546040517f70a08231000000000000000000000000000000000000000000000000000000008152829173ffffffffffffffffffffffffffffffffffffffff16906370a082319061108e9033906004016143af565b602060405180830381600087803b1580156110a857600080fd5b505af11580156110bc573d6000803e3d6000fd5b505050506040513d601f19601f820116820180604052506110e0919081019061428e565b10156111a957600454600a5473ffffffffffffffffffffffffffffffffffffffff9091169063f088d5479061111c90349063ffffffff6128f716565b336040518363ffffffff167c010000000000000000000000000000000000000000000000000000000002815260040161115591906143af565b6020604051808303818588803b15801561116e57600080fd5b505af1158015611182573d6000803e3d6000fd5b50505050506040513d601f19601f820116820180604052506111a791908101906141bd565b505b6003546002546040517f23b872dd00000000000000000000000000000000000000000000000000000000815273ffffffffffffffffffffffffffffffffffffffff928316926323b872dd926112089233929091169086906004016143bd565b602060405180830381600087803b15801561122257600080fd5b505af1158015611236573d6000803e3d6000fd5b505050506040513d601f19601f8201168201806040525061125a91908101906141bd565b151561126557600080fd5b6002546040517f40c10f1900000000000000000000000000000000000000000000000000000000815273ffffffffffffffffffffffffffffffffffffffff909116906340c10f19906112bd9083908b906004016143e5565b600060405180830381600087803b1580156112d757600080fd5b505af11580156112eb573d6000803e3d6000fd5b505050507f1c3b3e1e72950ae52150ec48810521d17cea4b30c2a59c807d1ba2f8dff57e65888833600a54868b8b60405161132c979695949392919061444c565b60405180910390a1506001979650505050505050565b60005473ffffffffffffffffffffffffffffffffffffffff16331461136657600080fd5b6108338282612909565b600c6020526000908152604090208054600182015460029092015460ff909116919073ffffffffffffffffffffffffffffffffffffffff1683565b60005473ffffffffffffffffffffffffffffffffffffffff1633146113cf57600080fd5b600b55565b600a5481565b60005473ffffffffffffffffffffffffffffffffffffffff1633146113fe57600080fd5b6000805460405173ffffffffffffffffffffffffffffffffffffffff909116917ff8df31144d9c2f0f6b59d69b8b98abd5459d07f2742c4df920b25aae33c6482091a2600080547fffffffffffffffffffffffff0000000000000000000000000000000000000000169055565b60065473ffffffffffffffffffffffffffffffffffffffff1681565b600080611492613cd8565b61149a613c5c565b6002546040517f62f9acf90000000000000000000000000000000000000000000000000000000081526001945060009182918291829173ffffffffffffffffffffffffffffffffffffffff909116906362f9acf9906114fd908c906004016144df565b6040805180830381600087803b15801561151657600080fd5b505af115801561152a573d6000803e3d6000fd5b505050506040513d601f19601f8201168201806040525061154e919081019061413e565b60005490965073ffffffffffffffffffffffffffffffffffffffff163314801590611591575060015473ffffffffffffffffffffffffffffffffffffffff163314155b156117375761159f866126c2565b9450886115b0866101000151611ab6565b146115ba57600096505b8680156115cb57506115cb856125b6565b15611727576002546040517fc53b4bf900000000000000000000000000000000000000000000000000000000815273ffffffffffffffffffffffffffffffffffffffff9091169063c53b4bf990611626908c906004016144df565b602060405180830381600087803b15801561164057600080fd5b505af1158015611654573d6000803e3d6000fd5b505050506040513d601f19601f82011682018060405250611678919081019061428e565b60608601519094501515600060108604600116111461169857600061169a565b865b6080860151909750151560006008860460011611146116ba5760006116bc565b865b60a0860151909750151560006004860460011611146116dc5760006116de565b865b60c0860151909750151560006001600287041611146116fe576000611700565b865b96508460e0015115156000856001161115151461171e576000611720565b865b965061172c565b600096505b861561173757600080fd5b856040518082600260200280838360005b83811015611760578181015183820152602001611748565b505050509050019150506040518091039020925061177d83612574565b9150611788896109a2565b1580156117955750600082115b15611825576002546040517f1cc1472d00000000000000000000000000000000000000000000000000000000815273ffffffffffffffffffffffffffffffffffffffff90911690631cc1472d906117f290339086906004016143e5565b600060405180830381600087803b15801561180c57600080fd5b505af1158015611820573d6000803e3d6000fd5b505050505b6000838152600c602052604090205460ff16156118455761184589612981565b61184e8361194d565b90507f23e709ab80a4bee9454ba0d08c0b669d684531b4ec766524c43abd788cc3ca76868a833386604051611887959493929190614400565b60405180910390a16002546040517f0e8310d600000000000000000000000000000000000000000000000000000000815273ffffffffffffffffffffffffffffffffffffffff90911690630e8310d6906118e5908c906004016144df565b600060405180830381600087803b1580156118ff57600080fd5b505af1158015611913573d6000803e3d6000fd5b5050505061192083612c39565b600197505b50505050505050919050565b60015473ffffffffffffffffffffffffffffffffffffffff1681565b6000818152600c602052604090206002015473ffffffffffffffffffffffffffffffffffffffff165b919050565b60005473ffffffffffffffffffffffffffffffffffffffff16331461199f57600080fd5b600955565b60005473ffffffffffffffffffffffffffffffffffffffff1681565b60005473ffffffffffffffffffffffffffffffffffffffff1633146119e457600080fd5b600480547fffffffffffffffffffffffff00000000000000000000000000000000000000001673ffffffffffffffffffffffffffffffffffffffff92909216919091179055565b60055473ffffffffffffffffffffffffffffffffffffffff1681565b60005473ffffffffffffffffffffffffffffffffffffffff163314611a6b57600080fd5b6000805460405173ffffffffffffffffffffffffffffffffffffffff90911691303180156108fc02929091818181858888f19350505050158015611ab3573d6000803e3d6000fd5b50565b6000805b601081101561099c5780600101601060ff160360080260020a8382601081101515611ae157fe5b7f010000000000000000000000000000000000000000000000000000000000000091901a810204029190910190600101611aba565b60005473ffffffffffffffffffffffffffffffffffffffff163314611b3a57600080fd5b600855565b60045473ffffffffffffffffffffffffffffffffffffffff1681565b600080fd5b600b5481565b6000611b70613cd8565b6002546040517f62f9acf9000000000000000000000000000000000000000000000000000000008152600091829182918291829173ffffffffffffffffffffffffffffffffffffffff16906362f9acf990611bcf908b906004016144df565b6040805180830381600087803b158015611be857600080fd5b505af1158015611bfc573d6000803e3d6000fd5b505050506040513d601f19601f82011682018060405250611c20919081019061413e565b9550856040518082600260200280838360005b83811015611c4b578181015183820152602001611c33565b505060408051959093018590039094206000818152600c6020529290922054919a505060ff16159350611c819250505057600080fd5b6000858152600c6020526040902080547fffffffffffffffffffffffffffffffffffffffffffffffffffffffffffffff00166001179055611cc1886109a2565b80611ce3575060005473ffffffffffffffffffffffffffffffffffffffff1633145b80611d05575060015473ffffffffffffffffffffffffffffffffffffffff1633145b1515611d1057600080fd5b611d1985612574565b9350611d2488612ca0565b611d2d8561194d565b925073ffffffffffffffffffffffffffffffffffffffff8316331480611d6a575060005473ffffffffffffffffffffffffffffffffffffffff1633145b80611d8c575060015473ffffffffffffffffffffffffffffffffffffffff1633145b1515611d9757600080fd5b6002546040517f1c4b774b00000000000000000000000000000000000000000000000000000000815273ffffffffffffffffffffffffffffffffffffffff90911690631c4b774b90611ded908b906004016144df565b602060405180830381600087803b158015611e0757600080fd5b505af1158015611e1b573d6000803e3d6000fd5b505050506040513d601f19601f82011682018060405250611e3f919081019061428e565b6002546040517f0495263100000000000000000000000000000000000000000000000000000000815291935073ffffffffffffffffffffffffffffffffffffffff1690630495263190611e96908b906004016144df565b602060405180830381600087803b158015611eb057600080fd5b505af1158015611ec4573d6000803e3d6000fd5b505050506040513d601f19601f82011682018060405250611ee891908101906141bd565b90508015611f81576002546040517f23b872dd00000000000000000000000000000000000000000000000000000000815273ffffffffffffffffffffffffffffffffffffffff909116906323b872dd90611f4a90839087908d906004016143bd565b600060405180830381600087803b158015611f6457600080fd5b505af1158015611f78573d6000803e3d6000fd5b505050506120f5565b60055460085473ffffffffffffffffffffffffffffffffffffffff9091169063d79875eb908a90611fcc90611fbd90879063ffffffff612ebb16565b6007549063ffffffff61297416565b6040518363ffffffff167c010000000000000000000000000000000000000000000000000000000002815260040161200592919061455a565b600060405180830381600087803b15801561201f57600080fd5b505af1158015612033573d6000803e3d6000fd5b5050505060008211156120f5576003546040517f40c10f1900000000000000000000000000000000000000000000000000000000815273ffffffffffffffffffffffffffffffffffffffff909116906340c10f199061209890869086906004016143e5565b602060405180830381600087803b1580156120b257600080fd5b505af11580156120c6573d6000803e3d6000fd5b505050506040513d601f19601f820116820180604052506120ea91908101906141bd565b15156120f557600080fd5b6000841115612189576002546040517f1cc1472d00000000000000000000000000000000000000000000000000000000815273ffffffffffffffffffffffffffffffffffffffff90911690631cc1472d9061215690339088906004016143e5565b600060405180830381600087803b15801561217057600080fd5b505af1158015612184573d6000803e3d6000fd5b505050505b7fa8a1a24efbea93a5c7f29342ba7652cd030828e12cc15c1416480fecee73d58988338660405161132c93929190614516565b60075481565b60005473ffffffffffffffffffffffffffffffffffffffff1633146121e657600080fd5b600a55565b60005473ffffffffffffffffffffffffffffffffffffffff16331461220f57600080fd5b600580547fffffffffffffffffffffffff00000000000000000000000000000000000000001673ffffffffffffffffffffffffffffffffffffffff92909216919091179055565b6002546040517f62f9acf900000000000000000000000000000000000000000000000000000000815260009173ffffffffffffffffffffffffffffffffffffffff16906362f9acf9906122ad9085906004016144df565b6040805180830381600087803b1580156122c657600080fd5b505af11580156122da573d6000803e3d6000fd5b505050506040513d601f19601f820116820180604052506122fe919081019061413e565b6040518082600260200280838360005b8381101561232657818101518382015260200161230e565b5050505090500191505060405180910390209050919050565b600080600080600080600080600260009054906101000a900473ffffffffffffffffffffffffffffffffffffffff1673ffffffffffffffffffffffffffffffffffffffff1663785d8d716040518163ffffffff167c010000000000000000000000000000000000000000000000000000000002815260040160c060405180830381600087803b1580156123d157600080fd5b505af11580156123e5573d6000803e3d6000fd5b505050506040513d601f19601f8201168201806040525061240991908101906142ac565b949b5092995090975095509350915060009050600160108a0481161415612468576124656124588760010161244c8a600101600954612ebb90919063ffffffff16565b9063ffffffff612ee416565b829063ffffffff61297416565b90505b600160088a048116141561249b576124986124588660010161244c8a600101600954612ebb90919063ffffffff16565b90505b600160048a04811614156124ce576124cb6124588560010161244c8a600101600954612ebb90919063ffffffff16565b90505b600160028a0481161415612501576124fe6124588460010161244c8a600101600954612ebb90919063ffffffff16565b90505b88600116600114156125325761252f6124588360010161244c8a600101600954612ebb90919063ffffffff16565b90505b98975050505050505050565b60085481565b60035473ffffffffffffffffffffffffffffffffffffffff1681565b600061256e611fbd8361233f565b92915050565b6000908152600c602052604090206001015490565b60005473ffffffffffffffffffffffffffffffffffffffff1633146125ad57600080fd5b611ab381612ef9565b8051600090156125c857506000611976565b816020015115156125db57506000611976565b506001919050565b60005473ffffffffffffffffffffffffffffffffffffffff16331461260757600080fd5b600755565b6040517fa9059cbb00000000000000000000000000000000000000000000000000000000815273ffffffffffffffffffffffffffffffffffffffff84169063a9059cbb9061266090859085906004016143e5565b602060405180830381600087803b15801561267a57600080fd5b505af115801561268e573d6000803e3d6000fd5b505050506040513d601f19601f820116820180604052506126b291908101906141bd565b15156126bd57600080fd5b505050565b6126ca613c5c565b6126d2613c5c565b82517fffffffffffffffffffffffffffffffffffffffffffffffffffffffff000000009081166101208301526020808501519091166101408301526000610180830181905260026101a084018190526101c084015280835290820181905260016101608301527ffffffffffffffe7ffdbfffffffffffff0000000000000000000000000000000061010083015280808080805b603c8260ff16108015612776575085155b156128c757602087610180015160ff16106127965786610140015161279d565b8661012001515b90506127bf81602089610180015160ff168115156127b757fe5b066020612fa8565b94506127ca85613017565b90945092506127d885613052565b15955060ff82161580156127fe57508360ff1660021415806127fe57508260ff16600314155b1561280b57600180885295505b8515801561281c575060088460ff16105b801561282b575060088360ff16105b801561283b575060008460ff1610155b801561284b575060008360ff1610155b156128bc5761285b87858561305f565b6101808101805160010160ff1690528051909750156128bc576000875261016087015160ff166001141561289657600261016088015261289f565b60016101608801525b6128aa87858561305f565b8051909750156128bc57600180885295505b600190910190612765565b865115156128ea57600087526128dc876132d3565b96506128e7876134cf565b96505b5094979650505050505050565b60008282111561290357fe5b50900390565b6000918252600c602052604090912060020180547fffffffffffffffffffffffff00000000000000000000000000000000000000001673ffffffffffffffffffffffffffffffffffffffff909216919091179055565b6000918252600c602052604090912060010155565b8181018281101561256e57fe5b6000806000806000806000600260009054906101000a900473ffffffffffffffffffffffffffffffffffffffff1673ffffffffffffffffffffffffffffffffffffffff1663785d8d716040518163ffffffff167c010000000000000000000000000000000000000000000000000000000002815260040160c060405180830381600087803b158015612a1257600080fd5b505af1158015612a26573d6000803e3d6000fd5b505050506040513d601f19601f82011682018060405250612a4a91908101906142ac565b6002546040517fc53b4bf9000000000000000000000000000000000000000000000000000000008152969d50949b509299509097509550935073ffffffffffffffffffffffffffffffffffffffff169063c53b4bf990612aae908b906004016144df565b602060405180830381600087803b158015612ac857600080fd5b505af1158015612adc573d6000803e3d6000fd5b505050506040513d601f19601f82011682018060405250612b00919081019061428e565b9050612b2760008211612b14576000612b17565b60015b889060ff1663ffffffff6128f716565b9650612b3f866001601084041663ffffffff6128f716565b9550612b57856001600884041663ffffffff6128f716565b9450612b6f846001600484041663ffffffff6128f716565b9350612b87836002830460011663ffffffff6128f716565b9250612b9c826001831663ffffffff6128f716565b6002546040517f8b1b2ba800000000000000000000000000000000000000000000000000000000815291935073ffffffffffffffffffffffffffffffffffffffff1690638b1b2ba890612bfd908a908a908a908a908a908a90600401614568565b600060405180830381600087803b158015612c1757600080fd5b505af1158015612c2b573d6000803e3d6000fd5b505050505050505050505050565b6000908152600c6020526040812080547fffffffffffffffffffffffffffffffffffffffffffffffffffffffffffffff00168155600181019190915560020180547fffffffffffffffffffffffff0000000000000000000000000000000000000000169055565b6000806000806000806000600260009054906101000a900473ffffffffffffffffffffffffffffffffffffffff1673ffffffffffffffffffffffffffffffffffffffff1663785d8d716040518163ffffffff167c010000000000000000000000000000000000000000000000000000000002815260040160c060405180830381600087803b158015612d3157600080fd5b505af1158015612d45573d6000803e3d6000fd5b505050506040513d601f19601f82011682018060405250612d6991908101906142ac565b6002546040517fc53b4bf9000000000000000000000000000000000000000000000000000000008152969d50949b509299509097509550935073ffffffffffffffffffffffffffffffffffffffff169063c53b4bf990612dcd908b906004016144df565b602060405180830381600087803b158015612de757600080fd5b505af1158015612dfb573d6000803e3d6000fd5b505050506040513d601f19601f82011682018060405250612e1f919081019061428e565b9050612e4660008211612e33576000612e36565b60015b889060ff1663ffffffff61297416565b9650612e5e866001601084041663ffffffff61297416565b9550612e76856001600884041663ffffffff61297416565b9450612e8e846001600484041663ffffffff61297416565b9350612ea6836002830460011663ffffffff61297416565b9250612b9c826001831663ffffffff61297416565b6000821515612ecc5750600061256e565b50818102818382811515612edc57fe5b041461256e57fe5b60008183811515612ef157fe5b049392505050565b73ffffffffffffffffffffffffffffffffffffffff81161515612f1b57600080fd5b6000805460405173ffffffffffffffffffffffffffffffffffffffff808516939216917f8be0079c531659141344cd1fd0a4f28419497f9722a3daafe3b4186f6b6457e091a3600080547fffffffffffffffffffffffff00000000000000000000000000000000000000001673ffffffffffffffffffffffffffffffffffffffff92909216919091179055565b640100000000647f00000000600793840292909302919091037ffffffffffffffffffffffffffffffffffffffffffffffffffffffffffffffff90160ff1660020a7fffffffffffffffffffffffffffffffffffffffffffffffffffffffff000000009390931692909204160490565b7fffffffffffffffffffffffffffffffffffffffffffffffffffffffffffffffc081810160071692600860ff93859003909201929092160490565b604060ff82161015919050565b613067613c5c565b61306f613cf3565b600080600080600080600080600360ff166130908e61010001518e8e61375a565b60ff16146130a45760018d528c99506132c3565b6130af8d8d8d6137cc565b909950975060ff881615156130ca5760018d528c99506132c3565b5060009050805b8760ff168160ff16101561321d57600096508695506131058d8a60ff8416600881106130f957fe5b60200201518e8e6139b1565b9097509550600092505b8560ff168360ff1610156132155781151561312957600191505b61313c613137888589612fa8565b613017565b809550819650505061315a8d61010001518e61016001518787613ae7565b6fffffffffffffffffffffffffffffffff19166101008e01526101608d015160ff16600214156131c9576101c08d01805160010160ff9081169091526101a08e0180517fffffffffffffffffffffffffffffffffffffffffffffffffffffffffffffffff01909116905261320a565b6101c08d0180517fffffffffffffffffffffffffffffffffffffffffffffffffffffffffffffffff0160ff9081169091526101a08e01805160010190911690525b60019092019161310f565b6001016130d1565b811561328c576132398d61010001518e61016001518e8e613ae7565b6fffffffffffffffffffffffffffffffff19166101008e01526101608d015160ff1660021415613277576101c08d01805160010160ff169052613287565b6101a08d01805160010160ff1690525b613298565b60018d528c99506132c3565b6101608d015160ff16600114156132b65760026101608e01526132bf565b60016101608e01525b8c99505b5050505050505050509392505050565b6132db613c5c565b6132e3613d22565b60008060008060006132f3613cd8565b88610180015160ff16603c141561331357600160208a0152889750611925565b60009550600094505b60408560ff16101561339f5761010089015161334790600860078816880360ff16046007881661375a565b935060ff841660031415613394576040805180820190915260086007871680880360ff9081169290920482168352602083015288908816603c811061338857fe5b60200201526001909501945b60019094019361331c565b6000925060008660ff1611156134a7578861010001519150600094505b8560ff168560ff161080156133cf575082155b1561348c578660ff8616603c81106133e357fe5b602002015160016101608b01526000808b526fffffffffffffffffffffffffffffffff1984166101008c015290915061342d908a9083905b6020020151836001602002015161305f565b8051909950151561343d57600192505b60026101608a01526000808a526fffffffffffffffffffffffffffffffff1983166101008b0152613471908a90839061341b565b8051909950151561348157600192505b6001909401936133bc565b6fffffffffffffffffffffffffffffffff1982166101008a01525b82156134b657600189526134c2565b600160208a0152600089525b5096979650505050505050565b6134d7613c5c565b6001808080806000805b60088260ff16108015613510575086806134f85750855b806135005750845b806135085750835b806135105750825b15613702575060005b60088160ff16108015613548575086806135305750855b806135385750845b806135405750835b806135485750825b156136f7576135638961010001518360070383600703613b89565b6fffffffffffffffffffffffffffffffff19166135868a61010001518484613b89565b6fffffffffffffffffffffffffffffffff1916146135a357600096505b6135b68961010001518383600703613b89565b6fffffffffffffffffffffffffffffffff19166135d98a61010001518484613b89565b6fffffffffffffffffffffffffffffffff1916146135f657600095505b6136098961010001518360070383613b89565b6fffffffffffffffffffffffffffffffff191661362c8a61010001518484613b89565b6fffffffffffffffffffffffffffffffff19161461364957600094505b61365f8961010001518260070384600703613b89565b6fffffffffffffffffffffffffffffffff19166136828a61010001518484613b89565b6fffffffffffffffffffffffffffffffff19161461369f57600093505b6136af8961010001518284613b89565b6fffffffffffffffffffffffffffffffff19166136d28a61010001518484613b89565b6fffffffffffffffffffffffffffffffff1916146136ef57600092505b600101613519565b6001909101906134e1565b868061370b5750855b806137135750845b8061371b5750835b806137235750825b156134c25750506001604088015293151560608701529115156080860152151560a0850152151560c0840152151560e08301525090565b60008060006137698585613be0565b7001000000000000000000000000000000006fffffffffffffffffffffffffffffffff821660020a6fffffffffffffffffffffffffffffffff19891604700300000000000000000000000000000000169081049450909250905050509392505050565b6137d4613cf3565b60006137de613cf3565b60006137e8613cf3565b6000806137f3613cd8565b60408051610140810182527fffffffffffffffffffffffffffffffffffffffffffffffffffffffffffffffff61010082018181526000610120840181905290835283518085018552828152600160208281018290528086019290925285518087018752838152808301829052858701528551808701875281815280830182905260608601528551808701875281815280830184905260808601528551808701875290815280820184905260a08501528451808601865282815280820184905260c0850152845180860190955282855284019190915260e0820192909252909550935084805b60088160ff16101561399e578560ff8216600881106138f357fe5b6020020151925082600060200201518c01935082600160200201518b01945060078560000b1380613927575060008560000b125b80613935575060078460000b135b80613943575060008460000b125b1515613996576139598d6101000151858761375a565b91508c610160015160ff168260ff161415156139965760ff821660031461399657828860ff89166008811061398a57fe5b60200201526001909601955b6001016138d8565b50959b949a509398505050505050505050565b60008060008060008060008060008060009650600160ff168e610160015160ff1614156139e157600295506139e6565b600195505b506000935060015b60098160ff161015613ad357841515613acb578c5160208e01519082028d01945081028b0192506007600085900b1380613a2b575060008460000b125b80613a39575060078360000b135b80613a47575060008360000b125b15613a5d57600097506000965060019450613acb565b613a6d8e6101000151858561375a565b91508560ff168260ff161415613a9357613a8988888686613c15565b9098509650613acb565b8d610160015160ff168260ff16148015613ab0575060018160ff16115b15613abe5760019450613acb565b6000975060009650600194505b6001016139ee565b50959c949b50939950505050505050505050565b600080600060078560ff161115613afd57600080fd5b60078460ff161115613b0e57600080fd5b613b188585613be0565b6fffffffffffffffffffffffffffffffff811660020a70030000000000000000000000000000000081028981189099169860ff8916700100000000000000000000000000000000026fffffffffffffffffffffffffffffffff19169091028917945090925090505050949350505050565b600080613b968484613be0565b6fffffffffffffffffffffffffffffffff811660020a6fffffffffffffffffffffffffffffffff198716047003000000000000000000000000000000001692509050509392505050565b600891909102016040037fffffffffffffffffffffffffffffffffffffffffffffffffffffffffffffffff0160020260ff1690565b6008020160400160ff16640100000000027fffffffffffffffffffffffffffffffffffffffffffffffffffffffff0000000092909216608002919091179160019190910190565b604080516101e081018252600080825260208201819052918101829052606081018290526080810182905260a0810182905260c0810182905260e08101829052610100810182905261012081018290526101408101829052610160810182905261018081018290526101a081018290526101c081019190915290565b60408051808201825290600290829080388339509192915050565b610200604051908101604052806008905b613d0c613cd8565b815260200190600190039081613d045790505090565b610f0060405190810160405280603c905b613d3b613cd8565b815260200190600190039081613d335790505090565b6000613d5d8235614616565b9392505050565b6000601f82018313613d7557600080fd5b6002613d88613d83826145e9565b6145c2565b91508183856020840282011115613d9e57600080fd5b60005b83811015613dca5781613db48882613e59565b8452506020928301929190910190600101613da1565b5050505092915050565b6000601f82018313613de557600080fd5b6002613df3613d83826145e9565b91508183856020840282011115613e0957600080fd5b60005b83811015613dca5781613e1f8882613e65565b8452506020928301929190910190600101613e0c565b6000613d5d823561462f565b6000613d5d825161462f565b6000613d5d8235614659565b6000613d5d8235614634565b6000613d5d8251614634565b6000613d5d8235614607565b600080601f83018413613e8f57600080fd5b50813567ffffffffffffffff811115613ea757600080fd5b602083019150836001820283011115613ebf57600080fd5b9250929050565b6000613d5d823561466f565b60006101e08284031215613ee557600080fd5b613ef06101e06145c2565b90506000613efe8484613e35565b8252506020613f0f84848301613e35565b6020830152506040613f2384828501613e35565b6040830152506060613f3784828501613e35565b6060830152506080613f4b84828501613e35565b60808301525060a0613f5f84828501613e35565b60a08301525060c0613f7384828501613e35565b60c08301525060e0613f8784828501613e35565b60e083015250610100613f9c84828501613e4d565b61010083015250610120613fb284828501613e59565b61012083015250610140613fc884828501613e59565b61014083015250610160613fde84828501614039565b61016083015250610180613ff484828501614039565b610180830152506101a061400a84828501614039565b6101a0830152506101c061402084828501614039565b6101c08301525092915050565b6000613d5d8251614607565b6000613d5d823561467a565b60006020828403121561405757600080fd5b60006140638484613d51565b949350505050565b60008060006060848603121561408057600080fd5b600061408c8686613d51565b935050602061409d86828701613d51565b92505060406140ae86828701613e71565b9150509250925092565b600080600080606085870312156140ce57600080fd5b60006140da8787613d51565b94505060206140eb87828801613e71565b935050604085013567ffffffffffffffff81111561410857600080fd5b61411487828801613e7d565b95989497509550505050565b60006040828403121561413257600080fd5b60006140638484613d64565b60006040828403121561415057600080fd5b60006140638484613dd4565b60008060008060a0858703121561417257600080fd5b600061417e8787613d64565b945050604061418f87828801613e71565b93505060606141a087828801613e71565b92505060806141b187828801613e35565b91505092959194509250565b6000602082840312156141cf57600080fd5b60006140638484613e41565b6000602082840312156141ed57600080fd5b60006140638484613e4d565b60006020828403121561420b57600080fd5b60006140638484613e71565b6000806040838503121561422a57600080fd5b60006142368585613e71565b925050602061424785828601613d51565b9150509250929050565b60006020828403121561426357600080fd5b60006140638484613ec6565b60006101e0828403121561428257600080fd5b60006140638484613ed2565b6000602082840312156142a057600080fd5b6000614063848461402d565b60008060008060008060c087890312156142c557600080fd5b60006142d1898961402d565b96505060206142e289828a0161402d565b95505060406142f389828a0161402d565b945050606061430489828a0161402d565b935050608061431589828a0161402d565b92505060a061432689828a0161402d565b9150509295509295509295565b61433c81614616565b82525050565b61434b8161460a565b61435482614607565b60005b828110156143845761436a858351614394565b61437382614610565b602095909501949150600101614357565b5050505050565b61433c8161462f565b61433c81614634565b61433c81614607565b61433c8161466f565b6020810161256e8284614333565b606081016143cb8286614333565b6143d86020830185614333565b614063604083018461439d565b604081016143f38285614333565b613d5d602083018461439d565b60c0810161440e8288614342565b61441b604083018761439d565b6144286060830186614333565b6144356080830185614333565b61444260a083018461439d565b9695505050505050565b610100810161445b828a614342565b614468604083018961439d565b6144756060830188614333565b614482608083018761439d565b61448f60a083018661439d565b61449c60c083018561439d565b61253260e083018461438b565b6020810161256e828461438b565b606081016144c5828661438b565b6144d2602083018561439d565b6140636040830184614333565b6020810161256e828461439d565b604081016144fb828561439d565b613d5d6020830184614333565b6020810161256e82846143a6565b606081016143cb828661439d565b60608101614532828561439d565b613d5d6020830184614342565b6040810161454d828561439d565b613d5d602083018461438b565b604081016143f3828561439d565b60c08101614576828961439d565b614583602083018861439d565b614590604083018761439d565b61459d606083018661439d565b6145aa608083018561439d565b6145b760a083018461439d565b979650505050505050565b60405181810167ffffffffffffffff811182821017156145e157600080fd5b604052919050565b600067ffffffffffffffff82111561460057600080fd5b5060200290565b90565b50600290565b60200190565b73ffffffffffffffffffffffffffffffffffffffff1690565b151590565b7fffffffffffffffffffffffffffffffffffffffffffffffffffffffff000000001690565b6fffffffffffffffffffffffffffffffff191690565b600061256e82614616565b60ff16905600a265627a7a72305820c07c97d6bcd53b5b75792688538c3cd9225b7d73e95a2b5eaae24d37451fbbef6c6578706572696d656e74616cf50037",
  "source": "pragma solidity ^0.4.18;\npragma experimental ABIEncoderV2;\n\n/**\n * The CloversController is a replaceable endpoint for minting and unminting Clovers.sol and ClubToken.sol\n */\n\nimport \"./Reversi.sol\";\nimport \"./IClovers.sol\";\nimport \"./IClubToken.sol\";\nimport \"./ICloversController.sol\";\nimport \"./IClubTokenController.sol\";\nimport \"./ISimpleCloversMarket.sol\";\nimport \"zeppelin-solidity/contracts/ownership/HasNoTokens.sol\";\nimport \"zeppelin-solidity/contracts/ownership/HasNoEther.sol\";\nimport \"zeppelin-solidity/contracts/math/SafeMath.sol\";\n\n\ncontract CloversController is HasNoEther, HasNoTokens {\n    event cloverCommitted(bytes32 movesHash, address owner);\n    event cloverClaimed(bytes28[2] moves, uint256 tokenId, address owner, uint stake, uint reward, uint256 symmetries, bool keep);\n    event stakeRetrieved(uint256 tokenId, address owner, uint stake);\n    event cloverChallenged(bytes28[2] moves, uint256 tokenId, address owner, address challenger, uint stake);\n\n    using SafeMath for uint256;\n\n    address public oracle;\n    address public clovers;\n    address public clubToken;\n    address public clubTokenController;\n    address public simpleCloversMarket;\n    address public curationMarket;\n\n    uint256 public basePrice;\n    uint256 public priceMultiplier;\n    uint256 public payMultiplier;\n    uint256 public stakeAmount;\n    uint256 public stakePeriod;\n\n    struct Commit {\n        bool collected;\n        uint256 stake;\n        address committer;\n    }\n\n    mapping (bytes32 => Commit) public commits;\n\n    constructor(address _clovers, address _clubToken, address _clubTokenController) public {\n        clovers = _clovers;\n        clubToken = _clubToken;\n        clubTokenController = _clubTokenController;\n    }\n    /**\n    * @dev Gets the current stake of a Clover based on the hash of the moves.\n    * @param movesHash The hash of the moves that make up the clover.\n    * @return A uint256 value of stake.\n    */\n    function getStake(bytes32 movesHash) public view returns (uint256) {\n        return commits[movesHash].stake;\n    }\n    /**\n    * @dev Gets the address of the committer of a Clover based on the hash of the moves.\n    * @param movesHash The hash of the moves that make up the clover.\n    * @return The address of the committer.\n    */\n    function getCommit(bytes32 movesHash) public view returns (address) {\n        return commits[movesHash].committer;\n    }\n    /**\n    * @dev Gets the current staking period needed to verify a Clover.\n    * @param _tokenId The token Id of the clover.\n    * @return A uint256 value of stake period in seconds.\n    */\n    function getMovesHash(uint _tokenId) public constant returns (bytes32) {\n        return keccak256(IClovers(clovers).getCloverMoves(_tokenId));\n    }\n    /**\n    * @dev Checks whether the game is valid.\n    * @param moves The moves needed to play validate the game.\n    * @return A boolean representing whether or not the game is valid.\n    */\n    function isValid(bytes28[2] moves) public constant returns (bool) {\n        Reversi.Game memory game = Reversi.playGame(moves);\n        return isValidGame(game);\n    }\n\n    /**\n    * @dev Checks whether the game is valid.\n    * @param game The pre-played game.\n    * @return A boolean representing whether or not the game is valid.\n    */\n    function isValidGame(Reversi.Game game) public pure returns (bool) {\n        if (game.error) return false;\n        if (!game.complete) return false;\n        return true;\n    }\n    /**\n    * @dev Checks whether the game has passed the verification period.\n    * @param _tokenId The board being checked.\n    * @return A boolean representing whether or not the game has been verified.\n    */\n    function isVerified(uint256 _tokenId) public constant returns (bool) {\n        uint256 _blockMinted = IClovers(clovers).getBlockMinted(_tokenId);\n        if(_blockMinted == 0) return false;\n        return block.number.sub(_blockMinted) > stakePeriod;\n    }\n    /**\n    * @dev Calculates the reward of the board.\n    * @param _symmetries symmetries saved as a uint256 value like 00010101 where bits represent symmetry types.\n    * @return A uint256 representing the reward that would be returned for claiming the board.\n    */\n    function calculateReward(uint256 _symmetries) public constant returns (uint256) {\n        uint256 Symmetricals;\n        uint256 RotSym;\n        uint256 Y0Sym;\n        uint256 X0Sym;\n        uint256 XYSym;\n        uint256 XnYSym;\n        (Symmetricals,\n        RotSym,\n        Y0Sym,\n        X0Sym,\n        XYSym,\n        XnYSym) = IClovers(clovers).getAllSymmetries();\n        uint256 base = 0;\n        if (_symmetries >> 4 & 1 == 1) base = base.add(payMultiplier.mul(Symmetricals + 1).div(RotSym + 1));\n        if (_symmetries >> 3 & 1 == 1) base = base.add(payMultiplier.mul(Symmetricals + 1).div(Y0Sym + 1));\n        if (_symmetries >> 2 & 1 == 1) base = base.add(payMultiplier.mul(Symmetricals + 1).div(X0Sym + 1));\n        if (_symmetries >> 1 & 1 == 1) base = base.add(payMultiplier.mul(Symmetricals + 1).div(XYSym + 1));\n        if (_symmetries & 1 == 1) base = base.add(payMultiplier.mul(Symmetricals + 1).div(XnYSym + 1));\n        return base;\n    }\n\n/*\n    // NOTE: Disabled to reduce contract size\n    function instantClaimClover(bytes28[2] moves, bool _keep) public payable returns (bool) {\n        Reversi.Game memory game = Reversi.playGame(moves);\n        require(isValidGame(game));\n        uint256 tokenId = uint256(game.board);\n        require(IClovers(clovers).getBlockMinted(tokenId) == 0);\n        require(!IClovers(clovers).exists(tokenId));\n        IClovers(clovers).setBlockMinted(tokenId, block.number);\n        IClovers(clovers).setCloverMoves(tokenId, moves);\n\n        uint256 symmetries = Reversi.returnSymmetricals(game.RotSym, game.Y0Sym, game.X0Sym, game.XYSym, game.XnYSym);\n        uint256 reward;\n\n        if (uint256(symmetries) > 0) {\n            IClovers(clovers).setSymmetries(tokenId, uint256(symmetries));\n            reward = calculateReward(uint256(symmetries));\n            IClovers(clovers).setReward(tokenId, reward);\n        }\n        if (_keep) {\n            // If the user decides to keep the Clover, they must\n            // pay for it in club tokens according to the reward price.\n            if (IClubToken(clubToken).balanceOf(msg.sender) < reward) {\n                IClubTokenController(clubTokenController).buy.value(msg.value)(msg.sender); // msg.value needs to be enough to buy \"reward\" amount of Club Token\n            }\n            if (reward > 0) {\n                // IClubToken(clubToken).transferFrom(msg.sender, clubToken, reward); // if we'd rather keep the money\n                IClubToken(clubToken).burn(msg.sender, reward);\n            }\n            IClovers(clovers).mint(msg.sender, tokenId);\n        } else {\n            // If the user decides not to keep the Clover, they will\n            // receive the reward price in club tokens, and the clover will\n            // go for sale at 10x the reward price.\n            if (reward > 0) {\n                require(IClubToken(clubToken).mint(msg.sender, reward));\n            }\n            IClovers(clovers).mint(clovers, tokenId);\n        }\n\n    } */\n\n    function getPrice(uint256 _symmetries) public constant returns(uint256) {\n        return basePrice.add(calculateReward(_symmetries));\n    }\n\n    /**\n    * @dev Claim the Clover without a commit or reveal. Payable so you can attach enough for the stake,\n    * as well as enough to buy tokens if needed to keep the Clover.\n    * @param moves The moves that make up the Clover reversi game.\n    * @param _tokenId The board that results from the moves.\n    * @param _symmetries symmetries saved as a uint256 value like 00010101 where bits represent symmetry\n    * types.\n    * @return A boolean representing whether or not the claim was successful.\n    */\n    function claimClover(bytes28[2] moves, uint256 _tokenId, uint256 _symmetries, bool _keep) public payable returns (bool) {\n        emit cloverClaimed(moves, _tokenId, msg.sender, _tokenId, _tokenId, _symmetries, _keep);\n\n        bytes32 movesHash = keccak256(moves);\n\n        require(msg.value >= stakeAmount);\n        require(getCommit(movesHash) == 0);\n\n        setCommit(movesHash, msg.sender);\n        if (stakeAmount > 0) {\n            setStake(movesHash, stakeAmount);\n            clovers.transfer(stakeAmount);\n        }\n\n        emit cloverCommitted(movesHash, msg.sender);\n\n        require(!IClovers(clovers).exists(_tokenId));\n        require(IClovers(clovers).getBlockMinted(_tokenId) == 0);\n\n        IClovers(clovers).setBlockMinted(_tokenId, block.number);\n        IClovers(clovers).setCloverMoves(_tokenId, moves);\n        IClovers(clovers).setKeep(_tokenId, _keep);\n\n        uint256 reward;\n        if (_symmetries > 0) {\n            IClovers(clovers).setSymmetries(_tokenId, _symmetries);\n            reward = calculateReward(_symmetries);\n            IClovers(clovers).setReward(_tokenId, reward);\n        }\n        uint256 price = basePrice.add(reward);\n        if (_keep && price > 0) {\n            // If the user decides to keep the Clover, they must\n            // pay for it in club tokens according to the reward price.\n            if (IClubToken(clubToken).balanceOf(msg.sender) < price) {\n                IClubTokenController(clubTokenController).buy.value(msg.value.sub(stakeAmount))(msg.sender);\n            }\n            require(IClubToken(clubToken).transferFrom(msg.sender, clovers, price));\n            // IClubToken(clubToken).burn(committer, price);\n        }\n        IClovers(clovers).mint(clovers, _tokenId);\n        emit cloverClaimed(moves, _tokenId, msg.sender, stakeAmount, reward, _symmetries, _keep);\n        return true;\n    }\n    /**\n    * @dev Commit the hash of the moves needed to claim the Clover. A stake should be\n    * made for counterfactual verification.\n    * @param movesHash The hash of the moves that makes up the Clover reversi\n    * game.\n    * @return A boolean representing whether or not the commit was successful.\n    NOTE: Disabled for contract size, if front running becomes a problem it can be\n    implemented with an upgrade\n    */\n    /* function claimCloverCommit(bytes32 movesHash) public payable returns (bool) {\n        require(msg.value <= stakeAmount);\n        require(getCommit(movesHash) == 0);\n\n        setCommit(movesHash, msg.sender);\n        setStake(movesHash, stakeAmount);\n\n        clovers.transfer(stakeAmount);\n\n        emit cloverCommitted(movesHash, msg.sender);\n        return true;\n    } */\n    /**\n    * @dev Reveal the solution to the previous commit to claim the Clover.\n    * @param moves The moves that make up the Clover reversi game.\n    * @param _tokenId The board that results from the moves.\n    * @param _symmetries symmetries saved as a uint256 value like 00010101 where bits represent symmetry types.\n    * @return A boolean representing whether or not the reveal and claim was successful.\n    NOTE: Disabled for contract size, if front running becomes a problem it can be implemented with an upgrade\n    */\n    /* function claimCloverReveal(bytes28[2] moves, uint256 _tokenId, uint256 _symmetries, bool _keep) public returns (bool) {\n        bytes32 movesHash = keccak256(moves);\n        address committer = getCommit(movesHash);\n\n        require(IClovers(clovers).getBlockMinted(_tokenId) == 0);\n\n        IClovers(clovers).setBlockMinted(_tokenId, block.number);\n        IClovers(clovers).setCloverMoves(_tokenId, moves);\n        IClovers(clovers).setKeep(_tokenId, _keep);\n        uint256 reward;\n        if (_symmetries > 0) {\n            IClovers(clovers).setSymmetries(_tokenId, _symmetries);\n            reward = calculateReward(_symmetries);\n            IClovers(clovers).setReward(_tokenId, reward);\n        }\n        if (_keep) {\n            IClubToken(clubToken).increaseApproval(address(this), basePrice.add(reward));\n        }\n        uint256 stake = getStake(movesHash);\n        emit cloverClaimed(moves, _tokenId, committer, stake, reward, _symmetries, _keep);\n        return true;\n    } */\n\n    /**\n    * @dev Retrieve the stake from a Clover claim after the stake period has ended, or with the authority of the oracle.\n    * @param _tokenId The board which holds the stake.\n    * @return A boolean representing whether or not the retrieval was successful.\n    */\n    function retrieveStake(uint256 _tokenId) public payable returns (bool) {\n        bytes28[2] memory moves = IClovers(clovers).getCloverMoves(_tokenId);\n        bytes32 movesHash = keccak256(moves);\n\n        require(!commits[movesHash].collected);\n        commits[movesHash].collected = true;\n\n        require(isVerified(_tokenId) || msg.sender == owner || msg.sender == oracle);\n\n        uint256 stake = getStake(movesHash);\n        addSymmetries(_tokenId);\n        address committer = getCommit(movesHash);\n        require(committer == msg.sender || msg.sender == owner || msg.sender == oracle);\n        uint256 reward = IClovers(clovers).getReward(_tokenId);\n        bool _keep = IClovers(clovers).getKeep(_tokenId);\n\n        if (_keep) {\n            // If the user decided to keep the Clover, they will\n            // receive the clover now that it has been verified\n            IClovers(clovers).transferFrom(clovers, committer, _tokenId);\n        } else {\n            // If the user decided not to keep the Clover, they will\n            // receive the reward price in club tokens, and the clover will\n            // go for sale by the contract.\n            ISimpleCloversMarket(simpleCloversMarket).sell(_tokenId, basePrice.add(reward.mul(priceMultiplier)));\n            if (reward > 0) {\n                require(IClubToken(clubToken).mint(committer, reward));\n            }\n        }\n        if (stake > 0) {\n            IClovers(clovers).moveEth(msg.sender, stake);\n        }\n        emit stakeRetrieved(_tokenId, msg.sender, stake);\n        return true;\n    }\n\n\n    /**\n    * @dev Convert a bytes16 board into a uint256.\n    * @param _board The board being converted.\n    * @return number the uint256 being converted.\n    */\n    function convertBytes16ToUint(bytes16 _board) public view returns(uint256 number) {\n        for(uint i=0;i<_board.length;i++){\n            number = number + uint(_board[i])*(2**(8*(_board.length-(i+1))));\n        }\n    }\n\n    /**\n    * @dev Challenge a staked Clover for being invalid.\n    * @param _tokenId The board being challenged.\n    * @return A boolean representing whether or not the challenge was successful.\n    */\n    function challengeClover(uint256 _tokenId) public returns (bool) {\n        bool valid = true;\n        bytes28[2] memory moves = IClovers(clovers).getCloverMoves(_tokenId);\n\n        if (msg.sender != owner && msg.sender != oracle) {\n            Reversi.Game memory game = Reversi.playGame(moves);\n            if(convertBytes16ToUint(game.board) != _tokenId) {\n                valid = false;\n            }\n            if(valid && isValidGame(game)) {\n                uint256 _symmetries = IClovers(clovers).getSymmetries(_tokenId);\n                valid = (_symmetries >> 4 & 1) > 0 == game.RotSym ? valid : false;\n                valid = (_symmetries >> 3 & 1) > 0 == game.Y0Sym ? valid : false;\n                valid = (_symmetries >> 2 & 1) > 0 == game.X0Sym ? valid : false;\n                valid = (_symmetries >> 1 & 1) > 0 == game.XYSym ? valid : false;\n                valid = (_symmetries & 1) > 0 == game.XnYSym ? valid : false;\n            } else {\n                valid = false;\n            }\n            require(!valid);\n        }\n        bytes32 movesHash = keccak256(moves);\n        uint256 stake = getStake(movesHash);\n        if (!isVerified(_tokenId) && stake > 0) {\n            IClovers(clovers).moveEth(msg.sender, stake);\n        }\n        if (commits[movesHash].collected) {\n            removeSymmetries(_tokenId);\n        }\n\n        address committer = getCommit(movesHash);\n        emit cloverChallenged(moves, _tokenId, committer, msg.sender, stake);\n\n        IClovers(clovers).deleteClover(_tokenId);\n        deleteCommit(movesHash);\n        return true;\n    }\n\n\n    /**\n    * @dev Moves clovers without explicit allow permission for use by simpleCloversMarket\n    * in order to avoid double transaction (allow, transferFrom)\n    * @param _from The current owner of the Clover\n    * @param _to The future owner of the Clover\n    * @param _tokenId The Clover\n    */\n    function transferFrom(address _from, address _to, uint256 _tokenId) public {\n        require(msg.sender == simpleCloversMarket || msg.sender == curationMarket);\n        IClovers(clovers).transferFrom(_from, _to, _tokenId);\n    }\n\n    /**\n    * @dev Updates curationMarket Address.\n    * @param _curationMarket The new curationMarket Address.\n    */\n    function updateCurationMarket(address _curationMarket) public onlyOwner {\n        curationMarket = _curationMarket;\n    }\n    /**\n    * @dev Updates oracle Address.\n    * @param _oracle The new oracle Address.\n    */\n    function updateOracle(address _oracle) public onlyOwner {\n        oracle = _oracle;\n    }\n\n    /**\n    * @dev Updates simpleCloversMarket Address.\n    * @param _simpleCloversMarket The new simpleCloversMarket address.\n    */\n    function updateSimpleCloversMarket(address _simpleCloversMarket) public onlyOwner {\n        simpleCloversMarket = _simpleCloversMarket;\n    }\n\n    /**\n    * @dev Updates clubTokenController Address.\n    * @param _clubTokenController The new clubTokenController address.\n    */\n    function updateClubTokenController(address _clubTokenController) public onlyOwner {\n        clubTokenController = _clubTokenController;\n    }\n    /**\n    * @dev Updates the stake amount.\n    * @param _stakeAmount The new amount needed to stake.\n    */\n    function updateStakeAmount(uint256 _stakeAmount) public onlyOwner {\n        stakeAmount = _stakeAmount;\n    }\n    /**\n    * @dev Updates the stake period.\n    * @param _stakePeriod The uint256 value of time needed to stake before being verified.\n    */\n    function updateStakePeriod(uint256 _stakePeriod) public onlyOwner {\n        stakePeriod = _stakePeriod;\n    }\n    /**\n    * @dev Updates the pay multiplier, used to calculate token reward.\n    * @param _payMultiplier The uint256 value of pay multiplier.\n    */\n    function updatePayMultipier(uint256 _payMultiplier) public onlyOwner {\n        payMultiplier = _payMultiplier;\n    }\n    /**\n    * @dev Updates the price multiplier, used to calculate the clover price (multiplied by the original reward).\n    * @param _priceMultiplier The uint256 value of the price multiplier.\n    */\n    function updatePriceMultipier(uint256 _priceMultiplier) public onlyOwner {\n        priceMultiplier = _priceMultiplier;\n    }\n    /**\n    * @dev Updates the base price, used to calculate the clover cost.\n    * @param _basePrice The uint256 value of the base price.\n    */\n    function updateBasePrice(uint256 _basePrice) public onlyOwner {\n        basePrice = _basePrice;\n    }\n\n    /**\n    * @dev Sets the stake of a Clover based on the hash of the moves.\n    * @param movesHash The hash of the moves that make up the clover.\n    * @param stake A uint256 value of stake.\n    */\n    function setStake(bytes32 movesHash, uint256 stake) private {\n        commits[movesHash].stake = stake;\n    }\n\n    /**\n    * @dev Sets the address of the committer of a Clover based on the hash of the moves.\n    * @param movesHash The hash of the moves that make up the clover.\n    * @param committer The address of the committer.\n    */\n    function setCommit(bytes32 movesHash, address committer) private {\n        commits[movesHash].committer = committer;\n    }\n\n    function _setCommit(bytes32 movesHash, address committer) onlyOwner {\n        setCommit(movesHash, committer);\n    }\n    function deleteCommit(bytes32 movesHash) private {\n        delete(commits[movesHash]);\n    }\n\n    /**\n    * @dev Adds new tallys of the totals numbers of clover symmetries.\n    * @param _tokenId The token which needs to be examined.\n    */\n    function addSymmetries(uint256 _tokenId) private {\n        uint256 Symmetricals;\n        uint256 RotSym;\n        uint256 Y0Sym;\n        uint256 X0Sym;\n        uint256 XYSym;\n        uint256 XnYSym;\n        (Symmetricals,\n        RotSym,\n        Y0Sym,\n        X0Sym,\n        XYSym,\n        XnYSym) = IClovers(clovers).getAllSymmetries();\n        uint256 _symmetries = IClovers(clovers).getSymmetries(_tokenId);\n        Symmetricals = Symmetricals.add(_symmetries > 0 ? 1 : 0);\n        RotSym = RotSym.add(uint256(_symmetries >> 4 & 1));\n        Y0Sym = Y0Sym.add(uint256(_symmetries >> 3 & 1));\n        X0Sym = X0Sym.add(uint256(_symmetries >> 2 & 1));\n        XYSym = XYSym.add(uint256(_symmetries >> 1 & 1));\n        XnYSym = XnYSym.add(uint256(_symmetries & 1));\n        IClovers(clovers).setAllSymmetries(Symmetricals, RotSym, Y0Sym, X0Sym, XYSym, XnYSym);\n    }\n    /**\n    * @dev Remove false tallys of the totals numbers of clover symmetries.\n    * @param _tokenId The token which needs to be examined.\n    */\n    function removeSymmetries(uint256 _tokenId) private {\n        uint256 Symmetricals;\n        uint256 RotSym;\n        uint256 Y0Sym;\n        uint256 X0Sym;\n        uint256 XYSym;\n        uint256 XnYSym;\n        (Symmetricals,\n        RotSym,\n        Y0Sym,\n        X0Sym,\n        XYSym,\n        XnYSym) = IClovers(clovers).getAllSymmetries();\n        uint256 _symmetries = IClovers(clovers).getSymmetries(_tokenId);\n        Symmetricals = Symmetricals.sub(_symmetries > 0 ? 1 : 0);\n        RotSym = RotSym.sub(uint256(_symmetries >> 4 & 1));\n        Y0Sym = Y0Sym.sub(uint256(_symmetries >> 3 & 1));\n        X0Sym = X0Sym.sub(uint256(_symmetries >> 2 & 1));\n        XYSym = XYSym.sub(uint256(_symmetries >> 1 & 1));\n        XnYSym = XnYSym.sub(uint256(_symmetries & 1));\n        IClovers(clovers).setAllSymmetries(Symmetricals, RotSym, Y0Sym, X0Sym, XYSym, XnYSym);\n    }\n\n}\n",
  "sourcePath": "/home/billyrennekamp/GitHub.com/clovers-network/clovers-contracts/contracts/CloversController.sol",
  "compiler": {
    "name": "solc",
    "version": "0.4.24+commit.e67f0147.Emscripten.clang"
  },
  "schemaVersion": "2.0.1",
  "updatedAt": "2019-06-05T10:05:13.677Z"
}