{
  "contractName": "Clovers",
  "abi": [
    {
      "constant": true,
      "inputs": [
        {
          "name": "_interfaceId",
          "type": "bytes4"
        }
      ],
      "name": "supportsInterface",
      "outputs": [
        {
          "name": "",
          "type": "bool"
        }
      ],
      "payable": false,
      "stateMutability": "view",
      "type": "function"
    },
    {
      "constant": true,
      "inputs": [],
      "name": "name",
      "outputs": [
        {
          "name": "",
          "type": "string"
        }
      ],
      "payable": false,
      "stateMutability": "view",
      "type": "function"
    },
    {
      "constant": true,
      "inputs": [
        {
          "name": "_tokenId",
          "type": "uint256"
        }
      ],
      "name": "getApproved",
      "outputs": [
        {
          "name": "",
          "type": "address"
        }
      ],
      "payable": false,
      "stateMutability": "view",
      "type": "function"
    },
    {
      "constant": false,
      "inputs": [
        {
          "name": "_to",
          "type": "address"
        },
        {
          "name": "_tokenId",
          "type": "uint256"
        }
      ],
      "name": "approve",
      "outputs": [],
      "payable": false,
      "stateMutability": "nonpayable",
      "type": "function"
    },
    {
      "constant": true,
      "inputs": [],
      "name": "totalSupply",
      "outputs": [
        {
          "name": "",
          "type": "uint256"
        }
      ],
      "payable": false,
      "stateMutability": "view",
      "type": "function"
    },
    {
      "constant": true,
      "inputs": [],
      "name": "InterfaceId_ERC165",
      "outputs": [
        {
          "name": "",
          "type": "bytes4"
        }
      ],
      "payable": false,
      "stateMutability": "view",
      "type": "function"
    },
    {
      "constant": false,
      "inputs": [
        {
          "name": "_from",
          "type": "address"
        },
        {
          "name": "_to",
          "type": "address"
        },
        {
          "name": "_tokenId",
          "type": "uint256"
        }
      ],
      "name": "transferFrom",
      "outputs": [],
      "payable": false,
      "stateMutability": "nonpayable",
      "type": "function"
    },
    {
      "constant": true,
      "inputs": [
        {
          "name": "_owner",
          "type": "address"
        },
        {
          "name": "_index",
          "type": "uint256"
        }
      ],
      "name": "tokenOfOwnerByIndex",
      "outputs": [
        {
          "name": "",
          "type": "uint256"
        }
      ],
      "payable": false,
      "stateMutability": "view",
      "type": "function"
    },
    {
      "constant": false,
      "inputs": [
        {
          "name": "_from",
          "type": "address"
        },
        {
          "name": "_to",
          "type": "address"
        },
        {
          "name": "_tokenId",
          "type": "uint256"
        }
      ],
      "name": "safeTransferFrom",
      "outputs": [],
      "payable": false,
      "stateMutability": "nonpayable",
      "type": "function"
    },
    {
      "constant": true,
      "inputs": [
        {
          "name": "_tokenId",
          "type": "uint256"
        }
      ],
      "name": "exists",
      "outputs": [
        {
          "name": "",
          "type": "bool"
        }
      ],
      "payable": false,
      "stateMutability": "view",
      "type": "function"
    },
    {
      "constant": true,
      "inputs": [
        {
          "name": "_index",
          "type": "uint256"
        }
      ],
      "name": "tokenByIndex",
      "outputs": [
        {
          "name": "",
          "type": "uint256"
        }
      ],
      "payable": false,
      "stateMutability": "view",
      "type": "function"
    },
    {
      "constant": true,
      "inputs": [
        {
          "name": "_tokenId",
          "type": "uint256"
        }
      ],
      "name": "ownerOf",
      "outputs": [
        {
          "name": "",
          "type": "address"
        }
      ],
      "payable": false,
      "stateMutability": "view",
      "type": "function"
    },
    {
      "constant": true,
      "inputs": [
        {
          "name": "",
          "type": "uint256"
        }
      ],
      "name": "clovers",
      "outputs": [
        {
          "name": "keep",
          "type": "bool"
        },
        {
          "name": "symmetries",
          "type": "uint256"
        },
        {
          "name": "blockMinted",
          "type": "uint256"
        },
        {
          "name": "rewards",
          "type": "uint256"
        }
      ],
      "payable": false,
      "stateMutability": "view",
      "type": "function"
    },
    {
      "constant": true,
      "inputs": [
        {
          "name": "_owner",
          "type": "address"
        }
      ],
      "name": "balanceOf",
      "outputs": [
        {
          "name": "",
          "type": "uint256"
        }
      ],
      "payable": false,
      "stateMutability": "view",
      "type": "function"
    },
    {
      "constant": false,
      "inputs": [],
      "name": "renounceOwnership",
      "outputs": [],
      "payable": false,
      "stateMutability": "nonpayable",
      "type": "function"
    },
    {
      "constant": true,
      "inputs": [],
      "name": "owner",
      "outputs": [
        {
          "name": "",
          "type": "address"
        }
      ],
      "payable": false,
      "stateMutability": "view",
      "type": "function"
    },
    {
      "constant": true,
      "inputs": [],
      "name": "symbol",
      "outputs": [
        {
          "name": "",
          "type": "string"
        }
      ],
      "payable": false,
      "stateMutability": "view",
      "type": "function"
    },
    {
      "constant": false,
      "inputs": [
        {
          "name": "_to",
          "type": "address"
        },
        {
          "name": "_approved",
          "type": "bool"
        }
      ],
      "name": "setApprovalForAll",
      "outputs": [],
      "payable": false,
      "stateMutability": "nonpayable",
      "type": "function"
    },
    {
      "constant": false,
      "inputs": [
        {
          "name": "_from",
          "type": "address"
        },
        {
          "name": "_to",
          "type": "address"
        },
        {
          "name": "_tokenId",
          "type": "uint256"
        },
        {
          "name": "_data",
          "type": "bytes"
        }
      ],
      "name": "safeTransferFrom",
      "outputs": [],
      "payable": false,
      "stateMutability": "nonpayable",
      "type": "function"
    },
    {
      "constant": true,
      "inputs": [
        {
          "name": "_owner",
          "type": "address"
        },
        {
          "name": "_operator",
          "type": "address"
        }
      ],
      "name": "isApprovedForAll",
      "outputs": [
        {
          "name": "",
          "type": "bool"
        }
      ],
      "payable": false,
      "stateMutability": "view",
      "type": "function"
    },
    {
      "constant": false,
      "inputs": [
        {
          "name": "_newOwner",
          "type": "address"
        }
      ],
      "name": "transferOwnership",
      "outputs": [],
      "payable": false,
      "stateMutability": "nonpayable",
      "type": "function"
    },
    {
      "inputs": [
        {
          "name": "name",
          "type": "string"
        },
        {
          "name": "symbol",
          "type": "string"
        }
      ],
      "payable": false,
      "stateMutability": "nonpayable",
      "type": "constructor"
    },
    {
      "payable": true,
      "stateMutability": "payable",
      "type": "fallback"
    },
    {
      "anonymous": false,
      "inputs": [
        {
          "indexed": true,
          "name": "previousOwner",
          "type": "address"
        }
      ],
      "name": "OwnershipRenounced",
      "type": "event"
    },
    {
      "anonymous": false,
      "inputs": [
        {
          "indexed": true,
          "name": "previousOwner",
          "type": "address"
        },
        {
          "indexed": true,
          "name": "newOwner",
          "type": "address"
        }
      ],
      "name": "OwnershipTransferred",
      "type": "event"
    },
    {
      "anonymous": false,
      "inputs": [
        {
          "indexed": true,
          "name": "_from",
          "type": "address"
        },
        {
          "indexed": true,
          "name": "_to",
          "type": "address"
        },
        {
          "indexed": true,
          "name": "_tokenId",
          "type": "uint256"
        }
      ],
      "name": "Transfer",
      "type": "event"
    },
    {
      "anonymous": false,
      "inputs": [
        {
          "indexed": true,
          "name": "_owner",
          "type": "address"
        },
        {
          "indexed": true,
          "name": "_approved",
          "type": "address"
        },
        {
          "indexed": true,
          "name": "_tokenId",
          "type": "uint256"
        }
      ],
      "name": "Approval",
      "type": "event"
    },
    {
      "anonymous": false,
      "inputs": [
        {
          "indexed": true,
          "name": "_owner",
          "type": "address"
        },
        {
          "indexed": true,
          "name": "_operator",
          "type": "address"
        },
        {
          "indexed": false,
          "name": "_approved",
          "type": "bool"
        }
      ],
      "name": "ApprovalForAll",
      "type": "event"
    },
    {
      "constant": true,
      "inputs": [],
      "name": "implementation",
      "outputs": [
        {
          "name": "",
          "type": "address"
        }
      ],
      "payable": false,
      "stateMutability": "view",
      "type": "function"
    },
    {
      "constant": true,
      "inputs": [
        {
          "name": "_tokenId",
          "type": "uint256"
        }
      ],
      "name": "tokenURI",
      "outputs": [
        {
          "name": "_infoUrl",
          "type": "string"
        }
      ],
      "payable": false,
      "stateMutability": "view",
      "type": "function"
    },
    {
      "constant": true,
      "inputs": [
        {
          "name": "moves",
          "type": "bytes28[2]"
        }
      ],
      "name": "getHash",
      "outputs": [
        {
          "name": "",
          "type": "bytes32"
        }
      ],
      "payable": false,
      "stateMutability": "pure",
      "type": "function"
    },
    {
      "constant": true,
      "inputs": [
        {
          "name": "_tokenId",
          "type": "uint256"
        }
      ],
      "name": "getKeep",
      "outputs": [
        {
          "name": "",
          "type": "bool"
        }
      ],
      "payable": false,
      "stateMutability": "view",
      "type": "function"
    },
    {
      "constant": true,
      "inputs": [
        {
          "name": "_tokenId",
          "type": "uint256"
        }
      ],
      "name": "getBlockMinted",
      "outputs": [
        {
          "name": "",
          "type": "uint256"
        }
      ],
      "payable": false,
      "stateMutability": "view",
      "type": "function"
    },
    {
      "constant": true,
      "inputs": [
        {
          "name": "_tokenId",
          "type": "uint256"
        }
      ],
      "name": "getCloverMoves",
      "outputs": [
        {
          "name": "",
          "type": "bytes28[2]"
        }
      ],
      "payable": false,
      "stateMutability": "view",
      "type": "function"
    },
    {
      "constant": true,
      "inputs": [
        {
          "name": "_tokenId",
          "type": "uint256"
        }
      ],
      "name": "getReward",
      "outputs": [
        {
          "name": "",
          "type": "uint256"
        }
      ],
      "payable": false,
      "stateMutability": "view",
      "type": "function"
    },
    {
      "constant": true,
      "inputs": [
        {
          "name": "_tokenId",
          "type": "uint256"
        }
      ],
      "name": "getSymmetries",
      "outputs": [
        {
          "name": "",
          "type": "uint256"
        }
      ],
      "payable": false,
      "stateMutability": "view",
      "type": "function"
    },
    {
      "constant": true,
      "inputs": [],
      "name": "getAllSymmetries",
      "outputs": [
        {
          "name": "",
          "type": "uint256"
        },
        {
          "name": "",
          "type": "uint256"
        },
        {
          "name": "",
          "type": "uint256"
        },
        {
          "name": "",
          "type": "uint256"
        },
        {
          "name": "",
          "type": "uint256"
        },
        {
          "name": "",
          "type": "uint256"
        }
      ],
      "payable": false,
      "stateMutability": "view",
      "type": "function"
    },
    {
      "constant": false,
      "inputs": [
        {
          "name": "_to",
          "type": "address"
        },
        {
          "name": "_amount",
          "type": "uint256"
        }
      ],
      "name": "moveEth",
      "outputs": [],
      "payable": false,
      "stateMutability": "nonpayable",
      "type": "function"
    },
    {
      "constant": false,
      "inputs": [
        {
          "name": "_to",
          "type": "address"
        },
        {
          "name": "_amount",
          "type": "uint256"
        },
        {
          "name": "_token",
          "type": "address"
        }
      ],
      "name": "moveToken",
      "outputs": [
        {
          "name": "",
          "type": "bool"
        }
      ],
      "payable": false,
      "stateMutability": "nonpayable",
      "type": "function"
    },
    {
      "constant": false,
      "inputs": [
        {
          "name": "_to",
          "type": "address"
        },
        {
          "name": "_amount",
          "type": "uint256"
        },
        {
          "name": "_token",
          "type": "address"
        }
      ],
      "name": "approveToken",
      "outputs": [
        {
          "name": "",
          "type": "bool"
        }
      ],
      "payable": false,
      "stateMutability": "nonpayable",
      "type": "function"
    },
    {
      "constant": false,
      "inputs": [
        {
          "name": "_tokenId",
          "type": "uint256"
        },
        {
          "name": "value",
          "type": "bool"
        }
      ],
      "name": "setKeep",
      "outputs": [],
      "payable": false,
      "stateMutability": "nonpayable",
      "type": "function"
    },
    {
      "constant": false,
      "inputs": [
        {
          "name": "_tokenId",
          "type": "uint256"
        },
        {
          "name": "value",
          "type": "uint256"
        }
      ],
      "name": "setBlockMinted",
      "outputs": [],
      "payable": false,
      "stateMutability": "nonpayable",
      "type": "function"
    },
    {
      "constant": false,
      "inputs": [
        {
          "name": "_tokenId",
          "type": "uint256"
        },
        {
          "name": "moves",
          "type": "bytes28[2]"
        }
      ],
      "name": "setCloverMoves",
      "outputs": [],
      "payable": false,
      "stateMutability": "nonpayable",
      "type": "function"
    },
    {
      "constant": false,
      "inputs": [
        {
          "name": "_tokenId",
          "type": "uint256"
        },
        {
          "name": "_amount",
          "type": "uint256"
        }
      ],
      "name": "setReward",
      "outputs": [],
      "payable": false,
      "stateMutability": "nonpayable",
      "type": "function"
    },
    {
      "constant": false,
      "inputs": [
        {
          "name": "_tokenId",
          "type": "uint256"
        },
        {
          "name": "_symmetries",
          "type": "uint256"
        }
      ],
      "name": "setSymmetries",
      "outputs": [],
      "payable": false,
      "stateMutability": "nonpayable",
      "type": "function"
    },
    {
      "constant": false,
      "inputs": [
        {
          "name": "_totalSymmetries",
          "type": "uint256"
        },
        {
          "name": "RotSym",
          "type": "uint256"
        },
        {
          "name": "Y0Sym",
          "type": "uint256"
        },
        {
          "name": "X0Sym",
          "type": "uint256"
        },
        {
          "name": "XYSym",
          "type": "uint256"
        },
        {
          "name": "XnYSym",
          "type": "uint256"
        }
      ],
      "name": "setAllSymmetries",
      "outputs": [],
      "payable": false,
      "stateMutability": "nonpayable",
      "type": "function"
    },
    {
      "constant": false,
      "inputs": [
        {
          "name": "_tokenId",
          "type": "uint256"
        }
      ],
      "name": "deleteClover",
      "outputs": [],
      "payable": false,
      "stateMutability": "nonpayable",
      "type": "function"
    },
    {
      "constant": false,
      "inputs": [
        {
          "name": "_cloversController",
          "type": "address"
        }
      ],
      "name": "updateCloversControllerAddress",
      "outputs": [],
      "payable": false,
      "stateMutability": "nonpayable",
      "type": "function"
    },
    {
      "constant": false,
      "inputs": [
        {
          "name": "_cloversMetadata",
          "type": "address"
        }
      ],
      "name": "updateCloversMetadataAddress",
      "outputs": [],
      "payable": false,
      "stateMutability": "nonpayable",
      "type": "function"
    },
    {
      "constant": false,
      "inputs": [
        {
          "name": "_to",
          "type": "address"
        },
        {
          "name": "_tokenId",
          "type": "uint256"
        }
      ],
      "name": "mint",
      "outputs": [],
      "payable": false,
      "stateMutability": "nonpayable",
      "type": "function"
    },
    {
      "constant": false,
      "inputs": [
        {
          "name": "_tokenId",
          "type": "uint256"
        }
      ],
      "name": "unmint",
      "outputs": [],
      "payable": false,
      "stateMutability": "nonpayable",
      "type": "function"
    }
  ],
  "bytecode": "0x60806040523480156200001157600080fd5b50604051620045cc380380620045cc8339810180604052620000379190810190620003b2565b8181620000766301ffc9a77c010000000000000000000000000000000000000000000000000000000002620001e7640100000000026401000000009004565b620000b36380ac58cd7c010000000000000000000000000000000000000000000000000000000002620001e7640100000000026401000000009004565b620000f0634f558e797c010000000000000000000000000000000000000000000000000000000002620001e7640100000000026401000000009004565b816005908051906020019062000108929190620002a5565b50806006908051906020019062000121929190620002a5565b506200015f63780e9d637c010000000000000000000000000000000000000000000000000000000002620001e7640100000000026401000000009004565b6200019c635b5e139f7c010000000000000000000000000000000000000000000000000000000002620001e7640100000000026401000000009004565b505033600c60006101000a81548173ffffffffffffffffffffffffffffffffffffffff021916908373ffffffffffffffffffffffffffffffffffffffff1602179055505050620004b6565b63ffffffff7c010000000000000000000000000000000000000000000000000000000002817bffffffffffffffffffffffffffffffffffffffffffffffffffffffff1916141515156200023957600080fd5b6001600080837bffffffffffffffffffffffffffffffffffffffffffffffffffffffff19167bffffffffffffffffffffffffffffffffffffffffffffffffffffffff1916815260200190815260200160002060006101000a81548160ff02191690831515021790555050565b828054600181600116156101000203166002900490600052602060002090601f016020900481019282601f10620002e857805160ff191683800117855562000319565b8280016001018555821562000319579182015b8281111562000318578251825591602001919060010190620002fb565b5b5090506200032891906200032c565b5090565b6200035191905b808211156200034d57600081600090555060010162000333565b5090565b90565b600082601f83011215156200036857600080fd5b81516200037f620003798262000453565b62000425565b915080825260208301602083018583830111156200039c57600080fd5b620003a983828462000480565b50505092915050565b60008060408385031215620003c657600080fd5b600083015167ffffffffffffffff811115620003e157600080fd5b620003ef8582860162000354565b925050602083015167ffffffffffffffff8111156200040d57600080fd5b6200041b8582860162000354565b9150509250929050565b6000604051905081810181811067ffffffffffffffff821117156200044957600080fd5b8060405250919050565b600067ffffffffffffffff8211156200046b57600080fd5b601f19601f8301169050602081019050919050565b60005b83811015620004a057808201518184015260208101905062000483565b83811115620004b0576000848401525b50505050565b61410680620004c66000396000f30060806040526004361061021a576000357c0100000000000000000000000000000000000000000000000000000000900463ffffffff16806301ffc9a71461021c57806303a53d6b14610259578063048e62ca1461029657806304952631146102d357806306fdde0314610310578063081812fc1461033b578063095ea7b3146103785780630b628395146103a15780630e8310d6146103ca5780631732e941146103f357806318160ddd1461043057806319fa8f501461045b5780631c4b774b146104865780631cc1472d146104c357806323b872dd146104ec5780632f745c591461051557806340c10f191461055257806342842e0e1461057b5780634e485f88146105a45780634f558e79146105cd5780634f6ccce71461060a5780635c60da1b1461064757806362f9acf9146106725780636352211e146106af57806364e779b1146106ec578063708fa7f71461071557806370a0823114610755578063715018a61461079257806376e4a87f146107a9578063785d8d71146107d25780638a56a226146108025780638b1b2ba81461082b5780638da5cb5b1461085457806395d89b411461087f578063a22cb465146108aa578063a47bd496146108d3578063b88d4fde146108fc578063c53b4bf914610925578063c863bac114610962578063c87b56dd1461099f578063dc3f7758146109dc578063e3100d1e14610a05578063e985e9c514610a2e578063f2fde38b14610a6b575b005b34801561022857600080fd5b50610243600480360361023e9190810190613993565b610a94565b6040516102509190613d3f565b60405180910390f35b34801561026557600080fd5b50610280600480360361027b91908101906139e5565b610afb565b60405161028d9190613e12565b60405180910390f35b3480156102a257600080fd5b506102bd60048036036102b891908101906138f2565b610b1b565b6040516102ca9190613d3f565b60405180910390f35b3480156102df57600080fd5b506102fa60048036036102f591908101906139e5565b610d38565b6040516103079190613d3f565b60405180910390f35b34801561031c57600080fd5b50610325610d65565b6040516103329190613df0565b60405180910390f35b34801561034757600080fd5b50610362600480360361035d91908101906139e5565b610e07565b60405161036f9190613c94565b60405180910390f35b34801561038457600080fd5b5061039f600480360361039a91908101906138b6565b610e44565b005b3480156103ad57600080fd5b506103c860048036036103c39190810190613a37565b610f89565b005b3480156103d657600080fd5b506103f160048036036103ec91908101906139e5565b611067565b005b3480156103ff57600080fd5b5061041a60048036036104159190810190613941565b611170565b6040516104279190613d9f565b60405180910390f35b34801561043c57600080fd5b506104456111b7565b6040516104529190613e12565b60405180910390f35b34801561046757600080fd5b506104706111c4565b60405161047d9190613dba565b60405180910390f35b34801561049257600080fd5b506104ad60048036036104a891908101906139e5565b6111eb565b6040516104ba9190613e12565b60405180910390f35b3480156104cf57600080fd5b506104ea60048036036104e591908101906138b6565b61120b565b005b3480156104f857600080fd5b50610513600480360361050e91908101906137b0565b611330565b005b34801561052157600080fd5b5061053c600480360361053791908101906138b6565b61143d565b6040516105499190613e12565b60405180910390f35b34801561055e57600080fd5b50610579600480360361057491908101906138b6565b6114b4565b005b34801561058757600080fd5b506105a2600480360361059d91908101906137b0565b611576565b005b3480156105b057600080fd5b506105cb60048036036105c6919081019061374b565b6115ae565b005b3480156105d957600080fd5b506105f460048036036105ef91908101906139e5565b611674565b6040516106019190613d3f565b60405180910390f35b34801561061657600080fd5b50610631600480360361062c91908101906139e5565b6116e6565b60405161063e9190613e12565b60405180910390f35b34801561065357600080fd5b5061065c61171e565b6040516106699190613c94565b60405180910390f35b34801561067e57600080fd5b50610699600480360361069491908101906139e5565b611748565b6040516106a69190613d24565b60405180910390f35b3480156106bb57600080fd5b506106d660048036036106d191908101906139e5565b6117c1565b6040516106e39190613c94565b60405180910390f35b3480156106f857600080fd5b50610713600480360361070e91908101906139e5565b61183f565b005b34801561072157600080fd5b5061073c600480360361073791908101906139e5565b611908565b60405161074c9493929190613d5a565b60405180910390f35b34801561076157600080fd5b5061077c6004803603610777919081019061374b565b611945565b6040516107899190613e12565b60405180910390f35b34801561079e57600080fd5b506107a76119c9565b005b3480156107b557600080fd5b506107d060048036036107cb9190810190613a73565b611ace565b005b3480156107de57600080fd5b506107e7611bb4565b6040516107f996959493929190613e2d565b60405180910390f35b34801561080e57600080fd5b506108296004803603610824919081019061374b565b611c2e565b005b34801561083757600080fd5b50610852600480360361084d9190810190613aeb565b611f2e565b005b34801561086057600080fd5b5061086961205f565b6040516108769190613c94565b60405180910390f35b34801561088b57600080fd5b50610894612085565b6040516108a19190613df0565b60405180910390f35b3480156108b657600080fd5b506108d160048036036108cc919081019061387a565b612127565b005b3480156108df57600080fd5b506108fa60048036036108f59190810190613aaf565b61225f565b005b34801561090857600080fd5b50610923600480360361091e91908101906137ff565b612332565b005b34801561093157600080fd5b5061094c600480360361094791908101906139e5565b612371565b6040516109599190613e12565b60405180910390f35b34801561096e57600080fd5b50610989600480360361098491908101906138f2565b612391565b6040516109969190613d3f565b60405180910390f35b3480156109ab57600080fd5b506109c660048036036109c191908101906139e5565b6124f9565b6040516109d39190613df0565b60405180910390f35b3480156109e857600080fd5b50610a0360048036036109fe9190810190613aaf565b612565565b005b348015610a1157600080fd5b50610a2c6004803603610a279190810190613aaf565b612638565b005b348015610a3a57600080fd5b50610a556004803603610a509190810190613774565b61270b565b604051610a629190613d3f565b60405180910390f35b348015610a7757600080fd5b50610a926004803603610a8d919081019061374b565b61279f565b005b6000806000837bffffffffffffffffffffffffffffffffffffffffffffffffffffffff19167bffffffffffffffffffffffffffffffffffffffffffffffffffffffff1916815260200190815260200160002060009054906101000a900460ff169050919050565b600060156000838152602001908152602001600020600401549050919050565b6000601460009054906101000a900473ffffffffffffffffffffffffffffffffffffffff1673ffffffffffffffffffffffffffffffffffffffff163373ffffffffffffffffffffffffffffffffffffffff161480610bc65750600c60009054906101000a900473ffffffffffffffffffffffffffffffffffffffff1673ffffffffffffffffffffffffffffffffffffffff163373ffffffffffffffffffffffffffffffffffffffff16145b1515610bd157600080fd5b8173ffffffffffffffffffffffffffffffffffffffff166370a08231306040518263ffffffff167c0100000000000000000000000000000000000000000000000000000000028152600401610c269190613dd5565b602060405180830381600087803b158015610c4057600080fd5b505af1158015610c54573d6000803e3d6000fd5b505050506040513d601f19601f82011682018060405250610c789190810190613a0e565b8311151515610c8657600080fd5b8173ffffffffffffffffffffffffffffffffffffffff1663a9059cbb85856040518363ffffffff167c0100000000000000000000000000000000000000000000000000000000028152600401610cdd929190613cfb565b602060405180830381600087803b158015610cf757600080fd5b505af1158015610d0b573d6000803e3d6000fd5b505050506040513d601f19601f82011682018060405250610d2f919081019061396a565b90509392505050565b60006015600083815260200190815260200160002060000160009054906101000a900460ff169050919050565b606060058054600181600116156101000203166002900480601f016020809104026020016040519081016040528092919081815260200182805460018160011615610100020316600290048015610dfd5780601f10610dd257610100808354040283529160200191610dfd565b820191906000526020600020905b815481529060010190602001808311610de057829003601f168201915b5050505050905090565b60006002600083815260200190815260200160002060009054906101000a900473ffffffffffffffffffffffffffffffffffffffff169050919050565b6000610e4f826117c1565b90508073ffffffffffffffffffffffffffffffffffffffff168373ffffffffffffffffffffffffffffffffffffffff1614151515610e8c57600080fd5b8073ffffffffffffffffffffffffffffffffffffffff163373ffffffffffffffffffffffffffffffffffffffff161480610ecc5750610ecb813361270b565b5b1515610ed757600080fd5b826002600084815260200190815260200160002060006101000a81548173ffffffffffffffffffffffffffffffffffffffff021916908373ffffffffffffffffffffffffffffffffffffffff160217905550818373ffffffffffffffffffffffffffffffffffffffff168273ffffffffffffffffffffffffffffffffffffffff167f8c5be1e5ebec7d5bd14f71427d1e84f3dd0314c0f7b2291e5b200ac8c7c3b92560405160405180910390a4505050565b601460009054906101000a900473ffffffffffffffffffffffffffffffffffffffff1673ffffffffffffffffffffffffffffffffffffffff163373ffffffffffffffffffffffffffffffffffffffff1614806110325750600c60009054906101000a900473ffffffffffffffffffffffffffffffffffffffff1673ffffffffffffffffffffffffffffffffffffffff163373ffffffffffffffffffffffffffffffffffffffff16145b151561103d57600080fd5b8060156000848152602001908152602001600020600201906002611062929190613454565b505050565b601460009054906101000a900473ffffffffffffffffffffffffffffffffffffffff1673ffffffffffffffffffffffffffffffffffffffff163373ffffffffffffffffffffffffffffffffffffffff1614806111105750600c60009054906101000a900473ffffffffffffffffffffffffffffffffffffffff1673ffffffffffffffffffffffffffffffffffffffff163373ffffffffffffffffffffffffffffffffffffffff16145b151561111b57600080fd5b60156000828152602001908152602001600020600080820160006101000a81549060ff0219169055600182016000905560028201600061115b91906134cb565b60048201600090556005820160009055505050565b6000816040518082600260200280838360005b8381101561119e578082015181840152602081019050611183565b5050505090500191505060405180910390209050919050565b6000600980549050905090565b6301ffc9a77c01000000000000000000000000000000000000000000000000000000000281565b600060156000838152602001908152602001600020600501549050919050565b601460009054906101000a900473ffffffffffffffffffffffffffffffffffffffff1673ffffffffffffffffffffffffffffffffffffffff163373ffffffffffffffffffffffffffffffffffffffff1614806112b45750600c60009054906101000a900473ffffffffffffffffffffffffffffffffffffffff1673ffffffffffffffffffffffffffffffffffffffff163373ffffffffffffffffffffffffffffffffffffffff16145b15156112bf57600080fd5b3073ffffffffffffffffffffffffffffffffffffffff163181111515156112e557600080fd5b8173ffffffffffffffffffffffffffffffffffffffff166108fc829081150290604051600060405180830381858888f1935050505015801561132b573d6000803e3d6000fd5b505050565b8061133b3382612807565b151561134657600080fd5b600073ffffffffffffffffffffffffffffffffffffffff168473ffffffffffffffffffffffffffffffffffffffff161415151561138257600080fd5b600073ffffffffffffffffffffffffffffffffffffffff168373ffffffffffffffffffffffffffffffffffffffff16141515156113be57600080fd5b6113c8848361289c565b6113d2848361299f565b6113dc8383612bb7565b818373ffffffffffffffffffffffffffffffffffffffff168573ffffffffffffffffffffffffffffffffffffffff167fddf252ad1be2c89b69c2b068fc378daa952ba7f163c4a11628f55a4df523b3ef60405160405180910390a450505050565b600061144883611945565b8210151561145557600080fd5b600760008473ffffffffffffffffffffffffffffffffffffffff1673ffffffffffffffffffffffffffffffffffffffff168152602001908152602001600020828154811015156114a157fe5b9060005260206000200154905092915050565b601460009054906101000a900473ffffffffffffffffffffffffffffffffffffffff1673ffffffffffffffffffffffffffffffffffffffff163373ffffffffffffffffffffffffffffffffffffffff16148061155d5750600c60009054906101000a900473ffffffffffffffffffffffffffffffffffffffff1673ffffffffffffffffffffffffffffffffffffffff163373ffffffffffffffffffffffffffffffffffffffff16145b151561156857600080fd5b6115728282612c8e565b5050565b806115813382612807565b151561158c57600080fd5b6115a88484846020604051908101604052806000815250612332565b50505050565b600c60009054906101000a900473ffffffffffffffffffffffffffffffffffffffff1673ffffffffffffffffffffffffffffffffffffffff163373ffffffffffffffffffffffffffffffffffffffff1614151561160a57600080fd5b60008173ffffffffffffffffffffffffffffffffffffffff161415151561163057600080fd5b80600d60006101000a81548173ffffffffffffffffffffffffffffffffffffffff021916908373ffffffffffffffffffffffffffffffffffffffff16021790555050565b6000806001600084815260200190815260200160002060009054906101000a900473ffffffffffffffffffffffffffffffffffffffff169050600073ffffffffffffffffffffffffffffffffffffffff168173ffffffffffffffffffffffffffffffffffffffff161415915050919050565b60006116f06111b7565b821015156116fd57600080fd5b60098281548110151561170c57fe5b90600052602060002001549050919050565b6000600d60009054906101000a900473ffffffffffffffffffffffffffffffffffffffff16905090565b6117506134d9565b601560008381526020019081526020016000206002016002806020026040519081016040528092919082600280156117b5576020028201915b8160009054906101000a90046401000000000263ffffffff191681526020019060010190808311611789575b50505050509050919050565b6000806001600084815260200190815260200160002060009054906101000a900473ffffffffffffffffffffffffffffffffffffffff169050600073ffffffffffffffffffffffffffffffffffffffff168173ffffffffffffffffffffffffffffffffffffffff161415151561183657600080fd5b80915050919050565b601460009054906101000a900473ffffffffffffffffffffffffffffffffffffffff1673ffffffffffffffffffffffffffffffffffffffff163373ffffffffffffffffffffffffffffffffffffffff1614806118e85750600c60009054906101000a900473ffffffffffffffffffffffffffffffffffffffff1673ffffffffffffffffffffffffffffffffffffffff163373ffffffffffffffffffffffffffffffffffffffff16145b15156118f357600080fd5b6119056118ff826117c1565b82612ce5565b50565b60156020528060005260406000206000915090508060000160009054906101000a900460ff16908060010154908060040154908060050154905084565b60008073ffffffffffffffffffffffffffffffffffffffff168273ffffffffffffffffffffffffffffffffffffffff161415151561198257600080fd5b600360008373ffffffffffffffffffffffffffffffffffffffff1673ffffffffffffffffffffffffffffffffffffffff168152602001908152602001600020549050919050565b600c60009054906101000a900473ffffffffffffffffffffffffffffffffffffffff1673ffffffffffffffffffffffffffffffffffffffff163373ffffffffffffffffffffffffffffffffffffffff16141515611a2557600080fd5b600c60009054906101000a900473ffffffffffffffffffffffffffffffffffffffff1673ffffffffffffffffffffffffffffffffffffffff167ff8df31144d9c2f0f6b59d69b8b98abd5459d07f2742c4df920b25aae33c6482060405160405180910390a26000600c60006101000a81548173ffffffffffffffffffffffffffffffffffffffff021916908373ffffffffffffffffffffffffffffffffffffffff160217905550565b601460009054906101000a900473ffffffffffffffffffffffffffffffffffffffff1673ffffffffffffffffffffffffffffffffffffffff163373ffffffffffffffffffffffffffffffffffffffff161480611b775750600c60009054906101000a900473ffffffffffffffffffffffffffffffffffffffff1673ffffffffffffffffffffffffffffffffffffffff163373ffffffffffffffffffffffffffffffffffffffff16145b1515611b8257600080fd5b806015600084815260200190815260200160002060000160006101000a81548160ff0219169083151502179055505050565b600080600080600080600e54600f6000600581101515611bd057fe5b0154600f6001600581101515611be257fe5b0154600f6002600581101515611bf457fe5b0154600f6003600581101515611c0657fe5b0154600f6004600581101515611c1857fe5b0154955095509550955095509550909192939495565b600c60009054906101000a900473ffffffffffffffffffffffffffffffffffffffff1673ffffffffffffffffffffffffffffffffffffffff163373ffffffffffffffffffffffffffffffffffffffff16141515611c8a57600080fd5b60008173ffffffffffffffffffffffffffffffffffffffff1614151515611cb057600080fd5b6000600460003073ffffffffffffffffffffffffffffffffffffffff1673ffffffffffffffffffffffffffffffffffffffff1681526020019081526020016000206000601460009054906101000a900473ffffffffffffffffffffffffffffffffffffffff1673ffffffffffffffffffffffffffffffffffffffff1673ffffffffffffffffffffffffffffffffffffffff16815260200190815260200160002060006101000a81548160ff021916908315150217905550601460009054906101000a900473ffffffffffffffffffffffffffffffffffffffff1673ffffffffffffffffffffffffffffffffffffffff163073ffffffffffffffffffffffffffffffffffffffff167f17307eab39ab6107e8899845ad3d59bd9653f200f220920489ca2b5937696c316000604051611de79190613d3f565b60405180910390a36001600460003073ffffffffffffffffffffffffffffffffffffffff1673ffffffffffffffffffffffffffffffffffffffff16815260200190815260200160002060008373ffffffffffffffffffffffffffffffffffffffff1673ffffffffffffffffffffffffffffffffffffffff16815260200190815260200160002060006101000a81548160ff0219169083151502179055508073ffffffffffffffffffffffffffffffffffffffff163073ffffffffffffffffffffffffffffffffffffffff167f17307eab39ab6107e8899845ad3d59bd9653f200f220920489ca2b5937696c316001604051611ee29190613d3f565b60405180910390a380601460006101000a81548173ffffffffffffffffffffffffffffffffffffffff021916908373ffffffffffffffffffffffffffffffffffffffff16021790555050565b601460009054906101000a900473ffffffffffffffffffffffffffffffffffffffff1673ffffffffffffffffffffffffffffffffffffffff163373ffffffffffffffffffffffffffffffffffffffff161480611fd75750600c60009054906101000a900473ffffffffffffffffffffffffffffffffffffffff1673ffffffffffffffffffffffffffffffffffffffff163373ffffffffffffffffffffffffffffffffffffffff16145b1515611fe257600080fd5b85600e8190555084600f6000600581101515611ffa57fe5b018190555083600f600160058110151561201057fe5b018190555082600f600260058110151561202657fe5b018190555081600f600360058110151561203c57fe5b018190555080600f600460058110151561205257fe5b0181905550505050505050565b600c60009054906101000a900473ffffffffffffffffffffffffffffffffffffffff1681565b606060068054600181600116156101000203166002900480601f01602080910402602001604051908101604052809291908181526020018280546001816001161561010002031660029004801561211d5780601f106120f25761010080835404028352916020019161211d565b820191906000526020600020905b81548152906001019060200180831161210057829003601f168201915b5050505050905090565b3373ffffffffffffffffffffffffffffffffffffffff168273ffffffffffffffffffffffffffffffffffffffff161415151561216257600080fd5b80600460003373ffffffffffffffffffffffffffffffffffffffff1673ffffffffffffffffffffffffffffffffffffffff16815260200190815260200160002060008473ffffffffffffffffffffffffffffffffffffffff1673ffffffffffffffffffffffffffffffffffffffff16815260200190815260200160002060006101000a81548160ff0219169083151502179055508173ffffffffffffffffffffffffffffffffffffffff163373ffffffffffffffffffffffffffffffffffffffff167f17307eab39ab6107e8899845ad3d59bd9653f200f220920489ca2b5937696c31836040516122539190613d3f565b60405180910390a35050565b601460009054906101000a900473ffffffffffffffffffffffffffffffffffffffff1673ffffffffffffffffffffffffffffffffffffffff163373ffffffffffffffffffffffffffffffffffffffff1614806123085750600c60009054906101000a900473ffffffffffffffffffffffffffffffffffffffff1673ffffffffffffffffffffffffffffffffffffffff163373ffffffffffffffffffffffffffffffffffffffff16145b151561231357600080fd5b8060156000848152602001908152602001600020600501819055505050565b8161233d3382612807565b151561234857600080fd5b612353858585611330565b61235f85858585612e1d565b151561236a57600080fd5b5050505050565b600060156000838152602001908152602001600020600101549050919050565b6000601460009054906101000a900473ffffffffffffffffffffffffffffffffffffffff1673ffffffffffffffffffffffffffffffffffffffff163373ffffffffffffffffffffffffffffffffffffffff16148061243c5750600c60009054906101000a900473ffffffffffffffffffffffffffffffffffffffff1673ffffffffffffffffffffffffffffffffffffffff163373ffffffffffffffffffffffffffffffffffffffff16145b151561244757600080fd5b8173ffffffffffffffffffffffffffffffffffffffff1663095ea7b385856040518363ffffffff167c010000000000000000000000000000000000000000000000000000000002815260040161249e929190613cfb565b602060405180830381600087803b1580156124b857600080fd5b505af11580156124cc573d6000803e3d6000fd5b505050506040513d601f19601f820116820180604052506124f0919081019061396a565b90509392505050565b60606000606061250761171e565b91506000368080601f0160208091040260200160405190810160405280939291908181526020018383808284378201915050505050509050600080825160208401855af43d604051816000823e8260008114612561578282f35b8282fd5b601460009054906101000a900473ffffffffffffffffffffffffffffffffffffffff1673ffffffffffffffffffffffffffffffffffffffff163373ffffffffffffffffffffffffffffffffffffffff16148061260e5750600c60009054906101000a900473ffffffffffffffffffffffffffffffffffffffff1673ffffffffffffffffffffffffffffffffffffffff163373ffffffffffffffffffffffffffffffffffffffff16145b151561261957600080fd5b8060156000848152602001908152602001600020600101819055505050565b601460009054906101000a900473ffffffffffffffffffffffffffffffffffffffff1673ffffffffffffffffffffffffffffffffffffffff163373ffffffffffffffffffffffffffffffffffffffff1614806126e15750600c60009054906101000a900473ffffffffffffffffffffffffffffffffffffffff1673ffffffffffffffffffffffffffffffffffffffff163373ffffffffffffffffffffffffffffffffffffffff16145b15156126ec57600080fd5b8060156000848152602001908152602001600020600401819055505050565b6000600460008473ffffffffffffffffffffffffffffffffffffffff1673ffffffffffffffffffffffffffffffffffffffff16815260200190815260200160002060008373ffffffffffffffffffffffffffffffffffffffff1673ffffffffffffffffffffffffffffffffffffffff16815260200190815260200160002060009054906101000a900460ff16905092915050565b600c60009054906101000a900473ffffffffffffffffffffffffffffffffffffffff1673ffffffffffffffffffffffffffffffffffffffff163373ffffffffffffffffffffffffffffffffffffffff161415156127fb57600080fd5b61280481612f6d565b50565b600080612813836117c1565b90508073ffffffffffffffffffffffffffffffffffffffff168473ffffffffffffffffffffffffffffffffffffffff16148061288257508373ffffffffffffffffffffffffffffffffffffffff1661286a84610e07565b73ffffffffffffffffffffffffffffffffffffffff16145b806128935750612892818561270b565b5b91505092915050565b8173ffffffffffffffffffffffffffffffffffffffff166128bc826117c1565b73ffffffffffffffffffffffffffffffffffffffff161415156128de57600080fd5b600073ffffffffffffffffffffffffffffffffffffffff166002600083815260200190815260200160002060009054906101000a900473ffffffffffffffffffffffffffffffffffffffff1673ffffffffffffffffffffffffffffffffffffffff1614151561299b5760006002600083815260200190815260200160002060006101000a81548173ffffffffffffffffffffffffffffffffffffffff021916908373ffffffffffffffffffffffffffffffffffffffff1602179055505b5050565b60008060006129ae8585613069565b60086000858152602001908152602001600020549250612a1a6001600760008873ffffffffffffffffffffffffffffffffffffffff1673ffffffffffffffffffffffffffffffffffffffff1681526020019081526020016000208054905061319890919063ffffffff16565b9150600760008673ffffffffffffffffffffffffffffffffffffffff1673ffffffffffffffffffffffffffffffffffffffff16815260200190815260200160002082815481101515612a6857fe5b9060005260206000200154905080600760008773ffffffffffffffffffffffffffffffffffffffff1673ffffffffffffffffffffffffffffffffffffffff16815260200190815260200160002084815481101515612ac257fe5b90600052602060002001819055506000600760008773ffffffffffffffffffffffffffffffffffffffff1673ffffffffffffffffffffffffffffffffffffffff16815260200190815260200160002083815481101515612b1e57fe5b9060005260206000200181905550600760008673ffffffffffffffffffffffffffffffffffffffff1673ffffffffffffffffffffffffffffffffffffffff168152602001908152602001600020805480919060019003612b7e91906134fb565b50600060086000868152602001908152602001600020819055508260086000838152602001908152602001600020819055505050505050565b6000612bc383836131b1565b600760008473ffffffffffffffffffffffffffffffffffffffff1673ffffffffffffffffffffffffffffffffffffffff168152602001908152602001600020805490509050600760008473ffffffffffffffffffffffffffffffffffffffff1673ffffffffffffffffffffffffffffffffffffffff168152602001908152602001600020829080600181540180825580915050906001820390600052602060002001600090919290919091505550806008600084815260200190815260200160002081905550505050565b612c98828261330b565b600980549050600a60008381526020019081526020016000208190555060098190806001815401808255809150509060018203906000526020600020016000909192909190915055505050565b6000806000612cf485856133b1565b6000600b6000868152602001908152602001600020805460018160011615610100020316600290049050141515612d4557600b60008581526020019081526020016000206000612d449190613527565b5b600a6000858152602001908152602001600020549250612d74600160098054905061319890919063ffffffff16565b9150600982815481101515612d8557fe5b9060005260206000200154905080600984815481101515612da257fe5b90600052602060002001819055506000600983815481101515612dc157fe5b90600052602060002001819055506009805480919060019003612de491906134fb565b506000600a60008681526020019081526020016000208190555082600a6000838152602001908152602001600020819055505050505050565b600080612e3f8573ffffffffffffffffffffffffffffffffffffffff16613425565b1515612e4e5760019150612f64565b8473ffffffffffffffffffffffffffffffffffffffff1663150b7a02338887876040518563ffffffff167c0100000000000000000000000000000000000000000000000000000000028152600401612ea99493929190613caf565b602060405180830381600087803b158015612ec357600080fd5b505af1158015612ed7573d6000803e3d6000fd5b505050506040513d601f19601f82011682018060405250612efb91908101906139bc565b905063150b7a027c0100000000000000000000000000000000000000000000000000000000027bffffffffffffffffffffffffffffffffffffffffffffffffffffffff1916817bffffffffffffffffffffffffffffffffffffffffffffffffffffffff19161491505b50949350505050565b600073ffffffffffffffffffffffffffffffffffffffff168173ffffffffffffffffffffffffffffffffffffffff1614151515612fa957600080fd5b8073ffffffffffffffffffffffffffffffffffffffff16600c60009054906101000a900473ffffffffffffffffffffffffffffffffffffffff1673ffffffffffffffffffffffffffffffffffffffff167f8be0079c531659141344cd1fd0a4f28419497f9722a3daafe3b4186f6b6457e060405160405180910390a380600c60006101000a81548173ffffffffffffffffffffffffffffffffffffffff021916908373ffffffffffffffffffffffffffffffffffffffff16021790555050565b8173ffffffffffffffffffffffffffffffffffffffff16613089826117c1565b73ffffffffffffffffffffffffffffffffffffffff161415156130ab57600080fd5b6130fe6001600360008573ffffffffffffffffffffffffffffffffffffffff1673ffffffffffffffffffffffffffffffffffffffff1681526020019081526020016000205461319890919063ffffffff16565b600360008473ffffffffffffffffffffffffffffffffffffffff1673ffffffffffffffffffffffffffffffffffffffff1681526020019081526020016000208190555060006001600083815260200190815260200160002060006101000a81548173ffffffffffffffffffffffffffffffffffffffff021916908373ffffffffffffffffffffffffffffffffffffffff1602179055505050565b60008282111515156131a657fe5b818303905092915050565b600073ffffffffffffffffffffffffffffffffffffffff166001600083815260200190815260200160002060009054906101000a900473ffffffffffffffffffffffffffffffffffffffff1673ffffffffffffffffffffffffffffffffffffffff1614151561321f57600080fd5b816001600083815260200190815260200160002060006101000a81548173ffffffffffffffffffffffffffffffffffffffff021916908373ffffffffffffffffffffffffffffffffffffffff1602179055506132c46001600360008573ffffffffffffffffffffffffffffffffffffffff1673ffffffffffffffffffffffffffffffffffffffff1681526020019081526020016000205461343890919063ffffffff16565b600360008473ffffffffffffffffffffffffffffffffffffffff1673ffffffffffffffffffffffffffffffffffffffff168152602001908152602001600020819055505050565b600073ffffffffffffffffffffffffffffffffffffffff168273ffffffffffffffffffffffffffffffffffffffff161415151561334757600080fd5b6133518282612bb7565b808273ffffffffffffffffffffffffffffffffffffffff16600073ffffffffffffffffffffffffffffffffffffffff167fddf252ad1be2c89b69c2b068fc378daa952ba7f163c4a11628f55a4df523b3ef60405160405180910390a45050565b6133bb828261289c565b6133c5828261299f565b80600073ffffffffffffffffffffffffffffffffffffffff168373ffffffffffffffffffffffffffffffffffffffff167fddf252ad1be2c89b69c2b068fc378daa952ba7f163c4a11628f55a4df523b3ef60405160405180910390a45050565b600080823b905060008111915050919050565b6000818301905082811015151561344b57fe5b80905092915050565b82600281019282156134ba579160200282015b828111156134b95782518260006101000a8154817bffffffffffffffffffffffffffffffffffffffffffffffffffffffff02191690836401000000009004021790555091602001919060010190613467565b5b5090506134c7919061356f565b5090565b506000815560010160009055565b6040805190810160405280600290602082028038833980820191505090505090565b8154818355818111156135225781836000526020600020918201910161352191906135ba565b5b505050565b50805460018160011615610100020316600290046000825580601f1061354d575061356c565b601f01602090049060005260206000209081019061356b91906135ba565b5b50565b6135b791905b808211156135b357600081816101000a8154907bffffffffffffffffffffffffffffffffffffffffffffffffffffffff021916905550600101613575565b5090565b90565b6135dc91905b808211156135d85760008160009055506001016135c0565b5090565b90565b60006135eb8235613fd9565b905092915050565b600082601f830112151561360657600080fd5b600261361961361482613ebb565b613e8e565b9150818385602084028201111561362f57600080fd5b60005b8381101561365f57816136458882613691565b845260208401935060208301925050600181019050613632565b5050505092915050565b60006136758235613ff9565b905092915050565b60006136898251613ff9565b905092915050565b600061369d8235614005565b905092915050565b60006136b18235614031565b905092915050565b60006136c58251614031565b905092915050565b600082601f83011215156136e057600080fd5b81356136f36136ee82613edd565b613e8e565b9150808252602083016020830185838301111561370f57600080fd5b61371a838284614079565b50505092915050565b600061372f823561405d565b905092915050565b6000613743825161405d565b905092915050565b60006020828403121561375d57600080fd5b600061376b848285016135df565b91505092915050565b6000806040838503121561378757600080fd5b6000613795858286016135df565b92505060206137a6858286016135df565b9150509250929050565b6000806000606084860312156137c557600080fd5b60006137d3868287016135df565b93505060206137e4868287016135df565b92505060406137f586828701613723565b9150509250925092565b6000806000806080858703121561381557600080fd5b6000613823878288016135df565b9450506020613834878288016135df565b935050604061384587828801613723565b925050606085013567ffffffffffffffff81111561386257600080fd5b61386e878288016136cd565b91505092959194509250565b6000806040838503121561388d57600080fd5b600061389b858286016135df565b92505060206138ac85828601613669565b9150509250929050565b600080604083850312156138c957600080fd5b60006138d7858286016135df565b92505060206138e885828601613723565b9150509250929050565b60008060006060848603121561390757600080fd5b6000613915868287016135df565b935050602061392686828701613723565b9250506040613937868287016135df565b9150509250925092565b60006040828403121561395357600080fd5b6000613961848285016135f3565b91505092915050565b60006020828403121561397c57600080fd5b600061398a8482850161367d565b91505092915050565b6000602082840312156139a557600080fd5b60006139b3848285016136a5565b91505092915050565b6000602082840312156139ce57600080fd5b60006139dc848285016136b9565b91505092915050565b6000602082840312156139f757600080fd5b6000613a0584828501613723565b91505092915050565b600060208284031215613a2057600080fd5b6000613a2e84828501613737565b91505092915050565b60008060608385031215613a4a57600080fd5b6000613a5885828601613723565b9250506020613a69858286016135f3565b9150509250929050565b60008060408385031215613a8657600080fd5b6000613a9485828601613723565b9250506020613aa585828601613669565b9150509250929050565b60008060408385031215613ac257600080fd5b6000613ad085828601613723565b9250506020613ae185828601613723565b9150509250929050565b60008060008060008060c08789031215613b0457600080fd5b6000613b1289828a01613723565b9650506020613b2389828a01613723565b9550506040613b3489828a01613723565b9450506060613b4589828a01613723565b9350506080613b5689828a01613723565b92505060a0613b6789828a01613723565b9150509295509295509295565b613b7d81613f41565b82525050565b613b8c81613f13565b613b9582613f09565b60005b82811015613bc757613bab858351613bdd565b613bb482613f34565b9150602085019450600181019050613b98565b5050505050565b613bd781613f61565b82525050565b613be681613f6d565b82525050565b613bf581613f99565b82525050565b613c0481613fa3565b82525050565b6000613c1582613f1e565b808452613c29816020860160208601614088565b613c32816140bb565b602085010191505092915050565b613c4981614067565b82525050565b6000613c5a82613f29565b808452613c6e816020860160208601614088565b613c77816140bb565b602085010191505092915050565b613c8e81613fcf565b82525050565b6000602082019050613ca96000830184613b74565b92915050565b6000608082019050613cc46000830187613b74565b613cd16020830186613b74565b613cde6040830185613c85565b8181036060830152613cf08184613c0a565b905095945050505050565b6000604082019050613d106000830185613b74565b613d1d6020830184613c85565b9392505050565b6000604082019050613d396000830184613b83565b92915050565b6000602082019050613d546000830184613bce565b92915050565b6000608082019050613d6f6000830187613bce565b613d7c6020830186613c85565b613d896040830185613c85565b613d966060830184613c85565b95945050505050565b6000602082019050613db46000830184613bec565b92915050565b6000602082019050613dcf6000830184613bfb565b92915050565b6000602082019050613dea6000830184613c40565b92915050565b60006020820190508181036000830152613e0a8184613c4f565b905092915050565b6000602082019050613e276000830184613c85565b92915050565b600060c082019050613e426000830189613c85565b613e4f6020830188613c85565b613e5c6040830187613c85565b613e696060830186613c85565b613e766080830185613c85565b613e8360a0830184613c85565b979650505050505050565b6000604051905081810181811067ffffffffffffffff82111715613eb157600080fd5b8060405250919050565b600067ffffffffffffffff821115613ed257600080fd5b602082029050919050565b600067ffffffffffffffff821115613ef457600080fd5b601f19601f8301169050602081019050919050565b6000819050919050565b600060029050919050565b600081519050919050565b600081519050919050565b6000602082019050919050565b600073ffffffffffffffffffffffffffffffffffffffff82169050919050565b60008115159050919050565b60007fffffffffffffffffffffffffffffffffffffffffffffffffffffffff0000000082169050919050565b6000819050919050565b60007fffffffff0000000000000000000000000000000000000000000000000000000082169050919050565b6000819050919050565b600073ffffffffffffffffffffffffffffffffffffffff82169050919050565b60008115159050919050565b60007fffffffffffffffffffffffffffffffffffffffffffffffffffffffff0000000082169050919050565b60007fffffffff0000000000000000000000000000000000000000000000000000000082169050919050565b6000819050919050565b600061407282613f41565b9050919050565b82818337600083830152505050565b60005b838110156140a657808201518184015260208101905061408b565b838111156140b5576000848401525b50505050565b6000601f19601f83011690509190505600a265627a7a7230582067be0e5c0b9ddada50df4e9118655282137ef58e02a0277f9b01102a90ecc7926c6578706572696d656e74616cf50037",
  "source": "pragma solidity ^0.4.18;\npragma experimental ABIEncoderV2;\n\n/**\n * Digital Asset Registry for the Non Fungible Token Clover\n * with upgradeable contract reference for returning metadata.\n */\n\nimport \"zeppelin-solidity/contracts/token/ERC20/ERC20.sol\";\nimport \"zeppelin-solidity/contracts/token/ERC721/ERC721Token.sol\";\nimport \"zeppelin-solidity/contracts/ownership/Ownable.sol\";\nimport \"./IClovers.sol\";\nimport \"./CloversMetadata.sol\";\n\n\ncontract Clovers is IClovers, ERC721Token, Ownable {\n\n    address cloversMetadata;\n    uint256 totalSymmetries;\n    uint256[5] symmetries; // RotSym, Y0Sym, X0Sym, XYSym, XnYSym\n    address cloversController;\n\n    mapping (uint256 => Clover) public clovers;\n    struct Clover {\n        bool keep;\n        uint256 symmetries;\n        bytes28[2] cloverMoves;\n        uint256 blockMinted;\n        uint256 rewards;\n    }\n\n    modifier onlyOwnerOrController() {\n        require(\n            msg.sender == cloversController ||\n            msg.sender == owner\n        );\n        _;\n    }\n\n    constructor(string name, string symbol) public\n        ERC721Token(name, symbol)\n    { }\n\n    function () public payable {}\n\n    function implementation() public view returns (address) {\n        return cloversMetadata;\n    }\n\n    function tokenURI(uint _tokenId) public view returns (string _infoUrl) {\n        // require(ownerOf(_tokenId) != 0);\n        address _impl = implementation();\n        bytes memory data = msg.data;\n        assembly {\n            let result := delegatecall(gas, _impl, add(data, 0x20), mload(data), 0, 0)\n            let size := returndatasize\n            let ptr := mload(0x40)\n            returndatacopy(ptr, 0, size)\n            switch result\n            case 0 { revert(ptr, size) }\n            default { return(ptr, size) }\n        }\n        // return CloversMetadata(cloversMetadata).tokenMetadata(_tokenId);\n    }\n    function getHash(bytes28[2] moves) public pure returns (bytes32) {\n        return keccak256(moves);\n    }\n    function getKeep(uint256 _tokenId) public view returns (bool) {\n        return clovers[_tokenId].keep;\n    }\n    function getBlockMinted(uint256 _tokenId) public view returns (uint256) {\n        return clovers[_tokenId].blockMinted;\n    }\n    function getCloverMoves(uint256 _tokenId) public view returns (bytes28[2]) {\n        return clovers[_tokenId].cloverMoves;\n    }\n    function getReward(uint256 _tokenId) public view returns (uint256) {\n        return clovers[_tokenId].rewards;\n    }\n    function getSymmetries(uint256 _tokenId) public view returns (uint256) {\n        return clovers[_tokenId].symmetries;\n    }\n    function getAllSymmetries() public view returns (uint256, uint256, uint256, uint256, uint256, uint256) {\n        return (\n            totalSymmetries,\n            symmetries[0], //RotSym,\n            symmetries[1], //Y0Sym,\n            symmetries[2], //X0Sym,\n            symmetries[3], //XYSym,\n            symmetries[4] //XnYSym\n        );\n    }\n\n/* ---------------------------------------------------------------------------------------------------------------------- */\n\n    /**\n    * @dev Moves Eth to a certain address for use in the CloversController\n    * @param _to The address to receive the Eth.\n    * @param _amount The amount of Eth to be transferred.\n    */\n    function moveEth(address _to, uint256 _amount) public onlyOwnerOrController {\n        require(_amount <= this.balance);\n        _to.transfer(_amount);\n    }\n    /**\n    * @dev Moves Token to a certain address for use in the CloversController\n    * @param _to The address to receive the Token.\n    * @param _amount The amount of Token to be transferred.\n    * @param _token The address of the Token to be transferred.\n    */\n    function moveToken(address _to, uint256 _amount, address _token) public onlyOwnerOrController returns (bool) {\n        require(_amount <= ERC20(_token).balanceOf(this));\n        return ERC20(_token).transfer(_to, _amount);\n    }\n    /**\n    * @dev Approves Tokens to a certain address for use in the CloversController\n    * @param _to The address to receive the Token approval.\n    * @param _amount The amount of Token to be approved.\n    * @param _token The address of the Token to be approved.\n    */\n    function approveToken(address _to, uint256 _amount, address _token) public onlyOwnerOrController returns (bool) {\n        return ERC20(_token).approve(_to, _amount);\n    }\n\n    /**\n    * @dev Sets whether the minter will keep the clover\n    * @param _tokenId The token Id.\n    * @param value Whether the clover will be kept.\n    */\n    function setKeep(uint256 _tokenId, bool value) public onlyOwnerOrController {\n        clovers[_tokenId].keep = value;\n    }\n    function setBlockMinted(uint256 _tokenId, uint256 value) public onlyOwnerOrController {\n        clovers[_tokenId].blockMinted = value;\n    }\n    function setCloverMoves(uint256 _tokenId, bytes28[2] moves) public onlyOwnerOrController {\n        clovers[_tokenId].cloverMoves = moves;\n    }\n    function setReward(uint256 _tokenId, uint256 _amount) public onlyOwnerOrController {\n        clovers[_tokenId].rewards = _amount;\n    }\n    function setSymmetries(uint256 _tokenId, uint256 _symmetries) public onlyOwnerOrController {\n        clovers[_tokenId].symmetries = _symmetries;\n    }\n\n    /**\n    * @dev Sets total tallies of symmetry counts. For use by the controller to correct for invalid Clovers.\n    * @param _totalSymmetries The total number of Symmetries.\n    * @param RotSym The total number of RotSym Symmetries.\n    * @param Y0Sym The total number of Y0Sym Symmetries.\n    * @param X0Sym The total number of X0Sym Symmetries.\n    * @param XYSym The total number of XYSym Symmetries.\n    * @param XnYSym The total number of XnYSym Symmetries.\n    */\n    function setAllSymmetries(uint256 _totalSymmetries, uint256 RotSym, uint256 Y0Sym, uint256 X0Sym, uint256 XYSym, uint256 XnYSym) public onlyOwnerOrController {\n        totalSymmetries = _totalSymmetries;\n        symmetries[0] = RotSym;\n        symmetries[1] = Y0Sym;\n        symmetries[2] = X0Sym;\n        symmetries[3] = XYSym;\n        symmetries[4] = XnYSym;\n    }\n\n    /**\n    * @dev Deletes data about a Clover.\n    * @param _tokenId The Id of the clover token to be deleted.\n    */\n    function deleteClover(uint256 _tokenId) public onlyOwnerOrController {\n        delete(clovers[_tokenId]);\n    }\n    /**\n    * @dev Updates the CloversController contract address and approves that contract to manage the Clovers owned by the Clovers contract.\n    * @param _cloversController The address of the new contract.\n    */\n    function updateCloversControllerAddress(address _cloversController) public onlyOwner {\n        require(_cloversController != 0);\n\n        operatorApprovals[address(this)][cloversController] = false;\n        emit ApprovalForAll(address(this), cloversController, false);\n\n        operatorApprovals[address(this)][_cloversController] = true;\n        emit ApprovalForAll(address(this), _cloversController, true);\n\n        cloversController = _cloversController;\n    }\n\n    /**\n    * @dev Updates the CloversMetadata contract address.\n    * @param _cloversMetadata The address of the new contract.\n    */\n    function updateCloversMetadataAddress(address _cloversMetadata) public onlyOwner {\n        require(_cloversMetadata != 0);\n        cloversMetadata = _cloversMetadata;\n    }\n\n    /**\n    * @dev Mints new Clovers.\n    * @param _to The address of the new clover owner.\n    * @param _tokenId The Id of the new clover token.\n    */\n    function mint (address _to, uint256 _tokenId) public onlyOwnerOrController {\n        super._mint(_to, _tokenId);\n    }\n    /**\n    * @dev Unmints Clovers.\n    * @param _tokenId The Id of the clover token to be destroyed.\n    */\n    function unmint (uint256 _tokenId) public onlyOwnerOrController {\n        super._burn(ownerOf(_tokenId), _tokenId);\n    }\n\n\n}\n",
  "sourcePath": "/Users/billy/clovers/clovers-contracts/contracts/Clovers.sol",
  "compiler": {
    "name": "solc",
    "version": "0.4.24+commit.e67f0147.Emscripten.clang"
  },
  "schemaVersion": "2.0.1",
  "updatedAt": "2018-07-31T17:46:39.544Z"
}