{
  "contractName": "CloversController",
  "abi": [
    {
      "constant": false,
      "inputs": [
        {
          "name": "token",
          "type": "address"
        }
      ],
      "name": "reclaimToken",
      "outputs": [],
      "payable": false,
      "stateMutability": "nonpayable",
      "type": "function"
    },
    {
      "constant": true,
      "inputs": [],
      "name": "owner",
      "outputs": [
        {
          "name": "",
          "type": "address"
        }
      ],
      "payable": false,
      "stateMutability": "view",
      "type": "function"
    },
    {
      "constant": false,
      "inputs": [],
      "name": "reclaimEther",
      "outputs": [],
      "payable": false,
      "stateMutability": "nonpayable",
      "type": "function"
    },
    {
      "constant": false,
      "inputs": [
        {
          "name": "from_",
          "type": "address"
        },
        {
          "name": "value_",
          "type": "uint256"
        },
        {
          "name": "data_",
          "type": "bytes"
        }
      ],
      "name": "tokenFallback",
      "outputs": [],
      "payable": false,
      "stateMutability": "nonpayable",
      "type": "function"
    },
    {
      "constant": false,
      "inputs": [
        {
          "name": "newOwner",
          "type": "address"
        }
      ],
      "name": "transferOwnership",
      "outputs": [],
      "payable": false,
      "stateMutability": "nonpayable",
      "type": "function"
    },
    {
      "inputs": [
        {
          "name": "_clovers",
          "type": "address"
        },
        {
          "name": "_clubToken",
          "type": "address"
        }
      ],
      "payable": false,
      "stateMutability": "nonpayable",
      "type": "constructor"
    },
    {
      "payable": false,
      "stateMutability": "nonpayable",
      "type": "fallback"
    },
    {
      "anonymous": false,
      "inputs": [
        {
          "indexed": false,
          "name": "movesHash",
          "type": "bytes32"
        },
        {
          "indexed": false,
          "name": "owner",
          "type": "address"
        }
      ],
      "name": "cloverCommited",
      "type": "event"
    },
    {
      "anonymous": false,
      "inputs": [
        {
          "indexed": false,
          "name": "moves",
          "type": "bytes28[2]"
        },
        {
          "indexed": false,
          "name": "tokenId",
          "type": "uint256"
        },
        {
          "indexed": false,
          "name": "owner",
          "type": "address"
        },
        {
          "indexed": false,
          "name": "stake",
          "type": "uint256"
        },
        {
          "indexed": false,
          "name": "reward",
          "type": "uint256"
        },
        {
          "indexed": false,
          "name": "symmetries",
          "type": "bytes1"
        }
      ],
      "name": "cloverClaimed",
      "type": "event"
    },
    {
      "anonymous": false,
      "inputs": [
        {
          "indexed": false,
          "name": "tokenId",
          "type": "uint256"
        },
        {
          "indexed": false,
          "name": "owner",
          "type": "address"
        },
        {
          "indexed": false,
          "name": "stake",
          "type": "uint256"
        },
        {
          "indexed": false,
          "name": "reward",
          "type": "uint256"
        }
      ],
      "name": "stakeAndRewardRetrieved",
      "type": "event"
    },
    {
      "anonymous": false,
      "inputs": [
        {
          "indexed": false,
          "name": "moves",
          "type": "bytes28[2]"
        },
        {
          "indexed": false,
          "name": "tokenId",
          "type": "uint256"
        },
        {
          "indexed": false,
          "name": "owner",
          "type": "address"
        },
        {
          "indexed": false,
          "name": "challenger",
          "type": "address"
        },
        {
          "indexed": false,
          "name": "stake",
          "type": "uint256"
        }
      ],
      "name": "cloverChallenged",
      "type": "event"
    },
    {
      "anonymous": false,
      "inputs": [
        {
          "indexed": true,
          "name": "previousOwner",
          "type": "address"
        },
        {
          "indexed": true,
          "name": "newOwner",
          "type": "address"
        }
      ],
      "name": "OwnershipTransferred",
      "type": "event"
    },
    {
      "constant": true,
      "inputs": [],
      "name": "currentStakeAmount",
      "outputs": [
        {
          "name": "",
          "type": "uint256"
        }
      ],
      "payable": false,
      "stateMutability": "view",
      "type": "function"
    },
    {
      "constant": true,
      "inputs": [],
      "name": "currentStakePeriod",
      "outputs": [
        {
          "name": "",
          "type": "uint256"
        }
      ],
      "payable": false,
      "stateMutability": "view",
      "type": "function"
    },
    {
      "constant": true,
      "inputs": [],
      "name": "getMultiplier",
      "outputs": [
        {
          "name": "",
          "type": "uint256"
        }
      ],
      "payable": false,
      "stateMutability": "view",
      "type": "function"
    },
    {
      "constant": true,
      "inputs": [
        {
          "name": "_tokenId",
          "type": "uint256"
        }
      ],
      "name": "getMovesHash",
      "outputs": [
        {
          "name": "",
          "type": "bytes32"
        }
      ],
      "payable": false,
      "stateMutability": "view",
      "type": "function"
    },
    {
      "constant": true,
      "inputs": [
        {
          "name": "moves",
          "type": "bytes28[2]"
        }
      ],
      "name": "isValid",
      "outputs": [
        {
          "name": "",
          "type": "bool"
        }
      ],
      "payable": false,
      "stateMutability": "view",
      "type": "function"
    },
    {
      "constant": true,
      "inputs": [
        {
          "components": [
            {
              "name": "error",
              "type": "bool"
            },
            {
              "name": "complete",
              "type": "bool"
            },
            {
              "name": "symmetrical",
              "type": "bool"
            },
            {
              "name": "RotSym",
              "type": "bool"
            },
            {
              "name": "Y0Sym",
              "type": "bool"
            },
            {
              "name": "X0Sym",
              "type": "bool"
            },
            {
              "name": "XYSym",
              "type": "bool"
            },
            {
              "name": "XnYSym",
              "type": "bool"
            },
            {
              "name": "board",
              "type": "bytes16"
            },
            {
              "name": "first32Moves",
              "type": "bytes28"
            },
            {
              "name": "lastMoves",
              "type": "bytes28"
            },
            {
              "name": "currentPlayer",
              "type": "uint8"
            },
            {
              "name": "moveKey",
              "type": "uint8"
            },
            {
              "name": "blackScore",
              "type": "uint8"
            },
            {
              "name": "whiteScore",
              "type": "uint8"
            }
          ],
          "name": "game",
          "type": "tuple"
        }
      ],
      "name": "isValidGame",
      "outputs": [
        {
          "name": "",
          "type": "bool"
        }
      ],
      "payable": false,
      "stateMutability": "pure",
      "type": "function"
    },
    {
      "constant": true,
      "inputs": [
        {
          "name": "_tokenId",
          "type": "uint256"
        }
      ],
      "name": "isVerified",
      "outputs": [
        {
          "name": "",
          "type": "bool"
        }
      ],
      "payable": false,
      "stateMutability": "view",
      "type": "function"
    },
    {
      "constant": true,
      "inputs": [
        {
          "name": "_symmetries",
          "type": "bytes1"
        }
      ],
      "name": "calculateReward",
      "outputs": [
        {
          "name": "",
          "type": "uint256"
        }
      ],
      "payable": false,
      "stateMutability": "view",
      "type": "function"
    },
    {
      "constant": false,
      "inputs": [
        {
          "name": "moves",
          "type": "bytes28[2]"
        },
        {
          "name": "_tokenId",
          "type": "uint256"
        },
        {
          "name": "_symmetries",
          "type": "bytes1"
        },
        {
          "name": "_to",
          "type": "address"
        }
      ],
      "name": "claimClover",
      "outputs": [
        {
          "name": "",
          "type": "bool"
        }
      ],
      "payable": true,
      "stateMutability": "payable",
      "type": "function"
    },
    {
      "constant": false,
      "inputs": [
        {
          "name": "movesHash",
          "type": "bytes32"
        },
        {
          "name": "_to",
          "type": "address"
        }
      ],
      "name": "claimCloverCommit",
      "outputs": [
        {
          "name": "",
          "type": "bool"
        }
      ],
      "payable": true,
      "stateMutability": "payable",
      "type": "function"
    },
    {
      "constant": false,
      "inputs": [
        {
          "name": "moves",
          "type": "bytes28[2]"
        },
        {
          "name": "_tokenId",
          "type": "uint256"
        },
        {
          "name": "_symmetries",
          "type": "bytes1"
        }
      ],
      "name": "claimCloverReveal",
      "outputs": [
        {
          "name": "",
          "type": "bool"
        }
      ],
      "payable": false,
      "stateMutability": "nonpayable",
      "type": "function"
    },
    {
      "constant": false,
      "inputs": [
        {
          "name": "_tokenId",
          "type": "uint256"
        }
      ],
      "name": "retrieveStake",
      "outputs": [
        {
          "name": "",
          "type": "bool"
        }
      ],
      "payable": false,
      "stateMutability": "nonpayable",
      "type": "function"
    },
    {
      "constant": false,
      "inputs": [
        {
          "name": "_tokenId",
          "type": "uint256"
        },
        {
          "name": "_to",
          "type": "address"
        }
      ],
      "name": "challengeClover",
      "outputs": [
        {
          "name": "",
          "type": "bool"
        }
      ],
      "payable": false,
      "stateMutability": "nonpayable",
      "type": "function"
    },
    {
      "constant": false,
      "inputs": [
        {
          "name": "_stakeAmount",
          "type": "uint256"
        }
      ],
      "name": "updateStakeAmount",
      "outputs": [],
      "payable": false,
      "stateMutability": "nonpayable",
      "type": "function"
    },
    {
      "constant": false,
      "inputs": [
        {
          "name": "_stakePeriod",
          "type": "uint256"
        }
      ],
      "name": "updateStakePeriod",
      "outputs": [],
      "payable": false,
      "stateMutability": "nonpayable",
      "type": "function"
    },
    {
      "constant": false,
      "inputs": [
        {
          "name": "_payMultiplier",
          "type": "uint256"
        }
      ],
      "name": "updatePayMultipier",
      "outputs": [],
      "payable": false,
      "stateMutability": "nonpayable",
      "type": "function"
    }
  ],
  "bytecode": "0x606060405234156200001057600080fd5b604051604080620061028339810160405262000036906780000000000000009062000126565b336000806101000a81548173ffffffffffffffffffffffffffffffffffffffff021916908373ffffffffffffffffffffffffffffffffffffffff1602179055506000341415156200008657600080fd5b81600160006101000a81548173ffffffffffffffffffffffffffffffffffffffff021916908373ffffffffffffffffffffffffffffffffffffffff16021790555080600260006101000a81548173ffffffffffffffffffffffffffffffffffffffff021916908373ffffffffffffffffffffffffffffffffffffffff160217905550505062000191565b60006200011e825162000171565b905092915050565b600080604083850312600181146200013e5762000143565b600080fd5b506000620001548582860162000110565b9250506020620001678582860162000110565b9150509250929050565b600073ffffffffffffffffffffffffffffffffffffffff82169050919050565b615f6180620001a16000396000f30060606040526004361061011d576000357c0100000000000000000000000000000000000000000000000000000000900463ffffffff16806308b6a33d1461012a57806317ffc32014610155578063271eff941461017757806332cda779146101ad57806335f71899146101d657806337b6d96b1461020157806340490a90146102375780635759f3f7146102605780636cb6b41f146102825780638a05aafa146102ab5780638da5cb5b146102cd5780639f727c27146102f6578063acd37b7b1461030b578063afc6285314610341578063c0ee0b8a14610377578063c1fe551a14610399578063c90054ee146103cf578063d09687f7146103f1578063e00a768d14610427578063f2fde38b1461045d578063f8a68a561461047f575b341561012857600080fd5b005b61013f600461013a903690615739565b6104b5565b60405161014c9190615ac2565b60405180910390f35b341561016057600080fd5b610175600461017090369061581c565b610b96565b005b341561018257600080fd5b61019760046101929036906156af565b610cd7565b6040516101a49190615ac2565b60405180910390f35b34156101b857600080fd5b6101c0610cfd565b6040516101cd9190615bb7565b60405180910390f35b6101eb60046101e69036906157d7565b610d07565b6040516101f89190615ac2565b60405180910390f35b341561020c57600080fd5b610221600461021c903690615881565b61100b565b60405161022e9190615ac2565b60405180910390f35b341561024257600080fd5b61024a6110e6565b6040516102579190615bb7565b60405180910390f35b341561026b57600080fd5b610280600461027b903690615881565b6110f0565b005b341561028d57600080fd5b610295611155565b6040516102a29190615bb7565b60405180910390f35b34156102b657600080fd5b6102cb60046102c6903690615881565b61115f565b005b34156102d857600080fd5b6102e06111c4565b6040516102ed91906159ca565b60405180910390f35b341561030157600080fd5b6103096111e9565b005b341561031657600080fd5b61032b60046103269036906158b3565b6112bb565b6040516103389190615ac2565b60405180910390f35b341561034c57600080fd5b610361600461035c9036906156e1565b611d4f565b60405161036e9190615ac2565b60405180910390f35b341561038257600080fd5b6103976004610392903690615631565b6123dc565b005b34156103a457600080fd5b6103b960046103b4903690615881565b6123e1565b6040516103c69190615ac2565b60405180910390f35b34156103da57600080fd5b6103ef60046103ea903690615881565b6129dd565b005b34156103fc57600080fd5b610411600461040c903690615881565b612a42565b60405161041e9190615add565b60405180910390f35b341561043257600080fd5b61044760046104429036906157a5565b612b3e565b6040516104549190615bb7565b60405180910390f35b341561046857600080fd5b61047d60046104789036906155ff565b613068565b005b341561048a57600080fd5b61049f600461049a90369061584e565b6131bd565b6040516104ac9190615ac2565b60405180910390f35b600080600080640100000000028760006002811015156104d157fe5b602002015163ffffffff1916141515156104ea57600080fd5b600454341415156104fa57600080fd5b866040518082600260200280838360005b8381101561052657808201518184015260208101905061050b565b5050505090500191505060405180910390209150600160009054906101000a900473ffffffffffffffffffffffffffffffffffffffff1673ffffffffffffffffffffffffffffffffffffffff16631dbd9d9183866040518363ffffffff167c01000000000000000000000000000000000000000000000000000000000281526004016105b3929190615af8565b600060405180830381600087803b15156105cc57600080fd5b6102c65a03f115156105dd57600080fd5b505050600160009054906101000a900473ffffffffffffffffffffffffffffffffffffffff1673ffffffffffffffffffffffffffffffffffffffff16633541fd53836004546040518363ffffffff167c010000000000000000000000000000000000000000000000000000000002815260040161065b929190615b73565b600060405180830381600087803b151561067457600080fd5b6102c65a03f1151561068557600080fd5b505050600160009054906101000a900473ffffffffffffffffffffffffffffffffffffffff1673ffffffffffffffffffffffffffffffffffffffff166108fc6004549081150290604051600060405180830381858888f1935050505015156106ec57600080fd5b6000600160009054906101000a900473ffffffffffffffffffffffffffffffffffffffff1673ffffffffffffffffffffffffffffffffffffffff166303a53d6b886000604051602001526040518263ffffffff167c010000000000000000000000000000000000000000000000000000000002815260040161076e9190615bb7565b602060405180830381600087803b151561078757600080fd5b6102c65a03f1151561079857600080fd5b505050604051805190501415156107ae57600080fd5b600160009054906101000a900473ffffffffffffffffffffffffffffffffffffffff1673ffffffffffffffffffffffffffffffffffffffff1663e3100d1e87436040518363ffffffff167c0100000000000000000000000000000000000000000000000000000000028152600401610827929190615c69565b600060405180830381600087803b151561084057600080fd5b6102c65a03f1151561085157600080fd5b505050600160009054906101000a900473ffffffffffffffffffffffffffffffffffffffff1673ffffffffffffffffffffffffffffffffffffffff16630b62839587896040518363ffffffff167c01000000000000000000000000000000000000000000000000000000000281526004016108cd929190615c17565b600060405180830381600087803b15156108e657600080fd5b6102c65a03f115156108f757600080fd5b50505060007f010000000000000000000000000000000000000000000000000000000000000002857effffffffffffffffffffffffffffffffffffffffffffffffffffffffffffff19161115610a9f57600160009054906101000a900473ffffffffffffffffffffffffffffffffffffffff1673ffffffffffffffffffffffffffffffffffffffff16631dba566087876040518363ffffffff167c01000000000000000000000000000000000000000000000000000000000281526004016109c0929190615c40565b600060405180830381600087803b15156109d957600080fd5b6102c65a03f115156109ea57600080fd5b5050506109f685612b3e565b9050600160009054906101000a900473ffffffffffffffffffffffffffffffffffffffff1673ffffffffffffffffffffffffffffffffffffffff1663a47bd49687836040518363ffffffff167c0100000000000000000000000000000000000000000000000000000000028152600401610a71929190615c69565b600060405180830381600087803b1515610a8a57600080fd5b6102c65a03f11515610a9b57600080fd5b5050505b600160009054906101000a900473ffffffffffffffffffffffffffffffffffffffff1673ffffffffffffffffffffffffffffffffffffffff166340c10f1985886040518363ffffffff167c0100000000000000000000000000000000000000000000000000000000028152600401610b189291906159e5565b600060405180830381600087803b1515610b3157600080fd5b6102c65a03f11515610b4257600080fd5b5050507f0ab7735ba12f5a676d3ce461717604dfc7338aa06605cc2ac20c7786ffcd821b878786600454858a604051610b8096959493929190615a61565b60405180910390a1600192505050949350505050565b60008060009054906101000a900473ffffffffffffffffffffffffffffffffffffffff1673ffffffffffffffffffffffffffffffffffffffff163373ffffffffffffffffffffffffffffffffffffffff16141515610bf357600080fd5b8173ffffffffffffffffffffffffffffffffffffffff166370a08231306000604051602001526040518263ffffffff167c0100000000000000000000000000000000000000000000000000000000028152600401610c519190615b9c565b602060405180830381600087803b1515610c6a57600080fd5b6102c65a03f11515610c7b57600080fd5b505050604051805190509050610cd36000809054906101000a900473ffffffffffffffffffffffffffffffffffffffff16828473ffffffffffffffffffffffffffffffffffffffff166131f09092919063ffffffff16565b5050565b6000610ce161510f565b610cea83613291565b9050610cf5816131bd565b915050919050565b6000600554905090565b6000808273ffffffffffffffffffffffffffffffffffffffff1614151515610d2e57600080fd5b60045434141515610d3e57600080fd5b6000600160009054906101000a900473ffffffffffffffffffffffffffffffffffffffff1673ffffffffffffffffffffffffffffffffffffffff16638784ea96856000604051602001526040518263ffffffff167c0100000000000000000000000000000000000000000000000000000000028152600401610dc09190615add565b602060405180830381600087803b1515610dd957600080fd5b6102c65a03f11515610dea57600080fd5b5050506040518051905073ffffffffffffffffffffffffffffffffffffffff16141515610e1657600080fd5b600160009054906101000a900473ffffffffffffffffffffffffffffffffffffffff1673ffffffffffffffffffffffffffffffffffffffff16631dbd9d9184846040518363ffffffff167c0100000000000000000000000000000000000000000000000000000000028152600401610e8f929190615af8565b600060405180830381600087803b1515610ea857600080fd5b6102c65a03f11515610eb957600080fd5b505050600160009054906101000a900473ffffffffffffffffffffffffffffffffffffffff1673ffffffffffffffffffffffffffffffffffffffff16633541fd53846004546040518363ffffffff167c0100000000000000000000000000000000000000000000000000000000028152600401610f37929190615b73565b600060405180830381600087803b1515610f5057600080fd5b6102c65a03f11515610f6157600080fd5b505050600160009054906101000a900473ffffffffffffffffffffffffffffffffffffffff1673ffffffffffffffffffffffffffffffffffffffff166108fc6004549081150290604051600060405180830381858888f193505050501515610fc857600080fd5b7ff3fffa8b1541627ac78c205bd5269b016f004490b173ca1c11408ec01da5f8bc8383604051610ff9929190615af8565b60405180910390a16001905092915050565b600080600160009054906101000a900473ffffffffffffffffffffffffffffffffffffffff1673ffffffffffffffffffffffffffffffffffffffff166303a53d6b846000604051602001526040518263ffffffff167c010000000000000000000000000000000000000000000000000000000002815260040161108e9190615bb7565b602060405180830381600087803b15156110a757600080fd5b6102c65a03f115156110b857600080fd5b50505060405180519050905060008114156110d657600091506110e0565b6005548143031191505b50919050565b6000600354905090565b6000809054906101000a900473ffffffffffffffffffffffffffffffffffffffff1673ffffffffffffffffffffffffffffffffffffffff163373ffffffffffffffffffffffffffffffffffffffff1614151561114b57600080fd5b8060058190555050565b6000600454905090565b6000809054906101000a900473ffffffffffffffffffffffffffffffffffffffff1673ffffffffffffffffffffffffffffffffffffffff163373ffffffffffffffffffffffffffffffffffffffff161415156111ba57600080fd5b8060038190555050565b6000809054906101000a900473ffffffffffffffffffffffffffffffffffffffff1681565b6000809054906101000a900473ffffffffffffffffffffffffffffffffffffffff1673ffffffffffffffffffffffffffffffffffffffff163373ffffffffffffffffffffffffffffffffffffffff1614151561124457600080fd5b6000809054906101000a900473ffffffffffffffffffffffffffffffffffffffff1673ffffffffffffffffffffffffffffffffffffffff166108fc3073ffffffffffffffffffffffffffffffffffffffff16319081150290604051600060405180830381858888f1935050505015156112b957fe5b565b6000806112c66151c3565b6112ce61510f565b60008060008060019650600160009054906101000a900473ffffffffffffffffffffffffffffffffffffffff1673ffffffffffffffffffffffffffffffffffffffff166362f9acf98b6000604051604001526040518263ffffffff167c01000000000000000000000000000000000000000000000000000000000281526004016113589190615bb7565b6040805180830381600087803b151561137057600080fd5b6102c65a03f1151561138157600080fd5b5050506040518060400160405295506000640100000000028660006002811015156113a857fe5b602002015163ffffffff1916141515156113c157600080fd5b6113ca86613291565b94506113d5856131bd565b156117db57600160009054906101000a900473ffffffffffffffffffffffffffffffffffffffff1673ffffffffffffffffffffffffffffffffffffffff1663c53b4bf98b6000604051602001526040518263ffffffff167c010000000000000000000000000000000000000000000000000000000002815260040161145a9190615bb7565b602060405180830381600087803b151561147357600080fd5b6102c65a03f1151561148457600080fd5b5050506040518051905093508460600151151560007f01000000000000000000000000000000000000000000000000000000000000000260017f0100000000000000000000000000000000000000000000000000000000000000026004877effffffffffffffffffffffffffffffffffffffffffffffffffffffffffffff19169060020a9004167effffffffffffffffffffffffffffffffffffffffffffffffffffffffffffff19161115151461153c57600061153e565b865b96508460800151151560007f01000000000000000000000000000000000000000000000000000000000000000260017f0100000000000000000000000000000000000000000000000000000000000000026003877effffffffffffffffffffffffffffffffffffffffffffffffffffffffffffff19169060020a9004167effffffffffffffffffffffffffffffffffffffffffffffffffffffffffffff1916111515146115ec5760006115ee565b865b96508460a00151151560007f01000000000000000000000000000000000000000000000000000000000000000260017f0100000000000000000000000000000000000000000000000000000000000000026002877effffffffffffffffffffffffffffffffffffffffffffffffffffffffffffff19169060020a9004167effffffffffffffffffffffffffffffffffffffffffffffffffffffffffffff19161115151461169c57600061169e565b865b96508460c00151151560007f01000000000000000000000000000000000000000000000000000000000000000260017f0100000000000000000000000000000000000000000000000000000000000000026001877effffffffffffffffffffffffffffffffffffffffffffffffffffffffffffff19169060020a9004167effffffffffffffffffffffffffffffffffffffffffffffffffffffffffffff19161115151461174c57600061174e565b865b96508460e00151151560007f01000000000000000000000000000000000000000000000000000000000000000260017f01000000000000000000000000000000000000000000000000000000000000000286167effffffffffffffffffffffffffffffffffffffffffffffffffffffffffffff1916111515146117d25760006117d4565b865b96506117e0565b600096505b861515156117ed57600080fd5b600160009054906101000a900473ffffffffffffffffffffffffffffffffffffffff1673ffffffffffffffffffffffffffffffffffffffff16630e8310d68b6040518263ffffffff167c01000000000000000000000000000000000000000000000000000000000281526004016118649190615bb7565b600060405180830381600087803b151561187d57600080fd5b6102c65a03f1151561188e57600080fd5b505050856040518082600260200280838360005b838110156118bd5780820151818401526020810190506118a2565b50505050905001915050604051809103902092506118da8a61100b565b1515611a4e57600160009054906101000a900473ffffffffffffffffffffffffffffffffffffffff1673ffffffffffffffffffffffffffffffffffffffff1663e765c122846000604051602001526040518263ffffffff167c01000000000000000000000000000000000000000000000000000000000281526004016119609190615add565b602060405180830381600087803b151561197957600080fd5b6102c65a03f1151561198a57600080fd5b505050604051805190509150600160009054906101000a900473ffffffffffffffffffffffffffffffffffffffff1673ffffffffffffffffffffffffffffffffffffffff16631cc1472d8a846000604051602001526040518363ffffffff167c0100000000000000000000000000000000000000000000000000000000028152600401611a189291906159e5565b602060405180830381600087803b1515611a3157600080fd5b6102c65a03f11515611a4257600080fd5b50505060405180519050505b600160009054906101000a900473ffffffffffffffffffffffffffffffffffffffff1673ffffffffffffffffffffffffffffffffffffffff166364e779b18b6040518263ffffffff167c0100000000000000000000000000000000000000000000000000000000028152600401611ac59190615bb7565b600060405180830381600087803b1515611ade57600080fd5b6102c65a03f11515611aef57600080fd5b505050600160009054906101000a900473ffffffffffffffffffffffffffffffffffffffff1673ffffffffffffffffffffffffffffffffffffffff16631dbd9d918460006040518363ffffffff167c0100000000000000000000000000000000000000000000000000000000028152600401611b6c929190615b21565b600060405180830381600087803b1515611b8557600080fd5b6102c65a03f11515611b9657600080fd5b505050600160009054906101000a900473ffffffffffffffffffffffffffffffffffffffff1673ffffffffffffffffffffffffffffffffffffffff16633541fd538460006040518363ffffffff167c0100000000000000000000000000000000000000000000000000000000028152600401611c13929190615b4a565b600060405180830381600087803b1515611c2c57600080fd5b6102c65a03f11515611c3d57600080fd5b505050611c498a613594565b600160009054906101000a900473ffffffffffffffffffffffffffffffffffffffff1673ffffffffffffffffffffffffffffffffffffffff16638784ea96846000604051602001526040518263ffffffff167c0100000000000000000000000000000000000000000000000000000000028152600401611cc99190615add565b602060405180830381600087803b1515611ce257600080fd5b6102c65a03f11515611cf357600080fd5b5050506040518051905090507f23e709ab80a4bee9454ba0d08c0b669d684531b4ec766524c43abd788cc3ca76868b838c86604051611d36959493929190615a0e565b60405180910390a1600197505050505050505092915050565b60008060008060008064010000000002886000600281101515611d6e57fe5b602002015163ffffffff191614151515611d8757600080fd5b876040518082600260200280838360005b83811015611db3578082015181840152602081019050611d98565b5050505090500191505060405180910390209350600160009054906101000a900473ffffffffffffffffffffffffffffffffffffffff1673ffffffffffffffffffffffffffffffffffffffff16638784ea96856000604051602001526040518263ffffffff167c0100000000000000000000000000000000000000000000000000000000028152600401611e479190615add565b602060405180830381600087803b1515611e6057600080fd5b6102c65a03f11515611e7157600080fd5b5050506040518051905092506000600160009054906101000a900473ffffffffffffffffffffffffffffffffffffffff1673ffffffffffffffffffffffffffffffffffffffff166303a53d6b896000604051602001526040518263ffffffff167c0100000000000000000000000000000000000000000000000000000000028152600401611eff9190615bb7565b602060405180830381600087803b1515611f1857600080fd5b6102c65a03f11515611f2957600080fd5b50505060405180519050141515611f3f57600080fd5b600160009054906101000a900473ffffffffffffffffffffffffffffffffffffffff1673ffffffffffffffffffffffffffffffffffffffff1663e3100d1e88436040518363ffffffff167c0100000000000000000000000000000000000000000000000000000000028152600401611fb8929190615c69565b600060405180830381600087803b1515611fd157600080fd5b6102c65a03f11515611fe257600080fd5b505050600160009054906101000a900473ffffffffffffffffffffffffffffffffffffffff1673ffffffffffffffffffffffffffffffffffffffff16630b628395888a6040518363ffffffff167c010000000000000000000000000000000000000000000000000000000002815260040161205e929190615c17565b600060405180830381600087803b151561207757600080fd5b6102c65a03f1151561208857600080fd5b50505060007f010000000000000000000000000000000000000000000000000000000000000002867effffffffffffffffffffffffffffffffffffffffffffffffffffffffffffff1916111561223057600160009054906101000a900473ffffffffffffffffffffffffffffffffffffffff1673ffffffffffffffffffffffffffffffffffffffff16631dba566088886040518363ffffffff167c0100000000000000000000000000000000000000000000000000000000028152600401612151929190615c40565b600060405180830381600087803b151561216a57600080fd5b6102c65a03f1151561217b57600080fd5b50505061218786612b3e565b9150600160009054906101000a900473ffffffffffffffffffffffffffffffffffffffff1673ffffffffffffffffffffffffffffffffffffffff1663a47bd49688846040518363ffffffff167c0100000000000000000000000000000000000000000000000000000000028152600401612202929190615c69565b600060405180830381600087803b151561221b57600080fd5b6102c65a03f1151561222c57600080fd5b5050505b600160009054906101000a900473ffffffffffffffffffffffffffffffffffffffff1673ffffffffffffffffffffffffffffffffffffffff166340c10f1984896040518363ffffffff167c01000000000000000000000000000000000000000000000000000000000281526004016122a99291906159e5565b600060405180830381600087803b15156122c257600080fd5b6102c65a03f115156122d357600080fd5b505050600160009054906101000a900473ffffffffffffffffffffffffffffffffffffffff1673ffffffffffffffffffffffffffffffffffffffff1663e765c122856000604051602001526040518263ffffffff167c01000000000000000000000000000000000000000000000000000000000281526004016123569190615add565b602060405180830381600087803b151561236f57600080fd5b6102c65a03f1151561238057600080fd5b5050506040518051905090507f0ab7735ba12f5a676d3ce461717604dfc7338aa06605cc2ac20c7786ffcd821b88888584868b6040516123c596959493929190615a61565b60405180910390a160019450505050509392505050565b600080fd5b60006123eb6151c3565b600080600080600160009054906101000a900473ffffffffffffffffffffffffffffffffffffffff1673ffffffffffffffffffffffffffffffffffffffff166362f9acf9886000604051604001526040518263ffffffff167c01000000000000000000000000000000000000000000000000000000000281526004016124719190615bb7565b6040805180830381600087803b151561248957600080fd5b6102c65a03f1151561249a57600080fd5b5050506040518060400160405294506000640100000000028560006002811015156124c157fe5b602002015163ffffffff1916141515156124da57600080fd5b846040518082600260200280838360005b838110156125065780820151818401526020810190506124eb565b5050505090500191505060405180910390209350600160009054906101000a900473ffffffffffffffffffffffffffffffffffffffff1673ffffffffffffffffffffffffffffffffffffffff1663e765c122856000604051602001526040518263ffffffff167c010000000000000000000000000000000000000000000000000000000002815260040161259a9190615add565b602060405180830381600087803b15156125b357600080fd5b6102c65a03f115156125c457600080fd5b505050604051805190509250600083141515156125e057600080fd5b6125e98761100b565b15156125f457600080fd5b600160009054906101000a900473ffffffffffffffffffffffffffffffffffffffff1673ffffffffffffffffffffffffffffffffffffffff16633541fd538560006040518363ffffffff167c010000000000000000000000000000000000000000000000000000000002815260040161266e929190615b4a565b600060405180830381600087803b151561268757600080fd5b6102c65a03f1151561269857600080fd5b5050506126a487613ad2565b600160009054906101000a900473ffffffffffffffffffffffffffffffffffffffff1673ffffffffffffffffffffffffffffffffffffffff16638784ea96856000604051602001526040518263ffffffff167c01000000000000000000000000000000000000000000000000000000000281526004016127249190615add565b602060405180830381600087803b151561273d57600080fd5b6102c65a03f1151561274e57600080fd5b505050604051805190509150600160009054906101000a900473ffffffffffffffffffffffffffffffffffffffff1673ffffffffffffffffffffffffffffffffffffffff16631c4b774b886000604051602001526040518263ffffffff167c01000000000000000000000000000000000000000000000000000000000281526004016127da9190615bb7565b602060405180830381600087803b15156127f357600080fd5b6102c65a03f1151561280457600080fd5b505050604051805190509050600260009054906101000a900473ffffffffffffffffffffffffffffffffffffffff1673ffffffffffffffffffffffffffffffffffffffff166340c10f1983836000604051602001526040518363ffffffff167c01000000000000000000000000000000000000000000000000000000000281526004016128929291906159e5565b602060405180830381600087803b15156128ab57600080fd5b6102c65a03f115156128bc57600080fd5b5050506040518051905015156128d157600080fd5b600160009054906101000a900473ffffffffffffffffffffffffffffffffffffffff1673ffffffffffffffffffffffffffffffffffffffff16631cc1472d83856000604051602001526040518363ffffffff167c01000000000000000000000000000000000000000000000000000000000281526004016129539291906159e5565b602060405180830381600087803b151561296c57600080fd5b6102c65a03f1151561297d57600080fd5b50505060405180519050151561299257600080fd5b7f0f6fbbd692b7cc84f71dd9524d2324b1a22fcc80e825463499f3cfb51b149c13878385846040516129c79493929190615bd2565b60405180910390a1600195505050505050919050565b6000809054906101000a900473ffffffffffffffffffffffffffffffffffffffff1673ffffffffffffffffffffffffffffffffffffffff163373ffffffffffffffffffffffffffffffffffffffff16141515612a3857600080fd5b8060048190555050565b6000600160009054906101000a900473ffffffffffffffffffffffffffffffffffffffff1673ffffffffffffffffffffffffffffffffffffffff166362f9acf9836000604051604001526040518263ffffffff167c0100000000000000000000000000000000000000000000000000000000028152600401612ac49190615bb7565b6040805180830381600087803b1515612adc57600080fd5b6102c65a03f11515612aed57600080fd5b505050604051806040016040526040518082600260200280838360005b83811015612b25578082015181840152602081019050612b0a565b5050505090500191505060405180910390209050919050565b600080600080600080600080600160009054906101000a900473ffffffffffffffffffffffffffffffffffffffff1673ffffffffffffffffffffffffffffffffffffffff1663785d8d71600060405160c001526040518163ffffffff167c010000000000000000000000000000000000000000000000000000000002815260040160c060405180830381600087803b1515612bd857600080fd5b6102c65a03f11515612be957600080fd5b50505060405180519060200180519060200180519060200180519060200180519060200180519050809750819850829950839a50849b50859c505050505050506000905060017f01000000000000000000000000000000000000000000000000000000000000000260017f01000000000000000000000000000000000000000000000000000000000000000260048b7effffffffffffffffffffffffffffffffffffffffffffffffffffffffffffff19169060020a9004167effffffffffffffffffffffffffffffffffffffffffffffffffffffffffffff19161415612d0b57612d08612cf960018801612ceb60018b0160035461401090919063ffffffff16565b61404b90919063ffffffff16565b8261406690919063ffffffff16565b90505b60017f01000000000000000000000000000000000000000000000000000000000000000260017f01000000000000000000000000000000000000000000000000000000000000000260038b7effffffffffffffffffffffffffffffffffffffffffffffffffffffffffffff19169060020a9004167effffffffffffffffffffffffffffffffffffffffffffffffffffffffffffff19161415612de957612de6612dd760018701612dc960018b0160035461401090919063ffffffff16565b61404b90919063ffffffff16565b8261406690919063ffffffff16565b90505b60017f01000000000000000000000000000000000000000000000000000000000000000260017f01000000000000000000000000000000000000000000000000000000000000000260028b7effffffffffffffffffffffffffffffffffffffffffffffffffffffffffffff19169060020a9004167effffffffffffffffffffffffffffffffffffffffffffffffffffffffffffff19161415612ec757612ec4612eb560018601612ea760018b0160035461401090919063ffffffff16565b61404b90919063ffffffff16565b8261406690919063ffffffff16565b90505b60017f01000000000000000000000000000000000000000000000000000000000000000260017f01000000000000000000000000000000000000000000000000000000000000000260018b7effffffffffffffffffffffffffffffffffffffffffffffffffffffffffffff19169060020a9004167effffffffffffffffffffffffffffffffffffffffffffffffffffffffffffff19161415612fa557612fa2612f9360018501612f8560018b0160035461401090919063ffffffff16565b61404b90919063ffffffff16565b8261406690919063ffffffff16565b90505b60017f01000000000000000000000000000000000000000000000000000000000000000260017f0100000000000000000000000000000000000000000000000000000000000000028a167effffffffffffffffffffffffffffffffffffffffffffffffffffffffffffff19161415613059576130566130476001840161303960018b0160035461401090919063ffffffff16565b61404b90919063ffffffff16565b8261406690919063ffffffff16565b90505b80975050505050505050919050565b6000809054906101000a900473ffffffffffffffffffffffffffffffffffffffff1673ffffffffffffffffffffffffffffffffffffffff163373ffffffffffffffffffffffffffffffffffffffff161415156130c357600080fd5b600073ffffffffffffffffffffffffffffffffffffffff168173ffffffffffffffffffffffffffffffffffffffff16141515156130ff57600080fd5b8073ffffffffffffffffffffffffffffffffffffffff166000809054906101000a900473ffffffffffffffffffffffffffffffffffffffff1673ffffffffffffffffffffffffffffffffffffffff167f8be0079c531659141344cd1fd0a4f28419497f9722a3daafe3b4186f6b6457e060405160405180910390a3806000806101000a81548173ffffffffffffffffffffffffffffffffffffffff021916908373ffffffffffffffffffffffffffffffffffffffff16021790555050565b60008160000151156131d257600090506131eb565b816020015115156131e657600090506131eb565b600190505b919050565b8273ffffffffffffffffffffffffffffffffffffffff1663a9059cbb83836000604051602001526040518363ffffffff167c01000000000000000000000000000000000000000000000000000000000281526004016132509291906159e5565b602060405180830381600087803b151561326957600080fd5b6102c65a03f1151561327a57600080fd5b50505060405180519050151561328c57fe5b505050565b61329961510f565b6132a161510f565b6000806000806000808860006002811015156132b957fe5b602002015187610120019063ffffffff1916908163ffffffff1916815250508860016002811015156132e757fe5b602002015187610140019063ffffffff1916908163ffffffff191681525050600087610180019060ff16908160ff16815250506002876101a0019060ff16908160ff16815250506002876101c0019060ff16908160ff168152505060008760000190151590811515815250506000876020019015159081151581525050600187610160019060ff16908160ff16815250506ffffffffffffffe7ffdbfffffffffffff700100000000000000000000000000000000028761010001906fffffffffffffffffffffffffffffffff191690816fffffffffffffffffffffffffffffffff191681525050600091505b603c8260ff161080156133e4575085155b1561355257602087610180015160ff16106134045786610140015161340b565b8661012001515b905061342d81602089610180015160ff1681151561342557fe5b066020614084565b9450613438856140c8565b809450819550505061344985614107565b1595508515801561345d575060088460ff16105b801561346c575060088360ff16105b801561347c575060008460ff1610155b801561348c575060008360ff1610155b156135455761349c878585614118565b965060018761018001510187610180019060ff16908160ff1681525050866000015115613544576000876000019015159081151581525050600160ff1687610160015160ff16141561350157600287610160019060ff16908160ff1681525050613516565b600187610160019060ff16908160ff16815250505b613521878585614118565b9650866000015115613543576001876000019015159081151581525050600195505b5b5b81806001019250506133d3565b866000015115156135855760008760000190151590811515815250506135778761441a565b965061358287614759565b96505b86975050505050505050919050565b6000806000806000806000600160009054906101000a900473ffffffffffffffffffffffffffffffffffffffff1673ffffffffffffffffffffffffffffffffffffffff1663785d8d71600060405160c001526040518163ffffffff167c010000000000000000000000000000000000000000000000000000000002815260040160c060405180830381600087803b151561362d57600080fd5b6102c65a03f1151561363e57600080fd5b50505060405180519060200180519060200180519060200180519060200180519060200180519050809750819850829950839a50849b50859c50505050505050600160009054906101000a900473ffffffffffffffffffffffffffffffffffffffff1673ffffffffffffffffffffffffffffffffffffffff1663c53b4bf9896000604051602001526040518263ffffffff167c01000000000000000000000000000000000000000000000000000000000281526004016136fe9190615bb7565b602060405180830381600087803b151561371757600080fd5b6102c65a03f1151561372857600080fd5b50505060405180519050905061379f60007f010000000000000000000000000000000000000000000000000000000000000002827effffffffffffffffffffffffffffffffffffffffffffffffffffffffffffff19161161378a57600061378d565b60015b60ff1688614a5190919063ffffffff16565b965061382660017f0100000000000000000000000000000000000000000000000000000000000000026004837effffffffffffffffffffffffffffffffffffffffffffffffffffffffffffff19169060020a9004167f0100000000000000000000000000000000000000000000000000000000000000900487614a5190919063ffffffff16565b95506138ad60017f0100000000000000000000000000000000000000000000000000000000000000026003837effffffffffffffffffffffffffffffffffffffffffffffffffffffffffffff19169060020a9004167f0100000000000000000000000000000000000000000000000000000000000000900486614a5190919063ffffffff16565b945061393460017f0100000000000000000000000000000000000000000000000000000000000000026002837effffffffffffffffffffffffffffffffffffffffffffffffffffffffffffff19169060020a9004167f0100000000000000000000000000000000000000000000000000000000000000900485614a5190919063ffffffff16565b93506139bb60017f0100000000000000000000000000000000000000000000000000000000000000026001837effffffffffffffffffffffffffffffffffffffffffffffffffffffffffffff19169060020a9004167f0100000000000000000000000000000000000000000000000000000000000000900484614a5190919063ffffffff16565b9250613a1860017f01000000000000000000000000000000000000000000000000000000000000000282167f0100000000000000000000000000000000000000000000000000000000000000900483614a5190919063ffffffff16565b9150600160009054906101000a900473ffffffffffffffffffffffffffffffffffffffff1673ffffffffffffffffffffffffffffffffffffffff16638b1b2ba88888888888886040518763ffffffff167c0100000000000000000000000000000000000000000000000000000000028152600401613a9b96959493929190615c92565b600060405180830381600087803b1515613ab457600080fd5b6102c65a03f11515613ac557600080fd5b5050505050505050505050565b6000806000806000806000600160009054906101000a900473ffffffffffffffffffffffffffffffffffffffff1673ffffffffffffffffffffffffffffffffffffffff1663785d8d71600060405160c001526040518163ffffffff167c010000000000000000000000000000000000000000000000000000000002815260040160c060405180830381600087803b1515613b6b57600080fd5b6102c65a03f11515613b7c57600080fd5b50505060405180519060200180519060200180519060200180519060200180519060200180519050809750819850829950839a50849b50859c50505050505050600160009054906101000a900473ffffffffffffffffffffffffffffffffffffffff1673ffffffffffffffffffffffffffffffffffffffff1663c53b4bf9896000604051602001526040518263ffffffff167c0100000000000000000000000000000000000000000000000000000000028152600401613c3c9190615bb7565b602060405180830381600087803b1515613c5557600080fd5b6102c65a03f11515613c6657600080fd5b505050604051805190509050613cdd60007f010000000000000000000000000000000000000000000000000000000000000002827effffffffffffffffffffffffffffffffffffffffffffffffffffffffffffff191611613cc8576000613ccb565b60015b60ff168861406690919063ffffffff16565b9650613d6460017f0100000000000000000000000000000000000000000000000000000000000000026004837effffffffffffffffffffffffffffffffffffffffffffffffffffffffffffff19169060020a9004167f010000000000000000000000000000000000000000000000000000000000000090048761406690919063ffffffff16565b9550613deb60017f0100000000000000000000000000000000000000000000000000000000000000026003837effffffffffffffffffffffffffffffffffffffffffffffffffffffffffffff19169060020a9004167f010000000000000000000000000000000000000000000000000000000000000090048661406690919063ffffffff16565b9450613e7260017f0100000000000000000000000000000000000000000000000000000000000000026002837effffffffffffffffffffffffffffffffffffffffffffffffffffffffffffff19169060020a9004167f010000000000000000000000000000000000000000000000000000000000000090048561406690919063ffffffff16565b9350613ef960017f0100000000000000000000000000000000000000000000000000000000000000026001837effffffffffffffffffffffffffffffffffffffffffffffffffffffffffffff19169060020a9004167f010000000000000000000000000000000000000000000000000000000000000090048461406690919063ffffffff16565b9250613f5660017f01000000000000000000000000000000000000000000000000000000000000000282167f010000000000000000000000000000000000000000000000000000000000000090048361406690919063ffffffff16565b9150600160009054906101000a900473ffffffffffffffffffffffffffffffffffffffff1673ffffffffffffffffffffffffffffffffffffffff16638b1b2ba88888888888886040518763ffffffff167c0100000000000000000000000000000000000000000000000000000000028152600401613fd996959493929190615c92565b600060405180830381600087803b1515613ff257600080fd5b6102c65a03f1151561400357600080fd5b5050505050505050505050565b60008060008414156140255760009150614044565b828402905082848281151561403657fe5b0414151561404057fe5b8091505b5092915050565b600080828481151561405957fe5b0490508091505092915050565b600080828401905083811015151561407a57fe5b8091505092915050565b6000806000607f64010000000002915060078086026007860203039050818160ff168763ffffffff19169060020a9004166401000000009004925050509392505050565b60008060008060408503945060088560ff168115156140e357fe5b069150600882860360ff168115156140f757fe5b0490508181935093505050915091565b600060408260ff1610159050919050565b61412061510f565b6141286151f1565b600080600080600080600080600360ff166141498e61010001518e8e614a6a565b60ff1614151561416c5760018d60000190151590811515815250508c995061440a565b6141778d8d8d614ae0565b809950819a50505060008860ff1614156141a45760018d60000190151590811515815250508c995061440a565b60009150600090505b8760ff168160ff16101561430a5760009650600095506141e48d8a8360ff166008811015156141d857fe5b60200201518e8e614e1f565b8097508198505050600092505b8560ff168360ff1610156142fd5781151561420b57600191505b61421e614219888589614084565b6140c8565b809550819650505061423c8d61010001518e61016001518787614f83565b8d61010001906fffffffffffffffffffffffffffffffff191690816fffffffffffffffffffffffffffffffff191681525050600260ff168d610160015160ff1614156142bb5760018d6101c0018181510191509060ff16908160ff168152505060018d6101a0018181510391509060ff16908160ff16815250506142f0565b60018d6101c0018181510391509060ff16908160ff168152505060018d6101a0018181510191509060ff16908160ff16815250505b82806001019350506141f1565b80806001019150506141ad565b81156143ab576143268d61010001518e61016001518e8e614f83565b8d61010001906fffffffffffffffffffffffffffffffff191690816fffffffffffffffffffffffffffffffff191681525050600260ff168d610160015160ff16141561438b5760018d6101c0018181510191509060ff16908160ff16815250506143a6565b60018d6101a0018181510191509060ff16908160ff16815250505b6143c4565b60018d60000190151590811515815250508c995061440a565b600160ff168d610160015160ff1614156143f15760028d610160019060ff16908160ff1681525050614406565b60018d610160019060ff16908160ff16815250505b8c99505b5050505050505050509392505050565b61442261510f565b61442a615220565b600080600080600061443a61524f565b603c89610180015160ff16141561446457600189602001901515908115158152505088975061474d565b60009550600094505b60408560ff161015614546576144b78961010001516008808860ff1681151561449257fe5b06880360ff168115156144a157fe5b0460088860ff168115156144b157fe5b06614a6a565b9350600360ff168460ff1614156145395760408051908101604052806008808860ff168115156144e357fe5b06880360ff168115156144f257fe5b0460ff1660ff16815260200160088760ff1681151561450d57fe5b0660ff1660ff16815250878760ff16603c8110151561452857fe5b602002018190525085806001019650505b848060010195505061446d565b6000925060008660ff16111561470a578861010001519150600094505b8560ff168560ff16108015614576575082155b156146d657868560ff16603c8110151561458c57fe5b60200201519050600189610160019060ff16908160ff16815250506000896000019015159081151581525050818961010001906fffffffffffffffffffffffffffffffff191690816fffffffffffffffffffffffffffffffff19168152505061461c898260006002811015156145fe57fe5b602002015183600160028110151561461257fe5b6020020151614118565b98508860000151151561462e57600192505b600289610160019060ff16908160ff16815250506000896000019015159081151581525050818961010001906fffffffffffffffffffffffffffffffff191690816fffffffffffffffffffffffffffffffff1916815250506146b78982600060028110151561469957fe5b60200201518360016002811015156146ad57fe5b6020020151614118565b9850886000015115156146c957600192505b8480600101955050614563565b818961010001906fffffffffffffffffffffffffffffffff191690816fffffffffffffffffffffffffffffffff1916815250505b8215614726576001896000019015159081151581525050614749565b600189602001901515908115158152505060008960000190151590811515815250505b8897505b50505050505050919050565b61476161510f565b60008060008060008060006001965060019550600194506001935060019250600091505b60088260ff161080156147b55750868061479c5750855b806147a45750845b806147ac5750835b806147b45750825b5b156149ba57600090505b60088160ff161080156147ef575086806147d65750855b806147de5750845b806147e65750835b806147ee5750825b5b156149ad5761480a896101000151836007038360070361504f565b6fffffffffffffffffffffffffffffffff191661482d8a6101000151848461504f565b6fffffffffffffffffffffffffffffffff191614151561484c57600096505b61485f896101000151838360070361504f565b6fffffffffffffffffffffffffffffffff19166148828a6101000151848461504f565b6fffffffffffffffffffffffffffffffff19161415156148a157600095505b6148b4896101000151836007038361504f565b6fffffffffffffffffffffffffffffffff19166148d78a6101000151848461504f565b6fffffffffffffffffffffffffffffffff19161415156148f657600094505b61490c896101000151826007038460070361504f565b6fffffffffffffffffffffffffffffffff191661492f8a6101000151848461504f565b6fffffffffffffffffffffffffffffffff191614151561494e57600093505b61495e896101000151828461504f565b6fffffffffffffffffffffffffffffffff19166149818a6101000151848461504f565b6fffffffffffffffffffffffffffffffff19161415156149a057600092505b80806001019150506147bf565b8180600101925050614785565b86806149c35750855b806149cb5750845b806149d35750835b806149db5750825b15614a425760018960400190151590811515815250508689606001901515908115158152505085896080019015159081151581525050848960a0019015159081151581525050838960c0019015159081151581525050828960e00190151590811515815250505b88975050505050505050919050565b6000828211151515614a5f57fe5b818303905092915050565b6000806000614a7985856150ab565b9150600370010000000000000000000000000000000002826fffffffffffffffffffffffffffffffff16876fffffffffffffffffffffffffffffffff19169060020a9004169050807001000000000000000000000000000000009004925050509392505050565b614ae86151f1565b6000614af26151f1565b6000614afc6151f1565b600080614b07615279565b600080600096506101006040519081016040528060408051908101604052807fffffffffffffffffffffffffffffffffffffffffffffffffffffffffffffffff60000b60000b81526020016000800b60000b815250815260200160408051908101604052807fffffffffffffffffffffffffffffffffffffffffffffffffffffffffffffffff60000b60000b8152602001600160000b60000b815250815260200160408051908101604052806000800b60000b8152602001600160000b60000b81525081526020016040805190810160405280600160000b60000b8152602001600160000b60000b81525081526020016040805190810160405280600160000b60000b81526020016000800b60000b81525081526020016040805190810160405280600160000b60000b81526020017fffffffffffffffffffffffffffffffffffffffffffffffffffffffffffffffff60000b60000b815250815260200160408051908101604052806000800b60000b81526020017fffffffffffffffffffffffffffffffffffffffffffffffffffffffffffffffff60000b60000b815250815260200160408051908101604052807fffffffffffffffffffffffffffffffffffffffffffffffffffffffffffffffff60000b60000b81526020017fffffffffffffffffffffffffffffffffffffffffffffffffffffffffffffffff60000b60000b8152508152509550600090505b60088160ff161015614e0957858160ff16600881101515614d3357fe5b60200201519250826000600281101515614d4957fe5b60200201518c019350826001600281101515614d6157fe5b60200201518b01945060078560000b1380614d7f575060008560000b125b80614d8d575060078460000b135b80614d9b575060008460000b125b1515614dfc57614db18d61010001518587614a6a565b91508c610160015160ff168260ff16141515614dfb57600360ff168260ff16141515614dfa5782888860ff16600881101515614de957fe5b602002018190525086806001019750505b5b5b8080600101915050614d16565b8787995099505050505050505050935093915050565b60008060008060008060008060008060009650600160ff168e610160015160ff161415614e4f5760029550614e54565b600195505b60009450600190505b60098160ff161015614f6c57841515614f5f578b8d6000600281101515614e8057fe5b602002015182020193508a8d6001600281101515614e9a57fe5b6020020151820201925060078460000b1380614eb9575060008460000b125b80614ec7575060078360000b135b80614ed5575060008360000b125b15614eeb57600097506000965060019450614f5e565b614efb8e61010001518585614a6a565b91508560ff168260ff161415614f2457614f17888886866150c7565b8098508199505050614f5d565b8d610160015160ff168260ff16148015614f41575060018160ff16115b15614f4f5760019450614f5c565b6000975060009650600194505b5b5b5b8080600101915050614e5d565b878799509950505050505050505094509492505050565b600080600060078560ff161115614f9957600080fd5b60078460ff161115614faa57600080fd5b614fb485856150ab565b9150816fffffffffffffffffffffffffffffffff166003700100000000000000000000000000000000026fffffffffffffffffffffffffffffffff19169060020a02905086818818169650816fffffffffffffffffffffffffffffffff168660ff16700100000000000000000000000000000000026fffffffffffffffffffffffffffffffff19169060020a02871792505050949350505050565b60008061505c84846150ab565b9050600370010000000000000000000000000000000002816fffffffffffffffffffffffffffffffff16866fffffffffffffffffffffffffffffffff19169060020a9004169150509392505050565b600060026001838560080201016040030260ff16905092915050565b600080600060406008850286010160ff1664010000000002905060078763ffffffff19169060020a029650808717965085806001019650508686925092505094509492505050565b6101e06040519081016040528060001515815260200160001515815260200160001515815260200160001515815260200160001515815260200160001515815260200160001515815260200160001515815260200160006fffffffffffffffffffffffffffffffff19168152602001600063ffffffff19168152602001600063ffffffff19168152602001600060ff168152602001600060ff168152602001600060ff168152602001600060ff1681525090565b60408051908101604052806002905b600063ffffffff19168152602001906001900390816151d25790505090565b610200604051908101604052806008905b61520a6152a2565b8152602001906001900390816152025790505090565b610f0060405190810160405280603c905b6152396152cb565b8152602001906001900390816152315790505090565b60408051908101604052806002905b600060ff1681526020019060019003908161525e5790505090565b60408051908101604052806002905b6000800b8152602001906001900390816152885790505090565b60408051908101604052806002905b6000800b8152602001906001900390816152b15790505090565b60408051908101604052806002905b600060ff168152602001906001900390816152da5790505090565b60006153018235615e0e565b905092915050565b600082601f8301126000811461531e57615323565b600080fd5b50600261533761533282615d29565b615cf3565b9150818385602084028201116001811461535057615355565b600080fd5b5060005b83811015615386578161536c88826153cc565b845260208401935060208301925050600181019050615359565b5050505092915050565b600061539c8235615e2e565b905092915050565b60006153b08235615e3a565b905092915050565b60006153c48235615e66565b905092915050565b60006153d88235615e92565b905092915050565b60006153ec8235615ebe565b905092915050565b60008083601f8401126000811461540a5761540f565b600080fd5b508235905067ffffffffffffffff81116001811461542c57615431565b600080fd5b5060208301915083600182028301116001811461544d57615452565b600080fd5b509250929050565b60006154668235615ec8565b905092915050565b60006101e0828403126001811461548457615489565b600080fd5b506154956101e0615cf3565b905060006154a584828501615390565b60008301525060206154b984828501615390565b60208301525060406154cd84828501615390565b60408301525060606154e184828501615390565b60608301525060806154f584828501615390565b60808301525060a061550984828501615390565b60a08301525060c061551d84828501615390565b60c08301525060e061553184828501615390565b60e083015250610100615546848285016153b8565b6101008301525061012061555c848285016153cc565b61012083015250610140615572848285016153cc565b61014083015250610160615588848285016155eb565b6101608301525061018061559e848285016155eb565b610180830152506101a06155b4848285016155eb565b6101a0830152506101c06155ca848285016155eb565b6101c08301525092915050565b60006155e38235615eda565b905092915050565b60006155f78235615ee4565b905092915050565b60006020828403126001811461561457615619565b600080fd5b506000615628848285016152f5565b91505092915050565b6000806000806060858703126001811461564a5761564f565b600080fd5b50600061565e878288016152f5565b945050602061566f878288016155d7565b935050604085013567ffffffffffffffff81116001811461568f57615694565b600080fd5b506156a1878288016153f4565b925092505092959194509250565b6000604082840312600181146156c4576156c9565b600080fd5b5060006156d884828501615309565b91505092915050565b6000806000608084860312600181146156f9576156fe565b600080fd5b50600061570d86828701615309565b935050604061571e868287016155d7565b925050606061572f868287016153a4565b9150509250925092565b60008060008060a0858703126001811461575257615757565b600080fd5b50600061576687828801615309565b9450506040615777878288016155d7565b9350506060615788878288016153a4565b9250506080615799878288016152f5565b91505092959194509250565b6000602082840312600181146157ba576157bf565b600080fd5b5060006157ce848285016153a4565b91505092915050565b600080604083850312600181146157ed576157f2565b600080fd5b506000615801858286016153e0565b9250506020615812858286016152f5565b9150509250929050565b60006020828403126001811461583157615836565b600080fd5b5060006158458482850161545a565b91505092915050565b60006101e0828403126001811461586457615869565b600080fd5b5060006158788482850161546e565b91505092915050565b6000602082840312600181146158965761589b565b600080fd5b5060006158aa848285016155d7565b91505092915050565b600080604083850312600181146158c9576158ce565b600080fd5b5060006158dd858286016155d7565b92505060206158ee858286016152f5565b9150509250929050565b61590181615d76565b82525050565b61591081615d5e565b61591982615d54565b60005b8281101561594b5761592f858351615970565b61593882615d69565b915060208501945060018101905061591c565b5050505050565b61595b81615d96565b82525050565b61596a81615da2565b82525050565b61597981615dce565b82525050565b61598881615dfa565b82525050565b61599781615ef1565b82525050565b6159a681615f03565b82525050565b6159b581615f15565b82525050565b6159c481615e04565b82525050565b60006020820190506159df60008301846158f8565b92915050565b60006040820190506159fa60008301856158f8565b615a0760208301846159bb565b9392505050565b600060c082019050615a236000830188615907565b615a3060408301876159bb565b615a3d60608301866158f8565b615a4a60808301856158f8565b615a5760a08301846159bb565b9695505050505050565b600060e082019050615a766000830189615907565b615a8360408301886159bb565b615a9060608301876158f8565b615a9d60808301866159bb565b615aaa60a08301856159bb565b615ab760c0830184615961565b979650505050505050565b6000602082019050615ad76000830184615952565b92915050565b6000602082019050615af2600083018461597f565b92915050565b6000604082019050615b0d600083018561597f565b615b1a60208301846158f8565b9392505050565b6000604082019050615b36600083018561597f565b615b43602083018461599d565b9392505050565b6000604082019050615b5f600083018561597f565b615b6c60208301846159ac565b9392505050565b6000604082019050615b88600083018561597f565b615b9560208301846159bb565b9392505050565b6000602082019050615bb1600083018461598e565b92915050565b6000602082019050615bcc60008301846159bb565b92915050565b6000608082019050615be760008301876159bb565b615bf460208301866158f8565b615c0160408301856159bb565b615c0e60608301846159bb565b95945050505050565b6000606082019050615c2c60008301856159bb565b615c396020830184615907565b9392505050565b6000604082019050615c5560008301856159bb565b615c626020830184615961565b9392505050565b6000604082019050615c7e60008301856159bb565b615c8b60208301846159bb565b9392505050565b600060c082019050615ca760008301896159bb565b615cb460208301886159bb565b615cc160408301876159bb565b615cce60608301866159bb565b615cdb60808301856159bb565b615ce860a08301846159bb565b979650505050505050565b6000604051905081810181811067ffffffffffffffff82111760018114615d1957615d1e565b600080fd5b508060405250919050565b600067ffffffffffffffff821160018114615d4357615d48565b600080fd5b50602082029050919050565b6000819050919050565b600060029050919050565b6000602082019050919050565b600073ffffffffffffffffffffffffffffffffffffffff82169050919050565b60008115159050919050565b60007fff0000000000000000000000000000000000000000000000000000000000000082169050919050565b60007fffffffffffffffffffffffffffffffffffffffffffffffffffffffff0000000082169050919050565b6000819050919050565b6000819050919050565b600073ffffffffffffffffffffffffffffffffffffffff82169050919050565b60008115159050919050565b60007fff0000000000000000000000000000000000000000000000000000000000000082169050919050565b60007fffffffffffffffffffffffffffffffff0000000000000000000000000000000082169050919050565b60007fffffffffffffffffffffffffffffffffffffffffffffffffffffffff0000000082169050919050565b6000819050919050565b6000615ed382615d76565b9050919050565b6000819050919050565b600060ff82169050919050565b6000615efc82615d76565b9050919050565b6000615f0e82615d76565b9050919050565b6000615f2082615e04565b90509190505600a265627a7a7230582053228273775e22b1acda85aa9c0cd98393e8cebd2af08dce9810cbb4e2fd6a2f6c6578706572696d656e74616cf50037",
  "source": "pragma solidity ^0.4.19;\npragma experimental ABIEncoderV2;\n\n/**\n * The CloversController is replaceable endpoint for minting and unminting Clovers.sol and ClubToken.sol\n */\n\nimport \"./Reversi.sol\";\nimport \"./IClovers.sol\";\nimport \"./helpers/IMintable.sol\";\nimport \"./ICloversController.sol\";\nimport \"zeppelin-solidity/contracts/ownership/HasNoTokens.sol\";\nimport \"zeppelin-solidity/contracts/ownership/HasNoEther.sol\";\nimport \"zeppelin-solidity/contracts/math/SafeMath.sol\";\n\n\ncontract CloversController is ICloversController, HasNoTokens, HasNoEther {\n    event cloverCommited(bytes32 movesHash, address owner);\n    event cloverClaimed(bytes28[2] moves, uint256 tokenId, address owner, uint stake, uint reward, bytes1 symmetries);\n    event stakeAndRewardRetrieved(uint256 tokenId, address owner, uint stake, uint reward);\n    event cloverChallenged(bytes28[2] moves, uint256 tokenId, address owner, address challenger, uint stake);\n\n    using SafeMath for uint256;\n\n    address clovers;\n    address clubToken;\n\n    uint256 payMultiplier;\n    uint256 stakeAmount;\n    uint256 stakePeriod;\n\n    function CloversController(address _clovers, address _clubToken) public {\n        clovers = _clovers;\n        clubToken = _clubToken;\n    }    \n\n    /**\n    * @dev Gets the current staking amount needed to claim a Clover.\n    * @return A uint256 value of how much stake is needed.\n    */\n    function currentStakeAmount() public constant returns (uint256) {\n        return stakeAmount;\n    }\n    /**\n    * @dev Gets the current staking period needed to verify a Clover.\n    * @return A uint256 value of stake period in seconds.\n    */\n    function currentStakePeriod() public constant returns (uint256) {\n        return stakePeriod;\n    }\n    /**\n    * @dev Gets the current staking period needed to verify a Clover.\n    * @return A uint256 value of stake period in seconds.\n    */\n    function getMultiplier() public constant returns (uint256) {\n        return payMultiplier;\n    }\n    /**\n    * @dev Gets the current staking period needed to verify a Clover.\n    * @return A uint256 value of stake period in seconds.\n    */\n    function getMovesHash(uint _tokenId) public constant returns (bytes32) {\n        return keccak256(IClovers(clovers).getCloverMoves(_tokenId));\n    }\n    /**\n    * @dev Checks whether the game is valid.\n    * @param moves The moves needed to play validate the game.\n    * @return A boolean representing whether or not the game is valid.\n    */\n    function isValid(bytes28[2] moves) public constant returns (bool) {\n        Reversi.Game memory game = Reversi.playGame(moves);\n        return isValidGame(game);\n    }\n    /**\n    * @dev Checks whether the game is valid.\n    * @param game The pre-played game.\n    * @return A boolean representing whether or not the game is valid.\n    */\n    function isValidGame(Reversi.Game game) public pure returns (bool) {\n        if (game.error) return false;\n        if (!game.complete) return false;\n        return true;\n    }\n    /**\n    * @dev Checks whether the game has passed the verification period.\n    * @param _tokenId The board being checked.\n    * @return A boolean representing whether or not the game has been verified.\n    */\n    function isVerified(uint256 _tokenId) public constant returns (bool) {\n        uint256 _blockMinted = IClovers(clovers).getBlockMinted(_tokenId);\n        if(_blockMinted == 0) return false;\n        // require(block.number > _blockMinted);\n        return (block.number - _blockMinted) > stakePeriod;\n    }\n    /**\n    * @dev Calculates the reward of the board.\n    * @param _symmetries symmetries saved as a bytes1 value like 00010101 where bits represent symmetry types.\n    * @return A uint256 representing the reward that would be returned for claiming the board.\n    */\n    function calculateReward(bytes1 _symmetries) public constant returns (uint256) {\n        uint256 Symmetricals;\n        uint256 RotSym;\n        uint256 Y0Sym;\n        uint256 X0Sym;\n        uint256 XYSym;\n        uint256 XnYSym;\n        (Symmetricals,\n        RotSym,\n        Y0Sym,\n        X0Sym,\n        XYSym,\n        XnYSym) = IClovers(clovers).getAllSymmetries();\n        uint256 base = 0;\n        if (_symmetries >> 4 & 1 == 1) base = base.add(payMultiplier.mul(Symmetricals + 1).div(RotSym + 1));\n        if (_symmetries >> 3 & 1 == 1) base = base.add(payMultiplier.mul(Symmetricals + 1).div(Y0Sym + 1));\n        if (_symmetries >> 2 & 1 == 1) base = base.add(payMultiplier.mul(Symmetricals + 1).div(X0Sym + 1));\n        if (_symmetries >> 1 & 1 == 1) base = base.add(payMultiplier.mul(Symmetricals + 1).div(XYSym + 1));\n        if (_symmetries & 1 == 1) base = base.add(payMultiplier.mul(Symmetricals + 1).div(XnYSym + 1));\n        return base;\n    }\n\n    /**\n    * @dev Claim the Clover without a commit or reveal.\n    * @param moves The moves that make up the Clover reversi game.\n    * @param _tokenId The board that results from the moves.\n    * @param _symmetries symmetries saved as a bytes1 value like 00010101 where bits represent symmetry types.\n    * @param _to The address claiming the Clover.\n    * @return A boolean representing whether or not the claim was successful.\n    */\n    function claimClover(bytes28[2] moves, uint256 _tokenId, bytes1 _symmetries, address _to) public payable returns (bool) {\n        require(moves[0] != 0);\n        require(msg.value == stakeAmount);\n        bytes32 movesHash = keccak256(moves);\n        IClovers(clovers).setCommit(movesHash, _to);\n        IClovers(clovers).setStake(movesHash, stakeAmount);\n        clovers.transfer(stakeAmount);\n        require(IClovers(clovers).getBlockMinted(_tokenId) == 0);\n        IClovers(clovers).setBlockMinted(_tokenId, block.number);\n        IClovers(clovers).setCloverMoves(_tokenId, moves);\n        if (_symmetries > 0) {\n            IClovers(clovers).setSymmetries(_tokenId, _symmetries);\n            uint256 reward = calculateReward(_symmetries);\n            IClovers(clovers).setReward(_tokenId, reward);\n        }\n        IClovers(clovers).mint(_to, _tokenId);\n        cloverClaimed(moves, _tokenId, _to, stakeAmount, reward, _symmetries);\n        return true;\n    }\n    /**\n    * @dev Commit the hash of the moves needed to claim the Clover. A stake should be made for counterfactual verification.\n    * @param movesHash The hash of the moves that makes up the Clover reversi game.\n    * @param _to The address claiming the Clover.\n    * @return A boolean representing whether or not the commit was successful.\n    */\n    function claimCloverCommit(bytes32 movesHash, address _to) public payable returns (bool) {\n        require(_to != 0);\n        require(msg.value == stakeAmount);\n        require(IClovers(clovers).getCommit(movesHash) == 0);\n        IClovers(clovers).setCommit(movesHash, _to);\n        IClovers(clovers).setStake(movesHash, stakeAmount);\n        clovers.transfer(stakeAmount);\n        cloverCommited(movesHash, _to);\n        return true;\n    }\n    /**\n    * @dev Reveal the solution to the previous commit to claim the Clover.\n    * @param moves The moves that make up the Clover reversi game.\n    * @param _tokenId The board that results from the moves.\n    * @param _symmetries symmetries saved as a bytes1 value like 00010101 where bits represent symmetry types.\n    * @return A boolean representing whether or not the reveal and claim was successful.\n    */\n    function claimCloverReveal(bytes28[2] moves, uint256 _tokenId, bytes1 _symmetries) public returns (bool) {\n        require(moves[0] != 0);\n        bytes32 movesHash = keccak256(moves);\n        address commiter = IClovers(clovers).getCommit(movesHash);\n        require(IClovers(clovers).getBlockMinted(_tokenId) == 0);\n        IClovers(clovers).setBlockMinted(_tokenId, block.number);\n        IClovers(clovers).setCloverMoves(_tokenId, moves);\n        if (_symmetries > 0) {\n            IClovers(clovers).setSymmetries(_tokenId, _symmetries);\n            uint256 reward = calculateReward(_symmetries);\n            IClovers(clovers).setReward(_tokenId, reward);\n        }\n        IClovers(clovers).mint(commiter, _tokenId);\n        uint256 stake = IClovers(clovers).getStake(movesHash);\n        cloverClaimed(moves, _tokenId, commiter, stake, reward, _symmetries);\n        return true;\n    }\n    /**\n    * @dev Retrieve the stake from a Clover claim after the stake period has ended.\n    * @param _tokenId The board which holds the stake.\n    * @return A boolean representing whether or not the retrieval was successful.\n    */\n    function retrieveStake(uint256 _tokenId) public returns (bool) {\n        bytes28[2] memory moves = IClovers(clovers).getCloverMoves(_tokenId);\n        require(moves[0] != 0);\n        bytes32 movesHash = keccak256(moves);\n        uint256 stake = IClovers(clovers).getStake(movesHash);\n        require(stake != 0);\n        require(isVerified(_tokenId));\n        IClovers(clovers).setStake(movesHash, 0);\n        addSymmetries(_tokenId);\n        address commiter = IClovers(clovers).getCommit(movesHash);\n        uint256 reward = IClovers(clovers).getReward(_tokenId);\n        require(IMintable(clubToken).mint(commiter, reward));\n        require(IClovers(clovers).moveEth(commiter, stake));\n        stakeAndRewardRetrieved(_tokenId, commiter, stake, reward);\n        return true;\n    }\n    /**\n    * @dev Challenge a staked Clover for being invalid.\n    * @param _tokenId The board being challenged.\n    * @param _to The address challenging the Clover.\n    * @return A boolean representing whether or not the challenge was successful.\n    */\n    function challengeClover(uint256 _tokenId, address _to) public returns (bool) {\n        bool valid = true;\n        bytes28[2] memory moves = IClovers(clovers).getCloverMoves(_tokenId);\n        require(moves[0] != 0);\n        Reversi.Game memory game = Reversi.playGame(moves);\n        if(isValidGame(game)) {\n            bytes1 _symmetries = IClovers(clovers).getSymmetries(_tokenId);\n\n            valid = (_symmetries >> 4 & 1) > 0 == game.RotSym ? valid : false;\n            valid = (_symmetries >> 3 & 1) > 0 == game.Y0Sym ? valid : false;\n            valid = (_symmetries >> 2 & 1) > 0 == game.X0Sym ? valid : false;\n            valid = (_symmetries >> 1 & 1) > 0 == game.XYSym ? valid : false;\n            valid = (_symmetries & 1) > 0 == game.XnYSym ? valid : false;\n\n        } else {\n            valid = false;\n        }\n        require(!valid);\n\n        IClovers(clovers).deleteClover(_tokenId);\n        bytes32 movesHash = keccak256(moves);\n        if (!isVerified(_tokenId)) {\n            uint256 stake = IClovers(clovers).getStake(movesHash);\n            IClovers(clovers).moveEth(_to, stake);\n        }\n        IClovers(clovers).unmint(_tokenId);\n        IClovers(clovers).setCommit(movesHash, 0);\n        IClovers(clovers).setStake(movesHash, 0);\n        removeSymmetries(_tokenId);\n\n        address commiter = IClovers(clovers).getCommit(movesHash);\n        cloverChallenged(moves, _tokenId, commiter, _to, stake);\n        return true;\n    }\n\n    /**\n    * @dev Updates the stake amount.\n    * @param _stakeAmount The new amount needed to stake.\n    */\n    function updateStakeAmount(uint256 _stakeAmount) public onlyOwner {\n        stakeAmount = _stakeAmount;\n    }\n    /**\n    * @dev Updates the stake period.\n    * @param _stakePeriod The uint256 value of time needed to stake before being verified.\n    */\n    function updateStakePeriod(uint256 _stakePeriod) public onlyOwner {\n        stakePeriod = _stakePeriod;\n    }\n    /**\n    * @dev Updates the pay multiplier, used to calculate token reward.\n    * @param _payMultiplier The uint256 value of pay multiplier.\n    */\n    function updatePayMultipier(uint256 _payMultiplier) public onlyOwner {\n        payMultiplier = _payMultiplier;\n    }\n    /**\n    * @dev Adds new tallys of the totals numbers of clover symmetries.\n    * @param _tokenId The token which needs to be examined.\n    */\n    function addSymmetries(uint256 _tokenId) private {\n        uint256 Symmetricals;\n        uint256 RotSym;\n        uint256 Y0Sym;\n        uint256 X0Sym;\n        uint256 XYSym;\n        uint256 XnYSym;\n        (Symmetricals,\n        RotSym,\n        Y0Sym,\n        X0Sym,\n        XYSym,\n        XnYSym) = IClovers(clovers).getAllSymmetries();\n        bytes1 _symmetries = IClovers(clovers).getSymmetries(_tokenId);\n        Symmetricals = Symmetricals.add(_symmetries > 0 ? 1 : 0);\n        RotSym = RotSym.add(uint256(_symmetries >> 4 & 1));\n        Y0Sym = Y0Sym.add(uint256(_symmetries >> 3 & 1));\n        X0Sym = X0Sym.add(uint256(_symmetries >> 2 & 1));\n        XYSym = XYSym.add(uint256(_symmetries >> 1 & 1));\n        XnYSym = XnYSym.add(uint256(_symmetries & 1));\n        IClovers(clovers).setAllSymmetries(Symmetricals, RotSym, Y0Sym, X0Sym, XYSym, XnYSym);\n    }\n    /**\n    * @dev Remove false tallys of the totals numbers of clover symmetries.\n    * @param _tokenId The token which needs to be examined.\n    */\n    function removeSymmetries(uint256 _tokenId) private {\n        uint256 Symmetricals;\n        uint256 RotSym;\n        uint256 Y0Sym;\n        uint256 X0Sym;\n        uint256 XYSym;\n        uint256 XnYSym;\n        (Symmetricals,\n        RotSym,\n        Y0Sym,\n        X0Sym,\n        XYSym,\n        XnYSym) = IClovers(clovers).getAllSymmetries();\n        bytes1 _symmetries = IClovers(clovers).getSymmetries(_tokenId);\n        Symmetricals = Symmetricals.sub(_symmetries > 0 ? 1 : 0);\n        RotSym = RotSym.sub(uint256(_symmetries >> 4 & 1));\n        Y0Sym = Y0Sym.sub(uint256(_symmetries >> 3 & 1));\n        X0Sym = X0Sym.sub(uint256(_symmetries >> 2 & 1));\n        XYSym = XYSym.sub(uint256(_symmetries >> 1 & 1));\n        XnYSym = XnYSym.sub(uint256(_symmetries & 1));\n        IClovers(clovers).setAllSymmetries(Symmetricals, RotSym, Y0Sym, X0Sym, XYSym, XnYSym);\n    }\n\n}",
  "sourcePath": "/Users/billy/sol/clovers-contracts/contracts/CloversController.sol",
  "compiler": {
    "name": "solc",
    "version": "0.4.19+commit.c4cbbb05.Emscripten.clang"
  },
  "schemaVersion": "1.0.1",
  "updatedAt": "2018-04-06T01:49:32.900Z"
}