{
  "contractName": "CloversController",
  "abi": [
    {
      "constant": true,
      "inputs": [],
      "name": "clovers",
      "outputs": [
        {
          "name": "",
          "type": "address"
        }
      ],
      "payable": false,
      "stateMutability": "view",
      "type": "function"
    },
    {
      "constant": false,
      "inputs": [
        {
          "name": "token",
          "type": "address"
        }
      ],
      "name": "reclaimToken",
      "outputs": [],
      "payable": false,
      "stateMutability": "nonpayable",
      "type": "function"
    },
    {
      "constant": true,
      "inputs": [],
      "name": "payMultiplier",
      "outputs": [
        {
          "name": "",
          "type": "uint256"
        }
      ],
      "payable": false,
      "stateMutability": "view",
      "type": "function"
    },
    {
      "constant": true,
      "inputs": [
        {
          "name": "",
          "type": "bytes32"
        }
      ],
      "name": "commits",
      "outputs": [
        {
          "name": "collected",
          "type": "bool"
        },
        {
          "name": "stake",
          "type": "uint256"
        },
        {
          "name": "committer",
          "type": "address"
        }
      ],
      "payable": false,
      "stateMutability": "view",
      "type": "function"
    },
    {
      "constant": true,
      "inputs": [],
      "name": "stakeAmount",
      "outputs": [
        {
          "name": "",
          "type": "uint256"
        }
      ],
      "payable": false,
      "stateMutability": "view",
      "type": "function"
    },
    {
      "constant": false,
      "inputs": [],
      "name": "renounceOwnership",
      "outputs": [],
      "payable": false,
      "stateMutability": "nonpayable",
      "type": "function"
    },
    {
      "constant": true,
      "inputs": [],
      "name": "curationMarket",
      "outputs": [
        {
          "name": "",
          "type": "address"
        }
      ],
      "payable": false,
      "stateMutability": "view",
      "type": "function"
    },
    {
      "constant": true,
      "inputs": [],
      "name": "oracle",
      "outputs": [
        {
          "name": "",
          "type": "address"
        }
      ],
      "payable": false,
      "stateMutability": "view",
      "type": "function"
    },
    {
      "constant": true,
      "inputs": [],
      "name": "owner",
      "outputs": [
        {
          "name": "",
          "type": "address"
        }
      ],
      "payable": false,
      "stateMutability": "view",
      "type": "function"
    },
    {
      "constant": true,
      "inputs": [],
      "name": "simpleCloversMarket",
      "outputs": [
        {
          "name": "",
          "type": "address"
        }
      ],
      "payable": false,
      "stateMutability": "view",
      "type": "function"
    },
    {
      "constant": false,
      "inputs": [],
      "name": "reclaimEther",
      "outputs": [],
      "payable": false,
      "stateMutability": "nonpayable",
      "type": "function"
    },
    {
      "constant": true,
      "inputs": [],
      "name": "clubTokenController",
      "outputs": [
        {
          "name": "",
          "type": "address"
        }
      ],
      "payable": false,
      "stateMutability": "view",
      "type": "function"
    },
    {
      "constant": false,
      "inputs": [
        {
          "name": "from_",
          "type": "address"
        },
        {
          "name": "value_",
          "type": "uint256"
        },
        {
          "name": "data_",
          "type": "bytes"
        }
      ],
      "name": "tokenFallback",
      "outputs": [],
      "payable": false,
      "stateMutability": "nonpayable",
      "type": "function"
    },
    {
      "constant": true,
      "inputs": [],
      "name": "stakePeriod",
      "outputs": [
        {
          "name": "",
          "type": "uint256"
        }
      ],
      "payable": false,
      "stateMutability": "view",
      "type": "function"
    },
    {
      "constant": true,
      "inputs": [],
      "name": "basePrice",
      "outputs": [
        {
          "name": "",
          "type": "uint256"
        }
      ],
      "payable": false,
      "stateMutability": "view",
      "type": "function"
    },
    {
      "constant": true,
      "inputs": [],
      "name": "priceMultiplier",
      "outputs": [
        {
          "name": "",
          "type": "uint256"
        }
      ],
      "payable": false,
      "stateMutability": "view",
      "type": "function"
    },
    {
      "constant": true,
      "inputs": [],
      "name": "clubToken",
      "outputs": [
        {
          "name": "",
          "type": "address"
        }
      ],
      "payable": false,
      "stateMutability": "view",
      "type": "function"
    },
    {
      "constant": false,
      "inputs": [
        {
          "name": "_newOwner",
          "type": "address"
        }
      ],
      "name": "transferOwnership",
      "outputs": [],
      "payable": false,
      "stateMutability": "nonpayable",
      "type": "function"
    },
    {
      "inputs": [
        {
          "name": "_clovers",
          "type": "address"
        },
        {
          "name": "_clubToken",
          "type": "address"
        },
        {
          "name": "_clubTokenController",
          "type": "address"
        }
      ],
      "payable": false,
      "stateMutability": "nonpayable",
      "type": "constructor"
    },
    {
      "payable": false,
      "stateMutability": "nonpayable",
      "type": "fallback"
    },
    {
      "anonymous": false,
      "inputs": [
        {
          "indexed": false,
          "name": "movesHash",
          "type": "bytes32"
        },
        {
          "indexed": false,
          "name": "owner",
          "type": "address"
        }
      ],
      "name": "cloverCommitted",
      "type": "event"
    },
    {
      "anonymous": false,
      "inputs": [
        {
          "indexed": false,
          "name": "moves",
          "type": "bytes28[2]"
        },
        {
          "indexed": false,
          "name": "tokenId",
          "type": "uint256"
        },
        {
          "indexed": false,
          "name": "owner",
          "type": "address"
        },
        {
          "indexed": false,
          "name": "stake",
          "type": "uint256"
        },
        {
          "indexed": false,
          "name": "reward",
          "type": "uint256"
        },
        {
          "indexed": false,
          "name": "symmetries",
          "type": "uint256"
        },
        {
          "indexed": false,
          "name": "keep",
          "type": "bool"
        }
      ],
      "name": "cloverClaimed",
      "type": "event"
    },
    {
      "anonymous": false,
      "inputs": [
        {
          "indexed": false,
          "name": "tokenId",
          "type": "uint256"
        },
        {
          "indexed": false,
          "name": "owner",
          "type": "address"
        },
        {
          "indexed": false,
          "name": "stake",
          "type": "uint256"
        }
      ],
      "name": "stakeRetrieved",
      "type": "event"
    },
    {
      "anonymous": false,
      "inputs": [
        {
          "indexed": false,
          "name": "moves",
          "type": "bytes28[2]"
        },
        {
          "indexed": false,
          "name": "tokenId",
          "type": "uint256"
        },
        {
          "indexed": false,
          "name": "owner",
          "type": "address"
        },
        {
          "indexed": false,
          "name": "challenger",
          "type": "address"
        },
        {
          "indexed": false,
          "name": "stake",
          "type": "uint256"
        }
      ],
      "name": "cloverChallenged",
      "type": "event"
    },
    {
      "anonymous": false,
      "inputs": [
        {
          "indexed": true,
          "name": "previousOwner",
          "type": "address"
        }
      ],
      "name": "OwnershipRenounced",
      "type": "event"
    },
    {
      "anonymous": false,
      "inputs": [
        {
          "indexed": true,
          "name": "previousOwner",
          "type": "address"
        },
        {
          "indexed": true,
          "name": "newOwner",
          "type": "address"
        }
      ],
      "name": "OwnershipTransferred",
      "type": "event"
    },
    {
      "constant": true,
      "inputs": [
        {
          "name": "movesHash",
          "type": "bytes32"
        }
      ],
      "name": "getStake",
      "outputs": [
        {
          "name": "",
          "type": "uint256"
        }
      ],
      "payable": false,
      "stateMutability": "view",
      "type": "function"
    },
    {
      "constant": true,
      "inputs": [
        {
          "name": "movesHash",
          "type": "bytes32"
        }
      ],
      "name": "getCommit",
      "outputs": [
        {
          "name": "",
          "type": "address"
        }
      ],
      "payable": false,
      "stateMutability": "view",
      "type": "function"
    },
    {
      "constant": true,
      "inputs": [
        {
          "name": "_tokenId",
          "type": "uint256"
        }
      ],
      "name": "getMovesHash",
      "outputs": [
        {
          "name": "",
          "type": "bytes32"
        }
      ],
      "payable": false,
      "stateMutability": "view",
      "type": "function"
    },
    {
      "constant": true,
      "inputs": [
        {
          "name": "moves",
          "type": "bytes28[2]"
        }
      ],
      "name": "isValid",
      "outputs": [
        {
          "name": "",
          "type": "bool"
        }
      ],
      "payable": false,
      "stateMutability": "view",
      "type": "function"
    },
    {
      "constant": true,
      "inputs": [
        {
          "components": [
            {
              "name": "error",
              "type": "bool"
            },
            {
              "name": "complete",
              "type": "bool"
            },
            {
              "name": "symmetrical",
              "type": "bool"
            },
            {
              "name": "RotSym",
              "type": "bool"
            },
            {
              "name": "Y0Sym",
              "type": "bool"
            },
            {
              "name": "X0Sym",
              "type": "bool"
            },
            {
              "name": "XYSym",
              "type": "bool"
            },
            {
              "name": "XnYSym",
              "type": "bool"
            },
            {
              "name": "board",
              "type": "bytes16"
            },
            {
              "name": "first32Moves",
              "type": "bytes28"
            },
            {
              "name": "lastMoves",
              "type": "bytes28"
            },
            {
              "name": "currentPlayer",
              "type": "uint8"
            },
            {
              "name": "moveKey",
              "type": "uint8"
            },
            {
              "name": "blackScore",
              "type": "uint8"
            },
            {
              "name": "whiteScore",
              "type": "uint8"
            }
          ],
          "name": "game",
          "type": "tuple"
        }
      ],
      "name": "isValidGame",
      "outputs": [
        {
          "name": "",
          "type": "bool"
        }
      ],
      "payable": false,
      "stateMutability": "pure",
      "type": "function"
    },
    {
      "constant": true,
      "inputs": [
        {
          "name": "_tokenId",
          "type": "uint256"
        }
      ],
      "name": "isVerified",
      "outputs": [
        {
          "name": "",
          "type": "bool"
        }
      ],
      "payable": false,
      "stateMutability": "view",
      "type": "function"
    },
    {
      "constant": true,
      "inputs": [
        {
          "name": "_symmetries",
          "type": "uint256"
        }
      ],
      "name": "calculateReward",
      "outputs": [
        {
          "name": "",
          "type": "uint256"
        }
      ],
      "payable": false,
      "stateMutability": "view",
      "type": "function"
    },
    {
      "constant": true,
      "inputs": [
        {
          "name": "_symmetries",
          "type": "uint256"
        }
      ],
      "name": "getPrice",
      "outputs": [
        {
          "name": "",
          "type": "uint256"
        }
      ],
      "payable": false,
      "stateMutability": "view",
      "type": "function"
    },
    {
      "constant": false,
      "inputs": [
        {
          "name": "moves",
          "type": "bytes28[2]"
        },
        {
          "name": "_tokenId",
          "type": "uint256"
        },
        {
          "name": "_symmetries",
          "type": "uint256"
        },
        {
          "name": "_keep",
          "type": "bool"
        }
      ],
      "name": "claimClover",
      "outputs": [
        {
          "name": "",
          "type": "bool"
        }
      ],
      "payable": true,
      "stateMutability": "payable",
      "type": "function"
    },
    {
      "constant": false,
      "inputs": [
        {
          "name": "_tokenId",
          "type": "uint256"
        }
      ],
      "name": "retrieveStake",
      "outputs": [
        {
          "name": "",
          "type": "bool"
        }
      ],
      "payable": true,
      "stateMutability": "payable",
      "type": "function"
    },
    {
      "constant": true,
      "inputs": [
        {
          "name": "_board",
          "type": "bytes16"
        }
      ],
      "name": "convertBytes16ToUint",
      "outputs": [
        {
          "name": "number",
          "type": "uint256"
        }
      ],
      "payable": false,
      "stateMutability": "view",
      "type": "function"
    },
    {
      "constant": false,
      "inputs": [
        {
          "name": "_tokenId",
          "type": "uint256"
        }
      ],
      "name": "challengeClover",
      "outputs": [
        {
          "name": "",
          "type": "bool"
        }
      ],
      "payable": false,
      "stateMutability": "nonpayable",
      "type": "function"
    },
    {
      "constant": false,
      "inputs": [
        {
          "name": "_from",
          "type": "address"
        },
        {
          "name": "_to",
          "type": "address"
        },
        {
          "name": "_tokenId",
          "type": "uint256"
        }
      ],
      "name": "transferFrom",
      "outputs": [],
      "payable": false,
      "stateMutability": "nonpayable",
      "type": "function"
    },
    {
      "constant": false,
      "inputs": [
        {
          "name": "_curationMarket",
          "type": "address"
        }
      ],
      "name": "updateCurationMarket",
      "outputs": [],
      "payable": false,
      "stateMutability": "nonpayable",
      "type": "function"
    },
    {
      "constant": false,
      "inputs": [
        {
          "name": "_oracle",
          "type": "address"
        }
      ],
      "name": "updateOracle",
      "outputs": [],
      "payable": false,
      "stateMutability": "nonpayable",
      "type": "function"
    },
    {
      "constant": false,
      "inputs": [
        {
          "name": "_simpleCloversMarket",
          "type": "address"
        }
      ],
      "name": "updateSimpleCloversMarket",
      "outputs": [],
      "payable": false,
      "stateMutability": "nonpayable",
      "type": "function"
    },
    {
      "constant": false,
      "inputs": [
        {
          "name": "_clubTokenController",
          "type": "address"
        }
      ],
      "name": "updateClubTokenController",
      "outputs": [],
      "payable": false,
      "stateMutability": "nonpayable",
      "type": "function"
    },
    {
      "constant": false,
      "inputs": [
        {
          "name": "_stakeAmount",
          "type": "uint256"
        }
      ],
      "name": "updateStakeAmount",
      "outputs": [],
      "payable": false,
      "stateMutability": "nonpayable",
      "type": "function"
    },
    {
      "constant": false,
      "inputs": [
        {
          "name": "_stakePeriod",
          "type": "uint256"
        }
      ],
      "name": "updateStakePeriod",
      "outputs": [],
      "payable": false,
      "stateMutability": "nonpayable",
      "type": "function"
    },
    {
      "constant": false,
      "inputs": [
        {
          "name": "_payMultiplier",
          "type": "uint256"
        }
      ],
      "name": "updatePayMultipier",
      "outputs": [],
      "payable": false,
      "stateMutability": "nonpayable",
      "type": "function"
    },
    {
      "constant": false,
      "inputs": [
        {
          "name": "_priceMultiplier",
          "type": "uint256"
        }
      ],
      "name": "updatePriceMultipier",
      "outputs": [],
      "payable": false,
      "stateMutability": "nonpayable",
      "type": "function"
    },
    {
      "constant": false,
      "inputs": [
        {
          "name": "_basePrice",
          "type": "uint256"
        }
      ],
      "name": "updateBasePrice",
      "outputs": [],
      "payable": false,
      "stateMutability": "nonpayable",
      "type": "function"
    },
    {
      "constant": false,
      "inputs": [
        {
          "name": "movesHash",
          "type": "bytes32"
        },
        {
          "name": "committer",
          "type": "address"
        }
      ],
      "name": "_setCommit",
      "outputs": [],
      "payable": false,
      "stateMutability": "nonpayable",
      "type": "function"
    }
  ],
  "bytecode": "0x60806040523480156200001157600080fd5b506040516060806200613a833981018060405262000033919081019062000165565b336000806101000a81548173ffffffffffffffffffffffffffffffffffffffff021916908373ffffffffffffffffffffffffffffffffffffffff1602179055506000341415156200008357600080fd5b82600260006101000a81548173ffffffffffffffffffffffffffffffffffffffff021916908373ffffffffffffffffffffffffffffffffffffffff16021790555081600360006101000a81548173ffffffffffffffffffffffffffffffffffffffff021916908373ffffffffffffffffffffffffffffffffffffffff16021790555080600460006101000a81548173ffffffffffffffffffffffffffffffffffffffff021916908373ffffffffffffffffffffffffffffffffffffffff160217905550505050620001db565b60006200015d8251620001bb565b905092915050565b6000806000606084860312156200017b57600080fd5b60006200018b868287016200014f565b93505060206200019e868287016200014f565b9250506040620001b1868287016200014f565b9150509250925092565b600073ffffffffffffffffffffffffffffffffffffffff82169050919050565b615f4f80620001eb6000396000f3006080604052600436106101f8576000357c0100000000000000000000000000000000000000000000000000000000900463ffffffff1680627173c8146102075780630d576bfa1461023057806317ffc3201461025b5780631cb44dfc1461028457806323b872dd146102ad578063271eff94146102d657806337b6d96b146103135780633afcba961461035057806343be08801461037b57806346d2ce20146103ab57806347885781146103d45780635759f3f71461041357806360c7dc471461043c578063715018a61461046757806372420f061461047e5780637b7db9fa146104a95780637dc0d1d0146104e65780638784ea96146105115780638a05aafa1461054e5780638da5cb5b146105775780639564e180146105a2578063975e4b2a146105cb5780639f727c27146105f6578063a4a83ca61461060d578063a7e901b01461064a578063a89b55da14610673578063c0ee0b8a1461069e578063c1699a99146106c7578063c1fe551a146106f2578063c7876ea414610722578063c90054ee1461074d578063d010ed7014610776578063d09687f71461079f578063d2d7231f146107dc578063d50cb88b14610819578063d76bbd5214610844578063e75722301461086f578063e765c122146108ac578063f2fde38b146108e9578063f8a68a5614610912578063fd5baa881461094f575b34801561020457600080fd5b50005b34801561021357600080fd5b5061022e6004803603610229919081019061562f565b610978565b005b34801561023c57600080fd5b50610245610a17565b6040516102529190615a52565b60405180910390f35b34801561026757600080fd5b50610282600480360361027d919081019061587f565b610a3d565b005b34801561029057600080fd5b506102ab60048036036102a6919081019061562f565b610b93565b005b3480156102b957600080fd5b506102d460048036036102cf9190810190615658565b610c32565b005b3480156102e257600080fd5b506102fd60048036036102f89190810190615713565b610d98565b60405161030a9190615b90565b60405180910390f35b34801561031f57600080fd5b5061033a600480360361033591908101906158d2565b610dbe565b6040516103479190615b90565b60405180910390f35b34801561035c57600080fd5b50610365610ebe565b6040516103729190615c41565b60405180910390f35b61039560048036036103909190810190615765565b610ec4565b6040516103a29190615b90565b60405180910390f35b3480156103b757600080fd5b506103d260048036036103cd9190810190615843565b611954565b005b3480156103e057600080fd5b506103fb60048036036103f6919081019061581a565b6119bd565b60405161040a93929190615bab565b60405180910390f35b34801561041f57600080fd5b5061043a600480360361043591908101906158d2565b611a14565b005b34801561044857600080fd5b50610451611a79565b60405161045e9190615c41565b60405180910390f35b34801561047357600080fd5b5061047c611a7f565b005b34801561048a57600080fd5b50610493611b81565b6040516104a09190615a52565b60405180910390f35b3480156104b557600080fd5b506104d060048036036104cb91908101906158d2565b611ba7565b6040516104dd9190615b90565b60405180910390f35b3480156104f257600080fd5b506104fb612176565b6040516105089190615a52565b60405180910390f35b34801561051d57600080fd5b506105386004803603610533919081019061581a565b61219c565b6040516105459190615a52565b60405180910390f35b34801561055a57600080fd5b50610575600480360361057091908101906158d2565b6121e4565b005b34801561058357600080fd5b5061058c612249565b6040516105999190615a52565b60405180910390f35b3480156105ae57600080fd5b506105c960048036036105c4919081019061562f565b61226e565b005b3480156105d757600080fd5b506105e061230d565b6040516105ed9190615a52565b60405180910390f35b34801561060257600080fd5b5061060b612333565b005b34801561061957600080fd5b50610634600480360361062f91908101906157f1565b61240f565b6040516106419190615c41565b60405180910390f35b34801561065657600080fd5b50610671600480360361066c91908101906158d2565b61249f565b005b34801561067f57600080fd5b50610688612504565b6040516106959190615a52565b60405180910390f35b3480156106aa57600080fd5b506106c560048036036106c091908101906156a7565b61252a565b005b3480156106d357600080fd5b506106dc61252f565b6040516106e99190615c41565b60405180910390f35b61070c600480360361070791908101906158d2565b612535565b6040516107199190615b90565b60405180910390f35b34801561072e57600080fd5b50610737612dae565b6040516107449190615c41565b60405180910390f35b34801561075957600080fd5b50610774600480360361076f91908101906158d2565b612db4565b005b34801561078257600080fd5b5061079d6004803603610798919081019061562f565b612e19565b005b3480156107ab57600080fd5b506107c660048036036107c191908101906158d2565b612eb8565b6040516107d39190615be2565b60405180910390f35b3480156107e857600080fd5b5061080360048036036107fe91908101906158d2565b612fc6565b6040516108109190615c41565b60405180910390f35b34801561082557600080fd5b5061082e61325c565b60405161083b9190615c41565b60405180910390f35b34801561085057600080fd5b50610859613262565b6040516108669190615a52565b60405180910390f35b34801561087b57600080fd5b50610896600480360361089191908101906158d2565b613288565b6040516108a39190615c41565b60405180910390f35b3480156108b857600080fd5b506108d360048036036108ce919081019061581a565b6132ae565b6040516108e09190615c41565b60405180910390f35b3480156108f557600080fd5b50610910600480360361090b919081019061562f565b6132d6565b005b34801561091e57600080fd5b50610939600480360361093491908101906158a8565b61333d565b6040516109469190615b90565b60405180910390f35b34801561095b57600080fd5b50610976600480360361097191908101906158d2565b613370565b005b6000809054906101000a900473ffffffffffffffffffffffffffffffffffffffff1673ffffffffffffffffffffffffffffffffffffffff163373ffffffffffffffffffffffffffffffffffffffff161415156109d357600080fd5b80600660006101000a81548173ffffffffffffffffffffffffffffffffffffffff021916908373ffffffffffffffffffffffffffffffffffffffff16021790555050565b600260009054906101000a900473ffffffffffffffffffffffffffffffffffffffff1681565b60008060009054906101000a900473ffffffffffffffffffffffffffffffffffffffff1673ffffffffffffffffffffffffffffffffffffffff163373ffffffffffffffffffffffffffffffffffffffff16141515610a9a57600080fd5b8173ffffffffffffffffffffffffffffffffffffffff166370a08231306040518263ffffffff167c0100000000000000000000000000000000000000000000000000000000028152600401610aef9190615c26565b602060405180830381600087803b158015610b0957600080fd5b505af1158015610b1d573d6000803e3d6000fd5b505050506040513d601f19601f82011682018060405250610b4191908101906158fb565b9050610b8f6000809054906101000a900473ffffffffffffffffffffffffffffffffffffffff16828473ffffffffffffffffffffffffffffffffffffffff166133d59092919063ffffffff16565b5050565b6000809054906101000a900473ffffffffffffffffffffffffffffffffffffffff1673ffffffffffffffffffffffffffffffffffffffff163373ffffffffffffffffffffffffffffffffffffffff16141515610bee57600080fd5b80600160006101000a81548173ffffffffffffffffffffffffffffffffffffffff021916908373ffffffffffffffffffffffffffffffffffffffff16021790555050565b600560009054906101000a900473ffffffffffffffffffffffffffffffffffffffff1673ffffffffffffffffffffffffffffffffffffffff163373ffffffffffffffffffffffffffffffffffffffff161480610cdb5750600660009054906101000a900473ffffffffffffffffffffffffffffffffffffffff1673ffffffffffffffffffffffffffffffffffffffff163373ffffffffffffffffffffffffffffffffffffffff16145b1515610ce657600080fd5b600260009054906101000a900473ffffffffffffffffffffffffffffffffffffffff1673ffffffffffffffffffffffffffffffffffffffff166323b872dd8484846040518463ffffffff167c0100000000000000000000000000000000000000000000000000000000028152600401610d6193929190615a6d565b600060405180830381600087803b158015610d7b57600080fd5b505af1158015610d8f573d6000803e3d6000fd5b50505050505050565b6000610da26150ff565b610dab8361348e565b9050610db68161333d565b915050919050565b600080600260009054906101000a900473ffffffffffffffffffffffffffffffffffffffff1673ffffffffffffffffffffffffffffffffffffffff166303a53d6b846040518263ffffffff167c0100000000000000000000000000000000000000000000000000000000028152600401610e389190615c41565b602060405180830381600087803b158015610e5257600080fd5b505af1158015610e66573d6000803e3d6000fd5b505050506040513d601f19601f82011682018060405250610e8a91908101906158fb565b90506000811415610e9e5760009150610eb8565b600b54610eb482436137d290919063ffffffff16565b1191505b50919050565b60095481565b6000806000807f1c3b3e1e72950ae52150ec48810521d17cea4b30c2a59c807d1ba2f8dff57e658888338a8b8b8b604051610f059796959493929190615b20565b60405180910390a1876040518082600260200280838360005b83811015610f39578082015181840152602081019050610f1e565b5050505090500191505060405180910390209250600a543410151515610f5e57600080fd5b6000610f698461219c565b73ffffffffffffffffffffffffffffffffffffffff16141515610f8b57600080fd5b610f9583336137eb565b6000600a54111561101857610fac83600a5461384c565b600260009054906101000a900473ffffffffffffffffffffffffffffffffffffffff1673ffffffffffffffffffffffffffffffffffffffff166108fc600a549081150290604051600060405180830381858888f19350505050158015611016573d6000803e3d6000fd5b505b7f4c0f83654ac2972673e4d81058f833de298389df1dce04cc2db9f231b907d5ff8333604051611049929190615bfd565b60405180910390a1600260009054906101000a900473ffffffffffffffffffffffffffffffffffffffff1673ffffffffffffffffffffffffffffffffffffffff16634f558e79886040518263ffffffff167c01000000000000000000000000000000000000000000000000000000000281526004016110c89190615c41565b602060405180830381600087803b1580156110e257600080fd5b505af11580156110f6573d6000803e3d6000fd5b505050506040513d601f19601f8201168201806040525061111a91908101906157c8565b15151561112657600080fd5b6000600260009054906101000a900473ffffffffffffffffffffffffffffffffffffffff1673ffffffffffffffffffffffffffffffffffffffff166303a53d6b896040518263ffffffff167c010000000000000000000000000000000000000000000000000000000002815260040161119f9190615c41565b602060405180830381600087803b1580156111b957600080fd5b505af11580156111cd573d6000803e3d6000fd5b505050506040513d601f19601f820116820180604052506111f191908101906158fb565b1415156111fd57600080fd5b600260009054906101000a900473ffffffffffffffffffffffffffffffffffffffff1673ffffffffffffffffffffffffffffffffffffffff1663e3100d1e88436040518363ffffffff167c0100000000000000000000000000000000000000000000000000000000028152600401611276929190615ce5565b600060405180830381600087803b15801561129057600080fd5b505af11580156112a4573d6000803e3d6000fd5b50505050600260009054906101000a900473ffffffffffffffffffffffffffffffffffffffff1673ffffffffffffffffffffffffffffffffffffffff16630b628395888a6040518363ffffffff167c0100000000000000000000000000000000000000000000000000000000028152600401611321929190615c93565b600060405180830381600087803b15801561133b57600080fd5b505af115801561134f573d6000803e3d6000fd5b50505050600260009054906101000a900473ffffffffffffffffffffffffffffffffffffffff1673ffffffffffffffffffffffffffffffffffffffff166376e4a87f88876040518363ffffffff167c01000000000000000000000000000000000000000000000000000000000281526004016113cc929190615cbc565b600060405180830381600087803b1580156113e657600080fd5b505af11580156113fa573d6000803e3d6000fd5b50505050600086111561156957600260009054906101000a900473ffffffffffffffffffffffffffffffffffffffff1673ffffffffffffffffffffffffffffffffffffffff1663dc3f775888886040518363ffffffff167c0100000000000000000000000000000000000000000000000000000000028152600401611480929190615ce5565b600060405180830381600087803b15801561149a57600080fd5b505af11580156114ae573d6000803e3d6000fd5b505050506114bb86612fc6565b9150600260009054906101000a900473ffffffffffffffffffffffffffffffffffffffff1673ffffffffffffffffffffffffffffffffffffffff1663a47bd49688846040518363ffffffff167c0100000000000000000000000000000000000000000000000000000000028152600401611536929190615ce5565b600060405180830381600087803b15801561155057600080fd5b505af1158015611564573d6000803e3d6000fd5b505050505b61157e8260075461387390919063ffffffff16565b905084801561158d5750600081115b156118335780600360009054906101000a900473ffffffffffffffffffffffffffffffffffffffff1673ffffffffffffffffffffffffffffffffffffffff166370a08231336040518263ffffffff167c010000000000000000000000000000000000000000000000000000000002815260040161160a9190615a52565b602060405180830381600087803b15801561162457600080fd5b505af1158015611638573d6000803e3d6000fd5b505050506040513d601f19601f8201168201806040525061165c91908101906158fb565b101561174257600460009054906101000a900473ffffffffffffffffffffffffffffffffffffffff1673ffffffffffffffffffffffffffffffffffffffff1663f088d5476116b5600a54346137d290919063ffffffff16565b336040518363ffffffff167c01000000000000000000000000000000000000000000000000000000000281526004016116ee9190615a52565b6020604051808303818588803b15801561170757600080fd5b505af115801561171b573d6000803e3d6000fd5b50505050506040513d601f19601f8201168201806040525061174091908101906157c8565b505b600360009054906101000a900473ffffffffffffffffffffffffffffffffffffffff1673ffffffffffffffffffffffffffffffffffffffff166323b872dd33600260009054906101000a900473ffffffffffffffffffffffffffffffffffffffff16846040518463ffffffff167c01000000000000000000000000000000000000000000000000000000000281526004016117df93929190615a6d565b602060405180830381600087803b1580156117f957600080fd5b505af115801561180d573d6000803e3d6000fd5b505050506040513d601f19601f8201168201806040525061183191908101906157c8565b505b600260009054906101000a900473ffffffffffffffffffffffffffffffffffffffff1673ffffffffffffffffffffffffffffffffffffffff166340c10f19600260009054906101000a900473ffffffffffffffffffffffffffffffffffffffff16896040518363ffffffff167c01000000000000000000000000000000000000000000000000000000000281526004016118ce929190615aa4565b600060405180830381600087803b1580156118e857600080fd5b505af11580156118fc573d6000803e3d6000fd5b505050507f1c3b3e1e72950ae52150ec48810521d17cea4b30c2a59c807d1ba2f8dff57e65888833600a54868b8b60405161193d9796959493929190615b20565b60405180910390a160019350505050949350505050565b6000809054906101000a900473ffffffffffffffffffffffffffffffffffffffff1673ffffffffffffffffffffffffffffffffffffffff163373ffffffffffffffffffffffffffffffffffffffff161415156119af57600080fd5b6119b982826137eb565b5050565b600c6020528060005260406000206000915090508060000160009054906101000a900460ff16908060010154908060020160009054906101000a900473ffffffffffffffffffffffffffffffffffffffff16905083565b6000809054906101000a900473ffffffffffffffffffffffffffffffffffffffff1673ffffffffffffffffffffffffffffffffffffffff163373ffffffffffffffffffffffffffffffffffffffff16141515611a6f57600080fd5b80600b8190555050565b600a5481565b6000809054906101000a900473ffffffffffffffffffffffffffffffffffffffff1673ffffffffffffffffffffffffffffffffffffffff163373ffffffffffffffffffffffffffffffffffffffff16141515611ada57600080fd5b6000809054906101000a900473ffffffffffffffffffffffffffffffffffffffff1673ffffffffffffffffffffffffffffffffffffffff167ff8df31144d9c2f0f6b59d69b8b98abd5459d07f2742c4df920b25aae33c6482060405160405180910390a260008060006101000a81548173ffffffffffffffffffffffffffffffffffffffff021916908373ffffffffffffffffffffffffffffffffffffffff160217905550565b600660009054906101000a900473ffffffffffffffffffffffffffffffffffffffff1681565b600080611bb26151b3565b611bba6150ff565b60008060008060019650600260009054906101000a900473ffffffffffffffffffffffffffffffffffffffff1673ffffffffffffffffffffffffffffffffffffffff166362f9acf98a6040518263ffffffff167c0100000000000000000000000000000000000000000000000000000000028152600401611c3b9190615c41565b6040805180830381600087803b158015611c5457600080fd5b505af1158015611c68573d6000803e3d6000fd5b505050506040513d601f19601f82011682018060405250611c8c919081019061573c565b95506000809054906101000a900473ffffffffffffffffffffffffffffffffffffffff1673ffffffffffffffffffffffffffffffffffffffff163373ffffffffffffffffffffffffffffffffffffffff1614158015611d395750600160009054906101000a900473ffffffffffffffffffffffffffffffffffffffff1673ffffffffffffffffffffffffffffffffffffffff163373ffffffffffffffffffffffffffffffffffffffff1614155b15611f1d57611d478661348e565b945088611d5886610100015161240f565b141515611d6457600096505b868015611d765750611d758561333d565b5b15611f0a57600260009054906101000a900473ffffffffffffffffffffffffffffffffffffffff1673ffffffffffffffffffffffffffffffffffffffff1663c53b4bf98a6040518263ffffffff167c0100000000000000000000000000000000000000000000000000000000028152600401611df29190615c41565b602060405180830381600087803b158015611e0c57600080fd5b505af1158015611e20573d6000803e3d6000fd5b505050506040513d601f19601f82011682018060405250611e4491908101906158fb565b935084606001511515600060016004879060020a90041611151514611e6a576000611e6c565b865b965084608001511515600060016003879060020a90041611151514611e92576000611e94565b865b96508460a001511515600060016002879060020a90041611151514611eba576000611ebc565b865b96508460c0015115156000600180879060020a90041611151514611ee1576000611ee3565b865b96508460e00151151560006001861611151514611f01576000611f03565b865b9650611f0f565b600096505b86151515611f1c57600080fd5b5b856040518082600260200280838360005b83811015611f49578082015181840152602081019050611f2e565b5050505090500191505060405180910390209250611f66836132ae565b9150611f7189610dbe565b158015611f7e5750600082115b1561202f57600260009054906101000a900473ffffffffffffffffffffffffffffffffffffffff1673ffffffffffffffffffffffffffffffffffffffff16631cc1472d33846040518363ffffffff167c0100000000000000000000000000000000000000000000000000000000028152600401611ffc929190615aa4565b600060405180830381600087803b15801561201657600080fd5b505af115801561202a573d6000803e3d6000fd5b505050505b600c6000846000191660001916815260200190815260200160002060000160009054906101000a900460ff161561206a576120698961388f565b5b6120738361219c565b90507f23e709ab80a4bee9454ba0d08c0b669d684531b4ec766524c43abd788cc3ca76868a8333866040516120ac959493929190615acd565b60405180910390a1600260009054906101000a900473ffffffffffffffffffffffffffffffffffffffff1673ffffffffffffffffffffffffffffffffffffffff16630e8310d68a6040518263ffffffff167c010000000000000000000000000000000000000000000000000000000002815260040161212b9190615c41565b600060405180830381600087803b15801561214557600080fd5b505af1158015612159573d6000803e3d6000fd5b5050505061216683613bb8565b6001975050505050505050919050565b600160009054906101000a900473ffffffffffffffffffffffffffffffffffffffff1681565b6000600c6000836000191660001916815260200190815260200160002060020160009054906101000a900473ffffffffffffffffffffffffffffffffffffffff169050919050565b6000809054906101000a900473ffffffffffffffffffffffffffffffffffffffff1673ffffffffffffffffffffffffffffffffffffffff163373ffffffffffffffffffffffffffffffffffffffff1614151561223f57600080fd5b8060098190555050565b6000809054906101000a900473ffffffffffffffffffffffffffffffffffffffff1681565b6000809054906101000a900473ffffffffffffffffffffffffffffffffffffffff1673ffffffffffffffffffffffffffffffffffffffff163373ffffffffffffffffffffffffffffffffffffffff161415156122c957600080fd5b80600460006101000a81548173ffffffffffffffffffffffffffffffffffffffff021916908373ffffffffffffffffffffffffffffffffffffffff16021790555050565b600560009054906101000a900473ffffffffffffffffffffffffffffffffffffffff1681565b6000809054906101000a900473ffffffffffffffffffffffffffffffffffffffff1673ffffffffffffffffffffffffffffffffffffffff163373ffffffffffffffffffffffffffffffffffffffff1614151561238e57600080fd5b6000809054906101000a900473ffffffffffffffffffffffffffffffffffffffff1673ffffffffffffffffffffffffffffffffffffffff166108fc3073ffffffffffffffffffffffffffffffffffffffff16319081150290604051600060405180830381858888f1935050505015801561240c573d6000803e3d6000fd5b50565b600080600090505b601060ff168110156124995760018101601060ff160360080260020a838260108110151561244157fe5b1a7f0100000000000000000000000000000000000000000000000000000000000000027f0100000000000000000000000000000000000000000000000000000000000000900402820191508080600101915050612417565b50919050565b6000809054906101000a900473ffffffffffffffffffffffffffffffffffffffff1673ffffffffffffffffffffffffffffffffffffffff163373ffffffffffffffffffffffffffffffffffffffff161415156124fa57600080fd5b8060088190555050565b600460009054906101000a900473ffffffffffffffffffffffffffffffffffffffff1681565b600080fd5b600b5481565b600061253f6151b3565b6000806000806000600260009054906101000a900473ffffffffffffffffffffffffffffffffffffffff1673ffffffffffffffffffffffffffffffffffffffff166362f9acf9896040518263ffffffff167c01000000000000000000000000000000000000000000000000000000000281526004016125be9190615c41565b6040805180830381600087803b1580156125d757600080fd5b505af11580156125eb573d6000803e3d6000fd5b505050506040513d601f19601f8201168201806040525061260f919081019061573c565b9550856040518082600260200280838360005b8381101561263d578082015181840152602081019050612622565b5050505090500191505060405180910390209450600c6000866000191660001916815260200190815260200160002060000160009054906101000a900460ff1615151561268957600080fd5b6001600c6000876000191660001916815260200190815260200160002060000160006101000a81548160ff0219169083151502179055506126c988610dbe565b8061272057506000809054906101000a900473ffffffffffffffffffffffffffffffffffffffff1673ffffffffffffffffffffffffffffffffffffffff163373ffffffffffffffffffffffffffffffffffffffff16145b806127785750600160009054906101000a900473ffffffffffffffffffffffffffffffffffffffff1673ffffffffffffffffffffffffffffffffffffffff163373ffffffffffffffffffffffffffffffffffffffff16145b151561278357600080fd5b61278c856132ae565b935061279788613c1c565b6127a08561219c565b92503373ffffffffffffffffffffffffffffffffffffffff168373ffffffffffffffffffffffffffffffffffffffff16148061282857506000809054906101000a900473ffffffffffffffffffffffffffffffffffffffff1673ffffffffffffffffffffffffffffffffffffffff163373ffffffffffffffffffffffffffffffffffffffff16145b806128805750600160009054906101000a900473ffffffffffffffffffffffffffffffffffffffff1673ffffffffffffffffffffffffffffffffffffffff163373ffffffffffffffffffffffffffffffffffffffff16145b151561288b57600080fd5b600260009054906101000a900473ffffffffffffffffffffffffffffffffffffffff1673ffffffffffffffffffffffffffffffffffffffff16631c4b774b896040518263ffffffff167c01000000000000000000000000000000000000000000000000000000000281526004016129029190615c41565b602060405180830381600087803b15801561291c57600080fd5b505af1158015612930573d6000803e3d6000fd5b505050506040513d601f19601f8201168201806040525061295491908101906158fb565b9150600260009054906101000a900473ffffffffffffffffffffffffffffffffffffffff1673ffffffffffffffffffffffffffffffffffffffff166304952631896040518263ffffffff167c01000000000000000000000000000000000000000000000000000000000281526004016129cd9190615c41565b602060405180830381600087803b1580156129e757600080fd5b505af11580156129fb573d6000803e3d6000fd5b505050506040513d601f19601f82011682018060405250612a1f91908101906157c8565b90508015612afb57600260009054906101000a900473ffffffffffffffffffffffffffffffffffffffff1673ffffffffffffffffffffffffffffffffffffffff166323b872dd600260009054906101000a900473ffffffffffffffffffffffffffffffffffffffff16858b6040518463ffffffff167c0100000000000000000000000000000000000000000000000000000000028152600401612ac493929190615a6d565b600060405180830381600087803b158015612ade57600080fd5b505af1158015612af2573d6000803e3d6000fd5b50505050612caf565b600560009054906101000a900473ffffffffffffffffffffffffffffffffffffffff1673ffffffffffffffffffffffffffffffffffffffff1663d79875eb89612b63612b5260085487613f4590919063ffffffff16565b60075461387390919063ffffffff16565b6040518363ffffffff167c0100000000000000000000000000000000000000000000000000000000028152600401612b9c929190615ce5565b600060405180830381600087803b158015612bb657600080fd5b505af1158015612bca573d6000803e3d6000fd5b505050506000821115612cae57600360009054906101000a900473ffffffffffffffffffffffffffffffffffffffff1673ffffffffffffffffffffffffffffffffffffffff166340c10f1984846040518363ffffffff167c0100000000000000000000000000000000000000000000000000000000028152600401612c50929190615aa4565b602060405180830381600087803b158015612c6a57600080fd5b505af1158015612c7e573d6000803e3d6000fd5b505050506040513d601f19601f82011682018060405250612ca291908101906157c8565b1515612cad57600080fd5b5b5b6000841115612d6457600260009054906101000a900473ffffffffffffffffffffffffffffffffffffffff1673ffffffffffffffffffffffffffffffffffffffff16631cc1472d33866040518363ffffffff167c0100000000000000000000000000000000000000000000000000000000028152600401612d31929190615aa4565b600060405180830381600087803b158015612d4b57600080fd5b505af1158015612d5f573d6000803e3d6000fd5b505050505b7fa8a1a24efbea93a5c7f29342ba7652cd030828e12cc15c1416480fecee73d589883386604051612d9793929190615c5c565b60405180910390a160019650505050505050919050565b60075481565b6000809054906101000a900473ffffffffffffffffffffffffffffffffffffffff1673ffffffffffffffffffffffffffffffffffffffff163373ffffffffffffffffffffffffffffffffffffffff16141515612e0f57600080fd5b80600a8190555050565b6000809054906101000a900473ffffffffffffffffffffffffffffffffffffffff1673ffffffffffffffffffffffffffffffffffffffff163373ffffffffffffffffffffffffffffffffffffffff16141515612e7457600080fd5b80600560006101000a81548173ffffffffffffffffffffffffffffffffffffffff021916908373ffffffffffffffffffffffffffffffffffffffff16021790555050565b6000600260009054906101000a900473ffffffffffffffffffffffffffffffffffffffff1673ffffffffffffffffffffffffffffffffffffffff166362f9acf9836040518263ffffffff167c0100000000000000000000000000000000000000000000000000000000028152600401612f319190615c41565b6040805180830381600087803b158015612f4a57600080fd5b505af1158015612f5e573d6000803e3d6000fd5b505050506040513d601f19601f82011682018060405250612f82919081019061573c565b6040518082600260200280838360005b83811015612fad578082015181840152602081019050612f92565b5050505090500191505060405180910390209050919050565b600080600080600080600080600260009054906101000a900473ffffffffffffffffffffffffffffffffffffffff1673ffffffffffffffffffffffffffffffffffffffff1663785d8d716040518163ffffffff167c010000000000000000000000000000000000000000000000000000000002815260040160c060405180830381600087803b15801561305857600080fd5b505af115801561306c573d6000803e3d6000fd5b505050506040513d601f19601f820116820180604052506130909190810190615924565b809750819850829950839a50849b50859c505050505050506000905060018060048b9060020a9004161415613101576130fe6130ef600188016130e160018b01600954613f4590919063ffffffff16565b613f7d90919063ffffffff16565b8261387390919063ffffffff16565b90505b60018060038b9060020a9004161415613156576131536131446001870161313660018b01600954613f4590919063ffffffff16565b613f7d90919063ffffffff16565b8261387390919063ffffffff16565b90505b60018060028b9060020a90041614156131ab576131a86131996001860161318b60018b01600954613f4590919063ffffffff16565b613f7d90919063ffffffff16565b8261387390919063ffffffff16565b90505b60018060018b9060020a9004161415613200576131fd6131ee600185016131e060018b01600954613f4590919063ffffffff16565b613f7d90919063ffffffff16565b8261387390919063ffffffff16565b90505b6001808a16141561324d5761324a61323b6001840161322d60018b01600954613f4590919063ffffffff16565b613f7d90919063ffffffff16565b8261387390919063ffffffff16565b90505b80975050505050505050919050565b60085481565b600360009054906101000a900473ffffffffffffffffffffffffffffffffffffffff1681565b60006132a761329683612fc6565b60075461387390919063ffffffff16565b9050919050565b6000600c60008360001916600019168152602001908152602001600020600101549050919050565b6000809054906101000a900473ffffffffffffffffffffffffffffffffffffffff1673ffffffffffffffffffffffffffffffffffffffff163373ffffffffffffffffffffffffffffffffffffffff1614151561333157600080fd5b61333a81613f93565b50565b6000816000015115613352576000905061336b565b81602001511515613366576000905061336b565b600190505b919050565b6000809054906101000a900473ffffffffffffffffffffffffffffffffffffffff1673ffffffffffffffffffffffffffffffffffffffff163373ffffffffffffffffffffffffffffffffffffffff161415156133cb57600080fd5b8060078190555050565b8273ffffffffffffffffffffffffffffffffffffffff1663a9059cbb83836040518363ffffffff167c010000000000000000000000000000000000000000000000000000000002815260040161342c929190615aa4565b602060405180830381600087803b15801561344657600080fd5b505af115801561345a573d6000803e3d6000fd5b505050506040513d601f19601f8201168201806040525061347e91908101906157c8565b151561348957600080fd5b505050565b6134966150ff565b61349e6150ff565b6000806000806000808860006002811015156134b657fe5b602002015187610120019063ffffffff1916908163ffffffff1916815250508860016002811015156134e457fe5b602002015187610140019063ffffffff1916908163ffffffff191681525050600087610180019060ff16908160ff16815250506002876101a0019060ff16908160ff16815250506002876101c0019060ff16908160ff168152505060008760000190151590811515815250506000876020019015159081151581525050600187610160019060ff16908160ff16815250506ffffffffffffffe7ffdbfffffffffffff700100000000000000000000000000000000028761010001906fffffffffffffffffffffffffffffffff191690816fffffffffffffffffffffffffffffffff191681525050600091505b603c8260ff161080156135e1575085155b1561379057602087610180015160ff161061360157866101400151613608565b8661012001515b905061362a81602089610180015160ff1681151561362257fe5b06602061408d565b9450613635856140d1565b809450819550505061364685614110565b15955060008260ff1614801561366f575060028460ff1614158061366e575060038360ff1614155b5b1561368a576001955060018760000190151590811515815250505b8515801561369b575060088460ff16105b80156136aa575060088360ff16105b80156136ba575060008460ff1610155b80156136ca575060008360ff1610155b15613783576136da878585614121565b965060018761018001510187610180019060ff16908160ff1681525050866000015115613782576000876000019015159081151581525050600160ff1687610160015160ff16141561373f57600287610160019060ff16908160ff1681525050613754565b600187610160019060ff16908160ff16815250505b61375f878585614121565b9650866000015115613781576001876000019015159081151581525050600195505b5b5b81806001019250506135d0565b866000015115156137c35760008760000190151590811515815250506137b587614423565b96506137c087614762565b96505b86975050505050505050919050565b60008282111515156137e057fe5b818303905092915050565b80600c6000846000191660001916815260200190815260200160002060020160006101000a81548173ffffffffffffffffffffffffffffffffffffffff021916908373ffffffffffffffffffffffffffffffffffffffff1602179055505050565b80600c60008460001916600019168152602001908152602001600020600101819055505050565b6000818301905082811015151561388657fe5b80905092915050565b6000806000806000806000600260009054906101000a900473ffffffffffffffffffffffffffffffffffffffff1673ffffffffffffffffffffffffffffffffffffffff1663785d8d716040518163ffffffff167c010000000000000000000000000000000000000000000000000000000002815260040160c060405180830381600087803b15801561392057600080fd5b505af1158015613934573d6000803e3d6000fd5b505050506040513d601f19601f820116820180604052506139589190810190615924565b809750819850829950839a50849b50859c50505050505050600260009054906101000a900473ffffffffffffffffffffffffffffffffffffffff1673ffffffffffffffffffffffffffffffffffffffff1663c53b4bf9896040518263ffffffff167c01000000000000000000000000000000000000000000000000000000000281526004016139e79190615c41565b602060405180830381600087803b158015613a0157600080fd5b505af1158015613a15573d6000803e3d6000fd5b505050506040513d601f19601f82011682018060405250613a3991908101906158fb565b9050613a6260008211613a4d576000613a50565b60015b60ff16886137d290919063ffffffff16565b9650613a8260016004839060020a900416876137d290919063ffffffff16565b9550613aa260016003839060020a900416866137d290919063ffffffff16565b9450613ac260016002839060020a900416856137d290919063ffffffff16565b9350613ae1600180839060020a900416846137d290919063ffffffff16565b9250613af960018216836137d290919063ffffffff16565b9150600260009054906101000a900473ffffffffffffffffffffffffffffffffffffffff1673ffffffffffffffffffffffffffffffffffffffff16638b1b2ba88888888888886040518763ffffffff167c0100000000000000000000000000000000000000000000000000000000028152600401613b7c96959493929190615d0e565b600060405180830381600087803b158015613b9657600080fd5b505af1158015613baa573d6000803e3d6000fd5b505050505050505050505050565b600c60008260001916600019168152602001908152602001600020600080820160006101000a81549060ff021916905560018201600090556002820160006101000a81549073ffffffffffffffffffffffffffffffffffffffff0219169055505050565b6000806000806000806000600260009054906101000a900473ffffffffffffffffffffffffffffffffffffffff1673ffffffffffffffffffffffffffffffffffffffff1663785d8d716040518163ffffffff167c010000000000000000000000000000000000000000000000000000000002815260040160c060405180830381600087803b158015613cad57600080fd5b505af1158015613cc1573d6000803e3d6000fd5b505050506040513d601f19601f82011682018060405250613ce59190810190615924565b809750819850829950839a50849b50859c50505050505050600260009054906101000a900473ffffffffffffffffffffffffffffffffffffffff1673ffffffffffffffffffffffffffffffffffffffff1663c53b4bf9896040518263ffffffff167c0100000000000000000000000000000000000000000000000000000000028152600401613d749190615c41565b602060405180830381600087803b158015613d8e57600080fd5b505af1158015613da2573d6000803e3d6000fd5b505050506040513d601f19601f82011682018060405250613dc691908101906158fb565b9050613def60008211613dda576000613ddd565b60015b60ff168861387390919063ffffffff16565b9650613e0f60016004839060020a9004168761387390919063ffffffff16565b9550613e2f60016003839060020a9004168661387390919063ffffffff16565b9450613e4f60016002839060020a9004168561387390919063ffffffff16565b9350613e6e600180839060020a9004168461387390919063ffffffff16565b9250613e86600182168361387390919063ffffffff16565b9150600260009054906101000a900473ffffffffffffffffffffffffffffffffffffffff1673ffffffffffffffffffffffffffffffffffffffff16638b1b2ba88888888888886040518763ffffffff167c0100000000000000000000000000000000000000000000000000000000028152600401613f0996959493929190615d0e565b600060405180830381600087803b158015613f2357600080fd5b505af1158015613f37573d6000803e3d6000fd5b505050505050505050505050565b600080831415613f585760009050613f77565b8183029050818382811515613f6957fe5b04141515613f7357fe5b8090505b92915050565b60008183811515613f8a57fe5b04905092915050565b600073ffffffffffffffffffffffffffffffffffffffff168173ffffffffffffffffffffffffffffffffffffffff1614151515613fcf57600080fd5b8073ffffffffffffffffffffffffffffffffffffffff166000809054906101000a900473ffffffffffffffffffffffffffffffffffffffff1673ffffffffffffffffffffffffffffffffffffffff167f8be0079c531659141344cd1fd0a4f28419497f9722a3daafe3b4186f6b6457e060405160405180910390a3806000806101000a81548173ffffffffffffffffffffffffffffffffffffffff021916908373ffffffffffffffffffffffffffffffffffffffff16021790555050565b6000806000607f64010000000002915060078086026007860203039050818160ff168763ffffffff19169060020a9004166401000000009004925050509392505050565b60008060008060408503945060088560ff168115156140ec57fe5b069150600882860360ff1681151561410057fe5b0490508181935093505050915091565b600060408260ff1610159050919050565b6141296150ff565b6141316151d5565b600080600080600080600080600360ff166141528e61010001518e8e614a5a565b60ff161415156141755760018d60000190151590811515815250508c9950614413565b6141808d8d8d614ad0565b809950819a50505060008860ff1614156141ad5760018d60000190151590811515815250508c9950614413565b60009150600090505b8760ff168160ff1610156143135760009650600095506141ed8d8a8360ff166008811015156141e157fe5b60200201518e8e614e0f565b8097508198505050600092505b8560ff168360ff1610156143065781151561421457600191505b61422761422288858961408d565b6140d1565b80955081965050506142458d61010001518e61016001518787614f73565b8d61010001906fffffffffffffffffffffffffffffffff191690816fffffffffffffffffffffffffffffffff191681525050600260ff168d610160015160ff1614156142c45760018d6101c0018181510191509060ff16908160ff168152505060018d6101a0018181510391509060ff16908160ff16815250506142f9565b60018d6101c0018181510391509060ff16908160ff168152505060018d6101a0018181510191509060ff16908160ff16815250505b82806001019350506141fa565b80806001019150506141b6565b81156143b45761432f8d61010001518e61016001518e8e614f73565b8d61010001906fffffffffffffffffffffffffffffffff191690816fffffffffffffffffffffffffffffffff191681525050600260ff168d610160015160ff1614156143945760018d6101c0018181510191509060ff16908160ff16815250506143af565b60018d6101a0018181510191509060ff16908160ff16815250505b6143cd565b60018d60000190151590811515815250508c9950614413565b600160ff168d610160015160ff1614156143fa5760028d610160019060ff16908160ff168152505061440f565b60018d610160019060ff16908160ff16815250505b8c99505b5050505050505050509392505050565b61442b6150ff565b614433615204565b6000806000806000614443615233565b603c89610180015160ff16141561446d576001896020019015159081151581525050889750614756565b60009550600094505b60408560ff16101561454f576144c08961010001516008808860ff1681151561449b57fe5b06880360ff168115156144aa57fe5b0460088860ff168115156144ba57fe5b06614a5a565b9350600360ff168460ff1614156145425760408051908101604052806008808860ff168115156144ec57fe5b06880360ff168115156144fb57fe5b0460ff1660ff16815260200160088760ff1681151561451657fe5b0660ff1660ff16815250878760ff16603c8110151561453157fe5b602002018190525085806001019650505b8480600101955050614476565b6000925060008660ff161115614713578861010001519150600094505b8560ff168560ff1610801561457f575082155b156146df57868560ff16603c8110151561459557fe5b60200201519050600189610160019060ff16908160ff16815250506000896000019015159081151581525050818961010001906fffffffffffffffffffffffffffffffff191690816fffffffffffffffffffffffffffffffff1916815250506146258982600060028110151561460757fe5b602002015183600160028110151561461b57fe5b6020020151614121565b98508860000151151561463757600192505b600289610160019060ff16908160ff16815250506000896000019015159081151581525050818961010001906fffffffffffffffffffffffffffffffff191690816fffffffffffffffffffffffffffffffff1916815250506146c0898260006002811015156146a257fe5b60200201518360016002811015156146b657fe5b6020020151614121565b9850886000015115156146d257600192505b848060010195505061456c565b818961010001906fffffffffffffffffffffffffffffffff191690816fffffffffffffffffffffffffffffffff1916815250505b821561472f576001896000019015159081151581525050614752565b600189602001901515908115158152505060008960000190151590811515815250505b8897505b50505050505050919050565b61476a6150ff565b60008060008060008060006001965060019550600194506001935060019250600091505b60088260ff161080156147be575086806147a55750855b806147ad5750845b806147b55750835b806147bd5750825b5b156149c357600090505b60088160ff161080156147f8575086806147df5750855b806147e75750845b806147ef5750835b806147f75750825b5b156149b657614813896101000151836007038360070361503f565b6fffffffffffffffffffffffffffffffff19166148368a6101000151848461503f565b6fffffffffffffffffffffffffffffffff191614151561485557600096505b614868896101000151838360070361503f565b6fffffffffffffffffffffffffffffffff191661488b8a6101000151848461503f565b6fffffffffffffffffffffffffffffffff19161415156148aa57600095505b6148bd896101000151836007038361503f565b6fffffffffffffffffffffffffffffffff19166148e08a6101000151848461503f565b6fffffffffffffffffffffffffffffffff19161415156148ff57600094505b614915896101000151826007038460070361503f565b6fffffffffffffffffffffffffffffffff19166149388a6101000151848461503f565b6fffffffffffffffffffffffffffffffff191614151561495757600093505b614967896101000151828461503f565b6fffffffffffffffffffffffffffffffff191661498a8a6101000151848461503f565b6fffffffffffffffffffffffffffffffff19161415156149a957600092505b80806001019150506147c8565b818060010192505061478e565b86806149cc5750855b806149d45750845b806149dc5750835b806149e45750825b15614a4b5760018960400190151590811515815250508689606001901515908115158152505085896080019015159081151581525050848960a0019015159081151581525050838960c0019015159081151581525050828960e00190151590811515815250505b88975050505050505050919050565b6000806000614a69858561509b565b9150600370010000000000000000000000000000000002826fffffffffffffffffffffffffffffffff16876fffffffffffffffffffffffffffffffff19169060020a9004169050807001000000000000000000000000000000009004925050509392505050565b614ad86151d5565b6000614ae26151d5565b6000614aec6151d5565b600080614af7615255565b600080600096506101006040519081016040528060408051908101604052807fffffffffffffffffffffffffffffffffffffffffffffffffffffffffffffffff60000b60000b81526020016000800b60000b815250815260200160408051908101604052807fffffffffffffffffffffffffffffffffffffffffffffffffffffffffffffffff60000b60000b8152602001600160000b60000b815250815260200160408051908101604052806000800b60000b8152602001600160000b60000b81525081526020016040805190810160405280600160000b60000b8152602001600160000b60000b81525081526020016040805190810160405280600160000b60000b81526020016000800b60000b81525081526020016040805190810160405280600160000b60000b81526020017fffffffffffffffffffffffffffffffffffffffffffffffffffffffffffffffff60000b60000b815250815260200160408051908101604052806000800b60000b81526020017fffffffffffffffffffffffffffffffffffffffffffffffffffffffffffffffff60000b60000b815250815260200160408051908101604052807fffffffffffffffffffffffffffffffffffffffffffffffffffffffffffffffff60000b60000b81526020017fffffffffffffffffffffffffffffffffffffffffffffffffffffffffffffffff60000b60000b8152508152509550600090505b60088160ff161015614df957858160ff16600881101515614d2357fe5b60200201519250826000600281101515614d3957fe5b60200201518c019350826001600281101515614d5157fe5b60200201518b01945060078560000b1380614d6f575060008560000b125b80614d7d575060078460000b135b80614d8b575060008460000b125b1515614dec57614da18d61010001518587614a5a565b91508c610160015160ff168260ff16141515614deb57600360ff168260ff16141515614dea5782888860ff16600881101515614dd957fe5b602002018190525086806001019750505b5b5b8080600101915050614d06565b8787995099505050505050505050935093915050565b60008060008060008060008060008060009650600160ff168e610160015160ff161415614e3f5760029550614e44565b600195505b60009450600190505b60098160ff161015614f5c57841515614f4f578b8d6000600281101515614e7057fe5b602002015182020193508a8d6001600281101515614e8a57fe5b6020020151820201925060078460000b1380614ea9575060008460000b125b80614eb7575060078360000b135b80614ec5575060008360000b125b15614edb57600097506000965060019450614f4e565b614eeb8e61010001518585614a5a565b91508560ff168260ff161415614f1457614f07888886866150b7565b8098508199505050614f4d565b8d610160015160ff168260ff16148015614f31575060018160ff16115b15614f3f5760019450614f4c565b6000975060009650600194505b5b5b5b8080600101915050614e4d565b878799509950505050505050505094509492505050565b600080600060078560ff161115614f8957600080fd5b60078460ff161115614f9a57600080fd5b614fa4858561509b565b9150816fffffffffffffffffffffffffffffffff166003700100000000000000000000000000000000026fffffffffffffffffffffffffffffffff19169060020a02905086818818169650816fffffffffffffffffffffffffffffffff168660ff16700100000000000000000000000000000000026fffffffffffffffffffffffffffffffff19169060020a02871792505050949350505050565b60008061504c848461509b565b9050600370010000000000000000000000000000000002816fffffffffffffffffffffffffffffffff16866fffffffffffffffffffffffffffffffff19169060020a9004169150509392505050565b600060026001838560080201016040030260ff16905092915050565b600080600060406008850286010160ff1664010000000002905060078763ffffffff19169060020a029650808717965085806001019650508686925092505094509492505050565b6101e06040519081016040528060001515815260200160001515815260200160001515815260200160001515815260200160001515815260200160001515815260200160001515815260200160001515815260200160006fffffffffffffffffffffffffffffffff19168152602001600063ffffffff19168152602001600063ffffffff19168152602001600060ff168152602001600060ff168152602001600060ff168152602001600060ff1681525090565b6040805190810160405280600290602082028038833980820191505090505090565b610200604051908101604052806008905b6151ee615277565b8152602001906001900390816151e65790505090565b610f0060405190810160405280603c905b61521d615299565b8152602001906001900390816152155790505090565b6040805190810160405280600290602082028038833980820191505090505090565b6040805190810160405280600290602082028038833980820191505090505090565b6040805190810160405280600290602082028038833980820191505090505090565b6040805190810160405280600290602082028038833980820191505090505090565b60006152c78235615e4c565b905092915050565b600082601f83011215156152e257600080fd5b60026152f56152f082615d9c565b615d6f565b9150818385602084028201111561530b57600080fd5b60005b8381101561533b578161532188826153f7565b84526020840193506020830192505060018101905061530e565b5050505092915050565b600082601f830112151561535857600080fd5b600261536b61536682615d9c565b615d6f565b9150818385602084028201111561538157600080fd5b60005b838110156153b15781615397888261540b565b845260208401935060208301925050600181019050615384565b5050505092915050565b60006153c78235615e6c565b905092915050565b60006153db8251615e6c565b905092915050565b60006153ef8235615e78565b905092915050565b60006154038235615ea4565b905092915050565b60006154178251615ea4565b905092915050565b600061542b8235615ed0565b905092915050565b60008083601f840112151561544757600080fd5b8235905067ffffffffffffffff81111561546057600080fd5b60208301915083600182028301111561547857600080fd5b9250929050565b600061548b8235615eda565b905092915050565b60006101e082840312156154a657600080fd5b6154b16101e0615d6f565b905060006154c1848285016153bb565b60008301525060206154d5848285016153bb565b60208301525060406154e9848285016153bb565b60408301525060606154fd848285016153bb565b6060830152506080615511848285016153bb565b60808301525060a0615525848285016153bb565b60a08301525060c0615539848285016153bb565b60c08301525060e061554d848285016153bb565b60e083015250610100615562848285016153e3565b61010083015250610120615578848285016153f7565b6101208301525061014061558e848285016153f7565b610140830152506101606155a48482850161561b565b610160830152506101806155ba8482850161561b565b610180830152506101a06155d08482850161561b565b6101a0830152506101c06155e68482850161561b565b6101c08301525092915050565b60006155ff8235615eec565b905092915050565b60006156138251615eec565b905092915050565b60006156278235615ef6565b905092915050565b60006020828403121561564157600080fd5b600061564f848285016152bb565b91505092915050565b60008060006060848603121561566d57600080fd5b600061567b868287016152bb565b935050602061568c868287016152bb565b925050604061569d868287016155f3565b9150509250925092565b600080600080606085870312156156bd57600080fd5b60006156cb878288016152bb565b94505060206156dc878288016155f3565b935050604085013567ffffffffffffffff8111156156f957600080fd5b61570587828801615433565b925092505092959194509250565b60006040828403121561572557600080fd5b6000615733848285016152cf565b91505092915050565b60006040828403121561574e57600080fd5b600061575c84828501615345565b91505092915050565b60008060008060a0858703121561577b57600080fd5b6000615789878288016152cf565b945050604061579a878288016155f3565b93505060606157ab878288016155f3565b92505060806157bc878288016153bb565b91505092959194509250565b6000602082840312156157da57600080fd5b60006157e8848285016153cf565b91505092915050565b60006020828403121561580357600080fd5b6000615811848285016153e3565b91505092915050565b60006020828403121561582c57600080fd5b600061583a8482850161541f565b91505092915050565b6000806040838503121561585657600080fd5b60006158648582860161541f565b9250506020615875858286016152bb565b9150509250929050565b60006020828403121561589157600080fd5b600061589f8482850161547f565b91505092915050565b60006101e082840312156158bb57600080fd5b60006158c984828501615493565b91505092915050565b6000602082840312156158e457600080fd5b60006158f2848285016155f3565b91505092915050565b60006020828403121561590d57600080fd5b600061591b84828501615607565b91505092915050565b60008060008060008060c0878903121561593d57600080fd5b600061594b89828a01615607565b965050602061595c89828a01615607565b955050604061596d89828a01615607565b945050606061597e89828a01615607565b935050608061598f89828a01615607565b92505060a06159a089828a01615607565b9150509295509295509295565b6159b681615de0565b82525050565b6159c581615dc8565b6159ce82615dbe565b60005b82811015615a00576159e4858351615a16565b6159ed82615dd3565b91506020850194506001810190506159d1565b5050505050565b615a1081615e00565b82525050565b615a1f81615e0c565b82525050565b615a2e81615e38565b82525050565b615a3d81615f03565b82525050565b615a4c81615e42565b82525050565b6000602082019050615a6760008301846159ad565b92915050565b6000606082019050615a8260008301866159ad565b615a8f60208301856159ad565b615a9c6040830184615a43565b949350505050565b6000604082019050615ab960008301856159ad565b615ac66020830184615a43565b9392505050565b600060c082019050615ae260008301886159bc565b615aef6040830187615a43565b615afc60608301866159ad565b615b0960808301856159ad565b615b1660a0830184615a43565b9695505050505050565b600061010082019050615b36600083018a6159bc565b615b436040830189615a43565b615b5060608301886159ad565b615b5d6080830187615a43565b615b6a60a0830186615a43565b615b7760c0830185615a43565b615b8460e0830184615a07565b98975050505050505050565b6000602082019050615ba56000830184615a07565b92915050565b6000606082019050615bc06000830186615a07565b615bcd6020830185615a43565b615bda60408301846159ad565b949350505050565b6000602082019050615bf76000830184615a25565b92915050565b6000604082019050615c126000830185615a25565b615c1f60208301846159ad565b9392505050565b6000602082019050615c3b6000830184615a34565b92915050565b6000602082019050615c566000830184615a43565b92915050565b6000606082019050615c716000830186615a43565b615c7e60208301856159ad565b615c8b6040830184615a43565b949350505050565b6000606082019050615ca86000830185615a43565b615cb560208301846159bc565b9392505050565b6000604082019050615cd16000830185615a43565b615cde6020830184615a07565b9392505050565b6000604082019050615cfa6000830185615a43565b615d076020830184615a43565b9392505050565b600060c082019050615d236000830189615a43565b615d306020830188615a43565b615d3d6040830187615a43565b615d4a6060830186615a43565b615d576080830185615a43565b615d6460a0830184615a43565b979650505050505050565b6000604051905081810181811067ffffffffffffffff82111715615d9257600080fd5b8060405250919050565b600067ffffffffffffffff821115615db357600080fd5b602082029050919050565b6000819050919050565b600060029050919050565b6000602082019050919050565b600073ffffffffffffffffffffffffffffffffffffffff82169050919050565b60008115159050919050565b60007fffffffffffffffffffffffffffffffffffffffffffffffffffffffff0000000082169050919050565b6000819050919050565b6000819050919050565b600073ffffffffffffffffffffffffffffffffffffffff82169050919050565b60008115159050919050565b60007fffffffffffffffffffffffffffffffff0000000000000000000000000000000082169050919050565b60007fffffffffffffffffffffffffffffffffffffffffffffffffffffffff0000000082169050919050565b6000819050919050565b6000615ee582615de0565b9050919050565b6000819050919050565b600060ff82169050919050565b6000615f0e82615de0565b90509190505600a265627a7a72305820c9967ccd2e65bbef7379887e2a00f5a5b86862fafb64123388c2ffc7a17b2d2b6c6578706572696d656e74616cf50037",
  "source": "pragma solidity ^0.4.18;\npragma experimental ABIEncoderV2;\n\n/**\n * The CloversController is a replaceable endpoint for minting and unminting Clovers.sol and ClubToken.sol\n */\n\nimport \"./Reversi.sol\";\nimport \"./IClovers.sol\";\nimport \"./IClubToken.sol\";\nimport \"./ICloversController.sol\";\nimport \"./IClubTokenController.sol\";\nimport \"./ISimpleCloversMarket.sol\";\nimport \"zeppelin-solidity/contracts/ownership/HasNoTokens.sol\";\nimport \"zeppelin-solidity/contracts/ownership/HasNoEther.sol\";\nimport \"zeppelin-solidity/contracts/math/SafeMath.sol\";\n\n\ncontract CloversController is HasNoEther, HasNoTokens {\n    event cloverCommitted(bytes32 movesHash, address owner);\n    event cloverClaimed(bytes28[2] moves, uint256 tokenId, address owner, uint stake, uint reward, uint256 symmetries, bool keep);\n    event stakeRetrieved(uint256 tokenId, address owner, uint stake);\n    event cloverChallenged(bytes28[2] moves, uint256 tokenId, address owner, address challenger, uint stake);\n\n    using SafeMath for uint256;\n\n    address public oracle;\n    address public clovers;\n    address public clubToken;\n    address public clubTokenController;\n    address public simpleCloversMarket;\n    address public curationMarket;\n\n    uint256 public basePrice;\n    uint256 public priceMultiplier;\n    uint256 public payMultiplier;\n    uint256 public stakeAmount;\n    uint256 public stakePeriod;\n\n    struct Commit {\n        bool collected;\n        uint256 stake;\n        address committer;\n    }\n\n    mapping (bytes32 => Commit) public commits;\n\n    constructor(address _clovers, address _clubToken, address _clubTokenController) public {\n        clovers = _clovers;\n        clubToken = _clubToken;\n        clubTokenController = _clubTokenController;\n    }\n    /**\n    * @dev Gets the current stake of a Clover based on the hash of the moves.\n    * @param movesHash The hash of the moves that make up the clover.\n    * @return A uint256 value of stake.\n    */\n    function getStake(bytes32 movesHash) public view returns (uint256) {\n        return commits[movesHash].stake;\n    }\n    /**\n    * @dev Gets the address of the committer of a Clover based on the hash of the moves.\n    * @param movesHash The hash of the moves that make up the clover.\n    * @return The address of the committer.\n    */\n    function getCommit(bytes32 movesHash) public view returns (address) {\n        return commits[movesHash].committer;\n    }\n    /**\n    * @dev Gets the current staking period needed to verify a Clover.\n    * @param _tokenId The token Id of the clover.\n    * @return A uint256 value of stake period in seconds.\n    */\n    function getMovesHash(uint _tokenId) public constant returns (bytes32) {\n        return keccak256(IClovers(clovers).getCloverMoves(_tokenId));\n    }\n    /**\n    * @dev Checks whether the game is valid.\n    * @param moves The moves needed to play validate the game.\n    * @return A boolean representing whether or not the game is valid.\n    */\n    function isValid(bytes28[2] moves) public constant returns (bool) {\n        Reversi.Game memory game = Reversi.playGame(moves);\n        return isValidGame(game);\n    }\n\n    /**\n    * @dev Checks whether the game is valid.\n    * @param game The pre-played game.\n    * @return A boolean representing whether or not the game is valid.\n    */\n    function isValidGame(Reversi.Game game) public pure returns (bool) {\n        if (game.error) return false;\n        if (!game.complete) return false;\n        return true;\n    }\n    /**\n    * @dev Checks whether the game has passed the verification period.\n    * @param _tokenId The board being checked.\n    * @return A boolean representing whether or not the game has been verified.\n    */\n    function isVerified(uint256 _tokenId) public constant returns (bool) {\n        uint256 _blockMinted = IClovers(clovers).getBlockMinted(_tokenId);\n        if(_blockMinted == 0) return false;\n        return block.number.sub(_blockMinted) > stakePeriod;\n    }\n    /**\n    * @dev Calculates the reward of the board.\n    * @param _symmetries symmetries saved as a uint256 value like 00010101 where bits represent symmetry types.\n    * @return A uint256 representing the reward that would be returned for claiming the board.\n    */\n    function calculateReward(uint256 _symmetries) public constant returns (uint256) {\n        uint256 Symmetricals;\n        uint256 RotSym;\n        uint256 Y0Sym;\n        uint256 X0Sym;\n        uint256 XYSym;\n        uint256 XnYSym;\n        (Symmetricals,\n        RotSym,\n        Y0Sym,\n        X0Sym,\n        XYSym,\n        XnYSym) = IClovers(clovers).getAllSymmetries();\n        uint256 base = 0;\n        if (_symmetries >> 4 & 1 == 1) base = base.add(payMultiplier.mul(Symmetricals + 1).div(RotSym + 1));\n        if (_symmetries >> 3 & 1 == 1) base = base.add(payMultiplier.mul(Symmetricals + 1).div(Y0Sym + 1));\n        if (_symmetries >> 2 & 1 == 1) base = base.add(payMultiplier.mul(Symmetricals + 1).div(X0Sym + 1));\n        if (_symmetries >> 1 & 1 == 1) base = base.add(payMultiplier.mul(Symmetricals + 1).div(XYSym + 1));\n        if (_symmetries & 1 == 1) base = base.add(payMultiplier.mul(Symmetricals + 1).div(XnYSym + 1));\n        return base;\n    }\n\n/*\n    // NOTE: Disabled to reduce contract size\n    function instantClaimClover(bytes28[2] moves, bool _keep) public payable returns (bool) {\n        Reversi.Game memory game = Reversi.playGame(moves);\n        require(isValidGame(game));\n        uint256 tokenId = uint256(game.board);\n        require(IClovers(clovers).getBlockMinted(tokenId) == 0);\n        require(!IClovers(clovers).exists(tokenId));\n        IClovers(clovers).setBlockMinted(tokenId, block.number);\n        IClovers(clovers).setCloverMoves(tokenId, moves);\n\n        uint256 symmetries = Reversi.returnSymmetricals(game.RotSym, game.Y0Sym, game.X0Sym, game.XYSym, game.XnYSym);\n        uint256 reward;\n\n        if (uint256(symmetries) > 0) {\n            IClovers(clovers).setSymmetries(tokenId, uint256(symmetries));\n            reward = calculateReward(uint256(symmetries));\n            IClovers(clovers).setReward(tokenId, reward);\n        }\n        if (_keep) {\n            // If the user decides to keep the Clover, they must\n            // pay for it in club tokens according to the reward price.\n            if (IClubToken(clubToken).balanceOf(msg.sender) < reward) {\n                IClubTokenController(clubTokenController).buy.value(msg.value)(msg.sender); // msg.value needs to be enough to buy \"reward\" amount of Club Token\n            }\n            if (reward > 0) {\n                // IClubToken(clubToken).transferFrom(msg.sender, clubToken, reward); // if we'd rather keep the money\n                IClubToken(clubToken).burn(msg.sender, reward);\n            }\n            IClovers(clovers).mint(msg.sender, tokenId);\n        } else {\n            // If the user decides not to keep the Clover, they will\n            // receive the reward price in club tokens, and the clover will\n            // go for sale at 10x the reward price.\n            if (reward > 0) {\n                require(IClubToken(clubToken).mint(msg.sender, reward));\n            }\n            IClovers(clovers).mint(clovers, tokenId);\n        }\n\n    } */\n\n    function getPrice(uint256 _symmetries) public constant returns(uint256) {\n        return basePrice.add(calculateReward(_symmetries));\n    }\n\n    /**\n    * @dev Claim the Clover without a commit or reveal. Payable so you can attach enough for the stake,\n    * as well as enough to buy tokens if needed to keep the Clover.\n    * @param moves The moves that make up the Clover reversi game.\n    * @param _tokenId The board that results from the moves.\n    * @param _symmetries symmetries saved as a uint256 value like 00010101 where bits represent symmetry\n    * types.\n    * @return A boolean representing whether or not the claim was successful.\n    */\n    function claimClover(bytes28[2] moves, uint256 _tokenId, uint256 _symmetries, bool _keep) public payable returns (bool) {\n        emit cloverClaimed(moves, _tokenId, msg.sender, _tokenId, _tokenId, _symmetries, _keep);\n\n        bytes32 movesHash = keccak256(moves);\n\n        require(msg.value >= stakeAmount);\n        require(getCommit(movesHash) == 0);\n\n        setCommit(movesHash, msg.sender);\n        if (stakeAmount > 0) {\n            setStake(movesHash, stakeAmount);\n            clovers.transfer(stakeAmount);\n        }\n\n        emit cloverCommitted(movesHash, msg.sender);\n\n        require(!IClovers(clovers).exists(_tokenId));\n        require(IClovers(clovers).getBlockMinted(_tokenId) == 0);\n\n        IClovers(clovers).setBlockMinted(_tokenId, block.number);\n        IClovers(clovers).setCloverMoves(_tokenId, moves);\n        IClovers(clovers).setKeep(_tokenId, _keep);\n\n        uint256 reward;\n        if (_symmetries > 0) {\n            IClovers(clovers).setSymmetries(_tokenId, _symmetries);\n            reward = calculateReward(_symmetries);\n            IClovers(clovers).setReward(_tokenId, reward);\n        }\n        uint256 price = basePrice.add(reward);\n        if (_keep && price > 0) {\n            // If the user decides to keep the Clover, they must\n            // pay for it in club tokens according to the reward price.\n            if (IClubToken(clubToken).balanceOf(msg.sender) < price) {\n                IClubTokenController(clubTokenController).buy.value(msg.value.sub(stakeAmount))(msg.sender);\n            }\n            IClubToken(clubToken).transferFrom(msg.sender, clovers, price);\n            // IClubToken(clubToken).burn(committer, price);\n        }\n        IClovers(clovers).mint(clovers, _tokenId);\n        emit cloverClaimed(moves, _tokenId, msg.sender, stakeAmount, reward, _symmetries, _keep);\n        return true;\n    }\n    /**\n    * @dev Commit the hash of the moves needed to claim the Clover. A stake should be\n    * made for counterfactual verification.\n    * @param movesHash The hash of the moves that makes up the Clover reversi\n    * game.\n    * @return A boolean representing whether or not the commit was successful.\n    NOTE: Disabled for contract size, if front running becomes a problem it can be\n    implemented with an upgrade\n    */\n    /* function claimCloverCommit(bytes32 movesHash) public payable returns (bool) {\n        require(msg.value <= stakeAmount);\n        require(getCommit(movesHash) == 0);\n\n        setCommit(movesHash, msg.sender);\n        setStake(movesHash, stakeAmount);\n\n        clovers.transfer(stakeAmount);\n\n        emit cloverCommitted(movesHash, msg.sender);\n        return true;\n    } */\n    /**\n    * @dev Reveal the solution to the previous commit to claim the Clover.\n    * @param moves The moves that make up the Clover reversi game.\n    * @param _tokenId The board that results from the moves.\n    * @param _symmetries symmetries saved as a uint256 value like 00010101 where bits represent symmetry types.\n    * @return A boolean representing whether or not the reveal and claim was successful.\n    NOTE: Disabled for contract size, if front running becomes a problem it can be implemented with an upgrade\n    */\n    /* function claimCloverReveal(bytes28[2] moves, uint256 _tokenId, uint256 _symmetries, bool _keep) public returns (bool) {\n        bytes32 movesHash = keccak256(moves);\n        address committer = getCommit(movesHash);\n\n        require(IClovers(clovers).getBlockMinted(_tokenId) == 0);\n\n        IClovers(clovers).setBlockMinted(_tokenId, block.number);\n        IClovers(clovers).setCloverMoves(_tokenId, moves);\n        IClovers(clovers).setKeep(_tokenId, _keep);\n        uint256 reward;\n        if (_symmetries > 0) {\n            IClovers(clovers).setSymmetries(_tokenId, _symmetries);\n            reward = calculateReward(_symmetries);\n            IClovers(clovers).setReward(_tokenId, reward);\n        }\n        if (_keep) {\n            IClubToken(clubToken).increaseApproval(address(this), basePrice.add(reward));\n        }\n        uint256 stake = getStake(movesHash);\n        emit cloverClaimed(moves, _tokenId, committer, stake, reward, _symmetries, _keep);\n        return true;\n    } */\n\n    /**\n    * @dev Retrieve the stake from a Clover claim after the stake period has ended, or with the authority of the oracle.\n    * @param _tokenId The board which holds the stake.\n    * @return A boolean representing whether or not the retrieval was successful.\n    */\n    function retrieveStake(uint256 _tokenId) public payable returns (bool) {\n        bytes28[2] memory moves = IClovers(clovers).getCloverMoves(_tokenId);\n        bytes32 movesHash = keccak256(moves);\n\n        require(!commits[movesHash].collected);\n        commits[movesHash].collected = true;\n\n        require(isVerified(_tokenId) || msg.sender == owner || msg.sender == oracle);\n\n        uint256 stake = getStake(movesHash);\n        addSymmetries(_tokenId);\n        address committer = getCommit(movesHash);\n        require(committer == msg.sender || msg.sender == owner || msg.sender == oracle);\n        uint256 reward = IClovers(clovers).getReward(_tokenId);\n        bool _keep = IClovers(clovers).getKeep(_tokenId);\n\n        if (_keep) {\n            // If the user decided to keep the Clover, they will\n            // receive the clover now that it has been verified\n            IClovers(clovers).transferFrom(clovers, committer, _tokenId);\n        } else {\n            // If the user decided not to keep the Clover, they will\n            // receive the reward price in club tokens, and the clover will\n            // go for sale by the contract.\n            ISimpleCloversMarket(simpleCloversMarket).sell(_tokenId, basePrice.add(reward.mul(priceMultiplier)));\n            if (reward > 0) {\n                require(IClubToken(clubToken).mint(committer, reward));\n            }\n        }\n        if (stake > 0) {\n            IClovers(clovers).moveEth(msg.sender, stake);\n        }\n        emit stakeRetrieved(_tokenId, msg.sender, stake);\n        return true;\n    }\n\n\n    /**\n    * @dev Convert a bytes16 board into a uint256.\n    * @param _board The board being converted.\n    * @return number the uint256 being converted.\n    */\n    function convertBytes16ToUint(bytes16 _board) public view returns(uint256 number) {\n        for(uint i=0;i<_board.length;i++){\n            number = number + uint(_board[i])*(2**(8*(_board.length-(i+1))));\n        }\n    }\n\n    /**\n    * @dev Challenge a staked Clover for being invalid.\n    * @param _tokenId The board being challenged.\n    * @return A boolean representing whether or not the challenge was successful.\n    */\n    function challengeClover(uint256 _tokenId) public returns (bool) {\n        bool valid = true;\n        bytes28[2] memory moves = IClovers(clovers).getCloverMoves(_tokenId);\n\n        if (msg.sender != owner && msg.sender != oracle) {\n            Reversi.Game memory game = Reversi.playGame(moves);\n            if(convertBytes16ToUint(game.board) != _tokenId) {\n                valid = false;\n            }\n            if(valid && isValidGame(game)) {\n                uint256 _symmetries = IClovers(clovers).getSymmetries(_tokenId);\n                valid = (_symmetries >> 4 & 1) > 0 == game.RotSym ? valid : false;\n                valid = (_symmetries >> 3 & 1) > 0 == game.Y0Sym ? valid : false;\n                valid = (_symmetries >> 2 & 1) > 0 == game.X0Sym ? valid : false;\n                valid = (_symmetries >> 1 & 1) > 0 == game.XYSym ? valid : false;\n                valid = (_symmetries & 1) > 0 == game.XnYSym ? valid : false;\n            } else {\n                valid = false;\n            }\n            require(!valid);\n        }\n        bytes32 movesHash = keccak256(moves);\n        uint256 stake = getStake(movesHash);\n        if (!isVerified(_tokenId) && stake > 0) {\n            IClovers(clovers).moveEth(msg.sender, stake);\n        }\n        if (commits[movesHash].collected) {\n            removeSymmetries(_tokenId);\n        }\n\n        address committer = getCommit(movesHash);\n        emit cloverChallenged(moves, _tokenId, committer, msg.sender, stake);\n\n        IClovers(clovers).deleteClover(_tokenId);\n        deleteCommit(movesHash);\n        return true;\n    }\n\n\n    /**\n    * @dev Moves clovers without explicit allow permission for use by simpleCloversMarket\n    * in order to avoid double transaction (allow, transferFrom)\n    * @param _from The current owner of the Clover\n    * @param _to The future owner of the Clover\n    * @param _tokenId The Clover\n    */\n    function transferFrom(address _from, address _to, uint256 _tokenId) public {\n        require(msg.sender == simpleCloversMarket || msg.sender == curationMarket);\n        IClovers(clovers).transferFrom(_from, _to, _tokenId);\n    }\n\n    /**\n    * @dev Updates curationMarket Address.\n    * @param _curationMarket The new curationMarket Address.\n    */\n    function updateCurationMarket(address _curationMarket) public onlyOwner {\n        curationMarket = _curationMarket;\n    }\n    /**\n    * @dev Updates oracle Address.\n    * @param _oracle The new oracle Address.\n    */\n    function updateOracle(address _oracle) public onlyOwner {\n        oracle = _oracle;\n    }\n\n    /**\n    * @dev Updates simpleCloversMarket Address.\n    * @param _simpleCloversMarket The new simpleCloversMarket address.\n    */\n    function updateSimpleCloversMarket(address _simpleCloversMarket) public onlyOwner {\n        simpleCloversMarket = _simpleCloversMarket;\n    }\n\n    /**\n    * @dev Updates clubTokenController Address.\n    * @param _clubTokenController The new clubTokenController address.\n    */\n    function updateClubTokenController(address _clubTokenController) public onlyOwner {\n        clubTokenController = _clubTokenController;\n    }\n    /**\n    * @dev Updates the stake amount.\n    * @param _stakeAmount The new amount needed to stake.\n    */\n    function updateStakeAmount(uint256 _stakeAmount) public onlyOwner {\n        stakeAmount = _stakeAmount;\n    }\n    /**\n    * @dev Updates the stake period.\n    * @param _stakePeriod The uint256 value of time needed to stake before being verified.\n    */\n    function updateStakePeriod(uint256 _stakePeriod) public onlyOwner {\n        stakePeriod = _stakePeriod;\n    }\n    /**\n    * @dev Updates the pay multiplier, used to calculate token reward.\n    * @param _payMultiplier The uint256 value of pay multiplier.\n    */\n    function updatePayMultipier(uint256 _payMultiplier) public onlyOwner {\n        payMultiplier = _payMultiplier;\n    }\n    /**\n    * @dev Updates the price multiplier, used to calculate the clover price (multiplied by the original reward).\n    * @param _priceMultiplier The uint256 value of the price multiplier.\n    */\n    function updatePriceMultipier(uint256 _priceMultiplier) public onlyOwner {\n        priceMultiplier = _priceMultiplier;\n    }\n    /**\n    * @dev Updates the base price, used to calculate the clover cost.\n    * @param _basePrice The uint256 value of the base price.\n    */\n    function updateBasePrice(uint256 _basePrice) public onlyOwner {\n        basePrice = _basePrice;\n    }\n\n    /**\n    * @dev Sets the stake of a Clover based on the hash of the moves.\n    * @param movesHash The hash of the moves that make up the clover.\n    * @param stake A uint256 value of stake.\n    */\n    function setStake(bytes32 movesHash, uint256 stake) private {\n        commits[movesHash].stake = stake;\n    }\n\n    /**\n    * @dev Sets the address of the committer of a Clover based on the hash of the moves.\n    * @param movesHash The hash of the moves that make up the clover.\n    * @param committer The address of the committer.\n    */\n    function setCommit(bytes32 movesHash, address committer) private {\n        commits[movesHash].committer = committer;\n    }\n\n    function _setCommit(bytes32 movesHash, address committer) onlyOwner {\n        setCommit(movesHash, committer);\n    }\n    function deleteCommit(bytes32 movesHash) private {\n        delete(commits[movesHash]);\n    }\n\n    /**\n    * @dev Adds new tallys of the totals numbers of clover symmetries.\n    * @param _tokenId The token which needs to be examined.\n    */\n    function addSymmetries(uint256 _tokenId) private {\n        uint256 Symmetricals;\n        uint256 RotSym;\n        uint256 Y0Sym;\n        uint256 X0Sym;\n        uint256 XYSym;\n        uint256 XnYSym;\n        (Symmetricals,\n        RotSym,\n        Y0Sym,\n        X0Sym,\n        XYSym,\n        XnYSym) = IClovers(clovers).getAllSymmetries();\n        uint256 _symmetries = IClovers(clovers).getSymmetries(_tokenId);\n        Symmetricals = Symmetricals.add(_symmetries > 0 ? 1 : 0);\n        RotSym = RotSym.add(uint256(_symmetries >> 4 & 1));\n        Y0Sym = Y0Sym.add(uint256(_symmetries >> 3 & 1));\n        X0Sym = X0Sym.add(uint256(_symmetries >> 2 & 1));\n        XYSym = XYSym.add(uint256(_symmetries >> 1 & 1));\n        XnYSym = XnYSym.add(uint256(_symmetries & 1));\n        IClovers(clovers).setAllSymmetries(Symmetricals, RotSym, Y0Sym, X0Sym, XYSym, XnYSym);\n    }\n    /**\n    * @dev Remove false tallys of the totals numbers of clover symmetries.\n    * @param _tokenId The token which needs to be examined.\n    */\n    function removeSymmetries(uint256 _tokenId) private {\n        uint256 Symmetricals;\n        uint256 RotSym;\n        uint256 Y0Sym;\n        uint256 X0Sym;\n        uint256 XYSym;\n        uint256 XnYSym;\n        (Symmetricals,\n        RotSym,\n        Y0Sym,\n        X0Sym,\n        XYSym,\n        XnYSym) = IClovers(clovers).getAllSymmetries();\n        uint256 _symmetries = IClovers(clovers).getSymmetries(_tokenId);\n        Symmetricals = Symmetricals.sub(_symmetries > 0 ? 1 : 0);\n        RotSym = RotSym.sub(uint256(_symmetries >> 4 & 1));\n        Y0Sym = Y0Sym.sub(uint256(_symmetries >> 3 & 1));\n        X0Sym = X0Sym.sub(uint256(_symmetries >> 2 & 1));\n        XYSym = XYSym.sub(uint256(_symmetries >> 1 & 1));\n        XnYSym = XnYSym.sub(uint256(_symmetries & 1));\n        IClovers(clovers).setAllSymmetries(Symmetricals, RotSym, Y0Sym, X0Sym, XYSym, XnYSym);\n    }\n\n}\n",
  "sourcePath": "/Users/billy/clovers/clovers-contracts/contracts/CloversController.sol",
  "compiler": {
    "name": "solc",
    "version": "0.4.24+commit.e67f0147.Emscripten.clang"
  },
  "schemaVersion": "2.0.1",
  "updatedAt": "2018-08-17T15:59:25.188Z"
}