{
  "contractName": "Clovers",
  "abi": [
    {
      "constant": true,
      "inputs": [],
      "name": "name",
      "outputs": [
        {
          "name": "",
          "type": "string"
        }
      ],
      "payable": false,
      "stateMutability": "view",
      "type": "function"
    },
    {
      "constant": true,
      "inputs": [
        {
          "name": "_tokenId",
          "type": "uint256"
        }
      ],
      "name": "getApproved",
      "outputs": [
        {
          "name": "",
          "type": "address"
        }
      ],
      "payable": false,
      "stateMutability": "view",
      "type": "function"
    },
    {
      "constant": false,
      "inputs": [
        {
          "name": "_to",
          "type": "address"
        },
        {
          "name": "_tokenId",
          "type": "uint256"
        }
      ],
      "name": "approve",
      "outputs": [],
      "payable": false,
      "stateMutability": "nonpayable",
      "type": "function"
    },
    {
      "constant": true,
      "inputs": [],
      "name": "totalSupply",
      "outputs": [
        {
          "name": "",
          "type": "uint256"
        }
      ],
      "payable": false,
      "stateMutability": "view",
      "type": "function"
    },
    {
      "constant": false,
      "inputs": [
        {
          "name": "_from",
          "type": "address"
        },
        {
          "name": "_to",
          "type": "address"
        },
        {
          "name": "_tokenId",
          "type": "uint256"
        }
      ],
      "name": "transferFrom",
      "outputs": [],
      "payable": false,
      "stateMutability": "nonpayable",
      "type": "function"
    },
    {
      "constant": true,
      "inputs": [
        {
          "name": "_owner",
          "type": "address"
        },
        {
          "name": "_index",
          "type": "uint256"
        }
      ],
      "name": "tokenOfOwnerByIndex",
      "outputs": [
        {
          "name": "",
          "type": "uint256"
        }
      ],
      "payable": false,
      "stateMutability": "view",
      "type": "function"
    },
    {
      "constant": false,
      "inputs": [
        {
          "name": "_from",
          "type": "address"
        },
        {
          "name": "_to",
          "type": "address"
        },
        {
          "name": "_tokenId",
          "type": "uint256"
        }
      ],
      "name": "safeTransferFrom",
      "outputs": [],
      "payable": false,
      "stateMutability": "nonpayable",
      "type": "function"
    },
    {
      "constant": true,
      "inputs": [
        {
          "name": "",
          "type": "bytes32"
        }
      ],
      "name": "commits",
      "outputs": [
        {
          "name": "",
          "type": "address"
        }
      ],
      "payable": false,
      "stateMutability": "view",
      "type": "function"
    },
    {
      "constant": true,
      "inputs": [
        {
          "name": "_tokenId",
          "type": "uint256"
        }
      ],
      "name": "exists",
      "outputs": [
        {
          "name": "",
          "type": "bool"
        }
      ],
      "payable": false,
      "stateMutability": "view",
      "type": "function"
    },
    {
      "constant": true,
      "inputs": [
        {
          "name": "_index",
          "type": "uint256"
        }
      ],
      "name": "tokenByIndex",
      "outputs": [
        {
          "name": "",
          "type": "uint256"
        }
      ],
      "payable": false,
      "stateMutability": "view",
      "type": "function"
    },
    {
      "constant": true,
      "inputs": [
        {
          "name": "_tokenId",
          "type": "uint256"
        }
      ],
      "name": "ownerOf",
      "outputs": [
        {
          "name": "",
          "type": "address"
        }
      ],
      "payable": false,
      "stateMutability": "view",
      "type": "function"
    },
    {
      "constant": true,
      "inputs": [
        {
          "name": "",
          "type": "uint256"
        }
      ],
      "name": "clovers",
      "outputs": [
        {
          "name": "symmetries",
          "type": "uint256"
        },
        {
          "name": "blockMinted",
          "type": "uint256"
        },
        {
          "name": "rewards",
          "type": "uint256"
        }
      ],
      "payable": false,
      "stateMutability": "view",
      "type": "function"
    },
    {
      "constant": true,
      "inputs": [
        {
          "name": "_owner",
          "type": "address"
        }
      ],
      "name": "balanceOf",
      "outputs": [
        {
          "name": "",
          "type": "uint256"
        }
      ],
      "payable": false,
      "stateMutability": "view",
      "type": "function"
    },
    {
      "constant": true,
      "inputs": [],
      "name": "owner",
      "outputs": [
        {
          "name": "",
          "type": "address"
        }
      ],
      "payable": false,
      "stateMutability": "view",
      "type": "function"
    },
    {
      "constant": true,
      "inputs": [
        {
          "name": "",
          "type": "bytes32"
        }
      ],
      "name": "stakes",
      "outputs": [
        {
          "name": "",
          "type": "uint256"
        }
      ],
      "payable": false,
      "stateMutability": "view",
      "type": "function"
    },
    {
      "constant": true,
      "inputs": [],
      "name": "symbol",
      "outputs": [
        {
          "name": "",
          "type": "string"
        }
      ],
      "payable": false,
      "stateMutability": "view",
      "type": "function"
    },
    {
      "constant": false,
      "inputs": [
        {
          "name": "_to",
          "type": "address"
        },
        {
          "name": "_approved",
          "type": "bool"
        }
      ],
      "name": "setApprovalForAll",
      "outputs": [],
      "payable": false,
      "stateMutability": "nonpayable",
      "type": "function"
    },
    {
      "constant": false,
      "inputs": [
        {
          "name": "_from",
          "type": "address"
        },
        {
          "name": "_to",
          "type": "address"
        },
        {
          "name": "_tokenId",
          "type": "uint256"
        },
        {
          "name": "_data",
          "type": "bytes"
        }
      ],
      "name": "safeTransferFrom",
      "outputs": [],
      "payable": false,
      "stateMutability": "nonpayable",
      "type": "function"
    },
    {
      "constant": true,
      "inputs": [
        {
          "name": "_owner",
          "type": "address"
        },
        {
          "name": "_operator",
          "type": "address"
        }
      ],
      "name": "isApprovedForAll",
      "outputs": [
        {
          "name": "",
          "type": "bool"
        }
      ],
      "payable": false,
      "stateMutability": "view",
      "type": "function"
    },
    {
      "constant": false,
      "inputs": [
        {
          "name": "newOwner",
          "type": "address"
        }
      ],
      "name": "transferOwnership",
      "outputs": [],
      "payable": false,
      "stateMutability": "nonpayable",
      "type": "function"
    },
    {
      "inputs": [
        {
          "name": "name",
          "type": "string"
        },
        {
          "name": "symbol",
          "type": "string"
        }
      ],
      "payable": false,
      "stateMutability": "nonpayable",
      "type": "constructor"
    },
    {
      "payable": true,
      "stateMutability": "payable",
      "type": "fallback"
    },
    {
      "anonymous": false,
      "inputs": [
        {
          "indexed": true,
          "name": "previousOwner",
          "type": "address"
        },
        {
          "indexed": true,
          "name": "newOwner",
          "type": "address"
        }
      ],
      "name": "OwnershipTransferred",
      "type": "event"
    },
    {
      "anonymous": false,
      "inputs": [
        {
          "indexed": true,
          "name": "_from",
          "type": "address"
        },
        {
          "indexed": true,
          "name": "_to",
          "type": "address"
        },
        {
          "indexed": false,
          "name": "_tokenId",
          "type": "uint256"
        }
      ],
      "name": "Transfer",
      "type": "event"
    },
    {
      "anonymous": false,
      "inputs": [
        {
          "indexed": true,
          "name": "_owner",
          "type": "address"
        },
        {
          "indexed": true,
          "name": "_approved",
          "type": "address"
        },
        {
          "indexed": false,
          "name": "_tokenId",
          "type": "uint256"
        }
      ],
      "name": "Approval",
      "type": "event"
    },
    {
      "anonymous": false,
      "inputs": [
        {
          "indexed": true,
          "name": "_owner",
          "type": "address"
        },
        {
          "indexed": true,
          "name": "_operator",
          "type": "address"
        },
        {
          "indexed": false,
          "name": "_approved",
          "type": "bool"
        }
      ],
      "name": "ApprovalForAll",
      "type": "event"
    },
    {
      "constant": true,
      "inputs": [],
      "name": "implementation",
      "outputs": [
        {
          "name": "",
          "type": "address"
        }
      ],
      "payable": false,
      "stateMutability": "view",
      "type": "function"
    },
    {
      "constant": true,
      "inputs": [
        {
          "name": "_tokenId",
          "type": "uint256"
        }
      ],
      "name": "tokenURI",
      "outputs": [
        {
          "name": "_infoUrl",
          "type": "string"
        }
      ],
      "payable": false,
      "stateMutability": "view",
      "type": "function"
    },
    {
      "constant": true,
      "inputs": [
        {
          "name": "moves",
          "type": "bytes28[2]"
        }
      ],
      "name": "getHash",
      "outputs": [
        {
          "name": "",
          "type": "bytes32"
        }
      ],
      "payable": false,
      "stateMutability": "view",
      "type": "function"
    },
    {
      "constant": true,
      "inputs": [
        {
          "name": "movesHash",
          "type": "bytes32"
        }
      ],
      "name": "getStake",
      "outputs": [
        {
          "name": "",
          "type": "uint256"
        }
      ],
      "payable": false,
      "stateMutability": "view",
      "type": "function"
    },
    {
      "constant": true,
      "inputs": [
        {
          "name": "movesHash",
          "type": "bytes32"
        }
      ],
      "name": "getCommit",
      "outputs": [
        {
          "name": "",
          "type": "address"
        }
      ],
      "payable": false,
      "stateMutability": "view",
      "type": "function"
    },
    {
      "constant": true,
      "inputs": [
        {
          "name": "_tokenId",
          "type": "uint256"
        }
      ],
      "name": "getBlockMinted",
      "outputs": [
        {
          "name": "",
          "type": "uint256"
        }
      ],
      "payable": false,
      "stateMutability": "view",
      "type": "function"
    },
    {
      "constant": true,
      "inputs": [
        {
          "name": "_tokenId",
          "type": "uint256"
        }
      ],
      "name": "getCloverMoves",
      "outputs": [
        {
          "name": "",
          "type": "bytes28[2]"
        }
      ],
      "payable": false,
      "stateMutability": "view",
      "type": "function"
    },
    {
      "constant": true,
      "inputs": [
        {
          "name": "_tokenId",
          "type": "uint256"
        }
      ],
      "name": "getReward",
      "outputs": [
        {
          "name": "",
          "type": "uint256"
        }
      ],
      "payable": false,
      "stateMutability": "view",
      "type": "function"
    },
    {
      "constant": true,
      "inputs": [
        {
          "name": "_tokenId",
          "type": "uint256"
        }
      ],
      "name": "getSymmetries",
      "outputs": [
        {
          "name": "",
          "type": "uint256"
        }
      ],
      "payable": false,
      "stateMutability": "view",
      "type": "function"
    },
    {
      "constant": true,
      "inputs": [],
      "name": "getAllSymmetries",
      "outputs": [
        {
          "name": "",
          "type": "uint256"
        },
        {
          "name": "",
          "type": "uint256"
        },
        {
          "name": "",
          "type": "uint256"
        },
        {
          "name": "",
          "type": "uint256"
        },
        {
          "name": "",
          "type": "uint256"
        },
        {
          "name": "",
          "type": "uint256"
        }
      ],
      "payable": false,
      "stateMutability": "view",
      "type": "function"
    },
    {
      "constant": false,
      "inputs": [
        {
          "name": "_to",
          "type": "address"
        },
        {
          "name": "amount",
          "type": "uint256"
        }
      ],
      "name": "moveEth",
      "outputs": [
        {
          "name": "",
          "type": "bool"
        }
      ],
      "payable": false,
      "stateMutability": "nonpayable",
      "type": "function"
    },
    {
      "constant": false,
      "inputs": [
        {
          "name": "amount",
          "type": "uint256"
        },
        {
          "name": "_to",
          "type": "address"
        },
        {
          "name": "token",
          "type": "address"
        }
      ],
      "name": "moveToken",
      "outputs": [
        {
          "name": "",
          "type": "bool"
        }
      ],
      "payable": false,
      "stateMutability": "nonpayable",
      "type": "function"
    },
    {
      "constant": false,
      "inputs": [
        {
          "name": "amount",
          "type": "uint256"
        },
        {
          "name": "_to",
          "type": "address"
        },
        {
          "name": "token",
          "type": "address"
        }
      ],
      "name": "approveToken",
      "outputs": [
        {
          "name": "",
          "type": "bool"
        }
      ],
      "payable": false,
      "stateMutability": "nonpayable",
      "type": "function"
    },
    {
      "constant": false,
      "inputs": [
        {
          "name": "movesHash",
          "type": "bytes32"
        },
        {
          "name": "stake",
          "type": "uint256"
        }
      ],
      "name": "setStake",
      "outputs": [],
      "payable": false,
      "stateMutability": "nonpayable",
      "type": "function"
    },
    {
      "constant": false,
      "inputs": [
        {
          "name": "movesHash",
          "type": "bytes32"
        },
        {
          "name": "commiter",
          "type": "address"
        }
      ],
      "name": "setCommit",
      "outputs": [],
      "payable": false,
      "stateMutability": "nonpayable",
      "type": "function"
    },
    {
      "constant": false,
      "inputs": [
        {
          "name": "_tokenId",
          "type": "uint256"
        },
        {
          "name": "value",
          "type": "uint256"
        }
      ],
      "name": "setBlockMinted",
      "outputs": [],
      "payable": false,
      "stateMutability": "nonpayable",
      "type": "function"
    },
    {
      "constant": false,
      "inputs": [
        {
          "name": "_tokenId",
          "type": "uint256"
        },
        {
          "name": "moves",
          "type": "bytes28[2]"
        }
      ],
      "name": "setCloverMoves",
      "outputs": [],
      "payable": false,
      "stateMutability": "nonpayable",
      "type": "function"
    },
    {
      "constant": false,
      "inputs": [
        {
          "name": "_tokenId",
          "type": "uint256"
        },
        {
          "name": "_amount",
          "type": "uint256"
        }
      ],
      "name": "setReward",
      "outputs": [],
      "payable": false,
      "stateMutability": "nonpayable",
      "type": "function"
    },
    {
      "constant": false,
      "inputs": [
        {
          "name": "_tokenId",
          "type": "uint256"
        },
        {
          "name": "_symmetries",
          "type": "uint256"
        }
      ],
      "name": "setSymmetries",
      "outputs": [],
      "payable": false,
      "stateMutability": "nonpayable",
      "type": "function"
    },
    {
      "constant": false,
      "inputs": [
        {
          "name": "_totalSymmetries",
          "type": "uint256"
        },
        {
          "name": "RotSym",
          "type": "uint256"
        },
        {
          "name": "Y0Sym",
          "type": "uint256"
        },
        {
          "name": "X0Sym",
          "type": "uint256"
        },
        {
          "name": "XYSym",
          "type": "uint256"
        },
        {
          "name": "XnYSym",
          "type": "uint256"
        }
      ],
      "name": "setAllSymmetries",
      "outputs": [],
      "payable": false,
      "stateMutability": "nonpayable",
      "type": "function"
    },
    {
      "constant": false,
      "inputs": [
        {
          "name": "_tokenId",
          "type": "uint256"
        }
      ],
      "name": "deleteClover",
      "outputs": [],
      "payable": false,
      "stateMutability": "nonpayable",
      "type": "function"
    },
    {
      "constant": false,
      "inputs": [
        {
          "name": "_cloversController",
          "type": "address"
        }
      ],
      "name": "updateCloversControllerAddress",
      "outputs": [],
      "payable": false,
      "stateMutability": "nonpayable",
      "type": "function"
    },
    {
      "constant": false,
      "inputs": [
        {
          "name": "_cloversMetadata",
          "type": "address"
        }
      ],
      "name": "updateCloversMetadataAddress",
      "outputs": [],
      "payable": false,
      "stateMutability": "nonpayable",
      "type": "function"
    },
    {
      "constant": false,
      "inputs": [
        {
          "name": "_to",
          "type": "address"
        },
        {
          "name": "_tokenId",
          "type": "uint256"
        }
      ],
      "name": "mint",
      "outputs": [],
      "payable": false,
      "stateMutability": "nonpayable",
      "type": "function"
    },
    {
      "constant": false,
      "inputs": [
        {
          "name": "_tokenId",
          "type": "uint256"
        }
      ],
      "name": "unmint",
      "outputs": [],
      "payable": false,
      "stateMutability": "nonpayable",
      "type": "function"
    }
  ],
  "bytecode": "0x606060405234156200001057600080fd5b604051620040a5380380620040a5833981016040526200003a9067800000000000000090620001c6565b8181816004908051906020019062000054929190620000b9565b5080600590805190602001906200006d929190620000b9565b50505033600b60006101000a81548173ffffffffffffffffffffffffffffffffffffffff021916908373ffffffffffffffffffffffffffffffffffffffff1602179055505050620002ca565b828054600181600116156101000203166002900490600052602060002090601f016020900481019282601f10620000fc57805160ff19168380011785556200012d565b828001600101855582156200012d579182015b828111156200012c5782518255916020019190600101906200010f565b5b5090506200013c919062000140565b5090565b6200016591905b808211156200016157600081600090555060010162000147565b5090565b90565b600082601f83011215156200017c57600080fd5b8151620001936200018d8262000267565b62000239565b91508082526020830160208301858383011115620001b057600080fd5b620001bd83828462000294565b50505092915050565b60008060408385031215620001da57600080fd5b600083015167ffffffffffffffff811115620001f557600080fd5b620002038582860162000168565b925050602083015167ffffffffffffffff8111156200022157600080fd5b6200022f8582860162000168565b9150509250929050565b6000604051905081810181811067ffffffffffffffff821117156200025d57600080fd5b8060405250919050565b600067ffffffffffffffff8211156200027f57600080fd5b601f19601f8301169050602081019050919050565b60005b83811015620002b457808201518184015260208101905062000297565b83811115620002c4576000848401525b50505050565b613dcb80620002da6000396000f300606060405260043610610225576000357c0100000000000000000000000000000000000000000000000000000000900463ffffffff16806303a53d6b1461022757806306fdde031461025d578063081812fc14610286578063095ea7b3146102bc5780630b628395146102de5780630e8310d6146103005780631732e9411461032257806318160ddd146103585780631c4b774b146103815780631cc1472d146103b75780631dbd9d91146103ed57806323b872dd1461040f5780632f745c59146104315780633541fd531461046757806340c10f191461048957806342842e0e146104ab57806347885781146104cd5780634e485f88146105035780634f558e79146105255780634f6ccce71461055b5780635c60da1b1461059157806362f9acf9146105ba5780636352211e146105f057806364e779b114610626578063708fa7f71461064857806370a0823114610680578063785d8d71146106b65780638784ea96146106e45780638a56a2261461071a5780638b1b2ba81461073c5780638da5cb5b1461075e5780638fee64071461078757806395d89b41146107bd578063a22cb465146107e6578063a47bd49614610808578063b7f8aa001461082a578063b88d4fde14610860578063c53b4bf914610882578063c87b56dd146108b8578063dc3f7758146108ee578063e3100d1e14610910578063e765c12214610932578063e985e9c514610968578063f2fde38b1461099e578063f760a4e2146109c0575b005b341561023257600080fd5b6102476004610242903690613754565b6109f6565b6040516102549190613aee565b60405180910390f35b341561026857600080fd5b610270610a16565b60405161027d9190613acc565b60405180910390f35b341561029157600080fd5b6102a660046102a1903690613754565b610abe565b6040516102b391906139de565b60405180910390f35b34156102c757600080fd5b6102dc60046102d790369061364e565b610afb565b005b34156102e957600080fd5b6102fe60046102f99036906137cc565b610cc1565b005b341561030b57600080fd5b610320600461031b903690613754565b610d9f565b005b341561032d57600080fd5b610342600461033d90369061368a565b610e94565b60405161034f9190613a96565b60405180910390f35b341561036357600080fd5b61036b610edb565b6040516103789190613aee565b60405180910390f35b341561038c57600080fd5b6103a1600461039c903690613754565b610ee8565b6040516103ae9190613aee565b60405180910390f35b34156103c257600080fd5b6103d760046103d290369061364e565b610f08565b6040516103e49190613a7b565b60405180910390f35b34156103f857600080fd5b61040d60046104089036906136dc565b611021565b005b341561041a57600080fd5b61042f600461042a903690613548565b611133565b005b341561043c57600080fd5b610451600461044c90369061364e565b61124a565b60405161045e9190613aee565b60405180910390f35b341561047257600080fd5b6104876004610482903690613718565b6112c2565b005b341561049457600080fd5b6104a960046104a490369061364e565b61139a565b005b34156104b657600080fd5b6104cb60046104c6903690613548565b61145c565b005b34156104d857600080fd5b6104ed60046104e89036906136b3565b611494565b6040516104fa91906139de565b60405180910390f35b341561050e57600080fd5b610523600461051e9036906134e3565b6114c7565b005b341561053057600080fd5b6105456004610540903690613754565b61158d565b6040516105529190613a7b565b60405180910390f35b341561056657600080fd5b61057b6004610576903690613754565b6115fe565b6040516105889190613aee565b60405180910390f35b341561059c57600080fd5b6105a4611637565b6040516105b191906139de565b60405180910390f35b34156105c557600080fd5b6105da60046105d5903690613754565b611661565b6040516105e79190613a60565b60405180910390f35b34156105fb57600080fd5b610610600461060b903690613754565b6116da565b60405161061d91906139de565b60405180910390f35b341561063157600080fd5b6106466004610641903690613754565b611757565b005b341561065357600080fd5b6106686004610663903690613754565b611820565b60405161067793929190613b09565b60405180910390f35b341561068b57600080fd5b6106a0600461069b9036906134e3565b61184a565b6040516106ad9190613aee565b60405180910390f35b34156106c157600080fd5b6106c96118ce565b6040516106db96959493929190613b40565b60405180910390f35b34156106ef57600080fd5b61070460046106ff9036906136b3565b611948565b60405161071191906139de565b60405180910390f35b341561072557600080fd5b61073a60046107359036906134e3565b61198d565b005b341561074757600080fd5b61075c6004610757903690613844565b611a53565b005b341561076957600080fd5b610771611b84565b60405161077e91906139de565b60405180910390f35b341561079257600080fd5b6107a760046107a29036906136b3565b611baa565b6040516107b49190613aee565b60405180910390f35b34156107c857600080fd5b6107d0611bc2565b6040516107dd9190613acc565b60405180910390f35b34156107f157600080fd5b6108066004610801903690613612565b611c6a565b005b341561081357600080fd5b6108286004610823903690613808565b611da2565b005b341561083557600080fd5b61084a600461084590369061377d565b611e75565b6040516108579190613a7b565b60405180910390f35b341561086b57600080fd5b610880600461087b903690613597565b611fbb565b005b341561088d57600080fd5b6108a2600461089d903690613754565b611ffa565b6040516108af9190613aee565b60405180910390f35b34156108c357600080fd5b6108d860046108d3903690613754565b61201a565b6040516108e59190613acc565b60405180910390f35b34156108f957600080fd5b61090e6004610909903690613808565b612092565b005b341561091b57600080fd5b610930600461092b903690613808565b612165565b005b341561093d57600080fd5b610952600461094d9036906136b3565b612238565b60405161095f9190613aee565b60405180910390f35b341561097357600080fd5b610988600461098390369061350c565b61225d565b6040516109959190613a7b565b60405180910390f35b34156109a957600080fd5b6109be60046109b99036906134e3565b6122f1565b005b34156109cb57600080fd5b6109e060046109db90369061377d565b612449565b6040516109ed9190613a7b565b60405180910390f35b600060146000838152602001908152602001600020600301549050919050565b610a1e6131c8565b60048054600181600116156101000203166002900480601f016020809104026020016040519081016040528092919081815260200182805460018160011615610100020316600290048015610ab45780601f10610a8957610100808354040283529160200191610ab4565b820191906000526020600020905b815481529060010190602001808311610a9757829003601f168201915b5050505050905090565b60006001600083815260200190815260200160002060009054906101000a900473ffffffffffffffffffffffffffffffffffffffff169050919050565b6000610b06826116da565b90508073ffffffffffffffffffffffffffffffffffffffff168373ffffffffffffffffffffffffffffffffffffffff1614151515610b4357600080fd5b8073ffffffffffffffffffffffffffffffffffffffff163373ffffffffffffffffffffffffffffffffffffffff161480610b835750610b82813361225d565b5b1515610b8e57600080fd5b600073ffffffffffffffffffffffffffffffffffffffff16610baf83610abe565b73ffffffffffffffffffffffffffffffffffffffff16141580610bff5750600073ffffffffffffffffffffffffffffffffffffffff168373ffffffffffffffffffffffffffffffffffffffff1614155b15610cbc57826001600084815260200190815260200160002060006101000a81548173ffffffffffffffffffffffffffffffffffffffff021916908373ffffffffffffffffffffffffffffffffffffffff1602179055508273ffffffffffffffffffffffffffffffffffffffff168173ffffffffffffffffffffffffffffffffffffffff167f8c5be1e5ebec7d5bd14f71427d1e84f3dd0314c0f7b2291e5b200ac8c7c3b92584604051610cb39190613aee565b60405180910390a35b505050565b601360009054906101000a900473ffffffffffffffffffffffffffffffffffffffff1673ffffffffffffffffffffffffffffffffffffffff163373ffffffffffffffffffffffffffffffffffffffff161480610d6a5750600b60009054906101000a900473ffffffffffffffffffffffffffffffffffffffff1673ffffffffffffffffffffffffffffffffffffffff163373ffffffffffffffffffffffffffffffffffffffff16145b1515610d7557600080fd5b8060146000848152602001908152602001600020600101906002610d9a9291906131dc565b505050565b601360009054906101000a900473ffffffffffffffffffffffffffffffffffffffff1673ffffffffffffffffffffffffffffffffffffffff163373ffffffffffffffffffffffffffffffffffffffff161480610e485750600b60009054906101000a900473ffffffffffffffffffffffffffffffffffffffff1673ffffffffffffffffffffffffffffffffffffffff163373ffffffffffffffffffffffffffffffffffffffff16145b1515610e5357600080fd5b60146000828152602001908152602001600020600080820160009055600182016000610e7f9190613253565b60038201600090556004820160009055505050565b6000816040518082600260200280838360005b83811015610ec2578082015181840152602081019050610ea7565b5050505090500191505060405180910390209050919050565b6000600880549050905090565b600060146000838152602001908152602001600020600401549050919050565b6000601360009054906101000a900473ffffffffffffffffffffffffffffffffffffffff1673ffffffffffffffffffffffffffffffffffffffff163373ffffffffffffffffffffffffffffffffffffffff161480610fb35750600b60009054906101000a900473ffffffffffffffffffffffffffffffffffffffff1673ffffffffffffffffffffffffffffffffffffffff163373ffffffffffffffffffffffffffffffffffffffff16145b1515610fbe57600080fd5b3073ffffffffffffffffffffffffffffffffffffffff16318211151515610fe457600080fd5b8273ffffffffffffffffffffffffffffffffffffffff166108fc839081150290604051600060405180830381858888f19350505050905092915050565b601360009054906101000a900473ffffffffffffffffffffffffffffffffffffffff1673ffffffffffffffffffffffffffffffffffffffff163373ffffffffffffffffffffffffffffffffffffffff1614806110ca5750600b60009054906101000a900473ffffffffffffffffffffffffffffffffffffffff1673ffffffffffffffffffffffffffffffffffffffff163373ffffffffffffffffffffffffffffffffffffffff16145b15156110d557600080fd5b8060156000846000191660001916815260200190815260200160002060006101000a81548173ffffffffffffffffffffffffffffffffffffffff021916908373ffffffffffffffffffffffffffffffffffffffff1602179055505050565b8061113e3382612622565b151561114957600080fd5b600073ffffffffffffffffffffffffffffffffffffffff168473ffffffffffffffffffffffffffffffffffffffff161415151561118557600080fd5b600073ffffffffffffffffffffffffffffffffffffffff168373ffffffffffffffffffffffffffffffffffffffff16141515156111c157600080fd5b6111cb84836126b7565b6111d58483612820565b6111df8383612a3b565b8273ffffffffffffffffffffffffffffffffffffffff168473ffffffffffffffffffffffffffffffffffffffff167fddf252ad1be2c89b69c2b068fc378daa952ba7f163c4a11628f55a4df523b3ef8460405161123c9190613aee565b60405180910390a350505050565b60006112558361184a565b8210151561126257600080fd5b600660008473ffffffffffffffffffffffffffffffffffffffff1673ffffffffffffffffffffffffffffffffffffffff168152602001908152602001600020828154811015156112ae57fe5b906000526020600020900154905092915050565b601360009054906101000a900473ffffffffffffffffffffffffffffffffffffffff1673ffffffffffffffffffffffffffffffffffffffff163373ffffffffffffffffffffffffffffffffffffffff16148061136b5750600b60009054906101000a900473ffffffffffffffffffffffffffffffffffffffff1673ffffffffffffffffffffffffffffffffffffffff163373ffffffffffffffffffffffffffffffffffffffff16145b151561137657600080fd5b80601660008460001916600019168152602001908152602001600020819055505050565b601360009054906101000a900473ffffffffffffffffffffffffffffffffffffffff1673ffffffffffffffffffffffffffffffffffffffff163373ffffffffffffffffffffffffffffffffffffffff1614806114435750600b60009054906101000a900473ffffffffffffffffffffffffffffffffffffffff1673ffffffffffffffffffffffffffffffffffffffff163373ffffffffffffffffffffffffffffffffffffffff16145b151561144e57600080fd5b6114588282612b0f565b5050565b806114673382612622565b151561147257600080fd5b61148e8484846020604051908101604052806000815250611fbb565b50505050565b60156020528060005260406000206000915054906101000a900473ffffffffffffffffffffffffffffffffffffffff1681565b600b60009054906101000a900473ffffffffffffffffffffffffffffffffffffffff1673ffffffffffffffffffffffffffffffffffffffff163373ffffffffffffffffffffffffffffffffffffffff1614151561152357600080fd5b60008173ffffffffffffffffffffffffffffffffffffffff161415151561154957600080fd5b80600c60006101000a81548173ffffffffffffffffffffffffffffffffffffffff021916908373ffffffffffffffffffffffffffffffffffffffff16021790555050565b60008060008084815260200190815260200160002060009054906101000a900473ffffffffffffffffffffffffffffffffffffffff169050600073ffffffffffffffffffffffffffffffffffffffff168173ffffffffffffffffffffffffffffffffffffffff161415915050919050565b6000611608610edb565b8210151561161557600080fd5b60088281548110151561162457fe5b9060005260206000209001549050919050565b6000600c60009054906101000a900473ffffffffffffffffffffffffffffffffffffffff16905090565b611669613261565b601460008381526020019081526020016000206001016002806020026040519081016040528092919082600280156116ce576020028201915b8160009054906101000a90046401000000000263ffffffff1916815260200190600101908083116116a2575b50505050509050919050565b60008060008084815260200190815260200160002060009054906101000a900473ffffffffffffffffffffffffffffffffffffffff169050600073ffffffffffffffffffffffffffffffffffffffff168173ffffffffffffffffffffffffffffffffffffffff161415151561174e57600080fd5b80915050919050565b601360009054906101000a900473ffffffffffffffffffffffffffffffffffffffff1673ffffffffffffffffffffffffffffffffffffffff163373ffffffffffffffffffffffffffffffffffffffff1614806118005750600b60009054906101000a900473ffffffffffffffffffffffffffffffffffffffff1673ffffffffffffffffffffffffffffffffffffffff163373ffffffffffffffffffffffffffffffffffffffff16145b151561180b57600080fd5b61181d611817826116da565b82612b63565b50565b60146020528060005260406000206000915090508060000154908060030154908060040154905083565b60008073ffffffffffffffffffffffffffffffffffffffff168273ffffffffffffffffffffffffffffffffffffffff161415151561188757600080fd5b600260008373ffffffffffffffffffffffffffffffffffffffff1673ffffffffffffffffffffffffffffffffffffffff168152602001908152602001600020549050919050565b600080600080600080600d54600e60006005811015156118ea57fe5b0154600e60016005811015156118fc57fe5b0154600e600260058110151561190e57fe5b0154600e600360058110151561192057fe5b0154600e600460058110151561193257fe5b0154955095509550955095509550909192939495565b600060156000836000191660001916815260200190815260200160002060009054906101000a900473ffffffffffffffffffffffffffffffffffffffff169050919050565b600b60009054906101000a900473ffffffffffffffffffffffffffffffffffffffff1673ffffffffffffffffffffffffffffffffffffffff163373ffffffffffffffffffffffffffffffffffffffff161415156119e957600080fd5b60008173ffffffffffffffffffffffffffffffffffffffff1614151515611a0f57600080fd5b80601360006101000a81548173ffffffffffffffffffffffffffffffffffffffff021916908373ffffffffffffffffffffffffffffffffffffffff16021790555050565b601360009054906101000a900473ffffffffffffffffffffffffffffffffffffffff1673ffffffffffffffffffffffffffffffffffffffff163373ffffffffffffffffffffffffffffffffffffffff161480611afc5750600b60009054906101000a900473ffffffffffffffffffffffffffffffffffffffff1673ffffffffffffffffffffffffffffffffffffffff163373ffffffffffffffffffffffffffffffffffffffff16145b1515611b0757600080fd5b85600d8190555084600e6000600581101515611b1f57fe5b018190555083600e6001600581101515611b3557fe5b018190555082600e6002600581101515611b4b57fe5b018190555081600e6003600581101515611b6157fe5b018190555080600e6004600581101515611b7757fe5b0181905550505050505050565b600b60009054906101000a900473ffffffffffffffffffffffffffffffffffffffff1681565b60166020528060005260406000206000915090505481565b611bca6131c8565b60058054600181600116156101000203166002900480601f016020809104026020016040519081016040528092919081815260200182805460018160011615610100020316600290048015611c605780601f10611c3557610100808354040283529160200191611c60565b820191906000526020600020905b815481529060010190602001808311611c4357829003601f168201915b5050505050905090565b3373ffffffffffffffffffffffffffffffffffffffff168273ffffffffffffffffffffffffffffffffffffffff1614151515611ca557600080fd5b80600360003373ffffffffffffffffffffffffffffffffffffffff1673ffffffffffffffffffffffffffffffffffffffff16815260200190815260200160002060008473ffffffffffffffffffffffffffffffffffffffff1673ffffffffffffffffffffffffffffffffffffffff16815260200190815260200160002060006101000a81548160ff0219169083151502179055508173ffffffffffffffffffffffffffffffffffffffff163373ffffffffffffffffffffffffffffffffffffffff167f17307eab39ab6107e8899845ad3d59bd9653f200f220920489ca2b5937696c3183604051611d969190613a7b565b60405180910390a35050565b601360009054906101000a900473ffffffffffffffffffffffffffffffffffffffff1673ffffffffffffffffffffffffffffffffffffffff163373ffffffffffffffffffffffffffffffffffffffff161480611e4b5750600b60009054906101000a900473ffffffffffffffffffffffffffffffffffffffff1673ffffffffffffffffffffffffffffffffffffffff163373ffffffffffffffffffffffffffffffffffffffff16145b1515611e5657600080fd5b8060146000848152602001908152602001600020600401819055505050565b6000601360009054906101000a900473ffffffffffffffffffffffffffffffffffffffff1673ffffffffffffffffffffffffffffffffffffffff163373ffffffffffffffffffffffffffffffffffffffff161480611f205750600b60009054906101000a900473ffffffffffffffffffffffffffffffffffffffff1673ffffffffffffffffffffffffffffffffffffffff163373ffffffffffffffffffffffffffffffffffffffff16145b1515611f2b57600080fd5b8173ffffffffffffffffffffffffffffffffffffffff1663095ea7b384866040518363ffffffff167c0100000000000000000000000000000000000000000000000000000000028152600401611f829291906139f9565b602060405180830381600087803b1515611f9b57600080fd5b5af11515611fa857600080fd5b5050506040518051905090509392505050565b81611fc63382612622565b1515611fd157600080fd5b611fdc858585611133565b611fe885858585612c9e565b1515611ff357600080fd5b5050505050565b600060146000838152602001908152602001600020600001549050919050565b6120226131c8565b600061202c61328f565b612034611637565b91506000368080601f0160208091040260200160405190810160405280939291908181526020018383808284378201915050505050509050600080825160208401855af43d604051816000823e826000811461208e578282f35b8282fd5b601360009054906101000a900473ffffffffffffffffffffffffffffffffffffffff1673ffffffffffffffffffffffffffffffffffffffff163373ffffffffffffffffffffffffffffffffffffffff16148061213b5750600b60009054906101000a900473ffffffffffffffffffffffffffffffffffffffff1673ffffffffffffffffffffffffffffffffffffffff163373ffffffffffffffffffffffffffffffffffffffff16145b151561214657600080fd5b8060146000848152602001908152602001600020600001819055505050565b601360009054906101000a900473ffffffffffffffffffffffffffffffffffffffff1673ffffffffffffffffffffffffffffffffffffffff163373ffffffffffffffffffffffffffffffffffffffff16148061220e5750600b60009054906101000a900473ffffffffffffffffffffffffffffffffffffffff1673ffffffffffffffffffffffffffffffffffffffff163373ffffffffffffffffffffffffffffffffffffffff16145b151561221957600080fd5b8060146000848152602001908152602001600020600301819055505050565b6000601660008360001916600019168152602001908152602001600020549050919050565b6000600360008473ffffffffffffffffffffffffffffffffffffffff1673ffffffffffffffffffffffffffffffffffffffff16815260200190815260200160002060008373ffffffffffffffffffffffffffffffffffffffff1673ffffffffffffffffffffffffffffffffffffffff16815260200190815260200160002060009054906101000a900460ff16905092915050565b600b60009054906101000a900473ffffffffffffffffffffffffffffffffffffffff1673ffffffffffffffffffffffffffffffffffffffff163373ffffffffffffffffffffffffffffffffffffffff1614151561234d57600080fd5b600073ffffffffffffffffffffffffffffffffffffffff168173ffffffffffffffffffffffffffffffffffffffff161415151561238957600080fd5b8073ffffffffffffffffffffffffffffffffffffffff16600b60009054906101000a900473ffffffffffffffffffffffffffffffffffffffff1673ffffffffffffffffffffffffffffffffffffffff167f8be0079c531659141344cd1fd0a4f28419497f9722a3daafe3b4186f6b6457e060405160405180910390a380600b60006101000a81548173ffffffffffffffffffffffffffffffffffffffff021916908373ffffffffffffffffffffffffffffffffffffffff16021790555050565b6000601360009054906101000a900473ffffffffffffffffffffffffffffffffffffffff1673ffffffffffffffffffffffffffffffffffffffff163373ffffffffffffffffffffffffffffffffffffffff1614806124f45750600b60009054906101000a900473ffffffffffffffffffffffffffffffffffffffff1673ffffffffffffffffffffffffffffffffffffffff163373ffffffffffffffffffffffffffffffffffffffff16145b15156124ff57600080fd5b8173ffffffffffffffffffffffffffffffffffffffff166370a08231306040518263ffffffff167c01000000000000000000000000000000000000000000000000000000000281526004016125549190613ab1565b602060405180830381600087803b151561256d57600080fd5b5af1151561257a57600080fd5b50505060405180519050841115151561259257600080fd5b8173ffffffffffffffffffffffffffffffffffffffff1663a9059cbb84866040518363ffffffff167c01000000000000000000000000000000000000000000000000000000000281526004016125e99291906139f9565b602060405180830381600087803b151561260257600080fd5b5af1151561260f57600080fd5b5050506040518051905090509392505050565b60008061262e836116da565b90508073ffffffffffffffffffffffffffffffffffffffff168473ffffffffffffffffffffffffffffffffffffffff16148061269d57508373ffffffffffffffffffffffffffffffffffffffff1661268584610abe565b73ffffffffffffffffffffffffffffffffffffffff16145b806126ae57506126ad818561225d565b5b91505092915050565b8173ffffffffffffffffffffffffffffffffffffffff166126d7826116da565b73ffffffffffffffffffffffffffffffffffffffff161415156126f957600080fd5b600073ffffffffffffffffffffffffffffffffffffffff166001600083815260200190815260200160002060009054906101000a900473ffffffffffffffffffffffffffffffffffffffff1673ffffffffffffffffffffffffffffffffffffffff1614151561281c5760006001600083815260200190815260200160002060006101000a81548173ffffffffffffffffffffffffffffffffffffffff021916908373ffffffffffffffffffffffffffffffffffffffff160217905550600073ffffffffffffffffffffffffffffffffffffffff168273ffffffffffffffffffffffffffffffffffffffff167f8c5be1e5ebec7d5bd14f71427d1e84f3dd0314c0f7b2291e5b200ac8c7c3b925836040516128139190613aee565b60405180910390a35b5050565b600080600061282f8585612dca565b6007600085815260200190815260200160002054925061289b6001600660008873ffffffffffffffffffffffffffffffffffffffff1673ffffffffffffffffffffffffffffffffffffffff16815260200190815260200160002080549050612ef890919063ffffffff16565b9150600660008673ffffffffffffffffffffffffffffffffffffffff1673ffffffffffffffffffffffffffffffffffffffff168152602001908152602001600020828154811015156128e957fe5b906000526020600020900154905080600660008773ffffffffffffffffffffffffffffffffffffffff1673ffffffffffffffffffffffffffffffffffffffff1681526020019081526020016000208481548110151561294457fe5b9060005260206000209001819055506000600660008773ffffffffffffffffffffffffffffffffffffffff1673ffffffffffffffffffffffffffffffffffffffff168152602001908152602001600020838154811015156129a157fe5b906000526020600020900181905550600660008673ffffffffffffffffffffffffffffffffffffffff1673ffffffffffffffffffffffffffffffffffffffff168152602001908152602001600020805480919060019003612a0291906132a3565b50600060076000868152602001908152602001600020819055508260076000838152602001908152602001600020819055505050505050565b6000612a478383612f11565b600660008473ffffffffffffffffffffffffffffffffffffffff1673ffffffffffffffffffffffffffffffffffffffff168152602001908152602001600020805490509050600660008473ffffffffffffffffffffffffffffffffffffffff1673ffffffffffffffffffffffffffffffffffffffff1681526020019081526020016000208054806001018281612add91906132cf565b916000526020600020900160008490919091505550806007600084815260200190815260200160002081905550505050565b612b198282613069565b600880549050600960008381526020019081526020016000208190555060088054806001018281612b4a91906132cf565b9160005260206000209001600083909190915055505050565b6000806000612b728585613119565b6000600a6000868152602001908152602001600020805460018160011615610100020316600290049050141515612bc357600a60008581526020019081526020016000206000612bc291906132fb565b5b60096000858152602001908152602001600020549250612bf26001600880549050612ef890919063ffffffff16565b9150600882815481101515612c0357fe5b906000526020600020900154905080600884815481101515612c2157fe5b9060005260206000209001819055506000600883815481101515612c4157fe5b9060005260206000209001819055506008805480919060019003612c6591906132a3565b50600060096000868152602001908152602001600020819055508260096000838152602001908152602001600020819055505050505050565b600080612cc08573ffffffffffffffffffffffffffffffffffffffff16613197565b1515612ccf5760019150612dc1565b8473ffffffffffffffffffffffffffffffffffffffff1663f0b9e5ba8786866040518463ffffffff167c0100000000000000000000000000000000000000000000000000000000028152600401612d2893929190613a22565b602060405180830381600087803b1515612d4157600080fd5b5af11515612d4e57600080fd5b50505060405180519050905063f0b9e5ba7c0100000000000000000000000000000000000000000000000000000000027bffffffffffffffffffffffffffffffffffffffffffffffffffffffff1916817bffffffffffffffffffffffffffffffffffffffffffffffffffffffff19161491505b50949350505050565b8173ffffffffffffffffffffffffffffffffffffffff16612dea826116da565b73ffffffffffffffffffffffffffffffffffffffff16141515612e0c57600080fd5b612e5f6001600260008573ffffffffffffffffffffffffffffffffffffffff1673ffffffffffffffffffffffffffffffffffffffff16815260200190815260200160002054612ef890919063ffffffff16565b600260008473ffffffffffffffffffffffffffffffffffffffff1673ffffffffffffffffffffffffffffffffffffffff16815260200190815260200160002081905550600080600083815260200190815260200160002060006101000a81548173ffffffffffffffffffffffffffffffffffffffff021916908373ffffffffffffffffffffffffffffffffffffffff1602179055505050565b6000828211151515612f0657fe5b818303905092915050565b600073ffffffffffffffffffffffffffffffffffffffff1660008083815260200190815260200160002060009054906101000a900473ffffffffffffffffffffffffffffffffffffffff1673ffffffffffffffffffffffffffffffffffffffff16141515612f7e57600080fd5b8160008083815260200190815260200160002060006101000a81548173ffffffffffffffffffffffffffffffffffffffff021916908373ffffffffffffffffffffffffffffffffffffffff1602179055506130226001600260008573ffffffffffffffffffffffffffffffffffffffff1673ffffffffffffffffffffffffffffffffffffffff168152602001908152602001600020546131aa90919063ffffffff16565b600260008473ffffffffffffffffffffffffffffffffffffffff1673ffffffffffffffffffffffffffffffffffffffff168152602001908152602001600020819055505050565b600073ffffffffffffffffffffffffffffffffffffffff168273ffffffffffffffffffffffffffffffffffffffff16141515156130a557600080fd5b6130af8282612a3b565b8173ffffffffffffffffffffffffffffffffffffffff16600073ffffffffffffffffffffffffffffffffffffffff167fddf252ad1be2c89b69c2b068fc378daa952ba7f163c4a11628f55a4df523b3ef8360405161310d9190613aee565b60405180910390a35050565b61312382826126b7565b61312d8282612820565b600073ffffffffffffffffffffffffffffffffffffffff168273ffffffffffffffffffffffffffffffffffffffff167fddf252ad1be2c89b69c2b068fc378daa952ba7f163c4a11628f55a4df523b3ef8360405161318b9190613aee565b60405180910390a35050565b600080823b905060008111915050919050565b60008082840190508381101515156131be57fe5b8091505092915050565b602060405190810160405280600081525090565b8260028101928215613242579160200282015b828111156132415782518260006101000a8154817bffffffffffffffffffffffffffffffffffffffffffffffffffffffff021916908364010000000090040217905550916020019190600101906131ef565b5b50905061324f9190613343565b5090565b506000815560010160009055565b60408051908101604052806002905b600063ffffffff19168152602001906001900390816132705790505090565b602060405190810160405280600081525090565b8154818355818115116132ca578183600052602060002091820191016132c9919061338e565b5b505050565b8154818355818115116132f6578183600052602060002091820191016132f5919061338e565b5b505050565b50805460018160011615610100020316600290046000825580601f106133215750613340565b601f01602090049060005260206000209081019061333f919061338e565b5b50565b61338b91905b8082111561338757600081816101000a8154907bffffffffffffffffffffffffffffffffffffffffffffffffffffffff021916905550600101613349565b5090565b90565b6133b091905b808211156133ac576000816000905550600101613394565b5090565b90565b60006133bf8235613cc0565b905092915050565b600082601f83011215156133da57600080fd5b60026133ed6133e882613bce565b613ba1565b9150818385602084028201111561340357600080fd5b60005b8381101561343357816134198882613451565b845260208401935060208301925050600181019050613406565b5050505092915050565b60006134498235613ce0565b905092915050565b600061345d8235613cec565b905092915050565b60006134718235613d18565b905092915050565b600082601f830112151561348c57600080fd5b813561349f61349a82613bf0565b613ba1565b915080825260208301602083018583830111156134bb57600080fd5b6134c6838284613d3e565b50505092915050565b60006134db8235613d22565b905092915050565b6000602082840312156134f557600080fd5b6000613503848285016133b3565b91505092915050565b6000806040838503121561351f57600080fd5b600061352d858286016133b3565b925050602061353e858286016133b3565b9150509250929050565b60008060006060848603121561355d57600080fd5b600061356b868287016133b3565b935050602061357c868287016133b3565b925050604061358d868287016134cf565b9150509250925092565b600080600080608085870312156135ad57600080fd5b60006135bb878288016133b3565b94505060206135cc878288016133b3565b93505060406135dd878288016134cf565b925050606085013567ffffffffffffffff8111156135fa57600080fd5b61360687828801613479565b91505092959194509250565b6000806040838503121561362557600080fd5b6000613633858286016133b3565b92505060206136448582860161343d565b9150509250929050565b6000806040838503121561366157600080fd5b600061366f858286016133b3565b9250506020613680858286016134cf565b9150509250929050565b60006040828403121561369c57600080fd5b60006136aa848285016133c7565b91505092915050565b6000602082840312156136c557600080fd5b60006136d384828501613465565b91505092915050565b600080604083850312156136ef57600080fd5b60006136fd85828601613465565b925050602061370e858286016133b3565b9150509250929050565b6000806040838503121561372b57600080fd5b600061373985828601613465565b925050602061374a858286016134cf565b9150509250929050565b60006020828403121561376657600080fd5b6000613774848285016134cf565b91505092915050565b60008060006060848603121561379257600080fd5b60006137a0868287016134cf565b93505060206137b1868287016133b3565b92505060406137c2868287016133b3565b9150509250925092565b600080606083850312156137df57600080fd5b60006137ed858286016134cf565b92505060206137fe858286016133c7565b9150509250929050565b6000806040838503121561381b57600080fd5b6000613829858286016134cf565b925050602061383a858286016134cf565b9150509250929050565b60008060008060008060c0878903121561385d57600080fd5b600061386b89828a016134cf565b965050602061387c89828a016134cf565b955050604061388d89828a016134cf565b945050606061389e89828a016134cf565b93505060806138af89828a016134cf565b92505060a06138c089828a016134cf565b9150509295509295509295565b6138d681613c54565b82525050565b6138e581613c26565b6138ee82613c1c565b60005b8281101561392057613904858351613936565b61390d82613c47565b91506020850194506001810190506138f1565b5050505050565b61393081613c74565b82525050565b61393f81613c80565b82525050565b61394e81613cac565b82525050565b600061395f82613c31565b808452613973816020860160208601613d4d565b61397c81613d80565b602085010191505092915050565b61399381613d2c565b82525050565b60006139a482613c3c565b8084526139b8816020860160208601613d4d565b6139c181613d80565b602085010191505092915050565b6139d881613cb6565b82525050565b60006020820190506139f360008301846138cd565b92915050565b6000604082019050613a0e60008301856138cd565b613a1b60208301846139cf565b9392505050565b6000606082019050613a3760008301866138cd565b613a4460208301856139cf565b8181036040830152613a568184613954565b9050949350505050565b6000604082019050613a7560008301846138dc565b92915050565b6000602082019050613a906000830184613927565b92915050565b6000602082019050613aab6000830184613945565b92915050565b6000602082019050613ac6600083018461398a565b92915050565b60006020820190508181036000830152613ae68184613999565b905092915050565b6000602082019050613b0360008301846139cf565b92915050565b6000606082019050613b1e60008301866139cf565b613b2b60208301856139cf565b613b3860408301846139cf565b949350505050565b600060c082019050613b5560008301896139cf565b613b6260208301886139cf565b613b6f60408301876139cf565b613b7c60608301866139cf565b613b8960808301856139cf565b613b9660a08301846139cf565b979650505050505050565b6000604051905081810181811067ffffffffffffffff82111715613bc457600080fd5b8060405250919050565b600067ffffffffffffffff821115613be557600080fd5b602082029050919050565b600067ffffffffffffffff821115613c0757600080fd5b601f19601f8301169050602081019050919050565b6000819050919050565b600060029050919050565b600081519050919050565b600081519050919050565b6000602082019050919050565b600073ffffffffffffffffffffffffffffffffffffffff82169050919050565b60008115159050919050565b60007fffffffffffffffffffffffffffffffffffffffffffffffffffffffff0000000082169050919050565b6000819050919050565b6000819050919050565b600073ffffffffffffffffffffffffffffffffffffffff82169050919050565b60008115159050919050565b60007fffffffffffffffffffffffffffffffffffffffffffffffffffffffff0000000082169050919050565b6000819050919050565b6000819050919050565b6000613d3782613c54565b9050919050565b82818337600083830152505050565b60005b83811015613d6b578082015181840152602081019050613d50565b83811115613d7a576000848401525b50505050565b6000601f19601f83011690509190505600a265627a7a72305820001378836bbe54cf2285d3889834d549a69cd18fbfe1746c9dfda76f56aa299b6c6578706572696d656e74616cf50037",
  "source": "pragma solidity ^0.4.18;\npragma experimental ABIEncoderV2;\n\n/**\n * Digital Asset Registry for the Non Fungible Token Clover\n * with upgradeable contract reference for returning metadata.\n */\n\nimport \"zeppelin-solidity/contracts/token/ERC20/ERC20.sol\";\n\nimport \"zeppelin-solidity/contracts/token/ERC721/ERC721Token.sol\";\nimport \"zeppelin-solidity/contracts/ownership/Ownable.sol\";\nimport \"./IClovers.sol\";\nimport \"./CloversMetadata.sol\";\n\n\ncontract Clovers is IClovers, ERC721Token, Ownable {\n\n    address private cloversMetadata;\n    uint256 totalSymmetries;\n    uint256[5] symmetries; // RotSym, Y0Sym, X0Sym, XYSym, XnYSym\n    address cloversController;\n\n    mapping (uint256 => Clover) public clovers;\n    struct Clover {\n        uint256 symmetries;\n        bytes28[2] cloverMoves;\n        uint256 blockMinted;\n        uint256 rewards;\n    }\n    mapping (bytes32 => address) public commits;\n    mapping (bytes32 => uint256) public stakes;\n\n    modifier onlyOwnerOrController() {\n        require(\n            msg.sender == cloversController ||\n            msg.sender == owner\n        );\n        _;\n    }\n\n    function Clovers (string name, string symbol) public\n        ERC721Token(name, symbol)\n    { }\n\n    function () public payable {}\n\n    function implementation() public view returns (address) {\n        return cloversMetadata;\n    }\n\n    function tokenURI(uint _tokenId) public view returns (string _infoUrl) {\n        // require(ownerOf(_tokenId) != 0);\n        address _impl = implementation();\n        bytes memory data = msg.data;\n        assembly {\n            let result := delegatecall(gas, _impl, add(data, 0x20), mload(data), 0, 0)\n            let size := returndatasize\n            let ptr := mload(0x40)\n            returndatacopy(ptr, 0, size)\n            switch result\n            case 0 { revert(ptr, size) }\n            default { return(ptr, size) }\n        }\n        // return CloversMetadata(cloversMetadata).tokenMetadata(_tokenId);\n    }\n    function getHash(bytes28[2] moves) public view returns (bytes32) {\n        return keccak256(moves);\n    }\n    function getStake(bytes32 movesHash) public view returns (uint256) {\n        return stakes[movesHash];\n    }\n    function getCommit(bytes32 movesHash) public view returns (address) {\n        return commits[movesHash];\n    }\n    function getBlockMinted(uint256 _tokenId) public view returns (uint256) {\n        return clovers[_tokenId].blockMinted;\n    }\n    function getCloverMoves(uint256 _tokenId) public view returns (bytes28[2]) {\n        return clovers[_tokenId].cloverMoves;\n    }\n    function getReward(uint256 _tokenId) public view returns (uint256) {\n        return clovers[_tokenId].rewards;\n    }\n    function getSymmetries(uint256 _tokenId) public view returns (uint256) {\n        return clovers[_tokenId].symmetries;\n    }\n    function getAllSymmetries() public view returns (uint256, uint256, uint256, uint256, uint256, uint256) {\n        return (\n            totalSymmetries,\n            symmetries[0], //RotSym,\n            symmetries[1], //Y0Sym,\n            symmetries[2], //X0Sym,\n            symmetries[3], //XYSym,\n            symmetries[4] //XnYSym\n        );\n    }\n\n/* ---------------------------------------------------------------------------------------------------------------------- */\n\n    function moveEth(address _to, uint256 amount) public onlyOwnerOrController returns (bool) {\n        require(amount <= this.balance);\n        return _to.send(amount);\n    }\n    function moveToken(uint256 amount, address _to, address token) public onlyOwnerOrController returns (bool) {\n        require(amount <= ERC20(token).balanceOf(this));\n        return ERC20(token).transfer(_to, amount);\n    }\n    function approveToken(uint256 amount, address _to, address token) public onlyOwnerOrController returns (bool) {\n        return ERC20(token).approve(_to, amount);\n    }\n\n    function setStake(bytes32 movesHash, uint256 stake) public onlyOwnerOrController {\n        stakes[movesHash] = stake;\n    }\n    function setCommit(bytes32 movesHash, address commiter) public onlyOwnerOrController {\n        commits[movesHash] = commiter;\n    }\n    function setBlockMinted(uint256 _tokenId, uint256 value) public onlyOwnerOrController {\n        clovers[_tokenId].blockMinted = value;\n    }\n    function setCloverMoves(uint256 _tokenId, bytes28[2] moves) public onlyOwnerOrController {\n        clovers[_tokenId].cloverMoves = moves;\n    }\n    function setReward(uint256 _tokenId, uint256 _amount) public onlyOwnerOrController {\n        clovers[_tokenId].rewards = _amount;\n    }\n    function setSymmetries(uint256 _tokenId, uint256 _symmetries) public onlyOwnerOrController {\n        clovers[_tokenId].symmetries = _symmetries;\n    }\n    function setAllSymmetries(uint256 _totalSymmetries, uint256 RotSym, uint256 Y0Sym, uint256 X0Sym, uint256 XYSym, uint256 XnYSym) public onlyOwnerOrController {\n        totalSymmetries = _totalSymmetries;\n        symmetries[0] = RotSym;\n        symmetries[1] = Y0Sym;\n        symmetries[2] = X0Sym;\n        symmetries[3] = XYSym;\n        symmetries[4] = XnYSym;\n    }\n    function deleteClover(uint256 _tokenId) public onlyOwnerOrController {\n        delete(clovers[_tokenId]);\n    }\n\n    function updateCloversControllerAddress(address _cloversController) public onlyOwner {\n        require(_cloversController != 0);\n        cloversController = _cloversController;\n    }\n    function updateCloversMetadataAddress(address _cloversMetadata) public onlyOwner {\n        require(_cloversMetadata != 0);\n        cloversMetadata = _cloversMetadata;\n    }\n\n    function mint (address _to, uint256 _tokenId) public onlyOwnerOrController {\n        super._mint(_to, _tokenId);\n    }\n    function unmint (uint256 _tokenId) public onlyOwnerOrController {\n        super._burn(ownerOf(_tokenId), _tokenId);\n        // address _owner = ownerOf(_tokenId); // needs to be changed from private to internal\n        // if (getApproved(_tokenId) != 0) {\n        //     tokenApprovals[_tokenId] = 0;\n        //     Approval(_owner, 0x0, _tokenId);\n        // }\n        // removeTokenFrom(_owner, _tokenId); // needs to be changed from private to internal\n        // Transfer(_owner, 0x0, _tokenId);\n    }\n\n}\n",
  "sourcePath": "/Users/billy/sol/clovers-contracts/contracts/Clovers.sol",
  "compiler": {
    "name": "solc",
    "version": "0.4.21+commit.dfe3193c.Emscripten.clang"
  },
  "schemaVersion": "2.0.0",
  "updatedAt": "2018-05-02T17:04:09.192Z"
}