{
  "contractName": "CloversController",
  "abi": [
    {
      "constant": true,
      "inputs": [],
      "name": "clovers",
      "outputs": [
        {
          "name": "",
          "type": "address"
        }
      ],
      "payable": false,
      "stateMutability": "view",
      "type": "function"
    },
    {
      "constant": false,
      "inputs": [
        {
          "name": "token",
          "type": "address"
        }
      ],
      "name": "reclaimToken",
      "outputs": [],
      "payable": false,
      "stateMutability": "nonpayable",
      "type": "function"
    },
    {
      "constant": true,
      "inputs": [],
      "name": "payMultiplier",
      "outputs": [
        {
          "name": "",
          "type": "uint256"
        }
      ],
      "payable": false,
      "stateMutability": "view",
      "type": "function"
    },
    {
      "constant": true,
      "inputs": [
        {
          "name": "",
          "type": "bytes32"
        }
      ],
      "name": "commits",
      "outputs": [
        {
          "name": "collected",
          "type": "bool"
        },
        {
          "name": "stake",
          "type": "uint256"
        },
        {
          "name": "committer",
          "type": "address"
        }
      ],
      "payable": false,
      "stateMutability": "view",
      "type": "function"
    },
    {
      "constant": true,
      "inputs": [],
      "name": "stakeAmount",
      "outputs": [
        {
          "name": "",
          "type": "uint256"
        }
      ],
      "payable": false,
      "stateMutability": "view",
      "type": "function"
    },
    {
      "constant": false,
      "inputs": [],
      "name": "renounceOwnership",
      "outputs": [],
      "payable": false,
      "stateMutability": "nonpayable",
      "type": "function"
    },
    {
      "constant": true,
      "inputs": [],
      "name": "oracle",
      "outputs": [
        {
          "name": "",
          "type": "address"
        }
      ],
      "payable": false,
      "stateMutability": "view",
      "type": "function"
    },
    {
      "constant": true,
      "inputs": [],
      "name": "owner",
      "outputs": [
        {
          "name": "",
          "type": "address"
        }
      ],
      "payable": false,
      "stateMutability": "view",
      "type": "function"
    },
    {
      "constant": true,
      "inputs": [],
      "name": "simpleCloversMarket",
      "outputs": [
        {
          "name": "",
          "type": "address"
        }
      ],
      "payable": false,
      "stateMutability": "view",
      "type": "function"
    },
    {
      "constant": false,
      "inputs": [],
      "name": "reclaimEther",
      "outputs": [],
      "payable": false,
      "stateMutability": "nonpayable",
      "type": "function"
    },
    {
      "constant": true,
      "inputs": [],
      "name": "clubTokenController",
      "outputs": [
        {
          "name": "",
          "type": "address"
        }
      ],
      "payable": false,
      "stateMutability": "view",
      "type": "function"
    },
    {
      "constant": false,
      "inputs": [
        {
          "name": "from_",
          "type": "address"
        },
        {
          "name": "value_",
          "type": "uint256"
        },
        {
          "name": "data_",
          "type": "bytes"
        }
      ],
      "name": "tokenFallback",
      "outputs": [],
      "payable": false,
      "stateMutability": "nonpayable",
      "type": "function"
    },
    {
      "constant": true,
      "inputs": [],
      "name": "stakePeriod",
      "outputs": [
        {
          "name": "",
          "type": "uint256"
        }
      ],
      "payable": false,
      "stateMutability": "view",
      "type": "function"
    },
    {
      "constant": true,
      "inputs": [],
      "name": "basePrice",
      "outputs": [
        {
          "name": "",
          "type": "uint256"
        }
      ],
      "payable": false,
      "stateMutability": "view",
      "type": "function"
    },
    {
      "constant": true,
      "inputs": [],
      "name": "priceMultiplier",
      "outputs": [
        {
          "name": "",
          "type": "uint256"
        }
      ],
      "payable": false,
      "stateMutability": "view",
      "type": "function"
    },
    {
      "constant": true,
      "inputs": [],
      "name": "clubToken",
      "outputs": [
        {
          "name": "",
          "type": "address"
        }
      ],
      "payable": false,
      "stateMutability": "view",
      "type": "function"
    },
    {
      "constant": false,
      "inputs": [
        {
          "name": "_newOwner",
          "type": "address"
        }
      ],
      "name": "transferOwnership",
      "outputs": [],
      "payable": false,
      "stateMutability": "nonpayable",
      "type": "function"
    },
    {
      "inputs": [
        {
          "name": "_clovers",
          "type": "address"
        },
        {
          "name": "_clubToken",
          "type": "address"
        },
        {
          "name": "_clubTokenController",
          "type": "address"
        }
      ],
      "payable": false,
      "stateMutability": "nonpayable",
      "type": "constructor"
    },
    {
      "payable": false,
      "stateMutability": "nonpayable",
      "type": "fallback"
    },
    {
      "anonymous": false,
      "inputs": [
        {
          "indexed": false,
          "name": "movesHash",
          "type": "bytes32"
        },
        {
          "indexed": false,
          "name": "owner",
          "type": "address"
        }
      ],
      "name": "cloverCommitted",
      "type": "event"
    },
    {
      "anonymous": false,
      "inputs": [
        {
          "indexed": false,
          "name": "moves",
          "type": "bytes28[2]"
        },
        {
          "indexed": false,
          "name": "tokenId",
          "type": "uint256"
        },
        {
          "indexed": false,
          "name": "owner",
          "type": "address"
        },
        {
          "indexed": false,
          "name": "stake",
          "type": "uint256"
        },
        {
          "indexed": false,
          "name": "reward",
          "type": "uint256"
        },
        {
          "indexed": false,
          "name": "symmetries",
          "type": "uint256"
        },
        {
          "indexed": false,
          "name": "keep",
          "type": "bool"
        }
      ],
      "name": "cloverClaimed",
      "type": "event"
    },
    {
      "anonymous": false,
      "inputs": [
        {
          "indexed": false,
          "name": "tokenId",
          "type": "uint256"
        },
        {
          "indexed": false,
          "name": "owner",
          "type": "address"
        },
        {
          "indexed": false,
          "name": "stake",
          "type": "uint256"
        }
      ],
      "name": "stakeRetrieved",
      "type": "event"
    },
    {
      "anonymous": false,
      "inputs": [
        {
          "indexed": false,
          "name": "moves",
          "type": "bytes28[2]"
        },
        {
          "indexed": false,
          "name": "tokenId",
          "type": "uint256"
        },
        {
          "indexed": false,
          "name": "owner",
          "type": "address"
        },
        {
          "indexed": false,
          "name": "challenger",
          "type": "address"
        },
        {
          "indexed": false,
          "name": "stake",
          "type": "uint256"
        }
      ],
      "name": "cloverChallenged",
      "type": "event"
    },
    {
      "anonymous": false,
      "inputs": [
        {
          "indexed": true,
          "name": "previousOwner",
          "type": "address"
        }
      ],
      "name": "OwnershipRenounced",
      "type": "event"
    },
    {
      "anonymous": false,
      "inputs": [
        {
          "indexed": true,
          "name": "previousOwner",
          "type": "address"
        },
        {
          "indexed": true,
          "name": "newOwner",
          "type": "address"
        }
      ],
      "name": "OwnershipTransferred",
      "type": "event"
    },
    {
      "constant": true,
      "inputs": [
        {
          "name": "movesHash",
          "type": "bytes32"
        }
      ],
      "name": "getStake",
      "outputs": [
        {
          "name": "",
          "type": "uint256"
        }
      ],
      "payable": false,
      "stateMutability": "view",
      "type": "function"
    },
    {
      "constant": true,
      "inputs": [
        {
          "name": "movesHash",
          "type": "bytes32"
        }
      ],
      "name": "getCommit",
      "outputs": [
        {
          "name": "",
          "type": "address"
        }
      ],
      "payable": false,
      "stateMutability": "view",
      "type": "function"
    },
    {
      "constant": true,
      "inputs": [
        {
          "name": "_tokenId",
          "type": "uint256"
        }
      ],
      "name": "getMovesHash",
      "outputs": [
        {
          "name": "",
          "type": "bytes32"
        }
      ],
      "payable": false,
      "stateMutability": "view",
      "type": "function"
    },
    {
      "constant": true,
      "inputs": [
        {
          "name": "moves",
          "type": "bytes28[2]"
        }
      ],
      "name": "isValid",
      "outputs": [
        {
          "name": "",
          "type": "bool"
        }
      ],
      "payable": false,
      "stateMutability": "view",
      "type": "function"
    },
    {
      "constant": true,
      "inputs": [
        {
          "components": [
            {
              "name": "error",
              "type": "bool"
            },
            {
              "name": "complete",
              "type": "bool"
            },
            {
              "name": "symmetrical",
              "type": "bool"
            },
            {
              "name": "RotSym",
              "type": "bool"
            },
            {
              "name": "Y0Sym",
              "type": "bool"
            },
            {
              "name": "X0Sym",
              "type": "bool"
            },
            {
              "name": "XYSym",
              "type": "bool"
            },
            {
              "name": "XnYSym",
              "type": "bool"
            },
            {
              "name": "board",
              "type": "bytes16"
            },
            {
              "name": "first32Moves",
              "type": "bytes28"
            },
            {
              "name": "lastMoves",
              "type": "bytes28"
            },
            {
              "name": "currentPlayer",
              "type": "uint8"
            },
            {
              "name": "moveKey",
              "type": "uint8"
            },
            {
              "name": "blackScore",
              "type": "uint8"
            },
            {
              "name": "whiteScore",
              "type": "uint8"
            }
          ],
          "name": "game",
          "type": "tuple"
        }
      ],
      "name": "isValidGame",
      "outputs": [
        {
          "name": "",
          "type": "bool"
        }
      ],
      "payable": false,
      "stateMutability": "pure",
      "type": "function"
    },
    {
      "constant": true,
      "inputs": [
        {
          "name": "_tokenId",
          "type": "uint256"
        }
      ],
      "name": "isVerified",
      "outputs": [
        {
          "name": "",
          "type": "bool"
        }
      ],
      "payable": false,
      "stateMutability": "view",
      "type": "function"
    },
    {
      "constant": true,
      "inputs": [
        {
          "name": "_symmetries",
          "type": "uint256"
        }
      ],
      "name": "calculateReward",
      "outputs": [
        {
          "name": "",
          "type": "uint256"
        }
      ],
      "payable": false,
      "stateMutability": "view",
      "type": "function"
    },
    {
      "constant": false,
      "inputs": [
        {
          "name": "moves",
          "type": "bytes28[2]"
        },
        {
          "name": "_tokenId",
          "type": "uint256"
        },
        {
          "name": "_symmetries",
          "type": "uint256"
        },
        {
          "name": "_keep",
          "type": "bool"
        }
      ],
      "name": "claimClover",
      "outputs": [
        {
          "name": "",
          "type": "bool"
        }
      ],
      "payable": true,
      "stateMutability": "payable",
      "type": "function"
    },
    {
      "constant": false,
      "inputs": [
        {
          "name": "_tokenId",
          "type": "uint256"
        }
      ],
      "name": "retrieveStake",
      "outputs": [
        {
          "name": "",
          "type": "bool"
        }
      ],
      "payable": true,
      "stateMutability": "payable",
      "type": "function"
    },
    {
      "constant": true,
      "inputs": [
        {
          "name": "_board",
          "type": "bytes16"
        }
      ],
      "name": "convertBytes16ToUint",
      "outputs": [
        {
          "name": "number",
          "type": "uint256"
        }
      ],
      "payable": false,
      "stateMutability": "view",
      "type": "function"
    },
    {
      "constant": false,
      "inputs": [
        {
          "name": "_tokenId",
          "type": "uint256"
        }
      ],
      "name": "challengeClover",
      "outputs": [
        {
          "name": "",
          "type": "bool"
        }
      ],
      "payable": false,
      "stateMutability": "nonpayable",
      "type": "function"
    },
    {
      "constant": false,
      "inputs": [
        {
          "name": "_from",
          "type": "address"
        },
        {
          "name": "_to",
          "type": "address"
        },
        {
          "name": "_tokenId",
          "type": "uint256"
        }
      ],
      "name": "transferFrom",
      "outputs": [],
      "payable": false,
      "stateMutability": "nonpayable",
      "type": "function"
    },
    {
      "constant": false,
      "inputs": [
        {
          "name": "_oracle",
          "type": "address"
        }
      ],
      "name": "updateOracle",
      "outputs": [],
      "payable": false,
      "stateMutability": "nonpayable",
      "type": "function"
    },
    {
      "constant": false,
      "inputs": [
        {
          "name": "_simpleCloversMarket",
          "type": "address"
        }
      ],
      "name": "updateSimpleCloversMarket",
      "outputs": [],
      "payable": false,
      "stateMutability": "nonpayable",
      "type": "function"
    },
    {
      "constant": false,
      "inputs": [
        {
          "name": "_clubTokenController",
          "type": "address"
        }
      ],
      "name": "updateClubTokenController",
      "outputs": [],
      "payable": false,
      "stateMutability": "nonpayable",
      "type": "function"
    },
    {
      "constant": false,
      "inputs": [
        {
          "name": "_stakeAmount",
          "type": "uint256"
        }
      ],
      "name": "updateStakeAmount",
      "outputs": [],
      "payable": false,
      "stateMutability": "nonpayable",
      "type": "function"
    },
    {
      "constant": false,
      "inputs": [
        {
          "name": "_stakePeriod",
          "type": "uint256"
        }
      ],
      "name": "updateStakePeriod",
      "outputs": [],
      "payable": false,
      "stateMutability": "nonpayable",
      "type": "function"
    },
    {
      "constant": false,
      "inputs": [
        {
          "name": "_payMultiplier",
          "type": "uint256"
        }
      ],
      "name": "updatePayMultipier",
      "outputs": [],
      "payable": false,
      "stateMutability": "nonpayable",
      "type": "function"
    },
    {
      "constant": false,
      "inputs": [
        {
          "name": "_priceMultiplier",
          "type": "uint256"
        }
      ],
      "name": "updatePriceMultipier",
      "outputs": [],
      "payable": false,
      "stateMutability": "nonpayable",
      "type": "function"
    },
    {
      "constant": false,
      "inputs": [
        {
          "name": "_basePrice",
          "type": "uint256"
        }
      ],
      "name": "updateBasePrice",
      "outputs": [],
      "payable": false,
      "stateMutability": "nonpayable",
      "type": "function"
    },
    {
      "constant": false,
      "inputs": [
        {
          "name": "movesHash",
          "type": "bytes32"
        },
        {
          "name": "committer",
          "type": "address"
        }
      ],
      "name": "_setCommit",
      "outputs": [],
      "payable": false,
      "stateMutability": "nonpayable",
      "type": "function"
    }
  ],
  "bytecode": "0x60806040523480156200001157600080fd5b5060405160608062005e3f833981018060405262000033919081019062000165565b336000806101000a81548173ffffffffffffffffffffffffffffffffffffffff021916908373ffffffffffffffffffffffffffffffffffffffff1602179055506000341415156200008357600080fd5b82600260006101000a81548173ffffffffffffffffffffffffffffffffffffffff021916908373ffffffffffffffffffffffffffffffffffffffff16021790555081600360006101000a81548173ffffffffffffffffffffffffffffffffffffffff021916908373ffffffffffffffffffffffffffffffffffffffff16021790555080600460006101000a81548173ffffffffffffffffffffffffffffffffffffffff021916908373ffffffffffffffffffffffffffffffffffffffff160217905550505050620001db565b60006200015d8251620001bb565b905092915050565b6000806000606084860312156200017b57600080fd5b60006200018b868287016200014f565b93505060206200019e868287016200014f565b9250506040620001b1868287016200014f565b9150509250925092565b600073ffffffffffffffffffffffffffffffffffffffff82169050919050565b615c5480620001eb6000396000f3006080604052600436106101d8576000357c0100000000000000000000000000000000000000000000000000000000900463ffffffff1680630d576bfa146101e757806317ffc320146102125780631cb44dfc1461023b57806323b872dd14610264578063271eff941461028d57806337b6d96b146102ca5780633afcba961461030757806343be08801461033257806346d2ce2014610362578063478857811461038b5780635759f3f7146103ca57806360c7dc47146103f3578063715018a61461041e5780637b7db9fa146104355780637dc0d1d0146104725780638784ea961461049d5780638a05aafa146104da5780638da5cb5b146105035780639564e1801461052e578063975e4b2a146105575780639f727c2714610582578063a4a83ca614610599578063a7e901b0146105d6578063a89b55da146105ff578063c0ee0b8a1461062a578063c1699a9914610653578063c1fe551a1461067e578063c7876ea4146106ae578063c90054ee146106d9578063d010ed7014610702578063d09687f71461072b578063d2d7231f14610768578063d50cb88b146107a5578063d76bbd52146107d0578063e765c122146107fb578063f2fde38b14610838578063f8a68a5614610861578063fd5baa881461089e575b3480156101e457600080fd5b50005b3480156101f357600080fd5b506101fc6108c7565b6040516102099190615757565b60405180910390f35b34801561021e57600080fd5b5061023960048036036102349190810190615584565b6108ed565b005b34801561024757600080fd5b50610262600480360361025d9190810190615334565b610a43565b005b34801561027057600080fd5b5061028b6004803603610286919081019061535d565b610ae2565b005b34801561029957600080fd5b506102b460048036036102af9190810190615418565b610bf0565b6040516102c19190615895565b60405180910390f35b3480156102d657600080fd5b506102f160048036036102ec91908101906155d7565b610c16565b6040516102fe9190615895565b60405180910390f35b34801561031357600080fd5b5061031c610d16565b6040516103299190615946565b60405180910390f35b61034c6004803603610347919081019061546a565b610d1c565b6040516103599190615895565b60405180910390f35b34801561036e57600080fd5b5061038960048036036103849190810190615548565b611754565b005b34801561039757600080fd5b506103b260048036036103ad919081019061551f565b6117bd565b6040516103c1939291906158b0565b60405180910390f35b3480156103d657600080fd5b506103f160048036036103ec91908101906155d7565b611814565b005b3480156103ff57600080fd5b50610408611879565b6040516104159190615946565b60405180910390f35b34801561042a57600080fd5b5061043361187f565b005b34801561044157600080fd5b5061045c600480360361045791908101906155d7565b611981565b6040516104699190615895565b60405180910390f35b34801561047e57600080fd5b50610487611f50565b6040516104949190615757565b60405180910390f35b3480156104a957600080fd5b506104c460048036036104bf919081019061551f565b611f76565b6040516104d19190615757565b60405180910390f35b3480156104e657600080fd5b5061050160048036036104fc91908101906155d7565b611fbe565b005b34801561050f57600080fd5b50610518612023565b6040516105259190615757565b60405180910390f35b34801561053a57600080fd5b5061055560048036036105509190810190615334565b612048565b005b34801561056357600080fd5b5061056c6120e7565b6040516105799190615757565b60405180910390f35b34801561058e57600080fd5b5061059761210d565b005b3480156105a557600080fd5b506105c060048036036105bb91908101906154f6565b6121e9565b6040516105cd9190615946565b60405180910390f35b3480156105e257600080fd5b506105fd60048036036105f891908101906155d7565b612279565b005b34801561060b57600080fd5b506106146122de565b6040516106219190615757565b60405180910390f35b34801561063657600080fd5b50610651600480360361064c91908101906153ac565b612304565b005b34801561065f57600080fd5b50610668612309565b6040516106759190615946565b60405180910390f35b610698600480360361069391908101906155d7565b61230f565b6040516106a59190615895565b60405180910390f35b3480156106ba57600080fd5b506106c3612ad9565b6040516106d09190615946565b60405180910390f35b3480156106e557600080fd5b5061070060048036036106fb91908101906155d7565b612adf565b005b34801561070e57600080fd5b5061072960048036036107249190810190615334565b612b44565b005b34801561073757600080fd5b50610752600480360361074d91908101906155d7565b612be3565b60405161075f91906158e7565b60405180910390f35b34801561077457600080fd5b5061078f600480360361078a91908101906155d7565b612cf1565b60405161079c9190615946565b60405180910390f35b3480156107b157600080fd5b506107ba612f87565b6040516107c79190615946565b60405180910390f35b3480156107dc57600080fd5b506107e5612f8d565b6040516107f29190615757565b60405180910390f35b34801561080757600080fd5b50610822600480360361081d919081019061551f565b612fb3565b60405161082f9190615946565b60405180910390f35b34801561084457600080fd5b5061085f600480360361085a9190810190615334565b612fdb565b005b34801561086d57600080fd5b50610888600480360361088391908101906155ad565b613042565b6040516108959190615895565b60405180910390f35b3480156108aa57600080fd5b506108c560048036036108c091908101906155d7565b613075565b005b600260009054906101000a900473ffffffffffffffffffffffffffffffffffffffff1681565b60008060009054906101000a900473ffffffffffffffffffffffffffffffffffffffff1673ffffffffffffffffffffffffffffffffffffffff163373ffffffffffffffffffffffffffffffffffffffff1614151561094a57600080fd5b8173ffffffffffffffffffffffffffffffffffffffff166370a08231306040518263ffffffff167c010000000000000000000000000000000000000000000000000000000002815260040161099f919061592b565b602060405180830381600087803b1580156109b957600080fd5b505af11580156109cd573d6000803e3d6000fd5b505050506040513d601f19601f820116820180604052506109f19190810190615600565b9050610a3f6000809054906101000a900473ffffffffffffffffffffffffffffffffffffffff16828473ffffffffffffffffffffffffffffffffffffffff166130da9092919063ffffffff16565b5050565b6000809054906101000a900473ffffffffffffffffffffffffffffffffffffffff1673ffffffffffffffffffffffffffffffffffffffff163373ffffffffffffffffffffffffffffffffffffffff16141515610a9e57600080fd5b80600160006101000a81548173ffffffffffffffffffffffffffffffffffffffff021916908373ffffffffffffffffffffffffffffffffffffffff16021790555050565b600560009054906101000a900473ffffffffffffffffffffffffffffffffffffffff1673ffffffffffffffffffffffffffffffffffffffff163373ffffffffffffffffffffffffffffffffffffffff16141515610b3e57600080fd5b600260009054906101000a900473ffffffffffffffffffffffffffffffffffffffff1673ffffffffffffffffffffffffffffffffffffffff166323b872dd8484846040518463ffffffff167c0100000000000000000000000000000000000000000000000000000000028152600401610bb993929190615772565b600060405180830381600087803b158015610bd357600080fd5b505af1158015610be7573d6000803e3d6000fd5b50505050505050565b6000610bfa614e04565b610c0383613193565b9050610c0e81613042565b915050919050565b600080600260009054906101000a900473ffffffffffffffffffffffffffffffffffffffff1673ffffffffffffffffffffffffffffffffffffffff166303a53d6b846040518263ffffffff167c0100000000000000000000000000000000000000000000000000000000028152600401610c909190615946565b602060405180830381600087803b158015610caa57600080fd5b505af1158015610cbe573d6000803e3d6000fd5b505050506040513d601f19601f82011682018060405250610ce29190810190615600565b90506000811415610cf65760009150610d10565b600a54610d0c82436134d790919063ffffffff16565b1191505b50919050565b60085481565b600080600080876040518082600260200280838360005b83811015610d4e578082015181840152602081019050610d33565b50505050905001915050604051809103902092506009543410151515610d7357600080fd5b6000610d7e84611f76565b73ffffffffffffffffffffffffffffffffffffffff16141515610da057600080fd5b610daa83336134f0565b60006009541115610e2d57610dc183600954613551565b600260009054906101000a900473ffffffffffffffffffffffffffffffffffffffff1673ffffffffffffffffffffffffffffffffffffffff166108fc6009549081150290604051600060405180830381858888f19350505050158015610e2b573d6000803e3d6000fd5b505b7f4c0f83654ac2972673e4d81058f833de298389df1dce04cc2db9f231b907d5ff8333604051610e5e929190615902565b60405180910390a1600260009054906101000a900473ffffffffffffffffffffffffffffffffffffffff1673ffffffffffffffffffffffffffffffffffffffff16634f558e79886040518263ffffffff167c0100000000000000000000000000000000000000000000000000000000028152600401610edd9190615946565b602060405180830381600087803b158015610ef757600080fd5b505af1158015610f0b573d6000803e3d6000fd5b505050506040513d601f19601f82011682018060405250610f2f91908101906154cd565b151515610f3b57600080fd5b6000600260009054906101000a900473ffffffffffffffffffffffffffffffffffffffff1673ffffffffffffffffffffffffffffffffffffffff166303a53d6b896040518263ffffffff167c0100000000000000000000000000000000000000000000000000000000028152600401610fb49190615946565b602060405180830381600087803b158015610fce57600080fd5b505af1158015610fe2573d6000803e3d6000fd5b505050506040513d601f19601f820116820180604052506110069190810190615600565b14151561101257600080fd5b600260009054906101000a900473ffffffffffffffffffffffffffffffffffffffff1673ffffffffffffffffffffffffffffffffffffffff1663e3100d1e88436040518363ffffffff167c010000000000000000000000000000000000000000000000000000000002815260040161108b9291906159ea565b600060405180830381600087803b1580156110a557600080fd5b505af11580156110b9573d6000803e3d6000fd5b50505050600260009054906101000a900473ffffffffffffffffffffffffffffffffffffffff1673ffffffffffffffffffffffffffffffffffffffff16630b628395888a6040518363ffffffff167c0100000000000000000000000000000000000000000000000000000000028152600401611136929190615998565b600060405180830381600087803b15801561115057600080fd5b505af1158015611164573d6000803e3d6000fd5b50505050600260009054906101000a900473ffffffffffffffffffffffffffffffffffffffff1673ffffffffffffffffffffffffffffffffffffffff166376e4a87f88876040518363ffffffff167c01000000000000000000000000000000000000000000000000000000000281526004016111e19291906159c1565b600060405180830381600087803b1580156111fb57600080fd5b505af115801561120f573d6000803e3d6000fd5b50505050600086111561137e57600260009054906101000a900473ffffffffffffffffffffffffffffffffffffffff1673ffffffffffffffffffffffffffffffffffffffff1663dc3f775888886040518363ffffffff167c01000000000000000000000000000000000000000000000000000000000281526004016112959291906159ea565b600060405180830381600087803b1580156112af57600080fd5b505af11580156112c3573d6000803e3d6000fd5b505050506112d086612cf1565b9150600260009054906101000a900473ffffffffffffffffffffffffffffffffffffffff1673ffffffffffffffffffffffffffffffffffffffff1663a47bd49688846040518363ffffffff167c010000000000000000000000000000000000000000000000000000000002815260040161134b9291906159ea565b600060405180830381600087803b15801561136557600080fd5b505af1158015611379573d6000803e3d6000fd5b505050505b6113938260065461357890919063ffffffff16565b90508480156113a25750600081115b156116335780600360009054906101000a900473ffffffffffffffffffffffffffffffffffffffff1673ffffffffffffffffffffffffffffffffffffffff166370a08231336040518263ffffffff167c010000000000000000000000000000000000000000000000000000000002815260040161141f9190615757565b602060405180830381600087803b15801561143957600080fd5b505af115801561144d573d6000803e3d6000fd5b505050506040513d601f19601f820116820180604052506114719190810190615600565b101561154257600460009054906101000a900473ffffffffffffffffffffffffffffffffffffffff1673ffffffffffffffffffffffffffffffffffffffff1663f088d547336040518263ffffffff167c01000000000000000000000000000000000000000000000000000000000281526004016114ee9190615757565b602060405180830381600087803b15801561150857600080fd5b505af115801561151c573d6000803e3d6000fd5b505050506040513d601f19601f8201168201806040525061154091908101906154cd565b505b600360009054906101000a900473ffffffffffffffffffffffffffffffffffffffff1673ffffffffffffffffffffffffffffffffffffffff166323b872dd33600260009054906101000a900473ffffffffffffffffffffffffffffffffffffffff16846040518463ffffffff167c01000000000000000000000000000000000000000000000000000000000281526004016115df93929190615772565b602060405180830381600087803b1580156115f957600080fd5b505af115801561160d573d6000803e3d6000fd5b505050506040513d601f19601f8201168201806040525061163191908101906154cd565b505b600260009054906101000a900473ffffffffffffffffffffffffffffffffffffffff1673ffffffffffffffffffffffffffffffffffffffff166340c10f19600260009054906101000a900473ffffffffffffffffffffffffffffffffffffffff16896040518363ffffffff167c01000000000000000000000000000000000000000000000000000000000281526004016116ce9291906157a9565b600060405180830381600087803b1580156116e857600080fd5b505af11580156116fc573d6000803e3d6000fd5b505050507f1c3b3e1e72950ae52150ec48810521d17cea4b30c2a59c807d1ba2f8dff57e65888833600954868b8b60405161173d9796959493929190615825565b60405180910390a160019350505050949350505050565b6000809054906101000a900473ffffffffffffffffffffffffffffffffffffffff1673ffffffffffffffffffffffffffffffffffffffff163373ffffffffffffffffffffffffffffffffffffffff161415156117af57600080fd5b6117b982826134f0565b5050565b600b6020528060005260406000206000915090508060000160009054906101000a900460ff16908060010154908060020160009054906101000a900473ffffffffffffffffffffffffffffffffffffffff16905083565b6000809054906101000a900473ffffffffffffffffffffffffffffffffffffffff1673ffffffffffffffffffffffffffffffffffffffff163373ffffffffffffffffffffffffffffffffffffffff1614151561186f57600080fd5b80600a8190555050565b60095481565b6000809054906101000a900473ffffffffffffffffffffffffffffffffffffffff1673ffffffffffffffffffffffffffffffffffffffff163373ffffffffffffffffffffffffffffffffffffffff161415156118da57600080fd5b6000809054906101000a900473ffffffffffffffffffffffffffffffffffffffff1673ffffffffffffffffffffffffffffffffffffffff167ff8df31144d9c2f0f6b59d69b8b98abd5459d07f2742c4df920b25aae33c6482060405160405180910390a260008060006101000a81548173ffffffffffffffffffffffffffffffffffffffff021916908373ffffffffffffffffffffffffffffffffffffffff160217905550565b60008061198c614eb8565b611994614e04565b60008060008060019650600260009054906101000a900473ffffffffffffffffffffffffffffffffffffffff1673ffffffffffffffffffffffffffffffffffffffff166362f9acf98a6040518263ffffffff167c0100000000000000000000000000000000000000000000000000000000028152600401611a159190615946565b6040805180830381600087803b158015611a2e57600080fd5b505af1158015611a42573d6000803e3d6000fd5b505050506040513d601f19601f82011682018060405250611a669190810190615441565b95506000809054906101000a900473ffffffffffffffffffffffffffffffffffffffff1673ffffffffffffffffffffffffffffffffffffffff163373ffffffffffffffffffffffffffffffffffffffff1614158015611b135750600160009054906101000a900473ffffffffffffffffffffffffffffffffffffffff1673ffffffffffffffffffffffffffffffffffffffff163373ffffffffffffffffffffffffffffffffffffffff1614155b15611cf757611b2186613193565b945088611b328661010001516121e9565b141515611b3e57600096505b868015611b505750611b4f85613042565b5b15611ce457600260009054906101000a900473ffffffffffffffffffffffffffffffffffffffff1673ffffffffffffffffffffffffffffffffffffffff1663c53b4bf98a6040518263ffffffff167c0100000000000000000000000000000000000000000000000000000000028152600401611bcc9190615946565b602060405180830381600087803b158015611be657600080fd5b505af1158015611bfa573d6000803e3d6000fd5b505050506040513d601f19601f82011682018060405250611c1e9190810190615600565b935084606001511515600060016004879060020a90041611151514611c44576000611c46565b865b965084608001511515600060016003879060020a90041611151514611c6c576000611c6e565b865b96508460a001511515600060016002879060020a90041611151514611c94576000611c96565b865b96508460c0015115156000600180879060020a90041611151514611cbb576000611cbd565b865b96508460e00151151560006001861611151514611cdb576000611cdd565b865b9650611ce9565b600096505b86151515611cf657600080fd5b5b856040518082600260200280838360005b83811015611d23578082015181840152602081019050611d08565b5050505090500191505060405180910390209250611d4083612fb3565b9150611d4b89610c16565b158015611d585750600082115b15611e0957600260009054906101000a900473ffffffffffffffffffffffffffffffffffffffff1673ffffffffffffffffffffffffffffffffffffffff16631cc1472d33846040518363ffffffff167c0100000000000000000000000000000000000000000000000000000000028152600401611dd69291906157a9565b600060405180830381600087803b158015611df057600080fd5b505af1158015611e04573d6000803e3d6000fd5b505050505b600b6000846000191660001916815260200190815260200160002060000160009054906101000a900460ff1615611e4457611e4389613594565b5b611e4d83611f76565b90507f23e709ab80a4bee9454ba0d08c0b669d684531b4ec766524c43abd788cc3ca76868a833386604051611e869594939291906157d2565b60405180910390a1600260009054906101000a900473ffffffffffffffffffffffffffffffffffffffff1673ffffffffffffffffffffffffffffffffffffffff16630e8310d68a6040518263ffffffff167c0100000000000000000000000000000000000000000000000000000000028152600401611f059190615946565b600060405180830381600087803b158015611f1f57600080fd5b505af1158015611f33573d6000803e3d6000fd5b50505050611f40836138bd565b6001975050505050505050919050565b600160009054906101000a900473ffffffffffffffffffffffffffffffffffffffff1681565b6000600b6000836000191660001916815260200190815260200160002060020160009054906101000a900473ffffffffffffffffffffffffffffffffffffffff169050919050565b6000809054906101000a900473ffffffffffffffffffffffffffffffffffffffff1673ffffffffffffffffffffffffffffffffffffffff163373ffffffffffffffffffffffffffffffffffffffff1614151561201957600080fd5b8060088190555050565b6000809054906101000a900473ffffffffffffffffffffffffffffffffffffffff1681565b6000809054906101000a900473ffffffffffffffffffffffffffffffffffffffff1673ffffffffffffffffffffffffffffffffffffffff163373ffffffffffffffffffffffffffffffffffffffff161415156120a357600080fd5b80600460006101000a81548173ffffffffffffffffffffffffffffffffffffffff021916908373ffffffffffffffffffffffffffffffffffffffff16021790555050565b600560009054906101000a900473ffffffffffffffffffffffffffffffffffffffff1681565b6000809054906101000a900473ffffffffffffffffffffffffffffffffffffffff1673ffffffffffffffffffffffffffffffffffffffff163373ffffffffffffffffffffffffffffffffffffffff1614151561216857600080fd5b6000809054906101000a900473ffffffffffffffffffffffffffffffffffffffff1673ffffffffffffffffffffffffffffffffffffffff166108fc3073ffffffffffffffffffffffffffffffffffffffff16319081150290604051600060405180830381858888f193505050501580156121e6573d6000803e3d6000fd5b50565b600080600090505b601060ff168110156122735760018101601060ff160360080260020a838260108110151561221b57fe5b1a7f0100000000000000000000000000000000000000000000000000000000000000027f01000000000000000000000000000000000000000000000000000000000000009004028201915080806001019150506121f1565b50919050565b6000809054906101000a900473ffffffffffffffffffffffffffffffffffffffff1673ffffffffffffffffffffffffffffffffffffffff163373ffffffffffffffffffffffffffffffffffffffff161415156122d457600080fd5b8060078190555050565b600460009054906101000a900473ffffffffffffffffffffffffffffffffffffffff1681565b600080fd5b600a5481565b6000612319614eb8565b6000806000806000600260009054906101000a900473ffffffffffffffffffffffffffffffffffffffff1673ffffffffffffffffffffffffffffffffffffffff166362f9acf9896040518263ffffffff167c01000000000000000000000000000000000000000000000000000000000281526004016123989190615946565b6040805180830381600087803b1580156123b157600080fd5b505af11580156123c5573d6000803e3d6000fd5b505050506040513d601f19601f820116820180604052506123e99190810190615441565b9550856040518082600260200280838360005b838110156124175780820151818401526020810190506123fc565b5050505090500191505060405180910390209450600b6000866000191660001916815260200190815260200160002060000160009054906101000a900460ff1615151561246357600080fd5b6001600b6000876000191660001916815260200190815260200160002060000160006101000a81548160ff0219169083151502179055506124a388610c16565b806124fa57506000809054906101000a900473ffffffffffffffffffffffffffffffffffffffff1673ffffffffffffffffffffffffffffffffffffffff163373ffffffffffffffffffffffffffffffffffffffff16145b806125525750600160009054906101000a900473ffffffffffffffffffffffffffffffffffffffff1673ffffffffffffffffffffffffffffffffffffffff163373ffffffffffffffffffffffffffffffffffffffff16145b151561255d57600080fd5b61256685612fb3565b935061257188613921565b61257a85611f76565b92508273ffffffffffffffffffffffffffffffffffffffff163373ffffffffffffffffffffffffffffffffffffffff161415156125b657600080fd5b600260009054906101000a900473ffffffffffffffffffffffffffffffffffffffff1673ffffffffffffffffffffffffffffffffffffffff16631c4b774b896040518263ffffffff167c010000000000000000000000000000000000000000000000000000000002815260040161262d9190615946565b602060405180830381600087803b15801561264757600080fd5b505af115801561265b573d6000803e3d6000fd5b505050506040513d601f19601f8201168201806040525061267f9190810190615600565b9150600260009054906101000a900473ffffffffffffffffffffffffffffffffffffffff1673ffffffffffffffffffffffffffffffffffffffff166304952631896040518263ffffffff167c01000000000000000000000000000000000000000000000000000000000281526004016126f89190615946565b602060405180830381600087803b15801561271257600080fd5b505af1158015612726573d6000803e3d6000fd5b505050506040513d601f19601f8201168201806040525061274a91908101906154cd565b9050801561282657600260009054906101000a900473ffffffffffffffffffffffffffffffffffffffff1673ffffffffffffffffffffffffffffffffffffffff166323b872dd600260009054906101000a900473ffffffffffffffffffffffffffffffffffffffff16858b6040518463ffffffff167c01000000000000000000000000000000000000000000000000000000000281526004016127ef93929190615772565b600060405180830381600087803b15801561280957600080fd5b505af115801561281d573d6000803e3d6000fd5b505050506129da565b600560009054906101000a900473ffffffffffffffffffffffffffffffffffffffff1673ffffffffffffffffffffffffffffffffffffffff1663d79875eb8961288e61287d60075487613c4a90919063ffffffff16565b60065461357890919063ffffffff16565b6040518363ffffffff167c01000000000000000000000000000000000000000000000000000000000281526004016128c79291906159ea565b600060405180830381600087803b1580156128e157600080fd5b505af11580156128f5573d6000803e3d6000fd5b5050505060008211156129d957600360009054906101000a900473ffffffffffffffffffffffffffffffffffffffff1673ffffffffffffffffffffffffffffffffffffffff166340c10f1984846040518363ffffffff167c010000000000000000000000000000000000000000000000000000000002815260040161297b9291906157a9565b602060405180830381600087803b15801561299557600080fd5b505af11580156129a9573d6000803e3d6000fd5b505050506040513d601f19601f820116820180604052506129cd91908101906154cd565b15156129d857600080fd5b5b5b6000841115612a8f57600260009054906101000a900473ffffffffffffffffffffffffffffffffffffffff1673ffffffffffffffffffffffffffffffffffffffff16631cc1472d84866040518363ffffffff167c0100000000000000000000000000000000000000000000000000000000028152600401612a5c9291906157a9565b600060405180830381600087803b158015612a7657600080fd5b505af1158015612a8a573d6000803e3d6000fd5b505050505b7fa8a1a24efbea93a5c7f29342ba7652cd030828e12cc15c1416480fecee73d589888486604051612ac293929190615961565b60405180910390a160019650505050505050919050565b60065481565b6000809054906101000a900473ffffffffffffffffffffffffffffffffffffffff1673ffffffffffffffffffffffffffffffffffffffff163373ffffffffffffffffffffffffffffffffffffffff16141515612b3a57600080fd5b8060098190555050565b6000809054906101000a900473ffffffffffffffffffffffffffffffffffffffff1673ffffffffffffffffffffffffffffffffffffffff163373ffffffffffffffffffffffffffffffffffffffff16141515612b9f57600080fd5b80600560006101000a81548173ffffffffffffffffffffffffffffffffffffffff021916908373ffffffffffffffffffffffffffffffffffffffff16021790555050565b6000600260009054906101000a900473ffffffffffffffffffffffffffffffffffffffff1673ffffffffffffffffffffffffffffffffffffffff166362f9acf9836040518263ffffffff167c0100000000000000000000000000000000000000000000000000000000028152600401612c5c9190615946565b6040805180830381600087803b158015612c7557600080fd5b505af1158015612c89573d6000803e3d6000fd5b505050506040513d601f19601f82011682018060405250612cad9190810190615441565b6040518082600260200280838360005b83811015612cd8578082015181840152602081019050612cbd565b5050505090500191505060405180910390209050919050565b600080600080600080600080600260009054906101000a900473ffffffffffffffffffffffffffffffffffffffff1673ffffffffffffffffffffffffffffffffffffffff1663785d8d716040518163ffffffff167c010000000000000000000000000000000000000000000000000000000002815260040160c060405180830381600087803b158015612d8357600080fd5b505af1158015612d97573d6000803e3d6000fd5b505050506040513d601f19601f82011682018060405250612dbb9190810190615629565b809750819850829950839a50849b50859c505050505050506000905060018060048b9060020a9004161415612e2c57612e29612e1a60018801612e0c60018b01600854613c4a90919063ffffffff16565b613c8290919063ffffffff16565b8261357890919063ffffffff16565b90505b60018060038b9060020a9004161415612e8157612e7e612e6f60018701612e6160018b01600854613c4a90919063ffffffff16565b613c8290919063ffffffff16565b8261357890919063ffffffff16565b90505b60018060028b9060020a9004161415612ed657612ed3612ec460018601612eb660018b01600854613c4a90919063ffffffff16565b613c8290919063ffffffff16565b8261357890919063ffffffff16565b90505b60018060018b9060020a9004161415612f2b57612f28612f1960018501612f0b60018b01600854613c4a90919063ffffffff16565b613c8290919063ffffffff16565b8261357890919063ffffffff16565b90505b6001808a161415612f7857612f75612f6660018401612f5860018b01600854613c4a90919063ffffffff16565b613c8290919063ffffffff16565b8261357890919063ffffffff16565b90505b80975050505050505050919050565b60075481565b600360009054906101000a900473ffffffffffffffffffffffffffffffffffffffff1681565b6000600b60008360001916600019168152602001908152602001600020600101549050919050565b6000809054906101000a900473ffffffffffffffffffffffffffffffffffffffff1673ffffffffffffffffffffffffffffffffffffffff163373ffffffffffffffffffffffffffffffffffffffff1614151561303657600080fd5b61303f81613c98565b50565b60008160000151156130575760009050613070565b8160200151151561306b5760009050613070565b600190505b919050565b6000809054906101000a900473ffffffffffffffffffffffffffffffffffffffff1673ffffffffffffffffffffffffffffffffffffffff163373ffffffffffffffffffffffffffffffffffffffff161415156130d057600080fd5b8060068190555050565b8273ffffffffffffffffffffffffffffffffffffffff1663a9059cbb83836040518363ffffffff167c01000000000000000000000000000000000000000000000000000000000281526004016131319291906157a9565b602060405180830381600087803b15801561314b57600080fd5b505af115801561315f573d6000803e3d6000fd5b505050506040513d601f19601f8201168201806040525061318391908101906154cd565b151561318e57600080fd5b505050565b61319b614e04565b6131a3614e04565b6000806000806000808860006002811015156131bb57fe5b602002015187610120019063ffffffff1916908163ffffffff1916815250508860016002811015156131e957fe5b602002015187610140019063ffffffff1916908163ffffffff191681525050600087610180019060ff16908160ff16815250506002876101a0019060ff16908160ff16815250506002876101c0019060ff16908160ff168152505060008760000190151590811515815250506000876020019015159081151581525050600187610160019060ff16908160ff16815250506ffffffffffffffe7ffdbfffffffffffff700100000000000000000000000000000000028761010001906fffffffffffffffffffffffffffffffff191690816fffffffffffffffffffffffffffffffff191681525050600091505b603c8260ff161080156132e6575085155b1561349557602087610180015160ff16106133065786610140015161330d565b8661012001515b905061332f81602089610180015160ff1681151561332757fe5b066020613d92565b945061333a85613dd6565b809450819550505061334b85613e15565b15955060008260ff16148015613374575060028460ff16141580613373575060038360ff1614155b5b1561338f576001955060018760000190151590811515815250505b851580156133a0575060088460ff16105b80156133af575060088360ff16105b80156133bf575060008460ff1610155b80156133cf575060008360ff1610155b15613488576133df878585613e26565b965060018761018001510187610180019060ff16908160ff1681525050866000015115613487576000876000019015159081151581525050600160ff1687610160015160ff16141561344457600287610160019060ff16908160ff1681525050613459565b600187610160019060ff16908160ff16815250505b613464878585613e26565b9650866000015115613486576001876000019015159081151581525050600195505b5b5b81806001019250506132d5565b866000015115156134c85760008760000190151590811515815250506134ba87614128565b96506134c587614467565b96505b86975050505050505050919050565b60008282111515156134e557fe5b818303905092915050565b80600b6000846000191660001916815260200190815260200160002060020160006101000a81548173ffffffffffffffffffffffffffffffffffffffff021916908373ffffffffffffffffffffffffffffffffffffffff1602179055505050565b80600b60008460001916600019168152602001908152602001600020600101819055505050565b6000818301905082811015151561358b57fe5b80905092915050565b6000806000806000806000600260009054906101000a900473ffffffffffffffffffffffffffffffffffffffff1673ffffffffffffffffffffffffffffffffffffffff1663785d8d716040518163ffffffff167c010000000000000000000000000000000000000000000000000000000002815260040160c060405180830381600087803b15801561362557600080fd5b505af1158015613639573d6000803e3d6000fd5b505050506040513d601f19601f8201168201806040525061365d9190810190615629565b809750819850829950839a50849b50859c50505050505050600260009054906101000a900473ffffffffffffffffffffffffffffffffffffffff1673ffffffffffffffffffffffffffffffffffffffff1663c53b4bf9896040518263ffffffff167c01000000000000000000000000000000000000000000000000000000000281526004016136ec9190615946565b602060405180830381600087803b15801561370657600080fd5b505af115801561371a573d6000803e3d6000fd5b505050506040513d601f19601f8201168201806040525061373e9190810190615600565b905061376760008211613752576000613755565b60015b60ff16886134d790919063ffffffff16565b965061378760016004839060020a900416876134d790919063ffffffff16565b95506137a760016003839060020a900416866134d790919063ffffffff16565b94506137c760016002839060020a900416856134d790919063ffffffff16565b93506137e6600180839060020a900416846134d790919063ffffffff16565b92506137fe60018216836134d790919063ffffffff16565b9150600260009054906101000a900473ffffffffffffffffffffffffffffffffffffffff1673ffffffffffffffffffffffffffffffffffffffff16638b1b2ba88888888888886040518763ffffffff167c010000000000000000000000000000000000000000000000000000000002815260040161388196959493929190615a13565b600060405180830381600087803b15801561389b57600080fd5b505af11580156138af573d6000803e3d6000fd5b505050505050505050505050565b600b60008260001916600019168152602001908152602001600020600080820160006101000a81549060ff021916905560018201600090556002820160006101000a81549073ffffffffffffffffffffffffffffffffffffffff0219169055505050565b6000806000806000806000600260009054906101000a900473ffffffffffffffffffffffffffffffffffffffff1673ffffffffffffffffffffffffffffffffffffffff1663785d8d716040518163ffffffff167c010000000000000000000000000000000000000000000000000000000002815260040160c060405180830381600087803b1580156139b257600080fd5b505af11580156139c6573d6000803e3d6000fd5b505050506040513d601f19601f820116820180604052506139ea9190810190615629565b809750819850829950839a50849b50859c50505050505050600260009054906101000a900473ffffffffffffffffffffffffffffffffffffffff1673ffffffffffffffffffffffffffffffffffffffff1663c53b4bf9896040518263ffffffff167c0100000000000000000000000000000000000000000000000000000000028152600401613a799190615946565b602060405180830381600087803b158015613a9357600080fd5b505af1158015613aa7573d6000803e3d6000fd5b505050506040513d601f19601f82011682018060405250613acb9190810190615600565b9050613af460008211613adf576000613ae2565b60015b60ff168861357890919063ffffffff16565b9650613b1460016004839060020a9004168761357890919063ffffffff16565b9550613b3460016003839060020a9004168661357890919063ffffffff16565b9450613b5460016002839060020a9004168561357890919063ffffffff16565b9350613b73600180839060020a9004168461357890919063ffffffff16565b9250613b8b600182168361357890919063ffffffff16565b9150600260009054906101000a900473ffffffffffffffffffffffffffffffffffffffff1673ffffffffffffffffffffffffffffffffffffffff16638b1b2ba88888888888886040518763ffffffff167c0100000000000000000000000000000000000000000000000000000000028152600401613c0e96959493929190615a13565b600060405180830381600087803b158015613c2857600080fd5b505af1158015613c3c573d6000803e3d6000fd5b505050505050505050505050565b600080831415613c5d5760009050613c7c565b8183029050818382811515613c6e57fe5b04141515613c7857fe5b8090505b92915050565b60008183811515613c8f57fe5b04905092915050565b600073ffffffffffffffffffffffffffffffffffffffff168173ffffffffffffffffffffffffffffffffffffffff1614151515613cd457600080fd5b8073ffffffffffffffffffffffffffffffffffffffff166000809054906101000a900473ffffffffffffffffffffffffffffffffffffffff1673ffffffffffffffffffffffffffffffffffffffff167f8be0079c531659141344cd1fd0a4f28419497f9722a3daafe3b4186f6b6457e060405160405180910390a3806000806101000a81548173ffffffffffffffffffffffffffffffffffffffff021916908373ffffffffffffffffffffffffffffffffffffffff16021790555050565b6000806000607f64010000000002915060078086026007860203039050818160ff168763ffffffff19169060020a9004166401000000009004925050509392505050565b60008060008060408503945060088560ff16811515613df157fe5b069150600882860360ff16811515613e0557fe5b0490508181935093505050915091565b600060408260ff1610159050919050565b613e2e614e04565b613e36614eda565b600080600080600080600080600360ff16613e578e61010001518e8e61475f565b60ff16141515613e7a5760018d60000190151590811515815250508c9950614118565b613e858d8d8d6147d5565b809950819a50505060008860ff161415613eb25760018d60000190151590811515815250508c9950614118565b60009150600090505b8760ff168160ff161015614018576000965060009550613ef28d8a8360ff16600881101515613ee657fe5b60200201518e8e614b14565b8097508198505050600092505b8560ff168360ff16101561400b57811515613f1957600191505b613f2c613f27888589613d92565b613dd6565b8095508196505050613f4a8d61010001518e61016001518787614c78565b8d61010001906fffffffffffffffffffffffffffffffff191690816fffffffffffffffffffffffffffffffff191681525050600260ff168d610160015160ff161415613fc95760018d6101c0018181510191509060ff16908160ff168152505060018d6101a0018181510391509060ff16908160ff1681525050613ffe565b60018d6101c0018181510391509060ff16908160ff168152505060018d6101a0018181510191509060ff16908160ff16815250505b8280600101935050613eff565b8080600101915050613ebb565b81156140b9576140348d61010001518e61016001518e8e614c78565b8d61010001906fffffffffffffffffffffffffffffffff191690816fffffffffffffffffffffffffffffffff191681525050600260ff168d610160015160ff1614156140995760018d6101c0018181510191509060ff16908160ff16815250506140b4565b60018d6101a0018181510191509060ff16908160ff16815250505b6140d2565b60018d60000190151590811515815250508c9950614118565b600160ff168d610160015160ff1614156140ff5760028d610160019060ff16908160ff1681525050614114565b60018d610160019060ff16908160ff16815250505b8c99505b5050505050505050509392505050565b614130614e04565b614138614f09565b6000806000806000614148614f38565b603c89610180015160ff16141561417257600189602001901515908115158152505088975061445b565b60009550600094505b60408560ff161015614254576141c58961010001516008808860ff168115156141a057fe5b06880360ff168115156141af57fe5b0460088860ff168115156141bf57fe5b0661475f565b9350600360ff168460ff1614156142475760408051908101604052806008808860ff168115156141f157fe5b06880360ff1681151561420057fe5b0460ff1660ff16815260200160088760ff1681151561421b57fe5b0660ff1660ff16815250878760ff16603c8110151561423657fe5b602002018190525085806001019650505b848060010195505061417b565b6000925060008660ff161115614418578861010001519150600094505b8560ff168560ff16108015614284575082155b156143e457868560ff16603c8110151561429a57fe5b60200201519050600189610160019060ff16908160ff16815250506000896000019015159081151581525050818961010001906fffffffffffffffffffffffffffffffff191690816fffffffffffffffffffffffffffffffff19168152505061432a8982600060028110151561430c57fe5b602002015183600160028110151561432057fe5b6020020151613e26565b98508860000151151561433c57600192505b600289610160019060ff16908160ff16815250506000896000019015159081151581525050818961010001906fffffffffffffffffffffffffffffffff191690816fffffffffffffffffffffffffffffffff1916815250506143c5898260006002811015156143a757fe5b60200201518360016002811015156143bb57fe5b6020020151613e26565b9850886000015115156143d757600192505b8480600101955050614271565b818961010001906fffffffffffffffffffffffffffffffff191690816fffffffffffffffffffffffffffffffff1916815250505b8215614434576001896000019015159081151581525050614457565b600189602001901515908115158152505060008960000190151590811515815250505b8897505b50505050505050919050565b61446f614e04565b60008060008060008060006001965060019550600194506001935060019250600091505b60088260ff161080156144c3575086806144aa5750855b806144b25750845b806144ba5750835b806144c25750825b5b156146c857600090505b60088160ff161080156144fd575086806144e45750855b806144ec5750845b806144f45750835b806144fc5750825b5b156146bb576145188961010001518360070383600703614d44565b6fffffffffffffffffffffffffffffffff191661453b8a61010001518484614d44565b6fffffffffffffffffffffffffffffffff191614151561455a57600096505b61456d8961010001518383600703614d44565b6fffffffffffffffffffffffffffffffff19166145908a61010001518484614d44565b6fffffffffffffffffffffffffffffffff19161415156145af57600095505b6145c28961010001518360070383614d44565b6fffffffffffffffffffffffffffffffff19166145e58a61010001518484614d44565b6fffffffffffffffffffffffffffffffff191614151561460457600094505b61461a8961010001518260070384600703614d44565b6fffffffffffffffffffffffffffffffff191661463d8a61010001518484614d44565b6fffffffffffffffffffffffffffffffff191614151561465c57600093505b61466c8961010001518284614d44565b6fffffffffffffffffffffffffffffffff191661468f8a61010001518484614d44565b6fffffffffffffffffffffffffffffffff19161415156146ae57600092505b80806001019150506144cd565b8180600101925050614493565b86806146d15750855b806146d95750845b806146e15750835b806146e95750825b156147505760018960400190151590811515815250508689606001901515908115158152505085896080019015159081151581525050848960a0019015159081151581525050838960c0019015159081151581525050828960e00190151590811515815250505b88975050505050505050919050565b600080600061476e8585614da0565b9150600370010000000000000000000000000000000002826fffffffffffffffffffffffffffffffff16876fffffffffffffffffffffffffffffffff19169060020a9004169050807001000000000000000000000000000000009004925050509392505050565b6147dd614eda565b60006147e7614eda565b60006147f1614eda565b6000806147fc614f5a565b600080600096506101006040519081016040528060408051908101604052807fffffffffffffffffffffffffffffffffffffffffffffffffffffffffffffffff60000b60000b81526020016000800b60000b815250815260200160408051908101604052807fffffffffffffffffffffffffffffffffffffffffffffffffffffffffffffffff60000b60000b8152602001600160000b60000b815250815260200160408051908101604052806000800b60000b8152602001600160000b60000b81525081526020016040805190810160405280600160000b60000b8152602001600160000b60000b81525081526020016040805190810160405280600160000b60000b81526020016000800b60000b81525081526020016040805190810160405280600160000b60000b81526020017fffffffffffffffffffffffffffffffffffffffffffffffffffffffffffffffff60000b60000b815250815260200160408051908101604052806000800b60000b81526020017fffffffffffffffffffffffffffffffffffffffffffffffffffffffffffffffff60000b60000b815250815260200160408051908101604052807fffffffffffffffffffffffffffffffffffffffffffffffffffffffffffffffff60000b60000b81526020017fffffffffffffffffffffffffffffffffffffffffffffffffffffffffffffffff60000b60000b8152508152509550600090505b60088160ff161015614afe57858160ff16600881101515614a2857fe5b60200201519250826000600281101515614a3e57fe5b60200201518c019350826001600281101515614a5657fe5b60200201518b01945060078560000b1380614a74575060008560000b125b80614a82575060078460000b135b80614a90575060008460000b125b1515614af157614aa68d6101000151858761475f565b91508c610160015160ff168260ff16141515614af057600360ff168260ff16141515614aef5782888860ff16600881101515614ade57fe5b602002018190525086806001019750505b5b5b8080600101915050614a0b565b8787995099505050505050505050935093915050565b60008060008060008060008060008060009650600160ff168e610160015160ff161415614b445760029550614b49565b600195505b60009450600190505b60098160ff161015614c6157841515614c54578b8d6000600281101515614b7557fe5b602002015182020193508a8d6001600281101515614b8f57fe5b6020020151820201925060078460000b1380614bae575060008460000b125b80614bbc575060078360000b135b80614bca575060008360000b125b15614be057600097506000965060019450614c53565b614bf08e6101000151858561475f565b91508560ff168260ff161415614c1957614c0c88888686614dbc565b8098508199505050614c52565b8d610160015160ff168260ff16148015614c36575060018160ff16115b15614c445760019450614c51565b6000975060009650600194505b5b5b5b8080600101915050614b52565b878799509950505050505050505094509492505050565b600080600060078560ff161115614c8e57600080fd5b60078460ff161115614c9f57600080fd5b614ca98585614da0565b9150816fffffffffffffffffffffffffffffffff166003700100000000000000000000000000000000026fffffffffffffffffffffffffffffffff19169060020a02905086818818169650816fffffffffffffffffffffffffffffffff168660ff16700100000000000000000000000000000000026fffffffffffffffffffffffffffffffff19169060020a02871792505050949350505050565b600080614d518484614da0565b9050600370010000000000000000000000000000000002816fffffffffffffffffffffffffffffffff16866fffffffffffffffffffffffffffffffff19169060020a9004169150509392505050565b600060026001838560080201016040030260ff16905092915050565b600080600060406008850286010160ff1664010000000002905060078763ffffffff19169060020a029650808717965085806001019650508686925092505094509492505050565b6101e06040519081016040528060001515815260200160001515815260200160001515815260200160001515815260200160001515815260200160001515815260200160001515815260200160001515815260200160006fffffffffffffffffffffffffffffffff19168152602001600063ffffffff19168152602001600063ffffffff19168152602001600060ff168152602001600060ff168152602001600060ff168152602001600060ff1681525090565b6040805190810160405280600290602082028038833980820191505090505090565b610200604051908101604052806008905b614ef3614f7c565b815260200190600190039081614eeb5790505090565b610f0060405190810160405280603c905b614f22614f9e565b815260200190600190039081614f1a5790505090565b6040805190810160405280600290602082028038833980820191505090505090565b6040805190810160405280600290602082028038833980820191505090505090565b6040805190810160405280600290602082028038833980820191505090505090565b6040805190810160405280600290602082028038833980820191505090505090565b6000614fcc8235615b51565b905092915050565b600082601f8301121515614fe757600080fd5b6002614ffa614ff582615aa1565b615a74565b9150818385602084028201111561501057600080fd5b60005b83811015615040578161502688826150fc565b845260208401935060208301925050600181019050615013565b5050505092915050565b600082601f830112151561505d57600080fd5b600261507061506b82615aa1565b615a74565b9150818385602084028201111561508657600080fd5b60005b838110156150b6578161509c8882615110565b845260208401935060208301925050600181019050615089565b5050505092915050565b60006150cc8235615b71565b905092915050565b60006150e08251615b71565b905092915050565b60006150f48235615b7d565b905092915050565b60006151088235615ba9565b905092915050565b600061511c8251615ba9565b905092915050565b60006151308235615bd5565b905092915050565b60008083601f840112151561514c57600080fd5b8235905067ffffffffffffffff81111561516557600080fd5b60208301915083600182028301111561517d57600080fd5b9250929050565b60006151908235615bdf565b905092915050565b60006101e082840312156151ab57600080fd5b6151b66101e0615a74565b905060006151c6848285016150c0565b60008301525060206151da848285016150c0565b60208301525060406151ee848285016150c0565b6040830152506060615202848285016150c0565b6060830152506080615216848285016150c0565b60808301525060a061522a848285016150c0565b60a08301525060c061523e848285016150c0565b60c08301525060e0615252848285016150c0565b60e083015250610100615267848285016150e8565b6101008301525061012061527d848285016150fc565b61012083015250610140615293848285016150fc565b610140830152506101606152a984828501615320565b610160830152506101806152bf84828501615320565b610180830152506101a06152d584828501615320565b6101a0830152506101c06152eb84828501615320565b6101c08301525092915050565b60006153048235615bf1565b905092915050565b60006153188251615bf1565b905092915050565b600061532c8235615bfb565b905092915050565b60006020828403121561534657600080fd5b600061535484828501614fc0565b91505092915050565b60008060006060848603121561537257600080fd5b600061538086828701614fc0565b935050602061539186828701614fc0565b92505060406153a2868287016152f8565b9150509250925092565b600080600080606085870312156153c257600080fd5b60006153d087828801614fc0565b94505060206153e1878288016152f8565b935050604085013567ffffffffffffffff8111156153fe57600080fd5b61540a87828801615138565b925092505092959194509250565b60006040828403121561542a57600080fd5b600061543884828501614fd4565b91505092915050565b60006040828403121561545357600080fd5b60006154618482850161504a565b91505092915050565b60008060008060a0858703121561548057600080fd5b600061548e87828801614fd4565b945050604061549f878288016152f8565b93505060606154b0878288016152f8565b92505060806154c1878288016150c0565b91505092959194509250565b6000602082840312156154df57600080fd5b60006154ed848285016150d4565b91505092915050565b60006020828403121561550857600080fd5b6000615516848285016150e8565b91505092915050565b60006020828403121561553157600080fd5b600061553f84828501615124565b91505092915050565b6000806040838503121561555b57600080fd5b600061556985828601615124565b925050602061557a85828601614fc0565b9150509250929050565b60006020828403121561559657600080fd5b60006155a484828501615184565b91505092915050565b60006101e082840312156155c057600080fd5b60006155ce84828501615198565b91505092915050565b6000602082840312156155e957600080fd5b60006155f7848285016152f8565b91505092915050565b60006020828403121561561257600080fd5b60006156208482850161530c565b91505092915050565b60008060008060008060c0878903121561564257600080fd5b600061565089828a0161530c565b965050602061566189828a0161530c565b955050604061567289828a0161530c565b945050606061568389828a0161530c565b935050608061569489828a0161530c565b92505060a06156a589828a0161530c565b9150509295509295509295565b6156bb81615ae5565b82525050565b6156ca81615acd565b6156d382615ac3565b60005b82811015615705576156e985835161571b565b6156f282615ad8565b91506020850194506001810190506156d6565b5050505050565b61571581615b05565b82525050565b61572481615b11565b82525050565b61573381615b3d565b82525050565b61574281615c08565b82525050565b61575181615b47565b82525050565b600060208201905061576c60008301846156b2565b92915050565b600060608201905061578760008301866156b2565b61579460208301856156b2565b6157a16040830184615748565b949350505050565b60006040820190506157be60008301856156b2565b6157cb6020830184615748565b9392505050565b600060c0820190506157e760008301886156c1565b6157f46040830187615748565b61580160608301866156b2565b61580e60808301856156b2565b61581b60a0830184615748565b9695505050505050565b60006101008201905061583b600083018a6156c1565b6158486040830189615748565b61585560608301886156b2565b6158626080830187615748565b61586f60a0830186615748565b61587c60c0830185615748565b61588960e083018461570c565b98975050505050505050565b60006020820190506158aa600083018461570c565b92915050565b60006060820190506158c5600083018661570c565b6158d26020830185615748565b6158df60408301846156b2565b949350505050565b60006020820190506158fc600083018461572a565b92915050565b6000604082019050615917600083018561572a565b61592460208301846156b2565b9392505050565b60006020820190506159406000830184615739565b92915050565b600060208201905061595b6000830184615748565b92915050565b60006060820190506159766000830186615748565b61598360208301856156b2565b6159906040830184615748565b949350505050565b60006060820190506159ad6000830185615748565b6159ba60208301846156c1565b9392505050565b60006040820190506159d66000830185615748565b6159e3602083018461570c565b9392505050565b60006040820190506159ff6000830185615748565b615a0c6020830184615748565b9392505050565b600060c082019050615a286000830189615748565b615a356020830188615748565b615a426040830187615748565b615a4f6060830186615748565b615a5c6080830185615748565b615a6960a0830184615748565b979650505050505050565b6000604051905081810181811067ffffffffffffffff82111715615a9757600080fd5b8060405250919050565b600067ffffffffffffffff821115615ab857600080fd5b602082029050919050565b6000819050919050565b600060029050919050565b6000602082019050919050565b600073ffffffffffffffffffffffffffffffffffffffff82169050919050565b60008115159050919050565b60007fffffffffffffffffffffffffffffffffffffffffffffffffffffffff0000000082169050919050565b6000819050919050565b6000819050919050565b600073ffffffffffffffffffffffffffffffffffffffff82169050919050565b60008115159050919050565b60007fffffffffffffffffffffffffffffffff0000000000000000000000000000000082169050919050565b60007fffffffffffffffffffffffffffffffffffffffffffffffffffffffff0000000082169050919050565b6000819050919050565b6000615bea82615ae5565b9050919050565b6000819050919050565b600060ff82169050919050565b6000615c1382615ae5565b90509190505600a265627a7a723058207aa30d064341665e7de862fa5de51ca5aed87831cf24beb4dad5a4cbabbe9e536c6578706572696d656e74616cf50037",
  "source": "pragma solidity ^0.4.18;\npragma experimental ABIEncoderV2;\n\n/**\n * The CloversController is a replaceable endpoint for minting and unminting Clovers.sol and ClubToken.sol\n */\n\nimport \"./Reversi.sol\";\nimport \"./IClovers.sol\";\nimport \"./IClubToken.sol\";\nimport \"./ICloversController.sol\";\nimport \"./IClubTokenController.sol\";\nimport \"./ISimpleCloversMarket.sol\";\nimport \"zeppelin-solidity/contracts/ownership/HasNoTokens.sol\";\nimport \"zeppelin-solidity/contracts/ownership/HasNoEther.sol\";\nimport \"zeppelin-solidity/contracts/math/SafeMath.sol\";\n\n\ncontract CloversController is HasNoEther, HasNoTokens {\n    event cloverCommitted(bytes32 movesHash, address owner);\n    event cloverClaimed(bytes28[2] moves, uint256 tokenId, address owner, uint stake, uint reward, uint256 symmetries, bool keep);\n    event stakeRetrieved(uint256 tokenId, address owner, uint stake);\n    event cloverChallenged(bytes28[2] moves, uint256 tokenId, address owner, address challenger, uint stake);\n\n    using SafeMath for uint256;\n\n    address public oracle;\n    address public clovers;\n    address public clubToken;\n    address public clubTokenController;\n    address public simpleCloversMarket;\n\n    uint256 public basePrice;\n    uint256 public priceMultiplier;\n    uint256 public payMultiplier;\n    uint256 public stakeAmount;\n    uint256 public stakePeriod;\n\n    struct Commit {\n        bool collected;\n        uint256 stake;\n        address committer;\n    }\n\n    mapping (bytes32 => Commit) public commits;\n\n    constructor(address _clovers, address _clubToken, address _clubTokenController) public {\n        clovers = _clovers;\n        clubToken = _clubToken;\n        clubTokenController = _clubTokenController;\n    }\n    /**\n    * @dev Gets the current stake of a Clover based on the hash of the moves.\n    * @param movesHash The hash of the moves that make up the clover.\n    * @return A uint256 value of stake.\n    */\n    function getStake(bytes32 movesHash) public view returns (uint256) {\n        return commits[movesHash].stake;\n    }\n    /**\n    * @dev Gets the address of the committer of a Clover based on the hash of the moves.\n    * @param movesHash The hash of the moves that make up the clover.\n    * @return The address of the committer.\n    */\n    function getCommit(bytes32 movesHash) public view returns (address) {\n        return commits[movesHash].committer;\n    }\n    /**\n    * @dev Gets the current staking period needed to verify a Clover.\n    * @param _tokenId The token Id of the clover.\n    * @return A uint256 value of stake period in seconds.\n    */\n    function getMovesHash(uint _tokenId) public constant returns (bytes32) {\n        return keccak256(IClovers(clovers).getCloverMoves(_tokenId));\n    }\n    /**\n    * @dev Checks whether the game is valid.\n    * @param moves The moves needed to play validate the game.\n    * @return A boolean representing whether or not the game is valid.\n    */\n    function isValid(bytes28[2] moves) public constant returns (bool) {\n        Reversi.Game memory game = Reversi.playGame(moves);\n        return isValidGame(game);\n    }\n\n    /**\n    * @dev Checks whether the game is valid.\n    * @param game The pre-played game.\n    * @return A boolean representing whether or not the game is valid.\n    */\n    function isValidGame(Reversi.Game game) public pure returns (bool) {\n        if (game.error) return false;\n        if (!game.complete) return false;\n        return true;\n    }\n    /**\n    * @dev Checks whether the game has passed the verification period.\n    * @param _tokenId The board being checked.\n    * @return A boolean representing whether or not the game has been verified.\n    */\n    function isVerified(uint256 _tokenId) public constant returns (bool) {\n        uint256 _blockMinted = IClovers(clovers).getBlockMinted(_tokenId);\n        if(_blockMinted == 0) return false;\n        return block.number.sub(_blockMinted) > stakePeriod;\n    }\n    /**\n    * @dev Calculates the reward of the board.\n    * @param _symmetries symmetries saved as a uint256 value like 00010101 where bits represent symmetry types.\n    * @return A uint256 representing the reward that would be returned for claiming the board.\n    */\n    function calculateReward(uint256 _symmetries) public constant returns (uint256) {\n        uint256 Symmetricals;\n        uint256 RotSym;\n        uint256 Y0Sym;\n        uint256 X0Sym;\n        uint256 XYSym;\n        uint256 XnYSym;\n        (Symmetricals,\n        RotSym,\n        Y0Sym,\n        X0Sym,\n        XYSym,\n        XnYSym) = IClovers(clovers).getAllSymmetries();\n        uint256 base = 0;\n        if (_symmetries >> 4 & 1 == 1) base = base.add(payMultiplier.mul(Symmetricals + 1).div(RotSym + 1));\n        if (_symmetries >> 3 & 1 == 1) base = base.add(payMultiplier.mul(Symmetricals + 1).div(Y0Sym + 1));\n        if (_symmetries >> 2 & 1 == 1) base = base.add(payMultiplier.mul(Symmetricals + 1).div(X0Sym + 1));\n        if (_symmetries >> 1 & 1 == 1) base = base.add(payMultiplier.mul(Symmetricals + 1).div(XYSym + 1));\n        if (_symmetries & 1 == 1) base = base.add(payMultiplier.mul(Symmetricals + 1).div(XnYSym + 1));\n        return base;\n    }\n\n/*\n    // NOTE: Disabled to reduce contract size\n    function instantClaimClover(bytes28[2] moves, bool _keep) public payable returns (bool) {\n        Reversi.Game memory game = Reversi.playGame(moves);\n        require(isValidGame(game));\n        uint256 tokenId = uint256(game.board);\n        require(IClovers(clovers).getBlockMinted(tokenId) == 0);\n        require(!IClovers(clovers).exists(tokenId));\n        IClovers(clovers).setBlockMinted(tokenId, block.number);\n        IClovers(clovers).setCloverMoves(tokenId, moves);\n\n        uint256 symmetries = Reversi.returnSymmetricals(game.RotSym, game.Y0Sym, game.X0Sym, game.XYSym, game.XnYSym);\n        uint256 reward;\n\n        if (uint256(symmetries) > 0) {\n            IClovers(clovers).setSymmetries(tokenId, uint256(symmetries));\n            reward = calculateReward(uint256(symmetries));\n            IClovers(clovers).setReward(tokenId, reward);\n        }\n        if (_keep) {\n            // If the user decides to keep the Clover, they must\n            // pay for it in club tokens according to the reward price.\n            if (IClubToken(clubToken).balanceOf(msg.sender) < reward) {\n                IClubTokenController(clubTokenController).buy(msg.sender); // msg.value needs to be enough to buy \"reward\" amount of Club Token\n            }\n            if (reward > 0) {\n                // IClubToken(clubToken).transferFrom(msg.sender, clubToken, reward); // if we'd rather keep the money\n                IClubToken(clubToken).burn(msg.sender, reward);\n            }\n            IClovers(clovers).mint(msg.sender, tokenId);\n        } else {\n            // If the user decides not to keep the Clover, they will\n            // receive the reward price in club tokens, and the clover will\n            // go for sale at 10x the reward price.\n            if (reward > 0) {\n                require(IClubToken(clubToken).mint(msg.sender, reward));\n            }\n            IClovers(clovers).mint(clovers, tokenId);\n        }\n\n    } */\n\n\n    /**\n    * @dev Claim the Clover without a commit or reveal. Payable so you can attach enough for the stake,\n    * as well as enough to buy tokens if needed to keep the Clover.\n    * @param moves The moves that make up the Clover reversi game.\n    * @param _tokenId The board that results from the moves.\n    * @param _symmetries symmetries saved as a uint256 value like 00010101 where bits represent symmetry\n    * types.\n    * @return A boolean representing whether or not the claim was successful.\n    */\n    function claimClover(bytes28[2] moves, uint256 _tokenId, uint256 _symmetries, bool _keep) public payable returns (bool) {\n        bytes32 movesHash = keccak256(moves);\n\n        require(msg.value >= stakeAmount);\n        require(getCommit(movesHash) == 0);\n\n        setCommit(movesHash, msg.sender);\n        if (stakeAmount > 0) {\n            setStake(movesHash, stakeAmount);\n            clovers.transfer(stakeAmount);\n        }\n\n        emit cloverCommitted(movesHash, msg.sender);\n\n        require(!IClovers(clovers).exists(_tokenId));\n        require(IClovers(clovers).getBlockMinted(_tokenId) == 0);\n\n        IClovers(clovers).setBlockMinted(_tokenId, block.number);\n        IClovers(clovers).setCloverMoves(_tokenId, moves);\n        IClovers(clovers).setKeep(_tokenId, _keep);\n\n        uint256 reward;\n        if (_symmetries > 0) {\n            IClovers(clovers).setSymmetries(_tokenId, _symmetries);\n            reward = calculateReward(_symmetries);\n            IClovers(clovers).setReward(_tokenId, reward);\n        }\n        uint256 price = basePrice.add(reward);\n        if (_keep && price > 0) {\n            // If the user decides to keep the Clover, they must\n            // pay for it in club tokens according to the reward price.\n            if (IClubToken(clubToken).balanceOf(msg.sender) < price) {\n                IClubTokenController(clubTokenController).buy(msg.sender);\n            }\n            IClubToken(clubToken).transferFrom(msg.sender, clovers, price);\n            /* IClubToken(clubToken).burn(committer, price); */\n        }\n        IClovers(clovers).mint(clovers, _tokenId);\n        emit cloverClaimed(moves, _tokenId, msg.sender, stakeAmount, reward, _symmetries, _keep);\n\n        return true;\n    }\n    /**\n    * @dev Commit the hash of the moves needed to claim the Clover. A stake should be\n    * made for counterfactual verification.\n    * @param movesHash The hash of the moves that makes up the Clover reversi\n    * game.\n    * @return A boolean representing whether or not the commit was successful.\n    NOTE: Disabled for contract size, if front running becomes a problem it can be\n    implemented with an upgrade\n    */\n    /* function claimCloverCommit(bytes32 movesHash) public payable returns (bool) {\n        require(msg.value <= stakeAmount);\n        require(getCommit(movesHash) == 0);\n\n        setCommit(movesHash, msg.sender);\n        setStake(movesHash, stakeAmount);\n\n        clovers.transfer(stakeAmount);\n\n        emit cloverCommitted(movesHash, msg.sender);\n        return true;\n    } */\n    /**\n    * @dev Reveal the solution to the previous commit to claim the Clover.\n    * @param moves The moves that make up the Clover reversi game.\n    * @param _tokenId The board that results from the moves.\n    * @param _symmetries symmetries saved as a uint256 value like 00010101 where bits represent symmetry types.\n    * @return A boolean representing whether or not the reveal and claim was successful.\n    NOTE: Disabled for contract size, if front running becomes a problem it can be implemented with an upgrade\n    */\n    /* function claimCloverReveal(bytes28[2] moves, uint256 _tokenId, uint256 _symmetries, bool _keep) public returns (bool) {\n        bytes32 movesHash = keccak256(moves);\n        address committer = getCommit(movesHash);\n\n        require(IClovers(clovers).getBlockMinted(_tokenId) == 0);\n\n        IClovers(clovers).setBlockMinted(_tokenId, block.number);\n        IClovers(clovers).setCloverMoves(_tokenId, moves);\n        IClovers(clovers).setKeep(_tokenId, _keep);\n        uint256 reward;\n        if (_symmetries > 0) {\n            IClovers(clovers).setSymmetries(_tokenId, _symmetries);\n            reward = calculateReward(_symmetries);\n            IClovers(clovers).setReward(_tokenId, reward);\n        }\n        if (_keep) {\n            IClubToken(clubToken).increaseApproval(address(this), basePrice.add(reward));\n        }\n        uint256 stake = getStake(movesHash);\n        emit cloverClaimed(moves, _tokenId, committer, stake, reward, _symmetries, _keep);\n        return true;\n    } */\n\n    /**\n    * @dev Retrieve the stake from a Clover claim after the stake period has ended, or with the authority of the oracle.\n    * @param _tokenId The board which holds the stake.\n    * @return A boolean representing whether or not the retrieval was successful.\n    */\n    function retrieveStake(uint256 _tokenId) public payable returns (bool) {\n        bytes28[2] memory moves = IClovers(clovers).getCloverMoves(_tokenId);\n        bytes32 movesHash = keccak256(moves);\n\n        require(!commits[movesHash].collected);\n        commits[movesHash].collected = true;\n\n        require(isVerified(_tokenId) || msg.sender == owner || msg.sender == oracle);\n\n        uint256 stake = getStake(movesHash);\n        addSymmetries(_tokenId);\n        address committer = getCommit(movesHash);\n        require(msg.sender == committer);\n\n        uint256 reward = IClovers(clovers).getReward(_tokenId);\n        bool _keep = IClovers(clovers).getKeep(_tokenId);\n\n        if (_keep) {\n            // If the user decided to keep the Clover, they will\n            // receive the clover now that it has been verified\n            IClovers(clovers).transferFrom(clovers, committer, _tokenId);\n        } else {\n            // If the user decided not to keep the Clover, they will\n            // receive the reward price in club tokens, and the clover will\n            // go for sale by the contract.\n            ISimpleCloversMarket(simpleCloversMarket).sell(_tokenId, basePrice.add(reward.mul(priceMultiplier)));\n            if (reward > 0) {\n                require(IClubToken(clubToken).mint(committer, reward));\n            }\n        }\n        if (stake > 0) {\n            IClovers(clovers).moveEth(committer, stake);\n        }\n        emit stakeRetrieved(_tokenId, committer, stake);\n        return true;\n    }\n\n\n    /**\n    * @dev Convert a bytes16 board into a uint256.\n    * @param _board The board being converted.\n    * @return number the uint256 being converted.\n    */\n    function convertBytes16ToUint(bytes16 _board) public view returns(uint256 number) {\n        for(uint i=0;i<_board.length;i++){\n            number = number + uint(_board[i])*(2**(8*(_board.length-(i+1))));\n        }\n    }\n\n    /**\n    * @dev Challenge a staked Clover for being invalid.\n    * @param _tokenId The board being challenged.\n    * @return A boolean representing whether or not the challenge was successful.\n    */\n    function challengeClover(uint256 _tokenId) public returns (bool) {\n        bool valid = true;\n        bytes28[2] memory moves = IClovers(clovers).getCloverMoves(_tokenId);\n\n        if (msg.sender != owner && msg.sender != oracle) {\n            Reversi.Game memory game = Reversi.playGame(moves);\n            if(convertBytes16ToUint(game.board) != _tokenId) {\n                valid = false;\n            }\n            if(valid && isValidGame(game)) {\n                uint256 _symmetries = IClovers(clovers).getSymmetries(_tokenId);\n                valid = (_symmetries >> 4 & 1) > 0 == game.RotSym ? valid : false;\n                valid = (_symmetries >> 3 & 1) > 0 == game.Y0Sym ? valid : false;\n                valid = (_symmetries >> 2 & 1) > 0 == game.X0Sym ? valid : false;\n                valid = (_symmetries >> 1 & 1) > 0 == game.XYSym ? valid : false;\n                valid = (_symmetries & 1) > 0 == game.XnYSym ? valid : false;\n            } else {\n                valid = false;\n            }\n            require(!valid);\n        }\n        bytes32 movesHash = keccak256(moves);\n        uint256 stake = getStake(movesHash);\n        if (!isVerified(_tokenId) && stake > 0) {\n            IClovers(clovers).moveEth(msg.sender, stake);\n        }\n        if (commits[movesHash].collected) {\n            removeSymmetries(_tokenId);\n        }\n\n        address committer = getCommit(movesHash);\n        emit cloverChallenged(moves, _tokenId, committer, msg.sender, stake);\n\n        IClovers(clovers).deleteClover(_tokenId);\n        deleteCommit(movesHash);\n        return true;\n    }\n\n\n    /**\n    * @dev Moves clovers without explicit allow permission for use by simpleCloversMarket\n    * in order to avoid double transaction (allow, transferFrom)\n    * @param _from The current owner of the Clover\n    * @param _to The future owner of the Clover\n    * @param _tokenId The Clover\n    */\n    function transferFrom(address _from, address _to, uint256 _tokenId) public {\n        require(msg.sender == simpleCloversMarket);\n        IClovers(clovers).transferFrom(_from, _to, _tokenId);\n    }\n\n    /**\n    * @dev Updates oracle Address.\n    * @param _oracle The new oracle Address.\n    */\n    function updateOracle(address _oracle) public onlyOwner {\n        oracle = _oracle;\n    }\n\n    /**\n    * @dev Updates simpleCloversMarket Address.\n    * @param _simpleCloversMarket The new simpleCloversMarket address.\n    */\n    function updateSimpleCloversMarket(address _simpleCloversMarket) public onlyOwner {\n        simpleCloversMarket = _simpleCloversMarket;\n    }\n\n    /**\n    * @dev Updates clubTokenController Address.\n    * @param _clubTokenController The new clubTokenController address.\n    */\n    function updateClubTokenController(address _clubTokenController) public onlyOwner {\n        clubTokenController = _clubTokenController;\n    }\n    /**\n    * @dev Updates the stake amount.\n    * @param _stakeAmount The new amount needed to stake.\n    */\n    function updateStakeAmount(uint256 _stakeAmount) public onlyOwner {\n        stakeAmount = _stakeAmount;\n    }\n    /**\n    * @dev Updates the stake period.\n    * @param _stakePeriod The uint256 value of time needed to stake before being verified.\n    */\n    function updateStakePeriod(uint256 _stakePeriod) public onlyOwner {\n        stakePeriod = _stakePeriod;\n    }\n    /**\n    * @dev Updates the pay multiplier, used to calculate token reward.\n    * @param _payMultiplier The uint256 value of pay multiplier.\n    */\n    function updatePayMultipier(uint256 _payMultiplier) public onlyOwner {\n        payMultiplier = _payMultiplier;\n    }\n    /**\n    * @dev Updates the price multiplier, used to calculate the clover price (multiplied by the original reward).\n    * @param _priceMultiplier The uint256 value of the price multiplier.\n    */\n    function updatePriceMultipier(uint256 _priceMultiplier) public onlyOwner {\n        priceMultiplier = _priceMultiplier;\n    }\n    /**\n    * @dev Updates the base price, used to calculate the clover cost.\n    * @param _basePrice The uint256 value of the base price.\n    */\n    function updateBasePrice(uint256 _basePrice) public onlyOwner {\n        basePrice = _basePrice;\n    }\n\n    /**\n    * @dev Sets the stake of a Clover based on the hash of the moves.\n    * @param movesHash The hash of the moves that make up the clover.\n    * @param stake A uint256 value of stake.\n    */\n    function setStake(bytes32 movesHash, uint256 stake) private {\n        commits[movesHash].stake = stake;\n    }\n\n    /**\n    * @dev Sets the address of the committer of a Clover based on the hash of the moves.\n    * @param movesHash The hash of the moves that make up the clover.\n    * @param committer The address of the committer.\n    */\n    function setCommit(bytes32 movesHash, address committer) private {\n        commits[movesHash].committer = committer;\n    }\n\n    function _setCommit(bytes32 movesHash, address committer) onlyOwner {\n        setCommit(movesHash, committer);\n    }\n    function deleteCommit(bytes32 movesHash) private {\n        delete(commits[movesHash]);\n    }\n\n    /**\n    * @dev Adds new tallys of the totals numbers of clover symmetries.\n    * @param _tokenId The token which needs to be examined.\n    */\n    function addSymmetries(uint256 _tokenId) private {\n        uint256 Symmetricals;\n        uint256 RotSym;\n        uint256 Y0Sym;\n        uint256 X0Sym;\n        uint256 XYSym;\n        uint256 XnYSym;\n        (Symmetricals,\n        RotSym,\n        Y0Sym,\n        X0Sym,\n        XYSym,\n        XnYSym) = IClovers(clovers).getAllSymmetries();\n        uint256 _symmetries = IClovers(clovers).getSymmetries(_tokenId);\n        Symmetricals = Symmetricals.add(_symmetries > 0 ? 1 : 0);\n        RotSym = RotSym.add(uint256(_symmetries >> 4 & 1));\n        Y0Sym = Y0Sym.add(uint256(_symmetries >> 3 & 1));\n        X0Sym = X0Sym.add(uint256(_symmetries >> 2 & 1));\n        XYSym = XYSym.add(uint256(_symmetries >> 1 & 1));\n        XnYSym = XnYSym.add(uint256(_symmetries & 1));\n        IClovers(clovers).setAllSymmetries(Symmetricals, RotSym, Y0Sym, X0Sym, XYSym, XnYSym);\n    }\n    /**\n    * @dev Remove false tallys of the totals numbers of clover symmetries.\n    * @param _tokenId The token which needs to be examined.\n    */\n    function removeSymmetries(uint256 _tokenId) private {\n        uint256 Symmetricals;\n        uint256 RotSym;\n        uint256 Y0Sym;\n        uint256 X0Sym;\n        uint256 XYSym;\n        uint256 XnYSym;\n        (Symmetricals,\n        RotSym,\n        Y0Sym,\n        X0Sym,\n        XYSym,\n        XnYSym) = IClovers(clovers).getAllSymmetries();\n        uint256 _symmetries = IClovers(clovers).getSymmetries(_tokenId);\n        Symmetricals = Symmetricals.sub(_symmetries > 0 ? 1 : 0);\n        RotSym = RotSym.sub(uint256(_symmetries >> 4 & 1));\n        Y0Sym = Y0Sym.sub(uint256(_symmetries >> 3 & 1));\n        X0Sym = X0Sym.sub(uint256(_symmetries >> 2 & 1));\n        XYSym = XYSym.sub(uint256(_symmetries >> 1 & 1));\n        XnYSym = XnYSym.sub(uint256(_symmetries & 1));\n        IClovers(clovers).setAllSymmetries(Symmetricals, RotSym, Y0Sym, X0Sym, XYSym, XnYSym);\n    }\n\n}\n",
  "sourcePath": "/Users/billy/clovers/clovers-contracts/contracts/CloversController.sol",
  "compiler": {
    "name": "solc",
    "version": "0.4.24+commit.e67f0147.Emscripten.clang"
  },
  "schemaVersion": "2.0.1",
  "updatedAt": "2018-08-02T13:17:06.605Z"
}