{
  "contractName": "CloversMetadata",
  "abi": [
    {
      "constant": false,
      "inputs": [],
      "name": "TokenMetadataController",
      "outputs": [],
      "payable": false,
      "stateMutability": "nonpayable",
      "type": "function"
    },
    {
      "constant": true,
      "inputs": [
        {
          "name": "_tokenId",
          "type": "uint256"
        }
      ],
      "name": "tokenMetadata",
      "outputs": [
        {
          "name": "_infoUrl",
          "type": "string"
        }
      ],
      "payable": false,
      "stateMutability": "view",
      "type": "function"
    }
  ],
  "bytecode": "0x6060604052341561000f57600080fd5b6105738061001e6000396000f30060606040526004361061004c576000357c0100000000000000000000000000000000000000000000000000000000900463ffffffff168063199ae150146100515780636914db6014610066575b600080fd5b341561005c57600080fd5b61006461009c565b005b341561007157600080fd5b6100866004610081903690610456565b61009e565b60405161009391906104be565b60405180910390f35b565b6100a6610400565b6100ae610400565b6100b6610400565b6100be610400565b6040805190810160405280602081526020017f68747470733a2f2f6170692e636c6f766572732e6e6574776f726b2f632f307881525092506100ff85610188565b91506040805190810160405280600581526020017f2e6a736f6e000000000000000000000000000000000000000000000000000000815250905061017e61014582610309565b61017061016b61015486610309565b61015d88610309565b61033790919063ffffffff16565b610309565b61033790919063ffffffff16565b9350505050919050565b610190610400565b600080600061019d610414565b60008060008814156101e6576040805190810160405280600181526020017f300000000000000000000000000000000000000000000000000000000000000081525096506102fe565b8795505b60008614151561020c5784806001019550506004869060020a900495506101ea565b600f93508460405180591061021e5750595b9080825280601f01601f191660200182016040525092506001850391505b6000881415156102fa5783881690506009811161027e57806030017f0100000000000000000000000000000000000000000000000000000000000000026102a5565b806037017f0100000000000000000000000000000000000000000000000000000000000000025b8383806001900394508151811015156102ba57fe5b9060200101907effffffffffffffffffffffffffffffffffffffffffffffffffffffffffffff1916908160001a9053506004889060020a9004975061023c565b8296505b505050505050919050565b610311610428565b600060208301905060408051908101604052808451815260200182815250915050919050565b61033f610400565b610347610400565b600083600001518560000151016040518059106103615750595b9080825280601f01601f1916602001820160405250915060208201905061039181866020015187600001516103b5565b6103aa85600001518201856020015186600001516103b5565b819250505092915050565b60005b6020821015156103dd57825184526020840193506020830192506020820391506103b8565b6001826020036101000a0390508019835116818551168181178652505050505050565b602060405190810160405280600081525090565b602060405190810160405280600081525090565b604080519081016040528060008152602001600081525090565b600061044e82356104eb565b905092915050565b60006020828403126001811461046b57610470565b600080fd5b50600061047f84828501610442565b91505092915050565b6000610493826104e0565b8084526104a78160208601602086016104f5565b6104b081610528565b602085010191505092915050565b600060208201905081810360008301526104d88184610488565b905092915050565b600081519050919050565b6000819050919050565b60005b838110156105135780820151818401526020810190506104f8565b83811115610522576000848401525b50505050565b6000601f19601f83011690509190505600a265627a7a723058206c03e62dc98d502ff6daae7f9ec4e067cdb270c8df7ac33946ff1d176b84883a6c6578706572696d656e74616cf50037",
  "source": "pragma solidity ^0.4.19;\npragma experimental ABIEncoderV2;\n\n/**\n* CloversMetadata contract is upgradeable and returns metadata about Clovers\n*/\n\nimport \"./helpers/strings.sol\";\n\n\ncontract CloversMetadata {\n    using strings for *;\n\n    function TokenMetadataController () public {}\n\n    function tokenMetadata(uint _tokenId) public view returns (string _infoUrl) {\n        string memory base = \"https://api.clovers.network/c/0x\";\n        string memory id = uint2hexstr(_tokenId);\n        string memory suffix = \".json\";\n        return base.toSlice().concat(id.toSlice()).toSlice().concat(suffix.toSlice());\n    }\n    function uint2hexstr(uint i) internal pure returns (string) {\n        if (i == 0) return \"0\";\n        uint j = i;\n        uint length;\n        while (j != 0) {\n            length++;\n            j = j >> 4;\n        }\n        uint mask = 15;\n        bytes memory bstr = new bytes(length);\n        uint k = length - 1;\n        while (i != 0){\n            uint curr = (i & mask);\n            bstr[k--] = curr > 9 ? byte(55 + curr) : byte(48 + curr); // 55 = 65 - 10\n            i = i >> 4;\n        }\n        return string(bstr);\n    }\n}",
  "sourcePath": "/Users/billy/sol/clovers-contracts/contracts/CloversMetadata.sol",
  "compiler": {
    "name": "solc",
    "version": "0.4.19+commit.c4cbbb05.Emscripten.clang"
  },
  "schemaVersion": "1.0.1",
  "updatedAt": "2018-04-06T02:10:48.082Z"
}