{
  "contractName": "Clovers",
  "abi": [
    {
      "constant": true,
      "inputs": [
        {
          "name": "_interfaceId",
          "type": "bytes4"
        }
      ],
      "name": "supportsInterface",
      "outputs": [
        {
          "name": "",
          "type": "bool"
        }
      ],
      "payable": false,
      "stateMutability": "view",
      "type": "function"
    },
    {
      "constant": true,
      "inputs": [],
      "name": "name",
      "outputs": [
        {
          "name": "",
          "type": "string"
        }
      ],
      "payable": false,
      "stateMutability": "view",
      "type": "function"
    },
    {
      "constant": true,
      "inputs": [
        {
          "name": "_tokenId",
          "type": "uint256"
        }
      ],
      "name": "getApproved",
      "outputs": [
        {
          "name": "",
          "type": "address"
        }
      ],
      "payable": false,
      "stateMutability": "view",
      "type": "function"
    },
    {
      "constant": false,
      "inputs": [
        {
          "name": "_to",
          "type": "address"
        },
        {
          "name": "_tokenId",
          "type": "uint256"
        }
      ],
      "name": "approve",
      "outputs": [],
      "payable": false,
      "stateMutability": "nonpayable",
      "type": "function"
    },
    {
      "constant": true,
      "inputs": [],
      "name": "totalSupply",
      "outputs": [
        {
          "name": "",
          "type": "uint256"
        }
      ],
      "payable": false,
      "stateMutability": "view",
      "type": "function"
    },
    {
      "constant": true,
      "inputs": [],
      "name": "InterfaceId_ERC165",
      "outputs": [
        {
          "name": "",
          "type": "bytes4"
        }
      ],
      "payable": false,
      "stateMutability": "view",
      "type": "function"
    },
    {
      "constant": false,
      "inputs": [
        {
          "name": "_from",
          "type": "address"
        },
        {
          "name": "_to",
          "type": "address"
        },
        {
          "name": "_tokenId",
          "type": "uint256"
        }
      ],
      "name": "transferFrom",
      "outputs": [],
      "payable": false,
      "stateMutability": "nonpayable",
      "type": "function"
    },
    {
      "constant": true,
      "inputs": [
        {
          "name": "_owner",
          "type": "address"
        },
        {
          "name": "_index",
          "type": "uint256"
        }
      ],
      "name": "tokenOfOwnerByIndex",
      "outputs": [
        {
          "name": "",
          "type": "uint256"
        }
      ],
      "payable": false,
      "stateMutability": "view",
      "type": "function"
    },
    {
      "constant": false,
      "inputs": [
        {
          "name": "_from",
          "type": "address"
        },
        {
          "name": "_to",
          "type": "address"
        },
        {
          "name": "_tokenId",
          "type": "uint256"
        }
      ],
      "name": "safeTransferFrom",
      "outputs": [],
      "payable": false,
      "stateMutability": "nonpayable",
      "type": "function"
    },
    {
      "constant": true,
      "inputs": [
        {
          "name": "_tokenId",
          "type": "uint256"
        }
      ],
      "name": "exists",
      "outputs": [
        {
          "name": "",
          "type": "bool"
        }
      ],
      "payable": false,
      "stateMutability": "view",
      "type": "function"
    },
    {
      "constant": true,
      "inputs": [
        {
          "name": "_index",
          "type": "uint256"
        }
      ],
      "name": "tokenByIndex",
      "outputs": [
        {
          "name": "",
          "type": "uint256"
        }
      ],
      "payable": false,
      "stateMutability": "view",
      "type": "function"
    },
    {
      "constant": true,
      "inputs": [
        {
          "name": "_tokenId",
          "type": "uint256"
        }
      ],
      "name": "ownerOf",
      "outputs": [
        {
          "name": "",
          "type": "address"
        }
      ],
      "payable": false,
      "stateMutability": "view",
      "type": "function"
    },
    {
      "constant": true,
      "inputs": [
        {
          "name": "",
          "type": "uint256"
        }
      ],
      "name": "clovers",
      "outputs": [
        {
          "name": "keep",
          "type": "bool"
        },
        {
          "name": "symmetries",
          "type": "uint256"
        },
        {
          "name": "blockMinted",
          "type": "uint256"
        },
        {
          "name": "rewards",
          "type": "uint256"
        }
      ],
      "payable": false,
      "stateMutability": "view",
      "type": "function"
    },
    {
      "constant": true,
      "inputs": [
        {
          "name": "_owner",
          "type": "address"
        }
      ],
      "name": "balanceOf",
      "outputs": [
        {
          "name": "",
          "type": "uint256"
        }
      ],
      "payable": false,
      "stateMutability": "view",
      "type": "function"
    },
    {
      "constant": false,
      "inputs": [],
      "name": "renounceOwnership",
      "outputs": [],
      "payable": false,
      "stateMutability": "nonpayable",
      "type": "function"
    },
    {
      "constant": true,
      "inputs": [],
      "name": "owner",
      "outputs": [
        {
          "name": "",
          "type": "address"
        }
      ],
      "payable": false,
      "stateMutability": "view",
      "type": "function"
    },
    {
      "constant": true,
      "inputs": [],
      "name": "symbol",
      "outputs": [
        {
          "name": "",
          "type": "string"
        }
      ],
      "payable": false,
      "stateMutability": "view",
      "type": "function"
    },
    {
      "constant": false,
      "inputs": [
        {
          "name": "_to",
          "type": "address"
        },
        {
          "name": "_approved",
          "type": "bool"
        }
      ],
      "name": "setApprovalForAll",
      "outputs": [],
      "payable": false,
      "stateMutability": "nonpayable",
      "type": "function"
    },
    {
      "constant": false,
      "inputs": [
        {
          "name": "_from",
          "type": "address"
        },
        {
          "name": "_to",
          "type": "address"
        },
        {
          "name": "_tokenId",
          "type": "uint256"
        },
        {
          "name": "_data",
          "type": "bytes"
        }
      ],
      "name": "safeTransferFrom",
      "outputs": [],
      "payable": false,
      "stateMutability": "nonpayable",
      "type": "function"
    },
    {
      "constant": true,
      "inputs": [
        {
          "name": "_owner",
          "type": "address"
        },
        {
          "name": "_operator",
          "type": "address"
        }
      ],
      "name": "isApprovedForAll",
      "outputs": [
        {
          "name": "",
          "type": "bool"
        }
      ],
      "payable": false,
      "stateMutability": "view",
      "type": "function"
    },
    {
      "constant": false,
      "inputs": [
        {
          "name": "_newOwner",
          "type": "address"
        }
      ],
      "name": "transferOwnership",
      "outputs": [],
      "payable": false,
      "stateMutability": "nonpayable",
      "type": "function"
    },
    {
      "inputs": [
        {
          "name": "name",
          "type": "string"
        },
        {
          "name": "symbol",
          "type": "string"
        }
      ],
      "payable": false,
      "stateMutability": "nonpayable",
      "type": "constructor"
    },
    {
      "payable": true,
      "stateMutability": "payable",
      "type": "fallback"
    },
    {
      "anonymous": false,
      "inputs": [
        {
          "indexed": true,
          "name": "previousOwner",
          "type": "address"
        }
      ],
      "name": "OwnershipRenounced",
      "type": "event"
    },
    {
      "anonymous": false,
      "inputs": [
        {
          "indexed": true,
          "name": "previousOwner",
          "type": "address"
        },
        {
          "indexed": true,
          "name": "newOwner",
          "type": "address"
        }
      ],
      "name": "OwnershipTransferred",
      "type": "event"
    },
    {
      "anonymous": false,
      "inputs": [
        {
          "indexed": true,
          "name": "_from",
          "type": "address"
        },
        {
          "indexed": true,
          "name": "_to",
          "type": "address"
        },
        {
          "indexed": true,
          "name": "_tokenId",
          "type": "uint256"
        }
      ],
      "name": "Transfer",
      "type": "event"
    },
    {
      "anonymous": false,
      "inputs": [
        {
          "indexed": true,
          "name": "_owner",
          "type": "address"
        },
        {
          "indexed": true,
          "name": "_approved",
          "type": "address"
        },
        {
          "indexed": true,
          "name": "_tokenId",
          "type": "uint256"
        }
      ],
      "name": "Approval",
      "type": "event"
    },
    {
      "anonymous": false,
      "inputs": [
        {
          "indexed": true,
          "name": "_owner",
          "type": "address"
        },
        {
          "indexed": true,
          "name": "_operator",
          "type": "address"
        },
        {
          "indexed": false,
          "name": "_approved",
          "type": "bool"
        }
      ],
      "name": "ApprovalForAll",
      "type": "event"
    },
    {
      "constant": true,
      "inputs": [],
      "name": "implementation",
      "outputs": [
        {
          "name": "",
          "type": "address"
        }
      ],
      "payable": false,
      "stateMutability": "view",
      "type": "function"
    },
    {
      "constant": true,
      "inputs": [
        {
          "name": "_tokenId",
          "type": "uint256"
        }
      ],
      "name": "tokenURI",
      "outputs": [
        {
          "name": "_infoUrl",
          "type": "string"
        }
      ],
      "payable": false,
      "stateMutability": "view",
      "type": "function"
    },
    {
      "constant": true,
      "inputs": [
        {
          "name": "moves",
          "type": "bytes28[2]"
        }
      ],
      "name": "getHash",
      "outputs": [
        {
          "name": "",
          "type": "bytes32"
        }
      ],
      "payable": false,
      "stateMutability": "pure",
      "type": "function"
    },
    {
      "constant": true,
      "inputs": [
        {
          "name": "_tokenId",
          "type": "uint256"
        }
      ],
      "name": "getKeep",
      "outputs": [
        {
          "name": "",
          "type": "bool"
        }
      ],
      "payable": false,
      "stateMutability": "view",
      "type": "function"
    },
    {
      "constant": true,
      "inputs": [
        {
          "name": "_tokenId",
          "type": "uint256"
        }
      ],
      "name": "getBlockMinted",
      "outputs": [
        {
          "name": "",
          "type": "uint256"
        }
      ],
      "payable": false,
      "stateMutability": "view",
      "type": "function"
    },
    {
      "constant": true,
      "inputs": [
        {
          "name": "_tokenId",
          "type": "uint256"
        }
      ],
      "name": "getCloverMoves",
      "outputs": [
        {
          "name": "",
          "type": "bytes28[2]"
        }
      ],
      "payable": false,
      "stateMutability": "view",
      "type": "function"
    },
    {
      "constant": true,
      "inputs": [
        {
          "name": "_tokenId",
          "type": "uint256"
        }
      ],
      "name": "getReward",
      "outputs": [
        {
          "name": "",
          "type": "uint256"
        }
      ],
      "payable": false,
      "stateMutability": "view",
      "type": "function"
    },
    {
      "constant": true,
      "inputs": [
        {
          "name": "_tokenId",
          "type": "uint256"
        }
      ],
      "name": "getSymmetries",
      "outputs": [
        {
          "name": "",
          "type": "uint256"
        }
      ],
      "payable": false,
      "stateMutability": "view",
      "type": "function"
    },
    {
      "constant": true,
      "inputs": [],
      "name": "getAllSymmetries",
      "outputs": [
        {
          "name": "",
          "type": "uint256"
        },
        {
          "name": "",
          "type": "uint256"
        },
        {
          "name": "",
          "type": "uint256"
        },
        {
          "name": "",
          "type": "uint256"
        },
        {
          "name": "",
          "type": "uint256"
        },
        {
          "name": "",
          "type": "uint256"
        }
      ],
      "payable": false,
      "stateMutability": "view",
      "type": "function"
    },
    {
      "constant": false,
      "inputs": [
        {
          "name": "_to",
          "type": "address"
        },
        {
          "name": "_amount",
          "type": "uint256"
        }
      ],
      "name": "moveEth",
      "outputs": [],
      "payable": false,
      "stateMutability": "nonpayable",
      "type": "function"
    },
    {
      "constant": false,
      "inputs": [
        {
          "name": "_to",
          "type": "address"
        },
        {
          "name": "_amount",
          "type": "uint256"
        },
        {
          "name": "_token",
          "type": "address"
        }
      ],
      "name": "moveToken",
      "outputs": [
        {
          "name": "",
          "type": "bool"
        }
      ],
      "payable": false,
      "stateMutability": "nonpayable",
      "type": "function"
    },
    {
      "constant": false,
      "inputs": [
        {
          "name": "_to",
          "type": "address"
        },
        {
          "name": "_amount",
          "type": "uint256"
        },
        {
          "name": "_token",
          "type": "address"
        }
      ],
      "name": "approveToken",
      "outputs": [
        {
          "name": "",
          "type": "bool"
        }
      ],
      "payable": false,
      "stateMutability": "nonpayable",
      "type": "function"
    },
    {
      "constant": false,
      "inputs": [
        {
          "name": "_tokenId",
          "type": "uint256"
        },
        {
          "name": "value",
          "type": "bool"
        }
      ],
      "name": "setKeep",
      "outputs": [],
      "payable": false,
      "stateMutability": "nonpayable",
      "type": "function"
    },
    {
      "constant": false,
      "inputs": [
        {
          "name": "_tokenId",
          "type": "uint256"
        },
        {
          "name": "value",
          "type": "uint256"
        }
      ],
      "name": "setBlockMinted",
      "outputs": [],
      "payable": false,
      "stateMutability": "nonpayable",
      "type": "function"
    },
    {
      "constant": false,
      "inputs": [
        {
          "name": "_tokenId",
          "type": "uint256"
        },
        {
          "name": "moves",
          "type": "bytes28[2]"
        }
      ],
      "name": "setCloverMoves",
      "outputs": [],
      "payable": false,
      "stateMutability": "nonpayable",
      "type": "function"
    },
    {
      "constant": false,
      "inputs": [
        {
          "name": "_tokenId",
          "type": "uint256"
        },
        {
          "name": "_amount",
          "type": "uint256"
        }
      ],
      "name": "setReward",
      "outputs": [],
      "payable": false,
      "stateMutability": "nonpayable",
      "type": "function"
    },
    {
      "constant": false,
      "inputs": [
        {
          "name": "_tokenId",
          "type": "uint256"
        },
        {
          "name": "_symmetries",
          "type": "uint256"
        }
      ],
      "name": "setSymmetries",
      "outputs": [],
      "payable": false,
      "stateMutability": "nonpayable",
      "type": "function"
    },
    {
      "constant": false,
      "inputs": [
        {
          "name": "_totalSymmetries",
          "type": "uint256"
        },
        {
          "name": "RotSym",
          "type": "uint256"
        },
        {
          "name": "Y0Sym",
          "type": "uint256"
        },
        {
          "name": "X0Sym",
          "type": "uint256"
        },
        {
          "name": "XYSym",
          "type": "uint256"
        },
        {
          "name": "XnYSym",
          "type": "uint256"
        }
      ],
      "name": "setAllSymmetries",
      "outputs": [],
      "payable": false,
      "stateMutability": "nonpayable",
      "type": "function"
    },
    {
      "constant": false,
      "inputs": [
        {
          "name": "_tokenId",
          "type": "uint256"
        }
      ],
      "name": "deleteClover",
      "outputs": [],
      "payable": false,
      "stateMutability": "nonpayable",
      "type": "function"
    },
    {
      "constant": false,
      "inputs": [
        {
          "name": "_cloversController",
          "type": "address"
        }
      ],
      "name": "updateCloversControllerAddress",
      "outputs": [],
      "payable": false,
      "stateMutability": "nonpayable",
      "type": "function"
    },
    {
      "constant": false,
      "inputs": [
        {
          "name": "_cloversMetadata",
          "type": "address"
        }
      ],
      "name": "updateCloversMetadataAddress",
      "outputs": [],
      "payable": false,
      "stateMutability": "nonpayable",
      "type": "function"
    },
    {
      "constant": false,
      "inputs": [
        {
          "name": "_clubTokenController",
          "type": "address"
        }
      ],
      "name": "updateClubTokenController",
      "outputs": [],
      "payable": false,
      "stateMutability": "nonpayable",
      "type": "function"
    },
    {
      "constant": false,
      "inputs": [
        {
          "name": "_to",
          "type": "address"
        },
        {
          "name": "_tokenId",
          "type": "uint256"
        }
      ],
      "name": "mint",
      "outputs": [],
      "payable": false,
      "stateMutability": "nonpayable",
      "type": "function"
    },
    {
      "constant": false,
      "inputs": [
        {
          "name": "_tokenId",
          "type": "uint256"
        }
      ],
      "name": "unmint",
      "outputs": [],
      "payable": false,
      "stateMutability": "nonpayable",
      "type": "function"
    }
  ],
  "bytecode": "0x60806040523480156200001157600080fd5b50604051620045c1380380620045c18339810180604052620000379190810190620003b2565b8181620000766301ffc9a77c010000000000000000000000000000000000000000000000000000000002620001e7640100000000026401000000009004565b620000b36380ac58cd7c010000000000000000000000000000000000000000000000000000000002620001e7640100000000026401000000009004565b620000f0634f558e797c010000000000000000000000000000000000000000000000000000000002620001e7640100000000026401000000009004565b816005908051906020019062000108929190620002a5565b50806006908051906020019062000121929190620002a5565b506200015f63780e9d637c010000000000000000000000000000000000000000000000000000000002620001e7640100000000026401000000009004565b6200019c635b5e139f7c010000000000000000000000000000000000000000000000000000000002620001e7640100000000026401000000009004565b505033600c60006101000a81548173ffffffffffffffffffffffffffffffffffffffff021916908373ffffffffffffffffffffffffffffffffffffffff1602179055505050620004b6565b63ffffffff7c010000000000000000000000000000000000000000000000000000000002817bffffffffffffffffffffffffffffffffffffffffffffffffffffffff1916141515156200023957600080fd5b6001600080837bffffffffffffffffffffffffffffffffffffffffffffffffffffffff19167bffffffffffffffffffffffffffffffffffffffffffffffffffffffff1916815260200190815260200160002060006101000a81548160ff02191690831515021790555050565b828054600181600116156101000203166002900490600052602060002090601f016020900481019282601f10620002e857805160ff191683800117855562000319565b8280016001018555821562000319579182015b8281111562000318578251825591602001919060010190620002fb565b5b5090506200032891906200032c565b5090565b6200035191905b808211156200034d57600081600090555060010162000333565b5090565b90565b600082601f83011215156200036857600080fd5b81516200037f620003798262000453565b62000425565b915080825260208301602083018583830111156200039c57600080fd5b620003a983828462000480565b50505092915050565b60008060408385031215620003c657600080fd5b600083015167ffffffffffffffff811115620003e157600080fd5b620003ef8582860162000354565b925050602083015167ffffffffffffffff8111156200040d57600080fd5b6200041b8582860162000354565b9150509250929050565b6000604051905081810181811067ffffffffffffffff821117156200044957600080fd5b8060405250919050565b600067ffffffffffffffff8211156200046b57600080fd5b601f19601f8301169050602081019050919050565b60005b83811015620004a057808201518184015260208101905062000483565b83811115620004b0576000848401525b50505050565b6140fb80620004c66000396000f300608060405260043610610225576000357c0100000000000000000000000000000000000000000000000000000000900463ffffffff16806301ffc9a71461022757806303a53d6b14610264578063048e62ca146102a157806304952631146102de57806306fdde031461031b578063081812fc14610346578063095ea7b3146103835780630b628395146103ac5780630e8310d6146103d55780631732e941146103fe57806318160ddd1461043b57806319fa8f50146104665780631c4b774b146104915780631cc1472d146104ce57806323b872dd146104f75780632f745c591461052057806340c10f191461055d57806342842e0e146105865780634e485f88146105af5780634f558e79146105d85780634f6ccce7146106155780635c60da1b1461065257806362f9acf91461067d5780636352211e146106ba57806364e779b1146106f7578063708fa7f71461072057806370a0823114610760578063715018a61461079d57806376e4a87f146107b4578063785d8d71146107dd5780638a56a2261461080d5780638b1b2ba8146108365780638da5cb5b1461085f5780639564e1801461088a57806395d89b41146108b3578063a22cb465146108de578063a47bd49614610907578063b88d4fde14610930578063c53b4bf914610959578063c863bac114610996578063c87b56dd146109d3578063dc3f775814610a10578063e3100d1e14610a39578063e985e9c514610a62578063f2fde38b14610a9f575b005b34801561023357600080fd5b5061024e60048036036102499190810190613988565b610ac8565b60405161025b9190613d34565b60405180910390f35b34801561027057600080fd5b5061028b600480360361028691908101906139da565b610b2f565b6040516102989190613e07565b60405180910390f35b3480156102ad57600080fd5b506102c860048036036102c391908101906138e7565b610b4f565b6040516102d59190613d34565b60405180910390f35b3480156102ea57600080fd5b50610305600480360361030091908101906139da565b610d6c565b6040516103129190613d34565b60405180910390f35b34801561032757600080fd5b50610330610d99565b60405161033d9190613de5565b60405180910390f35b34801561035257600080fd5b5061036d600480360361036891908101906139da565b610e3b565b60405161037a9190613c89565b60405180910390f35b34801561038f57600080fd5b506103aa60048036036103a591908101906138ab565b610e78565b005b3480156103b857600080fd5b506103d360048036036103ce9190810190613a2c565b610fbd565b005b3480156103e157600080fd5b506103fc60048036036103f791908101906139da565b61109b565b005b34801561040a57600080fd5b5061042560048036036104209190810190613936565b6111a4565b6040516104329190613d94565b60405180910390f35b34801561044757600080fd5b506104506111eb565b60405161045d9190613e07565b60405180910390f35b34801561047257600080fd5b5061047b6111f8565b6040516104889190613daf565b60405180910390f35b34801561049d57600080fd5b506104b860048036036104b391908101906139da565b61121f565b6040516104c59190613e07565b60405180910390f35b3480156104da57600080fd5b506104f560048036036104f091908101906138ab565b61123f565b005b34801561050357600080fd5b5061051e600480360361051991908101906137a5565b611364565b005b34801561052c57600080fd5b50610547600480360361054291908101906138ab565b6114c9565b6040516105549190613e07565b60405180910390f35b34801561056957600080fd5b50610584600480360361057f91908101906138ab565b611540565b005b34801561059257600080fd5b506105ad60048036036105a891908101906137a5565b61162f565b005b3480156105bb57600080fd5b506105d660048036036105d19190810190613740565b6116bf565b005b3480156105e457600080fd5b506105ff60048036036105fa91908101906139da565b611785565b60405161060c9190613d34565b60405180910390f35b34801561062157600080fd5b5061063c600480360361063791908101906139da565b6117f7565b6040516106499190613e07565b60405180910390f35b34801561065e57600080fd5b5061066761182f565b6040516106749190613c89565b60405180910390f35b34801561068957600080fd5b506106a4600480360361069f91908101906139da565b611859565b6040516106b19190613d19565b60405180910390f35b3480156106c657600080fd5b506106e160048036036106dc91908101906139da565b6118d2565b6040516106ee9190613c89565b60405180910390f35b34801561070357600080fd5b5061071e600480360361071991908101906139da565b611950565b005b34801561072c57600080fd5b50610747600480360361074291908101906139da565b611a19565b6040516107579493929190613d4f565b60405180910390f35b34801561076c57600080fd5b5061078760048036036107829190810190613740565b611a56565b6040516107949190613e07565b60405180910390f35b3480156107a957600080fd5b506107b2611ada565b005b3480156107c057600080fd5b506107db60048036036107d69190810190613a68565b611bdf565b005b3480156107e957600080fd5b506107f2611cc5565b60405161080496959493929190613e22565b60405180910390f35b34801561081957600080fd5b50610834600480360361082f9190810190613740565b611d3f565b005b34801561084257600080fd5b5061085d60048036036108589190810190613ae0565b611e05565b005b34801561086b57600080fd5b50610874611f36565b6040516108819190613c89565b60405180910390f35b34801561089657600080fd5b506108b160048036036108ac9190810190613740565b611f5c565b005b3480156108bf57600080fd5b506108c8612022565b6040516108d59190613de5565b60405180910390f35b3480156108ea57600080fd5b506109056004803603610900919081019061386f565b6120c4565b005b34801561091357600080fd5b5061092e60048036036109299190810190613aa4565b6121fc565b005b34801561093c57600080fd5b50610957600480360361095291908101906137f4565b6122cf565b005b34801561096557600080fd5b50610980600480360361097b91908101906139da565b612366565b60405161098d9190613e07565b60405180910390f35b3480156109a257600080fd5b506109bd60048036036109b891908101906138e7565b612386565b6040516109ca9190613d34565b60405180910390f35b3480156109df57600080fd5b506109fa60048036036109f591908101906139da565b6124ee565b604051610a079190613de5565b60405180910390f35b348015610a1c57600080fd5b50610a376004803603610a329190810190613aa4565b61255a565b005b348015610a4557600080fd5b50610a606004803603610a5b9190810190613aa4565b61262d565b005b348015610a6e57600080fd5b50610a896004803603610a849190810190613769565b612700565b604051610a969190613d34565b60405180910390f35b348015610aab57600080fd5b50610ac66004803603610ac19190810190613740565b612794565b005b6000806000837bffffffffffffffffffffffffffffffffffffffffffffffffffffffff19167bffffffffffffffffffffffffffffffffffffffffffffffffffffffff1916815260200190815260200160002060009054906101000a900460ff169050919050565b600060166000838152602001908152602001600020600401549050919050565b6000601460009054906101000a900473ffffffffffffffffffffffffffffffffffffffff1673ffffffffffffffffffffffffffffffffffffffff163373ffffffffffffffffffffffffffffffffffffffff161480610bfa5750600c60009054906101000a900473ffffffffffffffffffffffffffffffffffffffff1673ffffffffffffffffffffffffffffffffffffffff163373ffffffffffffffffffffffffffffffffffffffff16145b1515610c0557600080fd5b8173ffffffffffffffffffffffffffffffffffffffff166370a08231306040518263ffffffff167c0100000000000000000000000000000000000000000000000000000000028152600401610c5a9190613dca565b602060405180830381600087803b158015610c7457600080fd5b505af1158015610c88573d6000803e3d6000fd5b505050506040513d601f19601f82011682018060405250610cac9190810190613a03565b8311151515610cba57600080fd5b8173ffffffffffffffffffffffffffffffffffffffff1663a9059cbb85856040518363ffffffff167c0100000000000000000000000000000000000000000000000000000000028152600401610d11929190613cf0565b602060405180830381600087803b158015610d2b57600080fd5b505af1158015610d3f573d6000803e3d6000fd5b505050506040513d601f19601f82011682018060405250610d63919081019061395f565b90509392505050565b60006016600083815260200190815260200160002060000160009054906101000a900460ff169050919050565b606060058054600181600116156101000203166002900480601f016020809104026020016040519081016040528092919081815260200182805460018160011615610100020316600290048015610e315780601f10610e0657610100808354040283529160200191610e31565b820191906000526020600020905b815481529060010190602001808311610e1457829003601f168201915b5050505050905090565b60006002600083815260200190815260200160002060009054906101000a900473ffffffffffffffffffffffffffffffffffffffff169050919050565b6000610e83826118d2565b90508073ffffffffffffffffffffffffffffffffffffffff168373ffffffffffffffffffffffffffffffffffffffff1614151515610ec057600080fd5b8073ffffffffffffffffffffffffffffffffffffffff163373ffffffffffffffffffffffffffffffffffffffff161480610f005750610eff8133612700565b5b1515610f0b57600080fd5b826002600084815260200190815260200160002060006101000a81548173ffffffffffffffffffffffffffffffffffffffff021916908373ffffffffffffffffffffffffffffffffffffffff160217905550818373ffffffffffffffffffffffffffffffffffffffff168273ffffffffffffffffffffffffffffffffffffffff167f8c5be1e5ebec7d5bd14f71427d1e84f3dd0314c0f7b2291e5b200ac8c7c3b92560405160405180910390a4505050565b601460009054906101000a900473ffffffffffffffffffffffffffffffffffffffff1673ffffffffffffffffffffffffffffffffffffffff163373ffffffffffffffffffffffffffffffffffffffff1614806110665750600c60009054906101000a900473ffffffffffffffffffffffffffffffffffffffff1673ffffffffffffffffffffffffffffffffffffffff163373ffffffffffffffffffffffffffffffffffffffff16145b151561107157600080fd5b8060166000848152602001908152602001600020600201906002611096929190613449565b505050565b601460009054906101000a900473ffffffffffffffffffffffffffffffffffffffff1673ffffffffffffffffffffffffffffffffffffffff163373ffffffffffffffffffffffffffffffffffffffff1614806111445750600c60009054906101000a900473ffffffffffffffffffffffffffffffffffffffff1673ffffffffffffffffffffffffffffffffffffffff163373ffffffffffffffffffffffffffffffffffffffff16145b151561114f57600080fd5b60166000828152602001908152602001600020600080820160006101000a81549060ff0219169055600182016000905560028201600061118f91906134c0565b60048201600090556005820160009055505050565b6000816040518082600260200280838360005b838110156111d25780820151818401526020810190506111b7565b5050505090500191505060405180910390209050919050565b6000600980549050905090565b6301ffc9a77c01000000000000000000000000000000000000000000000000000000000281565b600060166000838152602001908152602001600020600501549050919050565b601460009054906101000a900473ffffffffffffffffffffffffffffffffffffffff1673ffffffffffffffffffffffffffffffffffffffff163373ffffffffffffffffffffffffffffffffffffffff1614806112e85750600c60009054906101000a900473ffffffffffffffffffffffffffffffffffffffff1673ffffffffffffffffffffffffffffffffffffffff163373ffffffffffffffffffffffffffffffffffffffff16145b15156112f357600080fd5b3073ffffffffffffffffffffffffffffffffffffffff1631811115151561131957600080fd5b8173ffffffffffffffffffffffffffffffffffffffff166108fc829081150290604051600060405180830381858888f1935050505015801561135f573d6000803e3d6000fd5b505050565b8061136f33826127fc565b806113c75750601460009054906101000a900473ffffffffffffffffffffffffffffffffffffffff1673ffffffffffffffffffffffffffffffffffffffff163373ffffffffffffffffffffffffffffffffffffffff16145b15156113d257600080fd5b600073ffffffffffffffffffffffffffffffffffffffff168473ffffffffffffffffffffffffffffffffffffffff161415151561140e57600080fd5b600073ffffffffffffffffffffffffffffffffffffffff168373ffffffffffffffffffffffffffffffffffffffff161415151561144a57600080fd5b6114548483612891565b61145e8483612994565b6114688383612bac565b818373ffffffffffffffffffffffffffffffffffffffff168573ffffffffffffffffffffffffffffffffffffffff167fddf252ad1be2c89b69c2b068fc378daa952ba7f163c4a11628f55a4df523b3ef60405160405180910390a450505050565b60006114d483611a56565b821015156114e157600080fd5b600760008473ffffffffffffffffffffffffffffffffffffffff1673ffffffffffffffffffffffffffffffffffffffff1681526020019081526020016000208281548110151561152d57fe5b9060005260206000200154905092915050565b601460009054906101000a900473ffffffffffffffffffffffffffffffffffffffff1673ffffffffffffffffffffffffffffffffffffffff163373ffffffffffffffffffffffffffffffffffffffff1614806115e95750600c60009054906101000a900473ffffffffffffffffffffffffffffffffffffffff1673ffffffffffffffffffffffffffffffffffffffff163373ffffffffffffffffffffffffffffffffffffffff16145b15156115f457600080fd5b6115fe8282612c83565b61162b601560009054906101000a900473ffffffffffffffffffffffffffffffffffffffff1660016120c4565b5050565b8061163a33826127fc565b806116925750601460009054906101000a900473ffffffffffffffffffffffffffffffffffffffff1673ffffffffffffffffffffffffffffffffffffffff163373ffffffffffffffffffffffffffffffffffffffff16145b151561169d57600080fd5b6116b984848460206040519081016040528060008152506122cf565b50505050565b600c60009054906101000a900473ffffffffffffffffffffffffffffffffffffffff1673ffffffffffffffffffffffffffffffffffffffff163373ffffffffffffffffffffffffffffffffffffffff1614151561171b57600080fd5b60008173ffffffffffffffffffffffffffffffffffffffff161415151561174157600080fd5b80600d60006101000a81548173ffffffffffffffffffffffffffffffffffffffff021916908373ffffffffffffffffffffffffffffffffffffffff16021790555050565b6000806001600084815260200190815260200160002060009054906101000a900473ffffffffffffffffffffffffffffffffffffffff169050600073ffffffffffffffffffffffffffffffffffffffff168173ffffffffffffffffffffffffffffffffffffffff161415915050919050565b60006118016111eb565b8210151561180e57600080fd5b60098281548110151561181d57fe5b90600052602060002001549050919050565b6000600d60009054906101000a900473ffffffffffffffffffffffffffffffffffffffff16905090565b6118616134ce565b601660008381526020019081526020016000206002016002806020026040519081016040528092919082600280156118c6576020028201915b8160009054906101000a90046401000000000263ffffffff19168152602001906001019080831161189a575b50505050509050919050565b6000806001600084815260200190815260200160002060009054906101000a900473ffffffffffffffffffffffffffffffffffffffff169050600073ffffffffffffffffffffffffffffffffffffffff168173ffffffffffffffffffffffffffffffffffffffff161415151561194757600080fd5b80915050919050565b601460009054906101000a900473ffffffffffffffffffffffffffffffffffffffff1673ffffffffffffffffffffffffffffffffffffffff163373ffffffffffffffffffffffffffffffffffffffff1614806119f95750600c60009054906101000a900473ffffffffffffffffffffffffffffffffffffffff1673ffffffffffffffffffffffffffffffffffffffff163373ffffffffffffffffffffffffffffffffffffffff16145b1515611a0457600080fd5b611a16611a10826118d2565b82612cda565b50565b60166020528060005260406000206000915090508060000160009054906101000a900460ff16908060010154908060040154908060050154905084565b60008073ffffffffffffffffffffffffffffffffffffffff168273ffffffffffffffffffffffffffffffffffffffff1614151515611a9357600080fd5b600360008373ffffffffffffffffffffffffffffffffffffffff1673ffffffffffffffffffffffffffffffffffffffff168152602001908152602001600020549050919050565b600c60009054906101000a900473ffffffffffffffffffffffffffffffffffffffff1673ffffffffffffffffffffffffffffffffffffffff163373ffffffffffffffffffffffffffffffffffffffff16141515611b3657600080fd5b600c60009054906101000a900473ffffffffffffffffffffffffffffffffffffffff1673ffffffffffffffffffffffffffffffffffffffff167ff8df31144d9c2f0f6b59d69b8b98abd5459d07f2742c4df920b25aae33c6482060405160405180910390a26000600c60006101000a81548173ffffffffffffffffffffffffffffffffffffffff021916908373ffffffffffffffffffffffffffffffffffffffff160217905550565b601460009054906101000a900473ffffffffffffffffffffffffffffffffffffffff1673ffffffffffffffffffffffffffffffffffffffff163373ffffffffffffffffffffffffffffffffffffffff161480611c885750600c60009054906101000a900473ffffffffffffffffffffffffffffffffffffffff1673ffffffffffffffffffffffffffffffffffffffff163373ffffffffffffffffffffffffffffffffffffffff16145b1515611c9357600080fd5b806016600084815260200190815260200160002060000160006101000a81548160ff0219169083151502179055505050565b600080600080600080600e54600f6000600581101515611ce157fe5b0154600f6001600581101515611cf357fe5b0154600f6002600581101515611d0557fe5b0154600f6003600581101515611d1757fe5b0154600f6004600581101515611d2957fe5b0154955095509550955095509550909192939495565b600c60009054906101000a900473ffffffffffffffffffffffffffffffffffffffff1673ffffffffffffffffffffffffffffffffffffffff163373ffffffffffffffffffffffffffffffffffffffff16141515611d9b57600080fd5b60008173ffffffffffffffffffffffffffffffffffffffff1614151515611dc157600080fd5b80601460006101000a81548173ffffffffffffffffffffffffffffffffffffffff021916908373ffffffffffffffffffffffffffffffffffffffff16021790555050565b601460009054906101000a900473ffffffffffffffffffffffffffffffffffffffff1673ffffffffffffffffffffffffffffffffffffffff163373ffffffffffffffffffffffffffffffffffffffff161480611eae5750600c60009054906101000a900473ffffffffffffffffffffffffffffffffffffffff1673ffffffffffffffffffffffffffffffffffffffff163373ffffffffffffffffffffffffffffffffffffffff16145b1515611eb957600080fd5b85600e8190555084600f6000600581101515611ed157fe5b018190555083600f6001600581101515611ee757fe5b018190555082600f6002600581101515611efd57fe5b018190555081600f6003600581101515611f1357fe5b018190555080600f6004600581101515611f2957fe5b0181905550505050505050565b600c60009054906101000a900473ffffffffffffffffffffffffffffffffffffffff1681565b600c60009054906101000a900473ffffffffffffffffffffffffffffffffffffffff1673ffffffffffffffffffffffffffffffffffffffff163373ffffffffffffffffffffffffffffffffffffffff16141515611fb857600080fd5b60008173ffffffffffffffffffffffffffffffffffffffff1614151515611fde57600080fd5b80601560006101000a81548173ffffffffffffffffffffffffffffffffffffffff021916908373ffffffffffffffffffffffffffffffffffffffff16021790555050565b606060068054600181600116156101000203166002900480601f0160208091040260200160405190810160405280929190818152602001828054600181600116156101000203166002900480156120ba5780601f1061208f576101008083540402835291602001916120ba565b820191906000526020600020905b81548152906001019060200180831161209d57829003601f168201915b5050505050905090565b3373ffffffffffffffffffffffffffffffffffffffff168273ffffffffffffffffffffffffffffffffffffffff16141515156120ff57600080fd5b80600460003373ffffffffffffffffffffffffffffffffffffffff1673ffffffffffffffffffffffffffffffffffffffff16815260200190815260200160002060008473ffffffffffffffffffffffffffffffffffffffff1673ffffffffffffffffffffffffffffffffffffffff16815260200190815260200160002060006101000a81548160ff0219169083151502179055508173ffffffffffffffffffffffffffffffffffffffff163373ffffffffffffffffffffffffffffffffffffffff167f17307eab39ab6107e8899845ad3d59bd9653f200f220920489ca2b5937696c31836040516121f09190613d34565b60405180910390a35050565b601460009054906101000a900473ffffffffffffffffffffffffffffffffffffffff1673ffffffffffffffffffffffffffffffffffffffff163373ffffffffffffffffffffffffffffffffffffffff1614806122a55750600c60009054906101000a900473ffffffffffffffffffffffffffffffffffffffff1673ffffffffffffffffffffffffffffffffffffffff163373ffffffffffffffffffffffffffffffffffffffff16145b15156122b057600080fd5b8060166000848152602001908152602001600020600501819055505050565b816122da33826127fc565b806123325750601460009054906101000a900473ffffffffffffffffffffffffffffffffffffffff1673ffffffffffffffffffffffffffffffffffffffff163373ffffffffffffffffffffffffffffffffffffffff16145b151561233d57600080fd5b612348858585611364565b61235485858585612e12565b151561235f57600080fd5b5050505050565b600060166000838152602001908152602001600020600101549050919050565b6000601460009054906101000a900473ffffffffffffffffffffffffffffffffffffffff1673ffffffffffffffffffffffffffffffffffffffff163373ffffffffffffffffffffffffffffffffffffffff1614806124315750600c60009054906101000a900473ffffffffffffffffffffffffffffffffffffffff1673ffffffffffffffffffffffffffffffffffffffff163373ffffffffffffffffffffffffffffffffffffffff16145b151561243c57600080fd5b8173ffffffffffffffffffffffffffffffffffffffff1663095ea7b385856040518363ffffffff167c0100000000000000000000000000000000000000000000000000000000028152600401612493929190613cf0565b602060405180830381600087803b1580156124ad57600080fd5b505af11580156124c1573d6000803e3d6000fd5b505050506040513d601f19601f820116820180604052506124e5919081019061395f565b90509392505050565b6060600060606124fc61182f565b91506000368080601f0160208091040260200160405190810160405280939291908181526020018383808284378201915050505050509050600080825160208401855af43d604051816000823e8260008114612556578282f35b8282fd5b601460009054906101000a900473ffffffffffffffffffffffffffffffffffffffff1673ffffffffffffffffffffffffffffffffffffffff163373ffffffffffffffffffffffffffffffffffffffff1614806126035750600c60009054906101000a900473ffffffffffffffffffffffffffffffffffffffff1673ffffffffffffffffffffffffffffffffffffffff163373ffffffffffffffffffffffffffffffffffffffff16145b151561260e57600080fd5b8060166000848152602001908152602001600020600101819055505050565b601460009054906101000a900473ffffffffffffffffffffffffffffffffffffffff1673ffffffffffffffffffffffffffffffffffffffff163373ffffffffffffffffffffffffffffffffffffffff1614806126d65750600c60009054906101000a900473ffffffffffffffffffffffffffffffffffffffff1673ffffffffffffffffffffffffffffffffffffffff163373ffffffffffffffffffffffffffffffffffffffff16145b15156126e157600080fd5b8060166000848152602001908152602001600020600401819055505050565b6000600460008473ffffffffffffffffffffffffffffffffffffffff1673ffffffffffffffffffffffffffffffffffffffff16815260200190815260200160002060008373ffffffffffffffffffffffffffffffffffffffff1673ffffffffffffffffffffffffffffffffffffffff16815260200190815260200160002060009054906101000a900460ff16905092915050565b600c60009054906101000a900473ffffffffffffffffffffffffffffffffffffffff1673ffffffffffffffffffffffffffffffffffffffff163373ffffffffffffffffffffffffffffffffffffffff161415156127f057600080fd5b6127f981612f62565b50565b600080612808836118d2565b90508073ffffffffffffffffffffffffffffffffffffffff168473ffffffffffffffffffffffffffffffffffffffff16148061287757508373ffffffffffffffffffffffffffffffffffffffff1661285f84610e3b565b73ffffffffffffffffffffffffffffffffffffffff16145b8061288857506128878185612700565b5b91505092915050565b8173ffffffffffffffffffffffffffffffffffffffff166128b1826118d2565b73ffffffffffffffffffffffffffffffffffffffff161415156128d357600080fd5b600073ffffffffffffffffffffffffffffffffffffffff166002600083815260200190815260200160002060009054906101000a900473ffffffffffffffffffffffffffffffffffffffff1673ffffffffffffffffffffffffffffffffffffffff161415156129905760006002600083815260200190815260200160002060006101000a81548173ffffffffffffffffffffffffffffffffffffffff021916908373ffffffffffffffffffffffffffffffffffffffff1602179055505b5050565b60008060006129a3858561305e565b60086000858152602001908152602001600020549250612a0f6001600760008873ffffffffffffffffffffffffffffffffffffffff1673ffffffffffffffffffffffffffffffffffffffff1681526020019081526020016000208054905061318d90919063ffffffff16565b9150600760008673ffffffffffffffffffffffffffffffffffffffff1673ffffffffffffffffffffffffffffffffffffffff16815260200190815260200160002082815481101515612a5d57fe5b9060005260206000200154905080600760008773ffffffffffffffffffffffffffffffffffffffff1673ffffffffffffffffffffffffffffffffffffffff16815260200190815260200160002084815481101515612ab757fe5b90600052602060002001819055506000600760008773ffffffffffffffffffffffffffffffffffffffff1673ffffffffffffffffffffffffffffffffffffffff16815260200190815260200160002083815481101515612b1357fe5b9060005260206000200181905550600760008673ffffffffffffffffffffffffffffffffffffffff1673ffffffffffffffffffffffffffffffffffffffff168152602001908152602001600020805480919060019003612b7391906134f0565b50600060086000868152602001908152602001600020819055508260086000838152602001908152602001600020819055505050505050565b6000612bb883836131a6565b600760008473ffffffffffffffffffffffffffffffffffffffff1673ffffffffffffffffffffffffffffffffffffffff168152602001908152602001600020805490509050600760008473ffffffffffffffffffffffffffffffffffffffff1673ffffffffffffffffffffffffffffffffffffffff168152602001908152602001600020829080600181540180825580915050906001820390600052602060002001600090919290919091505550806008600084815260200190815260200160002081905550505050565b612c8d8282613300565b600980549050600a60008381526020019081526020016000208190555060098190806001815401808255809150509060018203906000526020600020016000909192909190915055505050565b6000806000612ce985856133a6565b6000600b6000868152602001908152602001600020805460018160011615610100020316600290049050141515612d3a57600b60008581526020019081526020016000206000612d39919061351c565b5b600a6000858152602001908152602001600020549250612d69600160098054905061318d90919063ffffffff16565b9150600982815481101515612d7a57fe5b9060005260206000200154905080600984815481101515612d9757fe5b90600052602060002001819055506000600983815481101515612db657fe5b90600052602060002001819055506009805480919060019003612dd991906134f0565b506000600a60008681526020019081526020016000208190555082600a6000838152602001908152602001600020819055505050505050565b600080612e348573ffffffffffffffffffffffffffffffffffffffff1661341a565b1515612e435760019150612f59565b8473ffffffffffffffffffffffffffffffffffffffff1663150b7a02338887876040518563ffffffff167c0100000000000000000000000000000000000000000000000000000000028152600401612e9e9493929190613ca4565b602060405180830381600087803b158015612eb857600080fd5b505af1158015612ecc573d6000803e3d6000fd5b505050506040513d601f19601f82011682018060405250612ef091908101906139b1565b905063150b7a027c0100000000000000000000000000000000000000000000000000000000027bffffffffffffffffffffffffffffffffffffffffffffffffffffffff1916817bffffffffffffffffffffffffffffffffffffffffffffffffffffffff19161491505b50949350505050565b600073ffffffffffffffffffffffffffffffffffffffff168173ffffffffffffffffffffffffffffffffffffffff1614151515612f9e57600080fd5b8073ffffffffffffffffffffffffffffffffffffffff16600c60009054906101000a900473ffffffffffffffffffffffffffffffffffffffff1673ffffffffffffffffffffffffffffffffffffffff167f8be0079c531659141344cd1fd0a4f28419497f9722a3daafe3b4186f6b6457e060405160405180910390a380600c60006101000a81548173ffffffffffffffffffffffffffffffffffffffff021916908373ffffffffffffffffffffffffffffffffffffffff16021790555050565b8173ffffffffffffffffffffffffffffffffffffffff1661307e826118d2565b73ffffffffffffffffffffffffffffffffffffffff161415156130a057600080fd5b6130f36001600360008573ffffffffffffffffffffffffffffffffffffffff1673ffffffffffffffffffffffffffffffffffffffff1681526020019081526020016000205461318d90919063ffffffff16565b600360008473ffffffffffffffffffffffffffffffffffffffff1673ffffffffffffffffffffffffffffffffffffffff1681526020019081526020016000208190555060006001600083815260200190815260200160002060006101000a81548173ffffffffffffffffffffffffffffffffffffffff021916908373ffffffffffffffffffffffffffffffffffffffff1602179055505050565b600082821115151561319b57fe5b818303905092915050565b600073ffffffffffffffffffffffffffffffffffffffff166001600083815260200190815260200160002060009054906101000a900473ffffffffffffffffffffffffffffffffffffffff1673ffffffffffffffffffffffffffffffffffffffff1614151561321457600080fd5b816001600083815260200190815260200160002060006101000a81548173ffffffffffffffffffffffffffffffffffffffff021916908373ffffffffffffffffffffffffffffffffffffffff1602179055506132b96001600360008573ffffffffffffffffffffffffffffffffffffffff1673ffffffffffffffffffffffffffffffffffffffff1681526020019081526020016000205461342d90919063ffffffff16565b600360008473ffffffffffffffffffffffffffffffffffffffff1673ffffffffffffffffffffffffffffffffffffffff168152602001908152602001600020819055505050565b600073ffffffffffffffffffffffffffffffffffffffff168273ffffffffffffffffffffffffffffffffffffffff161415151561333c57600080fd5b6133468282612bac565b808273ffffffffffffffffffffffffffffffffffffffff16600073ffffffffffffffffffffffffffffffffffffffff167fddf252ad1be2c89b69c2b068fc378daa952ba7f163c4a11628f55a4df523b3ef60405160405180910390a45050565b6133b08282612891565b6133ba8282612994565b80600073ffffffffffffffffffffffffffffffffffffffff168373ffffffffffffffffffffffffffffffffffffffff167fddf252ad1be2c89b69c2b068fc378daa952ba7f163c4a11628f55a4df523b3ef60405160405180910390a45050565b600080823b905060008111915050919050565b6000818301905082811015151561344057fe5b80905092915050565b82600281019282156134af579160200282015b828111156134ae5782518260006101000a8154817bffffffffffffffffffffffffffffffffffffffffffffffffffffffff0219169083640100000000900402179055509160200191906001019061345c565b5b5090506134bc9190613564565b5090565b506000815560010160009055565b6040805190810160405280600290602082028038833980820191505090505090565b8154818355818111156135175781836000526020600020918201910161351691906135af565b5b505050565b50805460018160011615610100020316600290046000825580601f106135425750613561565b601f01602090049060005260206000209081019061356091906135af565b5b50565b6135ac91905b808211156135a857600081816101000a8154907bffffffffffffffffffffffffffffffffffffffffffffffffffffffff02191690555060010161356a565b5090565b90565b6135d191905b808211156135cd5760008160009055506001016135b5565b5090565b90565b60006135e08235613fce565b905092915050565b600082601f83011215156135fb57600080fd5b600261360e61360982613eb0565b613e83565b9150818385602084028201111561362457600080fd5b60005b83811015613654578161363a8882613686565b845260208401935060208301925050600181019050613627565b5050505092915050565b600061366a8235613fee565b905092915050565b600061367e8251613fee565b905092915050565b60006136928235613ffa565b905092915050565b60006136a68235614026565b905092915050565b60006136ba8251614026565b905092915050565b600082601f83011215156136d557600080fd5b81356136e86136e382613ed2565b613e83565b9150808252602083016020830185838301111561370457600080fd5b61370f83828461406e565b50505092915050565b60006137248235614052565b905092915050565b60006137388251614052565b905092915050565b60006020828403121561375257600080fd5b6000613760848285016135d4565b91505092915050565b6000806040838503121561377c57600080fd5b600061378a858286016135d4565b925050602061379b858286016135d4565b9150509250929050565b6000806000606084860312156137ba57600080fd5b60006137c8868287016135d4565b93505060206137d9868287016135d4565b92505060406137ea86828701613718565b9150509250925092565b6000806000806080858703121561380a57600080fd5b6000613818878288016135d4565b9450506020613829878288016135d4565b935050604061383a87828801613718565b925050606085013567ffffffffffffffff81111561385757600080fd5b613863878288016136c2565b91505092959194509250565b6000806040838503121561388257600080fd5b6000613890858286016135d4565b92505060206138a18582860161365e565b9150509250929050565b600080604083850312156138be57600080fd5b60006138cc858286016135d4565b92505060206138dd85828601613718565b9150509250929050565b6000806000606084860312156138fc57600080fd5b600061390a868287016135d4565b935050602061391b86828701613718565b925050604061392c868287016135d4565b9150509250925092565b60006040828403121561394857600080fd5b6000613956848285016135e8565b91505092915050565b60006020828403121561397157600080fd5b600061397f84828501613672565b91505092915050565b60006020828403121561399a57600080fd5b60006139a88482850161369a565b91505092915050565b6000602082840312156139c357600080fd5b60006139d1848285016136ae565b91505092915050565b6000602082840312156139ec57600080fd5b60006139fa84828501613718565b91505092915050565b600060208284031215613a1557600080fd5b6000613a238482850161372c565b91505092915050565b60008060608385031215613a3f57600080fd5b6000613a4d85828601613718565b9250506020613a5e858286016135e8565b9150509250929050565b60008060408385031215613a7b57600080fd5b6000613a8985828601613718565b9250506020613a9a8582860161365e565b9150509250929050565b60008060408385031215613ab757600080fd5b6000613ac585828601613718565b9250506020613ad685828601613718565b9150509250929050565b60008060008060008060c08789031215613af957600080fd5b6000613b0789828a01613718565b9650506020613b1889828a01613718565b9550506040613b2989828a01613718565b9450506060613b3a89828a01613718565b9350506080613b4b89828a01613718565b92505060a0613b5c89828a01613718565b9150509295509295509295565b613b7281613f36565b82525050565b613b8181613f08565b613b8a82613efe565b60005b82811015613bbc57613ba0858351613bd2565b613ba982613f29565b9150602085019450600181019050613b8d565b5050505050565b613bcc81613f56565b82525050565b613bdb81613f62565b82525050565b613bea81613f8e565b82525050565b613bf981613f98565b82525050565b6000613c0a82613f13565b808452613c1e81602086016020860161407d565b613c27816140b0565b602085010191505092915050565b613c3e8161405c565b82525050565b6000613c4f82613f1e565b808452613c6381602086016020860161407d565b613c6c816140b0565b602085010191505092915050565b613c8381613fc4565b82525050565b6000602082019050613c9e6000830184613b69565b92915050565b6000608082019050613cb96000830187613b69565b613cc66020830186613b69565b613cd36040830185613c7a565b8181036060830152613ce58184613bff565b905095945050505050565b6000604082019050613d056000830185613b69565b613d126020830184613c7a565b9392505050565b6000604082019050613d2e6000830184613b78565b92915050565b6000602082019050613d496000830184613bc3565b92915050565b6000608082019050613d646000830187613bc3565b613d716020830186613c7a565b613d7e6040830185613c7a565b613d8b6060830184613c7a565b95945050505050565b6000602082019050613da96000830184613be1565b92915050565b6000602082019050613dc46000830184613bf0565b92915050565b6000602082019050613ddf6000830184613c35565b92915050565b60006020820190508181036000830152613dff8184613c44565b905092915050565b6000602082019050613e1c6000830184613c7a565b92915050565b600060c082019050613e376000830189613c7a565b613e446020830188613c7a565b613e516040830187613c7a565b613e5e6060830186613c7a565b613e6b6080830185613c7a565b613e7860a0830184613c7a565b979650505050505050565b6000604051905081810181811067ffffffffffffffff82111715613ea657600080fd5b8060405250919050565b600067ffffffffffffffff821115613ec757600080fd5b602082029050919050565b600067ffffffffffffffff821115613ee957600080fd5b601f19601f8301169050602081019050919050565b6000819050919050565b600060029050919050565b600081519050919050565b600081519050919050565b6000602082019050919050565b600073ffffffffffffffffffffffffffffffffffffffff82169050919050565b60008115159050919050565b60007fffffffffffffffffffffffffffffffffffffffffffffffffffffffff0000000082169050919050565b6000819050919050565b60007fffffffff0000000000000000000000000000000000000000000000000000000082169050919050565b6000819050919050565b600073ffffffffffffffffffffffffffffffffffffffff82169050919050565b60008115159050919050565b60007fffffffffffffffffffffffffffffffffffffffffffffffffffffffff0000000082169050919050565b60007fffffffff0000000000000000000000000000000000000000000000000000000082169050919050565b6000819050919050565b600061406782613f36565b9050919050565b82818337600083830152505050565b60005b8381101561409b578082015181840152602081019050614080565b838111156140aa576000848401525b50505050565b6000601f19601f83011690509190505600a265627a7a72305820041ba09f532ed58919bcf02cb4e8d42b653907fbda1a09fdb21260668383a6da6c6578706572696d656e74616cf50037",
  "source": "pragma solidity ^0.4.18;\npragma experimental ABIEncoderV2;\n\n/**\n * Digital Asset Registry for the Non Fungible Token Clover\n * with upgradeable contract reference for returning metadata.\n */\n\nimport \"zeppelin-solidity/contracts/token/ERC20/ERC20.sol\";\nimport \"zeppelin-solidity/contracts/token/ERC721/ERC721Token.sol\";\nimport \"zeppelin-solidity/contracts/ownership/Ownable.sol\";\nimport \"./IClovers.sol\";\nimport \"./CloversMetadata.sol\";\n\n\ncontract Clovers is IClovers, ERC721Token, Ownable {\n\n    address cloversMetadata;\n    uint256 totalSymmetries;\n    uint256[5] symmetries; // RotSym, Y0Sym, X0Sym, XYSym, XnYSym\n    address cloversController;\n    address clubTokenController;\n\n    mapping (uint256 => Clover) public clovers;\n    struct Clover {\n        bool keep;\n        uint256 symmetries;\n        bytes28[2] cloverMoves;\n        uint256 blockMinted;\n        uint256 rewards;\n    }\n\n    modifier onlyOwnerOrController() {\n        require(\n            msg.sender == cloversController ||\n            msg.sender == owner\n        );\n        _;\n    }\n\n\n    /**\n    * @dev Checks msg.sender can transfer a token, by being owner, approved, or operator\n    * @param _tokenId uint256 ID of the token to validate\n    */\n    modifier canTransfer(uint256 _tokenId) {\n        require(isApprovedOrOwner(msg.sender, _tokenId) || msg.sender == cloversController);\n        _;\n    }\n\n    constructor(string name, string symbol) public\n        ERC721Token(name, symbol)\n    { }\n\n    function () public payable {}\n\n    function implementation() public view returns (address) {\n        return cloversMetadata;\n    }\n\n    function tokenURI(uint _tokenId) public view returns (string _infoUrl) {\n        // require(ownerOf(_tokenId) != 0);\n        address _impl = implementation();\n        bytes memory data = msg.data;\n        assembly {\n            let result := delegatecall(gas, _impl, add(data, 0x20), mload(data), 0, 0)\n            let size := returndatasize\n            let ptr := mload(0x40)\n            returndatacopy(ptr, 0, size)\n            switch result\n            case 0 { revert(ptr, size) }\n            default { return(ptr, size) }\n        }\n        // return CloversMetadata(cloversMetadata).tokenMetadata(_tokenId);\n    }\n    function getHash(bytes28[2] moves) public pure returns (bytes32) {\n        return keccak256(moves);\n    }\n    function getKeep(uint256 _tokenId) public view returns (bool) {\n        return clovers[_tokenId].keep;\n    }\n    function getBlockMinted(uint256 _tokenId) public view returns (uint256) {\n        return clovers[_tokenId].blockMinted;\n    }\n    function getCloverMoves(uint256 _tokenId) public view returns (bytes28[2]) {\n        return clovers[_tokenId].cloverMoves;\n    }\n    function getReward(uint256 _tokenId) public view returns (uint256) {\n        return clovers[_tokenId].rewards;\n    }\n    function getSymmetries(uint256 _tokenId) public view returns (uint256) {\n        return clovers[_tokenId].symmetries;\n    }\n    function getAllSymmetries() public view returns (uint256, uint256, uint256, uint256, uint256, uint256) {\n        return (\n            totalSymmetries,\n            symmetries[0], //RotSym,\n            symmetries[1], //Y0Sym,\n            symmetries[2], //X0Sym,\n            symmetries[3], //XYSym,\n            symmetries[4] //XnYSym\n        );\n    }\n\n/* ---------------------------------------------------------------------------------------------------------------------- */\n\n    /**\n    * @dev Moves Eth to a certain address for use in the CloversController\n    * @param _to The address to receive the Eth.\n    * @param _amount The amount of Eth to be transferred.\n    */\n    function moveEth(address _to, uint256 _amount) public onlyOwnerOrController {\n        require(_amount <= this.balance);\n        _to.transfer(_amount);\n    }\n    /**\n    * @dev Moves Token to a certain address for use in the CloversController\n    * @param _to The address to receive the Token.\n    * @param _amount The amount of Token to be transferred.\n    * @param _token The address of the Token to be transferred.\n    */\n    function moveToken(address _to, uint256 _amount, address _token) public onlyOwnerOrController returns (bool) {\n        require(_amount <= ERC20(_token).balanceOf(this));\n        return ERC20(_token).transfer(_to, _amount);\n    }\n    /**\n    * @dev Approves Tokens to a certain address for use in the CloversController\n    * @param _to The address to receive the Token approval.\n    * @param _amount The amount of Token to be approved.\n    * @param _token The address of the Token to be approved.\n    */\n    function approveToken(address _to, uint256 _amount, address _token) public onlyOwnerOrController returns (bool) {\n        return ERC20(_token).approve(_to, _amount);\n    }\n\n    /**\n    * @dev Sets whether the minter will keep the clover\n    * @param _tokenId The token Id.\n    * @param value Whether the clover will be kept.\n    */\n    function setKeep(uint256 _tokenId, bool value) public onlyOwnerOrController {\n        clovers[_tokenId].keep = value;\n    }\n    function setBlockMinted(uint256 _tokenId, uint256 value) public onlyOwnerOrController {\n        clovers[_tokenId].blockMinted = value;\n    }\n    function setCloverMoves(uint256 _tokenId, bytes28[2] moves) public onlyOwnerOrController {\n        clovers[_tokenId].cloverMoves = moves;\n    }\n    function setReward(uint256 _tokenId, uint256 _amount) public onlyOwnerOrController {\n        clovers[_tokenId].rewards = _amount;\n    }\n    function setSymmetries(uint256 _tokenId, uint256 _symmetries) public onlyOwnerOrController {\n        clovers[_tokenId].symmetries = _symmetries;\n    }\n\n    /**\n    * @dev Sets total tallies of symmetry counts. For use by the controller to correct for invalid Clovers.\n    * @param _totalSymmetries The total number of Symmetries.\n    * @param RotSym The total number of RotSym Symmetries.\n    * @param Y0Sym The total number of Y0Sym Symmetries.\n    * @param X0Sym The total number of X0Sym Symmetries.\n    * @param XYSym The total number of XYSym Symmetries.\n    * @param XnYSym The total number of XnYSym Symmetries.\n    */\n    function setAllSymmetries(uint256 _totalSymmetries, uint256 RotSym, uint256 Y0Sym, uint256 X0Sym, uint256 XYSym, uint256 XnYSym) public onlyOwnerOrController {\n        totalSymmetries = _totalSymmetries;\n        symmetries[0] = RotSym;\n        symmetries[1] = Y0Sym;\n        symmetries[2] = X0Sym;\n        symmetries[3] = XYSym;\n        symmetries[4] = XnYSym;\n    }\n\n    /**\n    * @dev Deletes data about a Clover.\n    * @param _tokenId The Id of the clover token to be deleted.\n    */\n    function deleteClover(uint256 _tokenId) public onlyOwnerOrController {\n        delete(clovers[_tokenId]);\n    }\n    /**\n    * @dev Updates the CloversController contract address and approves that contract to manage the Clovers owned by the Clovers contract.\n    * @param _cloversController The address of the new contract.\n    */\n    function updateCloversControllerAddress(address _cloversController) public onlyOwner {\n        require(_cloversController != 0);\n        cloversController = _cloversController;\n    }\n\n\n\n    /**\n    * @dev Updates the CloversMetadata contract address.\n    * @param _cloversMetadata The address of the new contract.\n    */\n    function updateCloversMetadataAddress(address _cloversMetadata) public onlyOwner {\n        require(_cloversMetadata != 0);\n        cloversMetadata = _cloversMetadata;\n    }\n\n    function updateClubTokenController(address _clubTokenController) public onlyOwner {\n        require(_clubTokenController != 0);\n        clubTokenController = _clubTokenController;\n    }\n\n    /**\n    * @dev Mints new Clovers.\n    * @param _to The address of the new clover owner.\n    * @param _tokenId The Id of the new clover token.\n    */\n    function mint (address _to, uint256 _tokenId) public onlyOwnerOrController {\n        super._mint(_to, _tokenId);\n        setApprovalForAll(clubTokenController, true);\n    }\n    /**\n    * @dev Unmints Clovers.\n    * @param _tokenId The Id of the clover token to be destroyed.\n    */\n    function unmint (uint256 _tokenId) public onlyOwnerOrController {\n        super._burn(ownerOf(_tokenId), _tokenId);\n    }\n\n\n}\n",
  "sourcePath": "/Users/billy/clovers/clovers-contracts/contracts/Clovers.sol",
  "compiler": {
    "name": "solc",
    "version": "0.4.24+commit.e67f0147.Emscripten.clang"
  },
  "schemaVersion": "2.0.1",
  "updatedAt": "2018-08-01T17:08:39.830Z"
}