{
  "contractName": "CloversController",
  "abi": [
    {
      "constant": true,
      "inputs": [],
      "name": "clovers",
      "outputs": [
        {
          "name": "",
          "type": "address"
        }
      ],
      "payable": false,
      "stateMutability": "view",
      "type": "function"
    },
    {
      "constant": false,
      "inputs": [
        {
          "name": "token",
          "type": "address"
        }
      ],
      "name": "reclaimToken",
      "outputs": [],
      "payable": false,
      "stateMutability": "nonpayable",
      "type": "function"
    },
    {
      "constant": true,
      "inputs": [],
      "name": "payMultiplier",
      "outputs": [
        {
          "name": "",
          "type": "uint256"
        }
      ],
      "payable": false,
      "stateMutability": "view",
      "type": "function"
    },
    {
      "constant": true,
      "inputs": [
        {
          "name": "",
          "type": "bytes32"
        }
      ],
      "name": "commits",
      "outputs": [
        {
          "name": "collected",
          "type": "bool"
        },
        {
          "name": "stake",
          "type": "uint256"
        },
        {
          "name": "committer",
          "type": "address"
        }
      ],
      "payable": false,
      "stateMutability": "view",
      "type": "function"
    },
    {
      "constant": true,
      "inputs": [],
      "name": "paused",
      "outputs": [
        {
          "name": "",
          "type": "bool"
        }
      ],
      "payable": false,
      "stateMutability": "view",
      "type": "function"
    },
    {
      "constant": true,
      "inputs": [],
      "name": "stakeAmount",
      "outputs": [
        {
          "name": "",
          "type": "uint256"
        }
      ],
      "payable": false,
      "stateMutability": "view",
      "type": "function"
    },
    {
      "constant": false,
      "inputs": [],
      "name": "renounceOwnership",
      "outputs": [],
      "payable": false,
      "stateMutability": "nonpayable",
      "type": "function"
    },
    {
      "constant": true,
      "inputs": [],
      "name": "curationMarket",
      "outputs": [
        {
          "name": "",
          "type": "address"
        }
      ],
      "payable": false,
      "stateMutability": "view",
      "type": "function"
    },
    {
      "constant": true,
      "inputs": [],
      "name": "oracle",
      "outputs": [
        {
          "name": "",
          "type": "address"
        }
      ],
      "payable": false,
      "stateMutability": "view",
      "type": "function"
    },
    {
      "constant": true,
      "inputs": [],
      "name": "owner",
      "outputs": [
        {
          "name": "",
          "type": "address"
        }
      ],
      "payable": false,
      "stateMutability": "view",
      "type": "function"
    },
    {
      "constant": true,
      "inputs": [],
      "name": "simpleCloversMarket",
      "outputs": [
        {
          "name": "",
          "type": "address"
        }
      ],
      "payable": false,
      "stateMutability": "view",
      "type": "function"
    },
    {
      "constant": false,
      "inputs": [],
      "name": "reclaimEther",
      "outputs": [],
      "payable": false,
      "stateMutability": "nonpayable",
      "type": "function"
    },
    {
      "constant": true,
      "inputs": [],
      "name": "clubTokenController",
      "outputs": [
        {
          "name": "",
          "type": "address"
        }
      ],
      "payable": false,
      "stateMutability": "view",
      "type": "function"
    },
    {
      "constant": false,
      "inputs": [
        {
          "name": "from_",
          "type": "address"
        },
        {
          "name": "value_",
          "type": "uint256"
        },
        {
          "name": "data_",
          "type": "bytes"
        }
      ],
      "name": "tokenFallback",
      "outputs": [],
      "payable": false,
      "stateMutability": "nonpayable",
      "type": "function"
    },
    {
      "constant": true,
      "inputs": [],
      "name": "stakePeriod",
      "outputs": [
        {
          "name": "",
          "type": "uint256"
        }
      ],
      "payable": false,
      "stateMutability": "view",
      "type": "function"
    },
    {
      "constant": true,
      "inputs": [],
      "name": "basePrice",
      "outputs": [
        {
          "name": "",
          "type": "uint256"
        }
      ],
      "payable": false,
      "stateMutability": "view",
      "type": "function"
    },
    {
      "constant": true,
      "inputs": [],
      "name": "priceMultiplier",
      "outputs": [
        {
          "name": "",
          "type": "uint256"
        }
      ],
      "payable": false,
      "stateMutability": "view",
      "type": "function"
    },
    {
      "constant": true,
      "inputs": [],
      "name": "clubToken",
      "outputs": [
        {
          "name": "",
          "type": "address"
        }
      ],
      "payable": false,
      "stateMutability": "view",
      "type": "function"
    },
    {
      "constant": false,
      "inputs": [
        {
          "name": "_newOwner",
          "type": "address"
        }
      ],
      "name": "transferOwnership",
      "outputs": [],
      "payable": false,
      "stateMutability": "nonpayable",
      "type": "function"
    },
    {
      "inputs": [
        {
          "name": "_clovers",
          "type": "address"
        },
        {
          "name": "_clubToken",
          "type": "address"
        },
        {
          "name": "_clubTokenController",
          "type": "address"
        }
      ],
      "payable": false,
      "stateMutability": "nonpayable",
      "type": "constructor"
    },
    {
      "payable": false,
      "stateMutability": "nonpayable",
      "type": "fallback"
    },
    {
      "anonymous": false,
      "inputs": [
        {
          "indexed": false,
          "name": "movesHash",
          "type": "bytes32"
        },
        {
          "indexed": false,
          "name": "owner",
          "type": "address"
        }
      ],
      "name": "cloverCommitted",
      "type": "event"
    },
    {
      "anonymous": false,
      "inputs": [
        {
          "indexed": false,
          "name": "moves",
          "type": "bytes28[2]"
        },
        {
          "indexed": false,
          "name": "tokenId",
          "type": "uint256"
        },
        {
          "indexed": false,
          "name": "owner",
          "type": "address"
        },
        {
          "indexed": false,
          "name": "stake",
          "type": "uint256"
        },
        {
          "indexed": false,
          "name": "reward",
          "type": "uint256"
        },
        {
          "indexed": false,
          "name": "symmetries",
          "type": "uint256"
        },
        {
          "indexed": false,
          "name": "keep",
          "type": "bool"
        }
      ],
      "name": "cloverClaimed",
      "type": "event"
    },
    {
      "anonymous": false,
      "inputs": [
        {
          "indexed": false,
          "name": "tokenId",
          "type": "uint256"
        },
        {
          "indexed": false,
          "name": "owner",
          "type": "address"
        },
        {
          "indexed": false,
          "name": "stake",
          "type": "uint256"
        }
      ],
      "name": "stakeRetrieved",
      "type": "event"
    },
    {
      "anonymous": false,
      "inputs": [
        {
          "indexed": false,
          "name": "moves",
          "type": "bytes28[2]"
        },
        {
          "indexed": false,
          "name": "tokenId",
          "type": "uint256"
        },
        {
          "indexed": false,
          "name": "owner",
          "type": "address"
        },
        {
          "indexed": false,
          "name": "challenger",
          "type": "address"
        },
        {
          "indexed": false,
          "name": "stake",
          "type": "uint256"
        }
      ],
      "name": "cloverChallenged",
      "type": "event"
    },
    {
      "anonymous": false,
      "inputs": [
        {
          "indexed": true,
          "name": "previousOwner",
          "type": "address"
        }
      ],
      "name": "OwnershipRenounced",
      "type": "event"
    },
    {
      "anonymous": false,
      "inputs": [
        {
          "indexed": true,
          "name": "previousOwner",
          "type": "address"
        },
        {
          "indexed": true,
          "name": "newOwner",
          "type": "address"
        }
      ],
      "name": "OwnershipTransferred",
      "type": "event"
    },
    {
      "constant": true,
      "inputs": [
        {
          "name": "movesHash",
          "type": "bytes32"
        }
      ],
      "name": "getStake",
      "outputs": [
        {
          "name": "",
          "type": "uint256"
        }
      ],
      "payable": false,
      "stateMutability": "view",
      "type": "function"
    },
    {
      "constant": true,
      "inputs": [
        {
          "name": "movesHash",
          "type": "bytes32"
        }
      ],
      "name": "getCommit",
      "outputs": [
        {
          "name": "",
          "type": "address"
        }
      ],
      "payable": false,
      "stateMutability": "view",
      "type": "function"
    },
    {
      "constant": true,
      "inputs": [
        {
          "name": "_tokenId",
          "type": "uint256"
        }
      ],
      "name": "getMovesHash",
      "outputs": [
        {
          "name": "",
          "type": "bytes32"
        }
      ],
      "payable": false,
      "stateMutability": "view",
      "type": "function"
    },
    {
      "constant": true,
      "inputs": [
        {
          "name": "moves",
          "type": "bytes28[2]"
        }
      ],
      "name": "isValid",
      "outputs": [
        {
          "name": "",
          "type": "bool"
        }
      ],
      "payable": false,
      "stateMutability": "view",
      "type": "function"
    },
    {
      "constant": true,
      "inputs": [
        {
          "name": "error",
          "type": "bool"
        },
        {
          "name": "complete",
          "type": "bool"
        }
      ],
      "name": "isValidGame",
      "outputs": [
        {
          "name": "",
          "type": "bool"
        }
      ],
      "payable": false,
      "stateMutability": "pure",
      "type": "function"
    },
    {
      "constant": true,
      "inputs": [
        {
          "name": "_tokenId",
          "type": "uint256"
        }
      ],
      "name": "isVerified",
      "outputs": [
        {
          "name": "",
          "type": "bool"
        }
      ],
      "payable": false,
      "stateMutability": "view",
      "type": "function"
    },
    {
      "constant": true,
      "inputs": [
        {
          "name": "_symmetries",
          "type": "uint256"
        }
      ],
      "name": "calculateReward",
      "outputs": [
        {
          "name": "",
          "type": "uint256"
        }
      ],
      "payable": false,
      "stateMutability": "view",
      "type": "function"
    },
    {
      "constant": true,
      "inputs": [
        {
          "name": "_symmetries",
          "type": "uint256"
        }
      ],
      "name": "getPrice",
      "outputs": [
        {
          "name": "",
          "type": "uint256"
        }
      ],
      "payable": false,
      "stateMutability": "view",
      "type": "function"
    },
    {
      "constant": false,
      "inputs": [
        {
          "name": "moves",
          "type": "bytes28[2]"
        },
        {
          "name": "_tokenId",
          "type": "uint256"
        },
        {
          "name": "_symmetries",
          "type": "uint256"
        },
        {
          "name": "_keep",
          "type": "bool"
        }
      ],
      "name": "claimClover",
      "outputs": [
        {
          "name": "",
          "type": "bool"
        }
      ],
      "payable": true,
      "stateMutability": "payable",
      "type": "function"
    },
    {
      "constant": false,
      "inputs": [
        {
          "name": "_tokenId",
          "type": "uint256"
        }
      ],
      "name": "retrieveStake",
      "outputs": [
        {
          "name": "",
          "type": "bool"
        }
      ],
      "payable": true,
      "stateMutability": "payable",
      "type": "function"
    },
    {
      "constant": true,
      "inputs": [
        {
          "name": "_board",
          "type": "bytes16"
        }
      ],
      "name": "convertBytes16ToUint",
      "outputs": [
        {
          "name": "number",
          "type": "uint256"
        }
      ],
      "payable": false,
      "stateMutability": "view",
      "type": "function"
    },
    {
      "constant": false,
      "inputs": [
        {
          "name": "_tokenId",
          "type": "uint256"
        }
      ],
      "name": "challengeClover",
      "outputs": [
        {
          "name": "",
          "type": "bool"
        }
      ],
      "payable": false,
      "stateMutability": "nonpayable",
      "type": "function"
    },
    {
      "constant": false,
      "inputs": [
        {
          "name": "_from",
          "type": "address"
        },
        {
          "name": "_to",
          "type": "address"
        },
        {
          "name": "_tokenId",
          "type": "uint256"
        }
      ],
      "name": "transferFrom",
      "outputs": [],
      "payable": false,
      "stateMutability": "nonpayable",
      "type": "function"
    },
    {
      "constant": false,
      "inputs": [
        {
          "name": "_paused",
          "type": "bool"
        }
      ],
      "name": "updatePaused",
      "outputs": [],
      "payable": false,
      "stateMutability": "nonpayable",
      "type": "function"
    },
    {
      "constant": false,
      "inputs": [
        {
          "name": "_curationMarket",
          "type": "address"
        }
      ],
      "name": "updateCurationMarket",
      "outputs": [],
      "payable": false,
      "stateMutability": "nonpayable",
      "type": "function"
    },
    {
      "constant": false,
      "inputs": [
        {
          "name": "_oracle",
          "type": "address"
        }
      ],
      "name": "updateOracle",
      "outputs": [],
      "payable": false,
      "stateMutability": "nonpayable",
      "type": "function"
    },
    {
      "constant": false,
      "inputs": [
        {
          "name": "_simpleCloversMarket",
          "type": "address"
        }
      ],
      "name": "updateSimpleCloversMarket",
      "outputs": [],
      "payable": false,
      "stateMutability": "nonpayable",
      "type": "function"
    },
    {
      "constant": false,
      "inputs": [
        {
          "name": "_clubTokenController",
          "type": "address"
        }
      ],
      "name": "updateClubTokenController",
      "outputs": [],
      "payable": false,
      "stateMutability": "nonpayable",
      "type": "function"
    },
    {
      "constant": false,
      "inputs": [
        {
          "name": "_stakeAmount",
          "type": "uint256"
        }
      ],
      "name": "updateStakeAmount",
      "outputs": [],
      "payable": false,
      "stateMutability": "nonpayable",
      "type": "function"
    },
    {
      "constant": false,
      "inputs": [
        {
          "name": "_stakePeriod",
          "type": "uint256"
        }
      ],
      "name": "updateStakePeriod",
      "outputs": [],
      "payable": false,
      "stateMutability": "nonpayable",
      "type": "function"
    },
    {
      "constant": false,
      "inputs": [
        {
          "name": "_payMultiplier",
          "type": "uint256"
        }
      ],
      "name": "updatePayMultipier",
      "outputs": [],
      "payable": false,
      "stateMutability": "nonpayable",
      "type": "function"
    },
    {
      "constant": false,
      "inputs": [
        {
          "name": "_priceMultiplier",
          "type": "uint256"
        }
      ],
      "name": "updatePriceMultipier",
      "outputs": [],
      "payable": false,
      "stateMutability": "nonpayable",
      "type": "function"
    },
    {
      "constant": false,
      "inputs": [
        {
          "name": "_basePrice",
          "type": "uint256"
        }
      ],
      "name": "updateBasePrice",
      "outputs": [],
      "payable": false,
      "stateMutability": "nonpayable",
      "type": "function"
    },
    {
      "constant": false,
      "inputs": [
        {
          "name": "movesHash",
          "type": "bytes32"
        },
        {
          "name": "committer",
          "type": "address"
        }
      ],
      "name": "_setCommit",
      "outputs": [],
      "payable": false,
      "stateMutability": "nonpayable",
      "type": "function"
    }
  ],
  "bytecode": "0x608060405234801561001057600080fd5b50604051606080620042d983398101604090815281516020830151919092015160008054600160a060020a03191633179055341561004d57600080fd5b60028054600160a060020a03948516600160a060020a0319918216179091556003805493851693821693909317909255600480549190931691161790556000805460a060020a60ff0219167401000000000000000000000000000000000000000017905561421880620000c16000396000f30060806040526004361061020d5763ffffffff7c01000000000000000000000000000000000000000000000000000000006000350416627173c8811461021c57806308cdc2a81461024c5780630d576bfa1461026657806317ffc320146102a45780631cb44dfc146102d2578063225c35b21461030057806323b872dd14610333578063271eff941461036a57806337b6d96b146103aa5780633afcba96146103c257806343be0880146103e957806346d2ce201461042a578063478857811461045b5780635759f3f7146104a95780635c975abb146104c157806360c7dc47146104d6578063715018a6146104eb57806372420f06146105005780637b7db9fa146105155780637dc0d1d01461052d5780638784ea96146105425780638a05aafa1461055a5780638da5cb5b146105725780639564e18014610587578063975e4b2a146105b55780639f727c27146105ca578063a4a83ca6146105df578063a7e901b01461060a578063a89b55da14610622578063c0ee0b8a14610637578063c1699a9914610675578063c1fe551a1461068a578063c7876ea414610695578063c90054ee146106aa578063d010ed70146106c2578063d09687f7146106f0578063d2d7231f14610708578063d50cb88b14610720578063d76bbd5214610735578063e75722301461074a578063e765c12214610762578063f2fde38b1461077a578063fd5baa88146107a8575b34801561021957600080fd5b50005b34801561022857600080fd5b5061024a73ffffffffffffffffffffffffffffffffffffffff600435166107c0565b005b34801561025857600080fd5b5061024a600435151561082b565b34801561027257600080fd5b5061027b610899565b6040805173ffffffffffffffffffffffffffffffffffffffff9092168252519081900360200190f35b3480156102b057600080fd5b5061024a73ffffffffffffffffffffffffffffffffffffffff600435166108b5565b3480156102de57600080fd5b5061024a73ffffffffffffffffffffffffffffffffffffffff600435166109a8565b34801561030c57600080fd5b5061031f60043515156024351515610a13565b604080519115158252519081900360200190f35b34801561033f57600080fd5b5061024a73ffffffffffffffffffffffffffffffffffffffff60043581169060243516604435610a3c565b34801561037657600080fd5b5060408051808201825261031f913691600491604491908390600290839083908082843750939650610b2495505050505050565b3480156103b657600080fd5b5061031f600435610b54565b3480156103ce57600080fd5b506103d7610c25565b60408051918252519081900360200190f35b60408051808201825261031f913691600491604491908390600290839083908082843750939650508335945050506020820135916040013515159050610c2b565b34801561043657600080fd5b5061024a60043573ffffffffffffffffffffffffffffffffffffffff60243516611669565b34801561046757600080fd5b50610473600435611697565b604080519315158452602084019290925273ffffffffffffffffffffffffffffffffffffffff1682820152519081900360600190f35b3480156104b557600080fd5b5061024a6004356116d2565b3480156104cd57600080fd5b5061031f6116fb565b3480156104e257600080fd5b506103d761171c565b3480156104f757600080fd5b5061024a611722565b34801561050c57600080fd5b5061027b6117b3565b34801561052157600080fd5b5061031f6004356117cf565b34801561053957600080fd5b5061027b611cde565b34801561054e57600080fd5b5061027b600435611cfa565b34801561056657600080fd5b5061024a600435611d25565b34801561057e57600080fd5b5061027b611d4e565b34801561059357600080fd5b5061024a73ffffffffffffffffffffffffffffffffffffffff60043516611d6a565b3480156105c157600080fd5b5061027b611dd5565b3480156105d657600080fd5b5061024a611df1565b3480156105eb57600080fd5b506103d76fffffffffffffffffffffffffffffffff1960043516611e60565b34801561061657600080fd5b5061024a600435611ec0565b34801561062e57600080fd5b5061027b611ee9565b34801561064357600080fd5b5061024a6004803573ffffffffffffffffffffffffffffffffffffffff16906024803591604435918201910135611f05565b34801561068157600080fd5b506103d7611f0a565b61031f600435611f10565b3480156106a157600080fd5b506103d761258c565b3480156106b657600080fd5b5061024a600435612592565b3480156106ce57600080fd5b5061024a73ffffffffffffffffffffffffffffffffffffffff600435166125bb565b3480156106fc57600080fd5b506103d7600435612626565b34801561071457600080fd5b506103d760043561270f565b34801561072c57600080fd5b506103d761291d565b34801561074157600080fd5b5061027b612923565b34801561075657600080fd5b506103d760043561293f565b34801561076e57600080fd5b506103d760043561294d565b34801561078657600080fd5b5061024a73ffffffffffffffffffffffffffffffffffffffff60043516612962565b3480156107b457600080fd5b5061024a60043561298f565b60005473ffffffffffffffffffffffffffffffffffffffff1633146107e457600080fd5b600680547fffffffffffffffffffffffff00000000000000000000000000000000000000001673ffffffffffffffffffffffffffffffffffffffff92909216919091179055565b60005473ffffffffffffffffffffffffffffffffffffffff16331461084f57600080fd5b6000805491151574010000000000000000000000000000000000000000027fffffffffffffffffffffff00ffffffffffffffffffffffffffffffffffffffff909216919091179055565b60025473ffffffffffffffffffffffffffffffffffffffff1681565b6000805473ffffffffffffffffffffffffffffffffffffffff1633146108da57600080fd5b604080517f70a08231000000000000000000000000000000000000000000000000000000008152306004820152905173ffffffffffffffffffffffffffffffffffffffff8416916370a082319160248083019260209291908290030181600087803b15801561094857600080fd5b505af115801561095c573d6000803e3d6000fd5b505050506040513d602081101561097257600080fd5b50516000549091506109a49073ffffffffffffffffffffffffffffffffffffffff84811691168363ffffffff6129b816565b5050565b60005473ffffffffffffffffffffffffffffffffffffffff1633146109cc57600080fd5b600180547fffffffffffffffffffffffff00000000000000000000000000000000000000001673ffffffffffffffffffffffffffffffffffffffff92909216919091179055565b60008215610a2357506000610a36565b811515610a3257506000610a36565b5060015b92915050565b60055473ffffffffffffffffffffffffffffffffffffffff16331480610a79575060065473ffffffffffffffffffffffffffffffffffffffff1633145b1515610a8457600080fd5b600254604080517f23b872dd00000000000000000000000000000000000000000000000000000000815273ffffffffffffffffffffffffffffffffffffffff8681166004830152858116602483015260448201859052915191909216916323b872dd91606480830192600092919082900301818387803b158015610b0757600080fd5b505af1158015610b1b573d6000803e3d6000fd5b50505050505050565b6000610b2e6140f7565b610b3783612a97565b9050610b4b81600001518260200151610a13565b91505b50919050565b600254604080517f03a53d6b000000000000000000000000000000000000000000000000000000008152600481018490529051600092839273ffffffffffffffffffffffffffffffffffffffff909116916303a53d6b9160248082019260209290919082900301818787803b158015610bcc57600080fd5b505af1158015610be0573d6000803e3d6000fd5b505050506040513d6020811015610bf657600080fd5b50519050801515610c0a5760009150610b4e565b600b54610c1d438363ffffffff612ccc16565b119392505050565b60095481565b6000805481908190819074010000000000000000000000000000000000000000900460ff1615610cbc57604080517f08c379a000000000000000000000000000000000000000000000000000000000815260206004820152601260248201527f4d757374206e6f74206265207061757365640000000000000000000000000000604482015290519081900360640190fd5b7f1c3b3e1e72950ae52150ec48810521d17cea4b30c2a59c807d1ba2f8dff57e658888338a8b8b8b6040518088600260200280838360005b83811015610d0c578181015183820152602001610cf4565b5050505091909101978852505073ffffffffffffffffffffffffffffffffffffffff90941660208601526040808601939093526060850191909152608084015290151560a0830152519081900360c0019150a1876040518082600260200280838360005b83811015610d88578181015183820152602001610d70565b5050505090500191505060405180910390209250600a543410151515610dad57600080fd5b610db683611cfa565b73ffffffffffffffffffffffffffffffffffffffff1615610dd657600080fd5b610de08333612cde565b6000600a541115610e4257610df783600a54612d34565b600254600a5460405173ffffffffffffffffffffffffffffffffffffffff9092169181156108fc0291906000818181858888f19350505050158015610e40573d6000803e3d6000fd5b505b6040805184815233602082015281517f4c0f83654ac2972673e4d81058f833de298389df1dce04cc2db9f231b907d5ff929181900390910190a1600254604080517f4f558e79000000000000000000000000000000000000000000000000000000008152600481018a9052905173ffffffffffffffffffffffffffffffffffffffff90921691634f558e79916024808201926020929091908290030181600087803b158015610ef057600080fd5b505af1158015610f04573d6000803e3d6000fd5b505050506040513d6020811015610f1a57600080fd5b505115610f2657600080fd5b600254604080517f03a53d6b000000000000000000000000000000000000000000000000000000008152600481018a9052905173ffffffffffffffffffffffffffffffffffffffff909216916303a53d6b916024808201926020929091908290030181600087803b158015610f9a57600080fd5b505af1158015610fae573d6000803e3d6000fd5b505050506040513d6020811015610fc457600080fd5b505115610fd057600080fd5b600254604080517fe3100d1e000000000000000000000000000000000000000000000000000000008152600481018a9052436024820152905173ffffffffffffffffffffffffffffffffffffffff9092169163e3100d1e9160448082019260009290919082900301818387803b15801561104957600080fd5b505af115801561105d573d6000803e3d6000fd5b5050600254604080517f0b628395000000000000000000000000000000000000000000000000000000008152600481018c815273ffffffffffffffffffffffffffffffffffffffff9093169450630b62839593508b928d92909160240190839080838360005b838110156110db5781810151838201526020016110c3565b5050505090500192505050600060405180830381600087803b15801561110057600080fd5b505af1158015611114573d6000803e3d6000fd5b5050600254604080517f76e4a87f000000000000000000000000000000000000000000000000000000008152600481018c90528915156024820152905173ffffffffffffffffffffffffffffffffffffffff90921693506376e4a87f925060448082019260009290919082900301818387803b15801561119357600080fd5b505af11580156111a7573d6000803e3d6000fd5b5050505060008611156112e557600254604080517fdc3f7758000000000000000000000000000000000000000000000000000000008152600481018a905260248101899052905173ffffffffffffffffffffffffffffffffffffffff9092169163dc3f77589160448082019260009290919082900301818387803b15801561122e57600080fd5b505af1158015611242573d6000803e3d6000fd5b5050505061124f8661270f565b600254604080517fa47bd496000000000000000000000000000000000000000000000000000000008152600481018b905260248101849052905192945073ffffffffffffffffffffffffffffffffffffffff9091169163a47bd4969160448082019260009290919082900301818387803b1580156112cc57600080fd5b505af11580156112e0573d6000803e3d6000fd5b505050505b6007546112f8908363ffffffff612d4916565b90508480156113075750600081115b1561152457600354604080517f70a082310000000000000000000000000000000000000000000000000000000081523360048201529051839273ffffffffffffffffffffffffffffffffffffffff16916370a082319160248083019260209291908290030181600087803b15801561137e57600080fd5b505af1158015611392573d6000803e3d6000fd5b505050506040513d60208110156113a857600080fd5b5051101561146857600454600a5473ffffffffffffffffffffffffffffffffffffffff9091169063f088d547906113e690349063ffffffff612ccc16565b604080517c010000000000000000000000000000000000000000000000000000000063ffffffff85160281523360048201529051602480830192602092919082900301818588803b15801561143a57600080fd5b505af115801561144e573d6000803e3d6000fd5b50505050506040513d602081101561146557600080fd5b50505b600354600254604080517f23b872dd00000000000000000000000000000000000000000000000000000000815233600482015273ffffffffffffffffffffffffffffffffffffffff928316602482015260448101859052905191909216916323b872dd9160648083019260209291908290030181600087803b1580156114ed57600080fd5b505af1158015611501573d6000803e3d6000fd5b505050506040513d602081101561151757600080fd5b5051151561152457600080fd5b600254604080517f40c10f1900000000000000000000000000000000000000000000000000000000815273ffffffffffffffffffffffffffffffffffffffff90921660048301819052602483018a9052905190916340c10f1991604480830192600092919082900301818387803b15801561159e57600080fd5b505af11580156115b2573d6000803e3d6000fd5b505050507f1c3b3e1e72950ae52150ec48810521d17cea4b30c2a59c807d1ba2f8dff57e65888833600a54868b8b6040518088600260200280838360005b838110156116085781810151838201526020016115f0565b5050505091909101978852505073ffffffffffffffffffffffffffffffffffffffff90941660208601526040808601939093526060850191909152608084015290151560a0830152519081900360c0019150a1506001979650505050505050565b60005473ffffffffffffffffffffffffffffffffffffffff16331461168d57600080fd5b6109a48282612cde565b600c6020526000908152604090208054600182015460029092015460ff909116919073ffffffffffffffffffffffffffffffffffffffff1683565b60005473ffffffffffffffffffffffffffffffffffffffff1633146116f657600080fd5b600b55565b60005474010000000000000000000000000000000000000000900460ff1681565b600a5481565b60005473ffffffffffffffffffffffffffffffffffffffff16331461174657600080fd5b6000805460405173ffffffffffffffffffffffffffffffffffffffff909116917ff8df31144d9c2f0f6b59d69b8b98abd5459d07f2742c4df920b25aae33c6482091a2600080547fffffffffffffffffffffffff0000000000000000000000000000000000000000169055565b60065473ffffffffffffffffffffffffffffffffffffffff1681565b6000806117da614173565b6117e26140f7565b600254604080517f62f9acf90000000000000000000000000000000000000000000000000000000081526004810188905281516001965060009384938493849373ffffffffffffffffffffffffffffffffffffffff909316926362f9acf99260248084019391929182900301818787803b15801561185f57600080fd5b505af1158015611873573d6000803e3d6000fd5b505050506040513d601f19601f82011682018060405250604081101561189857600080fd5b5060005490965073ffffffffffffffffffffffffffffffffffffffff1633148015906118dc575060015473ffffffffffffffffffffffffffffffffffffffff163314155b15611a83576118ea86612a97565b9450886118fb866101000151611e60565b1461190557600096505b86801561191f575061191f85600001518660200151610a13565b15611a7357600254604080517fc53b4bf9000000000000000000000000000000000000000000000000000000008152600481018c9052905173ffffffffffffffffffffffffffffffffffffffff9092169163c53b4bf9916024808201926020929091908290030181600087803b15801561199857600080fd5b505af11580156119ac573d6000803e3d6000fd5b505050506040513d60208110156119c257600080fd5b50516060860151909450151560006010860460011611146119e45760006119e6565b865b608086015190975015156000600886046001161114611a06576000611a08565b865b60a086015190975015156000600486046001161114611a28576000611a2a565b865b60c086015190975015156000600160028704161114611a4a576000611a4c565b865b96508460e00151151560008560011611151514611a6a576000611a6c565b865b9650611a78565b600096505b8615611a8357600080fd5b856040518082600260200280838360005b83811015611aac578181015183820152602001611a94565b5050505090500191505060405180910390209250611ac98361294d565b9150611ad489610b54565b158015611ae15750600082115b15611b7857600254604080517f1cc1472d00000000000000000000000000000000000000000000000000000000815233600482015260248101859052905173ffffffffffffffffffffffffffffffffffffffff90921691631cc1472d9160448082019260009290919082900301818387803b158015611b5f57600080fd5b505af1158015611b73573d6000803e3d6000fd5b505050505b6000838152600c602052604090205460ff1615611b9857611b9889612d56565b611ba183611cfa565b90507f23e709ab80a4bee9454ba0d08c0b669d684531b4ec766524c43abd788cc3ca76868a8333866040518086600260200280838360005b83811015611bf1578181015183820152602001611bd9565b5050505091909101958652505073ffffffffffffffffffffffffffffffffffffffff92831660208501529116604080840191909152606083019190915251908190036080019150a1600254604080517f0e8310d6000000000000000000000000000000000000000000000000000000008152600481018c9052905173ffffffffffffffffffffffffffffffffffffffff90921691630e8310d69160248082019260009290919082900301818387803b158015611cac57600080fd5b505af1158015611cc0573d6000803e3d6000fd5b50505050611ccd83613080565b600197505b50505050505050919050565b60015473ffffffffffffffffffffffffffffffffffffffff1681565b6000908152600c602052604090206002015473ffffffffffffffffffffffffffffffffffffffff1690565b60005473ffffffffffffffffffffffffffffffffffffffff163314611d4957600080fd5b600955565b60005473ffffffffffffffffffffffffffffffffffffffff1681565b60005473ffffffffffffffffffffffffffffffffffffffff163314611d8e57600080fd5b600480547fffffffffffffffffffffffff00000000000000000000000000000000000000001673ffffffffffffffffffffffffffffffffffffffff92909216919091179055565b60055473ffffffffffffffffffffffffffffffffffffffff1681565b60005473ffffffffffffffffffffffffffffffffffffffff163314611e1557600080fd5b6000805460405173ffffffffffffffffffffffffffffffffffffffff90911691303180156108fc02929091818181858888f19350505050158015611e5d573d6000803e3d6000fd5b50565b6000805b6010811015610b4e5780600101601060ff160360080260020a8382601081101515611e8b57fe5b7f010000000000000000000000000000000000000000000000000000000000000091901a810204029190910190600101611e64565b60005473ffffffffffffffffffffffffffffffffffffffff163314611ee457600080fd5b600855565b60045473ffffffffffffffffffffffffffffffffffffffff1681565b600080fd5b600b5481565b6000611f1a614173565b600254604080517f62f9acf9000000000000000000000000000000000000000000000000000000008152600481018690528151600093849384938493849373ffffffffffffffffffffffffffffffffffffffff16926362f9acf9926024808201939182900301818787803b158015611f9157600080fd5b505af1158015611fa5573d6000803e3d6000fd5b505050506040513d601f19601f820116820180604052506040811015611fca57600080fd5b50604080519197508791908190839080838360005b83811015611ff7578181015183820152602001611fdf565b505060408051959093018590039094206000818152600c6020529290922054919a505060ff1615935061202d9250505057600080fd5b6000858152600c6020526040902080547fffffffffffffffffffffffffffffffffffffffffffffffffffffffffffffff0016600117905561206d88610b54565b8061208f575060005473ffffffffffffffffffffffffffffffffffffffff1633145b806120b1575060015473ffffffffffffffffffffffffffffffffffffffff1633145b15156120bc57600080fd5b6120c58561294d565b93506120d0886130e7565b6120d985611cfa565b925073ffffffffffffffffffffffffffffffffffffffff8316331480612116575060005473ffffffffffffffffffffffffffffffffffffffff1633145b80612138575060015473ffffffffffffffffffffffffffffffffffffffff1633145b151561214357600080fd5b600254604080517f1c4b774b000000000000000000000000000000000000000000000000000000008152600481018b9052905173ffffffffffffffffffffffffffffffffffffffff90921691631c4b774b916024808201926020929091908290030181600087803b1580156121b757600080fd5b505af11580156121cb573d6000803e3d6000fd5b505050506040513d60208110156121e157600080fd5b5051600254604080517f04952631000000000000000000000000000000000000000000000000000000008152600481018c9052905192945073ffffffffffffffffffffffffffffffffffffffff909116916304952631916024808201926020929091908290030181600087803b15801561225a57600080fd5b505af115801561226e573d6000803e3d6000fd5b505050506040513d602081101561228457600080fd5b50519050801561232c57600254604080517f23b872dd00000000000000000000000000000000000000000000000000000000815273ffffffffffffffffffffffffffffffffffffffff928316600482018190529286166024820152604481018b905290516323b872dd9160648082019260009290919082900301818387803b15801561230f57600080fd5b505af1158015612323573d6000803e3d6000fd5b505050506124a4565b60055460085473ffffffffffffffffffffffffffffffffffffffff9091169063d79875eb908a906123779061236890879063ffffffff61335616565b6007549063ffffffff612d4916565b6040518363ffffffff167c01000000000000000000000000000000000000000000000000000000000281526004018083815260200182815260200192505050600060405180830381600087803b1580156123d057600080fd5b505af11580156123e4573d6000803e3d6000fd5b5050505060008211156124a457600354604080517f40c10f1900000000000000000000000000000000000000000000000000000000815273ffffffffffffffffffffffffffffffffffffffff868116600483015260248201869052915191909216916340c10f199160448083019260209291908290030181600087803b15801561246d57600080fd5b505af1158015612481573d6000803e3d6000fd5b505050506040513d602081101561249757600080fd5b505115156124a457600080fd5b600084111561253f57600254604080517f1cc1472d00000000000000000000000000000000000000000000000000000000815233600482015260248101879052905173ffffffffffffffffffffffffffffffffffffffff90921691631cc1472d9160448082019260009290919082900301818387803b15801561252657600080fd5b505af115801561253a573d6000803e3d6000fd5b505050505b6040805189815233602082015280820186905290517fa8a1a24efbea93a5c7f29342ba7652cd030828e12cc15c1416480fecee73d5899181900360600190a1506001979650505050505050565b60075481565b60005473ffffffffffffffffffffffffffffffffffffffff1633146125b657600080fd5b600a55565b60005473ffffffffffffffffffffffffffffffffffffffff1633146125df57600080fd5b600580547fffffffffffffffffffffffff00000000000000000000000000000000000000001673ffffffffffffffffffffffffffffffffffffffff92909216919091179055565b600254604080517f62f9acf900000000000000000000000000000000000000000000000000000000815260048101849052815160009373ffffffffffffffffffffffffffffffffffffffff16926362f9acf9926024808201939182900301818787803b15801561269557600080fd5b505af11580156126a9573d6000803e3d6000fd5b505050506040513d601f19601f8201168201806040525060408110156126ce57600080fd5b5060408051908190839080838360005b838110156126f65781810151838201526020016126de565b5050505090500191505060405180910390209050919050565b600080600080600080600080600260009054906101000a900473ffffffffffffffffffffffffffffffffffffffff1673ffffffffffffffffffffffffffffffffffffffff1663785d8d716040518163ffffffff167c010000000000000000000000000000000000000000000000000000000002815260040160c060405180830381600087803b1580156127a157600080fd5b505af11580156127b5573d6000803e3d6000fd5b505050506040513d60c08110156127cb57600080fd5b508051602082015160408301516060840151608085015160a090950151939b5091995097509550909350915060009050600160108a0481161415612847576128446128378760010161282b8a60010160095461335690919063ffffffff16565b9063ffffffff61337f16565b829063ffffffff612d4916565b90505b600160088a048116141561287a576128776128378660010161282b8a60010160095461335690919063ffffffff16565b90505b600160048a04811614156128ad576128aa6128378560010161282b8a60010160095461335690919063ffffffff16565b90505b600160028a04811614156128e0576128dd6128378460010161282b8a60010160095461335690919063ffffffff16565b90505b88600116600114156129115761290e6128378360010161282b8a60010160095461335690919063ffffffff16565b90505b98975050505050505050565b60085481565b60035473ffffffffffffffffffffffffffffffffffffffff1681565b6000610a366123688361270f565b6000908152600c602052604090206001015490565b60005473ffffffffffffffffffffffffffffffffffffffff16331461298657600080fd5b611e5d81613394565b60005473ffffffffffffffffffffffffffffffffffffffff1633146129b357600080fd5b600755565b8273ffffffffffffffffffffffffffffffffffffffff1663a9059cbb83836040518363ffffffff167c0100000000000000000000000000000000000000000000000000000000028152600401808373ffffffffffffffffffffffffffffffffffffffff1673ffffffffffffffffffffffffffffffffffffffff16815260200182815260200192505050602060405180830381600087803b158015612a5b57600080fd5b505af1158015612a6f573d6000803e3d6000fd5b505050506040513d6020811015612a8557600080fd5b50511515612a9257600080fd5b505050565b612a9f6140f7565b612aa76140f7565b82517fffffffffffffffffffffffffffffffffffffffffffffffffffffffff000000009081166101208301526020808501519091166101408301526000610180830181905260026101a084018190526101c084015280835290820181905260016101608301527ffffffffffffffe7ffdbfffffffffffff0000000000000000000000000000000061010083015280808080805b603c8260ff16108015612b4b575085155b15612c9c57602087610180015160ff1610612b6b57866101400151612b72565b8661012001515b9050612b9481602089610180015160ff16811515612b8c57fe5b066020613443565b9450612b9f856134b2565b9094509250612bad856134ed565b15955060ff8216158015612bd357508360ff166002141580612bd357508260ff16600314155b15612be057600180885295505b85158015612bf1575060088460ff16105b8015612c00575060088360ff16105b8015612c10575060008460ff1610155b8015612c20575060008360ff1610155b15612c9157612c308785856134fa565b6101808101805160010160ff169052805190975015612c91576000875261016087015160ff1660011415612c6b576002610160880152612c74565b60016101608801525b612c7f8785856134fa565b805190975015612c9157600180885295505b600190910190612b3a565b86511515612cbf5760008752612cb18761376e565b9650612cbc8761396a565b96505b5094979650505050505050565b600082821115612cd857fe5b50900390565b6000918252600c602052604090912060020180547fffffffffffffffffffffffff00000000000000000000000000000000000000001673ffffffffffffffffffffffffffffffffffffffff909216919091179055565b6000918252600c602052604090912060010155565b81810182811015610a3657fe5b6000806000806000806000600260009054906101000a900473ffffffffffffffffffffffffffffffffffffffff1673ffffffffffffffffffffffffffffffffffffffff1663785d8d716040518163ffffffff167c010000000000000000000000000000000000000000000000000000000002815260040160c060405180830381600087803b158015612de757600080fd5b505af1158015612dfb573d6000803e3d6000fd5b505050506040513d60c0811015612e1157600080fd5b81019080805190602001909291908051906020019092919080519060200190929190805190602001909291908051906020019092919080519060200190929190505050809750819850829950839a50849b50859c50505050505050600260009054906101000a900473ffffffffffffffffffffffffffffffffffffffff1673ffffffffffffffffffffffffffffffffffffffff1663c53b4bf9896040518263ffffffff167c010000000000000000000000000000000000000000000000000000000002815260040180828152602001915050602060405180830381600087803b158015612efd57600080fd5b505af1158015612f11573d6000803e3d6000fd5b505050506040513d6020811015612f2757600080fd5b50519050612f5060008211612f3d576000612f40565b60015b889060ff1663ffffffff612ccc16565b9650612f68866001601084041663ffffffff612ccc16565b9550612f80856001600884041663ffffffff612ccc16565b9450612f98846001600484041663ffffffff612ccc16565b9350612fb0836002830460011663ffffffff612ccc16565b9250612fc5826001831663ffffffff612ccc16565b600254604080517f8b1b2ba8000000000000000000000000000000000000000000000000000000008152600481018b9052602481018a905260448101899052606481018890526084810187905260a48101849052905192945073ffffffffffffffffffffffffffffffffffffffff90911691638b1b2ba89160c48082019260009290919082900301818387803b15801561305e57600080fd5b505af1158015613072573d6000803e3d6000fd5b505050505050505050505050565b6000908152600c6020526040812080547fffffffffffffffffffffffffffffffffffffffffffffffffffffffffffffff00168155600181019190915560020180547fffffffffffffffffffffffff0000000000000000000000000000000000000000169055565b6000806000806000806000600260009054906101000a900473ffffffffffffffffffffffffffffffffffffffff1673ffffffffffffffffffffffffffffffffffffffff1663785d8d716040518163ffffffff167c010000000000000000000000000000000000000000000000000000000002815260040160c060405180830381600087803b15801561317857600080fd5b505af115801561318c573d6000803e3d6000fd5b505050506040513d60c08110156131a257600080fd5b81019080805190602001909291908051906020019092919080519060200190929190805190602001909291908051906020019092919080519060200190929190505050809750819850829950839a50849b50859c50505050505050600260009054906101000a900473ffffffffffffffffffffffffffffffffffffffff1673ffffffffffffffffffffffffffffffffffffffff1663c53b4bf9896040518263ffffffff167c010000000000000000000000000000000000000000000000000000000002815260040180828152602001915050602060405180830381600087803b15801561328e57600080fd5b505af11580156132a2573d6000803e3d6000fd5b505050506040513d60208110156132b857600080fd5b505190506132e1600082116132ce5760006132d1565b60015b889060ff1663ffffffff612d4916565b96506132f9866001601084041663ffffffff612d4916565b9550613311856001600884041663ffffffff612d4916565b9450613329846001600484041663ffffffff612d4916565b9350613341836002830460011663ffffffff612d4916565b9250612fc5826001831663ffffffff612d4916565b600082151561336757506000610a36565b5081810281838281151561337757fe5b0414610a3657fe5b6000818381151561338c57fe5b049392505050565b73ffffffffffffffffffffffffffffffffffffffff811615156133b657600080fd5b6000805460405173ffffffffffffffffffffffffffffffffffffffff808516939216917f8be0079c531659141344cd1fd0a4f28419497f9722a3daafe3b4186f6b6457e091a3600080547fffffffffffffffffffffffff00000000000000000000000000000000000000001673ffffffffffffffffffffffffffffffffffffffff92909216919091179055565b640100000000647f00000000600793840292909302919091037ffffffffffffffffffffffffffffffffffffffffffffffffffffffffffffffff90160ff1660020a7fffffffffffffffffffffffffffffffffffffffffffffffffffffffff000000009390931692909204160490565b7fffffffffffffffffffffffffffffffffffffffffffffffffffffffffffffffc081810160071692600860ff93859003909201929092160490565b604060ff82161015919050565b6135026140f7565b61350a61418e565b600080600080600080600080600360ff1661352b8e61010001518e8e613bf5565b60ff161461353f5760018d528c995061375e565b61354a8d8d8d613c67565b909950975060ff881615156135655760018d528c995061375e565b5060009050805b8760ff168160ff1610156136b857600096508695506135a08d8a60ff84166008811061359457fe5b60200201518e8e613e4c565b9097509550600092505b8560ff168360ff1610156136b0578115156135c457600191505b6135d76135d2888589613443565b6134b2565b80955081965050506135f58d61010001518e61016001518787613f82565b6fffffffffffffffffffffffffffffffff19166101008e01526101608d015160ff1660021415613664576101c08d01805160010160ff9081169091526101a08e0180517fffffffffffffffffffffffffffffffffffffffffffffffffffffffffffffffff0190911690526136a5565b6101c08d0180517fffffffffffffffffffffffffffffffffffffffffffffffffffffffffffffffff0160ff9081169091526101a08e01805160010190911690525b6001909201916135aa565b60010161356c565b8115613727576136d48d61010001518e61016001518e8e613f82565b6fffffffffffffffffffffffffffffffff19166101008e01526101608d015160ff1660021415613712576101c08d01805160010160ff169052613722565b6101a08d01805160010160ff1690525b613733565b60018d528c995061375e565b6101608d015160ff16600114156137515760026101608e015261375a565b60016101608e01525b8c99505b5050505050505050509392505050565b6137766140f7565b61377e6141bd565b600080600080600061378e614173565b88610180015160ff16603c14156137ae57600160208a0152889750611cd2565b60009550600094505b60408560ff16101561383a576101008901516137e290600860078816880360ff160460078816613bf5565b935060ff84166003141561382f576040805180820190915260086007871680880360ff9081169290920482168352602083015288908816603c811061382357fe5b60200201526001909501945b6001909401936137b7565b6000925060008660ff161115613942578861010001519150600094505b8560ff168560ff1610801561386a575082155b15613927578660ff8616603c811061387e57fe5b602002015160016101608b01526000808b526fffffffffffffffffffffffffffffffff1984166101008c01529091506138c8908a9083905b602002015183600160200201516134fa565b805190995015156138d857600192505b60026101608a01526000808a526fffffffffffffffffffffffffffffffff1983166101008b015261390c908a9083906138b6565b8051909950151561391c57600192505b600190940193613857565b6fffffffffffffffffffffffffffffffff1982166101008a01525b8215613951576001895261395d565b600160208a0152600089525b5096979650505050505050565b6139726140f7565b6001808080806000805b60088260ff161080156139ab575086806139935750855b8061399b5750845b806139a35750835b806139ab5750825b15613b9d575060005b60088160ff161080156139e3575086806139cb5750855b806139d35750845b806139db5750835b806139e35750825b15613b92576139fe8961010001518360070383600703614024565b6fffffffffffffffffffffffffffffffff1916613a218a61010001518484614024565b6fffffffffffffffffffffffffffffffff191614613a3e57600096505b613a518961010001518383600703614024565b6fffffffffffffffffffffffffffffffff1916613a748a61010001518484614024565b6fffffffffffffffffffffffffffffffff191614613a9157600095505b613aa48961010001518360070383614024565b6fffffffffffffffffffffffffffffffff1916613ac78a61010001518484614024565b6fffffffffffffffffffffffffffffffff191614613ae457600094505b613afa8961010001518260070384600703614024565b6fffffffffffffffffffffffffffffffff1916613b1d8a61010001518484614024565b6fffffffffffffffffffffffffffffffff191614613b3a57600093505b613b4a8961010001518284614024565b6fffffffffffffffffffffffffffffffff1916613b6d8a61010001518484614024565b6fffffffffffffffffffffffffffffffff191614613b8a57600092505b6001016139b4565b60019091019061397c565b8680613ba65750855b80613bae5750845b80613bb65750835b80613bbe5750825b1561395d5750506001604088015293151560608701529115156080860152151560a0850152151560c0840152151560e08301525090565b6000806000613c04858561407b565b7001000000000000000000000000000000006fffffffffffffffffffffffffffffffff821660020a6fffffffffffffffffffffffffffffffff19891604700300000000000000000000000000000000169081049450909250905050509392505050565b613c6f61418e565b6000613c7961418e565b6000613c8361418e565b600080613c8e614173565b60408051610140810182527fffffffffffffffffffffffffffffffffffffffffffffffffffffffffffffffff61010082018181526000610120840181905290835283518085018552828152600160208281018290528086019290925285518087018752838152808301829052858701528551808701875281815280830182905260608601528551808701875281815280830184905260808601528551808701875290815280820184905260a08501528451808601865282815280820184905260c0850152845180860190955282855284019190915260e0820192909252909550935084805b60088160ff161015613e39578560ff821660088110613d8e57fe5b6020020151925082600060200201518c01935082600160200201518b01945060078560000b1380613dc2575060008560000b125b80613dd0575060078460000b135b80613dde575060008460000b125b1515613e3157613df48d61010001518587613bf5565b91508c610160015160ff168260ff16141515613e315760ff8216600314613e3157828860ff891660088110613e2557fe5b60200201526001909601955b600101613d73565b50959b949a509398505050505050505050565b60008060008060008060008060008060009650600160ff168e610160015160ff161415613e7c5760029550613e81565b600195505b506000935060015b60098160ff161015613f6e57841515613f66578c5160208e01519082028d01945081028b0192506007600085900b1380613ec6575060008460000b125b80613ed4575060078360000b135b80613ee2575060008360000b125b15613ef857600097506000965060019450613f66565b613f088e61010001518585613bf5565b91508560ff168260ff161415613f2e57613f24888886866140b0565b9098509650613f66565b8d610160015160ff168260ff16148015613f4b575060018160ff16115b15613f595760019450613f66565b6000975060009650600194505b600101613e89565b50959c949b50939950505050505050505050565b600080600060078560ff161115613f9857600080fd5b60078460ff161115613fa957600080fd5b613fb3858561407b565b6fffffffffffffffffffffffffffffffff811660020a70030000000000000000000000000000000081028981189099169860ff8916700100000000000000000000000000000000026fffffffffffffffffffffffffffffffff19169091028917945090925090505050949350505050565b600080614031848461407b565b6fffffffffffffffffffffffffffffffff811660020a6fffffffffffffffffffffffffffffffff198716047003000000000000000000000000000000001692509050509392505050565b600891909102016040037fffffffffffffffffffffffffffffffffffffffffffffffffffffffffffffffff0160020260ff1690565b6008020160400160ff16640100000000027fffffffffffffffffffffffffffffffffffffffffffffffffffffffff0000000092909216608002919091179160019190910190565b604080516101e081018252600080825260208201819052918101829052606081018290526080810182905260a0810182905260c0810182905260e08101829052610100810182905261012081018290526101408101829052610160810182905261018081018290526101a081018290526101c081019190915290565b60408051808201825290600290829080388339509192915050565b610200604051908101604052806008905b6141a7614173565b81526020019060019003908161419f5790505090565b610f0060405190810160405280603c905b6141d6614173565b8152602001906001900390816141ce57905050905600a165627a7a72305820a281f44c2c652a9ba931b42fb4cc42ba7b8d35feec85475f53bbe5112de8550e0029",
  "source": "pragma solidity ^0.4.18;\n\n/**\n * The CloversController is a replaceable endpoint for minting and unminting Clovers.sol and ClubToken.sol\n */\n\nimport \"./Reversi.sol\";\nimport \"./Clovers.sol\";\nimport \"./ClubToken.sol\";\nimport \"./ClubTokenController.sol\";\nimport \"zeppelin-solidity/contracts/ownership/HasNoTokens.sol\";\nimport \"zeppelin-solidity/contracts/ownership/HasNoEther.sol\";\nimport \"zeppelin-solidity/contracts/math/SafeMath.sol\";\n\n\ncontract ISimpleCloversMarket {\n    function sell(uint256 _tokenId, uint256 price) public;\n} \n\ncontract CloversController is HasNoEther, HasNoTokens {\n    event cloverCommitted(bytes32 movesHash, address owner);\n    event cloverClaimed(bytes28[2] moves, uint256 tokenId, address owner, uint stake, uint reward, uint256 symmetries, bool keep);\n    event stakeRetrieved(uint256 tokenId, address owner, uint stake);\n    event cloverChallenged(bytes28[2] moves, uint256 tokenId, address owner, address challenger, uint stake);\n\n    using SafeMath for uint256;\n    bool public paused;\n    address public oracle;\n    address public clovers;\n    address public clubToken;\n    address public clubTokenController;\n    address public simpleCloversMarket;\n    address public curationMarket;\n\n    uint256 public basePrice;\n    uint256 public priceMultiplier;\n    uint256 public payMultiplier;\n    uint256 public stakeAmount;\n    uint256 public stakePeriod;\n\n    struct Commit {\n        bool collected;\n        uint256 stake;\n        address committer;\n    }\n\n    mapping (bytes32 => Commit) public commits;\n\n    modifier notPaused() {\n        require(!paused, \"Must not be paused\");\n        _;\n    }\n\n    constructor(address _clovers, address _clubToken, address _clubTokenController) public {\n        clovers = _clovers;\n        clubToken = _clubToken;\n        clubTokenController = _clubTokenController;\n        paused = true;\n    }\n    /**\n    * @dev Gets the current stake of a Clover based on the hash of the moves.\n    * @param movesHash The hash of the moves that make up the clover.\n    * @return A uint256 value of stake.\n    */\n    function getStake(bytes32 movesHash) public view returns (uint256) {\n        return commits[movesHash].stake;\n    }\n    /**\n    * @dev Gets the address of the committer of a Clover based on the hash of the moves.\n    * @param movesHash The hash of the moves that make up the clover.\n    * @return The address of the committer.\n    */\n    function getCommit(bytes32 movesHash) public view returns (address) {\n        return commits[movesHash].committer;\n    }\n    /**\n    * @dev Gets the current staking period needed to verify a Clover.\n    * @param _tokenId The token Id of the clover.\n    * @return A uint256 value of stake period in seconds.\n    */\n    function getMovesHash(uint _tokenId) public constant returns (bytes32) {\n        return keccak256(Clovers(clovers).getCloverMoves(_tokenId));\n    }\n    /**\n    * @dev Checks whether the game is valid.\n    * @param moves The moves needed to play validate the game.\n    * @return A boolean representing whether or not the game is valid.\n    */\n    function isValid(bytes28[2] moves) public constant returns (bool) {\n        Reversi.Game memory game = Reversi.playGame(moves);\n        return isValidGame(game.error, game.complete);\n    }\n\n    /**\n    * @dev Checks whether the game is valid.\n    * @param error The pre-played game error\n    * @param complete The pre-played game complete boolean\n    * @return A boolean representing whether or not the game is valid.\n    */\n    function isValidGame(bool error, bool complete) public pure returns (bool) {\n        if (error) return false;\n        if (!complete) return false;\n        return true;\n    }\n    /**\n    * @dev Checks whether the game has passed the verification period.\n    * @param _tokenId The board being checked.\n    * @return A boolean representing whether or not the game has been verified.\n    */\n    function isVerified(uint256 _tokenId) public constant returns (bool) {\n        uint256 _blockMinted = Clovers(clovers).getBlockMinted(_tokenId);\n        if(_blockMinted == 0) return false;\n        return block.number.sub(_blockMinted) > stakePeriod;\n    }\n    /**\n    * @dev Calculates the reward of the board.\n    * @param _symmetries symmetries saved as a uint256 value like 00010101 where bits represent symmetry types.\n    * @return A uint256 representing the reward that would be returned for claiming the board.\n    */\n    function calculateReward(uint256 _symmetries) public constant returns (uint256) {\n        uint256 Symmetricals;\n        uint256 RotSym;\n        uint256 Y0Sym;\n        uint256 X0Sym;\n        uint256 XYSym;\n        uint256 XnYSym;\n        (Symmetricals,\n        RotSym,\n        Y0Sym,\n        X0Sym,\n        XYSym,\n        XnYSym) = Clovers(clovers).getAllSymmetries();\n        uint256 base = 0;\n        if (_symmetries >> 4 & 1 == 1) base = base.add(payMultiplier.mul(Symmetricals + 1).div(RotSym + 1));\n        if (_symmetries >> 3 & 1 == 1) base = base.add(payMultiplier.mul(Symmetricals + 1).div(Y0Sym + 1));\n        if (_symmetries >> 2 & 1 == 1) base = base.add(payMultiplier.mul(Symmetricals + 1).div(X0Sym + 1));\n        if (_symmetries >> 1 & 1 == 1) base = base.add(payMultiplier.mul(Symmetricals + 1).div(XYSym + 1));\n        if (_symmetries & 1 == 1) base = base.add(payMultiplier.mul(Symmetricals + 1).div(XnYSym + 1));\n        return base;\n    }\n\n/*\n    // NOTE: Disabled to reduce contract size\n    function instantClaimClover(bytes28[2] moves, bool _keep) public payable returns (bool) {\n        Reversi.Game memory game = Reversi.playGame(moves);\n        require(isValidGame(game.error, game.complete));\n        uint256 tokenId = uint256(game.board);\n        require(Clovers(clovers).getBlockMinted(tokenId) == 0);\n        require(!Clovers(clovers).exists(tokenId));\n        Clovers(clovers).setBlockMinted(tokenId, block.number);\n        Clovers(clovers).setCloverMoves(tokenId, moves);\n\n        uint256 symmetries = Reversi.returnSymmetricals(game.RotSym, game.Y0Sym, game.X0Sym, game.XYSym, game.XnYSym);\n        uint256 reward;\n\n        if (uint256(symmetries) > 0) {\n            Clovers(clovers).setSymmetries(tokenId, uint256(symmetries));\n            reward = calculateReward(uint256(symmetries));\n            Clovers(clovers).setReward(tokenId, reward);\n        }\n        if (_keep) {\n            // If the user decides to keep the Clover, they must\n            // pay for it in club tokens according to the reward price.\n            if (ClubToken(clubToken).balanceOf(msg.sender) < reward) {\n                ClubTokenController(clubTokenController).buy.value(msg.value)(msg.sender); // msg.value needs to be enough to buy \"reward\" amount of Club Token\n            }\n            if (reward > 0) {\n                // ClubToken(clubToken).transferFrom(msg.sender, clubToken, reward); // if we'd rather keep the money\n                ClubToken(clubToken).burn(msg.sender, reward);\n            }\n            Clovers(clovers).mint(msg.sender, tokenId);\n        } else {\n            // If the user decides not to keep the Clover, they will\n            // receive the reward price in club tokens, and the clover will\n            // go for sale at 10x the reward price.\n            if (reward > 0) {\n                require(ClubToken(clubToken).mint(msg.sender, reward));\n            }\n            Clovers(clovers).mint(clovers, tokenId);\n        }\n\n    } */\n\n    function getPrice(uint256 _symmetries) public constant returns(uint256) {\n        return basePrice.add(calculateReward(_symmetries));\n    }\n\n    /**\n    * @dev Claim the Clover without a commit or reveal. Payable so you can attach enough for the stake,\n    * as well as enough to buy tokens if needed to keep the Clover.\n    * @param moves The moves that make up the Clover reversi game.\n    * @param _tokenId The board that results from the moves.\n    * @param _symmetries symmetries saved as a uint256 value like 00010101 where bits represent symmetry\n    * types.\n    * @return A boolean representing whether or not the claim was successful.\n    */\n    function claimClover(bytes28[2] moves, uint256 _tokenId, uint256 _symmetries, bool _keep) public payable notPaused returns (bool) {\n        emit cloverClaimed(moves, _tokenId, msg.sender, _tokenId, _tokenId, _symmetries, _keep);\n\n        bytes32 movesHash = keccak256(moves);\n\n        require(msg.value >= stakeAmount);\n        require(getCommit(movesHash) == 0);\n\n        setCommit(movesHash, msg.sender);\n        if (stakeAmount > 0) {\n            setStake(movesHash, stakeAmount);\n            clovers.transfer(stakeAmount);\n        }\n\n        emit cloverCommitted(movesHash, msg.sender);\n\n        require(!Clovers(clovers).exists(_tokenId));\n        require(Clovers(clovers).getBlockMinted(_tokenId) == 0);\n\n        Clovers(clovers).setBlockMinted(_tokenId, block.number);\n        Clovers(clovers).setCloverMoves(_tokenId, moves);\n        Clovers(clovers).setKeep(_tokenId, _keep);\n\n        uint256 reward;\n        if (_symmetries > 0) {\n            Clovers(clovers).setSymmetries(_tokenId, _symmetries);\n            reward = calculateReward(_symmetries);\n            Clovers(clovers).setReward(_tokenId, reward);\n        }\n        uint256 price = basePrice.add(reward);\n        if (_keep && price > 0) {\n            // If the user decides to keep the Clover, they must\n            // pay for it in club tokens according to the reward price.\n            if (ClubToken(clubToken).balanceOf(msg.sender) < price) {\n                ClubTokenController(clubTokenController).buy.value(msg.value.sub(stakeAmount))(msg.sender);\n            }\n            require(ClubToken(clubToken).transferFrom(msg.sender, clovers, price));\n            // ClubToken(clubToken).burn(committer, price);\n        }\n        Clovers(clovers).mint(clovers, _tokenId);\n        emit cloverClaimed(moves, _tokenId, msg.sender, stakeAmount, reward, _symmetries, _keep);\n        return true;\n    }\n\n\n    // This is better than current commit hash because the commiter's address is part of the move sequence\n    // otherwise griefing could still take place....\n    // function generateCommit(bytes28[2] moves) public view returns(bytes32 commitHash) {\n    //     return sha256(moves, msg.sender);\n    // }\n\n    /**\n    * @dev Commit the hash of the moves needed to claim the Clover. A stake should be\n    * made for counterfactual verification.\n    * @param movesHash The hash of the moves that makes up the Clover reversi\n    * game.\n    * @return A boolean representing whether or not the commit was successful.\n    NOTE: Disabled for contract size, if front running becomes a problem it can be\n    implemented with an upgrade\n    */\n    /* function claimCloverCommit(bytes32 movesHash) public payable returns (bool) {\n        require(msg.value >= stakeAmount);\n        require(getCommit(movesHash) == 0);\n\n        setCommit(movesHash, msg.sender);\n        setStake(movesHash, stakeAmount);\n\n        clovers.transfer(stakeAmount);\n\n        emit cloverCommitted(movesHash, msg.sender);\n        return true;\n    }\n    /**\n    * @dev Reveal the solution to the previous commit to claim the Clover.\n    * @param moves The moves that make up the Clover reversi game.\n    * @param _tokenId The board that results from the moves.\n    * @param _symmetries symmetries saved as a uint256 value like 00010101 where bits represent symmetry types.\n    * @return A boolean representing whether or not the reveal and claim was successful.\n    NOTE: Disabled for contract size, if front running becomes a problem it can be implemented with an upgrade\n    */\n    /* function claimCloverReveal(bytes28[2] moves, uint256 _tokenId, uint256 _symmetries, bool _keep) public returns (bool) {\n        bytes32 movesHash = keccak256(moves);\n        address committer = getCommit(movesHash);\n\n        require(Clovers(clovers).getBlockMinted(_tokenId) == 0);\n\n        Clovers(clovers).setBlockMinted(_tokenId, block.number);\n        Clovers(clovers).setCloverMoves(_tokenId, moves);\n        Clovers(clovers).setKeep(_tokenId, _keep);\n        uint256 reward;\n        if (_symmetries > 0) {\n            Clovers(clovers).setSymmetries(_tokenId, _symmetries);\n            reward = calculateReward(_symmetries);\n            Clovers(clovers).setReward(_tokenId, reward);\n        }\n        if (_keep) {\n            ClubToken(clubToken).increaseApproval(address(this), basePrice.add(reward));\n        }\n        uint256 stake = getStake(movesHash);\n        emit cloverClaimed(moves, _tokenId, committer, stake, reward, _symmetries, _keep);\n        return true;\n    } */\n\n    /**\n    * @dev Retrieve the stake from a Clover claim after the stake period has ended, or with the authority of the oracle.\n    * @param _tokenId The board which holds the stake.\n    * @return A boolean representing whether or not the retrieval was successful.\n    */\n    function retrieveStake(uint256 _tokenId) public payable returns (bool) {\n        bytes28[2] memory moves = Clovers(clovers).getCloverMoves(_tokenId);\n        bytes32 movesHash = keccak256(moves);\n\n        require(!commits[movesHash].collected);\n        commits[movesHash].collected = true;\n\n        require(isVerified(_tokenId) || msg.sender == owner || msg.sender == oracle);\n\n        uint256 stake = getStake(movesHash);\n        addSymmetries(_tokenId);\n        address committer = getCommit(movesHash);\n        require(committer == msg.sender || msg.sender == owner || msg.sender == oracle);\n        uint256 reward = Clovers(clovers).getReward(_tokenId);\n        bool _keep = Clovers(clovers).getKeep(_tokenId);\n\n        if (_keep) {\n            // If the user decided to keep the Clover, they will\n            // receive the clover now that it has been verified\n            Clovers(clovers).transferFrom(clovers, committer, _tokenId);\n        } else {\n            // If the user decided not to keep the Clover, they will\n            // receive the reward price in club tokens, and the clover will\n            // go for sale by the contract.\n            ISimpleCloversMarket(simpleCloversMarket).sell(_tokenId, basePrice.add(reward.mul(priceMultiplier)));\n            if (reward > 0) {\n                require(ClubToken(clubToken).mint(committer, reward));\n            }\n        }\n        if (stake > 0) {\n            Clovers(clovers).moveEth(msg.sender, stake);\n        }\n        emit stakeRetrieved(_tokenId, msg.sender, stake);\n        return true;\n    }\n\n\n    /**\n    * @dev Convert a bytes16 board into a uint256.\n    * @param _board The board being converted.\n    * @return number the uint256 being converted.\n    */\n    function convertBytes16ToUint(bytes16 _board) public view returns(uint256 number) {\n        for(uint i=0;i<_board.length;i++){\n            number = number + uint(_board[i])*(2**(8*(_board.length-(i+1))));\n        }\n    }\n\n    /**\n    * @dev Challenge a staked Clover for being invalid.\n    * @param _tokenId The board being challenged.\n    * @return A boolean representing whether or not the challenge was successful.\n    */\n    function challengeClover(uint256 _tokenId) public returns (bool) {\n        bool valid = true;\n        bytes28[2] memory moves = Clovers(clovers).getCloverMoves(_tokenId);\n\n        if (msg.sender != owner && msg.sender != oracle) {\n            Reversi.Game memory game = Reversi.playGame(moves);\n            if(convertBytes16ToUint(game.board) != _tokenId) {\n                valid = false;\n            }\n            if(valid && isValidGame(game.error, game.complete)) {\n                uint256 _symmetries = Clovers(clovers).getSymmetries(_tokenId);\n                valid = (_symmetries >> 4 & 1) > 0 == game.RotSym ? valid : false;\n                valid = (_symmetries >> 3 & 1) > 0 == game.Y0Sym ? valid : false;\n                valid = (_symmetries >> 2 & 1) > 0 == game.X0Sym ? valid : false;\n                valid = (_symmetries >> 1 & 1) > 0 == game.XYSym ? valid : false;\n                valid = (_symmetries & 1) > 0 == game.XnYSym ? valid : false;\n            } else {\n                valid = false;\n            }\n            require(!valid);\n        }\n        bytes32 movesHash = keccak256(moves);\n        uint256 stake = getStake(movesHash);\n        if (!isVerified(_tokenId) && stake > 0) {\n            Clovers(clovers).moveEth(msg.sender, stake);\n        }\n        if (commits[movesHash].collected) {\n            removeSymmetries(_tokenId);\n        }\n\n        address committer = getCommit(movesHash);\n        emit cloverChallenged(moves, _tokenId, committer, msg.sender, stake);\n\n        Clovers(clovers).deleteClover(_tokenId);\n        deleteCommit(movesHash);\n        return true;\n    }\n\n\n    /**\n    * @dev Moves clovers without explicit allow permission for use by simpleCloversMarket\n    * in order to avoid double transaction (allow, transferFrom)\n    * @param _from The current owner of the Clover\n    * @param _to The future owner of the Clover\n    * @param _tokenId The Clover\n    */\n    function transferFrom(address _from, address _to, uint256 _tokenId) public {\n        require(msg.sender == simpleCloversMarket || msg.sender == curationMarket);\n        Clovers(clovers).transferFrom(_from, _to, _tokenId);\n    }\n\n    /**\n    * @dev Updates pause boolean.\n    * @param _paused The new puased boolean.\n    */\n    function updatePaused(bool _paused) public onlyOwner {\n        paused = _paused;\n    }\n\n    /**\n    * @dev Updates curationMarket Address.\n    * @param _curationMarket The new curationMarket Address.\n    */\n    function updateCurationMarket(address _curationMarket) public onlyOwner {\n        curationMarket = _curationMarket;\n    }\n    /**\n    * @dev Updates oracle Address.\n    * @param _oracle The new oracle Address.\n    */\n    function updateOracle(address _oracle) public onlyOwner {\n        oracle = _oracle;\n    }\n\n    /**\n    * @dev Updates simpleCloversMarket Address.\n    * @param _simpleCloversMarket The new simpleCloversMarket address.\n    */\n    function updateSimpleCloversMarket(address _simpleCloversMarket) public onlyOwner {\n        simpleCloversMarket = _simpleCloversMarket;\n    }\n\n    /**\n    * @dev Updates clubTokenController Address.\n    * @param _clubTokenController The new clubTokenController address.\n    */\n    function updateClubTokenController(address _clubTokenController) public onlyOwner {\n        clubTokenController = _clubTokenController;\n    }\n    /**\n    * @dev Updates the stake amount.\n    * @param _stakeAmount The new amount needed to stake.\n    */\n    function updateStakeAmount(uint256 _stakeAmount) public onlyOwner {\n        stakeAmount = _stakeAmount;\n    }\n    /**\n    * @dev Updates the stake period.\n    * @param _stakePeriod The uint256 value of time needed to stake before being verified.\n    */\n    function updateStakePeriod(uint256 _stakePeriod) public onlyOwner {\n        stakePeriod = _stakePeriod;\n    }\n    /**\n    * @dev Updates the pay multiplier, used to calculate token reward.\n    * @param _payMultiplier The uint256 value of pay multiplier.\n    */\n    function updatePayMultipier(uint256 _payMultiplier) public onlyOwner {\n        payMultiplier = _payMultiplier;\n    }\n    /**\n    * @dev Updates the price multiplier, used to calculate the clover price (multiplied by the original reward).\n    * @param _priceMultiplier The uint256 value of the price multiplier.\n    */\n    function updatePriceMultipier(uint256 _priceMultiplier) public onlyOwner {\n        priceMultiplier = _priceMultiplier;\n    }\n    /**\n    * @dev Updates the base price, used to calculate the clover cost.\n    * @param _basePrice The uint256 value of the base price.\n    */\n    function updateBasePrice(uint256 _basePrice) public onlyOwner {\n        basePrice = _basePrice;\n    }\n\n    /**\n    * @dev Sets the stake of a Clover based on the hash of the moves.\n    * @param movesHash The hash of the moves that make up the clover.\n    * @param stake A uint256 value of stake.\n    */\n    function setStake(bytes32 movesHash, uint256 stake) private {\n        commits[movesHash].stake = stake;\n    }\n\n    /**\n    * @dev Sets the address of the committer of a Clover based on the hash of the moves.\n    * @param movesHash The hash of the moves that make up the clover.\n    * @param committer The address of the committer.\n    */\n    function setCommit(bytes32 movesHash, address committer) private {\n        commits[movesHash].committer = committer;\n    }\n\n    function _setCommit(bytes32 movesHash, address committer) onlyOwner {\n        setCommit(movesHash, committer);\n    }\n    function deleteCommit(bytes32 movesHash) private {\n        delete(commits[movesHash]);\n    }\n\n    /**\n    * @dev Adds new tallys of the totals numbers of clover symmetries.\n    * @param _tokenId The token which needs to be examined.\n    */\n    function addSymmetries(uint256 _tokenId) private {\n        uint256 Symmetricals;\n        uint256 RotSym;\n        uint256 Y0Sym;\n        uint256 X0Sym;\n        uint256 XYSym;\n        uint256 XnYSym;\n        (Symmetricals,\n        RotSym,\n        Y0Sym,\n        X0Sym,\n        XYSym,\n        XnYSym) = Clovers(clovers).getAllSymmetries();\n        uint256 _symmetries = Clovers(clovers).getSymmetries(_tokenId);\n        Symmetricals = Symmetricals.add(_symmetries > 0 ? 1 : 0);\n        RotSym = RotSym.add(uint256(_symmetries >> 4 & 1));\n        Y0Sym = Y0Sym.add(uint256(_symmetries >> 3 & 1));\n        X0Sym = X0Sym.add(uint256(_symmetries >> 2 & 1));\n        XYSym = XYSym.add(uint256(_symmetries >> 1 & 1));\n        XnYSym = XnYSym.add(uint256(_symmetries & 1));\n        Clovers(clovers).setAllSymmetries(Symmetricals, RotSym, Y0Sym, X0Sym, XYSym, XnYSym);\n    }\n    /**\n    * @dev Remove false tallys of the totals numbers of clover symmetries.\n    * @param _tokenId The token which needs to be examined.\n    */\n    function removeSymmetries(uint256 _tokenId) private {\n        uint256 Symmetricals;\n        uint256 RotSym;\n        uint256 Y0Sym;\n        uint256 X0Sym;\n        uint256 XYSym;\n        uint256 XnYSym;\n        (Symmetricals,\n        RotSym,\n        Y0Sym,\n        X0Sym,\n        XYSym,\n        XnYSym) = Clovers(clovers).getAllSymmetries();\n        uint256 _symmetries = Clovers(clovers).getSymmetries(_tokenId);\n        Symmetricals = Symmetricals.sub(_symmetries > 0 ? 1 : 0);\n        RotSym = RotSym.sub(uint256(_symmetries >> 4 & 1));\n        Y0Sym = Y0Sym.sub(uint256(_symmetries >> 3 & 1));\n        X0Sym = X0Sym.sub(uint256(_symmetries >> 2 & 1));\n        XYSym = XYSym.sub(uint256(_symmetries >> 1 & 1));\n        XnYSym = XnYSym.sub(uint256(_symmetries & 1));\n        Clovers(clovers).setAllSymmetries(Symmetricals, RotSym, Y0Sym, X0Sym, XYSym, XnYSym);\n    }\n\n}\n",
  "sourcePath": "/home/billyrennekamp/GitHub.com/clovers-network/clovers-contracts/contracts/CloversController.sol",
  "compiler": {
    "name": "solc",
    "version": "0.4.24+commit.e67f0147.Emscripten.clang"
  },
  "schemaVersion": "2.0.1",
  "updatedAt": "2019-08-14T20:36:48.533Z"
}