{
  "contractName": "CloversController",
  "abi": [
    {
      "constant": true,
      "inputs": [],
      "name": "clovers",
      "outputs": [
        {
          "name": "",
          "type": "address"
        }
      ],
      "payable": false,
      "stateMutability": "view",
      "type": "function"
    },
    {
      "constant": false,
      "inputs": [
        {
          "name": "token",
          "type": "address"
        }
      ],
      "name": "reclaimToken",
      "outputs": [],
      "payable": false,
      "stateMutability": "nonpayable",
      "type": "function"
    },
    {
      "constant": true,
      "inputs": [],
      "name": "payMultiplier",
      "outputs": [
        {
          "name": "",
          "type": "uint256"
        }
      ],
      "payable": false,
      "stateMutability": "view",
      "type": "function"
    },
    {
      "constant": true,
      "inputs": [
        {
          "name": "",
          "type": "bytes32"
        }
      ],
      "name": "commits",
      "outputs": [
        {
          "name": "",
          "type": "address"
        }
      ],
      "payable": false,
      "stateMutability": "view",
      "type": "function"
    },
    {
      "constant": true,
      "inputs": [],
      "name": "stakeAmount",
      "outputs": [
        {
          "name": "",
          "type": "uint256"
        }
      ],
      "payable": false,
      "stateMutability": "view",
      "type": "function"
    },
    {
      "constant": false,
      "inputs": [],
      "name": "renounceOwnership",
      "outputs": [],
      "payable": false,
      "stateMutability": "nonpayable",
      "type": "function"
    },
    {
      "constant": true,
      "inputs": [],
      "name": "oracle",
      "outputs": [
        {
          "name": "",
          "type": "address"
        }
      ],
      "payable": false,
      "stateMutability": "view",
      "type": "function"
    },
    {
      "constant": true,
      "inputs": [],
      "name": "owner",
      "outputs": [
        {
          "name": "",
          "type": "address"
        }
      ],
      "payable": false,
      "stateMutability": "view",
      "type": "function"
    },
    {
      "constant": true,
      "inputs": [
        {
          "name": "",
          "type": "bytes32"
        }
      ],
      "name": "stakes",
      "outputs": [
        {
          "name": "",
          "type": "uint256"
        }
      ],
      "payable": false,
      "stateMutability": "view",
      "type": "function"
    },
    {
      "constant": false,
      "inputs": [],
      "name": "reclaimEther",
      "outputs": [],
      "payable": false,
      "stateMutability": "nonpayable",
      "type": "function"
    },
    {
      "constant": true,
      "inputs": [],
      "name": "clubTokenController",
      "outputs": [
        {
          "name": "",
          "type": "address"
        }
      ],
      "payable": false,
      "stateMutability": "view",
      "type": "function"
    },
    {
      "constant": false,
      "inputs": [
        {
          "name": "from_",
          "type": "address"
        },
        {
          "name": "value_",
          "type": "uint256"
        },
        {
          "name": "data_",
          "type": "bytes"
        }
      ],
      "name": "tokenFallback",
      "outputs": [],
      "payable": false,
      "stateMutability": "nonpayable",
      "type": "function"
    },
    {
      "constant": true,
      "inputs": [],
      "name": "stakePeriod",
      "outputs": [
        {
          "name": "",
          "type": "uint256"
        }
      ],
      "payable": false,
      "stateMutability": "view",
      "type": "function"
    },
    {
      "constant": true,
      "inputs": [],
      "name": "basePrice",
      "outputs": [
        {
          "name": "",
          "type": "uint256"
        }
      ],
      "payable": false,
      "stateMutability": "view",
      "type": "function"
    },
    {
      "constant": true,
      "inputs": [],
      "name": "priceMultiplier",
      "outputs": [
        {
          "name": "",
          "type": "uint256"
        }
      ],
      "payable": false,
      "stateMutability": "view",
      "type": "function"
    },
    {
      "constant": true,
      "inputs": [],
      "name": "clubToken",
      "outputs": [
        {
          "name": "",
          "type": "address"
        }
      ],
      "payable": false,
      "stateMutability": "view",
      "type": "function"
    },
    {
      "constant": false,
      "inputs": [
        {
          "name": "_newOwner",
          "type": "address"
        }
      ],
      "name": "transferOwnership",
      "outputs": [],
      "payable": false,
      "stateMutability": "nonpayable",
      "type": "function"
    },
    {
      "inputs": [
        {
          "name": "_clovers",
          "type": "address"
        },
        {
          "name": "_clubToken",
          "type": "address"
        },
        {
          "name": "_clubTokenController",
          "type": "address"
        }
      ],
      "payable": false,
      "stateMutability": "nonpayable",
      "type": "constructor"
    },
    {
      "payable": false,
      "stateMutability": "nonpayable",
      "type": "fallback"
    },
    {
      "anonymous": false,
      "inputs": [
        {
          "indexed": false,
          "name": "movesHash",
          "type": "bytes32"
        },
        {
          "indexed": false,
          "name": "owner",
          "type": "address"
        }
      ],
      "name": "cloverCommitted",
      "type": "event"
    },
    {
      "anonymous": false,
      "inputs": [
        {
          "indexed": false,
          "name": "moves",
          "type": "bytes28[2]"
        },
        {
          "indexed": false,
          "name": "tokenId",
          "type": "uint256"
        },
        {
          "indexed": false,
          "name": "owner",
          "type": "address"
        },
        {
          "indexed": false,
          "name": "stake",
          "type": "uint256"
        },
        {
          "indexed": false,
          "name": "reward",
          "type": "uint256"
        },
        {
          "indexed": false,
          "name": "symmetries",
          "type": "uint256"
        },
        {
          "indexed": false,
          "name": "keep",
          "type": "bool"
        }
      ],
      "name": "cloverClaimed",
      "type": "event"
    },
    {
      "anonymous": false,
      "inputs": [
        {
          "indexed": false,
          "name": "tokenId",
          "type": "uint256"
        },
        {
          "indexed": false,
          "name": "owner",
          "type": "address"
        },
        {
          "indexed": false,
          "name": "stake",
          "type": "uint256"
        }
      ],
      "name": "stakeRetrieved",
      "type": "event"
    },
    {
      "anonymous": false,
      "inputs": [
        {
          "indexed": false,
          "name": "moves",
          "type": "bytes28[2]"
        },
        {
          "indexed": false,
          "name": "tokenId",
          "type": "uint256"
        },
        {
          "indexed": false,
          "name": "owner",
          "type": "address"
        },
        {
          "indexed": false,
          "name": "challenger",
          "type": "address"
        },
        {
          "indexed": false,
          "name": "stake",
          "type": "uint256"
        }
      ],
      "name": "cloverChallenged",
      "type": "event"
    },
    {
      "anonymous": false,
      "inputs": [
        {
          "indexed": true,
          "name": "previousOwner",
          "type": "address"
        }
      ],
      "name": "OwnershipRenounced",
      "type": "event"
    },
    {
      "anonymous": false,
      "inputs": [
        {
          "indexed": true,
          "name": "previousOwner",
          "type": "address"
        },
        {
          "indexed": true,
          "name": "newOwner",
          "type": "address"
        }
      ],
      "name": "OwnershipTransferred",
      "type": "event"
    },
    {
      "constant": true,
      "inputs": [
        {
          "name": "movesHash",
          "type": "bytes32"
        }
      ],
      "name": "getStake",
      "outputs": [
        {
          "name": "",
          "type": "uint256"
        }
      ],
      "payable": false,
      "stateMutability": "view",
      "type": "function"
    },
    {
      "constant": true,
      "inputs": [
        {
          "name": "movesHash",
          "type": "bytes32"
        }
      ],
      "name": "getCommit",
      "outputs": [
        {
          "name": "",
          "type": "address"
        }
      ],
      "payable": false,
      "stateMutability": "view",
      "type": "function"
    },
    {
      "constant": true,
      "inputs": [
        {
          "name": "_tokenId",
          "type": "uint256"
        }
      ],
      "name": "getMovesHash",
      "outputs": [
        {
          "name": "",
          "type": "bytes32"
        }
      ],
      "payable": false,
      "stateMutability": "view",
      "type": "function"
    },
    {
      "constant": true,
      "inputs": [
        {
          "name": "moves",
          "type": "bytes28[2]"
        }
      ],
      "name": "isValid",
      "outputs": [
        {
          "name": "",
          "type": "bool"
        }
      ],
      "payable": false,
      "stateMutability": "view",
      "type": "function"
    },
    {
      "constant": true,
      "inputs": [
        {
          "components": [
            {
              "name": "error",
              "type": "bool"
            },
            {
              "name": "complete",
              "type": "bool"
            },
            {
              "name": "symmetrical",
              "type": "bool"
            },
            {
              "name": "RotSym",
              "type": "bool"
            },
            {
              "name": "Y0Sym",
              "type": "bool"
            },
            {
              "name": "X0Sym",
              "type": "bool"
            },
            {
              "name": "XYSym",
              "type": "bool"
            },
            {
              "name": "XnYSym",
              "type": "bool"
            },
            {
              "name": "board",
              "type": "bytes16"
            },
            {
              "name": "first32Moves",
              "type": "bytes28"
            },
            {
              "name": "lastMoves",
              "type": "bytes28"
            },
            {
              "name": "currentPlayer",
              "type": "uint8"
            },
            {
              "name": "moveKey",
              "type": "uint8"
            },
            {
              "name": "blackScore",
              "type": "uint8"
            },
            {
              "name": "whiteScore",
              "type": "uint8"
            }
          ],
          "name": "game",
          "type": "tuple"
        }
      ],
      "name": "isValidGame",
      "outputs": [
        {
          "name": "",
          "type": "bool"
        }
      ],
      "payable": false,
      "stateMutability": "pure",
      "type": "function"
    },
    {
      "constant": true,
      "inputs": [
        {
          "name": "_tokenId",
          "type": "uint256"
        }
      ],
      "name": "isVerified",
      "outputs": [
        {
          "name": "",
          "type": "bool"
        }
      ],
      "payable": false,
      "stateMutability": "view",
      "type": "function"
    },
    {
      "constant": true,
      "inputs": [
        {
          "name": "_symmetries",
          "type": "uint256"
        }
      ],
      "name": "calculateReward",
      "outputs": [
        {
          "name": "",
          "type": "uint256"
        }
      ],
      "payable": false,
      "stateMutability": "view",
      "type": "function"
    },
    {
      "constant": false,
      "inputs": [
        {
          "name": "moves",
          "type": "bytes28[2]"
        },
        {
          "name": "_tokenId",
          "type": "uint256"
        },
        {
          "name": "_symmetries",
          "type": "uint256"
        },
        {
          "name": "_keep",
          "type": "bool"
        }
      ],
      "name": "claimClover",
      "outputs": [
        {
          "name": "",
          "type": "bool"
        }
      ],
      "payable": true,
      "stateMutability": "payable",
      "type": "function"
    },
    {
      "constant": false,
      "inputs": [
        {
          "name": "_tokenId",
          "type": "uint256"
        }
      ],
      "name": "retrieveStake",
      "outputs": [
        {
          "name": "",
          "type": "bool"
        }
      ],
      "payable": true,
      "stateMutability": "payable",
      "type": "function"
    },
    {
      "constant": false,
      "inputs": [
        {
          "name": "_tokenId",
          "type": "uint256"
        }
      ],
      "name": "buyCloverFromContract",
      "outputs": [
        {
          "name": "",
          "type": "bool"
        }
      ],
      "payable": true,
      "stateMutability": "payable",
      "type": "function"
    },
    {
      "constant": true,
      "inputs": [
        {
          "name": "moves",
          "type": "bytes28[2]"
        }
      ],
      "name": "v",
      "outputs": [
        {
          "name": "",
          "type": "bool"
        }
      ],
      "payable": false,
      "stateMutability": "view",
      "type": "function"
    },
    {
      "constant": true,
      "inputs": [
        {
          "name": "moves",
          "type": "bytes28[2]"
        }
      ],
      "name": "getBoard",
      "outputs": [
        {
          "name": "",
          "type": "bytes16"
        }
      ],
      "payable": false,
      "stateMutability": "view",
      "type": "function"
    },
    {
      "constant": true,
      "inputs": [
        {
          "name": "board",
          "type": "bytes16"
        }
      ],
      "name": "convertBytes16ToUint",
      "outputs": [
        {
          "name": "number",
          "type": "uint256"
        }
      ],
      "payable": false,
      "stateMutability": "view",
      "type": "function"
    },
    {
      "constant": true,
      "inputs": [
        {
          "name": "moves",
          "type": "bytes28[2]"
        }
      ],
      "name": "doItAll",
      "outputs": [
        {
          "name": "",
          "type": "uint256"
        }
      ],
      "payable": false,
      "stateMutability": "view",
      "type": "function"
    },
    {
      "constant": true,
      "inputs": [
        {
          "name": "moves",
          "type": "bytes28[2]"
        },
        {
          "name": "tokenId",
          "type": "uint256"
        }
      ],
      "name": "compareItAll",
      "outputs": [
        {
          "name": "",
          "type": "bool"
        }
      ],
      "payable": false,
      "stateMutability": "view",
      "type": "function"
    },
    {
      "constant": false,
      "inputs": [
        {
          "name": "_tokenId",
          "type": "uint256"
        }
      ],
      "name": "challengeClover",
      "outputs": [
        {
          "name": "",
          "type": "bool"
        }
      ],
      "payable": false,
      "stateMutability": "nonpayable",
      "type": "function"
    },
    {
      "constant": false,
      "inputs": [
        {
          "name": "_oracle",
          "type": "address"
        }
      ],
      "name": "updateOracle",
      "outputs": [],
      "payable": false,
      "stateMutability": "nonpayable",
      "type": "function"
    },
    {
      "constant": false,
      "inputs": [
        {
          "name": "_clubTokenController",
          "type": "address"
        }
      ],
      "name": "updateClubTokenController",
      "outputs": [],
      "payable": false,
      "stateMutability": "nonpayable",
      "type": "function"
    },
    {
      "constant": false,
      "inputs": [
        {
          "name": "_stakeAmount",
          "type": "uint256"
        }
      ],
      "name": "updateStakeAmount",
      "outputs": [],
      "payable": false,
      "stateMutability": "nonpayable",
      "type": "function"
    },
    {
      "constant": false,
      "inputs": [
        {
          "name": "_stakePeriod",
          "type": "uint256"
        }
      ],
      "name": "updateStakePeriod",
      "outputs": [],
      "payable": false,
      "stateMutability": "nonpayable",
      "type": "function"
    },
    {
      "constant": false,
      "inputs": [
        {
          "name": "_payMultiplier",
          "type": "uint256"
        }
      ],
      "name": "updatePayMultipier",
      "outputs": [],
      "payable": false,
      "stateMutability": "nonpayable",
      "type": "function"
    },
    {
      "constant": false,
      "inputs": [
        {
          "name": "_priceMultiplier",
          "type": "uint256"
        }
      ],
      "name": "updatePriceMultipier",
      "outputs": [],
      "payable": false,
      "stateMutability": "nonpayable",
      "type": "function"
    },
    {
      "constant": false,
      "inputs": [
        {
          "name": "_basePrice",
          "type": "uint256"
        }
      ],
      "name": "updateBasePrice",
      "outputs": [],
      "payable": false,
      "stateMutability": "nonpayable",
      "type": "function"
    }
  ],
  "bytecode": "0x60806040523480156200001157600080fd5b5060405160608062006256833981018060405262000033919081019062000165565b336000806101000a81548173ffffffffffffffffffffffffffffffffffffffff021916908373ffffffffffffffffffffffffffffffffffffffff1602179055506000341415156200008357600080fd5b82600260006101000a81548173ffffffffffffffffffffffffffffffffffffffff021916908373ffffffffffffffffffffffffffffffffffffffff16021790555081600360006101000a81548173ffffffffffffffffffffffffffffffffffffffff021916908373ffffffffffffffffffffffffffffffffffffffff16021790555080600460006101000a81548173ffffffffffffffffffffffffffffffffffffffff021916908373ffffffffffffffffffffffffffffffffffffffff160217905550505050620001db565b60006200015d8251620001bb565b905092915050565b6000806000606084860312156200017b57600080fd5b60006200018b868287016200014f565b93505060206200019e868287016200014f565b9250506040620001b1868287016200014f565b9150509250925092565b600073ffffffffffffffffffffffffffffffffffffffff82169050919050565b61606b80620001eb6000396000f3006080604052600436106101ee576000357c0100000000000000000000000000000000000000000000000000000000900463ffffffff1680630d576bfa146101fd57806317ffc320146102285780631cb44dfc14610251578063271eff941461027a57806337b6d96b146102b75780633afcba96146102f457806343be08801461031f578063478857811461034f578063492d934d1461038c57806350ee1705146103bc5780635759f3f7146103f957806360c7dc4714610422578063715018a61461044d57806379db27f6146104645780637b7db9fa146104a15780637dc0d1d0146104de578063811ba5ee146105095780638784ea96146105465780638a05aafa146105835780638da5cb5b146105ac5780638fee6407146105d75780639564e180146106145780639f727c271461063d578063a4a83ca614610654578063a7e901b014610691578063a89b55da146106ba578063c0ee0b8a146106e5578063c1699a991461070e578063c1fe551a14610739578063c7876ea414610769578063c90054ee14610794578063d09687f7146107bd578063d2d7231f146107fa578063d50cb88b14610837578063d6371c7d14610862578063d76bbd521461089f578063e765c122146108ca578063f2fde38b14610907578063f8a68a5614610930578063fd5baa881461096d575b3480156101fa57600080fd5b50005b34801561020957600080fd5b50610212610996565b60405161021f9190615b5e565b60405180910390f35b34801561023457600080fd5b5061024f600480360361024a919081019061597c565b6109bc565b005b34801561025d57600080fd5b506102786004803603610273919081019061577b565b610b12565b005b34801561028657600080fd5b506102a1600480360361029c9190810190615810565b610bb1565b6040516102ae9190615c9c565b60405180910390f35b3480156102c357600080fd5b506102de60048036036102d991908101906159cf565b610bd7565b6040516102eb9190615c9c565b60405180910390f35b34801561030057600080fd5b50610309610d94565b6040516103169190615d31565b60405180910390f35b6103396004803603610334919081019061589e565b610d9a565b6040516103469190615c9c565b60405180910390f35b34801561035b57600080fd5b5061037660048036036103719190810190615953565b6117a5565b6040516103839190615b5e565b60405180910390f35b6103a660048036036103a191908101906159cf565b6117d8565b6040516103b39190615c9c565b60405180910390f35b3480156103c857600080fd5b506103e360048036036103de9190810190615810565b611bfd565b6040516103f09190615d31565b60405180910390f35b34801561040557600080fd5b50610420600480360361041b91908101906159cf565b611c17565b005b34801561042e57600080fd5b50610437611c7c565b6040516104449190615d31565b60405180910390f35b34801561045957600080fd5b50610462611c82565b005b34801561047057600080fd5b5061048b60048036036104869190810190615810565b611d84565b6040516104989190615cb7565b60405180910390f35b3480156104ad57600080fd5b506104c860048036036104c391908101906159cf565b611da7565b6040516104d59190615c9c565b60405180910390f35b3480156104ea57600080fd5b506104f3612365565b6040516105009190615b5e565b60405180910390f35b34801561051557600080fd5b50610530600480360361052b9190810190615862565b61238b565b60405161053d9190615c9c565b60405180910390f35b34801561055257600080fd5b5061056d60048036036105689190810190615953565b6123a0565b60405161057a9190615b5e565b60405180910390f35b34801561058f57600080fd5b506105aa60048036036105a591908101906159cf565b6123e5565b005b3480156105b857600080fd5b506105c161244a565b6040516105ce9190615b5e565b60405180910390f35b3480156105e357600080fd5b506105fe60048036036105f99190810190615953565b61246f565b60405161060b9190615d31565b60405180910390f35b34801561062057600080fd5b5061063b6004803603610636919081019061577b565b612487565b005b34801561064957600080fd5b50610652612526565b005b34801561066057600080fd5b5061067b6004803603610676919081019061592a565b612602565b6040516106889190615d31565b60405180910390f35b34801561069d57600080fd5b506106b860048036036106b391908101906159cf565b612692565b005b3480156106c657600080fd5b506106cf6126f7565b6040516106dc9190615b5e565b60405180910390f35b3480156106f157600080fd5b5061070c600480360361070791908101906157a4565b61271d565b005b34801561071a57600080fd5b50610723612722565b6040516107309190615d31565b60405180910390f35b610753600480360361074e91908101906159cf565b612728565b6040516107609190615c9c565b60405180910390f35b34801561077557600080fd5b5061077e613006565b60405161078b9190615d31565b60405180910390f35b3480156107a057600080fd5b506107bb60048036036107b691908101906159cf565b61300c565b005b3480156107c957600080fd5b506107e460048036036107df91908101906159cf565b613071565b6040516107f19190615cd2565b60405180910390f35b34801561080657600080fd5b50610821600480360361081c91908101906159cf565b61317f565b60405161082e9190615d31565b60405180910390f35b34801561084357600080fd5b5061084c613415565b6040516108599190615d31565b60405180910390f35b34801561086e57600080fd5b5061088960048036036108849190810190615810565b61341b565b6040516108969190615c9c565b60405180910390f35b3480156108ab57600080fd5b506108b4613441565b6040516108c19190615b5e565b60405180910390f35b3480156108d657600080fd5b506108f160048036036108ec9190810190615953565b613467565b6040516108fe9190615d31565b60405180910390f35b34801561091357600080fd5b5061092e6004803603610929919081019061577b565b61348c565b005b34801561093c57600080fd5b50610957600480360361095291908101906159a5565b6134f3565b6040516109649190615c9c565b60405180910390f35b34801561097957600080fd5b50610994600480360361098f91908101906159cf565b613526565b005b600260009054906101000a900473ffffffffffffffffffffffffffffffffffffffff1681565b60008060009054906101000a900473ffffffffffffffffffffffffffffffffffffffff1673ffffffffffffffffffffffffffffffffffffffff163373ffffffffffffffffffffffffffffffffffffffff16141515610a1957600080fd5b8173ffffffffffffffffffffffffffffffffffffffff166370a08231306040518263ffffffff167c0100000000000000000000000000000000000000000000000000000000028152600401610a6e9190615d16565b602060405180830381600087803b158015610a8857600080fd5b505af1158015610a9c573d6000803e3d6000fd5b505050506040513d601f19601f82011682018060405250610ac091908101906159f8565b9050610b0e6000809054906101000a900473ffffffffffffffffffffffffffffffffffffffff16828473ffffffffffffffffffffffffffffffffffffffff1661358b9092919063ffffffff16565b5050565b6000809054906101000a900473ffffffffffffffffffffffffffffffffffffffff1673ffffffffffffffffffffffffffffffffffffffff163373ffffffffffffffffffffffffffffffffffffffff16141515610b6d57600080fd5b80600160006101000a81548173ffffffffffffffffffffffffffffffffffffffff021916908373ffffffffffffffffffffffffffffffffffffffff16021790555050565b6000610bbb61524b565b610bc483613644565b9050610bcf816134f3565b915050919050565b600080600260009054906101000a900473ffffffffffffffffffffffffffffffffffffffff1673ffffffffffffffffffffffffffffffffffffffff166303a53d6b846040518263ffffffff167c0100000000000000000000000000000000000000000000000000000000028152600401610c519190615d31565b602060405180830381600087803b158015610c6b57600080fd5b505af1158015610c7f573d6000803e3d6000fd5b505050506040513d601f19601f82011682018060405250610ca391908101906159f8565b90506000811415610cb75760009150610d8e565b6000809054906101000a900473ffffffffffffffffffffffffffffffffffffffff1673ffffffffffffffffffffffffffffffffffffffff163373ffffffffffffffffffffffffffffffffffffffff161415610d155760019150610d8e565b600160009054906101000a900473ffffffffffffffffffffffffffffffffffffffff1673ffffffffffffffffffffffffffffffffffffffff163373ffffffffffffffffffffffffffffffffffffffff161415610d745760019150610d8e565b600954610d8a824361398890919063ffffffff16565b1191505b50919050565b60075481565b6000806000866040518082600260200280838360005b83811015610dcb578082015181840152602081019050610db0565b50505050905001915050604051809103902091506008543410151515610df057600080fd5b6000610dfb836123a0565b73ffffffffffffffffffffffffffffffffffffffff16141515610e1d57600080fd5b610e2782336139a1565b610e33826008546139ff565b600260009054906101000a900473ffffffffffffffffffffffffffffffffffffffff1673ffffffffffffffffffffffffffffffffffffffff166108fc6008549081150290604051600060405180830381858888f19350505050158015610e9d573d6000803e3d6000fd5b507f4c0f83654ac2972673e4d81058f833de298389df1dce04cc2db9f231b907d5ff8233604051610ecf929190615ced565b60405180910390a1600260009054906101000a900473ffffffffffffffffffffffffffffffffffffffff1673ffffffffffffffffffffffffffffffffffffffff16634f558e79876040518263ffffffff167c0100000000000000000000000000000000000000000000000000000000028152600401610f4e9190615d31565b602060405180830381600087803b158015610f6857600080fd5b505af1158015610f7c573d6000803e3d6000fd5b505050506040513d601f19601f82011682018060405250610fa09190810190615901565b151515610fac57600080fd5b6000600260009054906101000a900473ffffffffffffffffffffffffffffffffffffffff1673ffffffffffffffffffffffffffffffffffffffff166303a53d6b886040518263ffffffff167c01000000000000000000000000000000000000000000000000000000000281526004016110259190615d31565b602060405180830381600087803b15801561103f57600080fd5b505af1158015611053573d6000803e3d6000fd5b505050506040513d601f19601f8201168201806040525061107791908101906159f8565b14151561108357600080fd5b600260009054906101000a900473ffffffffffffffffffffffffffffffffffffffff1673ffffffffffffffffffffffffffffffffffffffff1663e3100d1e87436040518363ffffffff167c01000000000000000000000000000000000000000000000000000000000281526004016110fc929190615dd5565b600060405180830381600087803b15801561111657600080fd5b505af115801561112a573d6000803e3d6000fd5b50505050600260009054906101000a900473ffffffffffffffffffffffffffffffffffffffff1673ffffffffffffffffffffffffffffffffffffffff16630b62839587896040518363ffffffff167c01000000000000000000000000000000000000000000000000000000000281526004016111a7929190615d83565b600060405180830381600087803b1580156111c157600080fd5b505af11580156111d5573d6000803e3d6000fd5b50505050600260009054906101000a900473ffffffffffffffffffffffffffffffffffffffff1673ffffffffffffffffffffffffffffffffffffffff166376e4a87f87866040518363ffffffff167c0100000000000000000000000000000000000000000000000000000000028152600401611252929190615dac565b600060405180830381600087803b15801561126c57600080fd5b505af1158015611280573d6000803e3d6000fd5b5050505060008511156113ef57600260009054906101000a900473ffffffffffffffffffffffffffffffffffffffff1673ffffffffffffffffffffffffffffffffffffffff1663dc3f775887876040518363ffffffff167c0100000000000000000000000000000000000000000000000000000000028152600401611306929190615dd5565b600060405180830381600087803b15801561132057600080fd5b505af1158015611334573d6000803e3d6000fd5b505050506113418561317f565b9050600260009054906101000a900473ffffffffffffffffffffffffffffffffffffffff1673ffffffffffffffffffffffffffffffffffffffff1663a47bd49687836040518363ffffffff167c01000000000000000000000000000000000000000000000000000000000281526004016113bc929190615dd5565b600060405180830381600087803b1580156113d657600080fd5b505af11580156113ea573d6000803e3d6000fd5b505050505b83156116855761140a81600554613a2390919063ffffffff16565b600360009054906101000a900473ffffffffffffffffffffffffffffffffffffffff1673ffffffffffffffffffffffffffffffffffffffff166370a08231336040518263ffffffff167c01000000000000000000000000000000000000000000000000000000000281526004016114819190615b5e565b602060405180830381600087803b15801561149b57600080fd5b505af11580156114af573d6000803e3d6000fd5b505050506040513d601f19601f820116820180604052506114d391908101906159f8565b10156115a457600460009054906101000a900473ffffffffffffffffffffffffffffffffffffffff1673ffffffffffffffffffffffffffffffffffffffff1663f088d547336040518263ffffffff167c01000000000000000000000000000000000000000000000000000000000281526004016115509190615b5e565b602060405180830381600087803b15801561156a57600080fd5b505af115801561157e573d6000803e3d6000fd5b505050506040513d601f19601f820116820180604052506115a29190810190615901565b505b600360009054906101000a900473ffffffffffffffffffffffffffffffffffffffff1673ffffffffffffffffffffffffffffffffffffffff1663d73dd623306115f884600554613a2390919063ffffffff16565b6040518363ffffffff167c0100000000000000000000000000000000000000000000000000000000028152600401611631929190615bb0565b602060405180830381600087803b15801561164b57600080fd5b505af115801561165f573d6000803e3d6000fd5b505050506040513d601f19601f820116820180604052506116839190810190615901565b505b600260009054906101000a900473ffffffffffffffffffffffffffffffffffffffff1673ffffffffffffffffffffffffffffffffffffffff166340c10f19600260009054906101000a900473ffffffffffffffffffffffffffffffffffffffff16886040518363ffffffff167c0100000000000000000000000000000000000000000000000000000000028152600401611720929190615bb0565b600060405180830381600087803b15801561173a57600080fd5b505af115801561174e573d6000803e3d6000fd5b505050507f1c3b3e1e72950ae52150ec48810521d17cea4b30c2a59c807d1ba2f8dff57e65878733600854858a8a60405161178f9796959493929190615c2c565b60405180910390a1600192505050949350505050565b600a6020528060005260406000206000915054906101000a900473ffffffffffffffffffffffffffffffffffffffff1681565b6000806000600260009054906101000a900473ffffffffffffffffffffffffffffffffffffffff1673ffffffffffffffffffffffffffffffffffffffff16631c4b774b856040518263ffffffff167c01000000000000000000000000000000000000000000000000000000000281526004016118549190615d31565b602060405180830381600087803b15801561186e57600080fd5b505af1158015611882573d6000803e3d6000fd5b505050506040513d601f19601f820116820180604052506118a691908101906159f8565b91506118d16118c060065484613a3f90919063ffffffff16565b600554613a2390919063ffffffff16565b905080600360009054906101000a900473ffffffffffffffffffffffffffffffffffffffff1673ffffffffffffffffffffffffffffffffffffffff166370a08231336040518263ffffffff167c010000000000000000000000000000000000000000000000000000000002815260040161194b9190615b5e565b602060405180830381600087803b15801561196557600080fd5b505af1158015611979573d6000803e3d6000fd5b505050506040513d601f19601f8201168201806040525061199d91908101906159f8565b1015611a6e57600460009054906101000a900473ffffffffffffffffffffffffffffffffffffffff1673ffffffffffffffffffffffffffffffffffffffff1663f088d547336040518263ffffffff167c0100000000000000000000000000000000000000000000000000000000028152600401611a1a9190615b5e565b602060405180830381600087803b158015611a3457600080fd5b505af1158015611a48573d6000803e3d6000fd5b505050506040513d601f19601f82011682018060405250611a6c9190810190615901565b505b6000811115611b2357600360009054906101000a900473ffffffffffffffffffffffffffffffffffffffff1673ffffffffffffffffffffffffffffffffffffffff16639dc29fac33836040518363ffffffff167c0100000000000000000000000000000000000000000000000000000000028152600401611af0929190615bb0565b600060405180830381600087803b158015611b0a57600080fd5b505af1158015611b1e573d6000803e3d6000fd5b505050505b600260009054906101000a900473ffffffffffffffffffffffffffffffffffffffff1673ffffffffffffffffffffffffffffffffffffffff166323b872dd600260009054906101000a900473ffffffffffffffffffffffffffffffffffffffff1633876040518463ffffffff167c0100000000000000000000000000000000000000000000000000000000028152600401611bc093929190615b79565b600060405180830381600087803b158015611bda57600080fd5b505af1158015611bee573d6000803e3d6000fd5b50505050600192505050919050565b6000611c10611c0b83611d84565b612602565b9050919050565b6000809054906101000a900473ffffffffffffffffffffffffffffffffffffffff1673ffffffffffffffffffffffffffffffffffffffff163373ffffffffffffffffffffffffffffffffffffffff16141515611c7257600080fd5b8060098190555050565b60085481565b6000809054906101000a900473ffffffffffffffffffffffffffffffffffffffff1673ffffffffffffffffffffffffffffffffffffffff163373ffffffffffffffffffffffffffffffffffffffff16141515611cdd57600080fd5b6000809054906101000a900473ffffffffffffffffffffffffffffffffffffffff1673ffffffffffffffffffffffffffffffffffffffff167ff8df31144d9c2f0f6b59d69b8b98abd5459d07f2742c4df920b25aae33c6482060405160405180910390a260008060006101000a81548173ffffffffffffffffffffffffffffffffffffffff021916908373ffffffffffffffffffffffffffffffffffffffff160217905550565b6000611d8e61524b565b611d9783613644565b9050806101000151915050919050565b600080611db26152ff565b611dba61524b565b60008060008060019650600260009054906101000a900473ffffffffffffffffffffffffffffffffffffffff1673ffffffffffffffffffffffffffffffffffffffff166362f9acf98a6040518263ffffffff167c0100000000000000000000000000000000000000000000000000000000028152600401611e3b9190615d31565b6040805180830381600087803b158015611e5457600080fd5b505af1158015611e68573d6000803e3d6000fd5b505050506040513d601f19601f82011682018060405250611e8c9190810190615839565b9550600064010000000002866000600281101515611ea657fe5b602002015163ffffffff191614151515611ebf57600080fd5b611ec886613644565b945088611ed9866101000151612602565b141515611ee557600096505b611eee856134f3565b1561208257600260009054906101000a900473ffffffffffffffffffffffffffffffffffffffff1673ffffffffffffffffffffffffffffffffffffffff1663c53b4bf98a6040518263ffffffff167c0100000000000000000000000000000000000000000000000000000000028152600401611f6a9190615d31565b602060405180830381600087803b158015611f8457600080fd5b505af1158015611f98573d6000803e3d6000fd5b505050506040513d601f19601f82011682018060405250611fbc91908101906159f8565b935084606001511515600060016004879060020a90041611151514611fe2576000611fe4565b865b965084608001511515600060016003879060020a9004161115151461200a57600061200c565b865b96508460a001511515600060016002879060020a90041611151514612032576000612034565b865b96508460c0015115156000600180879060020a9004161115151461205957600061205b565b865b96508460e0015115156000600186161115151461207957600061207b565b865b9650612087565b600096505b8615151561209457600080fd5b856040518082600260200280838360005b838110156120c05780820151818401526020810190506120a5565b50505050905001915050604051809103902092506120dd89610bd7565b151561219a576120ec83613467565b9150600260009054906101000a900473ffffffffffffffffffffffffffffffffffffffff1673ffffffffffffffffffffffffffffffffffffffff16631cc1472d33846040518363ffffffff167c0100000000000000000000000000000000000000000000000000000000028152600401612167929190615bb0565b600060405180830381600087803b15801561218157600080fd5b505af1158015612195573d6000803e3d6000fd5b505050505b600260009054906101000a900473ffffffffffffffffffffffffffffffffffffffff1673ffffffffffffffffffffffffffffffffffffffff16630e8310d68a6040518263ffffffff167c01000000000000000000000000000000000000000000000000000000000281526004016122119190615d31565b600060405180830381600087803b15801561222b57600080fd5b505af115801561223f573d6000803e3d6000fd5b50505050600260009054906101000a900473ffffffffffffffffffffffffffffffffffffffff1673ffffffffffffffffffffffffffffffffffffffff166364e779b18a6040518263ffffffff167c01000000000000000000000000000000000000000000000000000000000281526004016122ba9190615d31565b600060405180830381600087803b1580156122d457600080fd5b505af11580156122e8573d6000803e3d6000fd5b505050506122f78360006139a1565b6123028360006139ff565b61230b89613a77565b612314836123a0565b90507f23e709ab80a4bee9454ba0d08c0b669d684531b4ec766524c43abd788cc3ca76868a83338660405161234d959493929190615bd9565b60405180910390a16001975050505050505050919050565b600160009054906101000a900473ffffffffffffffffffffffffffffffffffffffff1681565b60008161239784611bfd565b14905092915050565b6000600a6000836000191660001916815260200190815260200160002060009054906101000a900473ffffffffffffffffffffffffffffffffffffffff169050919050565b6000809054906101000a900473ffffffffffffffffffffffffffffffffffffffff1673ffffffffffffffffffffffffffffffffffffffff163373ffffffffffffffffffffffffffffffffffffffff1614151561244057600080fd5b8060078190555050565b6000809054906101000a900473ffffffffffffffffffffffffffffffffffffffff1681565b600b6020528060005260406000206000915090505481565b6000809054906101000a900473ffffffffffffffffffffffffffffffffffffffff1673ffffffffffffffffffffffffffffffffffffffff163373ffffffffffffffffffffffffffffffffffffffff161415156124e257600080fd5b80600460006101000a81548173ffffffffffffffffffffffffffffffffffffffff021916908373ffffffffffffffffffffffffffffffffffffffff16021790555050565b6000809054906101000a900473ffffffffffffffffffffffffffffffffffffffff1673ffffffffffffffffffffffffffffffffffffffff163373ffffffffffffffffffffffffffffffffffffffff1614151561258157600080fd5b6000809054906101000a900473ffffffffffffffffffffffffffffffffffffffff1673ffffffffffffffffffffffffffffffffffffffff166108fc3073ffffffffffffffffffffffffffffffffffffffff16319081150290604051600060405180830381858888f193505050501580156125ff573d6000803e3d6000fd5b50565b600080600090505b601060ff1681101561268c5760018101601060ff160360080260020a838260108110151561263457fe5b1a7f0100000000000000000000000000000000000000000000000000000000000000027f010000000000000000000000000000000000000000000000000000000000000090040282019150808060010191505061260a565b50919050565b6000809054906101000a900473ffffffffffffffffffffffffffffffffffffffff1673ffffffffffffffffffffffffffffffffffffffff163373ffffffffffffffffffffffffffffffffffffffff161415156126ed57600080fd5b8060068190555050565b600460009054906101000a900473ffffffffffffffffffffffffffffffffffffffff1681565b600080fd5b60095481565b60006127326152ff565b6000806000806000600260009054906101000a900473ffffffffffffffffffffffffffffffffffffffff1673ffffffffffffffffffffffffffffffffffffffff166362f9acf9896040518263ffffffff167c01000000000000000000000000000000000000000000000000000000000281526004016127b19190615d31565b6040805180830381600087803b1580156127ca57600080fd5b505af11580156127de573d6000803e3d6000fd5b505050506040513d601f19601f820116820180604052506128029190810190615839565b955060006401000000000286600060028110151561281c57fe5b602002015163ffffffff19161415151561283557600080fd5b856040518082600260200280838360005b83811015612861578082015181840152602081019050612846565b505050509050019150506040518091039020945061287e85613467565b93506000841415151561289057600080fd5b61289988610bd7565b15156128a457600080fd5b6128af8560006139ff565b6128b888613da0565b6128c1856123a0565b92508273ffffffffffffffffffffffffffffffffffffffff163373ffffffffffffffffffffffffffffffffffffffff161415156128fd57600080fd5b600260009054906101000a900473ffffffffffffffffffffffffffffffffffffffff1673ffffffffffffffffffffffffffffffffffffffff16631c4b774b896040518263ffffffff167c01000000000000000000000000000000000000000000000000000000000281526004016129749190615d31565b602060405180830381600087803b15801561298e57600080fd5b505af11580156129a2573d6000803e3d6000fd5b505050506040513d601f19601f820116820180604052506129c691908101906159f8565b9150600260009054906101000a900473ffffffffffffffffffffffffffffffffffffffff1673ffffffffffffffffffffffffffffffffffffffff166304952631896040518263ffffffff167c0100000000000000000000000000000000000000000000000000000000028152600401612a3f9190615d31565b602060405180830381600087803b158015612a5957600080fd5b505af1158015612a6d573d6000803e3d6000fd5b505050506040513d601f19601f82011682018060405250612a919190810190615901565b90508015612e3057612aae82600554613a2390919063ffffffff16565b600360009054906101000a900473ffffffffffffffffffffffffffffffffffffffff1673ffffffffffffffffffffffffffffffffffffffff166370a08231856040518263ffffffff167c0100000000000000000000000000000000000000000000000000000000028152600401612b259190615b5e565b602060405180830381600087803b158015612b3f57600080fd5b505af1158015612b53573d6000803e3d6000fd5b505050506040513d601f19601f82011682018060405250612b7791908101906159f8565b108015612baf57503373ffffffffffffffffffffffffffffffffffffffff168373ffffffffffffffffffffffffffffffffffffffff16145b15612c7f57600460009054906101000a900473ffffffffffffffffffffffffffffffffffffffff1673ffffffffffffffffffffffffffffffffffffffff1663f088d547846040518263ffffffff167c0100000000000000000000000000000000000000000000000000000000028152600401612c2b9190615b5e565b602060405180830381600087803b158015612c4557600080fd5b505af1158015612c59573d6000803e3d6000fd5b505050506040513d601f19601f82011682018060405250612c7d9190810190615901565b505b6000612c9683600554613a2390919063ffffffff16565b1115612d5c57600360009054906101000a900473ffffffffffffffffffffffffffffffffffffffff1673ffffffffffffffffffffffffffffffffffffffff16639dc29fac84612cf085600554613a2390919063ffffffff16565b6040518363ffffffff167c0100000000000000000000000000000000000000000000000000000000028152600401612d29929190615bb0565b600060405180830381600087803b158015612d4357600080fd5b505af1158015612d57573d6000803e3d6000fd5b505050505b600260009054906101000a900473ffffffffffffffffffffffffffffffffffffffff1673ffffffffffffffffffffffffffffffffffffffff166323b872dd600260009054906101000a900473ffffffffffffffffffffffffffffffffffffffff16858b6040518463ffffffff167c0100000000000000000000000000000000000000000000000000000000028152600401612df993929190615b79565b600060405180830381600087803b158015612e1357600080fd5b505af1158015612e27573d6000803e3d6000fd5b50505050612f11565b6000821115612f1057600360009054906101000a900473ffffffffffffffffffffffffffffffffffffffff1673ffffffffffffffffffffffffffffffffffffffff166340c10f1984846040518363ffffffff167c0100000000000000000000000000000000000000000000000000000000028152600401612eb2929190615bb0565b602060405180830381600087803b158015612ecc57600080fd5b505af1158015612ee0573d6000803e3d6000fd5b505050506040513d601f19601f82011682018060405250612f049190810190615901565b1515612f0f57600080fd5b5b5b600260009054906101000a900473ffffffffffffffffffffffffffffffffffffffff1673ffffffffffffffffffffffffffffffffffffffff16631cc1472d84866040518363ffffffff167c0100000000000000000000000000000000000000000000000000000000028152600401612f8a929190615bb0565b600060405180830381600087803b158015612fa457600080fd5b505af1158015612fb8573d6000803e3d6000fd5b505050507fa8a1a24efbea93a5c7f29342ba7652cd030828e12cc15c1416480fecee73d589888486604051612fef93929190615d4c565b60405180910390a160019650505050505050919050565b60055481565b6000809054906101000a900473ffffffffffffffffffffffffffffffffffffffff1673ffffffffffffffffffffffffffffffffffffffff163373ffffffffffffffffffffffffffffffffffffffff1614151561306757600080fd5b8060088190555050565b6000600260009054906101000a900473ffffffffffffffffffffffffffffffffffffffff1673ffffffffffffffffffffffffffffffffffffffff166362f9acf9836040518263ffffffff167c01000000000000000000000000000000000000000000000000000000000281526004016130ea9190615d31565b6040805180830381600087803b15801561310357600080fd5b505af1158015613117573d6000803e3d6000fd5b505050506040513d601f19601f8201168201806040525061313b9190810190615839565b6040518082600260200280838360005b8381101561316657808201518184015260208101905061314b565b5050505090500191505060405180910390209050919050565b600080600080600080600080600260009054906101000a900473ffffffffffffffffffffffffffffffffffffffff1673ffffffffffffffffffffffffffffffffffffffff1663785d8d716040518163ffffffff167c010000000000000000000000000000000000000000000000000000000002815260040160c060405180830381600087803b15801561321157600080fd5b505af1158015613225573d6000803e3d6000fd5b505050506040513d601f19601f820116820180604052506132499190810190615a21565b809750819850829950839a50849b50859c505050505050506000905060018060048b9060020a90041614156132ba576132b76132a86001880161329a60018b01600754613a3f90919063ffffffff16565b6140c990919063ffffffff16565b82613a2390919063ffffffff16565b90505b60018060038b9060020a900416141561330f5761330c6132fd600187016132ef60018b01600754613a3f90919063ffffffff16565b6140c990919063ffffffff16565b82613a2390919063ffffffff16565b90505b60018060028b9060020a9004161415613364576133616133526001860161334460018b01600754613a3f90919063ffffffff16565b6140c990919063ffffffff16565b82613a2390919063ffffffff16565b90505b60018060018b9060020a90041614156133b9576133b66133a76001850161339960018b01600754613a3f90919063ffffffff16565b6140c990919063ffffffff16565b82613a2390919063ffffffff16565b90505b6001808a161415613406576134036133f4600184016133e660018b01600754613a3f90919063ffffffff16565b6140c990919063ffffffff16565b82613a2390919063ffffffff16565b90505b80975050505050505050919050565b60065481565b600061342561524b565b61342e83613644565b9050613439816134f3565b915050919050565b600360009054906101000a900473ffffffffffffffffffffffffffffffffffffffff1681565b6000600b60008360001916600019168152602001908152602001600020549050919050565b6000809054906101000a900473ffffffffffffffffffffffffffffffffffffffff1673ffffffffffffffffffffffffffffffffffffffff163373ffffffffffffffffffffffffffffffffffffffff161415156134e757600080fd5b6134f0816140df565b50565b60008160000151156135085760009050613521565b8160200151151561351c5760009050613521565b600190505b919050565b6000809054906101000a900473ffffffffffffffffffffffffffffffffffffffff1673ffffffffffffffffffffffffffffffffffffffff163373ffffffffffffffffffffffffffffffffffffffff1614151561358157600080fd5b8060058190555050565b8273ffffffffffffffffffffffffffffffffffffffff1663a9059cbb83836040518363ffffffff167c01000000000000000000000000000000000000000000000000000000000281526004016135e2929190615bb0565b602060405180830381600087803b1580156135fc57600080fd5b505af1158015613610573d6000803e3d6000fd5b505050506040513d601f19601f820116820180604052506136349190810190615901565b151561363f57600080fd5b505050565b61364c61524b565b61365461524b565b60008060008060008088600060028110151561366c57fe5b602002015187610120019063ffffffff1916908163ffffffff19168152505088600160028110151561369a57fe5b602002015187610140019063ffffffff1916908163ffffffff191681525050600087610180019060ff16908160ff16815250506002876101a0019060ff16908160ff16815250506002876101c0019060ff16908160ff168152505060008760000190151590811515815250506000876020019015159081151581525050600187610160019060ff16908160ff16815250506ffffffffffffffe7ffdbfffffffffffff700100000000000000000000000000000000028761010001906fffffffffffffffffffffffffffffffff191690816fffffffffffffffffffffffffffffffff191681525050600091505b603c8260ff16108015613797575085155b1561394657602087610180015160ff16106137b7578661014001516137be565b8661012001515b90506137e081602089610180015160ff168115156137d857fe5b0660206141d9565b94506137eb8561421d565b80945081955050506137fc8561425c565b15955060008260ff16148015613825575060028460ff16141580613824575060038360ff1614155b5b15613840576001955060018760000190151590811515815250505b85158015613851575060088460ff16105b8015613860575060088360ff16105b8015613870575060008460ff1610155b8015613880575060008360ff1610155b156139395761389087858561426d565b965060018761018001510187610180019060ff16908160ff1681525050866000015115613938576000876000019015159081151581525050600160ff1687610160015160ff1614156138f557600287610160019060ff16908160ff168152505061390a565b600187610160019060ff16908160ff16815250505b61391587858561426d565b9650866000015115613937576001876000019015159081151581525050600195505b5b5b8180600101925050613786565b8660000151151561397957600087600001901515908115158152505061396b8761456f565b9650613976876148ae565b96505b86975050505050505050919050565b600082821115151561399657fe5b818303905092915050565b80600a6000846000191660001916815260200190815260200160002060006101000a81548173ffffffffffffffffffffffffffffffffffffffff021916908373ffffffffffffffffffffffffffffffffffffffff1602179055505050565b80600b60008460001916600019168152602001908152602001600020819055505050565b60008183019050828110151515613a3657fe5b80905092915050565b600080831415613a525760009050613a71565b8183029050818382811515613a6357fe5b04141515613a6d57fe5b8090505b92915050565b6000806000806000806000600260009054906101000a900473ffffffffffffffffffffffffffffffffffffffff1673ffffffffffffffffffffffffffffffffffffffff1663785d8d716040518163ffffffff167c010000000000000000000000000000000000000000000000000000000002815260040160c060405180830381600087803b158015613b0857600080fd5b505af1158015613b1c573d6000803e3d6000fd5b505050506040513d601f19601f82011682018060405250613b409190810190615a21565b809750819850829950839a50849b50859c50505050505050600260009054906101000a900473ffffffffffffffffffffffffffffffffffffffff1673ffffffffffffffffffffffffffffffffffffffff1663c53b4bf9896040518263ffffffff167c0100000000000000000000000000000000000000000000000000000000028152600401613bcf9190615d31565b602060405180830381600087803b158015613be957600080fd5b505af1158015613bfd573d6000803e3d6000fd5b505050506040513d601f19601f82011682018060405250613c2191908101906159f8565b9050613c4a60008211613c35576000613c38565b60015b60ff168861398890919063ffffffff16565b9650613c6a60016004839060020a9004168761398890919063ffffffff16565b9550613c8a60016003839060020a9004168661398890919063ffffffff16565b9450613caa60016002839060020a9004168561398890919063ffffffff16565b9350613cc9600180839060020a9004168461398890919063ffffffff16565b9250613ce1600182168361398890919063ffffffff16565b9150600260009054906101000a900473ffffffffffffffffffffffffffffffffffffffff1673ffffffffffffffffffffffffffffffffffffffff16638b1b2ba88888888888886040518763ffffffff167c0100000000000000000000000000000000000000000000000000000000028152600401613d6496959493929190615dfe565b600060405180830381600087803b158015613d7e57600080fd5b505af1158015613d92573d6000803e3d6000fd5b505050505050505050505050565b6000806000806000806000600260009054906101000a900473ffffffffffffffffffffffffffffffffffffffff1673ffffffffffffffffffffffffffffffffffffffff1663785d8d716040518163ffffffff167c010000000000000000000000000000000000000000000000000000000002815260040160c060405180830381600087803b158015613e3157600080fd5b505af1158015613e45573d6000803e3d6000fd5b505050506040513d601f19601f82011682018060405250613e699190810190615a21565b809750819850829950839a50849b50859c50505050505050600260009054906101000a900473ffffffffffffffffffffffffffffffffffffffff1673ffffffffffffffffffffffffffffffffffffffff1663c53b4bf9896040518263ffffffff167c0100000000000000000000000000000000000000000000000000000000028152600401613ef89190615d31565b602060405180830381600087803b158015613f1257600080fd5b505af1158015613f26573d6000803e3d6000fd5b505050506040513d601f19601f82011682018060405250613f4a91908101906159f8565b9050613f7360008211613f5e576000613f61565b60015b60ff1688613a2390919063ffffffff16565b9650613f9360016004839060020a90041687613a2390919063ffffffff16565b9550613fb360016003839060020a90041686613a2390919063ffffffff16565b9450613fd360016002839060020a90041685613a2390919063ffffffff16565b9350613ff2600180839060020a90041684613a2390919063ffffffff16565b925061400a6001821683613a2390919063ffffffff16565b9150600260009054906101000a900473ffffffffffffffffffffffffffffffffffffffff1673ffffffffffffffffffffffffffffffffffffffff16638b1b2ba88888888888886040518763ffffffff167c010000000000000000000000000000000000000000000000000000000002815260040161408d96959493929190615dfe565b600060405180830381600087803b1580156140a757600080fd5b505af11580156140bb573d6000803e3d6000fd5b505050505050505050505050565b600081838115156140d657fe5b04905092915050565b600073ffffffffffffffffffffffffffffffffffffffff168173ffffffffffffffffffffffffffffffffffffffff161415151561411b57600080fd5b8073ffffffffffffffffffffffffffffffffffffffff166000809054906101000a900473ffffffffffffffffffffffffffffffffffffffff1673ffffffffffffffffffffffffffffffffffffffff167f8be0079c531659141344cd1fd0a4f28419497f9722a3daafe3b4186f6b6457e060405160405180910390a3806000806101000a81548173ffffffffffffffffffffffffffffffffffffffff021916908373ffffffffffffffffffffffffffffffffffffffff16021790555050565b6000806000607f64010000000002915060078086026007860203039050818160ff168763ffffffff19169060020a9004166401000000009004925050509392505050565b60008060008060408503945060088560ff1681151561423857fe5b069150600882860360ff1681151561424c57fe5b0490508181935093505050915091565b600060408260ff1610159050919050565b61427561524b565b61427d615321565b600080600080600080600080600360ff1661429e8e61010001518e8e614ba6565b60ff161415156142c15760018d60000190151590811515815250508c995061455f565b6142cc8d8d8d614c1c565b809950819a50505060008860ff1614156142f95760018d60000190151590811515815250508c995061455f565b60009150600090505b8760ff168160ff16101561445f5760009650600095506143398d8a8360ff1660088110151561432d57fe5b60200201518e8e614f5b565b8097508198505050600092505b8560ff168360ff1610156144525781151561436057600191505b61437361436e8885896141d9565b61421d565b80955081965050506143918d61010001518e610160015187876150bf565b8d61010001906fffffffffffffffffffffffffffffffff191690816fffffffffffffffffffffffffffffffff191681525050600260ff168d610160015160ff1614156144105760018d6101c0018181510191509060ff16908160ff168152505060018d6101a0018181510391509060ff16908160ff1681525050614445565b60018d6101c0018181510391509060ff16908160ff168152505060018d6101a0018181510191509060ff16908160ff16815250505b8280600101935050614346565b8080600101915050614302565b81156145005761447b8d61010001518e61016001518e8e6150bf565b8d61010001906fffffffffffffffffffffffffffffffff191690816fffffffffffffffffffffffffffffffff191681525050600260ff168d610160015160ff1614156144e05760018d6101c0018181510191509060ff16908160ff16815250506144fb565b60018d6101a0018181510191509060ff16908160ff16815250505b614519565b60018d60000190151590811515815250508c995061455f565b600160ff168d610160015160ff1614156145465760028d610160019060ff16908160ff168152505061455b565b60018d610160019060ff16908160ff16815250505b8c99505b5050505050505050509392505050565b61457761524b565b61457f615350565b600080600080600061458f61537f565b603c89610180015160ff1614156145b95760018960200190151590811515815250508897506148a2565b60009550600094505b60408560ff16101561469b5761460c8961010001516008808860ff168115156145e757fe5b06880360ff168115156145f657fe5b0460088860ff1681151561460657fe5b06614ba6565b9350600360ff168460ff16141561468e5760408051908101604052806008808860ff1681151561463857fe5b06880360ff1681151561464757fe5b0460ff1660ff16815260200160088760ff1681151561466257fe5b0660ff1660ff16815250878760ff16603c8110151561467d57fe5b602002018190525085806001019650505b84806001019550506145c2565b6000925060008660ff16111561485f578861010001519150600094505b8560ff168560ff161080156146cb575082155b1561482b57868560ff16603c811015156146e157fe5b60200201519050600189610160019060ff16908160ff16815250506000896000019015159081151581525050818961010001906fffffffffffffffffffffffffffffffff191690816fffffffffffffffffffffffffffffffff1916815250506147718982600060028110151561475357fe5b602002015183600160028110151561476757fe5b602002015161426d565b98508860000151151561478357600192505b600289610160019060ff16908160ff16815250506000896000019015159081151581525050818961010001906fffffffffffffffffffffffffffffffff191690816fffffffffffffffffffffffffffffffff19168152505061480c898260006002811015156147ee57fe5b602002015183600160028110151561480257fe5b602002015161426d565b98508860000151151561481e57600192505b84806001019550506146b8565b818961010001906fffffffffffffffffffffffffffffffff191690816fffffffffffffffffffffffffffffffff1916815250505b821561487b57600189600001901515908115158152505061489e565b600189602001901515908115158152505060008960000190151590811515815250505b8897505b50505050505050919050565b6148b661524b565b60008060008060008060006001965060019550600194506001935060019250600091505b60088260ff1610801561490a575086806148f15750855b806148f95750845b806149015750835b806149095750825b5b15614b0f57600090505b60088160ff161080156149445750868061492b5750855b806149335750845b8061493b5750835b806149435750825b5b15614b025761495f896101000151836007038360070361518b565b6fffffffffffffffffffffffffffffffff19166149828a6101000151848461518b565b6fffffffffffffffffffffffffffffffff19161415156149a157600096505b6149b4896101000151838360070361518b565b6fffffffffffffffffffffffffffffffff19166149d78a6101000151848461518b565b6fffffffffffffffffffffffffffffffff19161415156149f657600095505b614a09896101000151836007038361518b565b6fffffffffffffffffffffffffffffffff1916614a2c8a6101000151848461518b565b6fffffffffffffffffffffffffffffffff1916141515614a4b57600094505b614a61896101000151826007038460070361518b565b6fffffffffffffffffffffffffffffffff1916614a848a6101000151848461518b565b6fffffffffffffffffffffffffffffffff1916141515614aa357600093505b614ab3896101000151828461518b565b6fffffffffffffffffffffffffffffffff1916614ad68a6101000151848461518b565b6fffffffffffffffffffffffffffffffff1916141515614af557600092505b8080600101915050614914565b81806001019250506148da565b8680614b185750855b80614b205750845b80614b285750835b80614b305750825b15614b975760018960400190151590811515815250508689606001901515908115158152505085896080019015159081151581525050848960a0019015159081151581525050838960c0019015159081151581525050828960e00190151590811515815250505b88975050505050505050919050565b6000806000614bb585856151e7565b9150600370010000000000000000000000000000000002826fffffffffffffffffffffffffffffffff16876fffffffffffffffffffffffffffffffff19169060020a9004169050807001000000000000000000000000000000009004925050509392505050565b614c24615321565b6000614c2e615321565b6000614c38615321565b600080614c436153a1565b600080600096506101006040519081016040528060408051908101604052807fffffffffffffffffffffffffffffffffffffffffffffffffffffffffffffffff60000b60000b81526020016000800b60000b815250815260200160408051908101604052807fffffffffffffffffffffffffffffffffffffffffffffffffffffffffffffffff60000b60000b8152602001600160000b60000b815250815260200160408051908101604052806000800b60000b8152602001600160000b60000b81525081526020016040805190810160405280600160000b60000b8152602001600160000b60000b81525081526020016040805190810160405280600160000b60000b81526020016000800b60000b81525081526020016040805190810160405280600160000b60000b81526020017fffffffffffffffffffffffffffffffffffffffffffffffffffffffffffffffff60000b60000b815250815260200160408051908101604052806000800b60000b81526020017fffffffffffffffffffffffffffffffffffffffffffffffffffffffffffffffff60000b60000b815250815260200160408051908101604052807fffffffffffffffffffffffffffffffffffffffffffffffffffffffffffffffff60000b60000b81526020017fffffffffffffffffffffffffffffffffffffffffffffffffffffffffffffffff60000b60000b8152508152509550600090505b60088160ff161015614f4557858160ff16600881101515614e6f57fe5b60200201519250826000600281101515614e8557fe5b60200201518c019350826001600281101515614e9d57fe5b60200201518b01945060078560000b1380614ebb575060008560000b125b80614ec9575060078460000b135b80614ed7575060008460000b125b1515614f3857614eed8d61010001518587614ba6565b91508c610160015160ff168260ff16141515614f3757600360ff168260ff16141515614f365782888860ff16600881101515614f2557fe5b602002018190525086806001019750505b5b5b8080600101915050614e52565b8787995099505050505050505050935093915050565b60008060008060008060008060008060009650600160ff168e610160015160ff161415614f8b5760029550614f90565b600195505b60009450600190505b60098160ff1610156150a85784151561509b578b8d6000600281101515614fbc57fe5b602002015182020193508a8d6001600281101515614fd657fe5b6020020151820201925060078460000b1380614ff5575060008460000b125b80615003575060078360000b135b80615011575060008360000b125b156150275760009750600096506001945061509a565b6150378e61010001518585614ba6565b91508560ff168260ff1614156150605761505388888686615203565b8098508199505050615099565b8d610160015160ff168260ff1614801561507d575060018160ff16115b1561508b5760019450615098565b6000975060009650600194505b5b5b5b8080600101915050614f99565b878799509950505050505050505094509492505050565b600080600060078560ff1611156150d557600080fd5b60078460ff1611156150e657600080fd5b6150f085856151e7565b9150816fffffffffffffffffffffffffffffffff166003700100000000000000000000000000000000026fffffffffffffffffffffffffffffffff19169060020a02905086818818169650816fffffffffffffffffffffffffffffffff168660ff16700100000000000000000000000000000000026fffffffffffffffffffffffffffffffff19169060020a02871792505050949350505050565b60008061519884846151e7565b9050600370010000000000000000000000000000000002816fffffffffffffffffffffffffffffffff16866fffffffffffffffffffffffffffffffff19169060020a9004169150509392505050565b600060026001838560080201016040030260ff16905092915050565b600080600060406008850286010160ff1664010000000002905060078763ffffffff19169060020a029650808717965085806001019650508686925092505094509492505050565b6101e06040519081016040528060001515815260200160001515815260200160001515815260200160001515815260200160001515815260200160001515815260200160001515815260200160001515815260200160006fffffffffffffffffffffffffffffffff19168152602001600063ffffffff19168152602001600063ffffffff19168152602001600060ff168152602001600060ff168152602001600060ff168152602001600060ff1681525090565b6040805190810160405280600290602082028038833980820191505090505090565b610200604051908101604052806008905b61533a6153c3565b8152602001906001900390816153325790505090565b610f0060405190810160405280603c905b6153696153e5565b8152602001906001900390816153615790505090565b6040805190810160405280600290602082028038833980820191505090505090565b6040805190810160405280600290602082028038833980820191505090505090565b6040805190810160405280600290602082028038833980820191505090505090565b6040805190810160405280600290602082028038833980820191505090505090565b60006154138235615f68565b905092915050565b600082601f830112151561542e57600080fd5b600261544161543c82615e8c565b615e5f565b9150818385602084028201111561545757600080fd5b60005b83811015615487578161546d8882615543565b84526020840193506020830192505060018101905061545a565b5050505092915050565b600082601f83011215156154a457600080fd5b60026154b76154b282615e8c565b615e5f565b915081838560208402820111156154cd57600080fd5b60005b838110156154fd57816154e38882615557565b8452602084019350602083019250506001810190506154d0565b5050505092915050565b60006155138235615f88565b905092915050565b60006155278251615f88565b905092915050565b600061553b8235615f94565b905092915050565b600061554f8235615fc0565b905092915050565b60006155638251615fc0565b905092915050565b60006155778235615fec565b905092915050565b60008083601f840112151561559357600080fd5b8235905067ffffffffffffffff8111156155ac57600080fd5b6020830191508360018202830111156155c457600080fd5b9250929050565b60006155d78235615ff6565b905092915050565b60006101e082840312156155f257600080fd5b6155fd6101e0615e5f565b9050600061560d84828501615507565b600083015250602061562184828501615507565b602083015250604061563584828501615507565b604083015250606061564984828501615507565b606083015250608061565d84828501615507565b60808301525060a061567184828501615507565b60a08301525060c061568584828501615507565b60c08301525060e061569984828501615507565b60e0830152506101006156ae8482850161552f565b610100830152506101206156c484828501615543565b610120830152506101406156da84828501615543565b610140830152506101606156f084828501615767565b6101608301525061018061570684828501615767565b610180830152506101a061571c84828501615767565b6101a0830152506101c061573284828501615767565b6101c08301525092915050565b600061574b8235616008565b905092915050565b600061575f8251616008565b905092915050565b60006157738235616012565b905092915050565b60006020828403121561578d57600080fd5b600061579b84828501615407565b91505092915050565b600080600080606085870312156157ba57600080fd5b60006157c887828801615407565b94505060206157d98782880161573f565b935050604085013567ffffffffffffffff8111156157f657600080fd5b6158028782880161557f565b925092505092959194509250565b60006040828403121561582257600080fd5b60006158308482850161541b565b91505092915050565b60006040828403121561584b57600080fd5b600061585984828501615491565b91505092915050565b6000806060838503121561587557600080fd5b60006158838582860161541b565b92505060406158948582860161573f565b9150509250929050565b60008060008060a085870312156158b457600080fd5b60006158c28782880161541b565b94505060406158d38782880161573f565b93505060606158e48782880161573f565b92505060806158f587828801615507565b91505092959194509250565b60006020828403121561591357600080fd5b60006159218482850161551b565b91505092915050565b60006020828403121561593c57600080fd5b600061594a8482850161552f565b91505092915050565b60006020828403121561596557600080fd5b60006159738482850161556b565b91505092915050565b60006020828403121561598e57600080fd5b600061599c848285016155cb565b91505092915050565b60006101e082840312156159b857600080fd5b60006159c6848285016155df565b91505092915050565b6000602082840312156159e157600080fd5b60006159ef8482850161573f565b91505092915050565b600060208284031215615a0a57600080fd5b6000615a1884828501615753565b91505092915050565b60008060008060008060c08789031215615a3a57600080fd5b6000615a4889828a01615753565b9650506020615a5989828a01615753565b9550506040615a6a89828a01615753565b9450506060615a7b89828a01615753565b9350506080615a8c89828a01615753565b92505060a0615a9d89828a01615753565b9150509295509295509295565b615ab381615ed0565b82525050565b615ac281615eb8565b615acb82615eae565b60005b82811015615afd57615ae1858351615b22565b615aea82615ec3565b9150602085019450600181019050615ace565b5050505050565b615b0d81615ef0565b82525050565b615b1c81615efc565b82525050565b615b2b81615f28565b82525050565b615b3a81615f54565b82525050565b615b498161601f565b82525050565b615b5881615f5e565b82525050565b6000602082019050615b736000830184615aaa565b92915050565b6000606082019050615b8e6000830186615aaa565b615b9b6020830185615aaa565b615ba86040830184615b4f565b949350505050565b6000604082019050615bc56000830185615aaa565b615bd26020830184615b4f565b9392505050565b600060c082019050615bee6000830188615ab9565b615bfb6040830187615b4f565b615c086060830186615aaa565b615c156080830185615aaa565b615c2260a0830184615b4f565b9695505050505050565b600061010082019050615c42600083018a615ab9565b615c4f6040830189615b4f565b615c5c6060830188615aaa565b615c696080830187615b4f565b615c7660a0830186615b4f565b615c8360c0830185615b4f565b615c9060e0830184615b04565b98975050505050505050565b6000602082019050615cb16000830184615b04565b92915050565b6000602082019050615ccc6000830184615b13565b92915050565b6000602082019050615ce76000830184615b31565b92915050565b6000604082019050615d026000830185615b31565b615d0f6020830184615aaa565b9392505050565b6000602082019050615d2b6000830184615b40565b92915050565b6000602082019050615d466000830184615b4f565b92915050565b6000606082019050615d616000830186615b4f565b615d6e6020830185615aaa565b615d7b6040830184615b4f565b949350505050565b6000606082019050615d986000830185615b4f565b615da56020830184615ab9565b9392505050565b6000604082019050615dc16000830185615b4f565b615dce6020830184615b04565b9392505050565b6000604082019050615dea6000830185615b4f565b615df76020830184615b4f565b9392505050565b600060c082019050615e136000830189615b4f565b615e206020830188615b4f565b615e2d6040830187615b4f565b615e3a6060830186615b4f565b615e476080830185615b4f565b615e5460a0830184615b4f565b979650505050505050565b6000604051905081810181811067ffffffffffffffff82111715615e8257600080fd5b8060405250919050565b600067ffffffffffffffff821115615ea357600080fd5b602082029050919050565b6000819050919050565b600060029050919050565b6000602082019050919050565b600073ffffffffffffffffffffffffffffffffffffffff82169050919050565b60008115159050919050565b60007fffffffffffffffffffffffffffffffff0000000000000000000000000000000082169050919050565b60007fffffffffffffffffffffffffffffffffffffffffffffffffffffffff0000000082169050919050565b6000819050919050565b6000819050919050565b600073ffffffffffffffffffffffffffffffffffffffff82169050919050565b60008115159050919050565b60007fffffffffffffffffffffffffffffffff0000000000000000000000000000000082169050919050565b60007fffffffffffffffffffffffffffffffffffffffffffffffffffffffff0000000082169050919050565b6000819050919050565b600061600182615ed0565b9050919050565b6000819050919050565b600060ff82169050919050565b600061602a82615ed0565b90509190505600a265627a7a72305820e7a3ed89726ce47f86fbaf2690533537bb2ae49801485d5594d83424a3b107916c6578706572696d656e74616cf50037",
  "source": "pragma solidity ^0.4.18;\npragma experimental ABIEncoderV2;\n\n/**\n * The CloversController is a replaceable endpoint for minting and unminting Clovers.sol and ClubToken.sol\n */\n\nimport \"./Reversi.sol\";\nimport \"./IClovers.sol\";\nimport \"./IClubToken.sol\";\nimport \"./ICloversController.sol\";\nimport \"./IClubTokenController.sol\";\nimport \"zeppelin-solidity/contracts/ownership/HasNoTokens.sol\";\nimport \"zeppelin-solidity/contracts/ownership/HasNoEther.sol\";\nimport \"zeppelin-solidity/contracts/math/SafeMath.sol\";\n\n\ncontract CloversController is HasNoEther, HasNoTokens {\n    event cloverCommitted(bytes32 movesHash, address owner);\n    event cloverClaimed(bytes28[2] moves, uint256 tokenId, address owner, uint stake, uint reward, uint256 symmetries, bool keep);\n    event stakeRetrieved(uint256 tokenId, address owner, uint stake);\n\n    event cloverChallenged(bytes28[2] moves, uint256 tokenId, address owner, address challenger, uint stake);\n\n    using SafeMath for uint256;\n\n    address public oracle;\n    address public clovers;\n    address public clubToken;\n    address public clubTokenController;\n\n    uint256 public basePrice;\n    uint256 public priceMultiplier;\n    uint256 public payMultiplier;\n    uint256 public stakeAmount;\n    uint256 public stakePeriod;\n\n    mapping (bytes32 => address) public commits;\n    mapping (bytes32 => uint256) public stakes;\n\n    constructor(address _clovers, address _clubToken, address _clubTokenController) public {\n        clovers = _clovers;\n        clubToken = _clubToken;\n        clubTokenController = _clubTokenController;\n    }\n    /**\n    * @dev Gets the current stake of a Clover based on the hash of the moves.\n    * @param movesHash The hash of the moves that make up the clover.\n    * @return A uint256 value of stake.\n    */\n    function getStake(bytes32 movesHash) public view returns (uint256) {\n        return stakes[movesHash];\n    }\n    /**\n    * @dev Gets the address of the committer of a Clover based on the hash of the moves.\n    * @param movesHash The hash of the moves that make up the clover.\n    * @return The address of the committer.\n    */\n    function getCommit(bytes32 movesHash) public view returns (address) {\n        return commits[movesHash];\n    }\n    /**\n    * @dev Gets the current staking period needed to verify a Clover.\n    * @param _tokenId The token Id of the clover.\n    * @return A uint256 value of stake period in seconds.\n    */\n    function getMovesHash(uint _tokenId) public constant returns (bytes32) {\n        return keccak256(IClovers(clovers).getCloverMoves(_tokenId));\n    }\n    /**\n    * @dev Checks whether the game is valid.\n    * @param moves The moves needed to play validate the game.\n    * @return A boolean representing whether or not the game is valid.\n    */\n    function isValid(bytes28[2] moves) public constant returns (bool) {\n        Reversi.Game memory game = Reversi.playGame(moves);\n        return isValidGame(game);\n    }\n    /**\n    * @dev Checks whether the game is valid.\n    * @param game The pre-played game.\n    * @return A boolean representing whether or not the game is valid.\n    */\n    function isValidGame(Reversi.Game game) public pure returns (bool) {\n        if (game.error) return false;\n        if (!game.complete) return false;\n        return true;\n    }\n    /**\n    * @dev Checks whether the game has passed the verification period.\n    * @param _tokenId The board being checked.\n    * @return A boolean representing whether or not the game has been verified.\n    */\n    function isVerified(uint256 _tokenId) public constant returns (bool) {\n        uint256 _blockMinted = IClovers(clovers).getBlockMinted(_tokenId);\n        if(_blockMinted == 0) return false;\n        if (msg.sender == owner) return true;\n        if (msg.sender == oracle) return true;\n        return block.number.sub(_blockMinted) > stakePeriod;\n    }\n    /**\n    * @dev Calculates the reward of the board.\n    * @param _symmetries symmetries saved as a uint256 value like 00010101 where bits represent symmetry types.\n    * @return A uint256 representing the reward that would be returned for claiming the board.\n    */\n    function calculateReward(uint256 _symmetries) public constant returns (uint256) {\n        uint256 Symmetricals;\n        uint256 RotSym;\n        uint256 Y0Sym;\n        uint256 X0Sym;\n        uint256 XYSym;\n        uint256 XnYSym;\n        (Symmetricals,\n        RotSym,\n        Y0Sym,\n        X0Sym,\n        XYSym,\n        XnYSym) = IClovers(clovers).getAllSymmetries();\n        uint256 base = 0;\n        if (_symmetries >> 4 & 1 == 1) base = base.add(payMultiplier.mul(Symmetricals + 1).div(RotSym + 1));\n        if (_symmetries >> 3 & 1 == 1) base = base.add(payMultiplier.mul(Symmetricals + 1).div(Y0Sym + 1));\n        if (_symmetries >> 2 & 1 == 1) base = base.add(payMultiplier.mul(Symmetricals + 1).div(X0Sym + 1));\n        if (_symmetries >> 1 & 1 == 1) base = base.add(payMultiplier.mul(Symmetricals + 1).div(XYSym + 1));\n        if (_symmetries & 1 == 1) base = base.add(payMultiplier.mul(Symmetricals + 1).div(XnYSym + 1));\n        return base;\n    }\n\n/*\n    // NOTE: Disabled to reduce contract size\n    function legacyRegister(bytes28[2] moves, bool _keep) public payable returns (bool) {\n        Reversi.Game memory game = Reversi.playGame(moves);\n        require(isValidGame(game));\n        uint256 tokenId = uint256(game.board);\n        require(IClovers(clovers).getBlockMinted(tokenId) == 0);\n        require(!IClovers(clovers).exists(tokenId));\n        IClovers(clovers).setBlockMinted(tokenId, block.number);\n        IClovers(clovers).setCloverMoves(tokenId, moves);\n\n        uint256 symmetries = Reversi.returnSymmetricals(game.RotSym, game.Y0Sym, game.X0Sym, game.XYSym, game.XnYSym);\n        uint256 reward;\n\n        if (uint256(symmetries) > 0) {\n            IClovers(clovers).setSymmetries(tokenId, uint256(symmetries));\n            reward = calculateReward(uint256(symmetries));\n            IClovers(clovers).setReward(tokenId, reward);\n        }\n        if (_keep) {\n            // If the user decides to keep the Clover, they must\n            // pay for it in club tokens according to the reward price.\n            if (IClubToken(clubToken).balanceOf(msg.sender) < reward) {\n                IClubTokenController(clubTokenController).buy(msg.sender); // msg.value needs to be enough to buy \"reward\" amount of Club Token\n            }\n            if (reward > 0) {\n                IClubToken(clubToken).burn(msg.sender, reward);\n            }\n            IClovers(clovers).mint(msg.sender, tokenId);\n        } else {\n            // If the user decides not to keep the Clover, they will\n            // receive the reward price in club tokens, and the clover will\n            // go for sale at 10x the reward price.\n            if (reward > 0) {\n                require(IClubToken(clubToken).mint(msg.sender, reward));\n            }\n            IClovers(clovers).mint(clovers, tokenId);\n        }\n\n    } */\n\n    /**\n    * @dev Claim the Clover without a commit or reveal. Payable so you can attach enough for the stake,\n    * as well as enough to buy tokens if needed to keep the Clover.\n    * @param moves The moves that make up the Clover reversi game.\n    * @param _tokenId The board that results from the moves.\n    * @param _symmetries symmetries saved as a uint256 value like 00010101 where bits represent symmetry\n    * types.\n    * @return A boolean representing whether or not the claim was successful.\n    */\n    function claimClover(bytes28[2] moves, uint256 _tokenId, uint256 _symmetries, bool _keep) public payable returns (bool) {\n        bytes32 movesHash = keccak256(moves);\n\n        require(msg.value >= stakeAmount);\n        require(getCommit(movesHash) == 0);\n\n        setCommit(movesHash, msg.sender);\n        setStake(movesHash, stakeAmount);\n\n        clovers.transfer(stakeAmount);\n\n        emit cloverCommitted(movesHash, msg.sender);\n\n        require(!IClovers(clovers).exists(_tokenId));\n        require(IClovers(clovers).getBlockMinted(_tokenId) == 0);\n\n        IClovers(clovers).setBlockMinted(_tokenId, block.number);\n        IClovers(clovers).setCloverMoves(_tokenId, moves);\n        IClovers(clovers).setKeep(_tokenId, _keep);\n\n        uint256 reward;\n        if (_symmetries > 0) {\n            IClovers(clovers).setSymmetries(_tokenId, _symmetries);\n            reward = calculateReward(_symmetries);\n            IClovers(clovers).setReward(_tokenId, reward);\n        }\n\n        if (_keep) {\n            if (IClubToken(clubToken).balanceOf(msg.sender) < basePrice.add(reward)) {\n                IClubTokenController(clubTokenController).buy(msg.sender);\n            }\n            IClubToken(clubToken).increaseApproval(address(this), basePrice.add(reward));\n        }\n        IClovers(clovers).mint(clovers, _tokenId);\n        emit cloverClaimed(moves, _tokenId, msg.sender, stakeAmount, reward, _symmetries, _keep);\n\n        return true;\n    }\n    /**\n    * @dev Commit the hash of the moves needed to claim the Clover. A stake should be\n    * made for counterfactual verification.\n    * @param movesHash The hash of the moves that makes up the Clover reversi\n    * game.\n    * @return A boolean representing whether or not the commit was successful.\n    NOTE: Disabled for contract size, if front running becomes a problem it can be\n    implemented with an upgrade\n    */\n    /* function claimCloverCommit(bytes32 movesHash) public payable returns (bool) {\n        require(msg.value <= stakeAmount);\n        require(getCommit(movesHash) == 0);\n\n        setCommit(movesHash, msg.sender);\n        setStake(movesHash, stakeAmount);\n\n        clovers.transfer(stakeAmount);\n\n        emit cloverCommitted(movesHash, msg.sender);\n        return true;\n    } */\n    /**\n    * @dev Reveal the solution to the previous commit to claim the Clover.\n    * @param moves The moves that make up the Clover reversi game.\n    * @param _tokenId The board that results from the moves.\n    * @param _symmetries symmetries saved as a uint256 value like 00010101 where bits represent symmetry types.\n    * @return A boolean representing whether or not the reveal and claim was successful.\n    NOTE: Disabled for contract size, if front running becomes a problem it can be implemented with an upgrade\n    */\n    /* function claimCloverReveal(bytes28[2] moves, uint256 _tokenId, uint256 _symmetries, bool _keep) public returns (bool) {\n        bytes32 movesHash = keccak256(moves);\n        address committer = getCommit(movesHash);\n\n        require(IClovers(clovers).getBlockMinted(_tokenId) == 0);\n\n        IClovers(clovers).setBlockMinted(_tokenId, block.number);\n        IClovers(clovers).setCloverMoves(_tokenId, moves);\n        IClovers(clovers).setKeep(_tokenId, _keep);\n        uint256 reward;\n        if (_symmetries > 0) {\n            IClovers(clovers).setSymmetries(_tokenId, _symmetries);\n            reward = calculateReward(_symmetries);\n            IClovers(clovers).setReward(_tokenId, reward);\n        }\n        if (_keep) {\n            IClubToken(clubToken).increaseApproval(address(this), basePrice.add(reward));\n        }\n        uint256 stake = getStake(movesHash);\n        emit cloverClaimed(moves, _tokenId, committer, stake, reward, _symmetries, _keep);\n        return true;\n    } */\n\n    /**\n    * @dev Retrieve the stake from a Clover claim after the stake period has ended, or with the authority of the oracle.\n    * @param _tokenId The board which holds the stake.\n    * @return A boolean representing whether or not the retrieval was successful.\n    */\n    function retrieveStake(uint256 _tokenId) public payable returns (bool) {\n        bytes28[2] memory moves = IClovers(clovers).getCloverMoves(_tokenId);\n        require(moves[0] != 0);\n        bytes32 movesHash = keccak256(moves);\n        uint256 stake = getStake(movesHash);\n        require(stake != 0);\n        require(isVerified(_tokenId));\n        setStake(movesHash, 0);\n        addSymmetries(_tokenId);\n        address committer = getCommit(movesHash);\n        require(msg.sender == committer);\n\n        uint256 reward = IClovers(clovers).getReward(_tokenId);\n        bool _keep = IClovers(clovers).getKeep(_tokenId);\n\n        if (_keep) {\n            // If the user decides to keep the Clover, they must\n            // pay for it in club tokens according to the reward price.\n            if (IClubToken(clubToken).balanceOf(committer) < basePrice.add(reward) && committer == msg.sender) {\n                IClubTokenController(clubTokenController).buy(committer); // msg.value needs to be enough to buy \"reward\" amount of Club Token\n            }\n            if (basePrice.add(reward) > 0) {\n                IClubToken(clubToken).burn(committer, basePrice.add(reward));\n            }\n            IClovers(clovers).transferFrom(clovers, committer, _tokenId);\n        } else {\n            // If the user decides not to keep the Clover, they will\n            // receive the reward price in club tokens, and the clover will\n            // go for sale at the reward price times the priceMultiplier.\n            if (reward > 0) {\n                require(IClubToken(clubToken).mint(committer, reward));\n            }\n        }\n        IClovers(clovers).moveEth(committer, stake);\n        emit stakeRetrieved(_tokenId, committer, stake);\n        return true;\n    }\n\n    /**\n    * @dev Buy one of the Clovers which were given up when mining.\n    * @param _tokenId The board being bought.\n    * @return A boolean representing whether or not the purchase was successful.\n    */\n    function buyCloverFromContract(uint256 _tokenId) public payable returns(bool) {\n        uint256 reward = IClovers(clovers).getReward(_tokenId);\n        uint256 toPay = basePrice.add(reward.mul(priceMultiplier));\n        if (IClubToken(clubToken).balanceOf(msg.sender) < toPay) {\n            IClubTokenController(clubTokenController).buy(msg.sender); // msg.value needs to be enough to buy \"toPay\" amount of Club Token\n        }\n        if (toPay > 0) {\n            IClubToken(clubToken).burn(msg.sender, toPay);\n        }\n        IClovers(clovers).transferFrom(clovers, msg.sender, _tokenId);\n        return true;\n    }\n\n    function v (bytes28[2] moves) public view returns(bool){\n        Reversi.Game memory game = Reversi.playGame(moves);\n        return isValidGame(game);\n    }\n    function getBoard (bytes28[2] moves) public view returns(bytes16){\n        Reversi.Game memory game = Reversi.playGame(moves);\n        return game.board;\n    }\n    function convertBytes16ToUint(bytes16 board) public view returns(uint256 number) {\n        for(uint i=0;i<board.length;i++){\n            number = number + uint(board[i])*(2**(8*(board.length-(i+1))));\n        }\n    }\n    function doItAll(bytes28[2] moves) public view returns(uint256) {\n        return convertBytes16ToUint(getBoard(moves));\n    }\n    function compareItAll(bytes28[2] moves, uint256 tokenId) public view returns(bool) {\n        return doItAll(moves) == tokenId;\n    }\n\n    /**\n    * @dev Challenge a staked Clover for being invalid.\n    * @param _tokenId The board being challenged.\n    * @return A boolean representing whether or not the challenge was successful.\n    */\n    function challengeClover(uint256 _tokenId) public returns (bool) {\n        bool valid = true;\n        bytes28[2] memory moves = IClovers(clovers).getCloverMoves(_tokenId);\n        require(moves[0] != 0);\n        Reversi.Game memory game = Reversi.playGame(moves);\n        /* bytes memory b = new bytes(32); */\n        /* assembly { mstore(add(b, 16), _tokenId) } */\n\n        if(convertBytes16ToUint(game.board) != _tokenId) {\n            valid = false;\n        }\n        if(isValidGame(game)) {\n            uint256 _symmetries = IClovers(clovers).getSymmetries(_tokenId);\n\n            valid = (_symmetries >> 4 & 1) > 0 == game.RotSym ? valid : false;\n            valid = (_symmetries >> 3 & 1) > 0 == game.Y0Sym ? valid : false;\n            valid = (_symmetries >> 2 & 1) > 0 == game.X0Sym ? valid : false;\n            valid = (_symmetries >> 1 & 1) > 0 == game.XYSym ? valid : false;\n            valid = (_symmetries & 1) > 0 == game.XnYSym ? valid : false;\n\n        } else {\n            valid = false;\n        }\n        require(!valid);\n\n        bytes32 movesHash = keccak256(moves);\n        if (!isVerified(_tokenId)) {\n            uint256 stake = getStake(movesHash);\n            IClovers(clovers).moveEth(msg.sender, stake);\n        }\n        IClovers(clovers).deleteClover(_tokenId);\n        IClovers(clovers).unmint(_tokenId);\n        setCommit(movesHash, 0);\n        setStake(movesHash, 0);\n        removeSymmetries(_tokenId);\n\n        address committer = getCommit(movesHash);\n        emit cloverChallenged(moves, _tokenId, committer, msg.sender, stake);\n        return true;\n    }\n\n\n    /**\n    * @dev Updates oracle Address.\n    * @param _oracle The new oracle Address.\n    */\n    function updateOracle(address _oracle) public onlyOwner {\n        oracle = _oracle;\n    }\n\n    /**\n    * @dev Updates clubTokenController Address.\n    * @param _clubTokenController The new clubTokenController address.\n    */\n    function updateClubTokenController(address _clubTokenController) public onlyOwner {\n        clubTokenController = _clubTokenController;\n    }\n    /**\n    * @dev Updates the stake amount.\n    * @param _stakeAmount The new amount needed to stake.\n    */\n    function updateStakeAmount(uint256 _stakeAmount) public onlyOwner {\n        stakeAmount = _stakeAmount;\n    }\n    /**\n    * @dev Updates the stake period.\n    * @param _stakePeriod The uint256 value of time needed to stake before being verified.\n    */\n    function updateStakePeriod(uint256 _stakePeriod) public onlyOwner {\n        stakePeriod = _stakePeriod;\n    }\n    /**\n    * @dev Updates the pay multiplier, used to calculate token reward.\n    * @param _payMultiplier The uint256 value of pay multiplier.\n    */\n    function updatePayMultipier(uint256 _payMultiplier) public onlyOwner {\n        payMultiplier = _payMultiplier;\n    }\n    /**\n    * @dev Updates the price multiplier, used to calculate the clover price (multiplied by the original reward).\n    * @param _priceMultiplier The uint256 value of the price multiplier.\n    */\n    function updatePriceMultipier(uint256 _priceMultiplier) public onlyOwner {\n        priceMultiplier = _priceMultiplier;\n    }\n    /**\n    * @dev Updates the base price, used to calculate the clover cost.\n    * @param _basePrice The uint256 value of the base price.\n    */\n    function updateBasePrice(uint256 _basePrice) public onlyOwner {\n        basePrice = _basePrice;\n    }\n\n    /**\n    * @dev Sets the stake of a Clover based on the hash of the moves.\n    * @param movesHash The hash of the moves that make up the clover.\n    * @param stake A uint256 value of stake.\n    */\n    function setStake(bytes32 movesHash, uint256 stake) private {\n        stakes[movesHash] = stake;\n    }\n\n    /**\n    * @dev Sets the address of the committer of a Clover based on the hash of the moves.\n    * @param movesHash The hash of the moves that make up the clover.\n    * @param committer The address of the committer.\n    */\n    function setCommit(bytes32 movesHash, address committer) private {\n        commits[movesHash] = committer;\n    }\n\n    /**\n    * @dev Adds new tallys of the totals numbers of clover symmetries.\n    * @param _tokenId The token which needs to be examined.\n    */\n    function addSymmetries(uint256 _tokenId) private {\n        uint256 Symmetricals;\n        uint256 RotSym;\n        uint256 Y0Sym;\n        uint256 X0Sym;\n        uint256 XYSym;\n        uint256 XnYSym;\n        (Symmetricals,\n        RotSym,\n        Y0Sym,\n        X0Sym,\n        XYSym,\n        XnYSym) = IClovers(clovers).getAllSymmetries();\n        uint256 _symmetries = IClovers(clovers).getSymmetries(_tokenId);\n        Symmetricals = Symmetricals.add(_symmetries > 0 ? 1 : 0);\n        RotSym = RotSym.add(uint256(_symmetries >> 4 & 1));\n        Y0Sym = Y0Sym.add(uint256(_symmetries >> 3 & 1));\n        X0Sym = X0Sym.add(uint256(_symmetries >> 2 & 1));\n        XYSym = XYSym.add(uint256(_symmetries >> 1 & 1));\n        XnYSym = XnYSym.add(uint256(_symmetries & 1));\n        IClovers(clovers).setAllSymmetries(Symmetricals, RotSym, Y0Sym, X0Sym, XYSym, XnYSym);\n    }\n    /**\n    * @dev Remove false tallys of the totals numbers of clover symmetries.\n    * @param _tokenId The token which needs to be examined.\n    */\n    function removeSymmetries(uint256 _tokenId) private {\n        uint256 Symmetricals;\n        uint256 RotSym;\n        uint256 Y0Sym;\n        uint256 X0Sym;\n        uint256 XYSym;\n        uint256 XnYSym;\n        (Symmetricals,\n        RotSym,\n        Y0Sym,\n        X0Sym,\n        XYSym,\n        XnYSym) = IClovers(clovers).getAllSymmetries();\n        uint256 _symmetries = IClovers(clovers).getSymmetries(_tokenId);\n        Symmetricals = Symmetricals.sub(_symmetries > 0 ? 1 : 0);\n        RotSym = RotSym.sub(uint256(_symmetries >> 4 & 1));\n        Y0Sym = Y0Sym.sub(uint256(_symmetries >> 3 & 1));\n        X0Sym = X0Sym.sub(uint256(_symmetries >> 2 & 1));\n        XYSym = XYSym.sub(uint256(_symmetries >> 1 & 1));\n        XnYSym = XnYSym.sub(uint256(_symmetries & 1));\n        IClovers(clovers).setAllSymmetries(Symmetricals, RotSym, Y0Sym, X0Sym, XYSym, XnYSym);\n    }\n\n}\n",
  "sourcePath": "/Users/billy/clovers/clovers-contracts/contracts/CloversController.sol",
  "compiler": {
    "name": "solc",
    "version": "0.4.24+commit.e67f0147.Emscripten.clang"
  },
  "schemaVersion": "2.0.1",
  "updatedAt": "2018-07-30T17:25:16.224Z"
}