{
  "contractName": "CloversController",
  "abi": [
    {
      "constant": true,
      "inputs": [],
      "name": "clovers",
      "outputs": [
        {
          "name": "",
          "type": "address"
        }
      ],
      "payable": false,
      "stateMutability": "view",
      "type": "function"
    },
    {
      "constant": false,
      "inputs": [
        {
          "name": "token",
          "type": "address"
        }
      ],
      "name": "reclaimToken",
      "outputs": [],
      "payable": false,
      "stateMutability": "nonpayable",
      "type": "function"
    },
    {
      "constant": true,
      "inputs": [],
      "name": "payMultiplier",
      "outputs": [
        {
          "name": "",
          "type": "uint256"
        }
      ],
      "payable": false,
      "stateMutability": "view",
      "type": "function"
    },
    {
      "constant": true,
      "inputs": [
        {
          "name": "",
          "type": "bytes32"
        }
      ],
      "name": "commits",
      "outputs": [
        {
          "name": "collected",
          "type": "bool"
        },
        {
          "name": "stake",
          "type": "uint256"
        },
        {
          "name": "committer",
          "type": "address"
        }
      ],
      "payable": false,
      "stateMutability": "view",
      "type": "function"
    },
    {
      "constant": true,
      "inputs": [],
      "name": "paused",
      "outputs": [
        {
          "name": "",
          "type": "bool"
        }
      ],
      "payable": false,
      "stateMutability": "view",
      "type": "function"
    },
    {
      "constant": true,
      "inputs": [],
      "name": "stakeAmount",
      "outputs": [
        {
          "name": "",
          "type": "uint256"
        }
      ],
      "payable": false,
      "stateMutability": "view",
      "type": "function"
    },
    {
      "constant": false,
      "inputs": [],
      "name": "renounceOwnership",
      "outputs": [],
      "payable": false,
      "stateMutability": "nonpayable",
      "type": "function"
    },
    {
      "constant": true,
      "inputs": [],
      "name": "curationMarket",
      "outputs": [
        {
          "name": "",
          "type": "address"
        }
      ],
      "payable": false,
      "stateMutability": "view",
      "type": "function"
    },
    {
      "constant": true,
      "inputs": [],
      "name": "gasLastUpdated_fastGasPrice_averageGasPrice_safeLowGasPrice",
      "outputs": [
        {
          "name": "",
          "type": "uint256"
        }
      ],
      "payable": false,
      "stateMutability": "view",
      "type": "function"
    },
    {
      "constant": true,
      "inputs": [],
      "name": "oracle",
      "outputs": [
        {
          "name": "",
          "type": "address"
        }
      ],
      "payable": false,
      "stateMutability": "view",
      "type": "function"
    },
    {
      "constant": true,
      "inputs": [],
      "name": "owner",
      "outputs": [
        {
          "name": "",
          "type": "address"
        }
      ],
      "payable": false,
      "stateMutability": "view",
      "type": "function"
    },
    {
      "constant": true,
      "inputs": [],
      "name": "simpleCloversMarket",
      "outputs": [
        {
          "name": "",
          "type": "address"
        }
      ],
      "payable": false,
      "stateMutability": "view",
      "type": "function"
    },
    {
      "constant": false,
      "inputs": [],
      "name": "reclaimEther",
      "outputs": [],
      "payable": false,
      "stateMutability": "nonpayable",
      "type": "function"
    },
    {
      "constant": true,
      "inputs": [],
      "name": "clubTokenController",
      "outputs": [
        {
          "name": "",
          "type": "address"
        }
      ],
      "payable": false,
      "stateMutability": "view",
      "type": "function"
    },
    {
      "constant": false,
      "inputs": [
        {
          "name": "from_",
          "type": "address"
        },
        {
          "name": "value_",
          "type": "uint256"
        },
        {
          "name": "data_",
          "type": "bytes"
        }
      ],
      "name": "tokenFallback",
      "outputs": [],
      "payable": false,
      "stateMutability": "nonpayable",
      "type": "function"
    },
    {
      "constant": true,
      "inputs": [],
      "name": "stakePeriod",
      "outputs": [
        {
          "name": "",
          "type": "uint256"
        }
      ],
      "payable": false,
      "stateMutability": "view",
      "type": "function"
    },
    {
      "constant": true,
      "inputs": [],
      "name": "basePrice",
      "outputs": [
        {
          "name": "",
          "type": "uint256"
        }
      ],
      "payable": false,
      "stateMutability": "view",
      "type": "function"
    },
    {
      "constant": true,
      "inputs": [],
      "name": "priceMultiplier",
      "outputs": [
        {
          "name": "",
          "type": "uint256"
        }
      ],
      "payable": false,
      "stateMutability": "view",
      "type": "function"
    },
    {
      "constant": true,
      "inputs": [],
      "name": "clubToken",
      "outputs": [
        {
          "name": "",
          "type": "address"
        }
      ],
      "payable": false,
      "stateMutability": "view",
      "type": "function"
    },
    {
      "constant": false,
      "inputs": [
        {
          "name": "_newOwner",
          "type": "address"
        }
      ],
      "name": "transferOwnership",
      "outputs": [],
      "payable": false,
      "stateMutability": "nonpayable",
      "type": "function"
    },
    {
      "inputs": [
        {
          "name": "_clovers",
          "type": "address"
        },
        {
          "name": "_clubToken",
          "type": "address"
        },
        {
          "name": "_clubTokenController",
          "type": "address"
        }
      ],
      "payable": false,
      "stateMutability": "nonpayable",
      "type": "constructor"
    },
    {
      "payable": false,
      "stateMutability": "nonpayable",
      "type": "fallback"
    },
    {
      "anonymous": false,
      "inputs": [
        {
          "indexed": false,
          "name": "movesHash",
          "type": "bytes32"
        },
        {
          "indexed": false,
          "name": "owner",
          "type": "address"
        }
      ],
      "name": "cloverCommitted",
      "type": "event"
    },
    {
      "anonymous": false,
      "inputs": [
        {
          "indexed": false,
          "name": "moves",
          "type": "bytes28[2]"
        },
        {
          "indexed": false,
          "name": "tokenId",
          "type": "uint256"
        },
        {
          "indexed": false,
          "name": "owner",
          "type": "address"
        },
        {
          "indexed": false,
          "name": "stake",
          "type": "uint256"
        },
        {
          "indexed": false,
          "name": "reward",
          "type": "uint256"
        },
        {
          "indexed": false,
          "name": "symmetries",
          "type": "uint256"
        },
        {
          "indexed": false,
          "name": "keep",
          "type": "bool"
        }
      ],
      "name": "cloverClaimed",
      "type": "event"
    },
    {
      "anonymous": false,
      "inputs": [
        {
          "indexed": false,
          "name": "tokenId",
          "type": "uint256"
        },
        {
          "indexed": false,
          "name": "owner",
          "type": "address"
        },
        {
          "indexed": false,
          "name": "stake",
          "type": "uint256"
        }
      ],
      "name": "stakeRetrieved",
      "type": "event"
    },
    {
      "anonymous": false,
      "inputs": [
        {
          "indexed": false,
          "name": "moves",
          "type": "bytes28[2]"
        },
        {
          "indexed": false,
          "name": "tokenId",
          "type": "uint256"
        },
        {
          "indexed": false,
          "name": "owner",
          "type": "address"
        },
        {
          "indexed": false,
          "name": "challenger",
          "type": "address"
        },
        {
          "indexed": false,
          "name": "stake",
          "type": "uint256"
        }
      ],
      "name": "cloverChallenged",
      "type": "event"
    },
    {
      "anonymous": false,
      "inputs": [
        {
          "indexed": true,
          "name": "previousOwner",
          "type": "address"
        }
      ],
      "name": "OwnershipRenounced",
      "type": "event"
    },
    {
      "anonymous": false,
      "inputs": [
        {
          "indexed": true,
          "name": "previousOwner",
          "type": "address"
        },
        {
          "indexed": true,
          "name": "newOwner",
          "type": "address"
        }
      ],
      "name": "OwnershipTransferred",
      "type": "event"
    },
    {
      "constant": true,
      "inputs": [
        {
          "name": "movesHash",
          "type": "bytes32"
        }
      ],
      "name": "getStake",
      "outputs": [
        {
          "name": "",
          "type": "uint256"
        }
      ],
      "payable": false,
      "stateMutability": "view",
      "type": "function"
    },
    {
      "constant": true,
      "inputs": [
        {
          "name": "movesHash",
          "type": "bytes32"
        }
      ],
      "name": "getCommit",
      "outputs": [
        {
          "name": "",
          "type": "address"
        }
      ],
      "payable": false,
      "stateMutability": "view",
      "type": "function"
    },
    {
      "constant": true,
      "inputs": [
        {
          "name": "_tokenId",
          "type": "uint256"
        }
      ],
      "name": "getMovesHash",
      "outputs": [
        {
          "name": "",
          "type": "bytes32"
        }
      ],
      "payable": false,
      "stateMutability": "view",
      "type": "function"
    },
    {
      "constant": true,
      "inputs": [
        {
          "name": "moves",
          "type": "bytes28[2]"
        }
      ],
      "name": "isValid",
      "outputs": [
        {
          "name": "",
          "type": "bool"
        }
      ],
      "payable": false,
      "stateMutability": "view",
      "type": "function"
    },
    {
      "constant": true,
      "inputs": [
        {
          "name": "error",
          "type": "bool"
        },
        {
          "name": "complete",
          "type": "bool"
        }
      ],
      "name": "isValidGame",
      "outputs": [
        {
          "name": "",
          "type": "bool"
        }
      ],
      "payable": false,
      "stateMutability": "pure",
      "type": "function"
    },
    {
      "constant": true,
      "inputs": [
        {
          "name": "_tokenId",
          "type": "uint256"
        }
      ],
      "name": "isVerified",
      "outputs": [
        {
          "name": "",
          "type": "bool"
        }
      ],
      "payable": false,
      "stateMutability": "view",
      "type": "function"
    },
    {
      "constant": true,
      "inputs": [
        {
          "name": "_symmetries",
          "type": "uint256"
        }
      ],
      "name": "calculateReward",
      "outputs": [
        {
          "name": "",
          "type": "uint256"
        }
      ],
      "payable": false,
      "stateMutability": "view",
      "type": "function"
    },
    {
      "constant": true,
      "inputs": [
        {
          "name": "_symmetries",
          "type": "uint256"
        }
      ],
      "name": "getPrice",
      "outputs": [
        {
          "name": "",
          "type": "uint256"
        }
      ],
      "payable": false,
      "stateMutability": "view",
      "type": "function"
    },
    {
      "constant": false,
      "inputs": [
        {
          "name": "_fastGasPrice",
          "type": "uint256"
        },
        {
          "name": "_averageGasPrice",
          "type": "uint256"
        },
        {
          "name": "_safeLowGasPrice",
          "type": "uint256"
        }
      ],
      "name": "updateGasPrices",
      "outputs": [],
      "payable": false,
      "stateMutability": "nonpayable",
      "type": "function"
    },
    {
      "constant": false,
      "inputs": [
        {
          "name": "moves",
          "type": "bytes28[2]"
        },
        {
          "name": "_tokenId",
          "type": "uint256"
        },
        {
          "name": "_symmetries",
          "type": "uint256"
        },
        {
          "name": "_keep",
          "type": "bool"
        }
      ],
      "name": "claimClover",
      "outputs": [
        {
          "name": "",
          "type": "bool"
        }
      ],
      "payable": true,
      "stateMutability": "payable",
      "type": "function"
    },
    {
      "constant": false,
      "inputs": [
        {
          "name": "_tokenId",
          "type": "uint256"
        },
        {
          "name": "_fastGasPrice",
          "type": "uint256"
        },
        {
          "name": "_averageGasPrice",
          "type": "uint256"
        },
        {
          "name": "_safeLowGasPrice",
          "type": "uint256"
        }
      ],
      "name": "retrieveStakeWithGas",
      "outputs": [
        {
          "name": "",
          "type": "bool"
        }
      ],
      "payable": true,
      "stateMutability": "payable",
      "type": "function"
    },
    {
      "constant": false,
      "inputs": [
        {
          "name": "_tokenId",
          "type": "uint256"
        }
      ],
      "name": "retrieveStake",
      "outputs": [
        {
          "name": "",
          "type": "bool"
        }
      ],
      "payable": true,
      "stateMutability": "payable",
      "type": "function"
    },
    {
      "constant": true,
      "inputs": [
        {
          "name": "_board",
          "type": "bytes16"
        }
      ],
      "name": "convertBytes16ToUint",
      "outputs": [
        {
          "name": "number",
          "type": "uint256"
        }
      ],
      "payable": false,
      "stateMutability": "view",
      "type": "function"
    },
    {
      "constant": false,
      "inputs": [
        {
          "name": "_tokenId",
          "type": "uint256"
        },
        {
          "name": "_fastGasPrice",
          "type": "uint256"
        },
        {
          "name": "_averageGasPrice",
          "type": "uint256"
        },
        {
          "name": "_safeLowGasPrice",
          "type": "uint256"
        }
      ],
      "name": "challengeCloverWithGas",
      "outputs": [
        {
          "name": "",
          "type": "bool"
        }
      ],
      "payable": false,
      "stateMutability": "nonpayable",
      "type": "function"
    },
    {
      "constant": false,
      "inputs": [
        {
          "name": "_tokenId",
          "type": "uint256"
        }
      ],
      "name": "challengeClover",
      "outputs": [
        {
          "name": "",
          "type": "bool"
        }
      ],
      "payable": false,
      "stateMutability": "nonpayable",
      "type": "function"
    },
    {
      "constant": false,
      "inputs": [
        {
          "name": "_from",
          "type": "address"
        },
        {
          "name": "_to",
          "type": "address"
        },
        {
          "name": "_tokenId",
          "type": "uint256"
        }
      ],
      "name": "transferFrom",
      "outputs": [],
      "payable": false,
      "stateMutability": "nonpayable",
      "type": "function"
    },
    {
      "constant": false,
      "inputs": [
        {
          "name": "_paused",
          "type": "bool"
        }
      ],
      "name": "updatePaused",
      "outputs": [],
      "payable": false,
      "stateMutability": "nonpayable",
      "type": "function"
    },
    {
      "constant": false,
      "inputs": [
        {
          "name": "_curationMarket",
          "type": "address"
        }
      ],
      "name": "updateCurationMarket",
      "outputs": [],
      "payable": false,
      "stateMutability": "nonpayable",
      "type": "function"
    },
    {
      "constant": false,
      "inputs": [
        {
          "name": "_oracle",
          "type": "address"
        }
      ],
      "name": "updateOracle",
      "outputs": [],
      "payable": false,
      "stateMutability": "nonpayable",
      "type": "function"
    },
    {
      "constant": false,
      "inputs": [
        {
          "name": "_simpleCloversMarket",
          "type": "address"
        }
      ],
      "name": "updateSimpleCloversMarket",
      "outputs": [],
      "payable": false,
      "stateMutability": "nonpayable",
      "type": "function"
    },
    {
      "constant": false,
      "inputs": [
        {
          "name": "_clubTokenController",
          "type": "address"
        }
      ],
      "name": "updateClubTokenController",
      "outputs": [],
      "payable": false,
      "stateMutability": "nonpayable",
      "type": "function"
    },
    {
      "constant": false,
      "inputs": [
        {
          "name": "_stakeAmount",
          "type": "uint256"
        }
      ],
      "name": "updateStakeAmount",
      "outputs": [],
      "payable": false,
      "stateMutability": "nonpayable",
      "type": "function"
    },
    {
      "constant": false,
      "inputs": [
        {
          "name": "_stakePeriod",
          "type": "uint256"
        }
      ],
      "name": "updateStakePeriod",
      "outputs": [],
      "payable": false,
      "stateMutability": "nonpayable",
      "type": "function"
    },
    {
      "constant": false,
      "inputs": [
        {
          "name": "_payMultiplier",
          "type": "uint256"
        }
      ],
      "name": "updatePayMultipier",
      "outputs": [],
      "payable": false,
      "stateMutability": "nonpayable",
      "type": "function"
    },
    {
      "constant": false,
      "inputs": [
        {
          "name": "_priceMultiplier",
          "type": "uint256"
        }
      ],
      "name": "updatePriceMultipier",
      "outputs": [],
      "payable": false,
      "stateMutability": "nonpayable",
      "type": "function"
    },
    {
      "constant": false,
      "inputs": [
        {
          "name": "_basePrice",
          "type": "uint256"
        }
      ],
      "name": "updateBasePrice",
      "outputs": [],
      "payable": false,
      "stateMutability": "nonpayable",
      "type": "function"
    },
    {
      "constant": false,
      "inputs": [
        {
          "name": "movesHash",
          "type": "bytes32"
        },
        {
          "name": "committer",
          "type": "address"
        }
      ],
      "name": "_setCommit",
      "outputs": [],
      "payable": false,
      "stateMutability": "nonpayable",
      "type": "function"
    }
  ],
  "bytecode": "0x608060405234801561001057600080fd5b50604051606080620044cd83398101604090815281516020830151919092015160008054600160a060020a03191633179055341561004d57600080fd5b60028054600160a060020a03948516600160a060020a0319918216179091556003805493851693821693909317909255600480549190931691161790556000805460a060020a60ff0219167401000000000000000000000000000000000000000017905561440c80620000c16000396000f3006080604052600436106102395763ffffffff7c01000000000000000000000000000000000000000000000000000000006000350416627173c8811461024857806308cdc2a8146102785780630d576bfa1461029257806317ffc320146102d05780631cb44dfc146102fe578063225c35b21461032c57806323b872dd1461035f578063271eff941461039657806337b6d96b146103d65780633afcba96146103ee57806343be08801461041557806346d2ce201461045657806347885781146104875780635759f3f7146104d55780635c975abb146104ed57806360c7dc4714610502578063715018a61461051757806372420f061461052c578063776438ea146105415780637b7db9fa146105555780637cce46561461056d5780637dc0d1d0146105825780638784ea96146105975780638a05aafa146105af5780638da5cb5b146105c75780639273c2f3146105dc5780639564e180146105fa578063975e4b2a146106285780639f727c271461063d578063a4a83ca614610652578063a7e901b01461067d578063a89b55da14610695578063c0ee0b8a146106aa578063c1699a99146106e8578063c1fe551a146106fd578063c4fefe8014610708578063c7876ea414610729578063c90054ee1461073e578063d010ed7014610756578063d09687f714610784578063d2d7231f1461079c578063d50cb88b146107b4578063d76bbd52146107c9578063e7572230146107de578063e765c122146107f6578063f2fde38b1461080e578063fd5baa881461083c575b34801561024557600080fd5b50005b34801561025457600080fd5b5061027673ffffffffffffffffffffffffffffffffffffffff60043516610854565b005b34801561028457600080fd5b5061027660043515156108bf565b34801561029e57600080fd5b506102a761092d565b6040805173ffffffffffffffffffffffffffffffffffffffff9092168252519081900360200190f35b3480156102dc57600080fd5b5061027673ffffffffffffffffffffffffffffffffffffffff60043516610949565b34801561030a57600080fd5b5061027673ffffffffffffffffffffffffffffffffffffffff60043516610a3c565b34801561033857600080fd5b5061034b60043515156024351515610aa7565b604080519115158252519081900360200190f35b34801561036b57600080fd5b5061027673ffffffffffffffffffffffffffffffffffffffff60043581169060243516604435610ad0565b3480156103a257600080fd5b5060408051808201825261034b913691600491604491908390600290839083908082843750939650610bb895505050505050565b3480156103e257600080fd5b5061034b600435610be8565b3480156103fa57600080fd5b50610403610cb9565b60408051918252519081900360200190f35b60408051808201825261034b913691600491604491908390600290839083908082843750939650508335945050506020820135916040013515159050610cbf565b34801561046257600080fd5b5061027660043573ffffffffffffffffffffffffffffffffffffffff602435166116e5565b34801561049357600080fd5b5061049f600435611713565b604080519315158452602084019290925273ffffffffffffffffffffffffffffffffffffffff1682820152519081900360600190f35b3480156104e157600080fd5b5061027660043561174e565b3480156104f957600080fd5b5061034b611777565b34801561050e57600080fd5b50610403611798565b34801561052357600080fd5b5061027661179e565b34801561053857600080fd5b506102a761182f565b61034b60043560243560443560643561184b565b34801561056157600080fd5b5061034b6004356118b6565b34801561057957600080fd5b50610403611dc5565b34801561058e57600080fd5b506102a7611dcb565b3480156105a357600080fd5b506102a7600435611de7565b3480156105bb57600080fd5b50610276600435611e12565b3480156105d357600080fd5b506102a7611e3b565b3480156105e857600080fd5b50610276600435602435604435611e57565b34801561060657600080fd5b5061027673ffffffffffffffffffffffffffffffffffffffff60043516611ef0565b34801561063457600080fd5b506102a7611f5b565b34801561064957600080fd5b50610276611f77565b34801561065e57600080fd5b506104036fffffffffffffffffffffffffffffffff1960043516611fe6565b34801561068957600080fd5b50610276600435612046565b3480156106a157600080fd5b506102a761206f565b3480156106b657600080fd5b506102766004803573ffffffffffffffffffffffffffffffffffffffff1690602480359160443591820191013561208b565b3480156106f457600080fd5b50610403612090565b61034b600435612096565b34801561071457600080fd5b5061034b600435602435604435606435612712565b34801561073557600080fd5b50610403612780565b34801561074a57600080fd5b50610276600435612786565b34801561076257600080fd5b5061027673ffffffffffffffffffffffffffffffffffffffff600435166127af565b34801561079057600080fd5b5061040360043561281a565b3480156107a857600080fd5b50610403600435612903565b3480156107c057600080fd5b50610403612b11565b3480156107d557600080fd5b506102a7612b17565b3480156107ea57600080fd5b50610403600435612b33565b34801561080257600080fd5b50610403600435612b41565b34801561081a57600080fd5b5061027673ffffffffffffffffffffffffffffffffffffffff60043516612b56565b34801561084857600080fd5b50610276600435612b83565b60005473ffffffffffffffffffffffffffffffffffffffff16331461087857600080fd5b600680547fffffffffffffffffffffffff00000000000000000000000000000000000000001673ffffffffffffffffffffffffffffffffffffffff92909216919091179055565b60005473ffffffffffffffffffffffffffffffffffffffff1633146108e357600080fd5b6000805491151574010000000000000000000000000000000000000000027fffffffffffffffffffffff00ffffffffffffffffffffffffffffffffffffffff909216919091179055565b60025473ffffffffffffffffffffffffffffffffffffffff1681565b6000805473ffffffffffffffffffffffffffffffffffffffff16331461096e57600080fd5b604080517f70a08231000000000000000000000000000000000000000000000000000000008152306004820152905173ffffffffffffffffffffffffffffffffffffffff8416916370a082319160248083019260209291908290030181600087803b1580156109dc57600080fd5b505af11580156109f0573d6000803e3d6000fd5b505050506040513d6020811015610a0657600080fd5b5051600054909150610a389073ffffffffffffffffffffffffffffffffffffffff84811691168363ffffffff612bac16565b5050565b60005473ffffffffffffffffffffffffffffffffffffffff163314610a6057600080fd5b600180547fffffffffffffffffffffffff00000000000000000000000000000000000000001673ffffffffffffffffffffffffffffffffffffffff92909216919091179055565b60008215610ab757506000610aca565b811515610ac657506000610aca565b5060015b92915050565b60055473ffffffffffffffffffffffffffffffffffffffff16331480610b0d575060065473ffffffffffffffffffffffffffffffffffffffff1633145b1515610b1857600080fd5b600254604080517f23b872dd00000000000000000000000000000000000000000000000000000000815273ffffffffffffffffffffffffffffffffffffffff8681166004830152858116602483015260448201859052915191909216916323b872dd91606480830192600092919082900301818387803b158015610b9b57600080fd5b505af1158015610baf573d6000803e3d6000fd5b50505050505050565b6000610bc26142eb565b610bcb83612c8b565b9050610bdf81600001518260200151610aa7565b91505b50919050565b600254604080517f03a53d6b000000000000000000000000000000000000000000000000000000008152600481018490529051600092839273ffffffffffffffffffffffffffffffffffffffff909116916303a53d6b9160248082019260209290919082900301818787803b158015610c6057600080fd5b505af1158015610c74573d6000803e3d6000fd5b505050506040513d6020811015610c8a57600080fd5b50519050801515610c9e5760009150610be2565b600c54610cb1438363ffffffff612ec016565b119392505050565b600a5481565b600080600080600080600060149054906101000a900460ff16151515610d4657604080517f08c379a000000000000000000000000000000000000000000000000000000000815260206004820152601260248201527f4d757374206e6f74206265207061757365640000000000000000000000000000604482015290519081900360640190fd5b7f1c3b3e1e72950ae52150ec48810521d17cea4b30c2a59c807d1ba2f8dff57e658a8a338c8d8d8d6040518088600260200280838360005b83811015610d96578181015183820152602001610d7e565b5050505091909101978852505073ffffffffffffffffffffffffffffffffffffffff90941660208601526040808601939093526060850191909152608084015290151560a0830152519081900360c0019150a1896040518082600260200280838360005b83811015610e12578181015183820152602001610dfa565b505050509050019150506040518091039020945060806007549060020a900467ffffffffffffffff169350610e5284600b54612ed290919063ffffffff16565b925034831115610e6157600080fd5b610e6a85611de7565b73ffffffffffffffffffffffffffffffffffffffff1615610e8a57600080fd5b610e948533612efb565b6000831115610ef057610ea78584612f51565b60025460405173ffffffffffffffffffffffffffffffffffffffff9091169084156108fc029085906000818181858888f19350505050158015610eee573d6000803e3d6000fd5b505b6040805186815233602082015281517f4c0f83654ac2972673e4d81058f833de298389df1dce04cc2db9f231b907d5ff929181900390910190a1600254604080517f4f558e79000000000000000000000000000000000000000000000000000000008152600481018c9052905173ffffffffffffffffffffffffffffffffffffffff90921691634f558e79916024808201926020929091908290030181600087803b158015610f9e57600080fd5b505af1158015610fb2573d6000803e3d6000fd5b505050506040513d6020811015610fc857600080fd5b505115610fd457600080fd5b600254604080517f03a53d6b000000000000000000000000000000000000000000000000000000008152600481018c9052905173ffffffffffffffffffffffffffffffffffffffff909216916303a53d6b916024808201926020929091908290030181600087803b15801561104857600080fd5b505af115801561105c573d6000803e3d6000fd5b505050506040513d602081101561107257600080fd5b50511561107e57600080fd5b600254604080517fe3100d1e000000000000000000000000000000000000000000000000000000008152600481018c9052436024820152905173ffffffffffffffffffffffffffffffffffffffff9092169163e3100d1e9160448082019260009290919082900301818387803b1580156110f757600080fd5b505af115801561110b573d6000803e3d6000fd5b5050600254604080517f0b628395000000000000000000000000000000000000000000000000000000008152600481018e815273ffffffffffffffffffffffffffffffffffffffff9093169450630b62839593508d928f92909160240190839080838360005b83811015611189578181015183820152602001611171565b5050505090500192505050600060405180830381600087803b1580156111ae57600080fd5b505af11580156111c2573d6000803e3d6000fd5b5050600254604080517f76e4a87f000000000000000000000000000000000000000000000000000000008152600481018e90528b15156024820152905173ffffffffffffffffffffffffffffffffffffffff90921693506376e4a87f925060448082019260009290919082900301818387803b15801561124157600080fd5b505af1158015611255573d6000803e3d6000fd5b50505050600088111561139357600254604080517fdc3f7758000000000000000000000000000000000000000000000000000000008152600481018c9052602481018b9052905173ffffffffffffffffffffffffffffffffffffffff9092169163dc3f77589160448082019260009290919082900301818387803b1580156112dc57600080fd5b505af11580156112f0573d6000803e3d6000fd5b505050506112fd88612903565b600254604080517fa47bd496000000000000000000000000000000000000000000000000000000008152600481018d905260248101849052905192945073ffffffffffffffffffffffffffffffffffffffff9091169163a47bd4969160448082019260009290919082900301818387803b15801561137a57600080fd5b505af115801561138e573d6000803e3d6000fd5b505050505b6008546113a6908363ffffffff612f6616565b90508680156113b55750600081115b156115a057600354604080517f70a082310000000000000000000000000000000000000000000000000000000081523360048201529051839273ffffffffffffffffffffffffffffffffffffffff16916370a082319160248083019260209291908290030181600087803b15801561142c57600080fd5b505af1158015611440573d6000803e3d6000fd5b505050506040513d602081101561145657600080fd5b5051101561150e5760045473ffffffffffffffffffffffffffffffffffffffff1663f088d54761148c348663ffffffff612ec016565b604080517c010000000000000000000000000000000000000000000000000000000063ffffffff85160281523360048201529051602480830192602092919082900301818588803b1580156114e057600080fd5b505af11580156114f4573d6000803e3d6000fd5b50505050506040513d602081101561150b57600080fd5b50505b600354604080517f9dc29fac00000000000000000000000000000000000000000000000000000000815233600482015260248101849052905173ffffffffffffffffffffffffffffffffffffffff90921691639dc29fac9160448082019260009290919082900301818387803b15801561158757600080fd5b505af115801561159b573d6000803e3d6000fd5b505050505b600254604080517f40c10f1900000000000000000000000000000000000000000000000000000000815273ffffffffffffffffffffffffffffffffffffffff90921660048301819052602483018c9052905190916340c10f1991604480830192600092919082900301818387803b15801561161a57600080fd5b505af115801561162e573d6000803e3d6000fd5b505050507f1c3b3e1e72950ae52150ec48810521d17cea4b30c2a59c807d1ba2f8dff57e658a8a3386868d8d6040518088600260200280838360005b8381101561168257818101518382015260200161166a565b5050505091909101978852505073ffffffffffffffffffffffffffffffffffffffff90941660208601526040808601939093526060850191909152608084015290151560a0830152519081900360c0019150a15060019998505050505050505050565b60005473ffffffffffffffffffffffffffffffffffffffff16331461170957600080fd5b610a388282612efb565b600d6020526000908152604090208054600182015460029092015460ff909116919073ffffffffffffffffffffffffffffffffffffffff1683565b60005473ffffffffffffffffffffffffffffffffffffffff16331461177257600080fd5b600c55565b60005474010000000000000000000000000000000000000000900460ff1681565b600b5481565b60005473ffffffffffffffffffffffffffffffffffffffff1633146117c257600080fd5b6000805460405173ffffffffffffffffffffffffffffffffffffffff909116917ff8df31144d9c2f0f6b59d69b8b98abd5459d07f2742c4df920b25aae33c6482091a2600080547fffffffffffffffffffffffff0000000000000000000000000000000000000000169055565b60065473ffffffffffffffffffffffffffffffffffffffff1681565b600061185685612096565b151561186157600080fd5b60005473ffffffffffffffffffffffffffffffffffffffff1633148061189e575060015473ffffffffffffffffffffffffffffffffffffffff1633145b156118ae576118ae848484611e57565b949350505050565b6000806118c1614367565b6118c96142eb565b600254604080517f62f9acf90000000000000000000000000000000000000000000000000000000081526004810188905281516001965060009384938493849373ffffffffffffffffffffffffffffffffffffffff909316926362f9acf99260248084019391929182900301818787803b15801561194657600080fd5b505af115801561195a573d6000803e3d6000fd5b505050506040513d601f19601f82011682018060405250604081101561197f57600080fd5b5060005490965073ffffffffffffffffffffffffffffffffffffffff1633148015906119c3575060015473ffffffffffffffffffffffffffffffffffffffff163314155b15611b6a576119d186612c8b565b9450886119e2866101000151611fe6565b146119ec57600096505b868015611a065750611a0685600001518660200151610aa7565b15611b5a57600254604080517fc53b4bf9000000000000000000000000000000000000000000000000000000008152600481018c9052905173ffffffffffffffffffffffffffffffffffffffff9092169163c53b4bf9916024808201926020929091908290030181600087803b158015611a7f57600080fd5b505af1158015611a93573d6000803e3d6000fd5b505050506040513d6020811015611aa957600080fd5b5051606086015190945015156000601086046001161114611acb576000611acd565b865b608086015190975015156000600886046001161114611aed576000611aef565b865b60a086015190975015156000600486046001161114611b0f576000611b11565b865b60c086015190975015156000600160028704161114611b31576000611b33565b865b96508460e00151151560008560011611151514611b51576000611b53565b865b9650611b5f565b600096505b8615611b6a57600080fd5b856040518082600260200280838360005b83811015611b93578181015183820152602001611b7b565b5050505090500191505060405180910390209250611bb083612b41565b9150611bbb89610be8565b158015611bc85750600082115b15611c5f57600254604080517f1cc1472d00000000000000000000000000000000000000000000000000000000815233600482015260248101859052905173ffffffffffffffffffffffffffffffffffffffff90921691631cc1472d9160448082019260009290919082900301818387803b158015611c4657600080fd5b505af1158015611c5a573d6000803e3d6000fd5b505050505b6000838152600d602052604090205460ff1615611c7f57611c7f89612f73565b611c8883611de7565b90507f23e709ab80a4bee9454ba0d08c0b669d684531b4ec766524c43abd788cc3ca76868a8333866040518086600260200280838360005b83811015611cd8578181015183820152602001611cc0565b5050505091909101958652505073ffffffffffffffffffffffffffffffffffffffff92831660208501529116604080840191909152606083019190915251908190036080019150a1600254604080517f0e8310d6000000000000000000000000000000000000000000000000000000008152600481018c9052905173ffffffffffffffffffffffffffffffffffffffff90921691630e8310d69160248082019260009290919082900301818387803b158015611d9357600080fd5b505af1158015611da7573d6000803e3d6000fd5b50505050611db48361329d565b600197505b50505050505050919050565b60075481565b60015473ffffffffffffffffffffffffffffffffffffffff1681565b6000908152600d602052604090206002015473ffffffffffffffffffffffffffffffffffffffff1690565b60005473ffffffffffffffffffffffffffffffffffffffff163314611e3657600080fd5b600a55565b60005473ffffffffffffffffffffffffffffffffffffffff1681565b6000805481908190819073ffffffffffffffffffffffffffffffffffffffff16331480611e9b575060015473ffffffffffffffffffffffffffffffffffffffff1633145b1515611ea657600080fd5b505050507001000000000000000000000000000000009092027801000000000000000000000000000000000000000000000000430216680100000000000000009091021616600755565b60005473ffffffffffffffffffffffffffffffffffffffff163314611f1457600080fd5b600480547fffffffffffffffffffffffff00000000000000000000000000000000000000001673ffffffffffffffffffffffffffffffffffffffff92909216919091179055565b60055473ffffffffffffffffffffffffffffffffffffffff1681565b60005473ffffffffffffffffffffffffffffffffffffffff163314611f9b57600080fd5b6000805460405173ffffffffffffffffffffffffffffffffffffffff90911691303180156108fc02929091818181858888f19350505050158015611fe3573d6000803e3d6000fd5b50565b6000805b6010811015610be25780600101601060ff160360080260020a838260108110151561201157fe5b7f010000000000000000000000000000000000000000000000000000000000000091901a810204029190910190600101611fea565b60005473ffffffffffffffffffffffffffffffffffffffff16331461206a57600080fd5b600955565b60045473ffffffffffffffffffffffffffffffffffffffff1681565b600080fd5b600c5481565b60006120a0614367565b600254604080517f62f9acf9000000000000000000000000000000000000000000000000000000008152600481018690528151600093849384938493849373ffffffffffffffffffffffffffffffffffffffff16926362f9acf9926024808201939182900301818787803b15801561211757600080fd5b505af115801561212b573d6000803e3d6000fd5b505050506040513d601f19601f82011682018060405250604081101561215057600080fd5b50604080519197508791908190839080838360005b8381101561217d578181015183820152602001612165565b505060408051959093018590039094206000818152600d6020529290922054919a505060ff161593506121b39250505057600080fd5b6000858152600d6020526040902080547fffffffffffffffffffffffffffffffffffffffffffffffffffffffffffffff001660011790556121f388610be8565b80612215575060005473ffffffffffffffffffffffffffffffffffffffff1633145b80612237575060015473ffffffffffffffffffffffffffffffffffffffff1633145b151561224257600080fd5b61224b85612b41565b935061225688613304565b61225f85611de7565b925073ffffffffffffffffffffffffffffffffffffffff831633148061229c575060005473ffffffffffffffffffffffffffffffffffffffff1633145b806122be575060015473ffffffffffffffffffffffffffffffffffffffff1633145b15156122c957600080fd5b600254604080517f1c4b774b000000000000000000000000000000000000000000000000000000008152600481018b9052905173ffffffffffffffffffffffffffffffffffffffff90921691631c4b774b916024808201926020929091908290030181600087803b15801561233d57600080fd5b505af1158015612351573d6000803e3d6000fd5b505050506040513d602081101561236757600080fd5b5051600254604080517f04952631000000000000000000000000000000000000000000000000000000008152600481018c9052905192945073ffffffffffffffffffffffffffffffffffffffff909116916304952631916024808201926020929091908290030181600087803b1580156123e057600080fd5b505af11580156123f4573d6000803e3d6000fd5b505050506040513d602081101561240a57600080fd5b5051905080156124b257600254604080517f23b872dd00000000000000000000000000000000000000000000000000000000815273ffffffffffffffffffffffffffffffffffffffff928316600482018190529286166024820152604481018b905290516323b872dd9160648082019260009290919082900301818387803b15801561249557600080fd5b505af11580156124a9573d6000803e3d6000fd5b5050505061262a565b60055460095473ffffffffffffffffffffffffffffffffffffffff9091169063d79875eb908a906124fd906124ee90879063ffffffff612ed216565b6008549063ffffffff612f6616565b6040518363ffffffff167c01000000000000000000000000000000000000000000000000000000000281526004018083815260200182815260200192505050600060405180830381600087803b15801561255657600080fd5b505af115801561256a573d6000803e3d6000fd5b50505050600082111561262a57600354604080517f40c10f1900000000000000000000000000000000000000000000000000000000815273ffffffffffffffffffffffffffffffffffffffff868116600483015260248201869052915191909216916340c10f199160448083019260209291908290030181600087803b1580156125f357600080fd5b505af1158015612607573d6000803e3d6000fd5b505050506040513d602081101561261d57600080fd5b5051151561262a57600080fd5b60008411156126c557600254604080517f1cc1472d00000000000000000000000000000000000000000000000000000000815233600482015260248101879052905173ffffffffffffffffffffffffffffffffffffffff90921691631cc1472d9160448082019260009290919082900301818387803b1580156126ac57600080fd5b505af11580156126c0573d6000803e3d6000fd5b505050505b6040805189815233602082015280820186905290517fa8a1a24efbea93a5c7f29342ba7652cd030828e12cc15c1416480fecee73d5899181900360600190a1506001979650505050505050565b600061271d856118b6565b151561272857600080fd5b60005473ffffffffffffffffffffffffffffffffffffffff16331480612765575060015473ffffffffffffffffffffffffffffffffffffffff1633145b1561277557612775848484611e57565b506001949350505050565b60085481565b60005473ffffffffffffffffffffffffffffffffffffffff1633146127aa57600080fd5b600b55565b60005473ffffffffffffffffffffffffffffffffffffffff1633146127d357600080fd5b600580547fffffffffffffffffffffffff00000000000000000000000000000000000000001673ffffffffffffffffffffffffffffffffffffffff92909216919091179055565b600254604080517f62f9acf900000000000000000000000000000000000000000000000000000000815260048101849052815160009373ffffffffffffffffffffffffffffffffffffffff16926362f9acf9926024808201939182900301818787803b15801561288957600080fd5b505af115801561289d573d6000803e3d6000fd5b505050506040513d601f19601f8201168201806040525060408110156128c257600080fd5b5060408051908190839080838360005b838110156128ea5781810151838201526020016128d2565b5050505090500191505060405180910390209050919050565b600080600080600080600080600260009054906101000a900473ffffffffffffffffffffffffffffffffffffffff1673ffffffffffffffffffffffffffffffffffffffff1663785d8d716040518163ffffffff167c010000000000000000000000000000000000000000000000000000000002815260040160c060405180830381600087803b15801561299557600080fd5b505af11580156129a9573d6000803e3d6000fd5b505050506040513d60c08110156129bf57600080fd5b508051602082015160408301516060840151608085015160a090950151939b5091995097509550909350915060009050600160108a0481161415612a3b57612a38612a2b87600101612a1f8a600101600a54612ed290919063ffffffff16565b9063ffffffff61357316565b829063ffffffff612f6616565b90505b600160088a0481161415612a6e57612a6b612a2b86600101612a1f8a600101600a54612ed290919063ffffffff16565b90505b600160048a0481161415612aa157612a9e612a2b85600101612a1f8a600101600a54612ed290919063ffffffff16565b90505b600160028a0481161415612ad457612ad1612a2b84600101612a1f8a600101600a54612ed290919063ffffffff16565b90505b8860011660011415612b0557612b02612a2b83600101612a1f8a600101600a54612ed290919063ffffffff16565b90505b98975050505050505050565b60095481565b60035473ffffffffffffffffffffffffffffffffffffffff1681565b6000610aca6124ee83612903565b6000908152600d602052604090206001015490565b60005473ffffffffffffffffffffffffffffffffffffffff163314612b7a57600080fd5b611fe381613588565b60005473ffffffffffffffffffffffffffffffffffffffff163314612ba757600080fd5b600855565b8273ffffffffffffffffffffffffffffffffffffffff1663a9059cbb83836040518363ffffffff167c0100000000000000000000000000000000000000000000000000000000028152600401808373ffffffffffffffffffffffffffffffffffffffff1673ffffffffffffffffffffffffffffffffffffffff16815260200182815260200192505050602060405180830381600087803b158015612c4f57600080fd5b505af1158015612c63573d6000803e3d6000fd5b505050506040513d6020811015612c7957600080fd5b50511515612c8657600080fd5b505050565b612c936142eb565b612c9b6142eb565b82517fffffffffffffffffffffffffffffffffffffffffffffffffffffffff000000009081166101208301526020808501519091166101408301526000610180830181905260026101a084018190526101c084015280835290820181905260016101608301527ffffffffffffffe7ffdbfffffffffffff0000000000000000000000000000000061010083015280808080805b603c8260ff16108015612d3f575085155b15612e9057602087610180015160ff1610612d5f57866101400151612d66565b8661012001515b9050612d8881602089610180015160ff16811515612d8057fe5b066020613637565b9450612d93856136a6565b9094509250612da1856136e1565b15955060ff8216158015612dc757508360ff166002141580612dc757508260ff16600314155b15612dd457600180885295505b85158015612de5575060088460ff16105b8015612df4575060088360ff16105b8015612e04575060008460ff1610155b8015612e14575060008360ff1610155b15612e8557612e248785856136ee565b6101808101805160010160ff169052805190975015612e85576000875261016087015160ff1660011415612e5f576002610160880152612e68565b60016101608801525b612e738785856136ee565b805190975015612e8557600180885295505b600190910190612d2e565b86511515612eb35760008752612ea587613962565b9650612eb087613b5e565b96505b5094979650505050505050565b600082821115612ecc57fe5b50900390565b6000821515612ee357506000610aca565b50818102818382811515612ef357fe5b0414610aca57fe5b6000918252600d602052604090912060020180547fffffffffffffffffffffffff00000000000000000000000000000000000000001673ffffffffffffffffffffffffffffffffffffffff909216919091179055565b6000918252600d602052604090912060010155565b81810182811015610aca57fe5b6000806000806000806000600260009054906101000a900473ffffffffffffffffffffffffffffffffffffffff1673ffffffffffffffffffffffffffffffffffffffff1663785d8d716040518163ffffffff167c010000000000000000000000000000000000000000000000000000000002815260040160c060405180830381600087803b15801561300457600080fd5b505af1158015613018573d6000803e3d6000fd5b505050506040513d60c081101561302e57600080fd5b81019080805190602001909291908051906020019092919080519060200190929190805190602001909291908051906020019092919080519060200190929190505050809750819850829950839a50849b50859c50505050505050600260009054906101000a900473ffffffffffffffffffffffffffffffffffffffff1673ffffffffffffffffffffffffffffffffffffffff1663c53b4bf9896040518263ffffffff167c010000000000000000000000000000000000000000000000000000000002815260040180828152602001915050602060405180830381600087803b15801561311a57600080fd5b505af115801561312e573d6000803e3d6000fd5b505050506040513d602081101561314457600080fd5b5051905061316d6000821161315a57600061315d565b60015b889060ff1663ffffffff612ec016565b9650613185866001601084041663ffffffff612ec016565b955061319d856001600884041663ffffffff612ec016565b94506131b5846001600484041663ffffffff612ec016565b93506131cd836002830460011663ffffffff612ec016565b92506131e2826001831663ffffffff612ec016565b600254604080517f8b1b2ba8000000000000000000000000000000000000000000000000000000008152600481018b9052602481018a905260448101899052606481018890526084810187905260a48101849052905192945073ffffffffffffffffffffffffffffffffffffffff90911691638b1b2ba89160c48082019260009290919082900301818387803b15801561327b57600080fd5b505af115801561328f573d6000803e3d6000fd5b505050505050505050505050565b6000908152600d6020526040812080547fffffffffffffffffffffffffffffffffffffffffffffffffffffffffffffff00168155600181019190915560020180547fffffffffffffffffffffffff0000000000000000000000000000000000000000169055565b6000806000806000806000600260009054906101000a900473ffffffffffffffffffffffffffffffffffffffff1673ffffffffffffffffffffffffffffffffffffffff1663785d8d716040518163ffffffff167c010000000000000000000000000000000000000000000000000000000002815260040160c060405180830381600087803b15801561339557600080fd5b505af11580156133a9573d6000803e3d6000fd5b505050506040513d60c08110156133bf57600080fd5b81019080805190602001909291908051906020019092919080519060200190929190805190602001909291908051906020019092919080519060200190929190505050809750819850829950839a50849b50859c50505050505050600260009054906101000a900473ffffffffffffffffffffffffffffffffffffffff1673ffffffffffffffffffffffffffffffffffffffff1663c53b4bf9896040518263ffffffff167c010000000000000000000000000000000000000000000000000000000002815260040180828152602001915050602060405180830381600087803b1580156134ab57600080fd5b505af11580156134bf573d6000803e3d6000fd5b505050506040513d60208110156134d557600080fd5b505190506134fe600082116134eb5760006134ee565b60015b889060ff1663ffffffff612f6616565b9650613516866001601084041663ffffffff612f6616565b955061352e856001600884041663ffffffff612f6616565b9450613546846001600484041663ffffffff612f6616565b935061355e836002830460011663ffffffff612f6616565b92506131e2826001831663ffffffff612f6616565b6000818381151561358057fe5b049392505050565b73ffffffffffffffffffffffffffffffffffffffff811615156135aa57600080fd5b6000805460405173ffffffffffffffffffffffffffffffffffffffff808516939216917f8be0079c531659141344cd1fd0a4f28419497f9722a3daafe3b4186f6b6457e091a3600080547fffffffffffffffffffffffff00000000000000000000000000000000000000001673ffffffffffffffffffffffffffffffffffffffff92909216919091179055565b640100000000647f00000000600793840292909302919091037ffffffffffffffffffffffffffffffffffffffffffffffffffffffffffffffff90160ff1660020a7fffffffffffffffffffffffffffffffffffffffffffffffffffffffff000000009390931692909204160490565b7fffffffffffffffffffffffffffffffffffffffffffffffffffffffffffffffc081810160071692600860ff93859003909201929092160490565b604060ff82161015919050565b6136f66142eb565b6136fe614382565b600080600080600080600080600360ff1661371f8e61010001518e8e613de9565b60ff16146137335760018d528c9950613952565b61373e8d8d8d613e5b565b909950975060ff881615156137595760018d528c9950613952565b5060009050805b8760ff168160ff1610156138ac57600096508695506137948d8a60ff84166008811061378857fe5b60200201518e8e614040565b9097509550600092505b8560ff168360ff1610156138a4578115156137b857600191505b6137cb6137c6888589613637565b6136a6565b80955081965050506137e98d61010001518e61016001518787614176565b6fffffffffffffffffffffffffffffffff19166101008e01526101608d015160ff1660021415613858576101c08d01805160010160ff9081169091526101a08e0180517fffffffffffffffffffffffffffffffffffffffffffffffffffffffffffffffff019091169052613899565b6101c08d0180517fffffffffffffffffffffffffffffffffffffffffffffffffffffffffffffffff0160ff9081169091526101a08e01805160010190911690525b60019092019161379e565b600101613760565b811561391b576138c88d61010001518e61016001518e8e614176565b6fffffffffffffffffffffffffffffffff19166101008e01526101608d015160ff1660021415613906576101c08d01805160010160ff169052613916565b6101a08d01805160010160ff1690525b613927565b60018d528c9950613952565b6101608d015160ff16600114156139455760026101608e015261394e565b60016101608e01525b8c99505b5050505050505050509392505050565b61396a6142eb565b6139726143b1565b6000806000806000613982614367565b88610180015160ff16603c14156139a257600160208a0152889750611db9565b60009550600094505b60408560ff161015613a2e576101008901516139d690600860078816880360ff160460078816613de9565b935060ff841660031415613a23576040805180820190915260086007871680880360ff9081169290920482168352602083015288908816603c8110613a1757fe5b60200201526001909501945b6001909401936139ab565b6000925060008660ff161115613b36578861010001519150600094505b8560ff168560ff16108015613a5e575082155b15613b1b578660ff8616603c8110613a7257fe5b602002015160016101608b01526000808b526fffffffffffffffffffffffffffffffff1984166101008c0152909150613abc908a9083905b602002015183600160200201516136ee565b80519099501515613acc57600192505b60026101608a01526000808a526fffffffffffffffffffffffffffffffff1983166101008b0152613b00908a908390613aaa565b80519099501515613b1057600192505b600190940193613a4b565b6fffffffffffffffffffffffffffffffff1982166101008a01525b8215613b455760018952613b51565b600160208a0152600089525b5096979650505050505050565b613b666142eb565b6001808080806000805b60088260ff16108015613b9f57508680613b875750855b80613b8f5750845b80613b975750835b80613b9f5750825b15613d91575060005b60088160ff16108015613bd757508680613bbf5750855b80613bc75750845b80613bcf5750835b80613bd75750825b15613d8657613bf28961010001518360070383600703614218565b6fffffffffffffffffffffffffffffffff1916613c158a61010001518484614218565b6fffffffffffffffffffffffffffffffff191614613c3257600096505b613c458961010001518383600703614218565b6fffffffffffffffffffffffffffffffff1916613c688a61010001518484614218565b6fffffffffffffffffffffffffffffffff191614613c8557600095505b613c988961010001518360070383614218565b6fffffffffffffffffffffffffffffffff1916613cbb8a61010001518484614218565b6fffffffffffffffffffffffffffffffff191614613cd857600094505b613cee8961010001518260070384600703614218565b6fffffffffffffffffffffffffffffffff1916613d118a61010001518484614218565b6fffffffffffffffffffffffffffffffff191614613d2e57600093505b613d3e8961010001518284614218565b6fffffffffffffffffffffffffffffffff1916613d618a61010001518484614218565b6fffffffffffffffffffffffffffffffff191614613d7e57600092505b600101613ba8565b600190910190613b70565b8680613d9a5750855b80613da25750845b80613daa5750835b80613db25750825b15613b515750506001604088015293151560608701529115156080860152151560a0850152151560c0840152151560e08301525090565b6000806000613df8858561426f565b7001000000000000000000000000000000006fffffffffffffffffffffffffffffffff821660020a6fffffffffffffffffffffffffffffffff19891604700300000000000000000000000000000000169081049450909250905050509392505050565b613e63614382565b6000613e6d614382565b6000613e77614382565b600080613e82614367565b60408051610140810182527fffffffffffffffffffffffffffffffffffffffffffffffffffffffffffffffff61010082018181526000610120840181905290835283518085018552828152600160208281018290528086019290925285518087018752838152808301829052858701528551808701875281815280830182905260608601528551808701875281815280830184905260808601528551808701875290815280820184905260a08501528451808601865282815280820184905260c0850152845180860190955282855284019190915260e0820192909252909550935084805b60088160ff16101561402d578560ff821660088110613f8257fe5b6020020151925082600060200201518c01935082600160200201518b01945060078560000b1380613fb6575060008560000b125b80613fc4575060078460000b135b80613fd2575060008460000b125b151561402557613fe88d61010001518587613de9565b91508c610160015160ff168260ff161415156140255760ff821660031461402557828860ff89166008811061401957fe5b60200201526001909601955b600101613f67565b50959b949a509398505050505050505050565b60008060008060008060008060008060009650600160ff168e610160015160ff1614156140705760029550614075565b600195505b506000935060015b60098160ff1610156141625784151561415a578c5160208e01519082028d01945081028b0192506007600085900b13806140ba575060008460000b125b806140c8575060078360000b135b806140d6575060008360000b125b156140ec5760009750600096506001945061415a565b6140fc8e61010001518585613de9565b91508560ff168260ff16141561412257614118888886866142a4565b909850965061415a565b8d610160015160ff168260ff1614801561413f575060018160ff16115b1561414d576001945061415a565b6000975060009650600194505b60010161407d565b50959c949b50939950505050505050505050565b600080600060078560ff16111561418c57600080fd5b60078460ff16111561419d57600080fd5b6141a7858561426f565b6fffffffffffffffffffffffffffffffff811660020a70030000000000000000000000000000000081028981189099169860ff8916700100000000000000000000000000000000026fffffffffffffffffffffffffffffffff19169091028917945090925090505050949350505050565b600080614225848461426f565b6fffffffffffffffffffffffffffffffff811660020a6fffffffffffffffffffffffffffffffff198716047003000000000000000000000000000000001692509050509392505050565b600891909102016040037fffffffffffffffffffffffffffffffffffffffffffffffffffffffffffffffff0160020260ff1690565b6008020160400160ff16640100000000027fffffffffffffffffffffffffffffffffffffffffffffffffffffffff0000000092909216608002919091179160019190910190565b604080516101e081018252600080825260208201819052918101829052606081018290526080810182905260a0810182905260c0810182905260e08101829052610100810182905261012081018290526101408101829052610160810182905261018081018290526101a081018290526101c081019190915290565b60408051808201825290600290829080388339509192915050565b610200604051908101604052806008905b61439b614367565b8152602001906001900390816143935790505090565b610f0060405190810160405280603c905b6143ca614367565b8152602001906001900390816143c257905050905600a165627a7a723058202a579cbe53ed82e2787f110511c1347586480239c7812f2414713740b5345fac0029",
  "source": "pragma solidity ^0.4.18;\n\n/**\n * The CloversController is a replaceable endpoint for minting and unminting Clovers.sol and ClubToken.sol\n */\n\nimport \"./Reversi.sol\";\nimport \"./Clovers.sol\";\nimport \"./ClubToken.sol\";\nimport \"./ClubTokenController.sol\";\nimport \"zeppelin-solidity/contracts/ownership/HasNoTokens.sol\";\nimport \"zeppelin-solidity/contracts/ownership/HasNoEther.sol\";\nimport \"zeppelin-solidity/contracts/math/SafeMath.sol\";\n\n\ncontract ISimpleCloversMarket {\n    function sell(uint256 _tokenId, uint256 price) public;\n} \n\ncontract CloversController is HasNoEther, HasNoTokens {\n    event cloverCommitted(bytes32 movesHash, address owner);\n    event cloverClaimed(bytes28[2] moves, uint256 tokenId, address owner, uint stake, uint reward, uint256 symmetries, bool keep);\n    event stakeRetrieved(uint256 tokenId, address owner, uint stake);\n    event cloverChallenged(bytes28[2] moves, uint256 tokenId, address owner, address challenger, uint stake);\n\n    using SafeMath for uint256;\n    bool public paused;\n    address public oracle;\n    address public clovers;\n    address public clubToken;\n    address public clubTokenController;\n    address public simpleCloversMarket;\n    address public curationMarket;\n\n    uint256 public gasLastUpdated_fastGasPrice_averageGasPrice_safeLowGasPrice;\n    // uint256 memory public gasLastUpdated;\n    // uint256 memory public fastGasPrice;\n    // uint256 memory public averageGasPrice;\n    // uint256 memory public safeLowGasPrice;\n\n    uint256 public basePrice;\n    uint256 public priceMultiplier;\n    uint256 public payMultiplier;\n    uint256 public stakeAmount;\n    uint256 public stakePeriod;\n\n    struct Commit {\n        bool collected;\n        uint256 stake;\n        address committer;\n    }\n\n    mapping (bytes32 => Commit) public commits;\n\n    modifier notPaused() {\n        require(!paused, \"Must not be paused\");\n        _;\n    }\n\n    modifier onlyOwnerOrOracle () {\n        require(msg.sender == owner || msg.sender == oracle);\n        _;\n    }\n\n    constructor(address _clovers, address _clubToken, address _clubTokenController) public {\n        clovers = _clovers;\n        clubToken = _clubToken;\n        clubTokenController = _clubTokenController;\n        paused = true;\n    }\n    /**\n    * @dev Gets the current stake of a Clover based on the hash of the moves.\n    * @param movesHash The hash of the moves that make up the clover.\n    * @return A uint256 value of stake.\n    */\n    function getStake(bytes32 movesHash) public view returns (uint256) {\n        return commits[movesHash].stake;\n    }\n    /**\n    * @dev Gets the address of the committer of a Clover based on the hash of the moves.\n    * @param movesHash The hash of the moves that make up the clover.\n    * @return The address of the committer.\n    */\n    function getCommit(bytes32 movesHash) public view returns (address) {\n        return commits[movesHash].committer;\n    }\n    /**\n    * @dev Gets the current staking period needed to verify a Clover.\n    * @param _tokenId The token Id of the clover.\n    * @return A uint256 value of stake period in seconds.\n    */\n    function getMovesHash(uint _tokenId) public constant returns (bytes32) {\n        return keccak256(Clovers(clovers).getCloverMoves(_tokenId));\n    }\n    /**\n    * @dev Checks whether the game is valid.\n    * @param moves The moves needed to play validate the game.\n    * @return A boolean representing whether or not the game is valid.\n    */\n    function isValid(bytes28[2] moves) public constant returns (bool) {\n        Reversi.Game memory game = Reversi.playGame(moves);\n        return isValidGame(game.error, game.complete);\n    }\n\n    /**\n    * @dev Checks whether the game is valid.\n    * @param error The pre-played game error\n    * @param complete The pre-played game complete boolean\n    * @return A boolean representing whether or not the game is valid.\n    */\n    function isValidGame(bool error, bool complete) public pure returns (bool) {\n        if (error) return false;\n        if (!complete) return false;\n        return true;\n    }\n    /**\n    * @dev Checks whether the game has passed the verification period.\n    * @param _tokenId The board being checked.\n    * @return A boolean representing whether or not the game has been verified.\n    */\n    function isVerified(uint256 _tokenId) public constant returns (bool) {\n        uint256 _blockMinted = Clovers(clovers).getBlockMinted(_tokenId);\n        if(_blockMinted == 0) return false;\n        return block.number.sub(_blockMinted) > stakePeriod;\n    }\n    /**\n    * @dev Calculates the reward of the board.\n    * @param _symmetries symmetries saved as a uint256 value like 00010101 where bits represent symmetry types.\n    * @return A uint256 representing the reward that would be returned for claiming the board.\n    */\n    function calculateReward(uint256 _symmetries) public constant returns (uint256) {\n        uint256 Symmetricals;\n        uint256 RotSym;\n        uint256 Y0Sym;\n        uint256 X0Sym;\n        uint256 XYSym;\n        uint256 XnYSym;\n        (Symmetricals,\n        RotSym,\n        Y0Sym,\n        X0Sym,\n        XYSym,\n        XnYSym) = Clovers(clovers).getAllSymmetries();\n        uint256 base = 0;\n        if (_symmetries >> 4 & 1 == 1) base = base.add(payMultiplier.mul(Symmetricals + 1).div(RotSym + 1));\n        if (_symmetries >> 3 & 1 == 1) base = base.add(payMultiplier.mul(Symmetricals + 1).div(Y0Sym + 1));\n        if (_symmetries >> 2 & 1 == 1) base = base.add(payMultiplier.mul(Symmetricals + 1).div(X0Sym + 1));\n        if (_symmetries >> 1 & 1 == 1) base = base.add(payMultiplier.mul(Symmetricals + 1).div(XYSym + 1));\n        if (_symmetries & 1 == 1) base = base.add(payMultiplier.mul(Symmetricals + 1).div(XnYSym + 1));\n        return base;\n    }\n\n/*\n    // NOTE: Disabled to reduce contract size\n    function instantClaimClover(bytes28[2] moves, bool _keep) public payable returns (bool) {\n        Reversi.Game memory game = Reversi.playGame(moves);\n        require(isValidGame(game.error, game.complete));\n        uint256 tokenId = uint256(game.board);\n        require(Clovers(clovers).getBlockMinted(tokenId) == 0);\n        require(!Clovers(clovers).exists(tokenId));\n        Clovers(clovers).setBlockMinted(tokenId, block.number);\n        Clovers(clovers).setCloverMoves(tokenId, moves);\n\n        uint256 symmetries = Reversi.returnSymmetricals(game.RotSym, game.Y0Sym, game.X0Sym, game.XYSym, game.XnYSym);\n        uint256 reward;\n\n        if (uint256(symmetries) > 0) {\n            Clovers(clovers).setSymmetries(tokenId, uint256(symmetries));\n            reward = calculateReward(uint256(symmetries));\n            Clovers(clovers).setReward(tokenId, reward);\n        }\n        if (_keep) {\n            // If the user decides to keep the Clover, they must\n            // pay for it in club tokens according to the reward price.\n            if (ClubToken(clubToken).balanceOf(msg.sender) < reward) {\n                ClubTokenController(clubTokenController).buy.value(msg.value)(msg.sender); // msg.value needs to be enough to buy \"reward\" amount of Club Token\n            }\n            if (reward > 0) {\n                // ClubToken(clubToken).transferFrom(msg.sender, clubToken, reward); // if we'd rather keep the money\n                ClubToken(clubToken).burn(msg.sender, reward);\n            }\n            Clovers(clovers).mint(msg.sender, tokenId);\n        } else {\n            // If the user decides not to keep the Clover, they will\n            // receive the reward price in club tokens, and the clover will\n            // go for sale at 10x the reward price.\n            if (reward > 0) {\n                require(ClubToken(clubToken).mint(msg.sender, reward));\n            }\n            Clovers(clovers).mint(clovers, tokenId);\n        }\n\n    } */\n\n    function getPrice(uint256 _symmetries) public constant returns(uint256) {\n        return basePrice.add(calculateReward(_symmetries));\n    }\n\n    function updateGasPrices(uint256 _fastGasPrice, uint256 _averageGasPrice, uint256 _safeLowGasPrice) public onlyOwnerOrOracle {\n        uint256 gasLastUpdated = block.number << 192;\n        uint256 fastGasPrice = _fastGasPrice << 128;\n        uint256 averageGasPrice = _averageGasPrice << 64;\n        uint256 safeLowGasPrice = _safeLowGasPrice;\n        gasLastUpdated_fastGasPrice_averageGasPrice_safeLowGasPrice = gasLastUpdated & fastGasPrice & averageGasPrice & safeLowGasPrice;\n    }\n\n    /**\n    * @dev Claim the Clover without a commit or reveal. Payable so you can attach enough for the stake,\n    * as well as enough to buy tokens if needed to keep the Clover.\n    * @param moves The moves that make up the Clover reversi game.\n    * @param _tokenId The board that results from the moves.\n    * @param _symmetries symmetries saved as a uint256 value like 00010101 where bits represent symmetry\n    * @param _keep symmetries saved as a uint256 value like 00010101 where bits represent symmetry\n    * types.\n    * @return A boolean representing whether or not the claim was successful.\n    */\n    function claimClover(bytes28[2] moves, uint256 _tokenId, uint256 _symmetries, bool _keep) public payable notPaused returns (bool) {\n        emit cloverClaimed(moves, _tokenId, msg.sender, _tokenId, _tokenId, _symmetries, _keep);\n\n        bytes32 movesHash = keccak256(moves);\n\n        uint256 fastGasPrice = uint256(uint64(gasLastUpdated_fastGasPrice_averageGasPrice_safeLowGasPrice >> 128));\n        uint256 stakeWithGas = stakeAmount.mul(fastGasPrice);\n        require(msg.value >= stakeWithGas);\n        require(getCommit(movesHash) == 0);\n\n        setCommit(movesHash, msg.sender);\n        if (stakeWithGas > 0) {\n            setStake(movesHash, stakeWithGas);\n            clovers.transfer(stakeWithGas);\n        }\n\n        emit cloverCommitted(movesHash, msg.sender);\n\n        require(!Clovers(clovers).exists(_tokenId));\n        require(Clovers(clovers).getBlockMinted(_tokenId) == 0);\n\n        Clovers(clovers).setBlockMinted(_tokenId, block.number);\n        Clovers(clovers).setCloverMoves(_tokenId, moves);\n        Clovers(clovers).setKeep(_tokenId, _keep);\n\n        uint256 reward;\n        if (_symmetries > 0) {\n            Clovers(clovers).setSymmetries(_tokenId, _symmetries);\n            reward = calculateReward(_symmetries);\n            Clovers(clovers).setReward(_tokenId, reward);\n        }\n        uint256 price = basePrice.add(reward);\n        if (_keep && price > 0) {\n            // If the user decides to keep the Clover, they must\n            // pay for it in club tokens according to the reward price.\n            if (ClubToken(clubToken).balanceOf(msg.sender) < price) {\n                ClubTokenController(clubTokenController).buy.value(msg.value.sub(stakeWithGas))(msg.sender);\n            }\n            // require(ClubToken(clubToken).transferFrom(msg.sender, clovers, price));\n            ClubToken(clubToken).burn(msg.sender, price);\n        }\n        Clovers(clovers).mint(clovers, _tokenId);\n        emit cloverClaimed(moves, _tokenId, msg.sender, stakeWithGas, reward, _symmetries, _keep);\n        return true;\n    }\n\n\n    // This is better than current commit hash because the commiter's address is part of the move sequence\n    // otherwise griefing could still take place....\n    // function generateCommit(bytes28[2] moves) public view returns(bytes32 commitHash) {\n    //     return sha256(moves, msg.sender);\n    // }\n\n    /**\n    * @dev Commit the hash of the moves needed to claim the Clover. A stake should be\n    * made for counterfactual verification.\n    * @param movesHash The hash of the moves that makes up the Clover reversi\n    * game.\n    * @return A boolean representing whether or not the commit was successful.\n    NOTE: Disabled for contract size, if front running becomes a problem it can be\n    implemented with an upgrade\n    */\n    /* function claimCloverCommit(bytes32 movesHash) public payable returns (bool) {\n        require(msg.value >= stakeAmount);\n        require(getCommit(movesHash) == 0);\n\n        setCommit(movesHash, msg.sender);\n        setStake(movesHash, stakeAmount);\n\n        clovers.transfer(stakeAmount);\n\n        emit cloverCommitted(movesHash, msg.sender);\n        return true;\n    }\n    /**\n    * @dev Reveal the solution to the previous commit to claim the Clover.\n    * @param moves The moves that make up the Clover reversi game.\n    * @param _tokenId The board that results from the moves.\n    * @param _symmetries symmetries saved as a uint256 value like 00010101 where bits represent symmetry types.\n    * @return A boolean representing whether or not the reveal and claim was successful.\n    NOTE: Disabled for contract size, if front running becomes a problem it can be implemented with an upgrade\n    */\n    /* function claimCloverReveal(bytes28[2] moves, uint256 _tokenId, uint256 _symmetries, bool _keep) public returns (bool) {\n        bytes32 movesHash = keccak256(moves);\n        address committer = getCommit(movesHash);\n\n        require(Clovers(clovers).getBlockMinted(_tokenId) == 0);\n\n        Clovers(clovers).setBlockMinted(_tokenId, block.number);\n        Clovers(clovers).setCloverMoves(_tokenId, moves);\n        Clovers(clovers).setKeep(_tokenId, _keep);\n        uint256 reward;\n        if (_symmetries > 0) {\n            Clovers(clovers).setSymmetries(_tokenId, _symmetries);\n            reward = calculateReward(_symmetries);\n            Clovers(clovers).setReward(_tokenId, reward);\n        }\n        if (_keep) {\n            ClubToken(clubToken).increaseApproval(address(this), basePrice.add(reward));\n        }\n        uint256 stake = getStake(movesHash);\n        emit cloverClaimed(moves, _tokenId, committer, stake, reward, _symmetries, _keep);\n        return true;\n    } */\n\n\n    /**\n    * @dev Retrieve the stake from a Clover claim after the stake period has ended, or with the authority of the oracle.\n    * @param _tokenId The board which holds the stake.\n    * @param _fastGasPrice The current fast gas price.\n    * @param _averageGasPrice The current average gas price.\n    * @param _safeLowGasPrice The current slow safe gas price\n    * @return A boolean representing whether or not the retrieval was successful.\n    */\n    function retrieveStakeWithGas(uint256 _tokenId, uint256 _fastGasPrice, uint256 _averageGasPrice, uint256 _safeLowGasPrice) public payable returns (bool) {\n        require(retrieveStake(_tokenId));\n        if (msg.sender == owner || msg.sender == oracle) {\n            updateGasPrices(_fastGasPrice, _averageGasPrice, _safeLowGasPrice);\n        }\n    }\n\n    /**\n    * @dev Retrieve the stake from a Clover claim after the stake period has ended, or with the authority of the oracle.\n    * @param _tokenId The board which holds the stake.\n    * @return A boolean representing whether or not the retrieval was successful.\n    */\n    function retrieveStake(uint256 _tokenId) public payable returns (bool) {\n        bytes28[2] memory moves = Clovers(clovers).getCloverMoves(_tokenId);\n        bytes32 movesHash = keccak256(moves);\n\n\n        require(!commits[movesHash].collected);\n        commits[movesHash].collected = true;\n\n        require(isVerified(_tokenId) || msg.sender == owner || msg.sender == oracle);\n\n        uint256 stake = getStake(movesHash);\n        addSymmetries(_tokenId);\n        address committer = getCommit(movesHash);\n        require(committer == msg.sender || msg.sender == owner || msg.sender == oracle);\n        uint256 reward = Clovers(clovers).getReward(_tokenId);\n        bool _keep = Clovers(clovers).getKeep(_tokenId);\n\n        if (_keep) {\n            // If the user decided to keep the Clover, they will\n            // receive the clover now that it has been verified\n            Clovers(clovers).transferFrom(clovers, committer, _tokenId);\n        } else {\n            // If the user decided not to keep the Clover, they will\n            // receive the reward price in club tokens, and the clover will\n            // go for sale by the contract.\n            ISimpleCloversMarket(simpleCloversMarket).sell(_tokenId, basePrice.add(reward.mul(priceMultiplier)));\n            if (reward > 0) {\n                require(ClubToken(clubToken).mint(committer, reward));\n            }\n        }\n        if (stake > 0) {\n            Clovers(clovers).moveEth(msg.sender, stake);\n        }\n        emit stakeRetrieved(_tokenId, msg.sender, stake);\n\n        return true;\n    }\n\n\n    /**\n    * @dev Convert a bytes16 board into a uint256.\n    * @param _board The board being converted.\n    * @return number the uint256 being converted.\n    */\n    function convertBytes16ToUint(bytes16 _board) public view returns(uint256 number) {\n        for(uint i=0;i<_board.length;i++){\n            number = number + uint(_board[i])*(2**(8*(_board.length-(i+1))));\n        }\n    }\n\n\n    /**\n    * @dev Challenge a staked Clover for being invalid.\n    * @param _tokenId The board being challenged.\n    * @param _fastGasPrice The current fast gas price.\n    * @param _averageGasPrice The current average gas price.\n    * @param _safeLowGasPrice The current slow safe gas price\n    * @return A boolean representing whether or not the challenge was successful.\n    */\n    function challengeCloverWithGas(uint256 _tokenId, uint256 _fastGasPrice, uint256 _averageGasPrice, uint256 _safeLowGasPrice) public returns (bool) {\n        require(challengeClover(_tokenId));\n        if (msg.sender == owner || msg.sender == oracle) {\n            updateGasPrices(_fastGasPrice, _averageGasPrice, _safeLowGasPrice);\n        }\n        return true;\n    }\n    /**\n    * @dev Challenge a staked Clover for being invalid.\n    * @param _tokenId The board being challenged.\n    * @return A boolean representing whether or not the challenge was successful.\n    */\n    function challengeClover(uint256 _tokenId) public returns (bool) {\n        bool valid = true;\n        bytes28[2] memory moves = Clovers(clovers).getCloverMoves(_tokenId);\n\n        if (msg.sender != owner && msg.sender != oracle) {\n            Reversi.Game memory game = Reversi.playGame(moves);\n            if(convertBytes16ToUint(game.board) != _tokenId) {\n                valid = false;\n            }\n            if(valid && isValidGame(game.error, game.complete)) {\n                uint256 _symmetries = Clovers(clovers).getSymmetries(_tokenId);\n                valid = (_symmetries >> 4 & 1) > 0 == game.RotSym ? valid : false;\n                valid = (_symmetries >> 3 & 1) > 0 == game.Y0Sym ? valid : false;\n                valid = (_symmetries >> 2 & 1) > 0 == game.X0Sym ? valid : false;\n                valid = (_symmetries >> 1 & 1) > 0 == game.XYSym ? valid : false;\n                valid = (_symmetries & 1) > 0 == game.XnYSym ? valid : false;\n            } else {\n                valid = false;\n            }\n            require(!valid);\n        }\n        bytes32 movesHash = keccak256(moves);\n        uint256 stake = getStake(movesHash);\n        if (!isVerified(_tokenId) && stake > 0) {\n            Clovers(clovers).moveEth(msg.sender, stake);\n        }\n        if (commits[movesHash].collected) {\n            removeSymmetries(_tokenId);\n        }\n\n        address committer = getCommit(movesHash);\n        emit cloverChallenged(moves, _tokenId, committer, msg.sender, stake);\n\n        Clovers(clovers).deleteClover(_tokenId);\n        deleteCommit(movesHash);\n        return true;\n    }\n\n\n    /**\n    * @dev Moves clovers without explicit allow permission for use by simpleCloversMarket\n    * in order to avoid double transaction (allow, transferFrom)\n    * @param _from The current owner of the Clover\n    * @param _to The future owner of the Clover\n    * @param _tokenId The Clover\n    */\n    function transferFrom(address _from, address _to, uint256 _tokenId) public {\n        require(msg.sender == simpleCloversMarket || msg.sender == curationMarket);\n        Clovers(clovers).transferFrom(_from, _to, _tokenId);\n    }\n\n    /**\n    * @dev Updates pause boolean.\n    * @param _paused The new puased boolean.\n    */\n    function updatePaused(bool _paused) public onlyOwner {\n        paused = _paused;\n    }\n\n    /**\n    * @dev Updates curationMarket Address.\n    * @param _curationMarket The new curationMarket Address.\n    */\n    function updateCurationMarket(address _curationMarket) public onlyOwner {\n        curationMarket = _curationMarket;\n    }\n    /**\n    * @dev Updates oracle Address.\n    * @param _oracle The new oracle Address.\n    */\n    function updateOracle(address _oracle) public onlyOwner {\n        oracle = _oracle;\n    }\n\n    /**\n    * @dev Updates simpleCloversMarket Address.\n    * @param _simpleCloversMarket The new simpleCloversMarket address.\n    */\n    function updateSimpleCloversMarket(address _simpleCloversMarket) public onlyOwner {\n        simpleCloversMarket = _simpleCloversMarket;\n    }\n\n    /**\n    * @dev Updates clubTokenController Address.\n    * @param _clubTokenController The new clubTokenController address.\n    */\n    function updateClubTokenController(address _clubTokenController) public onlyOwner {\n        clubTokenController = _clubTokenController;\n    }\n    /**\n    * @dev Updates the stake amount.\n    * @param _stakeAmount The new amount needed to stake.\n    */\n    function updateStakeAmount(uint256 _stakeAmount) public onlyOwner {\n        stakeAmount = _stakeAmount;\n    }\n    /**\n    * @dev Updates the stake period.\n    * @param _stakePeriod The uint256 value of time needed to stake before being verified.\n    */\n    function updateStakePeriod(uint256 _stakePeriod) public onlyOwner {\n        stakePeriod = _stakePeriod;\n    }\n    /**\n    * @dev Updates the pay multiplier, used to calculate token reward.\n    * @param _payMultiplier The uint256 value of pay multiplier.\n    */\n    function updatePayMultipier(uint256 _payMultiplier) public onlyOwner {\n        payMultiplier = _payMultiplier;\n    }\n    /**\n    * @dev Updates the price multiplier, used to calculate the clover price (multiplied by the original reward).\n    * @param _priceMultiplier The uint256 value of the price multiplier.\n    */\n    function updatePriceMultipier(uint256 _priceMultiplier) public onlyOwner {\n        priceMultiplier = _priceMultiplier;\n    }\n    /**\n    * @dev Updates the base price, used to calculate the clover cost.\n    * @param _basePrice The uint256 value of the base price.\n    */\n    function updateBasePrice(uint256 _basePrice) public onlyOwner {\n        basePrice = _basePrice;\n    }\n\n    /**\n    * @dev Sets the stake of a Clover based on the hash of the moves.\n    * @param movesHash The hash of the moves that make up the clover.\n    * @param stake A uint256 value of stake.\n    */\n    function setStake(bytes32 movesHash, uint256 stake) private {\n        commits[movesHash].stake = stake;\n    }\n\n    /**\n    * @dev Sets the address of the committer of a Clover based on the hash of the moves.\n    * @param movesHash The hash of the moves that make up the clover.\n    * @param committer The address of the committer.\n    */\n    function setCommit(bytes32 movesHash, address committer) private {\n        commits[movesHash].committer = committer;\n    }\n\n    function _setCommit(bytes32 movesHash, address committer) public onlyOwner {\n        setCommit(movesHash, committer);\n    }\n    function deleteCommit(bytes32 movesHash) private {\n        delete(commits[movesHash]);\n    }\n\n    /**\n    * @dev Adds new tallys of the totals numbers of clover symmetries.\n    * @param _tokenId The token which needs to be examined.\n    */\n    function addSymmetries(uint256 _tokenId) private {\n        uint256 Symmetricals;\n        uint256 RotSym;\n        uint256 Y0Sym;\n        uint256 X0Sym;\n        uint256 XYSym;\n        uint256 XnYSym;\n        (Symmetricals,\n        RotSym,\n        Y0Sym,\n        X0Sym,\n        XYSym,\n        XnYSym) = Clovers(clovers).getAllSymmetries();\n        uint256 _symmetries = Clovers(clovers).getSymmetries(_tokenId);\n        Symmetricals = Symmetricals.add(_symmetries > 0 ? 1 : 0);\n        RotSym = RotSym.add(uint256(_symmetries >> 4 & 1));\n        Y0Sym = Y0Sym.add(uint256(_symmetries >> 3 & 1));\n        X0Sym = X0Sym.add(uint256(_symmetries >> 2 & 1));\n        XYSym = XYSym.add(uint256(_symmetries >> 1 & 1));\n        XnYSym = XnYSym.add(uint256(_symmetries & 1));\n        Clovers(clovers).setAllSymmetries(Symmetricals, RotSym, Y0Sym, X0Sym, XYSym, XnYSym);\n    }\n    /**\n    * @dev Remove false tallys of the totals numbers of clover symmetries.\n    * @param _tokenId The token which needs to be examined.\n    */\n    function removeSymmetries(uint256 _tokenId) private {\n        uint256 Symmetricals;\n        uint256 RotSym;\n        uint256 Y0Sym;\n        uint256 X0Sym;\n        uint256 XYSym;\n        uint256 XnYSym;\n        (Symmetricals,\n        RotSym,\n        Y0Sym,\n        X0Sym,\n        XYSym,\n        XnYSym) = Clovers(clovers).getAllSymmetries();\n        uint256 _symmetries = Clovers(clovers).getSymmetries(_tokenId);\n        Symmetricals = Symmetricals.sub(_symmetries > 0 ? 1 : 0);\n        RotSym = RotSym.sub(uint256(_symmetries >> 4 & 1));\n        Y0Sym = Y0Sym.sub(uint256(_symmetries >> 3 & 1));\n        X0Sym = X0Sym.sub(uint256(_symmetries >> 2 & 1));\n        XYSym = XYSym.sub(uint256(_symmetries >> 1 & 1));\n        XnYSym = XnYSym.sub(uint256(_symmetries & 1));\n        Clovers(clovers).setAllSymmetries(Symmetricals, RotSym, Y0Sym, X0Sym, XYSym, XnYSym);\n    }\n\n}\n",
  "sourcePath": "/home/billy/GitHub.com/clovers-network/clovers-contracts/contracts/CloversController.sol",
  "compiler": {
    "name": "solc",
    "version": "0.4.24+commit.e67f0147.Emscripten.clang"
  },
  "schemaVersion": "2.0.1",
  "updatedAt": "2019-08-27T23:40:13.092Z"
}