{
  "contractName": "CloversController",
  "abi": [
    {
      "constant": true,
      "inputs": [],
      "name": "clovers",
      "outputs": [
        {
          "name": "",
          "type": "address"
        }
      ],
      "payable": false,
      "stateMutability": "view",
      "type": "function"
    },
    {
      "constant": false,
      "inputs": [
        {
          "name": "token",
          "type": "address"
        }
      ],
      "name": "reclaimToken",
      "outputs": [],
      "payable": false,
      "stateMutability": "nonpayable",
      "type": "function"
    },
    {
      "constant": true,
      "inputs": [],
      "name": "payMultiplier",
      "outputs": [
        {
          "name": "",
          "type": "uint256"
        }
      ],
      "payable": false,
      "stateMutability": "view",
      "type": "function"
    },
    {
      "constant": true,
      "inputs": [
        {
          "name": "",
          "type": "bytes32"
        }
      ],
      "name": "commits",
      "outputs": [
        {
          "name": "collected",
          "type": "bool"
        },
        {
          "name": "stake",
          "type": "uint256"
        },
        {
          "name": "committer",
          "type": "address"
        }
      ],
      "payable": false,
      "stateMutability": "view",
      "type": "function"
    },
    {
      "constant": true,
      "inputs": [],
      "name": "fastGasPrice",
      "outputs": [
        {
          "name": "",
          "type": "uint256"
        }
      ],
      "payable": false,
      "stateMutability": "view",
      "type": "function"
    },
    {
      "constant": true,
      "inputs": [],
      "name": "paused",
      "outputs": [
        {
          "name": "",
          "type": "bool"
        }
      ],
      "payable": false,
      "stateMutability": "view",
      "type": "function"
    },
    {
      "constant": true,
      "inputs": [],
      "name": "stakeAmount",
      "outputs": [
        {
          "name": "",
          "type": "uint256"
        }
      ],
      "payable": false,
      "stateMutability": "view",
      "type": "function"
    },
    {
      "constant": true,
      "inputs": [],
      "name": "slowSafeGasPrice",
      "outputs": [
        {
          "name": "",
          "type": "uint256"
        }
      ],
      "payable": false,
      "stateMutability": "view",
      "type": "function"
    },
    {
      "constant": false,
      "inputs": [],
      "name": "renounceOwnership",
      "outputs": [],
      "payable": false,
      "stateMutability": "nonpayable",
      "type": "function"
    },
    {
      "constant": true,
      "inputs": [],
      "name": "curationMarket",
      "outputs": [
        {
          "name": "",
          "type": "address"
        }
      ],
      "payable": false,
      "stateMutability": "view",
      "type": "function"
    },
    {
      "constant": true,
      "inputs": [],
      "name": "oracle",
      "outputs": [
        {
          "name": "",
          "type": "address"
        }
      ],
      "payable": false,
      "stateMutability": "view",
      "type": "function"
    },
    {
      "constant": true,
      "inputs": [],
      "name": "averageGasPrice",
      "outputs": [
        {
          "name": "",
          "type": "uint256"
        }
      ],
      "payable": false,
      "stateMutability": "view",
      "type": "function"
    },
    {
      "constant": true,
      "inputs": [],
      "name": "owner",
      "outputs": [
        {
          "name": "",
          "type": "address"
        }
      ],
      "payable": false,
      "stateMutability": "view",
      "type": "function"
    },
    {
      "constant": true,
      "inputs": [],
      "name": "simpleCloversMarket",
      "outputs": [
        {
          "name": "",
          "type": "address"
        }
      ],
      "payable": false,
      "stateMutability": "view",
      "type": "function"
    },
    {
      "constant": false,
      "inputs": [],
      "name": "reclaimEther",
      "outputs": [],
      "payable": false,
      "stateMutability": "nonpayable",
      "type": "function"
    },
    {
      "constant": true,
      "inputs": [],
      "name": "clubTokenController",
      "outputs": [
        {
          "name": "",
          "type": "address"
        }
      ],
      "payable": false,
      "stateMutability": "view",
      "type": "function"
    },
    {
      "constant": false,
      "inputs": [
        {
          "name": "from_",
          "type": "address"
        },
        {
          "name": "value_",
          "type": "uint256"
        },
        {
          "name": "data_",
          "type": "bytes"
        }
      ],
      "name": "tokenFallback",
      "outputs": [],
      "payable": false,
      "stateMutability": "nonpayable",
      "type": "function"
    },
    {
      "constant": true,
      "inputs": [],
      "name": "stakePeriod",
      "outputs": [
        {
          "name": "",
          "type": "uint256"
        }
      ],
      "payable": false,
      "stateMutability": "view",
      "type": "function"
    },
    {
      "constant": true,
      "inputs": [],
      "name": "basePrice",
      "outputs": [
        {
          "name": "",
          "type": "uint256"
        }
      ],
      "payable": false,
      "stateMutability": "view",
      "type": "function"
    },
    {
      "constant": true,
      "inputs": [],
      "name": "priceMultiplier",
      "outputs": [
        {
          "name": "",
          "type": "uint256"
        }
      ],
      "payable": false,
      "stateMutability": "view",
      "type": "function"
    },
    {
      "constant": true,
      "inputs": [],
      "name": "clubToken",
      "outputs": [
        {
          "name": "",
          "type": "address"
        }
      ],
      "payable": false,
      "stateMutability": "view",
      "type": "function"
    },
    {
      "constant": false,
      "inputs": [
        {
          "name": "_newOwner",
          "type": "address"
        }
      ],
      "name": "transferOwnership",
      "outputs": [],
      "payable": false,
      "stateMutability": "nonpayable",
      "type": "function"
    },
    {
      "inputs": [
        {
          "name": "_clovers",
          "type": "address"
        },
        {
          "name": "_clubToken",
          "type": "address"
        },
        {
          "name": "_clubTokenController",
          "type": "address"
        }
      ],
      "payable": false,
      "stateMutability": "nonpayable",
      "type": "constructor"
    },
    {
      "payable": false,
      "stateMutability": "nonpayable",
      "type": "fallback"
    },
    {
      "anonymous": false,
      "inputs": [
        {
          "indexed": false,
          "name": "movesHash",
          "type": "bytes32"
        },
        {
          "indexed": false,
          "name": "owner",
          "type": "address"
        }
      ],
      "name": "cloverCommitted",
      "type": "event"
    },
    {
      "anonymous": false,
      "inputs": [
        {
          "indexed": false,
          "name": "moves",
          "type": "bytes28[2]"
        },
        {
          "indexed": false,
          "name": "tokenId",
          "type": "uint256"
        },
        {
          "indexed": false,
          "name": "owner",
          "type": "address"
        },
        {
          "indexed": false,
          "name": "stake",
          "type": "uint256"
        },
        {
          "indexed": false,
          "name": "reward",
          "type": "uint256"
        },
        {
          "indexed": false,
          "name": "symmetries",
          "type": "uint256"
        },
        {
          "indexed": false,
          "name": "keep",
          "type": "bool"
        }
      ],
      "name": "cloverClaimed",
      "type": "event"
    },
    {
      "anonymous": false,
      "inputs": [
        {
          "indexed": false,
          "name": "tokenId",
          "type": "uint256"
        },
        {
          "indexed": false,
          "name": "owner",
          "type": "address"
        },
        {
          "indexed": false,
          "name": "stake",
          "type": "uint256"
        }
      ],
      "name": "stakeRetrieved",
      "type": "event"
    },
    {
      "anonymous": false,
      "inputs": [
        {
          "indexed": false,
          "name": "moves",
          "type": "bytes28[2]"
        },
        {
          "indexed": false,
          "name": "tokenId",
          "type": "uint256"
        },
        {
          "indexed": false,
          "name": "owner",
          "type": "address"
        },
        {
          "indexed": false,
          "name": "challenger",
          "type": "address"
        },
        {
          "indexed": false,
          "name": "stake",
          "type": "uint256"
        }
      ],
      "name": "cloverChallenged",
      "type": "event"
    },
    {
      "anonymous": false,
      "inputs": [
        {
          "indexed": true,
          "name": "previousOwner",
          "type": "address"
        }
      ],
      "name": "OwnershipRenounced",
      "type": "event"
    },
    {
      "anonymous": false,
      "inputs": [
        {
          "indexed": true,
          "name": "previousOwner",
          "type": "address"
        },
        {
          "indexed": true,
          "name": "newOwner",
          "type": "address"
        }
      ],
      "name": "OwnershipTransferred",
      "type": "event"
    },
    {
      "constant": true,
      "inputs": [
        {
          "name": "movesHash",
          "type": "bytes32"
        }
      ],
      "name": "getStake",
      "outputs": [
        {
          "name": "",
          "type": "uint256"
        }
      ],
      "payable": false,
      "stateMutability": "view",
      "type": "function"
    },
    {
      "constant": true,
      "inputs": [
        {
          "name": "movesHash",
          "type": "bytes32"
        }
      ],
      "name": "getCommit",
      "outputs": [
        {
          "name": "",
          "type": "address"
        }
      ],
      "payable": false,
      "stateMutability": "view",
      "type": "function"
    },
    {
      "constant": true,
      "inputs": [
        {
          "name": "_tokenId",
          "type": "uint256"
        }
      ],
      "name": "getMovesHash",
      "outputs": [
        {
          "name": "",
          "type": "bytes32"
        }
      ],
      "payable": false,
      "stateMutability": "view",
      "type": "function"
    },
    {
      "constant": true,
      "inputs": [
        {
          "name": "moves",
          "type": "bytes28[2]"
        }
      ],
      "name": "isValid",
      "outputs": [
        {
          "name": "",
          "type": "bool"
        }
      ],
      "payable": false,
      "stateMutability": "view",
      "type": "function"
    },
    {
      "constant": true,
      "inputs": [
        {
          "name": "error",
          "type": "bool"
        },
        {
          "name": "complete",
          "type": "bool"
        }
      ],
      "name": "isValidGame",
      "outputs": [
        {
          "name": "",
          "type": "bool"
        }
      ],
      "payable": false,
      "stateMutability": "pure",
      "type": "function"
    },
    {
      "constant": true,
      "inputs": [
        {
          "name": "_tokenId",
          "type": "uint256"
        }
      ],
      "name": "isVerified",
      "outputs": [
        {
          "name": "",
          "type": "bool"
        }
      ],
      "payable": false,
      "stateMutability": "view",
      "type": "function"
    },
    {
      "constant": true,
      "inputs": [
        {
          "name": "_symmetries",
          "type": "uint256"
        }
      ],
      "name": "calculateReward",
      "outputs": [
        {
          "name": "",
          "type": "uint256"
        }
      ],
      "payable": false,
      "stateMutability": "view",
      "type": "function"
    },
    {
      "constant": true,
      "inputs": [
        {
          "name": "_symmetries",
          "type": "uint256"
        }
      ],
      "name": "getPrice",
      "outputs": [
        {
          "name": "",
          "type": "uint256"
        }
      ],
      "payable": false,
      "stateMutability": "view",
      "type": "function"
    },
    {
      "constant": false,
      "inputs": [
        {
          "name": "_slowSafeGasPrice",
          "type": "uint256"
        },
        {
          "name": "_averageGasPrice",
          "type": "uint256"
        },
        {
          "name": "_fastGasPrice",
          "type": "uint256"
        }
      ],
      "name": "setGasPrices",
      "outputs": [],
      "payable": false,
      "stateMutability": "nonpayable",
      "type": "function"
    },
    {
      "constant": false,
      "inputs": [
        {
          "name": "moves",
          "type": "bytes28[2]"
        },
        {
          "name": "_tokenId",
          "type": "uint256"
        },
        {
          "name": "_symmetries",
          "type": "uint256"
        },
        {
          "name": "_keep",
          "type": "bool"
        }
      ],
      "name": "claimClover",
      "outputs": [
        {
          "name": "",
          "type": "bool"
        }
      ],
      "payable": true,
      "stateMutability": "payable",
      "type": "function"
    },
    {
      "constant": false,
      "inputs": [
        {
          "name": "_tokenId",
          "type": "uint256"
        }
      ],
      "name": "retrieveStake",
      "outputs": [
        {
          "name": "",
          "type": "bool"
        }
      ],
      "payable": true,
      "stateMutability": "payable",
      "type": "function"
    },
    {
      "constant": false,
      "inputs": [
        {
          "name": "_tokenId",
          "type": "uint256"
        },
        {
          "name": "_fastGasPrice",
          "type": "uint256"
        },
        {
          "name": "_averageGasPrice",
          "type": "uint256"
        },
        {
          "name": "_slowSafeGasPrice",
          "type": "uint256"
        }
      ],
      "name": "retrieveStake",
      "outputs": [
        {
          "name": "",
          "type": "bool"
        }
      ],
      "payable": true,
      "stateMutability": "payable",
      "type": "function"
    },
    {
      "constant": true,
      "inputs": [
        {
          "name": "_board",
          "type": "bytes16"
        }
      ],
      "name": "convertBytes16ToUint",
      "outputs": [
        {
          "name": "number",
          "type": "uint256"
        }
      ],
      "payable": false,
      "stateMutability": "view",
      "type": "function"
    },
    {
      "constant": false,
      "inputs": [
        {
          "name": "_tokenId",
          "type": "uint256"
        },
        {
          "name": "_fastGasPrice",
          "type": "uint256"
        },
        {
          "name": "_averageGasPrice",
          "type": "uint256"
        },
        {
          "name": "_slowSafeGasPrice",
          "type": "uint256"
        }
      ],
      "name": "challengeClover",
      "outputs": [
        {
          "name": "",
          "type": "bool"
        }
      ],
      "payable": false,
      "stateMutability": "nonpayable",
      "type": "function"
    },
    {
      "constant": false,
      "inputs": [
        {
          "name": "_tokenId",
          "type": "uint256"
        }
      ],
      "name": "challengeClover",
      "outputs": [
        {
          "name": "",
          "type": "bool"
        }
      ],
      "payable": false,
      "stateMutability": "nonpayable",
      "type": "function"
    },
    {
      "constant": false,
      "inputs": [
        {
          "name": "_from",
          "type": "address"
        },
        {
          "name": "_to",
          "type": "address"
        },
        {
          "name": "_tokenId",
          "type": "uint256"
        }
      ],
      "name": "transferFrom",
      "outputs": [],
      "payable": false,
      "stateMutability": "nonpayable",
      "type": "function"
    },
    {
      "constant": false,
      "inputs": [
        {
          "name": "_paused",
          "type": "bool"
        }
      ],
      "name": "updatePaused",
      "outputs": [],
      "payable": false,
      "stateMutability": "nonpayable",
      "type": "function"
    },
    {
      "constant": false,
      "inputs": [
        {
          "name": "_curationMarket",
          "type": "address"
        }
      ],
      "name": "updateCurationMarket",
      "outputs": [],
      "payable": false,
      "stateMutability": "nonpayable",
      "type": "function"
    },
    {
      "constant": false,
      "inputs": [
        {
          "name": "_oracle",
          "type": "address"
        }
      ],
      "name": "updateOracle",
      "outputs": [],
      "payable": false,
      "stateMutability": "nonpayable",
      "type": "function"
    },
    {
      "constant": false,
      "inputs": [
        {
          "name": "_simpleCloversMarket",
          "type": "address"
        }
      ],
      "name": "updateSimpleCloversMarket",
      "outputs": [],
      "payable": false,
      "stateMutability": "nonpayable",
      "type": "function"
    },
    {
      "constant": false,
      "inputs": [
        {
          "name": "_clubTokenController",
          "type": "address"
        }
      ],
      "name": "updateClubTokenController",
      "outputs": [],
      "payable": false,
      "stateMutability": "nonpayable",
      "type": "function"
    },
    {
      "constant": false,
      "inputs": [
        {
          "name": "_stakeAmount",
          "type": "uint256"
        }
      ],
      "name": "updateStakeAmount",
      "outputs": [],
      "payable": false,
      "stateMutability": "nonpayable",
      "type": "function"
    },
    {
      "constant": false,
      "inputs": [
        {
          "name": "_stakePeriod",
          "type": "uint256"
        }
      ],
      "name": "updateStakePeriod",
      "outputs": [],
      "payable": false,
      "stateMutability": "nonpayable",
      "type": "function"
    },
    {
      "constant": false,
      "inputs": [
        {
          "name": "_payMultiplier",
          "type": "uint256"
        }
      ],
      "name": "updatePayMultipier",
      "outputs": [],
      "payable": false,
      "stateMutability": "nonpayable",
      "type": "function"
    },
    {
      "constant": false,
      "inputs": [
        {
          "name": "_priceMultiplier",
          "type": "uint256"
        }
      ],
      "name": "updatePriceMultipier",
      "outputs": [],
      "payable": false,
      "stateMutability": "nonpayable",
      "type": "function"
    },
    {
      "constant": false,
      "inputs": [
        {
          "name": "_basePrice",
          "type": "uint256"
        }
      ],
      "name": "updateBasePrice",
      "outputs": [],
      "payable": false,
      "stateMutability": "nonpayable",
      "type": "function"
    },
    {
      "constant": false,
      "inputs": [
        {
          "name": "movesHash",
          "type": "bytes32"
        },
        {
          "name": "committer",
          "type": "address"
        }
      ],
      "name": "_setCommit",
      "outputs": [],
      "payable": false,
      "stateMutability": "nonpayable",
      "type": "function"
    }
  ],
  "bytecode": "0x608060405234801561001057600080fd5b50604051606080620044c283398101604090815281516020830151919092015160008054600160a060020a03191633179055341561004d57600080fd5b60028054600160a060020a03948516600160a060020a0319918216179091556003805493851693821693909317909255600480549190931691161790556000805460a060020a60ff0219167401000000000000000000000000000000000000000017905561440180620000c16000396000f30060806040526004361061024f5763ffffffff7c01000000000000000000000000000000000000000000000000000000006000350416627173c8811461025e57806308cdc2a81461028e5780630d576bfa146102a857806313aff3d4146102e657806317ffc320146103045780631cb44dfc14610332578063225c35b21461036057806323b872dd14610393578063271eff94146103ca57806337b6d96b1461040a5780633afcba961461042257806343be08801461044957806346d2ce201461048a57806347885781146104bb5780635759f3f7146105095780635c9476c7146105215780635c975abb1461053657806360c7dc471461054b57806365a32622146105605780636ffc63331461058157806370e9dcc314610595578063715018a6146105aa57806372420f06146105bf5780637b7db9fa146105d45780637dc0d1d0146105ec5780638784ea96146106015780638a05aafa146106195780638be90b52146106315780638da5cb5b146106465780639564e1801461065b578063975e4b2a146106895780639f727c271461069e578063a4a83ca6146106b3578063a7e901b0146106de578063a89b55da146106f6578063c0ee0b8a1461070b578063c1699a9914610749578063c1fe551a1461075e578063c7876ea414610769578063c90054ee1461077e578063d010ed7014610796578063d09687f7146107c4578063d2d7231f146107dc578063d50cb88b146107f4578063d76bbd5214610809578063e75722301461081e578063e765c12214610836578063f2fde38b1461084e578063fd5baa881461087c575b34801561025b57600080fd5b50005b34801561026a57600080fd5b5061028c73ffffffffffffffffffffffffffffffffffffffff60043516610894565b005b34801561029a57600080fd5b5061028c60043515156108ff565b3480156102b457600080fd5b506102bd61096d565b6040805173ffffffffffffffffffffffffffffffffffffffff9092168252519081900360200190f35b3480156102f257600080fd5b5061028c600435602435604435610989565b34801561031057600080fd5b5061028c73ffffffffffffffffffffffffffffffffffffffff600435166109dc565b34801561033e57600080fd5b5061028c73ffffffffffffffffffffffffffffffffffffffff60043516610acf565b34801561036c57600080fd5b5061037f60043515156024351515610b3a565b604080519115158252519081900360200190f35b34801561039f57600080fd5b5061028c73ffffffffffffffffffffffffffffffffffffffff60043581169060243516604435610b63565b3480156103d657600080fd5b5060408051808201825261037f913691600491604491908390600290839083908082843750939650610c4b95505050505050565b34801561041657600080fd5b5061037f600435610c7b565b34801561042e57600080fd5b50610437610d4c565b60408051918252519081900360200190f35b60408051808201825261037f913691600491604491908390600290839083908082843750939650508335945050506020820135916040013515159050610d52565b34801561049657600080fd5b5061028c60043573ffffffffffffffffffffffffffffffffffffffff6024351661176e565b3480156104c757600080fd5b506104d360043561179c565b604080519315158452602084019290925273ffffffffffffffffffffffffffffffffffffffff1682820152519081900360600190f35b34801561051557600080fd5b5061028c6004356117d7565b34801561052d57600080fd5b50610437611800565b34801561054257600080fd5b5061037f611806565b34801561055757600080fd5b50610437611827565b34801561056c57600080fd5b5061037f60043560243560443560643561182d565b61037f60043560243560443560643561189c565b3480156105a157600080fd5b506104376118ff565b3480156105b657600080fd5b5061028c611905565b3480156105cb57600080fd5b506102bd611996565b3480156105e057600080fd5b5061037f6004356119b2565b3480156105f857600080fd5b506102bd611ec1565b34801561060d57600080fd5b506102bd600435611edd565b34801561062557600080fd5b5061028c600435611f08565b34801561063d57600080fd5b50610437611f31565b34801561065257600080fd5b506102bd611f37565b34801561066757600080fd5b5061028c73ffffffffffffffffffffffffffffffffffffffff60043516611f53565b34801561069557600080fd5b506102bd611fbe565b3480156106aa57600080fd5b5061028c611fda565b3480156106bf57600080fd5b506104376fffffffffffffffffffffffffffffffff1960043516612049565b3480156106ea57600080fd5b5061028c6004356120a9565b34801561070257600080fd5b506102bd6120d2565b34801561071757600080fd5b5061028c6004803573ffffffffffffffffffffffffffffffffffffffff169060248035916044359182019101356120ee565b34801561075557600080fd5b506104376120f3565b61037f6004356120f9565b34801561077557600080fd5b50610437612775565b34801561078a57600080fd5b5061028c60043561277b565b3480156107a257600080fd5b5061028c73ffffffffffffffffffffffffffffffffffffffff600435166127a4565b3480156107d057600080fd5b5061043760043561280f565b3480156107e857600080fd5b506104376004356128f8565b34801561080057600080fd5b50610437612b06565b34801561081557600080fd5b506102bd612b0c565b34801561082a57600080fd5b50610437600435612b28565b34801561084257600080fd5b50610437600435612b36565b34801561085a57600080fd5b5061028c73ffffffffffffffffffffffffffffffffffffffff60043516612b4b565b34801561088857600080fd5b5061028c600435612b78565b60005473ffffffffffffffffffffffffffffffffffffffff1633146108b857600080fd5b600680547fffffffffffffffffffffffff00000000000000000000000000000000000000001673ffffffffffffffffffffffffffffffffffffffff92909216919091179055565b60005473ffffffffffffffffffffffffffffffffffffffff16331461092357600080fd5b6000805491151574010000000000000000000000000000000000000000027fffffffffffffffffffffff00ffffffffffffffffffffffffffffffffffffffff909216919091179055565b60025473ffffffffffffffffffffffffffffffffffffffff1681565b60005473ffffffffffffffffffffffffffffffffffffffff163314806109c6575060015473ffffffffffffffffffffffffffffffffffffffff1633145b15156109d157600080fd5b600755600855600955565b6000805473ffffffffffffffffffffffffffffffffffffffff163314610a0157600080fd5b604080517f70a08231000000000000000000000000000000000000000000000000000000008152306004820152905173ffffffffffffffffffffffffffffffffffffffff8416916370a082319160248083019260209291908290030181600087803b158015610a6f57600080fd5b505af1158015610a83573d6000803e3d6000fd5b505050506040513d6020811015610a9957600080fd5b5051600054909150610acb9073ffffffffffffffffffffffffffffffffffffffff84811691168363ffffffff612ba116565b5050565b60005473ffffffffffffffffffffffffffffffffffffffff163314610af357600080fd5b600180547fffffffffffffffffffffffff00000000000000000000000000000000000000001673ffffffffffffffffffffffffffffffffffffffff92909216919091179055565b60008215610b4a57506000610b5d565b811515610b5957506000610b5d565b5060015b92915050565b60055473ffffffffffffffffffffffffffffffffffffffff16331480610ba0575060065473ffffffffffffffffffffffffffffffffffffffff1633145b1515610bab57600080fd5b600254604080517f23b872dd00000000000000000000000000000000000000000000000000000000815273ffffffffffffffffffffffffffffffffffffffff8681166004830152858116602483015260448201859052915191909216916323b872dd91606480830192600092919082900301818387803b158015610c2e57600080fd5b505af1158015610c42573d6000803e3d6000fd5b50505050505050565b6000610c556142e0565b610c5e83612c80565b9050610c7281600001518260200151610b3a565b91505b50919050565b600254604080517f03a53d6b000000000000000000000000000000000000000000000000000000008152600481018490529051600092839273ffffffffffffffffffffffffffffffffffffffff909116916303a53d6b9160248082019260209290919082900301818787803b158015610cf357600080fd5b505af1158015610d07573d6000803e3d6000fd5b505050506040513d6020811015610d1d57600080fd5b50519050801515610d315760009150610c75565b600e54610d44438363ffffffff612eb516565b119392505050565b600c5481565b60008054819081908190819074010000000000000000000000000000000000000000900460ff1615610de557604080517f08c379a000000000000000000000000000000000000000000000000000000000815260206004820152601260248201527f4d757374206e6f74206265207061757365640000000000000000000000000000604482015290519081900360640190fd5b7f1c3b3e1e72950ae52150ec48810521d17cea4b30c2a59c807d1ba2f8dff57e658989338b8c8c8c6040518088600260200280838360005b83811015610e35578181015183820152602001610e1d565b5050505091909101978852505073ffffffffffffffffffffffffffffffffffffffff90941660208601526040808601939093526060850191909152608084015290151560a0830152519081900360c0019150a1886040518082600260200280838360005b83811015610eb1578181015183820152602001610e99565b5050505090500191505060405180910390209350610edc600754600d54612ec790919063ffffffff16565b925034831115610eeb57600080fd5b610ef484611edd565b73ffffffffffffffffffffffffffffffffffffffff1615610f1457600080fd5b610f1e8433612ef0565b6000831115610f7a57610f318484612f46565b60025460405173ffffffffffffffffffffffffffffffffffffffff9091169084156108fc029085906000818181858888f19350505050158015610f78573d6000803e3d6000fd5b505b6040805185815233602082015281517f4c0f83654ac2972673e4d81058f833de298389df1dce04cc2db9f231b907d5ff929181900390910190a1600254604080517f4f558e79000000000000000000000000000000000000000000000000000000008152600481018b9052905173ffffffffffffffffffffffffffffffffffffffff90921691634f558e79916024808201926020929091908290030181600087803b15801561102857600080fd5b505af115801561103c573d6000803e3d6000fd5b505050506040513d602081101561105257600080fd5b50511561105e57600080fd5b600254604080517f03a53d6b000000000000000000000000000000000000000000000000000000008152600481018b9052905173ffffffffffffffffffffffffffffffffffffffff909216916303a53d6b916024808201926020929091908290030181600087803b1580156110d257600080fd5b505af11580156110e6573d6000803e3d6000fd5b505050506040513d60208110156110fc57600080fd5b50511561110857600080fd5b600254604080517fe3100d1e000000000000000000000000000000000000000000000000000000008152600481018b9052436024820152905173ffffffffffffffffffffffffffffffffffffffff9092169163e3100d1e9160448082019260009290919082900301818387803b15801561118157600080fd5b505af1158015611195573d6000803e3d6000fd5b5050600254604080517f0b628395000000000000000000000000000000000000000000000000000000008152600481018d815273ffffffffffffffffffffffffffffffffffffffff9093169450630b62839593508c928e92909160240190839080838360005b838110156112135781810151838201526020016111fb565b5050505090500192505050600060405180830381600087803b15801561123857600080fd5b505af115801561124c573d6000803e3d6000fd5b5050600254604080517f76e4a87f000000000000000000000000000000000000000000000000000000008152600481018d90528a15156024820152905173ffffffffffffffffffffffffffffffffffffffff90921693506376e4a87f925060448082019260009290919082900301818387803b1580156112cb57600080fd5b505af11580156112df573d6000803e3d6000fd5b50505050600087111561141d57600254604080517fdc3f7758000000000000000000000000000000000000000000000000000000008152600481018b9052602481018a9052905173ffffffffffffffffffffffffffffffffffffffff9092169163dc3f77589160448082019260009290919082900301818387803b15801561136657600080fd5b505af115801561137a573d6000803e3d6000fd5b50505050611387876128f8565b600254604080517fa47bd496000000000000000000000000000000000000000000000000000000008152600481018c905260248101849052905192945073ffffffffffffffffffffffffffffffffffffffff9091169163a47bd4969160448082019260009290919082900301818387803b15801561140457600080fd5b505af1158015611418573d6000803e3d6000fd5b505050505b600a54611430908363ffffffff612f5b16565b905085801561143f5750600081115b1561162a57600354604080517f70a082310000000000000000000000000000000000000000000000000000000081523360048201529051839273ffffffffffffffffffffffffffffffffffffffff16916370a082319160248083019260209291908290030181600087803b1580156114b657600080fd5b505af11580156114ca573d6000803e3d6000fd5b505050506040513d60208110156114e057600080fd5b505110156115985760045473ffffffffffffffffffffffffffffffffffffffff1663f088d547611516348663ffffffff612eb516565b604080517c010000000000000000000000000000000000000000000000000000000063ffffffff85160281523360048201529051602480830192602092919082900301818588803b15801561156a57600080fd5b505af115801561157e573d6000803e3d6000fd5b50505050506040513d602081101561159557600080fd5b50505b600354604080517f9dc29fac00000000000000000000000000000000000000000000000000000000815233600482015260248101849052905173ffffffffffffffffffffffffffffffffffffffff90921691639dc29fac9160448082019260009290919082900301818387803b15801561161157600080fd5b505af1158015611625573d6000803e3d6000fd5b505050505b600254604080517f40c10f1900000000000000000000000000000000000000000000000000000000815273ffffffffffffffffffffffffffffffffffffffff90921660048301819052602483018b9052905190916340c10f1991604480830192600092919082900301818387803b1580156116a457600080fd5b505af11580156116b8573d6000803e3d6000fd5b505050507f1c3b3e1e72950ae52150ec48810521d17cea4b30c2a59c807d1ba2f8dff57e6589893386868c8c6040518088600260200280838360005b8381101561170c5781810151838201526020016116f4565b5050505091909101978852505073ffffffffffffffffffffffffffffffffffffffff90941660208601526040808601939093526060850191909152608084015290151560a0830152519081900360c0019150a150600198975050505050505050565b60005473ffffffffffffffffffffffffffffffffffffffff16331461179257600080fd5b610acb8282612ef0565b600f6020526000908152604090208054600182015460029092015460ff909116919073ffffffffffffffffffffffffffffffffffffffff1683565b60005473ffffffffffffffffffffffffffffffffffffffff1633146117fb57600080fd5b600e55565b60075481565b60005474010000000000000000000000000000000000000000900460ff1681565b600d5481565b6000611838856119b2565b151561184357600080fd5b60005473ffffffffffffffffffffffffffffffffffffffff16331480611880575060015473ffffffffffffffffffffffffffffffffffffffff1633145b1561189057611890848484610989565b5060015b949350505050565b60006118a7856120f9565b15156118b257600080fd5b60005473ffffffffffffffffffffffffffffffffffffffff163314806118ef575060015473ffffffffffffffffffffffffffffffffffffffff1633145b1561189457611894848484610989565b60095481565b60005473ffffffffffffffffffffffffffffffffffffffff16331461192957600080fd5b6000805460405173ffffffffffffffffffffffffffffffffffffffff909116917ff8df31144d9c2f0f6b59d69b8b98abd5459d07f2742c4df920b25aae33c6482091a2600080547fffffffffffffffffffffffff0000000000000000000000000000000000000000169055565b60065473ffffffffffffffffffffffffffffffffffffffff1681565b6000806119bd61435c565b6119c56142e0565b600254604080517f62f9acf90000000000000000000000000000000000000000000000000000000081526004810188905281516001965060009384938493849373ffffffffffffffffffffffffffffffffffffffff909316926362f9acf99260248084019391929182900301818787803b158015611a4257600080fd5b505af1158015611a56573d6000803e3d6000fd5b505050506040513d601f19601f820116820180604052506040811015611a7b57600080fd5b5060005490965073ffffffffffffffffffffffffffffffffffffffff163314801590611abf575060015473ffffffffffffffffffffffffffffffffffffffff163314155b15611c6657611acd86612c80565b945088611ade866101000151612049565b14611ae857600096505b868015611b025750611b0285600001518660200151610b3a565b15611c5657600254604080517fc53b4bf9000000000000000000000000000000000000000000000000000000008152600481018c9052905173ffffffffffffffffffffffffffffffffffffffff9092169163c53b4bf9916024808201926020929091908290030181600087803b158015611b7b57600080fd5b505af1158015611b8f573d6000803e3d6000fd5b505050506040513d6020811015611ba557600080fd5b5051606086015190945015156000601086046001161114611bc7576000611bc9565b865b608086015190975015156000600886046001161114611be9576000611beb565b865b60a086015190975015156000600486046001161114611c0b576000611c0d565b865b60c086015190975015156000600160028704161114611c2d576000611c2f565b865b96508460e00151151560008560011611151514611c4d576000611c4f565b865b9650611c5b565b600096505b8615611c6657600080fd5b856040518082600260200280838360005b83811015611c8f578181015183820152602001611c77565b5050505090500191505060405180910390209250611cac83612b36565b9150611cb789610c7b565b158015611cc45750600082115b15611d5b57600254604080517f1cc1472d00000000000000000000000000000000000000000000000000000000815233600482015260248101859052905173ffffffffffffffffffffffffffffffffffffffff90921691631cc1472d9160448082019260009290919082900301818387803b158015611d4257600080fd5b505af1158015611d56573d6000803e3d6000fd5b505050505b6000838152600f602052604090205460ff1615611d7b57611d7b89612f68565b611d8483611edd565b90507f23e709ab80a4bee9454ba0d08c0b669d684531b4ec766524c43abd788cc3ca76868a8333866040518086600260200280838360005b83811015611dd4578181015183820152602001611dbc565b5050505091909101958652505073ffffffffffffffffffffffffffffffffffffffff92831660208501529116604080840191909152606083019190915251908190036080019150a1600254604080517f0e8310d6000000000000000000000000000000000000000000000000000000008152600481018c9052905173ffffffffffffffffffffffffffffffffffffffff90921691630e8310d69160248082019260009290919082900301818387803b158015611e8f57600080fd5b505af1158015611ea3573d6000803e3d6000fd5b50505050611eb083613292565b600197505b50505050505050919050565b60015473ffffffffffffffffffffffffffffffffffffffff1681565b6000908152600f602052604090206002015473ffffffffffffffffffffffffffffffffffffffff1690565b60005473ffffffffffffffffffffffffffffffffffffffff163314611f2c57600080fd5b600c55565b60085481565b60005473ffffffffffffffffffffffffffffffffffffffff1681565b60005473ffffffffffffffffffffffffffffffffffffffff163314611f7757600080fd5b600480547fffffffffffffffffffffffff00000000000000000000000000000000000000001673ffffffffffffffffffffffffffffffffffffffff92909216919091179055565b60055473ffffffffffffffffffffffffffffffffffffffff1681565b60005473ffffffffffffffffffffffffffffffffffffffff163314611ffe57600080fd5b6000805460405173ffffffffffffffffffffffffffffffffffffffff90911691303180156108fc02929091818181858888f19350505050158015612046573d6000803e3d6000fd5b50565b6000805b6010811015610c755780600101601060ff160360080260020a838260108110151561207457fe5b7f010000000000000000000000000000000000000000000000000000000000000091901a81020402919091019060010161204d565b60005473ffffffffffffffffffffffffffffffffffffffff1633146120cd57600080fd5b600b55565b60045473ffffffffffffffffffffffffffffffffffffffff1681565b600080fd5b600e5481565b600061210361435c565b600254604080517f62f9acf9000000000000000000000000000000000000000000000000000000008152600481018690528151600093849384938493849373ffffffffffffffffffffffffffffffffffffffff16926362f9acf9926024808201939182900301818787803b15801561217a57600080fd5b505af115801561218e573d6000803e3d6000fd5b505050506040513d601f19601f8201168201806040525060408110156121b357600080fd5b50604080519197508791908190839080838360005b838110156121e05781810151838201526020016121c8565b505060408051959093018590039094206000818152600f6020529290922054919a505060ff161593506122169250505057600080fd5b6000858152600f6020526040902080547fffffffffffffffffffffffffffffffffffffffffffffffffffffffffffffff0016600117905561225688610c7b565b80612278575060005473ffffffffffffffffffffffffffffffffffffffff1633145b8061229a575060015473ffffffffffffffffffffffffffffffffffffffff1633145b15156122a557600080fd5b6122ae85612b36565b93506122b9886132f9565b6122c285611edd565b925073ffffffffffffffffffffffffffffffffffffffff83163314806122ff575060005473ffffffffffffffffffffffffffffffffffffffff1633145b80612321575060015473ffffffffffffffffffffffffffffffffffffffff1633145b151561232c57600080fd5b600254604080517f1c4b774b000000000000000000000000000000000000000000000000000000008152600481018b9052905173ffffffffffffffffffffffffffffffffffffffff90921691631c4b774b916024808201926020929091908290030181600087803b1580156123a057600080fd5b505af11580156123b4573d6000803e3d6000fd5b505050506040513d60208110156123ca57600080fd5b5051600254604080517f04952631000000000000000000000000000000000000000000000000000000008152600481018c9052905192945073ffffffffffffffffffffffffffffffffffffffff909116916304952631916024808201926020929091908290030181600087803b15801561244357600080fd5b505af1158015612457573d6000803e3d6000fd5b505050506040513d602081101561246d57600080fd5b50519050801561251557600254604080517f23b872dd00000000000000000000000000000000000000000000000000000000815273ffffffffffffffffffffffffffffffffffffffff928316600482018190529286166024820152604481018b905290516323b872dd9160648082019260009290919082900301818387803b1580156124f857600080fd5b505af115801561250c573d6000803e3d6000fd5b5050505061268d565b600554600b5473ffffffffffffffffffffffffffffffffffffffff9091169063d79875eb908a906125609061255190879063ffffffff612ec716565b600a549063ffffffff612f5b16565b6040518363ffffffff167c01000000000000000000000000000000000000000000000000000000000281526004018083815260200182815260200192505050600060405180830381600087803b1580156125b957600080fd5b505af11580156125cd573d6000803e3d6000fd5b50505050600082111561268d57600354604080517f40c10f1900000000000000000000000000000000000000000000000000000000815273ffffffffffffffffffffffffffffffffffffffff868116600483015260248201869052915191909216916340c10f199160448083019260209291908290030181600087803b15801561265657600080fd5b505af115801561266a573d6000803e3d6000fd5b505050506040513d602081101561268057600080fd5b5051151561268d57600080fd5b600084111561272857600254604080517f1cc1472d00000000000000000000000000000000000000000000000000000000815233600482015260248101879052905173ffffffffffffffffffffffffffffffffffffffff90921691631cc1472d9160448082019260009290919082900301818387803b15801561270f57600080fd5b505af1158015612723573d6000803e3d6000fd5b505050505b6040805189815233602082015280820186905290517fa8a1a24efbea93a5c7f29342ba7652cd030828e12cc15c1416480fecee73d5899181900360600190a1506001979650505050505050565b600a5481565b60005473ffffffffffffffffffffffffffffffffffffffff16331461279f57600080fd5b600d55565b60005473ffffffffffffffffffffffffffffffffffffffff1633146127c857600080fd5b600580547fffffffffffffffffffffffff00000000000000000000000000000000000000001673ffffffffffffffffffffffffffffffffffffffff92909216919091179055565b600254604080517f62f9acf900000000000000000000000000000000000000000000000000000000815260048101849052815160009373ffffffffffffffffffffffffffffffffffffffff16926362f9acf9926024808201939182900301818787803b15801561287e57600080fd5b505af1158015612892573d6000803e3d6000fd5b505050506040513d601f19601f8201168201806040525060408110156128b757600080fd5b5060408051908190839080838360005b838110156128df5781810151838201526020016128c7565b5050505090500191505060405180910390209050919050565b600080600080600080600080600260009054906101000a900473ffffffffffffffffffffffffffffffffffffffff1673ffffffffffffffffffffffffffffffffffffffff1663785d8d716040518163ffffffff167c010000000000000000000000000000000000000000000000000000000002815260040160c060405180830381600087803b15801561298a57600080fd5b505af115801561299e573d6000803e3d6000fd5b505050506040513d60c08110156129b457600080fd5b508051602082015160408301516060840151608085015160a090950151939b5091995097509550909350915060009050600160108a0481161415612a3057612a2d612a2087600101612a148a600101600c54612ec790919063ffffffff16565b9063ffffffff61356816565b829063ffffffff612f5b16565b90505b600160088a0481161415612a6357612a60612a2086600101612a148a600101600c54612ec790919063ffffffff16565b90505b600160048a0481161415612a9657612a93612a2085600101612a148a600101600c54612ec790919063ffffffff16565b90505b600160028a0481161415612ac957612ac6612a2084600101612a148a600101600c54612ec790919063ffffffff16565b90505b8860011660011415612afa57612af7612a2083600101612a148a600101600c54612ec790919063ffffffff16565b90505b98975050505050505050565b600b5481565b60035473ffffffffffffffffffffffffffffffffffffffff1681565b6000610b5d612551836128f8565b6000908152600f602052604090206001015490565b60005473ffffffffffffffffffffffffffffffffffffffff163314612b6f57600080fd5b6120468161357d565b60005473ffffffffffffffffffffffffffffffffffffffff163314612b9c57600080fd5b600a55565b8273ffffffffffffffffffffffffffffffffffffffff1663a9059cbb83836040518363ffffffff167c0100000000000000000000000000000000000000000000000000000000028152600401808373ffffffffffffffffffffffffffffffffffffffff1673ffffffffffffffffffffffffffffffffffffffff16815260200182815260200192505050602060405180830381600087803b158015612c4457600080fd5b505af1158015612c58573d6000803e3d6000fd5b505050506040513d6020811015612c6e57600080fd5b50511515612c7b57600080fd5b505050565b612c886142e0565b612c906142e0565b82517fffffffffffffffffffffffffffffffffffffffffffffffffffffffff000000009081166101208301526020808501519091166101408301526000610180830181905260026101a084018190526101c084015280835290820181905260016101608301527ffffffffffffffe7ffdbfffffffffffff0000000000000000000000000000000061010083015280808080805b603c8260ff16108015612d34575085155b15612e8557602087610180015160ff1610612d5457866101400151612d5b565b8661012001515b9050612d7d81602089610180015160ff16811515612d7557fe5b06602061362c565b9450612d888561369b565b9094509250612d96856136d6565b15955060ff8216158015612dbc57508360ff166002141580612dbc57508260ff16600314155b15612dc957600180885295505b85158015612dda575060088460ff16105b8015612de9575060088360ff16105b8015612df9575060008460ff1610155b8015612e09575060008360ff1610155b15612e7a57612e198785856136e3565b6101808101805160010160ff169052805190975015612e7a576000875261016087015160ff1660011415612e54576002610160880152612e5d565b60016101608801525b612e688785856136e3565b805190975015612e7a57600180885295505b600190910190612d23565b86511515612ea85760008752612e9a87613957565b9650612ea587613b53565b96505b5094979650505050505050565b600082821115612ec157fe5b50900390565b6000821515612ed857506000610b5d565b50818102818382811515612ee857fe5b0414610b5d57fe5b6000918252600f602052604090912060020180547fffffffffffffffffffffffff00000000000000000000000000000000000000001673ffffffffffffffffffffffffffffffffffffffff909216919091179055565b6000918252600f602052604090912060010155565b81810182811015610b5d57fe5b6000806000806000806000600260009054906101000a900473ffffffffffffffffffffffffffffffffffffffff1673ffffffffffffffffffffffffffffffffffffffff1663785d8d716040518163ffffffff167c010000000000000000000000000000000000000000000000000000000002815260040160c060405180830381600087803b158015612ff957600080fd5b505af115801561300d573d6000803e3d6000fd5b505050506040513d60c081101561302357600080fd5b81019080805190602001909291908051906020019092919080519060200190929190805190602001909291908051906020019092919080519060200190929190505050809750819850829950839a50849b50859c50505050505050600260009054906101000a900473ffffffffffffffffffffffffffffffffffffffff1673ffffffffffffffffffffffffffffffffffffffff1663c53b4bf9896040518263ffffffff167c010000000000000000000000000000000000000000000000000000000002815260040180828152602001915050602060405180830381600087803b15801561310f57600080fd5b505af1158015613123573d6000803e3d6000fd5b505050506040513d602081101561313957600080fd5b505190506131626000821161314f576000613152565b60015b889060ff1663ffffffff612eb516565b965061317a866001601084041663ffffffff612eb516565b9550613192856001600884041663ffffffff612eb516565b94506131aa846001600484041663ffffffff612eb516565b93506131c2836002830460011663ffffffff612eb516565b92506131d7826001831663ffffffff612eb516565b600254604080517f8b1b2ba8000000000000000000000000000000000000000000000000000000008152600481018b9052602481018a905260448101899052606481018890526084810187905260a48101849052905192945073ffffffffffffffffffffffffffffffffffffffff90911691638b1b2ba89160c48082019260009290919082900301818387803b15801561327057600080fd5b505af1158015613284573d6000803e3d6000fd5b505050505050505050505050565b6000908152600f6020526040812080547fffffffffffffffffffffffffffffffffffffffffffffffffffffffffffffff00168155600181019190915560020180547fffffffffffffffffffffffff0000000000000000000000000000000000000000169055565b6000806000806000806000600260009054906101000a900473ffffffffffffffffffffffffffffffffffffffff1673ffffffffffffffffffffffffffffffffffffffff1663785d8d716040518163ffffffff167c010000000000000000000000000000000000000000000000000000000002815260040160c060405180830381600087803b15801561338a57600080fd5b505af115801561339e573d6000803e3d6000fd5b505050506040513d60c08110156133b457600080fd5b81019080805190602001909291908051906020019092919080519060200190929190805190602001909291908051906020019092919080519060200190929190505050809750819850829950839a50849b50859c50505050505050600260009054906101000a900473ffffffffffffffffffffffffffffffffffffffff1673ffffffffffffffffffffffffffffffffffffffff1663c53b4bf9896040518263ffffffff167c010000000000000000000000000000000000000000000000000000000002815260040180828152602001915050602060405180830381600087803b1580156134a057600080fd5b505af11580156134b4573d6000803e3d6000fd5b505050506040513d60208110156134ca57600080fd5b505190506134f3600082116134e05760006134e3565b60015b889060ff1663ffffffff612f5b16565b965061350b866001601084041663ffffffff612f5b16565b9550613523856001600884041663ffffffff612f5b16565b945061353b846001600484041663ffffffff612f5b16565b9350613553836002830460011663ffffffff612f5b16565b92506131d7826001831663ffffffff612f5b16565b6000818381151561357557fe5b049392505050565b73ffffffffffffffffffffffffffffffffffffffff8116151561359f57600080fd5b6000805460405173ffffffffffffffffffffffffffffffffffffffff808516939216917f8be0079c531659141344cd1fd0a4f28419497f9722a3daafe3b4186f6b6457e091a3600080547fffffffffffffffffffffffff00000000000000000000000000000000000000001673ffffffffffffffffffffffffffffffffffffffff92909216919091179055565b640100000000647f00000000600793840292909302919091037ffffffffffffffffffffffffffffffffffffffffffffffffffffffffffffffff90160ff1660020a7fffffffffffffffffffffffffffffffffffffffffffffffffffffffff000000009390931692909204160490565b7fffffffffffffffffffffffffffffffffffffffffffffffffffffffffffffffc081810160071692600860ff93859003909201929092160490565b604060ff82161015919050565b6136eb6142e0565b6136f3614377565b600080600080600080600080600360ff166137148e61010001518e8e613dde565b60ff16146137285760018d528c9950613947565b6137338d8d8d613e50565b909950975060ff8816151561374e5760018d528c9950613947565b5060009050805b8760ff168160ff1610156138a157600096508695506137898d8a60ff84166008811061377d57fe5b60200201518e8e614035565b9097509550600092505b8560ff168360ff161015613899578115156137ad57600191505b6137c06137bb88858961362c565b61369b565b80955081965050506137de8d61010001518e6101600151878761416b565b6fffffffffffffffffffffffffffffffff19166101008e01526101608d015160ff166002141561384d576101c08d01805160010160ff9081169091526101a08e0180517fffffffffffffffffffffffffffffffffffffffffffffffffffffffffffffffff01909116905261388e565b6101c08d0180517fffffffffffffffffffffffffffffffffffffffffffffffffffffffffffffffff0160ff9081169091526101a08e01805160010190911690525b600190920191613793565b600101613755565b8115613910576138bd8d61010001518e61016001518e8e61416b565b6fffffffffffffffffffffffffffffffff19166101008e01526101608d015160ff16600214156138fb576101c08d01805160010160ff16905261390b565b6101a08d01805160010160ff1690525b61391c565b60018d528c9950613947565b6101608d015160ff166001141561393a5760026101608e0152613943565b60016101608e01525b8c99505b5050505050505050509392505050565b61395f6142e0565b6139676143a6565b600080600080600061397761435c565b88610180015160ff16603c141561399757600160208a0152889750611eb5565b60009550600094505b60408560ff161015613a23576101008901516139cb90600860078816880360ff160460078816613dde565b935060ff841660031415613a18576040805180820190915260086007871680880360ff9081169290920482168352602083015288908816603c8110613a0c57fe5b60200201526001909501945b6001909401936139a0565b6000925060008660ff161115613b2b578861010001519150600094505b8560ff168560ff16108015613a53575082155b15613b10578660ff8616603c8110613a6757fe5b602002015160016101608b01526000808b526fffffffffffffffffffffffffffffffff1984166101008c0152909150613ab1908a9083905b602002015183600160200201516136e3565b80519099501515613ac157600192505b60026101608a01526000808a526fffffffffffffffffffffffffffffffff1983166101008b0152613af5908a908390613a9f565b80519099501515613b0557600192505b600190940193613a40565b6fffffffffffffffffffffffffffffffff1982166101008a01525b8215613b3a5760018952613b46565b600160208a0152600089525b5096979650505050505050565b613b5b6142e0565b6001808080806000805b60088260ff16108015613b9457508680613b7c5750855b80613b845750845b80613b8c5750835b80613b945750825b15613d86575060005b60088160ff16108015613bcc57508680613bb45750855b80613bbc5750845b80613bc45750835b80613bcc5750825b15613d7b57613be7896101000151836007038360070361420d565b6fffffffffffffffffffffffffffffffff1916613c0a8a6101000151848461420d565b6fffffffffffffffffffffffffffffffff191614613c2757600096505b613c3a896101000151838360070361420d565b6fffffffffffffffffffffffffffffffff1916613c5d8a6101000151848461420d565b6fffffffffffffffffffffffffffffffff191614613c7a57600095505b613c8d896101000151836007038361420d565b6fffffffffffffffffffffffffffffffff1916613cb08a6101000151848461420d565b6fffffffffffffffffffffffffffffffff191614613ccd57600094505b613ce3896101000151826007038460070361420d565b6fffffffffffffffffffffffffffffffff1916613d068a6101000151848461420d565b6fffffffffffffffffffffffffffffffff191614613d2357600093505b613d33896101000151828461420d565b6fffffffffffffffffffffffffffffffff1916613d568a6101000151848461420d565b6fffffffffffffffffffffffffffffffff191614613d7357600092505b600101613b9d565b600190910190613b65565b8680613d8f5750855b80613d975750845b80613d9f5750835b80613da75750825b15613b465750506001604088015293151560608701529115156080860152151560a0850152151560c0840152151560e08301525090565b6000806000613ded8585614264565b7001000000000000000000000000000000006fffffffffffffffffffffffffffffffff821660020a6fffffffffffffffffffffffffffffffff19891604700300000000000000000000000000000000169081049450909250905050509392505050565b613e58614377565b6000613e62614377565b6000613e6c614377565b600080613e7761435c565b60408051610140810182527fffffffffffffffffffffffffffffffffffffffffffffffffffffffffffffffff61010082018181526000610120840181905290835283518085018552828152600160208281018290528086019290925285518087018752838152808301829052858701528551808701875281815280830182905260608601528551808701875281815280830184905260808601528551808701875290815280820184905260a08501528451808601865282815280820184905260c0850152845180860190955282855284019190915260e0820192909252909550935084805b60088160ff161015614022578560ff821660088110613f7757fe5b6020020151925082600060200201518c01935082600160200201518b01945060078560000b1380613fab575060008560000b125b80613fb9575060078460000b135b80613fc7575060008460000b125b151561401a57613fdd8d61010001518587613dde565b91508c610160015160ff168260ff1614151561401a5760ff821660031461401a57828860ff89166008811061400e57fe5b60200201526001909601955b600101613f5c565b50959b949a509398505050505050505050565b60008060008060008060008060008060009650600160ff168e610160015160ff161415614065576002955061406a565b600195505b506000935060015b60098160ff1610156141575784151561414f578c5160208e01519082028d01945081028b0192506007600085900b13806140af575060008460000b125b806140bd575060078360000b135b806140cb575060008360000b125b156140e15760009750600096506001945061414f565b6140f18e61010001518585613dde565b91508560ff168260ff1614156141175761410d88888686614299565b909850965061414f565b8d610160015160ff168260ff16148015614134575060018160ff16115b15614142576001945061414f565b6000975060009650600194505b600101614072565b50959c949b50939950505050505050505050565b600080600060078560ff16111561418157600080fd5b60078460ff16111561419257600080fd5b61419c8585614264565b6fffffffffffffffffffffffffffffffff811660020a70030000000000000000000000000000000081028981189099169860ff8916700100000000000000000000000000000000026fffffffffffffffffffffffffffffffff19169091028917945090925090505050949350505050565b60008061421a8484614264565b6fffffffffffffffffffffffffffffffff811660020a6fffffffffffffffffffffffffffffffff198716047003000000000000000000000000000000001692509050509392505050565b600891909102016040037fffffffffffffffffffffffffffffffffffffffffffffffffffffffffffffffff0160020260ff1690565b6008020160400160ff16640100000000027fffffffffffffffffffffffffffffffffffffffffffffffffffffffff0000000092909216608002919091179160019190910190565b604080516101e081018252600080825260208201819052918101829052606081018290526080810182905260a0810182905260c0810182905260e08101829052610100810182905261012081018290526101408101829052610160810182905261018081018290526101a081018290526101c081019190915290565b60408051808201825290600290829080388339509192915050565b610200604051908101604052806008905b61439061435c565b8152602001906001900390816143885790505090565b610f0060405190810160405280603c905b6143bf61435c565b8152602001906001900390816143b757905050905600a165627a7a723058207b840a4d402481070eb97be9d694a9ad35e2c0eb1ce9b71a758e9671f03e6d3b0029",
  "source": "pragma solidity ^0.4.18;\n\n/**\n * The CloversController is a replaceable endpoint for minting and unminting Clovers.sol and ClubToken.sol\n */\n\nimport \"./Reversi.sol\";\nimport \"./Clovers.sol\";\nimport \"./ClubToken.sol\";\nimport \"./ClubTokenController.sol\";\nimport \"zeppelin-solidity/contracts/ownership/HasNoTokens.sol\";\nimport \"zeppelin-solidity/contracts/ownership/HasNoEther.sol\";\nimport \"zeppelin-solidity/contracts/math/SafeMath.sol\";\n\n\ncontract ISimpleCloversMarket {\n    function sell(uint256 _tokenId, uint256 price) public;\n} \n\ncontract CloversController is HasNoEther, HasNoTokens {\n    event cloverCommitted(bytes32 movesHash, address owner);\n    event cloverClaimed(bytes28[2] moves, uint256 tokenId, address owner, uint stake, uint reward, uint256 symmetries, bool keep);\n    event stakeRetrieved(uint256 tokenId, address owner, uint stake);\n    event cloverChallenged(bytes28[2] moves, uint256 tokenId, address owner, address challenger, uint stake);\n\n    using SafeMath for uint256;\n    bool public paused;\n    address public oracle;\n    address public clovers;\n    address public clubToken;\n    address public clubTokenController;\n    address public simpleCloversMarket;\n    address public curationMarket;\n\n    uint256 public fastGasPrice;\n    uint256 public averageGasPrice;\n    uint256 public slowSafeGasPrice;\n\n    uint256 public basePrice;\n    uint256 public priceMultiplier;\n    uint256 public payMultiplier;\n    uint256 public stakeAmount;\n    uint256 public stakePeriod;\n\n    struct Commit {\n        bool collected;\n        uint256 stake;\n        address committer;\n    }\n\n    mapping (bytes32 => Commit) public commits;\n\n    modifier notPaused() {\n        require(!paused, \"Must not be paused\");\n        _;\n    }\n\n    modifier onlyOwnerOrOracle () {\n        require(msg.sender == owner || msg.sender == oracle);\n        _;\n    }\n\n    constructor(address _clovers, address _clubToken, address _clubTokenController) public {\n        clovers = _clovers;\n        clubToken = _clubToken;\n        clubTokenController = _clubTokenController;\n        paused = true;\n    }\n    /**\n    * @dev Gets the current stake of a Clover based on the hash of the moves.\n    * @param movesHash The hash of the moves that make up the clover.\n    * @return A uint256 value of stake.\n    */\n    function getStake(bytes32 movesHash) public view returns (uint256) {\n        return commits[movesHash].stake;\n    }\n    /**\n    * @dev Gets the address of the committer of a Clover based on the hash of the moves.\n    * @param movesHash The hash of the moves that make up the clover.\n    * @return The address of the committer.\n    */\n    function getCommit(bytes32 movesHash) public view returns (address) {\n        return commits[movesHash].committer;\n    }\n    /**\n    * @dev Gets the current staking period needed to verify a Clover.\n    * @param _tokenId The token Id of the clover.\n    * @return A uint256 value of stake period in seconds.\n    */\n    function getMovesHash(uint _tokenId) public constant returns (bytes32) {\n        return keccak256(Clovers(clovers).getCloverMoves(_tokenId));\n    }\n    /**\n    * @dev Checks whether the game is valid.\n    * @param moves The moves needed to play validate the game.\n    * @return A boolean representing whether or not the game is valid.\n    */\n    function isValid(bytes28[2] moves) public constant returns (bool) {\n        Reversi.Game memory game = Reversi.playGame(moves);\n        return isValidGame(game.error, game.complete);\n    }\n\n    /**\n    * @dev Checks whether the game is valid.\n    * @param error The pre-played game error\n    * @param complete The pre-played game complete boolean\n    * @return A boolean representing whether or not the game is valid.\n    */\n    function isValidGame(bool error, bool complete) public pure returns (bool) {\n        if (error) return false;\n        if (!complete) return false;\n        return true;\n    }\n    /**\n    * @dev Checks whether the game has passed the verification period.\n    * @param _tokenId The board being checked.\n    * @return A boolean representing whether or not the game has been verified.\n    */\n    function isVerified(uint256 _tokenId) public constant returns (bool) {\n        uint256 _blockMinted = Clovers(clovers).getBlockMinted(_tokenId);\n        if(_blockMinted == 0) return false;\n        return block.number.sub(_blockMinted) > stakePeriod;\n    }\n    /**\n    * @dev Calculates the reward of the board.\n    * @param _symmetries symmetries saved as a uint256 value like 00010101 where bits represent symmetry types.\n    * @return A uint256 representing the reward that would be returned for claiming the board.\n    */\n    function calculateReward(uint256 _symmetries) public constant returns (uint256) {\n        uint256 Symmetricals;\n        uint256 RotSym;\n        uint256 Y0Sym;\n        uint256 X0Sym;\n        uint256 XYSym;\n        uint256 XnYSym;\n        (Symmetricals,\n        RotSym,\n        Y0Sym,\n        X0Sym,\n        XYSym,\n        XnYSym) = Clovers(clovers).getAllSymmetries();\n        uint256 base = 0;\n        if (_symmetries >> 4 & 1 == 1) base = base.add(payMultiplier.mul(Symmetricals + 1).div(RotSym + 1));\n        if (_symmetries >> 3 & 1 == 1) base = base.add(payMultiplier.mul(Symmetricals + 1).div(Y0Sym + 1));\n        if (_symmetries >> 2 & 1 == 1) base = base.add(payMultiplier.mul(Symmetricals + 1).div(X0Sym + 1));\n        if (_symmetries >> 1 & 1 == 1) base = base.add(payMultiplier.mul(Symmetricals + 1).div(XYSym + 1));\n        if (_symmetries & 1 == 1) base = base.add(payMultiplier.mul(Symmetricals + 1).div(XnYSym + 1));\n        return base;\n    }\n\n/*\n    // NOTE: Disabled to reduce contract size\n    function instantClaimClover(bytes28[2] moves, bool _keep) public payable returns (bool) {\n        Reversi.Game memory game = Reversi.playGame(moves);\n        require(isValidGame(game.error, game.complete));\n        uint256 tokenId = uint256(game.board);\n        require(Clovers(clovers).getBlockMinted(tokenId) == 0);\n        require(!Clovers(clovers).exists(tokenId));\n        Clovers(clovers).setBlockMinted(tokenId, block.number);\n        Clovers(clovers).setCloverMoves(tokenId, moves);\n\n        uint256 symmetries = Reversi.returnSymmetricals(game.RotSym, game.Y0Sym, game.X0Sym, game.XYSym, game.XnYSym);\n        uint256 reward;\n\n        if (uint256(symmetries) > 0) {\n            Clovers(clovers).setSymmetries(tokenId, uint256(symmetries));\n            reward = calculateReward(uint256(symmetries));\n            Clovers(clovers).setReward(tokenId, reward);\n        }\n        if (_keep) {\n            // If the user decides to keep the Clover, they must\n            // pay for it in club tokens according to the reward price.\n            if (ClubToken(clubToken).balanceOf(msg.sender) < reward) {\n                ClubTokenController(clubTokenController).buy.value(msg.value)(msg.sender); // msg.value needs to be enough to buy \"reward\" amount of Club Token\n            }\n            if (reward > 0) {\n                // ClubToken(clubToken).transferFrom(msg.sender, clubToken, reward); // if we'd rather keep the money\n                ClubToken(clubToken).burn(msg.sender, reward);\n            }\n            Clovers(clovers).mint(msg.sender, tokenId);\n        } else {\n            // If the user decides not to keep the Clover, they will\n            // receive the reward price in club tokens, and the clover will\n            // go for sale at 10x the reward price.\n            if (reward > 0) {\n                require(ClubToken(clubToken).mint(msg.sender, reward));\n            }\n            Clovers(clovers).mint(clovers, tokenId);\n        }\n\n    } */\n\n    function getPrice(uint256 _symmetries) public constant returns(uint256) {\n        return basePrice.add(calculateReward(_symmetries));\n    }\n\n    function setGasPrices(uint256 _slowSafeGasPrice, uint256 _averageGasPrice, uint256 _fastGasPrice) public onlyOwnerOrOracle {\n        fastGasPrice = _fastGasPrice;\n        averageGasPrice = _averageGasPrice;\n        slowSafeGasPrice = _slowSafeGasPrice;\n    }\n\n    /**\n    * @dev Claim the Clover without a commit or reveal. Payable so you can attach enough for the stake,\n    * as well as enough to buy tokens if needed to keep the Clover.\n    * @param moves The moves that make up the Clover reversi game.\n    * @param _tokenId The board that results from the moves.\n    * @param _symmetries symmetries saved as a uint256 value like 00010101 where bits represent symmetry\n    * @param _keep symmetries saved as a uint256 value like 00010101 where bits represent symmetry\n    * types.\n    * @return A boolean representing whether or not the claim was successful.\n    */\n    function claimClover(bytes28[2] moves, uint256 _tokenId, uint256 _symmetries, bool _keep) public payable notPaused returns (bool) {\n        emit cloverClaimed(moves, _tokenId, msg.sender, _tokenId, _tokenId, _symmetries, _keep);\n\n        bytes32 movesHash = keccak256(moves);\n\n        uint256 stakeWithGas = stakeAmount.mul(fastGasPrice);\n        require(msg.value >= stakeWithGas);\n        require(getCommit(movesHash) == 0);\n\n        setCommit(movesHash, msg.sender);\n        if (stakeWithGas > 0) {\n            setStake(movesHash, stakeWithGas);\n            clovers.transfer(stakeWithGas);\n        }\n\n        emit cloverCommitted(movesHash, msg.sender);\n\n        require(!Clovers(clovers).exists(_tokenId));\n        require(Clovers(clovers).getBlockMinted(_tokenId) == 0);\n\n        Clovers(clovers).setBlockMinted(_tokenId, block.number);\n        Clovers(clovers).setCloverMoves(_tokenId, moves);\n        Clovers(clovers).setKeep(_tokenId, _keep);\n\n        uint256 reward;\n        if (_symmetries > 0) {\n            Clovers(clovers).setSymmetries(_tokenId, _symmetries);\n            reward = calculateReward(_symmetries);\n            Clovers(clovers).setReward(_tokenId, reward);\n        }\n        uint256 price = basePrice.add(reward);\n        if (_keep && price > 0) {\n            // If the user decides to keep the Clover, they must\n            // pay for it in club tokens according to the reward price.\n            if (ClubToken(clubToken).balanceOf(msg.sender) < price) {\n                ClubTokenController(clubTokenController).buy.value(msg.value.sub(stakeWithGas))(msg.sender);\n            }\n            // require(ClubToken(clubToken).transferFrom(msg.sender, clovers, price));\n            ClubToken(clubToken).burn(msg.sender, price);\n        }\n        Clovers(clovers).mint(clovers, _tokenId);\n        emit cloverClaimed(moves, _tokenId, msg.sender, stakeWithGas, reward, _symmetries, _keep);\n        return true;\n    }\n\n\n    // This is better than current commit hash because the commiter's address is part of the move sequence\n    // otherwise griefing could still take place....\n    // function generateCommit(bytes28[2] moves) public view returns(bytes32 commitHash) {\n    //     return sha256(moves, msg.sender);\n    // }\n\n    /**\n    * @dev Commit the hash of the moves needed to claim the Clover. A stake should be\n    * made for counterfactual verification.\n    * @param movesHash The hash of the moves that makes up the Clover reversi\n    * game.\n    * @return A boolean representing whether or not the commit was successful.\n    NOTE: Disabled for contract size, if front running becomes a problem it can be\n    implemented with an upgrade\n    */\n    /* function claimCloverCommit(bytes32 movesHash) public payable returns (bool) {\n        require(msg.value >= stakeAmount);\n        require(getCommit(movesHash) == 0);\n\n        setCommit(movesHash, msg.sender);\n        setStake(movesHash, stakeAmount);\n\n        clovers.transfer(stakeAmount);\n\n        emit cloverCommitted(movesHash, msg.sender);\n        return true;\n    }\n    /**\n    * @dev Reveal the solution to the previous commit to claim the Clover.\n    * @param moves The moves that make up the Clover reversi game.\n    * @param _tokenId The board that results from the moves.\n    * @param _symmetries symmetries saved as a uint256 value like 00010101 where bits represent symmetry types.\n    * @return A boolean representing whether or not the reveal and claim was successful.\n    NOTE: Disabled for contract size, if front running becomes a problem it can be implemented with an upgrade\n    */\n    /* function claimCloverReveal(bytes28[2] moves, uint256 _tokenId, uint256 _symmetries, bool _keep) public returns (bool) {\n        bytes32 movesHash = keccak256(moves);\n        address committer = getCommit(movesHash);\n\n        require(Clovers(clovers).getBlockMinted(_tokenId) == 0);\n\n        Clovers(clovers).setBlockMinted(_tokenId, block.number);\n        Clovers(clovers).setCloverMoves(_tokenId, moves);\n        Clovers(clovers).setKeep(_tokenId, _keep);\n        uint256 reward;\n        if (_symmetries > 0) {\n            Clovers(clovers).setSymmetries(_tokenId, _symmetries);\n            reward = calculateReward(_symmetries);\n            Clovers(clovers).setReward(_tokenId, reward);\n        }\n        if (_keep) {\n            ClubToken(clubToken).increaseApproval(address(this), basePrice.add(reward));\n        }\n        uint256 stake = getStake(movesHash);\n        emit cloverClaimed(moves, _tokenId, committer, stake, reward, _symmetries, _keep);\n        return true;\n    } */\n\n\n    /**\n    * @dev Retrieve the stake from a Clover claim after the stake period has ended, or with the authority of the oracle.\n    * @param _tokenId The board which holds the stake.\n    * @param _fastGasPrice The current fast gas price.\n    * @param _averageGasPrice The current average gas price.\n    * @param _slowSafeGasPrice The current slow safe gas price\n    * @return A boolean representing whether or not the retrieval was successful.\n    */\n    function retrieveStake(uint256 _tokenId, uint256 _fastGasPrice, uint256 _averageGasPrice, uint256 _slowSafeGasPrice) public payable returns (bool) {\n        require(retrieveStake(_tokenId));\n        if (msg.sender == owner || msg.sender == oracle) {\n            setGasPrices(_fastGasPrice, _averageGasPrice, _slowSafeGasPrice);\n        }\n    }\n\n    /**\n    * @dev Retrieve the stake from a Clover claim after the stake period has ended, or with the authority of the oracle.\n    * @param _tokenId The board which holds the stake.\n    * @return A boolean representing whether or not the retrieval was successful.\n    */\n    function retrieveStake(uint256 _tokenId) public payable returns (bool) {\n        bytes28[2] memory moves = Clovers(clovers).getCloverMoves(_tokenId);\n        bytes32 movesHash = keccak256(moves);\n\n\n        require(!commits[movesHash].collected);\n        commits[movesHash].collected = true;\n\n        require(isVerified(_tokenId) || msg.sender == owner || msg.sender == oracle);\n\n        uint256 stake = getStake(movesHash);\n        addSymmetries(_tokenId);\n        address committer = getCommit(movesHash);\n        require(committer == msg.sender || msg.sender == owner || msg.sender == oracle);\n        uint256 reward = Clovers(clovers).getReward(_tokenId);\n        bool _keep = Clovers(clovers).getKeep(_tokenId);\n\n        if (_keep) {\n            // If the user decided to keep the Clover, they will\n            // receive the clover now that it has been verified\n            Clovers(clovers).transferFrom(clovers, committer, _tokenId);\n        } else {\n            // If the user decided not to keep the Clover, they will\n            // receive the reward price in club tokens, and the clover will\n            // go for sale by the contract.\n            ISimpleCloversMarket(simpleCloversMarket).sell(_tokenId, basePrice.add(reward.mul(priceMultiplier)));\n            if (reward > 0) {\n                require(ClubToken(clubToken).mint(committer, reward));\n            }\n        }\n        if (stake > 0) {\n            Clovers(clovers).moveEth(msg.sender, stake);\n        }\n        emit stakeRetrieved(_tokenId, msg.sender, stake);\n\n        return true;\n    }\n\n\n    /**\n    * @dev Convert a bytes16 board into a uint256.\n    * @param _board The board being converted.\n    * @return number the uint256 being converted.\n    */\n    function convertBytes16ToUint(bytes16 _board) public view returns(uint256 number) {\n        for(uint i=0;i<_board.length;i++){\n            number = number + uint(_board[i])*(2**(8*(_board.length-(i+1))));\n        }\n    }\n\n\n    /**\n    * @dev Challenge a staked Clover for being invalid.\n    * @param _tokenId The board being challenged.\n    * @param _fastGasPrice The current fast gas price.\n    * @param _averageGasPrice The current average gas price.\n    * @param _slowSafeGasPrice The current slow safe gas price\n    * @return A boolean representing whether or not the challenge was successful.\n    */\n    function challengeClover(uint256 _tokenId, uint256 _fastGasPrice, uint256 _averageGasPrice, uint256 _slowSafeGasPrice) public returns (bool) {\n        require(challengeClover(_tokenId));\n        if (msg.sender == owner || msg.sender == oracle) {\n            setGasPrices(_fastGasPrice, _averageGasPrice, _slowSafeGasPrice);\n        }\n        return true;\n    }\n    /**\n    * @dev Challenge a staked Clover for being invalid.\n    * @param _tokenId The board being challenged.\n    * @return A boolean representing whether or not the challenge was successful.\n    */\n    function challengeClover(uint256 _tokenId) public returns (bool) {\n        bool valid = true;\n        bytes28[2] memory moves = Clovers(clovers).getCloverMoves(_tokenId);\n\n        if (msg.sender != owner && msg.sender != oracle) {\n            Reversi.Game memory game = Reversi.playGame(moves);\n            if(convertBytes16ToUint(game.board) != _tokenId) {\n                valid = false;\n            }\n            if(valid && isValidGame(game.error, game.complete)) {\n                uint256 _symmetries = Clovers(clovers).getSymmetries(_tokenId);\n                valid = (_symmetries >> 4 & 1) > 0 == game.RotSym ? valid : false;\n                valid = (_symmetries >> 3 & 1) > 0 == game.Y0Sym ? valid : false;\n                valid = (_symmetries >> 2 & 1) > 0 == game.X0Sym ? valid : false;\n                valid = (_symmetries >> 1 & 1) > 0 == game.XYSym ? valid : false;\n                valid = (_symmetries & 1) > 0 == game.XnYSym ? valid : false;\n            } else {\n                valid = false;\n            }\n            require(!valid);\n        }\n        bytes32 movesHash = keccak256(moves);\n        uint256 stake = getStake(movesHash);\n        if (!isVerified(_tokenId) && stake > 0) {\n            Clovers(clovers).moveEth(msg.sender, stake);\n        }\n        if (commits[movesHash].collected) {\n            removeSymmetries(_tokenId);\n        }\n\n        address committer = getCommit(movesHash);\n        emit cloverChallenged(moves, _tokenId, committer, msg.sender, stake);\n\n        Clovers(clovers).deleteClover(_tokenId);\n        deleteCommit(movesHash);\n        return true;\n    }\n\n\n    /**\n    * @dev Moves clovers without explicit allow permission for use by simpleCloversMarket\n    * in order to avoid double transaction (allow, transferFrom)\n    * @param _from The current owner of the Clover\n    * @param _to The future owner of the Clover\n    * @param _tokenId The Clover\n    */\n    function transferFrom(address _from, address _to, uint256 _tokenId) public {\n        require(msg.sender == simpleCloversMarket || msg.sender == curationMarket);\n        Clovers(clovers).transferFrom(_from, _to, _tokenId);\n    }\n\n    /**\n    * @dev Updates pause boolean.\n    * @param _paused The new puased boolean.\n    */\n    function updatePaused(bool _paused) public onlyOwner {\n        paused = _paused;\n    }\n\n    /**\n    * @dev Updates curationMarket Address.\n    * @param _curationMarket The new curationMarket Address.\n    */\n    function updateCurationMarket(address _curationMarket) public onlyOwner {\n        curationMarket = _curationMarket;\n    }\n    /**\n    * @dev Updates oracle Address.\n    * @param _oracle The new oracle Address.\n    */\n    function updateOracle(address _oracle) public onlyOwner {\n        oracle = _oracle;\n    }\n\n    /**\n    * @dev Updates simpleCloversMarket Address.\n    * @param _simpleCloversMarket The new simpleCloversMarket address.\n    */\n    function updateSimpleCloversMarket(address _simpleCloversMarket) public onlyOwner {\n        simpleCloversMarket = _simpleCloversMarket;\n    }\n\n    /**\n    * @dev Updates clubTokenController Address.\n    * @param _clubTokenController The new clubTokenController address.\n    */\n    function updateClubTokenController(address _clubTokenController) public onlyOwner {\n        clubTokenController = _clubTokenController;\n    }\n    /**\n    * @dev Updates the stake amount.\n    * @param _stakeAmount The new amount needed to stake.\n    */\n    function updateStakeAmount(uint256 _stakeAmount) public onlyOwner {\n        stakeAmount = _stakeAmount;\n    }\n    /**\n    * @dev Updates the stake period.\n    * @param _stakePeriod The uint256 value of time needed to stake before being verified.\n    */\n    function updateStakePeriod(uint256 _stakePeriod) public onlyOwner {\n        stakePeriod = _stakePeriod;\n    }\n    /**\n    * @dev Updates the pay multiplier, used to calculate token reward.\n    * @param _payMultiplier The uint256 value of pay multiplier.\n    */\n    function updatePayMultipier(uint256 _payMultiplier) public onlyOwner {\n        payMultiplier = _payMultiplier;\n    }\n    /**\n    * @dev Updates the price multiplier, used to calculate the clover price (multiplied by the original reward).\n    * @param _priceMultiplier The uint256 value of the price multiplier.\n    */\n    function updatePriceMultipier(uint256 _priceMultiplier) public onlyOwner {\n        priceMultiplier = _priceMultiplier;\n    }\n    /**\n    * @dev Updates the base price, used to calculate the clover cost.\n    * @param _basePrice The uint256 value of the base price.\n    */\n    function updateBasePrice(uint256 _basePrice) public onlyOwner {\n        basePrice = _basePrice;\n    }\n\n    /**\n    * @dev Sets the stake of a Clover based on the hash of the moves.\n    * @param movesHash The hash of the moves that make up the clover.\n    * @param stake A uint256 value of stake.\n    */\n    function setStake(bytes32 movesHash, uint256 stake) private {\n        commits[movesHash].stake = stake;\n    }\n\n    /**\n    * @dev Sets the address of the committer of a Clover based on the hash of the moves.\n    * @param movesHash The hash of the moves that make up the clover.\n    * @param committer The address of the committer.\n    */\n    function setCommit(bytes32 movesHash, address committer) private {\n        commits[movesHash].committer = committer;\n    }\n\n    function _setCommit(bytes32 movesHash, address committer) public onlyOwner {\n        setCommit(movesHash, committer);\n    }\n    function deleteCommit(bytes32 movesHash) private {\n        delete(commits[movesHash]);\n    }\n\n    /**\n    * @dev Adds new tallys of the totals numbers of clover symmetries.\n    * @param _tokenId The token which needs to be examined.\n    */\n    function addSymmetries(uint256 _tokenId) private {\n        uint256 Symmetricals;\n        uint256 RotSym;\n        uint256 Y0Sym;\n        uint256 X0Sym;\n        uint256 XYSym;\n        uint256 XnYSym;\n        (Symmetricals,\n        RotSym,\n        Y0Sym,\n        X0Sym,\n        XYSym,\n        XnYSym) = Clovers(clovers).getAllSymmetries();\n        uint256 _symmetries = Clovers(clovers).getSymmetries(_tokenId);\n        Symmetricals = Symmetricals.add(_symmetries > 0 ? 1 : 0);\n        RotSym = RotSym.add(uint256(_symmetries >> 4 & 1));\n        Y0Sym = Y0Sym.add(uint256(_symmetries >> 3 & 1));\n        X0Sym = X0Sym.add(uint256(_symmetries >> 2 & 1));\n        XYSym = XYSym.add(uint256(_symmetries >> 1 & 1));\n        XnYSym = XnYSym.add(uint256(_symmetries & 1));\n        Clovers(clovers).setAllSymmetries(Symmetricals, RotSym, Y0Sym, X0Sym, XYSym, XnYSym);\n    }\n    /**\n    * @dev Remove false tallys of the totals numbers of clover symmetries.\n    * @param _tokenId The token which needs to be examined.\n    */\n    function removeSymmetries(uint256 _tokenId) private {\n        uint256 Symmetricals;\n        uint256 RotSym;\n        uint256 Y0Sym;\n        uint256 X0Sym;\n        uint256 XYSym;\n        uint256 XnYSym;\n        (Symmetricals,\n        RotSym,\n        Y0Sym,\n        X0Sym,\n        XYSym,\n        XnYSym) = Clovers(clovers).getAllSymmetries();\n        uint256 _symmetries = Clovers(clovers).getSymmetries(_tokenId);\n        Symmetricals = Symmetricals.sub(_symmetries > 0 ? 1 : 0);\n        RotSym = RotSym.sub(uint256(_symmetries >> 4 & 1));\n        Y0Sym = Y0Sym.sub(uint256(_symmetries >> 3 & 1));\n        X0Sym = X0Sym.sub(uint256(_symmetries >> 2 & 1));\n        XYSym = XYSym.sub(uint256(_symmetries >> 1 & 1));\n        XnYSym = XnYSym.sub(uint256(_symmetries & 1));\n        Clovers(clovers).setAllSymmetries(Symmetricals, RotSym, Y0Sym, X0Sym, XYSym, XnYSym);\n    }\n\n}\n",
  "sourcePath": "/home/billy/GitHub.com/clovers-network/clovers-contracts/contracts/CloversController.sol",
  "compiler": {
    "name": "solc",
    "version": "0.4.24+commit.e67f0147.Emscripten.clang"
  },
  "schemaVersion": "2.0.1",
  "updatedAt": "2019-08-25T09:51:57.421Z"
}