{
  "contractName": "CloversController",
  "abi": [
    {
      "constant": true,
      "inputs": [],
      "name": "clovers",
      "outputs": [
        {
          "name": "",
          "type": "address"
        }
      ],
      "payable": false,
      "stateMutability": "view",
      "type": "function"
    },
    {
      "constant": false,
      "inputs": [
        {
          "name": "token",
          "type": "address"
        }
      ],
      "name": "reclaimToken",
      "outputs": [],
      "payable": false,
      "stateMutability": "nonpayable",
      "type": "function"
    },
    {
      "constant": true,
      "inputs": [],
      "name": "payMultiplier",
      "outputs": [
        {
          "name": "",
          "type": "uint256"
        }
      ],
      "payable": false,
      "stateMutability": "view",
      "type": "function"
    },
    {
      "constant": true,
      "inputs": [],
      "name": "stakeAmount",
      "outputs": [
        {
          "name": "",
          "type": "uint256"
        }
      ],
      "payable": false,
      "stateMutability": "view",
      "type": "function"
    },
    {
      "constant": false,
      "inputs": [],
      "name": "renounceOwnership",
      "outputs": [],
      "payable": false,
      "stateMutability": "nonpayable",
      "type": "function"
    },
    {
      "constant": true,
      "inputs": [],
      "name": "owner",
      "outputs": [
        {
          "name": "",
          "type": "address"
        }
      ],
      "payable": false,
      "stateMutability": "view",
      "type": "function"
    },
    {
      "constant": false,
      "inputs": [
        {
          "name": "from_",
          "type": "address"
        },
        {
          "name": "value_",
          "type": "uint256"
        },
        {
          "name": "data_",
          "type": "bytes"
        }
      ],
      "name": "tokenFallback",
      "outputs": [],
      "payable": false,
      "stateMutability": "nonpayable",
      "type": "function"
    },
    {
      "constant": true,
      "inputs": [],
      "name": "stakePeriod",
      "outputs": [
        {
          "name": "",
          "type": "uint256"
        }
      ],
      "payable": false,
      "stateMutability": "view",
      "type": "function"
    },
    {
      "constant": true,
      "inputs": [],
      "name": "clubToken",
      "outputs": [
        {
          "name": "",
          "type": "address"
        }
      ],
      "payable": false,
      "stateMutability": "view",
      "type": "function"
    },
    {
      "constant": false,
      "inputs": [
        {
          "name": "_newOwner",
          "type": "address"
        }
      ],
      "name": "transferOwnership",
      "outputs": [],
      "payable": false,
      "stateMutability": "nonpayable",
      "type": "function"
    },
    {
      "inputs": [
        {
          "name": "_clovers",
          "type": "address"
        },
        {
          "name": "_clubToken",
          "type": "address"
        }
      ],
      "payable": false,
      "stateMutability": "nonpayable",
      "type": "constructor"
    },
    {
      "anonymous": false,
      "inputs": [
        {
          "indexed": false,
          "name": "movesHash",
          "type": "bytes32"
        },
        {
          "indexed": false,
          "name": "owner",
          "type": "address"
        }
      ],
      "name": "cloverCommitted",
      "type": "event"
    },
    {
      "anonymous": false,
      "inputs": [
        {
          "indexed": false,
          "name": "moves",
          "type": "bytes28[2]"
        },
        {
          "indexed": false,
          "name": "tokenId",
          "type": "uint256"
        },
        {
          "indexed": false,
          "name": "owner",
          "type": "address"
        },
        {
          "indexed": false,
          "name": "stake",
          "type": "uint256"
        },
        {
          "indexed": false,
          "name": "reward",
          "type": "uint256"
        },
        {
          "indexed": false,
          "name": "symmetries",
          "type": "uint256"
        }
      ],
      "name": "cloverClaimed",
      "type": "event"
    },
    {
      "anonymous": false,
      "inputs": [
        {
          "indexed": false,
          "name": "tokenId",
          "type": "uint256"
        },
        {
          "indexed": false,
          "name": "owner",
          "type": "address"
        },
        {
          "indexed": false,
          "name": "stake",
          "type": "uint256"
        },
        {
          "indexed": false,
          "name": "reward",
          "type": "uint256"
        }
      ],
      "name": "stakeAndRewardRetrieved",
      "type": "event"
    },
    {
      "anonymous": false,
      "inputs": [
        {
          "indexed": false,
          "name": "moves",
          "type": "bytes28[2]"
        },
        {
          "indexed": false,
          "name": "tokenId",
          "type": "uint256"
        },
        {
          "indexed": false,
          "name": "owner",
          "type": "address"
        },
        {
          "indexed": false,
          "name": "challenger",
          "type": "address"
        },
        {
          "indexed": false,
          "name": "stake",
          "type": "uint256"
        }
      ],
      "name": "cloverChallenged",
      "type": "event"
    },
    {
      "anonymous": false,
      "inputs": [
        {
          "indexed": true,
          "name": "previousOwner",
          "type": "address"
        }
      ],
      "name": "OwnershipRenounced",
      "type": "event"
    },
    {
      "anonymous": false,
      "inputs": [
        {
          "indexed": true,
          "name": "previousOwner",
          "type": "address"
        },
        {
          "indexed": true,
          "name": "newOwner",
          "type": "address"
        }
      ],
      "name": "OwnershipTransferred",
      "type": "event"
    },
    {
      "constant": true,
      "inputs": [
        {
          "name": "_tokenId",
          "type": "uint256"
        }
      ],
      "name": "getMovesHash",
      "outputs": [
        {
          "name": "",
          "type": "bytes32"
        }
      ],
      "payable": false,
      "stateMutability": "view",
      "type": "function"
    },
    {
      "constant": true,
      "inputs": [
        {
          "name": "moves",
          "type": "bytes28[2]"
        }
      ],
      "name": "isValid",
      "outputs": [
        {
          "name": "",
          "type": "bool"
        }
      ],
      "payable": false,
      "stateMutability": "view",
      "type": "function"
    },
    {
      "constant": true,
      "inputs": [
        {
          "components": [
            {
              "name": "error",
              "type": "bool"
            },
            {
              "name": "complete",
              "type": "bool"
            },
            {
              "name": "symmetrical",
              "type": "bool"
            },
            {
              "name": "RotSym",
              "type": "bool"
            },
            {
              "name": "Y0Sym",
              "type": "bool"
            },
            {
              "name": "X0Sym",
              "type": "bool"
            },
            {
              "name": "XYSym",
              "type": "bool"
            },
            {
              "name": "XnYSym",
              "type": "bool"
            },
            {
              "name": "board",
              "type": "bytes16"
            },
            {
              "name": "first32Moves",
              "type": "bytes28"
            },
            {
              "name": "lastMoves",
              "type": "bytes28"
            },
            {
              "name": "currentPlayer",
              "type": "uint8"
            },
            {
              "name": "moveKey",
              "type": "uint8"
            },
            {
              "name": "blackScore",
              "type": "uint8"
            },
            {
              "name": "whiteScore",
              "type": "uint8"
            }
          ],
          "name": "game",
          "type": "tuple"
        }
      ],
      "name": "isValidGame",
      "outputs": [
        {
          "name": "",
          "type": "bool"
        }
      ],
      "payable": false,
      "stateMutability": "pure",
      "type": "function"
    },
    {
      "constant": true,
      "inputs": [
        {
          "name": "_tokenId",
          "type": "uint256"
        }
      ],
      "name": "isVerified",
      "outputs": [
        {
          "name": "",
          "type": "bool"
        }
      ],
      "payable": false,
      "stateMutability": "view",
      "type": "function"
    },
    {
      "constant": true,
      "inputs": [
        {
          "name": "_symmetries",
          "type": "uint256"
        }
      ],
      "name": "calculateReward",
      "outputs": [
        {
          "name": "",
          "type": "uint256"
        }
      ],
      "payable": false,
      "stateMutability": "view",
      "type": "function"
    },
    {
      "constant": false,
      "inputs": [
        {
          "name": "moves",
          "type": "bytes28[2]"
        },
        {
          "name": "_tokenId",
          "type": "uint256"
        },
        {
          "name": "_symmetries",
          "type": "uint256"
        },
        {
          "name": "_to",
          "type": "address"
        }
      ],
      "name": "claimClover",
      "outputs": [
        {
          "name": "",
          "type": "bool"
        }
      ],
      "payable": true,
      "stateMutability": "payable",
      "type": "function"
    },
    {
      "constant": false,
      "inputs": [
        {
          "name": "movesHash",
          "type": "bytes32"
        },
        {
          "name": "_to",
          "type": "address"
        }
      ],
      "name": "claimCloverCommit",
      "outputs": [
        {
          "name": "",
          "type": "bool"
        }
      ],
      "payable": true,
      "stateMutability": "payable",
      "type": "function"
    },
    {
      "constant": false,
      "inputs": [
        {
          "name": "moves",
          "type": "bytes28[2]"
        },
        {
          "name": "_tokenId",
          "type": "uint256"
        },
        {
          "name": "_symmetries",
          "type": "uint256"
        }
      ],
      "name": "claimCloverReveal",
      "outputs": [
        {
          "name": "",
          "type": "bool"
        }
      ],
      "payable": false,
      "stateMutability": "nonpayable",
      "type": "function"
    },
    {
      "constant": false,
      "inputs": [
        {
          "name": "_tokenId",
          "type": "uint256"
        }
      ],
      "name": "retrieveStake",
      "outputs": [
        {
          "name": "",
          "type": "bool"
        }
      ],
      "payable": false,
      "stateMutability": "nonpayable",
      "type": "function"
    },
    {
      "constant": false,
      "inputs": [
        {
          "name": "_tokenId",
          "type": "uint256"
        },
        {
          "name": "_to",
          "type": "address"
        }
      ],
      "name": "challengeClover",
      "outputs": [
        {
          "name": "",
          "type": "bool"
        }
      ],
      "payable": false,
      "stateMutability": "nonpayable",
      "type": "function"
    },
    {
      "constant": false,
      "inputs": [
        {
          "name": "_stakeAmount",
          "type": "uint256"
        }
      ],
      "name": "updateStakeAmount",
      "outputs": [],
      "payable": false,
      "stateMutability": "nonpayable",
      "type": "function"
    },
    {
      "constant": false,
      "inputs": [
        {
          "name": "_stakePeriod",
          "type": "uint256"
        }
      ],
      "name": "updateStakePeriod",
      "outputs": [],
      "payable": false,
      "stateMutability": "nonpayable",
      "type": "function"
    },
    {
      "constant": false,
      "inputs": [
        {
          "name": "_payMultiplier",
          "type": "uint256"
        }
      ],
      "name": "updatePayMultipier",
      "outputs": [],
      "payable": false,
      "stateMutability": "nonpayable",
      "type": "function"
    }
  ],
  "bytecode": "0x60806040523480156200001157600080fd5b5060405160408062005afa833981018060405262000033919081019062000113565b336000806101000a81548173ffffffffffffffffffffffffffffffffffffffff021916908373ffffffffffffffffffffffffffffffffffffffff16021790555081600160006101000a81548173ffffffffffffffffffffffffffffffffffffffff021916908373ffffffffffffffffffffffffffffffffffffffff16021790555080600260006101000a81548173ffffffffffffffffffffffffffffffffffffffff021916908373ffffffffffffffffffffffffffffffffffffffff160217905550505062000174565b60006200010b825162000154565b905092915050565b600080604083850312156200012757600080fd5b60006200013785828601620000fd565b92505060206200014a85828601620000fd565b9150509250929050565b600073ffffffffffffffffffffffffffffffffffffffff82169050919050565b61597680620001846000396000f300608060405260043610610133576000357c0100000000000000000000000000000000000000000000000000000000900463ffffffff168063038f1328146101385780630d576bfa1461016857806317ffc32014610193578063271eff94146101bc57806335f71899146101f957806337b6d96b146102295780633afcba96146102665780635759f3f71461029157806358fcd4b6146102ba57806360c7dc47146102f7578063715018a6146103225780638a05aafa146103395780638da5cb5b14610362578063acd37b7b1461038d578063c0ee0b8a146103ca578063c1699a99146103f3578063c1fe551a1461041e578063c90054ee1461045b578063d09687f714610484578063d2d7231f146104c1578063d76bbd52146104fe578063f2fde38b14610529578063f8a68a5614610552575b600080fd5b610152600480360361014d919081019061517d565b61058f565b60405161015f919061556a565b60405180910390f35b34801561017457600080fd5b5061017d610c6b565b60405161018a9190615472565b60405180910390f35b34801561019f57600080fd5b506101ba60048036036101b59190810190615245565b610c91565b005b3480156101c857600080fd5b506101e360048036036101de91908101906150dc565b610de7565b6040516101f0919061556a565b60405180910390f35b610213600480360361020e9190810190615209565b610e0d565b604051610220919061556a565b60405180910390f35b34801561023557600080fd5b50610250600480360361024b9190810190615298565b611137565b60405161025d919061556a565b60405180910390f35b34801561027257600080fd5b5061027b611227565b604051610288919061565f565b60405180910390f35b34801561029d57600080fd5b506102b860048036036102b39190810190615298565b61122d565b005b3480156102c657600080fd5b506102e160048036036102dc919081019061512e565b611292565b6040516102ee919061556a565b60405180910390f35b34801561030357600080fd5b5061030c611933565b604051610319919061565f565b60405180910390f35b34801561032e57600080fd5b50610337611939565b005b34801561034557600080fd5b50610360600480360361035b9190810190615298565b611a3b565b005b34801561036e57600080fd5b50610377611aa0565b6040516103849190615472565b60405180910390f35b34801561039957600080fd5b506103b460048036036103af91908101906152ea565b611ac5565b6040516103c1919061556a565b60405180910390f35b3480156103d657600080fd5b506103f160048036036103ec9190810190615070565b61234c565b005b3480156103ff57600080fd5b50610408612351565b604051610415919061565f565b60405180910390f35b34801561042a57600080fd5b5061044560048036036104409190810190615298565b612357565b604051610452919061556a565b60405180910390f35b34801561046757600080fd5b50610482600480360361047d9190810190615298565b6129d3565b005b34801561049057600080fd5b506104ab60048036036104a69190810190615298565b612a38565b6040516104b89190615585565b60405180910390f35b3480156104cd57600080fd5b506104e860048036036104e39190810190615298565b612b46565b6040516104f5919061565f565b60405180910390f35b34801561050a57600080fd5b50610513612ddc565b6040516105209190615472565b60405180910390f35b34801561053557600080fd5b50610550600480360361054b919081019061501e565b612e02565b005b34801561055e57600080fd5b506105796004803603610574919081019061526e565b612e69565b604051610586919061556a565b60405180910390f35b600080600080640100000000028760006002811015156105ab57fe5b602002015163ffffffff1916141515156105c457600080fd5b600454341415156105d457600080fd5b866040518082600260200280838360005b838110156106005780820151818401526020810190506105e5565b5050505090500191505060405180910390209150600160009054906101000a900473ffffffffffffffffffffffffffffffffffffffff1673ffffffffffffffffffffffffffffffffffffffff16631dbd9d9183866040518363ffffffff167c010000000000000000000000000000000000000000000000000000000002815260040161068d9291906155a0565b600060405180830381600087803b1580156106a757600080fd5b505af11580156106bb573d6000803e3d6000fd5b50505050600160009054906101000a900473ffffffffffffffffffffffffffffffffffffffff1673ffffffffffffffffffffffffffffffffffffffff16633541fd53836004546040518363ffffffff167c010000000000000000000000000000000000000000000000000000000002815260040161073a92919061561b565b600060405180830381600087803b15801561075457600080fd5b505af1158015610768573d6000803e3d6000fd5b50505050600160009054906101000a900473ffffffffffffffffffffffffffffffffffffffff1673ffffffffffffffffffffffffffffffffffffffff166108fc6004549081150290604051600060405180830381858888f193505050501580156107d6573d6000803e3d6000fd5b506000600160009054906101000a900473ffffffffffffffffffffffffffffffffffffffff1673ffffffffffffffffffffffffffffffffffffffff166303a53d6b886040518263ffffffff167c0100000000000000000000000000000000000000000000000000000000028152600401610850919061565f565b602060405180830381600087803b15801561086a57600080fd5b505af115801561087e573d6000803e3d6000fd5b505050506040513d601f19601f820116820180604052506108a291908101906152c1565b1415156108ae57600080fd5b600160009054906101000a900473ffffffffffffffffffffffffffffffffffffffff1673ffffffffffffffffffffffffffffffffffffffff1663e3100d1e87436040518363ffffffff167c01000000000000000000000000000000000000000000000000000000000281526004016109279291906156e8565b600060405180830381600087803b15801561094157600080fd5b505af1158015610955573d6000803e3d6000fd5b50505050600160009054906101000a900473ffffffffffffffffffffffffffffffffffffffff1673ffffffffffffffffffffffffffffffffffffffff16630b62839587896040518363ffffffff167c01000000000000000000000000000000000000000000000000000000000281526004016109d29291906156bf565b600060405180830381600087803b1580156109ec57600080fd5b505af1158015610a00573d6000803e3d6000fd5b505050506000851115610b6f57600160009054906101000a900473ffffffffffffffffffffffffffffffffffffffff1673ffffffffffffffffffffffffffffffffffffffff1663dc3f775887876040518363ffffffff167c0100000000000000000000000000000000000000000000000000000000028152600401610a869291906156e8565b600060405180830381600087803b158015610aa057600080fd5b505af1158015610ab4573d6000803e3d6000fd5b50505050610ac185612b46565b9050600160009054906101000a900473ffffffffffffffffffffffffffffffffffffffff1673ffffffffffffffffffffffffffffffffffffffff1663a47bd49687836040518363ffffffff167c0100000000000000000000000000000000000000000000000000000000028152600401610b3c9291906156e8565b600060405180830381600087803b158015610b5657600080fd5b505af1158015610b6a573d6000803e3d6000fd5b505050505b600160009054906101000a900473ffffffffffffffffffffffffffffffffffffffff1673ffffffffffffffffffffffffffffffffffffffff166340c10f1985886040518363ffffffff167c0100000000000000000000000000000000000000000000000000000000028152600401610be892919061548d565b600060405180830381600087803b158015610c0257600080fd5b505af1158015610c16573d6000803e3d6000fd5b505050507f9e2bcf76790c190a87d6418084ca9f7d35a8166a4acbecc10088b106360fd38b878786600454858a604051610c5596959493929190615509565b60405180910390a1600192505050949350505050565b600160009054906101000a900473ffffffffffffffffffffffffffffffffffffffff1681565b60008060009054906101000a900473ffffffffffffffffffffffffffffffffffffffff1673ffffffffffffffffffffffffffffffffffffffff163373ffffffffffffffffffffffffffffffffffffffff16141515610cee57600080fd5b8173ffffffffffffffffffffffffffffffffffffffff166370a08231306040518263ffffffff167c0100000000000000000000000000000000000000000000000000000000028152600401610d439190615644565b602060405180830381600087803b158015610d5d57600080fd5b505af1158015610d71573d6000803e3d6000fd5b505050506040513d601f19601f82011682018060405250610d9591908101906152c1565b9050610de36000809054906101000a900473ffffffffffffffffffffffffffffffffffffffff16828473ffffffffffffffffffffffffffffffffffffffff16612e9c9092919063ffffffff16565b5050565b6000610df1614ada565b610dfa83612f55565b9050610e0581612e69565b915050919050565b6000808273ffffffffffffffffffffffffffffffffffffffff1614151515610e3457600080fd5b60045434141515610e4457600080fd5b6000600160009054906101000a900473ffffffffffffffffffffffffffffffffffffffff1673ffffffffffffffffffffffffffffffffffffffff16638784ea96856040518263ffffffff167c0100000000000000000000000000000000000000000000000000000000028152600401610ebd9190615585565b602060405180830381600087803b158015610ed757600080fd5b505af1158015610eeb573d6000803e3d6000fd5b505050506040513d601f19601f82011682018060405250610f0f9190810190615047565b73ffffffffffffffffffffffffffffffffffffffff16141515610f3157600080fd5b600160009054906101000a900473ffffffffffffffffffffffffffffffffffffffff1673ffffffffffffffffffffffffffffffffffffffff16631dbd9d9184846040518363ffffffff167c0100000000000000000000000000000000000000000000000000000000028152600401610faa9291906155a0565b600060405180830381600087803b158015610fc457600080fd5b505af1158015610fd8573d6000803e3d6000fd5b50505050600160009054906101000a900473ffffffffffffffffffffffffffffffffffffffff1673ffffffffffffffffffffffffffffffffffffffff16633541fd53846004546040518363ffffffff167c010000000000000000000000000000000000000000000000000000000002815260040161105792919061561b565b600060405180830381600087803b15801561107157600080fd5b505af1158015611085573d6000803e3d6000fd5b50505050600160009054906101000a900473ffffffffffffffffffffffffffffffffffffffff1673ffffffffffffffffffffffffffffffffffffffff166108fc6004549081150290604051600060405180830381858888f193505050501580156110f3573d6000803e3d6000fd5b507f4c0f83654ac2972673e4d81058f833de298389df1dce04cc2db9f231b907d5ff83836040516111259291906155a0565b60405180910390a16001905092915050565b600080600160009054906101000a900473ffffffffffffffffffffffffffffffffffffffff1673ffffffffffffffffffffffffffffffffffffffff166303a53d6b846040518263ffffffff167c01000000000000000000000000000000000000000000000000000000000281526004016111b1919061565f565b602060405180830381600087803b1580156111cb57600080fd5b505af11580156111df573d6000803e3d6000fd5b505050506040513d601f19601f8201168201806040525061120391908101906152c1565b905060008114156112175760009150611221565b6005548143031191505b50919050565b60035481565b6000809054906101000a900473ffffffffffffffffffffffffffffffffffffffff1673ffffffffffffffffffffffffffffffffffffffff163373ffffffffffffffffffffffffffffffffffffffff1614151561128857600080fd5b8060058190555050565b600080600080600080640100000000028860006002811015156112b157fe5b602002015163ffffffff1916141515156112ca57600080fd5b876040518082600260200280838360005b838110156112f65780820151818401526020810190506112db565b5050505090500191505060405180910390209350600160009054906101000a900473ffffffffffffffffffffffffffffffffffffffff1673ffffffffffffffffffffffffffffffffffffffff16638784ea96856040518263ffffffff167c01000000000000000000000000000000000000000000000000000000000281526004016113819190615585565b602060405180830381600087803b15801561139b57600080fd5b505af11580156113af573d6000803e3d6000fd5b505050506040513d601f19601f820116820180604052506113d39190810190615047565b92506000600160009054906101000a900473ffffffffffffffffffffffffffffffffffffffff1673ffffffffffffffffffffffffffffffffffffffff166303a53d6b896040518263ffffffff167c010000000000000000000000000000000000000000000000000000000002815260040161144e919061565f565b602060405180830381600087803b15801561146857600080fd5b505af115801561147c573d6000803e3d6000fd5b505050506040513d601f19601f820116820180604052506114a091908101906152c1565b1415156114ac57600080fd5b600160009054906101000a900473ffffffffffffffffffffffffffffffffffffffff1673ffffffffffffffffffffffffffffffffffffffff1663e3100d1e88436040518363ffffffff167c01000000000000000000000000000000000000000000000000000000000281526004016115259291906156e8565b600060405180830381600087803b15801561153f57600080fd5b505af1158015611553573d6000803e3d6000fd5b50505050600160009054906101000a900473ffffffffffffffffffffffffffffffffffffffff1673ffffffffffffffffffffffffffffffffffffffff16630b628395888a6040518363ffffffff167c01000000000000000000000000000000000000000000000000000000000281526004016115d09291906156bf565b600060405180830381600087803b1580156115ea57600080fd5b505af11580156115fe573d6000803e3d6000fd5b50505050600086111561176d57600160009054906101000a900473ffffffffffffffffffffffffffffffffffffffff1673ffffffffffffffffffffffffffffffffffffffff1663dc3f775888886040518363ffffffff167c01000000000000000000000000000000000000000000000000000000000281526004016116849291906156e8565b600060405180830381600087803b15801561169e57600080fd5b505af11580156116b2573d6000803e3d6000fd5b505050506116bf86612b46565b9150600160009054906101000a900473ffffffffffffffffffffffffffffffffffffffff1673ffffffffffffffffffffffffffffffffffffffff1663a47bd49688846040518363ffffffff167c010000000000000000000000000000000000000000000000000000000002815260040161173a9291906156e8565b600060405180830381600087803b15801561175457600080fd5b505af1158015611768573d6000803e3d6000fd5b505050505b600160009054906101000a900473ffffffffffffffffffffffffffffffffffffffff1673ffffffffffffffffffffffffffffffffffffffff166340c10f1984896040518363ffffffff167c01000000000000000000000000000000000000000000000000000000000281526004016117e692919061548d565b600060405180830381600087803b15801561180057600080fd5b505af1158015611814573d6000803e3d6000fd5b50505050600160009054906101000a900473ffffffffffffffffffffffffffffffffffffffff1673ffffffffffffffffffffffffffffffffffffffff1663e765c122856040518263ffffffff167c010000000000000000000000000000000000000000000000000000000002815260040161188f9190615585565b602060405180830381600087803b1580156118a957600080fd5b505af11580156118bd573d6000803e3d6000fd5b505050506040513d601f19601f820116820180604052506118e191908101906152c1565b90507f9e2bcf76790c190a87d6418084ca9f7d35a8166a4acbecc10088b106360fd38b88888584868b60405161191c96959493929190615509565b60405180910390a160019450505050509392505050565b60045481565b6000809054906101000a900473ffffffffffffffffffffffffffffffffffffffff1673ffffffffffffffffffffffffffffffffffffffff163373ffffffffffffffffffffffffffffffffffffffff1614151561199457600080fd5b6000809054906101000a900473ffffffffffffffffffffffffffffffffffffffff1673ffffffffffffffffffffffffffffffffffffffff167ff8df31144d9c2f0f6b59d69b8b98abd5459d07f2742c4df920b25aae33c6482060405160405180910390a260008060006101000a81548173ffffffffffffffffffffffffffffffffffffffff021916908373ffffffffffffffffffffffffffffffffffffffff160217905550565b6000809054906101000a900473ffffffffffffffffffffffffffffffffffffffff1673ffffffffffffffffffffffffffffffffffffffff163373ffffffffffffffffffffffffffffffffffffffff16141515611a9657600080fd5b8060038190555050565b6000809054906101000a900473ffffffffffffffffffffffffffffffffffffffff1681565b600080611ad0614b8e565b611ad8614ada565b60008060008060019650600160009054906101000a900473ffffffffffffffffffffffffffffffffffffffff1673ffffffffffffffffffffffffffffffffffffffff166362f9acf98b6040518263ffffffff167c0100000000000000000000000000000000000000000000000000000000028152600401611b59919061565f565b6040805180830381600087803b158015611b7257600080fd5b505af1158015611b86573d6000803e3d6000fd5b505050506040513d601f19601f82011682018060405250611baa9190810190615105565b9550600064010000000002866000600281101515611bc457fe5b602002015163ffffffff191614151515611bdd57600080fd5b611be686612f55565b9450611bf185612e69565b15611d8557600160009054906101000a900473ffffffffffffffffffffffffffffffffffffffff1673ffffffffffffffffffffffffffffffffffffffff1663c53b4bf98b6040518263ffffffff167c0100000000000000000000000000000000000000000000000000000000028152600401611c6d919061565f565b602060405180830381600087803b158015611c8757600080fd5b505af1158015611c9b573d6000803e3d6000fd5b505050506040513d601f19601f82011682018060405250611cbf91908101906152c1565b935084606001511515600060016004879060020a90041611151514611ce5576000611ce7565b865b965084608001511515600060016003879060020a90041611151514611d0d576000611d0f565b865b96508460a001511515600060016002879060020a90041611151514611d35576000611d37565b865b96508460c0015115156000600180879060020a90041611151514611d5c576000611d5e565b865b96508460e00151151560006001861611151514611d7c576000611d7e565b865b9650611d8a565b600096505b86151515611d9757600080fd5b600160009054906101000a900473ffffffffffffffffffffffffffffffffffffffff1673ffffffffffffffffffffffffffffffffffffffff16630e8310d68b6040518263ffffffff167c0100000000000000000000000000000000000000000000000000000000028152600401611e0e919061565f565b600060405180830381600087803b158015611e2857600080fd5b505af1158015611e3c573d6000803e3d6000fd5b50505050856040518082600260200280838360005b83811015611e6c578082015181840152602081019050611e51565b5050505090500191505060405180910390209250611e898a611137565b151561202757600160009054906101000a900473ffffffffffffffffffffffffffffffffffffffff1673ffffffffffffffffffffffffffffffffffffffff1663e765c122846040518263ffffffff167c0100000000000000000000000000000000000000000000000000000000028152600401611f069190615585565b602060405180830381600087803b158015611f2057600080fd5b505af1158015611f34573d6000803e3d6000fd5b505050506040513d601f19601f82011682018060405250611f5891908101906152c1565b9150600160009054906101000a900473ffffffffffffffffffffffffffffffffffffffff1673ffffffffffffffffffffffffffffffffffffffff16631cc1472d8a846040518363ffffffff167c0100000000000000000000000000000000000000000000000000000000028152600401611fd392919061548d565b602060405180830381600087803b158015611fed57600080fd5b505af1158015612001573d6000803e3d6000fd5b505050506040513d601f19601f8201168201806040525061202591908101906151e0565b505b600160009054906101000a900473ffffffffffffffffffffffffffffffffffffffff1673ffffffffffffffffffffffffffffffffffffffff166364e779b18b6040518263ffffffff167c010000000000000000000000000000000000000000000000000000000002815260040161209e919061565f565b600060405180830381600087803b1580156120b857600080fd5b505af11580156120cc573d6000803e3d6000fd5b50505050600160009054906101000a900473ffffffffffffffffffffffffffffffffffffffff1673ffffffffffffffffffffffffffffffffffffffff16631dbd9d918460006040518363ffffffff167c010000000000000000000000000000000000000000000000000000000002815260040161214a9291906155c9565b600060405180830381600087803b15801561216457600080fd5b505af1158015612178573d6000803e3d6000fd5b50505050600160009054906101000a900473ffffffffffffffffffffffffffffffffffffffff1673ffffffffffffffffffffffffffffffffffffffff16633541fd538460006040518363ffffffff167c01000000000000000000000000000000000000000000000000000000000281526004016121f69291906155f2565b600060405180830381600087803b15801561221057600080fd5b505af1158015612224573d6000803e3d6000fd5b505050506122318a613299565b600160009054906101000a900473ffffffffffffffffffffffffffffffffffffffff1673ffffffffffffffffffffffffffffffffffffffff16638784ea96846040518263ffffffff167c01000000000000000000000000000000000000000000000000000000000281526004016122a89190615585565b602060405180830381600087803b1580156122c257600080fd5b505af11580156122d6573d6000803e3d6000fd5b505050506040513d601f19601f820116820180604052506122fa9190810190615047565b90507f23e709ab80a4bee9454ba0d08c0b669d684531b4ec766524c43abd788cc3ca76868b838c866040516123339594939291906154b6565b60405180910390a1600197505050505050505092915050565b600080fd5b60055481565b6000612361614b8e565b600080600080600160009054906101000a900473ffffffffffffffffffffffffffffffffffffffff1673ffffffffffffffffffffffffffffffffffffffff166362f9acf9886040518263ffffffff167c01000000000000000000000000000000000000000000000000000000000281526004016123de919061565f565b6040805180830381600087803b1580156123f757600080fd5b505af115801561240b573d6000803e3d6000fd5b505050506040513d601f19601f8201168201806040525061242f9190810190615105565b945060006401000000000285600060028110151561244957fe5b602002015163ffffffff19161415151561246257600080fd5b846040518082600260200280838360005b8381101561248e578082015181840152602081019050612473565b5050505090500191505060405180910390209350600160009054906101000a900473ffffffffffffffffffffffffffffffffffffffff1673ffffffffffffffffffffffffffffffffffffffff1663e765c122856040518263ffffffff167c01000000000000000000000000000000000000000000000000000000000281526004016125199190615585565b602060405180830381600087803b15801561253357600080fd5b505af1158015612547573d6000803e3d6000fd5b505050506040513d601f19601f8201168201806040525061256b91908101906152c1565b92506000831415151561257d57600080fd5b61258687611137565b151561259157600080fd5b600160009054906101000a900473ffffffffffffffffffffffffffffffffffffffff1673ffffffffffffffffffffffffffffffffffffffff16633541fd538560006040518363ffffffff167c010000000000000000000000000000000000000000000000000000000002815260040161260b9291906155f2565b600060405180830381600087803b15801561262557600080fd5b505af1158015612639573d6000803e3d6000fd5b50505050612646876135c2565b600160009054906101000a900473ffffffffffffffffffffffffffffffffffffffff1673ffffffffffffffffffffffffffffffffffffffff16638784ea96856040518263ffffffff167c01000000000000000000000000000000000000000000000000000000000281526004016126bd9190615585565b602060405180830381600087803b1580156126d757600080fd5b505af11580156126eb573d6000803e3d6000fd5b505050506040513d601f19601f8201168201806040525061270f9190810190615047565b9150600160009054906101000a900473ffffffffffffffffffffffffffffffffffffffff1673ffffffffffffffffffffffffffffffffffffffff16631c4b774b886040518263ffffffff167c0100000000000000000000000000000000000000000000000000000000028152600401612788919061565f565b602060405180830381600087803b1580156127a257600080fd5b505af11580156127b6573d6000803e3d6000fd5b505050506040513d601f19601f820116820180604052506127da91908101906152c1565b9050600260009054906101000a900473ffffffffffffffffffffffffffffffffffffffff1673ffffffffffffffffffffffffffffffffffffffff166340c10f1983836040518363ffffffff167c010000000000000000000000000000000000000000000000000000000002815260040161285592919061548d565b602060405180830381600087803b15801561286f57600080fd5b505af1158015612883573d6000803e3d6000fd5b505050506040513d601f19601f820116820180604052506128a791908101906151e0565b15156128b257600080fd5b600160009054906101000a900473ffffffffffffffffffffffffffffffffffffffff1673ffffffffffffffffffffffffffffffffffffffff16631cc1472d83856040518363ffffffff167c010000000000000000000000000000000000000000000000000000000002815260040161292b92919061548d565b602060405180830381600087803b15801561294557600080fd5b505af1158015612959573d6000803e3d6000fd5b505050506040513d601f19601f8201168201806040525061297d91908101906151e0565b151561298857600080fd5b7f0f6fbbd692b7cc84f71dd9524d2324b1a22fcc80e825463499f3cfb51b149c13878385846040516129bd949392919061567a565b60405180910390a1600195505050505050919050565b6000809054906101000a900473ffffffffffffffffffffffffffffffffffffffff1673ffffffffffffffffffffffffffffffffffffffff163373ffffffffffffffffffffffffffffffffffffffff16141515612a2e57600080fd5b8060048190555050565b6000600160009054906101000a900473ffffffffffffffffffffffffffffffffffffffff1673ffffffffffffffffffffffffffffffffffffffff166362f9acf9836040518263ffffffff167c0100000000000000000000000000000000000000000000000000000000028152600401612ab1919061565f565b6040805180830381600087803b158015612aca57600080fd5b505af1158015612ade573d6000803e3d6000fd5b505050506040513d601f19601f82011682018060405250612b029190810190615105565b6040518082600260200280838360005b83811015612b2d578082015181840152602081019050612b12565b5050505090500191505060405180910390209050919050565b600080600080600080600080600160009054906101000a900473ffffffffffffffffffffffffffffffffffffffff1673ffffffffffffffffffffffffffffffffffffffff1663785d8d716040518163ffffffff167c010000000000000000000000000000000000000000000000000000000002815260040160c060405180830381600087803b158015612bd857600080fd5b505af1158015612bec573d6000803e3d6000fd5b505050506040513d601f19601f82011682018060405250612c109190810190615326565b809750819850829950839a50849b50859c505050505050506000905060018060048b9060020a9004161415612c8157612c7e612c6f60018801612c6160018b016003546138eb90919063ffffffff16565b61392390919063ffffffff16565b8261393990919063ffffffff16565b90505b60018060038b9060020a9004161415612cd657612cd3612cc460018701612cb660018b016003546138eb90919063ffffffff16565b61392390919063ffffffff16565b8261393990919063ffffffff16565b90505b60018060028b9060020a9004161415612d2b57612d28612d1960018601612d0b60018b016003546138eb90919063ffffffff16565b61392390919063ffffffff16565b8261393990919063ffffffff16565b90505b60018060018b9060020a9004161415612d8057612d7d612d6e60018501612d6060018b016003546138eb90919063ffffffff16565b61392390919063ffffffff16565b8261393990919063ffffffff16565b90505b6001808a161415612dcd57612dca612dbb60018401612dad60018b016003546138eb90919063ffffffff16565b61392390919063ffffffff16565b8261393990919063ffffffff16565b90505b80975050505050505050919050565b600260009054906101000a900473ffffffffffffffffffffffffffffffffffffffff1681565b6000809054906101000a900473ffffffffffffffffffffffffffffffffffffffff1673ffffffffffffffffffffffffffffffffffffffff163373ffffffffffffffffffffffffffffffffffffffff16141515612e5d57600080fd5b612e6681613955565b50565b6000816000015115612e7e5760009050612e97565b81602001511515612e925760009050612e97565b600190505b919050565b8273ffffffffffffffffffffffffffffffffffffffff1663a9059cbb83836040518363ffffffff167c0100000000000000000000000000000000000000000000000000000000028152600401612ef392919061548d565b602060405180830381600087803b158015612f0d57600080fd5b505af1158015612f21573d6000803e3d6000fd5b505050506040513d601f19601f82011682018060405250612f4591908101906151e0565b1515612f5057600080fd5b505050565b612f5d614ada565b612f65614ada565b600080600080600080886000600281101515612f7d57fe5b602002015187610120019063ffffffff1916908163ffffffff191681525050886001600281101515612fab57fe5b602002015187610140019063ffffffff1916908163ffffffff191681525050600087610180019060ff16908160ff16815250506002876101a0019060ff16908160ff16815250506002876101c0019060ff16908160ff168152505060008760000190151590811515815250506000876020019015159081151581525050600187610160019060ff16908160ff16815250506ffffffffffffffe7ffdbfffffffffffff700100000000000000000000000000000000028761010001906fffffffffffffffffffffffffffffffff191690816fffffffffffffffffffffffffffffffff191681525050600091505b603c8260ff161080156130a8575085155b1561325757602087610180015160ff16106130c8578661014001516130cf565b8661012001515b90506130f181602089610180015160ff168115156130e957fe5b066020613a4f565b94506130fc85613a93565b809450819550505061310d85613ad2565b15955060008260ff16148015613136575060028460ff16141580613135575060038360ff1614155b5b15613151576001955060018760000190151590811515815250505b85158015613162575060088460ff16105b8015613171575060088360ff16105b8015613181575060008460ff1610155b8015613191575060008360ff1610155b1561324a576131a1878585613ae3565b965060018761018001510187610180019060ff16908160ff1681525050866000015115613249576000876000019015159081151581525050600160ff1687610160015160ff16141561320657600287610160019060ff16908160ff168152505061321b565b600187610160019060ff16908160ff16815250505b613226878585613ae3565b9650866000015115613248576001876000019015159081151581525050600195505b5b5b8180600101925050613097565b8660000151151561328a57600087600001901515908115158152505061327c87613de5565b965061328787614124565b96505b86975050505050505050919050565b6000806000806000806000600160009054906101000a900473ffffffffffffffffffffffffffffffffffffffff1673ffffffffffffffffffffffffffffffffffffffff1663785d8d716040518163ffffffff167c010000000000000000000000000000000000000000000000000000000002815260040160c060405180830381600087803b15801561332a57600080fd5b505af115801561333e573d6000803e3d6000fd5b505050506040513d601f19601f820116820180604052506133629190810190615326565b809750819850829950839a50849b50859c50505050505050600160009054906101000a900473ffffffffffffffffffffffffffffffffffffffff1673ffffffffffffffffffffffffffffffffffffffff1663c53b4bf9896040518263ffffffff167c01000000000000000000000000000000000000000000000000000000000281526004016133f1919061565f565b602060405180830381600087803b15801561340b57600080fd5b505af115801561341f573d6000803e3d6000fd5b505050506040513d601f19601f8201168201806040525061344391908101906152c1565b905061346c6000821161345757600061345a565b60015b60ff168861441c90919063ffffffff16565b965061348c60016004839060020a9004168761441c90919063ffffffff16565b95506134ac60016003839060020a9004168661441c90919063ffffffff16565b94506134cc60016002839060020a9004168561441c90919063ffffffff16565b93506134eb600180839060020a9004168461441c90919063ffffffff16565b9250613503600182168361441c90919063ffffffff16565b9150600160009054906101000a900473ffffffffffffffffffffffffffffffffffffffff1673ffffffffffffffffffffffffffffffffffffffff16638b1b2ba88888888888886040518763ffffffff167c010000000000000000000000000000000000000000000000000000000002815260040161358696959493929190615711565b600060405180830381600087803b1580156135a057600080fd5b505af11580156135b4573d6000803e3d6000fd5b505050505050505050505050565b6000806000806000806000600160009054906101000a900473ffffffffffffffffffffffffffffffffffffffff1673ffffffffffffffffffffffffffffffffffffffff1663785d8d716040518163ffffffff167c010000000000000000000000000000000000000000000000000000000002815260040160c060405180830381600087803b15801561365357600080fd5b505af1158015613667573d6000803e3d6000fd5b505050506040513d601f19601f8201168201806040525061368b9190810190615326565b809750819850829950839a50849b50859c50505050505050600160009054906101000a900473ffffffffffffffffffffffffffffffffffffffff1673ffffffffffffffffffffffffffffffffffffffff1663c53b4bf9896040518263ffffffff167c010000000000000000000000000000000000000000000000000000000002815260040161371a919061565f565b602060405180830381600087803b15801561373457600080fd5b505af1158015613748573d6000803e3d6000fd5b505050506040513d601f19601f8201168201806040525061376c91908101906152c1565b905061379560008211613780576000613783565b60015b60ff168861393990919063ffffffff16565b96506137b560016004839060020a9004168761393990919063ffffffff16565b95506137d560016003839060020a9004168661393990919063ffffffff16565b94506137f560016002839060020a9004168561393990919063ffffffff16565b9350613814600180839060020a9004168461393990919063ffffffff16565b925061382c600182168361393990919063ffffffff16565b9150600160009054906101000a900473ffffffffffffffffffffffffffffffffffffffff1673ffffffffffffffffffffffffffffffffffffffff16638b1b2ba88888888888886040518763ffffffff167c01000000000000000000000000000000000000000000000000000000000281526004016138af96959493929190615711565b600060405180830381600087803b1580156138c957600080fd5b505af11580156138dd573d6000803e3d6000fd5b505050505050505050505050565b6000808314156138fe576000905061391d565b818302905081838281151561390f57fe5b0414151561391957fe5b8090505b92915050565b6000818381151561393057fe5b04905092915050565b6000818301905082811015151561394c57fe5b80905092915050565b600073ffffffffffffffffffffffffffffffffffffffff168173ffffffffffffffffffffffffffffffffffffffff161415151561399157600080fd5b8073ffffffffffffffffffffffffffffffffffffffff166000809054906101000a900473ffffffffffffffffffffffffffffffffffffffff1673ffffffffffffffffffffffffffffffffffffffff167f8be0079c531659141344cd1fd0a4f28419497f9722a3daafe3b4186f6b6457e060405160405180910390a3806000806101000a81548173ffffffffffffffffffffffffffffffffffffffff021916908373ffffffffffffffffffffffffffffffffffffffff16021790555050565b6000806000607f64010000000002915060078086026007860203039050818160ff168763ffffffff19169060020a9004166401000000009004925050509392505050565b60008060008060408503945060088560ff16811515613aae57fe5b069150600882860360ff16811515613ac257fe5b0490508181935093505050915091565b600060408260ff1610159050919050565b613aeb614ada565b613af3614bb0565b600080600080600080600080600360ff16613b148e61010001518e8e614435565b60ff16141515613b375760018d60000190151590811515815250508c9950613dd5565b613b428d8d8d6144ab565b809950819a50505060008860ff161415613b6f5760018d60000190151590811515815250508c9950613dd5565b60009150600090505b8760ff168160ff161015613cd5576000965060009550613baf8d8a8360ff16600881101515613ba357fe5b60200201518e8e6147ea565b8097508198505050600092505b8560ff168360ff161015613cc857811515613bd657600191505b613be9613be4888589613a4f565b613a93565b8095508196505050613c078d61010001518e6101600151878761494e565b8d61010001906fffffffffffffffffffffffffffffffff191690816fffffffffffffffffffffffffffffffff191681525050600260ff168d610160015160ff161415613c865760018d6101c0018181510191509060ff16908160ff168152505060018d6101a0018181510391509060ff16908160ff1681525050613cbb565b60018d6101c0018181510391509060ff16908160ff168152505060018d6101a0018181510191509060ff16908160ff16815250505b8280600101935050613bbc565b8080600101915050613b78565b8115613d7657613cf18d61010001518e61016001518e8e61494e565b8d61010001906fffffffffffffffffffffffffffffffff191690816fffffffffffffffffffffffffffffffff191681525050600260ff168d610160015160ff161415613d565760018d6101c0018181510191509060ff16908160ff1681525050613d71565b60018d6101a0018181510191509060ff16908160ff16815250505b613d8f565b60018d60000190151590811515815250508c9950613dd5565b600160ff168d610160015160ff161415613dbc5760028d610160019060ff16908160ff1681525050613dd1565b60018d610160019060ff16908160ff16815250505b8c99505b5050505050505050509392505050565b613ded614ada565b613df5614bdf565b6000806000806000613e05614c0e565b603c89610180015160ff161415613e2f576001896020019015159081151581525050889750614118565b60009550600094505b60408560ff161015613f1157613e828961010001516008808860ff16811515613e5d57fe5b06880360ff16811515613e6c57fe5b0460088860ff16811515613e7c57fe5b06614435565b9350600360ff168460ff161415613f045760408051908101604052806008808860ff16811515613eae57fe5b06880360ff16811515613ebd57fe5b0460ff1660ff16815260200160088760ff16811515613ed857fe5b0660ff1660ff16815250878760ff16603c81101515613ef357fe5b602002018190525085806001019650505b8480600101955050613e38565b6000925060008660ff1611156140d5578861010001519150600094505b8560ff168560ff16108015613f41575082155b156140a157868560ff16603c81101515613f5757fe5b60200201519050600189610160019060ff16908160ff16815250506000896000019015159081151581525050818961010001906fffffffffffffffffffffffffffffffff191690816fffffffffffffffffffffffffffffffff191681525050613fe789826000600281101515613fc957fe5b6020020151836001600281101515613fdd57fe5b6020020151613ae3565b985088600001511515613ff957600192505b600289610160019060ff16908160ff16815250506000896000019015159081151581525050818961010001906fffffffffffffffffffffffffffffffff191690816fffffffffffffffffffffffffffffffff1916815250506140828982600060028110151561406457fe5b602002015183600160028110151561407857fe5b6020020151613ae3565b98508860000151151561409457600192505b8480600101955050613f2e565b818961010001906fffffffffffffffffffffffffffffffff191690816fffffffffffffffffffffffffffffffff1916815250505b82156140f1576001896000019015159081151581525050614114565b600189602001901515908115158152505060008960000190151590811515815250505b8897505b50505050505050919050565b61412c614ada565b60008060008060008060006001965060019550600194506001935060019250600091505b60088260ff16108015614180575086806141675750855b8061416f5750845b806141775750835b8061417f5750825b5b1561438557600090505b60088160ff161080156141ba575086806141a15750855b806141a95750845b806141b15750835b806141b95750825b5b15614378576141d58961010001518360070383600703614a1a565b6fffffffffffffffffffffffffffffffff19166141f88a61010001518484614a1a565b6fffffffffffffffffffffffffffffffff191614151561421757600096505b61422a8961010001518383600703614a1a565b6fffffffffffffffffffffffffffffffff191661424d8a61010001518484614a1a565b6fffffffffffffffffffffffffffffffff191614151561426c57600095505b61427f8961010001518360070383614a1a565b6fffffffffffffffffffffffffffffffff19166142a28a61010001518484614a1a565b6fffffffffffffffffffffffffffffffff19161415156142c157600094505b6142d78961010001518260070384600703614a1a565b6fffffffffffffffffffffffffffffffff19166142fa8a61010001518484614a1a565b6fffffffffffffffffffffffffffffffff191614151561431957600093505b6143298961010001518284614a1a565b6fffffffffffffffffffffffffffffffff191661434c8a61010001518484614a1a565b6fffffffffffffffffffffffffffffffff191614151561436b57600092505b808060010191505061418a565b8180600101925050614150565b868061438e5750855b806143965750845b8061439e5750835b806143a65750825b1561440d5760018960400190151590811515815250508689606001901515908115158152505085896080019015159081151581525050848960a0019015159081151581525050838960c0019015159081151581525050828960e00190151590811515815250505b88975050505050505050919050565b600082821115151561442a57fe5b818303905092915050565b60008060006144448585614a76565b9150600370010000000000000000000000000000000002826fffffffffffffffffffffffffffffffff16876fffffffffffffffffffffffffffffffff19169060020a9004169050807001000000000000000000000000000000009004925050509392505050565b6144b3614bb0565b60006144bd614bb0565b60006144c7614bb0565b6000806144d2614c30565b600080600096506101006040519081016040528060408051908101604052807fffffffffffffffffffffffffffffffffffffffffffffffffffffffffffffffff60000b60000b81526020016000800b60000b815250815260200160408051908101604052807fffffffffffffffffffffffffffffffffffffffffffffffffffffffffffffffff60000b60000b8152602001600160000b60000b815250815260200160408051908101604052806000800b60000b8152602001600160000b60000b81525081526020016040805190810160405280600160000b60000b8152602001600160000b60000b81525081526020016040805190810160405280600160000b60000b81526020016000800b60000b81525081526020016040805190810160405280600160000b60000b81526020017fffffffffffffffffffffffffffffffffffffffffffffffffffffffffffffffff60000b60000b815250815260200160408051908101604052806000800b60000b81526020017fffffffffffffffffffffffffffffffffffffffffffffffffffffffffffffffff60000b60000b815250815260200160408051908101604052807fffffffffffffffffffffffffffffffffffffffffffffffffffffffffffffffff60000b60000b81526020017fffffffffffffffffffffffffffffffffffffffffffffffffffffffffffffffff60000b60000b8152508152509550600090505b60088160ff1610156147d457858160ff166008811015156146fe57fe5b6020020151925082600060028110151561471457fe5b60200201518c01935082600160028110151561472c57fe5b60200201518b01945060078560000b138061474a575060008560000b125b80614758575060078460000b135b80614766575060008460000b125b15156147c75761477c8d61010001518587614435565b91508c610160015160ff168260ff161415156147c657600360ff168260ff161415156147c55782888860ff166008811015156147b457fe5b602002018190525086806001019750505b5b5b80806001019150506146e1565b8787995099505050505050505050935093915050565b60008060008060008060008060008060009650600160ff168e610160015160ff16141561481a576002955061481f565b600195505b60009450600190505b60098160ff1610156149375784151561492a578b8d600060028110151561484b57fe5b602002015182020193508a8d600160028110151561486557fe5b6020020151820201925060078460000b1380614884575060008460000b125b80614892575060078360000b135b806148a0575060008360000b125b156148b657600097506000965060019450614929565b6148c68e61010001518585614435565b91508560ff168260ff1614156148ef576148e288888686614a92565b8098508199505050614928565b8d610160015160ff168260ff1614801561490c575060018160ff16115b1561491a5760019450614927565b6000975060009650600194505b5b5b5b8080600101915050614828565b878799509950505050505050505094509492505050565b600080600060078560ff16111561496457600080fd5b60078460ff16111561497557600080fd5b61497f8585614a76565b9150816fffffffffffffffffffffffffffffffff166003700100000000000000000000000000000000026fffffffffffffffffffffffffffffffff19169060020a02905086818818169650816fffffffffffffffffffffffffffffffff168660ff16700100000000000000000000000000000000026fffffffffffffffffffffffffffffffff19169060020a02871792505050949350505050565b600080614a278484614a76565b9050600370010000000000000000000000000000000002816fffffffffffffffffffffffffffffffff16866fffffffffffffffffffffffffffffffff19169060020a9004169150509392505050565b600060026001838560080201016040030260ff16905092915050565b600080600060406008850286010160ff1664010000000002905060078763ffffffff19169060020a029650808717965085806001019650508686925092505094509492505050565b6101e06040519081016040528060001515815260200160001515815260200160001515815260200160001515815260200160001515815260200160001515815260200160001515815260200160001515815260200160006fffffffffffffffffffffffffffffffff19168152602001600063ffffffff19168152602001600063ffffffff19168152602001600060ff168152602001600060ff168152602001600060ff168152602001600060ff1681525090565b6040805190810160405280600290602082028038833980820191505090505090565b610200604051908101604052806008905b614bc9614c52565b815260200190600190039081614bc15790505090565b610f0060405190810160405280603c905b614bf8614c74565b815260200190600190039081614bf05790505090565b6040805190810160405280600290602082028038833980820191505090505090565b6040805190810160405280600290602082028038833980820191505090505090565b6040805190810160405280600290602082028038833980820191505090505090565b6040805190810160405280600290602082028038833980820191505090505090565b6000614ca2823561584f565b905092915050565b6000614cb6825161584f565b905092915050565b600082601f8301121515614cd157600080fd5b6002614ce4614cdf8261579f565b615772565b91508183856020840282011115614cfa57600080fd5b60005b83811015614d2a5781614d108882614de6565b845260208401935060208301925050600181019050614cfd565b5050505092915050565b600082601f8301121515614d4757600080fd5b6002614d5a614d558261579f565b615772565b91508183856020840282011115614d7057600080fd5b60005b83811015614da05781614d868882614dfa565b845260208401935060208301925050600181019050614d73565b5050505092915050565b6000614db6823561586f565b905092915050565b6000614dca825161586f565b905092915050565b6000614dde823561587b565b905092915050565b6000614df282356158a7565b905092915050565b6000614e0682516158a7565b905092915050565b6000614e1a82356158d3565b905092915050565b60008083601f8401121515614e3657600080fd5b8235905067ffffffffffffffff811115614e4f57600080fd5b602083019150836001820283011115614e6757600080fd5b9250929050565b6000614e7a82356158dd565b905092915050565b60006101e08284031215614e9557600080fd5b614ea06101e0615772565b90506000614eb084828501614daa565b6000830152506020614ec484828501614daa565b6020830152506040614ed884828501614daa565b6040830152506060614eec84828501614daa565b6060830152506080614f0084828501614daa565b60808301525060a0614f1484828501614daa565b60a08301525060c0614f2884828501614daa565b60c08301525060e0614f3c84828501614daa565b60e083015250610100614f5184828501614dd2565b61010083015250610120614f6784828501614de6565b61012083015250610140614f7d84828501614de6565b61014083015250610160614f938482850161500a565b61016083015250610180614fa98482850161500a565b610180830152506101a0614fbf8482850161500a565b6101a0830152506101c0614fd58482850161500a565b6101c08301525092915050565b6000614fee82356158ef565b905092915050565b600061500282516158ef565b905092915050565b600061501682356158f9565b905092915050565b60006020828403121561503057600080fd5b600061503e84828501614c96565b91505092915050565b60006020828403121561505957600080fd5b600061506784828501614caa565b91505092915050565b6000806000806060858703121561508657600080fd5b600061509487828801614c96565b94505060206150a587828801614fe2565b935050604085013567ffffffffffffffff8111156150c257600080fd5b6150ce87828801614e22565b925092505092959194509250565b6000604082840312156150ee57600080fd5b60006150fc84828501614cbe565b91505092915050565b60006040828403121561511757600080fd5b600061512584828501614d34565b91505092915050565b60008060006080848603121561514357600080fd5b600061515186828701614cbe565b935050604061516286828701614fe2565b925050606061517386828701614fe2565b9150509250925092565b60008060008060a0858703121561519357600080fd5b60006151a187828801614cbe565b94505060406151b287828801614fe2565b93505060606151c387828801614fe2565b92505060806151d487828801614c96565b91505092959194509250565b6000602082840312156151f257600080fd5b600061520084828501614dbe565b91505092915050565b6000806040838503121561521c57600080fd5b600061522a85828601614e0e565b925050602061523b85828601614c96565b9150509250929050565b60006020828403121561525757600080fd5b600061526584828501614e6e565b91505092915050565b60006101e0828403121561528157600080fd5b600061528f84828501614e82565b91505092915050565b6000602082840312156152aa57600080fd5b60006152b884828501614fe2565b91505092915050565b6000602082840312156152d357600080fd5b60006152e184828501614ff6565b91505092915050565b600080604083850312156152fd57600080fd5b600061530b85828601614fe2565b925050602061531c85828601614c96565b9150509250929050565b60008060008060008060c0878903121561533f57600080fd5b600061534d89828a01614ff6565b965050602061535e89828a01614ff6565b955050604061536f89828a01614ff6565b945050606061538089828a01614ff6565b935050608061539189828a01614ff6565b92505060a06153a289828a01614ff6565b9150509295509295509295565b6153b8816157e3565b82525050565b6153c7816157cb565b6153d0826157c1565b60005b82811015615402576153e6858351615418565b6153ef826157d6565b91506020850194506001810190506153d3565b5050505050565b61541281615803565b82525050565b6154218161580f565b82525050565b6154308161583b565b82525050565b61543f81615906565b82525050565b61544e81615918565b82525050565b61545d8161592a565b82525050565b61546c81615845565b82525050565b600060208201905061548760008301846153af565b92915050565b60006040820190506154a260008301856153af565b6154af6020830184615463565b9392505050565b600060c0820190506154cb60008301886153be565b6154d86040830187615463565b6154e560608301866153af565b6154f260808301856153af565b6154ff60a0830184615463565b9695505050505050565b600060e08201905061551e60008301896153be565b61552b6040830188615463565b61553860608301876153af565b6155456080830186615463565b61555260a0830185615463565b61555f60c0830184615463565b979650505050505050565b600060208201905061557f6000830184615409565b92915050565b600060208201905061559a6000830184615427565b92915050565b60006040820190506155b56000830185615427565b6155c260208301846153af565b9392505050565b60006040820190506155de6000830185615427565b6155eb6020830184615445565b9392505050565b60006040820190506156076000830185615427565b6156146020830184615454565b9392505050565b60006040820190506156306000830185615427565b61563d6020830184615463565b9392505050565b60006020820190506156596000830184615436565b92915050565b60006020820190506156746000830184615463565b92915050565b600060808201905061568f6000830187615463565b61569c60208301866153af565b6156a96040830185615463565b6156b66060830184615463565b95945050505050565b60006060820190506156d46000830185615463565b6156e160208301846153be565b9392505050565b60006040820190506156fd6000830185615463565b61570a6020830184615463565b9392505050565b600060c0820190506157266000830189615463565b6157336020830188615463565b6157406040830187615463565b61574d6060830186615463565b61575a6080830185615463565b61576760a0830184615463565b979650505050505050565b6000604051905081810181811067ffffffffffffffff8211171561579557600080fd5b8060405250919050565b600067ffffffffffffffff8211156157b657600080fd5b602082029050919050565b6000819050919050565b600060029050919050565b6000602082019050919050565b600073ffffffffffffffffffffffffffffffffffffffff82169050919050565b60008115159050919050565b60007fffffffffffffffffffffffffffffffffffffffffffffffffffffffff0000000082169050919050565b6000819050919050565b6000819050919050565b600073ffffffffffffffffffffffffffffffffffffffff82169050919050565b60008115159050919050565b60007fffffffffffffffffffffffffffffffff0000000000000000000000000000000082169050919050565b60007fffffffffffffffffffffffffffffffffffffffffffffffffffffffff0000000082169050919050565b6000819050919050565b60006158e8826157e3565b9050919050565b6000819050919050565b600060ff82169050919050565b6000615911826157e3565b9050919050565b6000615923826157e3565b9050919050565b600061593582615845565b90509190505600a265627a7a7230582002f7346b58aecad951ba181a68613a6b2c4c20c3e8c4a0a354c7cea8713a81636c6578706572696d656e74616cf50037",
  "source": "pragma solidity ^0.4.18;\npragma experimental ABIEncoderV2;\n\n/**\n * The CloversController is a replaceable endpoint for minting and unminting Clovers.sol and ClubToken.sol\n */\n\nimport \"./Reversi.sol\";\nimport \"./IClovers.sol\";\nimport \"./ClubToken.sol\";\nimport \"./ICloversController.sol\";\nimport \"zeppelin-solidity/contracts/ownership/HasNoTokens.sol\";\nimport \"zeppelin-solidity/contracts/ownership/HasNoEther.sol\";\nimport \"zeppelin-solidity/contracts/math/SafeMath.sol\";\n\n\ncontract CloversController is ICloversController, HasNoTokens {\n    event cloverCommitted(bytes32 movesHash, address owner);\n    event cloverClaimed(bytes28[2] moves, uint256 tokenId, address owner, uint stake, uint reward, uint256 symmetries);\n    event stakeAndRewardRetrieved(uint256 tokenId, address owner, uint stake, uint reward);\n    event cloverChallenged(bytes28[2] moves, uint256 tokenId, address owner, address challenger, uint stake);\n\n    using SafeMath for uint256;\n\n    address public clovers;\n    address public clubToken;\n\n    uint256 public payMultiplier;\n    uint256 public stakeAmount;\n    uint256 public stakePeriod;\n    \n    constructor(address _clovers, address _clubToken) public {\n        clovers = _clovers;\n        clubToken = _clubToken;\n    }\n\n    /**\n    * @dev Gets the current staking period needed to verify a Clover.\n    * @return A uint256 value of stake period in seconds.\n    */\n    function getMovesHash(uint _tokenId) public constant returns (bytes32) {\n        return keccak256(IClovers(clovers).getCloverMoves(_tokenId));\n    }\n    /**\n    * @dev Checks whether the game is valid.\n    * @param moves The moves needed to play validate the game.\n    * @return A boolean representing whether or not the game is valid.\n    */\n    function isValid(bytes28[2] moves) public constant returns (bool) {\n        Reversi.Game memory game = Reversi.playGame(moves);\n        return isValidGame(game);\n    }\n    /**\n    * @dev Checks whether the game is valid.\n    * @param game The pre-played game.\n    * @return A boolean representing whether or not the game is valid.\n    */\n    function isValidGame(Reversi.Game game) public pure returns (bool) {\n        if (game.error) return false;\n        if (!game.complete) return false;\n        return true;\n    }\n    /**\n    * @dev Checks whether the game has passed the verification period.\n    * @param _tokenId The board being checked.\n    * @return A boolean representing whether or not the game has been verified.\n    */\n    function isVerified(uint256 _tokenId) public constant returns (bool) {\n        uint256 _blockMinted = IClovers(clovers).getBlockMinted(_tokenId);\n        if(_blockMinted == 0) return false;\n        // require(block.number > _blockMinted);\n        return (block.number - _blockMinted) > stakePeriod;\n    }\n    /**\n    * @dev Calculates the reward of the board.\n    * @param _symmetries symmetries saved as a uint256 value like 00010101 where bits represent symmetry types.\n    * @return A uint256 representing the reward that would be returned for claiming the board.\n    */\n    function calculateReward(uint256 _symmetries) public constant returns (uint256) {\n        uint256 Symmetricals;\n        uint256 RotSym;\n        uint256 Y0Sym;\n        uint256 X0Sym;\n        uint256 XYSym;\n        uint256 XnYSym;\n        (Symmetricals,\n        RotSym,\n        Y0Sym,\n        X0Sym,\n        XYSym,\n        XnYSym) = IClovers(clovers).getAllSymmetries();\n        uint256 base = 0;\n        if (_symmetries >> 4 & 1 == 1) base = base.add(payMultiplier.mul(Symmetricals + 1).div(RotSym + 1));\n        if (_symmetries >> 3 & 1 == 1) base = base.add(payMultiplier.mul(Symmetricals + 1).div(Y0Sym + 1));\n        if (_symmetries >> 2 & 1 == 1) base = base.add(payMultiplier.mul(Symmetricals + 1).div(X0Sym + 1));\n        if (_symmetries >> 1 & 1 == 1) base = base.add(payMultiplier.mul(Symmetricals + 1).div(XYSym + 1));\n        if (_symmetries & 1 == 1) base = base.add(payMultiplier.mul(Symmetricals + 1).div(XnYSym + 1));\n        return base;\n    }\n\n\n    /* ClubToken Specific Functions */\n\n    /* Clover Specific Functions */\n\n    /**\n    * @dev Claim the Clover without a commit or reveal.\n    * @param moves The moves that make up the Clover reversi game.\n    * @param _tokenId The board that results from the moves.\n    * @param _symmetries symmetries saved as a uint256 value like 00010101 where bits represent symmetry types.\n    * @param _to The address claiming the Clover.\n    * @return A boolean representing whether or not the claim was successful.\n    */\n    function claimClover(bytes28[2] moves, uint256 _tokenId, uint256 _symmetries, address _to) public payable returns (bool) {\n        require(moves[0] != 0);\n        require(msg.value == stakeAmount);\n        bytes32 movesHash = keccak256(moves);\n        IClovers(clovers).setCommit(movesHash, _to);\n        IClovers(clovers).setStake(movesHash, stakeAmount);\n        clovers.transfer(stakeAmount);\n        require(IClovers(clovers).getBlockMinted(_tokenId) == 0);\n        IClovers(clovers).setBlockMinted(_tokenId, block.number);\n        IClovers(clovers).setCloverMoves(_tokenId, moves);\n        if (_symmetries > 0) {\n            IClovers(clovers).setSymmetries(_tokenId, _symmetries);\n            uint256 reward = calculateReward(_symmetries);\n            IClovers(clovers).setReward(_tokenId, reward);\n        }\n        IClovers(clovers).mint(_to, _tokenId);\n        cloverClaimed(moves, _tokenId, _to, stakeAmount, reward, _symmetries);\n        return true;\n    }\n    /**\n    * @dev Commit the hash of the moves needed to claim the Clover. A stake should be made for counterfactual verification.\n    * @param movesHash The hash of the moves that makes up the Clover reversi game.\n    * @param _to The address claiming the Clover.\n    * @return A boolean representing whether or not the commit was successful.\n    */\n    function claimCloverCommit(bytes32 movesHash, address _to) public payable returns (bool) {\n        require(_to != 0);\n        require(msg.value == stakeAmount);\n        require(IClovers(clovers).getCommit(movesHash) == 0);\n        IClovers(clovers).setCommit(movesHash, _to);\n        IClovers(clovers).setStake(movesHash, stakeAmount);\n        clovers.transfer(stakeAmount);\n        cloverCommitted(movesHash, _to);\n        return true;\n    }\n    /**\n    * @dev Reveal the solution to the previous commit to claim the Clover.\n    * @param moves The moves that make up the Clover reversi game.\n    * @param _tokenId The board that results from the moves.\n    * @param _symmetries symmetries saved as a uint256 value like 00010101 where bits represent symmetry types.\n    * @return A boolean representing whether or not the reveal and claim was successful.\n    */\n    function claimCloverReveal(bytes28[2] moves, uint256 _tokenId, uint256 _symmetries) public returns (bool) {\n        require(moves[0] != 0);\n        bytes32 movesHash = keccak256(moves);\n        address commiter = IClovers(clovers).getCommit(movesHash);\n        require(IClovers(clovers).getBlockMinted(_tokenId) == 0);\n        IClovers(clovers).setBlockMinted(_tokenId, block.number);\n        IClovers(clovers).setCloverMoves(_tokenId, moves);\n        if (_symmetries > 0) {\n            IClovers(clovers).setSymmetries(_tokenId, _symmetries);\n            uint256 reward = calculateReward(_symmetries);\n            IClovers(clovers).setReward(_tokenId, reward);\n        }\n        IClovers(clovers).mint(commiter, _tokenId);\n        uint256 stake = IClovers(clovers).getStake(movesHash);\n        cloverClaimed(moves, _tokenId, commiter, stake, reward, _symmetries);\n        return true;\n    }\n    /**\n    * @dev Retrieve the stake from a Clover claim after the stake period has ended.\n    * @param _tokenId The board which holds the stake.\n    * @return A boolean representing whether or not the retrieval was successful.\n    */\n    function retrieveStake(uint256 _tokenId) public returns (bool) {\n        bytes28[2] memory moves = IClovers(clovers).getCloverMoves(_tokenId);\n        require(moves[0] != 0);\n        bytes32 movesHash = keccak256(moves);\n        uint256 stake = IClovers(clovers).getStake(movesHash);\n        require(stake != 0);\n        require(isVerified(_tokenId));\n        IClovers(clovers).setStake(movesHash, 0);\n        addSymmetries(_tokenId);\n        address commiter = IClovers(clovers).getCommit(movesHash);\n        uint256 reward = IClovers(clovers).getReward(_tokenId);\n        require(ClubToken(clubToken).mint(commiter, reward));\n        require(IClovers(clovers).moveEth(commiter, stake));\n        stakeAndRewardRetrieved(_tokenId, commiter, stake, reward);\n        return true;\n    }\n    /**\n    * @dev Challenge a staked Clover for being invalid.\n    * @param _tokenId The board being challenged.\n    * @param _to The address challenging the Clover.\n    * @return A boolean representing whether or not the challenge was successful.\n    */\n    function challengeClover(uint256 _tokenId, address _to) public returns (bool) {\n        bool valid = true;\n        bytes28[2] memory moves = IClovers(clovers).getCloverMoves(_tokenId);\n        require(moves[0] != 0);\n        Reversi.Game memory game = Reversi.playGame(moves);\n        if(isValidGame(game)) {\n            uint256 _symmetries = IClovers(clovers).getSymmetries(_tokenId);\n\n            valid = (_symmetries >> 4 & 1) > 0 == game.RotSym ? valid : false;\n            valid = (_symmetries >> 3 & 1) > 0 == game.Y0Sym ? valid : false;\n            valid = (_symmetries >> 2 & 1) > 0 == game.X0Sym ? valid : false;\n            valid = (_symmetries >> 1 & 1) > 0 == game.XYSym ? valid : false;\n            valid = (_symmetries & 1) > 0 == game.XnYSym ? valid : false;\n\n        } else {\n            valid = false;\n        }\n        require(!valid);\n\n        IClovers(clovers).deleteClover(_tokenId);\n        bytes32 movesHash = keccak256(moves);\n        if (!isVerified(_tokenId)) {\n            uint256 stake = IClovers(clovers).getStake(movesHash);\n            IClovers(clovers).moveEth(_to, stake);\n        }\n        IClovers(clovers).unmint(_tokenId);\n        IClovers(clovers).setCommit(movesHash, 0);\n        IClovers(clovers).setStake(movesHash, 0);\n        removeSymmetries(_tokenId);\n\n        address commiter = IClovers(clovers).getCommit(movesHash);\n        cloverChallenged(moves, _tokenId, commiter, _to, stake);\n        return true;\n    }\n\n    /**\n    * @dev Updates the stake amount.\n    * @param _stakeAmount The new amount needed to stake.\n    */\n    function updateStakeAmount(uint256 _stakeAmount) public onlyOwner {\n        stakeAmount = _stakeAmount;\n    }\n    /**\n    * @dev Updates the stake period.\n    * @param _stakePeriod The uint256 value of time needed to stake before being verified.\n    */\n    function updateStakePeriod(uint256 _stakePeriod) public onlyOwner {\n        stakePeriod = _stakePeriod;\n    }\n    /**\n    * @dev Updates the pay multiplier, used to calculate token reward.\n    * @param _payMultiplier The uint256 value of pay multiplier.\n    */\n    function updatePayMultipier(uint256 _payMultiplier) public onlyOwner {\n        payMultiplier = _payMultiplier;\n    }\n    /**\n    * @dev Adds new tallys of the totals numbers of clover symmetries.\n    * @param _tokenId The token which needs to be examined.\n    */\n    function addSymmetries(uint256 _tokenId) private {\n        uint256 Symmetricals;\n        uint256 RotSym;\n        uint256 Y0Sym;\n        uint256 X0Sym;\n        uint256 XYSym;\n        uint256 XnYSym;\n        (Symmetricals,\n        RotSym,\n        Y0Sym,\n        X0Sym,\n        XYSym,\n        XnYSym) = IClovers(clovers).getAllSymmetries();\n        uint256 _symmetries = IClovers(clovers).getSymmetries(_tokenId);\n        Symmetricals = Symmetricals.add(_symmetries > 0 ? 1 : 0);\n        RotSym = RotSym.add(uint256(_symmetries >> 4 & 1));\n        Y0Sym = Y0Sym.add(uint256(_symmetries >> 3 & 1));\n        X0Sym = X0Sym.add(uint256(_symmetries >> 2 & 1));\n        XYSym = XYSym.add(uint256(_symmetries >> 1 & 1));\n        XnYSym = XnYSym.add(uint256(_symmetries & 1));\n        IClovers(clovers).setAllSymmetries(Symmetricals, RotSym, Y0Sym, X0Sym, XYSym, XnYSym);\n    }\n    /**\n    * @dev Remove false tallys of the totals numbers of clover symmetries.\n    * @param _tokenId The token which needs to be examined.\n    */\n    function removeSymmetries(uint256 _tokenId) private {\n        uint256 Symmetricals;\n        uint256 RotSym;\n        uint256 Y0Sym;\n        uint256 X0Sym;\n        uint256 XYSym;\n        uint256 XnYSym;\n        (Symmetricals,\n        RotSym,\n        Y0Sym,\n        X0Sym,\n        XYSym,\n        XnYSym) = IClovers(clovers).getAllSymmetries();\n        uint256 _symmetries = IClovers(clovers).getSymmetries(_tokenId);\n        Symmetricals = Symmetricals.sub(_symmetries > 0 ? 1 : 0);\n        RotSym = RotSym.sub(uint256(_symmetries >> 4 & 1));\n        Y0Sym = Y0Sym.sub(uint256(_symmetries >> 3 & 1));\n        X0Sym = X0Sym.sub(uint256(_symmetries >> 2 & 1));\n        XYSym = XYSym.sub(uint256(_symmetries >> 1 & 1));\n        XnYSym = XnYSym.sub(uint256(_symmetries & 1));\n        IClovers(clovers).setAllSymmetries(Symmetricals, RotSym, Y0Sym, X0Sym, XYSym, XnYSym);\n    }\n\n}\n",
  "sourcePath": "/Users/billy/clovers/clovers-contracts/contracts/CloversController.sol",
  "compiler": {
    "name": "solc",
    "version": "0.4.24+commit.e67f0147.Emscripten.clang"
  },
  "schemaVersion": "2.0.1",
  "updatedAt": "2018-07-29T20:38:30.645Z"
}