{
  "contractName": "CloversController",
  "abi": [
    {
      "constant": true,
      "inputs": [],
      "name": "clovers",
      "outputs": [
        {
          "name": "",
          "type": "address"
        }
      ],
      "payable": false,
      "stateMutability": "view",
      "type": "function"
    },
    {
      "constant": false,
      "inputs": [
        {
          "name": "token",
          "type": "address"
        }
      ],
      "name": "reclaimToken",
      "outputs": [],
      "payable": false,
      "stateMutability": "nonpayable",
      "type": "function"
    },
    {
      "constant": true,
      "inputs": [],
      "name": "payMultiplier",
      "outputs": [
        {
          "name": "",
          "type": "uint256"
        }
      ],
      "payable": false,
      "stateMutability": "view",
      "type": "function"
    },
    {
      "constant": true,
      "inputs": [
        {
          "name": "",
          "type": "bytes32"
        }
      ],
      "name": "commits",
      "outputs": [
        {
          "name": "",
          "type": "address"
        }
      ],
      "payable": false,
      "stateMutability": "view",
      "type": "function"
    },
    {
      "constant": true,
      "inputs": [],
      "name": "stakeAmount",
      "outputs": [
        {
          "name": "",
          "type": "uint256"
        }
      ],
      "payable": false,
      "stateMutability": "view",
      "type": "function"
    },
    {
      "constant": false,
      "inputs": [],
      "name": "renounceOwnership",
      "outputs": [],
      "payable": false,
      "stateMutability": "nonpayable",
      "type": "function"
    },
    {
      "constant": true,
      "inputs": [],
      "name": "oracle",
      "outputs": [
        {
          "name": "",
          "type": "address"
        }
      ],
      "payable": false,
      "stateMutability": "view",
      "type": "function"
    },
    {
      "constant": true,
      "inputs": [],
      "name": "owner",
      "outputs": [
        {
          "name": "",
          "type": "address"
        }
      ],
      "payable": false,
      "stateMutability": "view",
      "type": "function"
    },
    {
      "constant": true,
      "inputs": [
        {
          "name": "",
          "type": "bytes32"
        }
      ],
      "name": "stakes",
      "outputs": [
        {
          "name": "",
          "type": "uint256"
        }
      ],
      "payable": false,
      "stateMutability": "view",
      "type": "function"
    },
    {
      "constant": true,
      "inputs": [],
      "name": "simpleCloversMarket",
      "outputs": [
        {
          "name": "",
          "type": "address"
        }
      ],
      "payable": false,
      "stateMutability": "view",
      "type": "function"
    },
    {
      "constant": false,
      "inputs": [],
      "name": "reclaimEther",
      "outputs": [],
      "payable": false,
      "stateMutability": "nonpayable",
      "type": "function"
    },
    {
      "constant": true,
      "inputs": [],
      "name": "clubTokenController",
      "outputs": [
        {
          "name": "",
          "type": "address"
        }
      ],
      "payable": false,
      "stateMutability": "view",
      "type": "function"
    },
    {
      "constant": false,
      "inputs": [
        {
          "name": "from_",
          "type": "address"
        },
        {
          "name": "value_",
          "type": "uint256"
        },
        {
          "name": "data_",
          "type": "bytes"
        }
      ],
      "name": "tokenFallback",
      "outputs": [],
      "payable": false,
      "stateMutability": "nonpayable",
      "type": "function"
    },
    {
      "constant": true,
      "inputs": [],
      "name": "stakePeriod",
      "outputs": [
        {
          "name": "",
          "type": "uint256"
        }
      ],
      "payable": false,
      "stateMutability": "view",
      "type": "function"
    },
    {
      "constant": true,
      "inputs": [],
      "name": "basePrice",
      "outputs": [
        {
          "name": "",
          "type": "uint256"
        }
      ],
      "payable": false,
      "stateMutability": "view",
      "type": "function"
    },
    {
      "constant": true,
      "inputs": [],
      "name": "priceMultiplier",
      "outputs": [
        {
          "name": "",
          "type": "uint256"
        }
      ],
      "payable": false,
      "stateMutability": "view",
      "type": "function"
    },
    {
      "constant": true,
      "inputs": [],
      "name": "clubToken",
      "outputs": [
        {
          "name": "",
          "type": "address"
        }
      ],
      "payable": false,
      "stateMutability": "view",
      "type": "function"
    },
    {
      "constant": false,
      "inputs": [
        {
          "name": "_newOwner",
          "type": "address"
        }
      ],
      "name": "transferOwnership",
      "outputs": [],
      "payable": false,
      "stateMutability": "nonpayable",
      "type": "function"
    },
    {
      "inputs": [
        {
          "name": "_clovers",
          "type": "address"
        },
        {
          "name": "_clubToken",
          "type": "address"
        },
        {
          "name": "_clubTokenController",
          "type": "address"
        }
      ],
      "payable": false,
      "stateMutability": "nonpayable",
      "type": "constructor"
    },
    {
      "payable": false,
      "stateMutability": "nonpayable",
      "type": "fallback"
    },
    {
      "anonymous": false,
      "inputs": [
        {
          "indexed": false,
          "name": "movesHash",
          "type": "bytes32"
        },
        {
          "indexed": false,
          "name": "owner",
          "type": "address"
        }
      ],
      "name": "cloverCommitted",
      "type": "event"
    },
    {
      "anonymous": false,
      "inputs": [
        {
          "indexed": false,
          "name": "moves",
          "type": "bytes28[2]"
        },
        {
          "indexed": false,
          "name": "tokenId",
          "type": "uint256"
        },
        {
          "indexed": false,
          "name": "owner",
          "type": "address"
        },
        {
          "indexed": false,
          "name": "stake",
          "type": "uint256"
        },
        {
          "indexed": false,
          "name": "reward",
          "type": "uint256"
        },
        {
          "indexed": false,
          "name": "symmetries",
          "type": "uint256"
        },
        {
          "indexed": false,
          "name": "keep",
          "type": "bool"
        }
      ],
      "name": "cloverClaimed",
      "type": "event"
    },
    {
      "anonymous": false,
      "inputs": [
        {
          "indexed": false,
          "name": "tokenId",
          "type": "uint256"
        },
        {
          "indexed": false,
          "name": "owner",
          "type": "address"
        },
        {
          "indexed": false,
          "name": "stake",
          "type": "uint256"
        }
      ],
      "name": "stakeRetrieved",
      "type": "event"
    },
    {
      "anonymous": false,
      "inputs": [
        {
          "indexed": false,
          "name": "moves",
          "type": "bytes28[2]"
        },
        {
          "indexed": false,
          "name": "tokenId",
          "type": "uint256"
        },
        {
          "indexed": false,
          "name": "owner",
          "type": "address"
        },
        {
          "indexed": false,
          "name": "challenger",
          "type": "address"
        },
        {
          "indexed": false,
          "name": "stake",
          "type": "uint256"
        }
      ],
      "name": "cloverChallenged",
      "type": "event"
    },
    {
      "anonymous": false,
      "inputs": [
        {
          "indexed": true,
          "name": "previousOwner",
          "type": "address"
        }
      ],
      "name": "OwnershipRenounced",
      "type": "event"
    },
    {
      "anonymous": false,
      "inputs": [
        {
          "indexed": true,
          "name": "previousOwner",
          "type": "address"
        },
        {
          "indexed": true,
          "name": "newOwner",
          "type": "address"
        }
      ],
      "name": "OwnershipTransferred",
      "type": "event"
    },
    {
      "constant": true,
      "inputs": [
        {
          "name": "movesHash",
          "type": "bytes32"
        }
      ],
      "name": "getStake",
      "outputs": [
        {
          "name": "",
          "type": "uint256"
        }
      ],
      "payable": false,
      "stateMutability": "view",
      "type": "function"
    },
    {
      "constant": true,
      "inputs": [
        {
          "name": "movesHash",
          "type": "bytes32"
        }
      ],
      "name": "getCommit",
      "outputs": [
        {
          "name": "",
          "type": "address"
        }
      ],
      "payable": false,
      "stateMutability": "view",
      "type": "function"
    },
    {
      "constant": true,
      "inputs": [
        {
          "name": "_tokenId",
          "type": "uint256"
        }
      ],
      "name": "getMovesHash",
      "outputs": [
        {
          "name": "",
          "type": "bytes32"
        }
      ],
      "payable": false,
      "stateMutability": "view",
      "type": "function"
    },
    {
      "constant": true,
      "inputs": [
        {
          "name": "moves",
          "type": "bytes28[2]"
        }
      ],
      "name": "isValid",
      "outputs": [
        {
          "name": "",
          "type": "bool"
        }
      ],
      "payable": false,
      "stateMutability": "view",
      "type": "function"
    },
    {
      "constant": true,
      "inputs": [
        {
          "components": [
            {
              "name": "error",
              "type": "bool"
            },
            {
              "name": "complete",
              "type": "bool"
            },
            {
              "name": "symmetrical",
              "type": "bool"
            },
            {
              "name": "RotSym",
              "type": "bool"
            },
            {
              "name": "Y0Sym",
              "type": "bool"
            },
            {
              "name": "X0Sym",
              "type": "bool"
            },
            {
              "name": "XYSym",
              "type": "bool"
            },
            {
              "name": "XnYSym",
              "type": "bool"
            },
            {
              "name": "board",
              "type": "bytes16"
            },
            {
              "name": "first32Moves",
              "type": "bytes28"
            },
            {
              "name": "lastMoves",
              "type": "bytes28"
            },
            {
              "name": "currentPlayer",
              "type": "uint8"
            },
            {
              "name": "moveKey",
              "type": "uint8"
            },
            {
              "name": "blackScore",
              "type": "uint8"
            },
            {
              "name": "whiteScore",
              "type": "uint8"
            }
          ],
          "name": "game",
          "type": "tuple"
        }
      ],
      "name": "isValidGame",
      "outputs": [
        {
          "name": "",
          "type": "bool"
        }
      ],
      "payable": false,
      "stateMutability": "pure",
      "type": "function"
    },
    {
      "constant": true,
      "inputs": [
        {
          "name": "_tokenId",
          "type": "uint256"
        }
      ],
      "name": "isVerified",
      "outputs": [
        {
          "name": "",
          "type": "bool"
        }
      ],
      "payable": false,
      "stateMutability": "view",
      "type": "function"
    },
    {
      "constant": true,
      "inputs": [
        {
          "name": "_symmetries",
          "type": "uint256"
        }
      ],
      "name": "calculateReward",
      "outputs": [
        {
          "name": "",
          "type": "uint256"
        }
      ],
      "payable": false,
      "stateMutability": "view",
      "type": "function"
    },
    {
      "constant": false,
      "inputs": [
        {
          "name": "moves",
          "type": "bytes28[2]"
        },
        {
          "name": "_tokenId",
          "type": "uint256"
        },
        {
          "name": "_symmetries",
          "type": "uint256"
        },
        {
          "name": "_keep",
          "type": "bool"
        }
      ],
      "name": "claimClover",
      "outputs": [
        {
          "name": "",
          "type": "bool"
        }
      ],
      "payable": true,
      "stateMutability": "payable",
      "type": "function"
    },
    {
      "constant": false,
      "inputs": [
        {
          "name": "_tokenId",
          "type": "uint256"
        }
      ],
      "name": "retrieveStake",
      "outputs": [
        {
          "name": "",
          "type": "bool"
        }
      ],
      "payable": true,
      "stateMutability": "payable",
      "type": "function"
    },
    {
      "constant": true,
      "inputs": [
        {
          "name": "_board",
          "type": "bytes16"
        }
      ],
      "name": "convertBytes16ToUint",
      "outputs": [
        {
          "name": "number",
          "type": "uint256"
        }
      ],
      "payable": false,
      "stateMutability": "view",
      "type": "function"
    },
    {
      "constant": false,
      "inputs": [
        {
          "name": "_tokenId",
          "type": "uint256"
        }
      ],
      "name": "challengeClover",
      "outputs": [
        {
          "name": "",
          "type": "bool"
        }
      ],
      "payable": false,
      "stateMutability": "nonpayable",
      "type": "function"
    },
    {
      "constant": false,
      "inputs": [
        {
          "name": "_from",
          "type": "address"
        },
        {
          "name": "_to",
          "type": "address"
        },
        {
          "name": "_tokenId",
          "type": "uint256"
        }
      ],
      "name": "transferFrom",
      "outputs": [],
      "payable": false,
      "stateMutability": "nonpayable",
      "type": "function"
    },
    {
      "constant": false,
      "inputs": [
        {
          "name": "_oracle",
          "type": "address"
        }
      ],
      "name": "updateOracle",
      "outputs": [],
      "payable": false,
      "stateMutability": "nonpayable",
      "type": "function"
    },
    {
      "constant": false,
      "inputs": [
        {
          "name": "_simpleCloversMarket",
          "type": "address"
        }
      ],
      "name": "updateSimpleCloversMarket",
      "outputs": [],
      "payable": false,
      "stateMutability": "nonpayable",
      "type": "function"
    },
    {
      "constant": false,
      "inputs": [
        {
          "name": "_clubTokenController",
          "type": "address"
        }
      ],
      "name": "updateClubTokenController",
      "outputs": [],
      "payable": false,
      "stateMutability": "nonpayable",
      "type": "function"
    },
    {
      "constant": false,
      "inputs": [
        {
          "name": "_stakeAmount",
          "type": "uint256"
        }
      ],
      "name": "updateStakeAmount",
      "outputs": [],
      "payable": false,
      "stateMutability": "nonpayable",
      "type": "function"
    },
    {
      "constant": false,
      "inputs": [
        {
          "name": "_stakePeriod",
          "type": "uint256"
        }
      ],
      "name": "updateStakePeriod",
      "outputs": [],
      "payable": false,
      "stateMutability": "nonpayable",
      "type": "function"
    },
    {
      "constant": false,
      "inputs": [
        {
          "name": "_payMultiplier",
          "type": "uint256"
        }
      ],
      "name": "updatePayMultipier",
      "outputs": [],
      "payable": false,
      "stateMutability": "nonpayable",
      "type": "function"
    },
    {
      "constant": false,
      "inputs": [
        {
          "name": "_priceMultiplier",
          "type": "uint256"
        }
      ],
      "name": "updatePriceMultipier",
      "outputs": [],
      "payable": false,
      "stateMutability": "nonpayable",
      "type": "function"
    },
    {
      "constant": false,
      "inputs": [
        {
          "name": "_basePrice",
          "type": "uint256"
        }
      ],
      "name": "updateBasePrice",
      "outputs": [],
      "payable": false,
      "stateMutability": "nonpayable",
      "type": "function"
    },
    {
      "constant": false,
      "inputs": [
        {
          "name": "movesHash",
          "type": "bytes32"
        },
        {
          "name": "committer",
          "type": "address"
        }
      ],
      "name": "_setCommit",
      "outputs": [],
      "payable": false,
      "stateMutability": "nonpayable",
      "type": "function"
    }
  ],
  "bytecode": "0x60806040523480156200001157600080fd5b5060405160608062005f6e833981018060405262000033919081019062000165565b336000806101000a81548173ffffffffffffffffffffffffffffffffffffffff021916908373ffffffffffffffffffffffffffffffffffffffff1602179055506000341415156200008357600080fd5b82600260006101000a81548173ffffffffffffffffffffffffffffffffffffffff021916908373ffffffffffffffffffffffffffffffffffffffff16021790555081600360006101000a81548173ffffffffffffffffffffffffffffffffffffffff021916908373ffffffffffffffffffffffffffffffffffffffff16021790555080600460006101000a81548173ffffffffffffffffffffffffffffffffffffffff021916908373ffffffffffffffffffffffffffffffffffffffff160217905550505050620001db565b60006200015d8251620001bb565b905092915050565b6000806000606084860312156200017b57600080fd5b60006200018b868287016200014f565b93505060206200019e868287016200014f565b9250506040620001b1868287016200014f565b9150509250925092565b600073ffffffffffffffffffffffffffffffffffffffff82169050919050565b615d8380620001eb6000396000f3006080604052600436106101e3576000357c0100000000000000000000000000000000000000000000000000000000900463ffffffff1680630d576bfa146101f257806317ffc3201461021d5780631cb44dfc1461024657806323b872dd1461026f578063271eff941461029857806337b6d96b146102d55780633afcba961461031257806343be08801461033d57806346d2ce201461036d57806347885781146103965780635759f3f7146103d357806360c7dc47146103fc578063715018a6146104275780637b7db9fa1461043e5780637dc0d1d01461047b5780638784ea96146104a65780638a05aafa146104e35780638da5cb5b1461050c5780638fee6407146105375780639564e18014610574578063975e4b2a1461059d5780639f727c27146105c8578063a4a83ca6146105df578063a7e901b01461061c578063a89b55da14610645578063c0ee0b8a14610670578063c1699a9914610699578063c1fe551a146106c4578063c7876ea4146106f4578063c90054ee1461071f578063d010ed7014610748578063d09687f714610771578063d2d7231f146107ae578063d50cb88b146107eb578063d76bbd5214610816578063e765c12214610841578063f2fde38b1461087e578063f8a68a56146108a7578063fd5baa88146108e4575b3480156101ef57600080fd5b50005b3480156101fe57600080fd5b5061020761090d565b60405161021491906158bd565b60405180910390f35b34801561022957600080fd5b50610244600480360361023f91908101906156ea565b610933565b005b34801561025257600080fd5b5061026d6004803603610268919081019061549a565b610a89565b005b34801561027b57600080fd5b50610296600480360361029191908101906154c3565b610b28565b005b3480156102a457600080fd5b506102bf60048036036102ba919081019061557e565b610c36565b6040516102cc91906159fb565b60405180910390f35b3480156102e157600080fd5b506102fc60048036036102f7919081019061573d565b610c5c565b60405161030991906159fb565b60405180910390f35b34801561031e57600080fd5b50610327610e19565b6040516103349190615a75565b60405180910390f35b610357600480360361035291908101906155d0565b610e1f565b60405161036491906159fb565b60405180910390f35b34801561037957600080fd5b50610394600480360361038f91908101906156ae565b61182a565b005b3480156103a257600080fd5b506103bd60048036036103b89190810190615685565b611893565b6040516103ca91906158bd565b60405180910390f35b3480156103df57600080fd5b506103fa60048036036103f5919081019061573d565b6118c6565b005b34801561040857600080fd5b5061041161192b565b60405161041e9190615a75565b60405180910390f35b34801561043357600080fd5b5061043c611931565b005b34801561044a57600080fd5b506104656004803603610460919081019061573d565b611a33565b60405161047291906159fb565b60405180910390f35b34801561048757600080fd5b50610490611ffa565b60405161049d91906158bd565b60405180910390f35b3480156104b257600080fd5b506104cd60048036036104c89190810190615685565b612020565b6040516104da91906158bd565b60405180910390f35b3480156104ef57600080fd5b5061050a6004803603610505919081019061573d565b612065565b005b34801561051857600080fd5b506105216120ca565b60405161052e91906158bd565b60405180910390f35b34801561054357600080fd5b5061055e60048036036105599190810190615685565b6120ef565b60405161056b9190615a75565b60405180910390f35b34801561058057600080fd5b5061059b6004803603610596919081019061549a565b612107565b005b3480156105a957600080fd5b506105b26121a6565b6040516105bf91906158bd565b60405180910390f35b3480156105d457600080fd5b506105dd6121cc565b005b3480156105eb57600080fd5b506106066004803603610601919081019061565c565b6122a8565b6040516106139190615a75565b60405180910390f35b34801561062857600080fd5b50610643600480360361063e919081019061573d565b612338565b005b34801561065157600080fd5b5061065a61239d565b60405161066791906158bd565b60405180910390f35b34801561067c57600080fd5b5061069760048036036106929190810190615512565b6123c3565b005b3480156106a557600080fd5b506106ae6123c8565b6040516106bb9190615a75565b60405180910390f35b6106de60048036036106d9919081019061573d565b6123ce565b6040516106eb91906159fb565b60405180910390f35b34801561070057600080fd5b50610709612cac565b6040516107169190615a75565b60405180910390f35b34801561072b57600080fd5b506107466004803603610741919081019061573d565b612cb2565b005b34801561075457600080fd5b5061076f600480360361076a919081019061549a565b612d17565b005b34801561077d57600080fd5b506107986004803603610793919081019061573d565b612db6565b6040516107a59190615a16565b60405180910390f35b3480156107ba57600080fd5b506107d560048036036107d0919081019061573d565b612ec4565b6040516107e29190615a75565b60405180910390f35b3480156107f757600080fd5b5061080061315a565b60405161080d9190615a75565b60405180910390f35b34801561082257600080fd5b5061082b613160565b60405161083891906158bd565b60405180910390f35b34801561084d57600080fd5b5061086860048036036108639190810190615685565b613186565b6040516108759190615a75565b60405180910390f35b34801561088a57600080fd5b506108a560048036036108a0919081019061549a565b6131ab565b005b3480156108b357600080fd5b506108ce60048036036108c99190810190615713565b613212565b6040516108db91906159fb565b60405180910390f35b3480156108f057600080fd5b5061090b6004803603610906919081019061573d565b613245565b005b600260009054906101000a900473ffffffffffffffffffffffffffffffffffffffff1681565b60008060009054906101000a900473ffffffffffffffffffffffffffffffffffffffff1673ffffffffffffffffffffffffffffffffffffffff163373ffffffffffffffffffffffffffffffffffffffff1614151561099057600080fd5b8173ffffffffffffffffffffffffffffffffffffffff166370a08231306040518263ffffffff167c01000000000000000000000000000000000000000000000000000000000281526004016109e59190615a5a565b602060405180830381600087803b1580156109ff57600080fd5b505af1158015610a13573d6000803e3d6000fd5b505050506040513d601f19601f82011682018060405250610a379190810190615766565b9050610a856000809054906101000a900473ffffffffffffffffffffffffffffffffffffffff16828473ffffffffffffffffffffffffffffffffffffffff166132aa9092919063ffffffff16565b5050565b6000809054906101000a900473ffffffffffffffffffffffffffffffffffffffff1673ffffffffffffffffffffffffffffffffffffffff163373ffffffffffffffffffffffffffffffffffffffff16141515610ae457600080fd5b80600160006101000a81548173ffffffffffffffffffffffffffffffffffffffff021916908373ffffffffffffffffffffffffffffffffffffffff16021790555050565b600560009054906101000a900473ffffffffffffffffffffffffffffffffffffffff1673ffffffffffffffffffffffffffffffffffffffff163373ffffffffffffffffffffffffffffffffffffffff16141515610b8457600080fd5b600260009054906101000a900473ffffffffffffffffffffffffffffffffffffffff1673ffffffffffffffffffffffffffffffffffffffff166323b872dd8484846040518463ffffffff167c0100000000000000000000000000000000000000000000000000000000028152600401610bff939291906158d8565b600060405180830381600087803b158015610c1957600080fd5b505af1158015610c2d573d6000803e3d6000fd5b50505050505050565b6000610c40614f6a565b610c4983613363565b9050610c5481613212565b915050919050565b600080600260009054906101000a900473ffffffffffffffffffffffffffffffffffffffff1673ffffffffffffffffffffffffffffffffffffffff166303a53d6b846040518263ffffffff167c0100000000000000000000000000000000000000000000000000000000028152600401610cd69190615a75565b602060405180830381600087803b158015610cf057600080fd5b505af1158015610d04573d6000803e3d6000fd5b505050506040513d601f19601f82011682018060405250610d289190810190615766565b90506000811415610d3c5760009150610e13565b6000809054906101000a900473ffffffffffffffffffffffffffffffffffffffff1673ffffffffffffffffffffffffffffffffffffffff163373ffffffffffffffffffffffffffffffffffffffff161415610d9a5760019150610e13565b600160009054906101000a900473ffffffffffffffffffffffffffffffffffffffff1673ffffffffffffffffffffffffffffffffffffffff163373ffffffffffffffffffffffffffffffffffffffff161415610df95760019150610e13565b600a54610e0f82436136a790919063ffffffff16565b1191505b50919050565b60085481565b6000806000866040518082600260200280838360005b83811015610e50578082015181840152602081019050610e35565b50505050905001915050604051809103902091506009543410151515610e7557600080fd5b6000610e8083612020565b73ffffffffffffffffffffffffffffffffffffffff16141515610ea257600080fd5b610eac82336136c0565b610eb88260095461371e565b600260009054906101000a900473ffffffffffffffffffffffffffffffffffffffff1673ffffffffffffffffffffffffffffffffffffffff166108fc6009549081150290604051600060405180830381858888f19350505050158015610f22573d6000803e3d6000fd5b507f4c0f83654ac2972673e4d81058f833de298389df1dce04cc2db9f231b907d5ff8233604051610f54929190615a31565b60405180910390a1600260009054906101000a900473ffffffffffffffffffffffffffffffffffffffff1673ffffffffffffffffffffffffffffffffffffffff16634f558e79876040518263ffffffff167c0100000000000000000000000000000000000000000000000000000000028152600401610fd39190615a75565b602060405180830381600087803b158015610fed57600080fd5b505af1158015611001573d6000803e3d6000fd5b505050506040513d601f19601f820116820180604052506110259190810190615633565b15151561103157600080fd5b6000600260009054906101000a900473ffffffffffffffffffffffffffffffffffffffff1673ffffffffffffffffffffffffffffffffffffffff166303a53d6b886040518263ffffffff167c01000000000000000000000000000000000000000000000000000000000281526004016110aa9190615a75565b602060405180830381600087803b1580156110c457600080fd5b505af11580156110d8573d6000803e3d6000fd5b505050506040513d601f19601f820116820180604052506110fc9190810190615766565b14151561110857600080fd5b600260009054906101000a900473ffffffffffffffffffffffffffffffffffffffff1673ffffffffffffffffffffffffffffffffffffffff1663e3100d1e87436040518363ffffffff167c0100000000000000000000000000000000000000000000000000000000028152600401611181929190615b19565b600060405180830381600087803b15801561119b57600080fd5b505af11580156111af573d6000803e3d6000fd5b50505050600260009054906101000a900473ffffffffffffffffffffffffffffffffffffffff1673ffffffffffffffffffffffffffffffffffffffff16630b62839587896040518363ffffffff167c010000000000000000000000000000000000000000000000000000000002815260040161122c929190615ac7565b600060405180830381600087803b15801561124657600080fd5b505af115801561125a573d6000803e3d6000fd5b50505050600260009054906101000a900473ffffffffffffffffffffffffffffffffffffffff1673ffffffffffffffffffffffffffffffffffffffff166376e4a87f87866040518363ffffffff167c01000000000000000000000000000000000000000000000000000000000281526004016112d7929190615af0565b600060405180830381600087803b1580156112f157600080fd5b505af1158015611305573d6000803e3d6000fd5b50505050600085111561147457600260009054906101000a900473ffffffffffffffffffffffffffffffffffffffff1673ffffffffffffffffffffffffffffffffffffffff1663dc3f775887876040518363ffffffff167c010000000000000000000000000000000000000000000000000000000002815260040161138b929190615b19565b600060405180830381600087803b1580156113a557600080fd5b505af11580156113b9573d6000803e3d6000fd5b505050506113c685612ec4565b9050600260009054906101000a900473ffffffffffffffffffffffffffffffffffffffff1673ffffffffffffffffffffffffffffffffffffffff1663a47bd49687836040518363ffffffff167c0100000000000000000000000000000000000000000000000000000000028152600401611441929190615b19565b600060405180830381600087803b15801561145b57600080fd5b505af115801561146f573d6000803e3d6000fd5b505050505b831561170a5761148f8160065461374290919063ffffffff16565b600360009054906101000a900473ffffffffffffffffffffffffffffffffffffffff1673ffffffffffffffffffffffffffffffffffffffff166370a08231336040518263ffffffff167c010000000000000000000000000000000000000000000000000000000002815260040161150691906158bd565b602060405180830381600087803b15801561152057600080fd5b505af1158015611534573d6000803e3d6000fd5b505050506040513d601f19601f820116820180604052506115589190810190615766565b101561162957600460009054906101000a900473ffffffffffffffffffffffffffffffffffffffff1673ffffffffffffffffffffffffffffffffffffffff1663f088d547336040518263ffffffff167c01000000000000000000000000000000000000000000000000000000000281526004016115d591906158bd565b602060405180830381600087803b1580156115ef57600080fd5b505af1158015611603573d6000803e3d6000fd5b505050506040513d601f19601f820116820180604052506116279190810190615633565b505b600360009054906101000a900473ffffffffffffffffffffffffffffffffffffffff1673ffffffffffffffffffffffffffffffffffffffff1663d73dd6233061167d8460065461374290919063ffffffff16565b6040518363ffffffff167c01000000000000000000000000000000000000000000000000000000000281526004016116b692919061590f565b602060405180830381600087803b1580156116d057600080fd5b505af11580156116e4573d6000803e3d6000fd5b505050506040513d601f19601f820116820180604052506117089190810190615633565b505b600260009054906101000a900473ffffffffffffffffffffffffffffffffffffffff1673ffffffffffffffffffffffffffffffffffffffff166340c10f19600260009054906101000a900473ffffffffffffffffffffffffffffffffffffffff16886040518363ffffffff167c01000000000000000000000000000000000000000000000000000000000281526004016117a592919061590f565b600060405180830381600087803b1580156117bf57600080fd5b505af11580156117d3573d6000803e3d6000fd5b505050507f1c3b3e1e72950ae52150ec48810521d17cea4b30c2a59c807d1ba2f8dff57e65878733600954858a8a604051611814979695949392919061598b565b60405180910390a1600192505050949350505050565b6000809054906101000a900473ffffffffffffffffffffffffffffffffffffffff1673ffffffffffffffffffffffffffffffffffffffff163373ffffffffffffffffffffffffffffffffffffffff1614151561188557600080fd5b61188f82826136c0565b5050565b600b6020528060005260406000206000915054906101000a900473ffffffffffffffffffffffffffffffffffffffff1681565b6000809054906101000a900473ffffffffffffffffffffffffffffffffffffffff1673ffffffffffffffffffffffffffffffffffffffff163373ffffffffffffffffffffffffffffffffffffffff1614151561192157600080fd5b80600a8190555050565b60095481565b6000809054906101000a900473ffffffffffffffffffffffffffffffffffffffff1673ffffffffffffffffffffffffffffffffffffffff163373ffffffffffffffffffffffffffffffffffffffff1614151561198c57600080fd5b6000809054906101000a900473ffffffffffffffffffffffffffffffffffffffff1673ffffffffffffffffffffffffffffffffffffffff167ff8df31144d9c2f0f6b59d69b8b98abd5459d07f2742c4df920b25aae33c6482060405160405180910390a260008060006101000a81548173ffffffffffffffffffffffffffffffffffffffff021916908373ffffffffffffffffffffffffffffffffffffffff160217905550565b600080611a3e61501e565b611a46614f6a565b60008060008060019650600260009054906101000a900473ffffffffffffffffffffffffffffffffffffffff1673ffffffffffffffffffffffffffffffffffffffff166362f9acf98a6040518263ffffffff167c0100000000000000000000000000000000000000000000000000000000028152600401611ac79190615a75565b6040805180830381600087803b158015611ae057600080fd5b505af1158015611af4573d6000803e3d6000fd5b505050506040513d601f19601f82011682018060405250611b1891908101906155a7565b9550600064010000000002866000600281101515611b3257fe5b602002015163ffffffff191614151515611b4b57600080fd5b611b5486613363565b945088611b658661010001516122a8565b141515611b7157600096505b868015611b835750611b8285613212565b5b15611d1757600260009054906101000a900473ffffffffffffffffffffffffffffffffffffffff1673ffffffffffffffffffffffffffffffffffffffff1663c53b4bf98a6040518263ffffffff167c0100000000000000000000000000000000000000000000000000000000028152600401611bff9190615a75565b602060405180830381600087803b158015611c1957600080fd5b505af1158015611c2d573d6000803e3d6000fd5b505050506040513d601f19601f82011682018060405250611c519190810190615766565b935084606001511515600060016004879060020a90041611151514611c77576000611c79565b865b965084608001511515600060016003879060020a90041611151514611c9f576000611ca1565b865b96508460a001511515600060016002879060020a90041611151514611cc7576000611cc9565b865b96508460c0015115156000600180879060020a90041611151514611cee576000611cf0565b865b96508460e00151151560006001861611151514611d0e576000611d10565b865b9650611d1c565b600096505b86151515611d2957600080fd5b856040518082600260200280838360005b83811015611d55578082015181840152602081019050611d3a565b5050505090500191505060405180910390209250611d7289610c5c565b1515611e2f57611d8183613186565b9150600260009054906101000a900473ffffffffffffffffffffffffffffffffffffffff1673ffffffffffffffffffffffffffffffffffffffff16631cc1472d33846040518363ffffffff167c0100000000000000000000000000000000000000000000000000000000028152600401611dfc92919061590f565b600060405180830381600087803b158015611e1657600080fd5b505af1158015611e2a573d6000803e3d6000fd5b505050505b600260009054906101000a900473ffffffffffffffffffffffffffffffffffffffff1673ffffffffffffffffffffffffffffffffffffffff16630e8310d68a6040518263ffffffff167c0100000000000000000000000000000000000000000000000000000000028152600401611ea69190615a75565b600060405180830381600087803b158015611ec057600080fd5b505af1158015611ed4573d6000803e3d6000fd5b50505050600260009054906101000a900473ffffffffffffffffffffffffffffffffffffffff1673ffffffffffffffffffffffffffffffffffffffff166364e779b18a6040518263ffffffff167c0100000000000000000000000000000000000000000000000000000000028152600401611f4f9190615a75565b600060405180830381600087803b158015611f6957600080fd5b505af1158015611f7d573d6000803e3d6000fd5b50505050611f8c8360006136c0565b611f9783600061371e565b611fa08961375e565b611fa983612020565b90507f23e709ab80a4bee9454ba0d08c0b669d684531b4ec766524c43abd788cc3ca76868a833386604051611fe2959493929190615938565b60405180910390a16001975050505050505050919050565b600160009054906101000a900473ffffffffffffffffffffffffffffffffffffffff1681565b6000600b6000836000191660001916815260200190815260200160002060009054906101000a900473ffffffffffffffffffffffffffffffffffffffff169050919050565b6000809054906101000a900473ffffffffffffffffffffffffffffffffffffffff1673ffffffffffffffffffffffffffffffffffffffff163373ffffffffffffffffffffffffffffffffffffffff161415156120c057600080fd5b8060088190555050565b6000809054906101000a900473ffffffffffffffffffffffffffffffffffffffff1681565b600c6020528060005260406000206000915090505481565b6000809054906101000a900473ffffffffffffffffffffffffffffffffffffffff1673ffffffffffffffffffffffffffffffffffffffff163373ffffffffffffffffffffffffffffffffffffffff1614151561216257600080fd5b80600460006101000a81548173ffffffffffffffffffffffffffffffffffffffff021916908373ffffffffffffffffffffffffffffffffffffffff16021790555050565b600560009054906101000a900473ffffffffffffffffffffffffffffffffffffffff1681565b6000809054906101000a900473ffffffffffffffffffffffffffffffffffffffff1673ffffffffffffffffffffffffffffffffffffffff163373ffffffffffffffffffffffffffffffffffffffff1614151561222757600080fd5b6000809054906101000a900473ffffffffffffffffffffffffffffffffffffffff1673ffffffffffffffffffffffffffffffffffffffff166108fc3073ffffffffffffffffffffffffffffffffffffffff16319081150290604051600060405180830381858888f193505050501580156122a5573d6000803e3d6000fd5b50565b600080600090505b601060ff168110156123325760018101601060ff160360080260020a83826010811015156122da57fe5b1a7f0100000000000000000000000000000000000000000000000000000000000000027f01000000000000000000000000000000000000000000000000000000000000009004028201915080806001019150506122b0565b50919050565b6000809054906101000a900473ffffffffffffffffffffffffffffffffffffffff1673ffffffffffffffffffffffffffffffffffffffff163373ffffffffffffffffffffffffffffffffffffffff1614151561239357600080fd5b8060078190555050565b600460009054906101000a900473ffffffffffffffffffffffffffffffffffffffff1681565b600080fd5b600a5481565b60006123d861501e565b6000806000806000600260009054906101000a900473ffffffffffffffffffffffffffffffffffffffff1673ffffffffffffffffffffffffffffffffffffffff166362f9acf9896040518263ffffffff167c01000000000000000000000000000000000000000000000000000000000281526004016124579190615a75565b6040805180830381600087803b15801561247057600080fd5b505af1158015612484573d6000803e3d6000fd5b505050506040513d601f19601f820116820180604052506124a891908101906155a7565b95506000640100000000028660006002811015156124c257fe5b602002015163ffffffff1916141515156124db57600080fd5b856040518082600260200280838360005b838110156125075780820151818401526020810190506124ec565b505050509050019150506040518091039020945061252485613186565b93506000841415151561253657600080fd5b61253f88610c5c565b151561254a57600080fd5b61255585600061371e565b61255e88613a87565b61256785612020565b92508273ffffffffffffffffffffffffffffffffffffffff163373ffffffffffffffffffffffffffffffffffffffff161415156125a357600080fd5b600260009054906101000a900473ffffffffffffffffffffffffffffffffffffffff1673ffffffffffffffffffffffffffffffffffffffff16631c4b774b896040518263ffffffff167c010000000000000000000000000000000000000000000000000000000002815260040161261a9190615a75565b602060405180830381600087803b15801561263457600080fd5b505af1158015612648573d6000803e3d6000fd5b505050506040513d601f19601f8201168201806040525061266c9190810190615766565b9150600260009054906101000a900473ffffffffffffffffffffffffffffffffffffffff1673ffffffffffffffffffffffffffffffffffffffff166304952631896040518263ffffffff167c01000000000000000000000000000000000000000000000000000000000281526004016126e59190615a75565b602060405180830381600087803b1580156126ff57600080fd5b505af1158015612713573d6000803e3d6000fd5b505050506040513d601f19601f820116820180604052506127379190810190615633565b90508015612ad6576127548260065461374290919063ffffffff16565b600360009054906101000a900473ffffffffffffffffffffffffffffffffffffffff1673ffffffffffffffffffffffffffffffffffffffff166370a08231856040518263ffffffff167c01000000000000000000000000000000000000000000000000000000000281526004016127cb91906158bd565b602060405180830381600087803b1580156127e557600080fd5b505af11580156127f9573d6000803e3d6000fd5b505050506040513d601f19601f8201168201806040525061281d9190810190615766565b10801561285557503373ffffffffffffffffffffffffffffffffffffffff168373ffffffffffffffffffffffffffffffffffffffff16145b1561292557600460009054906101000a900473ffffffffffffffffffffffffffffffffffffffff1673ffffffffffffffffffffffffffffffffffffffff1663f088d547846040518263ffffffff167c01000000000000000000000000000000000000000000000000000000000281526004016128d191906158bd565b602060405180830381600087803b1580156128eb57600080fd5b505af11580156128ff573d6000803e3d6000fd5b505050506040513d601f19601f820116820180604052506129239190810190615633565b505b600061293c8360065461374290919063ffffffff16565b1115612a0257600360009054906101000a900473ffffffffffffffffffffffffffffffffffffffff1673ffffffffffffffffffffffffffffffffffffffff16639dc29fac846129968560065461374290919063ffffffff16565b6040518363ffffffff167c01000000000000000000000000000000000000000000000000000000000281526004016129cf92919061590f565b600060405180830381600087803b1580156129e957600080fd5b505af11580156129fd573d6000803e3d6000fd5b505050505b600260009054906101000a900473ffffffffffffffffffffffffffffffffffffffff1673ffffffffffffffffffffffffffffffffffffffff166323b872dd600260009054906101000a900473ffffffffffffffffffffffffffffffffffffffff16858b6040518463ffffffff167c0100000000000000000000000000000000000000000000000000000000028152600401612a9f939291906158d8565b600060405180830381600087803b158015612ab957600080fd5b505af1158015612acd573d6000803e3d6000fd5b50505050612bb7565b6000821115612bb657600360009054906101000a900473ffffffffffffffffffffffffffffffffffffffff1673ffffffffffffffffffffffffffffffffffffffff166340c10f1984846040518363ffffffff167c0100000000000000000000000000000000000000000000000000000000028152600401612b5892919061590f565b602060405180830381600087803b158015612b7257600080fd5b505af1158015612b86573d6000803e3d6000fd5b505050506040513d601f19601f82011682018060405250612baa9190810190615633565b1515612bb557600080fd5b5b5b600260009054906101000a900473ffffffffffffffffffffffffffffffffffffffff1673ffffffffffffffffffffffffffffffffffffffff16631cc1472d84866040518363ffffffff167c0100000000000000000000000000000000000000000000000000000000028152600401612c3092919061590f565b600060405180830381600087803b158015612c4a57600080fd5b505af1158015612c5e573d6000803e3d6000fd5b505050507fa8a1a24efbea93a5c7f29342ba7652cd030828e12cc15c1416480fecee73d589888486604051612c9593929190615a90565b60405180910390a160019650505050505050919050565b60065481565b6000809054906101000a900473ffffffffffffffffffffffffffffffffffffffff1673ffffffffffffffffffffffffffffffffffffffff163373ffffffffffffffffffffffffffffffffffffffff16141515612d0d57600080fd5b8060098190555050565b6000809054906101000a900473ffffffffffffffffffffffffffffffffffffffff1673ffffffffffffffffffffffffffffffffffffffff163373ffffffffffffffffffffffffffffffffffffffff16141515612d7257600080fd5b80600560006101000a81548173ffffffffffffffffffffffffffffffffffffffff021916908373ffffffffffffffffffffffffffffffffffffffff16021790555050565b6000600260009054906101000a900473ffffffffffffffffffffffffffffffffffffffff1673ffffffffffffffffffffffffffffffffffffffff166362f9acf9836040518263ffffffff167c0100000000000000000000000000000000000000000000000000000000028152600401612e2f9190615a75565b6040805180830381600087803b158015612e4857600080fd5b505af1158015612e5c573d6000803e3d6000fd5b505050506040513d601f19601f82011682018060405250612e8091908101906155a7565b6040518082600260200280838360005b83811015612eab578082015181840152602081019050612e90565b5050505090500191505060405180910390209050919050565b600080600080600080600080600260009054906101000a900473ffffffffffffffffffffffffffffffffffffffff1673ffffffffffffffffffffffffffffffffffffffff1663785d8d716040518163ffffffff167c010000000000000000000000000000000000000000000000000000000002815260040160c060405180830381600087803b158015612f5657600080fd5b505af1158015612f6a573d6000803e3d6000fd5b505050506040513d601f19601f82011682018060405250612f8e919081019061578f565b809750819850829950839a50849b50859c505050505050506000905060018060048b9060020a9004161415612fff57612ffc612fed60018801612fdf60018b01600854613db090919063ffffffff16565b613de890919063ffffffff16565b8261374290919063ffffffff16565b90505b60018060038b9060020a9004161415613054576130516130426001870161303460018b01600854613db090919063ffffffff16565b613de890919063ffffffff16565b8261374290919063ffffffff16565b90505b60018060028b9060020a90041614156130a9576130a66130976001860161308960018b01600854613db090919063ffffffff16565b613de890919063ffffffff16565b8261374290919063ffffffff16565b90505b60018060018b9060020a90041614156130fe576130fb6130ec600185016130de60018b01600854613db090919063ffffffff16565b613de890919063ffffffff16565b8261374290919063ffffffff16565b90505b6001808a16141561314b576131486131396001840161312b60018b01600854613db090919063ffffffff16565b613de890919063ffffffff16565b8261374290919063ffffffff16565b90505b80975050505050505050919050565b60075481565b600360009054906101000a900473ffffffffffffffffffffffffffffffffffffffff1681565b6000600c60008360001916600019168152602001908152602001600020549050919050565b6000809054906101000a900473ffffffffffffffffffffffffffffffffffffffff1673ffffffffffffffffffffffffffffffffffffffff163373ffffffffffffffffffffffffffffffffffffffff1614151561320657600080fd5b61320f81613dfe565b50565b60008160000151156132275760009050613240565b8160200151151561323b5760009050613240565b600190505b919050565b6000809054906101000a900473ffffffffffffffffffffffffffffffffffffffff1673ffffffffffffffffffffffffffffffffffffffff163373ffffffffffffffffffffffffffffffffffffffff161415156132a057600080fd5b8060068190555050565b8273ffffffffffffffffffffffffffffffffffffffff1663a9059cbb83836040518363ffffffff167c010000000000000000000000000000000000000000000000000000000002815260040161330192919061590f565b602060405180830381600087803b15801561331b57600080fd5b505af115801561332f573d6000803e3d6000fd5b505050506040513d601f19601f820116820180604052506133539190810190615633565b151561335e57600080fd5b505050565b61336b614f6a565b613373614f6a565b60008060008060008088600060028110151561338b57fe5b602002015187610120019063ffffffff1916908163ffffffff1916815250508860016002811015156133b957fe5b602002015187610140019063ffffffff1916908163ffffffff191681525050600087610180019060ff16908160ff16815250506002876101a0019060ff16908160ff16815250506002876101c0019060ff16908160ff168152505060008760000190151590811515815250506000876020019015159081151581525050600187610160019060ff16908160ff16815250506ffffffffffffffe7ffdbfffffffffffff700100000000000000000000000000000000028761010001906fffffffffffffffffffffffffffffffff191690816fffffffffffffffffffffffffffffffff191681525050600091505b603c8260ff161080156134b6575085155b1561366557602087610180015160ff16106134d6578661014001516134dd565b8661012001515b90506134ff81602089610180015160ff168115156134f757fe5b066020613ef8565b945061350a85613f3c565b809450819550505061351b85613f7b565b15955060008260ff16148015613544575060028460ff16141580613543575060038360ff1614155b5b1561355f576001955060018760000190151590811515815250505b85158015613570575060088460ff16105b801561357f575060088360ff16105b801561358f575060008460ff1610155b801561359f575060008360ff1610155b15613658576135af878585613f8c565b965060018761018001510187610180019060ff16908160ff1681525050866000015115613657576000876000019015159081151581525050600160ff1687610160015160ff16141561361457600287610160019060ff16908160ff1681525050613629565b600187610160019060ff16908160ff16815250505b613634878585613f8c565b9650866000015115613656576001876000019015159081151581525050600195505b5b5b81806001019250506134a5565b8660000151151561369857600087600001901515908115158152505061368a8761428e565b9650613695876145cd565b96505b86975050505050505050919050565b60008282111515156136b557fe5b818303905092915050565b80600b6000846000191660001916815260200190815260200160002060006101000a81548173ffffffffffffffffffffffffffffffffffffffff021916908373ffffffffffffffffffffffffffffffffffffffff1602179055505050565b80600c60008460001916600019168152602001908152602001600020819055505050565b6000818301905082811015151561375557fe5b80905092915050565b6000806000806000806000600260009054906101000a900473ffffffffffffffffffffffffffffffffffffffff1673ffffffffffffffffffffffffffffffffffffffff1663785d8d716040518163ffffffff167c010000000000000000000000000000000000000000000000000000000002815260040160c060405180830381600087803b1580156137ef57600080fd5b505af1158015613803573d6000803e3d6000fd5b505050506040513d601f19601f82011682018060405250613827919081019061578f565b809750819850829950839a50849b50859c50505050505050600260009054906101000a900473ffffffffffffffffffffffffffffffffffffffff1673ffffffffffffffffffffffffffffffffffffffff1663c53b4bf9896040518263ffffffff167c01000000000000000000000000000000000000000000000000000000000281526004016138b69190615a75565b602060405180830381600087803b1580156138d057600080fd5b505af11580156138e4573d6000803e3d6000fd5b505050506040513d601f19601f820116820180604052506139089190810190615766565b90506139316000821161391c57600061391f565b60015b60ff16886136a790919063ffffffff16565b965061395160016004839060020a900416876136a790919063ffffffff16565b955061397160016003839060020a900416866136a790919063ffffffff16565b945061399160016002839060020a900416856136a790919063ffffffff16565b93506139b0600180839060020a900416846136a790919063ffffffff16565b92506139c860018216836136a790919063ffffffff16565b9150600260009054906101000a900473ffffffffffffffffffffffffffffffffffffffff1673ffffffffffffffffffffffffffffffffffffffff16638b1b2ba88888888888886040518763ffffffff167c0100000000000000000000000000000000000000000000000000000000028152600401613a4b96959493929190615b42565b600060405180830381600087803b158015613a6557600080fd5b505af1158015613a79573d6000803e3d6000fd5b505050505050505050505050565b6000806000806000806000600260009054906101000a900473ffffffffffffffffffffffffffffffffffffffff1673ffffffffffffffffffffffffffffffffffffffff1663785d8d716040518163ffffffff167c010000000000000000000000000000000000000000000000000000000002815260040160c060405180830381600087803b158015613b1857600080fd5b505af1158015613b2c573d6000803e3d6000fd5b505050506040513d601f19601f82011682018060405250613b50919081019061578f565b809750819850829950839a50849b50859c50505050505050600260009054906101000a900473ffffffffffffffffffffffffffffffffffffffff1673ffffffffffffffffffffffffffffffffffffffff1663c53b4bf9896040518263ffffffff167c0100000000000000000000000000000000000000000000000000000000028152600401613bdf9190615a75565b602060405180830381600087803b158015613bf957600080fd5b505af1158015613c0d573d6000803e3d6000fd5b505050506040513d601f19601f82011682018060405250613c319190810190615766565b9050613c5a60008211613c45576000613c48565b60015b60ff168861374290919063ffffffff16565b9650613c7a60016004839060020a9004168761374290919063ffffffff16565b9550613c9a60016003839060020a9004168661374290919063ffffffff16565b9450613cba60016002839060020a9004168561374290919063ffffffff16565b9350613cd9600180839060020a9004168461374290919063ffffffff16565b9250613cf1600182168361374290919063ffffffff16565b9150600260009054906101000a900473ffffffffffffffffffffffffffffffffffffffff1673ffffffffffffffffffffffffffffffffffffffff16638b1b2ba88888888888886040518763ffffffff167c0100000000000000000000000000000000000000000000000000000000028152600401613d7496959493929190615b42565b600060405180830381600087803b158015613d8e57600080fd5b505af1158015613da2573d6000803e3d6000fd5b505050505050505050505050565b600080831415613dc35760009050613de2565b8183029050818382811515613dd457fe5b04141515613dde57fe5b8090505b92915050565b60008183811515613df557fe5b04905092915050565b600073ffffffffffffffffffffffffffffffffffffffff168173ffffffffffffffffffffffffffffffffffffffff1614151515613e3a57600080fd5b8073ffffffffffffffffffffffffffffffffffffffff166000809054906101000a900473ffffffffffffffffffffffffffffffffffffffff1673ffffffffffffffffffffffffffffffffffffffff167f8be0079c531659141344cd1fd0a4f28419497f9722a3daafe3b4186f6b6457e060405160405180910390a3806000806101000a81548173ffffffffffffffffffffffffffffffffffffffff021916908373ffffffffffffffffffffffffffffffffffffffff16021790555050565b6000806000607f64010000000002915060078086026007860203039050818160ff168763ffffffff19169060020a9004166401000000009004925050509392505050565b60008060008060408503945060088560ff16811515613f5757fe5b069150600882860360ff16811515613f6b57fe5b0490508181935093505050915091565b600060408260ff1610159050919050565b613f94614f6a565b613f9c615040565b600080600080600080600080600360ff16613fbd8e61010001518e8e6148c5565b60ff16141515613fe05760018d60000190151590811515815250508c995061427e565b613feb8d8d8d61493b565b809950819a50505060008860ff1614156140185760018d60000190151590811515815250508c995061427e565b60009150600090505b8760ff168160ff16101561417e5760009650600095506140588d8a8360ff1660088110151561404c57fe5b60200201518e8e614c7a565b8097508198505050600092505b8560ff168360ff1610156141715781151561407f57600191505b61409261408d888589613ef8565b613f3c565b80955081965050506140b08d61010001518e61016001518787614dde565b8d61010001906fffffffffffffffffffffffffffffffff191690816fffffffffffffffffffffffffffffffff191681525050600260ff168d610160015160ff16141561412f5760018d6101c0018181510191509060ff16908160ff168152505060018d6101a0018181510391509060ff16908160ff1681525050614164565b60018d6101c0018181510391509060ff16908160ff168152505060018d6101a0018181510191509060ff16908160ff16815250505b8280600101935050614065565b8080600101915050614021565b811561421f5761419a8d61010001518e61016001518e8e614dde565b8d61010001906fffffffffffffffffffffffffffffffff191690816fffffffffffffffffffffffffffffffff191681525050600260ff168d610160015160ff1614156141ff5760018d6101c0018181510191509060ff16908160ff168152505061421a565b60018d6101a0018181510191509060ff16908160ff16815250505b614238565b60018d60000190151590811515815250508c995061427e565b600160ff168d610160015160ff1614156142655760028d610160019060ff16908160ff168152505061427a565b60018d610160019060ff16908160ff16815250505b8c99505b5050505050505050509392505050565b614296614f6a565b61429e61506f565b60008060008060006142ae61509e565b603c89610180015160ff1614156142d85760018960200190151590811515815250508897506145c1565b60009550600094505b60408560ff1610156143ba5761432b8961010001516008808860ff1681151561430657fe5b06880360ff1681151561431557fe5b0460088860ff1681151561432557fe5b066148c5565b9350600360ff168460ff1614156143ad5760408051908101604052806008808860ff1681151561435757fe5b06880360ff1681151561436657fe5b0460ff1660ff16815260200160088760ff1681151561438157fe5b0660ff1660ff16815250878760ff16603c8110151561439c57fe5b602002018190525085806001019650505b84806001019550506142e1565b6000925060008660ff16111561457e578861010001519150600094505b8560ff168560ff161080156143ea575082155b1561454a57868560ff16603c8110151561440057fe5b60200201519050600189610160019060ff16908160ff16815250506000896000019015159081151581525050818961010001906fffffffffffffffffffffffffffffffff191690816fffffffffffffffffffffffffffffffff1916815250506144908982600060028110151561447257fe5b602002015183600160028110151561448657fe5b6020020151613f8c565b9850886000015115156144a257600192505b600289610160019060ff16908160ff16815250506000896000019015159081151581525050818961010001906fffffffffffffffffffffffffffffffff191690816fffffffffffffffffffffffffffffffff19168152505061452b8982600060028110151561450d57fe5b602002015183600160028110151561452157fe5b6020020151613f8c565b98508860000151151561453d57600192505b84806001019550506143d7565b818961010001906fffffffffffffffffffffffffffffffff191690816fffffffffffffffffffffffffffffffff1916815250505b821561459a5760018960000190151590811515815250506145bd565b600189602001901515908115158152505060008960000190151590811515815250505b8897505b50505050505050919050565b6145d5614f6a565b60008060008060008060006001965060019550600194506001935060019250600091505b60088260ff16108015614629575086806146105750855b806146185750845b806146205750835b806146285750825b5b1561482e57600090505b60088160ff161080156146635750868061464a5750855b806146525750845b8061465a5750835b806146625750825b5b156148215761467e8961010001518360070383600703614eaa565b6fffffffffffffffffffffffffffffffff19166146a18a61010001518484614eaa565b6fffffffffffffffffffffffffffffffff19161415156146c057600096505b6146d38961010001518383600703614eaa565b6fffffffffffffffffffffffffffffffff19166146f68a61010001518484614eaa565b6fffffffffffffffffffffffffffffffff191614151561471557600095505b6147288961010001518360070383614eaa565b6fffffffffffffffffffffffffffffffff191661474b8a61010001518484614eaa565b6fffffffffffffffffffffffffffffffff191614151561476a57600094505b6147808961010001518260070384600703614eaa565b6fffffffffffffffffffffffffffffffff19166147a38a61010001518484614eaa565b6fffffffffffffffffffffffffffffffff19161415156147c257600093505b6147d28961010001518284614eaa565b6fffffffffffffffffffffffffffffffff19166147f58a61010001518484614eaa565b6fffffffffffffffffffffffffffffffff191614151561481457600092505b8080600101915050614633565b81806001019250506145f9565b86806148375750855b8061483f5750845b806148475750835b8061484f5750825b156148b65760018960400190151590811515815250508689606001901515908115158152505085896080019015159081151581525050848960a0019015159081151581525050838960c0019015159081151581525050828960e00190151590811515815250505b88975050505050505050919050565b60008060006148d48585614f06565b9150600370010000000000000000000000000000000002826fffffffffffffffffffffffffffffffff16876fffffffffffffffffffffffffffffffff19169060020a9004169050807001000000000000000000000000000000009004925050509392505050565b614943615040565b600061494d615040565b6000614957615040565b6000806149626150c0565b600080600096506101006040519081016040528060408051908101604052807fffffffffffffffffffffffffffffffffffffffffffffffffffffffffffffffff60000b60000b81526020016000800b60000b815250815260200160408051908101604052807fffffffffffffffffffffffffffffffffffffffffffffffffffffffffffffffff60000b60000b8152602001600160000b60000b815250815260200160408051908101604052806000800b60000b8152602001600160000b60000b81525081526020016040805190810160405280600160000b60000b8152602001600160000b60000b81525081526020016040805190810160405280600160000b60000b81526020016000800b60000b81525081526020016040805190810160405280600160000b60000b81526020017fffffffffffffffffffffffffffffffffffffffffffffffffffffffffffffffff60000b60000b815250815260200160408051908101604052806000800b60000b81526020017fffffffffffffffffffffffffffffffffffffffffffffffffffffffffffffffff60000b60000b815250815260200160408051908101604052807fffffffffffffffffffffffffffffffffffffffffffffffffffffffffffffffff60000b60000b81526020017fffffffffffffffffffffffffffffffffffffffffffffffffffffffffffffffff60000b60000b8152508152509550600090505b60088160ff161015614c6457858160ff16600881101515614b8e57fe5b60200201519250826000600281101515614ba457fe5b60200201518c019350826001600281101515614bbc57fe5b60200201518b01945060078560000b1380614bda575060008560000b125b80614be8575060078460000b135b80614bf6575060008460000b125b1515614c5757614c0c8d610100015185876148c5565b91508c610160015160ff168260ff16141515614c5657600360ff168260ff16141515614c555782888860ff16600881101515614c4457fe5b602002018190525086806001019750505b5b5b8080600101915050614b71565b8787995099505050505050505050935093915050565b60008060008060008060008060008060009650600160ff168e610160015160ff161415614caa5760029550614caf565b600195505b60009450600190505b60098160ff161015614dc757841515614dba578b8d6000600281101515614cdb57fe5b602002015182020193508a8d6001600281101515614cf557fe5b6020020151820201925060078460000b1380614d14575060008460000b125b80614d22575060078360000b135b80614d30575060008360000b125b15614d4657600097506000965060019450614db9565b614d568e610100015185856148c5565b91508560ff168260ff161415614d7f57614d7288888686614f22565b8098508199505050614db8565b8d610160015160ff168260ff16148015614d9c575060018160ff16115b15614daa5760019450614db7565b6000975060009650600194505b5b5b5b8080600101915050614cb8565b878799509950505050505050505094509492505050565b600080600060078560ff161115614df457600080fd5b60078460ff161115614e0557600080fd5b614e0f8585614f06565b9150816fffffffffffffffffffffffffffffffff166003700100000000000000000000000000000000026fffffffffffffffffffffffffffffffff19169060020a02905086818818169650816fffffffffffffffffffffffffffffffff168660ff16700100000000000000000000000000000000026fffffffffffffffffffffffffffffffff19169060020a02871792505050949350505050565b600080614eb78484614f06565b9050600370010000000000000000000000000000000002816fffffffffffffffffffffffffffffffff16866fffffffffffffffffffffffffffffffff19169060020a9004169150509392505050565b600060026001838560080201016040030260ff16905092915050565b600080600060406008850286010160ff1664010000000002905060078763ffffffff19169060020a029650808717965085806001019650508686925092505094509492505050565b6101e06040519081016040528060001515815260200160001515815260200160001515815260200160001515815260200160001515815260200160001515815260200160001515815260200160001515815260200160006fffffffffffffffffffffffffffffffff19168152602001600063ffffffff19168152602001600063ffffffff19168152602001600060ff168152602001600060ff168152602001600060ff168152602001600060ff1681525090565b6040805190810160405280600290602082028038833980820191505090505090565b610200604051908101604052806008905b6150596150e2565b8152602001906001900390816150515790505090565b610f0060405190810160405280603c905b615088615104565b8152602001906001900390816150805790505090565b6040805190810160405280600290602082028038833980820191505090505090565b6040805190810160405280600290602082028038833980820191505090505090565b6040805190810160405280600290602082028038833980820191505090505090565b6040805190810160405280600290602082028038833980820191505090505090565b60006151328235615c80565b905092915050565b600082601f830112151561514d57600080fd5b600261516061515b82615bd0565b615ba3565b9150818385602084028201111561517657600080fd5b60005b838110156151a6578161518c8882615262565b845260208401935060208301925050600181019050615179565b5050505092915050565b600082601f83011215156151c357600080fd5b60026151d66151d182615bd0565b615ba3565b915081838560208402820111156151ec57600080fd5b60005b8381101561521c57816152028882615276565b8452602084019350602083019250506001810190506151ef565b5050505092915050565b60006152328235615ca0565b905092915050565b60006152468251615ca0565b905092915050565b600061525a8235615cac565b905092915050565b600061526e8235615cd8565b905092915050565b60006152828251615cd8565b905092915050565b60006152968235615d04565b905092915050565b60008083601f84011215156152b257600080fd5b8235905067ffffffffffffffff8111156152cb57600080fd5b6020830191508360018202830111156152e357600080fd5b9250929050565b60006152f68235615d0e565b905092915050565b60006101e0828403121561531157600080fd5b61531c6101e0615ba3565b9050600061532c84828501615226565b600083015250602061534084828501615226565b602083015250604061535484828501615226565b604083015250606061536884828501615226565b606083015250608061537c84828501615226565b60808301525060a061539084828501615226565b60a08301525060c06153a484828501615226565b60c08301525060e06153b884828501615226565b60e0830152506101006153cd8482850161524e565b610100830152506101206153e384828501615262565b610120830152506101406153f984828501615262565b6101408301525061016061540f84828501615486565b6101608301525061018061542584828501615486565b610180830152506101a061543b84828501615486565b6101a0830152506101c061545184828501615486565b6101c08301525092915050565b600061546a8235615d20565b905092915050565b600061547e8251615d20565b905092915050565b60006154928235615d2a565b905092915050565b6000602082840312156154ac57600080fd5b60006154ba84828501615126565b91505092915050565b6000806000606084860312156154d857600080fd5b60006154e686828701615126565b93505060206154f786828701615126565b92505060406155088682870161545e565b9150509250925092565b6000806000806060858703121561552857600080fd5b600061553687828801615126565b94505060206155478782880161545e565b935050604085013567ffffffffffffffff81111561556457600080fd5b6155708782880161529e565b925092505092959194509250565b60006040828403121561559057600080fd5b600061559e8482850161513a565b91505092915050565b6000604082840312156155b957600080fd5b60006155c7848285016151b0565b91505092915050565b60008060008060a085870312156155e657600080fd5b60006155f48782880161513a565b94505060406156058782880161545e565b93505060606156168782880161545e565b925050608061562787828801615226565b91505092959194509250565b60006020828403121561564557600080fd5b60006156538482850161523a565b91505092915050565b60006020828403121561566e57600080fd5b600061567c8482850161524e565b91505092915050565b60006020828403121561569757600080fd5b60006156a58482850161528a565b91505092915050565b600080604083850312156156c157600080fd5b60006156cf8582860161528a565b92505060206156e085828601615126565b9150509250929050565b6000602082840312156156fc57600080fd5b600061570a848285016152ea565b91505092915050565b60006101e0828403121561572657600080fd5b6000615734848285016152fe565b91505092915050565b60006020828403121561574f57600080fd5b600061575d8482850161545e565b91505092915050565b60006020828403121561577857600080fd5b600061578684828501615472565b91505092915050565b60008060008060008060c087890312156157a857600080fd5b60006157b689828a01615472565b96505060206157c789828a01615472565b95505060406157d889828a01615472565b94505060606157e989828a01615472565b93505060806157fa89828a01615472565b92505060a061580b89828a01615472565b9150509295509295509295565b61582181615c14565b82525050565b61583081615bfc565b61583982615bf2565b60005b8281101561586b5761584f858351615881565b61585882615c07565b915060208501945060018101905061583c565b5050505050565b61587b81615c34565b82525050565b61588a81615c40565b82525050565b61589981615c6c565b82525050565b6158a881615d37565b82525050565b6158b781615c76565b82525050565b60006020820190506158d26000830184615818565b92915050565b60006060820190506158ed6000830186615818565b6158fa6020830185615818565b61590760408301846158ae565b949350505050565b60006040820190506159246000830185615818565b61593160208301846158ae565b9392505050565b600060c08201905061594d6000830188615827565b61595a60408301876158ae565b6159676060830186615818565b6159746080830185615818565b61598160a08301846158ae565b9695505050505050565b6000610100820190506159a1600083018a615827565b6159ae60408301896158ae565b6159bb6060830188615818565b6159c860808301876158ae565b6159d560a08301866158ae565b6159e260c08301856158ae565b6159ef60e0830184615872565b98975050505050505050565b6000602082019050615a106000830184615872565b92915050565b6000602082019050615a2b6000830184615890565b92915050565b6000604082019050615a466000830185615890565b615a536020830184615818565b9392505050565b6000602082019050615a6f600083018461589f565b92915050565b6000602082019050615a8a60008301846158ae565b92915050565b6000606082019050615aa560008301866158ae565b615ab26020830185615818565b615abf60408301846158ae565b949350505050565b6000606082019050615adc60008301856158ae565b615ae96020830184615827565b9392505050565b6000604082019050615b0560008301856158ae565b615b126020830184615872565b9392505050565b6000604082019050615b2e60008301856158ae565b615b3b60208301846158ae565b9392505050565b600060c082019050615b5760008301896158ae565b615b6460208301886158ae565b615b7160408301876158ae565b615b7e60608301866158ae565b615b8b60808301856158ae565b615b9860a08301846158ae565b979650505050505050565b6000604051905081810181811067ffffffffffffffff82111715615bc657600080fd5b8060405250919050565b600067ffffffffffffffff821115615be757600080fd5b602082029050919050565b6000819050919050565b600060029050919050565b6000602082019050919050565b600073ffffffffffffffffffffffffffffffffffffffff82169050919050565b60008115159050919050565b60007fffffffffffffffffffffffffffffffffffffffffffffffffffffffff0000000082169050919050565b6000819050919050565b6000819050919050565b600073ffffffffffffffffffffffffffffffffffffffff82169050919050565b60008115159050919050565b60007fffffffffffffffffffffffffffffffff0000000000000000000000000000000082169050919050565b60007fffffffffffffffffffffffffffffffffffffffffffffffffffffffff0000000082169050919050565b6000819050919050565b6000615d1982615c14565b9050919050565b6000819050919050565b600060ff82169050919050565b6000615d4282615c14565b90509190505600a265627a7a723058203221b9e33a6bb8bcd146cb20f4a6fb5f9b7ec6c5eba2ad23d0fa6a85178cf8a16c6578706572696d656e74616cf50037",
  "source": "pragma solidity ^0.4.18;\npragma experimental ABIEncoderV2;\n\n/**\n * The CloversController is a replaceable endpoint for minting and unminting Clovers.sol and ClubToken.sol\n */\n\nimport \"./Reversi.sol\";\nimport \"./IClovers.sol\";\nimport \"./IClubToken.sol\";\nimport \"./ICloversController.sol\";\nimport \"./IClubTokenController.sol\";\nimport \"zeppelin-solidity/contracts/ownership/HasNoTokens.sol\";\nimport \"zeppelin-solidity/contracts/ownership/HasNoEther.sol\";\nimport \"zeppelin-solidity/contracts/math/SafeMath.sol\";\n\n\ncontract CloversController is HasNoEther, HasNoTokens {\n    event cloverCommitted(bytes32 movesHash, address owner);\n    event cloverClaimed(bytes28[2] moves, uint256 tokenId, address owner, uint stake, uint reward, uint256 symmetries, bool keep);\n    event stakeRetrieved(uint256 tokenId, address owner, uint stake);\n    event cloverChallenged(bytes28[2] moves, uint256 tokenId, address owner, address challenger, uint stake);\n\n    using SafeMath for uint256;\n\n    address public oracle;\n    address public clovers;\n    address public clubToken;\n    address public clubTokenController;\n    address public simpleCloversMarket;\n\n    uint256 public basePrice;\n    uint256 public priceMultiplier;\n    uint256 public payMultiplier;\n    uint256 public stakeAmount;\n    uint256 public stakePeriod;\n\n    mapping (bytes32 => address) public commits;\n    mapping (bytes32 => uint256) public stakes;\n\n    constructor(address _clovers, address _clubToken, address _clubTokenController) public {\n        clovers = _clovers;\n        clubToken = _clubToken;\n        clubTokenController = _clubTokenController;\n    }\n    /**\n    * @dev Gets the current stake of a Clover based on the hash of the moves.\n    * @param movesHash The hash of the moves that make up the clover.\n    * @return A uint256 value of stake.\n    */\n    function getStake(bytes32 movesHash) public view returns (uint256) {\n        return stakes[movesHash];\n    }\n    /**\n    * @dev Gets the address of the committer of a Clover based on the hash of the moves.\n    * @param movesHash The hash of the moves that make up the clover.\n    * @return The address of the committer.\n    */\n    function getCommit(bytes32 movesHash) public view returns (address) {\n        return commits[movesHash];\n    }\n    /**\n    * @dev Gets the current staking period needed to verify a Clover.\n    * @param _tokenId The token Id of the clover.\n    * @return A uint256 value of stake period in seconds.\n    */\n    function getMovesHash(uint _tokenId) public constant returns (bytes32) {\n        return keccak256(IClovers(clovers).getCloverMoves(_tokenId));\n    }\n    /**\n    * @dev Checks whether the game is valid.\n    * @param moves The moves needed to play validate the game.\n    * @return A boolean representing whether or not the game is valid.\n    */\n    function isValid(bytes28[2] moves) public constant returns (bool) {\n        Reversi.Game memory game = Reversi.playGame(moves);\n        return isValidGame(game);\n    }\n\n    /**\n    * @dev Checks whether the game is valid.\n    * @param game The pre-played game.\n    * @return A boolean representing whether or not the game is valid.\n    */\n    function isValidGame(Reversi.Game game) public pure returns (bool) {\n        if (game.error) return false;\n        if (!game.complete) return false;\n        return true;\n    }\n    /**\n    * @dev Checks whether the game has passed the verification period.\n    * @param _tokenId The board being checked.\n    * @return A boolean representing whether or not the game has been verified.\n    */\n    function isVerified(uint256 _tokenId) public constant returns (bool) {\n        uint256 _blockMinted = IClovers(clovers).getBlockMinted(_tokenId);\n        if(_blockMinted == 0) return false;\n        if (msg.sender == owner) return true;\n        if (msg.sender == oracle) return true;\n        return block.number.sub(_blockMinted) > stakePeriod;\n    }\n    /**\n    * @dev Calculates the reward of the board.\n    * @param _symmetries symmetries saved as a uint256 value like 00010101 where bits represent symmetry types.\n    * @return A uint256 representing the reward that would be returned for claiming the board.\n    */\n    function calculateReward(uint256 _symmetries) public constant returns (uint256) {\n        uint256 Symmetricals;\n        uint256 RotSym;\n        uint256 Y0Sym;\n        uint256 X0Sym;\n        uint256 XYSym;\n        uint256 XnYSym;\n        (Symmetricals,\n        RotSym,\n        Y0Sym,\n        X0Sym,\n        XYSym,\n        XnYSym) = IClovers(clovers).getAllSymmetries();\n        uint256 base = 0;\n        if (_symmetries >> 4 & 1 == 1) base = base.add(payMultiplier.mul(Symmetricals + 1).div(RotSym + 1));\n        if (_symmetries >> 3 & 1 == 1) base = base.add(payMultiplier.mul(Symmetricals + 1).div(Y0Sym + 1));\n        if (_symmetries >> 2 & 1 == 1) base = base.add(payMultiplier.mul(Symmetricals + 1).div(X0Sym + 1));\n        if (_symmetries >> 1 & 1 == 1) base = base.add(payMultiplier.mul(Symmetricals + 1).div(XYSym + 1));\n        if (_symmetries & 1 == 1) base = base.add(payMultiplier.mul(Symmetricals + 1).div(XnYSym + 1));\n        return base;\n    }\n\n/*\n    // NOTE: Disabled to reduce contract size\n    function legacyRegister(bytes28[2] moves, bool _keep) public payable returns (bool) {\n        Reversi.Game memory game = Reversi.playGame(moves);\n        require(isValidGame(game));\n        uint256 tokenId = uint256(game.board);\n        require(IClovers(clovers).getBlockMinted(tokenId) == 0);\n        require(!IClovers(clovers).exists(tokenId));\n        IClovers(clovers).setBlockMinted(tokenId, block.number);\n        IClovers(clovers).setCloverMoves(tokenId, moves);\n\n        uint256 symmetries = Reversi.returnSymmetricals(game.RotSym, game.Y0Sym, game.X0Sym, game.XYSym, game.XnYSym);\n        uint256 reward;\n\n        if (uint256(symmetries) > 0) {\n            IClovers(clovers).setSymmetries(tokenId, uint256(symmetries));\n            reward = calculateReward(uint256(symmetries));\n            IClovers(clovers).setReward(tokenId, reward);\n        }\n        if (_keep) {\n            // If the user decides to keep the Clover, they must\n            // pay for it in club tokens according to the reward price.\n            if (IClubToken(clubToken).balanceOf(msg.sender) < reward) {\n                IClubTokenController(clubTokenController).buy(msg.sender); // msg.value needs to be enough to buy \"reward\" amount of Club Token\n            }\n            if (reward > 0) {\n                // IClubToken(clubToken).transferFrom(msg.sender, clubToken, reward); // if we'd rather keep the money\n                IClubToken(clubToken).burn(msg.sender, reward);\n            }\n            IClovers(clovers).mint(msg.sender, tokenId);\n        } else {\n            // If the user decides not to keep the Clover, they will\n            // receive the reward price in club tokens, and the clover will\n            // go for sale at 10x the reward price.\n            if (reward > 0) {\n                require(IClubToken(clubToken).mint(msg.sender, reward));\n            }\n            IClovers(clovers).mint(clovers, tokenId);\n        }\n\n    } */\n\n    /**\n    * @dev Claim the Clover without a commit or reveal. Payable so you can attach enough for the stake,\n    * as well as enough to buy tokens if needed to keep the Clover.\n    * @param moves The moves that make up the Clover reversi game.\n    * @param _tokenId The board that results from the moves.\n    * @param _symmetries symmetries saved as a uint256 value like 00010101 where bits represent symmetry\n    * types.\n    * @return A boolean representing whether or not the claim was successful.\n    */\n    function claimClover(bytes28[2] moves, uint256 _tokenId, uint256 _symmetries, bool _keep) public payable returns (bool) {\n        bytes32 movesHash = keccak256(moves);\n\n        require(msg.value >= stakeAmount);\n        require(getCommit(movesHash) == 0);\n\n        setCommit(movesHash, msg.sender);\n        setStake(movesHash, stakeAmount);\n\n        clovers.transfer(stakeAmount);\n\n        emit cloverCommitted(movesHash, msg.sender);\n\n        require(!IClovers(clovers).exists(_tokenId));\n        require(IClovers(clovers).getBlockMinted(_tokenId) == 0);\n\n        IClovers(clovers).setBlockMinted(_tokenId, block.number);\n        IClovers(clovers).setCloverMoves(_tokenId, moves);\n        IClovers(clovers).setKeep(_tokenId, _keep);\n\n        uint256 reward;\n        if (_symmetries > 0) {\n            IClovers(clovers).setSymmetries(_tokenId, _symmetries);\n            reward = calculateReward(_symmetries);\n            IClovers(clovers).setReward(_tokenId, reward);\n        }\n\n        if (_keep) {\n            if (IClubToken(clubToken).balanceOf(msg.sender) < basePrice.add(reward)) {\n                IClubTokenController(clubTokenController).buy(msg.sender);\n            }\n            IClubToken(clubToken).increaseApproval(address(this), basePrice.add(reward));\n        }\n        IClovers(clovers).mint(clovers, _tokenId);\n        emit cloverClaimed(moves, _tokenId, msg.sender, stakeAmount, reward, _symmetries, _keep);\n\n        return true;\n    }\n    /**\n    * @dev Commit the hash of the moves needed to claim the Clover. A stake should be\n    * made for counterfactual verification.\n    * @param movesHash The hash of the moves that makes up the Clover reversi\n    * game.\n    * @return A boolean representing whether or not the commit was successful.\n    NOTE: Disabled for contract size, if front running becomes a problem it can be\n    implemented with an upgrade\n    */\n    /* function claimCloverCommit(bytes32 movesHash) public payable returns (bool) {\n        require(msg.value <= stakeAmount);\n        require(getCommit(movesHash) == 0);\n\n        setCommit(movesHash, msg.sender);\n        setStake(movesHash, stakeAmount);\n\n        clovers.transfer(stakeAmount);\n\n        emit cloverCommitted(movesHash, msg.sender);\n        return true;\n    } */\n    /**\n    * @dev Reveal the solution to the previous commit to claim the Clover.\n    * @param moves The moves that make up the Clover reversi game.\n    * @param _tokenId The board that results from the moves.\n    * @param _symmetries symmetries saved as a uint256 value like 00010101 where bits represent symmetry types.\n    * @return A boolean representing whether or not the reveal and claim was successful.\n    NOTE: Disabled for contract size, if front running becomes a problem it can be implemented with an upgrade\n    */\n    /* function claimCloverReveal(bytes28[2] moves, uint256 _tokenId, uint256 _symmetries, bool _keep) public returns (bool) {\n        bytes32 movesHash = keccak256(moves);\n        address committer = getCommit(movesHash);\n\n        require(IClovers(clovers).getBlockMinted(_tokenId) == 0);\n\n        IClovers(clovers).setBlockMinted(_tokenId, block.number);\n        IClovers(clovers).setCloverMoves(_tokenId, moves);\n        IClovers(clovers).setKeep(_tokenId, _keep);\n        uint256 reward;\n        if (_symmetries > 0) {\n            IClovers(clovers).setSymmetries(_tokenId, _symmetries);\n            reward = calculateReward(_symmetries);\n            IClovers(clovers).setReward(_tokenId, reward);\n        }\n        if (_keep) {\n            IClubToken(clubToken).increaseApproval(address(this), basePrice.add(reward));\n        }\n        uint256 stake = getStake(movesHash);\n        emit cloverClaimed(moves, _tokenId, committer, stake, reward, _symmetries, _keep);\n        return true;\n    } */\n\n    /**\n    * @dev Retrieve the stake from a Clover claim after the stake period has ended, or with the authority of the oracle.\n    * @param _tokenId The board which holds the stake.\n    * @return A boolean representing whether or not the retrieval was successful.\n    */\n    function retrieveStake(uint256 _tokenId) public payable returns (bool) {\n        bytes28[2] memory moves = IClovers(clovers).getCloverMoves(_tokenId);\n        require(moves[0] != 0);\n        bytes32 movesHash = keccak256(moves);\n        uint256 stake = getStake(movesHash);\n        require(stake != 0);\n        require(isVerified(_tokenId));\n        setStake(movesHash, 0);\n        addSymmetries(_tokenId);\n        address committer = getCommit(movesHash);\n        require(msg.sender == committer);\n\n        uint256 reward = IClovers(clovers).getReward(_tokenId);\n        bool _keep = IClovers(clovers).getKeep(_tokenId);\n\n        if (_keep) {\n            // If the user decides to keep the Clover, they must\n            // pay for it in club tokens according to the reward price.\n            if (IClubToken(clubToken).balanceOf(committer) < basePrice.add(reward) && committer == msg.sender) {\n                IClubTokenController(clubTokenController).buy(committer); // msg.value needs to be enough to buy \"reward\" amount of Club Token\n            }\n            if (basePrice.add(reward) > 0) {\n                // IClubToken(clubToken).transferFrom(committer, clubToken, basePrice.add(reward)); // if we'd rather keep the money\n                IClubToken(clubToken).burn(committer, basePrice.add(reward));\n            }\n            IClovers(clovers).transferFrom(clovers, committer, _tokenId);\n        } else {\n            // If the user decides not to keep the Clover, they will\n            // receive the reward price in club tokens, and the clover will\n            // go for sale at the reward price times the priceMultiplier.\n            if (reward > 0) {\n                require(IClubToken(clubToken).mint(committer, reward));\n            }\n        }\n        IClovers(clovers).moveEth(committer, stake);\n        emit stakeRetrieved(_tokenId, committer, stake);\n        return true;\n    }\n\n    /**\n    * @dev Buy one of the Clovers which were given up when mining.\n    * @param _tokenId The board being bought.\n    * @return A boolean representing whether or not the purchase was successful.\n    */\n    /* function buyCloverFromContract(uint256 _tokenId) public payable returns(bool) {\n        require(IClovers(clovers).ownerOf(_tokenId) == clovers);\n        uint256 reward = IClovers(clovers).getReward(_tokenId);\n        uint256 toPay = basePrice.add(reward.mul(priceMultiplier));\n        if (IClubToken(clubToken).balanceOf(msg.sender) < toPay) {\n            IClubTokenController(clubTokenController).buy(msg.sender); // msg.value needs to be enough to buy \"toPay\" amount of Club Token\n        }\n        if (toPay > 0) {\n            // IClubToken(clubToken).transferFrom(msg.sender, clubToken, toPay); // if we'd rather keep the money\n            IClubToken(clubToken).burn(msg.sender, toPay);\n        }\n        IClovers(clovers).transferFrom(clovers, msg.sender, _tokenId);\n        return true;\n    } */\n\n    /**\n    * @dev Convert a bytes16 board into a uint256.\n    * @param _board The board being converted.\n    * @return number the uint256 being converted.\n    */\n    function convertBytes16ToUint(bytes16 _board) public view returns(uint256 number) {\n        for(uint i=0;i<_board.length;i++){\n            number = number + uint(_board[i])*(2**(8*(_board.length-(i+1))));\n        }\n    }\n    /**\n    * @dev Challenge a staked Clover for being invalid.\n    * @param _tokenId The board being challenged.\n    * @return A boolean representing whether or not the challenge was successful.\n    */\n    function challengeClover(uint256 _tokenId) public returns (bool) {\n        bool valid = true;\n        bytes28[2] memory moves = IClovers(clovers).getCloverMoves(_tokenId);\n        require(moves[0] != 0);\n        Reversi.Game memory game = Reversi.playGame(moves);\n\n        if(convertBytes16ToUint(game.board) != _tokenId) {\n            valid = false;\n        }\n        if(valid && isValidGame(game)) {\n            uint256 _symmetries = IClovers(clovers).getSymmetries(_tokenId);\n\n            valid = (_symmetries >> 4 & 1) > 0 == game.RotSym ? valid : false;\n            valid = (_symmetries >> 3 & 1) > 0 == game.Y0Sym ? valid : false;\n            valid = (_symmetries >> 2 & 1) > 0 == game.X0Sym ? valid : false;\n            valid = (_symmetries >> 1 & 1) > 0 == game.XYSym ? valid : false;\n            valid = (_symmetries & 1) > 0 == game.XnYSym ? valid : false;\n\n        } else {\n            valid = false;\n        }\n        require(!valid);\n\n        bytes32 movesHash = keccak256(moves);\n        if (!isVerified(_tokenId)) {\n            uint256 stake = getStake(movesHash);\n            IClovers(clovers).moveEth(msg.sender, stake);\n        }\n        IClovers(clovers).deleteClover(_tokenId);\n        IClovers(clovers).unmint(_tokenId);\n        setCommit(movesHash, 0);\n        setStake(movesHash, 0);\n        removeSymmetries(_tokenId);\n\n        address committer = getCommit(movesHash);\n        emit cloverChallenged(moves, _tokenId, committer, msg.sender, stake);\n        return true;\n    }\n\n    function transferFrom(address _from, address _to, uint256 _tokenId) public {\n        require(msg.sender == simpleCloversMarket);\n        IClovers(clovers).transferFrom(_from, _to, _tokenId);\n    }\n\n\n    /**\n    * @dev Updates oracle Address.\n    * @param _oracle The new oracle Address.\n    */\n    function updateOracle(address _oracle) public onlyOwner {\n        oracle = _oracle;\n    }\n\n    /**\n    * @dev Updates simpleCloversMarket Address.\n    * @param _simpleCloversMarket The new simpleCloversMarket address.\n    */\n    function updateSimpleCloversMarket(address _simpleCloversMarket) public onlyOwner {\n        simpleCloversMarket = _simpleCloversMarket;\n    }\n\n    /**\n    * @dev Updates clubTokenController Address.\n    * @param _clubTokenController The new clubTokenController address.\n    */\n    function updateClubTokenController(address _clubTokenController) public onlyOwner {\n        clubTokenController = _clubTokenController;\n    }\n    /**\n    * @dev Updates the stake amount.\n    * @param _stakeAmount The new amount needed to stake.\n    */\n    function updateStakeAmount(uint256 _stakeAmount) public onlyOwner {\n        stakeAmount = _stakeAmount;\n    }\n    /**\n    * @dev Updates the stake period.\n    * @param _stakePeriod The uint256 value of time needed to stake before being verified.\n    */\n    function updateStakePeriod(uint256 _stakePeriod) public onlyOwner {\n        stakePeriod = _stakePeriod;\n    }\n    /**\n    * @dev Updates the pay multiplier, used to calculate token reward.\n    * @param _payMultiplier The uint256 value of pay multiplier.\n    */\n    function updatePayMultipier(uint256 _payMultiplier) public onlyOwner {\n        payMultiplier = _payMultiplier;\n    }\n    /**\n    * @dev Updates the price multiplier, used to calculate the clover price (multiplied by the original reward).\n    * @param _priceMultiplier The uint256 value of the price multiplier.\n    */\n    function updatePriceMultipier(uint256 _priceMultiplier) public onlyOwner {\n        priceMultiplier = _priceMultiplier;\n    }\n    /**\n    * @dev Updates the base price, used to calculate the clover cost.\n    * @param _basePrice The uint256 value of the base price.\n    */\n    function updateBasePrice(uint256 _basePrice) public onlyOwner {\n        basePrice = _basePrice;\n    }\n\n    /**\n    * @dev Sets the stake of a Clover based on the hash of the moves.\n    * @param movesHash The hash of the moves that make up the clover.\n    * @param stake A uint256 value of stake.\n    */\n    function setStake(bytes32 movesHash, uint256 stake) private {\n        stakes[movesHash] = stake;\n    }\n\n    /**\n    * @dev Sets the address of the committer of a Clover based on the hash of the moves.\n    * @param movesHash The hash of the moves that make up the clover.\n    * @param committer The address of the committer.\n    */\n    function setCommit(bytes32 movesHash, address committer) private {\n        commits[movesHash] = committer;\n    }\n\n    function _setCommit(bytes32 movesHash, address committer) onlyOwner {\n        setCommit(movesHash, committer);\n    }\n\n    /**\n    * @dev Adds new tallys of the totals numbers of clover symmetries.\n    * @param _tokenId The token which needs to be examined.\n    */\n    function addSymmetries(uint256 _tokenId) private {\n        uint256 Symmetricals;\n        uint256 RotSym;\n        uint256 Y0Sym;\n        uint256 X0Sym;\n        uint256 XYSym;\n        uint256 XnYSym;\n        (Symmetricals,\n        RotSym,\n        Y0Sym,\n        X0Sym,\n        XYSym,\n        XnYSym) = IClovers(clovers).getAllSymmetries();\n        uint256 _symmetries = IClovers(clovers).getSymmetries(_tokenId);\n        Symmetricals = Symmetricals.add(_symmetries > 0 ? 1 : 0);\n        RotSym = RotSym.add(uint256(_symmetries >> 4 & 1));\n        Y0Sym = Y0Sym.add(uint256(_symmetries >> 3 & 1));\n        X0Sym = X0Sym.add(uint256(_symmetries >> 2 & 1));\n        XYSym = XYSym.add(uint256(_symmetries >> 1 & 1));\n        XnYSym = XnYSym.add(uint256(_symmetries & 1));\n        IClovers(clovers).setAllSymmetries(Symmetricals, RotSym, Y0Sym, X0Sym, XYSym, XnYSym);\n    }\n    /**\n    * @dev Remove false tallys of the totals numbers of clover symmetries.\n    * @param _tokenId The token which needs to be examined.\n    */\n    function removeSymmetries(uint256 _tokenId) private {\n        uint256 Symmetricals;\n        uint256 RotSym;\n        uint256 Y0Sym;\n        uint256 X0Sym;\n        uint256 XYSym;\n        uint256 XnYSym;\n        (Symmetricals,\n        RotSym,\n        Y0Sym,\n        X0Sym,\n        XYSym,\n        XnYSym) = IClovers(clovers).getAllSymmetries();\n        uint256 _symmetries = IClovers(clovers).getSymmetries(_tokenId);\n        Symmetricals = Symmetricals.sub(_symmetries > 0 ? 1 : 0);\n        RotSym = RotSym.sub(uint256(_symmetries >> 4 & 1));\n        Y0Sym = Y0Sym.sub(uint256(_symmetries >> 3 & 1));\n        X0Sym = X0Sym.sub(uint256(_symmetries >> 2 & 1));\n        XYSym = XYSym.sub(uint256(_symmetries >> 1 & 1));\n        XnYSym = XnYSym.sub(uint256(_symmetries & 1));\n        IClovers(clovers).setAllSymmetries(Symmetricals, RotSym, Y0Sym, X0Sym, XYSym, XnYSym);\n    }\n\n}\n",
  "sourcePath": "/Users/billy/clovers/clovers-contracts/contracts/CloversController.sol",
  "compiler": {
    "name": "solc",
    "version": "0.4.24+commit.e67f0147.Emscripten.clang"
  },
  "schemaVersion": "2.0.1",
  "updatedAt": "2018-08-01T17:08:39.877Z"
}