{
  "contractName": "CloversController",
  "abi": [
    {
      "constant": true,
      "inputs": [],
      "name": "clovers",
      "outputs": [
        {
          "name": "",
          "type": "address"
        }
      ],
      "payable": false,
      "stateMutability": "view",
      "type": "function"
    },
    {
      "constant": false,
      "inputs": [
        {
          "name": "token",
          "type": "address"
        }
      ],
      "name": "reclaimToken",
      "outputs": [],
      "payable": false,
      "stateMutability": "nonpayable",
      "type": "function"
    },
    {
      "constant": true,
      "inputs": [],
      "name": "payMultiplier",
      "outputs": [
        {
          "name": "",
          "type": "uint256"
        }
      ],
      "payable": false,
      "stateMutability": "view",
      "type": "function"
    },
    {
      "constant": true,
      "inputs": [
        {
          "name": "",
          "type": "bytes32"
        }
      ],
      "name": "commits",
      "outputs": [
        {
          "name": "collected",
          "type": "bool"
        },
        {
          "name": "stake",
          "type": "uint256"
        },
        {
          "name": "committer",
          "type": "address"
        }
      ],
      "payable": false,
      "stateMutability": "view",
      "type": "function"
    },
    {
      "constant": true,
      "inputs": [],
      "name": "paused",
      "outputs": [
        {
          "name": "",
          "type": "bool"
        }
      ],
      "payable": false,
      "stateMutability": "view",
      "type": "function"
    },
    {
      "constant": true,
      "inputs": [],
      "name": "stakeAmount",
      "outputs": [
        {
          "name": "",
          "type": "uint256"
        }
      ],
      "payable": false,
      "stateMutability": "view",
      "type": "function"
    },
    {
      "constant": false,
      "inputs": [],
      "name": "renounceOwnership",
      "outputs": [],
      "payable": false,
      "stateMutability": "nonpayable",
      "type": "function"
    },
    {
      "constant": true,
      "inputs": [],
      "name": "curationMarket",
      "outputs": [
        {
          "name": "",
          "type": "address"
        }
      ],
      "payable": false,
      "stateMutability": "view",
      "type": "function"
    },
    {
      "constant": true,
      "inputs": [],
      "name": "gasLastUpdated_fastGasPrice_averageGasPrice_safeLowGasPrice",
      "outputs": [
        {
          "name": "",
          "type": "uint256"
        }
      ],
      "payable": false,
      "stateMutability": "view",
      "type": "function"
    },
    {
      "constant": true,
      "inputs": [],
      "name": "oracle",
      "outputs": [
        {
          "name": "",
          "type": "address"
        }
      ],
      "payable": false,
      "stateMutability": "view",
      "type": "function"
    },
    {
      "constant": true,
      "inputs": [],
      "name": "owner",
      "outputs": [
        {
          "name": "",
          "type": "address"
        }
      ],
      "payable": false,
      "stateMutability": "view",
      "type": "function"
    },
    {
      "constant": true,
      "inputs": [],
      "name": "oneGwei",
      "outputs": [
        {
          "name": "",
          "type": "uint256"
        }
      ],
      "payable": false,
      "stateMutability": "view",
      "type": "function"
    },
    {
      "constant": true,
      "inputs": [],
      "name": "simpleCloversMarket",
      "outputs": [
        {
          "name": "",
          "type": "address"
        }
      ],
      "payable": false,
      "stateMutability": "view",
      "type": "function"
    },
    {
      "constant": false,
      "inputs": [],
      "name": "reclaimEther",
      "outputs": [],
      "payable": false,
      "stateMutability": "nonpayable",
      "type": "function"
    },
    {
      "constant": true,
      "inputs": [],
      "name": "gasBlockMargin",
      "outputs": [
        {
          "name": "",
          "type": "uint256"
        }
      ],
      "payable": false,
      "stateMutability": "view",
      "type": "function"
    },
    {
      "constant": true,
      "inputs": [],
      "name": "clubTokenController",
      "outputs": [
        {
          "name": "",
          "type": "address"
        }
      ],
      "payable": false,
      "stateMutability": "view",
      "type": "function"
    },
    {
      "constant": false,
      "inputs": [
        {
          "name": "from_",
          "type": "address"
        },
        {
          "name": "value_",
          "type": "uint256"
        },
        {
          "name": "data_",
          "type": "bytes"
        }
      ],
      "name": "tokenFallback",
      "outputs": [],
      "payable": false,
      "stateMutability": "nonpayable",
      "type": "function"
    },
    {
      "constant": true,
      "inputs": [],
      "name": "stakePeriod",
      "outputs": [
        {
          "name": "",
          "type": "uint256"
        }
      ],
      "payable": false,
      "stateMutability": "view",
      "type": "function"
    },
    {
      "constant": true,
      "inputs": [],
      "name": "basePrice",
      "outputs": [
        {
          "name": "",
          "type": "uint256"
        }
      ],
      "payable": false,
      "stateMutability": "view",
      "type": "function"
    },
    {
      "constant": true,
      "inputs": [],
      "name": "priceMultiplier",
      "outputs": [
        {
          "name": "",
          "type": "uint256"
        }
      ],
      "payable": false,
      "stateMutability": "view",
      "type": "function"
    },
    {
      "constant": true,
      "inputs": [],
      "name": "clubToken",
      "outputs": [
        {
          "name": "",
          "type": "address"
        }
      ],
      "payable": false,
      "stateMutability": "view",
      "type": "function"
    },
    {
      "constant": false,
      "inputs": [
        {
          "name": "_newOwner",
          "type": "address"
        }
      ],
      "name": "transferOwnership",
      "outputs": [],
      "payable": false,
      "stateMutability": "nonpayable",
      "type": "function"
    },
    {
      "inputs": [
        {
          "name": "_clovers",
          "type": "address"
        },
        {
          "name": "_clubToken",
          "type": "address"
        },
        {
          "name": "_clubTokenController",
          "type": "address"
        }
      ],
      "payable": false,
      "stateMutability": "nonpayable",
      "type": "constructor"
    },
    {
      "payable": false,
      "stateMutability": "nonpayable",
      "type": "fallback"
    },
    {
      "anonymous": false,
      "inputs": [
        {
          "indexed": false,
          "name": "movesHash",
          "type": "bytes32"
        },
        {
          "indexed": false,
          "name": "owner",
          "type": "address"
        }
      ],
      "name": "cloverCommitted",
      "type": "event"
    },
    {
      "anonymous": false,
      "inputs": [
        {
          "indexed": false,
          "name": "moves",
          "type": "bytes28[2]"
        },
        {
          "indexed": false,
          "name": "tokenId",
          "type": "uint256"
        },
        {
          "indexed": false,
          "name": "owner",
          "type": "address"
        },
        {
          "indexed": false,
          "name": "stake",
          "type": "uint256"
        },
        {
          "indexed": false,
          "name": "reward",
          "type": "uint256"
        },
        {
          "indexed": false,
          "name": "symmetries",
          "type": "uint256"
        },
        {
          "indexed": false,
          "name": "keep",
          "type": "bool"
        }
      ],
      "name": "cloverClaimed",
      "type": "event"
    },
    {
      "anonymous": false,
      "inputs": [
        {
          "indexed": false,
          "name": "tokenId",
          "type": "uint256"
        },
        {
          "indexed": false,
          "name": "owner",
          "type": "address"
        },
        {
          "indexed": false,
          "name": "stake",
          "type": "uint256"
        }
      ],
      "name": "stakeRetrieved",
      "type": "event"
    },
    {
      "anonymous": false,
      "inputs": [
        {
          "indexed": false,
          "name": "moves",
          "type": "bytes28[2]"
        },
        {
          "indexed": false,
          "name": "tokenId",
          "type": "uint256"
        },
        {
          "indexed": false,
          "name": "owner",
          "type": "address"
        },
        {
          "indexed": false,
          "name": "challenger",
          "type": "address"
        },
        {
          "indexed": false,
          "name": "stake",
          "type": "uint256"
        }
      ],
      "name": "cloverChallenged",
      "type": "event"
    },
    {
      "anonymous": false,
      "inputs": [
        {
          "indexed": true,
          "name": "previousOwner",
          "type": "address"
        }
      ],
      "name": "OwnershipRenounced",
      "type": "event"
    },
    {
      "anonymous": false,
      "inputs": [
        {
          "indexed": true,
          "name": "previousOwner",
          "type": "address"
        },
        {
          "indexed": true,
          "name": "newOwner",
          "type": "address"
        }
      ],
      "name": "OwnershipTransferred",
      "type": "event"
    },
    {
      "constant": true,
      "inputs": [
        {
          "name": "movesHash",
          "type": "bytes32"
        }
      ],
      "name": "getStake",
      "outputs": [
        {
          "name": "",
          "type": "uint256"
        }
      ],
      "payable": false,
      "stateMutability": "view",
      "type": "function"
    },
    {
      "constant": true,
      "inputs": [
        {
          "name": "movesHash",
          "type": "bytes32"
        }
      ],
      "name": "getCommit",
      "outputs": [
        {
          "name": "",
          "type": "address"
        }
      ],
      "payable": false,
      "stateMutability": "view",
      "type": "function"
    },
    {
      "constant": true,
      "inputs": [
        {
          "name": "_tokenId",
          "type": "uint256"
        }
      ],
      "name": "getMovesHash",
      "outputs": [
        {
          "name": "",
          "type": "bytes32"
        }
      ],
      "payable": false,
      "stateMutability": "view",
      "type": "function"
    },
    {
      "constant": true,
      "inputs": [
        {
          "name": "moves",
          "type": "bytes28[2]"
        }
      ],
      "name": "isValid",
      "outputs": [
        {
          "name": "",
          "type": "bool"
        }
      ],
      "payable": false,
      "stateMutability": "view",
      "type": "function"
    },
    {
      "constant": true,
      "inputs": [
        {
          "name": "error",
          "type": "bool"
        },
        {
          "name": "complete",
          "type": "bool"
        }
      ],
      "name": "isValidGame",
      "outputs": [
        {
          "name": "",
          "type": "bool"
        }
      ],
      "payable": false,
      "stateMutability": "pure",
      "type": "function"
    },
    {
      "constant": true,
      "inputs": [
        {
          "name": "_tokenId",
          "type": "uint256"
        }
      ],
      "name": "isVerified",
      "outputs": [
        {
          "name": "",
          "type": "bool"
        }
      ],
      "payable": false,
      "stateMutability": "view",
      "type": "function"
    },
    {
      "constant": true,
      "inputs": [
        {
          "name": "_symmetries",
          "type": "uint256"
        }
      ],
      "name": "calculateReward",
      "outputs": [
        {
          "name": "",
          "type": "uint256"
        }
      ],
      "payable": false,
      "stateMutability": "view",
      "type": "function"
    },
    {
      "constant": true,
      "inputs": [
        {
          "name": "_symmetries",
          "type": "uint256"
        }
      ],
      "name": "getPrice",
      "outputs": [
        {
          "name": "",
          "type": "uint256"
        }
      ],
      "payable": false,
      "stateMutability": "view",
      "type": "function"
    },
    {
      "constant": false,
      "inputs": [
        {
          "name": "_gasBlockMargin",
          "type": "uint256"
        }
      ],
      "name": "updateGasBlockMargin",
      "outputs": [],
      "payable": false,
      "stateMutability": "nonpayable",
      "type": "function"
    },
    {
      "constant": false,
      "inputs": [
        {
          "name": "_fastGasPrice",
          "type": "uint256"
        },
        {
          "name": "_averageGasPrice",
          "type": "uint256"
        },
        {
          "name": "_safeLowGasPrice",
          "type": "uint256"
        }
      ],
      "name": "updateGasPrices",
      "outputs": [],
      "payable": false,
      "stateMutability": "nonpayable",
      "type": "function"
    },
    {
      "constant": true,
      "inputs": [],
      "name": "gasLastUpdated",
      "outputs": [
        {
          "name": "",
          "type": "uint256"
        }
      ],
      "payable": false,
      "stateMutability": "view",
      "type": "function"
    },
    {
      "constant": true,
      "inputs": [],
      "name": "fastGasPrice",
      "outputs": [
        {
          "name": "",
          "type": "uint256"
        }
      ],
      "payable": false,
      "stateMutability": "view",
      "type": "function"
    },
    {
      "constant": true,
      "inputs": [],
      "name": "averageGasPrice",
      "outputs": [
        {
          "name": "",
          "type": "uint256"
        }
      ],
      "payable": false,
      "stateMutability": "view",
      "type": "function"
    },
    {
      "constant": true,
      "inputs": [],
      "name": "safeLowGasPrice",
      "outputs": [
        {
          "name": "",
          "type": "uint256"
        }
      ],
      "payable": false,
      "stateMutability": "view",
      "type": "function"
    },
    {
      "constant": true,
      "inputs": [],
      "name": "getGasPriceForApp",
      "outputs": [
        {
          "name": "",
          "type": "uint256"
        }
      ],
      "payable": false,
      "stateMutability": "view",
      "type": "function"
    },
    {
      "constant": false,
      "inputs": [
        {
          "name": "moves",
          "type": "bytes28[2]"
        },
        {
          "name": "_tokenId",
          "type": "uint256"
        },
        {
          "name": "_symmetries",
          "type": "uint256"
        },
        {
          "name": "_keep",
          "type": "bool"
        }
      ],
      "name": "claimClover",
      "outputs": [
        {
          "name": "",
          "type": "bool"
        }
      ],
      "payable": true,
      "stateMutability": "payable",
      "type": "function"
    },
    {
      "constant": false,
      "inputs": [
        {
          "name": "_tokenId",
          "type": "uint256"
        },
        {
          "name": "_fastGasPrice",
          "type": "uint256"
        },
        {
          "name": "_averageGasPrice",
          "type": "uint256"
        },
        {
          "name": "_safeLowGasPrice",
          "type": "uint256"
        }
      ],
      "name": "retrieveStakeWithGas",
      "outputs": [
        {
          "name": "",
          "type": "bool"
        }
      ],
      "payable": true,
      "stateMutability": "payable",
      "type": "function"
    },
    {
      "constant": false,
      "inputs": [
        {
          "name": "_tokenId",
          "type": "uint256"
        }
      ],
      "name": "retrieveStake",
      "outputs": [
        {
          "name": "",
          "type": "bool"
        }
      ],
      "payable": true,
      "stateMutability": "payable",
      "type": "function"
    },
    {
      "constant": true,
      "inputs": [
        {
          "name": "_board",
          "type": "bytes16"
        }
      ],
      "name": "convertBytes16ToUint",
      "outputs": [
        {
          "name": "number",
          "type": "uint256"
        }
      ],
      "payable": false,
      "stateMutability": "view",
      "type": "function"
    },
    {
      "constant": false,
      "inputs": [
        {
          "name": "_tokenId",
          "type": "uint256"
        },
        {
          "name": "_fastGasPrice",
          "type": "uint256"
        },
        {
          "name": "_averageGasPrice",
          "type": "uint256"
        },
        {
          "name": "_safeLowGasPrice",
          "type": "uint256"
        }
      ],
      "name": "challengeCloverWithGas",
      "outputs": [
        {
          "name": "",
          "type": "bool"
        }
      ],
      "payable": false,
      "stateMutability": "nonpayable",
      "type": "function"
    },
    {
      "constant": false,
      "inputs": [
        {
          "name": "_tokenId",
          "type": "uint256"
        }
      ],
      "name": "challengeClover",
      "outputs": [
        {
          "name": "",
          "type": "bool"
        }
      ],
      "payable": false,
      "stateMutability": "nonpayable",
      "type": "function"
    },
    {
      "constant": false,
      "inputs": [
        {
          "name": "_tokenId",
          "type": "uint256"
        },
        {
          "name": "_price",
          "type": "uint256"
        }
      ],
      "name": "fixSalePrice",
      "outputs": [],
      "payable": false,
      "stateMutability": "nonpayable",
      "type": "function"
    },
    {
      "constant": false,
      "inputs": [
        {
          "name": "_from",
          "type": "address"
        },
        {
          "name": "_to",
          "type": "address"
        },
        {
          "name": "_tokenId",
          "type": "uint256"
        }
      ],
      "name": "transferFrom",
      "outputs": [],
      "payable": false,
      "stateMutability": "nonpayable",
      "type": "function"
    },
    {
      "constant": false,
      "inputs": [
        {
          "name": "_paused",
          "type": "bool"
        }
      ],
      "name": "updatePaused",
      "outputs": [],
      "payable": false,
      "stateMutability": "nonpayable",
      "type": "function"
    },
    {
      "constant": false,
      "inputs": [
        {
          "name": "_curationMarket",
          "type": "address"
        }
      ],
      "name": "updateCurationMarket",
      "outputs": [],
      "payable": false,
      "stateMutability": "nonpayable",
      "type": "function"
    },
    {
      "constant": false,
      "inputs": [
        {
          "name": "_oracle",
          "type": "address"
        }
      ],
      "name": "updateOracle",
      "outputs": [],
      "payable": false,
      "stateMutability": "nonpayable",
      "type": "function"
    },
    {
      "constant": false,
      "inputs": [
        {
          "name": "_simpleCloversMarket",
          "type": "address"
        }
      ],
      "name": "updateSimpleCloversMarket",
      "outputs": [],
      "payable": false,
      "stateMutability": "nonpayable",
      "type": "function"
    },
    {
      "constant": false,
      "inputs": [
        {
          "name": "_clubTokenController",
          "type": "address"
        }
      ],
      "name": "updateClubTokenController",
      "outputs": [],
      "payable": false,
      "stateMutability": "nonpayable",
      "type": "function"
    },
    {
      "constant": false,
      "inputs": [
        {
          "name": "_stakeAmount",
          "type": "uint256"
        }
      ],
      "name": "updateStakeAmount",
      "outputs": [],
      "payable": false,
      "stateMutability": "nonpayable",
      "type": "function"
    },
    {
      "constant": false,
      "inputs": [
        {
          "name": "_stakePeriod",
          "type": "uint256"
        }
      ],
      "name": "updateStakePeriod",
      "outputs": [],
      "payable": false,
      "stateMutability": "nonpayable",
      "type": "function"
    },
    {
      "constant": false,
      "inputs": [
        {
          "name": "_payMultiplier",
          "type": "uint256"
        }
      ],
      "name": "updatePayMultipier",
      "outputs": [],
      "payable": false,
      "stateMutability": "nonpayable",
      "type": "function"
    },
    {
      "constant": false,
      "inputs": [
        {
          "name": "_priceMultiplier",
          "type": "uint256"
        }
      ],
      "name": "updatePriceMultipier",
      "outputs": [],
      "payable": false,
      "stateMutability": "nonpayable",
      "type": "function"
    },
    {
      "constant": false,
      "inputs": [
        {
          "name": "_basePrice",
          "type": "uint256"
        }
      ],
      "name": "updateBasePrice",
      "outputs": [],
      "payable": false,
      "stateMutability": "nonpayable",
      "type": "function"
    },
    {
      "constant": false,
      "inputs": [
        {
          "name": "movesHash",
          "type": "bytes32"
        },
        {
          "name": "committer",
          "type": "address"
        }
      ],
      "name": "_setCommit",
      "outputs": [],
      "payable": false,
      "stateMutability": "nonpayable",
      "type": "function"
    }
  ],
  "bytecode": "0x608060405260f060085534801561001557600080fd5b50604051606080620047f183398101604090815281516020830151919092015160008054600160a060020a03191633179055341561005257600080fd5b60028054600160a060020a03948516600160a060020a0319918216179091556003805493851693821693909317909255600480549190931691161790556000805460a060020a60ff0219167401000000000000000000000000000000000000000017905561472b80620000c66000396000f30060806040526004361061029c5763ffffffff7c01000000000000000000000000000000000000000000000000000000006000350416627173c881146102ab57806308cdc2a8146102db5780630d576bfa146102f55780631503f8481461033357806317ffc3201461035a5780631cb44dfc14610388578063225c35b2146103b657806323b872dd146103e9578063271eff94146104205780632a535b571461046057806337b6d96b146104785780633afcba961461049057806343be0880146104a557806346d2ce20146104e657806347885781146105175780635759f3f7146105655780635c9476c71461057d5780635c975abb1461059257806360c7dc47146105a7578063715018a6146105bc57806372420f06146105d1578063755a9ef2146105e6578063776438ea146105fb5780637b7db9fa1461060f5780637cce4656146106275780637dc0d1d01461063c5780638784ea96146106515780638a05aafa146106695780638be90b52146106815780638da5cb5b146106965780638e50b65c146106ab5780639273c2f3146106c05780639564e180146106de578063975e4b2a1461070c5780639f727c2714610721578063a069870614610736578063a4a83ca61461074b578063a7e901b014610776578063a89b55da1461078e578063c0ee0b8a146107a3578063c1699a99146107e1578063c1fe551a146107f6578063c4fefe8014610801578063c7876ea414610822578063c90054ee14610837578063cd9437bd1461084f578063d010ed701461086a578063d09687f714610898578063d2d7231f146108b0578063d50cb88b146108c8578063d76bbd52146108dd578063e7572230146108f2578063e765c1221461090a578063ed77709814610922578063f2fde38b14610937578063fd5baa8814610965575b3480156102a857600080fd5b50005b3480156102b757600080fd5b506102d973ffffffffffffffffffffffffffffffffffffffff6004351661097d565b005b3480156102e757600080fd5b506102d960043515156109e8565b34801561030157600080fd5b5061030a610a56565b6040805173ffffffffffffffffffffffffffffffffffffffff9092168252519081900360200190f35b34801561033f57600080fd5b50610348610a72565b60408051918252519081900360200190f35b34801561036657600080fd5b506102d973ffffffffffffffffffffffffffffffffffffffff60043516610a9f565b34801561039457600080fd5b506102d973ffffffffffffffffffffffffffffffffffffffff60043516610b92565b3480156103c257600080fd5b506103d560043515156024351515610bfd565b604080519115158252519081900360200190f35b3480156103f557600080fd5b506102d973ffffffffffffffffffffffffffffffffffffffff60043581169060243516604435610c26565b34801561042c57600080fd5b506040805180820182526103d5913691600491604491908390600290839083908082843750939650610d0e95505050505050565b34801561046c57600080fd5b506102d9600435610d3e565b34801561048457600080fd5b506103d5600435610d8b565b34801561049c57600080fd5b50610348610e5c565b6040805180820182526103d5913691600491604491908390600290839083908082843750939650508335945050506020820135916040013515159050610e62565b3480156104f257600080fd5b506102d960043573ffffffffffffffffffffffffffffffffffffffff60243516611881565b34801561052357600080fd5b5061052f6004356118af565b604080519315158452602084019290925273ffffffffffffffffffffffffffffffffffffffff1682820152519081900360600190f35b34801561057157600080fd5b506102d96004356118ea565b34801561058957600080fd5b50610348611913565b34801561059e57600080fd5b506103d5611937565b3480156105b357600080fd5b50610348611958565b3480156105c857600080fd5b506102d961195e565b3480156105dd57600080fd5b5061030a6119ef565b3480156105f257600080fd5b50610348611a0b565b6103d5600435602435604435606435611a52565b34801561061b57600080fd5b506103d5600435611abd565b34801561063357600080fd5b50610348611fcc565b34801561064857600080fd5b5061030a611fd2565b34801561065d57600080fd5b5061030a600435611fee565b34801561067557600080fd5b506102d9600435612019565b34801561068d57600080fd5b50610348612042565b3480156106a257600080fd5b5061030a61205e565b3480156106b757600080fd5b5061034861207a565b3480156106cc57600080fd5b506102d9600435602435604435612082565b3480156106ea57600080fd5b506102d973ffffffffffffffffffffffffffffffffffffffff6004351661211b565b34801561071857600080fd5b5061030a612186565b34801561072d57600080fd5b506102d96121a2565b34801561074257600080fd5b50610348612211565b34801561075757600080fd5b506103486fffffffffffffffffffffffffffffffff1960043516612217565b34801561078257600080fd5b506102d9600435612277565b34801561079a57600080fd5b5061030a6122a0565b3480156107af57600080fd5b506102d96004803573ffffffffffffffffffffffffffffffffffffffff169060248035916044359182019101356122bc565b3480156107ed57600080fd5b506103486122c1565b6103d56004356122c7565b34801561080d57600080fd5b506103d5600435602435604435606435612943565b34801561082e57600080fd5b506103486129b1565b34801561084357600080fd5b506102d96004356129b7565b34801561085b57600080fd5b506102d96004356024356129e0565b34801561087657600080fd5b506102d973ffffffffffffffffffffffffffffffffffffffff60043516612abe565b3480156108a457600080fd5b50610348600435612b29565b3480156108bc57600080fd5b50610348600435612c12565b3480156108d457600080fd5b50610348612e20565b3480156108e957600080fd5b5061030a612e26565b3480156108fe57600080fd5b50610348600435612e42565b34801561091657600080fd5b50610348600435612e50565b34801561092e57600080fd5b50610348612e65565b34801561094357600080fd5b506102d973ffffffffffffffffffffffffffffffffffffffff60043516612e75565b34801561097157600080fd5b506102d9600435612ea2565b60005473ffffffffffffffffffffffffffffffffffffffff1633146109a157600080fd5b600680547fffffffffffffffffffffffff00000000000000000000000000000000000000001673ffffffffffffffffffffffffffffffffffffffff92909216919091179055565b60005473ffffffffffffffffffffffffffffffffffffffff163314610a0c57600080fd5b6000805491151574010000000000000000000000000000000000000000027fffffffffffffffffffffff00ffffffffffffffffffffffffffffffffffffffff909216919091179055565b60025473ffffffffffffffffffffffffffffffffffffffff1681565b6007547801000000000000000000000000000000000000000000000000900467ffffffffffffffff165b90565b6000805473ffffffffffffffffffffffffffffffffffffffff163314610ac457600080fd5b604080517f70a08231000000000000000000000000000000000000000000000000000000008152306004820152905173ffffffffffffffffffffffffffffffffffffffff8416916370a082319160248083019260209291908290030181600087803b158015610b3257600080fd5b505af1158015610b46573d6000803e3d6000fd5b505050506040513d6020811015610b5c57600080fd5b5051600054909150610b8e9073ffffffffffffffffffffffffffffffffffffffff84811691168363ffffffff612ecb16565b5050565b60005473ffffffffffffffffffffffffffffffffffffffff163314610bb657600080fd5b600180547fffffffffffffffffffffffff00000000000000000000000000000000000000001673ffffffffffffffffffffffffffffffffffffffff92909216919091179055565b60008215610c0d57506000610c20565b811515610c1c57506000610c20565b5060015b92915050565b60055473ffffffffffffffffffffffffffffffffffffffff16331480610c63575060065473ffffffffffffffffffffffffffffffffffffffff1633145b1515610c6e57600080fd5b600254604080517f23b872dd00000000000000000000000000000000000000000000000000000000815273ffffffffffffffffffffffffffffffffffffffff8681166004830152858116602483015260448201859052915191909216916323b872dd91606480830192600092919082900301818387803b158015610cf157600080fd5b505af1158015610d05573d6000803e3d6000fd5b50505050505050565b6000610d1861460a565b610d2183612faa565b9050610d3581600001518260200151610bfd565b91505b50919050565b60005473ffffffffffffffffffffffffffffffffffffffff16331480610d7b575060015473ffffffffffffffffffffffffffffffffffffffff1633145b1515610d8657600080fd5b600855565b600254604080517f03a53d6b000000000000000000000000000000000000000000000000000000008152600481018490529051600092839273ffffffffffffffffffffffffffffffffffffffff909116916303a53d6b9160248082019260209290919082900301818787803b158015610e0357600080fd5b505af1158015610e17573d6000803e3d6000fd5b505050506040513d6020811015610e2d57600080fd5b50519050801515610e415760009150610d38565b600d54610e54438363ffffffff6131df16565b119392505050565b600b5481565b60008054819081908190819074010000000000000000000000000000000000000000900460ff1615610ef557604080517f08c379a000000000000000000000000000000000000000000000000000000000815260206004820152601260248201527f4d757374206e6f74206265207061757365640000000000000000000000000000604482015290519081900360640190fd5b7f1c3b3e1e72950ae52150ec48810521d17cea4b30c2a59c807d1ba2f8dff57e658989338b8c8c8c6040518088600260200280838360005b83811015610f45578181015183820152602001610f2d565b5050505091909101978852505073ffffffffffffffffffffffffffffffffffffffff90941660208601526040808601939093526060850191909152608084015290151560a0830152519081900360c0019150a1886040518082600260200280838360005b83811015610fc1578181015183820152602001610fa9565b5050505090500191505060405180910390209350610fef610fe0611a0b565b600c549063ffffffff6131f116565b925034831115610ffe57600080fd5b61100784611fee565b73ffffffffffffffffffffffffffffffffffffffff161561102757600080fd5b611031843361321a565b600083111561108d576110448484613270565b60025460405173ffffffffffffffffffffffffffffffffffffffff9091169084156108fc029085906000818181858888f1935050505015801561108b573d6000803e3d6000fd5b505b6040805185815233602082015281517f4c0f83654ac2972673e4d81058f833de298389df1dce04cc2db9f231b907d5ff929181900390910190a1600254604080517f4f558e79000000000000000000000000000000000000000000000000000000008152600481018b9052905173ffffffffffffffffffffffffffffffffffffffff90921691634f558e79916024808201926020929091908290030181600087803b15801561113b57600080fd5b505af115801561114f573d6000803e3d6000fd5b505050506040513d602081101561116557600080fd5b50511561117157600080fd5b600254604080517f03a53d6b000000000000000000000000000000000000000000000000000000008152600481018b9052905173ffffffffffffffffffffffffffffffffffffffff909216916303a53d6b916024808201926020929091908290030181600087803b1580156111e557600080fd5b505af11580156111f9573d6000803e3d6000fd5b505050506040513d602081101561120f57600080fd5b50511561121b57600080fd5b600254604080517fe3100d1e000000000000000000000000000000000000000000000000000000008152600481018b9052436024820152905173ffffffffffffffffffffffffffffffffffffffff9092169163e3100d1e9160448082019260009290919082900301818387803b15801561129457600080fd5b505af11580156112a8573d6000803e3d6000fd5b5050600254604080517f0b628395000000000000000000000000000000000000000000000000000000008152600481018d815273ffffffffffffffffffffffffffffffffffffffff9093169450630b62839593508c928e92909160240190839080838360005b8381101561132657818101518382015260200161130e565b5050505090500192505050600060405180830381600087803b15801561134b57600080fd5b505af115801561135f573d6000803e3d6000fd5b5050600254604080517f76e4a87f000000000000000000000000000000000000000000000000000000008152600481018d90528a15156024820152905173ffffffffffffffffffffffffffffffffffffffff90921693506376e4a87f925060448082019260009290919082900301818387803b1580156113de57600080fd5b505af11580156113f2573d6000803e3d6000fd5b50505050600087111561153057600254604080517fdc3f7758000000000000000000000000000000000000000000000000000000008152600481018b9052602481018a9052905173ffffffffffffffffffffffffffffffffffffffff9092169163dc3f77589160448082019260009290919082900301818387803b15801561147957600080fd5b505af115801561148d573d6000803e3d6000fd5b5050505061149a87612c12565b600254604080517fa47bd496000000000000000000000000000000000000000000000000000000008152600481018c905260248101849052905192945073ffffffffffffffffffffffffffffffffffffffff9091169163a47bd4969160448082019260009290919082900301818387803b15801561151757600080fd5b505af115801561152b573d6000803e3d6000fd5b505050505b600954611543908363ffffffff61328516565b90508580156115525750600081115b1561173d57600354604080517f70a082310000000000000000000000000000000000000000000000000000000081523360048201529051839273ffffffffffffffffffffffffffffffffffffffff16916370a082319160248083019260209291908290030181600087803b1580156115c957600080fd5b505af11580156115dd573d6000803e3d6000fd5b505050506040513d60208110156115f357600080fd5b505110156116ab5760045473ffffffffffffffffffffffffffffffffffffffff1663f088d547611629348663ffffffff6131df16565b604080517c010000000000000000000000000000000000000000000000000000000063ffffffff85160281523360048201529051602480830192602092919082900301818588803b15801561167d57600080fd5b505af1158015611691573d6000803e3d6000fd5b50505050506040513d60208110156116a857600080fd5b50505b600354604080517f9dc29fac00000000000000000000000000000000000000000000000000000000815233600482015260248101849052905173ffffffffffffffffffffffffffffffffffffffff90921691639dc29fac9160448082019260009290919082900301818387803b15801561172457600080fd5b505af1158015611738573d6000803e3d6000fd5b505050505b600254604080517f40c10f1900000000000000000000000000000000000000000000000000000000815273ffffffffffffffffffffffffffffffffffffffff90921660048301819052602483018b9052905190916340c10f1991604480830192600092919082900301818387803b1580156117b757600080fd5b505af11580156117cb573d6000803e3d6000fd5b505050507f1c3b3e1e72950ae52150ec48810521d17cea4b30c2a59c807d1ba2f8dff57e6589893386868c8c6040518088600260200280838360005b8381101561181f578181015183820152602001611807565b5050505091909101978852505073ffffffffffffffffffffffffffffffffffffffff90941660208601526040808601939093526060850191909152608084015290151560a0830152519081900360c0019150a150600198975050505050505050565b60005473ffffffffffffffffffffffffffffffffffffffff1633146118a557600080fd5b610b8e828261321a565b600e6020526000908152604090208054600182015460029092015460ff909116919073ffffffffffffffffffffffffffffffffffffffff1683565b60005473ffffffffffffffffffffffffffffffffffffffff16331461190e57600080fd5b600d55565b600754700100000000000000000000000000000000900467ffffffffffffffff1690565b60005474010000000000000000000000000000000000000000900460ff1681565b600c5481565b60005473ffffffffffffffffffffffffffffffffffffffff16331461198257600080fd5b6000805460405173ffffffffffffffffffffffffffffffffffffffff909116917ff8df31144d9c2f0f6b59d69b8b98abd5459d07f2742c4df920b25aae33c6482091a2600080547fffffffffffffffffffffffff0000000000000000000000000000000000000000169055565b60065473ffffffffffffffffffffffffffffffffffffffff1681565b6000600854611a28611a1b610a72565b439063ffffffff6131df16565b1115611a4a57611a43633b9aca00600a63ffffffff6131f116565b9050610a9c565b611a43611913565b6000611a5d856122c7565b1515611a6857600080fd5b60005473ffffffffffffffffffffffffffffffffffffffff16331480611aa5575060015473ffffffffffffffffffffffffffffffffffffffff1633145b15611ab557611ab5848484612082565b949350505050565b600080611ac8614686565b611ad061460a565b600254604080517f62f9acf90000000000000000000000000000000000000000000000000000000081526004810188905281516001965060009384938493849373ffffffffffffffffffffffffffffffffffffffff909316926362f9acf99260248084019391929182900301818787803b158015611b4d57600080fd5b505af1158015611b61573d6000803e3d6000fd5b505050506040513d601f19601f820116820180604052506040811015611b8657600080fd5b5060005490965073ffffffffffffffffffffffffffffffffffffffff163314801590611bca575060015473ffffffffffffffffffffffffffffffffffffffff163314155b15611d7157611bd886612faa565b945088611be9866101000151612217565b14611bf357600096505b868015611c0d5750611c0d85600001518660200151610bfd565b15611d6157600254604080517fc53b4bf9000000000000000000000000000000000000000000000000000000008152600481018c9052905173ffffffffffffffffffffffffffffffffffffffff9092169163c53b4bf9916024808201926020929091908290030181600087803b158015611c8657600080fd5b505af1158015611c9a573d6000803e3d6000fd5b505050506040513d6020811015611cb057600080fd5b5051606086015190945015156000601086046001161114611cd2576000611cd4565b865b608086015190975015156000600886046001161114611cf4576000611cf6565b865b60a086015190975015156000600486046001161114611d16576000611d18565b865b60c086015190975015156000600160028704161114611d38576000611d3a565b865b96508460e00151151560008560011611151514611d58576000611d5a565b865b9650611d66565b600096505b8615611d7157600080fd5b856040518082600260200280838360005b83811015611d9a578181015183820152602001611d82565b5050505090500191505060405180910390209250611db783612e50565b9150611dc289610d8b565b158015611dcf5750600082115b15611e6657600254604080517f1cc1472d00000000000000000000000000000000000000000000000000000000815233600482015260248101859052905173ffffffffffffffffffffffffffffffffffffffff90921691631cc1472d9160448082019260009290919082900301818387803b158015611e4d57600080fd5b505af1158015611e61573d6000803e3d6000fd5b505050505b6000838152600e602052604090205460ff1615611e8657611e8689613292565b611e8f83611fee565b90507f23e709ab80a4bee9454ba0d08c0b669d684531b4ec766524c43abd788cc3ca76868a8333866040518086600260200280838360005b83811015611edf578181015183820152602001611ec7565b5050505091909101958652505073ffffffffffffffffffffffffffffffffffffffff92831660208501529116604080840191909152606083019190915251908190036080019150a1600254604080517f0e8310d6000000000000000000000000000000000000000000000000000000008152600481018c9052905173ffffffffffffffffffffffffffffffffffffffff90921691630e8310d69160248082019260009290919082900301818387803b158015611f9a57600080fd5b505af1158015611fae573d6000803e3d6000fd5b50505050611fbb836135bc565b600197505b50505050505050919050565b60075481565b60015473ffffffffffffffffffffffffffffffffffffffff1681565b6000908152600e602052604090206002015473ffffffffffffffffffffffffffffffffffffffff1690565b60005473ffffffffffffffffffffffffffffffffffffffff16331461203d57600080fd5b600b55565b60075468010000000000000000900467ffffffffffffffff1690565b60005473ffffffffffffffffffffffffffffffffffffffff1681565b633b9aca0081565b6000805481908190819073ffffffffffffffffffffffffffffffffffffffff163314806120c6575060015473ffffffffffffffffffffffffffffffffffffffff1633145b15156120d157600080fd5b505050507001000000000000000000000000000000009092027801000000000000000000000000000000000000000000000000430217680100000000000000009091021717600755565b60005473ffffffffffffffffffffffffffffffffffffffff16331461213f57600080fd5b600480547fffffffffffffffffffffffff00000000000000000000000000000000000000001673ffffffffffffffffffffffffffffffffffffffff92909216919091179055565b60055473ffffffffffffffffffffffffffffffffffffffff1681565b60005473ffffffffffffffffffffffffffffffffffffffff1633146121c657600080fd5b6000805460405173ffffffffffffffffffffffffffffffffffffffff90911691303180156108fc02929091818181858888f1935050505015801561220e573d6000803e3d6000fd5b50565b60085481565b6000805b6010811015610d385780600101601060ff160360080260020a838260108110151561224257fe5b7f010000000000000000000000000000000000000000000000000000000000000091901a81020402919091019060010161221b565b60005473ffffffffffffffffffffffffffffffffffffffff16331461229b57600080fd5b600a55565b60045473ffffffffffffffffffffffffffffffffffffffff1681565b600080fd5b600d5481565b60006122d1614686565b600254604080517f62f9acf9000000000000000000000000000000000000000000000000000000008152600481018690528151600093849384938493849373ffffffffffffffffffffffffffffffffffffffff16926362f9acf9926024808201939182900301818787803b15801561234857600080fd5b505af115801561235c573d6000803e3d6000fd5b505050506040513d601f19601f82011682018060405250604081101561238157600080fd5b50604080519197508791908190839080838360005b838110156123ae578181015183820152602001612396565b505060408051959093018590039094206000818152600e6020529290922054919a505060ff161593506123e49250505057600080fd5b6000858152600e6020526040902080547fffffffffffffffffffffffffffffffffffffffffffffffffffffffffffffff0016600117905561242488610d8b565b80612446575060005473ffffffffffffffffffffffffffffffffffffffff1633145b80612468575060015473ffffffffffffffffffffffffffffffffffffffff1633145b151561247357600080fd5b61247c85612e50565b935061248788613623565b61249085611fee565b925073ffffffffffffffffffffffffffffffffffffffff83163314806124cd575060005473ffffffffffffffffffffffffffffffffffffffff1633145b806124ef575060015473ffffffffffffffffffffffffffffffffffffffff1633145b15156124fa57600080fd5b600254604080517f1c4b774b000000000000000000000000000000000000000000000000000000008152600481018b9052905173ffffffffffffffffffffffffffffffffffffffff90921691631c4b774b916024808201926020929091908290030181600087803b15801561256e57600080fd5b505af1158015612582573d6000803e3d6000fd5b505050506040513d602081101561259857600080fd5b5051600254604080517f04952631000000000000000000000000000000000000000000000000000000008152600481018c9052905192945073ffffffffffffffffffffffffffffffffffffffff909116916304952631916024808201926020929091908290030181600087803b15801561261157600080fd5b505af1158015612625573d6000803e3d6000fd5b505050506040513d602081101561263b57600080fd5b5051905080156126e357600254604080517f23b872dd00000000000000000000000000000000000000000000000000000000815273ffffffffffffffffffffffffffffffffffffffff928316600482018190529286166024820152604481018b905290516323b872dd9160648082019260009290919082900301818387803b1580156126c657600080fd5b505af11580156126da573d6000803e3d6000fd5b5050505061285b565b600554600a5473ffffffffffffffffffffffffffffffffffffffff9091169063d79875eb908a9061272e9061271f90879063ffffffff6131f116565b6009549063ffffffff61328516565b6040518363ffffffff167c01000000000000000000000000000000000000000000000000000000000281526004018083815260200182815260200192505050600060405180830381600087803b15801561278757600080fd5b505af115801561279b573d6000803e3d6000fd5b50505050600082111561285b57600354604080517f40c10f1900000000000000000000000000000000000000000000000000000000815273ffffffffffffffffffffffffffffffffffffffff868116600483015260248201869052915191909216916340c10f199160448083019260209291908290030181600087803b15801561282457600080fd5b505af1158015612838573d6000803e3d6000fd5b505050506040513d602081101561284e57600080fd5b5051151561285b57600080fd5b60008411156128f657600254604080517f1cc1472d00000000000000000000000000000000000000000000000000000000815233600482015260248101879052905173ffffffffffffffffffffffffffffffffffffffff90921691631cc1472d9160448082019260009290919082900301818387803b1580156128dd57600080fd5b505af11580156128f1573d6000803e3d6000fd5b505050505b6040805189815233602082015280820186905290517fa8a1a24efbea93a5c7f29342ba7652cd030828e12cc15c1416480fecee73d5899181900360600190a1506001979650505050505050565b600061294e85611abd565b151561295957600080fd5b60005473ffffffffffffffffffffffffffffffffffffffff16331480612996575060015473ffffffffffffffffffffffffffffffffffffffff1633145b156129a6576129a6848484612082565b506001949350505050565b60095481565b60005473ffffffffffffffffffffffffffffffffffffffff1633146129db57600080fd5b600c55565b60005473ffffffffffffffffffffffffffffffffffffffff16331480612a1d575060015473ffffffffffffffffffffffffffffffffffffffff1633145b1515612a2857600080fd5b600554604080517fd79875eb0000000000000000000000000000000000000000000000000000000081526004810185905260248101849052905173ffffffffffffffffffffffffffffffffffffffff9092169163d79875eb9160448082019260009290919082900301818387803b158015612aa257600080fd5b505af1158015612ab6573d6000803e3d6000fd5b505050505050565b60005473ffffffffffffffffffffffffffffffffffffffff163314612ae257600080fd5b600580547fffffffffffffffffffffffff00000000000000000000000000000000000000001673ffffffffffffffffffffffffffffffffffffffff92909216919091179055565b600254604080517f62f9acf900000000000000000000000000000000000000000000000000000000815260048101849052815160009373ffffffffffffffffffffffffffffffffffffffff16926362f9acf9926024808201939182900301818787803b158015612b9857600080fd5b505af1158015612bac573d6000803e3d6000fd5b505050506040513d601f19601f820116820180604052506040811015612bd157600080fd5b5060408051908190839080838360005b83811015612bf9578181015183820152602001612be1565b5050505090500191505060405180910390209050919050565b600080600080600080600080600260009054906101000a900473ffffffffffffffffffffffffffffffffffffffff1673ffffffffffffffffffffffffffffffffffffffff1663785d8d716040518163ffffffff167c010000000000000000000000000000000000000000000000000000000002815260040160c060405180830381600087803b158015612ca457600080fd5b505af1158015612cb8573d6000803e3d6000fd5b505050506040513d60c0811015612cce57600080fd5b508051602082015160408301516060840151608085015160a090950151939b5091995097509550909350915060009050600160108a0481161415612d4a57612d47612d3a87600101612d2e8a600101600b546131f190919063ffffffff16565b9063ffffffff61389216565b829063ffffffff61328516565b90505b600160088a0481161415612d7d57612d7a612d3a86600101612d2e8a600101600b546131f190919063ffffffff16565b90505b600160048a0481161415612db057612dad612d3a85600101612d2e8a600101600b546131f190919063ffffffff16565b90505b600160028a0481161415612de357612de0612d3a84600101612d2e8a600101600b546131f190919063ffffffff16565b90505b8860011660011415612e1457612e11612d3a83600101612d2e8a600101600b546131f190919063ffffffff16565b90505b98975050505050505050565b600a5481565b60035473ffffffffffffffffffffffffffffffffffffffff1681565b6000610c2061271f83612c12565b6000908152600e602052604090206001015490565b60075467ffffffffffffffff1690565b60005473ffffffffffffffffffffffffffffffffffffffff163314612e9957600080fd5b61220e816138a7565b60005473ffffffffffffffffffffffffffffffffffffffff163314612ec657600080fd5b600955565b8273ffffffffffffffffffffffffffffffffffffffff1663a9059cbb83836040518363ffffffff167c0100000000000000000000000000000000000000000000000000000000028152600401808373ffffffffffffffffffffffffffffffffffffffff1673ffffffffffffffffffffffffffffffffffffffff16815260200182815260200192505050602060405180830381600087803b158015612f6e57600080fd5b505af1158015612f82573d6000803e3d6000fd5b505050506040513d6020811015612f9857600080fd5b50511515612fa557600080fd5b505050565b612fb261460a565b612fba61460a565b82517fffffffffffffffffffffffffffffffffffffffffffffffffffffffff000000009081166101208301526020808501519091166101408301526000610180830181905260026101a084018190526101c084015280835290820181905260016101608301527ffffffffffffffe7ffdbfffffffffffff0000000000000000000000000000000061010083015280808080805b603c8260ff1610801561305e575085155b156131af57602087610180015160ff161061307e57866101400151613085565b8661012001515b90506130a781602089610180015160ff1681151561309f57fe5b066020613956565b94506130b2856139c5565b90945092506130c085613a00565b15955060ff82161580156130e657508360ff1660021415806130e657508260ff16600314155b156130f357600180885295505b85158015613104575060088460ff16105b8015613113575060088360ff16105b8015613123575060008460ff1610155b8015613133575060008360ff1610155b156131a457613143878585613a0d565b6101808101805160010160ff1690528051909750156131a4576000875261016087015160ff166001141561317e576002610160880152613187565b60016101608801525b613192878585613a0d565b8051909750156131a457600180885295505b60019091019061304d565b865115156131d257600087526131c487613c81565b96506131cf87613e7d565b96505b5094979650505050505050565b6000828211156131eb57fe5b50900390565b600082151561320257506000610c20565b5081810281838281151561321257fe5b0414610c2057fe5b6000918252600e602052604090912060020180547fffffffffffffffffffffffff00000000000000000000000000000000000000001673ffffffffffffffffffffffffffffffffffffffff909216919091179055565b6000918252600e602052604090912060010155565b81810182811015610c2057fe5b6000806000806000806000600260009054906101000a900473ffffffffffffffffffffffffffffffffffffffff1673ffffffffffffffffffffffffffffffffffffffff1663785d8d716040518163ffffffff167c010000000000000000000000000000000000000000000000000000000002815260040160c060405180830381600087803b15801561332357600080fd5b505af1158015613337573d6000803e3d6000fd5b505050506040513d60c081101561334d57600080fd5b81019080805190602001909291908051906020019092919080519060200190929190805190602001909291908051906020019092919080519060200190929190505050809750819850829950839a50849b50859c50505050505050600260009054906101000a900473ffffffffffffffffffffffffffffffffffffffff1673ffffffffffffffffffffffffffffffffffffffff1663c53b4bf9896040518263ffffffff167c010000000000000000000000000000000000000000000000000000000002815260040180828152602001915050602060405180830381600087803b15801561343957600080fd5b505af115801561344d573d6000803e3d6000fd5b505050506040513d602081101561346357600080fd5b5051905061348c6000821161347957600061347c565b60015b889060ff1663ffffffff6131df16565b96506134a4866001601084041663ffffffff6131df16565b95506134bc856001600884041663ffffffff6131df16565b94506134d4846001600484041663ffffffff6131df16565b93506134ec836002830460011663ffffffff6131df16565b9250613501826001831663ffffffff6131df16565b600254604080517f8b1b2ba8000000000000000000000000000000000000000000000000000000008152600481018b9052602481018a905260448101899052606481018890526084810187905260a48101849052905192945073ffffffffffffffffffffffffffffffffffffffff90911691638b1b2ba89160c48082019260009290919082900301818387803b15801561359a57600080fd5b505af11580156135ae573d6000803e3d6000fd5b505050505050505050505050565b6000908152600e6020526040812080547fffffffffffffffffffffffffffffffffffffffffffffffffffffffffffffff00168155600181019190915560020180547fffffffffffffffffffffffff0000000000000000000000000000000000000000169055565b6000806000806000806000600260009054906101000a900473ffffffffffffffffffffffffffffffffffffffff1673ffffffffffffffffffffffffffffffffffffffff1663785d8d716040518163ffffffff167c010000000000000000000000000000000000000000000000000000000002815260040160c060405180830381600087803b1580156136b457600080fd5b505af11580156136c8573d6000803e3d6000fd5b505050506040513d60c08110156136de57600080fd5b81019080805190602001909291908051906020019092919080519060200190929190805190602001909291908051906020019092919080519060200190929190505050809750819850829950839a50849b50859c50505050505050600260009054906101000a900473ffffffffffffffffffffffffffffffffffffffff1673ffffffffffffffffffffffffffffffffffffffff1663c53b4bf9896040518263ffffffff167c010000000000000000000000000000000000000000000000000000000002815260040180828152602001915050602060405180830381600087803b1580156137ca57600080fd5b505af11580156137de573d6000803e3d6000fd5b505050506040513d60208110156137f457600080fd5b5051905061381d6000821161380a57600061380d565b60015b889060ff1663ffffffff61328516565b9650613835866001601084041663ffffffff61328516565b955061384d856001600884041663ffffffff61328516565b9450613865846001600484041663ffffffff61328516565b935061387d836002830460011663ffffffff61328516565b9250613501826001831663ffffffff61328516565b6000818381151561389f57fe5b049392505050565b73ffffffffffffffffffffffffffffffffffffffff811615156138c957600080fd5b6000805460405173ffffffffffffffffffffffffffffffffffffffff808516939216917f8be0079c531659141344cd1fd0a4f28419497f9722a3daafe3b4186f6b6457e091a3600080547fffffffffffffffffffffffff00000000000000000000000000000000000000001673ffffffffffffffffffffffffffffffffffffffff92909216919091179055565b640100000000647f00000000600793840292909302919091037ffffffffffffffffffffffffffffffffffffffffffffffffffffffffffffffff90160ff1660020a7fffffffffffffffffffffffffffffffffffffffffffffffffffffffff000000009390931692909204160490565b7fffffffffffffffffffffffffffffffffffffffffffffffffffffffffffffffc081810160071692600860ff93859003909201929092160490565b604060ff82161015919050565b613a1561460a565b613a1d6146a1565b600080600080600080600080600360ff16613a3e8e61010001518e8e614108565b60ff1614613a525760018d528c9950613c71565b613a5d8d8d8d61417a565b909950975060ff88161515613a785760018d528c9950613c71565b5060009050805b8760ff168160ff161015613bcb5760009650869550613ab38d8a60ff841660088110613aa757fe5b60200201518e8e61435f565b9097509550600092505b8560ff168360ff161015613bc357811515613ad757600191505b613aea613ae5888589613956565b6139c5565b8095508196505050613b088d61010001518e61016001518787614495565b6fffffffffffffffffffffffffffffffff19166101008e01526101608d015160ff1660021415613b77576101c08d01805160010160ff9081169091526101a08e0180517fffffffffffffffffffffffffffffffffffffffffffffffffffffffffffffffff019091169052613bb8565b6101c08d0180517fffffffffffffffffffffffffffffffffffffffffffffffffffffffffffffffff0160ff9081169091526101a08e01805160010190911690525b600190920191613abd565b600101613a7f565b8115613c3a57613be78d61010001518e61016001518e8e614495565b6fffffffffffffffffffffffffffffffff19166101008e01526101608d015160ff1660021415613c25576101c08d01805160010160ff169052613c35565b6101a08d01805160010160ff1690525b613c46565b60018d528c9950613c71565b6101608d015160ff1660011415613c645760026101608e0152613c6d565b60016101608e01525b8c99505b5050505050505050509392505050565b613c8961460a565b613c916146d0565b6000806000806000613ca1614686565b88610180015160ff16603c1415613cc157600160208a0152889750611fc0565b60009550600094505b60408560ff161015613d4d57610100890151613cf590600860078816880360ff160460078816614108565b935060ff841660031415613d42576040805180820190915260086007871680880360ff9081169290920482168352602083015288908816603c8110613d3657fe5b60200201526001909501945b600190940193613cca565b6000925060008660ff161115613e55578861010001519150600094505b8560ff168560ff16108015613d7d575082155b15613e3a578660ff8616603c8110613d9157fe5b602002015160016101608b01526000808b526fffffffffffffffffffffffffffffffff1984166101008c0152909150613ddb908a9083905b60200201518360016020020151613a0d565b80519099501515613deb57600192505b60026101608a01526000808a526fffffffffffffffffffffffffffffffff1983166101008b0152613e1f908a908390613dc9565b80519099501515613e2f57600192505b600190940193613d6a565b6fffffffffffffffffffffffffffffffff1982166101008a01525b8215613e645760018952613e70565b600160208a0152600089525b5096979650505050505050565b613e8561460a565b6001808080806000805b60088260ff16108015613ebe57508680613ea65750855b80613eae5750845b80613eb65750835b80613ebe5750825b156140b0575060005b60088160ff16108015613ef657508680613ede5750855b80613ee65750845b80613eee5750835b80613ef65750825b156140a557613f118961010001518360070383600703614537565b6fffffffffffffffffffffffffffffffff1916613f348a61010001518484614537565b6fffffffffffffffffffffffffffffffff191614613f5157600096505b613f648961010001518383600703614537565b6fffffffffffffffffffffffffffffffff1916613f878a61010001518484614537565b6fffffffffffffffffffffffffffffffff191614613fa457600095505b613fb78961010001518360070383614537565b6fffffffffffffffffffffffffffffffff1916613fda8a61010001518484614537565b6fffffffffffffffffffffffffffffffff191614613ff757600094505b61400d8961010001518260070384600703614537565b6fffffffffffffffffffffffffffffffff19166140308a61010001518484614537565b6fffffffffffffffffffffffffffffffff19161461404d57600093505b61405d8961010001518284614537565b6fffffffffffffffffffffffffffffffff19166140808a61010001518484614537565b6fffffffffffffffffffffffffffffffff19161461409d57600092505b600101613ec7565b600190910190613e8f565b86806140b95750855b806140c15750845b806140c95750835b806140d15750825b15613e705750506001604088015293151560608701529115156080860152151560a0850152151560c0840152151560e08301525090565b6000806000614117858561458e565b7001000000000000000000000000000000006fffffffffffffffffffffffffffffffff821660020a6fffffffffffffffffffffffffffffffff19891604700300000000000000000000000000000000169081049450909250905050509392505050565b6141826146a1565b600061418c6146a1565b60006141966146a1565b6000806141a1614686565b60408051610140810182527fffffffffffffffffffffffffffffffffffffffffffffffffffffffffffffffff61010082018181526000610120840181905290835283518085018552828152600160208281018290528086019290925285518087018752838152808301829052858701528551808701875281815280830182905260608601528551808701875281815280830184905260808601528551808701875290815280820184905260a08501528451808601865282815280820184905260c0850152845180860190955282855284019190915260e0820192909252909550935084805b60088160ff16101561434c578560ff8216600881106142a157fe5b6020020151925082600060200201518c01935082600160200201518b01945060078560000b13806142d5575060008560000b125b806142e3575060078460000b135b806142f1575060008460000b125b1515614344576143078d61010001518587614108565b91508c610160015160ff168260ff161415156143445760ff821660031461434457828860ff89166008811061433857fe5b60200201526001909601955b600101614286565b50959b949a509398505050505050505050565b60008060008060008060008060008060009650600160ff168e610160015160ff16141561438f5760029550614394565b600195505b506000935060015b60098160ff16101561448157841515614479578c5160208e01519082028d01945081028b0192506007600085900b13806143d9575060008460000b125b806143e7575060078360000b135b806143f5575060008360000b125b1561440b57600097506000965060019450614479565b61441b8e61010001518585614108565b91508560ff168260ff16141561444157614437888886866145c3565b9098509650614479565b8d610160015160ff168260ff1614801561445e575060018160ff16115b1561446c5760019450614479565b6000975060009650600194505b60010161439c565b50959c949b50939950505050505050505050565b600080600060078560ff1611156144ab57600080fd5b60078460ff1611156144bc57600080fd5b6144c6858561458e565b6fffffffffffffffffffffffffffffffff811660020a70030000000000000000000000000000000081028981189099169860ff8916700100000000000000000000000000000000026fffffffffffffffffffffffffffffffff19169091028917945090925090505050949350505050565b600080614544848461458e565b6fffffffffffffffffffffffffffffffff811660020a6fffffffffffffffffffffffffffffffff198716047003000000000000000000000000000000001692509050509392505050565b600891909102016040037fffffffffffffffffffffffffffffffffffffffffffffffffffffffffffffffff0160020260ff1690565b6008020160400160ff16640100000000027fffffffffffffffffffffffffffffffffffffffffffffffffffffffff0000000092909216608002919091179160019190910190565b604080516101e081018252600080825260208201819052918101829052606081018290526080810182905260a0810182905260c0810182905260e08101829052610100810182905261012081018290526101408101829052610160810182905261018081018290526101a081018290526101c081019190915290565b60408051808201825290600290829080388339509192915050565b610200604051908101604052806008905b6146ba614686565b8152602001906001900390816146b25790505090565b610f0060405190810160405280603c905b6146e9614686565b8152602001906001900390816146e157905050905600a165627a7a72305820dc8418d0a7b9e55a6ccb953ad8663932eabbc4ba0a0aeb6f26290d7b4cff662c0029",
  "source": "pragma solidity ^0.4.18;\n\n/**\n * The CloversController is a replaceable endpoint for minting and unminting Clovers.sol and ClubToken.sol\n */\n\nimport \"./Reversi.sol\";\nimport \"./Clovers.sol\";\nimport \"./ClubToken.sol\";\nimport \"./ClubTokenController.sol\";\nimport \"zeppelin-solidity/contracts/ownership/HasNoTokens.sol\";\nimport \"zeppelin-solidity/contracts/ownership/HasNoEther.sol\";\nimport \"zeppelin-solidity/contracts/math/SafeMath.sol\";\n\n\ncontract ISimpleCloversMarket {\n    function sell(uint256 _tokenId, uint256 price) public;\n} \n\ncontract CloversController is HasNoEther, HasNoTokens {\n    event cloverCommitted(bytes32 movesHash, address owner);\n    event cloverClaimed(bytes28[2] moves, uint256 tokenId, address owner, uint stake, uint reward, uint256 symmetries, bool keep);\n    event stakeRetrieved(uint256 tokenId, address owner, uint stake);\n    event cloverChallenged(bytes28[2] moves, uint256 tokenId, address owner, address challenger, uint stake);\n\n    using SafeMath for uint256;\n    bool public paused;\n    address public oracle;\n    address public clovers;\n    address public clubToken;\n    address public clubTokenController;\n    address public simpleCloversMarket;\n    address public curationMarket;\n\n    uint256 public gasLastUpdated_fastGasPrice_averageGasPrice_safeLowGasPrice;\n    uint256 public gasBlockMargin = 240; // ~1 hour at 15 second blocks\n\n    uint256 public basePrice;\n    uint256 public priceMultiplier;\n    uint256 public payMultiplier;\n    uint256 public stakeAmount;\n    uint256 public stakePeriod;\n    uint256 public constant oneGwei = 1000000000;\n\n    struct Commit {\n        bool collected;\n        uint256 stake;\n        address committer;\n    }\n\n    mapping (bytes32 => Commit) public commits;\n\n    modifier notPaused() {\n        require(!paused, \"Must not be paused\");\n        _;\n    }\n\n    modifier onlyOwnerOrOracle () {\n        require(msg.sender == owner || msg.sender == oracle);\n        _;\n    }\n\n    constructor(address _clovers, address _clubToken, address _clubTokenController) public {\n        clovers = _clovers;\n        clubToken = _clubToken;\n        clubTokenController = _clubTokenController;\n        paused = true;\n    }\n    /**\n    * @dev Gets the current stake of a Clover based on the hash of the moves.\n    * @param movesHash The hash of the moves that make up the clover.\n    * @return A uint256 value of stake.\n    */\n    function getStake(bytes32 movesHash) public view returns (uint256) {\n        return commits[movesHash].stake;\n    }\n    /**\n    * @dev Gets the address of the committer of a Clover based on the hash of the moves.\n    * @param movesHash The hash of the moves that make up the clover.\n    * @return The address of the committer.\n    */\n    function getCommit(bytes32 movesHash) public view returns (address) {\n        return commits[movesHash].committer;\n    }\n    /**\n    * @dev Gets the current staking period needed to verify a Clover.\n    * @param _tokenId The token Id of the clover.\n    * @return A uint256 value of stake period in seconds.\n    */\n    function getMovesHash(uint _tokenId) public constant returns (bytes32) {\n        return keccak256(Clovers(clovers).getCloverMoves(_tokenId));\n    }\n    /**\n    * @dev Checks whether the game is valid.\n    * @param moves The moves needed to play validate the game.\n    * @return A boolean representing whether or not the game is valid.\n    */\n    function isValid(bytes28[2] moves) public constant returns (bool) {\n        Reversi.Game memory game = Reversi.playGame(moves);\n        return isValidGame(game.error, game.complete);\n    }\n\n    /**\n    * @dev Checks whether the game is valid.\n    * @param error The pre-played game error\n    * @param complete The pre-played game complete boolean\n    * @return A boolean representing whether or not the game is valid.\n    */\n    function isValidGame(bool error, bool complete) public pure returns (bool) {\n        if (error) return false;\n        if (!complete) return false;\n        return true;\n    }\n    /**\n    * @dev Checks whether the game has passed the verification period.\n    * @param _tokenId The board being checked.\n    * @return A boolean representing whether or not the game has been verified.\n    */\n    function isVerified(uint256 _tokenId) public constant returns (bool) {\n        uint256 _blockMinted = Clovers(clovers).getBlockMinted(_tokenId);\n        if(_blockMinted == 0) return false;\n        return block.number.sub(_blockMinted) > stakePeriod;\n    }\n    /**\n    * @dev Calculates the reward of the board.\n    * @param _symmetries symmetries saved as a uint256 value like 00010101 where bits represent symmetry types.\n    * @return A uint256 representing the reward that would be returned for claiming the board.\n    */\n    function calculateReward(uint256 _symmetries) public constant returns (uint256) {\n        uint256 Symmetricals;\n        uint256 RotSym;\n        uint256 Y0Sym;\n        uint256 X0Sym;\n        uint256 XYSym;\n        uint256 XnYSym;\n        (Symmetricals,\n        RotSym,\n        Y0Sym,\n        X0Sym,\n        XYSym,\n        XnYSym) = Clovers(clovers).getAllSymmetries();\n        uint256 base = 0;\n        if (_symmetries >> 4 & 1 == 1) base = base.add(payMultiplier.mul(Symmetricals + 1).div(RotSym + 1));\n        if (_symmetries >> 3 & 1 == 1) base = base.add(payMultiplier.mul(Symmetricals + 1).div(Y0Sym + 1));\n        if (_symmetries >> 2 & 1 == 1) base = base.add(payMultiplier.mul(Symmetricals + 1).div(X0Sym + 1));\n        if (_symmetries >> 1 & 1 == 1) base = base.add(payMultiplier.mul(Symmetricals + 1).div(XYSym + 1));\n        if (_symmetries & 1 == 1) base = base.add(payMultiplier.mul(Symmetricals + 1).div(XnYSym + 1));\n        return base;\n    }\n\n/*\n    // NOTE: Disabled to reduce contract size\n    function instantClaimClover(bytes28[2] moves, bool _keep) public payable returns (bool) {\n        Reversi.Game memory game = Reversi.playGame(moves);\n        require(isValidGame(game.error, game.complete));\n        uint256 tokenId = uint256(game.board);\n        require(Clovers(clovers).getBlockMinted(tokenId) == 0);\n        require(!Clovers(clovers).exists(tokenId));\n        Clovers(clovers).setBlockMinted(tokenId, block.number);\n        Clovers(clovers).setCloverMoves(tokenId, moves);\n\n        uint256 symmetries = Reversi.returnSymmetricals(game.RotSym, game.Y0Sym, game.X0Sym, game.XYSym, game.XnYSym);\n        uint256 reward;\n\n        if (uint256(symmetries) > 0) {\n            Clovers(clovers).setSymmetries(tokenId, uint256(symmetries));\n            reward = calculateReward(uint256(symmetries));\n            Clovers(clovers).setReward(tokenId, reward);\n        }\n        if (_keep) {\n            // If the user decides to keep the Clover, they must\n            // pay for it in club tokens according to the reward price.\n            if (ClubToken(clubToken).balanceOf(msg.sender) < reward) {\n                ClubTokenController(clubTokenController).buy.value(msg.value)(msg.sender); // msg.value needs to be enough to buy \"reward\" amount of Club Token\n            }\n            if (reward > 0) {\n                // ClubToken(clubToken).transferFrom(msg.sender, clubToken, reward); // if we'd rather keep the money\n                ClubToken(clubToken).burn(msg.sender, reward);\n            }\n            Clovers(clovers).mint(msg.sender, tokenId);\n        } else {\n            // If the user decides not to keep the Clover, they will\n            // receive the reward price in club tokens, and the clover will\n            // go for sale at 10x the reward price.\n            if (reward > 0) {\n                require(ClubToken(clubToken).mint(msg.sender, reward));\n            }\n            Clovers(clovers).mint(clovers, tokenId);\n        }\n\n    } */\n\n    function getPrice(uint256 _symmetries) public constant returns(uint256) {\n        return basePrice.add(calculateReward(_symmetries));\n    }\n\n    function updateGasBlockMargin(uint256 _gasBlockMargin) public onlyOwnerOrOracle {\n        gasBlockMargin = _gasBlockMargin;\n    }\n\n    function updateGasPrices(uint256 _fastGasPrice, uint256 _averageGasPrice, uint256 _safeLowGasPrice) public onlyOwnerOrOracle {\n        uint256 gasLastUpdated = block.number << 192;\n        uint256 fastGasPrice = _fastGasPrice << 128;\n        uint256 averageGasPrice = _averageGasPrice << 64;\n        uint256 safeLowGasPrice = _safeLowGasPrice;\n        gasLastUpdated_fastGasPrice_averageGasPrice_safeLowGasPrice = gasLastUpdated | fastGasPrice | averageGasPrice | safeLowGasPrice;\n    }\n\n    function gasLastUpdated() public view returns(uint256) {\n        return uint256(uint64(gasLastUpdated_fastGasPrice_averageGasPrice_safeLowGasPrice >> 192));\n    }\n    function fastGasPrice() public view returns(uint256) {\n        return uint256(uint64(gasLastUpdated_fastGasPrice_averageGasPrice_safeLowGasPrice >> 128));\n    }\n    function averageGasPrice() public view returns(uint256) {\n        return uint256(uint64(gasLastUpdated_fastGasPrice_averageGasPrice_safeLowGasPrice >> 64));\n    }\n    function safeLowGasPrice() public view returns(uint256) {\n        return uint256(uint64(gasLastUpdated_fastGasPrice_averageGasPrice_safeLowGasPrice));\n    }\n    function getGasPriceForApp() public view returns(uint256) {\n        if (block.number.sub(gasLastUpdated()) > gasBlockMargin) {\n            return oneGwei.mul(10);\n        } else {\n            return fastGasPrice();\n        }\n    }\n\n    /**\n    * @dev Claim the Clover without a commit or reveal. Payable so you can attach enough for the stake,\n    * as well as enough to buy tokens if needed to keep the Clover.\n    * @param moves The moves that make up the Clover reversi game.\n    * @param _tokenId The board that results from the moves.\n    * @param _symmetries symmetries saved as a uint256 value like 00010101 where bits represent symmetry\n    * @param _keep symmetries saved as a uint256 value like 00010101 where bits represent symmetry\n    * types.\n    * @return A boolean representing whether or not the claim was successful.\n    */\n    function claimClover(bytes28[2] moves, uint256 _tokenId, uint256 _symmetries, bool _keep) public payable notPaused returns (bool) {\n        emit cloverClaimed(moves, _tokenId, msg.sender, _tokenId, _tokenId, _symmetries, _keep);\n\n        bytes32 movesHash = keccak256(moves);\n\n        uint256 stakeWithGas = stakeAmount.mul(getGasPriceForApp());\n        require(msg.value >= stakeWithGas);\n        require(getCommit(movesHash) == 0);\n\n        setCommit(movesHash, msg.sender);\n        if (stakeWithGas > 0) {\n            setStake(movesHash, stakeWithGas);\n            clovers.transfer(stakeWithGas);\n        }\n\n        emit cloverCommitted(movesHash, msg.sender);\n\n        require(!Clovers(clovers).exists(_tokenId));\n        require(Clovers(clovers).getBlockMinted(_tokenId) == 0);\n\n        Clovers(clovers).setBlockMinted(_tokenId, block.number);\n        Clovers(clovers).setCloverMoves(_tokenId, moves);\n        Clovers(clovers).setKeep(_tokenId, _keep);\n\n        uint256 reward;\n        if (_symmetries > 0) {\n            Clovers(clovers).setSymmetries(_tokenId, _symmetries);\n            reward = calculateReward(_symmetries);\n            Clovers(clovers).setReward(_tokenId, reward);\n        }\n        uint256 price = basePrice.add(reward);\n        if (_keep && price > 0) {\n            // If the user decides to keep the Clover, they must\n            // pay for it in club tokens according to the reward price.\n            if (ClubToken(clubToken).balanceOf(msg.sender) < price) {\n                ClubTokenController(clubTokenController).buy.value(msg.value.sub(stakeWithGas))(msg.sender);\n            }\n            // require(ClubToken(clubToken).transferFrom(msg.sender, clovers, price));\n            ClubToken(clubToken).burn(msg.sender, price);\n        }\n        Clovers(clovers).mint(clovers, _tokenId);\n        emit cloverClaimed(moves, _tokenId, msg.sender, stakeWithGas, reward, _symmetries, _keep);\n        return true;\n    }\n\n\n    // This is better than current commit hash because the commiter's address is part of the move sequence\n    // otherwise griefing could still take place....\n    // function generateCommit(bytes28[2] moves) public view returns(bytes32 commitHash) {\n    //     return sha256(moves, msg.sender);\n    // }\n\n    /**\n    * @dev Commit the hash of the moves needed to claim the Clover. A stake should be\n    * made for counterfactual verification.\n    * @param movesHash The hash of the moves that makes up the Clover reversi\n    * game.\n    * @return A boolean representing whether or not the commit was successful.\n    NOTE: Disabled for contract size, if front running becomes a problem it can be\n    implemented with an upgrade\n    */\n    /* function claimCloverCommit(bytes32 movesHash) public payable returns (bool) {\n        require(msg.value >= stakeAmount);\n        require(getCommit(movesHash) == 0);\n\n        setCommit(movesHash, msg.sender);\n        setStake(movesHash, stakeAmount);\n\n        clovers.transfer(stakeAmount);\n\n        emit cloverCommitted(movesHash, msg.sender);\n        return true;\n    }\n    /**\n    * @dev Reveal the solution to the previous commit to claim the Clover.\n    * @param moves The moves that make up the Clover reversi game.\n    * @param _tokenId The board that results from the moves.\n    * @param _symmetries symmetries saved as a uint256 value like 00010101 where bits represent symmetry types.\n    * @return A boolean representing whether or not the reveal and claim was successful.\n    NOTE: Disabled for contract size, if front running becomes a problem it can be implemented with an upgrade\n    */\n    /* function claimCloverReveal(bytes28[2] moves, uint256 _tokenId, uint256 _symmetries, bool _keep) public returns (bool) {\n        bytes32 movesHash = keccak256(moves);\n        address committer = getCommit(movesHash);\n\n        require(Clovers(clovers).getBlockMinted(_tokenId) == 0);\n\n        Clovers(clovers).setBlockMinted(_tokenId, block.number);\n        Clovers(clovers).setCloverMoves(_tokenId, moves);\n        Clovers(clovers).setKeep(_tokenId, _keep);\n        uint256 reward;\n        if (_symmetries > 0) {\n            Clovers(clovers).setSymmetries(_tokenId, _symmetries);\n            reward = calculateReward(_symmetries);\n            Clovers(clovers).setReward(_tokenId, reward);\n        }\n        if (_keep) {\n            ClubToken(clubToken).increaseApproval(address(this), basePrice.add(reward));\n        }\n        uint256 stake = getStake(movesHash);\n        emit cloverClaimed(moves, _tokenId, committer, stake, reward, _symmetries, _keep);\n        return true;\n    } */\n\n\n    /**\n    * @dev Retrieve the stake from a Clover claim after the stake period has ended, or with the authority of the oracle.\n    * @param _tokenId The board which holds the stake.\n    * @param _fastGasPrice The current fast gas price.\n    * @param _averageGasPrice The current average gas price.\n    * @param _safeLowGasPrice The current slow safe gas price\n    * @return A boolean representing whether or not the retrieval was successful.\n    */\n    function retrieveStakeWithGas(uint256 _tokenId, uint256 _fastGasPrice, uint256 _averageGasPrice, uint256 _safeLowGasPrice) public payable returns (bool) {\n        require(retrieveStake(_tokenId));\n        if (msg.sender == owner || msg.sender == oracle) {\n            updateGasPrices(_fastGasPrice, _averageGasPrice, _safeLowGasPrice);\n        }\n    }\n\n    /**\n    * @dev Retrieve the stake from a Clover claim after the stake period has ended, or with the authority of the oracle.\n    * @param _tokenId The board which holds the stake.\n    * @return A boolean representing whether or not the retrieval was successful.\n    */\n    function retrieveStake(uint256 _tokenId) public payable returns (bool) {\n        bytes28[2] memory moves = Clovers(clovers).getCloverMoves(_tokenId);\n        bytes32 movesHash = keccak256(moves);\n\n\n        require(!commits[movesHash].collected);\n        commits[movesHash].collected = true;\n\n        require(isVerified(_tokenId) || msg.sender == owner || msg.sender == oracle);\n\n        uint256 stake = getStake(movesHash);\n        addSymmetries(_tokenId);\n        address committer = getCommit(movesHash);\n        require(committer == msg.sender || msg.sender == owner || msg.sender == oracle);\n        uint256 reward = Clovers(clovers).getReward(_tokenId);\n        bool _keep = Clovers(clovers).getKeep(_tokenId);\n\n        if (_keep) {\n            // If the user decided to keep the Clover, they will\n            // receive the clover now that it has been verified\n            Clovers(clovers).transferFrom(clovers, committer, _tokenId);\n        } else {\n            // If the user decided not to keep the Clover, they will\n            // receive the reward price in club tokens, and the clover will\n            // go for sale by the contract.\n            ISimpleCloversMarket(simpleCloversMarket).sell(_tokenId, basePrice.add(reward.mul(priceMultiplier)));\n            if (reward > 0) {\n                require(ClubToken(clubToken).mint(committer, reward));\n            }\n        }\n        if (stake > 0) {\n            Clovers(clovers).moveEth(msg.sender, stake);\n        }\n        emit stakeRetrieved(_tokenId, msg.sender, stake);\n\n        return true;\n    }\n\n\n    /**\n    * @dev Convert a bytes16 board into a uint256.\n    * @param _board The board being converted.\n    * @return number the uint256 being converted.\n    */\n    function convertBytes16ToUint(bytes16 _board) public view returns(uint256 number) {\n        for(uint i=0;i<_board.length;i++){\n            number = number + uint(_board[i])*(2**(8*(_board.length-(i+1))));\n        }\n    }\n\n\n    /**\n    * @dev Challenge a staked Clover for being invalid.\n    * @param _tokenId The board being challenged.\n    * @param _fastGasPrice The current fast gas price.\n    * @param _averageGasPrice The current average gas price.\n    * @param _safeLowGasPrice The current slow safe gas price\n    * @return A boolean representing whether or not the challenge was successful.\n    */\n    function challengeCloverWithGas(uint256 _tokenId, uint256 _fastGasPrice, uint256 _averageGasPrice, uint256 _safeLowGasPrice) public returns (bool) {\n        require(challengeClover(_tokenId));\n        if (msg.sender == owner || msg.sender == oracle) {\n            updateGasPrices(_fastGasPrice, _averageGasPrice, _safeLowGasPrice);\n        }\n        return true;\n    }\n    /**\n    * @dev Challenge a staked Clover for being invalid.\n    * @param _tokenId The board being challenged.\n    * @return A boolean representing whether or not the challenge was successful.\n    */\n    function challengeClover(uint256 _tokenId) public returns (bool) {\n        bool valid = true;\n        bytes28[2] memory moves = Clovers(clovers).getCloverMoves(_tokenId);\n\n        if (msg.sender != owner && msg.sender != oracle) {\n            Reversi.Game memory game = Reversi.playGame(moves);\n            if(convertBytes16ToUint(game.board) != _tokenId) {\n                valid = false;\n            }\n            if(valid && isValidGame(game.error, game.complete)) {\n                uint256 _symmetries = Clovers(clovers).getSymmetries(_tokenId);\n                valid = (_symmetries >> 4 & 1) > 0 == game.RotSym ? valid : false;\n                valid = (_symmetries >> 3 & 1) > 0 == game.Y0Sym ? valid : false;\n                valid = (_symmetries >> 2 & 1) > 0 == game.X0Sym ? valid : false;\n                valid = (_symmetries >> 1 & 1) > 0 == game.XYSym ? valid : false;\n                valid = (_symmetries & 1) > 0 == game.XnYSym ? valid : false;\n            } else {\n                valid = false;\n            }\n            require(!valid);\n        }\n        bytes32 movesHash = keccak256(moves);\n        uint256 stake = getStake(movesHash);\n        if (!isVerified(_tokenId) && stake > 0) {\n            Clovers(clovers).moveEth(msg.sender, stake);\n        }\n        if (commits[movesHash].collected) {\n            removeSymmetries(_tokenId);\n        }\n\n        address committer = getCommit(movesHash);\n        emit cloverChallenged(moves, _tokenId, committer, msg.sender, stake);\n\n        Clovers(clovers).deleteClover(_tokenId);\n        deleteCommit(movesHash);\n        return true;\n    }\n\n    function fixSalePrice(uint256 _tokenId, uint256 _price) public onlyOwnerOrOracle {\n        ISimpleCloversMarket(simpleCloversMarket).sell(_tokenId, _price);\n    }\n\n    /**\n    * @dev Moves clovers without explicit allow permission for use by simpleCloversMarket\n    * in order to avoid double transaction (allow, transferFrom)\n    * @param _from The current owner of the Clover\n    * @param _to The future owner of the Clover\n    * @param _tokenId The Clover\n    */\n    function transferFrom(address _from, address _to, uint256 _tokenId) public {\n        require(msg.sender == simpleCloversMarket || msg.sender == curationMarket);\n        Clovers(clovers).transferFrom(_from, _to, _tokenId);\n    }\n\n    /**\n    * @dev Updates pause boolean.\n    * @param _paused The new puased boolean.\n    */\n    function updatePaused(bool _paused) public onlyOwner {\n        paused = _paused;\n    }\n\n    /**\n    * @dev Updates curationMarket Address.\n    * @param _curationMarket The new curationMarket Address.\n    */\n    function updateCurationMarket(address _curationMarket) public onlyOwner {\n        curationMarket = _curationMarket;\n    }\n    /**\n    * @dev Updates oracle Address.\n    * @param _oracle The new oracle Address.\n    */\n    function updateOracle(address _oracle) public onlyOwner {\n        oracle = _oracle;\n    }\n\n    /**\n    * @dev Updates simpleCloversMarket Address.\n    * @param _simpleCloversMarket The new simpleCloversMarket address.\n    */\n    function updateSimpleCloversMarket(address _simpleCloversMarket) public onlyOwner {\n        simpleCloversMarket = _simpleCloversMarket;\n    }\n\n    /**\n    * @dev Updates clubTokenController Address.\n    * @param _clubTokenController The new clubTokenController address.\n    */\n    function updateClubTokenController(address _clubTokenController) public onlyOwner {\n        clubTokenController = _clubTokenController;\n    }\n    /**\n    * @dev Updates the stake amount.\n    * @param _stakeAmount The new amount needed to stake.\n    */\n    function updateStakeAmount(uint256 _stakeAmount) public onlyOwner {\n        stakeAmount = _stakeAmount;\n    }\n    /**\n    * @dev Updates the stake period.\n    * @param _stakePeriod The uint256 value of time needed to stake before being verified.\n    */\n    function updateStakePeriod(uint256 _stakePeriod) public onlyOwner {\n        stakePeriod = _stakePeriod;\n    }\n    /**\n    * @dev Updates the pay multiplier, used to calculate token reward.\n    * @param _payMultiplier The uint256 value of pay multiplier.\n    */\n    function updatePayMultipier(uint256 _payMultiplier) public onlyOwner {\n        payMultiplier = _payMultiplier;\n    }\n    /**\n    * @dev Updates the price multiplier, used to calculate the clover price (multiplied by the original reward).\n    * @param _priceMultiplier The uint256 value of the price multiplier.\n    */\n    function updatePriceMultipier(uint256 _priceMultiplier) public onlyOwner {\n        priceMultiplier = _priceMultiplier;\n    }\n    /**\n    * @dev Updates the base price, used to calculate the clover cost.\n    * @param _basePrice The uint256 value of the base price.\n    */\n    function updateBasePrice(uint256 _basePrice) public onlyOwner {\n        basePrice = _basePrice;\n    }\n\n    /**\n    * @dev Sets the stake of a Clover based on the hash of the moves.\n    * @param movesHash The hash of the moves that make up the clover.\n    * @param stake A uint256 value of stake.\n    */\n    function setStake(bytes32 movesHash, uint256 stake) private {\n        commits[movesHash].stake = stake;\n    }\n\n    /**\n    * @dev Sets the address of the committer of a Clover based on the hash of the moves.\n    * @param movesHash The hash of the moves that make up the clover.\n    * @param committer The address of the committer.\n    */\n    function setCommit(bytes32 movesHash, address committer) private {\n        commits[movesHash].committer = committer;\n    }\n\n    function _setCommit(bytes32 movesHash, address committer) public onlyOwner {\n        setCommit(movesHash, committer);\n    }\n    function deleteCommit(bytes32 movesHash) private {\n        delete(commits[movesHash]);\n    }\n\n    /**\n    * @dev Adds new tallys of the totals numbers of clover symmetries.\n    * @param _tokenId The token which needs to be examined.\n    */\n    function addSymmetries(uint256 _tokenId) private {\n        uint256 Symmetricals;\n        uint256 RotSym;\n        uint256 Y0Sym;\n        uint256 X0Sym;\n        uint256 XYSym;\n        uint256 XnYSym;\n        (Symmetricals,\n        RotSym,\n        Y0Sym,\n        X0Sym,\n        XYSym,\n        XnYSym) = Clovers(clovers).getAllSymmetries();\n        uint256 _symmetries = Clovers(clovers).getSymmetries(_tokenId);\n        Symmetricals = Symmetricals.add(_symmetries > 0 ? 1 : 0);\n        RotSym = RotSym.add(uint256(_symmetries >> 4 & 1));\n        Y0Sym = Y0Sym.add(uint256(_symmetries >> 3 & 1));\n        X0Sym = X0Sym.add(uint256(_symmetries >> 2 & 1));\n        XYSym = XYSym.add(uint256(_symmetries >> 1 & 1));\n        XnYSym = XnYSym.add(uint256(_symmetries & 1));\n        Clovers(clovers).setAllSymmetries(Symmetricals, RotSym, Y0Sym, X0Sym, XYSym, XnYSym);\n    }\n    /**\n    * @dev Remove false tallys of the totals numbers of clover symmetries.\n    * @param _tokenId The token which needs to be examined.\n    */\n    function removeSymmetries(uint256 _tokenId) private {\n        uint256 Symmetricals;\n        uint256 RotSym;\n        uint256 Y0Sym;\n        uint256 X0Sym;\n        uint256 XYSym;\n        uint256 XnYSym;\n        (Symmetricals,\n        RotSym,\n        Y0Sym,\n        X0Sym,\n        XYSym,\n        XnYSym) = Clovers(clovers).getAllSymmetries();\n        uint256 _symmetries = Clovers(clovers).getSymmetries(_tokenId);\n        Symmetricals = Symmetricals.sub(_symmetries > 0 ? 1 : 0);\n        RotSym = RotSym.sub(uint256(_symmetries >> 4 & 1));\n        Y0Sym = Y0Sym.sub(uint256(_symmetries >> 3 & 1));\n        X0Sym = X0Sym.sub(uint256(_symmetries >> 2 & 1));\n        XYSym = XYSym.sub(uint256(_symmetries >> 1 & 1));\n        XnYSym = XnYSym.sub(uint256(_symmetries & 1));\n        Clovers(clovers).setAllSymmetries(Symmetricals, RotSym, Y0Sym, X0Sym, XYSym, XnYSym);\n    }\n\n}\n",
  "sourcePath": "/home/billy/GitHub.com/clovers-network/clovers-contracts/contracts/CloversController.sol",
  "compiler": {
    "name": "solc",
    "version": "0.4.24+commit.e67f0147.Emscripten.clang"
  },
  "schemaVersion": "2.0.1",
  "updatedAt": "2019-08-28T10:01:28.504Z"
}