{
  "contractName": "Clovers",
  "abi": [
    {
      "constant": true,
      "inputs": [
        {
          "name": "_interfaceId",
          "type": "bytes4"
        }
      ],
      "name": "supportsInterface",
      "outputs": [
        {
          "name": "",
          "type": "bool"
        }
      ],
      "payable": false,
      "stateMutability": "view",
      "type": "function"
    },
    {
      "constant": true,
      "inputs": [],
      "name": "name",
      "outputs": [
        {
          "name": "",
          "type": "string"
        }
      ],
      "payable": false,
      "stateMutability": "view",
      "type": "function"
    },
    {
      "constant": true,
      "inputs": [
        {
          "name": "_tokenId",
          "type": "uint256"
        }
      ],
      "name": "getApproved",
      "outputs": [
        {
          "name": "",
          "type": "address"
        }
      ],
      "payable": false,
      "stateMutability": "view",
      "type": "function"
    },
    {
      "constant": false,
      "inputs": [
        {
          "name": "_to",
          "type": "address"
        },
        {
          "name": "_tokenId",
          "type": "uint256"
        }
      ],
      "name": "approve",
      "outputs": [],
      "payable": false,
      "stateMutability": "nonpayable",
      "type": "function"
    },
    {
      "constant": true,
      "inputs": [],
      "name": "totalSupply",
      "outputs": [
        {
          "name": "",
          "type": "uint256"
        }
      ],
      "payable": false,
      "stateMutability": "view",
      "type": "function"
    },
    {
      "constant": true,
      "inputs": [],
      "name": "InterfaceId_ERC165",
      "outputs": [
        {
          "name": "",
          "type": "bytes4"
        }
      ],
      "payable": false,
      "stateMutability": "view",
      "type": "function"
    },
    {
      "constant": false,
      "inputs": [
        {
          "name": "_from",
          "type": "address"
        },
        {
          "name": "_to",
          "type": "address"
        },
        {
          "name": "_tokenId",
          "type": "uint256"
        }
      ],
      "name": "transferFrom",
      "outputs": [],
      "payable": false,
      "stateMutability": "nonpayable",
      "type": "function"
    },
    {
      "constant": true,
      "inputs": [
        {
          "name": "_owner",
          "type": "address"
        },
        {
          "name": "_index",
          "type": "uint256"
        }
      ],
      "name": "tokenOfOwnerByIndex",
      "outputs": [
        {
          "name": "",
          "type": "uint256"
        }
      ],
      "payable": false,
      "stateMutability": "view",
      "type": "function"
    },
    {
      "constant": false,
      "inputs": [
        {
          "name": "_from",
          "type": "address"
        },
        {
          "name": "_to",
          "type": "address"
        },
        {
          "name": "_tokenId",
          "type": "uint256"
        }
      ],
      "name": "safeTransferFrom",
      "outputs": [],
      "payable": false,
      "stateMutability": "nonpayable",
      "type": "function"
    },
    {
      "constant": true,
      "inputs": [
        {
          "name": "_tokenId",
          "type": "uint256"
        }
      ],
      "name": "exists",
      "outputs": [
        {
          "name": "",
          "type": "bool"
        }
      ],
      "payable": false,
      "stateMutability": "view",
      "type": "function"
    },
    {
      "constant": true,
      "inputs": [
        {
          "name": "_index",
          "type": "uint256"
        }
      ],
      "name": "tokenByIndex",
      "outputs": [
        {
          "name": "",
          "type": "uint256"
        }
      ],
      "payable": false,
      "stateMutability": "view",
      "type": "function"
    },
    {
      "constant": true,
      "inputs": [
        {
          "name": "_tokenId",
          "type": "uint256"
        }
      ],
      "name": "ownerOf",
      "outputs": [
        {
          "name": "",
          "type": "address"
        }
      ],
      "payable": false,
      "stateMutability": "view",
      "type": "function"
    },
    {
      "constant": true,
      "inputs": [
        {
          "name": "",
          "type": "uint256"
        }
      ],
      "name": "clovers",
      "outputs": [
        {
          "name": "keep",
          "type": "bool"
        },
        {
          "name": "symmetries",
          "type": "uint256"
        },
        {
          "name": "blockMinted",
          "type": "uint256"
        },
        {
          "name": "rewards",
          "type": "uint256"
        }
      ],
      "payable": false,
      "stateMutability": "view",
      "type": "function"
    },
    {
      "constant": true,
      "inputs": [
        {
          "name": "_owner",
          "type": "address"
        }
      ],
      "name": "balanceOf",
      "outputs": [
        {
          "name": "",
          "type": "uint256"
        }
      ],
      "payable": false,
      "stateMutability": "view",
      "type": "function"
    },
    {
      "constant": false,
      "inputs": [],
      "name": "renounceOwnership",
      "outputs": [],
      "payable": false,
      "stateMutability": "nonpayable",
      "type": "function"
    },
    {
      "constant": true,
      "inputs": [],
      "name": "owner",
      "outputs": [
        {
          "name": "",
          "type": "address"
        }
      ],
      "payable": false,
      "stateMutability": "view",
      "type": "function"
    },
    {
      "constant": true,
      "inputs": [],
      "name": "symbol",
      "outputs": [
        {
          "name": "",
          "type": "string"
        }
      ],
      "payable": false,
      "stateMutability": "view",
      "type": "function"
    },
    {
      "constant": false,
      "inputs": [
        {
          "name": "_to",
          "type": "address"
        },
        {
          "name": "_approved",
          "type": "bool"
        }
      ],
      "name": "setApprovalForAll",
      "outputs": [],
      "payable": false,
      "stateMutability": "nonpayable",
      "type": "function"
    },
    {
      "constant": false,
      "inputs": [
        {
          "name": "_from",
          "type": "address"
        },
        {
          "name": "_to",
          "type": "address"
        },
        {
          "name": "_tokenId",
          "type": "uint256"
        },
        {
          "name": "_data",
          "type": "bytes"
        }
      ],
      "name": "safeTransferFrom",
      "outputs": [],
      "payable": false,
      "stateMutability": "nonpayable",
      "type": "function"
    },
    {
      "constant": true,
      "inputs": [
        {
          "name": "_owner",
          "type": "address"
        },
        {
          "name": "_operator",
          "type": "address"
        }
      ],
      "name": "isApprovedForAll",
      "outputs": [
        {
          "name": "",
          "type": "bool"
        }
      ],
      "payable": false,
      "stateMutability": "view",
      "type": "function"
    },
    {
      "constant": false,
      "inputs": [
        {
          "name": "_newOwner",
          "type": "address"
        }
      ],
      "name": "transferOwnership",
      "outputs": [],
      "payable": false,
      "stateMutability": "nonpayable",
      "type": "function"
    },
    {
      "inputs": [
        {
          "name": "name",
          "type": "string"
        },
        {
          "name": "symbol",
          "type": "string"
        }
      ],
      "payable": false,
      "stateMutability": "nonpayable",
      "type": "constructor"
    },
    {
      "payable": true,
      "stateMutability": "payable",
      "type": "fallback"
    },
    {
      "anonymous": false,
      "inputs": [
        {
          "indexed": true,
          "name": "previousOwner",
          "type": "address"
        }
      ],
      "name": "OwnershipRenounced",
      "type": "event"
    },
    {
      "anonymous": false,
      "inputs": [
        {
          "indexed": true,
          "name": "previousOwner",
          "type": "address"
        },
        {
          "indexed": true,
          "name": "newOwner",
          "type": "address"
        }
      ],
      "name": "OwnershipTransferred",
      "type": "event"
    },
    {
      "anonymous": false,
      "inputs": [
        {
          "indexed": true,
          "name": "_from",
          "type": "address"
        },
        {
          "indexed": true,
          "name": "_to",
          "type": "address"
        },
        {
          "indexed": true,
          "name": "_tokenId",
          "type": "uint256"
        }
      ],
      "name": "Transfer",
      "type": "event"
    },
    {
      "anonymous": false,
      "inputs": [
        {
          "indexed": true,
          "name": "_owner",
          "type": "address"
        },
        {
          "indexed": true,
          "name": "_approved",
          "type": "address"
        },
        {
          "indexed": true,
          "name": "_tokenId",
          "type": "uint256"
        }
      ],
      "name": "Approval",
      "type": "event"
    },
    {
      "anonymous": false,
      "inputs": [
        {
          "indexed": true,
          "name": "_owner",
          "type": "address"
        },
        {
          "indexed": true,
          "name": "_operator",
          "type": "address"
        },
        {
          "indexed": false,
          "name": "_approved",
          "type": "bool"
        }
      ],
      "name": "ApprovalForAll",
      "type": "event"
    },
    {
      "constant": true,
      "inputs": [],
      "name": "implementation",
      "outputs": [
        {
          "name": "",
          "type": "address"
        }
      ],
      "payable": false,
      "stateMutability": "view",
      "type": "function"
    },
    {
      "constant": true,
      "inputs": [
        {
          "name": "_tokenId",
          "type": "uint256"
        }
      ],
      "name": "tokenURI",
      "outputs": [
        {
          "name": "_infoUrl",
          "type": "string"
        }
      ],
      "payable": false,
      "stateMutability": "view",
      "type": "function"
    },
    {
      "constant": true,
      "inputs": [
        {
          "name": "moves",
          "type": "bytes28[2]"
        }
      ],
      "name": "getHash",
      "outputs": [
        {
          "name": "",
          "type": "bytes32"
        }
      ],
      "payable": false,
      "stateMutability": "pure",
      "type": "function"
    },
    {
      "constant": true,
      "inputs": [
        {
          "name": "_tokenId",
          "type": "uint256"
        }
      ],
      "name": "getKeep",
      "outputs": [
        {
          "name": "",
          "type": "bool"
        }
      ],
      "payable": false,
      "stateMutability": "view",
      "type": "function"
    },
    {
      "constant": true,
      "inputs": [
        {
          "name": "_tokenId",
          "type": "uint256"
        }
      ],
      "name": "getBlockMinted",
      "outputs": [
        {
          "name": "",
          "type": "uint256"
        }
      ],
      "payable": false,
      "stateMutability": "view",
      "type": "function"
    },
    {
      "constant": true,
      "inputs": [
        {
          "name": "_tokenId",
          "type": "uint256"
        }
      ],
      "name": "getCloverMoves",
      "outputs": [
        {
          "name": "",
          "type": "bytes28[2]"
        }
      ],
      "payable": false,
      "stateMutability": "view",
      "type": "function"
    },
    {
      "constant": true,
      "inputs": [
        {
          "name": "_tokenId",
          "type": "uint256"
        }
      ],
      "name": "getReward",
      "outputs": [
        {
          "name": "",
          "type": "uint256"
        }
      ],
      "payable": false,
      "stateMutability": "view",
      "type": "function"
    },
    {
      "constant": true,
      "inputs": [
        {
          "name": "_tokenId",
          "type": "uint256"
        }
      ],
      "name": "getSymmetries",
      "outputs": [
        {
          "name": "",
          "type": "uint256"
        }
      ],
      "payable": false,
      "stateMutability": "view",
      "type": "function"
    },
    {
      "constant": true,
      "inputs": [],
      "name": "getAllSymmetries",
      "outputs": [
        {
          "name": "",
          "type": "uint256"
        },
        {
          "name": "",
          "type": "uint256"
        },
        {
          "name": "",
          "type": "uint256"
        },
        {
          "name": "",
          "type": "uint256"
        },
        {
          "name": "",
          "type": "uint256"
        },
        {
          "name": "",
          "type": "uint256"
        }
      ],
      "payable": false,
      "stateMutability": "view",
      "type": "function"
    },
    {
      "constant": false,
      "inputs": [
        {
          "name": "_to",
          "type": "address"
        },
        {
          "name": "_amount",
          "type": "uint256"
        }
      ],
      "name": "moveEth",
      "outputs": [],
      "payable": false,
      "stateMutability": "nonpayable",
      "type": "function"
    },
    {
      "constant": false,
      "inputs": [
        {
          "name": "_to",
          "type": "address"
        },
        {
          "name": "_amount",
          "type": "uint256"
        },
        {
          "name": "_token",
          "type": "address"
        }
      ],
      "name": "moveToken",
      "outputs": [
        {
          "name": "",
          "type": "bool"
        }
      ],
      "payable": false,
      "stateMutability": "nonpayable",
      "type": "function"
    },
    {
      "constant": false,
      "inputs": [
        {
          "name": "_to",
          "type": "address"
        },
        {
          "name": "_amount",
          "type": "uint256"
        },
        {
          "name": "_token",
          "type": "address"
        }
      ],
      "name": "approveToken",
      "outputs": [
        {
          "name": "",
          "type": "bool"
        }
      ],
      "payable": false,
      "stateMutability": "nonpayable",
      "type": "function"
    },
    {
      "constant": false,
      "inputs": [
        {
          "name": "_tokenId",
          "type": "uint256"
        },
        {
          "name": "value",
          "type": "bool"
        }
      ],
      "name": "setKeep",
      "outputs": [],
      "payable": false,
      "stateMutability": "nonpayable",
      "type": "function"
    },
    {
      "constant": false,
      "inputs": [
        {
          "name": "_tokenId",
          "type": "uint256"
        },
        {
          "name": "value",
          "type": "uint256"
        }
      ],
      "name": "setBlockMinted",
      "outputs": [],
      "payable": false,
      "stateMutability": "nonpayable",
      "type": "function"
    },
    {
      "constant": false,
      "inputs": [
        {
          "name": "_tokenId",
          "type": "uint256"
        },
        {
          "name": "moves",
          "type": "bytes28[2]"
        }
      ],
      "name": "setCloverMoves",
      "outputs": [],
      "payable": false,
      "stateMutability": "nonpayable",
      "type": "function"
    },
    {
      "constant": false,
      "inputs": [
        {
          "name": "_tokenId",
          "type": "uint256"
        },
        {
          "name": "_amount",
          "type": "uint256"
        }
      ],
      "name": "setReward",
      "outputs": [],
      "payable": false,
      "stateMutability": "nonpayable",
      "type": "function"
    },
    {
      "constant": false,
      "inputs": [
        {
          "name": "_tokenId",
          "type": "uint256"
        },
        {
          "name": "_symmetries",
          "type": "uint256"
        }
      ],
      "name": "setSymmetries",
      "outputs": [],
      "payable": false,
      "stateMutability": "nonpayable",
      "type": "function"
    },
    {
      "constant": false,
      "inputs": [
        {
          "name": "_totalSymmetries",
          "type": "uint256"
        },
        {
          "name": "RotSym",
          "type": "uint256"
        },
        {
          "name": "Y0Sym",
          "type": "uint256"
        },
        {
          "name": "X0Sym",
          "type": "uint256"
        },
        {
          "name": "XYSym",
          "type": "uint256"
        },
        {
          "name": "XnYSym",
          "type": "uint256"
        }
      ],
      "name": "setAllSymmetries",
      "outputs": [],
      "payable": false,
      "stateMutability": "nonpayable",
      "type": "function"
    },
    {
      "constant": false,
      "inputs": [
        {
          "name": "_tokenId",
          "type": "uint256"
        }
      ],
      "name": "deleteClover",
      "outputs": [],
      "payable": false,
      "stateMutability": "nonpayable",
      "type": "function"
    },
    {
      "constant": false,
      "inputs": [
        {
          "name": "_cloversController",
          "type": "address"
        }
      ],
      "name": "updateCloversControllerAddress",
      "outputs": [],
      "payable": false,
      "stateMutability": "nonpayable",
      "type": "function"
    },
    {
      "constant": false,
      "inputs": [
        {
          "name": "_cloversMetadata",
          "type": "address"
        }
      ],
      "name": "updateCloversMetadataAddress",
      "outputs": [],
      "payable": false,
      "stateMutability": "nonpayable",
      "type": "function"
    },
    {
      "constant": false,
      "inputs": [
        {
          "name": "_clubTokenController",
          "type": "address"
        }
      ],
      "name": "updateClubTokenController",
      "outputs": [],
      "payable": false,
      "stateMutability": "nonpayable",
      "type": "function"
    },
    {
      "constant": false,
      "inputs": [
        {
          "name": "_to",
          "type": "address"
        },
        {
          "name": "_tokenId",
          "type": "uint256"
        }
      ],
      "name": "mint",
      "outputs": [],
      "payable": false,
      "stateMutability": "nonpayable",
      "type": "function"
    },
    {
      "constant": false,
      "inputs": [
        {
          "name": "_tokenId",
          "type": "uint256"
        }
      ],
      "name": "unmint",
      "outputs": [],
      "payable": false,
      "stateMutability": "nonpayable",
      "type": "function"
    }
  ],
  "bytecode": "0x60806040523480156200001157600080fd5b506040516200306d3803806200306d8339810180604052620000379190810190620002f4565b81816200006d7f01ffc9a70000000000000000000000000000000000000000000000000000000064010000000062000186810204565b620000a17f80ac58cd0000000000000000000000000000000000000000000000000000000064010000000062000186810204565b620000d57f4f558e790000000000000000000000000000000000000000000000000000000064010000000062000186810204565b8151620000ea906005906020850190620001f3565b50805162000100906006906020840190620001f3565b50620001357f780e9d630000000000000000000000000000000000000000000000000000000064010000000062000186810204565b620001697f5b5e139f0000000000000000000000000000000000000000000000000000000064010000000062000186810204565b5050600c8054600160a060020a0319163317905550620003e49050565b7fffffffff000000000000000000000000000000000000000000000000000000008082161415620001b657600080fd5b7fffffffff00000000000000000000000000000000000000000000000000000000166000908152602081905260409020805460ff19166001179055565b828054600181600116156101000203166002900490600052602060002090601f016020900481019282601f106200023657805160ff191683800117855562000266565b8280016001018555821562000266579182015b828111156200026657825182559160200191906001019062000249565b506200027492915062000278565b5090565b6200029591905b808211156200027457600081556001016200027f565b90565b6000601f82018313620002aa57600080fd5b8151620002c1620002bb8262000389565b62000362565b91508082526020830160208301858383011115620002de57600080fd5b620002eb838284620003b1565b50505092915050565b600080604083850312156200030857600080fd5b82516001604060020a038111156200031f57600080fd5b6200032d8582860162000298565b92505060208301516001604060020a038111156200034a57600080fd5b620003588582860162000298565b9150509250929050565b6040518181016001604060020a03811182821017156200038157600080fd5b604052919050565b60006001604060020a03821115620003a057600080fd5b506020601f91909101601f19160190565b60005b83811015620003ce578181015183820152602001620003b4565b83811115620003de576000848401525b50505050565b612c7980620003f46000396000f3006080604052600436106102245763ffffffff7c010000000000000000000000000000000000000000000000000000000060003504166301ffc9a7811461022657806303a53d6b1461025c578063048e62ca1461028957806304952631146102a957806306fdde03146102c9578063081812fc146102eb578063095ea7b3146103185780630b628395146103385780630e8310d6146103585780631732e9411461037857806318160ddd1461039857806319fa8f50146103ad5780631c4b774b146103cf5780631cc1472d146103ef57806323b872dd1461040f5780632f745c591461042f57806340c10f191461044f57806342842e0e1461046f5780634e485f881461048f5780634f558e79146104af5780634f6ccce7146104cf5780635c60da1b146104ef57806362f9acf9146105045780636352211e1461053157806364e779b114610551578063708fa7f71461057157806370a08231146105a1578063715018a6146105c157806376e4a87f146105d6578063785d8d71146105f65780638a56a2261461061d5780638b1b2ba81461063d5780638da5cb5b1461065d5780639564e1801461067257806395d89b4114610692578063a22cb465146106a7578063a47bd496146106c7578063b88d4fde146106e7578063c53b4bf914610707578063c863bac114610727578063c87b56dd14610747578063dc3f775814610767578063e3100d1e14610787578063e985e9c5146107a7578063f2fde38b146107c7575b005b34801561023257600080fd5b50610246610241366004612755565b6107e7565b60405161025391906129f0565b60405180910390f35b34801561026857600080fd5b5061027c610277366004612791565b61081e565b6040516102539190612a3c565b34801561029557600080fd5b506102466102a43660046126d6565b610833565b3480156102b557600080fd5b506102466102c4366004612791565b6109de565b3480156102d557600080fd5b506102de6109f3565b6040516102539190612a66565b3480156102f757600080fd5b5061030b610306366004612791565b610aa8565b6040516102539190612975565b34801561032457600080fd5b506102246103333660046126a6565b610ad0565b34801561034457600080fd5b506102246103533660046127cd565b610bb8565b34801561036457600080fd5b50610224610373366004612791565b610c24565b34801561038457600080fd5b5061027c610393366004612719565b610cd1565b3480156103a457600080fd5b5061027c610d15565b3480156103b957600080fd5b506103c2610d1b565b6040516102539190612a4a565b3480156103db57600080fd5b5061027c6103ea366004612791565b610d3f565b3480156103fb57600080fd5b5061022461040a3660046126a6565b610d54565b34801561041b57600080fd5b5061022461042a3660046125b0565b610ded565b34801561043b57600080fd5b5061027c61044a3660046126a6565b610ee8565b34801561045b57600080fd5b5061022461046a3660046126a6565b610f43565b34801561047b57600080fd5b5061022461048a3660046125b0565b610fbd565b34801561049b57600080fd5b506102246104aa366004612558565b611017565b3480156104bb57600080fd5b506102466104ca366004612791565b6110a4565b3480156104db57600080fd5b5061027c6104ea366004612791565b6110ce565b3480156104fb57600080fd5b5061030b611103565b34801561051057600080fd5b5061052461051f366004612791565b61111f565b60405161025391906129e2565b34801561053d57600080fd5b5061030b61054c366004612791565b611194565b34801561055d57600080fd5b5061022461056c366004612791565b6111c5565b34801561057d57600080fd5b5061059161058c366004612791565b61121f565b60405161025394939291906129fe565b3480156105ad57600080fd5b5061027c6105bc366004612558565b61124a565b3480156105cd57600080fd5b50610224611297565b3480156105e257600080fd5b506102246105f13660046127fd565b61132a565b34801561060257600080fd5b5061060b6113b0565b60405161025396959493929190612a77565b34801561062957600080fd5b50610224610638366004612558565b6113ed565b34801561064957600080fd5b5061022461065836600461283b565b61147a565b34801561066957600080fd5b5061030b6114df565b34801561067e57600080fd5b5061022461068d366004612558565b6114fb565b34801561069e57600080fd5b506102de611588565b3480156106b357600080fd5b506102246106c2366004612676565b611607565b3480156106d357600080fd5b506102246106e236600461281c565b6116c4565b3480156106f357600080fd5b506102246107023660046125fd565b611721565b34801561071357600080fd5b5061027c610722366004612791565b611782565b34801561073357600080fd5b506102466107423660046126d6565b611797565b34801561075357600080fd5b506102de610762366004612791565b611836565b34801561077357600080fd5b5061022461078236600461281c565b6118a0565b34801561079357600080fd5b506102246107a236600461281c565b6118fd565b3480156107b357600080fd5b506102466107c2366004612576565b61195a565b3480156107d357600080fd5b506102246107e2366004612558565b611995565b7fffffffff000000000000000000000000000000000000000000000000000000001660009081526020819052604090205460ff1690565b60009081526016602052604090206004015490565b60145460009073ffffffffffffffffffffffffffffffffffffffff163314806108735750600c5473ffffffffffffffffffffffffffffffffffffffff1633145b151561087e57600080fd5b6040517f70a0823100000000000000000000000000000000000000000000000000000000815273ffffffffffffffffffffffffffffffffffffffff8316906370a08231906108d0903090600401612a58565b602060405180830381600087803b1580156108ea57600080fd5b505af11580156108fe573d6000803e3d6000fd5b505050506040513d601f19601f8201168201806040525061092291908101906127af565b83111561092e57600080fd5b6040517fa9059cbb00000000000000000000000000000000000000000000000000000000815273ffffffffffffffffffffffffffffffffffffffff83169063a9059cbb9061098290879087906004016129c7565b602060405180830381600087803b15801561099c57600080fd5b505af11580156109b0573d6000803e3d6000fd5b505050506040513d601f19601f820116820180604052506109d49190810190612737565b90505b9392505050565b60009081526016602052604090205460ff1690565b60058054604080516020601f60027fffffffffffffffffffffffffffffffffffffffffffffffffffffffffffffffff610100600188161502019095169490940493840181900481028201810190925282815260609390929091830182828015610a9d5780601f10610a7257610100808354040283529160200191610a9d565b820191906000526020600020905b815481529060010190602001808311610a8057829003601f168201915b505050505090505b90565b60009081526002602052604090205473ffffffffffffffffffffffffffffffffffffffff1690565b6000610adb82611194565b905073ffffffffffffffffffffffffffffffffffffffff8381169082161415610b0357600080fd5b3373ffffffffffffffffffffffffffffffffffffffff82161480610b2c5750610b2c813361195a565b1515610b3757600080fd5b60008281526002602052604080822080547fffffffffffffffffffffffff00000000000000000000000000000000000000001673ffffffffffffffffffffffffffffffffffffffff87811691821790925591518593918516917f8c5be1e5ebec7d5bd14f71427d1e84f3dd0314c0f7b2291e5b200ac8c7c3b92591a4505050565b60145473ffffffffffffffffffffffffffffffffffffffff16331480610bf55750600c5473ffffffffffffffffffffffffffffffffffffffff1633145b1515610c0057600080fd5b6000828152601660205260409020610c1f9060029081019083906122e4565b505050565b60145473ffffffffffffffffffffffffffffffffffffffff16331480610c615750600c5473ffffffffffffffffffffffffffffffffffffffff1633145b1515610c6c57600080fd5b600081815260166020526040812080547fffffffffffffffffffffffffffffffffffffffffffffffffffffffffffffff001681556001810182905590610cb56002830182612352565b50600060048201819055600590910155610cce816111c5565b50565b6000816040518082600260200280838360005b83811015610cfc578181015183820152602001610ce4565b5050505090500191505060405180910390209050919050565b60095490565b7f01ffc9a70000000000000000000000000000000000000000000000000000000081565b60009081526016602052604090206005015490565b60145473ffffffffffffffffffffffffffffffffffffffff16331480610d915750600c5473ffffffffffffffffffffffffffffffffffffffff1633145b1515610d9c57600080fd5b3031811115610daa57600080fd5b60405173ffffffffffffffffffffffffffffffffffffffff83169082156108fc029083906000818181858888f19350505050158015610c1f573d6000803e3d6000fd5b80610df833826119c2565b80610e1a575060145473ffffffffffffffffffffffffffffffffffffffff1633145b1515610e2557600080fd5b73ffffffffffffffffffffffffffffffffffffffff84161515610e4757600080fd5b73ffffffffffffffffffffffffffffffffffffffff83161515610e6957600080fd5b610e738483611a55565b610e7d8483611af6565b610e878383611c9b565b818373ffffffffffffffffffffffffffffffffffffffff168573ffffffffffffffffffffffffffffffffffffffff167fddf252ad1be2c89b69c2b068fc378daa952ba7f163c4a11628f55a4df523b3ef60405160405180910390a450505050565b6000610ef38361124a565b8210610efe57600080fd5b73ffffffffffffffffffffffffffffffffffffffff83166000908152600760205260409020805483908110610f2f57fe5b906000526020600020015490505b92915050565b60145473ffffffffffffffffffffffffffffffffffffffff16331480610f805750600c5473ffffffffffffffffffffffffffffffffffffffff1633145b1515610f8b57600080fd5b610f958282611cf1565b601554610fb99073ffffffffffffffffffffffffffffffffffffffff166001611607565b5050565b80610fc833826119c2565b80610fea575060145473ffffffffffffffffffffffffffffffffffffffff1633145b1515610ff557600080fd5b6110118484846020604051908101604052806000815250611721565b50505050565b600c5473ffffffffffffffffffffffffffffffffffffffff16331461103b57600080fd5b73ffffffffffffffffffffffffffffffffffffffff8116151561105d57600080fd5b600d80547fffffffffffffffffffffffff00000000000000000000000000000000000000001673ffffffffffffffffffffffffffffffffffffffff92909216919091179055565b60009081526001602052604090205473ffffffffffffffffffffffffffffffffffffffff16151590565b60006110d8610d15565b82106110e357600080fd5b60098054839081106110f157fe5b90600052602060002001549050919050565b600d5473ffffffffffffffffffffffffffffffffffffffff1690565b611127612360565b60008281526016602052604090819020815180830192839052916002918201919082845b8154640100000000027fffffffffffffffffffffffffffffffffffffffffffffffffffffffff0000000016815260019091019060200180831161114b5750505050509050919050565b60008181526001602052604081205473ffffffffffffffffffffffffffffffffffffffff16801515610f3d57600080fd5b60145473ffffffffffffffffffffffffffffffffffffffff163314806112025750600c5473ffffffffffffffffffffffffffffffffffffffff1633145b151561120d57600080fd5b610cce61121982611194565b82611d40565b601660205260009081526040902080546001820154600483015460059093015460ff90921692909184565b600073ffffffffffffffffffffffffffffffffffffffff8216151561126e57600080fd5b5073ffffffffffffffffffffffffffffffffffffffff1660009081526003602052604090205490565b600c5473ffffffffffffffffffffffffffffffffffffffff1633146112bb57600080fd5b600c5460405173ffffffffffffffffffffffffffffffffffffffff909116907ff8df31144d9c2f0f6b59d69b8b98abd5459d07f2742c4df920b25aae33c6482090600090a2600c80547fffffffffffffffffffffffff0000000000000000000000000000000000000000169055565b60145473ffffffffffffffffffffffffffffffffffffffff163314806113675750600c5473ffffffffffffffffffffffffffffffffffffffff1633145b151561137257600080fd5b60009182526016602052604090912080547fffffffffffffffffffffffffffffffffffffffffffffffffffffffffffffff0016911515919091179055565b600080600080600080600e54600f60006005811015156113cc57fe5b0154601054601154601254601354949b939a50919850965094509092509050565b600c5473ffffffffffffffffffffffffffffffffffffffff16331461141157600080fd5b73ffffffffffffffffffffffffffffffffffffffff8116151561143357600080fd5b601480547fffffffffffffffffffffffff00000000000000000000000000000000000000001673ffffffffffffffffffffffffffffffffffffffff92909216919091179055565b60145473ffffffffffffffffffffffffffffffffffffffff163314806114b75750600c5473ffffffffffffffffffffffffffffffffffffffff1633145b15156114c257600080fd5b600e95909555600f93909355601091909155601155601255601355565b600c5473ffffffffffffffffffffffffffffffffffffffff1681565b600c5473ffffffffffffffffffffffffffffffffffffffff16331461151f57600080fd5b73ffffffffffffffffffffffffffffffffffffffff8116151561154157600080fd5b601580547fffffffffffffffffffffffff00000000000000000000000000000000000000001673ffffffffffffffffffffffffffffffffffffffff92909216919091179055565b60068054604080516020601f60027fffffffffffffffffffffffffffffffffffffffffffffffffffffffffffffffff610100600188161502019095169490940493840181900481028201810190925282815260609390929091830182828015610a9d5780601f10610a7257610100808354040283529160200191610a9d565b73ffffffffffffffffffffffffffffffffffffffff821633141561162a57600080fd5b33600081815260046020908152604080832073ffffffffffffffffffffffffffffffffffffffff871680855292529182902080547fffffffffffffffffffffffffffffffffffffffffffffffffffffffffffffff001685151517905590519091907f17307eab39ab6107e8899845ad3d59bd9653f200f220920489ca2b5937696c31906116b89085906129f0565b60405180910390a35050565b60145473ffffffffffffffffffffffffffffffffffffffff163314806117015750600c5473ffffffffffffffffffffffffffffffffffffffff1633145b151561170c57600080fd5b60009182526016602052604090912060050155565b8161172c33826119c2565b8061174e575060145473ffffffffffffffffffffffffffffffffffffffff1633145b151561175957600080fd5b611764858585610ded565b61177085858585611e76565b151561177b57600080fd5b5050505050565b60009081526016602052604090206001015490565b60145460009073ffffffffffffffffffffffffffffffffffffffff163314806117d75750600c5473ffffffffffffffffffffffffffffffffffffffff1633145b15156117e257600080fd5b6040517f095ea7b300000000000000000000000000000000000000000000000000000000815273ffffffffffffffffffffffffffffffffffffffff83169063095ea7b39061098290879087906004016129c7565b606060006060611844611103565b91506000368080601f0160208091040260200160405190810160405280939291908181526020018383808284378201915050505050509050600080825160208401855af43d604051816000823e82801561189c578282f35b8282fd5b60145473ffffffffffffffffffffffffffffffffffffffff163314806118dd5750600c5473ffffffffffffffffffffffffffffffffffffffff1633145b15156118e857600080fd5b60009182526016602052604090912060010155565b60145473ffffffffffffffffffffffffffffffffffffffff1633148061193a5750600c5473ffffffffffffffffffffffffffffffffffffffff1633145b151561194557600080fd5b60009182526016602052604090912060040155565b73ffffffffffffffffffffffffffffffffffffffff918216600090815260046020908152604080832093909416825291909152205460ff1690565b600c5473ffffffffffffffffffffffffffffffffffffffff1633146119b957600080fd5b610cce81611fa4565b6000806119ce83611194565b90508073ffffffffffffffffffffffffffffffffffffffff168473ffffffffffffffffffffffffffffffffffffffff161480611a3d57508373ffffffffffffffffffffffffffffffffffffffff16611a2584610aa8565b73ffffffffffffffffffffffffffffffffffffffff16145b80611a4d5750611a4d818561195a565b949350505050565b8173ffffffffffffffffffffffffffffffffffffffff16611a7582611194565b73ffffffffffffffffffffffffffffffffffffffff1614611a9557600080fd5b60008181526002602052604090205473ffffffffffffffffffffffffffffffffffffffff1615610fb957600090815260026020526040902080547fffffffffffffffffffffffff000000000000000000000000000000000000000016905550565b6000806000611b058585612054565b60008481526008602090815260408083205473ffffffffffffffffffffffffffffffffffffffff89168452600790925290912054909350611b4d90600163ffffffff61212916565b73ffffffffffffffffffffffffffffffffffffffff8616600090815260076020526040902080549193509083908110611b8257fe5b9060005260206000200154905080600760008773ffffffffffffffffffffffffffffffffffffffff1673ffffffffffffffffffffffffffffffffffffffff16815260200190815260200160002084815481101515611bdc57fe5b600091825260208083209091019290925573ffffffffffffffffffffffffffffffffffffffff87168152600790915260408120805484908110611c1b57fe5b600091825260208083209091019290925573ffffffffffffffffffffffffffffffffffffffff87168152600790915260409020805490611c7d907fffffffffffffffffffffffffffffffffffffffffffffffffffffffffffffffff830161237b565b50600093845260086020526040808520859055908452909220555050565b6000611ca7838361213b565b5073ffffffffffffffffffffffffffffffffffffffff9091166000908152600760209081526040808320805460018101825590845282842081018590559383526008909152902055565b611cfb82826121fd565b600980546000838152600a60205260408120829055600182018355919091527f6e1540171b6c0c960b71a7020d9f60077f6af931a8bbf590da0223dacf75c7af015550565b6000806000611d4f8585612272565b6000848152600b602052604090205460027fffffffffffffffffffffffffffffffffffffffffffffffffffffffffffffffff610100600184161502019091160415611dab576000848152600b60205260408120611dab9161239f565b6000848152600a6020526040902054600954909350611dd190600163ffffffff61212916565b9150600982815481101515611de257fe5b9060005260206000200154905080600984815481101515611dff57fe5b60009182526020822001919091556009805484908110611e1b57fe5b6000918252602090912001556009805490611e58907fffffffffffffffffffffffffffffffffffffffffffffffffffffffffffffffff830161237b565b506000938452600a6020526040808520859055908452909220555050565b600080611e988573ffffffffffffffffffffffffffffffffffffffff166122cf565b1515611ea75760019150611f9b565b6040517f150b7a0200000000000000000000000000000000000000000000000000000000815273ffffffffffffffffffffffffffffffffffffffff86169063150b7a0290611eff9033908a9089908990600401612983565b602060405180830381600087803b158015611f1957600080fd5b505af1158015611f2d573d6000803e3d6000fd5b505050506040513d601f19601f82011682018060405250611f519190810190612773565b7fffffffff0000000000000000000000000000000000000000000000000000000081167f150b7a020000000000000000000000000000000000000000000000000000000014925090505b50949350505050565b73ffffffffffffffffffffffffffffffffffffffff81161515611fc657600080fd5b600c5460405173ffffffffffffffffffffffffffffffffffffffff8084169216907f8be0079c531659141344cd1fd0a4f28419497f9722a3daafe3b4186f6b6457e090600090a3600c80547fffffffffffffffffffffffff00000000000000000000000000000000000000001673ffffffffffffffffffffffffffffffffffffffff92909216919091179055565b8173ffffffffffffffffffffffffffffffffffffffff1661207482611194565b73ffffffffffffffffffffffffffffffffffffffff161461209457600080fd5b73ffffffffffffffffffffffffffffffffffffffff82166000908152600360205260409020546120cb90600163ffffffff61212916565b73ffffffffffffffffffffffffffffffffffffffff90921660009081526003602090815260408083209490945591815260019091522080547fffffffffffffffffffffffff0000000000000000000000000000000000000000169055565b60008282111561213557fe5b50900390565b60008181526001602052604090205473ffffffffffffffffffffffffffffffffffffffff161561216a57600080fd5b600081815260016020818152604080842080547fffffffffffffffffffffffff00000000000000000000000000000000000000001673ffffffffffffffffffffffffffffffffffffffff881690811790915584526003909152909120546121d0916122d7565b73ffffffffffffffffffffffffffffffffffffffff90921660009081526003602052604090209190915550565b73ffffffffffffffffffffffffffffffffffffffff8216151561221f57600080fd5b6122298282611c9b565b604051819073ffffffffffffffffffffffffffffffffffffffff8416906000907fddf252ad1be2c89b69c2b068fc378daa952ba7f163c4a11628f55a4df523b3ef908290a45050565b61227c8282611a55565b6122868282611af6565b604051819060009073ffffffffffffffffffffffffffffffffffffffff8516907fddf252ad1be2c89b69c2b068fc378daa952ba7f163c4a11628f55a4df523b3ef908390a45050565b6000903b1190565b81810182811015610f3d57fe5b8260028101928215612342579160200282015b8281111561234257825182547fffffffff00000000000000000000000000000000000000000000000000000000166401000000009091041782556020909201916001909101906122f7565b5061234e9291506123e3565b5090565b506000815560010160009055565b60408051808201825290600290829080388339509192915050565b815481835581811115610c1f57600083815260209020610c1f91810190830161241f565b50805460018160011615610100020316600290046000825580601f106123c55750610cce565b601f016020900490600052602060002090810190610cce919061241f565b610aa591905b8082111561234e5780547fffffffff000000000000000000000000000000000000000000000000000000001681556001016123e9565b610aa591905b8082111561234e5760008155600101612425565b60006109d78235612b6c565b6000601f8201831361245657600080fd5b600261246961246482612af8565b612ad1565b9150818385602084028201111561247f57600080fd5b60005b838110156124ab578161249588826124cd565b8452506020928301929190910190600101612482565b5050505092915050565b60006109d78235612b85565b60006109d78251612b85565b60006109d78235612b8a565b60006109d78235612baf565b60006109d78251612baf565b6000601f8201831361250257600080fd5b813561251061246482612b16565b9150808252602083016020830185838301111561252c57600080fd5b612537838284612bdf565b50505092915050565b60006109d78235610aa5565b60006109d78251610aa5565b60006020828403121561256a57600080fd5b6000611a4d8484612439565b6000806040838503121561258957600080fd5b60006125958585612439565b92505060206125a685828601612439565b9150509250929050565b6000806000606084860312156125c557600080fd5b60006125d18686612439565b93505060206125e286828701612439565b92505060406125f386828701612540565b9150509250925092565b6000806000806080858703121561261357600080fd5b600061261f8787612439565b945050602061263087828801612439565b935050604061264187828801612540565b925050606085013567ffffffffffffffff81111561265e57600080fd5b61266a878288016124f1565b91505092959194509250565b6000806040838503121561268957600080fd5b60006126958585612439565b92505060206125a6858286016124b5565b600080604083850312156126b957600080fd5b60006126c58585612439565b92505060206125a685828601612540565b6000806000606084860312156126eb57600080fd5b60006126f78686612439565b935050602061270886828701612540565b92505060406125f386828701612439565b60006040828403121561272b57600080fd5b6000611a4d8484612445565b60006020828403121561274957600080fd5b6000611a4d84846124c1565b60006020828403121561276757600080fd5b6000611a4d84846124d9565b60006020828403121561278557600080fd5b6000611a4d84846124e5565b6000602082840312156127a357600080fd5b6000611a4d8484612540565b6000602082840312156127c157600080fd5b6000611a4d848461254c565b600080606083850312156127e057600080fd5b60006127ec8585612540565b92505060206125a685828601612445565b6000806040838503121561281057600080fd5b60006126958585612540565b6000806040838503121561282f57600080fd5b60006126c58585612540565b60008060008060008060c0878903121561285457600080fd5b60006128608989612540565b965050602061287189828a01612540565b955050604061288289828a01612540565b945050606061289389828a01612540565b93505060806128a489828a01612540565b92505060a06128b589828a01612540565b9150509295509295509295565b6128cb81612b6c565b82525050565b6128da81612b5c565b6128e382610aa5565b60005b8281101561177b576128f985835161291c565b61290282612b66565b6020959095019491506001016128e6565b6128cb81612b85565b6128cb81612b8a565b6128cb81610aa5565b6128cb81612baf565b600061294282612b62565b808452612956816020860160208601612beb565b61295f81612c17565b9093016020019392505050565b6128cb81612bd4565b60208101610f3d82846128c2565b6080810161299182876128c2565b61299e60208301866128c2565b6129ab6040830185612925565b81810360608301526129bd8184612937565b9695505050505050565b604081016129d582856128c2565b6109d76020830184612925565b60408101610f3d82846128d1565b60208101610f3d8284612913565b60808101612a0c8287612913565b612a196020830186612925565b612a266040830185612925565b612a336060830184612925565b95945050505050565b60208101610f3d8284612925565b60208101610f3d828461292e565b60208101610f3d828461296c565b602080825281016109d78184612937565b60c08101612a858289612925565b612a926020830188612925565b612a9f6040830187612925565b612aac6060830186612925565b612ab96080830185612925565b612ac660a0830184612925565b979650505050505050565b60405181810167ffffffffffffffff81118282101715612af057600080fd5b604052919050565b600067ffffffffffffffff821115612b0f57600080fd5b5060200290565b600067ffffffffffffffff821115612b2d57600080fd5b506020601f919091017fffffffffffffffffffffffffffffffffffffffffffffffffffffffffffffffe0160190565b50600290565b5190565b60200190565b73ffffffffffffffffffffffffffffffffffffffff1690565b151590565b7fffffffffffffffffffffffffffffffffffffffffffffffffffffffff000000001690565b7fffffffff000000000000000000000000000000000000000000000000000000001690565b6000610f3d82612b6c565b82818337506000910152565b60005b83811015612c06578181015183820152602001612bee565b838111156110115750506000910152565b601f017fffffffffffffffffffffffffffffffffffffffffffffffffffffffffffffffe016905600a265627a7a72305820a94a8aac48d705ea8d53a158f4a51f3d34ed6dd6f75d22908aa58cbb30cf39946c6578706572696d656e74616cf50037",
  "source": "pragma solidity ^0.4.18;\npragma experimental ABIEncoderV2;\n\n/**\n * Digital Asset Registry for the Non Fungible Token Clover\n * with upgradeable contract reference for returning metadata.\n */\n\nimport \"zeppelin-solidity/contracts/token/ERC20/ERC20.sol\";\nimport \"zeppelin-solidity/contracts/token/ERC721/ERC721Token.sol\";\nimport \"zeppelin-solidity/contracts/ownership/Ownable.sol\";\nimport \"./IClovers.sol\";\nimport \"./CloversMetadata.sol\";\n\n\ncontract Clovers is IClovers, ERC721Token, Ownable {\n\n    address cloversMetadata;\n    uint256 totalSymmetries;\n    uint256[5] symmetries; // RotSym, Y0Sym, X0Sym, XYSym, XnYSym\n    address cloversController;\n    address clubTokenController;\n\n    mapping (uint256 => Clover) public clovers;\n    struct Clover {\n        bool keep;\n        uint256 symmetries;\n        bytes28[2] cloverMoves;\n        uint256 blockMinted;\n        uint256 rewards;\n    }\n\n    modifier onlyOwnerOrController() {\n        require(\n            msg.sender == cloversController ||\n            msg.sender == owner\n        );\n        _;\n    }\n\n\n    /**\n    * @dev Checks msg.sender can transfer a token, by being owner, approved, operator or cloversController\n    * @param _tokenId uint256 ID of the token to validate\n    */\n    modifier canTransfer(uint256 _tokenId) {\n        require(isApprovedOrOwner(msg.sender, _tokenId) || msg.sender == cloversController);\n        _;\n    }\n\n    constructor(string name, string symbol) public\n        ERC721Token(name, symbol)\n    { }\n\n    function () public payable {}\n\n    function implementation() public view returns (address) {\n        return cloversMetadata;\n    }\n\n    function tokenURI(uint _tokenId) public view returns (string _infoUrl) {\n        // require(ownerOf(_tokenId) != 0);\n        address _impl = implementation();\n        bytes memory data = msg.data;\n        assembly {\n            let result := delegatecall(gas, _impl, add(data, 0x20), mload(data), 0, 0)\n            let size := returndatasize\n            let ptr := mload(0x40)\n            returndatacopy(ptr, 0, size)\n            switch result\n            case 0 { revert(ptr, size) }\n            default { return(ptr, size) }\n        }\n        // return CloversMetadata(cloversMetadata).tokenMetadata(_tokenId);\n    }\n    function getHash(bytes28[2] moves) public pure returns (bytes32) {\n        return keccak256(moves);\n    }\n    function getKeep(uint256 _tokenId) public view returns (bool) {\n        return clovers[_tokenId].keep;\n    }\n    function getBlockMinted(uint256 _tokenId) public view returns (uint256) {\n        return clovers[_tokenId].blockMinted;\n    }\n    function getCloverMoves(uint256 _tokenId) public view returns (bytes28[2]) {\n        return clovers[_tokenId].cloverMoves;\n    }\n    function getReward(uint256 _tokenId) public view returns (uint256) {\n        return clovers[_tokenId].rewards;\n    }\n    function getSymmetries(uint256 _tokenId) public view returns (uint256) {\n        return clovers[_tokenId].symmetries;\n    }\n    function getAllSymmetries() public view returns (uint256, uint256, uint256, uint256, uint256, uint256) {\n        return (\n            totalSymmetries,\n            symmetries[0], //RotSym,\n            symmetries[1], //Y0Sym,\n            symmetries[2], //X0Sym,\n            symmetries[3], //XYSym,\n            symmetries[4] //XnYSym\n        );\n    }\n\n/* ---------------------------------------------------------------------------------------------------------------------- */\n\n    /**\n    * @dev Moves Eth to a certain address for use in the CloversController\n    * @param _to The address to receive the Eth.\n    * @param _amount The amount of Eth to be transferred.\n    */\n    function moveEth(address _to, uint256 _amount) public onlyOwnerOrController {\n        require(_amount <= this.balance);\n        _to.transfer(_amount);\n    }\n    /**\n    * @dev Moves Token to a certain address for use in the CloversController\n    * @param _to The address to receive the Token.\n    * @param _amount The amount of Token to be transferred.\n    * @param _token The address of the Token to be transferred.\n    */\n    function moveToken(address _to, uint256 _amount, address _token) public onlyOwnerOrController returns (bool) {\n        require(_amount <= ERC20(_token).balanceOf(this));\n        return ERC20(_token).transfer(_to, _amount);\n    }\n    /**\n    * @dev Approves Tokens to a certain address for use in the CloversController\n    * @param _to The address to receive the Token approval.\n    * @param _amount The amount of Token to be approved.\n    * @param _token The address of the Token to be approved.\n    */\n    function approveToken(address _to, uint256 _amount, address _token) public onlyOwnerOrController returns (bool) {\n        return ERC20(_token).approve(_to, _amount);\n    }\n\n    /**\n    * @dev Sets whether the minter will keep the clover\n    * @param _tokenId The token Id.\n    * @param value Whether the clover will be kept.\n    */\n    function setKeep(uint256 _tokenId, bool value) public onlyOwnerOrController {\n        clovers[_tokenId].keep = value;\n    }\n    function setBlockMinted(uint256 _tokenId, uint256 value) public onlyOwnerOrController {\n        clovers[_tokenId].blockMinted = value;\n    }\n    function setCloverMoves(uint256 _tokenId, bytes28[2] moves) public onlyOwnerOrController {\n        clovers[_tokenId].cloverMoves = moves;\n    }\n    function setReward(uint256 _tokenId, uint256 _amount) public onlyOwnerOrController {\n        clovers[_tokenId].rewards = _amount;\n    }\n    function setSymmetries(uint256 _tokenId, uint256 _symmetries) public onlyOwnerOrController {\n        clovers[_tokenId].symmetries = _symmetries;\n    }\n\n    /**\n    * @dev Sets total tallies of symmetry counts. For use by the controller to correct for invalid Clovers.\n    * @param _totalSymmetries The total number of Symmetries.\n    * @param RotSym The total number of RotSym Symmetries.\n    * @param Y0Sym The total number of Y0Sym Symmetries.\n    * @param X0Sym The total number of X0Sym Symmetries.\n    * @param XYSym The total number of XYSym Symmetries.\n    * @param XnYSym The total number of XnYSym Symmetries.\n    */\n    function setAllSymmetries(uint256 _totalSymmetries, uint256 RotSym, uint256 Y0Sym, uint256 X0Sym, uint256 XYSym, uint256 XnYSym) public onlyOwnerOrController {\n        totalSymmetries = _totalSymmetries;\n        symmetries[0] = RotSym;\n        symmetries[1] = Y0Sym;\n        symmetries[2] = X0Sym;\n        symmetries[3] = XYSym;\n        symmetries[4] = XnYSym;\n    }\n\n    /**\n    * @dev Deletes data about a Clover.\n    * @param _tokenId The Id of the clover token to be deleted.\n    */\n    function deleteClover(uint256 _tokenId) public onlyOwnerOrController {\n        delete(clovers[_tokenId]);\n        unmint(_tokenId);\n    }\n    /**\n    * @dev Updates the CloversController contract address and approves that contract to manage the Clovers owned by the Clovers contract.\n    * @param _cloversController The address of the new contract.\n    */\n    function updateCloversControllerAddress(address _cloversController) public onlyOwner {\n        require(_cloversController != 0);\n        cloversController = _cloversController;\n    }\n\n\n\n    /**\n    * @dev Updates the CloversMetadata contract address.\n    * @param _cloversMetadata The address of the new contract.\n    */\n    function updateCloversMetadataAddress(address _cloversMetadata) public onlyOwner {\n        require(_cloversMetadata != 0);\n        cloversMetadata = _cloversMetadata;\n    }\n\n    function updateClubTokenController(address _clubTokenController) public onlyOwner {\n        require(_clubTokenController != 0);\n        clubTokenController = _clubTokenController;\n    }\n\n    /**\n    * @dev Mints new Clovers.\n    * @param _to The address of the new clover owner.\n    * @param _tokenId The Id of the new clover token.\n    */\n    function mint (address _to, uint256 _tokenId) public onlyOwnerOrController {\n        super._mint(_to, _tokenId);\n        setApprovalForAll(clubTokenController, true);\n    }\n    /**\n    * @dev Unmints Clovers.\n    * @param _tokenId The Id of the clover token to be destroyed.\n    */\n    function unmint (uint256 _tokenId) public onlyOwnerOrController {\n        super._burn(ownerOf(_tokenId), _tokenId);\n    }\n\n\n}\n",
  "sourcePath": "/home/billyrennekamp/GitHub.com/clovers-network/clovers-contracts/contracts/Clovers.sol",
  "compiler": {
    "name": "solc",
    "version": "0.4.24+commit.e67f0147.Emscripten.clang"
  },
  "schemaVersion": "2.0.1",
  "updatedAt": "2019-06-05T10:05:13.652Z"
}