{
  "contractName": "CloversController",
  "abi": [
    {
      "constant": true,
      "inputs": [],
      "name": "clovers",
      "outputs": [
        {
          "name": "",
          "type": "address"
        }
      ],
      "payable": false,
      "stateMutability": "view",
      "type": "function"
    },
    {
      "constant": false,
      "inputs": [
        {
          "name": "token",
          "type": "address"
        }
      ],
      "name": "reclaimToken",
      "outputs": [],
      "payable": false,
      "stateMutability": "nonpayable",
      "type": "function"
    },
    {
      "constant": true,
      "inputs": [],
      "name": "payMultiplier",
      "outputs": [
        {
          "name": "",
          "type": "uint256"
        }
      ],
      "payable": false,
      "stateMutability": "view",
      "type": "function"
    },
    {
      "constant": true,
      "inputs": [
        {
          "name": "",
          "type": "bytes32"
        }
      ],
      "name": "commits",
      "outputs": [
        {
          "name": "collected",
          "type": "bool"
        },
        {
          "name": "stake",
          "type": "uint256"
        },
        {
          "name": "committer",
          "type": "address"
        }
      ],
      "payable": false,
      "stateMutability": "view",
      "type": "function"
    },
    {
      "constant": true,
      "inputs": [],
      "name": "stakeAmount",
      "outputs": [
        {
          "name": "",
          "type": "uint256"
        }
      ],
      "payable": false,
      "stateMutability": "view",
      "type": "function"
    },
    {
      "constant": false,
      "inputs": [],
      "name": "renounceOwnership",
      "outputs": [],
      "payable": false,
      "stateMutability": "nonpayable",
      "type": "function"
    },
    {
      "constant": true,
      "inputs": [],
      "name": "curationMarket",
      "outputs": [
        {
          "name": "",
          "type": "address"
        }
      ],
      "payable": false,
      "stateMutability": "view",
      "type": "function"
    },
    {
      "constant": true,
      "inputs": [],
      "name": "oracle",
      "outputs": [
        {
          "name": "",
          "type": "address"
        }
      ],
      "payable": false,
      "stateMutability": "view",
      "type": "function"
    },
    {
      "constant": true,
      "inputs": [],
      "name": "owner",
      "outputs": [
        {
          "name": "",
          "type": "address"
        }
      ],
      "payable": false,
      "stateMutability": "view",
      "type": "function"
    },
    {
      "constant": true,
      "inputs": [],
      "name": "simpleCloversMarket",
      "outputs": [
        {
          "name": "",
          "type": "address"
        }
      ],
      "payable": false,
      "stateMutability": "view",
      "type": "function"
    },
    {
      "constant": false,
      "inputs": [],
      "name": "reclaimEther",
      "outputs": [],
      "payable": false,
      "stateMutability": "nonpayable",
      "type": "function"
    },
    {
      "constant": true,
      "inputs": [],
      "name": "clubTokenController",
      "outputs": [
        {
          "name": "",
          "type": "address"
        }
      ],
      "payable": false,
      "stateMutability": "view",
      "type": "function"
    },
    {
      "constant": false,
      "inputs": [
        {
          "name": "from_",
          "type": "address"
        },
        {
          "name": "value_",
          "type": "uint256"
        },
        {
          "name": "data_",
          "type": "bytes"
        }
      ],
      "name": "tokenFallback",
      "outputs": [],
      "payable": false,
      "stateMutability": "nonpayable",
      "type": "function"
    },
    {
      "constant": true,
      "inputs": [],
      "name": "stakePeriod",
      "outputs": [
        {
          "name": "",
          "type": "uint256"
        }
      ],
      "payable": false,
      "stateMutability": "view",
      "type": "function"
    },
    {
      "constant": true,
      "inputs": [],
      "name": "basePrice",
      "outputs": [
        {
          "name": "",
          "type": "uint256"
        }
      ],
      "payable": false,
      "stateMutability": "view",
      "type": "function"
    },
    {
      "constant": true,
      "inputs": [],
      "name": "priceMultiplier",
      "outputs": [
        {
          "name": "",
          "type": "uint256"
        }
      ],
      "payable": false,
      "stateMutability": "view",
      "type": "function"
    },
    {
      "constant": true,
      "inputs": [],
      "name": "clubToken",
      "outputs": [
        {
          "name": "",
          "type": "address"
        }
      ],
      "payable": false,
      "stateMutability": "view",
      "type": "function"
    },
    {
      "constant": false,
      "inputs": [
        {
          "name": "_newOwner",
          "type": "address"
        }
      ],
      "name": "transferOwnership",
      "outputs": [],
      "payable": false,
      "stateMutability": "nonpayable",
      "type": "function"
    },
    {
      "inputs": [
        {
          "name": "_clovers",
          "type": "address"
        },
        {
          "name": "_clubToken",
          "type": "address"
        },
        {
          "name": "_clubTokenController",
          "type": "address"
        }
      ],
      "payable": false,
      "stateMutability": "nonpayable",
      "type": "constructor"
    },
    {
      "payable": false,
      "stateMutability": "nonpayable",
      "type": "fallback"
    },
    {
      "anonymous": false,
      "inputs": [
        {
          "indexed": false,
          "name": "movesHash",
          "type": "bytes32"
        },
        {
          "indexed": false,
          "name": "owner",
          "type": "address"
        }
      ],
      "name": "cloverCommitted",
      "type": "event"
    },
    {
      "anonymous": false,
      "inputs": [
        {
          "indexed": false,
          "name": "moves",
          "type": "bytes28[2]"
        },
        {
          "indexed": false,
          "name": "tokenId",
          "type": "uint256"
        },
        {
          "indexed": false,
          "name": "owner",
          "type": "address"
        },
        {
          "indexed": false,
          "name": "stake",
          "type": "uint256"
        },
        {
          "indexed": false,
          "name": "reward",
          "type": "uint256"
        },
        {
          "indexed": false,
          "name": "symmetries",
          "type": "uint256"
        },
        {
          "indexed": false,
          "name": "keep",
          "type": "bool"
        }
      ],
      "name": "cloverClaimed",
      "type": "event"
    },
    {
      "anonymous": false,
      "inputs": [
        {
          "indexed": false,
          "name": "tokenId",
          "type": "uint256"
        },
        {
          "indexed": false,
          "name": "owner",
          "type": "address"
        },
        {
          "indexed": false,
          "name": "stake",
          "type": "uint256"
        }
      ],
      "name": "stakeRetrieved",
      "type": "event"
    },
    {
      "anonymous": false,
      "inputs": [
        {
          "indexed": false,
          "name": "moves",
          "type": "bytes28[2]"
        },
        {
          "indexed": false,
          "name": "tokenId",
          "type": "uint256"
        },
        {
          "indexed": false,
          "name": "owner",
          "type": "address"
        },
        {
          "indexed": false,
          "name": "challenger",
          "type": "address"
        },
        {
          "indexed": false,
          "name": "stake",
          "type": "uint256"
        }
      ],
      "name": "cloverChallenged",
      "type": "event"
    },
    {
      "anonymous": false,
      "inputs": [
        {
          "indexed": true,
          "name": "previousOwner",
          "type": "address"
        }
      ],
      "name": "OwnershipRenounced",
      "type": "event"
    },
    {
      "anonymous": false,
      "inputs": [
        {
          "indexed": true,
          "name": "previousOwner",
          "type": "address"
        },
        {
          "indexed": true,
          "name": "newOwner",
          "type": "address"
        }
      ],
      "name": "OwnershipTransferred",
      "type": "event"
    },
    {
      "constant": true,
      "inputs": [
        {
          "name": "movesHash",
          "type": "bytes32"
        }
      ],
      "name": "getStake",
      "outputs": [
        {
          "name": "",
          "type": "uint256"
        }
      ],
      "payable": false,
      "stateMutability": "view",
      "type": "function"
    },
    {
      "constant": true,
      "inputs": [
        {
          "name": "movesHash",
          "type": "bytes32"
        }
      ],
      "name": "getCommit",
      "outputs": [
        {
          "name": "",
          "type": "address"
        }
      ],
      "payable": false,
      "stateMutability": "view",
      "type": "function"
    },
    {
      "constant": true,
      "inputs": [
        {
          "name": "_tokenId",
          "type": "uint256"
        }
      ],
      "name": "getMovesHash",
      "outputs": [
        {
          "name": "",
          "type": "bytes32"
        }
      ],
      "payable": false,
      "stateMutability": "view",
      "type": "function"
    },
    {
      "constant": true,
      "inputs": [
        {
          "name": "moves",
          "type": "bytes28[2]"
        }
      ],
      "name": "isValid",
      "outputs": [
        {
          "name": "",
          "type": "bool"
        }
      ],
      "payable": false,
      "stateMutability": "view",
      "type": "function"
    },
    {
      "constant": true,
      "inputs": [
        {
          "components": [
            {
              "name": "error",
              "type": "bool"
            },
            {
              "name": "complete",
              "type": "bool"
            },
            {
              "name": "symmetrical",
              "type": "bool"
            },
            {
              "name": "RotSym",
              "type": "bool"
            },
            {
              "name": "Y0Sym",
              "type": "bool"
            },
            {
              "name": "X0Sym",
              "type": "bool"
            },
            {
              "name": "XYSym",
              "type": "bool"
            },
            {
              "name": "XnYSym",
              "type": "bool"
            },
            {
              "name": "board",
              "type": "bytes16"
            },
            {
              "name": "first32Moves",
              "type": "bytes28"
            },
            {
              "name": "lastMoves",
              "type": "bytes28"
            },
            {
              "name": "currentPlayer",
              "type": "uint8"
            },
            {
              "name": "moveKey",
              "type": "uint8"
            },
            {
              "name": "blackScore",
              "type": "uint8"
            },
            {
              "name": "whiteScore",
              "type": "uint8"
            }
          ],
          "name": "game",
          "type": "tuple"
        }
      ],
      "name": "isValidGame",
      "outputs": [
        {
          "name": "",
          "type": "bool"
        }
      ],
      "payable": false,
      "stateMutability": "pure",
      "type": "function"
    },
    {
      "constant": true,
      "inputs": [
        {
          "name": "_tokenId",
          "type": "uint256"
        }
      ],
      "name": "isVerified",
      "outputs": [
        {
          "name": "",
          "type": "bool"
        }
      ],
      "payable": false,
      "stateMutability": "view",
      "type": "function"
    },
    {
      "constant": true,
      "inputs": [
        {
          "name": "_symmetries",
          "type": "uint256"
        }
      ],
      "name": "calculateReward",
      "outputs": [
        {
          "name": "",
          "type": "uint256"
        }
      ],
      "payable": false,
      "stateMutability": "view",
      "type": "function"
    },
    {
      "constant": false,
      "inputs": [
        {
          "name": "moves",
          "type": "bytes28[2]"
        },
        {
          "name": "_tokenId",
          "type": "uint256"
        },
        {
          "name": "_symmetries",
          "type": "uint256"
        },
        {
          "name": "_keep",
          "type": "bool"
        }
      ],
      "name": "claimClover",
      "outputs": [
        {
          "name": "",
          "type": "bool"
        }
      ],
      "payable": true,
      "stateMutability": "payable",
      "type": "function"
    },
    {
      "constant": false,
      "inputs": [
        {
          "name": "_tokenId",
          "type": "uint256"
        }
      ],
      "name": "retrieveStake",
      "outputs": [
        {
          "name": "",
          "type": "bool"
        }
      ],
      "payable": true,
      "stateMutability": "payable",
      "type": "function"
    },
    {
      "constant": true,
      "inputs": [
        {
          "name": "_board",
          "type": "bytes16"
        }
      ],
      "name": "convertBytes16ToUint",
      "outputs": [
        {
          "name": "number",
          "type": "uint256"
        }
      ],
      "payable": false,
      "stateMutability": "view",
      "type": "function"
    },
    {
      "constant": false,
      "inputs": [
        {
          "name": "_tokenId",
          "type": "uint256"
        }
      ],
      "name": "challengeClover",
      "outputs": [
        {
          "name": "",
          "type": "bool"
        }
      ],
      "payable": false,
      "stateMutability": "nonpayable",
      "type": "function"
    },
    {
      "constant": false,
      "inputs": [
        {
          "name": "_from",
          "type": "address"
        },
        {
          "name": "_to",
          "type": "address"
        },
        {
          "name": "_tokenId",
          "type": "uint256"
        }
      ],
      "name": "transferFrom",
      "outputs": [],
      "payable": false,
      "stateMutability": "nonpayable",
      "type": "function"
    },
    {
      "constant": false,
      "inputs": [
        {
          "name": "_curationMarket",
          "type": "address"
        }
      ],
      "name": "updateCurationMarket",
      "outputs": [],
      "payable": false,
      "stateMutability": "nonpayable",
      "type": "function"
    },
    {
      "constant": false,
      "inputs": [
        {
          "name": "_oracle",
          "type": "address"
        }
      ],
      "name": "updateOracle",
      "outputs": [],
      "payable": false,
      "stateMutability": "nonpayable",
      "type": "function"
    },
    {
      "constant": false,
      "inputs": [
        {
          "name": "_simpleCloversMarket",
          "type": "address"
        }
      ],
      "name": "updateSimpleCloversMarket",
      "outputs": [],
      "payable": false,
      "stateMutability": "nonpayable",
      "type": "function"
    },
    {
      "constant": false,
      "inputs": [
        {
          "name": "_clubTokenController",
          "type": "address"
        }
      ],
      "name": "updateClubTokenController",
      "outputs": [],
      "payable": false,
      "stateMutability": "nonpayable",
      "type": "function"
    },
    {
      "constant": false,
      "inputs": [
        {
          "name": "_stakeAmount",
          "type": "uint256"
        }
      ],
      "name": "updateStakeAmount",
      "outputs": [],
      "payable": false,
      "stateMutability": "nonpayable",
      "type": "function"
    },
    {
      "constant": false,
      "inputs": [
        {
          "name": "_stakePeriod",
          "type": "uint256"
        }
      ],
      "name": "updateStakePeriod",
      "outputs": [],
      "payable": false,
      "stateMutability": "nonpayable",
      "type": "function"
    },
    {
      "constant": false,
      "inputs": [
        {
          "name": "_payMultiplier",
          "type": "uint256"
        }
      ],
      "name": "updatePayMultipier",
      "outputs": [],
      "payable": false,
      "stateMutability": "nonpayable",
      "type": "function"
    },
    {
      "constant": false,
      "inputs": [
        {
          "name": "_priceMultiplier",
          "type": "uint256"
        }
      ],
      "name": "updatePriceMultipier",
      "outputs": [],
      "payable": false,
      "stateMutability": "nonpayable",
      "type": "function"
    },
    {
      "constant": false,
      "inputs": [
        {
          "name": "_basePrice",
          "type": "uint256"
        }
      ],
      "name": "updateBasePrice",
      "outputs": [],
      "payable": false,
      "stateMutability": "nonpayable",
      "type": "function"
    },
    {
      "constant": false,
      "inputs": [
        {
          "name": "movesHash",
          "type": "bytes32"
        },
        {
          "name": "committer",
          "type": "address"
        }
      ],
      "name": "_setCommit",
      "outputs": [],
      "payable": false,
      "stateMutability": "nonpayable",
      "type": "function"
    }
  ],
  "bytecode": "0x60806040523480156200001157600080fd5b5060405160608062006074833981018060405262000033919081019062000165565b336000806101000a81548173ffffffffffffffffffffffffffffffffffffffff021916908373ffffffffffffffffffffffffffffffffffffffff1602179055506000341415156200008357600080fd5b82600260006101000a81548173ffffffffffffffffffffffffffffffffffffffff021916908373ffffffffffffffffffffffffffffffffffffffff16021790555081600360006101000a81548173ffffffffffffffffffffffffffffffffffffffff021916908373ffffffffffffffffffffffffffffffffffffffff16021790555080600460006101000a81548173ffffffffffffffffffffffffffffffffffffffff021916908373ffffffffffffffffffffffffffffffffffffffff160217905550505050620001db565b60006200015d8251620001bb565b905092915050565b6000806000606084860312156200017b57600080fd5b60006200018b868287016200014f565b93505060206200019e868287016200014f565b9250506040620001b1868287016200014f565b9150509250925092565b600073ffffffffffffffffffffffffffffffffffffffff82169050919050565b615e8980620001eb6000396000f3006080604052600436106101ed576000357c0100000000000000000000000000000000000000000000000000000000900463ffffffff1680627173c8146101fc5780630d576bfa1461022557806317ffc320146102505780631cb44dfc1461027957806323b872dd146102a2578063271eff94146102cb57806337b6d96b146103085780633afcba961461034557806343be08801461037057806346d2ce20146103a057806347885781146103c95780635759f3f71461040857806360c7dc4714610431578063715018a61461045c57806372420f06146104735780637b7db9fa1461049e5780637dc0d1d0146104db5780638784ea96146105065780638a05aafa146105435780638da5cb5b1461056c5780639564e18014610597578063975e4b2a146105c05780639f727c27146105eb578063a4a83ca614610602578063a7e901b01461063f578063a89b55da14610668578063c0ee0b8a14610693578063c1699a99146106bc578063c1fe551a146106e7578063c7876ea414610717578063c90054ee14610742578063d010ed701461076b578063d09687f714610794578063d2d7231f146107d1578063d50cb88b1461080e578063d76bbd5214610839578063e765c12214610864578063f2fde38b146108a1578063f8a68a56146108ca578063fd5baa8814610907575b3480156101f957600080fd5b50005b34801561020857600080fd5b50610223600480360361021e9190810190615569565b610930565b005b34801561023157600080fd5b5061023a6109cf565b604051610247919061598c565b60405180910390f35b34801561025c57600080fd5b50610277600480360361027291908101906157b9565b6109f5565b005b34801561028557600080fd5b506102a0600480360361029b9190810190615569565b610b4b565b005b3480156102ae57600080fd5b506102c960048036036102c49190810190615592565b610bea565b005b3480156102d757600080fd5b506102f260048036036102ed919081019061564d565b610d50565b6040516102ff9190615aca565b60405180910390f35b34801561031457600080fd5b5061032f600480360361032a919081019061580c565b610d76565b60405161033c9190615aca565b60405180910390f35b34801561035157600080fd5b5061035a610e76565b6040516103679190615b7b565b60405180910390f35b61038a6004803603610385919081019061569f565b610e7c565b6040516103979190615aca565b60405180910390f35b3480156103ac57600080fd5b506103c760048036036103c2919081019061577d565b6118b4565b005b3480156103d557600080fd5b506103f060048036036103eb9190810190615754565b61191d565b6040516103ff93929190615ae5565b60405180910390f35b34801561041457600080fd5b5061042f600480360361042a919081019061580c565b611974565b005b34801561043d57600080fd5b506104466119d9565b6040516104539190615b7b565b60405180910390f35b34801561046857600080fd5b506104716119df565b005b34801561047f57600080fd5b50610488611ae1565b604051610495919061598c565b60405180910390f35b3480156104aa57600080fd5b506104c560048036036104c0919081019061580c565b611b07565b6040516104d29190615aca565b60405180910390f35b3480156104e757600080fd5b506104f06120d6565b6040516104fd919061598c565b60405180910390f35b34801561051257600080fd5b5061052d60048036036105289190810190615754565b6120fc565b60405161053a919061598c565b60405180910390f35b34801561054f57600080fd5b5061056a6004803603610565919081019061580c565b612144565b005b34801561057857600080fd5b506105816121a9565b60405161058e919061598c565b60405180910390f35b3480156105a357600080fd5b506105be60048036036105b99190810190615569565b6121ce565b005b3480156105cc57600080fd5b506105d561226d565b6040516105e2919061598c565b60405180910390f35b3480156105f757600080fd5b50610600612293565b005b34801561060e57600080fd5b506106296004803603610624919081019061572b565b61236f565b6040516106369190615b7b565b60405180910390f35b34801561064b57600080fd5b506106666004803603610661919081019061580c565b6123ff565b005b34801561067457600080fd5b5061067d612464565b60405161068a919061598c565b60405180910390f35b34801561069f57600080fd5b506106ba60048036036106b591908101906155e1565b61248a565b005b3480156106c857600080fd5b506106d161248f565b6040516106de9190615b7b565b60405180910390f35b61070160048036036106fc919081019061580c565b612495565b60405161070e9190615aca565b60405180910390f35b34801561072357600080fd5b5061072c612d0e565b6040516107399190615b7b565b60405180910390f35b34801561074e57600080fd5b506107696004803603610764919081019061580c565b612d14565b005b34801561077757600080fd5b50610792600480360361078d9190810190615569565b612d79565b005b3480156107a057600080fd5b506107bb60048036036107b6919081019061580c565b612e18565b6040516107c89190615b1c565b60405180910390f35b3480156107dd57600080fd5b506107f860048036036107f3919081019061580c565b612f26565b6040516108059190615b7b565b60405180910390f35b34801561081a57600080fd5b506108236131bc565b6040516108309190615b7b565b60405180910390f35b34801561084557600080fd5b5061084e6131c2565b60405161085b919061598c565b60405180910390f35b34801561087057600080fd5b5061088b60048036036108869190810190615754565b6131e8565b6040516108989190615b7b565b60405180910390f35b3480156108ad57600080fd5b506108c860048036036108c39190810190615569565b613210565b005b3480156108d657600080fd5b506108f160048036036108ec91908101906157e2565b613277565b6040516108fe9190615aca565b60405180910390f35b34801561091357600080fd5b5061092e6004803603610929919081019061580c565b6132aa565b005b6000809054906101000a900473ffffffffffffffffffffffffffffffffffffffff1673ffffffffffffffffffffffffffffffffffffffff163373ffffffffffffffffffffffffffffffffffffffff1614151561098b57600080fd5b80600660006101000a81548173ffffffffffffffffffffffffffffffffffffffff021916908373ffffffffffffffffffffffffffffffffffffffff16021790555050565b600260009054906101000a900473ffffffffffffffffffffffffffffffffffffffff1681565b60008060009054906101000a900473ffffffffffffffffffffffffffffffffffffffff1673ffffffffffffffffffffffffffffffffffffffff163373ffffffffffffffffffffffffffffffffffffffff16141515610a5257600080fd5b8173ffffffffffffffffffffffffffffffffffffffff166370a08231306040518263ffffffff167c0100000000000000000000000000000000000000000000000000000000028152600401610aa79190615b60565b602060405180830381600087803b158015610ac157600080fd5b505af1158015610ad5573d6000803e3d6000fd5b505050506040513d601f19601f82011682018060405250610af99190810190615835565b9050610b476000809054906101000a900473ffffffffffffffffffffffffffffffffffffffff16828473ffffffffffffffffffffffffffffffffffffffff1661330f9092919063ffffffff16565b5050565b6000809054906101000a900473ffffffffffffffffffffffffffffffffffffffff1673ffffffffffffffffffffffffffffffffffffffff163373ffffffffffffffffffffffffffffffffffffffff16141515610ba657600080fd5b80600160006101000a81548173ffffffffffffffffffffffffffffffffffffffff021916908373ffffffffffffffffffffffffffffffffffffffff16021790555050565b600560009054906101000a900473ffffffffffffffffffffffffffffffffffffffff1673ffffffffffffffffffffffffffffffffffffffff163373ffffffffffffffffffffffffffffffffffffffff161480610c935750600660009054906101000a900473ffffffffffffffffffffffffffffffffffffffff1673ffffffffffffffffffffffffffffffffffffffff163373ffffffffffffffffffffffffffffffffffffffff16145b1515610c9e57600080fd5b600260009054906101000a900473ffffffffffffffffffffffffffffffffffffffff1673ffffffffffffffffffffffffffffffffffffffff166323b872dd8484846040518463ffffffff167c0100000000000000000000000000000000000000000000000000000000028152600401610d19939291906159a7565b600060405180830381600087803b158015610d3357600080fd5b505af1158015610d47573d6000803e3d6000fd5b50505050505050565b6000610d5a615039565b610d63836133c8565b9050610d6e81613277565b915050919050565b600080600260009054906101000a900473ffffffffffffffffffffffffffffffffffffffff1673ffffffffffffffffffffffffffffffffffffffff166303a53d6b846040518263ffffffff167c0100000000000000000000000000000000000000000000000000000000028152600401610df09190615b7b565b602060405180830381600087803b158015610e0a57600080fd5b505af1158015610e1e573d6000803e3d6000fd5b505050506040513d601f19601f82011682018060405250610e429190810190615835565b90506000811415610e565760009150610e70565b600b54610e6c824361370c90919063ffffffff16565b1191505b50919050565b60095481565b600080600080876040518082600260200280838360005b83811015610eae578082015181840152602081019050610e93565b5050505090500191505060405180910390209250600a543410151515610ed357600080fd5b6000610ede846120fc565b73ffffffffffffffffffffffffffffffffffffffff16141515610f0057600080fd5b610f0a8333613725565b6000600a541115610f8d57610f2183600a54613786565b600260009054906101000a900473ffffffffffffffffffffffffffffffffffffffff1673ffffffffffffffffffffffffffffffffffffffff166108fc600a549081150290604051600060405180830381858888f19350505050158015610f8b573d6000803e3d6000fd5b505b7f4c0f83654ac2972673e4d81058f833de298389df1dce04cc2db9f231b907d5ff8333604051610fbe929190615b37565b60405180910390a1600260009054906101000a900473ffffffffffffffffffffffffffffffffffffffff1673ffffffffffffffffffffffffffffffffffffffff16634f558e79886040518263ffffffff167c010000000000000000000000000000000000000000000000000000000002815260040161103d9190615b7b565b602060405180830381600087803b15801561105757600080fd5b505af115801561106b573d6000803e3d6000fd5b505050506040513d601f19601f8201168201806040525061108f9190810190615702565b15151561109b57600080fd5b6000600260009054906101000a900473ffffffffffffffffffffffffffffffffffffffff1673ffffffffffffffffffffffffffffffffffffffff166303a53d6b896040518263ffffffff167c01000000000000000000000000000000000000000000000000000000000281526004016111149190615b7b565b602060405180830381600087803b15801561112e57600080fd5b505af1158015611142573d6000803e3d6000fd5b505050506040513d601f19601f820116820180604052506111669190810190615835565b14151561117257600080fd5b600260009054906101000a900473ffffffffffffffffffffffffffffffffffffffff1673ffffffffffffffffffffffffffffffffffffffff1663e3100d1e88436040518363ffffffff167c01000000000000000000000000000000000000000000000000000000000281526004016111eb929190615c1f565b600060405180830381600087803b15801561120557600080fd5b505af1158015611219573d6000803e3d6000fd5b50505050600260009054906101000a900473ffffffffffffffffffffffffffffffffffffffff1673ffffffffffffffffffffffffffffffffffffffff16630b628395888a6040518363ffffffff167c0100000000000000000000000000000000000000000000000000000000028152600401611296929190615bcd565b600060405180830381600087803b1580156112b057600080fd5b505af11580156112c4573d6000803e3d6000fd5b50505050600260009054906101000a900473ffffffffffffffffffffffffffffffffffffffff1673ffffffffffffffffffffffffffffffffffffffff166376e4a87f88876040518363ffffffff167c0100000000000000000000000000000000000000000000000000000000028152600401611341929190615bf6565b600060405180830381600087803b15801561135b57600080fd5b505af115801561136f573d6000803e3d6000fd5b5050505060008611156114de57600260009054906101000a900473ffffffffffffffffffffffffffffffffffffffff1673ffffffffffffffffffffffffffffffffffffffff1663dc3f775888886040518363ffffffff167c01000000000000000000000000000000000000000000000000000000000281526004016113f5929190615c1f565b600060405180830381600087803b15801561140f57600080fd5b505af1158015611423573d6000803e3d6000fd5b5050505061143086612f26565b9150600260009054906101000a900473ffffffffffffffffffffffffffffffffffffffff1673ffffffffffffffffffffffffffffffffffffffff1663a47bd49688846040518363ffffffff167c01000000000000000000000000000000000000000000000000000000000281526004016114ab929190615c1f565b600060405180830381600087803b1580156114c557600080fd5b505af11580156114d9573d6000803e3d6000fd5b505050505b6114f3826007546137ad90919063ffffffff16565b90508480156115025750600081115b156117935780600360009054906101000a900473ffffffffffffffffffffffffffffffffffffffff1673ffffffffffffffffffffffffffffffffffffffff166370a08231336040518263ffffffff167c010000000000000000000000000000000000000000000000000000000002815260040161157f919061598c565b602060405180830381600087803b15801561159957600080fd5b505af11580156115ad573d6000803e3d6000fd5b505050506040513d601f19601f820116820180604052506115d19190810190615835565b10156116a257600460009054906101000a900473ffffffffffffffffffffffffffffffffffffffff1673ffffffffffffffffffffffffffffffffffffffff1663f088d547336040518263ffffffff167c010000000000000000000000000000000000000000000000000000000002815260040161164e919061598c565b602060405180830381600087803b15801561166857600080fd5b505af115801561167c573d6000803e3d6000fd5b505050506040513d601f19601f820116820180604052506116a09190810190615702565b505b600360009054906101000a900473ffffffffffffffffffffffffffffffffffffffff1673ffffffffffffffffffffffffffffffffffffffff166323b872dd33600260009054906101000a900473ffffffffffffffffffffffffffffffffffffffff16846040518463ffffffff167c010000000000000000000000000000000000000000000000000000000002815260040161173f939291906159a7565b602060405180830381600087803b15801561175957600080fd5b505af115801561176d573d6000803e3d6000fd5b505050506040513d601f19601f820116820180604052506117919190810190615702565b505b600260009054906101000a900473ffffffffffffffffffffffffffffffffffffffff1673ffffffffffffffffffffffffffffffffffffffff166340c10f19600260009054906101000a900473ffffffffffffffffffffffffffffffffffffffff16896040518363ffffffff167c010000000000000000000000000000000000000000000000000000000002815260040161182e9291906159de565b600060405180830381600087803b15801561184857600080fd5b505af115801561185c573d6000803e3d6000fd5b505050507f1c3b3e1e72950ae52150ec48810521d17cea4b30c2a59c807d1ba2f8dff57e65888833600a54868b8b60405161189d9796959493929190615a5a565b60405180910390a160019350505050949350505050565b6000809054906101000a900473ffffffffffffffffffffffffffffffffffffffff1673ffffffffffffffffffffffffffffffffffffffff163373ffffffffffffffffffffffffffffffffffffffff1614151561190f57600080fd5b6119198282613725565b5050565b600c6020528060005260406000206000915090508060000160009054906101000a900460ff16908060010154908060020160009054906101000a900473ffffffffffffffffffffffffffffffffffffffff16905083565b6000809054906101000a900473ffffffffffffffffffffffffffffffffffffffff1673ffffffffffffffffffffffffffffffffffffffff163373ffffffffffffffffffffffffffffffffffffffff161415156119cf57600080fd5b80600b8190555050565b600a5481565b6000809054906101000a900473ffffffffffffffffffffffffffffffffffffffff1673ffffffffffffffffffffffffffffffffffffffff163373ffffffffffffffffffffffffffffffffffffffff16141515611a3a57600080fd5b6000809054906101000a900473ffffffffffffffffffffffffffffffffffffffff1673ffffffffffffffffffffffffffffffffffffffff167ff8df31144d9c2f0f6b59d69b8b98abd5459d07f2742c4df920b25aae33c6482060405160405180910390a260008060006101000a81548173ffffffffffffffffffffffffffffffffffffffff021916908373ffffffffffffffffffffffffffffffffffffffff160217905550565b600660009054906101000a900473ffffffffffffffffffffffffffffffffffffffff1681565b600080611b126150ed565b611b1a615039565b60008060008060019650600260009054906101000a900473ffffffffffffffffffffffffffffffffffffffff1673ffffffffffffffffffffffffffffffffffffffff166362f9acf98a6040518263ffffffff167c0100000000000000000000000000000000000000000000000000000000028152600401611b9b9190615b7b565b6040805180830381600087803b158015611bb457600080fd5b505af1158015611bc8573d6000803e3d6000fd5b505050506040513d601f19601f82011682018060405250611bec9190810190615676565b95506000809054906101000a900473ffffffffffffffffffffffffffffffffffffffff1673ffffffffffffffffffffffffffffffffffffffff163373ffffffffffffffffffffffffffffffffffffffff1614158015611c995750600160009054906101000a900473ffffffffffffffffffffffffffffffffffffffff1673ffffffffffffffffffffffffffffffffffffffff163373ffffffffffffffffffffffffffffffffffffffff1614155b15611e7d57611ca7866133c8565b945088611cb886610100015161236f565b141515611cc457600096505b868015611cd65750611cd585613277565b5b15611e6a57600260009054906101000a900473ffffffffffffffffffffffffffffffffffffffff1673ffffffffffffffffffffffffffffffffffffffff1663c53b4bf98a6040518263ffffffff167c0100000000000000000000000000000000000000000000000000000000028152600401611d529190615b7b565b602060405180830381600087803b158015611d6c57600080fd5b505af1158015611d80573d6000803e3d6000fd5b505050506040513d601f19601f82011682018060405250611da49190810190615835565b935084606001511515600060016004879060020a90041611151514611dca576000611dcc565b865b965084608001511515600060016003879060020a90041611151514611df2576000611df4565b865b96508460a001511515600060016002879060020a90041611151514611e1a576000611e1c565b865b96508460c0015115156000600180879060020a90041611151514611e41576000611e43565b865b96508460e00151151560006001861611151514611e61576000611e63565b865b9650611e6f565b600096505b86151515611e7c57600080fd5b5b856040518082600260200280838360005b83811015611ea9578082015181840152602081019050611e8e565b5050505090500191505060405180910390209250611ec6836131e8565b9150611ed189610d76565b158015611ede5750600082115b15611f8f57600260009054906101000a900473ffffffffffffffffffffffffffffffffffffffff1673ffffffffffffffffffffffffffffffffffffffff16631cc1472d33846040518363ffffffff167c0100000000000000000000000000000000000000000000000000000000028152600401611f5c9291906159de565b600060405180830381600087803b158015611f7657600080fd5b505af1158015611f8a573d6000803e3d6000fd5b505050505b600c6000846000191660001916815260200190815260200160002060000160009054906101000a900460ff1615611fca57611fc9896137c9565b5b611fd3836120fc565b90507f23e709ab80a4bee9454ba0d08c0b669d684531b4ec766524c43abd788cc3ca76868a83338660405161200c959493929190615a07565b60405180910390a1600260009054906101000a900473ffffffffffffffffffffffffffffffffffffffff1673ffffffffffffffffffffffffffffffffffffffff16630e8310d68a6040518263ffffffff167c010000000000000000000000000000000000000000000000000000000002815260040161208b9190615b7b565b600060405180830381600087803b1580156120a557600080fd5b505af11580156120b9573d6000803e3d6000fd5b505050506120c683613af2565b6001975050505050505050919050565b600160009054906101000a900473ffffffffffffffffffffffffffffffffffffffff1681565b6000600c6000836000191660001916815260200190815260200160002060020160009054906101000a900473ffffffffffffffffffffffffffffffffffffffff169050919050565b6000809054906101000a900473ffffffffffffffffffffffffffffffffffffffff1673ffffffffffffffffffffffffffffffffffffffff163373ffffffffffffffffffffffffffffffffffffffff1614151561219f57600080fd5b8060098190555050565b6000809054906101000a900473ffffffffffffffffffffffffffffffffffffffff1681565b6000809054906101000a900473ffffffffffffffffffffffffffffffffffffffff1673ffffffffffffffffffffffffffffffffffffffff163373ffffffffffffffffffffffffffffffffffffffff1614151561222957600080fd5b80600460006101000a81548173ffffffffffffffffffffffffffffffffffffffff021916908373ffffffffffffffffffffffffffffffffffffffff16021790555050565b600560009054906101000a900473ffffffffffffffffffffffffffffffffffffffff1681565b6000809054906101000a900473ffffffffffffffffffffffffffffffffffffffff1673ffffffffffffffffffffffffffffffffffffffff163373ffffffffffffffffffffffffffffffffffffffff161415156122ee57600080fd5b6000809054906101000a900473ffffffffffffffffffffffffffffffffffffffff1673ffffffffffffffffffffffffffffffffffffffff166108fc3073ffffffffffffffffffffffffffffffffffffffff16319081150290604051600060405180830381858888f1935050505015801561236c573d6000803e3d6000fd5b50565b600080600090505b601060ff168110156123f95760018101601060ff160360080260020a83826010811015156123a157fe5b1a7f0100000000000000000000000000000000000000000000000000000000000000027f0100000000000000000000000000000000000000000000000000000000000000900402820191508080600101915050612377565b50919050565b6000809054906101000a900473ffffffffffffffffffffffffffffffffffffffff1673ffffffffffffffffffffffffffffffffffffffff163373ffffffffffffffffffffffffffffffffffffffff1614151561245a57600080fd5b8060088190555050565b600460009054906101000a900473ffffffffffffffffffffffffffffffffffffffff1681565b600080fd5b600b5481565b600061249f6150ed565b6000806000806000600260009054906101000a900473ffffffffffffffffffffffffffffffffffffffff1673ffffffffffffffffffffffffffffffffffffffff166362f9acf9896040518263ffffffff167c010000000000000000000000000000000000000000000000000000000002815260040161251e9190615b7b565b6040805180830381600087803b15801561253757600080fd5b505af115801561254b573d6000803e3d6000fd5b505050506040513d601f19601f8201168201806040525061256f9190810190615676565b9550856040518082600260200280838360005b8381101561259d578082015181840152602081019050612582565b5050505090500191505060405180910390209450600c6000866000191660001916815260200190815260200160002060000160009054906101000a900460ff161515156125e957600080fd5b6001600c6000876000191660001916815260200190815260200160002060000160006101000a81548160ff02191690831515021790555061262988610d76565b8061268057506000809054906101000a900473ffffffffffffffffffffffffffffffffffffffff1673ffffffffffffffffffffffffffffffffffffffff163373ffffffffffffffffffffffffffffffffffffffff16145b806126d85750600160009054906101000a900473ffffffffffffffffffffffffffffffffffffffff1673ffffffffffffffffffffffffffffffffffffffff163373ffffffffffffffffffffffffffffffffffffffff16145b15156126e357600080fd5b6126ec856131e8565b93506126f788613b56565b612700856120fc565b92503373ffffffffffffffffffffffffffffffffffffffff168373ffffffffffffffffffffffffffffffffffffffff16148061278857506000809054906101000a900473ffffffffffffffffffffffffffffffffffffffff1673ffffffffffffffffffffffffffffffffffffffff163373ffffffffffffffffffffffffffffffffffffffff16145b806127e05750600160009054906101000a900473ffffffffffffffffffffffffffffffffffffffff1673ffffffffffffffffffffffffffffffffffffffff163373ffffffffffffffffffffffffffffffffffffffff16145b15156127eb57600080fd5b600260009054906101000a900473ffffffffffffffffffffffffffffffffffffffff1673ffffffffffffffffffffffffffffffffffffffff16631c4b774b896040518263ffffffff167c01000000000000000000000000000000000000000000000000000000000281526004016128629190615b7b565b602060405180830381600087803b15801561287c57600080fd5b505af1158015612890573d6000803e3d6000fd5b505050506040513d601f19601f820116820180604052506128b49190810190615835565b9150600260009054906101000a900473ffffffffffffffffffffffffffffffffffffffff1673ffffffffffffffffffffffffffffffffffffffff166304952631896040518263ffffffff167c010000000000000000000000000000000000000000000000000000000002815260040161292d9190615b7b565b602060405180830381600087803b15801561294757600080fd5b505af115801561295b573d6000803e3d6000fd5b505050506040513d601f19601f8201168201806040525061297f9190810190615702565b90508015612a5b57600260009054906101000a900473ffffffffffffffffffffffffffffffffffffffff1673ffffffffffffffffffffffffffffffffffffffff166323b872dd600260009054906101000a900473ffffffffffffffffffffffffffffffffffffffff16858b6040518463ffffffff167c0100000000000000000000000000000000000000000000000000000000028152600401612a24939291906159a7565b600060405180830381600087803b158015612a3e57600080fd5b505af1158015612a52573d6000803e3d6000fd5b50505050612c0f565b600560009054906101000a900473ffffffffffffffffffffffffffffffffffffffff1673ffffffffffffffffffffffffffffffffffffffff1663d79875eb89612ac3612ab260085487613e7f90919063ffffffff16565b6007546137ad90919063ffffffff16565b6040518363ffffffff167c0100000000000000000000000000000000000000000000000000000000028152600401612afc929190615c1f565b600060405180830381600087803b158015612b1657600080fd5b505af1158015612b2a573d6000803e3d6000fd5b505050506000821115612c0e57600360009054906101000a900473ffffffffffffffffffffffffffffffffffffffff1673ffffffffffffffffffffffffffffffffffffffff166340c10f1984846040518363ffffffff167c0100000000000000000000000000000000000000000000000000000000028152600401612bb09291906159de565b602060405180830381600087803b158015612bca57600080fd5b505af1158015612bde573d6000803e3d6000fd5b505050506040513d601f19601f82011682018060405250612c029190810190615702565b1515612c0d57600080fd5b5b5b6000841115612cc457600260009054906101000a900473ffffffffffffffffffffffffffffffffffffffff1673ffffffffffffffffffffffffffffffffffffffff16631cc1472d33866040518363ffffffff167c0100000000000000000000000000000000000000000000000000000000028152600401612c919291906159de565b600060405180830381600087803b158015612cab57600080fd5b505af1158015612cbf573d6000803e3d6000fd5b505050505b7fa8a1a24efbea93a5c7f29342ba7652cd030828e12cc15c1416480fecee73d589883386604051612cf793929190615b96565b60405180910390a160019650505050505050919050565b60075481565b6000809054906101000a900473ffffffffffffffffffffffffffffffffffffffff1673ffffffffffffffffffffffffffffffffffffffff163373ffffffffffffffffffffffffffffffffffffffff16141515612d6f57600080fd5b80600a8190555050565b6000809054906101000a900473ffffffffffffffffffffffffffffffffffffffff1673ffffffffffffffffffffffffffffffffffffffff163373ffffffffffffffffffffffffffffffffffffffff16141515612dd457600080fd5b80600560006101000a81548173ffffffffffffffffffffffffffffffffffffffff021916908373ffffffffffffffffffffffffffffffffffffffff16021790555050565b6000600260009054906101000a900473ffffffffffffffffffffffffffffffffffffffff1673ffffffffffffffffffffffffffffffffffffffff166362f9acf9836040518263ffffffff167c0100000000000000000000000000000000000000000000000000000000028152600401612e919190615b7b565b6040805180830381600087803b158015612eaa57600080fd5b505af1158015612ebe573d6000803e3d6000fd5b505050506040513d601f19601f82011682018060405250612ee29190810190615676565b6040518082600260200280838360005b83811015612f0d578082015181840152602081019050612ef2565b5050505090500191505060405180910390209050919050565b600080600080600080600080600260009054906101000a900473ffffffffffffffffffffffffffffffffffffffff1673ffffffffffffffffffffffffffffffffffffffff1663785d8d716040518163ffffffff167c010000000000000000000000000000000000000000000000000000000002815260040160c060405180830381600087803b158015612fb857600080fd5b505af1158015612fcc573d6000803e3d6000fd5b505050506040513d601f19601f82011682018060405250612ff0919081019061585e565b809750819850829950839a50849b50859c505050505050506000905060018060048b9060020a90041614156130615761305e61304f6001880161304160018b01600954613e7f90919063ffffffff16565b613eb790919063ffffffff16565b826137ad90919063ffffffff16565b90505b60018060038b9060020a90041614156130b6576130b36130a46001870161309660018b01600954613e7f90919063ffffffff16565b613eb790919063ffffffff16565b826137ad90919063ffffffff16565b90505b60018060028b9060020a900416141561310b576131086130f9600186016130eb60018b01600954613e7f90919063ffffffff16565b613eb790919063ffffffff16565b826137ad90919063ffffffff16565b90505b60018060018b9060020a90041614156131605761315d61314e6001850161314060018b01600954613e7f90919063ffffffff16565b613eb790919063ffffffff16565b826137ad90919063ffffffff16565b90505b6001808a1614156131ad576131aa61319b6001840161318d60018b01600954613e7f90919063ffffffff16565b613eb790919063ffffffff16565b826137ad90919063ffffffff16565b90505b80975050505050505050919050565b60085481565b600360009054906101000a900473ffffffffffffffffffffffffffffffffffffffff1681565b6000600c60008360001916600019168152602001908152602001600020600101549050919050565b6000809054906101000a900473ffffffffffffffffffffffffffffffffffffffff1673ffffffffffffffffffffffffffffffffffffffff163373ffffffffffffffffffffffffffffffffffffffff1614151561326b57600080fd5b61327481613ecd565b50565b600081600001511561328c57600090506132a5565b816020015115156132a057600090506132a5565b600190505b919050565b6000809054906101000a900473ffffffffffffffffffffffffffffffffffffffff1673ffffffffffffffffffffffffffffffffffffffff163373ffffffffffffffffffffffffffffffffffffffff1614151561330557600080fd5b8060078190555050565b8273ffffffffffffffffffffffffffffffffffffffff1663a9059cbb83836040518363ffffffff167c01000000000000000000000000000000000000000000000000000000000281526004016133669291906159de565b602060405180830381600087803b15801561338057600080fd5b505af1158015613394573d6000803e3d6000fd5b505050506040513d601f19601f820116820180604052506133b89190810190615702565b15156133c357600080fd5b505050565b6133d0615039565b6133d8615039565b6000806000806000808860006002811015156133f057fe5b602002015187610120019063ffffffff1916908163ffffffff19168152505088600160028110151561341e57fe5b602002015187610140019063ffffffff1916908163ffffffff191681525050600087610180019060ff16908160ff16815250506002876101a0019060ff16908160ff16815250506002876101c0019060ff16908160ff168152505060008760000190151590811515815250506000876020019015159081151581525050600187610160019060ff16908160ff16815250506ffffffffffffffe7ffdbfffffffffffff700100000000000000000000000000000000028761010001906fffffffffffffffffffffffffffffffff191690816fffffffffffffffffffffffffffffffff191681525050600091505b603c8260ff1610801561351b575085155b156136ca57602087610180015160ff161061353b57866101400151613542565b8661012001515b905061356481602089610180015160ff1681151561355c57fe5b066020613fc7565b945061356f8561400b565b80945081955050506135808561404a565b15955060008260ff161480156135a9575060028460ff161415806135a8575060038360ff1614155b5b156135c4576001955060018760000190151590811515815250505b851580156135d5575060088460ff16105b80156135e4575060088360ff16105b80156135f4575060008460ff1610155b8015613604575060008360ff1610155b156136bd5761361487858561405b565b965060018761018001510187610180019060ff16908160ff16815250508660000151156136bc576000876000019015159081151581525050600160ff1687610160015160ff16141561367957600287610160019060ff16908160ff168152505061368e565b600187610160019060ff16908160ff16815250505b61369987858561405b565b96508660000151156136bb576001876000019015159081151581525050600195505b5b5b818060010192505061350a565b866000015115156136fd5760008760000190151590811515815250506136ef8761435d565b96506136fa8761469c565b96505b86975050505050505050919050565b600082821115151561371a57fe5b818303905092915050565b80600c6000846000191660001916815260200190815260200160002060020160006101000a81548173ffffffffffffffffffffffffffffffffffffffff021916908373ffffffffffffffffffffffffffffffffffffffff1602179055505050565b80600c60008460001916600019168152602001908152602001600020600101819055505050565b600081830190508281101515156137c057fe5b80905092915050565b6000806000806000806000600260009054906101000a900473ffffffffffffffffffffffffffffffffffffffff1673ffffffffffffffffffffffffffffffffffffffff1663785d8d716040518163ffffffff167c010000000000000000000000000000000000000000000000000000000002815260040160c060405180830381600087803b15801561385a57600080fd5b505af115801561386e573d6000803e3d6000fd5b505050506040513d601f19601f82011682018060405250613892919081019061585e565b809750819850829950839a50849b50859c50505050505050600260009054906101000a900473ffffffffffffffffffffffffffffffffffffffff1673ffffffffffffffffffffffffffffffffffffffff1663c53b4bf9896040518263ffffffff167c01000000000000000000000000000000000000000000000000000000000281526004016139219190615b7b565b602060405180830381600087803b15801561393b57600080fd5b505af115801561394f573d6000803e3d6000fd5b505050506040513d601f19601f820116820180604052506139739190810190615835565b905061399c6000821161398757600061398a565b60015b60ff168861370c90919063ffffffff16565b96506139bc60016004839060020a9004168761370c90919063ffffffff16565b95506139dc60016003839060020a9004168661370c90919063ffffffff16565b94506139fc60016002839060020a9004168561370c90919063ffffffff16565b9350613a1b600180839060020a9004168461370c90919063ffffffff16565b9250613a33600182168361370c90919063ffffffff16565b9150600260009054906101000a900473ffffffffffffffffffffffffffffffffffffffff1673ffffffffffffffffffffffffffffffffffffffff16638b1b2ba88888888888886040518763ffffffff167c0100000000000000000000000000000000000000000000000000000000028152600401613ab696959493929190615c48565b600060405180830381600087803b158015613ad057600080fd5b505af1158015613ae4573d6000803e3d6000fd5b505050505050505050505050565b600c60008260001916600019168152602001908152602001600020600080820160006101000a81549060ff021916905560018201600090556002820160006101000a81549073ffffffffffffffffffffffffffffffffffffffff0219169055505050565b6000806000806000806000600260009054906101000a900473ffffffffffffffffffffffffffffffffffffffff1673ffffffffffffffffffffffffffffffffffffffff1663785d8d716040518163ffffffff167c010000000000000000000000000000000000000000000000000000000002815260040160c060405180830381600087803b158015613be757600080fd5b505af1158015613bfb573d6000803e3d6000fd5b505050506040513d601f19601f82011682018060405250613c1f919081019061585e565b809750819850829950839a50849b50859c50505050505050600260009054906101000a900473ffffffffffffffffffffffffffffffffffffffff1673ffffffffffffffffffffffffffffffffffffffff1663c53b4bf9896040518263ffffffff167c0100000000000000000000000000000000000000000000000000000000028152600401613cae9190615b7b565b602060405180830381600087803b158015613cc857600080fd5b505af1158015613cdc573d6000803e3d6000fd5b505050506040513d601f19601f82011682018060405250613d009190810190615835565b9050613d2960008211613d14576000613d17565b60015b60ff16886137ad90919063ffffffff16565b9650613d4960016004839060020a900416876137ad90919063ffffffff16565b9550613d6960016003839060020a900416866137ad90919063ffffffff16565b9450613d8960016002839060020a900416856137ad90919063ffffffff16565b9350613da8600180839060020a900416846137ad90919063ffffffff16565b9250613dc060018216836137ad90919063ffffffff16565b9150600260009054906101000a900473ffffffffffffffffffffffffffffffffffffffff1673ffffffffffffffffffffffffffffffffffffffff16638b1b2ba88888888888886040518763ffffffff167c0100000000000000000000000000000000000000000000000000000000028152600401613e4396959493929190615c48565b600060405180830381600087803b158015613e5d57600080fd5b505af1158015613e71573d6000803e3d6000fd5b505050505050505050505050565b600080831415613e925760009050613eb1565b8183029050818382811515613ea357fe5b04141515613ead57fe5b8090505b92915050565b60008183811515613ec457fe5b04905092915050565b600073ffffffffffffffffffffffffffffffffffffffff168173ffffffffffffffffffffffffffffffffffffffff1614151515613f0957600080fd5b8073ffffffffffffffffffffffffffffffffffffffff166000809054906101000a900473ffffffffffffffffffffffffffffffffffffffff1673ffffffffffffffffffffffffffffffffffffffff167f8be0079c531659141344cd1fd0a4f28419497f9722a3daafe3b4186f6b6457e060405160405180910390a3806000806101000a81548173ffffffffffffffffffffffffffffffffffffffff021916908373ffffffffffffffffffffffffffffffffffffffff16021790555050565b6000806000607f64010000000002915060078086026007860203039050818160ff168763ffffffff19169060020a9004166401000000009004925050509392505050565b60008060008060408503945060088560ff1681151561402657fe5b069150600882860360ff1681151561403a57fe5b0490508181935093505050915091565b600060408260ff1610159050919050565b614063615039565b61406b61510f565b600080600080600080600080600360ff1661408c8e61010001518e8e614994565b60ff161415156140af5760018d60000190151590811515815250508c995061434d565b6140ba8d8d8d614a0a565b809950819a50505060008860ff1614156140e75760018d60000190151590811515815250508c995061434d565b60009150600090505b8760ff168160ff16101561424d5760009650600095506141278d8a8360ff1660088110151561411b57fe5b60200201518e8e614d49565b8097508198505050600092505b8560ff168360ff1610156142405781151561414e57600191505b61416161415c888589613fc7565b61400b565b809550819650505061417f8d61010001518e61016001518787614ead565b8d61010001906fffffffffffffffffffffffffffffffff191690816fffffffffffffffffffffffffffffffff191681525050600260ff168d610160015160ff1614156141fe5760018d6101c0018181510191509060ff16908160ff168152505060018d6101a0018181510391509060ff16908160ff1681525050614233565b60018d6101c0018181510391509060ff16908160ff168152505060018d6101a0018181510191509060ff16908160ff16815250505b8280600101935050614134565b80806001019150506140f0565b81156142ee576142698d61010001518e61016001518e8e614ead565b8d61010001906fffffffffffffffffffffffffffffffff191690816fffffffffffffffffffffffffffffffff191681525050600260ff168d610160015160ff1614156142ce5760018d6101c0018181510191509060ff16908160ff16815250506142e9565b60018d6101a0018181510191509060ff16908160ff16815250505b614307565b60018d60000190151590811515815250508c995061434d565b600160ff168d610160015160ff1614156143345760028d610160019060ff16908160ff1681525050614349565b60018d610160019060ff16908160ff16815250505b8c99505b5050505050505050509392505050565b614365615039565b61436d61513e565b600080600080600061437d61516d565b603c89610180015160ff1614156143a7576001896020019015159081151581525050889750614690565b60009550600094505b60408560ff161015614489576143fa8961010001516008808860ff168115156143d557fe5b06880360ff168115156143e457fe5b0460088860ff168115156143f457fe5b06614994565b9350600360ff168460ff16141561447c5760408051908101604052806008808860ff1681151561442657fe5b06880360ff1681151561443557fe5b0460ff1660ff16815260200160088760ff1681151561445057fe5b0660ff1660ff16815250878760ff16603c8110151561446b57fe5b602002018190525085806001019650505b84806001019550506143b0565b6000925060008660ff16111561464d578861010001519150600094505b8560ff168560ff161080156144b9575082155b1561461957868560ff16603c811015156144cf57fe5b60200201519050600189610160019060ff16908160ff16815250506000896000019015159081151581525050818961010001906fffffffffffffffffffffffffffffffff191690816fffffffffffffffffffffffffffffffff19168152505061455f8982600060028110151561454157fe5b602002015183600160028110151561455557fe5b602002015161405b565b98508860000151151561457157600192505b600289610160019060ff16908160ff16815250506000896000019015159081151581525050818961010001906fffffffffffffffffffffffffffffffff191690816fffffffffffffffffffffffffffffffff1916815250506145fa898260006002811015156145dc57fe5b60200201518360016002811015156145f057fe5b602002015161405b565b98508860000151151561460c57600192505b84806001019550506144a6565b818961010001906fffffffffffffffffffffffffffffffff191690816fffffffffffffffffffffffffffffffff1916815250505b821561466957600189600001901515908115158152505061468c565b600189602001901515908115158152505060008960000190151590811515815250505b8897505b50505050505050919050565b6146a4615039565b60008060008060008060006001965060019550600194506001935060019250600091505b60088260ff161080156146f8575086806146df5750855b806146e75750845b806146ef5750835b806146f75750825b5b156148fd57600090505b60088160ff16108015614732575086806147195750855b806147215750845b806147295750835b806147315750825b5b156148f05761474d8961010001518360070383600703614f79565b6fffffffffffffffffffffffffffffffff19166147708a61010001518484614f79565b6fffffffffffffffffffffffffffffffff191614151561478f57600096505b6147a28961010001518383600703614f79565b6fffffffffffffffffffffffffffffffff19166147c58a61010001518484614f79565b6fffffffffffffffffffffffffffffffff19161415156147e457600095505b6147f78961010001518360070383614f79565b6fffffffffffffffffffffffffffffffff191661481a8a61010001518484614f79565b6fffffffffffffffffffffffffffffffff191614151561483957600094505b61484f8961010001518260070384600703614f79565b6fffffffffffffffffffffffffffffffff19166148728a61010001518484614f79565b6fffffffffffffffffffffffffffffffff191614151561489157600093505b6148a18961010001518284614f79565b6fffffffffffffffffffffffffffffffff19166148c48a61010001518484614f79565b6fffffffffffffffffffffffffffffffff19161415156148e357600092505b8080600101915050614702565b81806001019250506146c8565b86806149065750855b8061490e5750845b806149165750835b8061491e5750825b156149855760018960400190151590811515815250508689606001901515908115158152505085896080019015159081151581525050848960a0019015159081151581525050838960c0019015159081151581525050828960e00190151590811515815250505b88975050505050505050919050565b60008060006149a38585614fd5565b9150600370010000000000000000000000000000000002826fffffffffffffffffffffffffffffffff16876fffffffffffffffffffffffffffffffff19169060020a9004169050807001000000000000000000000000000000009004925050509392505050565b614a1261510f565b6000614a1c61510f565b6000614a2661510f565b600080614a3161518f565b600080600096506101006040519081016040528060408051908101604052807fffffffffffffffffffffffffffffffffffffffffffffffffffffffffffffffff60000b60000b81526020016000800b60000b815250815260200160408051908101604052807fffffffffffffffffffffffffffffffffffffffffffffffffffffffffffffffff60000b60000b8152602001600160000b60000b815250815260200160408051908101604052806000800b60000b8152602001600160000b60000b81525081526020016040805190810160405280600160000b60000b8152602001600160000b60000b81525081526020016040805190810160405280600160000b60000b81526020016000800b60000b81525081526020016040805190810160405280600160000b60000b81526020017fffffffffffffffffffffffffffffffffffffffffffffffffffffffffffffffff60000b60000b815250815260200160408051908101604052806000800b60000b81526020017fffffffffffffffffffffffffffffffffffffffffffffffffffffffffffffffff60000b60000b815250815260200160408051908101604052807fffffffffffffffffffffffffffffffffffffffffffffffffffffffffffffffff60000b60000b81526020017fffffffffffffffffffffffffffffffffffffffffffffffffffffffffffffffff60000b60000b8152508152509550600090505b60088160ff161015614d3357858160ff16600881101515614c5d57fe5b60200201519250826000600281101515614c7357fe5b60200201518c019350826001600281101515614c8b57fe5b60200201518b01945060078560000b1380614ca9575060008560000b125b80614cb7575060078460000b135b80614cc5575060008460000b125b1515614d2657614cdb8d61010001518587614994565b91508c610160015160ff168260ff16141515614d2557600360ff168260ff16141515614d245782888860ff16600881101515614d1357fe5b602002018190525086806001019750505b5b5b8080600101915050614c40565b8787995099505050505050505050935093915050565b60008060008060008060008060008060009650600160ff168e610160015160ff161415614d795760029550614d7e565b600195505b60009450600190505b60098160ff161015614e9657841515614e89578b8d6000600281101515614daa57fe5b602002015182020193508a8d6001600281101515614dc457fe5b6020020151820201925060078460000b1380614de3575060008460000b125b80614df1575060078360000b135b80614dff575060008360000b125b15614e1557600097506000965060019450614e88565b614e258e61010001518585614994565b91508560ff168260ff161415614e4e57614e4188888686614ff1565b8098508199505050614e87565b8d610160015160ff168260ff16148015614e6b575060018160ff16115b15614e795760019450614e86565b6000975060009650600194505b5b5b5b8080600101915050614d87565b878799509950505050505050505094509492505050565b600080600060078560ff161115614ec357600080fd5b60078460ff161115614ed457600080fd5b614ede8585614fd5565b9150816fffffffffffffffffffffffffffffffff166003700100000000000000000000000000000000026fffffffffffffffffffffffffffffffff19169060020a02905086818818169650816fffffffffffffffffffffffffffffffff168660ff16700100000000000000000000000000000000026fffffffffffffffffffffffffffffffff19169060020a02871792505050949350505050565b600080614f868484614fd5565b9050600370010000000000000000000000000000000002816fffffffffffffffffffffffffffffffff16866fffffffffffffffffffffffffffffffff19169060020a9004169150509392505050565b600060026001838560080201016040030260ff16905092915050565b600080600060406008850286010160ff1664010000000002905060078763ffffffff19169060020a029650808717965085806001019650508686925092505094509492505050565b6101e06040519081016040528060001515815260200160001515815260200160001515815260200160001515815260200160001515815260200160001515815260200160001515815260200160001515815260200160006fffffffffffffffffffffffffffffffff19168152602001600063ffffffff19168152602001600063ffffffff19168152602001600060ff168152602001600060ff168152602001600060ff168152602001600060ff1681525090565b6040805190810160405280600290602082028038833980820191505090505090565b610200604051908101604052806008905b6151286151b1565b8152602001906001900390816151205790505090565b610f0060405190810160405280603c905b6151576151d3565b81526020019060019003908161514f5790505090565b6040805190810160405280600290602082028038833980820191505090505090565b6040805190810160405280600290602082028038833980820191505090505090565b6040805190810160405280600290602082028038833980820191505090505090565b6040805190810160405280600290602082028038833980820191505090505090565b60006152018235615d86565b905092915050565b600082601f830112151561521c57600080fd5b600261522f61522a82615cd6565b615ca9565b9150818385602084028201111561524557600080fd5b60005b83811015615275578161525b8882615331565b845260208401935060208301925050600181019050615248565b5050505092915050565b600082601f830112151561529257600080fd5b60026152a56152a082615cd6565b615ca9565b915081838560208402820111156152bb57600080fd5b60005b838110156152eb57816152d18882615345565b8452602084019350602083019250506001810190506152be565b5050505092915050565b60006153018235615da6565b905092915050565b60006153158251615da6565b905092915050565b60006153298235615db2565b905092915050565b600061533d8235615dde565b905092915050565b60006153518251615dde565b905092915050565b60006153658235615e0a565b905092915050565b60008083601f840112151561538157600080fd5b8235905067ffffffffffffffff81111561539a57600080fd5b6020830191508360018202830111156153b257600080fd5b9250929050565b60006153c58235615e14565b905092915050565b60006101e082840312156153e057600080fd5b6153eb6101e0615ca9565b905060006153fb848285016152f5565b600083015250602061540f848285016152f5565b6020830152506040615423848285016152f5565b6040830152506060615437848285016152f5565b606083015250608061544b848285016152f5565b60808301525060a061545f848285016152f5565b60a08301525060c0615473848285016152f5565b60c08301525060e0615487848285016152f5565b60e08301525061010061549c8482850161531d565b610100830152506101206154b284828501615331565b610120830152506101406154c884828501615331565b610140830152506101606154de84828501615555565b610160830152506101806154f484828501615555565b610180830152506101a061550a84828501615555565b6101a0830152506101c061552084828501615555565b6101c08301525092915050565b60006155398235615e26565b905092915050565b600061554d8251615e26565b905092915050565b60006155618235615e30565b905092915050565b60006020828403121561557b57600080fd5b6000615589848285016151f5565b91505092915050565b6000806000606084860312156155a757600080fd5b60006155b5868287016151f5565b93505060206155c6868287016151f5565b92505060406155d78682870161552d565b9150509250925092565b600080600080606085870312156155f757600080fd5b6000615605878288016151f5565b94505060206156168782880161552d565b935050604085013567ffffffffffffffff81111561563357600080fd5b61563f8782880161536d565b925092505092959194509250565b60006040828403121561565f57600080fd5b600061566d84828501615209565b91505092915050565b60006040828403121561568857600080fd5b60006156968482850161527f565b91505092915050565b60008060008060a085870312156156b557600080fd5b60006156c387828801615209565b94505060406156d48782880161552d565b93505060606156e58782880161552d565b92505060806156f6878288016152f5565b91505092959194509250565b60006020828403121561571457600080fd5b600061572284828501615309565b91505092915050565b60006020828403121561573d57600080fd5b600061574b8482850161531d565b91505092915050565b60006020828403121561576657600080fd5b600061577484828501615359565b91505092915050565b6000806040838503121561579057600080fd5b600061579e85828601615359565b92505060206157af858286016151f5565b9150509250929050565b6000602082840312156157cb57600080fd5b60006157d9848285016153b9565b91505092915050565b60006101e082840312156157f557600080fd5b6000615803848285016153cd565b91505092915050565b60006020828403121561581e57600080fd5b600061582c8482850161552d565b91505092915050565b60006020828403121561584757600080fd5b600061585584828501615541565b91505092915050565b60008060008060008060c0878903121561587757600080fd5b600061588589828a01615541565b965050602061589689828a01615541565b95505060406158a789828a01615541565b94505060606158b889828a01615541565b93505060806158c989828a01615541565b92505060a06158da89828a01615541565b9150509295509295509295565b6158f081615d1a565b82525050565b6158ff81615d02565b61590882615cf8565b60005b8281101561593a5761591e858351615950565b61592782615d0d565b915060208501945060018101905061590b565b5050505050565b61594a81615d3a565b82525050565b61595981615d46565b82525050565b61596881615d72565b82525050565b61597781615e3d565b82525050565b61598681615d7c565b82525050565b60006020820190506159a160008301846158e7565b92915050565b60006060820190506159bc60008301866158e7565b6159c960208301856158e7565b6159d6604083018461597d565b949350505050565b60006040820190506159f360008301856158e7565b615a00602083018461597d565b9392505050565b600060c082019050615a1c60008301886158f6565b615a29604083018761597d565b615a3660608301866158e7565b615a4360808301856158e7565b615a5060a083018461597d565b9695505050505050565b600061010082019050615a70600083018a6158f6565b615a7d604083018961597d565b615a8a60608301886158e7565b615a97608083018761597d565b615aa460a083018661597d565b615ab160c083018561597d565b615abe60e0830184615941565b98975050505050505050565b6000602082019050615adf6000830184615941565b92915050565b6000606082019050615afa6000830186615941565b615b07602083018561597d565b615b1460408301846158e7565b949350505050565b6000602082019050615b31600083018461595f565b92915050565b6000604082019050615b4c600083018561595f565b615b5960208301846158e7565b9392505050565b6000602082019050615b75600083018461596e565b92915050565b6000602082019050615b90600083018461597d565b92915050565b6000606082019050615bab600083018661597d565b615bb860208301856158e7565b615bc5604083018461597d565b949350505050565b6000606082019050615be2600083018561597d565b615bef60208301846158f6565b9392505050565b6000604082019050615c0b600083018561597d565b615c186020830184615941565b9392505050565b6000604082019050615c34600083018561597d565b615c41602083018461597d565b9392505050565b600060c082019050615c5d600083018961597d565b615c6a602083018861597d565b615c77604083018761597d565b615c84606083018661597d565b615c91608083018561597d565b615c9e60a083018461597d565b979650505050505050565b6000604051905081810181811067ffffffffffffffff82111715615ccc57600080fd5b8060405250919050565b600067ffffffffffffffff821115615ced57600080fd5b602082029050919050565b6000819050919050565b600060029050919050565b6000602082019050919050565b600073ffffffffffffffffffffffffffffffffffffffff82169050919050565b60008115159050919050565b60007fffffffffffffffffffffffffffffffffffffffffffffffffffffffff0000000082169050919050565b6000819050919050565b6000819050919050565b600073ffffffffffffffffffffffffffffffffffffffff82169050919050565b60008115159050919050565b60007fffffffffffffffffffffffffffffffff0000000000000000000000000000000082169050919050565b60007fffffffffffffffffffffffffffffffffffffffffffffffffffffffff0000000082169050919050565b6000819050919050565b6000615e1f82615d1a565b9050919050565b6000819050919050565b600060ff82169050919050565b6000615e4882615d1a565b90509190505600a265627a7a72305820e1af5196af8fe518098ae26cd0e2d991a22a12f1cfeaf39aba14d5c92db79de76c6578706572696d656e74616cf50037",
  "source": "pragma solidity ^0.4.18;\npragma experimental ABIEncoderV2;\n\n/**\n * The CloversController is a replaceable endpoint for minting and unminting Clovers.sol and ClubToken.sol\n */\n\nimport \"./Reversi.sol\";\nimport \"./IClovers.sol\";\nimport \"./IClubToken.sol\";\nimport \"./ICloversController.sol\";\nimport \"./IClubTokenController.sol\";\nimport \"./ISimpleCloversMarket.sol\";\nimport \"zeppelin-solidity/contracts/ownership/HasNoTokens.sol\";\nimport \"zeppelin-solidity/contracts/ownership/HasNoEther.sol\";\nimport \"zeppelin-solidity/contracts/math/SafeMath.sol\";\n\n\ncontract CloversController is HasNoEther, HasNoTokens {\n    event cloverCommitted(bytes32 movesHash, address owner);\n    event cloverClaimed(bytes28[2] moves, uint256 tokenId, address owner, uint stake, uint reward, uint256 symmetries, bool keep);\n    event stakeRetrieved(uint256 tokenId, address owner, uint stake);\n    event cloverChallenged(bytes28[2] moves, uint256 tokenId, address owner, address challenger, uint stake);\n\n    using SafeMath for uint256;\n\n    address public oracle;\n    address public clovers;\n    address public clubToken;\n    address public clubTokenController;\n    address public simpleCloversMarket;\n    address public curationMarket;\n\n    uint256 public basePrice;\n    uint256 public priceMultiplier;\n    uint256 public payMultiplier;\n    uint256 public stakeAmount;\n    uint256 public stakePeriod;\n\n    struct Commit {\n        bool collected;\n        uint256 stake;\n        address committer;\n    }\n\n    mapping (bytes32 => Commit) public commits;\n\n    constructor(address _clovers, address _clubToken, address _clubTokenController) public {\n        clovers = _clovers;\n        clubToken = _clubToken;\n        clubTokenController = _clubTokenController;\n    }\n    /**\n    * @dev Gets the current stake of a Clover based on the hash of the moves.\n    * @param movesHash The hash of the moves that make up the clover.\n    * @return A uint256 value of stake.\n    */\n    function getStake(bytes32 movesHash) public view returns (uint256) {\n        return commits[movesHash].stake;\n    }\n    /**\n    * @dev Gets the address of the committer of a Clover based on the hash of the moves.\n    * @param movesHash The hash of the moves that make up the clover.\n    * @return The address of the committer.\n    */\n    function getCommit(bytes32 movesHash) public view returns (address) {\n        return commits[movesHash].committer;\n    }\n    /**\n    * @dev Gets the current staking period needed to verify a Clover.\n    * @param _tokenId The token Id of the clover.\n    * @return A uint256 value of stake period in seconds.\n    */\n    function getMovesHash(uint _tokenId) public constant returns (bytes32) {\n        return keccak256(IClovers(clovers).getCloverMoves(_tokenId));\n    }\n    /**\n    * @dev Checks whether the game is valid.\n    * @param moves The moves needed to play validate the game.\n    * @return A boolean representing whether or not the game is valid.\n    */\n    function isValid(bytes28[2] moves) public constant returns (bool) {\n        Reversi.Game memory game = Reversi.playGame(moves);\n        return isValidGame(game);\n    }\n\n    /**\n    * @dev Checks whether the game is valid.\n    * @param game The pre-played game.\n    * @return A boolean representing whether or not the game is valid.\n    */\n    function isValidGame(Reversi.Game game) public pure returns (bool) {\n        if (game.error) return false;\n        if (!game.complete) return false;\n        return true;\n    }\n    /**\n    * @dev Checks whether the game has passed the verification period.\n    * @param _tokenId The board being checked.\n    * @return A boolean representing whether or not the game has been verified.\n    */\n    function isVerified(uint256 _tokenId) public constant returns (bool) {\n        uint256 _blockMinted = IClovers(clovers).getBlockMinted(_tokenId);\n        if(_blockMinted == 0) return false;\n        return block.number.sub(_blockMinted) > stakePeriod;\n    }\n    /**\n    * @dev Calculates the reward of the board.\n    * @param _symmetries symmetries saved as a uint256 value like 00010101 where bits represent symmetry types.\n    * @return A uint256 representing the reward that would be returned for claiming the board.\n    */\n    function calculateReward(uint256 _symmetries) public constant returns (uint256) {\n        uint256 Symmetricals;\n        uint256 RotSym;\n        uint256 Y0Sym;\n        uint256 X0Sym;\n        uint256 XYSym;\n        uint256 XnYSym;\n        (Symmetricals,\n        RotSym,\n        Y0Sym,\n        X0Sym,\n        XYSym,\n        XnYSym) = IClovers(clovers).getAllSymmetries();\n        uint256 base = 0;\n        if (_symmetries >> 4 & 1 == 1) base = base.add(payMultiplier.mul(Symmetricals + 1).div(RotSym + 1));\n        if (_symmetries >> 3 & 1 == 1) base = base.add(payMultiplier.mul(Symmetricals + 1).div(Y0Sym + 1));\n        if (_symmetries >> 2 & 1 == 1) base = base.add(payMultiplier.mul(Symmetricals + 1).div(X0Sym + 1));\n        if (_symmetries >> 1 & 1 == 1) base = base.add(payMultiplier.mul(Symmetricals + 1).div(XYSym + 1));\n        if (_symmetries & 1 == 1) base = base.add(payMultiplier.mul(Symmetricals + 1).div(XnYSym + 1));\n        return base;\n    }\n\n/*\n    // NOTE: Disabled to reduce contract size\n    function instantClaimClover(bytes28[2] moves, bool _keep) public payable returns (bool) {\n        Reversi.Game memory game = Reversi.playGame(moves);\n        require(isValidGame(game));\n        uint256 tokenId = uint256(game.board);\n        require(IClovers(clovers).getBlockMinted(tokenId) == 0);\n        require(!IClovers(clovers).exists(tokenId));\n        IClovers(clovers).setBlockMinted(tokenId, block.number);\n        IClovers(clovers).setCloverMoves(tokenId, moves);\n\n        uint256 symmetries = Reversi.returnSymmetricals(game.RotSym, game.Y0Sym, game.X0Sym, game.XYSym, game.XnYSym);\n        uint256 reward;\n\n        if (uint256(symmetries) > 0) {\n            IClovers(clovers).setSymmetries(tokenId, uint256(symmetries));\n            reward = calculateReward(uint256(symmetries));\n            IClovers(clovers).setReward(tokenId, reward);\n        }\n        if (_keep) {\n            // If the user decides to keep the Clover, they must\n            // pay for it in club tokens according to the reward price.\n            if (IClubToken(clubToken).balanceOf(msg.sender) < reward) {\n                IClubTokenController(clubTokenController).buy(msg.sender); // msg.value needs to be enough to buy \"reward\" amount of Club Token\n            }\n            if (reward > 0) {\n                // IClubToken(clubToken).transferFrom(msg.sender, clubToken, reward); // if we'd rather keep the money\n                IClubToken(clubToken).burn(msg.sender, reward);\n            }\n            IClovers(clovers).mint(msg.sender, tokenId);\n        } else {\n            // If the user decides not to keep the Clover, they will\n            // receive the reward price in club tokens, and the clover will\n            // go for sale at 10x the reward price.\n            if (reward > 0) {\n                require(IClubToken(clubToken).mint(msg.sender, reward));\n            }\n            IClovers(clovers).mint(clovers, tokenId);\n        }\n\n    } */\n\n\n    /**\n    * @dev Claim the Clover without a commit or reveal. Payable so you can attach enough for the stake,\n    * as well as enough to buy tokens if needed to keep the Clover.\n    * @param moves The moves that make up the Clover reversi game.\n    * @param _tokenId The board that results from the moves.\n    * @param _symmetries symmetries saved as a uint256 value like 00010101 where bits represent symmetry\n    * types.\n    * @return A boolean representing whether or not the claim was successful.\n    */\n    function claimClover(bytes28[2] moves, uint256 _tokenId, uint256 _symmetries, bool _keep) public payable returns (bool) {\n        bytes32 movesHash = keccak256(moves);\n\n        require(msg.value >= stakeAmount);\n        require(getCommit(movesHash) == 0);\n\n        setCommit(movesHash, msg.sender);\n        if (stakeAmount > 0) {\n            setStake(movesHash, stakeAmount);\n            clovers.transfer(stakeAmount);\n        }\n\n        emit cloverCommitted(movesHash, msg.sender);\n\n        require(!IClovers(clovers).exists(_tokenId));\n        require(IClovers(clovers).getBlockMinted(_tokenId) == 0);\n\n        IClovers(clovers).setBlockMinted(_tokenId, block.number);\n        IClovers(clovers).setCloverMoves(_tokenId, moves);\n        IClovers(clovers).setKeep(_tokenId, _keep);\n\n        uint256 reward;\n        if (_symmetries > 0) {\n            IClovers(clovers).setSymmetries(_tokenId, _symmetries);\n            reward = calculateReward(_symmetries);\n            IClovers(clovers).setReward(_tokenId, reward);\n        }\n        uint256 price = basePrice.add(reward);\n        if (_keep && price > 0) {\n            // If the user decides to keep the Clover, they must\n            // pay for it in club tokens according to the reward price.\n            if (IClubToken(clubToken).balanceOf(msg.sender) < price) {\n                IClubTokenController(clubTokenController).buy(msg.sender);\n            }\n            IClubToken(clubToken).transferFrom(msg.sender, clovers, price);\n            /* IClubToken(clubToken).burn(committer, price); */\n        }\n        IClovers(clovers).mint(clovers, _tokenId);\n        emit cloverClaimed(moves, _tokenId, msg.sender, stakeAmount, reward, _symmetries, _keep);\n\n        return true;\n    }\n    /**\n    * @dev Commit the hash of the moves needed to claim the Clover. A stake should be\n    * made for counterfactual verification.\n    * @param movesHash The hash of the moves that makes up the Clover reversi\n    * game.\n    * @return A boolean representing whether or not the commit was successful.\n    NOTE: Disabled for contract size, if front running becomes a problem it can be\n    implemented with an upgrade\n    */\n    /* function claimCloverCommit(bytes32 movesHash) public payable returns (bool) {\n        require(msg.value <= stakeAmount);\n        require(getCommit(movesHash) == 0);\n\n        setCommit(movesHash, msg.sender);\n        setStake(movesHash, stakeAmount);\n\n        clovers.transfer(stakeAmount);\n\n        emit cloverCommitted(movesHash, msg.sender);\n        return true;\n    } */\n    /**\n    * @dev Reveal the solution to the previous commit to claim the Clover.\n    * @param moves The moves that make up the Clover reversi game.\n    * @param _tokenId The board that results from the moves.\n    * @param _symmetries symmetries saved as a uint256 value like 00010101 where bits represent symmetry types.\n    * @return A boolean representing whether or not the reveal and claim was successful.\n    NOTE: Disabled for contract size, if front running becomes a problem it can be implemented with an upgrade\n    */\n    /* function claimCloverReveal(bytes28[2] moves, uint256 _tokenId, uint256 _symmetries, bool _keep) public returns (bool) {\n        bytes32 movesHash = keccak256(moves);\n        address committer = getCommit(movesHash);\n\n        require(IClovers(clovers).getBlockMinted(_tokenId) == 0);\n\n        IClovers(clovers).setBlockMinted(_tokenId, block.number);\n        IClovers(clovers).setCloverMoves(_tokenId, moves);\n        IClovers(clovers).setKeep(_tokenId, _keep);\n        uint256 reward;\n        if (_symmetries > 0) {\n            IClovers(clovers).setSymmetries(_tokenId, _symmetries);\n            reward = calculateReward(_symmetries);\n            IClovers(clovers).setReward(_tokenId, reward);\n        }\n        if (_keep) {\n            IClubToken(clubToken).increaseApproval(address(this), basePrice.add(reward));\n        }\n        uint256 stake = getStake(movesHash);\n        emit cloverClaimed(moves, _tokenId, committer, stake, reward, _symmetries, _keep);\n        return true;\n    } */\n\n    /**\n    * @dev Retrieve the stake from a Clover claim after the stake period has ended, or with the authority of the oracle.\n    * @param _tokenId The board which holds the stake.\n    * @return A boolean representing whether or not the retrieval was successful.\n    */\n    function retrieveStake(uint256 _tokenId) public payable returns (bool) {\n        bytes28[2] memory moves = IClovers(clovers).getCloverMoves(_tokenId);\n        bytes32 movesHash = keccak256(moves);\n\n        require(!commits[movesHash].collected);\n        commits[movesHash].collected = true;\n\n        require(isVerified(_tokenId) || msg.sender == owner || msg.sender == oracle);\n\n        uint256 stake = getStake(movesHash);\n        addSymmetries(_tokenId);\n        address committer = getCommit(movesHash);\n        require(committer == msg.sender || msg.sender == owner || msg.sender == oracle);\n        uint256 reward = IClovers(clovers).getReward(_tokenId);\n        bool _keep = IClovers(clovers).getKeep(_tokenId);\n\n        if (_keep) {\n            // If the user decided to keep the Clover, they will\n            // receive the clover now that it has been verified\n            IClovers(clovers).transferFrom(clovers, committer, _tokenId);\n        } else {\n            // If the user decided not to keep the Clover, they will\n            // receive the reward price in club tokens, and the clover will\n            // go for sale by the contract.\n            ISimpleCloversMarket(simpleCloversMarket).sell(_tokenId, basePrice.add(reward.mul(priceMultiplier)));\n            if (reward > 0) {\n                require(IClubToken(clubToken).mint(committer, reward));\n            }\n        }\n        if (stake > 0) {\n            IClovers(clovers).moveEth(msg.sender, stake);\n        }\n        emit stakeRetrieved(_tokenId, msg.sender, stake);\n        return true;\n    }\n\n\n    /**\n    * @dev Convert a bytes16 board into a uint256.\n    * @param _board The board being converted.\n    * @return number the uint256 being converted.\n    */\n    function convertBytes16ToUint(bytes16 _board) public view returns(uint256 number) {\n        for(uint i=0;i<_board.length;i++){\n            number = number + uint(_board[i])*(2**(8*(_board.length-(i+1))));\n        }\n    }\n\n    /**\n    * @dev Challenge a staked Clover for being invalid.\n    * @param _tokenId The board being challenged.\n    * @return A boolean representing whether or not the challenge was successful.\n    */\n    function challengeClover(uint256 _tokenId) public returns (bool) {\n        bool valid = true;\n        bytes28[2] memory moves = IClovers(clovers).getCloverMoves(_tokenId);\n\n        if (msg.sender != owner && msg.sender != oracle) {\n            Reversi.Game memory game = Reversi.playGame(moves);\n            if(convertBytes16ToUint(game.board) != _tokenId) {\n                valid = false;\n            }\n            if(valid && isValidGame(game)) {\n                uint256 _symmetries = IClovers(clovers).getSymmetries(_tokenId);\n                valid = (_symmetries >> 4 & 1) > 0 == game.RotSym ? valid : false;\n                valid = (_symmetries >> 3 & 1) > 0 == game.Y0Sym ? valid : false;\n                valid = (_symmetries >> 2 & 1) > 0 == game.X0Sym ? valid : false;\n                valid = (_symmetries >> 1 & 1) > 0 == game.XYSym ? valid : false;\n                valid = (_symmetries & 1) > 0 == game.XnYSym ? valid : false;\n            } else {\n                valid = false;\n            }\n            require(!valid);\n        }\n        bytes32 movesHash = keccak256(moves);\n        uint256 stake = getStake(movesHash);\n        if (!isVerified(_tokenId) && stake > 0) {\n            IClovers(clovers).moveEth(msg.sender, stake);\n        }\n        if (commits[movesHash].collected) {\n            removeSymmetries(_tokenId);\n        }\n\n        address committer = getCommit(movesHash);\n        emit cloverChallenged(moves, _tokenId, committer, msg.sender, stake);\n\n        IClovers(clovers).deleteClover(_tokenId);\n        deleteCommit(movesHash);\n        return true;\n    }\n\n\n    /**\n    * @dev Moves clovers without explicit allow permission for use by simpleCloversMarket\n    * in order to avoid double transaction (allow, transferFrom)\n    * @param _from The current owner of the Clover\n    * @param _to The future owner of the Clover\n    * @param _tokenId The Clover\n    */\n    function transferFrom(address _from, address _to, uint256 _tokenId) public {\n        require(msg.sender == simpleCloversMarket || msg.sender == curationMarket);\n        IClovers(clovers).transferFrom(_from, _to, _tokenId);\n    }\n\n    /**\n    * @dev Updates curationMarket Address.\n    * @param _curationMarket The new curationMarket Address.\n    */\n    function updateCurationMarket(address _curationMarket) public onlyOwner {\n        curationMarket = _curationMarket;\n    }\n    /**\n    * @dev Updates oracle Address.\n    * @param _oracle The new oracle Address.\n    */\n    function updateOracle(address _oracle) public onlyOwner {\n        oracle = _oracle;\n    }\n\n    /**\n    * @dev Updates simpleCloversMarket Address.\n    * @param _simpleCloversMarket The new simpleCloversMarket address.\n    */\n    function updateSimpleCloversMarket(address _simpleCloversMarket) public onlyOwner {\n        simpleCloversMarket = _simpleCloversMarket;\n    }\n\n    /**\n    * @dev Updates clubTokenController Address.\n    * @param _clubTokenController The new clubTokenController address.\n    */\n    function updateClubTokenController(address _clubTokenController) public onlyOwner {\n        clubTokenController = _clubTokenController;\n    }\n    /**\n    * @dev Updates the stake amount.\n    * @param _stakeAmount The new amount needed to stake.\n    */\n    function updateStakeAmount(uint256 _stakeAmount) public onlyOwner {\n        stakeAmount = _stakeAmount;\n    }\n    /**\n    * @dev Updates the stake period.\n    * @param _stakePeriod The uint256 value of time needed to stake before being verified.\n    */\n    function updateStakePeriod(uint256 _stakePeriod) public onlyOwner {\n        stakePeriod = _stakePeriod;\n    }\n    /**\n    * @dev Updates the pay multiplier, used to calculate token reward.\n    * @param _payMultiplier The uint256 value of pay multiplier.\n    */\n    function updatePayMultipier(uint256 _payMultiplier) public onlyOwner {\n        payMultiplier = _payMultiplier;\n    }\n    /**\n    * @dev Updates the price multiplier, used to calculate the clover price (multiplied by the original reward).\n    * @param _priceMultiplier The uint256 value of the price multiplier.\n    */\n    function updatePriceMultipier(uint256 _priceMultiplier) public onlyOwner {\n        priceMultiplier = _priceMultiplier;\n    }\n    /**\n    * @dev Updates the base price, used to calculate the clover cost.\n    * @param _basePrice The uint256 value of the base price.\n    */\n    function updateBasePrice(uint256 _basePrice) public onlyOwner {\n        basePrice = _basePrice;\n    }\n\n    /**\n    * @dev Sets the stake of a Clover based on the hash of the moves.\n    * @param movesHash The hash of the moves that make up the clover.\n    * @param stake A uint256 value of stake.\n    */\n    function setStake(bytes32 movesHash, uint256 stake) private {\n        commits[movesHash].stake = stake;\n    }\n\n    /**\n    * @dev Sets the address of the committer of a Clover based on the hash of the moves.\n    * @param movesHash The hash of the moves that make up the clover.\n    * @param committer The address of the committer.\n    */\n    function setCommit(bytes32 movesHash, address committer) private {\n        commits[movesHash].committer = committer;\n    }\n\n    function _setCommit(bytes32 movesHash, address committer) onlyOwner {\n        setCommit(movesHash, committer);\n    }\n    function deleteCommit(bytes32 movesHash) private {\n        delete(commits[movesHash]);\n    }\n\n    /**\n    * @dev Adds new tallys of the totals numbers of clover symmetries.\n    * @param _tokenId The token which needs to be examined.\n    */\n    function addSymmetries(uint256 _tokenId) private {\n        uint256 Symmetricals;\n        uint256 RotSym;\n        uint256 Y0Sym;\n        uint256 X0Sym;\n        uint256 XYSym;\n        uint256 XnYSym;\n        (Symmetricals,\n        RotSym,\n        Y0Sym,\n        X0Sym,\n        XYSym,\n        XnYSym) = IClovers(clovers).getAllSymmetries();\n        uint256 _symmetries = IClovers(clovers).getSymmetries(_tokenId);\n        Symmetricals = Symmetricals.add(_symmetries > 0 ? 1 : 0);\n        RotSym = RotSym.add(uint256(_symmetries >> 4 & 1));\n        Y0Sym = Y0Sym.add(uint256(_symmetries >> 3 & 1));\n        X0Sym = X0Sym.add(uint256(_symmetries >> 2 & 1));\n        XYSym = XYSym.add(uint256(_symmetries >> 1 & 1));\n        XnYSym = XnYSym.add(uint256(_symmetries & 1));\n        IClovers(clovers).setAllSymmetries(Symmetricals, RotSym, Y0Sym, X0Sym, XYSym, XnYSym);\n    }\n    /**\n    * @dev Remove false tallys of the totals numbers of clover symmetries.\n    * @param _tokenId The token which needs to be examined.\n    */\n    function removeSymmetries(uint256 _tokenId) private {\n        uint256 Symmetricals;\n        uint256 RotSym;\n        uint256 Y0Sym;\n        uint256 X0Sym;\n        uint256 XYSym;\n        uint256 XnYSym;\n        (Symmetricals,\n        RotSym,\n        Y0Sym,\n        X0Sym,\n        XYSym,\n        XnYSym) = IClovers(clovers).getAllSymmetries();\n        uint256 _symmetries = IClovers(clovers).getSymmetries(_tokenId);\n        Symmetricals = Symmetricals.sub(_symmetries > 0 ? 1 : 0);\n        RotSym = RotSym.sub(uint256(_symmetries >> 4 & 1));\n        Y0Sym = Y0Sym.sub(uint256(_symmetries >> 3 & 1));\n        X0Sym = X0Sym.sub(uint256(_symmetries >> 2 & 1));\n        XYSym = XYSym.sub(uint256(_symmetries >> 1 & 1));\n        XnYSym = XnYSym.sub(uint256(_symmetries & 1));\n        IClovers(clovers).setAllSymmetries(Symmetricals, RotSym, Y0Sym, X0Sym, XYSym, XnYSym);\n    }\n\n}\n",
  "sourcePath": "/Users/billy/clovers/clovers-contracts/contracts/CloversController.sol",
  "compiler": {
    "name": "solc",
    "version": "0.4.24+commit.e67f0147.Emscripten.clang"
  },
  "schemaVersion": "2.0.1",
  "updatedAt": "2018-08-05T19:56:37.470Z"
}