{
  "contractName": "CloversController",
  "abi": [
    {
      "constant": true,
      "inputs": [],
      "name": "clovers",
      "outputs": [
        {
          "name": "",
          "type": "address"
        }
      ],
      "payable": false,
      "stateMutability": "view",
      "type": "function"
    },
    {
      "constant": false,
      "inputs": [
        {
          "name": "token",
          "type": "address"
        }
      ],
      "name": "reclaimToken",
      "outputs": [],
      "payable": false,
      "stateMutability": "nonpayable",
      "type": "function"
    },
    {
      "constant": true,
      "inputs": [],
      "name": "payMultiplier",
      "outputs": [
        {
          "name": "",
          "type": "uint256"
        }
      ],
      "payable": false,
      "stateMutability": "view",
      "type": "function"
    },
    {
      "constant": true,
      "inputs": [
        {
          "name": "",
          "type": "bytes32"
        }
      ],
      "name": "commits",
      "outputs": [
        {
          "name": "",
          "type": "address"
        }
      ],
      "payable": false,
      "stateMutability": "view",
      "type": "function"
    },
    {
      "constant": true,
      "inputs": [],
      "name": "stakeAmount",
      "outputs": [
        {
          "name": "",
          "type": "uint256"
        }
      ],
      "payable": false,
      "stateMutability": "view",
      "type": "function"
    },
    {
      "constant": false,
      "inputs": [],
      "name": "renounceOwnership",
      "outputs": [],
      "payable": false,
      "stateMutability": "nonpayable",
      "type": "function"
    },
    {
      "constant": true,
      "inputs": [],
      "name": "oracle",
      "outputs": [
        {
          "name": "",
          "type": "address"
        }
      ],
      "payable": false,
      "stateMutability": "view",
      "type": "function"
    },
    {
      "constant": true,
      "inputs": [],
      "name": "owner",
      "outputs": [
        {
          "name": "",
          "type": "address"
        }
      ],
      "payable": false,
      "stateMutability": "view",
      "type": "function"
    },
    {
      "constant": true,
      "inputs": [
        {
          "name": "",
          "type": "bytes32"
        }
      ],
      "name": "stakes",
      "outputs": [
        {
          "name": "",
          "type": "uint256"
        }
      ],
      "payable": false,
      "stateMutability": "view",
      "type": "function"
    },
    {
      "constant": false,
      "inputs": [],
      "name": "reclaimEther",
      "outputs": [],
      "payable": false,
      "stateMutability": "nonpayable",
      "type": "function"
    },
    {
      "constant": true,
      "inputs": [],
      "name": "clubTokenController",
      "outputs": [
        {
          "name": "",
          "type": "address"
        }
      ],
      "payable": false,
      "stateMutability": "view",
      "type": "function"
    },
    {
      "constant": false,
      "inputs": [
        {
          "name": "from_",
          "type": "address"
        },
        {
          "name": "value_",
          "type": "uint256"
        },
        {
          "name": "data_",
          "type": "bytes"
        }
      ],
      "name": "tokenFallback",
      "outputs": [],
      "payable": false,
      "stateMutability": "nonpayable",
      "type": "function"
    },
    {
      "constant": true,
      "inputs": [],
      "name": "stakePeriod",
      "outputs": [
        {
          "name": "",
          "type": "uint256"
        }
      ],
      "payable": false,
      "stateMutability": "view",
      "type": "function"
    },
    {
      "constant": true,
      "inputs": [],
      "name": "basePrice",
      "outputs": [
        {
          "name": "",
          "type": "uint256"
        }
      ],
      "payable": false,
      "stateMutability": "view",
      "type": "function"
    },
    {
      "constant": true,
      "inputs": [],
      "name": "priceMultiplier",
      "outputs": [
        {
          "name": "",
          "type": "uint256"
        }
      ],
      "payable": false,
      "stateMutability": "view",
      "type": "function"
    },
    {
      "constant": true,
      "inputs": [],
      "name": "clubToken",
      "outputs": [
        {
          "name": "",
          "type": "address"
        }
      ],
      "payable": false,
      "stateMutability": "view",
      "type": "function"
    },
    {
      "constant": false,
      "inputs": [
        {
          "name": "_newOwner",
          "type": "address"
        }
      ],
      "name": "transferOwnership",
      "outputs": [],
      "payable": false,
      "stateMutability": "nonpayable",
      "type": "function"
    },
    {
      "inputs": [
        {
          "name": "_clovers",
          "type": "address"
        },
        {
          "name": "_clubToken",
          "type": "address"
        },
        {
          "name": "_clubTokenController",
          "type": "address"
        }
      ],
      "payable": false,
      "stateMutability": "nonpayable",
      "type": "constructor"
    },
    {
      "payable": false,
      "stateMutability": "nonpayable",
      "type": "fallback"
    },
    {
      "anonymous": false,
      "inputs": [
        {
          "indexed": false,
          "name": "movesHash",
          "type": "bytes32"
        },
        {
          "indexed": false,
          "name": "owner",
          "type": "address"
        }
      ],
      "name": "cloverCommitted",
      "type": "event"
    },
    {
      "anonymous": false,
      "inputs": [
        {
          "indexed": false,
          "name": "moves",
          "type": "bytes28[2]"
        },
        {
          "indexed": false,
          "name": "tokenId",
          "type": "uint256"
        },
        {
          "indexed": false,
          "name": "owner",
          "type": "address"
        },
        {
          "indexed": false,
          "name": "stake",
          "type": "uint256"
        },
        {
          "indexed": false,
          "name": "reward",
          "type": "uint256"
        },
        {
          "indexed": false,
          "name": "symmetries",
          "type": "uint256"
        },
        {
          "indexed": false,
          "name": "keep",
          "type": "bool"
        }
      ],
      "name": "cloverClaimed",
      "type": "event"
    },
    {
      "anonymous": false,
      "inputs": [
        {
          "indexed": false,
          "name": "tokenId",
          "type": "uint256"
        },
        {
          "indexed": false,
          "name": "owner",
          "type": "address"
        },
        {
          "indexed": false,
          "name": "stake",
          "type": "uint256"
        }
      ],
      "name": "stakeRetrieved",
      "type": "event"
    },
    {
      "anonymous": false,
      "inputs": [
        {
          "indexed": false,
          "name": "moves",
          "type": "bytes28[2]"
        },
        {
          "indexed": false,
          "name": "tokenId",
          "type": "uint256"
        },
        {
          "indexed": false,
          "name": "owner",
          "type": "address"
        },
        {
          "indexed": false,
          "name": "challenger",
          "type": "address"
        },
        {
          "indexed": false,
          "name": "stake",
          "type": "uint256"
        }
      ],
      "name": "cloverChallenged",
      "type": "event"
    },
    {
      "anonymous": false,
      "inputs": [
        {
          "indexed": true,
          "name": "previousOwner",
          "type": "address"
        }
      ],
      "name": "OwnershipRenounced",
      "type": "event"
    },
    {
      "anonymous": false,
      "inputs": [
        {
          "indexed": true,
          "name": "previousOwner",
          "type": "address"
        },
        {
          "indexed": true,
          "name": "newOwner",
          "type": "address"
        }
      ],
      "name": "OwnershipTransferred",
      "type": "event"
    },
    {
      "constant": true,
      "inputs": [
        {
          "name": "movesHash",
          "type": "bytes32"
        }
      ],
      "name": "getStake",
      "outputs": [
        {
          "name": "",
          "type": "uint256"
        }
      ],
      "payable": false,
      "stateMutability": "view",
      "type": "function"
    },
    {
      "constant": true,
      "inputs": [
        {
          "name": "movesHash",
          "type": "bytes32"
        }
      ],
      "name": "getCommit",
      "outputs": [
        {
          "name": "",
          "type": "address"
        }
      ],
      "payable": false,
      "stateMutability": "view",
      "type": "function"
    },
    {
      "constant": true,
      "inputs": [
        {
          "name": "_tokenId",
          "type": "uint256"
        }
      ],
      "name": "getMovesHash",
      "outputs": [
        {
          "name": "",
          "type": "bytes32"
        }
      ],
      "payable": false,
      "stateMutability": "view",
      "type": "function"
    },
    {
      "constant": true,
      "inputs": [
        {
          "name": "moves",
          "type": "bytes28[2]"
        }
      ],
      "name": "isValid",
      "outputs": [
        {
          "name": "",
          "type": "bool"
        }
      ],
      "payable": false,
      "stateMutability": "view",
      "type": "function"
    },
    {
      "constant": true,
      "inputs": [
        {
          "components": [
            {
              "name": "error",
              "type": "bool"
            },
            {
              "name": "complete",
              "type": "bool"
            },
            {
              "name": "symmetrical",
              "type": "bool"
            },
            {
              "name": "RotSym",
              "type": "bool"
            },
            {
              "name": "Y0Sym",
              "type": "bool"
            },
            {
              "name": "X0Sym",
              "type": "bool"
            },
            {
              "name": "XYSym",
              "type": "bool"
            },
            {
              "name": "XnYSym",
              "type": "bool"
            },
            {
              "name": "board",
              "type": "bytes16"
            },
            {
              "name": "first32Moves",
              "type": "bytes28"
            },
            {
              "name": "lastMoves",
              "type": "bytes28"
            },
            {
              "name": "currentPlayer",
              "type": "uint8"
            },
            {
              "name": "moveKey",
              "type": "uint8"
            },
            {
              "name": "blackScore",
              "type": "uint8"
            },
            {
              "name": "whiteScore",
              "type": "uint8"
            }
          ],
          "name": "game",
          "type": "tuple"
        }
      ],
      "name": "isValidGame",
      "outputs": [
        {
          "name": "",
          "type": "bool"
        }
      ],
      "payable": false,
      "stateMutability": "pure",
      "type": "function"
    },
    {
      "constant": true,
      "inputs": [
        {
          "name": "_tokenId",
          "type": "uint256"
        }
      ],
      "name": "isVerified",
      "outputs": [
        {
          "name": "",
          "type": "bool"
        }
      ],
      "payable": false,
      "stateMutability": "view",
      "type": "function"
    },
    {
      "constant": true,
      "inputs": [
        {
          "name": "_symmetries",
          "type": "uint256"
        }
      ],
      "name": "calculateReward",
      "outputs": [
        {
          "name": "",
          "type": "uint256"
        }
      ],
      "payable": false,
      "stateMutability": "view",
      "type": "function"
    },
    {
      "constant": false,
      "inputs": [
        {
          "name": "moves",
          "type": "bytes28[2]"
        },
        {
          "name": "_tokenId",
          "type": "uint256"
        },
        {
          "name": "_symmetries",
          "type": "uint256"
        },
        {
          "name": "_keep",
          "type": "bool"
        }
      ],
      "name": "claimClover",
      "outputs": [
        {
          "name": "",
          "type": "bool"
        }
      ],
      "payable": true,
      "stateMutability": "payable",
      "type": "function"
    },
    {
      "constant": false,
      "inputs": [
        {
          "name": "_tokenId",
          "type": "uint256"
        }
      ],
      "name": "retrieveStake",
      "outputs": [
        {
          "name": "",
          "type": "bool"
        }
      ],
      "payable": true,
      "stateMutability": "payable",
      "type": "function"
    },
    {
      "constant": false,
      "inputs": [
        {
          "name": "_tokenId",
          "type": "uint256"
        }
      ],
      "name": "buyCloverFromContract",
      "outputs": [
        {
          "name": "",
          "type": "bool"
        }
      ],
      "payable": true,
      "stateMutability": "payable",
      "type": "function"
    },
    {
      "constant": true,
      "inputs": [
        {
          "name": "_board",
          "type": "bytes16"
        }
      ],
      "name": "convertBytes16ToUint",
      "outputs": [
        {
          "name": "number",
          "type": "uint256"
        }
      ],
      "payable": false,
      "stateMutability": "view",
      "type": "function"
    },
    {
      "constant": false,
      "inputs": [
        {
          "name": "_tokenId",
          "type": "uint256"
        }
      ],
      "name": "challengeClover",
      "outputs": [
        {
          "name": "",
          "type": "bool"
        }
      ],
      "payable": false,
      "stateMutability": "nonpayable",
      "type": "function"
    },
    {
      "constant": false,
      "inputs": [
        {
          "name": "_oracle",
          "type": "address"
        }
      ],
      "name": "updateOracle",
      "outputs": [],
      "payable": false,
      "stateMutability": "nonpayable",
      "type": "function"
    },
    {
      "constant": false,
      "inputs": [
        {
          "name": "_clubTokenController",
          "type": "address"
        }
      ],
      "name": "updateClubTokenController",
      "outputs": [],
      "payable": false,
      "stateMutability": "nonpayable",
      "type": "function"
    },
    {
      "constant": false,
      "inputs": [
        {
          "name": "_stakeAmount",
          "type": "uint256"
        }
      ],
      "name": "updateStakeAmount",
      "outputs": [],
      "payable": false,
      "stateMutability": "nonpayable",
      "type": "function"
    },
    {
      "constant": false,
      "inputs": [
        {
          "name": "_stakePeriod",
          "type": "uint256"
        }
      ],
      "name": "updateStakePeriod",
      "outputs": [],
      "payable": false,
      "stateMutability": "nonpayable",
      "type": "function"
    },
    {
      "constant": false,
      "inputs": [
        {
          "name": "_payMultiplier",
          "type": "uint256"
        }
      ],
      "name": "updatePayMultipier",
      "outputs": [],
      "payable": false,
      "stateMutability": "nonpayable",
      "type": "function"
    },
    {
      "constant": false,
      "inputs": [
        {
          "name": "_priceMultiplier",
          "type": "uint256"
        }
      ],
      "name": "updatePriceMultipier",
      "outputs": [],
      "payable": false,
      "stateMutability": "nonpayable",
      "type": "function"
    },
    {
      "constant": false,
      "inputs": [
        {
          "name": "_basePrice",
          "type": "uint256"
        }
      ],
      "name": "updateBasePrice",
      "outputs": [],
      "payable": false,
      "stateMutability": "nonpayable",
      "type": "function"
    }
  ],
  "bytecode": "0x60806040523480156200001157600080fd5b5060405160608062006035833981018060405262000033919081019062000165565b336000806101000a81548173ffffffffffffffffffffffffffffffffffffffff021916908373ffffffffffffffffffffffffffffffffffffffff1602179055506000341415156200008357600080fd5b82600260006101000a81548173ffffffffffffffffffffffffffffffffffffffff021916908373ffffffffffffffffffffffffffffffffffffffff16021790555081600360006101000a81548173ffffffffffffffffffffffffffffffffffffffff021916908373ffffffffffffffffffffffffffffffffffffffff16021790555080600460006101000a81548173ffffffffffffffffffffffffffffffffffffffff021916908373ffffffffffffffffffffffffffffffffffffffff160217905550505050620001db565b60006200015d8251620001bb565b905092915050565b6000806000606084860312156200017b57600080fd5b60006200018b868287016200014f565b93505060206200019e868287016200014f565b9250506040620001b1868287016200014f565b9150509250925092565b600073ffffffffffffffffffffffffffffffffffffffff82169050919050565b615e4a80620001eb6000396000f3006080604052600436106101c2576000357c0100000000000000000000000000000000000000000000000000000000900463ffffffff1680630d576bfa146101d157806317ffc320146101fc5780631cb44dfc14610225578063271eff941461024e57806337b6d96b1461028b5780633afcba96146102c857806343be0880146102f35780634788578114610323578063492d934d146103605780635759f3f71461039057806360c7dc47146103b9578063715018a6146103e45780637b7db9fa146103fb5780637dc0d1d0146104385780638784ea96146104635780638a05aafa146104a05780638da5cb5b146104c95780638fee6407146104f45780639564e180146105315780639f727c271461055a578063a4a83ca614610571578063a7e901b0146105ae578063a89b55da146105d7578063c0ee0b8a14610602578063c1699a991461062b578063c1fe551a14610656578063c7876ea414610686578063c90054ee146106b1578063d09687f7146106da578063d2d7231f14610717578063d50cb88b14610754578063d76bbd521461077f578063e765c122146107aa578063f2fde38b146107e7578063f8a68a5614610810578063fd5baa881461084d575b3480156101ce57600080fd5b50005b3480156101dd57600080fd5b506101e6610876565b6040516101f39190615984565b60405180910390f35b34801561020857600080fd5b50610223600480360361021e91908101906157b1565b61089c565b005b34801561023157600080fd5b5061024c600480360361024791908101906155ec565b6109f2565b005b34801561025a57600080fd5b5061027560048036036102709190810190615681565b610a91565b6040516102829190615ac2565b60405180910390f35b34801561029757600080fd5b506102b260048036036102ad9190810190615804565b610ab7565b6040516102bf9190615ac2565b60405180910390f35b3480156102d457600080fd5b506102dd610c74565b6040516102ea9190615b3c565b60405180910390f35b61030d600480360361030891908101906156d3565b610c7a565b60405161031a9190615ac2565b60405180910390f35b34801561032f57600080fd5b5061034a60048036036103459190810190615788565b611685565b6040516103579190615984565b60405180910390f35b61037a60048036036103759190810190615804565b6116b8565b6040516103879190615ac2565b60405180910390f35b34801561039c57600080fd5b506103b760048036036103b29190810190615804565b611add565b005b3480156103c557600080fd5b506103ce611b42565b6040516103db9190615b3c565b60405180910390f35b3480156103f057600080fd5b506103f9611b48565b005b34801561040757600080fd5b50610422600480360361041d9190810190615804565b611c4a565b60405161042f9190615ac2565b60405180910390f35b34801561044457600080fd5b5061044d612211565b60405161045a9190615984565b60405180910390f35b34801561046f57600080fd5b5061048a60048036036104859190810190615788565b612237565b6040516104979190615984565b60405180910390f35b3480156104ac57600080fd5b506104c760048036036104c29190810190615804565b61227c565b005b3480156104d557600080fd5b506104de6122e1565b6040516104eb9190615984565b60405180910390f35b34801561050057600080fd5b5061051b60048036036105169190810190615788565b612306565b6040516105289190615b3c565b60405180910390f35b34801561053d57600080fd5b50610558600480360361055391908101906155ec565b61231e565b005b34801561056657600080fd5b5061056f6123bd565b005b34801561057d57600080fd5b506105986004803603610593919081019061575f565b612499565b6040516105a59190615b3c565b60405180910390f35b3480156105ba57600080fd5b506105d560048036036105d09190810190615804565b612529565b005b3480156105e357600080fd5b506105ec61258e565b6040516105f99190615984565b60405180910390f35b34801561060e57600080fd5b5061062960048036036106249190810190615615565b6125b4565b005b34801561063757600080fd5b506106406125b9565b60405161064d9190615b3c565b60405180910390f35b610670600480360361066b9190810190615804565b6125bf565b60405161067d9190615ac2565b60405180910390f35b34801561069257600080fd5b5061069b612e9d565b6040516106a89190615b3c565b60405180910390f35b3480156106bd57600080fd5b506106d860048036036106d39190810190615804565b612ea3565b005b3480156106e657600080fd5b5061070160048036036106fc9190810190615804565b612f08565b60405161070e9190615add565b60405180910390f35b34801561072357600080fd5b5061073e60048036036107399190810190615804565b613016565b60405161074b9190615b3c565b60405180910390f35b34801561076057600080fd5b506107696132ac565b6040516107769190615b3c565b60405180910390f35b34801561078b57600080fd5b506107946132b2565b6040516107a19190615984565b60405180910390f35b3480156107b657600080fd5b506107d160048036036107cc9190810190615788565b6132d8565b6040516107de9190615b3c565b60405180910390f35b3480156107f357600080fd5b5061080e600480360361080991908101906155ec565b6132fd565b005b34801561081c57600080fd5b50610837600480360361083291908101906157da565b613364565b6040516108449190615ac2565b60405180910390f35b34801561085957600080fd5b50610874600480360361086f9190810190615804565b613397565b005b600260009054906101000a900473ffffffffffffffffffffffffffffffffffffffff1681565b60008060009054906101000a900473ffffffffffffffffffffffffffffffffffffffff1673ffffffffffffffffffffffffffffffffffffffff163373ffffffffffffffffffffffffffffffffffffffff161415156108f957600080fd5b8173ffffffffffffffffffffffffffffffffffffffff166370a08231306040518263ffffffff167c010000000000000000000000000000000000000000000000000000000002815260040161094e9190615b21565b602060405180830381600087803b15801561096857600080fd5b505af115801561097c573d6000803e3d6000fd5b505050506040513d601f19601f820116820180604052506109a0919081019061582d565b90506109ee6000809054906101000a900473ffffffffffffffffffffffffffffffffffffffff16828473ffffffffffffffffffffffffffffffffffffffff166133fc9092919063ffffffff16565b5050565b6000809054906101000a900473ffffffffffffffffffffffffffffffffffffffff1673ffffffffffffffffffffffffffffffffffffffff163373ffffffffffffffffffffffffffffffffffffffff16141515610a4d57600080fd5b80600160006101000a81548173ffffffffffffffffffffffffffffffffffffffff021916908373ffffffffffffffffffffffffffffffffffffffff16021790555050565b6000610a9b6150bc565b610aa4836134b5565b9050610aaf81613364565b915050919050565b600080600260009054906101000a900473ffffffffffffffffffffffffffffffffffffffff1673ffffffffffffffffffffffffffffffffffffffff166303a53d6b846040518263ffffffff167c0100000000000000000000000000000000000000000000000000000000028152600401610b319190615b3c565b602060405180830381600087803b158015610b4b57600080fd5b505af1158015610b5f573d6000803e3d6000fd5b505050506040513d601f19601f82011682018060405250610b83919081019061582d565b90506000811415610b975760009150610c6e565b6000809054906101000a900473ffffffffffffffffffffffffffffffffffffffff1673ffffffffffffffffffffffffffffffffffffffff163373ffffffffffffffffffffffffffffffffffffffff161415610bf55760019150610c6e565b600160009054906101000a900473ffffffffffffffffffffffffffffffffffffffff1673ffffffffffffffffffffffffffffffffffffffff163373ffffffffffffffffffffffffffffffffffffffff161415610c545760019150610c6e565b600954610c6a82436137f990919063ffffffff16565b1191505b50919050565b60075481565b6000806000866040518082600260200280838360005b83811015610cab578082015181840152602081019050610c90565b50505050905001915050604051809103902091506008543410151515610cd057600080fd5b6000610cdb83612237565b73ffffffffffffffffffffffffffffffffffffffff16141515610cfd57600080fd5b610d078233613812565b610d1382600854613870565b600260009054906101000a900473ffffffffffffffffffffffffffffffffffffffff1673ffffffffffffffffffffffffffffffffffffffff166108fc6008549081150290604051600060405180830381858888f19350505050158015610d7d573d6000803e3d6000fd5b507f4c0f83654ac2972673e4d81058f833de298389df1dce04cc2db9f231b907d5ff8233604051610daf929190615af8565b60405180910390a1600260009054906101000a900473ffffffffffffffffffffffffffffffffffffffff1673ffffffffffffffffffffffffffffffffffffffff16634f558e79876040518263ffffffff167c0100000000000000000000000000000000000000000000000000000000028152600401610e2e9190615b3c565b602060405180830381600087803b158015610e4857600080fd5b505af1158015610e5c573d6000803e3d6000fd5b505050506040513d601f19601f82011682018060405250610e809190810190615736565b151515610e8c57600080fd5b6000600260009054906101000a900473ffffffffffffffffffffffffffffffffffffffff1673ffffffffffffffffffffffffffffffffffffffff166303a53d6b886040518263ffffffff167c0100000000000000000000000000000000000000000000000000000000028152600401610f059190615b3c565b602060405180830381600087803b158015610f1f57600080fd5b505af1158015610f33573d6000803e3d6000fd5b505050506040513d601f19601f82011682018060405250610f57919081019061582d565b141515610f6357600080fd5b600260009054906101000a900473ffffffffffffffffffffffffffffffffffffffff1673ffffffffffffffffffffffffffffffffffffffff1663e3100d1e87436040518363ffffffff167c0100000000000000000000000000000000000000000000000000000000028152600401610fdc929190615be0565b600060405180830381600087803b158015610ff657600080fd5b505af115801561100a573d6000803e3d6000fd5b50505050600260009054906101000a900473ffffffffffffffffffffffffffffffffffffffff1673ffffffffffffffffffffffffffffffffffffffff16630b62839587896040518363ffffffff167c0100000000000000000000000000000000000000000000000000000000028152600401611087929190615b8e565b600060405180830381600087803b1580156110a157600080fd5b505af11580156110b5573d6000803e3d6000fd5b50505050600260009054906101000a900473ffffffffffffffffffffffffffffffffffffffff1673ffffffffffffffffffffffffffffffffffffffff166376e4a87f87866040518363ffffffff167c0100000000000000000000000000000000000000000000000000000000028152600401611132929190615bb7565b600060405180830381600087803b15801561114c57600080fd5b505af1158015611160573d6000803e3d6000fd5b5050505060008511156112cf57600260009054906101000a900473ffffffffffffffffffffffffffffffffffffffff1673ffffffffffffffffffffffffffffffffffffffff1663dc3f775887876040518363ffffffff167c01000000000000000000000000000000000000000000000000000000000281526004016111e6929190615be0565b600060405180830381600087803b15801561120057600080fd5b505af1158015611214573d6000803e3d6000fd5b5050505061122185613016565b9050600260009054906101000a900473ffffffffffffffffffffffffffffffffffffffff1673ffffffffffffffffffffffffffffffffffffffff1663a47bd49687836040518363ffffffff167c010000000000000000000000000000000000000000000000000000000002815260040161129c929190615be0565b600060405180830381600087803b1580156112b657600080fd5b505af11580156112ca573d6000803e3d6000fd5b505050505b8315611565576112ea8160055461389490919063ffffffff16565b600360009054906101000a900473ffffffffffffffffffffffffffffffffffffffff1673ffffffffffffffffffffffffffffffffffffffff166370a08231336040518263ffffffff167c01000000000000000000000000000000000000000000000000000000000281526004016113619190615984565b602060405180830381600087803b15801561137b57600080fd5b505af115801561138f573d6000803e3d6000fd5b505050506040513d601f19601f820116820180604052506113b3919081019061582d565b101561148457600460009054906101000a900473ffffffffffffffffffffffffffffffffffffffff1673ffffffffffffffffffffffffffffffffffffffff1663f088d547336040518263ffffffff167c01000000000000000000000000000000000000000000000000000000000281526004016114309190615984565b602060405180830381600087803b15801561144a57600080fd5b505af115801561145e573d6000803e3d6000fd5b505050506040513d601f19601f820116820180604052506114829190810190615736565b505b600360009054906101000a900473ffffffffffffffffffffffffffffffffffffffff1673ffffffffffffffffffffffffffffffffffffffff1663d73dd623306114d88460055461389490919063ffffffff16565b6040518363ffffffff167c01000000000000000000000000000000000000000000000000000000000281526004016115119291906159d6565b602060405180830381600087803b15801561152b57600080fd5b505af115801561153f573d6000803e3d6000fd5b505050506040513d601f19601f820116820180604052506115639190810190615736565b505b600260009054906101000a900473ffffffffffffffffffffffffffffffffffffffff1673ffffffffffffffffffffffffffffffffffffffff166340c10f19600260009054906101000a900473ffffffffffffffffffffffffffffffffffffffff16886040518363ffffffff167c01000000000000000000000000000000000000000000000000000000000281526004016116009291906159d6565b600060405180830381600087803b15801561161a57600080fd5b505af115801561162e573d6000803e3d6000fd5b505050507f1c3b3e1e72950ae52150ec48810521d17cea4b30c2a59c807d1ba2f8dff57e65878733600854858a8a60405161166f9796959493929190615a52565b60405180910390a1600192505050949350505050565b600a6020528060005260406000206000915054906101000a900473ffffffffffffffffffffffffffffffffffffffff1681565b6000806000600260009054906101000a900473ffffffffffffffffffffffffffffffffffffffff1673ffffffffffffffffffffffffffffffffffffffff16631c4b774b856040518263ffffffff167c01000000000000000000000000000000000000000000000000000000000281526004016117349190615b3c565b602060405180830381600087803b15801561174e57600080fd5b505af1158015611762573d6000803e3d6000fd5b505050506040513d601f19601f82011682018060405250611786919081019061582d565b91506117b16117a0600654846138b090919063ffffffff16565b60055461389490919063ffffffff16565b905080600360009054906101000a900473ffffffffffffffffffffffffffffffffffffffff1673ffffffffffffffffffffffffffffffffffffffff166370a08231336040518263ffffffff167c010000000000000000000000000000000000000000000000000000000002815260040161182b9190615984565b602060405180830381600087803b15801561184557600080fd5b505af1158015611859573d6000803e3d6000fd5b505050506040513d601f19601f8201168201806040525061187d919081019061582d565b101561194e57600460009054906101000a900473ffffffffffffffffffffffffffffffffffffffff1673ffffffffffffffffffffffffffffffffffffffff1663f088d547336040518263ffffffff167c01000000000000000000000000000000000000000000000000000000000281526004016118fa9190615984565b602060405180830381600087803b15801561191457600080fd5b505af1158015611928573d6000803e3d6000fd5b505050506040513d601f19601f8201168201806040525061194c9190810190615736565b505b6000811115611a0357600360009054906101000a900473ffffffffffffffffffffffffffffffffffffffff1673ffffffffffffffffffffffffffffffffffffffff16639dc29fac33836040518363ffffffff167c01000000000000000000000000000000000000000000000000000000000281526004016119d09291906159d6565b600060405180830381600087803b1580156119ea57600080fd5b505af11580156119fe573d6000803e3d6000fd5b505050505b600260009054906101000a900473ffffffffffffffffffffffffffffffffffffffff1673ffffffffffffffffffffffffffffffffffffffff166323b872dd600260009054906101000a900473ffffffffffffffffffffffffffffffffffffffff1633876040518463ffffffff167c0100000000000000000000000000000000000000000000000000000000028152600401611aa09392919061599f565b600060405180830381600087803b158015611aba57600080fd5b505af1158015611ace573d6000803e3d6000fd5b50505050600192505050919050565b6000809054906101000a900473ffffffffffffffffffffffffffffffffffffffff1673ffffffffffffffffffffffffffffffffffffffff163373ffffffffffffffffffffffffffffffffffffffff16141515611b3857600080fd5b8060098190555050565b60085481565b6000809054906101000a900473ffffffffffffffffffffffffffffffffffffffff1673ffffffffffffffffffffffffffffffffffffffff163373ffffffffffffffffffffffffffffffffffffffff16141515611ba357600080fd5b6000809054906101000a900473ffffffffffffffffffffffffffffffffffffffff1673ffffffffffffffffffffffffffffffffffffffff167ff8df31144d9c2f0f6b59d69b8b98abd5459d07f2742c4df920b25aae33c6482060405160405180910390a260008060006101000a81548173ffffffffffffffffffffffffffffffffffffffff021916908373ffffffffffffffffffffffffffffffffffffffff160217905550565b600080611c55615170565b611c5d6150bc565b60008060008060019650600260009054906101000a900473ffffffffffffffffffffffffffffffffffffffff1673ffffffffffffffffffffffffffffffffffffffff166362f9acf98a6040518263ffffffff167c0100000000000000000000000000000000000000000000000000000000028152600401611cde9190615b3c565b6040805180830381600087803b158015611cf757600080fd5b505af1158015611d0b573d6000803e3d6000fd5b505050506040513d601f19601f82011682018060405250611d2f91908101906156aa565b9550600064010000000002866000600281101515611d4957fe5b602002015163ffffffff191614151515611d6257600080fd5b611d6b866134b5565b945088611d7c866101000151612499565b141515611d8857600096505b868015611d9a5750611d9985613364565b5b15611f2e57600260009054906101000a900473ffffffffffffffffffffffffffffffffffffffff1673ffffffffffffffffffffffffffffffffffffffff1663c53b4bf98a6040518263ffffffff167c0100000000000000000000000000000000000000000000000000000000028152600401611e169190615b3c565b602060405180830381600087803b158015611e3057600080fd5b505af1158015611e44573d6000803e3d6000fd5b505050506040513d601f19601f82011682018060405250611e68919081019061582d565b935084606001511515600060016004879060020a90041611151514611e8e576000611e90565b865b965084608001511515600060016003879060020a90041611151514611eb6576000611eb8565b865b96508460a001511515600060016002879060020a90041611151514611ede576000611ee0565b865b96508460c0015115156000600180879060020a90041611151514611f05576000611f07565b865b96508460e00151151560006001861611151514611f25576000611f27565b865b9650611f33565b600096505b86151515611f4057600080fd5b856040518082600260200280838360005b83811015611f6c578082015181840152602081019050611f51565b5050505090500191505060405180910390209250611f8989610ab7565b151561204657611f98836132d8565b9150600260009054906101000a900473ffffffffffffffffffffffffffffffffffffffff1673ffffffffffffffffffffffffffffffffffffffff16631cc1472d33846040518363ffffffff167c01000000000000000000000000000000000000000000000000000000000281526004016120139291906159d6565b600060405180830381600087803b15801561202d57600080fd5b505af1158015612041573d6000803e3d6000fd5b505050505b600260009054906101000a900473ffffffffffffffffffffffffffffffffffffffff1673ffffffffffffffffffffffffffffffffffffffff16630e8310d68a6040518263ffffffff167c01000000000000000000000000000000000000000000000000000000000281526004016120bd9190615b3c565b600060405180830381600087803b1580156120d757600080fd5b505af11580156120eb573d6000803e3d6000fd5b50505050600260009054906101000a900473ffffffffffffffffffffffffffffffffffffffff1673ffffffffffffffffffffffffffffffffffffffff166364e779b18a6040518263ffffffff167c01000000000000000000000000000000000000000000000000000000000281526004016121669190615b3c565b600060405180830381600087803b15801561218057600080fd5b505af1158015612194573d6000803e3d6000fd5b505050506121a3836000613812565b6121ae836000613870565b6121b7896138e8565b6121c083612237565b90507f23e709ab80a4bee9454ba0d08c0b669d684531b4ec766524c43abd788cc3ca76868a8333866040516121f99594939291906159ff565b60405180910390a16001975050505050505050919050565b600160009054906101000a900473ffffffffffffffffffffffffffffffffffffffff1681565b6000600a6000836000191660001916815260200190815260200160002060009054906101000a900473ffffffffffffffffffffffffffffffffffffffff169050919050565b6000809054906101000a900473ffffffffffffffffffffffffffffffffffffffff1673ffffffffffffffffffffffffffffffffffffffff163373ffffffffffffffffffffffffffffffffffffffff161415156122d757600080fd5b8060078190555050565b6000809054906101000a900473ffffffffffffffffffffffffffffffffffffffff1681565b600b6020528060005260406000206000915090505481565b6000809054906101000a900473ffffffffffffffffffffffffffffffffffffffff1673ffffffffffffffffffffffffffffffffffffffff163373ffffffffffffffffffffffffffffffffffffffff1614151561237957600080fd5b80600460006101000a81548173ffffffffffffffffffffffffffffffffffffffff021916908373ffffffffffffffffffffffffffffffffffffffff16021790555050565b6000809054906101000a900473ffffffffffffffffffffffffffffffffffffffff1673ffffffffffffffffffffffffffffffffffffffff163373ffffffffffffffffffffffffffffffffffffffff1614151561241857600080fd5b6000809054906101000a900473ffffffffffffffffffffffffffffffffffffffff1673ffffffffffffffffffffffffffffffffffffffff166108fc3073ffffffffffffffffffffffffffffffffffffffff16319081150290604051600060405180830381858888f19350505050158015612496573d6000803e3d6000fd5b50565b600080600090505b601060ff168110156125235760018101601060ff160360080260020a83826010811015156124cb57fe5b1a7f0100000000000000000000000000000000000000000000000000000000000000027f01000000000000000000000000000000000000000000000000000000000000009004028201915080806001019150506124a1565b50919050565b6000809054906101000a900473ffffffffffffffffffffffffffffffffffffffff1673ffffffffffffffffffffffffffffffffffffffff163373ffffffffffffffffffffffffffffffffffffffff1614151561258457600080fd5b8060068190555050565b600460009054906101000a900473ffffffffffffffffffffffffffffffffffffffff1681565b600080fd5b60095481565b60006125c9615170565b6000806000806000600260009054906101000a900473ffffffffffffffffffffffffffffffffffffffff1673ffffffffffffffffffffffffffffffffffffffff166362f9acf9896040518263ffffffff167c01000000000000000000000000000000000000000000000000000000000281526004016126489190615b3c565b6040805180830381600087803b15801561266157600080fd5b505af1158015612675573d6000803e3d6000fd5b505050506040513d601f19601f8201168201806040525061269991908101906156aa565b95506000640100000000028660006002811015156126b357fe5b602002015163ffffffff1916141515156126cc57600080fd5b856040518082600260200280838360005b838110156126f85780820151818401526020810190506126dd565b5050505090500191505060405180910390209450612715856132d8565b93506000841415151561272757600080fd5b61273088610ab7565b151561273b57600080fd5b612746856000613870565b61274f88613c11565b61275885612237565b92508273ffffffffffffffffffffffffffffffffffffffff163373ffffffffffffffffffffffffffffffffffffffff1614151561279457600080fd5b600260009054906101000a900473ffffffffffffffffffffffffffffffffffffffff1673ffffffffffffffffffffffffffffffffffffffff16631c4b774b896040518263ffffffff167c010000000000000000000000000000000000000000000000000000000002815260040161280b9190615b3c565b602060405180830381600087803b15801561282557600080fd5b505af1158015612839573d6000803e3d6000fd5b505050506040513d601f19601f8201168201806040525061285d919081019061582d565b9150600260009054906101000a900473ffffffffffffffffffffffffffffffffffffffff1673ffffffffffffffffffffffffffffffffffffffff166304952631896040518263ffffffff167c01000000000000000000000000000000000000000000000000000000000281526004016128d69190615b3c565b602060405180830381600087803b1580156128f057600080fd5b505af1158015612904573d6000803e3d6000fd5b505050506040513d601f19601f820116820180604052506129289190810190615736565b90508015612cc7576129458260055461389490919063ffffffff16565b600360009054906101000a900473ffffffffffffffffffffffffffffffffffffffff1673ffffffffffffffffffffffffffffffffffffffff166370a08231856040518263ffffffff167c01000000000000000000000000000000000000000000000000000000000281526004016129bc9190615984565b602060405180830381600087803b1580156129d657600080fd5b505af11580156129ea573d6000803e3d6000fd5b505050506040513d601f19601f82011682018060405250612a0e919081019061582d565b108015612a4657503373ffffffffffffffffffffffffffffffffffffffff168373ffffffffffffffffffffffffffffffffffffffff16145b15612b1657600460009054906101000a900473ffffffffffffffffffffffffffffffffffffffff1673ffffffffffffffffffffffffffffffffffffffff1663f088d547846040518263ffffffff167c0100000000000000000000000000000000000000000000000000000000028152600401612ac29190615984565b602060405180830381600087803b158015612adc57600080fd5b505af1158015612af0573d6000803e3d6000fd5b505050506040513d601f19601f82011682018060405250612b149190810190615736565b505b6000612b2d8360055461389490919063ffffffff16565b1115612bf357600360009054906101000a900473ffffffffffffffffffffffffffffffffffffffff1673ffffffffffffffffffffffffffffffffffffffff16639dc29fac84612b878560055461389490919063ffffffff16565b6040518363ffffffff167c0100000000000000000000000000000000000000000000000000000000028152600401612bc09291906159d6565b600060405180830381600087803b158015612bda57600080fd5b505af1158015612bee573d6000803e3d6000fd5b505050505b600260009054906101000a900473ffffffffffffffffffffffffffffffffffffffff1673ffffffffffffffffffffffffffffffffffffffff166323b872dd600260009054906101000a900473ffffffffffffffffffffffffffffffffffffffff16858b6040518463ffffffff167c0100000000000000000000000000000000000000000000000000000000028152600401612c909392919061599f565b600060405180830381600087803b158015612caa57600080fd5b505af1158015612cbe573d6000803e3d6000fd5b50505050612da8565b6000821115612da757600360009054906101000a900473ffffffffffffffffffffffffffffffffffffffff1673ffffffffffffffffffffffffffffffffffffffff166340c10f1984846040518363ffffffff167c0100000000000000000000000000000000000000000000000000000000028152600401612d499291906159d6565b602060405180830381600087803b158015612d6357600080fd5b505af1158015612d77573d6000803e3d6000fd5b505050506040513d601f19601f82011682018060405250612d9b9190810190615736565b1515612da657600080fd5b5b5b600260009054906101000a900473ffffffffffffffffffffffffffffffffffffffff1673ffffffffffffffffffffffffffffffffffffffff16631cc1472d84866040518363ffffffff167c0100000000000000000000000000000000000000000000000000000000028152600401612e219291906159d6565b600060405180830381600087803b158015612e3b57600080fd5b505af1158015612e4f573d6000803e3d6000fd5b505050507fa8a1a24efbea93a5c7f29342ba7652cd030828e12cc15c1416480fecee73d589888486604051612e8693929190615b57565b60405180910390a160019650505050505050919050565b60055481565b6000809054906101000a900473ffffffffffffffffffffffffffffffffffffffff1673ffffffffffffffffffffffffffffffffffffffff163373ffffffffffffffffffffffffffffffffffffffff16141515612efe57600080fd5b8060088190555050565b6000600260009054906101000a900473ffffffffffffffffffffffffffffffffffffffff1673ffffffffffffffffffffffffffffffffffffffff166362f9acf9836040518263ffffffff167c0100000000000000000000000000000000000000000000000000000000028152600401612f819190615b3c565b6040805180830381600087803b158015612f9a57600080fd5b505af1158015612fae573d6000803e3d6000fd5b505050506040513d601f19601f82011682018060405250612fd291908101906156aa565b6040518082600260200280838360005b83811015612ffd578082015181840152602081019050612fe2565b5050505090500191505060405180910390209050919050565b600080600080600080600080600260009054906101000a900473ffffffffffffffffffffffffffffffffffffffff1673ffffffffffffffffffffffffffffffffffffffff1663785d8d716040518163ffffffff167c010000000000000000000000000000000000000000000000000000000002815260040160c060405180830381600087803b1580156130a857600080fd5b505af11580156130bc573d6000803e3d6000fd5b505050506040513d601f19601f820116820180604052506130e09190810190615856565b809750819850829950839a50849b50859c505050505050506000905060018060048b9060020a90041614156131515761314e61313f6001880161313160018b016007546138b090919063ffffffff16565b613f3a90919063ffffffff16565b8261389490919063ffffffff16565b90505b60018060038b9060020a90041614156131a6576131a36131946001870161318660018b016007546138b090919063ffffffff16565b613f3a90919063ffffffff16565b8261389490919063ffffffff16565b90505b60018060028b9060020a90041614156131fb576131f86131e9600186016131db60018b016007546138b090919063ffffffff16565b613f3a90919063ffffffff16565b8261389490919063ffffffff16565b90505b60018060018b9060020a90041614156132505761324d61323e6001850161323060018b016007546138b090919063ffffffff16565b613f3a90919063ffffffff16565b8261389490919063ffffffff16565b90505b6001808a16141561329d5761329a61328b6001840161327d60018b016007546138b090919063ffffffff16565b613f3a90919063ffffffff16565b8261389490919063ffffffff16565b90505b80975050505050505050919050565b60065481565b600360009054906101000a900473ffffffffffffffffffffffffffffffffffffffff1681565b6000600b60008360001916600019168152602001908152602001600020549050919050565b6000809054906101000a900473ffffffffffffffffffffffffffffffffffffffff1673ffffffffffffffffffffffffffffffffffffffff163373ffffffffffffffffffffffffffffffffffffffff1614151561335857600080fd5b61336181613f50565b50565b60008160000151156133795760009050613392565b8160200151151561338d5760009050613392565b600190505b919050565b6000809054906101000a900473ffffffffffffffffffffffffffffffffffffffff1673ffffffffffffffffffffffffffffffffffffffff163373ffffffffffffffffffffffffffffffffffffffff161415156133f257600080fd5b8060058190555050565b8273ffffffffffffffffffffffffffffffffffffffff1663a9059cbb83836040518363ffffffff167c01000000000000000000000000000000000000000000000000000000000281526004016134539291906159d6565b602060405180830381600087803b15801561346d57600080fd5b505af1158015613481573d6000803e3d6000fd5b505050506040513d601f19601f820116820180604052506134a59190810190615736565b15156134b057600080fd5b505050565b6134bd6150bc565b6134c56150bc565b6000806000806000808860006002811015156134dd57fe5b602002015187610120019063ffffffff1916908163ffffffff19168152505088600160028110151561350b57fe5b602002015187610140019063ffffffff1916908163ffffffff191681525050600087610180019060ff16908160ff16815250506002876101a0019060ff16908160ff16815250506002876101c0019060ff16908160ff168152505060008760000190151590811515815250506000876020019015159081151581525050600187610160019060ff16908160ff16815250506ffffffffffffffe7ffdbfffffffffffff700100000000000000000000000000000000028761010001906fffffffffffffffffffffffffffffffff191690816fffffffffffffffffffffffffffffffff191681525050600091505b603c8260ff16108015613608575085155b156137b757602087610180015160ff16106136285786610140015161362f565b8661012001515b905061365181602089610180015160ff1681151561364957fe5b06602061404a565b945061365c8561408e565b809450819550505061366d856140cd565b15955060008260ff16148015613696575060028460ff16141580613695575060038360ff1614155b5b156136b1576001955060018760000190151590811515815250505b851580156136c2575060088460ff16105b80156136d1575060088360ff16105b80156136e1575060008460ff1610155b80156136f1575060008360ff1610155b156137aa576137018785856140de565b965060018761018001510187610180019060ff16908160ff16815250508660000151156137a9576000876000019015159081151581525050600160ff1687610160015160ff16141561376657600287610160019060ff16908160ff168152505061377b565b600187610160019060ff16908160ff16815250505b6137868785856140de565b96508660000151156137a8576001876000019015159081151581525050600195505b5b5b81806001019250506135f7565b866000015115156137ea5760008760000190151590811515815250506137dc876143e0565b96506137e78761471f565b96505b86975050505050505050919050565b600082821115151561380757fe5b818303905092915050565b80600a6000846000191660001916815260200190815260200160002060006101000a81548173ffffffffffffffffffffffffffffffffffffffff021916908373ffffffffffffffffffffffffffffffffffffffff1602179055505050565b80600b60008460001916600019168152602001908152602001600020819055505050565b600081830190508281101515156138a757fe5b80905092915050565b6000808314156138c357600090506138e2565b81830290508183828115156138d457fe5b041415156138de57fe5b8090505b92915050565b6000806000806000806000600260009054906101000a900473ffffffffffffffffffffffffffffffffffffffff1673ffffffffffffffffffffffffffffffffffffffff1663785d8d716040518163ffffffff167c010000000000000000000000000000000000000000000000000000000002815260040160c060405180830381600087803b15801561397957600080fd5b505af115801561398d573d6000803e3d6000fd5b505050506040513d601f19601f820116820180604052506139b19190810190615856565b809750819850829950839a50849b50859c50505050505050600260009054906101000a900473ffffffffffffffffffffffffffffffffffffffff1673ffffffffffffffffffffffffffffffffffffffff1663c53b4bf9896040518263ffffffff167c0100000000000000000000000000000000000000000000000000000000028152600401613a409190615b3c565b602060405180830381600087803b158015613a5a57600080fd5b505af1158015613a6e573d6000803e3d6000fd5b505050506040513d601f19601f82011682018060405250613a92919081019061582d565b9050613abb60008211613aa6576000613aa9565b60015b60ff16886137f990919063ffffffff16565b9650613adb60016004839060020a900416876137f990919063ffffffff16565b9550613afb60016003839060020a900416866137f990919063ffffffff16565b9450613b1b60016002839060020a900416856137f990919063ffffffff16565b9350613b3a600180839060020a900416846137f990919063ffffffff16565b9250613b5260018216836137f990919063ffffffff16565b9150600260009054906101000a900473ffffffffffffffffffffffffffffffffffffffff1673ffffffffffffffffffffffffffffffffffffffff16638b1b2ba88888888888886040518763ffffffff167c0100000000000000000000000000000000000000000000000000000000028152600401613bd596959493929190615c09565b600060405180830381600087803b158015613bef57600080fd5b505af1158015613c03573d6000803e3d6000fd5b505050505050505050505050565b6000806000806000806000600260009054906101000a900473ffffffffffffffffffffffffffffffffffffffff1673ffffffffffffffffffffffffffffffffffffffff1663785d8d716040518163ffffffff167c010000000000000000000000000000000000000000000000000000000002815260040160c060405180830381600087803b158015613ca257600080fd5b505af1158015613cb6573d6000803e3d6000fd5b505050506040513d601f19601f82011682018060405250613cda9190810190615856565b809750819850829950839a50849b50859c50505050505050600260009054906101000a900473ffffffffffffffffffffffffffffffffffffffff1673ffffffffffffffffffffffffffffffffffffffff1663c53b4bf9896040518263ffffffff167c0100000000000000000000000000000000000000000000000000000000028152600401613d699190615b3c565b602060405180830381600087803b158015613d8357600080fd5b505af1158015613d97573d6000803e3d6000fd5b505050506040513d601f19601f82011682018060405250613dbb919081019061582d565b9050613de460008211613dcf576000613dd2565b60015b60ff168861389490919063ffffffff16565b9650613e0460016004839060020a9004168761389490919063ffffffff16565b9550613e2460016003839060020a9004168661389490919063ffffffff16565b9450613e4460016002839060020a9004168561389490919063ffffffff16565b9350613e63600180839060020a9004168461389490919063ffffffff16565b9250613e7b600182168361389490919063ffffffff16565b9150600260009054906101000a900473ffffffffffffffffffffffffffffffffffffffff1673ffffffffffffffffffffffffffffffffffffffff16638b1b2ba88888888888886040518763ffffffff167c0100000000000000000000000000000000000000000000000000000000028152600401613efe96959493929190615c09565b600060405180830381600087803b158015613f1857600080fd5b505af1158015613f2c573d6000803e3d6000fd5b505050505050505050505050565b60008183811515613f4757fe5b04905092915050565b600073ffffffffffffffffffffffffffffffffffffffff168173ffffffffffffffffffffffffffffffffffffffff1614151515613f8c57600080fd5b8073ffffffffffffffffffffffffffffffffffffffff166000809054906101000a900473ffffffffffffffffffffffffffffffffffffffff1673ffffffffffffffffffffffffffffffffffffffff167f8be0079c531659141344cd1fd0a4f28419497f9722a3daafe3b4186f6b6457e060405160405180910390a3806000806101000a81548173ffffffffffffffffffffffffffffffffffffffff021916908373ffffffffffffffffffffffffffffffffffffffff16021790555050565b6000806000607f64010000000002915060078086026007860203039050818160ff168763ffffffff19169060020a9004166401000000009004925050509392505050565b60008060008060408503945060088560ff168115156140a957fe5b069150600882860360ff168115156140bd57fe5b0490508181935093505050915091565b600060408260ff1610159050919050565b6140e66150bc565b6140ee615192565b600080600080600080600080600360ff1661410f8e61010001518e8e614a17565b60ff161415156141325760018d60000190151590811515815250508c99506143d0565b61413d8d8d8d614a8d565b809950819a50505060008860ff16141561416a5760018d60000190151590811515815250508c99506143d0565b60009150600090505b8760ff168160ff1610156142d05760009650600095506141aa8d8a8360ff1660088110151561419e57fe5b60200201518e8e614dcc565b8097508198505050600092505b8560ff168360ff1610156142c3578115156141d157600191505b6141e46141df88858961404a565b61408e565b80955081965050506142028d61010001518e61016001518787614f30565b8d61010001906fffffffffffffffffffffffffffffffff191690816fffffffffffffffffffffffffffffffff191681525050600260ff168d610160015160ff1614156142815760018d6101c0018181510191509060ff16908160ff168152505060018d6101a0018181510391509060ff16908160ff16815250506142b6565b60018d6101c0018181510391509060ff16908160ff168152505060018d6101a0018181510191509060ff16908160ff16815250505b82806001019350506141b7565b8080600101915050614173565b8115614371576142ec8d61010001518e61016001518e8e614f30565b8d61010001906fffffffffffffffffffffffffffffffff191690816fffffffffffffffffffffffffffffffff191681525050600260ff168d610160015160ff1614156143515760018d6101c0018181510191509060ff16908160ff168152505061436c565b60018d6101a0018181510191509060ff16908160ff16815250505b61438a565b60018d60000190151590811515815250508c99506143d0565b600160ff168d610160015160ff1614156143b75760028d610160019060ff16908160ff16815250506143cc565b60018d610160019060ff16908160ff16815250505b8c99505b5050505050505050509392505050565b6143e86150bc565b6143f06151c1565b60008060008060006144006151f0565b603c89610180015160ff16141561442a576001896020019015159081151581525050889750614713565b60009550600094505b60408560ff16101561450c5761447d8961010001516008808860ff1681151561445857fe5b06880360ff1681151561446757fe5b0460088860ff1681151561447757fe5b06614a17565b9350600360ff168460ff1614156144ff5760408051908101604052806008808860ff168115156144a957fe5b06880360ff168115156144b857fe5b0460ff1660ff16815260200160088760ff168115156144d357fe5b0660ff1660ff16815250878760ff16603c811015156144ee57fe5b602002018190525085806001019650505b8480600101955050614433565b6000925060008660ff1611156146d0578861010001519150600094505b8560ff168560ff1610801561453c575082155b1561469c57868560ff16603c8110151561455257fe5b60200201519050600189610160019060ff16908160ff16815250506000896000019015159081151581525050818961010001906fffffffffffffffffffffffffffffffff191690816fffffffffffffffffffffffffffffffff1916815250506145e2898260006002811015156145c457fe5b60200201518360016002811015156145d857fe5b60200201516140de565b9850886000015115156145f457600192505b600289610160019060ff16908160ff16815250506000896000019015159081151581525050818961010001906fffffffffffffffffffffffffffffffff191690816fffffffffffffffffffffffffffffffff19168152505061467d8982600060028110151561465f57fe5b602002015183600160028110151561467357fe5b60200201516140de565b98508860000151151561468f57600192505b8480600101955050614529565b818961010001906fffffffffffffffffffffffffffffffff191690816fffffffffffffffffffffffffffffffff1916815250505b82156146ec57600189600001901515908115158152505061470f565b600189602001901515908115158152505060008960000190151590811515815250505b8897505b50505050505050919050565b6147276150bc565b60008060008060008060006001965060019550600194506001935060019250600091505b60088260ff1610801561477b575086806147625750855b8061476a5750845b806147725750835b8061477a5750825b5b1561498057600090505b60088160ff161080156147b55750868061479c5750855b806147a45750845b806147ac5750835b806147b45750825b5b15614973576147d08961010001518360070383600703614ffc565b6fffffffffffffffffffffffffffffffff19166147f38a61010001518484614ffc565b6fffffffffffffffffffffffffffffffff191614151561481257600096505b6148258961010001518383600703614ffc565b6fffffffffffffffffffffffffffffffff19166148488a61010001518484614ffc565b6fffffffffffffffffffffffffffffffff191614151561486757600095505b61487a8961010001518360070383614ffc565b6fffffffffffffffffffffffffffffffff191661489d8a61010001518484614ffc565b6fffffffffffffffffffffffffffffffff19161415156148bc57600094505b6148d28961010001518260070384600703614ffc565b6fffffffffffffffffffffffffffffffff19166148f58a61010001518484614ffc565b6fffffffffffffffffffffffffffffffff191614151561491457600093505b6149248961010001518284614ffc565b6fffffffffffffffffffffffffffffffff19166149478a61010001518484614ffc565b6fffffffffffffffffffffffffffffffff191614151561496657600092505b8080600101915050614785565b818060010192505061474b565b86806149895750855b806149915750845b806149995750835b806149a15750825b15614a085760018960400190151590811515815250508689606001901515908115158152505085896080019015159081151581525050848960a0019015159081151581525050838960c0019015159081151581525050828960e00190151590811515815250505b88975050505050505050919050565b6000806000614a268585615058565b9150600370010000000000000000000000000000000002826fffffffffffffffffffffffffffffffff16876fffffffffffffffffffffffffffffffff19169060020a9004169050807001000000000000000000000000000000009004925050509392505050565b614a95615192565b6000614a9f615192565b6000614aa9615192565b600080614ab4615212565b600080600096506101006040519081016040528060408051908101604052807fffffffffffffffffffffffffffffffffffffffffffffffffffffffffffffffff60000b60000b81526020016000800b60000b815250815260200160408051908101604052807fffffffffffffffffffffffffffffffffffffffffffffffffffffffffffffffff60000b60000b8152602001600160000b60000b815250815260200160408051908101604052806000800b60000b8152602001600160000b60000b81525081526020016040805190810160405280600160000b60000b8152602001600160000b60000b81525081526020016040805190810160405280600160000b60000b81526020016000800b60000b81525081526020016040805190810160405280600160000b60000b81526020017fffffffffffffffffffffffffffffffffffffffffffffffffffffffffffffffff60000b60000b815250815260200160408051908101604052806000800b60000b81526020017fffffffffffffffffffffffffffffffffffffffffffffffffffffffffffffffff60000b60000b815250815260200160408051908101604052807fffffffffffffffffffffffffffffffffffffffffffffffffffffffffffffffff60000b60000b81526020017fffffffffffffffffffffffffffffffffffffffffffffffffffffffffffffffff60000b60000b8152508152509550600090505b60088160ff161015614db657858160ff16600881101515614ce057fe5b60200201519250826000600281101515614cf657fe5b60200201518c019350826001600281101515614d0e57fe5b60200201518b01945060078560000b1380614d2c575060008560000b125b80614d3a575060078460000b135b80614d48575060008460000b125b1515614da957614d5e8d61010001518587614a17565b91508c610160015160ff168260ff16141515614da857600360ff168260ff16141515614da75782888860ff16600881101515614d9657fe5b602002018190525086806001019750505b5b5b8080600101915050614cc3565b8787995099505050505050505050935093915050565b60008060008060008060008060008060009650600160ff168e610160015160ff161415614dfc5760029550614e01565b600195505b60009450600190505b60098160ff161015614f1957841515614f0c578b8d6000600281101515614e2d57fe5b602002015182020193508a8d6001600281101515614e4757fe5b6020020151820201925060078460000b1380614e66575060008460000b125b80614e74575060078360000b135b80614e82575060008360000b125b15614e9857600097506000965060019450614f0b565b614ea88e61010001518585614a17565b91508560ff168260ff161415614ed157614ec488888686615074565b8098508199505050614f0a565b8d610160015160ff168260ff16148015614eee575060018160ff16115b15614efc5760019450614f09565b6000975060009650600194505b5b5b5b8080600101915050614e0a565b878799509950505050505050505094509492505050565b600080600060078560ff161115614f4657600080fd5b60078460ff161115614f5757600080fd5b614f618585615058565b9150816fffffffffffffffffffffffffffffffff166003700100000000000000000000000000000000026fffffffffffffffffffffffffffffffff19169060020a02905086818818169650816fffffffffffffffffffffffffffffffff168660ff16700100000000000000000000000000000000026fffffffffffffffffffffffffffffffff19169060020a02871792505050949350505050565b6000806150098484615058565b9050600370010000000000000000000000000000000002816fffffffffffffffffffffffffffffffff16866fffffffffffffffffffffffffffffffff19169060020a9004169150509392505050565b600060026001838560080201016040030260ff16905092915050565b600080600060406008850286010160ff1664010000000002905060078763ffffffff19169060020a029650808717965085806001019650508686925092505094509492505050565b6101e06040519081016040528060001515815260200160001515815260200160001515815260200160001515815260200160001515815260200160001515815260200160001515815260200160001515815260200160006fffffffffffffffffffffffffffffffff19168152602001600063ffffffff19168152602001600063ffffffff19168152602001600060ff168152602001600060ff168152602001600060ff168152602001600060ff1681525090565b6040805190810160405280600290602082028038833980820191505090505090565b610200604051908101604052806008905b6151ab615234565b8152602001906001900390816151a35790505090565b610f0060405190810160405280603c905b6151da615256565b8152602001906001900390816151d25790505090565b6040805190810160405280600290602082028038833980820191505090505090565b6040805190810160405280600290602082028038833980820191505090505090565b6040805190810160405280600290602082028038833980820191505090505090565b6040805190810160405280600290602082028038833980820191505090505090565b60006152848235615d47565b905092915050565b600082601f830112151561529f57600080fd5b60026152b26152ad82615c97565b615c6a565b915081838560208402820111156152c857600080fd5b60005b838110156152f857816152de88826153b4565b8452602084019350602083019250506001810190506152cb565b5050505092915050565b600082601f830112151561531557600080fd5b600261532861532382615c97565b615c6a565b9150818385602084028201111561533e57600080fd5b60005b8381101561536e578161535488826153c8565b845260208401935060208301925050600181019050615341565b5050505092915050565b60006153848235615d67565b905092915050565b60006153988251615d67565b905092915050565b60006153ac8235615d73565b905092915050565b60006153c08235615d9f565b905092915050565b60006153d48251615d9f565b905092915050565b60006153e88235615dcb565b905092915050565b60008083601f840112151561540457600080fd5b8235905067ffffffffffffffff81111561541d57600080fd5b60208301915083600182028301111561543557600080fd5b9250929050565b60006154488235615dd5565b905092915050565b60006101e0828403121561546357600080fd5b61546e6101e0615c6a565b9050600061547e84828501615378565b600083015250602061549284828501615378565b60208301525060406154a684828501615378565b60408301525060606154ba84828501615378565b60608301525060806154ce84828501615378565b60808301525060a06154e284828501615378565b60a08301525060c06154f684828501615378565b60c08301525060e061550a84828501615378565b60e08301525061010061551f848285016153a0565b61010083015250610120615535848285016153b4565b6101208301525061014061554b848285016153b4565b61014083015250610160615561848285016155d8565b61016083015250610180615577848285016155d8565b610180830152506101a061558d848285016155d8565b6101a0830152506101c06155a3848285016155d8565b6101c08301525092915050565b60006155bc8235615de7565b905092915050565b60006155d08251615de7565b905092915050565b60006155e48235615df1565b905092915050565b6000602082840312156155fe57600080fd5b600061560c84828501615278565b91505092915050565b6000806000806060858703121561562b57600080fd5b600061563987828801615278565b945050602061564a878288016155b0565b935050604085013567ffffffffffffffff81111561566757600080fd5b615673878288016153f0565b925092505092959194509250565b60006040828403121561569357600080fd5b60006156a18482850161528c565b91505092915050565b6000604082840312156156bc57600080fd5b60006156ca84828501615302565b91505092915050565b60008060008060a085870312156156e957600080fd5b60006156f78782880161528c565b9450506040615708878288016155b0565b9350506060615719878288016155b0565b925050608061572a87828801615378565b91505092959194509250565b60006020828403121561574857600080fd5b60006157568482850161538c565b91505092915050565b60006020828403121561577157600080fd5b600061577f848285016153a0565b91505092915050565b60006020828403121561579a57600080fd5b60006157a8848285016153dc565b91505092915050565b6000602082840312156157c357600080fd5b60006157d18482850161543c565b91505092915050565b60006101e082840312156157ed57600080fd5b60006157fb84828501615450565b91505092915050565b60006020828403121561581657600080fd5b6000615824848285016155b0565b91505092915050565b60006020828403121561583f57600080fd5b600061584d848285016155c4565b91505092915050565b60008060008060008060c0878903121561586f57600080fd5b600061587d89828a016155c4565b965050602061588e89828a016155c4565b955050604061589f89828a016155c4565b94505060606158b089828a016155c4565b93505060806158c189828a016155c4565b92505060a06158d289828a016155c4565b9150509295509295509295565b6158e881615cdb565b82525050565b6158f781615cc3565b61590082615cb9565b60005b8281101561593257615916858351615948565b61591f82615cce565b9150602085019450600181019050615903565b5050505050565b61594281615cfb565b82525050565b61595181615d07565b82525050565b61596081615d33565b82525050565b61596f81615dfe565b82525050565b61597e81615d3d565b82525050565b600060208201905061599960008301846158df565b92915050565b60006060820190506159b460008301866158df565b6159c160208301856158df565b6159ce6040830184615975565b949350505050565b60006040820190506159eb60008301856158df565b6159f86020830184615975565b9392505050565b600060c082019050615a1460008301886158ee565b615a216040830187615975565b615a2e60608301866158df565b615a3b60808301856158df565b615a4860a0830184615975565b9695505050505050565b600061010082019050615a68600083018a6158ee565b615a756040830189615975565b615a8260608301886158df565b615a8f6080830187615975565b615a9c60a0830186615975565b615aa960c0830185615975565b615ab660e0830184615939565b98975050505050505050565b6000602082019050615ad76000830184615939565b92915050565b6000602082019050615af26000830184615957565b92915050565b6000604082019050615b0d6000830185615957565b615b1a60208301846158df565b9392505050565b6000602082019050615b366000830184615966565b92915050565b6000602082019050615b516000830184615975565b92915050565b6000606082019050615b6c6000830186615975565b615b7960208301856158df565b615b866040830184615975565b949350505050565b6000606082019050615ba36000830185615975565b615bb060208301846158ee565b9392505050565b6000604082019050615bcc6000830185615975565b615bd96020830184615939565b9392505050565b6000604082019050615bf56000830185615975565b615c026020830184615975565b9392505050565b600060c082019050615c1e6000830189615975565b615c2b6020830188615975565b615c386040830187615975565b615c456060830186615975565b615c526080830185615975565b615c5f60a0830184615975565b979650505050505050565b6000604051905081810181811067ffffffffffffffff82111715615c8d57600080fd5b8060405250919050565b600067ffffffffffffffff821115615cae57600080fd5b602082029050919050565b6000819050919050565b600060029050919050565b6000602082019050919050565b600073ffffffffffffffffffffffffffffffffffffffff82169050919050565b60008115159050919050565b60007fffffffffffffffffffffffffffffffffffffffffffffffffffffffff0000000082169050919050565b6000819050919050565b6000819050919050565b600073ffffffffffffffffffffffffffffffffffffffff82169050919050565b60008115159050919050565b60007fffffffffffffffffffffffffffffffff0000000000000000000000000000000082169050919050565b60007fffffffffffffffffffffffffffffffffffffffffffffffffffffffff0000000082169050919050565b6000819050919050565b6000615de082615cdb565b9050919050565b6000819050919050565b600060ff82169050919050565b6000615e0982615cdb565b90509190505600a265627a7a72305820055239335ccc2138df2946e2fadcd7e9a462fe510716402ebb93dfdbd25392d56c6578706572696d656e74616cf50037",
  "source": "pragma solidity ^0.4.18;\npragma experimental ABIEncoderV2;\n\n/**\n * The CloversController is a replaceable endpoint for minting and unminting Clovers.sol and ClubToken.sol\n */\n\nimport \"./Reversi.sol\";\nimport \"./IClovers.sol\";\nimport \"./IClubToken.sol\";\nimport \"./ICloversController.sol\";\nimport \"./IClubTokenController.sol\";\nimport \"zeppelin-solidity/contracts/ownership/HasNoTokens.sol\";\nimport \"zeppelin-solidity/contracts/ownership/HasNoEther.sol\";\nimport \"zeppelin-solidity/contracts/math/SafeMath.sol\";\n\n\ncontract CloversController is HasNoEther, HasNoTokens {\n    event cloverCommitted(bytes32 movesHash, address owner);\n    event cloverClaimed(bytes28[2] moves, uint256 tokenId, address owner, uint stake, uint reward, uint256 symmetries, bool keep);\n    event stakeRetrieved(uint256 tokenId, address owner, uint stake);\n\n    event cloverChallenged(bytes28[2] moves, uint256 tokenId, address owner, address challenger, uint stake);\n\n    using SafeMath for uint256;\n\n    address public oracle;\n    address public clovers;\n    address public clubToken;\n    address public clubTokenController;\n\n    uint256 public basePrice;\n    uint256 public priceMultiplier;\n    uint256 public payMultiplier;\n    uint256 public stakeAmount;\n    uint256 public stakePeriod;\n\n    mapping (bytes32 => address) public commits;\n    mapping (bytes32 => uint256) public stakes;\n\n    constructor(address _clovers, address _clubToken, address _clubTokenController) public {\n        clovers = _clovers;\n        clubToken = _clubToken;\n        clubTokenController = _clubTokenController;\n    }\n    /**\n    * @dev Gets the current stake of a Clover based on the hash of the moves.\n    * @param movesHash The hash of the moves that make up the clover.\n    * @return A uint256 value of stake.\n    */\n    function getStake(bytes32 movesHash) public view returns (uint256) {\n        return stakes[movesHash];\n    }\n    /**\n    * @dev Gets the address of the committer of a Clover based on the hash of the moves.\n    * @param movesHash The hash of the moves that make up the clover.\n    * @return The address of the committer.\n    */\n    function getCommit(bytes32 movesHash) public view returns (address) {\n        return commits[movesHash];\n    }\n    /**\n    * @dev Gets the current staking period needed to verify a Clover.\n    * @param _tokenId The token Id of the clover.\n    * @return A uint256 value of stake period in seconds.\n    */\n    function getMovesHash(uint _tokenId) public constant returns (bytes32) {\n        return keccak256(IClovers(clovers).getCloverMoves(_tokenId));\n    }\n    /**\n    * @dev Checks whether the game is valid.\n    * @param moves The moves needed to play validate the game.\n    * @return A boolean representing whether or not the game is valid.\n    */\n    function isValid(bytes28[2] moves) public constant returns (bool) {\n        Reversi.Game memory game = Reversi.playGame(moves);\n        return isValidGame(game);\n    }\n    /**\n    * @dev Checks whether the game is valid.\n    * @param game The pre-played game.\n    * @return A boolean representing whether or not the game is valid.\n    */\n    function isValidGame(Reversi.Game game) public pure returns (bool) {\n        if (game.error) return false;\n        if (!game.complete) return false;\n        return true;\n    }\n    /**\n    * @dev Checks whether the game has passed the verification period.\n    * @param _tokenId The board being checked.\n    * @return A boolean representing whether or not the game has been verified.\n    */\n    function isVerified(uint256 _tokenId) public constant returns (bool) {\n        uint256 _blockMinted = IClovers(clovers).getBlockMinted(_tokenId);\n        if(_blockMinted == 0) return false;\n        if (msg.sender == owner) return true;\n        if (msg.sender == oracle) return true;\n        return block.number.sub(_blockMinted) > stakePeriod;\n    }\n    /**\n    * @dev Calculates the reward of the board.\n    * @param _symmetries symmetries saved as a uint256 value like 00010101 where bits represent symmetry types.\n    * @return A uint256 representing the reward that would be returned for claiming the board.\n    */\n    function calculateReward(uint256 _symmetries) public constant returns (uint256) {\n        uint256 Symmetricals;\n        uint256 RotSym;\n        uint256 Y0Sym;\n        uint256 X0Sym;\n        uint256 XYSym;\n        uint256 XnYSym;\n        (Symmetricals,\n        RotSym,\n        Y0Sym,\n        X0Sym,\n        XYSym,\n        XnYSym) = IClovers(clovers).getAllSymmetries();\n        uint256 base = 0;\n        if (_symmetries >> 4 & 1 == 1) base = base.add(payMultiplier.mul(Symmetricals + 1).div(RotSym + 1));\n        if (_symmetries >> 3 & 1 == 1) base = base.add(payMultiplier.mul(Symmetricals + 1).div(Y0Sym + 1));\n        if (_symmetries >> 2 & 1 == 1) base = base.add(payMultiplier.mul(Symmetricals + 1).div(X0Sym + 1));\n        if (_symmetries >> 1 & 1 == 1) base = base.add(payMultiplier.mul(Symmetricals + 1).div(XYSym + 1));\n        if (_symmetries & 1 == 1) base = base.add(payMultiplier.mul(Symmetricals + 1).div(XnYSym + 1));\n        return base;\n    }\n\n/*\n    // NOTE: Disabled to reduce contract size\n    function legacyRegister(bytes28[2] moves, bool _keep) public payable returns (bool) {\n        Reversi.Game memory game = Reversi.playGame(moves);\n        require(isValidGame(game));\n        uint256 tokenId = uint256(game.board);\n        require(IClovers(clovers).getBlockMinted(tokenId) == 0);\n        require(!IClovers(clovers).exists(tokenId));\n        IClovers(clovers).setBlockMinted(tokenId, block.number);\n        IClovers(clovers).setCloverMoves(tokenId, moves);\n\n        uint256 symmetries = Reversi.returnSymmetricals(game.RotSym, game.Y0Sym, game.X0Sym, game.XYSym, game.XnYSym);\n        uint256 reward;\n\n        if (uint256(symmetries) > 0) {\n            IClovers(clovers).setSymmetries(tokenId, uint256(symmetries));\n            reward = calculateReward(uint256(symmetries));\n            IClovers(clovers).setReward(tokenId, reward);\n        }\n        if (_keep) {\n            // If the user decides to keep the Clover, they must\n            // pay for it in club tokens according to the reward price.\n            if (IClubToken(clubToken).balanceOf(msg.sender) < reward) {\n                IClubTokenController(clubTokenController).buy(msg.sender); // msg.value needs to be enough to buy \"reward\" amount of Club Token\n            }\n            if (reward > 0) {\n                IClubToken(clubToken).burn(msg.sender, reward);\n            }\n            IClovers(clovers).mint(msg.sender, tokenId);\n        } else {\n            // If the user decides not to keep the Clover, they will\n            // receive the reward price in club tokens, and the clover will\n            // go for sale at 10x the reward price.\n            if (reward > 0) {\n                require(IClubToken(clubToken).mint(msg.sender, reward));\n            }\n            IClovers(clovers).mint(clovers, tokenId);\n        }\n\n    } */\n\n    /**\n    * @dev Claim the Clover without a commit or reveal. Payable so you can attach enough for the stake,\n    * as well as enough to buy tokens if needed to keep the Clover.\n    * @param moves The moves that make up the Clover reversi game.\n    * @param _tokenId The board that results from the moves.\n    * @param _symmetries symmetries saved as a uint256 value like 00010101 where bits represent symmetry\n    * types.\n    * @return A boolean representing whether or not the claim was successful.\n    */\n    function claimClover(bytes28[2] moves, uint256 _tokenId, uint256 _symmetries, bool _keep) public payable returns (bool) {\n        bytes32 movesHash = keccak256(moves);\n\n        require(msg.value >= stakeAmount);\n        require(getCommit(movesHash) == 0);\n\n        setCommit(movesHash, msg.sender);\n        setStake(movesHash, stakeAmount);\n\n        clovers.transfer(stakeAmount);\n\n        emit cloverCommitted(movesHash, msg.sender);\n\n        require(!IClovers(clovers).exists(_tokenId));\n        require(IClovers(clovers).getBlockMinted(_tokenId) == 0);\n\n        IClovers(clovers).setBlockMinted(_tokenId, block.number);\n        IClovers(clovers).setCloverMoves(_tokenId, moves);\n        IClovers(clovers).setKeep(_tokenId, _keep);\n\n        uint256 reward;\n        if (_symmetries > 0) {\n            IClovers(clovers).setSymmetries(_tokenId, _symmetries);\n            reward = calculateReward(_symmetries);\n            IClovers(clovers).setReward(_tokenId, reward);\n        }\n\n        if (_keep) {\n            if (IClubToken(clubToken).balanceOf(msg.sender) < basePrice.add(reward)) {\n                IClubTokenController(clubTokenController).buy(msg.sender);\n            }\n            IClubToken(clubToken).increaseApproval(address(this), basePrice.add(reward));\n        }\n        IClovers(clovers).mint(clovers, _tokenId);\n        emit cloverClaimed(moves, _tokenId, msg.sender, stakeAmount, reward, _symmetries, _keep);\n\n        return true;\n    }\n    /**\n    * @dev Commit the hash of the moves needed to claim the Clover. A stake should be\n    * made for counterfactual verification.\n    * @param movesHash The hash of the moves that makes up the Clover reversi\n    * game.\n    * @return A boolean representing whether or not the commit was successful.\n    NOTE: Disabled for contract size, if front running becomes a problem it can be\n    implemented with an upgrade\n    */\n    /* function claimCloverCommit(bytes32 movesHash) public payable returns (bool) {\n        require(msg.value <= stakeAmount);\n        require(getCommit(movesHash) == 0);\n\n        setCommit(movesHash, msg.sender);\n        setStake(movesHash, stakeAmount);\n\n        clovers.transfer(stakeAmount);\n\n        emit cloverCommitted(movesHash, msg.sender);\n        return true;\n    } */\n    /**\n    * @dev Reveal the solution to the previous commit to claim the Clover.\n    * @param moves The moves that make up the Clover reversi game.\n    * @param _tokenId The board that results from the moves.\n    * @param _symmetries symmetries saved as a uint256 value like 00010101 where bits represent symmetry types.\n    * @return A boolean representing whether or not the reveal and claim was successful.\n    NOTE: Disabled for contract size, if front running becomes a problem it can be implemented with an upgrade\n    */\n    /* function claimCloverReveal(bytes28[2] moves, uint256 _tokenId, uint256 _symmetries, bool _keep) public returns (bool) {\n        bytes32 movesHash = keccak256(moves);\n        address committer = getCommit(movesHash);\n\n        require(IClovers(clovers).getBlockMinted(_tokenId) == 0);\n\n        IClovers(clovers).setBlockMinted(_tokenId, block.number);\n        IClovers(clovers).setCloverMoves(_tokenId, moves);\n        IClovers(clovers).setKeep(_tokenId, _keep);\n        uint256 reward;\n        if (_symmetries > 0) {\n            IClovers(clovers).setSymmetries(_tokenId, _symmetries);\n            reward = calculateReward(_symmetries);\n            IClovers(clovers).setReward(_tokenId, reward);\n        }\n        if (_keep) {\n            IClubToken(clubToken).increaseApproval(address(this), basePrice.add(reward));\n        }\n        uint256 stake = getStake(movesHash);\n        emit cloverClaimed(moves, _tokenId, committer, stake, reward, _symmetries, _keep);\n        return true;\n    } */\n\n    /**\n    * @dev Retrieve the stake from a Clover claim after the stake period has ended, or with the authority of the oracle.\n    * @param _tokenId The board which holds the stake.\n    * @return A boolean representing whether or not the retrieval was successful.\n    */\n    function retrieveStake(uint256 _tokenId) public payable returns (bool) {\n        bytes28[2] memory moves = IClovers(clovers).getCloverMoves(_tokenId);\n        require(moves[0] != 0);\n        bytes32 movesHash = keccak256(moves);\n        uint256 stake = getStake(movesHash);\n        require(stake != 0);\n        require(isVerified(_tokenId));\n        setStake(movesHash, 0);\n        addSymmetries(_tokenId);\n        address committer = getCommit(movesHash);\n        require(msg.sender == committer);\n\n        uint256 reward = IClovers(clovers).getReward(_tokenId);\n        bool _keep = IClovers(clovers).getKeep(_tokenId);\n\n        if (_keep) {\n            // If the user decides to keep the Clover, they must\n            // pay for it in club tokens according to the reward price.\n            if (IClubToken(clubToken).balanceOf(committer) < basePrice.add(reward) && committer == msg.sender) {\n                IClubTokenController(clubTokenController).buy(committer); // msg.value needs to be enough to buy \"reward\" amount of Club Token\n            }\n            if (basePrice.add(reward) > 0) {\n                IClubToken(clubToken).burn(committer, basePrice.add(reward));\n            }\n            IClovers(clovers).transferFrom(clovers, committer, _tokenId);\n        } else {\n            // If the user decides not to keep the Clover, they will\n            // receive the reward price in club tokens, and the clover will\n            // go for sale at the reward price times the priceMultiplier.\n            if (reward > 0) {\n                require(IClubToken(clubToken).mint(committer, reward));\n            }\n        }\n        IClovers(clovers).moveEth(committer, stake);\n        emit stakeRetrieved(_tokenId, committer, stake);\n        return true;\n    }\n\n    /**\n    * @dev Buy one of the Clovers which were given up when mining.\n    * @param _tokenId The board being bought.\n    * @return A boolean representing whether or not the purchase was successful.\n    */\n    function buyCloverFromContract(uint256 _tokenId) public payable returns(bool) {\n        uint256 reward = IClovers(clovers).getReward(_tokenId);\n        uint256 toPay = basePrice.add(reward.mul(priceMultiplier));\n        if (IClubToken(clubToken).balanceOf(msg.sender) < toPay) {\n            IClubTokenController(clubTokenController).buy(msg.sender); // msg.value needs to be enough to buy \"toPay\" amount of Club Token\n        }\n        if (toPay > 0) {\n            IClubToken(clubToken).burn(msg.sender, toPay);\n        }\n        IClovers(clovers).transferFrom(clovers, msg.sender, _tokenId);\n        return true;\n    }\n\n    /**\n    * @dev Convert a bytes16 board into a uint256.\n    * @param _board The board being converted.\n    * @return number the uint256 being converted.\n    */\n    function convertBytes16ToUint(bytes16 _board) public view returns(uint256 number) {\n        for(uint i=0;i<_board.length;i++){\n            number = number + uint(_board[i])*(2**(8*(_board.length-(i+1))));\n        }\n    }\n    /**\n    * @dev Challenge a staked Clover for being invalid.\n    * @param _tokenId The board being challenged.\n    * @return A boolean representing whether or not the challenge was successful.\n    */\n    function challengeClover(uint256 _tokenId) public returns (bool) {\n        bool valid = true;\n        bytes28[2] memory moves = IClovers(clovers).getCloverMoves(_tokenId);\n        require(moves[0] != 0);\n        Reversi.Game memory game = Reversi.playGame(moves);\n\n        if(convertBytes16ToUint(game.board) != _tokenId) {\n            valid = false;\n        }\n        if(valid && isValidGame(game)) {\n            uint256 _symmetries = IClovers(clovers).getSymmetries(_tokenId);\n\n            valid = (_symmetries >> 4 & 1) > 0 == game.RotSym ? valid : false;\n            valid = (_symmetries >> 3 & 1) > 0 == game.Y0Sym ? valid : false;\n            valid = (_symmetries >> 2 & 1) > 0 == game.X0Sym ? valid : false;\n            valid = (_symmetries >> 1 & 1) > 0 == game.XYSym ? valid : false;\n            valid = (_symmetries & 1) > 0 == game.XnYSym ? valid : false;\n\n        } else {\n            valid = false;\n        }\n        require(!valid);\n\n        bytes32 movesHash = keccak256(moves);\n        if (!isVerified(_tokenId)) {\n            uint256 stake = getStake(movesHash);\n            IClovers(clovers).moveEth(msg.sender, stake);\n        }\n        IClovers(clovers).deleteClover(_tokenId);\n        IClovers(clovers).unmint(_tokenId);\n        setCommit(movesHash, 0);\n        setStake(movesHash, 0);\n        removeSymmetries(_tokenId);\n\n        address committer = getCommit(movesHash);\n        emit cloverChallenged(moves, _tokenId, committer, msg.sender, stake);\n        return true;\n    }\n\n\n    /**\n    * @dev Updates oracle Address.\n    * @param _oracle The new oracle Address.\n    */\n    function updateOracle(address _oracle) public onlyOwner {\n        oracle = _oracle;\n    }\n\n    /**\n    * @dev Updates clubTokenController Address.\n    * @param _clubTokenController The new clubTokenController address.\n    */\n    function updateClubTokenController(address _clubTokenController) public onlyOwner {\n        clubTokenController = _clubTokenController;\n    }\n    /**\n    * @dev Updates the stake amount.\n    * @param _stakeAmount The new amount needed to stake.\n    */\n    function updateStakeAmount(uint256 _stakeAmount) public onlyOwner {\n        stakeAmount = _stakeAmount;\n    }\n    /**\n    * @dev Updates the stake period.\n    * @param _stakePeriod The uint256 value of time needed to stake before being verified.\n    */\n    function updateStakePeriod(uint256 _stakePeriod) public onlyOwner {\n        stakePeriod = _stakePeriod;\n    }\n    /**\n    * @dev Updates the pay multiplier, used to calculate token reward.\n    * @param _payMultiplier The uint256 value of pay multiplier.\n    */\n    function updatePayMultipier(uint256 _payMultiplier) public onlyOwner {\n        payMultiplier = _payMultiplier;\n    }\n    /**\n    * @dev Updates the price multiplier, used to calculate the clover price (multiplied by the original reward).\n    * @param _priceMultiplier The uint256 value of the price multiplier.\n    */\n    function updatePriceMultipier(uint256 _priceMultiplier) public onlyOwner {\n        priceMultiplier = _priceMultiplier;\n    }\n    /**\n    * @dev Updates the base price, used to calculate the clover cost.\n    * @param _basePrice The uint256 value of the base price.\n    */\n    function updateBasePrice(uint256 _basePrice) public onlyOwner {\n        basePrice = _basePrice;\n    }\n\n    /**\n    * @dev Sets the stake of a Clover based on the hash of the moves.\n    * @param movesHash The hash of the moves that make up the clover.\n    * @param stake A uint256 value of stake.\n    */\n    function setStake(bytes32 movesHash, uint256 stake) private {\n        stakes[movesHash] = stake;\n    }\n\n    /**\n    * @dev Sets the address of the committer of a Clover based on the hash of the moves.\n    * @param movesHash The hash of the moves that make up the clover.\n    * @param committer The address of the committer.\n    */\n    function setCommit(bytes32 movesHash, address committer) private {\n        commits[movesHash] = committer;\n    }\n\n    /**\n    * @dev Adds new tallys of the totals numbers of clover symmetries.\n    * @param _tokenId The token which needs to be examined.\n    */\n    function addSymmetries(uint256 _tokenId) private {\n        uint256 Symmetricals;\n        uint256 RotSym;\n        uint256 Y0Sym;\n        uint256 X0Sym;\n        uint256 XYSym;\n        uint256 XnYSym;\n        (Symmetricals,\n        RotSym,\n        Y0Sym,\n        X0Sym,\n        XYSym,\n        XnYSym) = IClovers(clovers).getAllSymmetries();\n        uint256 _symmetries = IClovers(clovers).getSymmetries(_tokenId);\n        Symmetricals = Symmetricals.add(_symmetries > 0 ? 1 : 0);\n        RotSym = RotSym.add(uint256(_symmetries >> 4 & 1));\n        Y0Sym = Y0Sym.add(uint256(_symmetries >> 3 & 1));\n        X0Sym = X0Sym.add(uint256(_symmetries >> 2 & 1));\n        XYSym = XYSym.add(uint256(_symmetries >> 1 & 1));\n        XnYSym = XnYSym.add(uint256(_symmetries & 1));\n        IClovers(clovers).setAllSymmetries(Symmetricals, RotSym, Y0Sym, X0Sym, XYSym, XnYSym);\n    }\n    /**\n    * @dev Remove false tallys of the totals numbers of clover symmetries.\n    * @param _tokenId The token which needs to be examined.\n    */\n    function removeSymmetries(uint256 _tokenId) private {\n        uint256 Symmetricals;\n        uint256 RotSym;\n        uint256 Y0Sym;\n        uint256 X0Sym;\n        uint256 XYSym;\n        uint256 XnYSym;\n        (Symmetricals,\n        RotSym,\n        Y0Sym,\n        X0Sym,\n        XYSym,\n        XnYSym) = IClovers(clovers).getAllSymmetries();\n        uint256 _symmetries = IClovers(clovers).getSymmetries(_tokenId);\n        Symmetricals = Symmetricals.sub(_symmetries > 0 ? 1 : 0);\n        RotSym = RotSym.sub(uint256(_symmetries >> 4 & 1));\n        Y0Sym = Y0Sym.sub(uint256(_symmetries >> 3 & 1));\n        X0Sym = X0Sym.sub(uint256(_symmetries >> 2 & 1));\n        XYSym = XYSym.sub(uint256(_symmetries >> 1 & 1));\n        XnYSym = XnYSym.sub(uint256(_symmetries & 1));\n        IClovers(clovers).setAllSymmetries(Symmetricals, RotSym, Y0Sym, X0Sym, XYSym, XnYSym);\n    }\n\n}\n",
  "sourcePath": "/Users/billy/clovers/clovers-contracts/contracts/CloversController.sol",
  "compiler": {
    "name": "solc",
    "version": "0.4.24+commit.e67f0147.Emscripten.clang"
  },
  "schemaVersion": "2.0.1",
  "updatedAt": "2018-07-30T18:34:26.749Z"
}