{
  "contractName": "CloversMetadata",
  "abi": [
    {
      "constant": false,
      "inputs": [],
      "name": "TokenMetadataController",
      "outputs": [],
      "payable": false,
      "stateMutability": "nonpayable",
      "type": "function"
    },
    {
      "constant": true,
      "inputs": [
        {
          "name": "_tokenId",
          "type": "uint256"
        }
      ],
      "name": "tokenURI",
      "outputs": [
        {
          "name": "_infoUrl",
          "type": "string"
        }
      ],
      "payable": false,
      "stateMutability": "view",
      "type": "function"
    }
  ],
  "bytecode": "0x608060405234801561001057600080fd5b50610561806100206000396000f30060806040526004361061004c576000357c0100000000000000000000000000000000000000000000000000000000900463ffffffff168063199ae15014610051578063c87b56dd14610068575b600080fd5b34801561005d57600080fd5b506100666100a5565b005b34801561007457600080fd5b5061008f600480360361008a919081019061044d565b6100a7565b60405161009c91906104ac565b60405180910390f35b565b606080606080606060405190810160405280602681526020017f68747470733a2f2f6170692e636c6f766572732e6e6574776f726b2f636c6f7681526020017f6572732f3078000000000000000000000000000000000000000000000000000081525092506101158561019e565b91506040805190810160405280600581526020017f2e6a736f6e000000000000000000000000000000000000000000000000000000815250905061019461015b82610324565b61018661018161016a86610324565b61017388610324565b61035290919063ffffffff16565b610324565b61035290919063ffffffff16565b9350505050919050565b60606000806000606060008060008814156101f0576040805190810160405280600181526020017f30000000000000000000000000000000000000000000000000000000000000008152509650610319565b8795505b6000861415156102165784806001019550506004869060020a900495506101f4565b600f9350846040519080825280601f01601f19166020018201604052801561024d5781602001602082028038833980820191505090505b5092506001850391505b6000881415156103155783881690506009811161029957806030017f0100000000000000000000000000000000000000000000000000000000000000026102c0565b806037017f0100000000000000000000000000000000000000000000000000000000000000025b8383806001900394508151811015156102d557fe5b9060200101907effffffffffffffffffffffffffffffffffffffffffffffffffffffffffffff1916908160001a9053506004889060020a90049750610257565b8296505b505050505050919050565b61032c61041f565b600060208301905060408051908101604052808451815260200182815250915050919050565b606080600083600001518560000151016040519080825280601f01601f1916602001820160405280156103945781602001602082028038833980820191505090505b5091506020820190506103b081866020015187600001516103d4565b6103c985600001518201856020015186600001516103d4565b819250505092915050565b60005b6020821015156103fc57825184526020840193506020830192506020820391506103d7565b6001826020036101000a0390508019835116818551168181178652505050505050565b604080519081016040528060008152602001600081525090565b600061044582356104d9565b905092915050565b60006020828403121561045f57600080fd5b600061046d84828501610439565b91505092915050565b6000610481826104ce565b8084526104958160208601602086016104e3565b61049e81610516565b602085010191505092915050565b600060208201905081810360008301526104c68184610476565b905092915050565b600081519050919050565b6000819050919050565b60005b838110156105015780820151818401526020810190506104e6565b83811115610510576000848401525b50505050565b6000601f19601f83011690509190505600a265627a7a723058204ca1d2ed4f653ec5b5bf93df166b4707e21289f6e03add817ee74cdf8bc6c9586c6578706572696d656e74616cf50037",
  "source": "pragma solidity ^0.4.18;\npragma experimental ABIEncoderV2;\n\n/**\n* CloversMetadata contract is upgradeable and returns metadata about Clovers\n*/\n\nimport \"./helpers/strings.sol\";\n\n\ncontract CloversMetadata {\n    using strings for *;\n\n    function TokenMetadataController () public {}\n\n    function tokenURI(uint _tokenId) public view returns (string _infoUrl) {\n        string memory base = \"https://api.clovers.network/clovers/0x\";\n        string memory id = uint2hexstr(_tokenId);\n        string memory suffix = \".json\";\n        return base.toSlice().concat(id.toSlice()).toSlice().concat(suffix.toSlice());\n    }\n    function uint2hexstr(uint i) internal pure returns (string) {\n        if (i == 0) return \"0\";\n        uint j = i;\n        uint length;\n        while (j != 0) {\n            length++;\n            j = j >> 4;\n        }\n        uint mask = 15;\n        bytes memory bstr = new bytes(length);\n        uint k = length - 1;\n        while (i != 0){\n            uint curr = (i & mask);\n            bstr[k--] = curr > 9 ? byte(55 + curr) : byte(48 + curr); // 55 = 65 - 10\n            i = i >> 4;\n        }\n        return string(bstr);\n    }\n}",
  "sourcePath": "/Users/billy/clovers/clovers-contracts/contracts/CloversMetadata.sol",
  "compiler": {
    "name": "solc",
    "version": "0.4.24+commit.e67f0147.Emscripten.clang"
  },
  "schemaVersion": "2.0.1",
  "updatedAt": "2018-07-29T10:31:50.151Z"
}