{
  "contractName": "CloversController",
  "abi": [
    {
      "constant": false,
      "inputs": [
        {
          "name": "token",
          "type": "address"
        }
      ],
      "name": "reclaimToken",
      "outputs": [],
      "payable": false,
      "stateMutability": "nonpayable",
      "type": "function"
    },
    {
      "constant": true,
      "inputs": [],
      "name": "owner",
      "outputs": [
        {
          "name": "",
          "type": "address"
        }
      ],
      "payable": false,
      "stateMutability": "view",
      "type": "function"
    },
    {
      "constant": false,
      "inputs": [],
      "name": "reclaimEther",
      "outputs": [],
      "payable": false,
      "stateMutability": "nonpayable",
      "type": "function"
    },
    {
      "constant": false,
      "inputs": [
        {
          "name": "from_",
          "type": "address"
        },
        {
          "name": "value_",
          "type": "uint256"
        },
        {
          "name": "data_",
          "type": "bytes"
        }
      ],
      "name": "tokenFallback",
      "outputs": [],
      "payable": false,
      "stateMutability": "nonpayable",
      "type": "function"
    },
    {
      "constant": false,
      "inputs": [
        {
          "name": "newOwner",
          "type": "address"
        }
      ],
      "name": "transferOwnership",
      "outputs": [],
      "payable": false,
      "stateMutability": "nonpayable",
      "type": "function"
    },
    {
      "inputs": [
        {
          "name": "_clovers",
          "type": "address"
        },
        {
          "name": "_clubToken",
          "type": "address"
        }
      ],
      "payable": false,
      "stateMutability": "nonpayable",
      "type": "constructor"
    },
    {
      "payable": false,
      "stateMutability": "nonpayable",
      "type": "fallback"
    },
    {
      "anonymous": false,
      "inputs": [
        {
          "indexed": true,
          "name": "previousOwner",
          "type": "address"
        },
        {
          "indexed": true,
          "name": "newOwner",
          "type": "address"
        }
      ],
      "name": "OwnershipTransferred",
      "type": "event"
    },
    {
      "anonymous": false,
      "inputs": [
        {
          "indexed": false,
          "name": "movesHash",
          "type": "bytes32"
        },
        {
          "indexed": false,
          "name": "miner",
          "type": "address"
        }
      ],
      "name": "cloverCommited",
      "type": "event"
    },
    {
      "anonymous": false,
      "inputs": [
        {
          "indexed": false,
          "name": "moves",
          "type": "bytes28[2]"
        },
        {
          "indexed": false,
          "name": "_tokenId",
          "type": "uint256"
        },
        {
          "indexed": false,
          "name": "miner",
          "type": "address"
        }
      ],
      "name": "cloverRevealed",
      "type": "event"
    },
    {
      "anonymous": false,
      "inputs": [
        {
          "indexed": false,
          "name": "moves",
          "type": "bytes28[2]"
        },
        {
          "indexed": false,
          "name": "_tokenId",
          "type": "uint256"
        },
        {
          "indexed": false,
          "name": "miner",
          "type": "address"
        }
      ],
      "name": "cloverClaimed",
      "type": "event"
    },
    {
      "anonymous": false,
      "inputs": [
        {
          "indexed": false,
          "name": "moves",
          "type": "bytes28[2]"
        },
        {
          "indexed": false,
          "name": "_tokenId",
          "type": "uint256"
        },
        {
          "indexed": false,
          "name": "miner",
          "type": "address"
        }
      ],
      "name": "stakeRetrieved",
      "type": "event"
    },
    {
      "anonymous": false,
      "inputs": [
        {
          "indexed": false,
          "name": "moves",
          "type": "bytes28[2]"
        },
        {
          "indexed": false,
          "name": "_tokenId",
          "type": "uint256"
        },
        {
          "indexed": false,
          "name": "miner",
          "type": "address"
        },
        {
          "indexed": false,
          "name": "challenger",
          "type": "address"
        }
      ],
      "name": "cloverChallenged",
      "type": "event"
    },
    {
      "constant": true,
      "inputs": [],
      "name": "currentStakeAmount",
      "outputs": [
        {
          "name": "",
          "type": "uint256"
        }
      ],
      "payable": false,
      "stateMutability": "view",
      "type": "function"
    },
    {
      "constant": true,
      "inputs": [],
      "name": "currentStakePeriod",
      "outputs": [
        {
          "name": "",
          "type": "uint256"
        }
      ],
      "payable": false,
      "stateMutability": "view",
      "type": "function"
    },
    {
      "constant": true,
      "inputs": [],
      "name": "getMultiplier",
      "outputs": [
        {
          "name": "",
          "type": "uint256"
        }
      ],
      "payable": false,
      "stateMutability": "view",
      "type": "function"
    },
    {
      "constant": true,
      "inputs": [
        {
          "name": "_tokenId",
          "type": "uint256"
        }
      ],
      "name": "getMovesHash",
      "outputs": [
        {
          "name": "",
          "type": "bytes32"
        }
      ],
      "payable": false,
      "stateMutability": "view",
      "type": "function"
    },
    {
      "constant": true,
      "inputs": [
        {
          "name": "moves",
          "type": "bytes28[2]"
        }
      ],
      "name": "isValid",
      "outputs": [
        {
          "name": "",
          "type": "bool"
        }
      ],
      "payable": false,
      "stateMutability": "view",
      "type": "function"
    },
    {
      "constant": true,
      "inputs": [
        {
          "components": [
            {
              "name": "error",
              "type": "bool"
            },
            {
              "name": "complete",
              "type": "bool"
            },
            {
              "name": "symmetrical",
              "type": "bool"
            },
            {
              "name": "RotSym",
              "type": "bool"
            },
            {
              "name": "Y0Sym",
              "type": "bool"
            },
            {
              "name": "X0Sym",
              "type": "bool"
            },
            {
              "name": "XYSym",
              "type": "bool"
            },
            {
              "name": "XnYSym",
              "type": "bool"
            },
            {
              "name": "board",
              "type": "bytes16"
            },
            {
              "name": "first32Moves",
              "type": "bytes28"
            },
            {
              "name": "lastMoves",
              "type": "bytes28"
            },
            {
              "name": "currentPlayer",
              "type": "uint8"
            },
            {
              "name": "moveKey",
              "type": "uint8"
            },
            {
              "name": "blackScore",
              "type": "uint8"
            },
            {
              "name": "whiteScore",
              "type": "uint8"
            }
          ],
          "name": "game",
          "type": "tuple"
        }
      ],
      "name": "isValidGame",
      "outputs": [
        {
          "name": "",
          "type": "bool"
        }
      ],
      "payable": false,
      "stateMutability": "view",
      "type": "function"
    },
    {
      "constant": true,
      "inputs": [
        {
          "name": "_tokenId",
          "type": "uint256"
        }
      ],
      "name": "isVerified",
      "outputs": [
        {
          "name": "",
          "type": "bool"
        }
      ],
      "payable": false,
      "stateMutability": "view",
      "type": "function"
    },
    {
      "constant": true,
      "inputs": [
        {
          "name": "_symmetries",
          "type": "bytes1"
        }
      ],
      "name": "calculateReward",
      "outputs": [
        {
          "name": "",
          "type": "uint256"
        }
      ],
      "payable": false,
      "stateMutability": "view",
      "type": "function"
    },
    {
      "constant": false,
      "inputs": [
        {
          "name": "moves",
          "type": "bytes28[2]"
        },
        {
          "name": "_tokenId",
          "type": "uint256"
        },
        {
          "name": "_symmetries",
          "type": "bytes1"
        },
        {
          "name": "_to",
          "type": "address"
        }
      ],
      "name": "claimClover",
      "outputs": [
        {
          "name": "",
          "type": "bool"
        }
      ],
      "payable": true,
      "stateMutability": "payable",
      "type": "function"
    },
    {
      "constant": false,
      "inputs": [
        {
          "name": "movesHash",
          "type": "bytes32"
        },
        {
          "name": "_to",
          "type": "address"
        }
      ],
      "name": "claimCloverCommit",
      "outputs": [
        {
          "name": "",
          "type": "bool"
        }
      ],
      "payable": true,
      "stateMutability": "payable",
      "type": "function"
    },
    {
      "constant": false,
      "inputs": [
        {
          "name": "moves",
          "type": "bytes28[2]"
        },
        {
          "name": "_tokenId",
          "type": "uint256"
        },
        {
          "name": "_symmetries",
          "type": "bytes1"
        }
      ],
      "name": "claimCloverReveal",
      "outputs": [
        {
          "name": "",
          "type": "bool"
        }
      ],
      "payable": false,
      "stateMutability": "nonpayable",
      "type": "function"
    },
    {
      "constant": false,
      "inputs": [
        {
          "name": "_tokenId",
          "type": "uint256"
        }
      ],
      "name": "retrieveStake",
      "outputs": [
        {
          "name": "",
          "type": "bool"
        }
      ],
      "payable": false,
      "stateMutability": "nonpayable",
      "type": "function"
    },
    {
      "constant": false,
      "inputs": [
        {
          "name": "_tokenId",
          "type": "uint256"
        },
        {
          "name": "_to",
          "type": "address"
        }
      ],
      "name": "challengeClover",
      "outputs": [
        {
          "name": "",
          "type": "bool"
        }
      ],
      "payable": false,
      "stateMutability": "nonpayable",
      "type": "function"
    },
    {
      "constant": false,
      "inputs": [
        {
          "name": "_stakeAmount",
          "type": "uint256"
        }
      ],
      "name": "updateStakeAmount",
      "outputs": [],
      "payable": false,
      "stateMutability": "nonpayable",
      "type": "function"
    },
    {
      "constant": false,
      "inputs": [
        {
          "name": "_stakePeriod",
          "type": "uint256"
        }
      ],
      "name": "updateStakePeriod",
      "outputs": [],
      "payable": false,
      "stateMutability": "nonpayable",
      "type": "function"
    },
    {
      "constant": false,
      "inputs": [
        {
          "name": "_payMultiplier",
          "type": "uint256"
        }
      ],
      "name": "updatePayMultipier",
      "outputs": [],
      "payable": false,
      "stateMutability": "nonpayable",
      "type": "function"
    }
  ],
  "bytecode": "0x606060405234156200001057600080fd5b604051604080620058108339810160405262000036906780000000000000009062000126565b336000806101000a81548173ffffffffffffffffffffffffffffffffffffffff021916908373ffffffffffffffffffffffffffffffffffffffff1602179055506000341415156200008657600080fd5b81600160006101000a81548173ffffffffffffffffffffffffffffffffffffffff021916908373ffffffffffffffffffffffffffffffffffffffff16021790555080600260006101000a81548173ffffffffffffffffffffffffffffffffffffffff021916908373ffffffffffffffffffffffffffffffffffffffff160217905550505062000191565b60006200011e825162000171565b905092915050565b600080604083850312600181146200013e5762000143565b600080fd5b506000620001548582860162000110565b9250506020620001678582860162000110565b9150509250929050565b600073ffffffffffffffffffffffffffffffffffffffff82169050919050565b61566f80620001a16000396000f30060606040526004361061011d576000357c0100000000000000000000000000000000000000000000000000000000900463ffffffff16806308b6a33d1461012a57806317ffc32014610155578063271eff941461017757806332cda779146101ad57806335f71899146101d657806337b6d96b1461020157806340490a90146102375780635759f3f7146102605780636cb6b41f146102825780638a05aafa146102ab5780638da5cb5b146102cd5780639f727c27146102f6578063acd37b7b1461030b578063afc6285314610341578063c0ee0b8a14610377578063c1fe551a14610399578063c90054ee146103cf578063d09687f7146103f1578063e00a768d14610427578063f2fde38b1461045d578063f8a68a561461047f575b341561012857600080fd5b005b61013f600461013a903690614f40565b6104b5565b60405161014c9190615215565b60405180910390f35b341561016057600080fd5b6101756004610170903690615023565b610b53565b005b341561018257600080fd5b6101976004610192903690614eb6565b610c94565b6040516101a49190615215565b60405180910390f35b34156101b857600080fd5b6101c0610cba565b6040516101cd919061530a565b60405180910390f35b6101eb60046101e6903690614fde565b610cc4565b6040516101f89190615215565b60405180910390f35b341561020c57600080fd5b610221600461021c903690615088565b610f8f565b60405161022e9190615215565b60405180910390f35b341561024257600080fd5b61024a61106a565b604051610257919061530a565b60405180910390f35b341561026b57600080fd5b610280600461027b903690615088565b611074565b005b341561028d57600080fd5b6102956110d9565b6040516102a2919061530a565b60405180910390f35b34156102b657600080fd5b6102cb60046102c6903690615088565b6110e3565b005b34156102d857600080fd5b6102e0611148565b6040516102ed91906151d1565b60405180910390f35b341561030157600080fd5b61030961116d565b005b341561031657600080fd5b61032b60046103269036906150ba565b61123f565b6040516103389190615215565b60405180910390f35b341561034c57600080fd5b610361600461035c903690614ee8565b611be0565b60405161036e9190615215565b60405180910390f35b341561038257600080fd5b6103976004610392903690614e38565b612174565b005b34156103a457600080fd5b6103b960046103b4903690615088565b612179565b6040516103c69190615215565b60405180910390f35b34156103da57600080fd5b6103ef60046103ea903690615088565b612738565b005b34156103fc57600080fd5b610411600461040c903690615088565b61279d565b60405161041e9190615230565b60405180910390f35b341561043257600080fd5b6104476004610442903690614fac565b612899565b604051610454919061530a565b60405180910390f35b341561046857600080fd5b61047d6004610478903690614e06565b612dc3565b005b341561048a57600080fd5b61049f600461049a903690615055565b612f18565b6040516104ac9190615215565b60405180910390f35b600080600080640100000000028760006002811015156104d157fe5b602002015163ffffffff1916141515156104ea57600080fd5b600454341415156104fa57600080fd5b866040518082600260200280838360005b8381101561052657808201518184015260208101905061050b565b5050505090500191505060405180910390209150600160009054906101000a900473ffffffffffffffffffffffffffffffffffffffff1673ffffffffffffffffffffffffffffffffffffffff16631dbd9d9183866040518363ffffffff167c01000000000000000000000000000000000000000000000000000000000281526004016105b392919061524b565b600060405180830381600087803b15156105cc57600080fd5b6102c65a03f115156105dd57600080fd5b505050600160009054906101000a900473ffffffffffffffffffffffffffffffffffffffff1673ffffffffffffffffffffffffffffffffffffffff16633541fd53836004546040518363ffffffff167c010000000000000000000000000000000000000000000000000000000002815260040161065b9291906152c6565b600060405180830381600087803b151561067457600080fd5b6102c65a03f1151561068557600080fd5b505050600160009054906101000a900473ffffffffffffffffffffffffffffffffffffffff1673ffffffffffffffffffffffffffffffffffffffff166108fc6004549081150290604051600060405180830381858888f1935050505015156106ec57600080fd5b6000600160009054906101000a900473ffffffffffffffffffffffffffffffffffffffff1673ffffffffffffffffffffffffffffffffffffffff166303a53d6b886000604051602001526040518263ffffffff167c010000000000000000000000000000000000000000000000000000000002815260040161076e919061530a565b602060405180830381600087803b151561078757600080fd5b6102c65a03f1151561079857600080fd5b505050604051805190501415156107ae57600080fd5b600160009054906101000a900473ffffffffffffffffffffffffffffffffffffffff1673ffffffffffffffffffffffffffffffffffffffff1663e3100d1e87436040518363ffffffff167c0100000000000000000000000000000000000000000000000000000000028152600401610827929190615377565b600060405180830381600087803b151561084057600080fd5b6102c65a03f1151561085157600080fd5b505050600160009054906101000a900473ffffffffffffffffffffffffffffffffffffffff1673ffffffffffffffffffffffffffffffffffffffff16630b62839587896040518363ffffffff167c01000000000000000000000000000000000000000000000000000000000281526004016108cd929190615325565b600060405180830381600087803b15156108e657600080fd5b6102c65a03f115156108f757600080fd5b50505060007f010000000000000000000000000000000000000000000000000000000000000002857effffffffffffffffffffffffffffffffffffffffffffffffffffffffffffff19161115610a9f57600160009054906101000a900473ffffffffffffffffffffffffffffffffffffffff1673ffffffffffffffffffffffffffffffffffffffff16631dba566087876040518363ffffffff167c01000000000000000000000000000000000000000000000000000000000281526004016109c092919061534e565b600060405180830381600087803b15156109d957600080fd5b6102c65a03f115156109ea57600080fd5b5050506109f685612899565b9050600160009054906101000a900473ffffffffffffffffffffffffffffffffffffffff1673ffffffffffffffffffffffffffffffffffffffff1663a47bd49687836040518363ffffffff167c0100000000000000000000000000000000000000000000000000000000028152600401610a71929190615377565b600060405180830381600087803b1515610a8a57600080fd5b6102c65a03f11515610a9b57600080fd5b5050505b600160009054906101000a900473ffffffffffffffffffffffffffffffffffffffff1673ffffffffffffffffffffffffffffffffffffffff166340c10f1985886040518363ffffffff167c0100000000000000000000000000000000000000000000000000000000028152600401610b189291906151ec565b600060405180830381600087803b1515610b3157600080fd5b6102c65a03f11515610b4257600080fd5b505050600192505050949350505050565b60008060009054906101000a900473ffffffffffffffffffffffffffffffffffffffff1673ffffffffffffffffffffffffffffffffffffffff163373ffffffffffffffffffffffffffffffffffffffff16141515610bb057600080fd5b8173ffffffffffffffffffffffffffffffffffffffff166370a08231306000604051602001526040518263ffffffff167c0100000000000000000000000000000000000000000000000000000000028152600401610c0e91906152ef565b602060405180830381600087803b1515610c2757600080fd5b6102c65a03f11515610c3857600080fd5b505050604051805190509050610c906000809054906101000a900473ffffffffffffffffffffffffffffffffffffffff16828473ffffffffffffffffffffffffffffffffffffffff16612f4b9092919063ffffffff16565b5050565b6000610c9e614916565b610ca783612fec565b9050610cb281612f18565b915050919050565b6000600554905090565b6000808273ffffffffffffffffffffffffffffffffffffffff1614151515610ceb57600080fd5b60045434141515610cfb57600080fd5b6000600160009054906101000a900473ffffffffffffffffffffffffffffffffffffffff1673ffffffffffffffffffffffffffffffffffffffff16638784ea96856000604051602001526040518263ffffffff167c0100000000000000000000000000000000000000000000000000000000028152600401610d7d9190615230565b602060405180830381600087803b1515610d9657600080fd5b6102c65a03f11515610da757600080fd5b5050506040518051905073ffffffffffffffffffffffffffffffffffffffff16141515610dd357600080fd5b600160009054906101000a900473ffffffffffffffffffffffffffffffffffffffff1673ffffffffffffffffffffffffffffffffffffffff16631dbd9d9184846040518363ffffffff167c0100000000000000000000000000000000000000000000000000000000028152600401610e4c92919061524b565b600060405180830381600087803b1515610e6557600080fd5b6102c65a03f11515610e7657600080fd5b505050600160009054906101000a900473ffffffffffffffffffffffffffffffffffffffff1673ffffffffffffffffffffffffffffffffffffffff16633541fd53846004546040518363ffffffff167c0100000000000000000000000000000000000000000000000000000000028152600401610ef49291906152c6565b600060405180830381600087803b1515610f0d57600080fd5b6102c65a03f11515610f1e57600080fd5b505050600160009054906101000a900473ffffffffffffffffffffffffffffffffffffffff1673ffffffffffffffffffffffffffffffffffffffff166108fc6004549081150290604051600060405180830381858888f193505050501515610f8557600080fd5b6001905092915050565b600080600160009054906101000a900473ffffffffffffffffffffffffffffffffffffffff1673ffffffffffffffffffffffffffffffffffffffff166303a53d6b846000604051602001526040518263ffffffff167c0100000000000000000000000000000000000000000000000000000000028152600401611012919061530a565b602060405180830381600087803b151561102b57600080fd5b6102c65a03f1151561103c57600080fd5b505050604051805190509050600081141561105a5760009150611064565b6005548143031191505b50919050565b6000600354905090565b6000809054906101000a900473ffffffffffffffffffffffffffffffffffffffff1673ffffffffffffffffffffffffffffffffffffffff163373ffffffffffffffffffffffffffffffffffffffff161415156110cf57600080fd5b8060058190555050565b6000600454905090565b6000809054906101000a900473ffffffffffffffffffffffffffffffffffffffff1673ffffffffffffffffffffffffffffffffffffffff163373ffffffffffffffffffffffffffffffffffffffff1614151561113e57600080fd5b8060038190555050565b6000809054906101000a900473ffffffffffffffffffffffffffffffffffffffff1681565b6000809054906101000a900473ffffffffffffffffffffffffffffffffffffffff1673ffffffffffffffffffffffffffffffffffffffff163373ffffffffffffffffffffffffffffffffffffffff161415156111c857600080fd5b6000809054906101000a900473ffffffffffffffffffffffffffffffffffffffff1673ffffffffffffffffffffffffffffffffffffffff166108fc3073ffffffffffffffffffffffffffffffffffffffff16319081150290604051600060405180830381858888f19350505050151561123d57fe5b565b60008061124a6149ca565b611252614916565b600080600060019550600160009054906101000a900473ffffffffffffffffffffffffffffffffffffffff1673ffffffffffffffffffffffffffffffffffffffff166362f9acf98a6000604051604001526040518263ffffffff167c01000000000000000000000000000000000000000000000000000000000281526004016112db919061530a565b6040805180830381600087803b15156112f357600080fd5b6102c65a03f1151561130457600080fd5b50505060405180604001604052945060006401000000000285600060028110151561132b57fe5b602002015163ffffffff19161415151561134457600080fd5b61134d85612fec565b935061135884612f18565b1561175e57600160009054906101000a900473ffffffffffffffffffffffffffffffffffffffff1673ffffffffffffffffffffffffffffffffffffffff1663c53b4bf98a6000604051602001526040518263ffffffff167c01000000000000000000000000000000000000000000000000000000000281526004016113dd919061530a565b602060405180830381600087803b15156113f657600080fd5b6102c65a03f1151561140757600080fd5b5050506040518051905092508360600151151560007f01000000000000000000000000000000000000000000000000000000000000000260017f0100000000000000000000000000000000000000000000000000000000000000026004867effffffffffffffffffffffffffffffffffffffffffffffffffffffffffffff19169060020a9004167effffffffffffffffffffffffffffffffffffffffffffffffffffffffffffff1916111515146114bf5760006114c1565b855b95508360800151151560007f01000000000000000000000000000000000000000000000000000000000000000260017f0100000000000000000000000000000000000000000000000000000000000000026003867effffffffffffffffffffffffffffffffffffffffffffffffffffffffffffff19169060020a9004167effffffffffffffffffffffffffffffffffffffffffffffffffffffffffffff19161115151461156f576000611571565b855b95508360a00151151560007f01000000000000000000000000000000000000000000000000000000000000000260017f0100000000000000000000000000000000000000000000000000000000000000026002867effffffffffffffffffffffffffffffffffffffffffffffffffffffffffffff19169060020a9004167effffffffffffffffffffffffffffffffffffffffffffffffffffffffffffff19161115151461161f576000611621565b855b95508360c00151151560007f01000000000000000000000000000000000000000000000000000000000000000260017f0100000000000000000000000000000000000000000000000000000000000000026001867effffffffffffffffffffffffffffffffffffffffffffffffffffffffffffff19169060020a9004167effffffffffffffffffffffffffffffffffffffffffffffffffffffffffffff1916111515146116cf5760006116d1565b855b95508360e00151151560007f01000000000000000000000000000000000000000000000000000000000000000260017f01000000000000000000000000000000000000000000000000000000000000000285167effffffffffffffffffffffffffffffffffffffffffffffffffffffffffffff191611151514611755576000611757565b855b9550611763565b600095505b851515611bcb57600160009054906101000a900473ffffffffffffffffffffffffffffffffffffffff1673ffffffffffffffffffffffffffffffffffffffff16630e8310d68a6040518263ffffffff167c01000000000000000000000000000000000000000000000000000000000281526004016117e1919061530a565b600060405180830381600087803b15156117fa57600080fd5b6102c65a03f1151561180b57600080fd5b505050846040518082600260200280838360005b8381101561183a57808201518184015260208101905061181f565b505050509050019150506040518091039020915061185789610f8f565b15156119cb57600160009054906101000a900473ffffffffffffffffffffffffffffffffffffffff1673ffffffffffffffffffffffffffffffffffffffff1663e765c122836000604051602001526040518263ffffffff167c01000000000000000000000000000000000000000000000000000000000281526004016118dd9190615230565b602060405180830381600087803b15156118f657600080fd5b6102c65a03f1151561190757600080fd5b505050604051805190509050600160009054906101000a900473ffffffffffffffffffffffffffffffffffffffff1673ffffffffffffffffffffffffffffffffffffffff16631cc1472d89836000604051602001526040518363ffffffff167c01000000000000000000000000000000000000000000000000000000000281526004016119959291906151ec565b602060405180830381600087803b15156119ae57600080fd5b6102c65a03f115156119bf57600080fd5b50505060405180519050505b600160009054906101000a900473ffffffffffffffffffffffffffffffffffffffff1673ffffffffffffffffffffffffffffffffffffffff166364e779b18a6040518263ffffffff167c0100000000000000000000000000000000000000000000000000000000028152600401611a42919061530a565b600060405180830381600087803b1515611a5b57600080fd5b6102c65a03f11515611a6c57600080fd5b505050600160009054906101000a900473ffffffffffffffffffffffffffffffffffffffff1673ffffffffffffffffffffffffffffffffffffffff16631dbd9d918360006040518363ffffffff167c0100000000000000000000000000000000000000000000000000000000028152600401611ae9929190615274565b600060405180830381600087803b1515611b0257600080fd5b6102c65a03f11515611b1357600080fd5b505050600160009054906101000a900473ffffffffffffffffffffffffffffffffffffffff1673ffffffffffffffffffffffffffffffffffffffff16633541fd538360006040518363ffffffff167c0100000000000000000000000000000000000000000000000000000000028152600401611b9092919061529d565b600060405180830381600087803b1515611ba957600080fd5b6102c65a03f11515611bba57600080fd5b505050611bc6896132ef565b611bd0565b600080fd5b6001965050505050505092915050565b600080600080600064010000000002876000600281101515611bfe57fe5b602002015163ffffffff191614151515611c1757600080fd5b866040518082600260200280838360005b83811015611c43578082015181840152602081019050611c28565b5050505090500191505060405180910390209250600160009054906101000a900473ffffffffffffffffffffffffffffffffffffffff1673ffffffffffffffffffffffffffffffffffffffff16638784ea96846000604051602001526040518263ffffffff167c0100000000000000000000000000000000000000000000000000000000028152600401611cd79190615230565b602060405180830381600087803b1515611cf057600080fd5b6102c65a03f11515611d0157600080fd5b5050506040518051905091506000600160009054906101000a900473ffffffffffffffffffffffffffffffffffffffff1673ffffffffffffffffffffffffffffffffffffffff166303a53d6b886000604051602001526040518263ffffffff167c0100000000000000000000000000000000000000000000000000000000028152600401611d8f919061530a565b602060405180830381600087803b1515611da857600080fd5b6102c65a03f11515611db957600080fd5b50505060405180519050141515611dcf57600080fd5b600160009054906101000a900473ffffffffffffffffffffffffffffffffffffffff1673ffffffffffffffffffffffffffffffffffffffff1663e3100d1e87436040518363ffffffff167c0100000000000000000000000000000000000000000000000000000000028152600401611e48929190615377565b600060405180830381600087803b1515611e6157600080fd5b6102c65a03f11515611e7257600080fd5b505050600160009054906101000a900473ffffffffffffffffffffffffffffffffffffffff1673ffffffffffffffffffffffffffffffffffffffff16630b62839587896040518363ffffffff167c0100000000000000000000000000000000000000000000000000000000028152600401611eee929190615325565b600060405180830381600087803b1515611f0757600080fd5b6102c65a03f11515611f1857600080fd5b50505060007f010000000000000000000000000000000000000000000000000000000000000002857effffffffffffffffffffffffffffffffffffffffffffffffffffffffffffff191611156120c057600160009054906101000a900473ffffffffffffffffffffffffffffffffffffffff1673ffffffffffffffffffffffffffffffffffffffff16631dba566087876040518363ffffffff167c0100000000000000000000000000000000000000000000000000000000028152600401611fe192919061534e565b600060405180830381600087803b1515611ffa57600080fd5b6102c65a03f1151561200b57600080fd5b50505061201785612899565b9050600160009054906101000a900473ffffffffffffffffffffffffffffffffffffffff1673ffffffffffffffffffffffffffffffffffffffff1663a47bd49687836040518363ffffffff167c0100000000000000000000000000000000000000000000000000000000028152600401612092929190615377565b600060405180830381600087803b15156120ab57600080fd5b6102c65a03f115156120bc57600080fd5b5050505b600160009054906101000a900473ffffffffffffffffffffffffffffffffffffffff1673ffffffffffffffffffffffffffffffffffffffff166340c10f1983886040518363ffffffff167c01000000000000000000000000000000000000000000000000000000000281526004016121399291906151ec565b600060405180830381600087803b151561215257600080fd5b6102c65a03f1151561216357600080fd5b505050600193505050509392505050565b600080fd5b60006121836149ca565b600080600080600160009054906101000a900473ffffffffffffffffffffffffffffffffffffffff1673ffffffffffffffffffffffffffffffffffffffff166362f9acf9886000604051604001526040518263ffffffff167c0100000000000000000000000000000000000000000000000000000000028152600401612209919061530a565b6040805180830381600087803b151561222157600080fd5b6102c65a03f1151561223257600080fd5b50505060405180604001604052945060006401000000000285600060028110151561225957fe5b602002015163ffffffff19161415151561227257600080fd5b846040518082600260200280838360005b8381101561229e578082015181840152602081019050612283565b5050505090500191505060405180910390209350600160009054906101000a900473ffffffffffffffffffffffffffffffffffffffff1673ffffffffffffffffffffffffffffffffffffffff1663e765c122856000604051602001526040518263ffffffff167c01000000000000000000000000000000000000000000000000000000000281526004016123329190615230565b602060405180830381600087803b151561234b57600080fd5b6102c65a03f1151561235c57600080fd5b5050506040518051905092506000831415151561237857600080fd5b61238187610f8f565b151561238c57600080fd5b600160009054906101000a900473ffffffffffffffffffffffffffffffffffffffff1673ffffffffffffffffffffffffffffffffffffffff16633541fd538560006040518363ffffffff167c010000000000000000000000000000000000000000000000000000000002815260040161240692919061529d565b600060405180830381600087803b151561241f57600080fd5b6102c65a03f1151561243057600080fd5b50505061243c876132f2565b600160009054906101000a900473ffffffffffffffffffffffffffffffffffffffff1673ffffffffffffffffffffffffffffffffffffffff16638784ea96856000604051602001526040518263ffffffff167c01000000000000000000000000000000000000000000000000000000000281526004016124bc9190615230565b602060405180830381600087803b15156124d557600080fd5b6102c65a03f115156124e657600080fd5b505050604051805190509150600160009054906101000a900473ffffffffffffffffffffffffffffffffffffffff1673ffffffffffffffffffffffffffffffffffffffff16631c4b774b886000604051602001526040518263ffffffff167c0100000000000000000000000000000000000000000000000000000000028152600401612572919061530a565b602060405180830381600087803b151561258b57600080fd5b6102c65a03f1151561259c57600080fd5b505050604051805190509050600260009054906101000a900473ffffffffffffffffffffffffffffffffffffffff1673ffffffffffffffffffffffffffffffffffffffff166340c10f1983836000604051602001526040518363ffffffff167c010000000000000000000000000000000000000000000000000000000002815260040161262a9291906151ec565b602060405180830381600087803b151561264357600080fd5b6102c65a03f1151561265457600080fd5b50505060405180519050151561266957600080fd5b600160009054906101000a900473ffffffffffffffffffffffffffffffffffffffff1673ffffffffffffffffffffffffffffffffffffffff16631cc1472d83856000604051602001526040518363ffffffff167c01000000000000000000000000000000000000000000000000000000000281526004016126eb9291906151ec565b602060405180830381600087803b151561270457600080fd5b6102c65a03f1151561271557600080fd5b50505060405180519050151561272a57600080fd5b600195505050505050919050565b6000809054906101000a900473ffffffffffffffffffffffffffffffffffffffff1673ffffffffffffffffffffffffffffffffffffffff163373ffffffffffffffffffffffffffffffffffffffff1614151561279357600080fd5b8060048190555050565b6000600160009054906101000a900473ffffffffffffffffffffffffffffffffffffffff1673ffffffffffffffffffffffffffffffffffffffff166362f9acf9836000604051604001526040518263ffffffff167c010000000000000000000000000000000000000000000000000000000002815260040161281f919061530a565b6040805180830381600087803b151561283757600080fd5b6102c65a03f1151561284857600080fd5b505050604051806040016040526040518082600260200280838360005b83811015612880578082015181840152602081019050612865565b5050505090500191505060405180910390209050919050565b600080600080600080600080600160009054906101000a900473ffffffffffffffffffffffffffffffffffffffff1673ffffffffffffffffffffffffffffffffffffffff1663785d8d71600060405160c001526040518163ffffffff167c010000000000000000000000000000000000000000000000000000000002815260040160c060405180830381600087803b151561293357600080fd5b6102c65a03f1151561294457600080fd5b50505060405180519060200180519060200180519060200180519060200180519060200180519050809750819850829950839a50849b50859c505050505050506000905060017f01000000000000000000000000000000000000000000000000000000000000000260017f01000000000000000000000000000000000000000000000000000000000000000260048b7effffffffffffffffffffffffffffffffffffffffffffffffffffffffffffff19169060020a9004167effffffffffffffffffffffffffffffffffffffffffffffffffffffffffffff19161415612a6657612a63612a5460018801612a4660018b0160035461383090919063ffffffff16565b61386b90919063ffffffff16565b8261388690919063ffffffff16565b90505b60017f01000000000000000000000000000000000000000000000000000000000000000260017f01000000000000000000000000000000000000000000000000000000000000000260038b7effffffffffffffffffffffffffffffffffffffffffffffffffffffffffffff19169060020a9004167effffffffffffffffffffffffffffffffffffffffffffffffffffffffffffff19161415612b4457612b41612b3260018701612b2460018b0160035461383090919063ffffffff16565b61386b90919063ffffffff16565b8261388690919063ffffffff16565b90505b60017f01000000000000000000000000000000000000000000000000000000000000000260017f01000000000000000000000000000000000000000000000000000000000000000260028b7effffffffffffffffffffffffffffffffffffffffffffffffffffffffffffff19169060020a9004167effffffffffffffffffffffffffffffffffffffffffffffffffffffffffffff19161415612c2257612c1f612c1060018601612c0260018b0160035461383090919063ffffffff16565b61386b90919063ffffffff16565b8261388690919063ffffffff16565b90505b60017f01000000000000000000000000000000000000000000000000000000000000000260017f01000000000000000000000000000000000000000000000000000000000000000260018b7effffffffffffffffffffffffffffffffffffffffffffffffffffffffffffff19169060020a9004167effffffffffffffffffffffffffffffffffffffffffffffffffffffffffffff19161415612d0057612cfd612cee60018501612ce060018b0160035461383090919063ffffffff16565b61386b90919063ffffffff16565b8261388690919063ffffffff16565b90505b60017f01000000000000000000000000000000000000000000000000000000000000000260017f0100000000000000000000000000000000000000000000000000000000000000028a167effffffffffffffffffffffffffffffffffffffffffffffffffffffffffffff19161415612db457612db1612da260018401612d9460018b0160035461383090919063ffffffff16565b61386b90919063ffffffff16565b8261388690919063ffffffff16565b90505b80975050505050505050919050565b6000809054906101000a900473ffffffffffffffffffffffffffffffffffffffff1673ffffffffffffffffffffffffffffffffffffffff163373ffffffffffffffffffffffffffffffffffffffff16141515612e1e57600080fd5b600073ffffffffffffffffffffffffffffffffffffffff168173ffffffffffffffffffffffffffffffffffffffff1614151515612e5a57600080fd5b8073ffffffffffffffffffffffffffffffffffffffff166000809054906101000a900473ffffffffffffffffffffffffffffffffffffffff1673ffffffffffffffffffffffffffffffffffffffff167f8be0079c531659141344cd1fd0a4f28419497f9722a3daafe3b4186f6b6457e060405160405180910390a3806000806101000a81548173ffffffffffffffffffffffffffffffffffffffff021916908373ffffffffffffffffffffffffffffffffffffffff16021790555050565b6000816000015115612f2d5760009050612f46565b81602001511515612f415760009050612f46565b600190505b919050565b8273ffffffffffffffffffffffffffffffffffffffff1663a9059cbb83836000604051602001526040518363ffffffff167c0100000000000000000000000000000000000000000000000000000000028152600401612fab9291906151ec565b602060405180830381600087803b1515612fc457600080fd5b6102c65a03f11515612fd557600080fd5b505050604051805190501515612fe757fe5b505050565b612ff4614916565b612ffc614916565b60008060008060008088600060028110151561301457fe5b602002015187610120019063ffffffff1916908163ffffffff19168152505088600160028110151561304257fe5b602002015187610140019063ffffffff1916908163ffffffff191681525050600087610180019060ff16908160ff16815250506002876101a0019060ff16908160ff16815250506002876101c0019060ff16908160ff168152505060008760000190151590811515815250506000876020019015159081151581525050600187610160019060ff16908160ff16815250506ffffffffffffffe7ffdbfffffffffffff700100000000000000000000000000000000028761010001906fffffffffffffffffffffffffffffffff191690816fffffffffffffffffffffffffffffffff191681525050600091505b603c8260ff1610801561313f575085155b156132ad57602087610180015160ff161061315f57866101400151613166565b8661012001515b905061318881602089610180015160ff1681151561318057fe5b0660206138a4565b9450613193856138e8565b80945081955050506131a485613927565b159550851580156131b8575060088460ff16105b80156131c7575060088360ff16105b80156131d7575060008460ff1610155b80156131e7575060008360ff1610155b156132a0576131f7878585613938565b965060018761018001510187610180019060ff16908160ff168152505086600001511561329f576000876000019015159081151581525050600160ff1687610160015160ff16141561325c57600287610160019060ff16908160ff1681525050613271565b600187610160019060ff16908160ff16815250505b61327c878585613938565b965086600001511561329e576001876000019015159081151581525050600195505b5b5b818060010192505061312e565b866000015115156132e05760008760000190151590811515815250506132d287613c3a565b96506132dd87613f79565b96505b86975050505050505050919050565b50565b6000806000806000806000600160009054906101000a900473ffffffffffffffffffffffffffffffffffffffff1673ffffffffffffffffffffffffffffffffffffffff1663785d8d71600060405160c001526040518163ffffffff167c010000000000000000000000000000000000000000000000000000000002815260040160c060405180830381600087803b151561338b57600080fd5b6102c65a03f1151561339c57600080fd5b50505060405180519060200180519060200180519060200180519060200180519060200180519050809750819850829950839a50849b50859c50505050505050600160009054906101000a900473ffffffffffffffffffffffffffffffffffffffff1673ffffffffffffffffffffffffffffffffffffffff1663c53b4bf9896000604051602001526040518263ffffffff167c010000000000000000000000000000000000000000000000000000000002815260040161345c919061530a565b602060405180830381600087803b151561347557600080fd5b6102c65a03f1151561348657600080fd5b5050506040518051905090506134fd60007f010000000000000000000000000000000000000000000000000000000000000002827effffffffffffffffffffffffffffffffffffffffffffffffffffffffffffff1916116134e85760006134eb565b60015b60ff168861388690919063ffffffff16565b965061358460017f0100000000000000000000000000000000000000000000000000000000000000026004837effffffffffffffffffffffffffffffffffffffffffffffffffffffffffffff19169060020a9004167f010000000000000000000000000000000000000000000000000000000000000090048761388690919063ffffffff16565b955061360b60017f0100000000000000000000000000000000000000000000000000000000000000026003837effffffffffffffffffffffffffffffffffffffffffffffffffffffffffffff19169060020a9004167f010000000000000000000000000000000000000000000000000000000000000090048661388690919063ffffffff16565b945061369260017f0100000000000000000000000000000000000000000000000000000000000000026002837effffffffffffffffffffffffffffffffffffffffffffffffffffffffffffff19169060020a9004167f010000000000000000000000000000000000000000000000000000000000000090048561388690919063ffffffff16565b935061371960017f0100000000000000000000000000000000000000000000000000000000000000026001837effffffffffffffffffffffffffffffffffffffffffffffffffffffffffffff19169060020a9004167f010000000000000000000000000000000000000000000000000000000000000090048461388690919063ffffffff16565b925061377660017f01000000000000000000000000000000000000000000000000000000000000000282167f010000000000000000000000000000000000000000000000000000000000000090048361388690919063ffffffff16565b9150600160009054906101000a900473ffffffffffffffffffffffffffffffffffffffff1673ffffffffffffffffffffffffffffffffffffffff16638b1b2ba88888888888886040518763ffffffff167c01000000000000000000000000000000000000000000000000000000000281526004016137f9969594939291906153a0565b600060405180830381600087803b151561381257600080fd5b6102c65a03f1151561382357600080fd5b5050505050505050505050565b60008060008414156138455760009150613864565b828402905082848281151561385657fe5b0414151561386057fe5b8091505b5092915050565b600080828481151561387957fe5b0490508091505092915050565b600080828401905083811015151561389a57fe5b8091505092915050565b6000806000607f64010000000002915060078086026007860203039050818160ff168763ffffffff19169060020a9004166401000000009004925050509392505050565b60008060008060408503945060088560ff1681151561390357fe5b069150600882860360ff1681151561391757fe5b0490508181935093505050915091565b600060408260ff1610159050919050565b613940614916565b6139486149f8565b600080600080600080600080600360ff166139698e61010001518e8e614271565b60ff1614151561398c5760018d60000190151590811515815250508c9950613c2a565b6139978d8d8d6142e7565b809950819a50505060008860ff1614156139c45760018d60000190151590811515815250508c9950613c2a565b60009150600090505b8760ff168160ff161015613b2a576000965060009550613a048d8a8360ff166008811015156139f857fe5b60200201518e8e614626565b8097508198505050600092505b8560ff168360ff161015613b1d57811515613a2b57600191505b613a3e613a398885896138a4565b6138e8565b8095508196505050613a5c8d61010001518e6101600151878761478a565b8d61010001906fffffffffffffffffffffffffffffffff191690816fffffffffffffffffffffffffffffffff191681525050600260ff168d610160015160ff161415613adb5760018d6101c0018181510191509060ff16908160ff168152505060018d6101a0018181510391509060ff16908160ff1681525050613b10565b60018d6101c0018181510391509060ff16908160ff168152505060018d6101a0018181510191509060ff16908160ff16815250505b8280600101935050613a11565b80806001019150506139cd565b8115613bcb57613b468d61010001518e61016001518e8e61478a565b8d61010001906fffffffffffffffffffffffffffffffff191690816fffffffffffffffffffffffffffffffff191681525050600260ff168d610160015160ff161415613bab5760018d6101c0018181510191509060ff16908160ff1681525050613bc6565b60018d6101a0018181510191509060ff16908160ff16815250505b613be4565b60018d60000190151590811515815250508c9950613c2a565b600160ff168d610160015160ff161415613c115760028d610160019060ff16908160ff1681525050613c26565b60018d610160019060ff16908160ff16815250505b8c99505b5050505050505050509392505050565b613c42614916565b613c4a614a27565b6000806000806000613c5a614a56565b603c89610180015160ff161415613c84576001896020019015159081151581525050889750613f6d565b60009550600094505b60408560ff161015613d6657613cd78961010001516008808860ff16811515613cb257fe5b06880360ff16811515613cc157fe5b0460088860ff16811515613cd157fe5b06614271565b9350600360ff168460ff161415613d595760408051908101604052806008808860ff16811515613d0357fe5b06880360ff16811515613d1257fe5b0460ff1660ff16815260200160088760ff16811515613d2d57fe5b0660ff1660ff16815250878760ff16603c81101515613d4857fe5b602002018190525085806001019650505b8480600101955050613c8d565b6000925060008660ff161115613f2a578861010001519150600094505b8560ff168560ff16108015613d96575082155b15613ef657868560ff16603c81101515613dac57fe5b60200201519050600189610160019060ff16908160ff16815250506000896000019015159081151581525050818961010001906fffffffffffffffffffffffffffffffff191690816fffffffffffffffffffffffffffffffff191681525050613e3c89826000600281101515613e1e57fe5b6020020151836001600281101515613e3257fe5b6020020151613938565b985088600001511515613e4e57600192505b600289610160019060ff16908160ff16815250506000896000019015159081151581525050818961010001906fffffffffffffffffffffffffffffffff191690816fffffffffffffffffffffffffffffffff191681525050613ed789826000600281101515613eb957fe5b6020020151836001600281101515613ecd57fe5b6020020151613938565b985088600001511515613ee957600192505b8480600101955050613d83565b818961010001906fffffffffffffffffffffffffffffffff191690816fffffffffffffffffffffffffffffffff1916815250505b8215613f46576001896000019015159081151581525050613f69565b600189602001901515908115158152505060008960000190151590811515815250505b8897505b50505050505050919050565b613f81614916565b60008060008060008060006001965060019550600194506001935060019250600091505b60088260ff16108015613fd557508680613fbc5750855b80613fc45750845b80613fcc5750835b80613fd45750825b5b156141da57600090505b60088160ff1610801561400f57508680613ff65750855b80613ffe5750845b806140065750835b8061400e5750825b5b156141cd5761402a8961010001518360070383600703614856565b6fffffffffffffffffffffffffffffffff191661404d8a61010001518484614856565b6fffffffffffffffffffffffffffffffff191614151561406c57600096505b61407f8961010001518383600703614856565b6fffffffffffffffffffffffffffffffff19166140a28a61010001518484614856565b6fffffffffffffffffffffffffffffffff19161415156140c157600095505b6140d48961010001518360070383614856565b6fffffffffffffffffffffffffffffffff19166140f78a61010001518484614856565b6fffffffffffffffffffffffffffffffff191614151561411657600094505b61412c8961010001518260070384600703614856565b6fffffffffffffffffffffffffffffffff191661414f8a61010001518484614856565b6fffffffffffffffffffffffffffffffff191614151561416e57600093505b61417e8961010001518284614856565b6fffffffffffffffffffffffffffffffff19166141a18a61010001518484614856565b6fffffffffffffffffffffffffffffffff19161415156141c057600092505b8080600101915050613fdf565b8180600101925050613fa5565b86806141e35750855b806141eb5750845b806141f35750835b806141fb5750825b156142625760018960400190151590811515815250508689606001901515908115158152505085896080019015159081151581525050848960a0019015159081151581525050838960c0019015159081151581525050828960e00190151590811515815250505b88975050505050505050919050565b600080600061428085856148b2565b9150600370010000000000000000000000000000000002826fffffffffffffffffffffffffffffffff16876fffffffffffffffffffffffffffffffff19169060020a9004169050807001000000000000000000000000000000009004925050509392505050565b6142ef6149f8565b60006142f96149f8565b60006143036149f8565b60008061430e614a80565b600080600096506101006040519081016040528060408051908101604052807fffffffffffffffffffffffffffffffffffffffffffffffffffffffffffffffff60000b60000b81526020016000800b60000b815250815260200160408051908101604052807fffffffffffffffffffffffffffffffffffffffffffffffffffffffffffffffff60000b60000b8152602001600160000b60000b815250815260200160408051908101604052806000800b60000b8152602001600160000b60000b81525081526020016040805190810160405280600160000b60000b8152602001600160000b60000b81525081526020016040805190810160405280600160000b60000b81526020016000800b60000b81525081526020016040805190810160405280600160000b60000b81526020017fffffffffffffffffffffffffffffffffffffffffffffffffffffffffffffffff60000b60000b815250815260200160408051908101604052806000800b60000b81526020017fffffffffffffffffffffffffffffffffffffffffffffffffffffffffffffffff60000b60000b815250815260200160408051908101604052807fffffffffffffffffffffffffffffffffffffffffffffffffffffffffffffffff60000b60000b81526020017fffffffffffffffffffffffffffffffffffffffffffffffffffffffffffffffff60000b60000b8152508152509550600090505b60088160ff16101561461057858160ff1660088110151561453a57fe5b6020020151925082600060028110151561455057fe5b60200201518c01935082600160028110151561456857fe5b60200201518b01945060078560000b1380614586575060008560000b125b80614594575060078460000b135b806145a2575060008460000b125b1515614603576145b88d61010001518587614271565b91508c610160015160ff168260ff1614151561460257600360ff168260ff161415156146015782888860ff166008811015156145f057fe5b602002018190525086806001019750505b5b5b808060010191505061451d565b8787995099505050505050505050935093915050565b60008060008060008060008060008060009650600160ff168e610160015160ff161415614656576002955061465b565b600195505b60009450600190505b60098160ff16101561477357841515614766578b8d600060028110151561468757fe5b602002015182020193508a8d60016002811015156146a157fe5b6020020151820201925060078460000b13806146c0575060008460000b125b806146ce575060078360000b135b806146dc575060008360000b125b156146f257600097506000965060019450614765565b6147028e61010001518585614271565b91508560ff168260ff16141561472b5761471e888886866148ce565b8098508199505050614764565b8d610160015160ff168260ff16148015614748575060018160ff16115b156147565760019450614763565b6000975060009650600194505b5b5b5b8080600101915050614664565b878799509950505050505050505094509492505050565b600080600060078560ff1611156147a057600080fd5b60078460ff1611156147b157600080fd5b6147bb85856148b2565b9150816fffffffffffffffffffffffffffffffff166003700100000000000000000000000000000000026fffffffffffffffffffffffffffffffff19169060020a02905086818818169650816fffffffffffffffffffffffffffffffff168660ff16700100000000000000000000000000000000026fffffffffffffffffffffffffffffffff19169060020a02871792505050949350505050565b60008061486384846148b2565b9050600370010000000000000000000000000000000002816fffffffffffffffffffffffffffffffff16866fffffffffffffffffffffffffffffffff19169060020a9004169150509392505050565b600060026001838560080201016040030260ff16905092915050565b600080600060406008850286010160ff1664010000000002905060078763ffffffff19169060020a029650808717965085806001019650508686925092505094509492505050565b6101e06040519081016040528060001515815260200160001515815260200160001515815260200160001515815260200160001515815260200160001515815260200160001515815260200160001515815260200160006fffffffffffffffffffffffffffffffff19168152602001600063ffffffff19168152602001600063ffffffff19168152602001600060ff168152602001600060ff168152602001600060ff168152602001600060ff1681525090565b60408051908101604052806002905b600063ffffffff19168152602001906001900390816149d95790505090565b610200604051908101604052806008905b614a11614aa9565b815260200190600190039081614a095790505090565b610f0060405190810160405280603c905b614a40614ad2565b815260200190600190039081614a385790505090565b60408051908101604052806002905b600060ff16815260200190600190039081614a655790505090565b60408051908101604052806002905b6000800b815260200190600190039081614a8f5790505090565b60408051908101604052806002905b6000800b815260200190600190039081614ab85790505090565b60408051908101604052806002905b600060ff16815260200190600190039081614ae15790505090565b6000614b08823561551c565b905092915050565b600082601f83011260008114614b2557614b2a565b600080fd5b506002614b3e614b3982615437565b615401565b91508183856020840282011160018114614b5757614b5c565b600080fd5b5060005b83811015614b8d5781614b738882614bd3565b845260208401935060208301925050600181019050614b60565b5050505092915050565b6000614ba3823561553c565b905092915050565b6000614bb78235615548565b905092915050565b6000614bcb8235615574565b905092915050565b6000614bdf82356155a0565b905092915050565b6000614bf382356155cc565b905092915050565b60008083601f84011260008114614c1157614c16565b600080fd5b508235905067ffffffffffffffff811160018114614c3357614c38565b600080fd5b50602083019150836001820283011160018114614c5457614c59565b600080fd5b509250929050565b6000614c6d82356155d6565b905092915050565b60006101e08284031260018114614c8b57614c90565b600080fd5b50614c9c6101e0615401565b90506000614cac84828501614b97565b6000830152506020614cc084828501614b97565b6020830152506040614cd484828501614b97565b6040830152506060614ce884828501614b97565b6060830152506080614cfc84828501614b97565b60808301525060a0614d1084828501614b97565b60a08301525060c0614d2484828501614b97565b60c08301525060e0614d3884828501614b97565b60e083015250610100614d4d84828501614bbf565b61010083015250610120614d6384828501614bd3565b61012083015250610140614d7984828501614bd3565b61014083015250610160614d8f84828501614df2565b61016083015250610180614da584828501614df2565b610180830152506101a0614dbb84828501614df2565b6101a0830152506101c0614dd184828501614df2565b6101c08301525092915050565b6000614dea82356155e8565b905092915050565b6000614dfe82356155f2565b905092915050565b600060208284031260018114614e1b57614e20565b600080fd5b506000614e2f84828501614afc565b91505092915050565b60008060008060608587031260018114614e5157614e56565b600080fd5b506000614e6587828801614afc565b9450506020614e7687828801614dde565b935050604085013567ffffffffffffffff811160018114614e9657614e9b565b600080fd5b50614ea887828801614bfb565b925092505092959194509250565b600060408284031260018114614ecb57614ed0565b600080fd5b506000614edf84828501614b10565b91505092915050565b600080600060808486031260018114614f0057614f05565b600080fd5b506000614f1486828701614b10565b9350506040614f2586828701614dde565b9250506060614f3686828701614bab565b9150509250925092565b60008060008060a08587031260018114614f5957614f5e565b600080fd5b506000614f6d87828801614b10565b9450506040614f7e87828801614dde565b9350506060614f8f87828801614bab565b9250506080614fa087828801614afc565b91505092959194509250565b600060208284031260018114614fc157614fc6565b600080fd5b506000614fd584828501614bab565b91505092915050565b60008060408385031260018114614ff457614ff9565b600080fd5b50600061500885828601614be7565b925050602061501985828601614afc565b9150509250929050565b6000602082840312600181146150385761503d565b600080fd5b50600061504c84828501614c61565b91505092915050565b60006101e0828403126001811461506b57615070565b600080fd5b50600061507f84828501614c75565b91505092915050565b60006020828403126001811461509d576150a2565b600080fd5b5060006150b184828501614dde565b91505092915050565b600080604083850312600181146150d0576150d5565b600080fd5b5060006150e485828601614dde565b92505060206150f585828601614afc565b9150509250929050565b61510881615484565b82525050565b6151178161546c565b61512082615462565b60005b8281101561515257615136858351615177565b61513f82615477565b9150602085019450600181019050615123565b5050505050565b615162816154a4565b82525050565b615171816154b0565b82525050565b615180816154dc565b82525050565b61518f81615508565b82525050565b61519e816155ff565b82525050565b6151ad81615611565b82525050565b6151bc81615623565b82525050565b6151cb81615512565b82525050565b60006020820190506151e660008301846150ff565b92915050565b600060408201905061520160008301856150ff565b61520e60208301846151c2565b9392505050565b600060208201905061522a6000830184615159565b92915050565b60006020820190506152456000830184615186565b92915050565b60006040820190506152606000830185615186565b61526d60208301846150ff565b9392505050565b60006040820190506152896000830185615186565b61529660208301846151a4565b9392505050565b60006040820190506152b26000830185615186565b6152bf60208301846151b3565b9392505050565b60006040820190506152db6000830185615186565b6152e860208301846151c2565b9392505050565b60006020820190506153046000830184615195565b92915050565b600060208201905061531f60008301846151c2565b92915050565b600060608201905061533a60008301856151c2565b615347602083018461510e565b9392505050565b600060408201905061536360008301856151c2565b6153706020830184615168565b9392505050565b600060408201905061538c60008301856151c2565b61539960208301846151c2565b9392505050565b600060c0820190506153b560008301896151c2565b6153c260208301886151c2565b6153cf60408301876151c2565b6153dc60608301866151c2565b6153e960808301856151c2565b6153f660a08301846151c2565b979650505050505050565b6000604051905081810181811067ffffffffffffffff821117600181146154275761542c565b600080fd5b508060405250919050565b600067ffffffffffffffff82116001811461545157615456565b600080fd5b50602082029050919050565b6000819050919050565b600060029050919050565b6000602082019050919050565b600073ffffffffffffffffffffffffffffffffffffffff82169050919050565b60008115159050919050565b60007fff0000000000000000000000000000000000000000000000000000000000000082169050919050565b60007fffffffffffffffffffffffffffffffffffffffffffffffffffffffff0000000082169050919050565b6000819050919050565b6000819050919050565b600073ffffffffffffffffffffffffffffffffffffffff82169050919050565b60008115159050919050565b60007fff0000000000000000000000000000000000000000000000000000000000000082169050919050565b60007fffffffffffffffffffffffffffffffff0000000000000000000000000000000082169050919050565b60007fffffffffffffffffffffffffffffffffffffffffffffffffffffffff0000000082169050919050565b6000819050919050565b60006155e182615484565b9050919050565b6000819050919050565b600060ff82169050919050565b600061560a82615484565b9050919050565b600061561c82615484565b9050919050565b600061562e82615512565b90509190505600a265627a7a7230582073ea0803e50ce7ce6f25a37520a72d719fdcd55328478af53f00ab21116b1e696c6578706572696d656e74616cf50037",
  "source": "pragma solidity ^0.4.19;\npragma experimental ABIEncoderV2;\n\n/**\n * The CloversController is replaceable endpoint for minting and unminting Clovers.sol and ClubToken.sol\n */\n\nimport \"./Reversi.sol\";\nimport \"./IClovers.sol\";\nimport \"./helpers/IMintable.sol\";\nimport \"./ICloversController.sol\";\nimport \"zeppelin-solidity/contracts/ownership/HasNoTokens.sol\";\nimport \"zeppelin-solidity/contracts/ownership/HasNoEther.sol\";\nimport \"zeppelin-solidity/contracts/math/SafeMath.sol\";\n\n\ncontract CloversController is ICloversController, HasNoTokens, HasNoEther {\n    // event cloverCommited(bytes32 movesHash, address miner);\n    // event cloverRevealed(bytes28[2] moves, uint256 _tokenId, address miner);\n    // event cloverClaimed(bytes28[2] moves, uint256 _tokenId, address miner);\n    // event stakeRetrieved(bytes28[2] moves, uint256 _tokenId, address miner);\n    // event cloverChallenged(bytes28[2] moves, uint256 _tokenId, address miner, address challenger);\n\n    using SafeMath for uint256;\n\n    address clovers;\n    address clubToken;\n\n    uint256 payMultiplier;\n    uint256 stakeAmount;\n    uint256 stakePeriod;\n\n    function CloversController(address _clovers, address _clubToken) public {\n        clovers = _clovers;\n        clubToken = _clubToken;\n    }    \n\n    /**\n    * @dev Gets the current staking amount needed to claim a Clover.\n    * @return A uint256 value of how much stake is needed.\n    */\n    function currentStakeAmount() public constant returns (uint256) {\n        return stakeAmount;\n    }\n    /**\n    * @dev Gets the current staking period needed to verify a Clover.\n    * @return A uint256 value of stake period in seconds.\n    */\n    function currentStakePeriod() public constant returns (uint256) {\n        return stakePeriod;\n    }\n    /**\n    * @dev Gets the current staking period needed to verify a Clover.\n    * @return A uint256 value of stake period in seconds.\n    */\n    function getMultiplier() public constant returns (uint256) {\n        return payMultiplier;\n    }\n    /**\n    * @dev Gets the current staking period needed to verify a Clover.\n    * @return A uint256 value of stake period in seconds.\n    */\n    function getMovesHash(uint _tokenId) public constant returns (bytes32) {\n        return keccak256(IClovers(clovers).getCloverMoves(_tokenId));\n    }\n    /**\n    * @dev Checks whether the game is valid.\n    * @param moves The moves needed to play validate the game.\n    * @return A boolean representing whether or not the game is valid.\n    */\n    function isValid(bytes28[2] moves) public constant returns (bool) {\n        Reversi.Game memory game = Reversi.playGame(moves);\n        return isValidGame(game);\n    }\n    /**\n    * @dev Checks whether the game is valid.\n    * @param game The pre-played game.\n    * @return A boolean representing whether or not the game is valid.\n    */\n    function isValidGame(Reversi.Game game) public constant returns (bool) {\n        if (game.error) return false;\n        if (!game.complete) return false;\n        return true;\n    }\n    /**\n    * @dev Checks whether the game has passed the verification period.\n    * @param _tokenId The board being checked.\n    * @return A boolean representing whether or not the game has been verified.\n    */\n    function isVerified(uint256 _tokenId) public constant returns (bool) {\n        uint256 _blockMinted = IClovers(clovers).getBlockMinted(_tokenId);\n        if(_blockMinted == 0) return false;\n        // require(block.number > _blockMinted);\n        return (block.number - _blockMinted) > stakePeriod;\n    }\n    /**\n    * @dev Calculates the reward of the board.\n    * @param _symmetries symmetries saved as a bytes1 value like 00010101 where bits represent symmetry types.\n    * @return A uint256 representing the reward that would be returned for claiming the board.\n    */\n    function calculateReward(bytes1 _symmetries) public constant returns (uint256) {\n        uint256 Symmetricals;\n        uint256 RotSym;\n        uint256 Y0Sym;\n        uint256 X0Sym;\n        uint256 XYSym;\n        uint256 XnYSym;\n        (Symmetricals,\n        RotSym,\n        Y0Sym,\n        X0Sym,\n        XYSym,\n        XnYSym) = IClovers(clovers).getAllSymmetries();\n        uint256 base = 0;\n        if (_symmetries >> 4 & 1 == 1) base = base.add(payMultiplier.mul(Symmetricals + 1).div(RotSym + 1));\n        if (_symmetries >> 3 & 1 == 1) base = base.add(payMultiplier.mul(Symmetricals + 1).div(Y0Sym + 1));\n        if (_symmetries >> 2 & 1 == 1) base = base.add(payMultiplier.mul(Symmetricals + 1).div(X0Sym + 1));\n        if (_symmetries >> 1 & 1 == 1) base = base.add(payMultiplier.mul(Symmetricals + 1).div(XYSym + 1));\n        if (_symmetries & 1 == 1) base = base.add(payMultiplier.mul(Symmetricals + 1).div(XnYSym + 1));\n        return base;\n    }\n\n    /**\n    * @dev Claim the Clover without a commit or reveal.\n    * @param moves The moves that make up the Clover reversi game.\n    * @param _tokenId The board that results from the moves.\n    * @param _symmetries symmetries saved as a bytes1 value like 00010101 where bits represent symmetry types.\n    * @param _to The address claiming the Clover.\n    * @return A boolean representing whether or not the claim was successful.\n    */\n    function claimClover(bytes28[2] moves, uint256 _tokenId, bytes1 _symmetries, address _to) public payable returns (bool) {\n        require(moves[0] != 0);\n        require(msg.value == stakeAmount);\n        bytes32 movesHash = keccak256(moves);\n        IClovers(clovers).setCommit(movesHash, _to);\n        IClovers(clovers).setStake(movesHash, stakeAmount);\n        clovers.transfer(stakeAmount);\n        require(IClovers(clovers).getBlockMinted(_tokenId) == 0);\n        IClovers(clovers).setBlockMinted(_tokenId, block.number);\n        IClovers(clovers).setCloverMoves(_tokenId, moves);\n        if (_symmetries > 0) {\n            IClovers(clovers).setSymmetries(_tokenId, _symmetries);\n            uint256 reward = calculateReward(_symmetries);\n            IClovers(clovers).setReward(_tokenId, reward);\n        }\n        IClovers(clovers).mint(_to, _tokenId);\n        return true;\n    }\n    /**\n    * @dev Commit the hash of the moves needed to claim the Clover. A stake should be made for counterfactual verification.\n    * @param movesHash The hash of the moves that makes up the Clover reversi game.\n    * @param _to The address claiming the Clover.\n    * @return A boolean representing whether or not the commit was successful.\n    */\n    function claimCloverCommit(bytes32 movesHash, address _to) public payable returns (bool) {\n        require(_to != 0);\n        require(msg.value == stakeAmount);\n        require(IClovers(clovers).getCommit(movesHash) == 0);\n        IClovers(clovers).setCommit(movesHash, _to);\n        IClovers(clovers).setStake(movesHash, stakeAmount);\n        clovers.transfer(stakeAmount);\n        return true;\n    }\n    /**\n    * @dev Reveal the solution to the previous commit to claim the Clover.\n    * @param moves The moves that make up the Clover reversi game.\n    * @param _tokenId The board that results from the moves.\n    * @param _symmetries symmetries saved as a bytes1 value like 00010101 where bits represent symmetry types.\n    * @return A boolean representing whether or not the reveal and claim was successful.\n    */\n    function claimCloverReveal(bytes28[2] moves, uint256 _tokenId, bytes1 _symmetries) public returns (bool) {\n        require(moves[0] != 0);\n        bytes32 movesHash = keccak256(moves);\n        address commiter = IClovers(clovers).getCommit(movesHash);\n        require(IClovers(clovers).getBlockMinted(_tokenId) == 0);\n        IClovers(clovers).setBlockMinted(_tokenId, block.number);\n        IClovers(clovers).setCloverMoves(_tokenId, moves);\n        if (_symmetries > 0) {\n            IClovers(clovers).setSymmetries(_tokenId, _symmetries);\n            uint256 reward = calculateReward(_symmetries);\n            IClovers(clovers).setReward(_tokenId, reward);\n        }\n        IClovers(clovers).mint(commiter, _tokenId);\n        return true;\n    }\n    /**\n    * @dev Retrieve the stake from a Clover claim after the stake period has ended.\n    * @param _tokenId The board which holds the stake.\n    * @return A boolean representing whether or not the retrieval was successful.\n    */\n    function retrieveStake(uint256 _tokenId) public returns (bool) {\n        bytes28[2] memory moves = IClovers(clovers).getCloverMoves(_tokenId);\n        require(moves[0] != 0);\n        bytes32 movesHash = keccak256(moves);\n        uint256 stake = IClovers(clovers).getStake(movesHash);\n        require(stake != 0);\n        require(isVerified(_tokenId));\n        IClovers(clovers).setStake(movesHash, 0);\n        addSymmetries(_tokenId);\n        address commiter = IClovers(clovers).getCommit(movesHash);\n        uint256 reward = IClovers(clovers).getReward(_tokenId);\n        require(IMintable(clubToken).mint(commiter, reward));\n        require(IClovers(clovers).moveEth(commiter, stake));\n        return true;\n    }\n    /**\n    * @dev Challenge a staked Clover for being invalid.\n    * @param _tokenId The board being challenged.\n    * @param _to The address challenging the Clover.\n    * @return A boolean representing whether or not the challenge was successful.\n    */\n    function challengeClover(uint256 _tokenId, address _to) public returns (bool) {\n        bool valid = true;\n        bytes28[2] memory moves = IClovers(clovers).getCloverMoves(_tokenId);\n        require(moves[0] != 0);\n        Reversi.Game memory game = Reversi.playGame(moves);\n        if(isValidGame(game)) {\n            bytes1 _symmetries = IClovers(clovers).getSymmetries(_tokenId);\n\n            valid = (_symmetries >> 4 & 1) > 0 == game.RotSym ? valid : false;\n            valid = (_symmetries >> 3 & 1) > 0 == game.Y0Sym ? valid : false;\n            valid = (_symmetries >> 2 & 1) > 0 == game.X0Sym ? valid : false;\n            valid = (_symmetries >> 1 & 1) > 0 == game.XYSym ? valid : false;\n            valid = (_symmetries & 1) > 0 == game.XnYSym ? valid : false;\n\n        } else {\n            valid = false;\n        }\n        if (!valid) {\n            IClovers(clovers).deleteClover(_tokenId);\n            bytes32 movesHash = keccak256(moves);\n            if (!isVerified(_tokenId)) {\n                uint256 stake = IClovers(clovers).getStake(movesHash);\n                IClovers(clovers).moveEth(_to, stake);\n            }\n            IClovers(clovers).unmint(_tokenId);\n            IClovers(clovers).setCommit(movesHash, 0);\n            IClovers(clovers).setStake(movesHash, 0);\n            removeSymmetries(_tokenId);\n        } else {\n            revert();\n        }\n        return true;\n    }\n\n    /**\n    * @dev Updates the stake amount.\n    * @param _stakeAmount The new amount needed to stake.\n    */\n    function updateStakeAmount(uint256 _stakeAmount) public onlyOwner {\n        stakeAmount = _stakeAmount;\n    }\n    /**\n    * @dev Updates the stake period.\n    * @param _stakePeriod The uint256 value of time needed to stake before being verified.\n    */\n    function updateStakePeriod(uint256 _stakePeriod) public onlyOwner {\n        stakePeriod = _stakePeriod;\n    }\n    /**\n    * @dev Updates the pay multiplier, used to calculate token reward.\n    * @param _payMultiplier The uint256 value of pay multiplier.\n    */\n    function updatePayMultipier(uint256 _payMultiplier) public onlyOwner {\n        payMultiplier = _payMultiplier;\n    }\n    /**\n    * @dev Adds new tallys of the totals numbers of clover symmetries.\n    * @param _tokenId The token which needs to be examined.\n    */\n    function addSymmetries(uint256 _tokenId) private {\n        uint256 Symmetricals;\n        uint256 RotSym;\n        uint256 Y0Sym;\n        uint256 X0Sym;\n        uint256 XYSym;\n        uint256 XnYSym;\n        (Symmetricals,\n        RotSym,\n        Y0Sym,\n        X0Sym,\n        XYSym,\n        XnYSym) = IClovers(clovers).getAllSymmetries();\n        bytes1 _symmetries = IClovers(clovers).getSymmetries(_tokenId);\n        Symmetricals = Symmetricals.add(_symmetries > 0 ? 1 : 0);\n        RotSym = RotSym.add(uint256(_symmetries >> 4 & 1));\n        Y0Sym = Y0Sym.add(uint256(_symmetries >> 3 & 1));\n        X0Sym = X0Sym.add(uint256(_symmetries >> 2 & 1));\n        XYSym = XYSym.add(uint256(_symmetries >> 1 & 1));\n        XnYSym = XnYSym.add(uint256(_symmetries & 1));\n        IClovers(clovers).setAllSymmetries(Symmetricals, RotSym, Y0Sym, X0Sym, XYSym, XnYSym);\n    }\n    /**\n    * @dev Remove false tallys of the totals numbers of clover symmetries.\n    * @param _tokenId The token which needs to be examined.\n    */\n    function removeSymmetries(uint256 _tokenId) private {\n        // uint256 Symmetricals;\n        // uint256 RotSym;\n        // uint256 Y0Sym;\n        // uint256 X0Sym;\n        // uint256 XYSym;\n        // uint256 XnYSym;\n        // (Symmetricals,\n        // RotSym,\n        // Y0Sym,\n        // X0Sym,\n        // XYSym,\n        // XnYSym) = IClovers(clovers).getAllSymmetries();\n        // bytes1 _symmetries = IClovers(clovers).getSymmetries(_tokenId);\n        // Symmetricals = Symmetricals.sub(_symmetries > 0 ? 1 : 0);\n        // RotSym = RotSym.sub(uint256(_symmetries >> 4 & 1));\n        // Y0Sym = Y0Sym.sub(uint256(_symmetries >> 3 & 1));\n        // X0Sym = X0Sym.sub(uint256(_symmetries >> 2 & 1));\n        // XYSym = XYSym.sub(uint256(_symmetries >> 1 & 1));\n        // XnYSym = XnYSym.sub(uint256(_symmetries & 1));\n        // IClovers(clovers).setAllSymmetries(Symmetricals, RotSym, Y0Sym, X0Sym, XYSym, XnYSym);\n    }\n\n}",
  "sourcePath": "/Users/billy/sol/clovers-contracts/contracts/CloversController.sol",
  "compiler": {
    "name": "solc",
    "version": "0.4.19+commit.c4cbbb05.Emscripten.clang"
  },
  "schemaVersion": "1.0.1",
  "updatedAt": "2018-03-27T15:30:36.886Z"
}