{
  "contractName": "CloversMetadata",
  "abi": [
    {
      "constant": true,
      "inputs": [
        {
          "name": "_tokenId",
          "type": "uint256"
        }
      ],
      "name": "tokenURI",
      "outputs": [
        {
          "name": "_infoUrl",
          "type": "string"
        }
      ],
      "payable": false,
      "stateMutability": "view",
      "type": "function"
    }
  ],
  "bytecode": "0x608060405234801561001057600080fd5b5061046d806100206000396000f3006080604052600436106100405763ffffffff7c0100000000000000000000000000000000000000000000000000000000600035041663c87b56dd8114610045575b600080fd5b34801561005157600080fd5b5061005d6004356100d2565b6040805160208082528351818301528351919283929083019185019080838360005b8381101561009757818101518382015260200161007f565b50505050905090810190601f1680156100c45780820380516001836020036101000a031916815260200191505b509250505060405180910390f35b6040805160608181018352603082527f68747470733a2f2f617069322e636c6f766572732e6e6574776f726b2f636c6f60208301527f766572732f6d657461646174612f30780000000000000000000000000000000092820192909252818061013a8561018d565b91506020604051908101604052806000815250905061018461015b8261030d565b61017361017f61016a8661030d565b6101738861030d565b9063ffffffff61033316565b61030d565b95945050505050565b6060600080808381808715156101d85760408051808201909152600181527f300000000000000000000000000000000000000000000000000000000000000060208201529650610302565b8795505b85156101f3576010909504946001909401936101dc565b600f9350846040519080825280601f01601f191660200182016040528015610225578160200160208202803883390190505b5092506001850391505b87156102fe57508683166009811161026c57806030017f010000000000000000000000000000000000000000000000000000000000000002610293565b806037017f0100000000000000000000000000000000000000000000000000000000000000025b83517fffffffffffffffffffffffffffffffffffffffffffffffffffffffffffffffff840193859181106102c357fe5b9060200101907effffffffffffffffffffffffffffffffffffffffffffffffffffffffffffff1916908160001a90535060109097049661022f565b8296505b505050505050919050565b61031561042a565b50604080518082019091528151815260209182019181019190915290565b606080600083600001518560000151016040519080825280601f01601f191660200182016040528015610370578160200160208202803883390190505b50915060208201905061038c81866020015187600001516103aa565b8451602085015185516103a292840191906103aa565b509392505050565b60005b602082106103ed5782518452602093840193909201917fffffffffffffffffffffffffffffffffffffffffffffffffffffffffffffffe0909101906103ad565b50905182516020929092036101000a7fffffffffffffffffffffffffffffffffffffffffffffffffffffffffffffffff0180199091169116179052565b6040805180820190915260008082526020820152905600a165627a7a72305820fd86e80c432a16c2d66c198338397cb78705b1cf5c9a007375067259ee8199480029",
  "source": "pragma solidity ^0.4.18;\n\n/**\n* CloversMetadata contract is upgradeable and returns metadata about Clovers\n*/\n\nimport \"./helpers/strings.sol\";\n\n\ncontract CloversMetadata {\n    using strings for *;\n\n    function tokenURI(uint _tokenId) public view returns (string _infoUrl) {\n        string memory base = \"https://api2.clovers.network/clovers/metadata/0x\";\n        string memory id = uint2hexstr(_tokenId);\n        string memory suffix = \"\";\n        return base.toSlice().concat(id.toSlice()).toSlice().concat(suffix.toSlice());\n    }\n    function uint2hexstr(uint i) internal pure returns (string) {\n        if (i == 0) return \"0\";\n        uint j = i;\n        uint length;\n        while (j != 0) {\n            length++;\n            j = j >> 4;\n        }\n        uint mask = 15;\n        bytes memory bstr = new bytes(length);\n        uint k = length - 1;\n        while (i != 0){\n            uint curr = (i & mask);\n            bstr[k--] = curr > 9 ? byte(55 + curr) : byte(48 + curr); // 55 = 65 - 10\n            i = i >> 4;\n        }\n        return string(bstr);\n    }\n}\n",
  "sourcePath": "/home/billyrennekamp/GitHub.com/clovers-network/clovers-contracts/contracts/CloversMetadata.sol",
  "compiler": {
    "name": "solc",
    "version": "0.4.24+commit.e67f0147.Emscripten.clang"
  },
  "schemaVersion": "2.0.1",
  "updatedAt": "2019-08-14T20:36:48.481Z"
}