{
  "contractName": "CloversController",
  "abi": [
    {
      "constant": true,
      "inputs": [],
      "name": "clovers",
      "outputs": [
        {
          "name": "",
          "type": "address"
        }
      ],
      "payable": false,
      "stateMutability": "view",
      "type": "function"
    },
    {
      "constant": false,
      "inputs": [
        {
          "name": "token",
          "type": "address"
        }
      ],
      "name": "reclaimToken",
      "outputs": [],
      "payable": false,
      "stateMutability": "nonpayable",
      "type": "function"
    },
    {
      "constant": true,
      "inputs": [],
      "name": "payMultiplier",
      "outputs": [
        {
          "name": "",
          "type": "uint256"
        }
      ],
      "payable": false,
      "stateMutability": "view",
      "type": "function"
    },
    {
      "constant": true,
      "inputs": [
        {
          "name": "",
          "type": "bytes32"
        }
      ],
      "name": "commits",
      "outputs": [
        {
          "name": "",
          "type": "address"
        }
      ],
      "payable": false,
      "stateMutability": "view",
      "type": "function"
    },
    {
      "constant": true,
      "inputs": [],
      "name": "stakeAmount",
      "outputs": [
        {
          "name": "",
          "type": "uint256"
        }
      ],
      "payable": false,
      "stateMutability": "view",
      "type": "function"
    },
    {
      "constant": false,
      "inputs": [],
      "name": "renounceOwnership",
      "outputs": [],
      "payable": false,
      "stateMutability": "nonpayable",
      "type": "function"
    },
    {
      "constant": true,
      "inputs": [],
      "name": "oracle",
      "outputs": [
        {
          "name": "",
          "type": "address"
        }
      ],
      "payable": false,
      "stateMutability": "view",
      "type": "function"
    },
    {
      "constant": true,
      "inputs": [],
      "name": "owner",
      "outputs": [
        {
          "name": "",
          "type": "address"
        }
      ],
      "payable": false,
      "stateMutability": "view",
      "type": "function"
    },
    {
      "constant": true,
      "inputs": [
        {
          "name": "",
          "type": "bytes32"
        }
      ],
      "name": "stakes",
      "outputs": [
        {
          "name": "",
          "type": "uint256"
        }
      ],
      "payable": false,
      "stateMutability": "view",
      "type": "function"
    },
    {
      "constant": false,
      "inputs": [],
      "name": "reclaimEther",
      "outputs": [],
      "payable": false,
      "stateMutability": "nonpayable",
      "type": "function"
    },
    {
      "constant": true,
      "inputs": [],
      "name": "clubTokenController",
      "outputs": [
        {
          "name": "",
          "type": "address"
        }
      ],
      "payable": false,
      "stateMutability": "view",
      "type": "function"
    },
    {
      "constant": false,
      "inputs": [
        {
          "name": "from_",
          "type": "address"
        },
        {
          "name": "value_",
          "type": "uint256"
        },
        {
          "name": "data_",
          "type": "bytes"
        }
      ],
      "name": "tokenFallback",
      "outputs": [],
      "payable": false,
      "stateMutability": "nonpayable",
      "type": "function"
    },
    {
      "constant": true,
      "inputs": [],
      "name": "stakePeriod",
      "outputs": [
        {
          "name": "",
          "type": "uint256"
        }
      ],
      "payable": false,
      "stateMutability": "view",
      "type": "function"
    },
    {
      "constant": true,
      "inputs": [],
      "name": "basePrice",
      "outputs": [
        {
          "name": "",
          "type": "uint256"
        }
      ],
      "payable": false,
      "stateMutability": "view",
      "type": "function"
    },
    {
      "constant": true,
      "inputs": [],
      "name": "priceMultiplier",
      "outputs": [
        {
          "name": "",
          "type": "uint256"
        }
      ],
      "payable": false,
      "stateMutability": "view",
      "type": "function"
    },
    {
      "constant": true,
      "inputs": [],
      "name": "clubToken",
      "outputs": [
        {
          "name": "",
          "type": "address"
        }
      ],
      "payable": false,
      "stateMutability": "view",
      "type": "function"
    },
    {
      "constant": false,
      "inputs": [
        {
          "name": "_newOwner",
          "type": "address"
        }
      ],
      "name": "transferOwnership",
      "outputs": [],
      "payable": false,
      "stateMutability": "nonpayable",
      "type": "function"
    },
    {
      "inputs": [
        {
          "name": "_clovers",
          "type": "address"
        },
        {
          "name": "_clubToken",
          "type": "address"
        },
        {
          "name": "_clubTokenController",
          "type": "address"
        }
      ],
      "payable": false,
      "stateMutability": "nonpayable",
      "type": "constructor"
    },
    {
      "payable": false,
      "stateMutability": "nonpayable",
      "type": "fallback"
    },
    {
      "anonymous": false,
      "inputs": [
        {
          "indexed": false,
          "name": "movesHash",
          "type": "bytes32"
        },
        {
          "indexed": false,
          "name": "owner",
          "type": "address"
        }
      ],
      "name": "cloverCommitted",
      "type": "event"
    },
    {
      "anonymous": false,
      "inputs": [
        {
          "indexed": false,
          "name": "moves",
          "type": "bytes28[2]"
        },
        {
          "indexed": false,
          "name": "tokenId",
          "type": "uint256"
        },
        {
          "indexed": false,
          "name": "owner",
          "type": "address"
        },
        {
          "indexed": false,
          "name": "stake",
          "type": "uint256"
        },
        {
          "indexed": false,
          "name": "reward",
          "type": "uint256"
        },
        {
          "indexed": false,
          "name": "symmetries",
          "type": "uint256"
        },
        {
          "indexed": false,
          "name": "keep",
          "type": "bool"
        }
      ],
      "name": "cloverClaimed",
      "type": "event"
    },
    {
      "anonymous": false,
      "inputs": [
        {
          "indexed": false,
          "name": "tokenId",
          "type": "uint256"
        },
        {
          "indexed": false,
          "name": "owner",
          "type": "address"
        },
        {
          "indexed": false,
          "name": "stake",
          "type": "uint256"
        }
      ],
      "name": "stakeRetrieved",
      "type": "event"
    },
    {
      "anonymous": false,
      "inputs": [
        {
          "indexed": false,
          "name": "moves",
          "type": "bytes28[2]"
        },
        {
          "indexed": false,
          "name": "tokenId",
          "type": "uint256"
        },
        {
          "indexed": false,
          "name": "owner",
          "type": "address"
        },
        {
          "indexed": false,
          "name": "challenger",
          "type": "address"
        },
        {
          "indexed": false,
          "name": "stake",
          "type": "uint256"
        }
      ],
      "name": "cloverChallenged",
      "type": "event"
    },
    {
      "anonymous": false,
      "inputs": [
        {
          "indexed": true,
          "name": "previousOwner",
          "type": "address"
        }
      ],
      "name": "OwnershipRenounced",
      "type": "event"
    },
    {
      "anonymous": false,
      "inputs": [
        {
          "indexed": true,
          "name": "previousOwner",
          "type": "address"
        },
        {
          "indexed": true,
          "name": "newOwner",
          "type": "address"
        }
      ],
      "name": "OwnershipTransferred",
      "type": "event"
    },
    {
      "constant": true,
      "inputs": [
        {
          "name": "movesHash",
          "type": "bytes32"
        }
      ],
      "name": "getStake",
      "outputs": [
        {
          "name": "",
          "type": "uint256"
        }
      ],
      "payable": false,
      "stateMutability": "view",
      "type": "function"
    },
    {
      "constant": true,
      "inputs": [
        {
          "name": "movesHash",
          "type": "bytes32"
        }
      ],
      "name": "getCommit",
      "outputs": [
        {
          "name": "",
          "type": "address"
        }
      ],
      "payable": false,
      "stateMutability": "view",
      "type": "function"
    },
    {
      "constant": true,
      "inputs": [
        {
          "name": "_tokenId",
          "type": "uint256"
        }
      ],
      "name": "getMovesHash",
      "outputs": [
        {
          "name": "",
          "type": "bytes32"
        }
      ],
      "payable": false,
      "stateMutability": "view",
      "type": "function"
    },
    {
      "constant": true,
      "inputs": [
        {
          "name": "moves",
          "type": "bytes28[2]"
        }
      ],
      "name": "isValid",
      "outputs": [
        {
          "name": "",
          "type": "bool"
        }
      ],
      "payable": false,
      "stateMutability": "view",
      "type": "function"
    },
    {
      "constant": true,
      "inputs": [
        {
          "components": [
            {
              "name": "error",
              "type": "bool"
            },
            {
              "name": "complete",
              "type": "bool"
            },
            {
              "name": "symmetrical",
              "type": "bool"
            },
            {
              "name": "RotSym",
              "type": "bool"
            },
            {
              "name": "Y0Sym",
              "type": "bool"
            },
            {
              "name": "X0Sym",
              "type": "bool"
            },
            {
              "name": "XYSym",
              "type": "bool"
            },
            {
              "name": "XnYSym",
              "type": "bool"
            },
            {
              "name": "board",
              "type": "bytes16"
            },
            {
              "name": "first32Moves",
              "type": "bytes28"
            },
            {
              "name": "lastMoves",
              "type": "bytes28"
            },
            {
              "name": "currentPlayer",
              "type": "uint8"
            },
            {
              "name": "moveKey",
              "type": "uint8"
            },
            {
              "name": "blackScore",
              "type": "uint8"
            },
            {
              "name": "whiteScore",
              "type": "uint8"
            }
          ],
          "name": "game",
          "type": "tuple"
        }
      ],
      "name": "isValidGame",
      "outputs": [
        {
          "name": "",
          "type": "bool"
        }
      ],
      "payable": false,
      "stateMutability": "pure",
      "type": "function"
    },
    {
      "constant": true,
      "inputs": [
        {
          "name": "_tokenId",
          "type": "uint256"
        }
      ],
      "name": "isVerified",
      "outputs": [
        {
          "name": "",
          "type": "bool"
        }
      ],
      "payable": false,
      "stateMutability": "view",
      "type": "function"
    },
    {
      "constant": true,
      "inputs": [
        {
          "name": "_symmetries",
          "type": "uint256"
        }
      ],
      "name": "calculateReward",
      "outputs": [
        {
          "name": "",
          "type": "uint256"
        }
      ],
      "payable": false,
      "stateMutability": "view",
      "type": "function"
    },
    {
      "constant": false,
      "inputs": [
        {
          "name": "moves",
          "type": "bytes28[2]"
        },
        {
          "name": "_tokenId",
          "type": "uint256"
        },
        {
          "name": "_symmetries",
          "type": "uint256"
        },
        {
          "name": "_keep",
          "type": "bool"
        }
      ],
      "name": "claimClover",
      "outputs": [
        {
          "name": "",
          "type": "bool"
        }
      ],
      "payable": true,
      "stateMutability": "payable",
      "type": "function"
    },
    {
      "constant": false,
      "inputs": [
        {
          "name": "_tokenId",
          "type": "uint256"
        }
      ],
      "name": "retrieveStake",
      "outputs": [
        {
          "name": "",
          "type": "bool"
        }
      ],
      "payable": true,
      "stateMutability": "payable",
      "type": "function"
    },
    {
      "constant": false,
      "inputs": [
        {
          "name": "_tokenId",
          "type": "uint256"
        }
      ],
      "name": "buyCloverFromContract",
      "outputs": [
        {
          "name": "",
          "type": "bool"
        }
      ],
      "payable": true,
      "stateMutability": "payable",
      "type": "function"
    },
    {
      "constant": true,
      "inputs": [
        {
          "name": "_board",
          "type": "bytes16"
        }
      ],
      "name": "convertBytes16ToUint",
      "outputs": [
        {
          "name": "number",
          "type": "uint256"
        }
      ],
      "payable": false,
      "stateMutability": "view",
      "type": "function"
    },
    {
      "constant": false,
      "inputs": [
        {
          "name": "_tokenId",
          "type": "uint256"
        }
      ],
      "name": "challengeClover",
      "outputs": [
        {
          "name": "",
          "type": "bool"
        }
      ],
      "payable": false,
      "stateMutability": "nonpayable",
      "type": "function"
    },
    {
      "constant": false,
      "inputs": [
        {
          "name": "_oracle",
          "type": "address"
        }
      ],
      "name": "updateOracle",
      "outputs": [],
      "payable": false,
      "stateMutability": "nonpayable",
      "type": "function"
    },
    {
      "constant": false,
      "inputs": [
        {
          "name": "_clubTokenController",
          "type": "address"
        }
      ],
      "name": "updateClubTokenController",
      "outputs": [],
      "payable": false,
      "stateMutability": "nonpayable",
      "type": "function"
    },
    {
      "constant": false,
      "inputs": [
        {
          "name": "_stakeAmount",
          "type": "uint256"
        }
      ],
      "name": "updateStakeAmount",
      "outputs": [],
      "payable": false,
      "stateMutability": "nonpayable",
      "type": "function"
    },
    {
      "constant": false,
      "inputs": [
        {
          "name": "_stakePeriod",
          "type": "uint256"
        }
      ],
      "name": "updateStakePeriod",
      "outputs": [],
      "payable": false,
      "stateMutability": "nonpayable",
      "type": "function"
    },
    {
      "constant": false,
      "inputs": [
        {
          "name": "_payMultiplier",
          "type": "uint256"
        }
      ],
      "name": "updatePayMultipier",
      "outputs": [],
      "payable": false,
      "stateMutability": "nonpayable",
      "type": "function"
    },
    {
      "constant": false,
      "inputs": [
        {
          "name": "_priceMultiplier",
          "type": "uint256"
        }
      ],
      "name": "updatePriceMultipier",
      "outputs": [],
      "payable": false,
      "stateMutability": "nonpayable",
      "type": "function"
    },
    {
      "constant": false,
      "inputs": [
        {
          "name": "_basePrice",
          "type": "uint256"
        }
      ],
      "name": "updateBasePrice",
      "outputs": [],
      "payable": false,
      "stateMutability": "nonpayable",
      "type": "function"
    },
    {
      "constant": false,
      "inputs": [
        {
          "name": "movesHash",
          "type": "bytes32"
        },
        {
          "name": "committer",
          "type": "address"
        }
      ],
      "name": "_setCommit",
      "outputs": [],
      "payable": false,
      "stateMutability": "nonpayable",
      "type": "function"
    }
  ],
  "bytecode": "0x60806040523480156200001157600080fd5b506040516060806200610e833981018060405262000033919081019062000165565b336000806101000a81548173ffffffffffffffffffffffffffffffffffffffff021916908373ffffffffffffffffffffffffffffffffffffffff1602179055506000341415156200008357600080fd5b82600260006101000a81548173ffffffffffffffffffffffffffffffffffffffff021916908373ffffffffffffffffffffffffffffffffffffffff16021790555081600360006101000a81548173ffffffffffffffffffffffffffffffffffffffff021916908373ffffffffffffffffffffffffffffffffffffffff16021790555080600460006101000a81548173ffffffffffffffffffffffffffffffffffffffff021916908373ffffffffffffffffffffffffffffffffffffffff160217905550505050620001db565b60006200015d8251620001bb565b905092915050565b6000806000606084860312156200017b57600080fd5b60006200018b868287016200014f565b93505060206200019e868287016200014f565b9250506040620001b1868287016200014f565b9150509250925092565b600073ffffffffffffffffffffffffffffffffffffffff82169050919050565b615f2380620001eb6000396000f3006080604052600436106101cd576000357c0100000000000000000000000000000000000000000000000000000000900463ffffffff1680630d576bfa146101dc57806317ffc320146102075780631cb44dfc14610230578063271eff941461025957806337b6d96b146102965780633afcba96146102d357806343be0880146102fe57806346d2ce201461032e5780634788578114610357578063492d934d146103945780635759f3f7146103c457806360c7dc47146103ed578063715018a6146104185780637b7db9fa1461042f5780637dc0d1d01461046c5780638784ea96146104975780638a05aafa146104d45780638da5cb5b146104fd5780638fee6407146105285780639564e180146105655780639f727c271461058e578063a4a83ca6146105a5578063a7e901b0146105e2578063a89b55da1461060b578063c0ee0b8a14610636578063c1699a991461065f578063c1fe551a1461068a578063c7876ea4146106ba578063c90054ee146106e5578063d09687f71461070e578063d2d7231f1461074b578063d50cb88b14610788578063d76bbd52146107b3578063e765c122146107de578063f2fde38b1461081b578063f8a68a5614610844578063fd5baa8814610881575b3480156101d957600080fd5b50005b3480156101e857600080fd5b506101f16108aa565b6040516101fe9190615a5d565b60405180910390f35b34801561021357600080fd5b5061022e6004803603610229919081019061588a565b6108d0565b005b34801561023c57600080fd5b5061025760048036036102529190810190615689565b610a26565b005b34801561026557600080fd5b50610280600480360361027b919081019061571e565b610ac5565b60405161028d9190615b9b565b60405180910390f35b3480156102a257600080fd5b506102bd60048036036102b891908101906158dd565b610aeb565b6040516102ca9190615b9b565b60405180910390f35b3480156102df57600080fd5b506102e8610ca8565b6040516102f59190615c15565b60405180910390f35b61031860048036036103139190810190615770565b610cae565b6040516103259190615b9b565b60405180910390f35b34801561033a57600080fd5b506103556004803603610350919081019061584e565b6116b9565b005b34801561036357600080fd5b5061037e60048036036103799190810190615825565b611722565b60405161038b9190615a5d565b60405180910390f35b6103ae60048036036103a991908101906158dd565b611755565b6040516103bb9190615b9b565b60405180910390f35b3480156103d057600080fd5b506103eb60048036036103e691908101906158dd565b611b7a565b005b3480156103f957600080fd5b50610402611bdf565b60405161040f9190615c15565b60405180910390f35b34801561042457600080fd5b5061042d611be5565b005b34801561043b57600080fd5b50610456600480360361045191908101906158dd565b611ce7565b6040516104639190615b9b565b60405180910390f35b34801561047857600080fd5b506104816122ae565b60405161048e9190615a5d565b60405180910390f35b3480156104a357600080fd5b506104be60048036036104b99190810190615825565b6122d4565b6040516104cb9190615a5d565b60405180910390f35b3480156104e057600080fd5b506104fb60048036036104f691908101906158dd565b612319565b005b34801561050957600080fd5b5061051261237e565b60405161051f9190615a5d565b60405180910390f35b34801561053457600080fd5b5061054f600480360361054a9190810190615825565b6123a3565b60405161055c9190615c15565b60405180910390f35b34801561057157600080fd5b5061058c60048036036105879190810190615689565b6123bb565b005b34801561059a57600080fd5b506105a361245a565b005b3480156105b157600080fd5b506105cc60048036036105c791908101906157fc565b612536565b6040516105d99190615c15565b60405180910390f35b3480156105ee57600080fd5b50610609600480360361060491908101906158dd565b6125c6565b005b34801561061757600080fd5b5061062061262b565b60405161062d9190615a5d565b60405180910390f35b34801561064257600080fd5b5061065d600480360361065891908101906156b2565b612651565b005b34801561066b57600080fd5b50610674612656565b6040516106819190615c15565b60405180910390f35b6106a4600480360361069f91908101906158dd565b61265c565b6040516106b19190615b9b565b60405180910390f35b3480156106c657600080fd5b506106cf612f3a565b6040516106dc9190615c15565b60405180910390f35b3480156106f157600080fd5b5061070c600480360361070791908101906158dd565b612f40565b005b34801561071a57600080fd5b50610735600480360361073091908101906158dd565b612fa5565b6040516107429190615bb6565b60405180910390f35b34801561075757600080fd5b50610772600480360361076d91908101906158dd565b6130b3565b60405161077f9190615c15565b60405180910390f35b34801561079457600080fd5b5061079d613349565b6040516107aa9190615c15565b60405180910390f35b3480156107bf57600080fd5b506107c861334f565b6040516107d59190615a5d565b60405180910390f35b3480156107ea57600080fd5b5061080560048036036108009190810190615825565b613375565b6040516108129190615c15565b60405180910390f35b34801561082757600080fd5b50610842600480360361083d9190810190615689565b61339a565b005b34801561085057600080fd5b5061086b600480360361086691908101906158b3565b613401565b6040516108789190615b9b565b60405180910390f35b34801561088d57600080fd5b506108a860048036036108a391908101906158dd565b613434565b005b600260009054906101000a900473ffffffffffffffffffffffffffffffffffffffff1681565b60008060009054906101000a900473ffffffffffffffffffffffffffffffffffffffff1673ffffffffffffffffffffffffffffffffffffffff163373ffffffffffffffffffffffffffffffffffffffff1614151561092d57600080fd5b8173ffffffffffffffffffffffffffffffffffffffff166370a08231306040518263ffffffff167c01000000000000000000000000000000000000000000000000000000000281526004016109829190615bfa565b602060405180830381600087803b15801561099c57600080fd5b505af11580156109b0573d6000803e3d6000fd5b505050506040513d601f19601f820116820180604052506109d49190810190615906565b9050610a226000809054906101000a900473ffffffffffffffffffffffffffffffffffffffff16828473ffffffffffffffffffffffffffffffffffffffff166134999092919063ffffffff16565b5050565b6000809054906101000a900473ffffffffffffffffffffffffffffffffffffffff1673ffffffffffffffffffffffffffffffffffffffff163373ffffffffffffffffffffffffffffffffffffffff16141515610a8157600080fd5b80600160006101000a81548173ffffffffffffffffffffffffffffffffffffffff021916908373ffffffffffffffffffffffffffffffffffffffff16021790555050565b6000610acf615159565b610ad883613552565b9050610ae381613401565b915050919050565b600080600260009054906101000a900473ffffffffffffffffffffffffffffffffffffffff1673ffffffffffffffffffffffffffffffffffffffff166303a53d6b846040518263ffffffff167c0100000000000000000000000000000000000000000000000000000000028152600401610b659190615c15565b602060405180830381600087803b158015610b7f57600080fd5b505af1158015610b93573d6000803e3d6000fd5b505050506040513d601f19601f82011682018060405250610bb79190810190615906565b90506000811415610bcb5760009150610ca2565b6000809054906101000a900473ffffffffffffffffffffffffffffffffffffffff1673ffffffffffffffffffffffffffffffffffffffff163373ffffffffffffffffffffffffffffffffffffffff161415610c295760019150610ca2565b600160009054906101000a900473ffffffffffffffffffffffffffffffffffffffff1673ffffffffffffffffffffffffffffffffffffffff163373ffffffffffffffffffffffffffffffffffffffff161415610c885760019150610ca2565b600954610c9e824361389690919063ffffffff16565b1191505b50919050565b60075481565b6000806000866040518082600260200280838360005b83811015610cdf578082015181840152602081019050610cc4565b50505050905001915050604051809103902091506008543410151515610d0457600080fd5b6000610d0f836122d4565b73ffffffffffffffffffffffffffffffffffffffff16141515610d3157600080fd5b610d3b82336138af565b610d478260085461390d565b600260009054906101000a900473ffffffffffffffffffffffffffffffffffffffff1673ffffffffffffffffffffffffffffffffffffffff166108fc6008549081150290604051600060405180830381858888f19350505050158015610db1573d6000803e3d6000fd5b507f4c0f83654ac2972673e4d81058f833de298389df1dce04cc2db9f231b907d5ff8233604051610de3929190615bd1565b60405180910390a1600260009054906101000a900473ffffffffffffffffffffffffffffffffffffffff1673ffffffffffffffffffffffffffffffffffffffff16634f558e79876040518263ffffffff167c0100000000000000000000000000000000000000000000000000000000028152600401610e629190615c15565b602060405180830381600087803b158015610e7c57600080fd5b505af1158015610e90573d6000803e3d6000fd5b505050506040513d601f19601f82011682018060405250610eb491908101906157d3565b151515610ec057600080fd5b6000600260009054906101000a900473ffffffffffffffffffffffffffffffffffffffff1673ffffffffffffffffffffffffffffffffffffffff166303a53d6b886040518263ffffffff167c0100000000000000000000000000000000000000000000000000000000028152600401610f399190615c15565b602060405180830381600087803b158015610f5357600080fd5b505af1158015610f67573d6000803e3d6000fd5b505050506040513d601f19601f82011682018060405250610f8b9190810190615906565b141515610f9757600080fd5b600260009054906101000a900473ffffffffffffffffffffffffffffffffffffffff1673ffffffffffffffffffffffffffffffffffffffff1663e3100d1e87436040518363ffffffff167c0100000000000000000000000000000000000000000000000000000000028152600401611010929190615cb9565b600060405180830381600087803b15801561102a57600080fd5b505af115801561103e573d6000803e3d6000fd5b50505050600260009054906101000a900473ffffffffffffffffffffffffffffffffffffffff1673ffffffffffffffffffffffffffffffffffffffff16630b62839587896040518363ffffffff167c01000000000000000000000000000000000000000000000000000000000281526004016110bb929190615c67565b600060405180830381600087803b1580156110d557600080fd5b505af11580156110e9573d6000803e3d6000fd5b50505050600260009054906101000a900473ffffffffffffffffffffffffffffffffffffffff1673ffffffffffffffffffffffffffffffffffffffff166376e4a87f87866040518363ffffffff167c0100000000000000000000000000000000000000000000000000000000028152600401611166929190615c90565b600060405180830381600087803b15801561118057600080fd5b505af1158015611194573d6000803e3d6000fd5b50505050600085111561130357600260009054906101000a900473ffffffffffffffffffffffffffffffffffffffff1673ffffffffffffffffffffffffffffffffffffffff1663dc3f775887876040518363ffffffff167c010000000000000000000000000000000000000000000000000000000002815260040161121a929190615cb9565b600060405180830381600087803b15801561123457600080fd5b505af1158015611248573d6000803e3d6000fd5b50505050611255856130b3565b9050600260009054906101000a900473ffffffffffffffffffffffffffffffffffffffff1673ffffffffffffffffffffffffffffffffffffffff1663a47bd49687836040518363ffffffff167c01000000000000000000000000000000000000000000000000000000000281526004016112d0929190615cb9565b600060405180830381600087803b1580156112ea57600080fd5b505af11580156112fe573d6000803e3d6000fd5b505050505b83156115995761131e8160055461393190919063ffffffff16565b600360009054906101000a900473ffffffffffffffffffffffffffffffffffffffff1673ffffffffffffffffffffffffffffffffffffffff166370a08231336040518263ffffffff167c01000000000000000000000000000000000000000000000000000000000281526004016113959190615a5d565b602060405180830381600087803b1580156113af57600080fd5b505af11580156113c3573d6000803e3d6000fd5b505050506040513d601f19601f820116820180604052506113e79190810190615906565b10156114b857600460009054906101000a900473ffffffffffffffffffffffffffffffffffffffff1673ffffffffffffffffffffffffffffffffffffffff1663f088d547336040518263ffffffff167c01000000000000000000000000000000000000000000000000000000000281526004016114649190615a5d565b602060405180830381600087803b15801561147e57600080fd5b505af1158015611492573d6000803e3d6000fd5b505050506040513d601f19601f820116820180604052506114b691908101906157d3565b505b600360009054906101000a900473ffffffffffffffffffffffffffffffffffffffff1673ffffffffffffffffffffffffffffffffffffffff1663d73dd6233061150c8460055461393190919063ffffffff16565b6040518363ffffffff167c0100000000000000000000000000000000000000000000000000000000028152600401611545929190615aaf565b602060405180830381600087803b15801561155f57600080fd5b505af1158015611573573d6000803e3d6000fd5b505050506040513d601f19601f8201168201806040525061159791908101906157d3565b505b600260009054906101000a900473ffffffffffffffffffffffffffffffffffffffff1673ffffffffffffffffffffffffffffffffffffffff166340c10f19600260009054906101000a900473ffffffffffffffffffffffffffffffffffffffff16886040518363ffffffff167c0100000000000000000000000000000000000000000000000000000000028152600401611634929190615aaf565b600060405180830381600087803b15801561164e57600080fd5b505af1158015611662573d6000803e3d6000fd5b505050507f1c3b3e1e72950ae52150ec48810521d17cea4b30c2a59c807d1ba2f8dff57e65878733600854858a8a6040516116a39796959493929190615b2b565b60405180910390a1600192505050949350505050565b6000809054906101000a900473ffffffffffffffffffffffffffffffffffffffff1673ffffffffffffffffffffffffffffffffffffffff163373ffffffffffffffffffffffffffffffffffffffff1614151561171457600080fd5b61171e82826138af565b5050565b600a6020528060005260406000206000915054906101000a900473ffffffffffffffffffffffffffffffffffffffff1681565b6000806000600260009054906101000a900473ffffffffffffffffffffffffffffffffffffffff1673ffffffffffffffffffffffffffffffffffffffff16631c4b774b856040518263ffffffff167c01000000000000000000000000000000000000000000000000000000000281526004016117d19190615c15565b602060405180830381600087803b1580156117eb57600080fd5b505af11580156117ff573d6000803e3d6000fd5b505050506040513d601f19601f820116820180604052506118239190810190615906565b915061184e61183d6006548461394d90919063ffffffff16565b60055461393190919063ffffffff16565b905080600360009054906101000a900473ffffffffffffffffffffffffffffffffffffffff1673ffffffffffffffffffffffffffffffffffffffff166370a08231336040518263ffffffff167c01000000000000000000000000000000000000000000000000000000000281526004016118c89190615a5d565b602060405180830381600087803b1580156118e257600080fd5b505af11580156118f6573d6000803e3d6000fd5b505050506040513d601f19601f8201168201806040525061191a9190810190615906565b10156119eb57600460009054906101000a900473ffffffffffffffffffffffffffffffffffffffff1673ffffffffffffffffffffffffffffffffffffffff1663f088d547336040518263ffffffff167c01000000000000000000000000000000000000000000000000000000000281526004016119979190615a5d565b602060405180830381600087803b1580156119b157600080fd5b505af11580156119c5573d6000803e3d6000fd5b505050506040513d601f19601f820116820180604052506119e991908101906157d3565b505b6000811115611aa057600360009054906101000a900473ffffffffffffffffffffffffffffffffffffffff1673ffffffffffffffffffffffffffffffffffffffff16639dc29fac33836040518363ffffffff167c0100000000000000000000000000000000000000000000000000000000028152600401611a6d929190615aaf565b600060405180830381600087803b158015611a8757600080fd5b505af1158015611a9b573d6000803e3d6000fd5b505050505b600260009054906101000a900473ffffffffffffffffffffffffffffffffffffffff1673ffffffffffffffffffffffffffffffffffffffff166323b872dd600260009054906101000a900473ffffffffffffffffffffffffffffffffffffffff1633876040518463ffffffff167c0100000000000000000000000000000000000000000000000000000000028152600401611b3d93929190615a78565b600060405180830381600087803b158015611b5757600080fd5b505af1158015611b6b573d6000803e3d6000fd5b50505050600192505050919050565b6000809054906101000a900473ffffffffffffffffffffffffffffffffffffffff1673ffffffffffffffffffffffffffffffffffffffff163373ffffffffffffffffffffffffffffffffffffffff16141515611bd557600080fd5b8060098190555050565b60085481565b6000809054906101000a900473ffffffffffffffffffffffffffffffffffffffff1673ffffffffffffffffffffffffffffffffffffffff163373ffffffffffffffffffffffffffffffffffffffff16141515611c4057600080fd5b6000809054906101000a900473ffffffffffffffffffffffffffffffffffffffff1673ffffffffffffffffffffffffffffffffffffffff167ff8df31144d9c2f0f6b59d69b8b98abd5459d07f2742c4df920b25aae33c6482060405160405180910390a260008060006101000a81548173ffffffffffffffffffffffffffffffffffffffff021916908373ffffffffffffffffffffffffffffffffffffffff160217905550565b600080611cf261520d565b611cfa615159565b60008060008060019650600260009054906101000a900473ffffffffffffffffffffffffffffffffffffffff1673ffffffffffffffffffffffffffffffffffffffff166362f9acf98a6040518263ffffffff167c0100000000000000000000000000000000000000000000000000000000028152600401611d7b9190615c15565b6040805180830381600087803b158015611d9457600080fd5b505af1158015611da8573d6000803e3d6000fd5b505050506040513d601f19601f82011682018060405250611dcc9190810190615747565b9550600064010000000002866000600281101515611de657fe5b602002015163ffffffff191614151515611dff57600080fd5b611e0886613552565b945088611e19866101000151612536565b141515611e2557600096505b868015611e375750611e3685613401565b5b15611fcb57600260009054906101000a900473ffffffffffffffffffffffffffffffffffffffff1673ffffffffffffffffffffffffffffffffffffffff1663c53b4bf98a6040518263ffffffff167c0100000000000000000000000000000000000000000000000000000000028152600401611eb39190615c15565b602060405180830381600087803b158015611ecd57600080fd5b505af1158015611ee1573d6000803e3d6000fd5b505050506040513d601f19601f82011682018060405250611f059190810190615906565b935084606001511515600060016004879060020a90041611151514611f2b576000611f2d565b865b965084608001511515600060016003879060020a90041611151514611f53576000611f55565b865b96508460a001511515600060016002879060020a90041611151514611f7b576000611f7d565b865b96508460c0015115156000600180879060020a90041611151514611fa2576000611fa4565b865b96508460e00151151560006001861611151514611fc2576000611fc4565b865b9650611fd0565b600096505b86151515611fdd57600080fd5b856040518082600260200280838360005b83811015612009578082015181840152602081019050611fee565b505050509050019150506040518091039020925061202689610aeb565b15156120e35761203583613375565b9150600260009054906101000a900473ffffffffffffffffffffffffffffffffffffffff1673ffffffffffffffffffffffffffffffffffffffff16631cc1472d33846040518363ffffffff167c01000000000000000000000000000000000000000000000000000000000281526004016120b0929190615aaf565b600060405180830381600087803b1580156120ca57600080fd5b505af11580156120de573d6000803e3d6000fd5b505050505b600260009054906101000a900473ffffffffffffffffffffffffffffffffffffffff1673ffffffffffffffffffffffffffffffffffffffff16630e8310d68a6040518263ffffffff167c010000000000000000000000000000000000000000000000000000000002815260040161215a9190615c15565b600060405180830381600087803b15801561217457600080fd5b505af1158015612188573d6000803e3d6000fd5b50505050600260009054906101000a900473ffffffffffffffffffffffffffffffffffffffff1673ffffffffffffffffffffffffffffffffffffffff166364e779b18a6040518263ffffffff167c01000000000000000000000000000000000000000000000000000000000281526004016122039190615c15565b600060405180830381600087803b15801561221d57600080fd5b505af1158015612231573d6000803e3d6000fd5b505050506122408360006138af565b61224b83600061390d565b61225489613985565b61225d836122d4565b90507f23e709ab80a4bee9454ba0d08c0b669d684531b4ec766524c43abd788cc3ca76868a833386604051612296959493929190615ad8565b60405180910390a16001975050505050505050919050565b600160009054906101000a900473ffffffffffffffffffffffffffffffffffffffff1681565b6000600a6000836000191660001916815260200190815260200160002060009054906101000a900473ffffffffffffffffffffffffffffffffffffffff169050919050565b6000809054906101000a900473ffffffffffffffffffffffffffffffffffffffff1673ffffffffffffffffffffffffffffffffffffffff163373ffffffffffffffffffffffffffffffffffffffff1614151561237457600080fd5b8060078190555050565b6000809054906101000a900473ffffffffffffffffffffffffffffffffffffffff1681565b600b6020528060005260406000206000915090505481565b6000809054906101000a900473ffffffffffffffffffffffffffffffffffffffff1673ffffffffffffffffffffffffffffffffffffffff163373ffffffffffffffffffffffffffffffffffffffff1614151561241657600080fd5b80600460006101000a81548173ffffffffffffffffffffffffffffffffffffffff021916908373ffffffffffffffffffffffffffffffffffffffff16021790555050565b6000809054906101000a900473ffffffffffffffffffffffffffffffffffffffff1673ffffffffffffffffffffffffffffffffffffffff163373ffffffffffffffffffffffffffffffffffffffff161415156124b557600080fd5b6000809054906101000a900473ffffffffffffffffffffffffffffffffffffffff1673ffffffffffffffffffffffffffffffffffffffff166108fc3073ffffffffffffffffffffffffffffffffffffffff16319081150290604051600060405180830381858888f19350505050158015612533573d6000803e3d6000fd5b50565b600080600090505b601060ff168110156125c05760018101601060ff160360080260020a838260108110151561256857fe5b1a7f0100000000000000000000000000000000000000000000000000000000000000027f010000000000000000000000000000000000000000000000000000000000000090040282019150808060010191505061253e565b50919050565b6000809054906101000a900473ffffffffffffffffffffffffffffffffffffffff1673ffffffffffffffffffffffffffffffffffffffff163373ffffffffffffffffffffffffffffffffffffffff1614151561262157600080fd5b8060068190555050565b600460009054906101000a900473ffffffffffffffffffffffffffffffffffffffff1681565b600080fd5b60095481565b600061266661520d565b6000806000806000600260009054906101000a900473ffffffffffffffffffffffffffffffffffffffff1673ffffffffffffffffffffffffffffffffffffffff166362f9acf9896040518263ffffffff167c01000000000000000000000000000000000000000000000000000000000281526004016126e59190615c15565b6040805180830381600087803b1580156126fe57600080fd5b505af1158015612712573d6000803e3d6000fd5b505050506040513d601f19601f820116820180604052506127369190810190615747565b955060006401000000000286600060028110151561275057fe5b602002015163ffffffff19161415151561276957600080fd5b856040518082600260200280838360005b8381101561279557808201518184015260208101905061277a565b50505050905001915050604051809103902094506127b285613375565b9350600084141515156127c457600080fd5b6127cd88610aeb565b15156127d857600080fd5b6127e385600061390d565b6127ec88613cae565b6127f5856122d4565b92508273ffffffffffffffffffffffffffffffffffffffff163373ffffffffffffffffffffffffffffffffffffffff1614151561283157600080fd5b600260009054906101000a900473ffffffffffffffffffffffffffffffffffffffff1673ffffffffffffffffffffffffffffffffffffffff16631c4b774b896040518263ffffffff167c01000000000000000000000000000000000000000000000000000000000281526004016128a89190615c15565b602060405180830381600087803b1580156128c257600080fd5b505af11580156128d6573d6000803e3d6000fd5b505050506040513d601f19601f820116820180604052506128fa9190810190615906565b9150600260009054906101000a900473ffffffffffffffffffffffffffffffffffffffff1673ffffffffffffffffffffffffffffffffffffffff166304952631896040518263ffffffff167c01000000000000000000000000000000000000000000000000000000000281526004016129739190615c15565b602060405180830381600087803b15801561298d57600080fd5b505af11580156129a1573d6000803e3d6000fd5b505050506040513d601f19601f820116820180604052506129c591908101906157d3565b90508015612d64576129e28260055461393190919063ffffffff16565b600360009054906101000a900473ffffffffffffffffffffffffffffffffffffffff1673ffffffffffffffffffffffffffffffffffffffff166370a08231856040518263ffffffff167c0100000000000000000000000000000000000000000000000000000000028152600401612a599190615a5d565b602060405180830381600087803b158015612a7357600080fd5b505af1158015612a87573d6000803e3d6000fd5b505050506040513d601f19601f82011682018060405250612aab9190810190615906565b108015612ae357503373ffffffffffffffffffffffffffffffffffffffff168373ffffffffffffffffffffffffffffffffffffffff16145b15612bb357600460009054906101000a900473ffffffffffffffffffffffffffffffffffffffff1673ffffffffffffffffffffffffffffffffffffffff1663f088d547846040518263ffffffff167c0100000000000000000000000000000000000000000000000000000000028152600401612b5f9190615a5d565b602060405180830381600087803b158015612b7957600080fd5b505af1158015612b8d573d6000803e3d6000fd5b505050506040513d601f19601f82011682018060405250612bb191908101906157d3565b505b6000612bca8360055461393190919063ffffffff16565b1115612c9057600360009054906101000a900473ffffffffffffffffffffffffffffffffffffffff1673ffffffffffffffffffffffffffffffffffffffff16639dc29fac84612c248560055461393190919063ffffffff16565b6040518363ffffffff167c0100000000000000000000000000000000000000000000000000000000028152600401612c5d929190615aaf565b600060405180830381600087803b158015612c7757600080fd5b505af1158015612c8b573d6000803e3d6000fd5b505050505b600260009054906101000a900473ffffffffffffffffffffffffffffffffffffffff1673ffffffffffffffffffffffffffffffffffffffff166323b872dd600260009054906101000a900473ffffffffffffffffffffffffffffffffffffffff16858b6040518463ffffffff167c0100000000000000000000000000000000000000000000000000000000028152600401612d2d93929190615a78565b600060405180830381600087803b158015612d4757600080fd5b505af1158015612d5b573d6000803e3d6000fd5b50505050612e45565b6000821115612e4457600360009054906101000a900473ffffffffffffffffffffffffffffffffffffffff1673ffffffffffffffffffffffffffffffffffffffff166340c10f1984846040518363ffffffff167c0100000000000000000000000000000000000000000000000000000000028152600401612de6929190615aaf565b602060405180830381600087803b158015612e0057600080fd5b505af1158015612e14573d6000803e3d6000fd5b505050506040513d601f19601f82011682018060405250612e3891908101906157d3565b1515612e4357600080fd5b5b5b600260009054906101000a900473ffffffffffffffffffffffffffffffffffffffff1673ffffffffffffffffffffffffffffffffffffffff16631cc1472d84866040518363ffffffff167c0100000000000000000000000000000000000000000000000000000000028152600401612ebe929190615aaf565b600060405180830381600087803b158015612ed857600080fd5b505af1158015612eec573d6000803e3d6000fd5b505050507fa8a1a24efbea93a5c7f29342ba7652cd030828e12cc15c1416480fecee73d589888486604051612f2393929190615c30565b60405180910390a160019650505050505050919050565b60055481565b6000809054906101000a900473ffffffffffffffffffffffffffffffffffffffff1673ffffffffffffffffffffffffffffffffffffffff163373ffffffffffffffffffffffffffffffffffffffff16141515612f9b57600080fd5b8060088190555050565b6000600260009054906101000a900473ffffffffffffffffffffffffffffffffffffffff1673ffffffffffffffffffffffffffffffffffffffff166362f9acf9836040518263ffffffff167c010000000000000000000000000000000000000000000000000000000002815260040161301e9190615c15565b6040805180830381600087803b15801561303757600080fd5b505af115801561304b573d6000803e3d6000fd5b505050506040513d601f19601f8201168201806040525061306f9190810190615747565b6040518082600260200280838360005b8381101561309a57808201518184015260208101905061307f565b5050505090500191505060405180910390209050919050565b600080600080600080600080600260009054906101000a900473ffffffffffffffffffffffffffffffffffffffff1673ffffffffffffffffffffffffffffffffffffffff1663785d8d716040518163ffffffff167c010000000000000000000000000000000000000000000000000000000002815260040160c060405180830381600087803b15801561314557600080fd5b505af1158015613159573d6000803e3d6000fd5b505050506040513d601f19601f8201168201806040525061317d919081019061592f565b809750819850829950839a50849b50859c505050505050506000905060018060048b9060020a90041614156131ee576131eb6131dc600188016131ce60018b0160075461394d90919063ffffffff16565b613fd790919063ffffffff16565b8261393190919063ffffffff16565b90505b60018060038b9060020a9004161415613243576132406132316001870161322360018b0160075461394d90919063ffffffff16565b613fd790919063ffffffff16565b8261393190919063ffffffff16565b90505b60018060028b9060020a9004161415613298576132956132866001860161327860018b0160075461394d90919063ffffffff16565b613fd790919063ffffffff16565b8261393190919063ffffffff16565b90505b60018060018b9060020a90041614156132ed576132ea6132db600185016132cd60018b0160075461394d90919063ffffffff16565b613fd790919063ffffffff16565b8261393190919063ffffffff16565b90505b6001808a16141561333a576133376133286001840161331a60018b0160075461394d90919063ffffffff16565b613fd790919063ffffffff16565b8261393190919063ffffffff16565b90505b80975050505050505050919050565b60065481565b600360009054906101000a900473ffffffffffffffffffffffffffffffffffffffff1681565b6000600b60008360001916600019168152602001908152602001600020549050919050565b6000809054906101000a900473ffffffffffffffffffffffffffffffffffffffff1673ffffffffffffffffffffffffffffffffffffffff163373ffffffffffffffffffffffffffffffffffffffff161415156133f557600080fd5b6133fe81613fed565b50565b6000816000015115613416576000905061342f565b8160200151151561342a576000905061342f565b600190505b919050565b6000809054906101000a900473ffffffffffffffffffffffffffffffffffffffff1673ffffffffffffffffffffffffffffffffffffffff163373ffffffffffffffffffffffffffffffffffffffff1614151561348f57600080fd5b8060058190555050565b8273ffffffffffffffffffffffffffffffffffffffff1663a9059cbb83836040518363ffffffff167c01000000000000000000000000000000000000000000000000000000000281526004016134f0929190615aaf565b602060405180830381600087803b15801561350a57600080fd5b505af115801561351e573d6000803e3d6000fd5b505050506040513d601f19601f8201168201806040525061354291908101906157d3565b151561354d57600080fd5b505050565b61355a615159565b613562615159565b60008060008060008088600060028110151561357a57fe5b602002015187610120019063ffffffff1916908163ffffffff1916815250508860016002811015156135a857fe5b602002015187610140019063ffffffff1916908163ffffffff191681525050600087610180019060ff16908160ff16815250506002876101a0019060ff16908160ff16815250506002876101c0019060ff16908160ff168152505060008760000190151590811515815250506000876020019015159081151581525050600187610160019060ff16908160ff16815250506ffffffffffffffe7ffdbfffffffffffff700100000000000000000000000000000000028761010001906fffffffffffffffffffffffffffffffff191690816fffffffffffffffffffffffffffffffff191681525050600091505b603c8260ff161080156136a5575085155b1561385457602087610180015160ff16106136c5578661014001516136cc565b8661012001515b90506136ee81602089610180015160ff168115156136e657fe5b0660206140e7565b94506136f98561412b565b809450819550505061370a8561416a565b15955060008260ff16148015613733575060028460ff16141580613732575060038360ff1614155b5b1561374e576001955060018760000190151590811515815250505b8515801561375f575060088460ff16105b801561376e575060088360ff16105b801561377e575060008460ff1610155b801561378e575060008360ff1610155b156138475761379e87858561417b565b965060018761018001510187610180019060ff16908160ff1681525050866000015115613846576000876000019015159081151581525050600160ff1687610160015160ff16141561380357600287610160019060ff16908160ff1681525050613818565b600187610160019060ff16908160ff16815250505b61382387858561417b565b9650866000015115613845576001876000019015159081151581525050600195505b5b5b8180600101925050613694565b866000015115156138875760008760000190151590811515815250506138798761447d565b9650613884876147bc565b96505b86975050505050505050919050565b60008282111515156138a457fe5b818303905092915050565b80600a6000846000191660001916815260200190815260200160002060006101000a81548173ffffffffffffffffffffffffffffffffffffffff021916908373ffffffffffffffffffffffffffffffffffffffff1602179055505050565b80600b60008460001916600019168152602001908152602001600020819055505050565b6000818301905082811015151561394457fe5b80905092915050565b600080831415613960576000905061397f565b818302905081838281151561397157fe5b0414151561397b57fe5b8090505b92915050565b6000806000806000806000600260009054906101000a900473ffffffffffffffffffffffffffffffffffffffff1673ffffffffffffffffffffffffffffffffffffffff1663785d8d716040518163ffffffff167c010000000000000000000000000000000000000000000000000000000002815260040160c060405180830381600087803b158015613a1657600080fd5b505af1158015613a2a573d6000803e3d6000fd5b505050506040513d601f19601f82011682018060405250613a4e919081019061592f565b809750819850829950839a50849b50859c50505050505050600260009054906101000a900473ffffffffffffffffffffffffffffffffffffffff1673ffffffffffffffffffffffffffffffffffffffff1663c53b4bf9896040518263ffffffff167c0100000000000000000000000000000000000000000000000000000000028152600401613add9190615c15565b602060405180830381600087803b158015613af757600080fd5b505af1158015613b0b573d6000803e3d6000fd5b505050506040513d601f19601f82011682018060405250613b2f9190810190615906565b9050613b5860008211613b43576000613b46565b60015b60ff168861389690919063ffffffff16565b9650613b7860016004839060020a9004168761389690919063ffffffff16565b9550613b9860016003839060020a9004168661389690919063ffffffff16565b9450613bb860016002839060020a9004168561389690919063ffffffff16565b9350613bd7600180839060020a9004168461389690919063ffffffff16565b9250613bef600182168361389690919063ffffffff16565b9150600260009054906101000a900473ffffffffffffffffffffffffffffffffffffffff1673ffffffffffffffffffffffffffffffffffffffff16638b1b2ba88888888888886040518763ffffffff167c0100000000000000000000000000000000000000000000000000000000028152600401613c7296959493929190615ce2565b600060405180830381600087803b158015613c8c57600080fd5b505af1158015613ca0573d6000803e3d6000fd5b505050505050505050505050565b6000806000806000806000600260009054906101000a900473ffffffffffffffffffffffffffffffffffffffff1673ffffffffffffffffffffffffffffffffffffffff1663785d8d716040518163ffffffff167c010000000000000000000000000000000000000000000000000000000002815260040160c060405180830381600087803b158015613d3f57600080fd5b505af1158015613d53573d6000803e3d6000fd5b505050506040513d601f19601f82011682018060405250613d77919081019061592f565b809750819850829950839a50849b50859c50505050505050600260009054906101000a900473ffffffffffffffffffffffffffffffffffffffff1673ffffffffffffffffffffffffffffffffffffffff1663c53b4bf9896040518263ffffffff167c0100000000000000000000000000000000000000000000000000000000028152600401613e069190615c15565b602060405180830381600087803b158015613e2057600080fd5b505af1158015613e34573d6000803e3d6000fd5b505050506040513d601f19601f82011682018060405250613e589190810190615906565b9050613e8160008211613e6c576000613e6f565b60015b60ff168861393190919063ffffffff16565b9650613ea160016004839060020a9004168761393190919063ffffffff16565b9550613ec160016003839060020a9004168661393190919063ffffffff16565b9450613ee160016002839060020a9004168561393190919063ffffffff16565b9350613f00600180839060020a9004168461393190919063ffffffff16565b9250613f18600182168361393190919063ffffffff16565b9150600260009054906101000a900473ffffffffffffffffffffffffffffffffffffffff1673ffffffffffffffffffffffffffffffffffffffff16638b1b2ba88888888888886040518763ffffffff167c0100000000000000000000000000000000000000000000000000000000028152600401613f9b96959493929190615ce2565b600060405180830381600087803b158015613fb557600080fd5b505af1158015613fc9573d6000803e3d6000fd5b505050505050505050505050565b60008183811515613fe457fe5b04905092915050565b600073ffffffffffffffffffffffffffffffffffffffff168173ffffffffffffffffffffffffffffffffffffffff161415151561402957600080fd5b8073ffffffffffffffffffffffffffffffffffffffff166000809054906101000a900473ffffffffffffffffffffffffffffffffffffffff1673ffffffffffffffffffffffffffffffffffffffff167f8be0079c531659141344cd1fd0a4f28419497f9722a3daafe3b4186f6b6457e060405160405180910390a3806000806101000a81548173ffffffffffffffffffffffffffffffffffffffff021916908373ffffffffffffffffffffffffffffffffffffffff16021790555050565b6000806000607f64010000000002915060078086026007860203039050818160ff168763ffffffff19169060020a9004166401000000009004925050509392505050565b60008060008060408503945060088560ff1681151561414657fe5b069150600882860360ff1681151561415a57fe5b0490508181935093505050915091565b600060408260ff1610159050919050565b614183615159565b61418b61522f565b600080600080600080600080600360ff166141ac8e61010001518e8e614ab4565b60ff161415156141cf5760018d60000190151590811515815250508c995061446d565b6141da8d8d8d614b2a565b809950819a50505060008860ff1614156142075760018d60000190151590811515815250508c995061446d565b60009150600090505b8760ff168160ff16101561436d5760009650600095506142478d8a8360ff1660088110151561423b57fe5b60200201518e8e614e69565b8097508198505050600092505b8560ff168360ff1610156143605781151561426e57600191505b61428161427c8885896140e7565b61412b565b809550819650505061429f8d61010001518e61016001518787614fcd565b8d61010001906fffffffffffffffffffffffffffffffff191690816fffffffffffffffffffffffffffffffff191681525050600260ff168d610160015160ff16141561431e5760018d6101c0018181510191509060ff16908160ff168152505060018d6101a0018181510391509060ff16908160ff1681525050614353565b60018d6101c0018181510391509060ff16908160ff168152505060018d6101a0018181510191509060ff16908160ff16815250505b8280600101935050614254565b8080600101915050614210565b811561440e576143898d61010001518e61016001518e8e614fcd565b8d61010001906fffffffffffffffffffffffffffffffff191690816fffffffffffffffffffffffffffffffff191681525050600260ff168d610160015160ff1614156143ee5760018d6101c0018181510191509060ff16908160ff1681525050614409565b60018d6101a0018181510191509060ff16908160ff16815250505b614427565b60018d60000190151590811515815250508c995061446d565b600160ff168d610160015160ff1614156144545760028d610160019060ff16908160ff1681525050614469565b60018d610160019060ff16908160ff16815250505b8c99505b5050505050505050509392505050565b614485615159565b61448d61525e565b600080600080600061449d61528d565b603c89610180015160ff1614156144c75760018960200190151590811515815250508897506147b0565b60009550600094505b60408560ff1610156145a95761451a8961010001516008808860ff168115156144f557fe5b06880360ff1681151561450457fe5b0460088860ff1681151561451457fe5b06614ab4565b9350600360ff168460ff16141561459c5760408051908101604052806008808860ff1681151561454657fe5b06880360ff1681151561455557fe5b0460ff1660ff16815260200160088760ff1681151561457057fe5b0660ff1660ff16815250878760ff16603c8110151561458b57fe5b602002018190525085806001019650505b84806001019550506144d0565b6000925060008660ff16111561476d578861010001519150600094505b8560ff168560ff161080156145d9575082155b1561473957868560ff16603c811015156145ef57fe5b60200201519050600189610160019060ff16908160ff16815250506000896000019015159081151581525050818961010001906fffffffffffffffffffffffffffffffff191690816fffffffffffffffffffffffffffffffff19168152505061467f8982600060028110151561466157fe5b602002015183600160028110151561467557fe5b602002015161417b565b98508860000151151561469157600192505b600289610160019060ff16908160ff16815250506000896000019015159081151581525050818961010001906fffffffffffffffffffffffffffffffff191690816fffffffffffffffffffffffffffffffff19168152505061471a898260006002811015156146fc57fe5b602002015183600160028110151561471057fe5b602002015161417b565b98508860000151151561472c57600192505b84806001019550506145c6565b818961010001906fffffffffffffffffffffffffffffffff191690816fffffffffffffffffffffffffffffffff1916815250505b82156147895760018960000190151590811515815250506147ac565b600189602001901515908115158152505060008960000190151590811515815250505b8897505b50505050505050919050565b6147c4615159565b60008060008060008060006001965060019550600194506001935060019250600091505b60088260ff16108015614818575086806147ff5750855b806148075750845b8061480f5750835b806148175750825b5b15614a1d57600090505b60088160ff16108015614852575086806148395750855b806148415750845b806148495750835b806148515750825b5b15614a105761486d8961010001518360070383600703615099565b6fffffffffffffffffffffffffffffffff19166148908a61010001518484615099565b6fffffffffffffffffffffffffffffffff19161415156148af57600096505b6148c28961010001518383600703615099565b6fffffffffffffffffffffffffffffffff19166148e58a61010001518484615099565b6fffffffffffffffffffffffffffffffff191614151561490457600095505b6149178961010001518360070383615099565b6fffffffffffffffffffffffffffffffff191661493a8a61010001518484615099565b6fffffffffffffffffffffffffffffffff191614151561495957600094505b61496f8961010001518260070384600703615099565b6fffffffffffffffffffffffffffffffff19166149928a61010001518484615099565b6fffffffffffffffffffffffffffffffff19161415156149b157600093505b6149c18961010001518284615099565b6fffffffffffffffffffffffffffffffff19166149e48a61010001518484615099565b6fffffffffffffffffffffffffffffffff1916141515614a0357600092505b8080600101915050614822565b81806001019250506147e8565b8680614a265750855b80614a2e5750845b80614a365750835b80614a3e5750825b15614aa55760018960400190151590811515815250508689606001901515908115158152505085896080019015159081151581525050848960a0019015159081151581525050838960c0019015159081151581525050828960e00190151590811515815250505b88975050505050505050919050565b6000806000614ac385856150f5565b9150600370010000000000000000000000000000000002826fffffffffffffffffffffffffffffffff16876fffffffffffffffffffffffffffffffff19169060020a9004169050807001000000000000000000000000000000009004925050509392505050565b614b3261522f565b6000614b3c61522f565b6000614b4661522f565b600080614b516152af565b600080600096506101006040519081016040528060408051908101604052807fffffffffffffffffffffffffffffffffffffffffffffffffffffffffffffffff60000b60000b81526020016000800b60000b815250815260200160408051908101604052807fffffffffffffffffffffffffffffffffffffffffffffffffffffffffffffffff60000b60000b8152602001600160000b60000b815250815260200160408051908101604052806000800b60000b8152602001600160000b60000b81525081526020016040805190810160405280600160000b60000b8152602001600160000b60000b81525081526020016040805190810160405280600160000b60000b81526020016000800b60000b81525081526020016040805190810160405280600160000b60000b81526020017fffffffffffffffffffffffffffffffffffffffffffffffffffffffffffffffff60000b60000b815250815260200160408051908101604052806000800b60000b81526020017fffffffffffffffffffffffffffffffffffffffffffffffffffffffffffffffff60000b60000b815250815260200160408051908101604052807fffffffffffffffffffffffffffffffffffffffffffffffffffffffffffffffff60000b60000b81526020017fffffffffffffffffffffffffffffffffffffffffffffffffffffffffffffffff60000b60000b8152508152509550600090505b60088160ff161015614e5357858160ff16600881101515614d7d57fe5b60200201519250826000600281101515614d9357fe5b60200201518c019350826001600281101515614dab57fe5b60200201518b01945060078560000b1380614dc9575060008560000b125b80614dd7575060078460000b135b80614de5575060008460000b125b1515614e4657614dfb8d61010001518587614ab4565b91508c610160015160ff168260ff16141515614e4557600360ff168260ff16141515614e445782888860ff16600881101515614e3357fe5b602002018190525086806001019750505b5b5b8080600101915050614d60565b8787995099505050505050505050935093915050565b60008060008060008060008060008060009650600160ff168e610160015160ff161415614e995760029550614e9e565b600195505b60009450600190505b60098160ff161015614fb657841515614fa9578b8d6000600281101515614eca57fe5b602002015182020193508a8d6001600281101515614ee457fe5b6020020151820201925060078460000b1380614f03575060008460000b125b80614f11575060078360000b135b80614f1f575060008360000b125b15614f3557600097506000965060019450614fa8565b614f458e61010001518585614ab4565b91508560ff168260ff161415614f6e57614f6188888686615111565b8098508199505050614fa7565b8d610160015160ff168260ff16148015614f8b575060018160ff16115b15614f995760019450614fa6565b6000975060009650600194505b5b5b5b8080600101915050614ea7565b878799509950505050505050505094509492505050565b600080600060078560ff161115614fe357600080fd5b60078460ff161115614ff457600080fd5b614ffe85856150f5565b9150816fffffffffffffffffffffffffffffffff166003700100000000000000000000000000000000026fffffffffffffffffffffffffffffffff19169060020a02905086818818169650816fffffffffffffffffffffffffffffffff168660ff16700100000000000000000000000000000000026fffffffffffffffffffffffffffffffff19169060020a02871792505050949350505050565b6000806150a684846150f5565b9050600370010000000000000000000000000000000002816fffffffffffffffffffffffffffffffff16866fffffffffffffffffffffffffffffffff19169060020a9004169150509392505050565b600060026001838560080201016040030260ff16905092915050565b600080600060406008850286010160ff1664010000000002905060078763ffffffff19169060020a029650808717965085806001019650508686925092505094509492505050565b6101e06040519081016040528060001515815260200160001515815260200160001515815260200160001515815260200160001515815260200160001515815260200160001515815260200160001515815260200160006fffffffffffffffffffffffffffffffff19168152602001600063ffffffff19168152602001600063ffffffff19168152602001600060ff168152602001600060ff168152602001600060ff168152602001600060ff1681525090565b6040805190810160405280600290602082028038833980820191505090505090565b610200604051908101604052806008905b6152486152d1565b8152602001906001900390816152405790505090565b610f0060405190810160405280603c905b6152776152f3565b81526020019060019003908161526f5790505090565b6040805190810160405280600290602082028038833980820191505090505090565b6040805190810160405280600290602082028038833980820191505090505090565b6040805190810160405280600290602082028038833980820191505090505090565b6040805190810160405280600290602082028038833980820191505090505090565b60006153218235615e20565b905092915050565b600082601f830112151561533c57600080fd5b600261534f61534a82615d70565b615d43565b9150818385602084028201111561536557600080fd5b60005b83811015615395578161537b8882615451565b845260208401935060208301925050600181019050615368565b5050505092915050565b600082601f83011215156153b257600080fd5b60026153c56153c082615d70565b615d43565b915081838560208402820111156153db57600080fd5b60005b8381101561540b57816153f18882615465565b8452602084019350602083019250506001810190506153de565b5050505092915050565b60006154218235615e40565b905092915050565b60006154358251615e40565b905092915050565b60006154498235615e4c565b905092915050565b600061545d8235615e78565b905092915050565b60006154718251615e78565b905092915050565b60006154858235615ea4565b905092915050565b60008083601f84011215156154a157600080fd5b8235905067ffffffffffffffff8111156154ba57600080fd5b6020830191508360018202830111156154d257600080fd5b9250929050565b60006154e58235615eae565b905092915050565b60006101e0828403121561550057600080fd5b61550b6101e0615d43565b9050600061551b84828501615415565b600083015250602061552f84828501615415565b602083015250604061554384828501615415565b604083015250606061555784828501615415565b606083015250608061556b84828501615415565b60808301525060a061557f84828501615415565b60a08301525060c061559384828501615415565b60c08301525060e06155a784828501615415565b60e0830152506101006155bc8482850161543d565b610100830152506101206155d284828501615451565b610120830152506101406155e884828501615451565b610140830152506101606155fe84828501615675565b6101608301525061018061561484828501615675565b610180830152506101a061562a84828501615675565b6101a0830152506101c061564084828501615675565b6101c08301525092915050565b60006156598235615ec0565b905092915050565b600061566d8251615ec0565b905092915050565b60006156818235615eca565b905092915050565b60006020828403121561569b57600080fd5b60006156a984828501615315565b91505092915050565b600080600080606085870312156156c857600080fd5b60006156d687828801615315565b94505060206156e78782880161564d565b935050604085013567ffffffffffffffff81111561570457600080fd5b6157108782880161548d565b925092505092959194509250565b60006040828403121561573057600080fd5b600061573e84828501615329565b91505092915050565b60006040828403121561575957600080fd5b60006157678482850161539f565b91505092915050565b60008060008060a0858703121561578657600080fd5b600061579487828801615329565b94505060406157a58782880161564d565b93505060606157b68782880161564d565b92505060806157c787828801615415565b91505092959194509250565b6000602082840312156157e557600080fd5b60006157f384828501615429565b91505092915050565b60006020828403121561580e57600080fd5b600061581c8482850161543d565b91505092915050565b60006020828403121561583757600080fd5b600061584584828501615479565b91505092915050565b6000806040838503121561586157600080fd5b600061586f85828601615479565b925050602061588085828601615315565b9150509250929050565b60006020828403121561589c57600080fd5b60006158aa848285016154d9565b91505092915050565b60006101e082840312156158c657600080fd5b60006158d4848285016154ed565b91505092915050565b6000602082840312156158ef57600080fd5b60006158fd8482850161564d565b91505092915050565b60006020828403121561591857600080fd5b600061592684828501615661565b91505092915050565b60008060008060008060c0878903121561594857600080fd5b600061595689828a01615661565b965050602061596789828a01615661565b955050604061597889828a01615661565b945050606061598989828a01615661565b935050608061599a89828a01615661565b92505060a06159ab89828a01615661565b9150509295509295509295565b6159c181615db4565b82525050565b6159d081615d9c565b6159d982615d92565b60005b82811015615a0b576159ef858351615a21565b6159f882615da7565b91506020850194506001810190506159dc565b5050505050565b615a1b81615dd4565b82525050565b615a2a81615de0565b82525050565b615a3981615e0c565b82525050565b615a4881615ed7565b82525050565b615a5781615e16565b82525050565b6000602082019050615a7260008301846159b8565b92915050565b6000606082019050615a8d60008301866159b8565b615a9a60208301856159b8565b615aa76040830184615a4e565b949350505050565b6000604082019050615ac460008301856159b8565b615ad16020830184615a4e565b9392505050565b600060c082019050615aed60008301886159c7565b615afa6040830187615a4e565b615b0760608301866159b8565b615b1460808301856159b8565b615b2160a0830184615a4e565b9695505050505050565b600061010082019050615b41600083018a6159c7565b615b4e6040830189615a4e565b615b5b60608301886159b8565b615b686080830187615a4e565b615b7560a0830186615a4e565b615b8260c0830185615a4e565b615b8f60e0830184615a12565b98975050505050505050565b6000602082019050615bb06000830184615a12565b92915050565b6000602082019050615bcb6000830184615a30565b92915050565b6000604082019050615be66000830185615a30565b615bf360208301846159b8565b9392505050565b6000602082019050615c0f6000830184615a3f565b92915050565b6000602082019050615c2a6000830184615a4e565b92915050565b6000606082019050615c456000830186615a4e565b615c5260208301856159b8565b615c5f6040830184615a4e565b949350505050565b6000606082019050615c7c6000830185615a4e565b615c8960208301846159c7565b9392505050565b6000604082019050615ca56000830185615a4e565b615cb26020830184615a12565b9392505050565b6000604082019050615cce6000830185615a4e565b615cdb6020830184615a4e565b9392505050565b600060c082019050615cf76000830189615a4e565b615d046020830188615a4e565b615d116040830187615a4e565b615d1e6060830186615a4e565b615d2b6080830185615a4e565b615d3860a0830184615a4e565b979650505050505050565b6000604051905081810181811067ffffffffffffffff82111715615d6657600080fd5b8060405250919050565b600067ffffffffffffffff821115615d8757600080fd5b602082029050919050565b6000819050919050565b600060029050919050565b6000602082019050919050565b600073ffffffffffffffffffffffffffffffffffffffff82169050919050565b60008115159050919050565b60007fffffffffffffffffffffffffffffffffffffffffffffffffffffffff0000000082169050919050565b6000819050919050565b6000819050919050565b600073ffffffffffffffffffffffffffffffffffffffff82169050919050565b60008115159050919050565b60007fffffffffffffffffffffffffffffffff0000000000000000000000000000000082169050919050565b60007fffffffffffffffffffffffffffffffffffffffffffffffffffffffff0000000082169050919050565b6000819050919050565b6000615eb982615db4565b9050919050565b6000819050919050565b600060ff82169050919050565b6000615ee282615db4565b90509190505600a265627a7a72305820c947090d20768865b868fce124c37a58eb604924b5715a717c28a5bf6b1364b16c6578706572696d656e74616cf50037",
  "source": "pragma solidity ^0.4.18;\npragma experimental ABIEncoderV2;\n\n/**\n * The CloversController is a replaceable endpoint for minting and unminting Clovers.sol and ClubToken.sol\n */\n\nimport \"./Reversi.sol\";\nimport \"./IClovers.sol\";\nimport \"./IClubToken.sol\";\nimport \"./ICloversController.sol\";\nimport \"./IClubTokenController.sol\";\nimport \"zeppelin-solidity/contracts/ownership/HasNoTokens.sol\";\nimport \"zeppelin-solidity/contracts/ownership/HasNoEther.sol\";\nimport \"zeppelin-solidity/contracts/math/SafeMath.sol\";\n\n\ncontract CloversController is HasNoEther, HasNoTokens {\n    event cloverCommitted(bytes32 movesHash, address owner);\n    event cloverClaimed(bytes28[2] moves, uint256 tokenId, address owner, uint stake, uint reward, uint256 symmetries, bool keep);\n    event stakeRetrieved(uint256 tokenId, address owner, uint stake);\n\n    event cloverChallenged(bytes28[2] moves, uint256 tokenId, address owner, address challenger, uint stake);\n\n    using SafeMath for uint256;\n\n    address public oracle;\n    address public clovers;\n    address public clubToken;\n    address public clubTokenController;\n\n    uint256 public basePrice;\n    uint256 public priceMultiplier;\n    uint256 public payMultiplier;\n    uint256 public stakeAmount;\n    uint256 public stakePeriod;\n\n    mapping (bytes32 => address) public commits;\n    mapping (bytes32 => uint256) public stakes;\n\n    constructor(address _clovers, address _clubToken, address _clubTokenController) public {\n        clovers = _clovers;\n        clubToken = _clubToken;\n        clubTokenController = _clubTokenController;\n    }\n    /**\n    * @dev Gets the current stake of a Clover based on the hash of the moves.\n    * @param movesHash The hash of the moves that make up the clover.\n    * @return A uint256 value of stake.\n    */\n    function getStake(bytes32 movesHash) public view returns (uint256) {\n        return stakes[movesHash];\n    }\n    /**\n    * @dev Gets the address of the committer of a Clover based on the hash of the moves.\n    * @param movesHash The hash of the moves that make up the clover.\n    * @return The address of the committer.\n    */\n    function getCommit(bytes32 movesHash) public view returns (address) {\n        return commits[movesHash];\n    }\n    /**\n    * @dev Gets the current staking period needed to verify a Clover.\n    * @param _tokenId The token Id of the clover.\n    * @return A uint256 value of stake period in seconds.\n    */\n    function getMovesHash(uint _tokenId) public constant returns (bytes32) {\n        return keccak256(IClovers(clovers).getCloverMoves(_tokenId));\n    }\n    /**\n    * @dev Checks whether the game is valid.\n    * @param moves The moves needed to play validate the game.\n    * @return A boolean representing whether or not the game is valid.\n    */\n    function isValid(bytes28[2] moves) public constant returns (bool) {\n        Reversi.Game memory game = Reversi.playGame(moves);\n        return isValidGame(game);\n    }\n    /**\n    * @dev Checks whether the game is valid.\n    * @param game The pre-played game.\n    * @return A boolean representing whether or not the game is valid.\n    */\n    function isValidGame(Reversi.Game game) public pure returns (bool) {\n        if (game.error) return false;\n        if (!game.complete) return false;\n        return true;\n    }\n    /**\n    * @dev Checks whether the game has passed the verification period.\n    * @param _tokenId The board being checked.\n    * @return A boolean representing whether or not the game has been verified.\n    */\n    function isVerified(uint256 _tokenId) public constant returns (bool) {\n        uint256 _blockMinted = IClovers(clovers).getBlockMinted(_tokenId);\n        if(_blockMinted == 0) return false;\n        if (msg.sender == owner) return true;\n        if (msg.sender == oracle) return true;\n        return block.number.sub(_blockMinted) > stakePeriod;\n    }\n    /**\n    * @dev Calculates the reward of the board.\n    * @param _symmetries symmetries saved as a uint256 value like 00010101 where bits represent symmetry types.\n    * @return A uint256 representing the reward that would be returned for claiming the board.\n    */\n    function calculateReward(uint256 _symmetries) public constant returns (uint256) {\n        uint256 Symmetricals;\n        uint256 RotSym;\n        uint256 Y0Sym;\n        uint256 X0Sym;\n        uint256 XYSym;\n        uint256 XnYSym;\n        (Symmetricals,\n        RotSym,\n        Y0Sym,\n        X0Sym,\n        XYSym,\n        XnYSym) = IClovers(clovers).getAllSymmetries();\n        uint256 base = 0;\n        if (_symmetries >> 4 & 1 == 1) base = base.add(payMultiplier.mul(Symmetricals + 1).div(RotSym + 1));\n        if (_symmetries >> 3 & 1 == 1) base = base.add(payMultiplier.mul(Symmetricals + 1).div(Y0Sym + 1));\n        if (_symmetries >> 2 & 1 == 1) base = base.add(payMultiplier.mul(Symmetricals + 1).div(X0Sym + 1));\n        if (_symmetries >> 1 & 1 == 1) base = base.add(payMultiplier.mul(Symmetricals + 1).div(XYSym + 1));\n        if (_symmetries & 1 == 1) base = base.add(payMultiplier.mul(Symmetricals + 1).div(XnYSym + 1));\n        return base;\n    }\n\n/*\n    // NOTE: Disabled to reduce contract size\n    function legacyRegister(bytes28[2] moves, bool _keep) public payable returns (bool) {\n        Reversi.Game memory game = Reversi.playGame(moves);\n        require(isValidGame(game));\n        uint256 tokenId = uint256(game.board);\n        require(IClovers(clovers).getBlockMinted(tokenId) == 0);\n        require(!IClovers(clovers).exists(tokenId));\n        IClovers(clovers).setBlockMinted(tokenId, block.number);\n        IClovers(clovers).setCloverMoves(tokenId, moves);\n\n        uint256 symmetries = Reversi.returnSymmetricals(game.RotSym, game.Y0Sym, game.X0Sym, game.XYSym, game.XnYSym);\n        uint256 reward;\n\n        if (uint256(symmetries) > 0) {\n            IClovers(clovers).setSymmetries(tokenId, uint256(symmetries));\n            reward = calculateReward(uint256(symmetries));\n            IClovers(clovers).setReward(tokenId, reward);\n        }\n        if (_keep) {\n            // If the user decides to keep the Clover, they must\n            // pay for it in club tokens according to the reward price.\n            if (IClubToken(clubToken).balanceOf(msg.sender) < reward) {\n                IClubTokenController(clubTokenController).buy(msg.sender); // msg.value needs to be enough to buy \"reward\" amount of Club Token\n            }\n            if (reward > 0) {\n                IClubToken(clubToken).burn(msg.sender, reward);\n            }\n            IClovers(clovers).mint(msg.sender, tokenId);\n        } else {\n            // If the user decides not to keep the Clover, they will\n            // receive the reward price in club tokens, and the clover will\n            // go for sale at 10x the reward price.\n            if (reward > 0) {\n                require(IClubToken(clubToken).mint(msg.sender, reward));\n            }\n            IClovers(clovers).mint(clovers, tokenId);\n        }\n\n    } */\n\n    /**\n    * @dev Claim the Clover without a commit or reveal. Payable so you can attach enough for the stake,\n    * as well as enough to buy tokens if needed to keep the Clover.\n    * @param moves The moves that make up the Clover reversi game.\n    * @param _tokenId The board that results from the moves.\n    * @param _symmetries symmetries saved as a uint256 value like 00010101 where bits represent symmetry\n    * types.\n    * @return A boolean representing whether or not the claim was successful.\n    */\n    function claimClover(bytes28[2] moves, uint256 _tokenId, uint256 _symmetries, bool _keep) public payable returns (bool) {\n        bytes32 movesHash = keccak256(moves);\n\n        require(msg.value >= stakeAmount);\n        require(getCommit(movesHash) == 0);\n\n        setCommit(movesHash, msg.sender);\n        setStake(movesHash, stakeAmount);\n\n        clovers.transfer(stakeAmount);\n\n        emit cloverCommitted(movesHash, msg.sender);\n\n        require(!IClovers(clovers).exists(_tokenId));\n        require(IClovers(clovers).getBlockMinted(_tokenId) == 0);\n\n        IClovers(clovers).setBlockMinted(_tokenId, block.number);\n        IClovers(clovers).setCloverMoves(_tokenId, moves);\n        IClovers(clovers).setKeep(_tokenId, _keep);\n\n        uint256 reward;\n        if (_symmetries > 0) {\n            IClovers(clovers).setSymmetries(_tokenId, _symmetries);\n            reward = calculateReward(_symmetries);\n            IClovers(clovers).setReward(_tokenId, reward);\n        }\n\n        if (_keep) {\n            if (IClubToken(clubToken).balanceOf(msg.sender) < basePrice.add(reward)) {\n                IClubTokenController(clubTokenController).buy(msg.sender);\n            }\n            IClubToken(clubToken).increaseApproval(address(this), basePrice.add(reward));\n        }\n        IClovers(clovers).mint(clovers, _tokenId);\n        emit cloverClaimed(moves, _tokenId, msg.sender, stakeAmount, reward, _symmetries, _keep);\n\n        return true;\n    }\n    /**\n    * @dev Commit the hash of the moves needed to claim the Clover. A stake should be\n    * made for counterfactual verification.\n    * @param movesHash The hash of the moves that makes up the Clover reversi\n    * game.\n    * @return A boolean representing whether or not the commit was successful.\n    NOTE: Disabled for contract size, if front running becomes a problem it can be\n    implemented with an upgrade\n    */\n    /* function claimCloverCommit(bytes32 movesHash) public payable returns (bool) {\n        require(msg.value <= stakeAmount);\n        require(getCommit(movesHash) == 0);\n\n        setCommit(movesHash, msg.sender);\n        setStake(movesHash, stakeAmount);\n\n        clovers.transfer(stakeAmount);\n\n        emit cloverCommitted(movesHash, msg.sender);\n        return true;\n    } */\n    /**\n    * @dev Reveal the solution to the previous commit to claim the Clover.\n    * @param moves The moves that make up the Clover reversi game.\n    * @param _tokenId The board that results from the moves.\n    * @param _symmetries symmetries saved as a uint256 value like 00010101 where bits represent symmetry types.\n    * @return A boolean representing whether or not the reveal and claim was successful.\n    NOTE: Disabled for contract size, if front running becomes a problem it can be implemented with an upgrade\n    */\n    /* function claimCloverReveal(bytes28[2] moves, uint256 _tokenId, uint256 _symmetries, bool _keep) public returns (bool) {\n        bytes32 movesHash = keccak256(moves);\n        address committer = getCommit(movesHash);\n\n        require(IClovers(clovers).getBlockMinted(_tokenId) == 0);\n\n        IClovers(clovers).setBlockMinted(_tokenId, block.number);\n        IClovers(clovers).setCloverMoves(_tokenId, moves);\n        IClovers(clovers).setKeep(_tokenId, _keep);\n        uint256 reward;\n        if (_symmetries > 0) {\n            IClovers(clovers).setSymmetries(_tokenId, _symmetries);\n            reward = calculateReward(_symmetries);\n            IClovers(clovers).setReward(_tokenId, reward);\n        }\n        if (_keep) {\n            IClubToken(clubToken).increaseApproval(address(this), basePrice.add(reward));\n        }\n        uint256 stake = getStake(movesHash);\n        emit cloverClaimed(moves, _tokenId, committer, stake, reward, _symmetries, _keep);\n        return true;\n    } */\n\n    /**\n    * @dev Retrieve the stake from a Clover claim after the stake period has ended, or with the authority of the oracle.\n    * @param _tokenId The board which holds the stake.\n    * @return A boolean representing whether or not the retrieval was successful.\n    */\n    function retrieveStake(uint256 _tokenId) public payable returns (bool) {\n        bytes28[2] memory moves = IClovers(clovers).getCloverMoves(_tokenId);\n        require(moves[0] != 0);\n        bytes32 movesHash = keccak256(moves);\n        uint256 stake = getStake(movesHash);\n        require(stake != 0);\n        require(isVerified(_tokenId));\n        setStake(movesHash, 0);\n        addSymmetries(_tokenId);\n        address committer = getCommit(movesHash);\n        require(msg.sender == committer);\n\n        uint256 reward = IClovers(clovers).getReward(_tokenId);\n        bool _keep = IClovers(clovers).getKeep(_tokenId);\n\n        if (_keep) {\n            // If the user decides to keep the Clover, they must\n            // pay for it in club tokens according to the reward price.\n            if (IClubToken(clubToken).balanceOf(committer) < basePrice.add(reward) && committer == msg.sender) {\n                IClubTokenController(clubTokenController).buy(committer); // msg.value needs to be enough to buy \"reward\" amount of Club Token\n            }\n            if (basePrice.add(reward) > 0) {\n                IClubToken(clubToken).burn(committer, basePrice.add(reward));\n            }\n            IClovers(clovers).transferFrom(clovers, committer, _tokenId);\n        } else {\n            // If the user decides not to keep the Clover, they will\n            // receive the reward price in club tokens, and the clover will\n            // go for sale at the reward price times the priceMultiplier.\n            if (reward > 0) {\n                require(IClubToken(clubToken).mint(committer, reward));\n            }\n        }\n        IClovers(clovers).moveEth(committer, stake);\n        emit stakeRetrieved(_tokenId, committer, stake);\n        return true;\n    }\n\n    /**\n    * @dev Buy one of the Clovers which were given up when mining.\n    * @param _tokenId The board being bought.\n    * @return A boolean representing whether or not the purchase was successful.\n    */\n    function buyCloverFromContract(uint256 _tokenId) public payable returns(bool) {\n        uint256 reward = IClovers(clovers).getReward(_tokenId);\n        uint256 toPay = basePrice.add(reward.mul(priceMultiplier));\n        if (IClubToken(clubToken).balanceOf(msg.sender) < toPay) {\n            IClubTokenController(clubTokenController).buy(msg.sender); // msg.value needs to be enough to buy \"toPay\" amount of Club Token\n        }\n        if (toPay > 0) {\n            IClubToken(clubToken).burn(msg.sender, toPay);\n        }\n        IClovers(clovers).transferFrom(clovers, msg.sender, _tokenId);\n        return true;\n    }\n\n    /**\n    * @dev Convert a bytes16 board into a uint256.\n    * @param _board The board being converted.\n    * @return number the uint256 being converted.\n    */\n    function convertBytes16ToUint(bytes16 _board) public view returns(uint256 number) {\n        for(uint i=0;i<_board.length;i++){\n            number = number + uint(_board[i])*(2**(8*(_board.length-(i+1))));\n        }\n    }\n    /**\n    * @dev Challenge a staked Clover for being invalid.\n    * @param _tokenId The board being challenged.\n    * @return A boolean representing whether or not the challenge was successful.\n    */\n    function challengeClover(uint256 _tokenId) public returns (bool) {\n        bool valid = true;\n        bytes28[2] memory moves = IClovers(clovers).getCloverMoves(_tokenId);\n        require(moves[0] != 0);\n        Reversi.Game memory game = Reversi.playGame(moves);\n\n        if(convertBytes16ToUint(game.board) != _tokenId) {\n            valid = false;\n        }\n        if(valid && isValidGame(game)) {\n            uint256 _symmetries = IClovers(clovers).getSymmetries(_tokenId);\n\n            valid = (_symmetries >> 4 & 1) > 0 == game.RotSym ? valid : false;\n            valid = (_symmetries >> 3 & 1) > 0 == game.Y0Sym ? valid : false;\n            valid = (_symmetries >> 2 & 1) > 0 == game.X0Sym ? valid : false;\n            valid = (_symmetries >> 1 & 1) > 0 == game.XYSym ? valid : false;\n            valid = (_symmetries & 1) > 0 == game.XnYSym ? valid : false;\n\n        } else {\n            valid = false;\n        }\n        require(!valid);\n\n        bytes32 movesHash = keccak256(moves);\n        if (!isVerified(_tokenId)) {\n            uint256 stake = getStake(movesHash);\n            IClovers(clovers).moveEth(msg.sender, stake);\n        }\n        IClovers(clovers).deleteClover(_tokenId);\n        IClovers(clovers).unmint(_tokenId);\n        setCommit(movesHash, 0);\n        setStake(movesHash, 0);\n        removeSymmetries(_tokenId);\n\n        address committer = getCommit(movesHash);\n        emit cloverChallenged(moves, _tokenId, committer, msg.sender, stake);\n        return true;\n    }\n\n\n    /**\n    * @dev Updates oracle Address.\n    * @param _oracle The new oracle Address.\n    */\n    function updateOracle(address _oracle) public onlyOwner {\n        oracle = _oracle;\n    }\n\n    /**\n    * @dev Updates clubTokenController Address.\n    * @param _clubTokenController The new clubTokenController address.\n    */\n    function updateClubTokenController(address _clubTokenController) public onlyOwner {\n        clubTokenController = _clubTokenController;\n    }\n    /**\n    * @dev Updates the stake amount.\n    * @param _stakeAmount The new amount needed to stake.\n    */\n    function updateStakeAmount(uint256 _stakeAmount) public onlyOwner {\n        stakeAmount = _stakeAmount;\n    }\n    /**\n    * @dev Updates the stake period.\n    * @param _stakePeriod The uint256 value of time needed to stake before being verified.\n    */\n    function updateStakePeriod(uint256 _stakePeriod) public onlyOwner {\n        stakePeriod = _stakePeriod;\n    }\n    /**\n    * @dev Updates the pay multiplier, used to calculate token reward.\n    * @param _payMultiplier The uint256 value of pay multiplier.\n    */\n    function updatePayMultipier(uint256 _payMultiplier) public onlyOwner {\n        payMultiplier = _payMultiplier;\n    }\n    /**\n    * @dev Updates the price multiplier, used to calculate the clover price (multiplied by the original reward).\n    * @param _priceMultiplier The uint256 value of the price multiplier.\n    */\n    function updatePriceMultipier(uint256 _priceMultiplier) public onlyOwner {\n        priceMultiplier = _priceMultiplier;\n    }\n    /**\n    * @dev Updates the base price, used to calculate the clover cost.\n    * @param _basePrice The uint256 value of the base price.\n    */\n    function updateBasePrice(uint256 _basePrice) public onlyOwner {\n        basePrice = _basePrice;\n    }\n\n    /**\n    * @dev Sets the stake of a Clover based on the hash of the moves.\n    * @param movesHash The hash of the moves that make up the clover.\n    * @param stake A uint256 value of stake.\n    */\n    function setStake(bytes32 movesHash, uint256 stake) private {\n        stakes[movesHash] = stake;\n    }\n\n    /**\n    * @dev Sets the address of the committer of a Clover based on the hash of the moves.\n    * @param movesHash The hash of the moves that make up the clover.\n    * @param committer The address of the committer.\n    */\n    function setCommit(bytes32 movesHash, address committer) private {\n        commits[movesHash] = committer;\n    }\n\n    function _setCommit(bytes32 movesHash, address committer) onlyOwner {\n        setCommit(movesHash, committer);\n    }\n\n    /**\n    * @dev Adds new tallys of the totals numbers of clover symmetries.\n    * @param _tokenId The token which needs to be examined.\n    */\n    function addSymmetries(uint256 _tokenId) private {\n        uint256 Symmetricals;\n        uint256 RotSym;\n        uint256 Y0Sym;\n        uint256 X0Sym;\n        uint256 XYSym;\n        uint256 XnYSym;\n        (Symmetricals,\n        RotSym,\n        Y0Sym,\n        X0Sym,\n        XYSym,\n        XnYSym) = IClovers(clovers).getAllSymmetries();\n        uint256 _symmetries = IClovers(clovers).getSymmetries(_tokenId);\n        Symmetricals = Symmetricals.add(_symmetries > 0 ? 1 : 0);\n        RotSym = RotSym.add(uint256(_symmetries >> 4 & 1));\n        Y0Sym = Y0Sym.add(uint256(_symmetries >> 3 & 1));\n        X0Sym = X0Sym.add(uint256(_symmetries >> 2 & 1));\n        XYSym = XYSym.add(uint256(_symmetries >> 1 & 1));\n        XnYSym = XnYSym.add(uint256(_symmetries & 1));\n        IClovers(clovers).setAllSymmetries(Symmetricals, RotSym, Y0Sym, X0Sym, XYSym, XnYSym);\n    }\n    /**\n    * @dev Remove false tallys of the totals numbers of clover symmetries.\n    * @param _tokenId The token which needs to be examined.\n    */\n    function removeSymmetries(uint256 _tokenId) private {\n        uint256 Symmetricals;\n        uint256 RotSym;\n        uint256 Y0Sym;\n        uint256 X0Sym;\n        uint256 XYSym;\n        uint256 XnYSym;\n        (Symmetricals,\n        RotSym,\n        Y0Sym,\n        X0Sym,\n        XYSym,\n        XnYSym) = IClovers(clovers).getAllSymmetries();\n        uint256 _symmetries = IClovers(clovers).getSymmetries(_tokenId);\n        Symmetricals = Symmetricals.sub(_symmetries > 0 ? 1 : 0);\n        RotSym = RotSym.sub(uint256(_symmetries >> 4 & 1));\n        Y0Sym = Y0Sym.sub(uint256(_symmetries >> 3 & 1));\n        X0Sym = X0Sym.sub(uint256(_symmetries >> 2 & 1));\n        XYSym = XYSym.sub(uint256(_symmetries >> 1 & 1));\n        XnYSym = XnYSym.sub(uint256(_symmetries & 1));\n        IClovers(clovers).setAllSymmetries(Symmetricals, RotSym, Y0Sym, X0Sym, XYSym, XnYSym);\n    }\n\n}\n",
  "sourcePath": "/Users/billy/clovers/clovers-contracts/contracts/CloversController.sol",
  "compiler": {
    "name": "solc",
    "version": "0.4.24+commit.e67f0147.Emscripten.clang"
  },
  "schemaVersion": "2.0.1",
  "updatedAt": "2018-07-31T16:31:09.057Z"
}