{
  "contractName": "Clovers",
  "abi": [
    {
      "constant": true,
      "inputs": [
        {
          "name": "_interfaceId",
          "type": "bytes4"
        }
      ],
      "name": "supportsInterface",
      "outputs": [
        {
          "name": "",
          "type": "bool"
        }
      ],
      "payable": false,
      "stateMutability": "view",
      "type": "function"
    },
    {
      "constant": true,
      "inputs": [
        {
          "name": "",
          "type": "address"
        }
      ],
      "name": "owners",
      "outputs": [
        {
          "name": "",
          "type": "bool"
        }
      ],
      "payable": false,
      "stateMutability": "view",
      "type": "function"
    },
    {
      "constant": true,
      "inputs": [],
      "name": "name",
      "outputs": [
        {
          "name": "",
          "type": "string"
        }
      ],
      "payable": false,
      "stateMutability": "view",
      "type": "function"
    },
    {
      "constant": true,
      "inputs": [
        {
          "name": "_tokenId",
          "type": "uint256"
        }
      ],
      "name": "getApproved",
      "outputs": [
        {
          "name": "",
          "type": "address"
        }
      ],
      "payable": false,
      "stateMutability": "view",
      "type": "function"
    },
    {
      "constant": false,
      "inputs": [
        {
          "name": "_to",
          "type": "address"
        },
        {
          "name": "_tokenId",
          "type": "uint256"
        }
      ],
      "name": "approve",
      "outputs": [],
      "payable": false,
      "stateMutability": "nonpayable",
      "type": "function"
    },
    {
      "constant": true,
      "inputs": [],
      "name": "cloversController",
      "outputs": [
        {
          "name": "",
          "type": "address"
        }
      ],
      "payable": false,
      "stateMutability": "view",
      "type": "function"
    },
    {
      "constant": true,
      "inputs": [],
      "name": "totalSupply",
      "outputs": [
        {
          "name": "",
          "type": "uint256"
        }
      ],
      "payable": false,
      "stateMutability": "view",
      "type": "function"
    },
    {
      "constant": true,
      "inputs": [],
      "name": "InterfaceId_ERC165",
      "outputs": [
        {
          "name": "",
          "type": "bytes4"
        }
      ],
      "payable": false,
      "stateMutability": "view",
      "type": "function"
    },
    {
      "constant": false,
      "inputs": [
        {
          "name": "_from",
          "type": "address"
        },
        {
          "name": "_to",
          "type": "address"
        },
        {
          "name": "_tokenId",
          "type": "uint256"
        }
      ],
      "name": "transferFrom",
      "outputs": [],
      "payable": false,
      "stateMutability": "nonpayable",
      "type": "function"
    },
    {
      "constant": true,
      "inputs": [
        {
          "name": "_isOwner",
          "type": "address"
        }
      ],
      "name": "isOwner",
      "outputs": [
        {
          "name": "",
          "type": "bool"
        }
      ],
      "payable": false,
      "stateMutability": "view",
      "type": "function"
    },
    {
      "constant": true,
      "inputs": [
        {
          "name": "_owner",
          "type": "address"
        },
        {
          "name": "_index",
          "type": "uint256"
        }
      ],
      "name": "tokenOfOwnerByIndex",
      "outputs": [
        {
          "name": "",
          "type": "uint256"
        }
      ],
      "payable": false,
      "stateMutability": "view",
      "type": "function"
    },
    {
      "constant": false,
      "inputs": [
        {
          "name": "_previousOwner",
          "type": "address"
        }
      ],
      "name": "renounceOwnership",
      "outputs": [],
      "payable": false,
      "stateMutability": "nonpayable",
      "type": "function"
    },
    {
      "constant": false,
      "inputs": [
        {
          "name": "_from",
          "type": "address"
        },
        {
          "name": "_to",
          "type": "address"
        },
        {
          "name": "_tokenId",
          "type": "uint256"
        }
      ],
      "name": "safeTransferFrom",
      "outputs": [],
      "payable": false,
      "stateMutability": "nonpayable",
      "type": "function"
    },
    {
      "constant": true,
      "inputs": [
        {
          "name": "_tokenId",
          "type": "uint256"
        }
      ],
      "name": "exists",
      "outputs": [
        {
          "name": "",
          "type": "bool"
        }
      ],
      "payable": false,
      "stateMutability": "view",
      "type": "function"
    },
    {
      "constant": true,
      "inputs": [
        {
          "name": "_index",
          "type": "uint256"
        }
      ],
      "name": "tokenByIndex",
      "outputs": [
        {
          "name": "",
          "type": "uint256"
        }
      ],
      "payable": false,
      "stateMutability": "view",
      "type": "function"
    },
    {
      "constant": true,
      "inputs": [],
      "name": "totalSymmetries",
      "outputs": [
        {
          "name": "",
          "type": "uint256"
        }
      ],
      "payable": false,
      "stateMutability": "view",
      "type": "function"
    },
    {
      "constant": true,
      "inputs": [
        {
          "name": "_tokenId",
          "type": "uint256"
        }
      ],
      "name": "ownerOf",
      "outputs": [
        {
          "name": "",
          "type": "address"
        }
      ],
      "payable": false,
      "stateMutability": "view",
      "type": "function"
    },
    {
      "constant": true,
      "inputs": [
        {
          "name": "",
          "type": "uint256"
        }
      ],
      "name": "clovers",
      "outputs": [
        {
          "name": "keep",
          "type": "bool"
        },
        {
          "name": "symmetries",
          "type": "uint256"
        },
        {
          "name": "blockMinted",
          "type": "uint256"
        },
        {
          "name": "rewards",
          "type": "uint256"
        }
      ],
      "payable": false,
      "stateMutability": "view",
      "type": "function"
    },
    {
      "constant": true,
      "inputs": [
        {
          "name": "_owner",
          "type": "address"
        }
      ],
      "name": "balanceOf",
      "outputs": [
        {
          "name": "",
          "type": "uint256"
        }
      ],
      "payable": false,
      "stateMutability": "view",
      "type": "function"
    },
    {
      "constant": true,
      "inputs": [],
      "name": "cloversMetadata",
      "outputs": [
        {
          "name": "",
          "type": "address"
        }
      ],
      "payable": false,
      "stateMutability": "view",
      "type": "function"
    },
    {
      "constant": true,
      "inputs": [],
      "name": "symbol",
      "outputs": [
        {
          "name": "",
          "type": "string"
        }
      ],
      "payable": false,
      "stateMutability": "view",
      "type": "function"
    },
    {
      "constant": false,
      "inputs": [
        {
          "name": "_to",
          "type": "address"
        },
        {
          "name": "_approved",
          "type": "bool"
        }
      ],
      "name": "setApprovalForAll",
      "outputs": [],
      "payable": false,
      "stateMutability": "nonpayable",
      "type": "function"
    },
    {
      "constant": true,
      "inputs": [],
      "name": "clubTokenController",
      "outputs": [
        {
          "name": "",
          "type": "address"
        }
      ],
      "payable": false,
      "stateMutability": "view",
      "type": "function"
    },
    {
      "constant": false,
      "inputs": [
        {
          "name": "_from",
          "type": "address"
        },
        {
          "name": "_to",
          "type": "address"
        },
        {
          "name": "_tokenId",
          "type": "uint256"
        },
        {
          "name": "_data",
          "type": "bytes"
        }
      ],
      "name": "safeTransferFrom",
      "outputs": [],
      "payable": false,
      "stateMutability": "nonpayable",
      "type": "function"
    },
    {
      "constant": true,
      "inputs": [
        {
          "name": "_owner",
          "type": "address"
        },
        {
          "name": "_operator",
          "type": "address"
        }
      ],
      "name": "isApprovedForAll",
      "outputs": [
        {
          "name": "",
          "type": "bool"
        }
      ],
      "payable": false,
      "stateMutability": "view",
      "type": "function"
    },
    {
      "constant": false,
      "inputs": [
        {
          "name": "_newOwner",
          "type": "address"
        }
      ],
      "name": "transferOwnership",
      "outputs": [],
      "payable": false,
      "stateMutability": "nonpayable",
      "type": "function"
    },
    {
      "inputs": [
        {
          "name": "name",
          "type": "string"
        },
        {
          "name": "symbol",
          "type": "string"
        }
      ],
      "payable": false,
      "stateMutability": "nonpayable",
      "type": "constructor"
    },
    {
      "payable": true,
      "stateMutability": "payable",
      "type": "fallback"
    },
    {
      "anonymous": false,
      "inputs": [
        {
          "indexed": true,
          "name": "previousOwner",
          "type": "address"
        }
      ],
      "name": "OwnershipRenounced",
      "type": "event"
    },
    {
      "anonymous": false,
      "inputs": [
        {
          "indexed": true,
          "name": "previousOwner",
          "type": "address"
        },
        {
          "indexed": true,
          "name": "newOwner",
          "type": "address"
        }
      ],
      "name": "OwnershipTransferred",
      "type": "event"
    },
    {
      "anonymous": false,
      "inputs": [
        {
          "indexed": true,
          "name": "_from",
          "type": "address"
        },
        {
          "indexed": true,
          "name": "_to",
          "type": "address"
        },
        {
          "indexed": true,
          "name": "_tokenId",
          "type": "uint256"
        }
      ],
      "name": "Transfer",
      "type": "event"
    },
    {
      "anonymous": false,
      "inputs": [
        {
          "indexed": true,
          "name": "_owner",
          "type": "address"
        },
        {
          "indexed": true,
          "name": "_approved",
          "type": "address"
        },
        {
          "indexed": true,
          "name": "_tokenId",
          "type": "uint256"
        }
      ],
      "name": "Approval",
      "type": "event"
    },
    {
      "anonymous": false,
      "inputs": [
        {
          "indexed": true,
          "name": "_owner",
          "type": "address"
        },
        {
          "indexed": true,
          "name": "_operator",
          "type": "address"
        },
        {
          "indexed": false,
          "name": "_approved",
          "type": "bool"
        }
      ],
      "name": "ApprovalForAll",
      "type": "event"
    },
    {
      "constant": true,
      "inputs": [],
      "name": "implementation",
      "outputs": [
        {
          "name": "",
          "type": "address"
        }
      ],
      "payable": false,
      "stateMutability": "view",
      "type": "function"
    },
    {
      "constant": true,
      "inputs": [
        {
          "name": "_tokenId",
          "type": "uint256"
        }
      ],
      "name": "tokenURI",
      "outputs": [
        {
          "name": "_infoUrl",
          "type": "string"
        }
      ],
      "payable": false,
      "stateMutability": "view",
      "type": "function"
    },
    {
      "constant": true,
      "inputs": [
        {
          "name": "moves",
          "type": "bytes28[2]"
        }
      ],
      "name": "getHash",
      "outputs": [
        {
          "name": "",
          "type": "bytes32"
        }
      ],
      "payable": false,
      "stateMutability": "pure",
      "type": "function"
    },
    {
      "constant": true,
      "inputs": [
        {
          "name": "_tokenId",
          "type": "uint256"
        }
      ],
      "name": "getKeep",
      "outputs": [
        {
          "name": "",
          "type": "bool"
        }
      ],
      "payable": false,
      "stateMutability": "view",
      "type": "function"
    },
    {
      "constant": true,
      "inputs": [
        {
          "name": "_tokenId",
          "type": "uint256"
        }
      ],
      "name": "getBlockMinted",
      "outputs": [
        {
          "name": "",
          "type": "uint256"
        }
      ],
      "payable": false,
      "stateMutability": "view",
      "type": "function"
    },
    {
      "constant": true,
      "inputs": [
        {
          "name": "_tokenId",
          "type": "uint256"
        }
      ],
      "name": "getCloverMoves",
      "outputs": [
        {
          "name": "",
          "type": "bytes28[2]"
        }
      ],
      "payable": false,
      "stateMutability": "view",
      "type": "function"
    },
    {
      "constant": true,
      "inputs": [
        {
          "name": "_tokenId",
          "type": "uint256"
        }
      ],
      "name": "getReward",
      "outputs": [
        {
          "name": "",
          "type": "uint256"
        }
      ],
      "payable": false,
      "stateMutability": "view",
      "type": "function"
    },
    {
      "constant": true,
      "inputs": [
        {
          "name": "_tokenId",
          "type": "uint256"
        }
      ],
      "name": "getSymmetries",
      "outputs": [
        {
          "name": "",
          "type": "uint256"
        }
      ],
      "payable": false,
      "stateMutability": "view",
      "type": "function"
    },
    {
      "constant": true,
      "inputs": [],
      "name": "getAllSymmetries",
      "outputs": [
        {
          "name": "",
          "type": "uint256"
        },
        {
          "name": "",
          "type": "uint256"
        },
        {
          "name": "",
          "type": "uint256"
        },
        {
          "name": "",
          "type": "uint256"
        },
        {
          "name": "",
          "type": "uint256"
        },
        {
          "name": "",
          "type": "uint256"
        }
      ],
      "payable": false,
      "stateMutability": "view",
      "type": "function"
    },
    {
      "constant": false,
      "inputs": [
        {
          "name": "_to",
          "type": "address"
        },
        {
          "name": "_amount",
          "type": "uint256"
        }
      ],
      "name": "moveEth",
      "outputs": [],
      "payable": false,
      "stateMutability": "nonpayable",
      "type": "function"
    },
    {
      "constant": false,
      "inputs": [
        {
          "name": "_to",
          "type": "address"
        },
        {
          "name": "_amount",
          "type": "uint256"
        },
        {
          "name": "_token",
          "type": "address"
        }
      ],
      "name": "moveToken",
      "outputs": [
        {
          "name": "",
          "type": "bool"
        }
      ],
      "payable": false,
      "stateMutability": "nonpayable",
      "type": "function"
    },
    {
      "constant": false,
      "inputs": [
        {
          "name": "_to",
          "type": "address"
        },
        {
          "name": "_amount",
          "type": "uint256"
        },
        {
          "name": "_token",
          "type": "address"
        }
      ],
      "name": "approveToken",
      "outputs": [
        {
          "name": "",
          "type": "bool"
        }
      ],
      "payable": false,
      "stateMutability": "nonpayable",
      "type": "function"
    },
    {
      "constant": false,
      "inputs": [
        {
          "name": "_tokenId",
          "type": "uint256"
        },
        {
          "name": "value",
          "type": "bool"
        }
      ],
      "name": "setKeep",
      "outputs": [],
      "payable": false,
      "stateMutability": "nonpayable",
      "type": "function"
    },
    {
      "constant": false,
      "inputs": [
        {
          "name": "_tokenId",
          "type": "uint256"
        },
        {
          "name": "value",
          "type": "uint256"
        }
      ],
      "name": "setBlockMinted",
      "outputs": [],
      "payable": false,
      "stateMutability": "nonpayable",
      "type": "function"
    },
    {
      "constant": false,
      "inputs": [
        {
          "name": "_tokenId",
          "type": "uint256"
        },
        {
          "name": "moves",
          "type": "bytes28[2]"
        }
      ],
      "name": "setCloverMoves",
      "outputs": [],
      "payable": false,
      "stateMutability": "nonpayable",
      "type": "function"
    },
    {
      "constant": false,
      "inputs": [
        {
          "name": "_tokenId",
          "type": "uint256"
        },
        {
          "name": "_amount",
          "type": "uint256"
        }
      ],
      "name": "setReward",
      "outputs": [],
      "payable": false,
      "stateMutability": "nonpayable",
      "type": "function"
    },
    {
      "constant": false,
      "inputs": [
        {
          "name": "_tokenId",
          "type": "uint256"
        },
        {
          "name": "_symmetries",
          "type": "uint256"
        }
      ],
      "name": "setSymmetries",
      "outputs": [],
      "payable": false,
      "stateMutability": "nonpayable",
      "type": "function"
    },
    {
      "constant": false,
      "inputs": [
        {
          "name": "_totalSymmetries",
          "type": "uint256"
        },
        {
          "name": "RotSym",
          "type": "uint256"
        },
        {
          "name": "Y0Sym",
          "type": "uint256"
        },
        {
          "name": "X0Sym",
          "type": "uint256"
        },
        {
          "name": "XYSym",
          "type": "uint256"
        },
        {
          "name": "XnYSym",
          "type": "uint256"
        }
      ],
      "name": "setAllSymmetries",
      "outputs": [],
      "payable": false,
      "stateMutability": "nonpayable",
      "type": "function"
    },
    {
      "constant": false,
      "inputs": [
        {
          "name": "_tokenId",
          "type": "uint256"
        }
      ],
      "name": "deleteClover",
      "outputs": [],
      "payable": false,
      "stateMutability": "nonpayable",
      "type": "function"
    },
    {
      "constant": false,
      "inputs": [
        {
          "name": "_cloversController",
          "type": "address"
        }
      ],
      "name": "updateCloversControllerAddress",
      "outputs": [],
      "payable": false,
      "stateMutability": "nonpayable",
      "type": "function"
    },
    {
      "constant": false,
      "inputs": [
        {
          "name": "_cloversMetadata",
          "type": "address"
        }
      ],
      "name": "updateCloversMetadataAddress",
      "outputs": [],
      "payable": false,
      "stateMutability": "nonpayable",
      "type": "function"
    },
    {
      "constant": false,
      "inputs": [
        {
          "name": "_clubTokenController",
          "type": "address"
        }
      ],
      "name": "updateClubTokenController",
      "outputs": [],
      "payable": false,
      "stateMutability": "nonpayable",
      "type": "function"
    },
    {
      "constant": false,
      "inputs": [
        {
          "name": "_to",
          "type": "address"
        },
        {
          "name": "_tokenId",
          "type": "uint256"
        }
      ],
      "name": "mint",
      "outputs": [],
      "payable": false,
      "stateMutability": "nonpayable",
      "type": "function"
    },
    {
      "constant": false,
      "inputs": [
        {
          "name": "_tokenId",
          "type": "uint256"
        }
      ],
      "name": "unmint",
      "outputs": [],
      "payable": false,
      "stateMutability": "nonpayable",
      "type": "function"
    }
  ],
  "bytecode": "0x60806040523480156200001157600080fd5b50604051620044e3380380620044e3833981018060405281019080805182019291906020018051820192919050505081816200007f6301ffc9a77c01000000000000000000000000000000000000000000000000000000000262000207640100000000026401000000009004565b620000bc6380ac58cd7c01000000000000000000000000000000000000000000000000000000000262000207640100000000026401000000009004565b620000f9634f558e797c01000000000000000000000000000000000000000000000000000000000262000207640100000000026401000000009004565b816005908051906020019062000111929190620002c5565b5080600690805190602001906200012a929190620002c5565b506200016863780e9d637c01000000000000000000000000000000000000000000000000000000000262000207640100000000026401000000009004565b620001a5635b5e139f7c01000000000000000000000000000000000000000000000000000000000262000207640100000000026401000000009004565b50506001600c60003373ffffffffffffffffffffffffffffffffffffffff1673ffffffffffffffffffffffffffffffffffffffff16815260200190815260200160002060006101000a81548160ff021916908315150217905550505062000374565b63ffffffff7c010000000000000000000000000000000000000000000000000000000002817bffffffffffffffffffffffffffffffffffffffffffffffffffffffff1916141515156200025957600080fd5b6001600080837bffffffffffffffffffffffffffffffffffffffffffffffffffffffff19167bffffffffffffffffffffffffffffffffffffffffffffffffffffffff1916815260200190815260200160002060006101000a81548160ff02191690831515021790555050565b828054600181600116156101000203166002900490600052602060002090601f016020900481019282601f106200030857805160ff191683800117855562000339565b8280016001018555821562000339579182015b82811115620003385782518255916020019190600101906200031b565b5b5090506200034891906200034c565b5090565b6200037191905b808211156200036d57600081600090555060010162000353565b5090565b90565b61415f80620003846000396000f30060806040526004361061025c576000357c0100000000000000000000000000000000000000000000000000000000900463ffffffff16806301ffc9a71461025e578063022914a7146102c257806303a53d6b1461031d578063048e62ca1461035e57806304952631146103e357806306fdde0314610428578063081812fc146104b8578063095ea7b3146105255780630b628395146105725780630e8310d6146105ce57806312414198146105fb5780631732e9411461065257806318160ddd146106c057806319fa8f50146106eb5780631c4b774b146107545780631cc1472d1461079557806323b872dd146107e25780632f54bf6e1461084f5780632f745c59146108aa57806338bf3cfa1461090b57806340c10f191461094e57806342842e0e1461099b5780634e485f8814610a085780634f558e7914610a4b5780634f6ccce714610a9057806350a98a6414610ad15780635c60da1b14610afc57806362f9acf914610b535780636352211e14610bbc57806364e779b114610c29578063708fa7f714610c5657806370a0823114610cb057806376e4a87f14610d07578063785d8d7114610d4057806388b6e7a514610d8e5780638a56a22614610de55780638b1b2ba814610e285780639564e18014610e8757806395d89b4114610eca578063a22cb46514610f5a578063a47bd49614610fa9578063a89b55da14610fe0578063b88d4fde14611037578063c53b4bf9146110ea578063c863bac11461112b578063c87b56dd146111b0578063dc3f775814611256578063e3100d1e1461128d578063e985e9c5146112c4578063f2fde38b1461133f575b005b34801561026a57600080fd5b506102a860048036038101908080357bffffffffffffffffffffffffffffffffffffffffffffffffffffffff19169060200190929190505050611382565b604051808215151515815260200191505060405180910390f35b3480156102ce57600080fd5b50610303600480360381019080803573ffffffffffffffffffffffffffffffffffffffff1690602001909291905050506113e9565b604051808215151515815260200191505060405180910390f35b34801561032957600080fd5b5061034860048036038101908080359060200190929190505050611409565b6040518082815260200191505060405180910390f35b34801561036a57600080fd5b506103c9600480360381019080803573ffffffffffffffffffffffffffffffffffffffff16906020019092919080359060200190929190803573ffffffffffffffffffffffffffffffffffffffff169060200190929190505050611429565b604051808215151515815260200191505060405180910390f35b3480156103ef57600080fd5b5061040e600480360381019080803590602001909291905050506116a6565b604051808215151515815260200191505060405180910390f35b34801561043457600080fd5b5061043d6116d3565b6040518080602001828103825283818151815260200191508051906020019080838360005b8381101561047d578082015181840152602081019050610462565b50505050905090810190601f1680156104aa5780820380516001836020036101000a031916815260200191505b509250505060405180910390f35b3480156104c457600080fd5b506104e360048036038101908080359060200190929190505050611775565b604051808273ffffffffffffffffffffffffffffffffffffffff1673ffffffffffffffffffffffffffffffffffffffff16815260200191505060405180910390f35b34801561053157600080fd5b50610570600480360381019080803573ffffffffffffffffffffffffffffffffffffffff169060200190929190803590602001909291905050506117b2565b005b34801561057e57600080fd5b506105cc6004803603810190808035906020019092919080604001906002806020026040519081016040528092919082600260200280828437820191505050505091929192905050506118f7565b005b3480156105da57600080fd5b506105f9600480360381019080803590602001909291905050506119d1565b005b34801561060757600080fd5b50610610611adf565b604051808273ffffffffffffffffffffffffffffffffffffffff1673ffffffffffffffffffffffffffffffffffffffff16815260200191505060405180910390f35b34801561065e57600080fd5b506106a26004803603810190808060400190600280602002604051908101604052809291908260026020028082843782019150505050509192919290505050611b05565b60405180826000191660001916815260200191505060405180910390f35b3480156106cc57600080fd5b506106d5611b4c565b6040518082815260200191505060405180910390f35b3480156106f757600080fd5b50610700611b59565b60405180827bffffffffffffffffffffffffffffffffffffffffffffffffffffffff19167bffffffffffffffffffffffffffffffffffffffffffffffffffffffff1916815260200191505060405180910390f35b34801561076057600080fd5b5061077f60048036038101908080359060200190929190505050611b80565b6040518082815260200191505060405180910390f35b3480156107a157600080fd5b506107e0600480360381019080803573ffffffffffffffffffffffffffffffffffffffff16906020019092919080359060200190929190505050611ba0565b005b3480156107ee57600080fd5b5061084d600480360381019080803573ffffffffffffffffffffffffffffffffffffffff169060200190929190803573ffffffffffffffffffffffffffffffffffffffff16906020019092919080359060200190929190505050611cc1565b005b34801561085b57600080fd5b50610890600480360381019080803573ffffffffffffffffffffffffffffffffffffffff169060200190929190505050611e26565b604051808215151515815260200191505060405180910390f35b3480156108b657600080fd5b506108f5600480360381019080803573ffffffffffffffffffffffffffffffffffffffff16906020019092919080359060200190929190505050611e7c565b6040518082815260200191505060405180910390f35b34801561091757600080fd5b5061094c600480360381019080803573ffffffffffffffffffffffffffffffffffffffff169060200190929190505050611ef3565b005b34801561095a57600080fd5b50610999600480360381019080803573ffffffffffffffffffffffffffffffffffffffff16906020019092919080359060200190929190505050611fe9565b005b3480156109a757600080fd5b50610a06600480360381019080803573ffffffffffffffffffffffffffffffffffffffff169060200190929190803573ffffffffffffffffffffffffffffffffffffffff169060200190929190803590602001909291905050506120d4565b005b348015610a1457600080fd5b50610a49600480360381019080803573ffffffffffffffffffffffffffffffffffffffff169060200190929190505050612164565b005b348015610a5757600080fd5b50610a7660048036038101908080359060200190929190505050612226565b604051808215151515815260200191505060405180910390f35b348015610a9c57600080fd5b50610abb60048036038101908080359060200190929190505050612298565b6040518082815260200191505060405180910390f35b348015610add57600080fd5b50610ae66122d0565b6040518082815260200191505060405180910390f35b348015610b0857600080fd5b50610b116122d6565b604051808273ffffffffffffffffffffffffffffffffffffffff1673ffffffffffffffffffffffffffffffffffffffff16815260200191505060405180910390f35b348015610b5f57600080fd5b50610b7e60048036038101908080359060200190929190505050612300565b6040518082600260200280838360005b83811015610ba9578082015181840152602081019050610b8e565b5050505090500191505060405180910390f35b348015610bc857600080fd5b50610be760048036038101908080359060200190929190505050612379565b604051808273ffffffffffffffffffffffffffffffffffffffff1673ffffffffffffffffffffffffffffffffffffffff16815260200191505060405180910390f35b348015610c3557600080fd5b50610c54600480360381019080803590602001909291905050506123f7565b005b348015610c6257600080fd5b50610c81600480360381019080803590602001909291905050506124bc565b604051808515151515815260200184815260200183815260200182815260200194505050505060405180910390f35b348015610cbc57600080fd5b50610cf1600480360381019080803573ffffffffffffffffffffffffffffffffffffffff1690602001909291905050506124f9565b6040518082815260200191505060405180910390f35b348015610d1357600080fd5b50610d3e6004803603810190808035906020019092919080351515906020019092919050505061257d565b005b348015610d4c57600080fd5b50610d5561265f565b60405180878152602001868152602001858152602001848152602001838152602001828152602001965050505050505060405180910390f35b348015610d9a57600080fd5b50610da36126d9565b604051808273ffffffffffffffffffffffffffffffffffffffff1673ffffffffffffffffffffffffffffffffffffffff16815260200191505060405180910390f35b348015610df157600080fd5b50610e26600480360381019080803573ffffffffffffffffffffffffffffffffffffffff1690602001909291905050506126ff565b005b348015610e3457600080fd5b50610e856004803603810190808035906020019092919080359060200190929190803590602001909291908035906020019092919080359060200190929190803590602001909291905050506127c1565b005b348015610e9357600080fd5b50610ec8600480360381019080803573ffffffffffffffffffffffffffffffffffffffff1690602001909291905050506128ee565b005b348015610ed657600080fd5b50610edf6129b0565b6040518080602001828103825283818151815260200191508051906020019080838360005b83811015610f1f578082015181840152602081019050610f04565b50505050905090810190601f168015610f4c5780820380516001836020036101000a031916815260200191505b509250505060405180910390f35b348015610f6657600080fd5b50610fa7600480360381019080803573ffffffffffffffffffffffffffffffffffffffff169060200190929190803515159060200190929190505050612a52565b005b348015610fb557600080fd5b50610fde6004803603810190808035906020019092919080359060200190929190505050612b8e565b005b348015610fec57600080fd5b50610ff5612c5d565b604051808273ffffffffffffffffffffffffffffffffffffffff1673ffffffffffffffffffffffffffffffffffffffff16815260200191505060405180910390f35b34801561104357600080fd5b506110e8600480360381019080803573ffffffffffffffffffffffffffffffffffffffff169060200190929190803573ffffffffffffffffffffffffffffffffffffffff16906020019092919080359060200190929190803590602001908201803590602001908080601f0160208091040260200160405190810160405280939291908181526020018383808284378201915050505050509192919290505050612c83565b005b3480156110f657600080fd5b5061111560048036038101908080359060200190929190505050612d1a565b6040518082815260200191505060405180910390f35b34801561113757600080fd5b50611196600480360381019080803573ffffffffffffffffffffffffffffffffffffffff16906020019092919080359060200190929190803573ffffffffffffffffffffffffffffffffffffffff169060200190929190505050612d3a565b604051808215151515815260200191505060405180910390f35b3480156111bc57600080fd5b506111db60048036038101908080359060200190929190505050612ed3565b6040518080602001828103825283818151815260200191508051906020019080838360005b8381101561121b578082015181840152602081019050611200565b50505050905090810190601f1680156112485780820380516001836020036101000a031916815260200191505b509250505060405180910390f35b34801561126257600080fd5b5061128b6004803603810190808035906020019092919080359060200190929190505050612ffe565b005b34801561129957600080fd5b506112c260048036038101908080359060200190929190803590602001909291905050506130cd565b005b3480156112d057600080fd5b50611325600480360381019080803573ffffffffffffffffffffffffffffffffffffffff169060200190929190803573ffffffffffffffffffffffffffffffffffffffff16906020019092919050505061319c565b604051808215151515815260200191505060405180910390f35b34801561134b57600080fd5b50611380600480360381019080803573ffffffffffffffffffffffffffffffffffffffff169060200190929190505050613230565b005b6000806000837bffffffffffffffffffffffffffffffffffffffffffffffffffffffff19167bffffffffffffffffffffffffffffffffffffffffffffffffffffffff1916815260200190815260200160002060009054906101000a900460ff169050919050565b600c6020528060005260406000206000915054906101000a900460ff1681565b600060166000838152602001908152602001600020600401549050919050565b6000601460009054906101000a900473ffffffffffffffffffffffffffffffffffffffff1673ffffffffffffffffffffffffffffffffffffffff163373ffffffffffffffffffffffffffffffffffffffff1614806114d05750600c60003373ffffffffffffffffffffffffffffffffffffffff1673ffffffffffffffffffffffffffffffffffffffff16815260200190815260200160002060009054906101000a900460ff165b15156114db57600080fd5b8173ffffffffffffffffffffffffffffffffffffffff166370a08231306040518263ffffffff167c0100000000000000000000000000000000000000000000000000000000028152600401808273ffffffffffffffffffffffffffffffffffffffff1673ffffffffffffffffffffffffffffffffffffffff168152602001915050602060405180830381600087803b15801561157657600080fd5b505af115801561158a573d6000803e3d6000fd5b505050506040513d60208110156115a057600080fd5b810190808051906020019092919050505083111515156115bf57600080fd5b8173ffffffffffffffffffffffffffffffffffffffff1663a9059cbb85856040518363ffffffff167c0100000000000000000000000000000000000000000000000000000000028152600401808373ffffffffffffffffffffffffffffffffffffffff1673ffffffffffffffffffffffffffffffffffffffff16815260200182815260200192505050602060405180830381600087803b15801561166257600080fd5b505af1158015611676573d6000803e3d6000fd5b505050506040513d602081101561168c57600080fd5b810190808051906020019092919050505090509392505050565b60006016600083815260200190815260200160002060000160009054906101000a900460ff169050919050565b606060058054600181600116156101000203166002900480601f01602080910402602001604051908101604052809291908181526020018280546001816001161561010002031660029004801561176b5780601f106117405761010080835404028352916020019161176b565b820191906000526020600020905b81548152906001019060200180831161174e57829003601f168201915b5050505050905090565b60006002600083815260200190815260200160002060009054906101000a900473ffffffffffffffffffffffffffffffffffffffff169050919050565b60006117bd82612379565b90508073ffffffffffffffffffffffffffffffffffffffff168373ffffffffffffffffffffffffffffffffffffffff16141515156117fa57600080fd5b8073ffffffffffffffffffffffffffffffffffffffff163373ffffffffffffffffffffffffffffffffffffffff16148061183a5750611839813361319c565b5b151561184557600080fd5b826002600084815260200190815260200160002060006101000a81548173ffffffffffffffffffffffffffffffffffffffff021916908373ffffffffffffffffffffffffffffffffffffffff160217905550818373ffffffffffffffffffffffffffffffffffffffff168273ffffffffffffffffffffffffffffffffffffffff167f8c5be1e5ebec7d5bd14f71427d1e84f3dd0314c0f7b2291e5b200ac8c7c3b92560405160405180910390a4505050565b601460009054906101000a900473ffffffffffffffffffffffffffffffffffffffff1673ffffffffffffffffffffffffffffffffffffffff163373ffffffffffffffffffffffffffffffffffffffff16148061199c5750600c60003373ffffffffffffffffffffffffffffffffffffffff1673ffffffffffffffffffffffffffffffffffffffff16815260200190815260200160002060009054906101000a900460ff165b15156119a757600080fd5b80601660008481526020019081526020016000206002019060026119cc929190613fa8565b505050565b601460009054906101000a900473ffffffffffffffffffffffffffffffffffffffff1673ffffffffffffffffffffffffffffffffffffffff163373ffffffffffffffffffffffffffffffffffffffff161480611a765750600c60003373ffffffffffffffffffffffffffffffffffffffff1673ffffffffffffffffffffffffffffffffffffffff16815260200190815260200160002060009054906101000a900460ff165b1515611a8157600080fd5b60166000828152602001908152602001600020600080820160006101000a81549060ff02191690556001820160009055600282016000611ac1919061401f565b600482016000905560058201600090555050611adc816123f7565b50565b601460009054906101000a900473ffffffffffffffffffffffffffffffffffffffff1681565b6000816040518082600260200280838360005b83811015611b33578082015181840152602081019050611b18565b5050505090500191505060405180910390209050919050565b6000600980549050905090565b6301ffc9a77c01000000000000000000000000000000000000000000000000000000000281565b600060166000838152602001908152602001600020600501549050919050565b601460009054906101000a900473ffffffffffffffffffffffffffffffffffffffff1673ffffffffffffffffffffffffffffffffffffffff163373ffffffffffffffffffffffffffffffffffffffff161480611c455750600c60003373ffffffffffffffffffffffffffffffffffffffff1673ffffffffffffffffffffffffffffffffffffffff16815260200190815260200160002060009054906101000a900460ff165b1515611c5057600080fd5b3073ffffffffffffffffffffffffffffffffffffffff16318111151515611c7657600080fd5b8173ffffffffffffffffffffffffffffffffffffffff166108fc829081150290604051600060405180830381858888f19350505050158015611cbc573d6000803e3d6000fd5b505050565b80611ccc3382613294565b80611d245750601460009054906101000a900473ffffffffffffffffffffffffffffffffffffffff1673ffffffffffffffffffffffffffffffffffffffff163373ffffffffffffffffffffffffffffffffffffffff16145b1515611d2f57600080fd5b600073ffffffffffffffffffffffffffffffffffffffff168473ffffffffffffffffffffffffffffffffffffffff1614151515611d6b57600080fd5b600073ffffffffffffffffffffffffffffffffffffffff168373ffffffffffffffffffffffffffffffffffffffff1614151515611da757600080fd5b611db18483613329565b611dbb848361342c565b611dc58383613644565b818373ffffffffffffffffffffffffffffffffffffffff168573ffffffffffffffffffffffffffffffffffffffff167fddf252ad1be2c89b69c2b068fc378daa952ba7f163c4a11628f55a4df523b3ef60405160405180910390a450505050565b6000600c60008373ffffffffffffffffffffffffffffffffffffffff1673ffffffffffffffffffffffffffffffffffffffff16815260200190815260200160002060009054906101000a900460ff169050919050565b6000611e87836124f9565b82101515611e9457600080fd5b600760008473ffffffffffffffffffffffffffffffffffffffff1673ffffffffffffffffffffffffffffffffffffffff16815260200190815260200160002082815481101515611ee057fe5b9060005260206000200154905092915050565b600c60003373ffffffffffffffffffffffffffffffffffffffff1673ffffffffffffffffffffffffffffffffffffffff16815260200190815260200160002060009054906101000a900460ff161515611f4b57600080fd5b8073ffffffffffffffffffffffffffffffffffffffff167ff8df31144d9c2f0f6b59d69b8b98abd5459d07f2742c4df920b25aae33c6482060405160405180910390a26000600c60008373ffffffffffffffffffffffffffffffffffffffff1673ffffffffffffffffffffffffffffffffffffffff16815260200190815260200160002060006101000a81548160ff02191690831515021790555050565b601460009054906101000a900473ffffffffffffffffffffffffffffffffffffffff1673ffffffffffffffffffffffffffffffffffffffff163373ffffffffffffffffffffffffffffffffffffffff16148061208e5750600c60003373ffffffffffffffffffffffffffffffffffffffff1673ffffffffffffffffffffffffffffffffffffffff16815260200190815260200160002060009054906101000a900460ff165b151561209957600080fd5b6120a3828261371b565b6120d0601560009054906101000a900473ffffffffffffffffffffffffffffffffffffffff166001612a52565b5050565b806120df3382613294565b806121375750601460009054906101000a900473ffffffffffffffffffffffffffffffffffffffff1673ffffffffffffffffffffffffffffffffffffffff163373ffffffffffffffffffffffffffffffffffffffff16145b151561214257600080fd5b61215e8484846020604051908101604052806000815250612c83565b50505050565b600c60003373ffffffffffffffffffffffffffffffffffffffff1673ffffffffffffffffffffffffffffffffffffffff16815260200190815260200160002060009054906101000a900460ff1615156121bc57600080fd5b60008173ffffffffffffffffffffffffffffffffffffffff16141515156121e257600080fd5b80600d60006101000a81548173ffffffffffffffffffffffffffffffffffffffff021916908373ffffffffffffffffffffffffffffffffffffffff16021790555050565b6000806001600084815260200190815260200160002060009054906101000a900473ffffffffffffffffffffffffffffffffffffffff169050600073ffffffffffffffffffffffffffffffffffffffff168173ffffffffffffffffffffffffffffffffffffffff161415915050919050565b60006122a2611b4c565b821015156122af57600080fd5b6009828154811015156122be57fe5b90600052602060002001549050919050565b600e5481565b6000600d60009054906101000a900473ffffffffffffffffffffffffffffffffffffffff16905090565b61230861402d565b6016600083815260200190815260200160002060020160028060200260405190810160405280929190826002801561236d576020028201915b8160009054906101000a90046401000000000263ffffffff191681526020019060010190808311612341575b50505050509050919050565b6000806001600084815260200190815260200160002060009054906101000a900473ffffffffffffffffffffffffffffffffffffffff169050600073ffffffffffffffffffffffffffffffffffffffff168173ffffffffffffffffffffffffffffffffffffffff16141515156123ee57600080fd5b80915050919050565b601460009054906101000a900473ffffffffffffffffffffffffffffffffffffffff1673ffffffffffffffffffffffffffffffffffffffff163373ffffffffffffffffffffffffffffffffffffffff16148061249c5750600c60003373ffffffffffffffffffffffffffffffffffffffff1673ffffffffffffffffffffffffffffffffffffffff16815260200190815260200160002060009054906101000a900460ff165b15156124a757600080fd5b6124b96124b382612379565b82613772565b50565b60166020528060005260406000206000915090508060000160009054906101000a900460ff16908060010154908060040154908060050154905084565b60008073ffffffffffffffffffffffffffffffffffffffff168273ffffffffffffffffffffffffffffffffffffffff161415151561253657600080fd5b600360008373ffffffffffffffffffffffffffffffffffffffff1673ffffffffffffffffffffffffffffffffffffffff168152602001908152602001600020549050919050565b601460009054906101000a900473ffffffffffffffffffffffffffffffffffffffff1673ffffffffffffffffffffffffffffffffffffffff163373ffffffffffffffffffffffffffffffffffffffff1614806126225750600c60003373ffffffffffffffffffffffffffffffffffffffff1673ffffffffffffffffffffffffffffffffffffffff16815260200190815260200160002060009054906101000a900460ff165b151561262d57600080fd5b806016600084815260200190815260200160002060000160006101000a81548160ff0219169083151502179055505050565b600080600080600080600e54600f600060058110151561267b57fe5b0154600f600160058110151561268d57fe5b0154600f600260058110151561269f57fe5b0154600f60036005811015156126b157fe5b0154600f60046005811015156126c357fe5b0154955095509550955095509550909192939495565b600d60009054906101000a900473ffffffffffffffffffffffffffffffffffffffff1681565b600c60003373ffffffffffffffffffffffffffffffffffffffff1673ffffffffffffffffffffffffffffffffffffffff16815260200190815260200160002060009054906101000a900460ff16151561275757600080fd5b60008173ffffffffffffffffffffffffffffffffffffffff161415151561277d57600080fd5b80601460006101000a81548173ffffffffffffffffffffffffffffffffffffffff021916908373ffffffffffffffffffffffffffffffffffffffff16021790555050565b601460009054906101000a900473ffffffffffffffffffffffffffffffffffffffff1673ffffffffffffffffffffffffffffffffffffffff163373ffffffffffffffffffffffffffffffffffffffff1614806128665750600c60003373ffffffffffffffffffffffffffffffffffffffff1673ffffffffffffffffffffffffffffffffffffffff16815260200190815260200160002060009054906101000a900460ff165b151561287157600080fd5b85600e8190555084600f600060058110151561288957fe5b018190555083600f600160058110151561289f57fe5b018190555082600f60026005811015156128b557fe5b018190555081600f60036005811015156128cb57fe5b018190555080600f60046005811015156128e157fe5b0181905550505050505050565b600c60003373ffffffffffffffffffffffffffffffffffffffff1673ffffffffffffffffffffffffffffffffffffffff16815260200190815260200160002060009054906101000a900460ff16151561294657600080fd5b60008173ffffffffffffffffffffffffffffffffffffffff161415151561296c57600080fd5b80601560006101000a81548173ffffffffffffffffffffffffffffffffffffffff021916908373ffffffffffffffffffffffffffffffffffffffff16021790555050565b606060068054600181600116156101000203166002900480601f016020809104026020016040519081016040528092919081815260200182805460018160011615610100020316600290048015612a485780601f10612a1d57610100808354040283529160200191612a48565b820191906000526020600020905b815481529060010190602001808311612a2b57829003601f168201915b5050505050905090565b3373ffffffffffffffffffffffffffffffffffffffff168273ffffffffffffffffffffffffffffffffffffffff1614151515612a8d57600080fd5b80600460003373ffffffffffffffffffffffffffffffffffffffff1673ffffffffffffffffffffffffffffffffffffffff16815260200190815260200160002060008473ffffffffffffffffffffffffffffffffffffffff1673ffffffffffffffffffffffffffffffffffffffff16815260200190815260200160002060006101000a81548160ff0219169083151502179055508173ffffffffffffffffffffffffffffffffffffffff163373ffffffffffffffffffffffffffffffffffffffff167f17307eab39ab6107e8899845ad3d59bd9653f200f220920489ca2b5937696c3183604051808215151515815260200191505060405180910390a35050565b601460009054906101000a900473ffffffffffffffffffffffffffffffffffffffff1673ffffffffffffffffffffffffffffffffffffffff163373ffffffffffffffffffffffffffffffffffffffff161480612c335750600c60003373ffffffffffffffffffffffffffffffffffffffff1673ffffffffffffffffffffffffffffffffffffffff16815260200190815260200160002060009054906101000a900460ff165b1515612c3e57600080fd5b8060166000848152602001908152602001600020600501819055505050565b601560009054906101000a900473ffffffffffffffffffffffffffffffffffffffff1681565b81612c8e3382613294565b80612ce65750601460009054906101000a900473ffffffffffffffffffffffffffffffffffffffff1673ffffffffffffffffffffffffffffffffffffffff163373ffffffffffffffffffffffffffffffffffffffff16145b1515612cf157600080fd5b612cfc858585611cc1565b612d08858585856138aa565b1515612d1357600080fd5b5050505050565b600060166000838152602001908152602001600020600101549050919050565b6000601460009054906101000a900473ffffffffffffffffffffffffffffffffffffffff1673ffffffffffffffffffffffffffffffffffffffff163373ffffffffffffffffffffffffffffffffffffffff161480612de15750600c60003373ffffffffffffffffffffffffffffffffffffffff1673ffffffffffffffffffffffffffffffffffffffff16815260200190815260200160002060009054906101000a900460ff165b1515612dec57600080fd5b8173ffffffffffffffffffffffffffffffffffffffff1663095ea7b385856040518363ffffffff167c0100000000000000000000000000000000000000000000000000000000028152600401808373ffffffffffffffffffffffffffffffffffffffff1673ffffffffffffffffffffffffffffffffffffffff16815260200182815260200192505050602060405180830381600087803b158015612e8f57600080fd5b505af1158015612ea3573d6000803e3d6000fd5b505050506040513d6020811015612eb957600080fd5b810190808051906020019092919050505090509392505050565b6060600d60009054906101000a900473ffffffffffffffffffffffffffffffffffffffff1673ffffffffffffffffffffffffffffffffffffffff1663c87b56dd836040518263ffffffff167c010000000000000000000000000000000000000000000000000000000002815260040180828152602001915050600060405180830381600087803b158015612f6657600080fd5b505af1158015612f7a573d6000803e3d6000fd5b505050506040513d6000823e3d601f19601f820116820180604052506020811015612fa457600080fd5b810190808051640100000000811115612fbc57600080fd5b82810190506020810184811115612fd257600080fd5b8151856001820283011164010000000082111715612fef57600080fd5b50509291905050509050919050565b601460009054906101000a900473ffffffffffffffffffffffffffffffffffffffff1673ffffffffffffffffffffffffffffffffffffffff163373ffffffffffffffffffffffffffffffffffffffff1614806130a35750600c60003373ffffffffffffffffffffffffffffffffffffffff1673ffffffffffffffffffffffffffffffffffffffff16815260200190815260200160002060009054906101000a900460ff165b15156130ae57600080fd5b8060166000848152602001908152602001600020600101819055505050565b601460009054906101000a900473ffffffffffffffffffffffffffffffffffffffff1673ffffffffffffffffffffffffffffffffffffffff163373ffffffffffffffffffffffffffffffffffffffff1614806131725750600c60003373ffffffffffffffffffffffffffffffffffffffff1673ffffffffffffffffffffffffffffffffffffffff16815260200190815260200160002060009054906101000a900460ff165b151561317d57600080fd5b8060166000848152602001908152602001600020600401819055505050565b6000600460008473ffffffffffffffffffffffffffffffffffffffff1673ffffffffffffffffffffffffffffffffffffffff16815260200190815260200160002060008373ffffffffffffffffffffffffffffffffffffffff1673ffffffffffffffffffffffffffffffffffffffff16815260200190815260200160002060009054906101000a900460ff16905092915050565b600c60003373ffffffffffffffffffffffffffffffffffffffff1673ffffffffffffffffffffffffffffffffffffffff16815260200190815260200160002060009054906101000a900460ff16151561328857600080fd5b61329181613acc565b50565b6000806132a083612379565b90508073ffffffffffffffffffffffffffffffffffffffff168473ffffffffffffffffffffffffffffffffffffffff16148061330f57508373ffffffffffffffffffffffffffffffffffffffff166132f784611775565b73ffffffffffffffffffffffffffffffffffffffff16145b80613320575061331f818561319c565b5b91505092915050565b8173ffffffffffffffffffffffffffffffffffffffff1661334982612379565b73ffffffffffffffffffffffffffffffffffffffff1614151561336b57600080fd5b600073ffffffffffffffffffffffffffffffffffffffff166002600083815260200190815260200160002060009054906101000a900473ffffffffffffffffffffffffffffffffffffffff1673ffffffffffffffffffffffffffffffffffffffff161415156134285760006002600083815260200190815260200160002060006101000a81548173ffffffffffffffffffffffffffffffffffffffff021916908373ffffffffffffffffffffffffffffffffffffffff1602179055505b5050565b600080600061343b8585613bbd565b600860008581526020019081526020016000205492506134a76001600760008873ffffffffffffffffffffffffffffffffffffffff1673ffffffffffffffffffffffffffffffffffffffff16815260200190815260200160002080549050613cec90919063ffffffff16565b9150600760008673ffffffffffffffffffffffffffffffffffffffff1673ffffffffffffffffffffffffffffffffffffffff168152602001908152602001600020828154811015156134f557fe5b9060005260206000200154905080600760008773ffffffffffffffffffffffffffffffffffffffff1673ffffffffffffffffffffffffffffffffffffffff1681526020019081526020016000208481548110151561354f57fe5b90600052602060002001819055506000600760008773ffffffffffffffffffffffffffffffffffffffff1673ffffffffffffffffffffffffffffffffffffffff168152602001908152602001600020838154811015156135ab57fe5b9060005260206000200181905550600760008673ffffffffffffffffffffffffffffffffffffffff1673ffffffffffffffffffffffffffffffffffffffff16815260200190815260200160002080548091906001900361360b919061404f565b50600060086000868152602001908152602001600020819055508260086000838152602001908152602001600020819055505050505050565b60006136508383613d05565b600760008473ffffffffffffffffffffffffffffffffffffffff1673ffffffffffffffffffffffffffffffffffffffff168152602001908152602001600020805490509050600760008473ffffffffffffffffffffffffffffffffffffffff1673ffffffffffffffffffffffffffffffffffffffff168152602001908152602001600020829080600181540180825580915050906001820390600052602060002001600090919290919091505550806008600084815260200190815260200160002081905550505050565b6137258282613e5f565b600980549050600a60008381526020019081526020016000208190555060098190806001815401808255809150509060018203906000526020600020016000909192909190915055505050565b60008060006137818585613f05565b6000600b60008681526020019081526020016000208054600181600116156101000203166002900490501415156137d257600b600085815260200190815260200160002060006137d1919061407b565b5b600a60008581526020019081526020016000205492506138016001600980549050613cec90919063ffffffff16565b915060098281548110151561381257fe5b906000526020600020015490508060098481548110151561382f57fe5b9060005260206000200181905550600060098381548110151561384e57fe5b90600052602060002001819055506009805480919060019003613871919061404f565b506000600a60008681526020019081526020016000208190555082600a6000838152602001908152602001600020819055505050505050565b6000806138cc8573ffffffffffffffffffffffffffffffffffffffff16613f79565b15156138db5760019150613ac3565b8473ffffffffffffffffffffffffffffffffffffffff1663150b7a02338887876040518563ffffffff167c0100000000000000000000000000000000000000000000000000000000028152600401808573ffffffffffffffffffffffffffffffffffffffff1673ffffffffffffffffffffffffffffffffffffffff1681526020018473ffffffffffffffffffffffffffffffffffffffff1673ffffffffffffffffffffffffffffffffffffffff16815260200183815260200180602001828103825283818151815260200191508051906020019080838360005b838110156139d05780820151818401526020810190506139b5565b50505050905090810190601f1680156139fd5780820380516001836020036101000a031916815260200191505b5095505050505050602060405180830381600087803b158015613a1f57600080fd5b505af1158015613a33573d6000803e3d6000fd5b505050506040513d6020811015613a4957600080fd5b8101908080519060200190929190505050905063150b7a027c0100000000000000000000000000000000000000000000000000000000027bffffffffffffffffffffffffffffffffffffffffffffffffffffffff1916817bffffffffffffffffffffffffffffffffffffffffffffffffffffffff19161491505b50949350505050565b600073ffffffffffffffffffffffffffffffffffffffff168173ffffffffffffffffffffffffffffffffffffffff1614151515613b0857600080fd5b8073ffffffffffffffffffffffffffffffffffffffff163373ffffffffffffffffffffffffffffffffffffffff167f8be0079c531659141344cd1fd0a4f28419497f9722a3daafe3b4186f6b6457e060405160405180910390a36001600c60008373ffffffffffffffffffffffffffffffffffffffff1673ffffffffffffffffffffffffffffffffffffffff16815260200190815260200160002060006101000a81548160ff02191690831515021790555050565b8173ffffffffffffffffffffffffffffffffffffffff16613bdd82612379565b73ffffffffffffffffffffffffffffffffffffffff16141515613bff57600080fd5b613c526001600360008573ffffffffffffffffffffffffffffffffffffffff1673ffffffffffffffffffffffffffffffffffffffff16815260200190815260200160002054613cec90919063ffffffff16565b600360008473ffffffffffffffffffffffffffffffffffffffff1673ffffffffffffffffffffffffffffffffffffffff1681526020019081526020016000208190555060006001600083815260200190815260200160002060006101000a81548173ffffffffffffffffffffffffffffffffffffffff021916908373ffffffffffffffffffffffffffffffffffffffff1602179055505050565b6000828211151515613cfa57fe5b818303905092915050565b600073ffffffffffffffffffffffffffffffffffffffff166001600083815260200190815260200160002060009054906101000a900473ffffffffffffffffffffffffffffffffffffffff1673ffffffffffffffffffffffffffffffffffffffff16141515613d7357600080fd5b816001600083815260200190815260200160002060006101000a81548173ffffffffffffffffffffffffffffffffffffffff021916908373ffffffffffffffffffffffffffffffffffffffff160217905550613e186001600360008573ffffffffffffffffffffffffffffffffffffffff1673ffffffffffffffffffffffffffffffffffffffff16815260200190815260200160002054613f8c90919063ffffffff16565b600360008473ffffffffffffffffffffffffffffffffffffffff1673ffffffffffffffffffffffffffffffffffffffff168152602001908152602001600020819055505050565b600073ffffffffffffffffffffffffffffffffffffffff168273ffffffffffffffffffffffffffffffffffffffff1614151515613e9b57600080fd5b613ea58282613644565b808273ffffffffffffffffffffffffffffffffffffffff16600073ffffffffffffffffffffffffffffffffffffffff167fddf252ad1be2c89b69c2b068fc378daa952ba7f163c4a11628f55a4df523b3ef60405160405180910390a45050565b613f0f8282613329565b613f19828261342c565b80600073ffffffffffffffffffffffffffffffffffffffff168373ffffffffffffffffffffffffffffffffffffffff167fddf252ad1be2c89b69c2b068fc378daa952ba7f163c4a11628f55a4df523b3ef60405160405180910390a45050565b600080823b905060008111915050919050565b60008183019050828110151515613f9f57fe5b80905092915050565b826002810192821561400e579160200282015b8281111561400d5782518260006101000a8154817bffffffffffffffffffffffffffffffffffffffffffffffffffffffff02191690836401000000009004021790555091602001919060010190613fbb565b5b50905061401b91906140c3565b5090565b506000815560010160009055565b6040805190810160405280600290602082028038833980820191505090505090565b81548183558181111561407657818360005260206000209182019101614075919061410e565b5b505050565b50805460018160011615610100020316600290046000825580601f106140a157506140c0565b601f0160209004906000526020600020908101906140bf919061410e565b5b50565b61410b91905b8082111561410757600081816101000a8154907bffffffffffffffffffffffffffffffffffffffffffffffffffffffff0219169055506001016140c9565b5090565b90565b61413091905b8082111561412c576000816000905550600101614114565b5090565b905600a165627a7a723058207682b3a63f52045d43de53fbd1fadf9a8c5ae28eb49f937d42456cf8562bb3290029",
  "source": "pragma solidity ^0.4.18;\n\n/**\n * Digital Asset Registry for the Non Fungible Token Clover\n * with upgradeable contract reference for returning metadata.\n */\n\nimport \"zeppelin-solidity/contracts/token/ERC20/ERC20.sol\";\nimport \"zeppelin-solidity/contracts/token/ERC721/ERC721Token.sol\";\nimport \"./helpers/MultiOwnable.sol\";\nimport \"./CloversMetadata.sol\";\n\n\ncontract Clovers is ERC721Token, MultiOwnable {\n\n    address public cloversMetadata;\n    uint256 public totalSymmetries;\n    uint256[5] symmetries; // RotSym, Y0Sym, X0Sym, XYSym, XnYSym\n    address public cloversController;\n    address public clubTokenController;\n\n    mapping (uint256 => Clover) public clovers;\n    struct Clover {\n        bool keep;\n        uint256 symmetries;\n        bytes28[2] cloverMoves;\n        uint256 blockMinted;\n        uint256 rewards;\n    }\n\n    modifier onlyOwnerOrController() {\n        require(\n            msg.sender == cloversController ||\n            owners[msg.sender]\n        );\n        _;\n    }\n\n\n    /**\n    * @dev Checks msg.sender can transfer a token, by being owner, approved, operator or cloversController\n    * @param _tokenId uint256 ID of the token to validate\n    */\n    modifier canTransfer(uint256 _tokenId) {\n        require(isApprovedOrOwner(msg.sender, _tokenId) || msg.sender == cloversController);\n        _;\n    }\n\n    constructor(string name, string symbol) public\n        ERC721Token(name, symbol)\n    { }\n\n    function () public payable {}\n\n    function implementation() public view returns (address) {\n        return cloversMetadata;\n    }\n\n    function tokenURI(uint _tokenId) public view returns (string _infoUrl) {\n        return CloversMetadata(cloversMetadata).tokenURI(_tokenId);\n    }\n    function getHash(bytes28[2] moves) public pure returns (bytes32) {\n        return keccak256(moves);\n    }\n    function getKeep(uint256 _tokenId) public view returns (bool) {\n        return clovers[_tokenId].keep;\n    }\n    function getBlockMinted(uint256 _tokenId) public view returns (uint256) {\n        return clovers[_tokenId].blockMinted;\n    }\n    function getCloverMoves(uint256 _tokenId) public view returns (bytes28[2]) {\n        return clovers[_tokenId].cloverMoves;\n    }\n    function getReward(uint256 _tokenId) public view returns (uint256) {\n        return clovers[_tokenId].rewards;\n    }\n    function getSymmetries(uint256 _tokenId) public view returns (uint256) {\n        return clovers[_tokenId].symmetries;\n    }\n    function getAllSymmetries() public view returns (uint256, uint256, uint256, uint256, uint256, uint256) {\n        return (\n            totalSymmetries,\n            symmetries[0], //RotSym,\n            symmetries[1], //Y0Sym,\n            symmetries[2], //X0Sym,\n            symmetries[3], //XYSym,\n            symmetries[4] //XnYSym\n        );\n    }\n\n/* ---------------------------------------------------------------------------------------------------------------------- */\n\n    /**\n    * @dev Moves Eth to a certain address for use in the CloversController\n    * @param _to The address to receive the Eth.\n    * @param _amount The amount of Eth to be transferred.\n    */\n    function moveEth(address _to, uint256 _amount) public onlyOwnerOrController {\n        require(_amount <= this.balance);\n        _to.transfer(_amount);\n    }\n    /**\n    * @dev Moves Token to a certain address for use in the CloversController\n    * @param _to The address to receive the Token.\n    * @param _amount The amount of Token to be transferred.\n    * @param _token The address of the Token to be transferred.\n    */\n    function moveToken(address _to, uint256 _amount, address _token) public onlyOwnerOrController returns (bool) {\n        require(_amount <= ERC20(_token).balanceOf(this));\n        return ERC20(_token).transfer(_to, _amount);\n    }\n    /**\n    * @dev Approves Tokens to a certain address for use in the CloversController\n    * @param _to The address to receive the Token approval.\n    * @param _amount The amount of Token to be approved.\n    * @param _token The address of the Token to be approved.\n    */\n    function approveToken(address _to, uint256 _amount, address _token) public onlyOwnerOrController returns (bool) {\n        return ERC20(_token).approve(_to, _amount);\n    }\n\n    /**\n    * @dev Sets whether the minter will keep the clover\n    * @param _tokenId The token Id.\n    * @param value Whether the clover will be kept.\n    */\n    function setKeep(uint256 _tokenId, bool value) public onlyOwnerOrController {\n        clovers[_tokenId].keep = value;\n    }\n    function setBlockMinted(uint256 _tokenId, uint256 value) public onlyOwnerOrController {\n        clovers[_tokenId].blockMinted = value;\n    }\n    function setCloverMoves(uint256 _tokenId, bytes28[2] moves) public onlyOwnerOrController {\n        clovers[_tokenId].cloverMoves = moves;\n    }\n    function setReward(uint256 _tokenId, uint256 _amount) public onlyOwnerOrController {\n        clovers[_tokenId].rewards = _amount;\n    }\n    function setSymmetries(uint256 _tokenId, uint256 _symmetries) public onlyOwnerOrController {\n        clovers[_tokenId].symmetries = _symmetries;\n    }\n\n    /**\n    * @dev Sets total tallies of symmetry counts. For use by the controller to correct for invalid Clovers.\n    * @param _totalSymmetries The total number of Symmetries.\n    * @param RotSym The total number of RotSym Symmetries.\n    * @param Y0Sym The total number of Y0Sym Symmetries.\n    * @param X0Sym The total number of X0Sym Symmetries.\n    * @param XYSym The total number of XYSym Symmetries.\n    * @param XnYSym The total number of XnYSym Symmetries.\n    */\n    function setAllSymmetries(uint256 _totalSymmetries, uint256 RotSym, uint256 Y0Sym, uint256 X0Sym, uint256 XYSym, uint256 XnYSym) public onlyOwnerOrController {\n        totalSymmetries = _totalSymmetries;\n        symmetries[0] = RotSym;\n        symmetries[1] = Y0Sym;\n        symmetries[2] = X0Sym;\n        symmetries[3] = XYSym;\n        symmetries[4] = XnYSym;\n    }\n\n    /**\n    * @dev Deletes data about a Clover.\n    * @param _tokenId The Id of the clover token to be deleted.\n    */\n    function deleteClover(uint256 _tokenId) public onlyOwnerOrController {\n        delete(clovers[_tokenId]);\n        unmint(_tokenId);\n    }\n    /**\n    * @dev Updates the CloversController contract address and approves that contract to manage the Clovers owned by the Clovers contract.\n    * @param _cloversController The address of the new contract.\n    */\n    function updateCloversControllerAddress(address _cloversController) public onlyOwner {\n        require(_cloversController != 0);\n        cloversController = _cloversController;\n    }\n\n\n\n    /**\n    * @dev Updates the CloversMetadata contract address.\n    * @param _cloversMetadata The address of the new contract.\n    */\n    function updateCloversMetadataAddress(address _cloversMetadata) public onlyOwner {\n        require(_cloversMetadata != 0);\n        cloversMetadata = _cloversMetadata;\n    }\n\n    function updateClubTokenController(address _clubTokenController) public onlyOwner {\n        require(_clubTokenController != 0);\n        clubTokenController = _clubTokenController;\n    }\n\n    /**\n    * @dev Mints new Clovers.\n    * @param _to The address of the new clover owner.\n    * @param _tokenId The Id of the new clover token.\n    */\n    function mint (address _to, uint256 _tokenId) public onlyOwnerOrController {\n        super._mint(_to, _tokenId);\n        setApprovalForAll(clubTokenController, true);\n    }\n    /**\n    * @dev Unmints Clovers.\n    * @param _tokenId The Id of the clover token to be destroyed.\n    */\n    function unmint (uint256 _tokenId) public onlyOwnerOrController {\n        super._burn(ownerOf(_tokenId), _tokenId);\n    }\n\n\n}\n",
  "sourcePath": "/home/billy/GitHub.com/clovers-network/clovers-contracts/contracts/Clovers.sol",
  "compiler": {
    "name": "solc",
    "version": "0.4.24+commit.e67f0147.Emscripten.clang"
  },
  "schemaVersion": "2.0.1",
  "updatedAt": "2019-08-12T10:35:22.937Z"
}