{
  "contractName": "CloversController",
  "abi": [
    {
      "constant": false,
      "inputs": [
        {
          "name": "token",
          "type": "address"
        }
      ],
      "name": "reclaimToken",
      "outputs": [],
      "payable": false,
      "stateMutability": "nonpayable",
      "type": "function"
    },
    {
      "constant": true,
      "inputs": [],
      "name": "owner",
      "outputs": [
        {
          "name": "",
          "type": "address"
        }
      ],
      "payable": false,
      "stateMutability": "view",
      "type": "function"
    },
    {
      "constant": false,
      "inputs": [],
      "name": "reclaimEther",
      "outputs": [],
      "payable": false,
      "stateMutability": "nonpayable",
      "type": "function"
    },
    {
      "constant": false,
      "inputs": [
        {
          "name": "from_",
          "type": "address"
        },
        {
          "name": "value_",
          "type": "uint256"
        },
        {
          "name": "data_",
          "type": "bytes"
        }
      ],
      "name": "tokenFallback",
      "outputs": [],
      "payable": false,
      "stateMutability": "nonpayable",
      "type": "function"
    },
    {
      "constant": false,
      "inputs": [
        {
          "name": "newOwner",
          "type": "address"
        }
      ],
      "name": "transferOwnership",
      "outputs": [],
      "payable": false,
      "stateMutability": "nonpayable",
      "type": "function"
    },
    {
      "inputs": [
        {
          "name": "_clovers",
          "type": "address"
        },
        {
          "name": "_clubToken",
          "type": "address"
        }
      ],
      "payable": false,
      "stateMutability": "nonpayable",
      "type": "constructor"
    },
    {
      "payable": false,
      "stateMutability": "nonpayable",
      "type": "fallback"
    },
    {
      "anonymous": false,
      "inputs": [
        {
          "indexed": false,
          "name": "movesHash",
          "type": "bytes32"
        },
        {
          "indexed": false,
          "name": "owner",
          "type": "address"
        }
      ],
      "name": "cloverCommitted",
      "type": "event"
    },
    {
      "anonymous": false,
      "inputs": [
        {
          "indexed": false,
          "name": "moves",
          "type": "bytes28[2]"
        },
        {
          "indexed": false,
          "name": "tokenId",
          "type": "uint256"
        },
        {
          "indexed": false,
          "name": "owner",
          "type": "address"
        },
        {
          "indexed": false,
          "name": "stake",
          "type": "uint256"
        },
        {
          "indexed": false,
          "name": "reward",
          "type": "uint256"
        },
        {
          "indexed": false,
          "name": "symmetries",
          "type": "uint256"
        }
      ],
      "name": "cloverClaimed",
      "type": "event"
    },
    {
      "anonymous": false,
      "inputs": [
        {
          "indexed": false,
          "name": "tokenId",
          "type": "uint256"
        },
        {
          "indexed": false,
          "name": "owner",
          "type": "address"
        },
        {
          "indexed": false,
          "name": "stake",
          "type": "uint256"
        },
        {
          "indexed": false,
          "name": "reward",
          "type": "uint256"
        }
      ],
      "name": "stakeAndRewardRetrieved",
      "type": "event"
    },
    {
      "anonymous": false,
      "inputs": [
        {
          "indexed": false,
          "name": "moves",
          "type": "bytes28[2]"
        },
        {
          "indexed": false,
          "name": "tokenId",
          "type": "uint256"
        },
        {
          "indexed": false,
          "name": "owner",
          "type": "address"
        },
        {
          "indexed": false,
          "name": "challenger",
          "type": "address"
        },
        {
          "indexed": false,
          "name": "stake",
          "type": "uint256"
        }
      ],
      "name": "cloverChallenged",
      "type": "event"
    },
    {
      "anonymous": false,
      "inputs": [
        {
          "indexed": true,
          "name": "previousOwner",
          "type": "address"
        },
        {
          "indexed": true,
          "name": "newOwner",
          "type": "address"
        }
      ],
      "name": "OwnershipTransferred",
      "type": "event"
    },
    {
      "constant": true,
      "inputs": [],
      "name": "currentStakeAmount",
      "outputs": [
        {
          "name": "",
          "type": "uint256"
        }
      ],
      "payable": false,
      "stateMutability": "view",
      "type": "function"
    },
    {
      "constant": true,
      "inputs": [],
      "name": "currentStakePeriod",
      "outputs": [
        {
          "name": "",
          "type": "uint256"
        }
      ],
      "payable": false,
      "stateMutability": "view",
      "type": "function"
    },
    {
      "constant": true,
      "inputs": [],
      "name": "getMultiplier",
      "outputs": [
        {
          "name": "",
          "type": "uint256"
        }
      ],
      "payable": false,
      "stateMutability": "view",
      "type": "function"
    },
    {
      "constant": true,
      "inputs": [
        {
          "name": "_tokenId",
          "type": "uint256"
        }
      ],
      "name": "getMovesHash",
      "outputs": [
        {
          "name": "",
          "type": "bytes32"
        }
      ],
      "payable": false,
      "stateMutability": "view",
      "type": "function"
    },
    {
      "constant": true,
      "inputs": [
        {
          "name": "moves",
          "type": "bytes28[2]"
        }
      ],
      "name": "isValid",
      "outputs": [
        {
          "name": "",
          "type": "bool"
        }
      ],
      "payable": false,
      "stateMutability": "view",
      "type": "function"
    },
    {
      "constant": true,
      "inputs": [
        {
          "components": [
            {
              "name": "error",
              "type": "bool"
            },
            {
              "name": "complete",
              "type": "bool"
            },
            {
              "name": "symmetrical",
              "type": "bool"
            },
            {
              "name": "RotSym",
              "type": "bool"
            },
            {
              "name": "Y0Sym",
              "type": "bool"
            },
            {
              "name": "X0Sym",
              "type": "bool"
            },
            {
              "name": "XYSym",
              "type": "bool"
            },
            {
              "name": "XnYSym",
              "type": "bool"
            },
            {
              "name": "board",
              "type": "bytes16"
            },
            {
              "name": "first32Moves",
              "type": "bytes28"
            },
            {
              "name": "lastMoves",
              "type": "bytes28"
            },
            {
              "name": "currentPlayer",
              "type": "uint8"
            },
            {
              "name": "moveKey",
              "type": "uint8"
            },
            {
              "name": "blackScore",
              "type": "uint8"
            },
            {
              "name": "whiteScore",
              "type": "uint8"
            }
          ],
          "name": "game",
          "type": "tuple"
        }
      ],
      "name": "isValidGame",
      "outputs": [
        {
          "name": "",
          "type": "bool"
        }
      ],
      "payable": false,
      "stateMutability": "pure",
      "type": "function"
    },
    {
      "constant": true,
      "inputs": [
        {
          "name": "_tokenId",
          "type": "uint256"
        }
      ],
      "name": "isVerified",
      "outputs": [
        {
          "name": "",
          "type": "bool"
        }
      ],
      "payable": false,
      "stateMutability": "view",
      "type": "function"
    },
    {
      "constant": true,
      "inputs": [
        {
          "name": "_symmetries",
          "type": "uint256"
        }
      ],
      "name": "calculateReward",
      "outputs": [
        {
          "name": "",
          "type": "uint256"
        }
      ],
      "payable": false,
      "stateMutability": "view",
      "type": "function"
    },
    {
      "constant": false,
      "inputs": [
        {
          "name": "moves",
          "type": "bytes28[2]"
        },
        {
          "name": "_tokenId",
          "type": "uint256"
        },
        {
          "name": "_symmetries",
          "type": "uint256"
        },
        {
          "name": "_to",
          "type": "address"
        }
      ],
      "name": "claimClover",
      "outputs": [
        {
          "name": "",
          "type": "bool"
        }
      ],
      "payable": true,
      "stateMutability": "payable",
      "type": "function"
    },
    {
      "constant": false,
      "inputs": [
        {
          "name": "movesHash",
          "type": "bytes32"
        },
        {
          "name": "_to",
          "type": "address"
        }
      ],
      "name": "claimCloverCommit",
      "outputs": [
        {
          "name": "",
          "type": "bool"
        }
      ],
      "payable": true,
      "stateMutability": "payable",
      "type": "function"
    },
    {
      "constant": false,
      "inputs": [
        {
          "name": "moves",
          "type": "bytes28[2]"
        },
        {
          "name": "_tokenId",
          "type": "uint256"
        },
        {
          "name": "_symmetries",
          "type": "uint256"
        }
      ],
      "name": "claimCloverReveal",
      "outputs": [
        {
          "name": "",
          "type": "bool"
        }
      ],
      "payable": false,
      "stateMutability": "nonpayable",
      "type": "function"
    },
    {
      "constant": false,
      "inputs": [
        {
          "name": "_tokenId",
          "type": "uint256"
        }
      ],
      "name": "retrieveStake",
      "outputs": [
        {
          "name": "",
          "type": "bool"
        }
      ],
      "payable": false,
      "stateMutability": "nonpayable",
      "type": "function"
    },
    {
      "constant": false,
      "inputs": [
        {
          "name": "_tokenId",
          "type": "uint256"
        },
        {
          "name": "_to",
          "type": "address"
        }
      ],
      "name": "challengeClover",
      "outputs": [
        {
          "name": "",
          "type": "bool"
        }
      ],
      "payable": false,
      "stateMutability": "nonpayable",
      "type": "function"
    },
    {
      "constant": false,
      "inputs": [
        {
          "name": "_stakeAmount",
          "type": "uint256"
        }
      ],
      "name": "updateStakeAmount",
      "outputs": [],
      "payable": false,
      "stateMutability": "nonpayable",
      "type": "function"
    },
    {
      "constant": false,
      "inputs": [
        {
          "name": "_stakePeriod",
          "type": "uint256"
        }
      ],
      "name": "updateStakePeriod",
      "outputs": [],
      "payable": false,
      "stateMutability": "nonpayable",
      "type": "function"
    },
    {
      "constant": false,
      "inputs": [
        {
          "name": "_payMultiplier",
          "type": "uint256"
        }
      ],
      "name": "updatePayMultipier",
      "outputs": [],
      "payable": false,
      "stateMutability": "nonpayable",
      "type": "function"
    }
  ],
  "bytecode": "0x606060405234156200001057600080fd5b604051604080620053fa8339810160405262000036906780000000000000009062000126565b336000806101000a81548173ffffffffffffffffffffffffffffffffffffffff021916908373ffffffffffffffffffffffffffffffffffffffff1602179055506000341415156200008657600080fd5b81600160006101000a81548173ffffffffffffffffffffffffffffffffffffffff021916908373ffffffffffffffffffffffffffffffffffffffff16021790555080600260006101000a81548173ffffffffffffffffffffffffffffffffffffffff021916908373ffffffffffffffffffffffffffffffffffffffff160217905550505062000187565b60006200011e825162000167565b905092915050565b600080604083850312156200013a57600080fd5b60006200014a8582860162000110565b92505060206200015d8582860162000110565b9150509250929050565b600073ffffffffffffffffffffffffffffffffffffffff82169050919050565b61526380620001976000396000f30060606040526004361061011d576000357c0100000000000000000000000000000000000000000000000000000000900463ffffffff168063038f13281461012a57806317ffc32014610155578063271eff941461017757806332cda779146101ad57806335f71899146101d657806337b6d96b1461020157806340490a90146102375780635759f3f71461026057806358fcd4b6146102825780636cb6b41f146102b85780638a05aafa146102e15780638da5cb5b146103035780639f727c271461032c578063acd37b7b14610341578063c0ee0b8a14610377578063c1fe551a14610399578063c90054ee146103cf578063d09687f7146103f1578063d2d7231f14610427578063f2fde38b1461045d578063f8a68a561461047f575b341561012857600080fd5b005b61013f600461013a903690614b45565b6104b5565b60405161014c9190614e57565b60405180910390f35b341561016057600080fd5b6101756004610170903690614be4565b610b29565b005b341561018257600080fd5b6101976004610192903690614acd565b610c5d565b6040516101a49190614e57565b60405180910390f35b34156101b857600080fd5b6101c0610c83565b6040516101cd9190614f4c565b60405180910390f35b6101eb60046101e6903690614ba8565b610c8d565b6040516101f89190614e57565b60405180910390f35b341561020c57600080fd5b610221600461021c903690614c37565b610f7c565b60405161022e9190614e57565b60405180910390f35b341561024257600080fd5b61024a61104a565b6040516102579190614f4c565b60405180910390f35b341561026b57600080fd5b610280600461027b903690614c37565b611054565b005b341561028d57600080fd5b6102a2600461029d903690614af6565b6110b9565b6040516102af9190614e57565b60405180910390f35b34156102c357600080fd5b6102cb6116c7565b6040516102d89190614f4c565b60405180910390f35b34156102ec57600080fd5b61030160046102fc903690614c37565b6116d1565b005b341561030e57600080fd5b610316611736565b6040516103239190614d5f565b60405180910390f35b341561033757600080fd5b61033f61175b565b005b341561034c57600080fd5b610361600461035c903690614c60565b61182d565b60405161036e9190614e57565b60405180910390f35b341561038257600080fd5b6103976004610392903690614a61565b611fe9565b005b34156103a457600080fd5b6103b960046103b4903690614c37565b611fee565b6040516103c69190614e57565b60405180910390f35b34156103da57600080fd5b6103ef60046103ea903690614c37565b612598565b005b34156103fc57600080fd5b610411600461040c903690614c37565b6125fd565b60405161041e9190614e72565b60405180910390f35b341561043257600080fd5b6104476004610442903690614c37565b6126ec565b6040516104549190614f4c565b60405180910390f35b341561046857600080fd5b61047d6004610478903690614a38565b61297e565b005b341561048a57600080fd5b61049f600461049a903690614c0d565b612ad3565b6040516104ac9190614e57565b60405180910390f35b600080600080640100000000028760006002811015156104d157fe5b602002015163ffffffff1916141515156104ea57600080fd5b600454341415156104fa57600080fd5b866040518082600260200280838360005b8381101561052657808201518184015260208101905061050b565b5050505090500191505060405180910390209150600160009054906101000a900473ffffffffffffffffffffffffffffffffffffffff1673ffffffffffffffffffffffffffffffffffffffff16631dbd9d9183866040518363ffffffff167c01000000000000000000000000000000000000000000000000000000000281526004016105b3929190614e8d565b600060405180830381600087803b15156105cc57600080fd5b5af115156105d957600080fd5b505050600160009054906101000a900473ffffffffffffffffffffffffffffffffffffffff1673ffffffffffffffffffffffffffffffffffffffff16633541fd53836004546040518363ffffffff167c0100000000000000000000000000000000000000000000000000000000028152600401610657929190614f08565b600060405180830381600087803b151561067057600080fd5b5af1151561067d57600080fd5b505050600160009054906101000a900473ffffffffffffffffffffffffffffffffffffffff1673ffffffffffffffffffffffffffffffffffffffff166108fc6004549081150290604051600060405180830381858888f1935050505015156106e457600080fd5b6000600160009054906101000a900473ffffffffffffffffffffffffffffffffffffffff1673ffffffffffffffffffffffffffffffffffffffff166303a53d6b886040518263ffffffff167c010000000000000000000000000000000000000000000000000000000002815260040161075d9190614f4c565b602060405180830381600087803b151561077657600080fd5b5af1151561078357600080fd5b5050506040518051905014151561079957600080fd5b600160009054906101000a900473ffffffffffffffffffffffffffffffffffffffff1673ffffffffffffffffffffffffffffffffffffffff1663e3100d1e87436040518363ffffffff167c0100000000000000000000000000000000000000000000000000000000028152600401610812929190614fd5565b600060405180830381600087803b151561082b57600080fd5b5af1151561083857600080fd5b505050600160009054906101000a900473ffffffffffffffffffffffffffffffffffffffff1673ffffffffffffffffffffffffffffffffffffffff16630b62839587896040518363ffffffff167c01000000000000000000000000000000000000000000000000000000000281526004016108b4929190614fac565b600060405180830381600087803b15156108cd57600080fd5b5af115156108da57600080fd5b5050506000851115610a3657600160009054906101000a900473ffffffffffffffffffffffffffffffffffffffff1673ffffffffffffffffffffffffffffffffffffffff1663dc3f775887876040518363ffffffff167c010000000000000000000000000000000000000000000000000000000002815260040161095f929190614fd5565b600060405180830381600087803b151561097857600080fd5b5af1151561098557600080fd5b505050610991856126ec565b9050600160009054906101000a900473ffffffffffffffffffffffffffffffffffffffff1673ffffffffffffffffffffffffffffffffffffffff1663a47bd49687836040518363ffffffff167c0100000000000000000000000000000000000000000000000000000000028152600401610a0c929190614fd5565b600060405180830381600087803b1515610a2557600080fd5b5af11515610a3257600080fd5b5050505b600160009054906101000a900473ffffffffffffffffffffffffffffffffffffffff1673ffffffffffffffffffffffffffffffffffffffff166340c10f1985886040518363ffffffff167c0100000000000000000000000000000000000000000000000000000000028152600401610aaf929190614d7a565b600060405180830381600087803b1515610ac857600080fd5b5af11515610ad557600080fd5b5050507f9e2bcf76790c190a87d6418084ca9f7d35a8166a4acbecc10088b106360fd38b878786600454858a604051610b1396959493929190614df6565b60405180910390a1600192505050949350505050565b60008060009054906101000a900473ffffffffffffffffffffffffffffffffffffffff1673ffffffffffffffffffffffffffffffffffffffff163373ffffffffffffffffffffffffffffffffffffffff16141515610b8657600080fd5b8173ffffffffffffffffffffffffffffffffffffffff166370a08231306040518263ffffffff167c0100000000000000000000000000000000000000000000000000000000028152600401610bdb9190614f31565b602060405180830381600087803b1515610bf457600080fd5b5af11515610c0157600080fd5b505050604051805190509050610c596000809054906101000a900473ffffffffffffffffffffffffffffffffffffffff16828473ffffffffffffffffffffffffffffffffffffffff16612b069092919063ffffffff16565b5050565b6000610c67614590565b610c7083612b9a565b9050610c7b81612ad3565b915050919050565b6000600554905090565b6000808273ffffffffffffffffffffffffffffffffffffffff1614151515610cb457600080fd5b60045434141515610cc457600080fd5b6000600160009054906101000a900473ffffffffffffffffffffffffffffffffffffffff1673ffffffffffffffffffffffffffffffffffffffff16638784ea96856040518263ffffffff167c0100000000000000000000000000000000000000000000000000000000028152600401610d3d9190614e72565b602060405180830381600087803b1515610d5657600080fd5b5af11515610d6357600080fd5b5050506040518051905073ffffffffffffffffffffffffffffffffffffffff16141515610d8f57600080fd5b600160009054906101000a900473ffffffffffffffffffffffffffffffffffffffff1673ffffffffffffffffffffffffffffffffffffffff16631dbd9d9184846040518363ffffffff167c0100000000000000000000000000000000000000000000000000000000028152600401610e08929190614e8d565b600060405180830381600087803b1515610e2157600080fd5b5af11515610e2e57600080fd5b505050600160009054906101000a900473ffffffffffffffffffffffffffffffffffffffff1673ffffffffffffffffffffffffffffffffffffffff16633541fd53846004546040518363ffffffff167c0100000000000000000000000000000000000000000000000000000000028152600401610eac929190614f08565b600060405180830381600087803b1515610ec557600080fd5b5af11515610ed257600080fd5b505050600160009054906101000a900473ffffffffffffffffffffffffffffffffffffffff1673ffffffffffffffffffffffffffffffffffffffff166108fc6004549081150290604051600060405180830381858888f193505050501515610f3957600080fd5b7f4c0f83654ac2972673e4d81058f833de298389df1dce04cc2db9f231b907d5ff8383604051610f6a929190614e8d565b60405180910390a16001905092915050565b600080600160009054906101000a900473ffffffffffffffffffffffffffffffffffffffff1673ffffffffffffffffffffffffffffffffffffffff166303a53d6b846040518263ffffffff167c0100000000000000000000000000000000000000000000000000000000028152600401610ff69190614f4c565b602060405180830381600087803b151561100f57600080fd5b5af1151561101c57600080fd5b505050604051805190509050600081141561103a5760009150611044565b6005548143031191505b50919050565b6000600354905090565b6000809054906101000a900473ffffffffffffffffffffffffffffffffffffffff1673ffffffffffffffffffffffffffffffffffffffff163373ffffffffffffffffffffffffffffffffffffffff161415156110af57600080fd5b8060058190555050565b600080600080600080640100000000028860006002811015156110d857fe5b602002015163ffffffff1916141515156110f157600080fd5b876040518082600260200280838360005b8381101561111d578082015181840152602081019050611102565b5050505090500191505060405180910390209350600160009054906101000a900473ffffffffffffffffffffffffffffffffffffffff1673ffffffffffffffffffffffffffffffffffffffff16638784ea96856040518263ffffffff167c01000000000000000000000000000000000000000000000000000000000281526004016111a89190614e72565b602060405180830381600087803b15156111c157600080fd5b5af115156111ce57600080fd5b5050506040518051905092506000600160009054906101000a900473ffffffffffffffffffffffffffffffffffffffff1673ffffffffffffffffffffffffffffffffffffffff166303a53d6b896040518263ffffffff167c01000000000000000000000000000000000000000000000000000000000281526004016112539190614f4c565b602060405180830381600087803b151561126c57600080fd5b5af1151561127957600080fd5b5050506040518051905014151561128f57600080fd5b600160009054906101000a900473ffffffffffffffffffffffffffffffffffffffff1673ffffffffffffffffffffffffffffffffffffffff1663e3100d1e88436040518363ffffffff167c0100000000000000000000000000000000000000000000000000000000028152600401611308929190614fd5565b600060405180830381600087803b151561132157600080fd5b5af1151561132e57600080fd5b505050600160009054906101000a900473ffffffffffffffffffffffffffffffffffffffff1673ffffffffffffffffffffffffffffffffffffffff16630b628395888a6040518363ffffffff167c01000000000000000000000000000000000000000000000000000000000281526004016113aa929190614fac565b600060405180830381600087803b15156113c357600080fd5b5af115156113d057600080fd5b505050600086111561152c57600160009054906101000a900473ffffffffffffffffffffffffffffffffffffffff1673ffffffffffffffffffffffffffffffffffffffff1663dc3f775888886040518363ffffffff167c0100000000000000000000000000000000000000000000000000000000028152600401611455929190614fd5565b600060405180830381600087803b151561146e57600080fd5b5af1151561147b57600080fd5b505050611487866126ec565b9150600160009054906101000a900473ffffffffffffffffffffffffffffffffffffffff1673ffffffffffffffffffffffffffffffffffffffff1663a47bd49688846040518363ffffffff167c0100000000000000000000000000000000000000000000000000000000028152600401611502929190614fd5565b600060405180830381600087803b151561151b57600080fd5b5af1151561152857600080fd5b5050505b600160009054906101000a900473ffffffffffffffffffffffffffffffffffffffff1673ffffffffffffffffffffffffffffffffffffffff166340c10f1984896040518363ffffffff167c01000000000000000000000000000000000000000000000000000000000281526004016115a5929190614d7a565b600060405180830381600087803b15156115be57600080fd5b5af115156115cb57600080fd5b505050600160009054906101000a900473ffffffffffffffffffffffffffffffffffffffff1673ffffffffffffffffffffffffffffffffffffffff1663e765c122856040518263ffffffff167c01000000000000000000000000000000000000000000000000000000000281526004016116459190614e72565b602060405180830381600087803b151561165e57600080fd5b5af1151561166b57600080fd5b5050506040518051905090507f9e2bcf76790c190a87d6418084ca9f7d35a8166a4acbecc10088b106360fd38b88888584868b6040516116b096959493929190614df6565b60405180910390a160019450505050509392505050565b6000600454905090565b6000809054906101000a900473ffffffffffffffffffffffffffffffffffffffff1673ffffffffffffffffffffffffffffffffffffffff163373ffffffffffffffffffffffffffffffffffffffff1614151561172c57600080fd5b8060038190555050565b6000809054906101000a900473ffffffffffffffffffffffffffffffffffffffff1681565b6000809054906101000a900473ffffffffffffffffffffffffffffffffffffffff1673ffffffffffffffffffffffffffffffffffffffff163373ffffffffffffffffffffffffffffffffffffffff161415156117b657600080fd5b6000809054906101000a900473ffffffffffffffffffffffffffffffffffffffff1673ffffffffffffffffffffffffffffffffffffffff166108fc3073ffffffffffffffffffffffffffffffffffffffff16319081150290604051600060405180830381858888f19350505050151561182b57fe5b565b600080611838614644565b611840614590565b60008060008060019650600160009054906101000a900473ffffffffffffffffffffffffffffffffffffffff1673ffffffffffffffffffffffffffffffffffffffff166362f9acf98b6040518263ffffffff167c01000000000000000000000000000000000000000000000000000000000281526004016118c19190614f4c565b6040805180830381600087803b15156118d957600080fd5b5af115156118e657600080fd5b50505060405180604001604052955060006401000000000286600060028110151561190d57fe5b602002015163ffffffff19161415151561192657600080fd5b61192f86612b9a565b945061193a85612ad3565b15611aac57600160009054906101000a900473ffffffffffffffffffffffffffffffffffffffff1673ffffffffffffffffffffffffffffffffffffffff1663c53b4bf98b6040518263ffffffff167c01000000000000000000000000000000000000000000000000000000000281526004016119b69190614f4c565b602060405180830381600087803b15156119cf57600080fd5b5af115156119dc57600080fd5b50505060405180519050935084606001511515600060016004879060020a90041611151514611a0c576000611a0e565b865b965084608001511515600060016003879060020a90041611151514611a34576000611a36565b865b96508460a001511515600060016002879060020a90041611151514611a5c576000611a5e565b865b96508460c0015115156000600180879060020a90041611151514611a83576000611a85565b865b96508460e00151151560006001861611151514611aa3576000611aa5565b865b9650611ab1565b600096505b86151515611abe57600080fd5b600160009054906101000a900473ffffffffffffffffffffffffffffffffffffffff1673ffffffffffffffffffffffffffffffffffffffff16630e8310d68b6040518263ffffffff167c0100000000000000000000000000000000000000000000000000000000028152600401611b359190614f4c565b600060405180830381600087803b1515611b4e57600080fd5b5af11515611b5b57600080fd5b505050856040518082600260200280838360005b83811015611b8a578082015181840152602081019050611b6f565b5050505090500191505060405180910390209250611ba78a610f7c565b1515611d0157600160009054906101000a900473ffffffffffffffffffffffffffffffffffffffff1673ffffffffffffffffffffffffffffffffffffffff1663e765c122846040518263ffffffff167c0100000000000000000000000000000000000000000000000000000000028152600401611c249190614e72565b602060405180830381600087803b1515611c3d57600080fd5b5af11515611c4a57600080fd5b505050604051805190509150600160009054906101000a900473ffffffffffffffffffffffffffffffffffffffff1673ffffffffffffffffffffffffffffffffffffffff16631cc1472d8a846040518363ffffffff167c0100000000000000000000000000000000000000000000000000000000028152600401611ccf929190614d7a565b602060405180830381600087803b1515611ce857600080fd5b5af11515611cf557600080fd5b50505060405180519050505b600160009054906101000a900473ffffffffffffffffffffffffffffffffffffffff1673ffffffffffffffffffffffffffffffffffffffff166364e779b18b6040518263ffffffff167c0100000000000000000000000000000000000000000000000000000000028152600401611d789190614f4c565b600060405180830381600087803b1515611d9157600080fd5b5af11515611d9e57600080fd5b505050600160009054906101000a900473ffffffffffffffffffffffffffffffffffffffff1673ffffffffffffffffffffffffffffffffffffffff16631dbd9d918460006040518363ffffffff167c0100000000000000000000000000000000000000000000000000000000028152600401611e1b929190614eb6565b600060405180830381600087803b1515611e3457600080fd5b5af11515611e4157600080fd5b505050600160009054906101000a900473ffffffffffffffffffffffffffffffffffffffff1673ffffffffffffffffffffffffffffffffffffffff16633541fd538460006040518363ffffffff167c0100000000000000000000000000000000000000000000000000000000028152600401611ebe929190614edf565b600060405180830381600087803b1515611ed757600080fd5b5af11515611ee457600080fd5b505050611ef08a612e9d565b600160009054906101000a900473ffffffffffffffffffffffffffffffffffffffff1673ffffffffffffffffffffffffffffffffffffffff16638784ea96846040518263ffffffff167c0100000000000000000000000000000000000000000000000000000000028152600401611f679190614e72565b602060405180830381600087803b1515611f8057600080fd5b5af11515611f8d57600080fd5b5050506040518051905090507f23e709ab80a4bee9454ba0d08c0b669d684531b4ec766524c43abd788cc3ca76868b838c86604051611fd0959493929190614da3565b60405180910390a1600197505050505050505092915050565b600080fd5b6000611ff8614644565b600080600080600160009054906101000a900473ffffffffffffffffffffffffffffffffffffffff1673ffffffffffffffffffffffffffffffffffffffff166362f9acf9886040518263ffffffff167c01000000000000000000000000000000000000000000000000000000000281526004016120759190614f4c565b6040805180830381600087803b151561208d57600080fd5b5af1151561209a57600080fd5b5050506040518060400160405294506000640100000000028560006002811015156120c157fe5b602002015163ffffffff1916141515156120da57600080fd5b846040518082600260200280838360005b838110156121065780820151818401526020810190506120eb565b5050505090500191505060405180910390209350600160009054906101000a900473ffffffffffffffffffffffffffffffffffffffff1673ffffffffffffffffffffffffffffffffffffffff1663e765c122856040518263ffffffff167c01000000000000000000000000000000000000000000000000000000000281526004016121919190614e72565b602060405180830381600087803b15156121aa57600080fd5b5af115156121b757600080fd5b505050604051805190509250600083141515156121d357600080fd5b6121dc87610f7c565b15156121e757600080fd5b600160009054906101000a900473ffffffffffffffffffffffffffffffffffffffff1673ffffffffffffffffffffffffffffffffffffffff16633541fd538560006040518363ffffffff167c0100000000000000000000000000000000000000000000000000000000028152600401612261929190614edf565b600060405180830381600087803b151561227a57600080fd5b5af1151561228757600080fd5b50505061229387613197565b600160009054906101000a900473ffffffffffffffffffffffffffffffffffffffff1673ffffffffffffffffffffffffffffffffffffffff16638784ea96856040518263ffffffff167c010000000000000000000000000000000000000000000000000000000002815260040161230a9190614e72565b602060405180830381600087803b151561232357600080fd5b5af1151561233057600080fd5b505050604051805190509150600160009054906101000a900473ffffffffffffffffffffffffffffffffffffffff1673ffffffffffffffffffffffffffffffffffffffff16631c4b774b886040518263ffffffff167c01000000000000000000000000000000000000000000000000000000000281526004016123b39190614f4c565b602060405180830381600087803b15156123cc57600080fd5b5af115156123d957600080fd5b505050604051805190509050600260009054906101000a900473ffffffffffffffffffffffffffffffffffffffff1673ffffffffffffffffffffffffffffffffffffffff166340c10f1983836040518363ffffffff167c010000000000000000000000000000000000000000000000000000000002815260040161245e929190614d7a565b602060405180830381600087803b151561247757600080fd5b5af1151561248457600080fd5b50505060405180519050151561249957600080fd5b600160009054906101000a900473ffffffffffffffffffffffffffffffffffffffff1673ffffffffffffffffffffffffffffffffffffffff16631cc1472d83856040518363ffffffff167c0100000000000000000000000000000000000000000000000000000000028152600401612512929190614d7a565b602060405180830381600087803b151561252b57600080fd5b5af1151561253857600080fd5b50505060405180519050151561254d57600080fd5b7f0f6fbbd692b7cc84f71dd9524d2324b1a22fcc80e825463499f3cfb51b149c13878385846040516125829493929190614f67565b60405180910390a1600195505050505050919050565b6000809054906101000a900473ffffffffffffffffffffffffffffffffffffffff1673ffffffffffffffffffffffffffffffffffffffff163373ffffffffffffffffffffffffffffffffffffffff161415156125f357600080fd5b8060048190555050565b6000600160009054906101000a900473ffffffffffffffffffffffffffffffffffffffff1673ffffffffffffffffffffffffffffffffffffffff166362f9acf9836040518263ffffffff167c01000000000000000000000000000000000000000000000000000000000281526004016126769190614f4c565b6040805180830381600087803b151561268e57600080fd5b5af1151561269b57600080fd5b505050604051806040016040526040518082600260200280838360005b838110156126d35780820151818401526020810190506126b8565b5050505090500191505060405180910390209050919050565b600080600080600080600080600160009054906101000a900473ffffffffffffffffffffffffffffffffffffffff1673ffffffffffffffffffffffffffffffffffffffff1663785d8d716040518163ffffffff167c010000000000000000000000000000000000000000000000000000000002815260040160c060405180830381600087803b151561277d57600080fd5b5af1151561278a57600080fd5b50505060405180519060200180519060200180519060200180519060200180519060200180519050809750819850829950839a50849b50859c505050505050506000905060018060048b9060020a9004161415612823576128206128116001880161280360018b0160035461349190919063ffffffff16565b6134cc90919063ffffffff16565b826134e790919063ffffffff16565b90505b60018060038b9060020a9004161415612878576128756128666001870161285860018b0160035461349190919063ffffffff16565b6134cc90919063ffffffff16565b826134e790919063ffffffff16565b90505b60018060028b9060020a90041614156128cd576128ca6128bb600186016128ad60018b0160035461349190919063ffffffff16565b6134cc90919063ffffffff16565b826134e790919063ffffffff16565b90505b60018060018b9060020a90041614156129225761291f6129106001850161290260018b0160035461349190919063ffffffff16565b6134cc90919063ffffffff16565b826134e790919063ffffffff16565b90505b6001808a16141561296f5761296c61295d6001840161294f60018b0160035461349190919063ffffffff16565b6134cc90919063ffffffff16565b826134e790919063ffffffff16565b90505b80975050505050505050919050565b6000809054906101000a900473ffffffffffffffffffffffffffffffffffffffff1673ffffffffffffffffffffffffffffffffffffffff163373ffffffffffffffffffffffffffffffffffffffff161415156129d957600080fd5b600073ffffffffffffffffffffffffffffffffffffffff168173ffffffffffffffffffffffffffffffffffffffff1614151515612a1557600080fd5b8073ffffffffffffffffffffffffffffffffffffffff166000809054906101000a900473ffffffffffffffffffffffffffffffffffffffff1673ffffffffffffffffffffffffffffffffffffffff167f8be0079c531659141344cd1fd0a4f28419497f9722a3daafe3b4186f6b6457e060405160405180910390a3806000806101000a81548173ffffffffffffffffffffffffffffffffffffffff021916908373ffffffffffffffffffffffffffffffffffffffff16021790555050565b6000816000015115612ae85760009050612b01565b81602001511515612afc5760009050612b01565b600190505b919050565b8273ffffffffffffffffffffffffffffffffffffffff1663a9059cbb83836040518363ffffffff167c0100000000000000000000000000000000000000000000000000000000028152600401612b5d929190614d7a565b602060405180830381600087803b1515612b7657600080fd5b5af11515612b8357600080fd5b505050604051805190501515612b9557fe5b505050565b612ba2614590565b612baa614590565b600080600080600080886000600281101515612bc257fe5b602002015187610120019063ffffffff1916908163ffffffff191681525050886001600281101515612bf057fe5b602002015187610140019063ffffffff1916908163ffffffff191681525050600087610180019060ff16908160ff16815250506002876101a0019060ff16908160ff16815250506002876101c0019060ff16908160ff168152505060008760000190151590811515815250506000876020019015159081151581525050600187610160019060ff16908160ff16815250506ffffffffffffffe7ffdbfffffffffffff700100000000000000000000000000000000028761010001906fffffffffffffffffffffffffffffffff191690816fffffffffffffffffffffffffffffffff191681525050600091505b603c8260ff16108015612ced575085155b15612e5b57602087610180015160ff1610612d0d57866101400151612d14565b8661012001515b9050612d3681602089610180015160ff16811515612d2e57fe5b066020613505565b9450612d4185613549565b8094508195505050612d5285613588565b15955085158015612d66575060088460ff16105b8015612d75575060088360ff16105b8015612d85575060008460ff1610155b8015612d95575060008360ff1610155b15612e4e57612da5878585613599565b965060018761018001510187610180019060ff16908160ff1681525050866000015115612e4d576000876000019015159081151581525050600160ff1687610160015160ff161415612e0a57600287610160019060ff16908160ff1681525050612e1f565b600187610160019060ff16908160ff16815250505b612e2a878585613599565b9650866000015115612e4c576001876000019015159081151581525050600195505b5b5b8180600101925050612cdc565b86600001511515612e8e576000876000019015159081151581525050612e808761389b565b9650612e8b87613bda565b96505b86975050505050505050919050565b6000806000806000806000600160009054906101000a900473ffffffffffffffffffffffffffffffffffffffff1673ffffffffffffffffffffffffffffffffffffffff1663785d8d716040518163ffffffff167c010000000000000000000000000000000000000000000000000000000002815260040160c060405180830381600087803b1515612f2d57600080fd5b5af11515612f3a57600080fd5b50505060405180519060200180519060200180519060200180519060200180519060200180519050809750819850829950839a50849b50859c50505050505050600160009054906101000a900473ffffffffffffffffffffffffffffffffffffffff1673ffffffffffffffffffffffffffffffffffffffff1663c53b4bf9896040518263ffffffff167c0100000000000000000000000000000000000000000000000000000000028152600401612ff19190614f4c565b602060405180830381600087803b151561300a57600080fd5b5af1151561301757600080fd5b50505060405180519050905061304a60008211613035576000613038565b60015b60ff1688613ed290919063ffffffff16565b965061306a60016004839060020a90041687613ed290919063ffffffff16565b955061308a60016003839060020a90041686613ed290919063ffffffff16565b94506130aa60016002839060020a90041685613ed290919063ffffffff16565b93506130c9600180839060020a90041684613ed290919063ffffffff16565b92506130e16001821683613ed290919063ffffffff16565b9150600160009054906101000a900473ffffffffffffffffffffffffffffffffffffffff1673ffffffffffffffffffffffffffffffffffffffff16638b1b2ba88888888888886040518763ffffffff167c010000000000000000000000000000000000000000000000000000000002815260040161316496959493929190614ffe565b600060405180830381600087803b151561317d57600080fd5b5af1151561318a57600080fd5b5050505050505050505050565b6000806000806000806000600160009054906101000a900473ffffffffffffffffffffffffffffffffffffffff1673ffffffffffffffffffffffffffffffffffffffff1663785d8d716040518163ffffffff167c010000000000000000000000000000000000000000000000000000000002815260040160c060405180830381600087803b151561322757600080fd5b5af1151561323457600080fd5b50505060405180519060200180519060200180519060200180519060200180519060200180519050809750819850829950839a50849b50859c50505050505050600160009054906101000a900473ffffffffffffffffffffffffffffffffffffffff1673ffffffffffffffffffffffffffffffffffffffff1663c53b4bf9896040518263ffffffff167c01000000000000000000000000000000000000000000000000000000000281526004016132eb9190614f4c565b602060405180830381600087803b151561330457600080fd5b5af1151561331157600080fd5b5050506040518051905090506133446000821161332f576000613332565b60015b60ff16886134e790919063ffffffff16565b965061336460016004839060020a900416876134e790919063ffffffff16565b955061338460016003839060020a900416866134e790919063ffffffff16565b94506133a460016002839060020a900416856134e790919063ffffffff16565b93506133c3600180839060020a900416846134e790919063ffffffff16565b92506133db60018216836134e790919063ffffffff16565b9150600160009054906101000a900473ffffffffffffffffffffffffffffffffffffffff1673ffffffffffffffffffffffffffffffffffffffff16638b1b2ba88888888888886040518763ffffffff167c010000000000000000000000000000000000000000000000000000000002815260040161345e96959493929190614ffe565b600060405180830381600087803b151561347757600080fd5b5af1151561348457600080fd5b5050505050505050505050565b60008060008414156134a657600091506134c5565b82840290508284828115156134b757fe5b041415156134c157fe5b8091505b5092915050565b60008082848115156134da57fe5b0490508091505092915050565b60008082840190508381101515156134fb57fe5b8091505092915050565b6000806000607f64010000000002915060078086026007860203039050818160ff168763ffffffff19169060020a9004166401000000009004925050509392505050565b60008060008060408503945060088560ff1681151561356457fe5b069150600882860360ff1681151561357857fe5b0490508181935093505050915091565b600060408260ff1610159050919050565b6135a1614590565b6135a9614672565b600080600080600080600080600360ff166135ca8e61010001518e8e613eeb565b60ff161415156135ed5760018d60000190151590811515815250508c995061388b565b6135f88d8d8d613f61565b809950819a50505060008860ff1614156136255760018d60000190151590811515815250508c995061388b565b60009150600090505b8760ff168160ff16101561378b5760009650600095506136658d8a8360ff1660088110151561365957fe5b60200201518e8e6142a0565b8097508198505050600092505b8560ff168360ff16101561377e5781151561368c57600191505b61369f61369a888589613505565b613549565b80955081965050506136bd8d61010001518e61016001518787614404565b8d61010001906fffffffffffffffffffffffffffffffff191690816fffffffffffffffffffffffffffffffff191681525050600260ff168d610160015160ff16141561373c5760018d6101c0018181510191509060ff16908160ff168152505060018d6101a0018181510391509060ff16908160ff1681525050613771565b60018d6101c0018181510391509060ff16908160ff168152505060018d6101a0018181510191509060ff16908160ff16815250505b8280600101935050613672565b808060010191505061362e565b811561382c576137a78d61010001518e61016001518e8e614404565b8d61010001906fffffffffffffffffffffffffffffffff191690816fffffffffffffffffffffffffffffffff191681525050600260ff168d610160015160ff16141561380c5760018d6101c0018181510191509060ff16908160ff1681525050613827565b60018d6101a0018181510191509060ff16908160ff16815250505b613845565b60018d60000190151590811515815250508c995061388b565b600160ff168d610160015160ff1614156138725760028d610160019060ff16908160ff1681525050613887565b60018d610160019060ff16908160ff16815250505b8c99505b5050505050505050509392505050565b6138a3614590565b6138ab6146a1565b60008060008060006138bb6146d0565b603c89610180015160ff1614156138e5576001896020019015159081151581525050889750613bce565b60009550600094505b60408560ff1610156139c7576139388961010001516008808860ff1681151561391357fe5b06880360ff1681151561392257fe5b0460088860ff1681151561393257fe5b06613eeb565b9350600360ff168460ff1614156139ba5760408051908101604052806008808860ff1681151561396457fe5b06880360ff1681151561397357fe5b0460ff1660ff16815260200160088760ff1681151561398e57fe5b0660ff1660ff16815250878760ff16603c811015156139a957fe5b602002018190525085806001019650505b84806001019550506138ee565b6000925060008660ff161115613b8b578861010001519150600094505b8560ff168560ff161080156139f7575082155b15613b5757868560ff16603c81101515613a0d57fe5b60200201519050600189610160019060ff16908160ff16815250506000896000019015159081151581525050818961010001906fffffffffffffffffffffffffffffffff191690816fffffffffffffffffffffffffffffffff191681525050613a9d89826000600281101515613a7f57fe5b6020020151836001600281101515613a9357fe5b6020020151613599565b985088600001511515613aaf57600192505b600289610160019060ff16908160ff16815250506000896000019015159081151581525050818961010001906fffffffffffffffffffffffffffffffff191690816fffffffffffffffffffffffffffffffff191681525050613b3889826000600281101515613b1a57fe5b6020020151836001600281101515613b2e57fe5b6020020151613599565b985088600001511515613b4a57600192505b84806001019550506139e4565b818961010001906fffffffffffffffffffffffffffffffff191690816fffffffffffffffffffffffffffffffff1916815250505b8215613ba7576001896000019015159081151581525050613bca565b600189602001901515908115158152505060008960000190151590811515815250505b8897505b50505050505050919050565b613be2614590565b60008060008060008060006001965060019550600194506001935060019250600091505b60088260ff16108015613c3657508680613c1d5750855b80613c255750845b80613c2d5750835b80613c355750825b5b15613e3b57600090505b60088160ff16108015613c7057508680613c575750855b80613c5f5750845b80613c675750835b80613c6f5750825b5b15613e2e57613c8b89610100015183600703836007036144d0565b6fffffffffffffffffffffffffffffffff1916613cae8a610100015184846144d0565b6fffffffffffffffffffffffffffffffff1916141515613ccd57600096505b613ce089610100015183836007036144d0565b6fffffffffffffffffffffffffffffffff1916613d038a610100015184846144d0565b6fffffffffffffffffffffffffffffffff1916141515613d2257600095505b613d3589610100015183600703836144d0565b6fffffffffffffffffffffffffffffffff1916613d588a610100015184846144d0565b6fffffffffffffffffffffffffffffffff1916141515613d7757600094505b613d8d89610100015182600703846007036144d0565b6fffffffffffffffffffffffffffffffff1916613db08a610100015184846144d0565b6fffffffffffffffffffffffffffffffff1916141515613dcf57600093505b613ddf89610100015182846144d0565b6fffffffffffffffffffffffffffffffff1916613e028a610100015184846144d0565b6fffffffffffffffffffffffffffffffff1916141515613e2157600092505b8080600101915050613c40565b8180600101925050613c06565b8680613e445750855b80613e4c5750845b80613e545750835b80613e5c5750825b15613ec35760018960400190151590811515815250508689606001901515908115158152505085896080019015159081151581525050848960a0019015159081151581525050838960c0019015159081151581525050828960e00190151590811515815250505b88975050505050505050919050565b6000828211151515613ee057fe5b818303905092915050565b6000806000613efa858561452c565b9150600370010000000000000000000000000000000002826fffffffffffffffffffffffffffffffff16876fffffffffffffffffffffffffffffffff19169060020a9004169050807001000000000000000000000000000000009004925050509392505050565b613f69614672565b6000613f73614672565b6000613f7d614672565b600080613f886146fa565b600080600096506101006040519081016040528060408051908101604052807fffffffffffffffffffffffffffffffffffffffffffffffffffffffffffffffff60000b60000b81526020016000800b60000b815250815260200160408051908101604052807fffffffffffffffffffffffffffffffffffffffffffffffffffffffffffffffff60000b60000b8152602001600160000b60000b815250815260200160408051908101604052806000800b60000b8152602001600160000b60000b81525081526020016040805190810160405280600160000b60000b8152602001600160000b60000b81525081526020016040805190810160405280600160000b60000b81526020016000800b60000b81525081526020016040805190810160405280600160000b60000b81526020017fffffffffffffffffffffffffffffffffffffffffffffffffffffffffffffffff60000b60000b815250815260200160408051908101604052806000800b60000b81526020017fffffffffffffffffffffffffffffffffffffffffffffffffffffffffffffffff60000b60000b815250815260200160408051908101604052807fffffffffffffffffffffffffffffffffffffffffffffffffffffffffffffffff60000b60000b81526020017fffffffffffffffffffffffffffffffffffffffffffffffffffffffffffffffff60000b60000b8152508152509550600090505b60088160ff16101561428a57858160ff166008811015156141b457fe5b602002015192508260006002811015156141ca57fe5b60200201518c0193508260016002811015156141e257fe5b60200201518b01945060078560000b1380614200575060008560000b125b8061420e575060078460000b135b8061421c575060008460000b125b151561427d576142328d61010001518587613eeb565b91508c610160015160ff168260ff1614151561427c57600360ff168260ff1614151561427b5782888860ff1660088110151561426a57fe5b602002018190525086806001019750505b5b5b8080600101915050614197565b8787995099505050505050505050935093915050565b60008060008060008060008060008060009650600160ff168e610160015160ff1614156142d057600295506142d5565b600195505b60009450600190505b60098160ff1610156143ed578415156143e0578b8d600060028110151561430157fe5b602002015182020193508a8d600160028110151561431b57fe5b6020020151820201925060078460000b138061433a575060008460000b125b80614348575060078360000b135b80614356575060008360000b125b1561436c576000975060009650600194506143df565b61437c8e61010001518585613eeb565b91508560ff168260ff1614156143a55761439888888686614548565b80985081995050506143de565b8d610160015160ff168260ff161480156143c2575060018160ff16115b156143d057600194506143dd565b6000975060009650600194505b5b5b5b80806001019150506142de565b878799509950505050505050505094509492505050565b600080600060078560ff16111561441a57600080fd5b60078460ff16111561442b57600080fd5b614435858561452c565b9150816fffffffffffffffffffffffffffffffff166003700100000000000000000000000000000000026fffffffffffffffffffffffffffffffff19169060020a02905086818818169650816fffffffffffffffffffffffffffffffff168660ff16700100000000000000000000000000000000026fffffffffffffffffffffffffffffffff19169060020a02871792505050949350505050565b6000806144dd848461452c565b9050600370010000000000000000000000000000000002816fffffffffffffffffffffffffffffffff16866fffffffffffffffffffffffffffffffff19169060020a9004169150509392505050565b600060026001838560080201016040030260ff16905092915050565b600080600060406008850286010160ff1664010000000002905060078763ffffffff19169060020a029650808717965085806001019650508686925092505094509492505050565b6101e06040519081016040528060001515815260200160001515815260200160001515815260200160001515815260200160001515815260200160001515815260200160001515815260200160001515815260200160006fffffffffffffffffffffffffffffffff19168152602001600063ffffffff19168152602001600063ffffffff19168152602001600060ff168152602001600060ff168152602001600060ff168152602001600060ff1681525090565b60408051908101604052806002905b600063ffffffff19168152602001906001900390816146535790505090565b610200604051908101604052806008905b61468b614723565b8152602001906001900390816146835790505090565b610f0060405190810160405280603c905b6146ba61474c565b8152602001906001900390816146b25790505090565b60408051908101604052806002905b600060ff168152602001906001900390816146df5790505090565b60408051908101604052806002905b6000800b8152602001906001900390816147095790505090565b60408051908101604052806002905b6000800b8152602001906001900390816147325790505090565b60408051908101604052806002905b600060ff1681526020019060019003908161475b5790505090565b6000614782823561513c565b905092915050565b600082601f830112151561479d57600080fd5b60026147b06147ab8261508c565b61505f565b915081838560208402820111156147c657600080fd5b60005b838110156147f657816147dc8882614828565b8452602084019350602083019250506001810190506147c9565b5050505092915050565b600061480c823561515c565b905092915050565b60006148208235615168565b905092915050565b60006148348235615194565b905092915050565b600061484882356151c0565b905092915050565b60008083601f840112151561486457600080fd5b8235905067ffffffffffffffff81111561487d57600080fd5b60208301915083600182028301111561489557600080fd5b9250929050565b60006148a882356151ca565b905092915050565b60006101e082840312156148c357600080fd5b6148ce6101e061505f565b905060006148de84828501614800565b60008301525060206148f284828501614800565b602083015250604061490684828501614800565b604083015250606061491a84828501614800565b606083015250608061492e84828501614800565b60808301525060a061494284828501614800565b60a08301525060c061495684828501614800565b60c08301525060e061496a84828501614800565b60e08301525061010061497f84828501614814565b6101008301525061012061499584828501614828565b610120830152506101406149ab84828501614828565b610140830152506101606149c184828501614a24565b610160830152506101806149d784828501614a24565b610180830152506101a06149ed84828501614a24565b6101a0830152506101c0614a0384828501614a24565b6101c08301525092915050565b6000614a1c82356151dc565b905092915050565b6000614a3082356151e6565b905092915050565b600060208284031215614a4a57600080fd5b6000614a5884828501614776565b91505092915050565b60008060008060608587031215614a7757600080fd5b6000614a8587828801614776565b9450506020614a9687828801614a10565b935050604085013567ffffffffffffffff811115614ab357600080fd5b614abf87828801614850565b925092505092959194509250565b600060408284031215614adf57600080fd5b6000614aed8482850161478a565b91505092915050565b600080600060808486031215614b0b57600080fd5b6000614b198682870161478a565b9350506040614b2a86828701614a10565b9250506060614b3b86828701614a10565b9150509250925092565b60008060008060a08587031215614b5b57600080fd5b6000614b698782880161478a565b9450506040614b7a87828801614a10565b9350506060614b8b87828801614a10565b9250506080614b9c87828801614776565b91505092959194509250565b60008060408385031215614bbb57600080fd5b6000614bc98582860161483c565b9250506020614bda85828601614776565b9150509250929050565b600060208284031215614bf657600080fd5b6000614c048482850161489c565b91505092915050565b60006101e08284031215614c2057600080fd5b6000614c2e848285016148b0565b91505092915050565b600060208284031215614c4957600080fd5b6000614c5784828501614a10565b91505092915050565b60008060408385031215614c7357600080fd5b6000614c8185828601614a10565b9250506020614c9285828601614776565b9150509250929050565b614ca5816150d0565b82525050565b614cb4816150b8565b614cbd826150ae565b60005b82811015614cef57614cd3858351614d05565b614cdc826150c3565b9150602085019450600181019050614cc0565b5050505050565b614cff816150f0565b82525050565b614d0e816150fc565b82525050565b614d1d81615128565b82525050565b614d2c816151f3565b82525050565b614d3b81615205565b82525050565b614d4a81615217565b82525050565b614d5981615132565b82525050565b6000602082019050614d746000830184614c9c565b92915050565b6000604082019050614d8f6000830185614c9c565b614d9c6020830184614d50565b9392505050565b600060c082019050614db86000830188614cab565b614dc56040830187614d50565b614dd26060830186614c9c565b614ddf6080830185614c9c565b614dec60a0830184614d50565b9695505050505050565b600060e082019050614e0b6000830189614cab565b614e186040830188614d50565b614e256060830187614c9c565b614e326080830186614d50565b614e3f60a0830185614d50565b614e4c60c0830184614d50565b979650505050505050565b6000602082019050614e6c6000830184614cf6565b92915050565b6000602082019050614e876000830184614d14565b92915050565b6000604082019050614ea26000830185614d14565b614eaf6020830184614c9c565b9392505050565b6000604082019050614ecb6000830185614d14565b614ed86020830184614d32565b9392505050565b6000604082019050614ef46000830185614d14565b614f016020830184614d41565b9392505050565b6000604082019050614f1d6000830185614d14565b614f2a6020830184614d50565b9392505050565b6000602082019050614f466000830184614d23565b92915050565b6000602082019050614f616000830184614d50565b92915050565b6000608082019050614f7c6000830187614d50565b614f896020830186614c9c565b614f966040830185614d50565b614fa36060830184614d50565b95945050505050565b6000606082019050614fc16000830185614d50565b614fce6020830184614cab565b9392505050565b6000604082019050614fea6000830185614d50565b614ff76020830184614d50565b9392505050565b600060c0820190506150136000830189614d50565b6150206020830188614d50565b61502d6040830187614d50565b61503a6060830186614d50565b6150476080830185614d50565b61505460a0830184614d50565b979650505050505050565b6000604051905081810181811067ffffffffffffffff8211171561508257600080fd5b8060405250919050565b600067ffffffffffffffff8211156150a357600080fd5b602082029050919050565b6000819050919050565b600060029050919050565b6000602082019050919050565b600073ffffffffffffffffffffffffffffffffffffffff82169050919050565b60008115159050919050565b60007fffffffffffffffffffffffffffffffffffffffffffffffffffffffff0000000082169050919050565b6000819050919050565b6000819050919050565b600073ffffffffffffffffffffffffffffffffffffffff82169050919050565b60008115159050919050565b60007fffffffffffffffffffffffffffffffff0000000000000000000000000000000082169050919050565b60007fffffffffffffffffffffffffffffffffffffffffffffffffffffffff0000000082169050919050565b6000819050919050565b60006151d5826150d0565b9050919050565b6000819050919050565b600060ff82169050919050565b60006151fe826150d0565b9050919050565b6000615210826150d0565b9050919050565b600061522282615132565b90509190505600a265627a7a72305820f1fd93e48d2f9e8b1e2e89b8453edaf729d3ba0ff47349814eb9d26836f6874f6c6578706572696d656e74616cf50037",
  "source": "pragma solidity ^0.4.18;\npragma experimental ABIEncoderV2;\n\n/**\n * The CloversController is replaceable endpoint for minting and unminting Clovers.sol and ClubToken.sol\n */\n\nimport \"./Reversi.sol\";\nimport \"./IClovers.sol\";\nimport \"./helpers/IMintable.sol\";\nimport \"./ICloversController.sol\";\nimport \"zeppelin-solidity/contracts/ownership/HasNoTokens.sol\";\nimport \"zeppelin-solidity/contracts/ownership/HasNoEther.sol\";\nimport \"zeppelin-solidity/contracts/math/SafeMath.sol\";\n\n\ncontract CloversController is ICloversController, HasNoTokens, HasNoEther {\n    event cloverCommitted(bytes32 movesHash, address owner);\n    event cloverClaimed(bytes28[2] moves, uint256 tokenId, address owner, uint stake, uint reward, uint256 symmetries);\n    event stakeAndRewardRetrieved(uint256 tokenId, address owner, uint stake, uint reward);\n    event cloverChallenged(bytes28[2] moves, uint256 tokenId, address owner, address challenger, uint stake);\n\n    using SafeMath for uint256;\n\n    address clovers;\n    address clubToken;\n\n    uint256 payMultiplier;\n    uint256 stakeAmount;\n    uint256 stakePeriod;\n\n    function CloversController(address _clovers, address _clubToken) public {\n        clovers = _clovers;\n        clubToken = _clubToken;\n    }    \n\n    /**\n    * @dev Gets the current staking amount needed to claim a Clover.\n    * @return A uint256 value of how much stake is needed.\n    */\n    function currentStakeAmount() public constant returns (uint256) {\n        return stakeAmount;\n    }\n    /**\n    * @dev Gets the current staking period needed to verify a Clover.\n    * @return A uint256 value of stake period in seconds.\n    */\n    function currentStakePeriod() public constant returns (uint256) {\n        return stakePeriod;\n    }\n    /**\n    * @dev Gets the current staking period needed to verify a Clover.\n    * @return A uint256 value of stake period in seconds.\n    */\n    function getMultiplier() public constant returns (uint256) {\n        return payMultiplier;\n    }\n    /**\n    * @dev Gets the current staking period needed to verify a Clover.\n    * @return A uint256 value of stake period in seconds.\n    */\n    function getMovesHash(uint _tokenId) public constant returns (bytes32) {\n        return keccak256(IClovers(clovers).getCloverMoves(_tokenId));\n    }\n    /**\n    * @dev Checks whether the game is valid.\n    * @param moves The moves needed to play validate the game.\n    * @return A boolean representing whether or not the game is valid.\n    */\n    function isValid(bytes28[2] moves) public constant returns (bool) {\n        Reversi.Game memory game = Reversi.playGame(moves);\n        return isValidGame(game);\n    }\n    /**\n    * @dev Checks whether the game is valid.\n    * @param game The pre-played game.\n    * @return A boolean representing whether or not the game is valid.\n    */\n    function isValidGame(Reversi.Game game) public pure returns (bool) {\n        if (game.error) return false;\n        if (!game.complete) return false;\n        return true;\n    }\n    /**\n    * @dev Checks whether the game has passed the verification period.\n    * @param _tokenId The board being checked.\n    * @return A boolean representing whether or not the game has been verified.\n    */\n    function isVerified(uint256 _tokenId) public constant returns (bool) {\n        uint256 _blockMinted = IClovers(clovers).getBlockMinted(_tokenId);\n        if(_blockMinted == 0) return false;\n        // require(block.number > _blockMinted);\n        return (block.number - _blockMinted) > stakePeriod;\n    }\n    /**\n    * @dev Calculates the reward of the board.\n    * @param _symmetries symmetries saved as a uint256 value like 00010101 where bits represent symmetry types.\n    * @return A uint256 representing the reward that would be returned for claiming the board.\n    */\n    function calculateReward(uint256 _symmetries) public constant returns (uint256) {\n        uint256 Symmetricals;\n        uint256 RotSym;\n        uint256 Y0Sym;\n        uint256 X0Sym;\n        uint256 XYSym;\n        uint256 XnYSym;\n        (Symmetricals,\n        RotSym,\n        Y0Sym,\n        X0Sym,\n        XYSym,\n        XnYSym) = IClovers(clovers).getAllSymmetries();\n        uint256 base = 0;\n        if (_symmetries >> 4 & 1 == 1) base = base.add(payMultiplier.mul(Symmetricals + 1).div(RotSym + 1));\n        if (_symmetries >> 3 & 1 == 1) base = base.add(payMultiplier.mul(Symmetricals + 1).div(Y0Sym + 1));\n        if (_symmetries >> 2 & 1 == 1) base = base.add(payMultiplier.mul(Symmetricals + 1).div(X0Sym + 1));\n        if (_symmetries >> 1 & 1 == 1) base = base.add(payMultiplier.mul(Symmetricals + 1).div(XYSym + 1));\n        if (_symmetries & 1 == 1) base = base.add(payMultiplier.mul(Symmetricals + 1).div(XnYSym + 1));\n        return base;\n    }\n\n    /**\n    * @dev Claim the Clover without a commit or reveal.\n    * @param moves The moves that make up the Clover reversi game.\n    * @param _tokenId The board that results from the moves.\n    * @param _symmetries symmetries saved as a uint256 value like 00010101 where bits represent symmetry types.\n    * @param _to The address claiming the Clover.\n    * @return A boolean representing whether or not the claim was successful.\n    */\n    function claimClover(bytes28[2] moves, uint256 _tokenId, uint256 _symmetries, address _to) public payable returns (bool) {\n        require(moves[0] != 0);\n        require(msg.value == stakeAmount);\n        bytes32 movesHash = keccak256(moves);\n        IClovers(clovers).setCommit(movesHash, _to);\n        IClovers(clovers).setStake(movesHash, stakeAmount);\n        clovers.transfer(stakeAmount);\n        require(IClovers(clovers).getBlockMinted(_tokenId) == 0);\n        IClovers(clovers).setBlockMinted(_tokenId, block.number);\n        IClovers(clovers).setCloverMoves(_tokenId, moves);\n        if (_symmetries > 0) {\n            IClovers(clovers).setSymmetries(_tokenId, _symmetries);\n            uint256 reward = calculateReward(_symmetries);\n            IClovers(clovers).setReward(_tokenId, reward);\n        }\n        IClovers(clovers).mint(_to, _tokenId);\n        cloverClaimed(moves, _tokenId, _to, stakeAmount, reward, _symmetries);\n        return true;\n    }\n    /**\n    * @dev Commit the hash of the moves needed to claim the Clover. A stake should be made for counterfactual verification.\n    * @param movesHash The hash of the moves that makes up the Clover reversi game.\n    * @param _to The address claiming the Clover.\n    * @return A boolean representing whether or not the commit was successful.\n    */\n    function claimCloverCommit(bytes32 movesHash, address _to) public payable returns (bool) {\n        require(_to != 0);\n        require(msg.value == stakeAmount);\n        require(IClovers(clovers).getCommit(movesHash) == 0);\n        IClovers(clovers).setCommit(movesHash, _to);\n        IClovers(clovers).setStake(movesHash, stakeAmount);\n        clovers.transfer(stakeAmount);\n        cloverCommitted(movesHash, _to);\n        return true;\n    }\n    /**\n    * @dev Reveal the solution to the previous commit to claim the Clover.\n    * @param moves The moves that make up the Clover reversi game.\n    * @param _tokenId The board that results from the moves.\n    * @param _symmetries symmetries saved as a uint256 value like 00010101 where bits represent symmetry types.\n    * @return A boolean representing whether or not the reveal and claim was successful.\n    */\n    function claimCloverReveal(bytes28[2] moves, uint256 _tokenId, uint256 _symmetries) public returns (bool) {\n        require(moves[0] != 0);\n        bytes32 movesHash = keccak256(moves);\n        address commiter = IClovers(clovers).getCommit(movesHash);\n        require(IClovers(clovers).getBlockMinted(_tokenId) == 0);\n        IClovers(clovers).setBlockMinted(_tokenId, block.number);\n        IClovers(clovers).setCloverMoves(_tokenId, moves);\n        if (_symmetries > 0) {\n            IClovers(clovers).setSymmetries(_tokenId, _symmetries);\n            uint256 reward = calculateReward(_symmetries);\n            IClovers(clovers).setReward(_tokenId, reward);\n        }\n        IClovers(clovers).mint(commiter, _tokenId);\n        uint256 stake = IClovers(clovers).getStake(movesHash);\n        cloverClaimed(moves, _tokenId, commiter, stake, reward, _symmetries);\n        return true;\n    }\n    /**\n    * @dev Retrieve the stake from a Clover claim after the stake period has ended.\n    * @param _tokenId The board which holds the stake.\n    * @return A boolean representing whether or not the retrieval was successful.\n    */\n    function retrieveStake(uint256 _tokenId) public returns (bool) {\n        bytes28[2] memory moves = IClovers(clovers).getCloverMoves(_tokenId);\n        require(moves[0] != 0);\n        bytes32 movesHash = keccak256(moves);\n        uint256 stake = IClovers(clovers).getStake(movesHash);\n        require(stake != 0);\n        require(isVerified(_tokenId));\n        IClovers(clovers).setStake(movesHash, 0);\n        addSymmetries(_tokenId);\n        address commiter = IClovers(clovers).getCommit(movesHash);\n        uint256 reward = IClovers(clovers).getReward(_tokenId);\n        require(IMintable(clubToken).mint(commiter, reward));\n        require(IClovers(clovers).moveEth(commiter, stake));\n        stakeAndRewardRetrieved(_tokenId, commiter, stake, reward);\n        return true;\n    }\n    /**\n    * @dev Challenge a staked Clover for being invalid.\n    * @param _tokenId The board being challenged.\n    * @param _to The address challenging the Clover.\n    * @return A boolean representing whether or not the challenge was successful.\n    */\n    function challengeClover(uint256 _tokenId, address _to) public returns (bool) {\n        bool valid = true;\n        bytes28[2] memory moves = IClovers(clovers).getCloverMoves(_tokenId);\n        require(moves[0] != 0);\n        Reversi.Game memory game = Reversi.playGame(moves);\n        if(isValidGame(game)) {\n            uint256 _symmetries = IClovers(clovers).getSymmetries(_tokenId);\n\n            valid = (_symmetries >> 4 & 1) > 0 == game.RotSym ? valid : false;\n            valid = (_symmetries >> 3 & 1) > 0 == game.Y0Sym ? valid : false;\n            valid = (_symmetries >> 2 & 1) > 0 == game.X0Sym ? valid : false;\n            valid = (_symmetries >> 1 & 1) > 0 == game.XYSym ? valid : false;\n            valid = (_symmetries & 1) > 0 == game.XnYSym ? valid : false;\n\n        } else {\n            valid = false;\n        }\n        require(!valid);\n\n        IClovers(clovers).deleteClover(_tokenId);\n        bytes32 movesHash = keccak256(moves);\n        if (!isVerified(_tokenId)) {\n            uint256 stake = IClovers(clovers).getStake(movesHash);\n            IClovers(clovers).moveEth(_to, stake);\n        }\n        IClovers(clovers).unmint(_tokenId);\n        IClovers(clovers).setCommit(movesHash, 0);\n        IClovers(clovers).setStake(movesHash, 0);\n        removeSymmetries(_tokenId);\n\n        address commiter = IClovers(clovers).getCommit(movesHash);\n        cloverChallenged(moves, _tokenId, commiter, _to, stake);\n        return true;\n    }\n\n    /**\n    * @dev Updates the stake amount.\n    * @param _stakeAmount The new amount needed to stake.\n    */\n    function updateStakeAmount(uint256 _stakeAmount) public onlyOwner {\n        stakeAmount = _stakeAmount;\n    }\n    /**\n    * @dev Updates the stake period.\n    * @param _stakePeriod The uint256 value of time needed to stake before being verified.\n    */\n    function updateStakePeriod(uint256 _stakePeriod) public onlyOwner {\n        stakePeriod = _stakePeriod;\n    }\n    /**\n    * @dev Updates the pay multiplier, used to calculate token reward.\n    * @param _payMultiplier The uint256 value of pay multiplier.\n    */\n    function updatePayMultipier(uint256 _payMultiplier) public onlyOwner {\n        payMultiplier = _payMultiplier;\n    }\n    /**\n    * @dev Adds new tallys of the totals numbers of clover symmetries.\n    * @param _tokenId The token which needs to be examined.\n    */\n    function addSymmetries(uint256 _tokenId) private {\n        uint256 Symmetricals;\n        uint256 RotSym;\n        uint256 Y0Sym;\n        uint256 X0Sym;\n        uint256 XYSym;\n        uint256 XnYSym;\n        (Symmetricals,\n        RotSym,\n        Y0Sym,\n        X0Sym,\n        XYSym,\n        XnYSym) = IClovers(clovers).getAllSymmetries();\n        uint256 _symmetries = IClovers(clovers).getSymmetries(_tokenId);\n        Symmetricals = Symmetricals.add(_symmetries > 0 ? 1 : 0);\n        RotSym = RotSym.add(uint256(_symmetries >> 4 & 1));\n        Y0Sym = Y0Sym.add(uint256(_symmetries >> 3 & 1));\n        X0Sym = X0Sym.add(uint256(_symmetries >> 2 & 1));\n        XYSym = XYSym.add(uint256(_symmetries >> 1 & 1));\n        XnYSym = XnYSym.add(uint256(_symmetries & 1));\n        IClovers(clovers).setAllSymmetries(Symmetricals, RotSym, Y0Sym, X0Sym, XYSym, XnYSym);\n    }\n    /**\n    * @dev Remove false tallys of the totals numbers of clover symmetries.\n    * @param _tokenId The token which needs to be examined.\n    */\n    function removeSymmetries(uint256 _tokenId) private {\n        uint256 Symmetricals;\n        uint256 RotSym;\n        uint256 Y0Sym;\n        uint256 X0Sym;\n        uint256 XYSym;\n        uint256 XnYSym;\n        (Symmetricals,\n        RotSym,\n        Y0Sym,\n        X0Sym,\n        XYSym,\n        XnYSym) = IClovers(clovers).getAllSymmetries();\n        uint256 _symmetries = IClovers(clovers).getSymmetries(_tokenId);\n        Symmetricals = Symmetricals.sub(_symmetries > 0 ? 1 : 0);\n        RotSym = RotSym.sub(uint256(_symmetries >> 4 & 1));\n        Y0Sym = Y0Sym.sub(uint256(_symmetries >> 3 & 1));\n        X0Sym = X0Sym.sub(uint256(_symmetries >> 2 & 1));\n        XYSym = XYSym.sub(uint256(_symmetries >> 1 & 1));\n        XnYSym = XnYSym.sub(uint256(_symmetries & 1));\n        IClovers(clovers).setAllSymmetries(Symmetricals, RotSym, Y0Sym, X0Sym, XYSym, XnYSym);\n    }\n\n}",
  "sourcePath": "/Users/billy/sol/clovers-contracts/contracts/CloversController.sol",
  "compiler": {
    "name": "solc",
    "version": "0.4.21+commit.dfe3193c.Emscripten.clang"
  },
  "schemaVersion": "2.0.0",
  "updatedAt": "2018-05-02T16:51:24.800Z"
}