{
  "contractName": "Clovers",
  "abi": [
    {
      "constant": true,
      "inputs": [],
      "name": "name",
      "outputs": [
        {
          "name": "",
          "type": "string"
        }
      ],
      "payable": false,
      "stateMutability": "view",
      "type": "function"
    },
    {
      "constant": true,
      "inputs": [
        {
          "name": "_tokenId",
          "type": "uint256"
        }
      ],
      "name": "getApproved",
      "outputs": [
        {
          "name": "",
          "type": "address"
        }
      ],
      "payable": false,
      "stateMutability": "view",
      "type": "function"
    },
    {
      "constant": false,
      "inputs": [
        {
          "name": "_to",
          "type": "address"
        },
        {
          "name": "_tokenId",
          "type": "uint256"
        }
      ],
      "name": "approve",
      "outputs": [],
      "payable": false,
      "stateMutability": "nonpayable",
      "type": "function"
    },
    {
      "constant": true,
      "inputs": [],
      "name": "totalSupply",
      "outputs": [
        {
          "name": "",
          "type": "uint256"
        }
      ],
      "payable": false,
      "stateMutability": "view",
      "type": "function"
    },
    {
      "constant": false,
      "inputs": [
        {
          "name": "_from",
          "type": "address"
        },
        {
          "name": "_to",
          "type": "address"
        },
        {
          "name": "_tokenId",
          "type": "uint256"
        }
      ],
      "name": "transferFrom",
      "outputs": [],
      "payable": false,
      "stateMutability": "nonpayable",
      "type": "function"
    },
    {
      "constant": true,
      "inputs": [
        {
          "name": "_owner",
          "type": "address"
        },
        {
          "name": "_index",
          "type": "uint256"
        }
      ],
      "name": "tokenOfOwnerByIndex",
      "outputs": [
        {
          "name": "",
          "type": "uint256"
        }
      ],
      "payable": false,
      "stateMutability": "view",
      "type": "function"
    },
    {
      "constant": false,
      "inputs": [
        {
          "name": "_from",
          "type": "address"
        },
        {
          "name": "_to",
          "type": "address"
        },
        {
          "name": "_tokenId",
          "type": "uint256"
        }
      ],
      "name": "safeTransferFrom",
      "outputs": [],
      "payable": false,
      "stateMutability": "nonpayable",
      "type": "function"
    },
    {
      "constant": true,
      "inputs": [
        {
          "name": "",
          "type": "bytes32"
        }
      ],
      "name": "commits",
      "outputs": [
        {
          "name": "",
          "type": "address"
        }
      ],
      "payable": false,
      "stateMutability": "view",
      "type": "function"
    },
    {
      "constant": true,
      "inputs": [
        {
          "name": "_tokenId",
          "type": "uint256"
        }
      ],
      "name": "exists",
      "outputs": [
        {
          "name": "",
          "type": "bool"
        }
      ],
      "payable": false,
      "stateMutability": "view",
      "type": "function"
    },
    {
      "constant": true,
      "inputs": [
        {
          "name": "_index",
          "type": "uint256"
        }
      ],
      "name": "tokenByIndex",
      "outputs": [
        {
          "name": "",
          "type": "uint256"
        }
      ],
      "payable": false,
      "stateMutability": "view",
      "type": "function"
    },
    {
      "constant": true,
      "inputs": [
        {
          "name": "_tokenId",
          "type": "uint256"
        }
      ],
      "name": "ownerOf",
      "outputs": [
        {
          "name": "",
          "type": "address"
        }
      ],
      "payable": false,
      "stateMutability": "view",
      "type": "function"
    },
    {
      "constant": true,
      "inputs": [
        {
          "name": "",
          "type": "uint256"
        }
      ],
      "name": "clovers",
      "outputs": [
        {
          "name": "symmetries",
          "type": "bytes1"
        },
        {
          "name": "blockMinted",
          "type": "uint256"
        },
        {
          "name": "rewards",
          "type": "uint256"
        }
      ],
      "payable": false,
      "stateMutability": "view",
      "type": "function"
    },
    {
      "constant": true,
      "inputs": [
        {
          "name": "_owner",
          "type": "address"
        }
      ],
      "name": "balanceOf",
      "outputs": [
        {
          "name": "",
          "type": "uint256"
        }
      ],
      "payable": false,
      "stateMutability": "view",
      "type": "function"
    },
    {
      "constant": true,
      "inputs": [],
      "name": "owner",
      "outputs": [
        {
          "name": "",
          "type": "address"
        }
      ],
      "payable": false,
      "stateMutability": "view",
      "type": "function"
    },
    {
      "constant": true,
      "inputs": [
        {
          "name": "",
          "type": "bytes32"
        }
      ],
      "name": "stakes",
      "outputs": [
        {
          "name": "",
          "type": "uint256"
        }
      ],
      "payable": false,
      "stateMutability": "view",
      "type": "function"
    },
    {
      "constant": true,
      "inputs": [],
      "name": "symbol",
      "outputs": [
        {
          "name": "",
          "type": "string"
        }
      ],
      "payable": false,
      "stateMutability": "view",
      "type": "function"
    },
    {
      "constant": false,
      "inputs": [
        {
          "name": "_to",
          "type": "address"
        },
        {
          "name": "_approved",
          "type": "bool"
        }
      ],
      "name": "setApprovalForAll",
      "outputs": [],
      "payable": false,
      "stateMutability": "nonpayable",
      "type": "function"
    },
    {
      "constant": false,
      "inputs": [
        {
          "name": "_from",
          "type": "address"
        },
        {
          "name": "_to",
          "type": "address"
        },
        {
          "name": "_tokenId",
          "type": "uint256"
        },
        {
          "name": "_data",
          "type": "bytes"
        }
      ],
      "name": "safeTransferFrom",
      "outputs": [],
      "payable": false,
      "stateMutability": "nonpayable",
      "type": "function"
    },
    {
      "constant": true,
      "inputs": [
        {
          "name": "_owner",
          "type": "address"
        },
        {
          "name": "_operator",
          "type": "address"
        }
      ],
      "name": "isApprovedForAll",
      "outputs": [
        {
          "name": "",
          "type": "bool"
        }
      ],
      "payable": false,
      "stateMutability": "view",
      "type": "function"
    },
    {
      "constant": false,
      "inputs": [
        {
          "name": "newOwner",
          "type": "address"
        }
      ],
      "name": "transferOwnership",
      "outputs": [],
      "payable": false,
      "stateMutability": "nonpayable",
      "type": "function"
    },
    {
      "inputs": [
        {
          "name": "name",
          "type": "string"
        },
        {
          "name": "symbol",
          "type": "string"
        }
      ],
      "payable": false,
      "stateMutability": "nonpayable",
      "type": "constructor"
    },
    {
      "payable": true,
      "stateMutability": "payable",
      "type": "fallback"
    },
    {
      "anonymous": false,
      "inputs": [
        {
          "indexed": true,
          "name": "previousOwner",
          "type": "address"
        },
        {
          "indexed": true,
          "name": "newOwner",
          "type": "address"
        }
      ],
      "name": "OwnershipTransferred",
      "type": "event"
    },
    {
      "anonymous": false,
      "inputs": [
        {
          "indexed": true,
          "name": "_from",
          "type": "address"
        },
        {
          "indexed": true,
          "name": "_to",
          "type": "address"
        },
        {
          "indexed": false,
          "name": "_tokenId",
          "type": "uint256"
        }
      ],
      "name": "Transfer",
      "type": "event"
    },
    {
      "anonymous": false,
      "inputs": [
        {
          "indexed": true,
          "name": "_owner",
          "type": "address"
        },
        {
          "indexed": true,
          "name": "_approved",
          "type": "address"
        },
        {
          "indexed": false,
          "name": "_tokenId",
          "type": "uint256"
        }
      ],
      "name": "Approval",
      "type": "event"
    },
    {
      "anonymous": false,
      "inputs": [
        {
          "indexed": true,
          "name": "_owner",
          "type": "address"
        },
        {
          "indexed": true,
          "name": "_operator",
          "type": "address"
        },
        {
          "indexed": false,
          "name": "_approved",
          "type": "bool"
        }
      ],
      "name": "ApprovalForAll",
      "type": "event"
    },
    {
      "constant": true,
      "inputs": [],
      "name": "implementation",
      "outputs": [
        {
          "name": "",
          "type": "address"
        }
      ],
      "payable": false,
      "stateMutability": "view",
      "type": "function"
    },
    {
      "constant": true,
      "inputs": [
        {
          "name": "_tokenId",
          "type": "uint256"
        }
      ],
      "name": "tokenURI",
      "outputs": [
        {
          "name": "_infoUrl",
          "type": "string"
        }
      ],
      "payable": false,
      "stateMutability": "view",
      "type": "function"
    },
    {
      "constant": true,
      "inputs": [
        {
          "name": "moves",
          "type": "bytes28[2]"
        }
      ],
      "name": "getHash",
      "outputs": [
        {
          "name": "",
          "type": "bytes32"
        }
      ],
      "payable": false,
      "stateMutability": "view",
      "type": "function"
    },
    {
      "constant": true,
      "inputs": [
        {
          "name": "movesHash",
          "type": "bytes32"
        }
      ],
      "name": "getStake",
      "outputs": [
        {
          "name": "",
          "type": "uint256"
        }
      ],
      "payable": false,
      "stateMutability": "view",
      "type": "function"
    },
    {
      "constant": true,
      "inputs": [
        {
          "name": "movesHash",
          "type": "bytes32"
        }
      ],
      "name": "getCommit",
      "outputs": [
        {
          "name": "",
          "type": "address"
        }
      ],
      "payable": false,
      "stateMutability": "view",
      "type": "function"
    },
    {
      "constant": true,
      "inputs": [
        {
          "name": "_tokenId",
          "type": "uint256"
        }
      ],
      "name": "getBlockMinted",
      "outputs": [
        {
          "name": "",
          "type": "uint256"
        }
      ],
      "payable": false,
      "stateMutability": "view",
      "type": "function"
    },
    {
      "constant": true,
      "inputs": [
        {
          "name": "_tokenId",
          "type": "uint256"
        }
      ],
      "name": "getCloverMoves",
      "outputs": [
        {
          "name": "",
          "type": "bytes28[2]"
        }
      ],
      "payable": false,
      "stateMutability": "view",
      "type": "function"
    },
    {
      "constant": true,
      "inputs": [
        {
          "name": "_tokenId",
          "type": "uint256"
        }
      ],
      "name": "getReward",
      "outputs": [
        {
          "name": "",
          "type": "uint256"
        }
      ],
      "payable": false,
      "stateMutability": "view",
      "type": "function"
    },
    {
      "constant": true,
      "inputs": [
        {
          "name": "_tokenId",
          "type": "uint256"
        }
      ],
      "name": "getSymmetries",
      "outputs": [
        {
          "name": "",
          "type": "bytes1"
        }
      ],
      "payable": false,
      "stateMutability": "view",
      "type": "function"
    },
    {
      "constant": true,
      "inputs": [],
      "name": "getAllSymmetries",
      "outputs": [
        {
          "name": "",
          "type": "uint256"
        },
        {
          "name": "",
          "type": "uint256"
        },
        {
          "name": "",
          "type": "uint256"
        },
        {
          "name": "",
          "type": "uint256"
        },
        {
          "name": "",
          "type": "uint256"
        },
        {
          "name": "",
          "type": "uint256"
        }
      ],
      "payable": false,
      "stateMutability": "view",
      "type": "function"
    },
    {
      "constant": false,
      "inputs": [
        {
          "name": "_to",
          "type": "address"
        },
        {
          "name": "amount",
          "type": "uint256"
        }
      ],
      "name": "moveEth",
      "outputs": [
        {
          "name": "",
          "type": "bool"
        }
      ],
      "payable": false,
      "stateMutability": "nonpayable",
      "type": "function"
    },
    {
      "constant": false,
      "inputs": [
        {
          "name": "amount",
          "type": "uint256"
        },
        {
          "name": "_to",
          "type": "address"
        },
        {
          "name": "token",
          "type": "address"
        }
      ],
      "name": "moveToken",
      "outputs": [
        {
          "name": "",
          "type": "bool"
        }
      ],
      "payable": false,
      "stateMutability": "nonpayable",
      "type": "function"
    },
    {
      "constant": false,
      "inputs": [
        {
          "name": "amount",
          "type": "uint256"
        },
        {
          "name": "_to",
          "type": "address"
        },
        {
          "name": "token",
          "type": "address"
        }
      ],
      "name": "approveToken",
      "outputs": [
        {
          "name": "",
          "type": "bool"
        }
      ],
      "payable": false,
      "stateMutability": "nonpayable",
      "type": "function"
    },
    {
      "constant": false,
      "inputs": [
        {
          "name": "movesHash",
          "type": "bytes32"
        },
        {
          "name": "stake",
          "type": "uint256"
        }
      ],
      "name": "setStake",
      "outputs": [],
      "payable": false,
      "stateMutability": "nonpayable",
      "type": "function"
    },
    {
      "constant": false,
      "inputs": [
        {
          "name": "movesHash",
          "type": "bytes32"
        },
        {
          "name": "commiter",
          "type": "address"
        }
      ],
      "name": "setCommit",
      "outputs": [],
      "payable": false,
      "stateMutability": "nonpayable",
      "type": "function"
    },
    {
      "constant": false,
      "inputs": [
        {
          "name": "_tokenId",
          "type": "uint256"
        },
        {
          "name": "value",
          "type": "uint256"
        }
      ],
      "name": "setBlockMinted",
      "outputs": [],
      "payable": false,
      "stateMutability": "nonpayable",
      "type": "function"
    },
    {
      "constant": false,
      "inputs": [
        {
          "name": "_tokenId",
          "type": "uint256"
        },
        {
          "name": "moves",
          "type": "bytes28[2]"
        }
      ],
      "name": "setCloverMoves",
      "outputs": [],
      "payable": false,
      "stateMutability": "nonpayable",
      "type": "function"
    },
    {
      "constant": false,
      "inputs": [
        {
          "name": "_tokenId",
          "type": "uint256"
        },
        {
          "name": "_amount",
          "type": "uint256"
        }
      ],
      "name": "setReward",
      "outputs": [],
      "payable": false,
      "stateMutability": "nonpayable",
      "type": "function"
    },
    {
      "constant": false,
      "inputs": [
        {
          "name": "_tokenId",
          "type": "uint256"
        },
        {
          "name": "_symmetries",
          "type": "bytes1"
        }
      ],
      "name": "setSymmetries",
      "outputs": [],
      "payable": false,
      "stateMutability": "nonpayable",
      "type": "function"
    },
    {
      "constant": false,
      "inputs": [
        {
          "name": "_totalSymmetries",
          "type": "uint256"
        },
        {
          "name": "RotSym",
          "type": "uint256"
        },
        {
          "name": "Y0Sym",
          "type": "uint256"
        },
        {
          "name": "X0Sym",
          "type": "uint256"
        },
        {
          "name": "XYSym",
          "type": "uint256"
        },
        {
          "name": "XnYSym",
          "type": "uint256"
        }
      ],
      "name": "setAllSymmetries",
      "outputs": [],
      "payable": false,
      "stateMutability": "nonpayable",
      "type": "function"
    },
    {
      "constant": false,
      "inputs": [
        {
          "name": "_tokenId",
          "type": "uint256"
        }
      ],
      "name": "deleteClover",
      "outputs": [],
      "payable": false,
      "stateMutability": "nonpayable",
      "type": "function"
    },
    {
      "constant": false,
      "inputs": [
        {
          "name": "_cloversController",
          "type": "address"
        }
      ],
      "name": "updateCloversControllerAddress",
      "outputs": [],
      "payable": false,
      "stateMutability": "nonpayable",
      "type": "function"
    },
    {
      "constant": false,
      "inputs": [
        {
          "name": "_cloversMetadata",
          "type": "address"
        }
      ],
      "name": "updateCloversMetadataAddress",
      "outputs": [],
      "payable": false,
      "stateMutability": "nonpayable",
      "type": "function"
    },
    {
      "constant": false,
      "inputs": [
        {
          "name": "_to",
          "type": "address"
        },
        {
          "name": "_tokenId",
          "type": "uint256"
        }
      ],
      "name": "mint",
      "outputs": [],
      "payable": false,
      "stateMutability": "nonpayable",
      "type": "function"
    },
    {
      "constant": false,
      "inputs": [
        {
          "name": "_tokenId",
          "type": "uint256"
        }
      ],
      "name": "unmint",
      "outputs": [],
      "payable": false,
      "stateMutability": "nonpayable",
      "type": "function"
    }
  ],
  "bytecode": "0x606060405234156200001057600080fd5b6040516200420f3803806200420f833981016040526200003a9067800000000000000090620001c6565b8181816004908051906020019062000054929190620000b9565b5080600590805190602001906200006d929190620000b9565b50505033600b60006101000a81548173ffffffffffffffffffffffffffffffffffffffff021916908373ffffffffffffffffffffffffffffffffffffffff1602179055505050620002ca565b828054600181600116156101000203166002900490600052602060002090601f016020900481019282601f10620000fc57805160ff19168380011785556200012d565b828001600101855582156200012d579182015b828111156200012c5782518255916020019190600101906200010f565b5b5090506200013c919062000140565b5090565b6200016591905b808211156200016157600081600090555060010162000147565b5090565b90565b600082601f83011215156200017c57600080fd5b8151620001936200018d8262000267565b62000239565b91508082526020830160208301858383011115620001b057600080fd5b620001bd83828462000294565b50505092915050565b60008060408385031215620001da57600080fd5b600083015167ffffffffffffffff811115620001f557600080fd5b620002038582860162000168565b925050602083015167ffffffffffffffff8111156200022157600080fd5b6200022f8582860162000168565b9150509250929050565b6000604051905081810181811067ffffffffffffffff821117156200025d57600080fd5b8060405250919050565b600067ffffffffffffffff8211156200027f57600080fd5b601f19601f8301169050602081019050919050565b60005b83811015620002b457808201518184015260208101905062000297565b83811115620002c4576000848401525b50505050565b613f3580620002da6000396000f300606060405260043610610225576000357c0100000000000000000000000000000000000000000000000000000000900463ffffffff16806303a53d6b1461022757806306fdde031461025d578063081812fc14610286578063095ea7b3146102bc5780630b628395146102de5780630e8310d6146103005780631732e9411461032257806318160ddd146103585780631c4b774b146103815780631cc1472d146103b75780631dba5660146103ed5780631dbd9d911461040f57806323b872dd146104315780632f745c59146104535780633541fd531461048957806340c10f19146104ab57806342842e0e146104cd57806347885781146104ef5780634e485f88146105255780634f558e79146105475780634f6ccce71461057d5780635c60da1b146105b357806362f9acf9146105dc5780636352211e1461061257806364e779b114610648578063708fa7f71461066a57806370a08231146106a2578063785d8d71146106d85780638784ea96146107065780638a56a2261461073c5780638b1b2ba81461075e5780638da5cb5b146107805780638fee6407146107a957806395d89b41146107df578063a22cb46514610808578063a47bd4961461082a578063b7f8aa001461084c578063b88d4fde14610882578063c53b4bf9146108a4578063c87b56dd146108da578063e3100d1e14610910578063e765c12214610932578063e985e9c514610968578063f2fde38b1461099e578063f760a4e2146109c0575b005b341561023257600080fd5b6102476004610242903690613800565b6109f6565b6040516102549190613c37565b60405180910390f35b341561026857600080fd5b610270610a16565b60405161027d9190613c15565b60405180910390f35b341561029157600080fd5b6102a660046102a1903690613800565b610abe565b6040516102b39190613ad5565b60405180910390f35b34156102c757600080fd5b6102dc60046102d79036906136fa565b610afb565b005b34156102e957600080fd5b6102fe60046102f9903690613878565b610cc1565b005b341561030b57600080fd5b610320600461031b903690613800565b610d9f565b005b341561032d57600080fd5b610342600461033d903690613736565b610ea0565b60405161034f9190613bdf565b60405180910390f35b341561036357600080fd5b61036b610ee7565b6040516103789190613c37565b60405180910390f35b341561038c57600080fd5b6103a1600461039c903690613800565b610ef4565b6040516103ae9190613c37565b60405180910390f35b34156103c257600080fd5b6103d760046103d29036906136fa565b610f14565b6040516103e49190613b72565b60405180910390f35b34156103f857600080fd5b61040d60046104089036906138b4565b61102d565b005b341561041a57600080fd5b61042f600461042a903690613788565b611134565b005b341561043c57600080fd5b610451600461044c9036906135f4565b611246565b005b341561045e57600080fd5b610473600461046e9036906136fa565b61135d565b6040516104809190613c37565b60405180910390f35b341561049457600080fd5b6104a960046104a49036906137c4565b6113d5565b005b34156104b657600080fd5b6104cb60046104c69036906136fa565b6114ad565b005b34156104d857600080fd5b6104ed60046104e89036906135f4565b61156f565b005b34156104fa57600080fd5b61050f600461050a90369061375f565b6115a7565b60405161051c9190613ad5565b60405180910390f35b341561053057600080fd5b610545600461054090369061358f565b6115da565b005b341561055257600080fd5b6105676004610562903690613800565b6116a0565b6040516105749190613b72565b60405180910390f35b341561058857600080fd5b61059d6004610598903690613800565b611711565b6040516105aa9190613c37565b60405180910390f35b34156105be57600080fd5b6105c661174a565b6040516105d39190613ad5565b60405180910390f35b34156105e757600080fd5b6105fc60046105f7903690613800565b611774565b6040516106099190613b57565b60405180910390f35b341561061d57600080fd5b610632600461062d903690613800565b6117ed565b60405161063f9190613ad5565b60405180910390f35b341561065357600080fd5b6106686004610663903690613800565b61186a565b005b341561067557600080fd5b61068a6004610685903690613800565b611933565b60405161069993929190613ba8565b60405180910390f35b34156106ad57600080fd5b6106c260046106bd90369061358f565b611989565b6040516106cf9190613c37565b60405180910390f35b34156106e357600080fd5b6106eb611a0d565b6040516106fd96959493929190613c52565b60405180910390f35b341561071157600080fd5b610726600461072190369061375f565b611a87565b6040516107339190613ad5565b60405180910390f35b341561074757600080fd5b61075c600461075790369061358f565b611acc565b005b341561076957600080fd5b61077e600461077990369061392c565b611b92565b005b341561078b57600080fd5b610793611cc3565b6040516107a09190613ad5565b60405180910390f35b34156107b457600080fd5b6107c960046107c490369061375f565b611ce9565b6040516107d69190613c37565b60405180910390f35b34156107ea57600080fd5b6107f2611d01565b6040516107ff9190613c15565b60405180910390f35b341561081357600080fd5b61082860046108239036906136be565b611da9565b005b341561083557600080fd5b61084a60046108459036906138f0565b611ee1565b005b341561085757600080fd5b61086c6004610867903690613829565b611fb4565b6040516108799190613b72565b60405180910390f35b341561088d57600080fd5b6108a2600461089d903690613643565b6120fa565b005b34156108af57600080fd5b6108c460046108bf903690613800565b612139565b6040516108d19190613b8d565b60405180910390f35b34156108e557600080fd5b6108fa60046108f5903690613800565b612185565b6040516109079190613c15565b60405180910390f35b341561091b57600080fd5b610930600461092b9036906138f0565b6121fd565b005b341561093d57600080fd5b610952600461094d90369061375f565b6122d0565b60405161095f9190613c37565b60405180910390f35b341561097357600080fd5b61098860046109839036906135b8565b6122f5565b6040516109959190613b72565b60405180910390f35b34156109a957600080fd5b6109be60046109b990369061358f565b612389565b005b34156109cb57600080fd5b6109e060046109db903690613829565b6124e1565b6040516109ed9190613b72565b60405180910390f35b600060146000838152602001908152602001600020600301549050919050565b610a1e613260565b60048054600181600116156101000203166002900480601f016020809104026020016040519081016040528092919081815260200182805460018160011615610100020316600290048015610ab45780601f10610a8957610100808354040283529160200191610ab4565b820191906000526020600020905b815481529060010190602001808311610a9757829003601f168201915b5050505050905090565b60006001600083815260200190815260200160002060009054906101000a900473ffffffffffffffffffffffffffffffffffffffff169050919050565b6000610b06826117ed565b90508073ffffffffffffffffffffffffffffffffffffffff168373ffffffffffffffffffffffffffffffffffffffff1614151515610b4357600080fd5b8073ffffffffffffffffffffffffffffffffffffffff163373ffffffffffffffffffffffffffffffffffffffff161480610b835750610b8281336122f5565b5b1515610b8e57600080fd5b600073ffffffffffffffffffffffffffffffffffffffff16610baf83610abe565b73ffffffffffffffffffffffffffffffffffffffff16141580610bff5750600073ffffffffffffffffffffffffffffffffffffffff168373ffffffffffffffffffffffffffffffffffffffff1614155b15610cbc57826001600084815260200190815260200160002060006101000a81548173ffffffffffffffffffffffffffffffffffffffff021916908373ffffffffffffffffffffffffffffffffffffffff1602179055508273ffffffffffffffffffffffffffffffffffffffff168173ffffffffffffffffffffffffffffffffffffffff167f8c5be1e5ebec7d5bd14f71427d1e84f3dd0314c0f7b2291e5b200ac8c7c3b92584604051610cb39190613c37565b60405180910390a35b505050565b601360009054906101000a900473ffffffffffffffffffffffffffffffffffffffff1673ffffffffffffffffffffffffffffffffffffffff163373ffffffffffffffffffffffffffffffffffffffff161480610d6a5750600b60009054906101000a900473ffffffffffffffffffffffffffffffffffffffff1673ffffffffffffffffffffffffffffffffffffffff163373ffffffffffffffffffffffffffffffffffffffff16145b1515610d7557600080fd5b8060146000848152602001908152602001600020600101906002610d9a929190613274565b505050565b601360009054906101000a900473ffffffffffffffffffffffffffffffffffffffff1673ffffffffffffffffffffffffffffffffffffffff163373ffffffffffffffffffffffffffffffffffffffff161480610e485750600b60009054906101000a900473ffffffffffffffffffffffffffffffffffffffff1673ffffffffffffffffffffffffffffffffffffffff163373ffffffffffffffffffffffffffffffffffffffff16145b1515610e5357600080fd5b60146000828152602001908152602001600020600080820160006101000a81549060ff0219169055600182016000610e8b91906132eb565b60038201600090556004820160009055505050565b6000816040518082600260200280838360005b83811015610ece578082015181840152602081019050610eb3565b5050505090500191505060405180910390209050919050565b6000600880549050905090565b600060146000838152602001908152602001600020600401549050919050565b6000601360009054906101000a900473ffffffffffffffffffffffffffffffffffffffff1673ffffffffffffffffffffffffffffffffffffffff163373ffffffffffffffffffffffffffffffffffffffff161480610fbf5750600b60009054906101000a900473ffffffffffffffffffffffffffffffffffffffff1673ffffffffffffffffffffffffffffffffffffffff163373ffffffffffffffffffffffffffffffffffffffff16145b1515610fca57600080fd5b3073ffffffffffffffffffffffffffffffffffffffff16318211151515610ff057600080fd5b8273ffffffffffffffffffffffffffffffffffffffff166108fc839081150290604051600060405180830381858888f19350505050905092915050565b601360009054906101000a900473ffffffffffffffffffffffffffffffffffffffff1673ffffffffffffffffffffffffffffffffffffffff163373ffffffffffffffffffffffffffffffffffffffff1614806110d65750600b60009054906101000a900473ffffffffffffffffffffffffffffffffffffffff1673ffffffffffffffffffffffffffffffffffffffff163373ffffffffffffffffffffffffffffffffffffffff16145b15156110e157600080fd5b806014600084815260200190815260200160002060000160006101000a81548160ff02191690837f0100000000000000000000000000000000000000000000000000000000000000900402179055505050565b601360009054906101000a900473ffffffffffffffffffffffffffffffffffffffff1673ffffffffffffffffffffffffffffffffffffffff163373ffffffffffffffffffffffffffffffffffffffff1614806111dd5750600b60009054906101000a900473ffffffffffffffffffffffffffffffffffffffff1673ffffffffffffffffffffffffffffffffffffffff163373ffffffffffffffffffffffffffffffffffffffff16145b15156111e857600080fd5b8060156000846000191660001916815260200190815260200160002060006101000a81548173ffffffffffffffffffffffffffffffffffffffff021916908373ffffffffffffffffffffffffffffffffffffffff1602179055505050565b8061125133826126ba565b151561125c57600080fd5b600073ffffffffffffffffffffffffffffffffffffffff168473ffffffffffffffffffffffffffffffffffffffff161415151561129857600080fd5b600073ffffffffffffffffffffffffffffffffffffffff168373ffffffffffffffffffffffffffffffffffffffff16141515156112d457600080fd5b6112de848361274f565b6112e884836128b8565b6112f28383612ad3565b8273ffffffffffffffffffffffffffffffffffffffff168473ffffffffffffffffffffffffffffffffffffffff167fddf252ad1be2c89b69c2b068fc378daa952ba7f163c4a11628f55a4df523b3ef8460405161134f9190613c37565b60405180910390a350505050565b600061136883611989565b8210151561137557600080fd5b600660008473ffffffffffffffffffffffffffffffffffffffff1673ffffffffffffffffffffffffffffffffffffffff168152602001908152602001600020828154811015156113c157fe5b906000526020600020900154905092915050565b601360009054906101000a900473ffffffffffffffffffffffffffffffffffffffff1673ffffffffffffffffffffffffffffffffffffffff163373ffffffffffffffffffffffffffffffffffffffff16148061147e5750600b60009054906101000a900473ffffffffffffffffffffffffffffffffffffffff1673ffffffffffffffffffffffffffffffffffffffff163373ffffffffffffffffffffffffffffffffffffffff16145b151561148957600080fd5b80601660008460001916600019168152602001908152602001600020819055505050565b601360009054906101000a900473ffffffffffffffffffffffffffffffffffffffff1673ffffffffffffffffffffffffffffffffffffffff163373ffffffffffffffffffffffffffffffffffffffff1614806115565750600b60009054906101000a900473ffffffffffffffffffffffffffffffffffffffff1673ffffffffffffffffffffffffffffffffffffffff163373ffffffffffffffffffffffffffffffffffffffff16145b151561156157600080fd5b61156b8282612ba7565b5050565b8061157a33826126ba565b151561158557600080fd5b6115a184848460206040519081016040528060008152506120fa565b50505050565b60156020528060005260406000206000915054906101000a900473ffffffffffffffffffffffffffffffffffffffff1681565b600b60009054906101000a900473ffffffffffffffffffffffffffffffffffffffff1673ffffffffffffffffffffffffffffffffffffffff163373ffffffffffffffffffffffffffffffffffffffff1614151561163657600080fd5b60008173ffffffffffffffffffffffffffffffffffffffff161415151561165c57600080fd5b80600c60006101000a81548173ffffffffffffffffffffffffffffffffffffffff021916908373ffffffffffffffffffffffffffffffffffffffff16021790555050565b60008060008084815260200190815260200160002060009054906101000a900473ffffffffffffffffffffffffffffffffffffffff169050600073ffffffffffffffffffffffffffffffffffffffff168173ffffffffffffffffffffffffffffffffffffffff161415915050919050565b600061171b610ee7565b8210151561172857600080fd5b60088281548110151561173757fe5b9060005260206000209001549050919050565b6000600c60009054906101000a900473ffffffffffffffffffffffffffffffffffffffff16905090565b61177c6132f9565b601460008381526020019081526020016000206001016002806020026040519081016040528092919082600280156117e1576020028201915b8160009054906101000a90046401000000000263ffffffff1916815260200190600101908083116117b5575b50505050509050919050565b60008060008084815260200190815260200160002060009054906101000a900473ffffffffffffffffffffffffffffffffffffffff169050600073ffffffffffffffffffffffffffffffffffffffff168173ffffffffffffffffffffffffffffffffffffffff161415151561186157600080fd5b80915050919050565b601360009054906101000a900473ffffffffffffffffffffffffffffffffffffffff1673ffffffffffffffffffffffffffffffffffffffff163373ffffffffffffffffffffffffffffffffffffffff1614806119135750600b60009054906101000a900473ffffffffffffffffffffffffffffffffffffffff1673ffffffffffffffffffffffffffffffffffffffff163373ffffffffffffffffffffffffffffffffffffffff16145b151561191e57600080fd5b61193061192a826117ed565b82612bfb565b50565b60146020528060005260406000206000915090508060000160009054906101000a90047f010000000000000000000000000000000000000000000000000000000000000002908060030154908060040154905083565b60008073ffffffffffffffffffffffffffffffffffffffff168273ffffffffffffffffffffffffffffffffffffffff16141515156119c657600080fd5b600260008373ffffffffffffffffffffffffffffffffffffffff1673ffffffffffffffffffffffffffffffffffffffff168152602001908152602001600020549050919050565b600080600080600080600d54600e6000600581101515611a2957fe5b0154600e6001600581101515611a3b57fe5b0154600e6002600581101515611a4d57fe5b0154600e6003600581101515611a5f57fe5b0154600e6004600581101515611a7157fe5b0154955095509550955095509550909192939495565b600060156000836000191660001916815260200190815260200160002060009054906101000a900473ffffffffffffffffffffffffffffffffffffffff169050919050565b600b60009054906101000a900473ffffffffffffffffffffffffffffffffffffffff1673ffffffffffffffffffffffffffffffffffffffff163373ffffffffffffffffffffffffffffffffffffffff16141515611b2857600080fd5b60008173ffffffffffffffffffffffffffffffffffffffff1614151515611b4e57600080fd5b80601360006101000a81548173ffffffffffffffffffffffffffffffffffffffff021916908373ffffffffffffffffffffffffffffffffffffffff16021790555050565b601360009054906101000a900473ffffffffffffffffffffffffffffffffffffffff1673ffffffffffffffffffffffffffffffffffffffff163373ffffffffffffffffffffffffffffffffffffffff161480611c3b5750600b60009054906101000a900473ffffffffffffffffffffffffffffffffffffffff1673ffffffffffffffffffffffffffffffffffffffff163373ffffffffffffffffffffffffffffffffffffffff16145b1515611c4657600080fd5b85600d8190555084600e6000600581101515611c5e57fe5b018190555083600e6001600581101515611c7457fe5b018190555082600e6002600581101515611c8a57fe5b018190555081600e6003600581101515611ca057fe5b018190555080600e6004600581101515611cb657fe5b0181905550505050505050565b600b60009054906101000a900473ffffffffffffffffffffffffffffffffffffffff1681565b60166020528060005260406000206000915090505481565b611d09613260565b60058054600181600116156101000203166002900480601f016020809104026020016040519081016040528092919081815260200182805460018160011615610100020316600290048015611d9f5780601f10611d7457610100808354040283529160200191611d9f565b820191906000526020600020905b815481529060010190602001808311611d8257829003601f168201915b5050505050905090565b3373ffffffffffffffffffffffffffffffffffffffff168273ffffffffffffffffffffffffffffffffffffffff1614151515611de457600080fd5b80600360003373ffffffffffffffffffffffffffffffffffffffff1673ffffffffffffffffffffffffffffffffffffffff16815260200190815260200160002060008473ffffffffffffffffffffffffffffffffffffffff1673ffffffffffffffffffffffffffffffffffffffff16815260200190815260200160002060006101000a81548160ff0219169083151502179055508173ffffffffffffffffffffffffffffffffffffffff163373ffffffffffffffffffffffffffffffffffffffff167f17307eab39ab6107e8899845ad3d59bd9653f200f220920489ca2b5937696c3183604051611ed59190613b72565b60405180910390a35050565b601360009054906101000a900473ffffffffffffffffffffffffffffffffffffffff1673ffffffffffffffffffffffffffffffffffffffff163373ffffffffffffffffffffffffffffffffffffffff161480611f8a5750600b60009054906101000a900473ffffffffffffffffffffffffffffffffffffffff1673ffffffffffffffffffffffffffffffffffffffff163373ffffffffffffffffffffffffffffffffffffffff16145b1515611f9557600080fd5b8060146000848152602001908152602001600020600401819055505050565b6000601360009054906101000a900473ffffffffffffffffffffffffffffffffffffffff1673ffffffffffffffffffffffffffffffffffffffff163373ffffffffffffffffffffffffffffffffffffffff16148061205f5750600b60009054906101000a900473ffffffffffffffffffffffffffffffffffffffff1673ffffffffffffffffffffffffffffffffffffffff163373ffffffffffffffffffffffffffffffffffffffff16145b151561206a57600080fd5b8173ffffffffffffffffffffffffffffffffffffffff1663095ea7b384866040518363ffffffff167c01000000000000000000000000000000000000000000000000000000000281526004016120c1929190613af0565b602060405180830381600087803b15156120da57600080fd5b5af115156120e757600080fd5b5050506040518051905090509392505050565b8161210533826126ba565b151561211057600080fd5b61211b858585611246565b61212785858585612d36565b151561213257600080fd5b5050505050565b60006014600083815260200190815260200160002060000160009054906101000a90047f0100000000000000000000000000000000000000000000000000000000000000029050919050565b61218d613260565b6000612197613327565b61219f61174a565b91506000368080601f0160208091040260200160405190810160405280939291908181526020018383808284378201915050505050509050600080825160208401855af43d604051816000823e82600081146121f9578282f35b8282fd5b601360009054906101000a900473ffffffffffffffffffffffffffffffffffffffff1673ffffffffffffffffffffffffffffffffffffffff163373ffffffffffffffffffffffffffffffffffffffff1614806122a65750600b60009054906101000a900473ffffffffffffffffffffffffffffffffffffffff1673ffffffffffffffffffffffffffffffffffffffff163373ffffffffffffffffffffffffffffffffffffffff16145b15156122b157600080fd5b8060146000848152602001908152602001600020600301819055505050565b6000601660008360001916600019168152602001908152602001600020549050919050565b6000600360008473ffffffffffffffffffffffffffffffffffffffff1673ffffffffffffffffffffffffffffffffffffffff16815260200190815260200160002060008373ffffffffffffffffffffffffffffffffffffffff1673ffffffffffffffffffffffffffffffffffffffff16815260200190815260200160002060009054906101000a900460ff16905092915050565b600b60009054906101000a900473ffffffffffffffffffffffffffffffffffffffff1673ffffffffffffffffffffffffffffffffffffffff163373ffffffffffffffffffffffffffffffffffffffff161415156123e557600080fd5b600073ffffffffffffffffffffffffffffffffffffffff168173ffffffffffffffffffffffffffffffffffffffff161415151561242157600080fd5b8073ffffffffffffffffffffffffffffffffffffffff16600b60009054906101000a900473ffffffffffffffffffffffffffffffffffffffff1673ffffffffffffffffffffffffffffffffffffffff167f8be0079c531659141344cd1fd0a4f28419497f9722a3daafe3b4186f6b6457e060405160405180910390a380600b60006101000a81548173ffffffffffffffffffffffffffffffffffffffff021916908373ffffffffffffffffffffffffffffffffffffffff16021790555050565b6000601360009054906101000a900473ffffffffffffffffffffffffffffffffffffffff1673ffffffffffffffffffffffffffffffffffffffff163373ffffffffffffffffffffffffffffffffffffffff16148061258c5750600b60009054906101000a900473ffffffffffffffffffffffffffffffffffffffff1673ffffffffffffffffffffffffffffffffffffffff163373ffffffffffffffffffffffffffffffffffffffff16145b151561259757600080fd5b8173ffffffffffffffffffffffffffffffffffffffff166370a08231306040518263ffffffff167c01000000000000000000000000000000000000000000000000000000000281526004016125ec9190613bfa565b602060405180830381600087803b151561260557600080fd5b5af1151561261257600080fd5b50505060405180519050841115151561262a57600080fd5b8173ffffffffffffffffffffffffffffffffffffffff1663a9059cbb84866040518363ffffffff167c0100000000000000000000000000000000000000000000000000000000028152600401612681929190613af0565b602060405180830381600087803b151561269a57600080fd5b5af115156126a757600080fd5b5050506040518051905090509392505050565b6000806126c6836117ed565b90508073ffffffffffffffffffffffffffffffffffffffff168473ffffffffffffffffffffffffffffffffffffffff16148061273557508373ffffffffffffffffffffffffffffffffffffffff1661271d84610abe565b73ffffffffffffffffffffffffffffffffffffffff16145b80612746575061274581856122f5565b5b91505092915050565b8173ffffffffffffffffffffffffffffffffffffffff1661276f826117ed565b73ffffffffffffffffffffffffffffffffffffffff1614151561279157600080fd5b600073ffffffffffffffffffffffffffffffffffffffff166001600083815260200190815260200160002060009054906101000a900473ffffffffffffffffffffffffffffffffffffffff1673ffffffffffffffffffffffffffffffffffffffff161415156128b45760006001600083815260200190815260200160002060006101000a81548173ffffffffffffffffffffffffffffffffffffffff021916908373ffffffffffffffffffffffffffffffffffffffff160217905550600073ffffffffffffffffffffffffffffffffffffffff168273ffffffffffffffffffffffffffffffffffffffff167f8c5be1e5ebec7d5bd14f71427d1e84f3dd0314c0f7b2291e5b200ac8c7c3b925836040516128ab9190613c37565b60405180910390a35b5050565b60008060006128c78585612e62565b600760008581526020019081526020016000205492506129336001600660008873ffffffffffffffffffffffffffffffffffffffff1673ffffffffffffffffffffffffffffffffffffffff16815260200190815260200160002080549050612f9090919063ffffffff16565b9150600660008673ffffffffffffffffffffffffffffffffffffffff1673ffffffffffffffffffffffffffffffffffffffff1681526020019081526020016000208281548110151561298157fe5b906000526020600020900154905080600660008773ffffffffffffffffffffffffffffffffffffffff1673ffffffffffffffffffffffffffffffffffffffff168152602001908152602001600020848154811015156129dc57fe5b9060005260206000209001819055506000600660008773ffffffffffffffffffffffffffffffffffffffff1673ffffffffffffffffffffffffffffffffffffffff16815260200190815260200160002083815481101515612a3957fe5b906000526020600020900181905550600660008673ffffffffffffffffffffffffffffffffffffffff1673ffffffffffffffffffffffffffffffffffffffff168152602001908152602001600020805480919060019003612a9a919061333b565b50600060076000868152602001908152602001600020819055508260076000838152602001908152602001600020819055505050505050565b6000612adf8383612fa9565b600660008473ffffffffffffffffffffffffffffffffffffffff1673ffffffffffffffffffffffffffffffffffffffff168152602001908152602001600020805490509050600660008473ffffffffffffffffffffffffffffffffffffffff1673ffffffffffffffffffffffffffffffffffffffff1681526020019081526020016000208054806001018281612b759190613367565b916000526020600020900160008490919091505550806007600084815260200190815260200160002081905550505050565b612bb18282613101565b600880549050600960008381526020019081526020016000208190555060088054806001018281612be29190613367565b9160005260206000209001600083909190915055505050565b6000806000612c0a85856131b1565b6000600a6000868152602001908152602001600020805460018160011615610100020316600290049050141515612c5b57600a60008581526020019081526020016000206000612c5a9190613393565b5b60096000858152602001908152602001600020549250612c8a6001600880549050612f9090919063ffffffff16565b9150600882815481101515612c9b57fe5b906000526020600020900154905080600884815481101515612cb957fe5b9060005260206000209001819055506000600883815481101515612cd957fe5b9060005260206000209001819055506008805480919060019003612cfd919061333b565b50600060096000868152602001908152602001600020819055508260096000838152602001908152602001600020819055505050505050565b600080612d588573ffffffffffffffffffffffffffffffffffffffff1661322f565b1515612d675760019150612e59565b8473ffffffffffffffffffffffffffffffffffffffff1663f0b9e5ba8786866040518463ffffffff167c0100000000000000000000000000000000000000000000000000000000028152600401612dc093929190613b19565b602060405180830381600087803b1515612dd957600080fd5b5af11515612de657600080fd5b50505060405180519050905063f0b9e5ba7c0100000000000000000000000000000000000000000000000000000000027bffffffffffffffffffffffffffffffffffffffffffffffffffffffff1916817bffffffffffffffffffffffffffffffffffffffffffffffffffffffff19161491505b50949350505050565b8173ffffffffffffffffffffffffffffffffffffffff16612e82826117ed565b73ffffffffffffffffffffffffffffffffffffffff16141515612ea457600080fd5b612ef76001600260008573ffffffffffffffffffffffffffffffffffffffff1673ffffffffffffffffffffffffffffffffffffffff16815260200190815260200160002054612f9090919063ffffffff16565b600260008473ffffffffffffffffffffffffffffffffffffffff1673ffffffffffffffffffffffffffffffffffffffff16815260200190815260200160002081905550600080600083815260200190815260200160002060006101000a81548173ffffffffffffffffffffffffffffffffffffffff021916908373ffffffffffffffffffffffffffffffffffffffff1602179055505050565b6000828211151515612f9e57fe5b818303905092915050565b600073ffffffffffffffffffffffffffffffffffffffff1660008083815260200190815260200160002060009054906101000a900473ffffffffffffffffffffffffffffffffffffffff1673ffffffffffffffffffffffffffffffffffffffff1614151561301657600080fd5b8160008083815260200190815260200160002060006101000a81548173ffffffffffffffffffffffffffffffffffffffff021916908373ffffffffffffffffffffffffffffffffffffffff1602179055506130ba6001600260008573ffffffffffffffffffffffffffffffffffffffff1673ffffffffffffffffffffffffffffffffffffffff1681526020019081526020016000205461324290919063ffffffff16565b600260008473ffffffffffffffffffffffffffffffffffffffff1673ffffffffffffffffffffffffffffffffffffffff168152602001908152602001600020819055505050565b600073ffffffffffffffffffffffffffffffffffffffff168273ffffffffffffffffffffffffffffffffffffffff161415151561313d57600080fd5b6131478282612ad3565b8173ffffffffffffffffffffffffffffffffffffffff16600073ffffffffffffffffffffffffffffffffffffffff167fddf252ad1be2c89b69c2b068fc378daa952ba7f163c4a11628f55a4df523b3ef836040516131a59190613c37565b60405180910390a35050565b6131bb828261274f565b6131c582826128b8565b600073ffffffffffffffffffffffffffffffffffffffff168273ffffffffffffffffffffffffffffffffffffffff167fddf252ad1be2c89b69c2b068fc378daa952ba7f163c4a11628f55a4df523b3ef836040516132239190613c37565b60405180910390a35050565b600080823b905060008111915050919050565b600080828401905083811015151561325657fe5b8091505092915050565b602060405190810160405280600081525090565b82600281019282156132da579160200282015b828111156132d95782518260006101000a8154817bffffffffffffffffffffffffffffffffffffffffffffffffffffffff02191690836401000000009004021790555091602001919060010190613287565b5b5090506132e791906133db565b5090565b506000815560010160009055565b60408051908101604052806002905b600063ffffffff19168152602001906001900390816133085790505090565b602060405190810160405280600081525090565b815481835581811511613362578183600052602060002091820191016133619190613426565b5b505050565b81548183558181151161338e5781836000526020600020918201910161338d9190613426565b5b505050565b50805460018160011615610100020316600290046000825580601f106133b957506133d8565b601f0160209004906000526020600020908101906133d79190613426565b5b50565b61342391905b8082111561341f57600081816101000a8154907bffffffffffffffffffffffffffffffffffffffffffffffffffffffff0219169055506001016133e1565b5090565b90565b61344891905b8082111561344457600081600090555060010161342c565b5090565b90565b60006134578235613dfe565b905092915050565b600082601f830112151561347257600080fd5b600261348561348082613ce0565b613cb3565b9150818385602084028201111561349b57600080fd5b60005b838110156134cb57816134b188826134fd565b84526020840193506020830192505060018101905061349e565b5050505092915050565b60006134e18235613e1e565b905092915050565b60006134f58235613e2a565b905092915050565b60006135098235613e56565b905092915050565b600061351d8235613e82565b905092915050565b600082601f830112151561353857600080fd5b813561354b61354682613d02565b613cb3565b9150808252602083016020830185838301111561356757600080fd5b613572838284613ea8565b50505092915050565b60006135878235613e8c565b905092915050565b6000602082840312156135a157600080fd5b60006135af8482850161344b565b91505092915050565b600080604083850312156135cb57600080fd5b60006135d98582860161344b565b92505060206135ea8582860161344b565b9150509250929050565b60008060006060848603121561360957600080fd5b60006136178682870161344b565b93505060206136288682870161344b565b92505060406136398682870161357b565b9150509250925092565b6000806000806080858703121561365957600080fd5b60006136678782880161344b565b94505060206136788782880161344b565b93505060406136898782880161357b565b925050606085013567ffffffffffffffff8111156136a657600080fd5b6136b287828801613525565b91505092959194509250565b600080604083850312156136d157600080fd5b60006136df8582860161344b565b92505060206136f0858286016134d5565b9150509250929050565b6000806040838503121561370d57600080fd5b600061371b8582860161344b565b925050602061372c8582860161357b565b9150509250929050565b60006040828403121561374857600080fd5b60006137568482850161345f565b91505092915050565b60006020828403121561377157600080fd5b600061377f84828501613511565b91505092915050565b6000806040838503121561379b57600080fd5b60006137a985828601613511565b92505060206137ba8582860161344b565b9150509250929050565b600080604083850312156137d757600080fd5b60006137e585828601613511565b92505060206137f68582860161357b565b9150509250929050565b60006020828403121561381257600080fd5b60006138208482850161357b565b91505092915050565b60008060006060848603121561383e57600080fd5b600061384c8682870161357b565b935050602061385d8682870161344b565b925050604061386e8682870161344b565b9150509250925092565b6000806060838503121561388b57600080fd5b60006138998582860161357b565b92505060206138aa8582860161345f565b9150509250929050565b600080604083850312156138c757600080fd5b60006138d58582860161357b565b92505060206138e6858286016134e9565b9150509250929050565b6000806040838503121561390357600080fd5b60006139118582860161357b565b92505060206139228582860161357b565b9150509250929050565b60008060008060008060c0878903121561394557600080fd5b600061395389828a0161357b565b965050602061396489828a0161357b565b955050604061397589828a0161357b565b945050606061398689828a0161357b565b935050608061399789828a0161357b565b92505060a06139a889828a0161357b565b9150509295509295509295565b6139be81613d66565b82525050565b6139cd81613d38565b6139d682613d2e565b60005b82811015613a08576139ec858351613a2d565b6139f582613d59565b91506020850194506001810190506139d9565b5050505050565b613a1881613d86565b82525050565b613a2781613d92565b82525050565b613a3681613dbe565b82525050565b613a4581613dea565b82525050565b6000613a5682613d43565b808452613a6a816020860160208601613eb7565b613a7381613eea565b602085010191505092915050565b613a8a81613e96565b82525050565b6000613a9b82613d4e565b808452613aaf816020860160208601613eb7565b613ab881613eea565b602085010191505092915050565b613acf81613df4565b82525050565b6000602082019050613aea60008301846139b5565b92915050565b6000604082019050613b0560008301856139b5565b613b126020830184613ac6565b9392505050565b6000606082019050613b2e60008301866139b5565b613b3b6020830185613ac6565b8181036040830152613b4d8184613a4b565b9050949350505050565b6000604082019050613b6c60008301846139c4565b92915050565b6000602082019050613b876000830184613a0f565b92915050565b6000602082019050613ba26000830184613a1e565b92915050565b6000606082019050613bbd6000830186613a1e565b613bca6020830185613ac6565b613bd76040830184613ac6565b949350505050565b6000602082019050613bf46000830184613a3c565b92915050565b6000602082019050613c0f6000830184613a81565b92915050565b60006020820190508181036000830152613c2f8184613a90565b905092915050565b6000602082019050613c4c6000830184613ac6565b92915050565b600060c082019050613c676000830189613ac6565b613c746020830188613ac6565b613c816040830187613ac6565b613c8e6060830186613ac6565b613c9b6080830185613ac6565b613ca860a0830184613ac6565b979650505050505050565b6000604051905081810181811067ffffffffffffffff82111715613cd657600080fd5b8060405250919050565b600067ffffffffffffffff821115613cf757600080fd5b602082029050919050565b600067ffffffffffffffff821115613d1957600080fd5b601f19601f8301169050602081019050919050565b6000819050919050565b600060029050919050565b600081519050919050565b600081519050919050565b6000602082019050919050565b600073ffffffffffffffffffffffffffffffffffffffff82169050919050565b60008115159050919050565b60007fff0000000000000000000000000000000000000000000000000000000000000082169050919050565b60007fffffffffffffffffffffffffffffffffffffffffffffffffffffffff0000000082169050919050565b6000819050919050565b6000819050919050565b600073ffffffffffffffffffffffffffffffffffffffff82169050919050565b60008115159050919050565b60007fff0000000000000000000000000000000000000000000000000000000000000082169050919050565b60007fffffffffffffffffffffffffffffffffffffffffffffffffffffffff0000000082169050919050565b6000819050919050565b6000819050919050565b6000613ea182613d66565b9050919050565b82818337600083830152505050565b60005b83811015613ed5578082015181840152602081019050613eba565b83811115613ee4576000848401525b50505050565b6000601f19601f83011690509190505600a265627a7a72305820b44523708162f139c5badc097b48d56900adacd1b1fcd1fcad01d629dc82ec166c6578706572696d656e74616cf50037",
  "source": "pragma solidity ^0.4.18;\npragma experimental ABIEncoderV2;\n\n/**\n * Digital Asset Registry for the Non Fungible Token Clover\n * with upgradeable contract reference for returning metadata.\n */\n\nimport \"zeppelin-solidity/contracts/token/ERC20/ERC20.sol\";\n\nimport \"zeppelin-solidity/contracts/token/ERC721/ERC721Token.sol\";\nimport \"zeppelin-solidity/contracts/ownership/Ownable.sol\";\nimport \"./IClovers.sol\";\nimport \"./CloversMetadata.sol\";\n\n\ncontract Clovers is IClovers, ERC721Token, Ownable {\n\n    address private cloversMetadata;\n    uint256 totalSymmetries;\n    uint256[5] symmetries; // RotSym, Y0Sym, X0Sym, XYSym, XnYSym\n    address cloversController;\n\n    mapping (uint256 => Clover) public clovers;\n    struct Clover {\n        bytes1 symmetries;\n        bytes28[2] cloverMoves;\n        uint256 blockMinted;\n        uint256 rewards;\n    }\n    mapping (bytes32 => address) public commits;\n    mapping (bytes32 => uint256) public stakes;\n\n    modifier onlyOwnerOrController() {\n        require(\n            msg.sender == cloversController ||\n            msg.sender == owner\n        );\n        _;\n    }\n\n    function Clovers (string name, string symbol) public\n        ERC721Token(name, symbol)\n    { }\n\n    function () public payable {}\n\n    function implementation() public view returns (address) {\n        return cloversMetadata;\n    }\n\n    function tokenURI(uint _tokenId) public view returns (string _infoUrl) {\n        // require(ownerOf(_tokenId) != 0);\n        address _impl = implementation();\n        bytes memory data = msg.data;\n        assembly {\n            let result := delegatecall(gas, _impl, add(data, 0x20), mload(data), 0, 0)\n            let size := returndatasize\n            let ptr := mload(0x40)\n            returndatacopy(ptr, 0, size)\n            switch result\n            case 0 { revert(ptr, size) }\n            default { return(ptr, size) }\n        }\n        // return CloversMetadata(cloversMetadata).tokenMetadata(_tokenId);\n    }\n    function getHash(bytes28[2] moves) public view returns (bytes32) {\n        return keccak256(moves);\n    }\n    function getStake(bytes32 movesHash) public view returns (uint256) {\n        return stakes[movesHash];\n    }\n    function getCommit(bytes32 movesHash) public view returns (address) {\n        return commits[movesHash];\n    }\n    function getBlockMinted(uint256 _tokenId) public view returns (uint256) {\n        return clovers[_tokenId].blockMinted;\n    }\n    function getCloverMoves(uint256 _tokenId) public view returns (bytes28[2]) {\n        return clovers[_tokenId].cloverMoves;\n    }\n    function getReward(uint256 _tokenId) public view returns (uint256) {\n        return clovers[_tokenId].rewards;\n    }\n    function getSymmetries(uint256 _tokenId) public view returns (bytes1) {\n        return clovers[_tokenId].symmetries;\n    }\n    function getAllSymmetries() public view returns (uint256, uint256, uint256, uint256, uint256, uint256) {\n        return (\n            totalSymmetries,\n            symmetries[0], //RotSym,\n            symmetries[1], //Y0Sym,\n            symmetries[2], //X0Sym,\n            symmetries[3], //XYSym,\n            symmetries[4] //XnYSym\n        );\n    }\n\n/* ---------------------------------------------------------------------------------------------------------------------- */\n\n    function moveEth(address _to, uint256 amount) public onlyOwnerOrController returns (bool) {\n        require(amount <= this.balance);\n        return _to.send(amount);\n    }\n    function moveToken(uint256 amount, address _to, address token) public onlyOwnerOrController returns (bool) {\n        require(amount <= ERC20(token).balanceOf(this));\n        return ERC20(token).transfer(_to, amount);\n    }\n    function approveToken(uint256 amount, address _to, address token) public onlyOwnerOrController returns (bool) {\n        return ERC20(token).approve(_to, amount);\n    }\n\n    function setStake(bytes32 movesHash, uint256 stake) public onlyOwnerOrController {\n        stakes[movesHash] = stake;\n    }\n    function setCommit(bytes32 movesHash, address commiter) public onlyOwnerOrController {\n        commits[movesHash] = commiter;\n    }\n    function setBlockMinted(uint256 _tokenId, uint256 value) public onlyOwnerOrController {\n        clovers[_tokenId].blockMinted = value;\n    }\n    function setCloverMoves(uint256 _tokenId, bytes28[2] moves) public onlyOwnerOrController {\n        clovers[_tokenId].cloverMoves = moves;\n    }\n    function setReward(uint256 _tokenId, uint256 _amount) public onlyOwnerOrController {\n        clovers[_tokenId].rewards = _amount;\n    }\n    function setSymmetries(uint256 _tokenId, bytes1 _symmetries) public onlyOwnerOrController {\n        clovers[_tokenId].symmetries = _symmetries;\n    }\n    function setAllSymmetries(uint256 _totalSymmetries, uint256 RotSym, uint256 Y0Sym, uint256 X0Sym, uint256 XYSym, uint256 XnYSym) public onlyOwnerOrController {\n        totalSymmetries = _totalSymmetries;\n        symmetries[0] = RotSym;\n        symmetries[1] = Y0Sym;\n        symmetries[2] = X0Sym;\n        symmetries[3] = XYSym;\n        symmetries[4] = XnYSym;\n    }\n    function deleteClover(uint256 _tokenId) public onlyOwnerOrController {\n        delete(clovers[_tokenId]);\n    }\n\n    function updateCloversControllerAddress(address _cloversController) public onlyOwner {\n        require(_cloversController != 0);\n        cloversController = _cloversController;\n    }\n    function updateCloversMetadataAddress(address _cloversMetadata) public onlyOwner {\n        require(_cloversMetadata != 0);\n        cloversMetadata = _cloversMetadata;\n    }\n\n    function mint (address _to, uint256 _tokenId) public onlyOwnerOrController {\n        super._mint(_to, _tokenId);\n    }\n    function unmint (uint256 _tokenId) public onlyOwnerOrController {\n        super._burn(ownerOf(_tokenId), _tokenId);\n        // address _owner = ownerOf(_tokenId); // needs to be changed from private to internal\n        // if (getApproved(_tokenId) != 0) {\n        //     tokenApprovals[_tokenId] = 0;\n        //     Approval(_owner, 0x0, _tokenId);\n        // }\n        // removeTokenFrom(_owner, _tokenId); // needs to be changed from private to internal\n        // Transfer(_owner, 0x0, _tokenId);\n    }\n\n}\n",
  "sourcePath": "/Users/billy/sol/clovers-contracts/contracts/Clovers.sol",
  "compiler": {
    "name": "solc",
    "version": "0.4.21+commit.dfe3193c.Emscripten.clang"
  },
  "schemaVersion": "2.0.0",
  "updatedAt": "2018-05-02T14:30:14.298Z"
}