{
  "contractName": "CloversController",
  "abi": [
    {
      "constant": true,
      "inputs": [],
      "name": "clovers",
      "outputs": [
        {
          "name": "",
          "type": "address"
        }
      ],
      "payable": false,
      "stateMutability": "view",
      "type": "function"
    },
    {
      "constant": false,
      "inputs": [
        {
          "name": "token",
          "type": "address"
        }
      ],
      "name": "reclaimToken",
      "outputs": [],
      "payable": false,
      "stateMutability": "nonpayable",
      "type": "function"
    },
    {
      "constant": true,
      "inputs": [],
      "name": "payMultiplier",
      "outputs": [
        {
          "name": "",
          "type": "uint256"
        }
      ],
      "payable": false,
      "stateMutability": "view",
      "type": "function"
    },
    {
      "constant": true,
      "inputs": [
        {
          "name": "",
          "type": "bytes32"
        }
      ],
      "name": "commits",
      "outputs": [
        {
          "name": "",
          "type": "address"
        }
      ],
      "payable": false,
      "stateMutability": "view",
      "type": "function"
    },
    {
      "constant": true,
      "inputs": [],
      "name": "stakeAmount",
      "outputs": [
        {
          "name": "",
          "type": "uint256"
        }
      ],
      "payable": false,
      "stateMutability": "view",
      "type": "function"
    },
    {
      "constant": false,
      "inputs": [],
      "name": "renounceOwnership",
      "outputs": [],
      "payable": false,
      "stateMutability": "nonpayable",
      "type": "function"
    },
    {
      "constant": true,
      "inputs": [],
      "name": "owner",
      "outputs": [
        {
          "name": "",
          "type": "address"
        }
      ],
      "payable": false,
      "stateMutability": "view",
      "type": "function"
    },
    {
      "constant": true,
      "inputs": [
        {
          "name": "",
          "type": "bytes32"
        }
      ],
      "name": "stakes",
      "outputs": [
        {
          "name": "",
          "type": "uint256"
        }
      ],
      "payable": false,
      "stateMutability": "view",
      "type": "function"
    },
    {
      "constant": false,
      "inputs": [],
      "name": "reclaimEther",
      "outputs": [],
      "payable": false,
      "stateMutability": "nonpayable",
      "type": "function"
    },
    {
      "constant": true,
      "inputs": [],
      "name": "clubTokenController",
      "outputs": [
        {
          "name": "",
          "type": "address"
        }
      ],
      "payable": false,
      "stateMutability": "view",
      "type": "function"
    },
    {
      "constant": false,
      "inputs": [
        {
          "name": "from_",
          "type": "address"
        },
        {
          "name": "value_",
          "type": "uint256"
        },
        {
          "name": "data_",
          "type": "bytes"
        }
      ],
      "name": "tokenFallback",
      "outputs": [],
      "payable": false,
      "stateMutability": "nonpayable",
      "type": "function"
    },
    {
      "constant": true,
      "inputs": [],
      "name": "stakePeriod",
      "outputs": [
        {
          "name": "",
          "type": "uint256"
        }
      ],
      "payable": false,
      "stateMutability": "view",
      "type": "function"
    },
    {
      "constant": true,
      "inputs": [],
      "name": "priceMultiplier",
      "outputs": [
        {
          "name": "",
          "type": "uint256"
        }
      ],
      "payable": false,
      "stateMutability": "view",
      "type": "function"
    },
    {
      "constant": true,
      "inputs": [],
      "name": "clubToken",
      "outputs": [
        {
          "name": "",
          "type": "address"
        }
      ],
      "payable": false,
      "stateMutability": "view",
      "type": "function"
    },
    {
      "constant": false,
      "inputs": [
        {
          "name": "_newOwner",
          "type": "address"
        }
      ],
      "name": "transferOwnership",
      "outputs": [],
      "payable": false,
      "stateMutability": "nonpayable",
      "type": "function"
    },
    {
      "inputs": [
        {
          "name": "_clovers",
          "type": "address"
        },
        {
          "name": "_clubToken",
          "type": "address"
        },
        {
          "name": "_clubTokenController",
          "type": "address"
        }
      ],
      "payable": false,
      "stateMutability": "nonpayable",
      "type": "constructor"
    },
    {
      "payable": false,
      "stateMutability": "nonpayable",
      "type": "fallback"
    },
    {
      "anonymous": false,
      "inputs": [
        {
          "indexed": false,
          "name": "movesHash",
          "type": "bytes32"
        },
        {
          "indexed": false,
          "name": "owner",
          "type": "address"
        }
      ],
      "name": "cloverCommitted",
      "type": "event"
    },
    {
      "anonymous": false,
      "inputs": [
        {
          "indexed": false,
          "name": "moves",
          "type": "bytes28[2]"
        },
        {
          "indexed": false,
          "name": "tokenId",
          "type": "uint256"
        },
        {
          "indexed": false,
          "name": "owner",
          "type": "address"
        },
        {
          "indexed": false,
          "name": "stake",
          "type": "uint256"
        },
        {
          "indexed": false,
          "name": "reward",
          "type": "uint256"
        },
        {
          "indexed": false,
          "name": "symmetries",
          "type": "uint256"
        }
      ],
      "name": "cloverClaimed",
      "type": "event"
    },
    {
      "anonymous": false,
      "inputs": [
        {
          "indexed": false,
          "name": "tokenId",
          "type": "uint256"
        },
        {
          "indexed": false,
          "name": "owner",
          "type": "address"
        },
        {
          "indexed": false,
          "name": "stake",
          "type": "uint256"
        }
      ],
      "name": "stakeRetrieved",
      "type": "event"
    },
    {
      "anonymous": false,
      "inputs": [
        {
          "indexed": false,
          "name": "moves",
          "type": "bytes28[2]"
        },
        {
          "indexed": false,
          "name": "tokenId",
          "type": "uint256"
        },
        {
          "indexed": false,
          "name": "owner",
          "type": "address"
        },
        {
          "indexed": false,
          "name": "challenger",
          "type": "address"
        },
        {
          "indexed": false,
          "name": "stake",
          "type": "uint256"
        }
      ],
      "name": "cloverChallenged",
      "type": "event"
    },
    {
      "anonymous": false,
      "inputs": [
        {
          "indexed": true,
          "name": "previousOwner",
          "type": "address"
        }
      ],
      "name": "OwnershipRenounced",
      "type": "event"
    },
    {
      "anonymous": false,
      "inputs": [
        {
          "indexed": true,
          "name": "previousOwner",
          "type": "address"
        },
        {
          "indexed": true,
          "name": "newOwner",
          "type": "address"
        }
      ],
      "name": "OwnershipTransferred",
      "type": "event"
    },
    {
      "constant": true,
      "inputs": [
        {
          "name": "movesHash",
          "type": "bytes32"
        }
      ],
      "name": "getStake",
      "outputs": [
        {
          "name": "",
          "type": "uint256"
        }
      ],
      "payable": false,
      "stateMutability": "view",
      "type": "function"
    },
    {
      "constant": true,
      "inputs": [
        {
          "name": "movesHash",
          "type": "bytes32"
        }
      ],
      "name": "getCommit",
      "outputs": [
        {
          "name": "",
          "type": "address"
        }
      ],
      "payable": false,
      "stateMutability": "view",
      "type": "function"
    },
    {
      "constant": true,
      "inputs": [
        {
          "name": "_tokenId",
          "type": "uint256"
        }
      ],
      "name": "getMovesHash",
      "outputs": [
        {
          "name": "",
          "type": "bytes32"
        }
      ],
      "payable": false,
      "stateMutability": "view",
      "type": "function"
    },
    {
      "constant": true,
      "inputs": [
        {
          "name": "moves",
          "type": "bytes28[2]"
        }
      ],
      "name": "isValid",
      "outputs": [
        {
          "name": "",
          "type": "bool"
        }
      ],
      "payable": false,
      "stateMutability": "view",
      "type": "function"
    },
    {
      "constant": true,
      "inputs": [
        {
          "components": [
            {
              "name": "error",
              "type": "bool"
            },
            {
              "name": "complete",
              "type": "bool"
            },
            {
              "name": "symmetrical",
              "type": "bool"
            },
            {
              "name": "RotSym",
              "type": "bool"
            },
            {
              "name": "Y0Sym",
              "type": "bool"
            },
            {
              "name": "X0Sym",
              "type": "bool"
            },
            {
              "name": "XYSym",
              "type": "bool"
            },
            {
              "name": "XnYSym",
              "type": "bool"
            },
            {
              "name": "board",
              "type": "bytes16"
            },
            {
              "name": "first32Moves",
              "type": "bytes28"
            },
            {
              "name": "lastMoves",
              "type": "bytes28"
            },
            {
              "name": "currentPlayer",
              "type": "uint8"
            },
            {
              "name": "moveKey",
              "type": "uint8"
            },
            {
              "name": "blackScore",
              "type": "uint8"
            },
            {
              "name": "whiteScore",
              "type": "uint8"
            }
          ],
          "name": "game",
          "type": "tuple"
        }
      ],
      "name": "isValidGame",
      "outputs": [
        {
          "name": "",
          "type": "bool"
        }
      ],
      "payable": false,
      "stateMutability": "pure",
      "type": "function"
    },
    {
      "constant": true,
      "inputs": [
        {
          "name": "_tokenId",
          "type": "uint256"
        }
      ],
      "name": "isVerified",
      "outputs": [
        {
          "name": "",
          "type": "bool"
        }
      ],
      "payable": false,
      "stateMutability": "view",
      "type": "function"
    },
    {
      "constant": true,
      "inputs": [
        {
          "name": "_symmetries",
          "type": "uint256"
        }
      ],
      "name": "calculateReward",
      "outputs": [
        {
          "name": "",
          "type": "uint256"
        }
      ],
      "payable": false,
      "stateMutability": "view",
      "type": "function"
    },
    {
      "constant": false,
      "inputs": [
        {
          "name": "moves",
          "type": "bytes28[2]"
        },
        {
          "name": "_keep",
          "type": "bool"
        }
      ],
      "name": "synchronousClaim",
      "outputs": [
        {
          "name": "",
          "type": "bool"
        }
      ],
      "payable": true,
      "stateMutability": "payable",
      "type": "function"
    },
    {
      "constant": false,
      "inputs": [
        {
          "name": "moves",
          "type": "bytes28[2]"
        },
        {
          "name": "_tokenId",
          "type": "uint256"
        },
        {
          "name": "_symmetries",
          "type": "uint256"
        },
        {
          "name": "_to",
          "type": "address"
        }
      ],
      "name": "claimClover",
      "outputs": [
        {
          "name": "",
          "type": "bool"
        }
      ],
      "payable": true,
      "stateMutability": "payable",
      "type": "function"
    },
    {
      "constant": false,
      "inputs": [
        {
          "name": "movesHash",
          "type": "bytes32"
        },
        {
          "name": "_to",
          "type": "address"
        }
      ],
      "name": "claimCloverCommit",
      "outputs": [
        {
          "name": "",
          "type": "bool"
        }
      ],
      "payable": true,
      "stateMutability": "payable",
      "type": "function"
    },
    {
      "constant": false,
      "inputs": [
        {
          "name": "moves",
          "type": "bytes28[2]"
        },
        {
          "name": "_tokenId",
          "type": "uint256"
        },
        {
          "name": "_symmetries",
          "type": "uint256"
        }
      ],
      "name": "claimCloverReveal",
      "outputs": [
        {
          "name": "",
          "type": "bool"
        }
      ],
      "payable": false,
      "stateMutability": "nonpayable",
      "type": "function"
    },
    {
      "constant": false,
      "inputs": [
        {
          "name": "_tokenId",
          "type": "uint256"
        },
        {
          "name": "_keep",
          "type": "bool"
        }
      ],
      "name": "retrieveStake",
      "outputs": [
        {
          "name": "",
          "type": "bool"
        }
      ],
      "payable": true,
      "stateMutability": "payable",
      "type": "function"
    },
    {
      "constant": false,
      "inputs": [
        {
          "name": "_tokenId",
          "type": "uint256"
        }
      ],
      "name": "buyCloverFromContract",
      "outputs": [
        {
          "name": "",
          "type": "bool"
        }
      ],
      "payable": true,
      "stateMutability": "payable",
      "type": "function"
    },
    {
      "constant": false,
      "inputs": [
        {
          "name": "_tokenId",
          "type": "uint256"
        },
        {
          "name": "_to",
          "type": "address"
        }
      ],
      "name": "challengeClover",
      "outputs": [
        {
          "name": "",
          "type": "bool"
        }
      ],
      "payable": false,
      "stateMutability": "nonpayable",
      "type": "function"
    },
    {
      "constant": false,
      "inputs": [
        {
          "name": "_clubTokenController",
          "type": "address"
        }
      ],
      "name": "updateClubTokenController",
      "outputs": [],
      "payable": false,
      "stateMutability": "nonpayable",
      "type": "function"
    },
    {
      "constant": false,
      "inputs": [
        {
          "name": "_stakeAmount",
          "type": "uint256"
        }
      ],
      "name": "updateStakeAmount",
      "outputs": [],
      "payable": false,
      "stateMutability": "nonpayable",
      "type": "function"
    },
    {
      "constant": false,
      "inputs": [
        {
          "name": "_stakePeriod",
          "type": "uint256"
        }
      ],
      "name": "updateStakePeriod",
      "outputs": [],
      "payable": false,
      "stateMutability": "nonpayable",
      "type": "function"
    },
    {
      "constant": false,
      "inputs": [
        {
          "name": "_payMultiplier",
          "type": "uint256"
        }
      ],
      "name": "updatePayMultipier",
      "outputs": [],
      "payable": false,
      "stateMutability": "nonpayable",
      "type": "function"
    },
    {
      "constant": false,
      "inputs": [
        {
          "name": "_priceMultiplier",
          "type": "uint256"
        }
      ],
      "name": "updatePriceMultipier",
      "outputs": [],
      "payable": false,
      "stateMutability": "nonpayable",
      "type": "function"
    }
  ],
  "bytecode": "0x60806040523480156200001157600080fd5b5060405160608062005fd9833981018060405262000033919081019062000165565b336000806101000a81548173ffffffffffffffffffffffffffffffffffffffff021916908373ffffffffffffffffffffffffffffffffffffffff1602179055506000341415156200008357600080fd5b82600160006101000a81548173ffffffffffffffffffffffffffffffffffffffff021916908373ffffffffffffffffffffffffffffffffffffffff16021790555081600260006101000a81548173ffffffffffffffffffffffffffffffffffffffff021916908373ffffffffffffffffffffffffffffffffffffffff16021790555080600360006101000a81548173ffffffffffffffffffffffffffffffffffffffff021916908373ffffffffffffffffffffffffffffffffffffffff160217905550505050620001db565b60006200015d8251620001bb565b905092915050565b6000806000606084860312156200017b57600080fd5b60006200018b868287016200014f565b93505060206200019e868287016200014f565b9250506040620001b1868287016200014f565b9150509250925092565b600073ffffffffffffffffffffffffffffffffffffffff82169050919050565b615dee80620001eb6000396000f3006080604052600436106101ac576000357c0100000000000000000000000000000000000000000000000000000000900463ffffffff168063038f1328146101bb5780630d576bfa146101eb57806317ffc32014610216578063271eff941461023f57806333bd41e11461027c57806335f71899146102ac57806337b6d96b146102dc5780633afcba96146103195780634788578114610344578063492d934d146103815780635759f3f7146103b157806358fcd4b6146103da57806360c7dc4714610417578063715018a6146104425780638784ea96146104595780638a05aafa146104965780638da5cb5b146104bf5780638fee6407146104ea5780639564e180146105275780639f727c2714610550578063a7e901b014610567578063a89b55da14610590578063acd37b7b146105bb578063c0ee0b8a146105f8578063c1699a9914610621578063c90054ee1461064c578063ca42b5e014610675578063d09687f7146106a5578063d2d7231f146106e2578063d50cb88b1461071f578063d76bbd521461074a578063e765c12214610775578063f2fde38b146107b2578063f8a68a56146107db575b3480156101b857600080fd5b50005b6101d560048036036101d09190810190615624565b610818565b6040516101e29190615a8f565b60405180910390f35b3480156101f757600080fd5b50610200610e42565b60405161020d9190615960565b60405180910390f35b34801561022257600080fd5b5061023d60048036036102389190810190615715565b610e68565b005b34801561024b57600080fd5b5061026660048036036102619190810190615547565b610fbe565b6040516102739190615a8f565b60405180910390f35b61029660048036036102919190810190615599565b610fe4565b6040516102a39190615a8f565b60405180910390f35b6102c660048036036102c191908101906156d9565b610fec565b6040516102d39190615a8f565b60405180910390f35b3480156102e857600080fd5b5061030360048036036102fe9190810190615768565b611114565b6040516103109190615a8f565b60405180910390f35b34801561032557600080fd5b5061032e611272565b60405161033b9190615b09565b60405180910390f35b34801561035057600080fd5b5061036b600480360361036691908101906156b0565b611278565b6040516103789190615960565b60405180910390f35b61039b60048036036103969190810190615768565b6112ab565b6040516103a89190615a8f565b60405180910390f35b3480156103bd57600080fd5b506103d860048036036103d39190810190615768565b6116bc565b005b3480156103e657600080fd5b5061040160048036036103fc91908101906155d5565b611721565b60405161040e9190615a8f565b60405180910390f35b34801561042357600080fd5b5061042c611b97565b6040516104399190615b09565b60405180910390f35b34801561044e57600080fd5b50610457611b9d565b005b34801561046557600080fd5b50610480600480360361047b91908101906156b0565b611c9f565b60405161048d9190615960565b60405180910390f35b3480156104a257600080fd5b506104bd60048036036104b89190810190615768565b611ce4565b005b3480156104cb57600080fd5b506104d4611d49565b6040516104e19190615960565b60405180910390f35b3480156104f657600080fd5b50610511600480360361050c91908101906156b0565b611d6e565b60405161051e9190615b09565b60405180910390f35b34801561053357600080fd5b5061054e600480360361054991908101906154b2565b611d86565b005b34801561055c57600080fd5b50610565611e25565b005b34801561057357600080fd5b5061058e60048036036105899190810190615768565b611f01565b005b34801561059c57600080fd5b506105a5611f66565b6040516105b29190615960565b60405180910390f35b3480156105c757600080fd5b506105e260048036036105dd91908101906157ba565b611f8c565b6040516105ef9190615a8f565b60405180910390f35b34801561060457600080fd5b5061061f600480360361061a91908101906154db565b61257c565b005b34801561062d57600080fd5b50610636612581565b6040516106439190615b09565b60405180910390f35b34801561065857600080fd5b50610673600480360361066e9190810190615768565b612587565b005b61068f600480360361068a91908101906157f6565b6125ec565b60405161069c9190615a8f565b60405180910390f35b3480156106b157600080fd5b506106cc60048036036106c79190810190615768565b612e33565b6040516106d99190615aaa565b60405180910390f35b3480156106ee57600080fd5b5061070960048036036107049190810190615768565b612f41565b6040516107169190615b09565b60405180910390f35b34801561072b57600080fd5b506107346131d7565b6040516107419190615b09565b60405180910390f35b34801561075657600080fd5b5061075f6131dd565b60405161076c9190615960565b60405180910390f35b34801561078157600080fd5b5061079c600480360361079791908101906156b0565b613203565b6040516107a99190615b09565b60405180910390f35b3480156107be57600080fd5b506107d960048036036107d491908101906154b2565b613228565b005b3480156107e757600080fd5b5061080260048036036107fd919081019061573e565b61328f565b60405161080f9190615a8f565b60405180910390f35b6000806000806401000000000287600060028110151561083457fe5b602002015163ffffffff19161415151561084d57600080fd5b6006543414151561085d57600080fd5b866040518082600260200280838360005b8381101561088957808201518184015260208101905061086e565b505050509050019150506040518091039020915060006108a883611c9f565b73ffffffffffffffffffffffffffffffffffffffff161415156108ca57600080fd5b6108d482856132c2565b6108e082600654613320565b600160009054906101000a900473ffffffffffffffffffffffffffffffffffffffff1673ffffffffffffffffffffffffffffffffffffffff166108fc6006549081150290604051600060405180830381858888f1935050505015801561094a573d6000803e3d6000fd5b507f4c0f83654ac2972673e4d81058f833de298389df1dce04cc2db9f231b907d5ff828560405161097c929190615ac5565b60405180910390a1600160009054906101000a900473ffffffffffffffffffffffffffffffffffffffff1673ffffffffffffffffffffffffffffffffffffffff16634f558e79876040518263ffffffff167c01000000000000000000000000000000000000000000000000000000000281526004016109fb9190615b09565b602060405180830381600087803b158015610a1557600080fd5b505af1158015610a29573d6000803e3d6000fd5b505050506040513d601f19601f82011682018060405250610a4d9190810190615687565b151515610a5957600080fd5b6000600160009054906101000a900473ffffffffffffffffffffffffffffffffffffffff1673ffffffffffffffffffffffffffffffffffffffff166303a53d6b886040518263ffffffff167c0100000000000000000000000000000000000000000000000000000000028152600401610ad29190615b09565b602060405180830381600087803b158015610aec57600080fd5b505af1158015610b00573d6000803e3d6000fd5b505050506040513d601f19601f82011682018060405250610b249190810190615791565b141515610b3057600080fd5b600160009054906101000a900473ffffffffffffffffffffffffffffffffffffffff1673ffffffffffffffffffffffffffffffffffffffff1663e3100d1e87436040518363ffffffff167c0100000000000000000000000000000000000000000000000000000000028152600401610ba9929190615b84565b600060405180830381600087803b158015610bc357600080fd5b505af1158015610bd7573d6000803e3d6000fd5b50505050600160009054906101000a900473ffffffffffffffffffffffffffffffffffffffff1673ffffffffffffffffffffffffffffffffffffffff16630b62839587896040518363ffffffff167c0100000000000000000000000000000000000000000000000000000000028152600401610c54929190615b5b565b600060405180830381600087803b158015610c6e57600080fd5b505af1158015610c82573d6000803e3d6000fd5b505050506000851115610df157600160009054906101000a900473ffffffffffffffffffffffffffffffffffffffff1673ffffffffffffffffffffffffffffffffffffffff1663dc3f775887876040518363ffffffff167c0100000000000000000000000000000000000000000000000000000000028152600401610d08929190615b84565b600060405180830381600087803b158015610d2257600080fd5b505af1158015610d36573d6000803e3d6000fd5b50505050610d4385612f41565b9050600160009054906101000a900473ffffffffffffffffffffffffffffffffffffffff1673ffffffffffffffffffffffffffffffffffffffff1663a47bd49687836040518363ffffffff167c0100000000000000000000000000000000000000000000000000000000028152600401610dbe929190615b84565b600060405180830381600087803b158015610dd857600080fd5b505af1158015610dec573d6000803e3d6000fd5b505050505b7f9e2bcf76790c190a87d6418084ca9f7d35a8166a4acbecc10088b106360fd38b878786600654858a604051610e2c96959493929190615a2e565b60405180910390a1600192505050949350505050565b600160009054906101000a900473ffffffffffffffffffffffffffffffffffffffff1681565b60008060009054906101000a900473ffffffffffffffffffffffffffffffffffffffff1673ffffffffffffffffffffffffffffffffffffffff163373ffffffffffffffffffffffffffffffffffffffff16141515610ec557600080fd5b8173ffffffffffffffffffffffffffffffffffffffff166370a08231306040518263ffffffff167c0100000000000000000000000000000000000000000000000000000000028152600401610f1a9190615aee565b602060405180830381600087803b158015610f3457600080fd5b505af1158015610f48573d6000803e3d6000fd5b505050506040513d601f19601f82011682018060405250610f6c9190810190615791565b9050610fba6000809054906101000a900473ffffffffffffffffffffffffffffffffffffffff16828473ffffffffffffffffffffffffffffffffffffffff166133449092919063ffffffff16565b5050565b6000610fc8614f82565b610fd1836133fd565b9050610fdc8161328f565b915050919050565b600092915050565b6000808273ffffffffffffffffffffffffffffffffffffffff161415151561101357600080fd5b6006543414151561102357600080fd5b600061102e84611c9f565b73ffffffffffffffffffffffffffffffffffffffff1614151561105057600080fd5b61105a83836132c2565b61106683600654613320565b600160009054906101000a900473ffffffffffffffffffffffffffffffffffffffff1673ffffffffffffffffffffffffffffffffffffffff166108fc6006549081150290604051600060405180830381858888f193505050501580156110d0573d6000803e3d6000fd5b507f4c0f83654ac2972673e4d81058f833de298389df1dce04cc2db9f231b907d5ff8383604051611102929190615ac5565b60405180910390a16001905092915050565b600080600160009054906101000a900473ffffffffffffffffffffffffffffffffffffffff1673ffffffffffffffffffffffffffffffffffffffff166303a53d6b846040518263ffffffff167c010000000000000000000000000000000000000000000000000000000002815260040161118e9190615b09565b602060405180830381600087803b1580156111a857600080fd5b505af11580156111bc573d6000803e3d6000fd5b505050506040513d601f19601f820116820180604052506111e09190810190615791565b905060008114156111f4576000915061126c565b6000809054906101000a900473ffffffffffffffffffffffffffffffffffffffff1673ffffffffffffffffffffffffffffffffffffffff163373ffffffffffffffffffffffffffffffffffffffff161415611252576001915061126c565b600754611268824361374190919063ffffffff16565b1191505b50919050565b60055481565b60086020528060005260406000206000915054906101000a900473ffffffffffffffffffffffffffffffffffffffff1681565b6000806000600160009054906101000a900473ffffffffffffffffffffffffffffffffffffffff1673ffffffffffffffffffffffffffffffffffffffff16631c4b774b856040518263ffffffff167c01000000000000000000000000000000000000000000000000000000000281526004016113279190615b09565b602060405180830381600087803b15801561134157600080fd5b505af1158015611355573d6000803e3d6000fd5b505050506040513d601f19601f820116820180604052506113799190810190615791565b91506113906004548361375a90919063ffffffff16565b905080600260009054906101000a900473ffffffffffffffffffffffffffffffffffffffff1673ffffffffffffffffffffffffffffffffffffffff166370a08231336040518263ffffffff167c010000000000000000000000000000000000000000000000000000000002815260040161140a9190615960565b602060405180830381600087803b15801561142457600080fd5b505af1158015611438573d6000803e3d6000fd5b505050506040513d601f19601f8201168201806040525061145c9190810190615791565b101561152d57600360009054906101000a900473ffffffffffffffffffffffffffffffffffffffff1673ffffffffffffffffffffffffffffffffffffffff1663f088d547336040518263ffffffff167c01000000000000000000000000000000000000000000000000000000000281526004016114d99190615960565b602060405180830381600087803b1580156114f357600080fd5b505af1158015611507573d6000803e3d6000fd5b505050506040513d601f19601f8201168201806040525061152b9190810190615687565b505b60008111156115e257600260009054906101000a900473ffffffffffffffffffffffffffffffffffffffff1673ffffffffffffffffffffffffffffffffffffffff16639dc29fac33836040518363ffffffff167c01000000000000000000000000000000000000000000000000000000000281526004016115af9291906159b2565b600060405180830381600087803b1580156115c957600080fd5b505af11580156115dd573d6000803e3d6000fd5b505050505b600160009054906101000a900473ffffffffffffffffffffffffffffffffffffffff1673ffffffffffffffffffffffffffffffffffffffff166323b872dd600160009054906101000a900473ffffffffffffffffffffffffffffffffffffffff1633876040518463ffffffff167c010000000000000000000000000000000000000000000000000000000002815260040161167f9392919061597b565b600060405180830381600087803b15801561169957600080fd5b505af11580156116ad573d6000803e3d6000fd5b50505050600192505050919050565b6000809054906101000a900473ffffffffffffffffffffffffffffffffffffffff1673ffffffffffffffffffffffffffffffffffffffff163373ffffffffffffffffffffffffffffffffffffffff1614151561171757600080fd5b8060078190555050565b6000806000806000806401000000000288600060028110151561174057fe5b602002015163ffffffff19161415151561175957600080fd5b876040518082600260200280838360005b8381101561178557808201518184015260208101905061176a565b50505050905001915050604051809103902093506117a284611c9f565b92506000600160009054906101000a900473ffffffffffffffffffffffffffffffffffffffff1673ffffffffffffffffffffffffffffffffffffffff166303a53d6b896040518263ffffffff167c010000000000000000000000000000000000000000000000000000000002815260040161181d9190615b09565b602060405180830381600087803b15801561183757600080fd5b505af115801561184b573d6000803e3d6000fd5b505050506040513d601f19601f8201168201806040525061186f9190810190615791565b14151561187b57600080fd5b600160009054906101000a900473ffffffffffffffffffffffffffffffffffffffff1673ffffffffffffffffffffffffffffffffffffffff1663e3100d1e88436040518363ffffffff167c01000000000000000000000000000000000000000000000000000000000281526004016118f4929190615b84565b600060405180830381600087803b15801561190e57600080fd5b505af1158015611922573d6000803e3d6000fd5b50505050600160009054906101000a900473ffffffffffffffffffffffffffffffffffffffff1673ffffffffffffffffffffffffffffffffffffffff16630b628395888a6040518363ffffffff167c010000000000000000000000000000000000000000000000000000000002815260040161199f929190615b5b565b600060405180830381600087803b1580156119b957600080fd5b505af11580156119cd573d6000803e3d6000fd5b505050506000861115611b3c57600160009054906101000a900473ffffffffffffffffffffffffffffffffffffffff1673ffffffffffffffffffffffffffffffffffffffff1663dc3f775888886040518363ffffffff167c0100000000000000000000000000000000000000000000000000000000028152600401611a53929190615b84565b600060405180830381600087803b158015611a6d57600080fd5b505af1158015611a81573d6000803e3d6000fd5b50505050611a8e86612f41565b9150600160009054906101000a900473ffffffffffffffffffffffffffffffffffffffff1673ffffffffffffffffffffffffffffffffffffffff1663a47bd49688846040518363ffffffff167c0100000000000000000000000000000000000000000000000000000000028152600401611b09929190615b84565b600060405180830381600087803b158015611b2357600080fd5b505af1158015611b37573d6000803e3d6000fd5b505050505b611b4584613203565b90507f9e2bcf76790c190a87d6418084ca9f7d35a8166a4acbecc10088b106360fd38b88888584868b604051611b8096959493929190615a2e565b60405180910390a160019450505050509392505050565b60065481565b6000809054906101000a900473ffffffffffffffffffffffffffffffffffffffff1673ffffffffffffffffffffffffffffffffffffffff163373ffffffffffffffffffffffffffffffffffffffff16141515611bf857600080fd5b6000809054906101000a900473ffffffffffffffffffffffffffffffffffffffff1673ffffffffffffffffffffffffffffffffffffffff167ff8df31144d9c2f0f6b59d69b8b98abd5459d07f2742c4df920b25aae33c6482060405160405180910390a260008060006101000a81548173ffffffffffffffffffffffffffffffffffffffff021916908373ffffffffffffffffffffffffffffffffffffffff160217905550565b600060086000836000191660001916815260200190815260200160002060009054906101000a900473ffffffffffffffffffffffffffffffffffffffff169050919050565b6000809054906101000a900473ffffffffffffffffffffffffffffffffffffffff1673ffffffffffffffffffffffffffffffffffffffff163373ffffffffffffffffffffffffffffffffffffffff16141515611d3f57600080fd5b8060058190555050565b6000809054906101000a900473ffffffffffffffffffffffffffffffffffffffff1681565b60096020528060005260406000206000915090505481565b6000809054906101000a900473ffffffffffffffffffffffffffffffffffffffff1673ffffffffffffffffffffffffffffffffffffffff163373ffffffffffffffffffffffffffffffffffffffff16141515611de157600080fd5b80600360006101000a81548173ffffffffffffffffffffffffffffffffffffffff021916908373ffffffffffffffffffffffffffffffffffffffff16021790555050565b6000809054906101000a900473ffffffffffffffffffffffffffffffffffffffff1673ffffffffffffffffffffffffffffffffffffffff163373ffffffffffffffffffffffffffffffffffffffff16141515611e8057600080fd5b6000809054906101000a900473ffffffffffffffffffffffffffffffffffffffff1673ffffffffffffffffffffffffffffffffffffffff166108fc3073ffffffffffffffffffffffffffffffffffffffff16319081150290604051600060405180830381858888f19350505050158015611efe573d6000803e3d6000fd5b50565b6000809054906101000a900473ffffffffffffffffffffffffffffffffffffffff1673ffffffffffffffffffffffffffffffffffffffff163373ffffffffffffffffffffffffffffffffffffffff16141515611f5c57600080fd5b8060048190555050565b600360009054906101000a900473ffffffffffffffffffffffffffffffffffffffff1681565b600080611f97615036565b611f9f614f82565b60008060008060019650600160009054906101000a900473ffffffffffffffffffffffffffffffffffffffff1673ffffffffffffffffffffffffffffffffffffffff166362f9acf98b6040518263ffffffff167c01000000000000000000000000000000000000000000000000000000000281526004016120209190615b09565b6040805180830381600087803b15801561203957600080fd5b505af115801561204d573d6000803e3d6000fd5b505050506040513d601f19601f820116820180604052506120719190810190615570565b955060006401000000000286600060028110151561208b57fe5b602002015163ffffffff1916141515156120a457600080fd5b6120ad866133fd565b945089700100000000000000000000000000000000026fffffffffffffffffffffffffffffffff19168561010001516fffffffffffffffffffffffffffffffff19161415156120fb57600080fd5b6121048561328f565b1561229857600160009054906101000a900473ffffffffffffffffffffffffffffffffffffffff1673ffffffffffffffffffffffffffffffffffffffff1663c53b4bf98b6040518263ffffffff167c01000000000000000000000000000000000000000000000000000000000281526004016121809190615b09565b602060405180830381600087803b15801561219a57600080fd5b505af11580156121ae573d6000803e3d6000fd5b505050506040513d601f19601f820116820180604052506121d29190810190615791565b935084606001511515600060016004879060020a900416111515146121f85760006121fa565b865b965084608001511515600060016003879060020a90041611151514612220576000612222565b865b96508460a001511515600060016002879060020a9004161115151461224857600061224a565b865b96508460c0015115156000600180879060020a9004161115151461226f576000612271565b865b96508460e0015115156000600186161115151461228f576000612291565b865b965061229d565b600096505b861515156122aa57600080fd5b600160009054906101000a900473ffffffffffffffffffffffffffffffffffffffff1673ffffffffffffffffffffffffffffffffffffffff16630e8310d68b6040518263ffffffff167c01000000000000000000000000000000000000000000000000000000000281526004016123219190615b09565b600060405180830381600087803b15801561233b57600080fd5b505af115801561234f573d6000803e3d6000fd5b50505050856040518082600260200280838360005b8381101561237f578082015181840152602081019050612364565b505050509050019150506040518091039020925061239c8a611114565b1515612459576123ab83613203565b9150600160009054906101000a900473ffffffffffffffffffffffffffffffffffffffff1673ffffffffffffffffffffffffffffffffffffffff16631cc1472d8a846040518363ffffffff167c01000000000000000000000000000000000000000000000000000000000281526004016124269291906159b2565b600060405180830381600087803b15801561244057600080fd5b505af1158015612454573d6000803e3d6000fd5b505050505b600160009054906101000a900473ffffffffffffffffffffffffffffffffffffffff1673ffffffffffffffffffffffffffffffffffffffff166364e779b18b6040518263ffffffff167c01000000000000000000000000000000000000000000000000000000000281526004016124d09190615b09565b600060405180830381600087803b1580156124ea57600080fd5b505af11580156124fe573d6000803e3d6000fd5b5050505061250d8360006132c2565b612518836000613320565b6125218a613792565b61252a83611c9f565b90507f23e709ab80a4bee9454ba0d08c0b669d684531b4ec766524c43abd788cc3ca76868b838c866040516125639594939291906159db565b60405180910390a1600197505050505050505092915050565b600080fd5b60075481565b6000809054906101000a900473ffffffffffffffffffffffffffffffffffffffff1673ffffffffffffffffffffffffffffffffffffffff163373ffffffffffffffffffffffffffffffffffffffff161415156125e257600080fd5b8060068190555050565b60006125f6615036565b600080600080600160009054906101000a900473ffffffffffffffffffffffffffffffffffffffff1673ffffffffffffffffffffffffffffffffffffffff166362f9acf9896040518263ffffffff167c01000000000000000000000000000000000000000000000000000000000281526004016126739190615b09565b6040805180830381600087803b15801561268c57600080fd5b505af11580156126a0573d6000803e3d6000fd5b505050506040513d601f19601f820116820180604052506126c49190810190615570565b94506000640100000000028560006002811015156126de57fe5b602002015163ffffffff1916141515156126f757600080fd5b846040518082600260200280838360005b83811015612723578082015181840152602081019050612708565b505050509050019150506040518091039020935061274084613203565b92506000831415151561275257600080fd5b61275b88611114565b151561276657600080fd5b612771846000613320565b61277a88613abb565b61278384611c9f565b91508173ffffffffffffffffffffffffffffffffffffffff163373ffffffffffffffffffffffffffffffffffffffff161415156127bf57600080fd5b600160009054906101000a900473ffffffffffffffffffffffffffffffffffffffff1673ffffffffffffffffffffffffffffffffffffffff16631c4b774b896040518263ffffffff167c01000000000000000000000000000000000000000000000000000000000281526004016128369190615b09565b602060405180830381600087803b15801561285057600080fd5b505af1158015612864573d6000803e3d6000fd5b505050506040513d601f19601f820116820180604052506128889190810190615791565b90508615612b905780600260009054906101000a900473ffffffffffffffffffffffffffffffffffffffff1673ffffffffffffffffffffffffffffffffffffffff166370a08231846040518263ffffffff167c01000000000000000000000000000000000000000000000000000000000281526004016129089190615960565b602060405180830381600087803b15801561292257600080fd5b505af1158015612936573d6000803e3d6000fd5b505050506040513d601f19601f8201168201806040525061295a9190810190615791565b1015612a2b57600360009054906101000a900473ffffffffffffffffffffffffffffffffffffffff1673ffffffffffffffffffffffffffffffffffffffff1663f088d547836040518263ffffffff167c01000000000000000000000000000000000000000000000000000000000281526004016129d79190615960565b602060405180830381600087803b1580156129f157600080fd5b505af1158015612a05573d6000803e3d6000fd5b505050506040513d601f19601f82011682018060405250612a299190810190615687565b505b6000811115612ae057600260009054906101000a900473ffffffffffffffffffffffffffffffffffffffff1673ffffffffffffffffffffffffffffffffffffffff16639dc29fac83836040518363ffffffff167c0100000000000000000000000000000000000000000000000000000000028152600401612aad9291906159b2565b600060405180830381600087803b158015612ac757600080fd5b505af1158015612adb573d6000803e3d6000fd5b505050505b600160009054906101000a900473ffffffffffffffffffffffffffffffffffffffff1673ffffffffffffffffffffffffffffffffffffffff166340c10f19838a6040518363ffffffff167c0100000000000000000000000000000000000000000000000000000000028152600401612b599291906159b2565b600060405180830381600087803b158015612b7357600080fd5b505af1158015612b87573d6000803e3d6000fd5b50505050612d3e565b6000811115612c7057600260009054906101000a900473ffffffffffffffffffffffffffffffffffffffff1673ffffffffffffffffffffffffffffffffffffffff166340c10f1983836040518363ffffffff167c0100000000000000000000000000000000000000000000000000000000028152600401612c129291906159b2565b602060405180830381600087803b158015612c2c57600080fd5b505af1158015612c40573d6000803e3d6000fd5b505050506040513d601f19601f82011682018060405250612c649190810190615687565b1515612c6f57600080fd5b5b600160009054906101000a900473ffffffffffffffffffffffffffffffffffffffff1673ffffffffffffffffffffffffffffffffffffffff166340c10f19600160009054906101000a900473ffffffffffffffffffffffffffffffffffffffff168a6040518363ffffffff167c0100000000000000000000000000000000000000000000000000000000028152600401612d0b9291906159b2565b600060405180830381600087803b158015612d2557600080fd5b505af1158015612d39573d6000803e3d6000fd5b505050505b600160009054906101000a900473ffffffffffffffffffffffffffffffffffffffff1673ffffffffffffffffffffffffffffffffffffffff16631cc1472d83856040518363ffffffff167c0100000000000000000000000000000000000000000000000000000000028152600401612db79291906159b2565b600060405180830381600087803b158015612dd157600080fd5b505af1158015612de5573d6000803e3d6000fd5b505050507fa8a1a24efbea93a5c7f29342ba7652cd030828e12cc15c1416480fecee73d589888385604051612e1c93929190615b24565b60405180910390a160019550505050505092915050565b6000600160009054906101000a900473ffffffffffffffffffffffffffffffffffffffff1673ffffffffffffffffffffffffffffffffffffffff166362f9acf9836040518263ffffffff167c0100000000000000000000000000000000000000000000000000000000028152600401612eac9190615b09565b6040805180830381600087803b158015612ec557600080fd5b505af1158015612ed9573d6000803e3d6000fd5b505050506040513d601f19601f82011682018060405250612efd9190810190615570565b6040518082600260200280838360005b83811015612f28578082015181840152602081019050612f0d565b5050505090500191505060405180910390209050919050565b600080600080600080600080600160009054906101000a900473ffffffffffffffffffffffffffffffffffffffff1673ffffffffffffffffffffffffffffffffffffffff1663785d8d716040518163ffffffff167c010000000000000000000000000000000000000000000000000000000002815260040160c060405180830381600087803b158015612fd357600080fd5b505af1158015612fe7573d6000803e3d6000fd5b505050506040513d601f19601f8201168201806040525061300b9190810190615832565b809750819850829950839a50849b50859c505050505050506000905060018060048b9060020a900416141561307c5761307961306a6001880161305c60018b0160055461375a90919063ffffffff16565b613de490919063ffffffff16565b82613dfa90919063ffffffff16565b90505b60018060038b9060020a90041614156130d1576130ce6130bf600187016130b160018b0160055461375a90919063ffffffff16565b613de490919063ffffffff16565b82613dfa90919063ffffffff16565b90505b60018060028b9060020a9004161415613126576131236131146001860161310660018b0160055461375a90919063ffffffff16565b613de490919063ffffffff16565b82613dfa90919063ffffffff16565b90505b60018060018b9060020a900416141561317b576131786131696001850161315b60018b0160055461375a90919063ffffffff16565b613de490919063ffffffff16565b82613dfa90919063ffffffff16565b90505b6001808a1614156131c8576131c56131b6600184016131a860018b0160055461375a90919063ffffffff16565b613de490919063ffffffff16565b82613dfa90919063ffffffff16565b90505b80975050505050505050919050565b60045481565b600260009054906101000a900473ffffffffffffffffffffffffffffffffffffffff1681565b6000600960008360001916600019168152602001908152602001600020549050919050565b6000809054906101000a900473ffffffffffffffffffffffffffffffffffffffff1673ffffffffffffffffffffffffffffffffffffffff163373ffffffffffffffffffffffffffffffffffffffff1614151561328357600080fd5b61328c81613e16565b50565b60008160000151156132a457600090506132bd565b816020015115156132b857600090506132bd565b600190505b919050565b8060086000846000191660001916815260200190815260200160002060006101000a81548173ffffffffffffffffffffffffffffffffffffffff021916908373ffffffffffffffffffffffffffffffffffffffff1602179055505050565b80600960008460001916600019168152602001908152602001600020819055505050565b8273ffffffffffffffffffffffffffffffffffffffff1663a9059cbb83836040518363ffffffff167c010000000000000000000000000000000000000000000000000000000002815260040161339b9291906159b2565b602060405180830381600087803b1580156133b557600080fd5b505af11580156133c9573d6000803e3d6000fd5b505050506040513d601f19601f820116820180604052506133ed9190810190615687565b15156133f857600080fd5b505050565b613405614f82565b61340d614f82565b60008060008060008088600060028110151561342557fe5b602002015187610120019063ffffffff1916908163ffffffff19168152505088600160028110151561345357fe5b602002015187610140019063ffffffff1916908163ffffffff191681525050600087610180019060ff16908160ff16815250506002876101a0019060ff16908160ff16815250506002876101c0019060ff16908160ff168152505060008760000190151590811515815250506000876020019015159081151581525050600187610160019060ff16908160ff16815250506ffffffffffffffe7ffdbfffffffffffff700100000000000000000000000000000000028761010001906fffffffffffffffffffffffffffffffff191690816fffffffffffffffffffffffffffffffff191681525050600091505b603c8260ff16108015613550575085155b156136ff57602087610180015160ff161061357057866101400151613577565b8661012001515b905061359981602089610180015160ff1681151561359157fe5b066020613f10565b94506135a485613f54565b80945081955050506135b585613f93565b15955060008260ff161480156135de575060028460ff161415806135dd575060038360ff1614155b5b156135f9576001955060018760000190151590811515815250505b8515801561360a575060088460ff16105b8015613619575060088360ff16105b8015613629575060008460ff1610155b8015613639575060008360ff1610155b156136f257613649878585613fa4565b965060018761018001510187610180019060ff16908160ff16815250508660000151156136f1576000876000019015159081151581525050600160ff1687610160015160ff1614156136ae57600287610160019060ff16908160ff16815250506136c3565b600187610160019060ff16908160ff16815250505b6136ce878585613fa4565b96508660000151156136f0576001876000019015159081151581525050600195505b5b5b818060010192505061353f565b86600001511515613732576000876000019015159081151581525050613724876142a6565b965061372f876145e5565b96505b86975050505050505050919050565b600082821115151561374f57fe5b818303905092915050565b60008083141561376d576000905061378c565b818302905081838281151561377e57fe5b0414151561378857fe5b8090505b92915050565b6000806000806000806000600160009054906101000a900473ffffffffffffffffffffffffffffffffffffffff1673ffffffffffffffffffffffffffffffffffffffff1663785d8d716040518163ffffffff167c010000000000000000000000000000000000000000000000000000000002815260040160c060405180830381600087803b15801561382357600080fd5b505af1158015613837573d6000803e3d6000fd5b505050506040513d601f19601f8201168201806040525061385b9190810190615832565b809750819850829950839a50849b50859c50505050505050600160009054906101000a900473ffffffffffffffffffffffffffffffffffffffff1673ffffffffffffffffffffffffffffffffffffffff1663c53b4bf9896040518263ffffffff167c01000000000000000000000000000000000000000000000000000000000281526004016138ea9190615b09565b602060405180830381600087803b15801561390457600080fd5b505af1158015613918573d6000803e3d6000fd5b505050506040513d601f19601f8201168201806040525061393c9190810190615791565b905061396560008211613950576000613953565b60015b60ff168861374190919063ffffffff16565b965061398560016004839060020a9004168761374190919063ffffffff16565b95506139a560016003839060020a9004168661374190919063ffffffff16565b94506139c560016002839060020a9004168561374190919063ffffffff16565b93506139e4600180839060020a9004168461374190919063ffffffff16565b92506139fc600182168361374190919063ffffffff16565b9150600160009054906101000a900473ffffffffffffffffffffffffffffffffffffffff1673ffffffffffffffffffffffffffffffffffffffff16638b1b2ba88888888888886040518763ffffffff167c0100000000000000000000000000000000000000000000000000000000028152600401613a7f96959493929190615bad565b600060405180830381600087803b158015613a9957600080fd5b505af1158015613aad573d6000803e3d6000fd5b505050505050505050505050565b6000806000806000806000600160009054906101000a900473ffffffffffffffffffffffffffffffffffffffff1673ffffffffffffffffffffffffffffffffffffffff1663785d8d716040518163ffffffff167c010000000000000000000000000000000000000000000000000000000002815260040160c060405180830381600087803b158015613b4c57600080fd5b505af1158015613b60573d6000803e3d6000fd5b505050506040513d601f19601f82011682018060405250613b849190810190615832565b809750819850829950839a50849b50859c50505050505050600160009054906101000a900473ffffffffffffffffffffffffffffffffffffffff1673ffffffffffffffffffffffffffffffffffffffff1663c53b4bf9896040518263ffffffff167c0100000000000000000000000000000000000000000000000000000000028152600401613c139190615b09565b602060405180830381600087803b158015613c2d57600080fd5b505af1158015613c41573d6000803e3d6000fd5b505050506040513d601f19601f82011682018060405250613c659190810190615791565b9050613c8e60008211613c79576000613c7c565b60015b60ff1688613dfa90919063ffffffff16565b9650613cae60016004839060020a90041687613dfa90919063ffffffff16565b9550613cce60016003839060020a90041686613dfa90919063ffffffff16565b9450613cee60016002839060020a90041685613dfa90919063ffffffff16565b9350613d0d600180839060020a90041684613dfa90919063ffffffff16565b9250613d256001821683613dfa90919063ffffffff16565b9150600160009054906101000a900473ffffffffffffffffffffffffffffffffffffffff1673ffffffffffffffffffffffffffffffffffffffff16638b1b2ba88888888888886040518763ffffffff167c0100000000000000000000000000000000000000000000000000000000028152600401613da896959493929190615bad565b600060405180830381600087803b158015613dc257600080fd5b505af1158015613dd6573d6000803e3d6000fd5b505050505050505050505050565b60008183811515613df157fe5b04905092915050565b60008183019050828110151515613e0d57fe5b80905092915050565b600073ffffffffffffffffffffffffffffffffffffffff168173ffffffffffffffffffffffffffffffffffffffff1614151515613e5257600080fd5b8073ffffffffffffffffffffffffffffffffffffffff166000809054906101000a900473ffffffffffffffffffffffffffffffffffffffff1673ffffffffffffffffffffffffffffffffffffffff167f8be0079c531659141344cd1fd0a4f28419497f9722a3daafe3b4186f6b6457e060405160405180910390a3806000806101000a81548173ffffffffffffffffffffffffffffffffffffffff021916908373ffffffffffffffffffffffffffffffffffffffff16021790555050565b6000806000607f64010000000002915060078086026007860203039050818160ff168763ffffffff19169060020a9004166401000000009004925050509392505050565b60008060008060408503945060088560ff16811515613f6f57fe5b069150600882860360ff16811515613f8357fe5b0490508181935093505050915091565b600060408260ff1610159050919050565b613fac614f82565b613fb4615058565b600080600080600080600080600360ff16613fd58e61010001518e8e6148dd565b60ff16141515613ff85760018d60000190151590811515815250508c9950614296565b6140038d8d8d614953565b809950819a50505060008860ff1614156140305760018d60000190151590811515815250508c9950614296565b60009150600090505b8760ff168160ff1610156141965760009650600095506140708d8a8360ff1660088110151561406457fe5b60200201518e8e614c92565b8097508198505050600092505b8560ff168360ff1610156141895781151561409757600191505b6140aa6140a5888589613f10565b613f54565b80955081965050506140c88d61010001518e61016001518787614df6565b8d61010001906fffffffffffffffffffffffffffffffff191690816fffffffffffffffffffffffffffffffff191681525050600260ff168d610160015160ff1614156141475760018d6101c0018181510191509060ff16908160ff168152505060018d6101a0018181510391509060ff16908160ff168152505061417c565b60018d6101c0018181510391509060ff16908160ff168152505060018d6101a0018181510191509060ff16908160ff16815250505b828060010193505061407d565b8080600101915050614039565b8115614237576141b28d61010001518e61016001518e8e614df6565b8d61010001906fffffffffffffffffffffffffffffffff191690816fffffffffffffffffffffffffffffffff191681525050600260ff168d610160015160ff1614156142175760018d6101c0018181510191509060ff16908160ff1681525050614232565b60018d6101a0018181510191509060ff16908160ff16815250505b614250565b60018d60000190151590811515815250508c9950614296565b600160ff168d610160015160ff16141561427d5760028d610160019060ff16908160ff1681525050614292565b60018d610160019060ff16908160ff16815250505b8c99505b5050505050505050509392505050565b6142ae614f82565b6142b6615087565b60008060008060006142c66150b6565b603c89610180015160ff1614156142f05760018960200190151590811515815250508897506145d9565b60009550600094505b60408560ff1610156143d2576143438961010001516008808860ff1681151561431e57fe5b06880360ff1681151561432d57fe5b0460088860ff1681151561433d57fe5b066148dd565b9350600360ff168460ff1614156143c55760408051908101604052806008808860ff1681151561436f57fe5b06880360ff1681151561437e57fe5b0460ff1660ff16815260200160088760ff1681151561439957fe5b0660ff1660ff16815250878760ff16603c811015156143b457fe5b602002018190525085806001019650505b84806001019550506142f9565b6000925060008660ff161115614596578861010001519150600094505b8560ff168560ff16108015614402575082155b1561456257868560ff16603c8110151561441857fe5b60200201519050600189610160019060ff16908160ff16815250506000896000019015159081151581525050818961010001906fffffffffffffffffffffffffffffffff191690816fffffffffffffffffffffffffffffffff1916815250506144a88982600060028110151561448a57fe5b602002015183600160028110151561449e57fe5b6020020151613fa4565b9850886000015115156144ba57600192505b600289610160019060ff16908160ff16815250506000896000019015159081151581525050818961010001906fffffffffffffffffffffffffffffffff191690816fffffffffffffffffffffffffffffffff1916815250506145438982600060028110151561452557fe5b602002015183600160028110151561453957fe5b6020020151613fa4565b98508860000151151561455557600192505b84806001019550506143ef565b818961010001906fffffffffffffffffffffffffffffffff191690816fffffffffffffffffffffffffffffffff1916815250505b82156145b25760018960000190151590811515815250506145d5565b600189602001901515908115158152505060008960000190151590811515815250505b8897505b50505050505050919050565b6145ed614f82565b60008060008060008060006001965060019550600194506001935060019250600091505b60088260ff16108015614641575086806146285750855b806146305750845b806146385750835b806146405750825b5b1561484657600090505b60088160ff1610801561467b575086806146625750855b8061466a5750845b806146725750835b8061467a5750825b5b15614839576146968961010001518360070383600703614ec2565b6fffffffffffffffffffffffffffffffff19166146b98a61010001518484614ec2565b6fffffffffffffffffffffffffffffffff19161415156146d857600096505b6146eb8961010001518383600703614ec2565b6fffffffffffffffffffffffffffffffff191661470e8a61010001518484614ec2565b6fffffffffffffffffffffffffffffffff191614151561472d57600095505b6147408961010001518360070383614ec2565b6fffffffffffffffffffffffffffffffff19166147638a61010001518484614ec2565b6fffffffffffffffffffffffffffffffff191614151561478257600094505b6147988961010001518260070384600703614ec2565b6fffffffffffffffffffffffffffffffff19166147bb8a61010001518484614ec2565b6fffffffffffffffffffffffffffffffff19161415156147da57600093505b6147ea8961010001518284614ec2565b6fffffffffffffffffffffffffffffffff191661480d8a61010001518484614ec2565b6fffffffffffffffffffffffffffffffff191614151561482c57600092505b808060010191505061464b565b8180600101925050614611565b868061484f5750855b806148575750845b8061485f5750835b806148675750825b156148ce5760018960400190151590811515815250508689606001901515908115158152505085896080019015159081151581525050848960a0019015159081151581525050838960c0019015159081151581525050828960e00190151590811515815250505b88975050505050505050919050565b60008060006148ec8585614f1e565b9150600370010000000000000000000000000000000002826fffffffffffffffffffffffffffffffff16876fffffffffffffffffffffffffffffffff19169060020a9004169050807001000000000000000000000000000000009004925050509392505050565b61495b615058565b6000614965615058565b600061496f615058565b60008061497a6150d8565b600080600096506101006040519081016040528060408051908101604052807fffffffffffffffffffffffffffffffffffffffffffffffffffffffffffffffff60000b60000b81526020016000800b60000b815250815260200160408051908101604052807fffffffffffffffffffffffffffffffffffffffffffffffffffffffffffffffff60000b60000b8152602001600160000b60000b815250815260200160408051908101604052806000800b60000b8152602001600160000b60000b81525081526020016040805190810160405280600160000b60000b8152602001600160000b60000b81525081526020016040805190810160405280600160000b60000b81526020016000800b60000b81525081526020016040805190810160405280600160000b60000b81526020017fffffffffffffffffffffffffffffffffffffffffffffffffffffffffffffffff60000b60000b815250815260200160408051908101604052806000800b60000b81526020017fffffffffffffffffffffffffffffffffffffffffffffffffffffffffffffffff60000b60000b815250815260200160408051908101604052807fffffffffffffffffffffffffffffffffffffffffffffffffffffffffffffffff60000b60000b81526020017fffffffffffffffffffffffffffffffffffffffffffffffffffffffffffffffff60000b60000b8152508152509550600090505b60088160ff161015614c7c57858160ff16600881101515614ba657fe5b60200201519250826000600281101515614bbc57fe5b60200201518c019350826001600281101515614bd457fe5b60200201518b01945060078560000b1380614bf2575060008560000b125b80614c00575060078460000b135b80614c0e575060008460000b125b1515614c6f57614c248d610100015185876148dd565b91508c610160015160ff168260ff16141515614c6e57600360ff168260ff16141515614c6d5782888860ff16600881101515614c5c57fe5b602002018190525086806001019750505b5b5b8080600101915050614b89565b8787995099505050505050505050935093915050565b60008060008060008060008060008060009650600160ff168e610160015160ff161415614cc25760029550614cc7565b600195505b60009450600190505b60098160ff161015614ddf57841515614dd2578b8d6000600281101515614cf357fe5b602002015182020193508a8d6001600281101515614d0d57fe5b6020020151820201925060078460000b1380614d2c575060008460000b125b80614d3a575060078360000b135b80614d48575060008360000b125b15614d5e57600097506000965060019450614dd1565b614d6e8e610100015185856148dd565b91508560ff168260ff161415614d9757614d8a88888686614f3a565b8098508199505050614dd0565b8d610160015160ff168260ff16148015614db4575060018160ff16115b15614dc25760019450614dcf565b6000975060009650600194505b5b5b5b8080600101915050614cd0565b878799509950505050505050505094509492505050565b600080600060078560ff161115614e0c57600080fd5b60078460ff161115614e1d57600080fd5b614e278585614f1e565b9150816fffffffffffffffffffffffffffffffff166003700100000000000000000000000000000000026fffffffffffffffffffffffffffffffff19169060020a02905086818818169650816fffffffffffffffffffffffffffffffff168660ff16700100000000000000000000000000000000026fffffffffffffffffffffffffffffffff19169060020a02871792505050949350505050565b600080614ecf8484614f1e565b9050600370010000000000000000000000000000000002816fffffffffffffffffffffffffffffffff16866fffffffffffffffffffffffffffffffff19169060020a9004169150509392505050565b600060026001838560080201016040030260ff16905092915050565b600080600060406008850286010160ff1664010000000002905060078763ffffffff19169060020a029650808717965085806001019650508686925092505094509492505050565b6101e06040519081016040528060001515815260200160001515815260200160001515815260200160001515815260200160001515815260200160001515815260200160001515815260200160001515815260200160006fffffffffffffffffffffffffffffffff19168152602001600063ffffffff19168152602001600063ffffffff19168152602001600060ff168152602001600060ff168152602001600060ff168152602001600060ff1681525090565b6040805190810160405280600290602082028038833980820191505090505090565b610200604051908101604052806008905b6150716150fa565b8152602001906001900390816150695790505090565b610f0060405190810160405280603c905b6150a061511c565b8152602001906001900390816150985790505090565b6040805190810160405280600290602082028038833980820191505090505090565b6040805190810160405280600290602082028038833980820191505090505090565b6040805190810160405280600290602082028038833980820191505090505090565b6040805190810160405280600290602082028038833980820191505090505090565b600061514a8235615ceb565b905092915050565b600082601f830112151561516557600080fd5b600261517861517382615c3b565b615c0e565b9150818385602084028201111561518e57600080fd5b60005b838110156151be57816151a4888261527a565b845260208401935060208301925050600181019050615191565b5050505092915050565b600082601f83011215156151db57600080fd5b60026151ee6151e982615c3b565b615c0e565b9150818385602084028201111561520457600080fd5b60005b83811015615234578161521a888261528e565b845260208401935060208301925050600181019050615207565b5050505092915050565b600061524a8235615d0b565b905092915050565b600061525e8251615d0b565b905092915050565b60006152728235615d17565b905092915050565b60006152868235615d43565b905092915050565b600061529a8251615d43565b905092915050565b60006152ae8235615d6f565b905092915050565b60008083601f84011215156152ca57600080fd5b8235905067ffffffffffffffff8111156152e357600080fd5b6020830191508360018202830111156152fb57600080fd5b9250929050565b600061530e8235615d79565b905092915050565b60006101e0828403121561532957600080fd5b6153346101e0615c0e565b905060006153448482850161523e565b60008301525060206153588482850161523e565b602083015250604061536c8482850161523e565b60408301525060606153808482850161523e565b60608301525060806153948482850161523e565b60808301525060a06153a88482850161523e565b60a08301525060c06153bc8482850161523e565b60c08301525060e06153d08482850161523e565b60e0830152506101006153e584828501615266565b610100830152506101206153fb8482850161527a565b610120830152506101406154118482850161527a565b610140830152506101606154278482850161549e565b6101608301525061018061543d8482850161549e565b610180830152506101a06154538482850161549e565b6101a0830152506101c06154698482850161549e565b6101c08301525092915050565b60006154828235615d8b565b905092915050565b60006154968251615d8b565b905092915050565b60006154aa8235615d95565b905092915050565b6000602082840312156154c457600080fd5b60006154d28482850161513e565b91505092915050565b600080600080606085870312156154f157600080fd5b60006154ff8782880161513e565b945050602061551087828801615476565b935050604085013567ffffffffffffffff81111561552d57600080fd5b615539878288016152b6565b925092505092959194509250565b60006040828403121561555957600080fd5b600061556784828501615152565b91505092915050565b60006040828403121561558257600080fd5b6000615590848285016151c8565b91505092915050565b600080606083850312156155ac57600080fd5b60006155ba85828601615152565b92505060406155cb8582860161523e565b9150509250929050565b6000806000608084860312156155ea57600080fd5b60006155f886828701615152565b935050604061560986828701615476565b925050606061561a86828701615476565b9150509250925092565b60008060008060a0858703121561563a57600080fd5b600061564887828801615152565b945050604061565987828801615476565b935050606061566a87828801615476565b925050608061567b8782880161513e565b91505092959194509250565b60006020828403121561569957600080fd5b60006156a784828501615252565b91505092915050565b6000602082840312156156c257600080fd5b60006156d0848285016152a2565b91505092915050565b600080604083850312156156ec57600080fd5b60006156fa858286016152a2565b925050602061570b8582860161513e565b9150509250929050565b60006020828403121561572757600080fd5b600061573584828501615302565b91505092915050565b60006101e0828403121561575157600080fd5b600061575f84828501615316565b91505092915050565b60006020828403121561577a57600080fd5b600061578884828501615476565b91505092915050565b6000602082840312156157a357600080fd5b60006157b18482850161548a565b91505092915050565b600080604083850312156157cd57600080fd5b60006157db85828601615476565b92505060206157ec8582860161513e565b9150509250929050565b6000806040838503121561580957600080fd5b600061581785828601615476565b92505060206158288582860161523e565b9150509250929050565b60008060008060008060c0878903121561584b57600080fd5b600061585989828a0161548a565b965050602061586a89828a0161548a565b955050604061587b89828a0161548a565b945050606061588c89828a0161548a565b935050608061589d89828a0161548a565b92505060a06158ae89828a0161548a565b9150509295509295509295565b6158c481615c7f565b82525050565b6158d381615c67565b6158dc82615c5d565b60005b8281101561590e576158f2858351615924565b6158fb82615c72565b91506020850194506001810190506158df565b5050505050565b61591e81615c9f565b82525050565b61592d81615cab565b82525050565b61593c81615cd7565b82525050565b61594b81615da2565b82525050565b61595a81615ce1565b82525050565b600060208201905061597560008301846158bb565b92915050565b600060608201905061599060008301866158bb565b61599d60208301856158bb565b6159aa6040830184615951565b949350505050565b60006040820190506159c760008301856158bb565b6159d46020830184615951565b9392505050565b600060c0820190506159f060008301886158ca565b6159fd6040830187615951565b615a0a60608301866158bb565b615a1760808301856158bb565b615a2460a0830184615951565b9695505050505050565b600060e082019050615a4360008301896158ca565b615a506040830188615951565b615a5d60608301876158bb565b615a6a6080830186615951565b615a7760a0830185615951565b615a8460c0830184615951565b979650505050505050565b6000602082019050615aa46000830184615915565b92915050565b6000602082019050615abf6000830184615933565b92915050565b6000604082019050615ada6000830185615933565b615ae760208301846158bb565b9392505050565b6000602082019050615b036000830184615942565b92915050565b6000602082019050615b1e6000830184615951565b92915050565b6000606082019050615b396000830186615951565b615b4660208301856158bb565b615b536040830184615951565b949350505050565b6000606082019050615b706000830185615951565b615b7d60208301846158ca565b9392505050565b6000604082019050615b996000830185615951565b615ba66020830184615951565b9392505050565b600060c082019050615bc26000830189615951565b615bcf6020830188615951565b615bdc6040830187615951565b615be96060830186615951565b615bf66080830185615951565b615c0360a0830184615951565b979650505050505050565b6000604051905081810181811067ffffffffffffffff82111715615c3157600080fd5b8060405250919050565b600067ffffffffffffffff821115615c5257600080fd5b602082029050919050565b6000819050919050565b600060029050919050565b6000602082019050919050565b600073ffffffffffffffffffffffffffffffffffffffff82169050919050565b60008115159050919050565b60007fffffffffffffffffffffffffffffffffffffffffffffffffffffffff0000000082169050919050565b6000819050919050565b6000819050919050565b600073ffffffffffffffffffffffffffffffffffffffff82169050919050565b60008115159050919050565b60007fffffffffffffffffffffffffffffffff0000000000000000000000000000000082169050919050565b60007fffffffffffffffffffffffffffffffffffffffffffffffffffffffff0000000082169050919050565b6000819050919050565b6000615d8482615c7f565b9050919050565b6000819050919050565b600060ff82169050919050565b6000615dad82615c7f565b90509190505600a265627a7a72305820c762eb79760808a30292850c530feb2398d1ac356d5e621abbcb70c242794e476c6578706572696d656e74616cf50037",
  "source": "pragma solidity ^0.4.18;\npragma experimental ABIEncoderV2;\n\n/**\n * The CloversController is a replaceable endpoint for minting and unminting Clovers.sol and ClubToken.sol\n */\n\nimport \"./Reversi.sol\";\nimport \"./IClovers.sol\";\nimport \"./IClubToken.sol\";\nimport \"./ICloversController.sol\";\nimport \"./IClubTokenController.sol\";\nimport \"zeppelin-solidity/contracts/ownership/HasNoTokens.sol\";\nimport \"zeppelin-solidity/contracts/ownership/HasNoEther.sol\";\nimport \"zeppelin-solidity/contracts/math/SafeMath.sol\";\n\n\ncontract CloversController is HasNoEther, HasNoTokens {\n    event cloverCommitted(bytes32 movesHash, address owner);\n    event cloverClaimed(bytes28[2] moves, uint256 tokenId, address owner, uint stake, uint reward, uint256 symmetries);\n    event stakeRetrieved(uint256 tokenId, address owner, uint stake);\n\n    event cloverChallenged(bytes28[2] moves, uint256 tokenId, address owner, address challenger, uint stake);\n\n    using SafeMath for uint256;\n\n    address public clovers;\n    address public clubToken;\n    address public clubTokenController;\n\n    uint256 public priceMultiplier;\n    uint256 public payMultiplier;\n    uint256 public stakeAmount;\n    uint256 public stakePeriod;\n\n    mapping (bytes32 => address) public commits;\n    mapping (bytes32 => uint256) public stakes;\n\n    constructor(address _clovers, address _clubToken, address _clubTokenController) public {\n        clovers = _clovers;\n        clubToken = _clubToken;\n        clubTokenController = _clubTokenController;\n    }\n    /**\n    * @dev Gets the current stake of a Clover based on the hash of the moves.\n    * @param movesHash The hash of the moves that make up the clover.\n    * @return A uint256 value of stake.\n    */\n    function getStake(bytes32 movesHash) public view returns (uint256) {\n        return stakes[movesHash];\n    }\n    /**\n    * @dev Gets the address of the commiter of a Clover based on the hash of the moves.\n    * @param movesHash The hash of the moves that make up the clover.\n    * @return The address of the commiter.\n    */\n    function getCommit(bytes32 movesHash) public view returns (address) {\n        return commits[movesHash];\n    }\n    /**\n    * @dev Gets the current staking period needed to verify a Clover.\n    * @param _tokenId The token Id of the clover.\n    * @return A uint256 value of stake period in seconds.\n    */\n    function getMovesHash(uint _tokenId) public constant returns (bytes32) {\n        return keccak256(IClovers(clovers).getCloverMoves(_tokenId));\n    }\n    /**\n    * @dev Checks whether the game is valid.\n    * @param moves The moves needed to play validate the game.\n    * @return A boolean representing whether or not the game is valid.\n    */\n    function isValid(bytes28[2] moves) public constant returns (bool) {\n        Reversi.Game memory game = Reversi.playGame(moves);\n        return isValidGame(game);\n    }\n    /**\n    * @dev Checks whether the game is valid.\n    * @param game The pre-played game.\n    * @return A boolean representing whether or not the game is valid.\n    */\n    function isValidGame(Reversi.Game game) public pure returns (bool) {\n        if (game.error) return false;\n        if (!game.complete) return false;\n        return true;\n    }\n    /**\n    * @dev Checks whether the game has passed the verification period.\n    * @param _tokenId The board being checked.\n    * @return A boolean representing whether or not the game has been verified.\n    */\n    function isVerified(uint256 _tokenId) public constant returns (bool) {\n        uint256 _blockMinted = IClovers(clovers).getBlockMinted(_tokenId);\n        if(_blockMinted == 0) return false;\n        if (msg.sender == owner) return true;\n        return block.number.sub(_blockMinted) > stakePeriod;\n    }\n    /**\n    * @dev Calculates the reward of the board.\n    * @param _symmetries symmetries saved as a uint256 value like 00010101 where bits represent symmetry types.\n    * @return A uint256 representing the reward that would be returned for claiming the board.\n    */\n    function calculateReward(uint256 _symmetries) public constant returns (uint256) {\n        uint256 Symmetricals;\n        uint256 RotSym;\n        uint256 Y0Sym;\n        uint256 X0Sym;\n        uint256 XYSym;\n        uint256 XnYSym;\n        (Symmetricals,\n        RotSym,\n        Y0Sym,\n        X0Sym,\n        XYSym,\n        XnYSym) = IClovers(clovers).getAllSymmetries();\n        uint256 base = 0;\n        if (_symmetries >> 4 & 1 == 1) base = base.add(payMultiplier.mul(Symmetricals + 1).div(RotSym + 1));\n        if (_symmetries >> 3 & 1 == 1) base = base.add(payMultiplier.mul(Symmetricals + 1).div(Y0Sym + 1));\n        if (_symmetries >> 2 & 1 == 1) base = base.add(payMultiplier.mul(Symmetricals + 1).div(X0Sym + 1));\n        if (_symmetries >> 1 & 1 == 1) base = base.add(payMultiplier.mul(Symmetricals + 1).div(XYSym + 1));\n        if (_symmetries & 1 == 1) base = base.add(payMultiplier.mul(Symmetricals + 1).div(XnYSym + 1));\n        return base;\n    }\n\n\n    function synchronousClaim(bytes28[2] moves, bool _keep) public payable returns (bool) {\n        /* Reversi.Game memory game = Reversi.playGame(moves);\n        require(isValidGame(game));\n        uint256 tokenId = uint256(game.board);\n        require(IClovers(clovers).getBlockMinted(tokenId) == 0);\n        require(!IClovers(clovers).exists(tokenId));\n        IClovers(clovers).setBlockMinted(tokenId, block.number);\n        IClovers(clovers).setCloverMoves(tokenId, moves);\n\n        uint256 symmetries = (game.RotSym ? 1  : 0) << 1;\n        symmetries = (symmetries & (game.Y0Sym ? 1 : 0)) << 1;\n        symmetries = (symmetries & (game.X0Sym ? 1 : 0)) << 1;\n        symmetries = (symmetries & (game.XYSym ? 1 : 0)) << 1;\n        symmetries = symmetries & (game.XnYSym ? 1 : 0);\n\n        uint256 reward;\n\n        if (uint256(symmetries) > 0) {\n            IClovers(clovers).setSymmetries(tokenId, uint256(symmetries));\n            reward = calculateReward(uint256(symmetries));\n            IClovers(clovers).setReward(tokenId, reward);\n        }\n        if (_keep) {\n            // If the user decides to keep the Clover, they must\n            // pay for it in club tokens according to the reward price.\n            if (IClubToken(clubToken).balanceOf(msg.sender) < reward) {\n                IClubTokenController(clubTokenController).buy(msg.sender); // msg.value needs to be enough to buy \"reward\" amount of Club Token\n            }\n            if (reward > 0) {\n                IClubToken(clubToken).burn(msg.sender, reward);\n            }\n            IClovers(clovers).mint(msg.sender, tokenId);\n        } else {\n            // If the user decides not to keep the Clover, they will\n            // receive the reward price in club tokens, and the clover will\n            // go for sale at 10x the reward price.\n            if (reward > 0) {\n                require(IClubToken(clubToken).mint(msg.sender, reward));\n            }\n            IClovers(clovers).mint(clovers, tokenId);\n        } */\n\n    }\n\n    /**\n    * @dev Claim the Clover without a commit or reveal.\n    * @param moves The moves that make up the Clover reversi game.\n    * @param _tokenId The board that results from the moves.\n    * @param _symmetries symmetries saved as a uint256 value like 00010101 where bits represent symmetry types.\n    * @param _to The address claiming the Clover.\n    * @return A boolean representing whether or not the claim was successful.\n    */\n    function claimClover(bytes28[2] moves, uint256 _tokenId, uint256 _symmetries, address _to) public payable returns (bool) {\n        require(moves[0] != 0);\n        require(msg.value == stakeAmount);\n        bytes32 movesHash = keccak256(moves);\n        require(getCommit(movesHash) == 0);\n        setCommit(movesHash, _to);\n        setStake(movesHash, stakeAmount);\n        clovers.transfer(stakeAmount);\n        emit cloverCommitted(movesHash, _to);\n        require(!IClovers(clovers).exists(_tokenId));\n        require(IClovers(clovers).getBlockMinted(_tokenId) == 0);\n        IClovers(clovers).setBlockMinted(_tokenId, block.number);\n        IClovers(clovers).setCloverMoves(_tokenId, moves);\n        if (_symmetries > 0) {\n            IClovers(clovers).setSymmetries(_tokenId, _symmetries);\n            uint256 reward = calculateReward(_symmetries);\n            IClovers(clovers).setReward(_tokenId, reward);\n        }\n        emit cloverClaimed(moves, _tokenId, _to, stakeAmount, reward, _symmetries);\n        return true;\n    }\n    /**\n    * @dev Commit the hash of the moves needed to claim the Clover. A stake should be made for counterfactual verification.\n    * @param movesHash The hash of the moves that makes up the Clover reversi game.\n    * @param _to The address claiming the Clover.\n    * @return A boolean representing whether or not the commit was successful.\n    */\n    function claimCloverCommit(bytes32 movesHash, address _to) public payable returns (bool) {\n        require(_to != 0);\n        require(msg.value == stakeAmount);\n        require(getCommit(movesHash) == 0);\n        setCommit(movesHash, _to);\n        setStake(movesHash, stakeAmount);\n        clovers.transfer(stakeAmount);\n        emit cloverCommitted(movesHash, _to);\n        return true;\n    }\n    /**\n    * @dev Reveal the solution to the previous commit to claim the Clover.\n    * @param moves The moves that make up the Clover reversi game.\n    * @param _tokenId The board that results from the moves.\n    * @param _symmetries symmetries saved as a uint256 value like 00010101 where bits represent symmetry types.\n    * @return A boolean representing whether or not the reveal and claim was successful.\n    */\n    function claimCloverReveal(bytes28[2] moves, uint256 _tokenId, uint256 _symmetries) public returns (bool) {\n        require(moves[0] != 0);\n        bytes32 movesHash = keccak256(moves);\n        address commiter = getCommit(movesHash);\n        require(IClovers(clovers).getBlockMinted(_tokenId) == 0);\n        IClovers(clovers).setBlockMinted(_tokenId, block.number);\n        IClovers(clovers).setCloverMoves(_tokenId, moves);\n        if (_symmetries > 0) {\n            IClovers(clovers).setSymmetries(_tokenId, _symmetries);\n            uint256 reward = calculateReward(_symmetries);\n            IClovers(clovers).setReward(_tokenId, reward);\n        }\n        uint256 stake = getStake(movesHash);\n        emit cloverClaimed(moves, _tokenId, commiter, stake, reward, _symmetries);\n        return true;\n    }\n    /**\n    * @dev Retrieve the stake from a Clover claim after the stake period has ended.\n    * @param _tokenId The board which holds the stake.\n    * @return A boolean representing whether or not the retrieval was successful.\n    */\n    function retrieveStake(uint256 _tokenId, bool _keep) public payable returns (bool) {\n        bytes28[2] memory moves = IClovers(clovers).getCloverMoves(_tokenId);\n        require(moves[0] != 0);\n        bytes32 movesHash = keccak256(moves);\n        uint256 stake = getStake(movesHash);\n        require(stake != 0);\n        require(isVerified(_tokenId));\n        setStake(movesHash, 0);\n        addSymmetries(_tokenId);\n        address commiter = getCommit(movesHash);\n        require(msg.sender == commiter);\n        uint256 reward = IClovers(clovers).getReward(_tokenId);\n        if (_keep) {\n            /* If the user decides to keep the Clover, they must\n            pay for it in club tokens according to the reward price. */\n            if (IClubToken(clubToken).balanceOf(commiter) < reward) {\n                IClubTokenController(clubTokenController).buy(commiter); // msg.value needs to be enough to buy \"reward\" amount of Club Token\n            }\n            if (reward > 0) {\n                IClubToken(clubToken).burn(commiter, reward);\n            }\n            IClovers(clovers).mint(commiter, _tokenId);\n        } else {\n            /* If the user decides not to keep the Clover, they will\n            receive the reward price in club tokens, and the clover will\n            go for sale at 10x the reward price. */\n            if (reward > 0) {\n                require(IClubToken(clubToken).mint(commiter, reward));\n            }\n            IClovers(clovers).mint(clovers, _tokenId);\n        }\n        IClovers(clovers).moveEth(commiter, stake);\n        emit stakeRetrieved(_tokenId, commiter, stake);\n        return true;\n    }\n\n    /**\n    * @dev Buy one of the Clovers which were given up when mining.\n    * @param _tokenId The board being bought.\n    * @return A boolean representing whether or not the purchase was successful.\n    */\n    function buyCloverFromContract(uint256 _tokenId) public payable returns(bool) {\n        uint256 reward = IClovers(clovers).getReward(_tokenId);\n        uint256 toPay = reward.mul(priceMultiplier);\n        if (IClubToken(clubToken).balanceOf(msg.sender) < toPay) {\n            IClubTokenController(clubTokenController).buy(msg.sender); // msg.value needs to be enough to buy \"toPay\" amount of Club Token\n        }\n        if (toPay > 0) {\n            IClubToken(clubToken).burn(msg.sender, toPay);\n        }\n        IClovers(clovers).transferFrom(clovers, msg.sender, _tokenId);\n        return true;\n    }\n\n    /**\n    * @dev Challenge a staked Clover for being invalid.\n    * @param _tokenId The board being challenged.\n    * @param _to The address challenging the Clover.\n    * @return A boolean representing whether or not the challenge was successful.\n    */\n    function challengeClover(uint256 _tokenId, address _to) public returns (bool) {\n        bool valid = true;\n        bytes28[2] memory moves = IClovers(clovers).getCloverMoves(_tokenId);\n        require(moves[0] != 0);\n        Reversi.Game memory game = Reversi.playGame(moves);\n        require(game.board == bytes16(_tokenId));\n        if(isValidGame(game)) {\n            uint256 _symmetries = IClovers(clovers).getSymmetries(_tokenId);\n\n            valid = (_symmetries >> 4 & 1) > 0 == game.RotSym ? valid : false;\n            valid = (_symmetries >> 3 & 1) > 0 == game.Y0Sym ? valid : false;\n            valid = (_symmetries >> 2 & 1) > 0 == game.X0Sym ? valid : false;\n            valid = (_symmetries >> 1 & 1) > 0 == game.XYSym ? valid : false;\n            valid = (_symmetries & 1) > 0 == game.XnYSym ? valid : false;\n\n        } else {\n            valid = false;\n        }\n        require(!valid);\n\n        IClovers(clovers).deleteClover(_tokenId);\n        bytes32 movesHash = keccak256(moves);\n        if (!isVerified(_tokenId)) {\n            uint256 stake = getStake(movesHash);\n            IClovers(clovers).moveEth(_to, stake);\n        }\n        IClovers(clovers).unmint(_tokenId);\n        setCommit(movesHash, 0);\n        setStake(movesHash, 0);\n        removeSymmetries(_tokenId);\n\n        address commiter = getCommit(movesHash);\n        emit cloverChallenged(moves, _tokenId, commiter, _to, stake);\n        return true;\n    }\n\n\n    /**\n    * @dev Updates clubTokenController Address.\n    * @param _clubTokenController The new amount needed to stake.\n    */\n    function updateClubTokenController(address _clubTokenController) public onlyOwner {\n        clubTokenController = _clubTokenController;\n    }\n    /**\n    * @dev Updates the stake amount.\n    * @param _stakeAmount The new amount needed to stake.\n    */\n    function updateStakeAmount(uint256 _stakeAmount) public onlyOwner {\n        stakeAmount = _stakeAmount;\n    }\n    /**\n    * @dev Updates the stake period.\n    * @param _stakePeriod The uint256 value of time needed to stake before being verified.\n    */\n    function updateStakePeriod(uint256 _stakePeriod) public onlyOwner {\n        stakePeriod = _stakePeriod;\n    }\n    /**\n    * @dev Updates the pay multiplier, used to calculate token reward.\n    * @param _payMultiplier The uint256 value of pay multiplier.\n    */\n    function updatePayMultipier(uint256 _payMultiplier) public onlyOwner {\n        payMultiplier = _payMultiplier;\n    }\n    /**\n    * @dev Updates the price multiplier, used to calculate the clover price (multiplied by the original reward).\n    * @param _priceMultiplier The uint256 value of the price multiplier.\n    */\n    function updatePriceMultipier(uint256 _priceMultiplier) public onlyOwner {\n        priceMultiplier = _priceMultiplier;\n    }\n\n    /**\n    * @dev Sets the stake of a Clover based on the hash of the moves.\n    * @param movesHash The hash of the moves that make up the clover.\n    * @param stake A uint256 value of stake.\n    */\n    function setStake(bytes32 movesHash, uint256 stake) private {\n        stakes[movesHash] = stake;\n    }\n\n    /**\n    * @dev Sets the address of the commiter of a Clover based on the hash of the moves.\n    * @param movesHash The hash of the moves that make up the clover.\n    * @param commiter The address of the commiter.\n    */\n    function setCommit(bytes32 movesHash, address commiter) private {\n        commits[movesHash] = commiter;\n    }\n\n    /**\n    * @dev Adds new tallys of the totals numbers of clover symmetries.\n    * @param _tokenId The token which needs to be examined.\n    */\n    function addSymmetries(uint256 _tokenId) private {\n        uint256 Symmetricals;\n        uint256 RotSym;\n        uint256 Y0Sym;\n        uint256 X0Sym;\n        uint256 XYSym;\n        uint256 XnYSym;\n        (Symmetricals,\n        RotSym,\n        Y0Sym,\n        X0Sym,\n        XYSym,\n        XnYSym) = IClovers(clovers).getAllSymmetries();\n        uint256 _symmetries = IClovers(clovers).getSymmetries(_tokenId);\n        Symmetricals = Symmetricals.add(_symmetries > 0 ? 1 : 0);\n        RotSym = RotSym.add(uint256(_symmetries >> 4 & 1));\n        Y0Sym = Y0Sym.add(uint256(_symmetries >> 3 & 1));\n        X0Sym = X0Sym.add(uint256(_symmetries >> 2 & 1));\n        XYSym = XYSym.add(uint256(_symmetries >> 1 & 1));\n        XnYSym = XnYSym.add(uint256(_symmetries & 1));\n        IClovers(clovers).setAllSymmetries(Symmetricals, RotSym, Y0Sym, X0Sym, XYSym, XnYSym);\n    }\n    /**\n    * @dev Remove false tallys of the totals numbers of clover symmetries.\n    * @param _tokenId The token which needs to be examined.\n    */\n    function removeSymmetries(uint256 _tokenId) private {\n        uint256 Symmetricals;\n        uint256 RotSym;\n        uint256 Y0Sym;\n        uint256 X0Sym;\n        uint256 XYSym;\n        uint256 XnYSym;\n        (Symmetricals,\n        RotSym,\n        Y0Sym,\n        X0Sym,\n        XYSym,\n        XnYSym) = IClovers(clovers).getAllSymmetries();\n        uint256 _symmetries = IClovers(clovers).getSymmetries(_tokenId);\n        Symmetricals = Symmetricals.sub(_symmetries > 0 ? 1 : 0);\n        RotSym = RotSym.sub(uint256(_symmetries >> 4 & 1));\n        Y0Sym = Y0Sym.sub(uint256(_symmetries >> 3 & 1));\n        X0Sym = X0Sym.sub(uint256(_symmetries >> 2 & 1));\n        XYSym = XYSym.sub(uint256(_symmetries >> 1 & 1));\n        XnYSym = XnYSym.sub(uint256(_symmetries & 1));\n        IClovers(clovers).setAllSymmetries(Symmetricals, RotSym, Y0Sym, X0Sym, XYSym, XnYSym);\n    }\n\n}\n",
  "sourcePath": "/Users/billy/clovers/clovers-contracts/contracts/CloversController.sol",
  "compiler": {
    "name": "solc",
    "version": "0.4.24+commit.e67f0147.Emscripten.clang"
  },
  "schemaVersion": "2.0.1",
  "updatedAt": "2018-07-30T11:33:37.934Z"
}