{
  "contractName": "ClubTokenController",
  "abi": [
    {
      "constant": true,
      "inputs": [],
      "name": "reserveRatio",
      "outputs": [
        {
          "name": "",
          "type": "uint32"
        }
      ],
      "payable": false,
      "stateMutability": "view",
      "type": "function"
    },
    {
      "constant": false,
      "inputs": [
        {
          "name": "token",
          "type": "address"
        }
      ],
      "name": "reclaimToken",
      "outputs": [],
      "payable": false,
      "stateMutability": "nonpayable",
      "type": "function"
    },
    {
      "constant": true,
      "inputs": [],
      "name": "virtualSupply",
      "outputs": [
        {
          "name": "",
          "type": "uint256"
        }
      ],
      "payable": false,
      "stateMutability": "view",
      "type": "function"
    },
    {
      "constant": true,
      "inputs": [
        {
          "name": "_supply",
          "type": "uint256"
        },
        {
          "name": "_connectorBalance",
          "type": "uint256"
        },
        {
          "name": "_connectorWeight",
          "type": "uint32"
        },
        {
          "name": "_depositAmount",
          "type": "uint256"
        }
      ],
      "name": "calculatePurchaseReturn",
      "outputs": [
        {
          "name": "",
          "type": "uint256"
        }
      ],
      "payable": false,
      "stateMutability": "view",
      "type": "function"
    },
    {
      "constant": true,
      "inputs": [
        {
          "name": "_supply",
          "type": "uint256"
        },
        {
          "name": "_connectorBalance",
          "type": "uint256"
        },
        {
          "name": "_connectorWeight",
          "type": "uint32"
        },
        {
          "name": "_sellAmount",
          "type": "uint256"
        }
      ],
      "name": "calculateSaleReturn",
      "outputs": [
        {
          "name": "",
          "type": "uint256"
        }
      ],
      "payable": false,
      "stateMutability": "view",
      "type": "function"
    },
    {
      "constant": true,
      "inputs": [],
      "name": "version",
      "outputs": [
        {
          "name": "",
          "type": "string"
        }
      ],
      "payable": false,
      "stateMutability": "view",
      "type": "function"
    },
    {
      "constant": true,
      "inputs": [],
      "name": "paused",
      "outputs": [
        {
          "name": "",
          "type": "bool"
        }
      ],
      "payable": false,
      "stateMutability": "view",
      "type": "function"
    },
    {
      "constant": true,
      "inputs": [
        {
          "name": "_fromConnectorBalance",
          "type": "uint256"
        },
        {
          "name": "_fromConnectorWeight",
          "type": "uint32"
        },
        {
          "name": "_toConnectorBalance",
          "type": "uint256"
        },
        {
          "name": "_toConnectorWeight",
          "type": "uint32"
        },
        {
          "name": "_amount",
          "type": "uint256"
        }
      ],
      "name": "calculateCrossConnectorReturn",
      "outputs": [
        {
          "name": "",
          "type": "uint256"
        }
      ],
      "payable": false,
      "stateMutability": "view",
      "type": "function"
    },
    {
      "constant": false,
      "inputs": [],
      "name": "renounceOwnership",
      "outputs": [],
      "payable": false,
      "stateMutability": "nonpayable",
      "type": "function"
    },
    {
      "constant": true,
      "inputs": [],
      "name": "curationMarket",
      "outputs": [
        {
          "name": "",
          "type": "address"
        }
      ],
      "payable": false,
      "stateMutability": "view",
      "type": "function"
    },
    {
      "constant": true,
      "inputs": [],
      "name": "owner",
      "outputs": [
        {
          "name": "",
          "type": "address"
        }
      ],
      "payable": false,
      "stateMutability": "view",
      "type": "function"
    },
    {
      "constant": true,
      "inputs": [],
      "name": "simpleCloversMarket",
      "outputs": [
        {
          "name": "",
          "type": "address"
        }
      ],
      "payable": false,
      "stateMutability": "view",
      "type": "function"
    },
    {
      "constant": false,
      "inputs": [
        {
          "name": "from_",
          "type": "address"
        },
        {
          "name": "value_",
          "type": "uint256"
        },
        {
          "name": "data_",
          "type": "bytes"
        }
      ],
      "name": "tokenFallback",
      "outputs": [],
      "payable": false,
      "stateMutability": "nonpayable",
      "type": "function"
    },
    {
      "constant": true,
      "inputs": [],
      "name": "clubToken",
      "outputs": [
        {
          "name": "",
          "type": "address"
        }
      ],
      "payable": false,
      "stateMutability": "view",
      "type": "function"
    },
    {
      "constant": true,
      "inputs": [],
      "name": "virtualBalance",
      "outputs": [
        {
          "name": "",
          "type": "uint256"
        }
      ],
      "payable": false,
      "stateMutability": "view",
      "type": "function"
    },
    {
      "constant": false,
      "inputs": [
        {
          "name": "_newOwner",
          "type": "address"
        }
      ],
      "name": "transferOwnership",
      "outputs": [],
      "payable": false,
      "stateMutability": "nonpayable",
      "type": "function"
    },
    {
      "inputs": [
        {
          "name": "_clubToken",
          "type": "address"
        }
      ],
      "payable": false,
      "stateMutability": "nonpayable",
      "type": "constructor"
    },
    {
      "payable": true,
      "stateMutability": "payable",
      "type": "fallback"
    },
    {
      "anonymous": false,
      "inputs": [
        {
          "indexed": false,
          "name": "buyer",
          "type": "address"
        },
        {
          "indexed": false,
          "name": "tokens",
          "type": "uint256"
        },
        {
          "indexed": false,
          "name": "value",
          "type": "uint256"
        },
        {
          "indexed": false,
          "name": "poolBalance",
          "type": "uint256"
        },
        {
          "indexed": false,
          "name": "tokenSupply",
          "type": "uint256"
        }
      ],
      "name": "Buy",
      "type": "event"
    },
    {
      "anonymous": false,
      "inputs": [
        {
          "indexed": false,
          "name": "seller",
          "type": "address"
        },
        {
          "indexed": false,
          "name": "tokens",
          "type": "uint256"
        },
        {
          "indexed": false,
          "name": "value",
          "type": "uint256"
        },
        {
          "indexed": false,
          "name": "poolBalance",
          "type": "uint256"
        },
        {
          "indexed": false,
          "name": "tokenSupply",
          "type": "uint256"
        }
      ],
      "name": "Sell",
      "type": "event"
    },
    {
      "anonymous": false,
      "inputs": [
        {
          "indexed": true,
          "name": "previousOwner",
          "type": "address"
        }
      ],
      "name": "OwnershipRenounced",
      "type": "event"
    },
    {
      "anonymous": false,
      "inputs": [
        {
          "indexed": true,
          "name": "previousOwner",
          "type": "address"
        },
        {
          "indexed": true,
          "name": "newOwner",
          "type": "address"
        }
      ],
      "name": "OwnershipTransferred",
      "type": "event"
    },
    {
      "constant": true,
      "inputs": [],
      "name": "poolBalance",
      "outputs": [
        {
          "name": "",
          "type": "uint256"
        }
      ],
      "payable": false,
      "stateMutability": "view",
      "type": "function"
    },
    {
      "constant": true,
      "inputs": [
        {
          "name": "buyValue",
          "type": "uint256"
        }
      ],
      "name": "getBuy",
      "outputs": [
        {
          "name": "",
          "type": "uint256"
        }
      ],
      "payable": false,
      "stateMutability": "view",
      "type": "function"
    },
    {
      "constant": true,
      "inputs": [
        {
          "name": "sellAmount",
          "type": "uint256"
        }
      ],
      "name": "getSell",
      "outputs": [
        {
          "name": "",
          "type": "uint256"
        }
      ],
      "payable": false,
      "stateMutability": "view",
      "type": "function"
    },
    {
      "constant": false,
      "inputs": [
        {
          "name": "_paused",
          "type": "bool"
        }
      ],
      "name": "setPaused",
      "outputs": [],
      "payable": false,
      "stateMutability": "nonpayable",
      "type": "function"
    },
    {
      "constant": false,
      "inputs": [
        {
          "name": "_reserveRatio",
          "type": "uint32"
        }
      ],
      "name": "updateReserveRatio",
      "outputs": [
        {
          "name": "",
          "type": "bool"
        }
      ],
      "payable": false,
      "stateMutability": "nonpayable",
      "type": "function"
    },
    {
      "constant": false,
      "inputs": [
        {
          "name": "_virtualSupply",
          "type": "uint256"
        }
      ],
      "name": "updateVirtualSupply",
      "outputs": [
        {
          "name": "",
          "type": "bool"
        }
      ],
      "payable": false,
      "stateMutability": "nonpayable",
      "type": "function"
    },
    {
      "constant": false,
      "inputs": [
        {
          "name": "_virtualBalance",
          "type": "uint256"
        }
      ],
      "name": "updateVirtualBalance",
      "outputs": [
        {
          "name": "",
          "type": "bool"
        }
      ],
      "payable": false,
      "stateMutability": "nonpayable",
      "type": "function"
    },
    {
      "constant": false,
      "inputs": [
        {
          "name": "_simpleCloversMarket",
          "type": "address"
        }
      ],
      "name": "updateSimpleCloversMarket",
      "outputs": [
        {
          "name": "",
          "type": "bool"
        }
      ],
      "payable": false,
      "stateMutability": "nonpayable",
      "type": "function"
    },
    {
      "constant": false,
      "inputs": [
        {
          "name": "_curationMarket",
          "type": "address"
        }
      ],
      "name": "updateCurationMarket",
      "outputs": [
        {
          "name": "",
          "type": "bool"
        }
      ],
      "payable": false,
      "stateMutability": "nonpayable",
      "type": "function"
    },
    {
      "constant": false,
      "inputs": [],
      "name": "donate",
      "outputs": [],
      "payable": true,
      "stateMutability": "payable",
      "type": "function"
    },
    {
      "constant": false,
      "inputs": [
        {
          "name": "from",
          "type": "address"
        },
        {
          "name": "to",
          "type": "address"
        },
        {
          "name": "amount",
          "type": "uint256"
        }
      ],
      "name": "transferFrom",
      "outputs": [],
      "payable": false,
      "stateMutability": "nonpayable",
      "type": "function"
    },
    {
      "constant": false,
      "inputs": [
        {
          "name": "buyer",
          "type": "address"
        }
      ],
      "name": "buy",
      "outputs": [
        {
          "name": "",
          "type": "bool"
        }
      ],
      "payable": true,
      "stateMutability": "payable",
      "type": "function"
    },
    {
      "constant": false,
      "inputs": [
        {
          "name": "sellAmount",
          "type": "uint256"
        }
      ],
      "name": "sell",
      "outputs": [
        {
          "name": "",
          "type": "bool"
        }
      ],
      "payable": false,
      "stateMutability": "nonpayable",
      "type": "function"
    }
  ],
  "bytecode": "0x60c0604052600360808190527f302e33000000000000000000000000000000000000000000000000000000000060a090815262000040916000919062000858565b503480156200004e57600080fd5b506040516020806200338383398101604090815290516001606060020a641c35fedd1502036021556001605e60020a646c3390ecc902036022556001606160020a640cf801476102036023556001605f60020a6431bdb23e1d02036024556001605b60020a6502fb1d8fe08302036025556001605a60020a6505b771955b3702036026556001605960020a650af67a93bb5102036027556001605860020a6515060c256cb302036028556001605860020a651428a2f98d7302036029556001605660020a654d51566397090203602a556001605560020a65944620b0e70f0203602b557011c592761c666fffffffffffffffffffff602c5570110a688680a757ffffffffffffffffffff602d55701056f1b5bedf77ffffffffffffffffffff602e55700faadceceeff8bffffffffffffffffffff602f55700f05dc6b27edadffffffffffffffffffff603055700e67a5a25da4107fffffffffffffffffff603155700dcff115b14eedffffffffffffffffffff603255700d3e7a392431239fffffffffffffffffff603355700cb2ff529eb71e4fffffffffffffffffff603455700c2d415c3db974afffffffffffffffffff603555700bad03e7d883f69bffffffffffffffffff603655700b320d03b2c343d5ffffffffffffffffff603755700abc25204e02828dffffffffffffffffff603855700a4b16f74ee4bb207fffffffffffffffff6039557009deaf736ac1f569ffffffffffffffffff603a55700976bd9952c7aa957fffffffffffffffff603b557009131271922eaa606fffffffffffffffff603c557008b380f3558668c46fffffffffffffffff603d55700857ddf0117efa215bffffffffffffffff603e556001608360020a03603f557007abbf6f6abb9d087fffffffffffffffff90915570075af62cbac95f7dfa7fffffffffffffff60415570070d7fb7452e187ac13fffffffffffffff6042557006c3390ecc8af379295fffffffffffffff60435570067c00a3b07ffc01fd6fffffffffffffff604455700637b647c39cbb9d3d27ffffffffffffff6045557005f63b1fc104dbd39587ffffffffffffff6046557005b771955b36e12f7235ffffffffffffff60475570057b3d49dda84556d6f6ffffffffffffff60485570054183095b2c8ececf30ffffffffffffff60495570050a28be635ca2b888f77fffffffffffff604a557004d5156639708c9db33c3fffffffffffff604b557004a23105873875bd52dfdfffffffffffff604c55700471649d87199aa990756fffffffffffff604d557004429a21a029d4c1457cfbffffffffffff604e55700415bc6d6fb7dd71af2cb3ffffffffffff604f557003eab73b3bbfe282243ce1ffffffffffff6050557003c1771ac9fb6b4c18e229ffffffffffff605155700399e96897690418f785257fffffffffff605255700373fc456c53bb779bf0ea9fffffffffff60535570034f9e8e490c48e67e6ab8bfffffffffff60545570032cbfd4a7adc790560b3337ffffffffff60555570030b50570f6e5d2acca94613ffffffffff6056557002eb40f9f620fda6b56c2861ffffffffff6057557002cc8340ecb0d0f520a6af58ffffffffff6058557002af09481380a0a35cf1ba02ffffffffff605955700292c5bdd3b92ec810287b1b3fffffffff605a55700277abdcdab07d5a77ac6d6b9fffffffff605b5570025daf6654b1eaa55fd64df5efffffffff605c55700244c49c648baa98192dce88b7ffffffff605d5570022ce03cd5619a311b2471268bffffffff605e55700215f77c045fbe885654a44a0fffffffff605f556001608160020a036060557001eaefdbdaaee7421fc4d3ede5ffffffff6061557001d6bd8b2eb257df7e8ca57b09bfffffff6062557001c35fedd14b861eb0443f7f133fffffff6063557001b0ce43b322bcde4a56e8ada5afffffff60645570019f0028ec1fff007f5a195a39dfffffff60655570018ded91f0e72ee74f49b15ba527ffffff60665570017d8ec7f04136f4e5615fd41a63ffffff60675570016ddc6556cdb84bdc8d12d22e6fffffff60685570015ecf52776a1155b5bd8395814f7fffff60695570015060c256cb23b3b3cc3754cf40ffffff606a557001428a2f98d728ae223ddab715be3fffff606b5570013545598e5c23276ccf0ede68034fffff606c557001288c4161ce1d6f54b7f61081194fffff606d5570011c592761c666aa641d5a01a40f17ffff606e55700110a688680a7530515f3e6e6cfdcdffff606f557001056f1b5bedf75c6bcb2ce8aed428ffff6070556ffaadceceeff8a0890f3875f008277fff6071556ff05dc6b27edad306388a600f6ba0bfff6072556fe67a5a25da41063de1495d5b18cdbfff6073556fdcff115b14eedde6fc3aa5353f2e4fff6074556fd3e7a3924312399f9aae2e0f868f8fff6075556fcb2ff529eb71e41582cccd5a1ee26fff6076556fc2d415c3db974ab32a51840c0b67edff6077556fbad03e7d883f69ad5b0a186184e06bff6078556fb320d03b2c343d4829abd6075f0cc5ff6079556fabc25204e02828d73c6e80bcdb1a95bf607a556fa4b16f74ee4bb2040a1ec6c15fbbf2df607b556f9deaf736ac1f569deb1b5ae3f36c130f607c556f976bd9952c7aa957f5937d790ef65037607d556f9131271922eaa6064b73a22d0bd4f2bf607e556f8b380f3558668c46c91c49a2f8e967b9607f556f857ddf0117efa215952912839f6473e66080556081805460828054600160a060020a03909416600160a060020a031994851617905560a060020a60ff0219921633179190911674010000000000000000000000000000000000000000179055620008fd565b828054600181600116156101000203166002900490600052602060002090601f016020900481019282601f106200089b57805160ff1916838001178555620008cb565b82800160010185558215620008cb579182015b82811115620008cb578251825591602001919060010190620008ae565b50620008d9929150620008dd565b5090565b620008fa91905b80821115620008d95760008155600101620008e4565b90565b612a76806200090d6000396000f3006080604052600436106101735763ffffffff7c01000000000000000000000000000000000000000000000000000000006000350416627173c8811461017f5780630c7d5cd8146101c157806314cdfccf146101ef57806316c38b3c1461020757806317ffc3201461022357806323b872dd14610251578063277b2f971461028857806329a00e7c146102af57806349f9b0f7146102d657806354fd4d50146102fd5780635c975abb1461038757806365098bb31461039c578063715018a6146103ca57806372420f06146103df578063783f0e401461041d5780638da5cb5b1461043b57806396365d4414610450578063975e4b2a14610465578063b77d0df81461047a578063c0ee0b8a14610492578063d010ed70146104d0578063d76bbd52146104fe578063dcd2af1714610513578063dde4a70b14610528578063e4849b3214610540578063ed88c68e14610558578063f088d54714610560578063f2fde38b14610581578063f32a547c146105af575b61017c336105c7565b50005b34801561018b57600080fd5b506101ad73ffffffffffffffffffffffffffffffffffffffff600435166108be565b604080519115158252519081900360200190f35b3480156101cd57600080fd5b506101d661092f565b6040805163ffffffff9092168252519081900360200190f35b3480156101fb57600080fd5b506101ad60043561093b565b34801561021357600080fd5b50610221600435151561096b565b005b34801561022f57600080fd5b5061022173ffffffffffffffffffffffffffffffffffffffff600435166109d9565b34801561025d57600080fd5b5061022173ffffffffffffffffffffffffffffffffffffffff60043581169060243516604435610ace565b34801561029457600080fd5b5061029d610bcb565b60408051918252519081900360200190f35b3480156102bb57600080fd5b5061029d60043560243563ffffffff60443516606435610bd1565b3480156102e257600080fd5b5061029d60043560243563ffffffff60443516606435610c9f565b34801561030957600080fd5b50610312610d90565b6040805160208082528351818301528351919283929083019185019080838360005b8381101561034c578181015183820152602001610334565b50505050905090810190601f1680156103795780820380516001836020036101000a031916815260200191505b509250505060405180910390f35b34801561039357600080fd5b506101ad610e3c565b3480156103a857600080fd5b5061029d60043563ffffffff6024358116906044359060643516608435610e5d565b3480156103d657600080fd5b50610221610f5a565b3480156103eb57600080fd5b506103f4610fed565b6040805173ffffffffffffffffffffffffffffffffffffffff9092168252519081900360200190f35b34801561042957600080fd5b506101ad63ffffffff60043516611009565b34801561044757600080fd5b506103f461106a565b34801561045c57600080fd5b5061029d611086565b34801561047157600080fd5b506103f46110a3565b34801561048657600080fd5b506101ad6004356110bf565b34801561049e57600080fd5b506102216004803573ffffffffffffffffffffffffffffffffffffffff169060248035916044359182019101356110ef565b3480156104dc57600080fd5b506101ad73ffffffffffffffffffffffffffffffffffffffff600435166110f4565b34801561050a57600080fd5b506103f4611165565b34801561051f57600080fd5b5061029d611181565b34801561053457600080fd5b5061029d600435611187565b34801561054c57600080fd5b506101ad600435611271565b61022161157a565b6101ad73ffffffffffffffffffffffffffffffffffffffff600435166105c7565b34801561058d57600080fd5b5061022173ffffffffffffffffffffffffffffffffffffffff6004351661167e565b3480156105bb57600080fd5b5061029d6004356116ab565b608154600090819074010000000000000000000000000000000000000000900460ff16801561060e575060815473ffffffffffffffffffffffffffffffffffffffff163314155b1561067a57604080517f08c379a000000000000000000000000000000000000000000000000000000000815260206004820152600f60248201527f636f6e7472616374207061757365640000000000000000000000000000000000604482015290519081900360640190fd5b6000341161068757600080fd5b610690346116ab565b90506000811161069f57600080fd5b608254604080517f40c10f1900000000000000000000000000000000000000000000000000000000815273ffffffffffffffffffffffffffffffffffffffff868116600483015260248201859052915191909216916340c10f199160448083019260209291908290030181600087803b15801561071b57600080fd5b505af115801561072f573d6000803e3d6000fd5b505050506040513d602081101561074557600080fd5b5051151561075257600080fd5b60825460405173ffffffffffffffffffffffffffffffffffffffff909116903480156108fc02916000818181858888f19350505050158015610798573d6000803e3d6000fd5b507f064fb1933e186be0b289a87e98518dc18cc9856ecbc9f1353d1a138ddf733ec58382346107c5611086565b608260009054906101000a900473ffffffffffffffffffffffffffffffffffffffff1673ffffffffffffffffffffffffffffffffffffffff166318160ddd6040518163ffffffff167c0100000000000000000000000000000000000000000000000000000000028152600401602060405180830381600087803b15801561084b57600080fd5b505af115801561085f573d6000803e3d6000fd5b505050506040513d602081101561087557600080fd5b50516040805173ffffffffffffffffffffffffffffffffffffffff909616865260208601949094528484019290925260608401526080830152519081900360a00190a150919050565b60815460009073ffffffffffffffffffffffffffffffffffffffff1633146108e557600080fd5b506084805473ffffffffffffffffffffffffffffffffffffffff83167fffffffffffffffffffffffff00000000000000000000000000000000000000009091161790556001919050565b60875463ffffffff1681565b60815460009073ffffffffffffffffffffffffffffffffffffffff16331461096257600080fd5b50608555600190565b60815473ffffffffffffffffffffffffffffffffffffffff16331461098f57600080fd5b6081805491151574010000000000000000000000000000000000000000027fffffffffffffffffffffff00ffffffffffffffffffffffffffffffffffffffff909216919091179055565b60815460009073ffffffffffffffffffffffffffffffffffffffff163314610a0057600080fd5b604080517f70a08231000000000000000000000000000000000000000000000000000000008152306004820152905173ffffffffffffffffffffffffffffffffffffffff8416916370a082319160248083019260209291908290030181600087803b158015610a6e57600080fd5b505af1158015610a82573d6000803e3d6000fd5b505050506040513d6020811015610a9857600080fd5b5051608154909150610aca9073ffffffffffffffffffffffffffffffffffffffff84811691168363ffffffff61175316565b5050565b60835473ffffffffffffffffffffffffffffffffffffffff16331480610b0b575060845473ffffffffffffffffffffffffffffffffffffffff1633145b1515610b1657600080fd5b608254604080517f23b872dd00000000000000000000000000000000000000000000000000000000815273ffffffffffffffffffffffffffffffffffffffff8681166004830152858116602483015260448201859052915191909216916323b872dd9160648083019260209291908290030181600087803b158015610b9a57600080fd5b505af1158015610bae573d6000803e3d6000fd5b505050506040513d6020811015610bc457600080fd5b5050505050565b60855481565b60008060008060008089118015610be85750600088115b8015610bfa575060008763ffffffff16115b8015610c0f5750620f424063ffffffff881611155b1515610c1a57600080fd5b851515610c2a5760009450610c93565b63ffffffff8716620f42401415610c575787610c468a88611832565b811515610c4f57fe5b049450610c93565b610c61868961185d565b9150610c72828989620f424061186c565b909450925060ff8316610c858a86611832565b9060020a9004905088810394505b50505050949350505050565b60008060008060008060008a118015610cb85750600089115b8015610cca575060008863ffffffff16115b8015610cdf5750620f424063ffffffff891611155b8015610ceb5750898711155b1515610cf657600080fd5b861515610d065760009550610d83565b89871415610d1657889550610d83565b63ffffffff8816620f42401415610d435789610d328a89611832565b811515610d3b57fe5b049550610d83565b868a039250610d578a84620f42408b61186c565b9095509350610d668986611832565b91505060ff831660020a880284818303811515610d7f57fe5b0495505b5050505050949350505050565b6000805460408051602060026001851615610100027fffffffffffffffffffffffffffffffffffffffffffffffffffffffffffffffff0190941693909304601f81018490048402820184019092528181529291830182828015610e345780601f10610e0957610100808354040283529160200191610e34565b820191906000526020600020905b815481529060010190602001808311610e1757829003601f168201915b505050505081565b60815474010000000000000000000000000000000000000000900460ff1681565b60008060008060008060008b118015610e7c575060008a63ffffffff16115b8015610e915750620f424063ffffffff8b1611155b8015610e9d5750600089115b8015610eaf575060008863ffffffff16115b8015610ec45750620f424063ffffffff891611155b1515610ecf57600080fd5b8763ffffffff168a63ffffffff161415610f0857610eed8b8861185d565b610ef78a89611832565b811515610f0057fe5b049550610f4c565b610f128b8861185d565b9250610f20838c8c8b61186c565b9095509350610f2f8986611832565b91505060ff831660020a880284818303811515610f4857fe5b0495505b505050505095945050505050565b60815473ffffffffffffffffffffffffffffffffffffffff163314610f7e57600080fd5b60815460405173ffffffffffffffffffffffffffffffffffffffff909116907ff8df31144d9c2f0f6b59d69b8b98abd5459d07f2742c4df920b25aae33c6482090600090a2608180547fffffffffffffffffffffffff0000000000000000000000000000000000000000169055565b60845473ffffffffffffffffffffffffffffffffffffffff1681565b60815460009073ffffffffffffffffffffffffffffffffffffffff16331461103057600080fd5b506087805463ffffffff83167fffffffffffffffffffffffffffffffffffffffffffffffffffffffff000000009091161790556001919050565b60815473ffffffffffffffffffffffffffffffffffffffff1681565b60825473ffffffffffffffffffffffffffffffffffffffff163190565b60835473ffffffffffffffffffffffffffffffffffffffff1681565b60815460009073ffffffffffffffffffffffffffffffffffffffff1633146110e657600080fd5b50608655600190565b600080fd5b60815460009073ffffffffffffffffffffffffffffffffffffffff16331461111b57600080fd5b506083805473ffffffffffffffffffffffffffffffffffffffff83167fffffffffffffffffffffffff00000000000000000000000000000000000000009091161790556001919050565b60825473ffffffffffffffffffffffffffffffffffffffff1681565b60865481565b600061126b611249608260009054906101000a900473ffffffffffffffffffffffffffffffffffffffff1673ffffffffffffffffffffffffffffffffffffffff166318160ddd6040518163ffffffff167c0100000000000000000000000000000000000000000000000000000000028152600401602060405180830381600087803b15801561121557600080fd5b505af1158015611229573d6000803e3d6000fd5b505050506040513d602081101561123f57600080fd5b505160855461185d565b61125c611254611086565b60865461185d565b60875463ffffffff1685610c9f565b92915050565b608154600090819074010000000000000000000000000000000000000000900460ff1680156112b8575060815473ffffffffffffffffffffffffffffffffffffffff163314155b1561132457604080517f08c379a000000000000000000000000000000000000000000000000000000000815260206004820152600f60248201527f636f6e7472616374207061757365640000000000000000000000000000000000604482015290519081900360640190fd5b6000831161133157600080fd5b608254604080517f70a082310000000000000000000000000000000000000000000000000000000081523360048201529051859273ffffffffffffffffffffffffffffffffffffffff16916370a082319160248083019260209291908290030181600087803b1580156113a357600080fd5b505af11580156113b7573d6000803e3d6000fd5b505050506040513d60208110156113cd57600080fd5b505110156113da57600080fd5b6113e383611187565b9050600081116113f257600080fd5b6113fa611086565b81111561140657600080fd5b60825473ffffffffffffffffffffffffffffffffffffffff163181111561142c57600080fd5b608254604080517f9dc29fac00000000000000000000000000000000000000000000000000000000815233600482015260248101869052905173ffffffffffffffffffffffffffffffffffffffff90921691639dc29fac9160448082019260009290919082900301818387803b1580156114a557600080fd5b505af11580156114b9573d6000803e3d6000fd5b5050608254604080517f1cc1472d00000000000000000000000000000000000000000000000000000000815233600482015260248101869052905173ffffffffffffffffffffffffffffffffffffffff9092169350631cc1472d925060448082019260009290919082900301818387803b15801561153657600080fd5b505af115801561154a573d6000803e3d6000fd5b505050507f483f8aec0fd892ac72ad1ba8d0e9c9e73db59c12d263fd71de480b5b3deeae3c3384836107c5611086565b60815474010000000000000000000000000000000000000000900460ff1680156115bc575060815473ffffffffffffffffffffffffffffffffffffffff163314155b1561162857604080517f08c379a000000000000000000000000000000000000000000000000000000000815260206004820152600f60248201527f636f6e7472616374207061757365640000000000000000000000000000000000604482015290519081900360640190fd5b6000341161163557600080fd5b60825460405173ffffffffffffffffffffffffffffffffffffffff909116903480156108fc02916000818181858888f1935050505015801561167b573d6000803e3d6000fd5b50565b60815473ffffffffffffffffffffffffffffffffffffffff1633146116a257600080fd5b61167b81611962565b600061126b611739608260009054906101000a900473ffffffffffffffffffffffffffffffffffffffff1673ffffffffffffffffffffffffffffffffffffffff166318160ddd6040518163ffffffff167c0100000000000000000000000000000000000000000000000000000000028152600401602060405180830381600087803b15801561121557600080fd5b611744611254611086565b60875463ffffffff1685610bd1565b8273ffffffffffffffffffffffffffffffffffffffff1663a9059cbb83836040518363ffffffff167c0100000000000000000000000000000000000000000000000000000000028152600401808373ffffffffffffffffffffffffffffffffffffffff1673ffffffffffffffffffffffffffffffffffffffff16815260200182815260200192505050602060405180830381600087803b1580156117f657600080fd5b505af115801561180a573d6000803e3d6000fd5b505050506040513d602081101561182057600080fd5b5051151561182d57600080fd5b505050565b600082820283158061184e575082848281151561184b57fe5b04145b151561185657fe5b9392505050565b60008282018381101561185657fe5b600080808080807002000000000000000000000000000000008a1061189057600080fd5b886f800000000000000000000000000000008b028115156118ad57fe5b04925070015bf0a8b1457695355fb8ac404e7a79e38310156118d9576118d283611a12565b93506118e5565b6118e283611f06565b93505b8663ffffffff168863ffffffff1685028115156118fe57fe5b04915070080000000000000000000000000000000082101561192e5761192382612045565b607f95509550611955565b6119378261252a565b905061194f60ff607f8390031660020a8304826125b7565b81955095505b5050505094509492505050565b73ffffffffffffffffffffffffffffffffffffffff8116151561198457600080fd5b60815460405173ffffffffffffffffffffffffffffffffffffffff8084169216907f8be0079c531659141344cd1fd0a4f28419497f9722a3daafe3b4186f6b6457e090600090a3608180547fffffffffffffffffffffffff00000000000000000000000000000000000000001673ffffffffffffffffffffffffffffffffffffffff92909216919091179055565b6000808080806fd3094c70f034de4b96ff7d5b6f99fcd88610611a6d576f4000000000000000000000000000000093909301926fd3094c70f034de4b96ff7d5b6f99fcd86f8000000000000000000000000000000087020495505b6fa45af1e1f40c333b3de1db4dd55f29a78610611ac2576f2000000000000000000000000000000093909301926fa45af1e1f40c333b3de1db4dd55f29a76f8000000000000000000000000000000087020495505b6f910b022db7ae67ce76b441c27035c6a18610611b17576f1000000000000000000000000000000093909301926f910b022db7ae67ce76b441c27035c6a16f8000000000000000000000000000000087020495505b6f88415abbe9a76bead8d00cf112e4d4a88610611b6c576f0800000000000000000000000000000093909301926f88415abbe9a76bead8d00cf112e4d4a86f8000000000000000000000000000000087020495505b6f84102b00893f64c705e841d5d4064bd38610611bc1576f0400000000000000000000000000000093909301926f84102b00893f64c705e841d5d4064bd36f8000000000000000000000000000000087020495505b6f8204055aaef1c8bd5c3259f4822735a28610611c16576f0200000000000000000000000000000093909301926f8204055aaef1c8bd5c3259f4822735a26f8000000000000000000000000000000087020495505b6f810100ab00222d861931c15e39b44e998610611c6b576f0100000000000000000000000000000093909301926f810100ab00222d861931c15e39b44e996f8000000000000000000000000000000087020495505b6f808040155aabbbe9451521693554f7338610611cbf576e80000000000000000000000000000093909301926f808040155aabbbe9451521693554f7336f8000000000000000000000000000000087020495505b7fffffffffffffffffffffffffffffffff80000000000000000000000000000000860192508291506f8000000000000000000000000000000082800204905070010000000000000000000000000000000083810383020493909301926f800000000000000000000000000000008282020491507002000000000000000000000000000000006faaaaaaaaaaaaaaaaaaaaaaaaaaaaaaaa84900383020493909301926f800000000000000000000000000000008282020491507003000000000000000000000000000000006f9999999999999999999999999999999984900383020493909301926f800000000000000000000000000000008282020491507004000000000000000000000000000000006f9249249249249249249249249249249284900383020493909301926f800000000000000000000000000000008282020491507005000000000000000000000000000000006f8e38e38e38e38e38e38e38e38e38e38e84900383020493909301926f800000000000000000000000000000008282020491507006000000000000000000000000000000006f8ba2e8ba2e8ba2e8ba2e8ba2e8ba2e8b84900383020493909301926f800000000000000000000000000000008282020491507007000000000000000000000000000000006f89d89d89d89d89d89d89d89d89d89d8984900383020493909301926f800000000000000000000000000000008282020491507008000000000000000000000000000000006f888888888888888888888888888888888490038302049390930195945050505050565b60008080807001000000000000000000000000000000008510611f6257611f3e6f8000000000000000000000000000000086046129da565b60ff8116600281900a909604956f8000000000000000000000000000000002935091505b6f800000000000000000000000000000008511156120155750607f5b60008160ff161115612015576f800000000000000000000000000000008580020494507001000000000000000000000000000000008510611fee576002948590049460ff7fffffffffffffffffffffffffffffffffffffffffffffffffffffffffffffffff830116900a92909201915b7fffffffffffffffffffffffffffffffffffffffffffffffffffffffffffffffff01611f7e565b6f05b9de1d10bf4103d647b0955897ba806f03f80fe03f80fe03f80fe03f80fe03f884020493505b505050919050565b6000670168244fdac780006f800000000000000000000000000000006f0fffffffffffffffffffffffffffffff84168080028290048082028390048083028490049485026710e1b3be415a00009092026705a0913f6b1e000091909102010192909181830204905080664807432bc1800002830192506f800000000000000000000000000000008282028115156120d857fe5b04905080660c0135dca0400002830192506f8000000000000000000000000000000082820281151561210657fe5b049050806601b707b1cdc00002830192506f8000000000000000000000000000000082820281151561213457fe5b049050806536e0f639b80002830192506f8000000000000000000000000000000082820281151561216157fe5b04905080650618fee9f80002830192506f8000000000000000000000000000000082820281151561218e57fe5b04905080649c197dcc0002830192506f800000000000000000000000000000008282028115156121ba57fe5b04905080640e30dce40002830192506f800000000000000000000000000000008282028115156121e657fe5b0490508064012ebd130002830192506f8000000000000000000000000000000082820281151561221257fe5b049050806317499f0002830192506f8000000000000000000000000000000082820281151561223d57fe5b049050806301a9d48002830192506f8000000000000000000000000000000082820281151561226857fe5b04905080621c638002830192506f8000000000000000000000000000000082820281151561229257fe5b049050806201c63802830192506f800000000000000000000000000000008282028115156122bc57fe5b04905080611ab802830192506f800000000000000000000000000000008282028115156122e557fe5b0490508061017c02830192506f8000000000000000000000000000000082820281151561230e57fe5b04905080601402830192506f8000000000000000000000000000000082820281151561233657fe5b6721c3677c82b400009190049384010482016f80000000000000000000000000000000019290506f1000000000000000000000000000000085161561239f5770018ebef9eac820ae8682b9793ac6d1e7767001c3d6a24ed82218787d624d3e5eba95f984020492505b6f200000000000000000000000000000008516156123e1577001368b2fc6f9609fe7aceb46aa619baed470018ebef9eac820ae8682b9793ac6d1e77884020492505b6f40000000000000000000000000000000851615612422576fbc5ab1b16779be3575bd8f0520a9f21f7001368b2fc6f9609fe7aceb46aa619baed584020492505b6f80000000000000000000000000000000851615612462576f454aaa8efe072e7f6ddbab84b40a55c96fbc5ab1b16779be3575bd8f0520a9f21e84020492505b7001000000000000000000000000000000008516156124a3576f0960aadc109e7a3bf4578099615711ea6f454aaa8efe072e7f6ddbab84b40a55c584020492505b7002000000000000000000000000000000008516156124e3576e2bf84208204f5977f9a8cf01fdce3d6f0960aadc109e7a3bf4578099615711d784020492505b700400000000000000000000000000000000851615612521576d03c6ab775dd0b95b4cbee7e65d116e2bf84208204f5977f9a8cf01fdc30784020492505b50909392505050565b60006020607f825b8160ff168360010160ff16101561257757600260ff8484011604905084600160ff83166080811061255f57fe5b01541061256e57809250612572565b8091505b612532565b84600160ff84166080811061258857fe5b0154106125975781935061203d565b84600160ff8516608081106125a857fe5b0154106110ef5782935061203d565b6000806000849150600090508360ff168583029060020a90049150816f03442c4e6074a82f1797f72ac000000002810190508360ff168583029060020a90049150816f0116b96f757c380fb287fd0e4000000002810190508360ff168583029060020a90049150816e45ae5bdd5f0e03eca1ff439000000002810190508360ff168583029060020a90049150816e0defabf91302cd95b9ffda5000000002810190508360ff168583029060020a90049150816e02529ca9832b22439efff9b800000002810190508360ff168583029060020a90049150816d54f1cf12bd04e516b6da8800000002810190508360ff168583029060020a90049150816d0a9e39e257a09ca2d6db5100000002810190508360ff168583029060020a90049150816d012e066e7b839fa050c30900000002810190508360ff168583029060020a90049150816c1e33d7d926c329a1ad1a80000002810190508360ff168583029060020a90049150816c02bee513bdb4a6b19b5f80000002810190508360ff168583029060020a90049150816b3a9316fa79b88eccf2a0000002810190508360ff168583029060020a90049150816b048177ebe1fa81237520000002810190508360ff168583029060020a90049150816a5263fe90242dcbacf0000002810190508360ff168583029060020a90049150816a057e22099c030d9410000002810190508360ff168583029060020a90049150816957e22099c030d941000002810190508360ff168583029060020a900491508169052b6b5456997631000002810190508360ff168583029060020a9004915081684985f67696bf74800002810190508360ff168583029060020a90049150816803dea12ea99e49800002810190508360ff168583029060020a90049150816731880f2214b6e00002810190508360ff168583029060020a900491508167025bcff56eb3600002810190508360ff168583029060020a9004915081661b722e10ab100002810190508360ff168583029060020a90049150816601317c7007700002810190508360ff168583029060020a9004915081650cba84aafa0002810190508360ff168583029060020a90049150816482573a0a0002810190508360ff168583029060020a90049150816405035ad90002810190508360ff168583029060020a9004915081632f881b0002810190508360ff168583029060020a90049150816301b2934002810190508360ff168583029060020a9004915081620efc4002810190508360ff168583029060020a9004915081617fe002810190508360ff168583029060020a900491508161042002810190508360ff168583029060020a9004915081602102810190508360ff168583029060020a9004915081600102810190508360ff1660019060020a02856f0688589cc0e9505e2f2fee5580000000838115156129ce57fe5b04010195945050505050565b60008080610100841015612a09575b6001841115612a0457600290930492600191909101906129e9565b612a43565b5060805b60008160ff161115612a435760ff811660020a8410612a365760ff811660020a90930492908117905b600260ff90911604612a0d565b50929150505600a165627a7a7230582070376700e039b1abab4a361d098af922d820a6500eaef6a682bb244fd49538a10029",
  "source": "pragma solidity ^0.4.18;\n\n/**\n* The ClubTokenController is a replaceable endpoint for minting and unminting ClubToken.sol\n*/\n\n\nimport './IClubToken.sol';\nimport './IClubTokenController.sol';\nimport \"bancor-contracts/solidity/contracts/converter/BancorFormula.sol\";\nimport \"zeppelin-solidity/contracts/ownership/HasNoTokens.sol\";\n\ncontract ClubTokenController is IClubTokenController, BancorFormula, HasNoTokens {\n    event Buy(address buyer, uint256 tokens, uint256 value, uint256 poolBalance, uint256 tokenSupply);\n    event Sell(address seller, uint256 tokens, uint256 value, uint256 poolBalance, uint256 tokenSupply);\n\n    bool public paused;\n    address public clubToken;\n    address public simpleCloversMarket;\n    address public curationMarket;\n\n    /* uint256 public poolBalance; */\n    uint256 public virtualSupply;\n    uint256 public virtualBalance;\n    uint32 public reserveRatio; // represented in ppm, 1-1000000\n\n    constructor(address _clubToken) public {\n        clubToken = _clubToken;\n        paused = true;\n    }\n\n    function () public payable {\n        buy(msg.sender);\n    }\n\n    modifier isPaused() {\n        if (paused && msg.sender != owner) revert(\"contract paused\");\n        _;\n    }\n\n    function poolBalance() public constant returns(uint256) {\n        return clubToken.balance;\n    }\n\n    /**\n    * @dev gets the amount of tokens returned from spending Eth\n    * @param buyValue The amount of Eth to be spent\n    * @return A uint256 representing the amount of tokens gained in exchange for the Eth.\n    */\n    function getBuy(uint256 buyValue) public constant returns(uint256) {\n        return calculatePurchaseReturn(\n            safeAdd(IClubToken(clubToken).totalSupply(), virtualSupply),\n            safeAdd(poolBalance(), virtualBalance),\n            reserveRatio,\n            buyValue);\n    }\n\n\n    /**\n    * @dev gets the amount of Eth returned from selling tokens\n    * @param sellAmount The amount of tokens to be sold\n    * @return A uint256 representing the amount of Eth gained in exchange for the tokens.\n    */\n\n    function getSell(uint256 sellAmount) public constant returns(uint256) {\n        return calculateSaleReturn(\n            safeAdd(IClubToken(clubToken).totalSupply(), virtualSupply),\n            safeAdd(poolBalance(), virtualBalance),\n            reserveRatio,\n            sellAmount);\n    }\n\n    function setPaused(bool _paused) public onlyOwner {\n        paused = _paused;\n    }\n\n    /**\n    * @dev updates the Reserve Ratio variable\n    * @param _reserveRatio The reserve ratio that determines the curve\n    * @return A boolean representing whether or not the update was successful.\n    */\n    function updateReserveRatio(uint32 _reserveRatio) public onlyOwner returns(bool){\n        reserveRatio = _reserveRatio;\n        return true;\n    }\n\n    /**\n    * @dev updates the Virtual Supply variable\n    * @param _virtualSupply The virtual supply of tokens used for calculating buys and sells\n    * @return A boolean representing whether or not the update was successful.\n    */\n    function updateVirtualSupply(uint256 _virtualSupply) public onlyOwner returns(bool){\n        virtualSupply = _virtualSupply;\n        return true;\n    }\n\n    /**\n    * @dev updates the Virtual Balance variable\n    * @param _virtualBalance The virtual balance of the contract used for calculating buys and sells\n    * @return A boolean representing whether or not the update was successful.\n    */\n    function updateVirtualBalance(uint256 _virtualBalance) public onlyOwner returns(bool){\n        virtualBalance = _virtualBalance;\n        return true;\n    }\n    /**\n    * @dev updates the poolBalance\n    * @param _poolBalance The eth balance of ClubToken.sol\n    * @return A boolean representing whether or not the update was successful.\n    */\n    /* function updatePoolBalance(uint256 _poolBalance) public onlyOwner returns(bool){\n        poolBalance = _poolBalance;\n        return true;\n    } */\n\n    /**\n    * @dev updates the SimpleCloversMarket address\n    * @param _simpleCloversMarket The address of the simpleCloversMarket\n    * @return A boolean representing whether or not the update was successful.\n    */\n    function updateSimpleCloversMarket(address _simpleCloversMarket) public onlyOwner returns(bool){\n        simpleCloversMarket = _simpleCloversMarket;\n        return true;\n    }\n\n    /**\n    * @dev updates the CurationMarket address\n    * @param _curationMarket The address of the curationMarket\n    * @return A boolean representing whether or not the update was successful.\n    */\n    function updateCurationMarket(address _curationMarket) public onlyOwner returns(bool){\n        curationMarket = _curationMarket;\n        return true;\n    }\n\n    /**\n    * @dev donate Donate Eth to the poolBalance without increasing the totalSupply\n    */\n    function donate() public payable isPaused {\n        require(msg.value > 0);\n        /* poolBalance = safeAdd(poolBalance, msg.value); */\n        clubToken.transfer(msg.value);\n    }\n\n    function transferFrom(address from, address to, uint256 amount) public {\n        require(msg.sender == simpleCloversMarket || msg.sender == curationMarket);\n        IClubToken(clubToken).transferFrom(from, to, amount);\n    }\n\n    /**\n    * @dev buy Buy ClubTokens with Eth\n    * @param buyer The address that should receive the new tokens\n    */\n    function buy(address buyer) public payable isPaused returns(bool) {\n        require(msg.value > 0);\n        uint256 tokens = getBuy(msg.value);\n        require(tokens > 0);\n        require(IClubToken(clubToken).mint(buyer, tokens));\n        /* poolBalance = safeAdd(poolBalance, msg.value); */\n        clubToken.transfer(msg.value);\n        emit Buy(buyer, tokens, msg.value, poolBalance(), IClubToken(clubToken).totalSupply());\n    }\n\n\n    /**\n    * @dev sell Sell ClubTokens for Eth\n    * @param sellAmount The amount of tokens to sell\n    */\n    function sell(uint256 sellAmount) public isPaused returns(bool) {\n        require(sellAmount > 0);\n        require(IClubToken(clubToken).balanceOf(msg.sender) >= sellAmount);\n        uint256 saleReturn = getSell(sellAmount);\n        require(saleReturn > 0);\n        require(saleReturn <= poolBalance());\n        require(saleReturn <= clubToken.balance);\n        IClubToken(clubToken).burn(msg.sender, sellAmount);\n        /* poolBalance = safeSub(poolBalance, saleReturn); */\n        IClubToken(clubToken).moveEth(msg.sender, saleReturn);\n        emit Sell(msg.sender, sellAmount, saleReturn, poolBalance(), IClubToken(clubToken).totalSupply());\n    }\n\n\n }\n",
  "sourcePath": "/home/billyrennekamp/GitHub.com/clovers-network/clovers-contracts/contracts/ClubTokenController.sol",
  "compiler": {
    "name": "solc",
    "version": "0.4.24+commit.e67f0147.Emscripten.clang"
  },
  "schemaVersion": "2.0.1",
  "updatedAt": "2019-06-05T09:53:46.364Z"
}