{
  "contractName": "ClubTokenController",
  "abi": [
    {
      "constant": true,
      "inputs": [],
      "name": "reserveRatio",
      "outputs": [
        {
          "name": "",
          "type": "uint32"
        }
      ],
      "payable": false,
      "stateMutability": "view",
      "type": "function"
    },
    {
      "constant": false,
      "inputs": [
        {
          "name": "token",
          "type": "address"
        }
      ],
      "name": "reclaimToken",
      "outputs": [],
      "payable": false,
      "stateMutability": "nonpayable",
      "type": "function"
    },
    {
      "constant": true,
      "inputs": [],
      "name": "virtualSupply",
      "outputs": [
        {
          "name": "",
          "type": "uint256"
        }
      ],
      "payable": false,
      "stateMutability": "view",
      "type": "function"
    },
    {
      "constant": true,
      "inputs": [
        {
          "name": "_supply",
          "type": "uint256"
        },
        {
          "name": "_connectorBalance",
          "type": "uint256"
        },
        {
          "name": "_connectorWeight",
          "type": "uint32"
        },
        {
          "name": "_depositAmount",
          "type": "uint256"
        }
      ],
      "name": "calculatePurchaseReturn",
      "outputs": [
        {
          "name": "",
          "type": "uint256"
        }
      ],
      "payable": false,
      "stateMutability": "view",
      "type": "function"
    },
    {
      "constant": true,
      "inputs": [
        {
          "name": "_supply",
          "type": "uint256"
        },
        {
          "name": "_connectorBalance",
          "type": "uint256"
        },
        {
          "name": "_connectorWeight",
          "type": "uint32"
        },
        {
          "name": "_sellAmount",
          "type": "uint256"
        }
      ],
      "name": "calculateSaleReturn",
      "outputs": [
        {
          "name": "",
          "type": "uint256"
        }
      ],
      "payable": false,
      "stateMutability": "view",
      "type": "function"
    },
    {
      "constant": true,
      "inputs": [],
      "name": "version",
      "outputs": [
        {
          "name": "",
          "type": "string"
        }
      ],
      "payable": false,
      "stateMutability": "view",
      "type": "function"
    },
    {
      "constant": true,
      "inputs": [],
      "name": "paused",
      "outputs": [
        {
          "name": "",
          "type": "bool"
        }
      ],
      "payable": false,
      "stateMutability": "view",
      "type": "function"
    },
    {
      "constant": true,
      "inputs": [
        {
          "name": "_fromConnectorBalance",
          "type": "uint256"
        },
        {
          "name": "_fromConnectorWeight",
          "type": "uint32"
        },
        {
          "name": "_toConnectorBalance",
          "type": "uint256"
        },
        {
          "name": "_toConnectorWeight",
          "type": "uint32"
        },
        {
          "name": "_amount",
          "type": "uint256"
        }
      ],
      "name": "calculateCrossConnectorReturn",
      "outputs": [
        {
          "name": "",
          "type": "uint256"
        }
      ],
      "payable": false,
      "stateMutability": "view",
      "type": "function"
    },
    {
      "constant": false,
      "inputs": [],
      "name": "renounceOwnership",
      "outputs": [],
      "payable": false,
      "stateMutability": "nonpayable",
      "type": "function"
    },
    {
      "constant": true,
      "inputs": [],
      "name": "curationMarket",
      "outputs": [
        {
          "name": "",
          "type": "address"
        }
      ],
      "payable": false,
      "stateMutability": "view",
      "type": "function"
    },
    {
      "constant": true,
      "inputs": [],
      "name": "owner",
      "outputs": [
        {
          "name": "",
          "type": "address"
        }
      ],
      "payable": false,
      "stateMutability": "view",
      "type": "function"
    },
    {
      "constant": true,
      "inputs": [],
      "name": "simpleCloversMarket",
      "outputs": [
        {
          "name": "",
          "type": "address"
        }
      ],
      "payable": false,
      "stateMutability": "view",
      "type": "function"
    },
    {
      "constant": false,
      "inputs": [
        {
          "name": "from_",
          "type": "address"
        },
        {
          "name": "value_",
          "type": "uint256"
        },
        {
          "name": "data_",
          "type": "bytes"
        }
      ],
      "name": "tokenFallback",
      "outputs": [],
      "payable": false,
      "stateMutability": "nonpayable",
      "type": "function"
    },
    {
      "constant": true,
      "inputs": [],
      "name": "clubToken",
      "outputs": [
        {
          "name": "",
          "type": "address"
        }
      ],
      "payable": false,
      "stateMutability": "view",
      "type": "function"
    },
    {
      "constant": true,
      "inputs": [],
      "name": "virtualBalance",
      "outputs": [
        {
          "name": "",
          "type": "uint256"
        }
      ],
      "payable": false,
      "stateMutability": "view",
      "type": "function"
    },
    {
      "constant": false,
      "inputs": [
        {
          "name": "_newOwner",
          "type": "address"
        }
      ],
      "name": "transferOwnership",
      "outputs": [],
      "payable": false,
      "stateMutability": "nonpayable",
      "type": "function"
    },
    {
      "inputs": [
        {
          "name": "_clubToken",
          "type": "address"
        }
      ],
      "payable": false,
      "stateMutability": "nonpayable",
      "type": "constructor"
    },
    {
      "payable": true,
      "stateMutability": "payable",
      "type": "fallback"
    },
    {
      "anonymous": false,
      "inputs": [
        {
          "indexed": false,
          "name": "buyer",
          "type": "address"
        },
        {
          "indexed": false,
          "name": "tokens",
          "type": "uint256"
        },
        {
          "indexed": false,
          "name": "value",
          "type": "uint256"
        },
        {
          "indexed": false,
          "name": "poolBalance",
          "type": "uint256"
        },
        {
          "indexed": false,
          "name": "tokenSupply",
          "type": "uint256"
        }
      ],
      "name": "Buy",
      "type": "event"
    },
    {
      "anonymous": false,
      "inputs": [
        {
          "indexed": false,
          "name": "seller",
          "type": "address"
        },
        {
          "indexed": false,
          "name": "tokens",
          "type": "uint256"
        },
        {
          "indexed": false,
          "name": "value",
          "type": "uint256"
        },
        {
          "indexed": false,
          "name": "poolBalance",
          "type": "uint256"
        },
        {
          "indexed": false,
          "name": "tokenSupply",
          "type": "uint256"
        }
      ],
      "name": "Sell",
      "type": "event"
    },
    {
      "anonymous": false,
      "inputs": [
        {
          "indexed": true,
          "name": "previousOwner",
          "type": "address"
        }
      ],
      "name": "OwnershipRenounced",
      "type": "event"
    },
    {
      "anonymous": false,
      "inputs": [
        {
          "indexed": true,
          "name": "previousOwner",
          "type": "address"
        },
        {
          "indexed": true,
          "name": "newOwner",
          "type": "address"
        }
      ],
      "name": "OwnershipTransferred",
      "type": "event"
    },
    {
      "constant": true,
      "inputs": [],
      "name": "poolBalance",
      "outputs": [
        {
          "name": "",
          "type": "uint256"
        }
      ],
      "payable": false,
      "stateMutability": "view",
      "type": "function"
    },
    {
      "constant": true,
      "inputs": [
        {
          "name": "buyValue",
          "type": "uint256"
        }
      ],
      "name": "getBuy",
      "outputs": [
        {
          "name": "",
          "type": "uint256"
        }
      ],
      "payable": false,
      "stateMutability": "view",
      "type": "function"
    },
    {
      "constant": true,
      "inputs": [
        {
          "name": "sellAmount",
          "type": "uint256"
        }
      ],
      "name": "getSell",
      "outputs": [
        {
          "name": "",
          "type": "uint256"
        }
      ],
      "payable": false,
      "stateMutability": "view",
      "type": "function"
    },
    {
      "constant": false,
      "inputs": [
        {
          "name": "_paused",
          "type": "bool"
        }
      ],
      "name": "updatePaused",
      "outputs": [],
      "payable": false,
      "stateMutability": "nonpayable",
      "type": "function"
    },
    {
      "constant": false,
      "inputs": [
        {
          "name": "_reserveRatio",
          "type": "uint32"
        }
      ],
      "name": "updateReserveRatio",
      "outputs": [
        {
          "name": "",
          "type": "bool"
        }
      ],
      "payable": false,
      "stateMutability": "nonpayable",
      "type": "function"
    },
    {
      "constant": false,
      "inputs": [
        {
          "name": "_virtualSupply",
          "type": "uint256"
        }
      ],
      "name": "updateVirtualSupply",
      "outputs": [
        {
          "name": "",
          "type": "bool"
        }
      ],
      "payable": false,
      "stateMutability": "nonpayable",
      "type": "function"
    },
    {
      "constant": false,
      "inputs": [
        {
          "name": "_virtualBalance",
          "type": "uint256"
        }
      ],
      "name": "updateVirtualBalance",
      "outputs": [
        {
          "name": "",
          "type": "bool"
        }
      ],
      "payable": false,
      "stateMutability": "nonpayable",
      "type": "function"
    },
    {
      "constant": false,
      "inputs": [
        {
          "name": "_simpleCloversMarket",
          "type": "address"
        }
      ],
      "name": "updateSimpleCloversMarket",
      "outputs": [
        {
          "name": "",
          "type": "bool"
        }
      ],
      "payable": false,
      "stateMutability": "nonpayable",
      "type": "function"
    },
    {
      "constant": false,
      "inputs": [
        {
          "name": "_curationMarket",
          "type": "address"
        }
      ],
      "name": "updateCurationMarket",
      "outputs": [
        {
          "name": "",
          "type": "bool"
        }
      ],
      "payable": false,
      "stateMutability": "nonpayable",
      "type": "function"
    },
    {
      "constant": false,
      "inputs": [],
      "name": "donate",
      "outputs": [],
      "payable": true,
      "stateMutability": "payable",
      "type": "function"
    },
    {
      "constant": false,
      "inputs": [
        {
          "name": "from",
          "type": "address"
        },
        {
          "name": "amount",
          "type": "uint256"
        }
      ],
      "name": "burn",
      "outputs": [],
      "payable": false,
      "stateMutability": "nonpayable",
      "type": "function"
    },
    {
      "constant": false,
      "inputs": [
        {
          "name": "from",
          "type": "address"
        },
        {
          "name": "to",
          "type": "address"
        },
        {
          "name": "amount",
          "type": "uint256"
        }
      ],
      "name": "transferFrom",
      "outputs": [],
      "payable": false,
      "stateMutability": "nonpayable",
      "type": "function"
    },
    {
      "constant": false,
      "inputs": [
        {
          "name": "buyer",
          "type": "address"
        }
      ],
      "name": "buy",
      "outputs": [
        {
          "name": "",
          "type": "bool"
        }
      ],
      "payable": true,
      "stateMutability": "payable",
      "type": "function"
    },
    {
      "constant": false,
      "inputs": [
        {
          "name": "sellAmount",
          "type": "uint256"
        }
      ],
      "name": "sell",
      "outputs": [
        {
          "name": "",
          "type": "bool"
        }
      ],
      "payable": false,
      "stateMutability": "nonpayable",
      "type": "function"
    }
  ],
  "bytecode": "0x60c0604052600360808190527f302e33000000000000000000000000000000000000000000000000000000000060a090815262000040916000919062000858565b503480156200004e57600080fd5b50604051602080620033ce83398101604090815290516001606060020a641c35fedd1502036021556001605e60020a646c3390ecc902036022556001606160020a640cf801476102036023556001605f60020a6431bdb23e1d02036024556001605b60020a6502fb1d8fe08302036025556001605a60020a6505b771955b3702036026556001605960020a650af67a93bb5102036027556001605860020a6515060c256cb302036028556001605860020a651428a2f98d7302036029556001605660020a654d51566397090203602a556001605560020a65944620b0e70f0203602b557011c592761c666fffffffffffffffffffff602c5570110a688680a757ffffffffffffffffffff602d55701056f1b5bedf77ffffffffffffffffffff602e55700faadceceeff8bffffffffffffffffffff602f55700f05dc6b27edadffffffffffffffffffff603055700e67a5a25da4107fffffffffffffffffff603155700dcff115b14eedffffffffffffffffffff603255700d3e7a392431239fffffffffffffffffff603355700cb2ff529eb71e4fffffffffffffffffff603455700c2d415c3db974afffffffffffffffffff603555700bad03e7d883f69bffffffffffffffffff603655700b320d03b2c343d5ffffffffffffffffff603755700abc25204e02828dffffffffffffffffff603855700a4b16f74ee4bb207fffffffffffffffff6039557009deaf736ac1f569ffffffffffffffffff603a55700976bd9952c7aa957fffffffffffffffff603b557009131271922eaa606fffffffffffffffff603c557008b380f3558668c46fffffffffffffffff603d55700857ddf0117efa215bffffffffffffffff603e556001608360020a03603f557007abbf6f6abb9d087fffffffffffffffff90915570075af62cbac95f7dfa7fffffffffffffff60415570070d7fb7452e187ac13fffffffffffffff6042557006c3390ecc8af379295fffffffffffffff60435570067c00a3b07ffc01fd6fffffffffffffff604455700637b647c39cbb9d3d27ffffffffffffff6045557005f63b1fc104dbd39587ffffffffffffff6046557005b771955b36e12f7235ffffffffffffff60475570057b3d49dda84556d6f6ffffffffffffff60485570054183095b2c8ececf30ffffffffffffff60495570050a28be635ca2b888f77fffffffffffff604a557004d5156639708c9db33c3fffffffffffff604b557004a23105873875bd52dfdfffffffffffff604c55700471649d87199aa990756fffffffffffff604d557004429a21a029d4c1457cfbffffffffffff604e55700415bc6d6fb7dd71af2cb3ffffffffffff604f557003eab73b3bbfe282243ce1ffffffffffff6050557003c1771ac9fb6b4c18e229ffffffffffff605155700399e96897690418f785257fffffffffff605255700373fc456c53bb779bf0ea9fffffffffff60535570034f9e8e490c48e67e6ab8bfffffffffff60545570032cbfd4a7adc790560b3337ffffffffff60555570030b50570f6e5d2acca94613ffffffffff6056557002eb40f9f620fda6b56c2861ffffffffff6057557002cc8340ecb0d0f520a6af58ffffffffff6058557002af09481380a0a35cf1ba02ffffffffff605955700292c5bdd3b92ec810287b1b3fffffffff605a55700277abdcdab07d5a77ac6d6b9fffffffff605b5570025daf6654b1eaa55fd64df5efffffffff605c55700244c49c648baa98192dce88b7ffffffff605d5570022ce03cd5619a311b2471268bffffffff605e55700215f77c045fbe885654a44a0fffffffff605f556001608160020a036060557001eaefdbdaaee7421fc4d3ede5ffffffff6061557001d6bd8b2eb257df7e8ca57b09bfffffff6062557001c35fedd14b861eb0443f7f133fffffff6063557001b0ce43b322bcde4a56e8ada5afffffff60645570019f0028ec1fff007f5a195a39dfffffff60655570018ded91f0e72ee74f49b15ba527ffffff60665570017d8ec7f04136f4e5615fd41a63ffffff60675570016ddc6556cdb84bdc8d12d22e6fffffff60685570015ecf52776a1155b5bd8395814f7fffff60695570015060c256cb23b3b3cc3754cf40ffffff606a557001428a2f98d728ae223ddab715be3fffff606b5570013545598e5c23276ccf0ede68034fffff606c557001288c4161ce1d6f54b7f61081194fffff606d5570011c592761c666aa641d5a01a40f17ffff606e55700110a688680a7530515f3e6e6cfdcdffff606f557001056f1b5bedf75c6bcb2ce8aed428ffff6070556ffaadceceeff8a0890f3875f008277fff6071556ff05dc6b27edad306388a600f6ba0bfff6072556fe67a5a25da41063de1495d5b18cdbfff6073556fdcff115b14eedde6fc3aa5353f2e4fff6074556fd3e7a3924312399f9aae2e0f868f8fff6075556fcb2ff529eb71e41582cccd5a1ee26fff6076556fc2d415c3db974ab32a51840c0b67edff6077556fbad03e7d883f69ad5b0a186184e06bff6078556fb320d03b2c343d4829abd6075f0cc5ff6079556fabc25204e02828d73c6e80bcdb1a95bf607a556fa4b16f74ee4bb2040a1ec6c15fbbf2df607b556f9deaf736ac1f569deb1b5ae3f36c130f607c556f976bd9952c7aa957f5937d790ef65037607d556f9131271922eaa6064b73a22d0bd4f2bf607e556f8b380f3558668c46c91c49a2f8e967b9607f556f857ddf0117efa215952912839f6473e66080556081805460828054600160a060020a03909416600160a060020a031994851617905560a060020a60ff0219921633179190911674010000000000000000000000000000000000000000179055620008fd565b828054600181600116156101000203166002900490600052602060002090601f016020900481019282601f106200089b57805160ff1916838001178555620008cb565b82800160010185558215620008cb579182015b82811115620008cb578251825591602001919060010190620008ae565b50620008d9929150620008dd565b5090565b620008fa91905b80821115620008d95760008155600101620008e4565b90565b612ac1806200090d6000396000f30060806040526004361061017e5763ffffffff7c01000000000000000000000000000000000000000000000000000000006000350416627173c8811461018a57806308cdc2a8146101cc5780630c7d5cd8146101e857806314cdfccf1461021657806317ffc3201461022e57806323b872dd1461025c578063277b2f971461029357806329a00e7c146102ba57806349f9b0f7146102e157806354fd4d50146103085780635c975abb1461039257806365098bb3146103a7578063715018a6146103d557806372420f06146103ea578063783f0e40146104285780638da5cb5b1461044657806396365d441461045b578063975e4b2a146104705780639dc29fac14610485578063b77d0df8146104b6578063c0ee0b8a146104ce578063d010ed701461050c578063d76bbd521461053a578063dcd2af171461054f578063dde4a70b14610564578063e4849b321461057c578063ed88c68e14610594578063f088d5471461059c578063f2fde38b146105bd578063f32a547c146105eb575b61018733610603565b50005b34801561019657600080fd5b506101b873ffffffffffffffffffffffffffffffffffffffff600435166108fb565b604080519115158252519081900360200190f35b3480156101d857600080fd5b506101e6600435151561096c565b005b3480156101f457600080fd5b506101fd6109da565b6040805163ffffffff9092168252519081900360200190f35b34801561022257600080fd5b506101b86004356109e6565b34801561023a57600080fd5b506101e673ffffffffffffffffffffffffffffffffffffffff60043516610a16565b34801561026857600080fd5b506101e673ffffffffffffffffffffffffffffffffffffffff60043581169060243516604435610b0b565b34801561029f57600080fd5b506102a8610c08565b60408051918252519081900360200190f35b3480156102c657600080fd5b506102a860043560243563ffffffff60443516606435610c0e565b3480156102ed57600080fd5b506102a860043560243563ffffffff60443516606435610cdc565b34801561031457600080fd5b5061031d610dcd565b6040805160208082528351818301528351919283929083019185019080838360005b8381101561035757818101518382015260200161033f565b50505050905090810190601f1680156103845780820380516001836020036101000a031916815260200191505b509250505060405180910390f35b34801561039e57600080fd5b506101b8610e79565b3480156103b357600080fd5b506102a860043563ffffffff6024358116906044359060643516608435610e9a565b3480156103e157600080fd5b506101e6610f97565b3480156103f657600080fd5b506103ff61102a565b6040805173ffffffffffffffffffffffffffffffffffffffff9092168252519081900360200190f35b34801561043457600080fd5b506101b863ffffffff60043516611046565b34801561045257600080fd5b506103ff6110a7565b34801561046757600080fd5b506102a86110c3565b34801561047c57600080fd5b506103ff6110e0565b34801561049157600080fd5b506101e673ffffffffffffffffffffffffffffffffffffffff600435166024356110fc565b3480156104c257600080fd5b506101b86004356111b7565b3480156104da57600080fd5b506101e66004803573ffffffffffffffffffffffffffffffffffffffff169060248035916044359182019101356111e7565b34801561051857600080fd5b506101b873ffffffffffffffffffffffffffffffffffffffff600435166111ec565b34801561054657600080fd5b506103ff61125d565b34801561055b57600080fd5b506102a8611279565b34801561057057600080fd5b506102a860043561127f565b34801561058857600080fd5b506101b8600435611369565b6101e6611673565b6101b873ffffffffffffffffffffffffffffffffffffffff60043516610603565b3480156105c957600080fd5b506101e673ffffffffffffffffffffffffffffffffffffffff600435166116c9565b3480156105f757600080fd5b506102a86004356116f6565b608154600090819074010000000000000000000000000000000000000000900460ff16158061064a575060815473ffffffffffffffffffffffffffffffffffffffff163314155b15156106b757604080517f08c379a000000000000000000000000000000000000000000000000000000000815260206004820152601b60248201527f436f6e7472616374206d757374206e6f74206265207061757365640000000000604482015290519081900360640190fd5b600034116106c457600080fd5b6106cd346116f6565b9050600081116106dc57600080fd5b608254604080517f40c10f1900000000000000000000000000000000000000000000000000000000815273ffffffffffffffffffffffffffffffffffffffff868116600483015260248201859052915191909216916340c10f199160448083019260209291908290030181600087803b15801561075857600080fd5b505af115801561076c573d6000803e3d6000fd5b505050506040513d602081101561078257600080fd5b5051151561078f57600080fd5b60825460405173ffffffffffffffffffffffffffffffffffffffff909116903480156108fc02916000818181858888f193505050501580156107d5573d6000803e3d6000fd5b507f064fb1933e186be0b289a87e98518dc18cc9856ecbc9f1353d1a138ddf733ec58382346108026110c3565b608260009054906101000a900473ffffffffffffffffffffffffffffffffffffffff1673ffffffffffffffffffffffffffffffffffffffff166318160ddd6040518163ffffffff167c0100000000000000000000000000000000000000000000000000000000028152600401602060405180830381600087803b15801561088857600080fd5b505af115801561089c573d6000803e3d6000fd5b505050506040513d60208110156108b257600080fd5b50516040805173ffffffffffffffffffffffffffffffffffffffff909616865260208601949094528484019290925260608401526080830152519081900360a00190a150919050565b60815460009073ffffffffffffffffffffffffffffffffffffffff16331461092257600080fd5b506084805473ffffffffffffffffffffffffffffffffffffffff83167fffffffffffffffffffffffff00000000000000000000000000000000000000009091161790556001919050565b60815473ffffffffffffffffffffffffffffffffffffffff16331461099057600080fd5b6081805491151574010000000000000000000000000000000000000000027fffffffffffffffffffffff00ffffffffffffffffffffffffffffffffffffffff909216919091179055565b60875463ffffffff1681565b60815460009073ffffffffffffffffffffffffffffffffffffffff163314610a0d57600080fd5b50608555600190565b60815460009073ffffffffffffffffffffffffffffffffffffffff163314610a3d57600080fd5b604080517f70a08231000000000000000000000000000000000000000000000000000000008152306004820152905173ffffffffffffffffffffffffffffffffffffffff8416916370a082319160248083019260209291908290030181600087803b158015610aab57600080fd5b505af1158015610abf573d6000803e3d6000fd5b505050506040513d6020811015610ad557600080fd5b5051608154909150610b079073ffffffffffffffffffffffffffffffffffffffff84811691168363ffffffff61179e16565b5050565b60835473ffffffffffffffffffffffffffffffffffffffff16331480610b48575060845473ffffffffffffffffffffffffffffffffffffffff1633145b1515610b5357600080fd5b608254604080517f23b872dd00000000000000000000000000000000000000000000000000000000815273ffffffffffffffffffffffffffffffffffffffff8681166004830152858116602483015260448201859052915191909216916323b872dd9160648083019260209291908290030181600087803b158015610bd757600080fd5b505af1158015610beb573d6000803e3d6000fd5b505050506040513d6020811015610c0157600080fd5b5050505050565b60855481565b60008060008060008089118015610c255750600088115b8015610c37575060008763ffffffff16115b8015610c4c5750620f424063ffffffff881611155b1515610c5757600080fd5b851515610c675760009450610cd0565b63ffffffff8716620f42401415610c945787610c838a8861187d565b811515610c8c57fe5b049450610cd0565b610c9e86896118a8565b9150610caf828989620f42406118b7565b909450925060ff8316610cc28a8661187d565b9060020a9004905088810394505b50505050949350505050565b60008060008060008060008a118015610cf55750600089115b8015610d07575060008863ffffffff16115b8015610d1c5750620f424063ffffffff891611155b8015610d285750898711155b1515610d3357600080fd5b861515610d435760009550610dc0565b89871415610d5357889550610dc0565b63ffffffff8816620f42401415610d805789610d6f8a8961187d565b811515610d7857fe5b049550610dc0565b868a039250610d948a84620f42408b6118b7565b9095509350610da3898661187d565b91505060ff831660020a880284818303811515610dbc57fe5b0495505b5050505050949350505050565b6000805460408051602060026001851615610100027fffffffffffffffffffffffffffffffffffffffffffffffffffffffffffffffff0190941693909304601f81018490048402820184019092528181529291830182828015610e715780601f10610e4657610100808354040283529160200191610e71565b820191906000526020600020905b815481529060010190602001808311610e5457829003601f168201915b505050505081565b60815474010000000000000000000000000000000000000000900460ff1681565b60008060008060008060008b118015610eb9575060008a63ffffffff16115b8015610ece5750620f424063ffffffff8b1611155b8015610eda5750600089115b8015610eec575060008863ffffffff16115b8015610f015750620f424063ffffffff891611155b1515610f0c57600080fd5b8763ffffffff168a63ffffffff161415610f4557610f2a8b886118a8565b610f348a8961187d565b811515610f3d57fe5b049550610f89565b610f4f8b886118a8565b9250610f5d838c8c8b6118b7565b9095509350610f6c898661187d565b91505060ff831660020a880284818303811515610f8557fe5b0495505b505050505095945050505050565b60815473ffffffffffffffffffffffffffffffffffffffff163314610fbb57600080fd5b60815460405173ffffffffffffffffffffffffffffffffffffffff909116907ff8df31144d9c2f0f6b59d69b8b98abd5459d07f2742c4df920b25aae33c6482090600090a2608180547fffffffffffffffffffffffff0000000000000000000000000000000000000000169055565b60845473ffffffffffffffffffffffffffffffffffffffff1681565b60815460009073ffffffffffffffffffffffffffffffffffffffff16331461106d57600080fd5b506087805463ffffffff83167fffffffffffffffffffffffffffffffffffffffffffffffffffffffff000000009091161790556001919050565b60815473ffffffffffffffffffffffffffffffffffffffff1681565b60825473ffffffffffffffffffffffffffffffffffffffff163190565b60835473ffffffffffffffffffffffffffffffffffffffff1681565b60835473ffffffffffffffffffffffffffffffffffffffff16331461112057600080fd5b608254604080517f9dc29fac00000000000000000000000000000000000000000000000000000000815273ffffffffffffffffffffffffffffffffffffffff85811660048301526024820185905291519190921691639dc29fac91604480830192600092919082900301818387803b15801561119b57600080fd5b505af11580156111af573d6000803e3d6000fd5b505050505050565b60815460009073ffffffffffffffffffffffffffffffffffffffff1633146111de57600080fd5b50608655600190565b600080fd5b60815460009073ffffffffffffffffffffffffffffffffffffffff16331461121357600080fd5b506083805473ffffffffffffffffffffffffffffffffffffffff83167fffffffffffffffffffffffff00000000000000000000000000000000000000009091161790556001919050565b60825473ffffffffffffffffffffffffffffffffffffffff1681565b60865481565b6000611363611341608260009054906101000a900473ffffffffffffffffffffffffffffffffffffffff1673ffffffffffffffffffffffffffffffffffffffff166318160ddd6040518163ffffffff167c0100000000000000000000000000000000000000000000000000000000028152600401602060405180830381600087803b15801561130d57600080fd5b505af1158015611321573d6000803e3d6000fd5b505050506040513d602081101561133757600080fd5b50516085546118a8565b61135461134c6110c3565b6086546118a8565b60875463ffffffff1685610cdc565b92915050565b608154600090819074010000000000000000000000000000000000000000900460ff1615806113b0575060815473ffffffffffffffffffffffffffffffffffffffff163314155b151561141d57604080517f08c379a000000000000000000000000000000000000000000000000000000000815260206004820152601b60248201527f436f6e7472616374206d757374206e6f74206265207061757365640000000000604482015290519081900360640190fd5b6000831161142a57600080fd5b608254604080517f70a082310000000000000000000000000000000000000000000000000000000081523360048201529051859273ffffffffffffffffffffffffffffffffffffffff16916370a082319160248083019260209291908290030181600087803b15801561149c57600080fd5b505af11580156114b0573d6000803e3d6000fd5b505050506040513d60208110156114c657600080fd5b505110156114d357600080fd5b6114dc8361127f565b9050600081116114eb57600080fd5b6114f36110c3565b8111156114ff57600080fd5b60825473ffffffffffffffffffffffffffffffffffffffff163181111561152557600080fd5b608254604080517f9dc29fac00000000000000000000000000000000000000000000000000000000815233600482015260248101869052905173ffffffffffffffffffffffffffffffffffffffff90921691639dc29fac9160448082019260009290919082900301818387803b15801561159e57600080fd5b505af11580156115b2573d6000803e3d6000fd5b5050608254604080517f1cc1472d00000000000000000000000000000000000000000000000000000000815233600482015260248101869052905173ffffffffffffffffffffffffffffffffffffffff9092169350631cc1472d925060448082019260009290919082900301818387803b15801561162f57600080fd5b505af1158015611643573d6000803e3d6000fd5b505050507f483f8aec0fd892ac72ad1ba8d0e9c9e73db59c12d263fd71de480b5b3deeae3c3384836108026110c3565b6000341161168057600080fd5b60825460405173ffffffffffffffffffffffffffffffffffffffff909116903480156108fc02916000818181858888f193505050501580156116c6573d6000803e3d6000fd5b50565b60815473ffffffffffffffffffffffffffffffffffffffff1633146116ed57600080fd5b6116c6816119ad565b6000611363611784608260009054906101000a900473ffffffffffffffffffffffffffffffffffffffff1673ffffffffffffffffffffffffffffffffffffffff166318160ddd6040518163ffffffff167c0100000000000000000000000000000000000000000000000000000000028152600401602060405180830381600087803b15801561130d57600080fd5b61178f61134c6110c3565b60875463ffffffff1685610c0e565b8273ffffffffffffffffffffffffffffffffffffffff1663a9059cbb83836040518363ffffffff167c0100000000000000000000000000000000000000000000000000000000028152600401808373ffffffffffffffffffffffffffffffffffffffff1673ffffffffffffffffffffffffffffffffffffffff16815260200182815260200192505050602060405180830381600087803b15801561184157600080fd5b505af1158015611855573d6000803e3d6000fd5b505050506040513d602081101561186b57600080fd5b5051151561187857600080fd5b505050565b6000828202831580611899575082848281151561189657fe5b04145b15156118a157fe5b9392505050565b6000828201838110156118a157fe5b600080808080807002000000000000000000000000000000008a106118db57600080fd5b886f800000000000000000000000000000008b028115156118f857fe5b04925070015bf0a8b1457695355fb8ac404e7a79e38310156119245761191d83611a5d565b9350611930565b61192d83611f51565b93505b8663ffffffff168863ffffffff16850281151561194957fe5b0491507008000000000000000000000000000000008210156119795761196e82612090565b607f955095506119a0565b61198282612575565b905061199a60ff607f8390031660020a830482612602565b81955095505b5050505094509492505050565b73ffffffffffffffffffffffffffffffffffffffff811615156119cf57600080fd5b60815460405173ffffffffffffffffffffffffffffffffffffffff8084169216907f8be0079c531659141344cd1fd0a4f28419497f9722a3daafe3b4186f6b6457e090600090a3608180547fffffffffffffffffffffffff00000000000000000000000000000000000000001673ffffffffffffffffffffffffffffffffffffffff92909216919091179055565b6000808080806fd3094c70f034de4b96ff7d5b6f99fcd88610611ab8576f4000000000000000000000000000000093909301926fd3094c70f034de4b96ff7d5b6f99fcd86f8000000000000000000000000000000087020495505b6fa45af1e1f40c333b3de1db4dd55f29a78610611b0d576f2000000000000000000000000000000093909301926fa45af1e1f40c333b3de1db4dd55f29a76f8000000000000000000000000000000087020495505b6f910b022db7ae67ce76b441c27035c6a18610611b62576f1000000000000000000000000000000093909301926f910b022db7ae67ce76b441c27035c6a16f8000000000000000000000000000000087020495505b6f88415abbe9a76bead8d00cf112e4d4a88610611bb7576f0800000000000000000000000000000093909301926f88415abbe9a76bead8d00cf112e4d4a86f8000000000000000000000000000000087020495505b6f84102b00893f64c705e841d5d4064bd38610611c0c576f0400000000000000000000000000000093909301926f84102b00893f64c705e841d5d4064bd36f8000000000000000000000000000000087020495505b6f8204055aaef1c8bd5c3259f4822735a28610611c61576f0200000000000000000000000000000093909301926f8204055aaef1c8bd5c3259f4822735a26f8000000000000000000000000000000087020495505b6f810100ab00222d861931c15e39b44e998610611cb6576f0100000000000000000000000000000093909301926f810100ab00222d861931c15e39b44e996f8000000000000000000000000000000087020495505b6f808040155aabbbe9451521693554f7338610611d0a576e80000000000000000000000000000093909301926f808040155aabbbe9451521693554f7336f8000000000000000000000000000000087020495505b7fffffffffffffffffffffffffffffffff80000000000000000000000000000000860192508291506f8000000000000000000000000000000082800204905070010000000000000000000000000000000083810383020493909301926f800000000000000000000000000000008282020491507002000000000000000000000000000000006faaaaaaaaaaaaaaaaaaaaaaaaaaaaaaaa84900383020493909301926f800000000000000000000000000000008282020491507003000000000000000000000000000000006f9999999999999999999999999999999984900383020493909301926f800000000000000000000000000000008282020491507004000000000000000000000000000000006f9249249249249249249249249249249284900383020493909301926f800000000000000000000000000000008282020491507005000000000000000000000000000000006f8e38e38e38e38e38e38e38e38e38e38e84900383020493909301926f800000000000000000000000000000008282020491507006000000000000000000000000000000006f8ba2e8ba2e8ba2e8ba2e8ba2e8ba2e8b84900383020493909301926f800000000000000000000000000000008282020491507007000000000000000000000000000000006f89d89d89d89d89d89d89d89d89d89d8984900383020493909301926f800000000000000000000000000000008282020491507008000000000000000000000000000000006f888888888888888888888888888888888490038302049390930195945050505050565b60008080807001000000000000000000000000000000008510611fad57611f896f800000000000000000000000000000008604612a25565b60ff8116600281900a909604956f8000000000000000000000000000000002935091505b6f800000000000000000000000000000008511156120605750607f5b60008160ff161115612060576f800000000000000000000000000000008580020494507001000000000000000000000000000000008510612039576002948590049460ff7fffffffffffffffffffffffffffffffffffffffffffffffffffffffffffffffff830116900a92909201915b7fffffffffffffffffffffffffffffffffffffffffffffffffffffffffffffffff01611fc9565b6f05b9de1d10bf4103d647b0955897ba806f03f80fe03f80fe03f80fe03f80fe03f884020493505b505050919050565b6000670168244fdac780006f800000000000000000000000000000006f0fffffffffffffffffffffffffffffff84168080028290048082028390048083028490049485026710e1b3be415a00009092026705a0913f6b1e000091909102010192909181830204905080664807432bc1800002830192506f8000000000000000000000000000000082820281151561212357fe5b04905080660c0135dca0400002830192506f8000000000000000000000000000000082820281151561215157fe5b049050806601b707b1cdc00002830192506f8000000000000000000000000000000082820281151561217f57fe5b049050806536e0f639b80002830192506f800000000000000000000000000000008282028115156121ac57fe5b04905080650618fee9f80002830192506f800000000000000000000000000000008282028115156121d957fe5b04905080649c197dcc0002830192506f8000000000000000000000000000000082820281151561220557fe5b04905080640e30dce40002830192506f8000000000000000000000000000000082820281151561223157fe5b0490508064012ebd130002830192506f8000000000000000000000000000000082820281151561225d57fe5b049050806317499f0002830192506f8000000000000000000000000000000082820281151561228857fe5b049050806301a9d48002830192506f800000000000000000000000000000008282028115156122b357fe5b04905080621c638002830192506f800000000000000000000000000000008282028115156122dd57fe5b049050806201c63802830192506f8000000000000000000000000000000082820281151561230757fe5b04905080611ab802830192506f8000000000000000000000000000000082820281151561233057fe5b0490508061017c02830192506f8000000000000000000000000000000082820281151561235957fe5b04905080601402830192506f8000000000000000000000000000000082820281151561238157fe5b6721c3677c82b400009190049384010482016f80000000000000000000000000000000019290506f100000000000000000000000000000008516156123ea5770018ebef9eac820ae8682b9793ac6d1e7767001c3d6a24ed82218787d624d3e5eba95f984020492505b6f2000000000000000000000000000000085161561242c577001368b2fc6f9609fe7aceb46aa619baed470018ebef9eac820ae8682b9793ac6d1e77884020492505b6f4000000000000000000000000000000085161561246d576fbc5ab1b16779be3575bd8f0520a9f21f7001368b2fc6f9609fe7aceb46aa619baed584020492505b6f800000000000000000000000000000008516156124ad576f454aaa8efe072e7f6ddbab84b40a55c96fbc5ab1b16779be3575bd8f0520a9f21e84020492505b7001000000000000000000000000000000008516156124ee576f0960aadc109e7a3bf4578099615711ea6f454aaa8efe072e7f6ddbab84b40a55c584020492505b70020000000000000000000000000000000085161561252e576e2bf84208204f5977f9a8cf01fdce3d6f0960aadc109e7a3bf4578099615711d784020492505b70040000000000000000000000000000000085161561256c576d03c6ab775dd0b95b4cbee7e65d116e2bf84208204f5977f9a8cf01fdc30784020492505b50909392505050565b60006020607f825b8160ff168360010160ff1610156125c257600260ff8484011604905084600160ff8316608081106125aa57fe5b0154106125b9578092506125bd565b8091505b61257d565b84600160ff8416608081106125d357fe5b0154106125e257819350612088565b84600160ff8516608081106125f357fe5b0154106111e757829350612088565b6000806000849150600090508360ff168583029060020a90049150816f03442c4e6074a82f1797f72ac000000002810190508360ff168583029060020a90049150816f0116b96f757c380fb287fd0e4000000002810190508360ff168583029060020a90049150816e45ae5bdd5f0e03eca1ff439000000002810190508360ff168583029060020a90049150816e0defabf91302cd95b9ffda5000000002810190508360ff168583029060020a90049150816e02529ca9832b22439efff9b800000002810190508360ff168583029060020a90049150816d54f1cf12bd04e516b6da8800000002810190508360ff168583029060020a90049150816d0a9e39e257a09ca2d6db5100000002810190508360ff168583029060020a90049150816d012e066e7b839fa050c30900000002810190508360ff168583029060020a90049150816c1e33d7d926c329a1ad1a80000002810190508360ff168583029060020a90049150816c02bee513bdb4a6b19b5f80000002810190508360ff168583029060020a90049150816b3a9316fa79b88eccf2a0000002810190508360ff168583029060020a90049150816b048177ebe1fa81237520000002810190508360ff168583029060020a90049150816a5263fe90242dcbacf0000002810190508360ff168583029060020a90049150816a057e22099c030d9410000002810190508360ff168583029060020a90049150816957e22099c030d941000002810190508360ff168583029060020a900491508169052b6b5456997631000002810190508360ff168583029060020a9004915081684985f67696bf74800002810190508360ff168583029060020a90049150816803dea12ea99e49800002810190508360ff168583029060020a90049150816731880f2214b6e00002810190508360ff168583029060020a900491508167025bcff56eb3600002810190508360ff168583029060020a9004915081661b722e10ab100002810190508360ff168583029060020a90049150816601317c7007700002810190508360ff168583029060020a9004915081650cba84aafa0002810190508360ff168583029060020a90049150816482573a0a0002810190508360ff168583029060020a90049150816405035ad90002810190508360ff168583029060020a9004915081632f881b0002810190508360ff168583029060020a90049150816301b2934002810190508360ff168583029060020a9004915081620efc4002810190508360ff168583029060020a9004915081617fe002810190508360ff168583029060020a900491508161042002810190508360ff168583029060020a9004915081602102810190508360ff168583029060020a9004915081600102810190508360ff1660019060020a02856f0688589cc0e9505e2f2fee558000000083811515612a1957fe5b04010195945050505050565b60008080610100841015612a54575b6001841115612a4f5760029093049260019190910190612a34565b612a8e565b5060805b60008160ff161115612a8e5760ff811660020a8410612a815760ff811660020a90930492908117905b600260ff90911604612a58565b50929150505600a165627a7a72305820a43393048a24067df0e4313dd1d64ae647a79aa1ec5ff70c6fc5bfc2e5924c220029",
  "source": "pragma solidity ^0.4.18;\n\n/**\n* The ClubTokenController is a replaceable endpoint for minting and unminting ClubToken.sol\n*/\n\n\nimport './IClubToken.sol';\nimport './IClubTokenController.sol';\nimport \"bancor-contracts/solidity/contracts/converter/BancorFormula.sol\";\nimport \"zeppelin-solidity/contracts/ownership/HasNoTokens.sol\";\n\ncontract ClubTokenController is IClubTokenController, BancorFormula, HasNoTokens {\n    event Buy(address buyer, uint256 tokens, uint256 value, uint256 poolBalance, uint256 tokenSupply);\n    event Sell(address seller, uint256 tokens, uint256 value, uint256 poolBalance, uint256 tokenSupply);\n\n    bool public paused;\n    address public clubToken;\n    address public simpleCloversMarket;\n    address public curationMarket;\n\n    /* uint256 public poolBalance; */\n    uint256 public virtualSupply;\n    uint256 public virtualBalance;\n    uint32 public reserveRatio; // represented in ppm, 1-1000000\n\n    constructor(address _clubToken) public {\n        clubToken = _clubToken;\n        paused = true;\n    }\n\n    function () public payable {\n        buy(msg.sender);\n    }\n\n    modifier notPaused() {\n        require(!paused || msg.sender != owner, \"Contract must not be paused\");\n        _;\n    }\n\n    function poolBalance() public constant returns(uint256) {\n        return clubToken.balance;\n    }\n\n    /**\n    * @dev gets the amount of tokens returned from spending Eth\n    * @param buyValue The amount of Eth to be spent\n    * @return A uint256 representing the amount of tokens gained in exchange for the Eth.\n    */\n    function getBuy(uint256 buyValue) public constant returns(uint256) {\n        return calculatePurchaseReturn(\n            safeAdd(IClubToken(clubToken).totalSupply(), virtualSupply),\n            safeAdd(poolBalance(), virtualBalance),\n            reserveRatio,\n            buyValue);\n    }\n\n\n    /**\n    * @dev gets the amount of Eth returned from selling tokens\n    * @param sellAmount The amount of tokens to be sold\n    * @return A uint256 representing the amount of Eth gained in exchange for the tokens.\n    */\n\n    function getSell(uint256 sellAmount) public constant returns(uint256) {\n        return calculateSaleReturn(\n            safeAdd(IClubToken(clubToken).totalSupply(), virtualSupply),\n            safeAdd(poolBalance(), virtualBalance),\n            reserveRatio,\n            sellAmount);\n    }\n\n    function updatePaused(bool _paused) public onlyOwner {\n        paused = _paused;\n    }\n\n    /**\n    * @dev updates the Reserve Ratio variable\n    * @param _reserveRatio The reserve ratio that determines the curve\n    * @return A boolean representing whether or not the update was successful.\n    */\n    function updateReserveRatio(uint32 _reserveRatio) public onlyOwner returns(bool){\n        reserveRatio = _reserveRatio;\n        return true;\n    }\n\n    /**\n    * @dev updates the Virtual Supply variable\n    * @param _virtualSupply The virtual supply of tokens used for calculating buys and sells\n    * @return A boolean representing whether or not the update was successful.\n    */\n    function updateVirtualSupply(uint256 _virtualSupply) public onlyOwner returns(bool){\n        virtualSupply = _virtualSupply;\n        return true;\n    }\n\n    /**\n    * @dev updates the Virtual Balance variable\n    * @param _virtualBalance The virtual balance of the contract used for calculating buys and sells\n    * @return A boolean representing whether or not the update was successful.\n    */\n    function updateVirtualBalance(uint256 _virtualBalance) public onlyOwner returns(bool){\n        virtualBalance = _virtualBalance;\n        return true;\n    }\n    /**\n    * @dev updates the poolBalance\n    * @param _poolBalance The eth balance of ClubToken.sol\n    * @return A boolean representing whether or not the update was successful.\n    */\n    /* function updatePoolBalance(uint256 _poolBalance) public onlyOwner returns(bool){\n        poolBalance = _poolBalance;\n        return true;\n    } */\n\n    /**\n    * @dev updates the SimpleCloversMarket address\n    * @param _simpleCloversMarket The address of the simpleCloversMarket\n    * @return A boolean representing whether or not the update was successful.\n    */\n    function updateSimpleCloversMarket(address _simpleCloversMarket) public onlyOwner returns(bool){\n        simpleCloversMarket = _simpleCloversMarket;\n        return true;\n    }\n\n    /**\n    * @dev updates the CurationMarket address\n    * @param _curationMarket The address of the curationMarket\n    * @return A boolean representing whether or not the update was successful.\n    */\n    function updateCurationMarket(address _curationMarket) public onlyOwner returns(bool){\n        curationMarket = _curationMarket;\n        return true;\n    }\n\n    /**\n    * @dev donate Donate Eth to the poolBalance without increasing the totalSupply\n    */\n    function donate() public payable {\n        require(msg.value > 0);\n        /* poolBalance = safeAdd(poolBalance, msg.value); */\n        clubToken.transfer(msg.value);\n    }\n\n    function burn(address from, uint256 amount) public {\n        require(msg.sender == simpleCloversMarket);\n        IClubToken(clubToken).burn(from, amount);\n    }\n\n    function transferFrom(address from, address to, uint256 amount) public {\n        require(msg.sender == simpleCloversMarket || msg.sender == curationMarket);\n        IClubToken(clubToken).transferFrom(from, to, amount);\n    }\n\n    /**\n    * @dev buy Buy ClubTokens with Eth\n    * @param buyer The address that should receive the new tokens\n    */\n    function buy(address buyer) public payable notPaused returns(bool) {\n        require(msg.value > 0);\n        uint256 tokens = getBuy(msg.value);\n        require(tokens > 0);\n        require(IClubToken(clubToken).mint(buyer, tokens));\n        /* poolBalance = safeAdd(poolBalance, msg.value); */\n        clubToken.transfer(msg.value);\n        emit Buy(buyer, tokens, msg.value, poolBalance(), IClubToken(clubToken).totalSupply());\n    }\n\n\n    /**\n    * @dev sell Sell ClubTokens for Eth\n    * @param sellAmount The amount of tokens to sell\n    */\n    function sell(uint256 sellAmount) public notPaused returns(bool) {\n        require(sellAmount > 0);\n        require(IClubToken(clubToken).balanceOf(msg.sender) >= sellAmount);\n        uint256 saleReturn = getSell(sellAmount);\n        require(saleReturn > 0);\n        require(saleReturn <= poolBalance());\n        require(saleReturn <= clubToken.balance);\n        IClubToken(clubToken).burn(msg.sender, sellAmount);\n        /* poolBalance = safeSub(poolBalance, saleReturn); */\n        IClubToken(clubToken).moveEth(msg.sender, saleReturn);\n        emit Sell(msg.sender, sellAmount, saleReturn, poolBalance(), IClubToken(clubToken).totalSupply());\n    }\n\n\n }\n",
  "sourcePath": "/home/billyrennekamp/GitHub.com/clovers-network/clovers-contracts/contracts/ClubTokenController.sol",
  "compiler": {
    "name": "solc",
    "version": "0.4.24+commit.e67f0147.Emscripten.clang"
  },
  "schemaVersion": "2.0.1",
  "updatedAt": "2019-08-10T10:58:15.835Z"
}