{
  "contractName": "ClubTokenController",
  "abi": [
    {
      "constant": true,
      "inputs": [],
      "name": "reserveRatio",
      "outputs": [
        {
          "name": "",
          "type": "uint32"
        }
      ],
      "payable": false,
      "stateMutability": "view",
      "type": "function"
    },
    {
      "constant": true,
      "inputs": [],
      "name": "virtualSupply",
      "outputs": [
        {
          "name": "",
          "type": "uint256"
        }
      ],
      "payable": false,
      "stateMutability": "view",
      "type": "function"
    },
    {
      "constant": true,
      "inputs": [
        {
          "name": "_supply",
          "type": "uint256"
        },
        {
          "name": "_connectorBalance",
          "type": "uint256"
        },
        {
          "name": "_connectorWeight",
          "type": "uint32"
        },
        {
          "name": "_depositAmount",
          "type": "uint256"
        }
      ],
      "name": "calculatePurchaseReturn",
      "outputs": [
        {
          "name": "",
          "type": "uint256"
        }
      ],
      "payable": false,
      "stateMutability": "view",
      "type": "function"
    },
    {
      "constant": true,
      "inputs": [
        {
          "name": "_supply",
          "type": "uint256"
        },
        {
          "name": "_connectorBalance",
          "type": "uint256"
        },
        {
          "name": "_connectorWeight",
          "type": "uint32"
        },
        {
          "name": "_sellAmount",
          "type": "uint256"
        }
      ],
      "name": "calculateSaleReturn",
      "outputs": [
        {
          "name": "",
          "type": "uint256"
        }
      ],
      "payable": false,
      "stateMutability": "view",
      "type": "function"
    },
    {
      "constant": true,
      "inputs": [],
      "name": "version",
      "outputs": [
        {
          "name": "",
          "type": "string"
        }
      ],
      "payable": false,
      "stateMutability": "view",
      "type": "function"
    },
    {
      "constant": true,
      "inputs": [
        {
          "name": "_fromConnectorBalance",
          "type": "uint256"
        },
        {
          "name": "_fromConnectorWeight",
          "type": "uint32"
        },
        {
          "name": "_toConnectorBalance",
          "type": "uint256"
        },
        {
          "name": "_toConnectorWeight",
          "type": "uint32"
        },
        {
          "name": "_amount",
          "type": "uint256"
        }
      ],
      "name": "calculateCrossConnectorReturn",
      "outputs": [
        {
          "name": "",
          "type": "uint256"
        }
      ],
      "payable": false,
      "stateMutability": "view",
      "type": "function"
    },
    {
      "constant": false,
      "inputs": [],
      "name": "renounceOwnership",
      "outputs": [],
      "payable": false,
      "stateMutability": "nonpayable",
      "type": "function"
    },
    {
      "constant": true,
      "inputs": [],
      "name": "owner",
      "outputs": [
        {
          "name": "",
          "type": "address"
        }
      ],
      "payable": false,
      "stateMutability": "view",
      "type": "function"
    },
    {
      "constant": true,
      "inputs": [],
      "name": "poolBalance",
      "outputs": [
        {
          "name": "",
          "type": "uint256"
        }
      ],
      "payable": false,
      "stateMutability": "view",
      "type": "function"
    },
    {
      "constant": true,
      "inputs": [],
      "name": "virtualBalance",
      "outputs": [
        {
          "name": "",
          "type": "uint256"
        }
      ],
      "payable": false,
      "stateMutability": "view",
      "type": "function"
    },
    {
      "constant": false,
      "inputs": [
        {
          "name": "_newOwner",
          "type": "address"
        }
      ],
      "name": "transferOwnership",
      "outputs": [],
      "payable": false,
      "stateMutability": "nonpayable",
      "type": "function"
    },
    {
      "inputs": [
        {
          "name": "_clubToken",
          "type": "address"
        }
      ],
      "payable": false,
      "stateMutability": "nonpayable",
      "type": "constructor"
    },
    {
      "payable": true,
      "stateMutability": "payable",
      "type": "fallback"
    },
    {
      "anonymous": false,
      "inputs": [
        {
          "indexed": true,
          "name": "previousOwner",
          "type": "address"
        }
      ],
      "name": "OwnershipRenounced",
      "type": "event"
    },
    {
      "anonymous": false,
      "inputs": [
        {
          "indexed": true,
          "name": "previousOwner",
          "type": "address"
        },
        {
          "indexed": true,
          "name": "newOwner",
          "type": "address"
        }
      ],
      "name": "OwnershipTransferred",
      "type": "event"
    },
    {
      "constant": true,
      "inputs": [
        {
          "name": "buyValue",
          "type": "uint256"
        }
      ],
      "name": "getBuy",
      "outputs": [
        {
          "name": "",
          "type": "uint256"
        }
      ],
      "payable": false,
      "stateMutability": "view",
      "type": "function"
    },
    {
      "constant": true,
      "inputs": [
        {
          "name": "sellAmount",
          "type": "uint256"
        }
      ],
      "name": "getSell",
      "outputs": [
        {
          "name": "",
          "type": "uint256"
        }
      ],
      "payable": false,
      "stateMutability": "view",
      "type": "function"
    },
    {
      "constant": false,
      "inputs": [
        {
          "name": "_reserveRatio",
          "type": "uint32"
        }
      ],
      "name": "updateReserveRatio",
      "outputs": [
        {
          "name": "",
          "type": "bool"
        }
      ],
      "payable": false,
      "stateMutability": "nonpayable",
      "type": "function"
    },
    {
      "constant": false,
      "inputs": [
        {
          "name": "_virtualSupply",
          "type": "uint256"
        }
      ],
      "name": "updateVirtualSupply",
      "outputs": [
        {
          "name": "",
          "type": "bool"
        }
      ],
      "payable": false,
      "stateMutability": "nonpayable",
      "type": "function"
    },
    {
      "constant": false,
      "inputs": [
        {
          "name": "_virtualBalance",
          "type": "uint256"
        }
      ],
      "name": "updateVirtualBalance",
      "outputs": [
        {
          "name": "",
          "type": "bool"
        }
      ],
      "payable": false,
      "stateMutability": "nonpayable",
      "type": "function"
    },
    {
      "constant": false,
      "inputs": [],
      "name": "donate",
      "outputs": [],
      "payable": true,
      "stateMutability": "payable",
      "type": "function"
    },
    {
      "constant": false,
      "inputs": [
        {
          "name": "buyer",
          "type": "address"
        }
      ],
      "name": "buy",
      "outputs": [
        {
          "name": "",
          "type": "bool"
        }
      ],
      "payable": true,
      "stateMutability": "payable",
      "type": "function"
    },
    {
      "constant": false,
      "inputs": [
        {
          "name": "sellAmount",
          "type": "uint256"
        }
      ],
      "name": "sell",
      "outputs": [
        {
          "name": "",
          "type": "bool"
        }
      ],
      "payable": false,
      "stateMutability": "nonpayable",
      "type": "function"
    }
  ],
  "bytecode": "0x60806040526040805190810160405280600381526020017f302e330000000000000000000000000000000000000000000000000000000000815250600090805190602001906200005192919062000ffc565b503480156200005f57600080fd5b5060405160208062003a0683398101806040528101908080519060200190929190505050701c35fedd14ffffffffffffffffffffffff60016020608081101515620000a657fe5b0181905550701b0ce43b323fffffffffffffffffffffff60016021608081101515620000ce57fe5b01819055507019f0028ec1ffffffffffffffffffffffff60016022608081101515620000f657fe5b01819055507018ded91f0e7fffffffffffffffffffffff600160236080811015156200011e57fe5b01819055507017d8ec7f0417ffffffffffffffffffffff600160246080811015156200014657fe5b01819055507016ddc6556cdbffffffffffffffffffffff600160256080811015156200016e57fe5b01819055507015ecf52776a1ffffffffffffffffffffff600160266080811015156200019657fe5b01819055507015060c256cb2ffffffffffffffffffffff60016027608081101515620001be57fe5b0181905550701428a2f98d72ffffffffffffffffffffff60016028608081101515620001e657fe5b01819055507013545598e5c23fffffffffffffffffffff600160296080811015156200020e57fe5b0181905550701288c4161ce1dfffffffffffffffffffff6001602a6080811015156200023657fe5b01819055507011c592761c666fffffffffffffffffffff6001602b6080811015156200025e57fe5b018190555070110a688680a757ffffffffffffffffffff6001602c6080811015156200028657fe5b0181905550701056f1b5bedf77ffffffffffffffffffff6001602d608081101515620002ae57fe5b0181905550700faadceceeff8bffffffffffffffffffff6001602e608081101515620002d657fe5b0181905550700f05dc6b27edadffffffffffffffffffff6001602f608081101515620002fe57fe5b0181905550700e67a5a25da4107fffffffffffffffffff600160306080811015156200032657fe5b0181905550700dcff115b14eedffffffffffffffffffff600160316080811015156200034e57fe5b0181905550700d3e7a392431239fffffffffffffffffff600160326080811015156200037657fe5b0181905550700cb2ff529eb71e4fffffffffffffffffff600160336080811015156200039e57fe5b0181905550700c2d415c3db974afffffffffffffffffff60016034608081101515620003c657fe5b0181905550700bad03e7d883f69bffffffffffffffffff60016035608081101515620003ee57fe5b0181905550700b320d03b2c343d5ffffffffffffffffff600160366080811015156200041657fe5b0181905550700abc25204e02828dffffffffffffffffff600160376080811015156200043e57fe5b0181905550700a4b16f74ee4bb207fffffffffffffffff600160386080811015156200046657fe5b01819055507009deaf736ac1f569ffffffffffffffffff600160396080811015156200048e57fe5b0181905550700976bd9952c7aa957fffffffffffffffff6001603a608081101515620004b657fe5b01819055507009131271922eaa606fffffffffffffffff6001603b608081101515620004de57fe5b01819055507008b380f3558668c46fffffffffffffffff6001603c6080811015156200050657fe5b0181905550700857ddf0117efa215bffffffffffffffff6001603d6080811015156200052e57fe5b01819055507007ffffffffffffffffffffffffffffffff6001603e6080811015156200055657fe5b01819055507007abbf6f6abb9d087fffffffffffffffff6001603f6080811015156200057e57fe5b018190555070075af62cbac95f7dfa7fffffffffffffff60016040608081101515620005a657fe5b018190555070070d7fb7452e187ac13fffffffffffffff60016041608081101515620005ce57fe5b01819055507006c3390ecc8af379295fffffffffffffff60016042608081101515620005f657fe5b018190555070067c00a3b07ffc01fd6fffffffffffffff600160436080811015156200061e57fe5b0181905550700637b647c39cbb9d3d27ffffffffffffff600160446080811015156200064657fe5b01819055507005f63b1fc104dbd39587ffffffffffffff600160456080811015156200066e57fe5b01819055507005b771955b36e12f7235ffffffffffffff600160466080811015156200069657fe5b018190555070057b3d49dda84556d6f6ffffffffffffff60016047608081101515620006be57fe5b018190555070054183095b2c8ececf30ffffffffffffff60016048608081101515620006e657fe5b018190555070050a28be635ca2b888f77fffffffffffff600160496080811015156200070e57fe5b01819055507004d5156639708c9db33c3fffffffffffff6001604a6080811015156200073657fe5b01819055507004a23105873875bd52dfdfffffffffffff6001604b6080811015156200075e57fe5b0181905550700471649d87199aa990756fffffffffffff6001604c6080811015156200078657fe5b01819055507004429a21a029d4c1457cfbffffffffffff6001604d608081101515620007ae57fe5b0181905550700415bc6d6fb7dd71af2cb3ffffffffffff6001604e608081101515620007d657fe5b01819055507003eab73b3bbfe282243ce1ffffffffffff6001604f608081101515620007fe57fe5b01819055507003c1771ac9fb6b4c18e229ffffffffffff600160506080811015156200082657fe5b0181905550700399e96897690418f785257fffffffffff600160516080811015156200084e57fe5b0181905550700373fc456c53bb779bf0ea9fffffffffff600160526080811015156200087657fe5b018190555070034f9e8e490c48e67e6ab8bfffffffffff600160536080811015156200089e57fe5b018190555070032cbfd4a7adc790560b3337ffffffffff60016054608081101515620008c657fe5b018190555070030b50570f6e5d2acca94613ffffffffff60016055608081101515620008ee57fe5b01819055507002eb40f9f620fda6b56c2861ffffffffff600160566080811015156200091657fe5b01819055507002cc8340ecb0d0f520a6af58ffffffffff600160576080811015156200093e57fe5b01819055507002af09481380a0a35cf1ba02ffffffffff600160586080811015156200096657fe5b0181905550700292c5bdd3b92ec810287b1b3fffffffff600160596080811015156200098e57fe5b0181905550700277abdcdab07d5a77ac6d6b9fffffffff6001605a608081101515620009b657fe5b018190555070025daf6654b1eaa55fd64df5efffffffff6001605b608081101515620009de57fe5b0181905550700244c49c648baa98192dce88b7ffffffff6001605c60808110151562000a0657fe5b018190555070022ce03cd5619a311b2471268bffffffff6001605d60808110151562000a2e57fe5b0181905550700215f77c045fbe885654a44a0fffffffff6001605e60808110151562000a5657fe5b01819055507001ffffffffffffffffffffffffffffffff6001605f60808110151562000a7e57fe5b01819055507001eaefdbdaaee7421fc4d3ede5ffffffff6001606060808110151562000aa657fe5b01819055507001d6bd8b2eb257df7e8ca57b09bfffffff6001606160808110151562000ace57fe5b01819055507001c35fedd14b861eb0443f7f133fffffff6001606260808110151562000af657fe5b01819055507001b0ce43b322bcde4a56e8ada5afffffff6001606360808110151562000b1e57fe5b018190555070019f0028ec1fff007f5a195a39dfffffff6001606460808110151562000b4657fe5b018190555070018ded91f0e72ee74f49b15ba527ffffff6001606560808110151562000b6e57fe5b018190555070017d8ec7f04136f4e5615fd41a63ffffff6001606660808110151562000b9657fe5b018190555070016ddc6556cdb84bdc8d12d22e6fffffff6001606760808110151562000bbe57fe5b018190555070015ecf52776a1155b5bd8395814f7fffff6001606860808110151562000be657fe5b018190555070015060c256cb23b3b3cc3754cf40ffffff6001606960808110151562000c0e57fe5b01819055507001428a2f98d728ae223ddab715be3fffff6001606a60808110151562000c3657fe5b018190555070013545598e5c23276ccf0ede68034fffff6001606b60808110151562000c5e57fe5b01819055507001288c4161ce1d6f54b7f61081194fffff6001606c60808110151562000c8657fe5b018190555070011c592761c666aa641d5a01a40f17ffff6001606d60808110151562000cae57fe5b0181905550700110a688680a7530515f3e6e6cfdcdffff6001606e60808110151562000cd657fe5b01819055507001056f1b5bedf75c6bcb2ce8aed428ffff6001606f60808110151562000cfe57fe5b01819055506ffaadceceeff8a0890f3875f008277fff6001607060808110151562000d2557fe5b01819055506ff05dc6b27edad306388a600f6ba0bfff6001607160808110151562000d4c57fe5b01819055506fe67a5a25da41063de1495d5b18cdbfff6001607260808110151562000d7357fe5b01819055506fdcff115b14eedde6fc3aa5353f2e4fff6001607360808110151562000d9a57fe5b01819055506fd3e7a3924312399f9aae2e0f868f8fff6001607460808110151562000dc157fe5b01819055506fcb2ff529eb71e41582cccd5a1ee26fff6001607560808110151562000de857fe5b01819055506fc2d415c3db974ab32a51840c0b67edff6001607660808110151562000e0f57fe5b01819055506fbad03e7d883f69ad5b0a186184e06bff6001607760808110151562000e3657fe5b01819055506fb320d03b2c343d4829abd6075f0cc5ff6001607860808110151562000e5d57fe5b01819055506fabc25204e02828d73c6e80bcdb1a95bf6001607960808110151562000e8457fe5b01819055506fa4b16f74ee4bb2040a1ec6c15fbbf2df6001607a60808110151562000eab57fe5b01819055506f9deaf736ac1f569deb1b5ae3f36c130f6001607b60808110151562000ed257fe5b01819055506f976bd9952c7aa957f5937d790ef650376001607c60808110151562000ef957fe5b01819055506f9131271922eaa6064b73a22d0bd4f2bf6001607d60808110151562000f2057fe5b01819055506f8b380f3558668c46c91c49a2f8e967b96001607e60808110151562000f4757fe5b01819055506f857ddf0117efa215952912839f6473e66001607f60808110151562000f6e57fe5b018190555033608160006101000a81548173ffffffffffffffffffffffffffffffffffffffff021916908373ffffffffffffffffffffffffffffffffffffffff16021790555080608260006101000a81548173ffffffffffffffffffffffffffffffffffffffff021916908373ffffffffffffffffffffffffffffffffffffffff16021790555050620010ab565b828054600181600116156101000203166002900490600052602060002090601f016020900481019282601f106200103f57805160ff191683800117855562001070565b8280016001018555821562001070579182015b828111156200106f57825182559160200191906001019062001052565b5b5090506200107f919062001083565b5090565b620010a891905b80821115620010a45760008160009055506001016200108a565b5090565b90565b61294b80620010bb6000396000f300608060405260043610610107576000357c0100000000000000000000000000000000000000000000000000000000900463ffffffff1680630c7d5cd81461011357806314cdfccf1461014a578063277b2f971461018f57806329a00e7c146101ba57806349f9b0f71461021f57806354fd4d501461028457806365098bb314610314578063715018a614610389578063783f0e40146103a05780638da5cb5b146103eb57806396365d4414610442578063b77d0df81461046d578063dcd2af17146104b2578063dde4a70b146104dd578063e4849b321461051e578063ed88c68e14610563578063f088d5471461056d578063f2fde38b146105bb578063f32a547c146105fe575b6101103361063f565b50005b34801561011f57600080fd5b506101286107f7565b604051808263ffffffff1663ffffffff16815260200191505060405180910390f35b34801561015657600080fd5b506101756004803603810190808035906020019092919050505061080d565b604051808215151515815260200191505060405180910390f35b34801561019b57600080fd5b506101a461087b565b6040518082815260200191505060405180910390f35b3480156101c657600080fd5b506102096004803603810190808035906020019092919080359060200190929190803563ffffffff16906020019092919080359060200190929190505050610881565b6040518082815260200191505060405180910390f35b34801561022b57600080fd5b5061026e6004803603810190808035906020019092919080359060200190929190803563ffffffff16906020019092919080359060200190929190505050610960565b6040518082815260200191505060405180910390f35b34801561029057600080fd5b50610299610a64565b6040518080602001828103825283818151815260200191508051906020019080838360005b838110156102d95780820151818401526020810190506102be565b50505050905090810190601f1680156103065780820380516001836020036101000a031916815260200191505b509250505060405180910390f35b34801561032057600080fd5b5061037360048036038101908080359060200190929190803563ffffffff16906020019092919080359060200190929190803563ffffffff16906020019092919080359060200190929190505050610b02565b6040518082815260200191505060405180910390f35b34801561039557600080fd5b5061039e610c10565b005b3480156103ac57600080fd5b506103d1600480360381019080803563ffffffff169060200190929190505050610d15565b604051808215151515815260200191505060405180910390f35b3480156103f757600080fd5b50610400610d9d565b604051808273ffffffffffffffffffffffffffffffffffffffff1673ffffffffffffffffffffffffffffffffffffffff16815260200191505060405180910390f35b34801561044e57600080fd5b50610457610dc3565b6040518082815260200191505060405180910390f35b34801561047957600080fd5b5061049860048036038101908080359060200190929190505050610dc9565b604051808215151515815260200191505060405180910390f35b3480156104be57600080fd5b506104c7610e37565b6040518082815260200191505060405180910390f35b3480156104e957600080fd5b5061050860048036038101908080359060200190929190505050610e3d565b6040518082815260200191505060405180910390f35b34801561052a57600080fd5b5061054960048036038101908080359060200190929190505050610f3c565b604051808215151515815260200191505060405180910390f35b61056b611299565b005b6105a1600480360381019080803573ffffffffffffffffffffffffffffffffffffffff16906020019092919050505061063f565b604051808215151515815260200191505060405180910390f35b3480156105c757600080fd5b506105fc600480360381019080803573ffffffffffffffffffffffffffffffffffffffff169060200190929190505050611325565b005b34801561060a57600080fd5b506106296004803603810190808035906020019092919050505061138d565b6040518082815260200191505060405180910390f35b60008060003411151561065157600080fd5b61065a3461138d565b905060008111151561066b57600080fd5b608260009054906101000a900473ffffffffffffffffffffffffffffffffffffffff1673ffffffffffffffffffffffffffffffffffffffff166340c10f1984836040518363ffffffff167c0100000000000000000000000000000000000000000000000000000000028152600401808373ffffffffffffffffffffffffffffffffffffffff1673ffffffffffffffffffffffffffffffffffffffff16815260200182815260200192505050602060405180830381600087803b15801561073057600080fd5b505af1158015610744573d6000803e3d6000fd5b505050506040513d602081101561075a57600080fd5b8101908080519060200190929190505050151561077657600080fd5b6107826083543461148c565b608381905550608260009054906101000a900473ffffffffffffffffffffffffffffffffffffffff1673ffffffffffffffffffffffffffffffffffffffff166108fc349081150290604051600060405180830381858888f193505050501580156107f0573d6000803e3d6000fd5b5050919050565b608660009054906101000a900463ffffffff1681565b6000608160009054906101000a900473ffffffffffffffffffffffffffffffffffffffff1673ffffffffffffffffffffffffffffffffffffffff163373ffffffffffffffffffffffffffffffffffffffff1614151561086b57600080fd5b8160848190555060019050919050565b60845481565b600080600080600080891180156108985750600088115b80156108aa575060008763ffffffff16115b80156108c55750620f424063ffffffff168763ffffffff1611155b15156108d057600080fd5b60008614156108e25760009450610954565b620f424063ffffffff168763ffffffff16141561091557876109048a886114aa565b81151561090d57fe5b049450610954565b61091f868961148c565b9150610930828989620f42406114dd565b80945081955050508260ff166109468a866114aa565b9060020a9004905088810394505b50505050949350505050565b60008060008060008060008a1180156109795750600089115b801561098b575060008863ffffffff16115b80156109a65750620f424063ffffffff168863ffffffff1611155b80156109b25750898711155b15156109bd57600080fd5b60008714156109cf5760009550610a57565b898714156109df57889550610a57565b620f424063ffffffff168863ffffffff161415610a125789610a018a896114aa565b811515610a0a57fe5b049550610a57565b868a039250610a268a84620f42408b6114dd565b8095508196505050610a3889866114aa565b91508360ff16899060020a02905084818303811515610a5357fe5b0495505b5050505050949350505050565b60008054600181600116156101000203166002900480601f016020809104026020016040519081016040528092919081815260200182805460018160011615610100020316600290048015610afa5780601f10610acf57610100808354040283529160200191610afa565b820191906000526020600020905b815481529060010190602001808311610add57829003601f168201915b505050505081565b60008060008060008060008b118015610b21575060008a63ffffffff16115b8015610b3c5750620f424063ffffffff168a63ffffffff1611155b8015610b485750600089115b8015610b5a575060008863ffffffff16115b8015610b755750620f424063ffffffff168863ffffffff1611155b1515610b8057600080fd5b8763ffffffff168a63ffffffff161415610bb957610b9e8b8861148c565b610ba88a896114aa565b811515610bb157fe5b049550610c02565b610bc38b8861148c565b9250610bd1838c8c8b6114dd565b8095508196505050610be389866114aa565b91508360ff16899060020a02905084818303811515610bfe57fe5b0495505b505050505095945050505050565b608160009054906101000a900473ffffffffffffffffffffffffffffffffffffffff1673ffffffffffffffffffffffffffffffffffffffff163373ffffffffffffffffffffffffffffffffffffffff16141515610c6c57600080fd5b608160009054906101000a900473ffffffffffffffffffffffffffffffffffffffff1673ffffffffffffffffffffffffffffffffffffffff167ff8df31144d9c2f0f6b59d69b8b98abd5459d07f2742c4df920b25aae33c6482060405160405180910390a26000608160006101000a81548173ffffffffffffffffffffffffffffffffffffffff021916908373ffffffffffffffffffffffffffffffffffffffff160217905550565b6000608160009054906101000a900473ffffffffffffffffffffffffffffffffffffffff1673ffffffffffffffffffffffffffffffffffffffff163373ffffffffffffffffffffffffffffffffffffffff16141515610d7357600080fd5b81608660006101000a81548163ffffffff021916908363ffffffff16021790555060019050919050565b608160009054906101000a900473ffffffffffffffffffffffffffffffffffffffff1681565b60835481565b6000608160009054906101000a900473ffffffffffffffffffffffffffffffffffffffff1673ffffffffffffffffffffffffffffffffffffffff163373ffffffffffffffffffffffffffffffffffffffff16141515610e2757600080fd5b8160858190555060019050919050565b60855481565b6000610f35610f0e608260009054906101000a900473ffffffffffffffffffffffffffffffffffffffff1673ffffffffffffffffffffffffffffffffffffffff166318160ddd6040518163ffffffff167c0100000000000000000000000000000000000000000000000000000000028152600401602060405180830381600087803b158015610ecb57600080fd5b505af1158015610edf573d6000803e3d6000fd5b505050506040513d6020811015610ef557600080fd5b810190808051906020019092919050505060845461148c565b610f1c60835460855461148c565b608660009054906101000a900463ffffffff1685610960565b9050919050565b600080600083111515610f4e57600080fd5b82608260009054906101000a900473ffffffffffffffffffffffffffffffffffffffff1673ffffffffffffffffffffffffffffffffffffffff166370a08231336040518263ffffffff167c0100000000000000000000000000000000000000000000000000000000028152600401808273ffffffffffffffffffffffffffffffffffffffff1673ffffffffffffffffffffffffffffffffffffffff168152602001915050602060405180830381600087803b15801561100c57600080fd5b505af1158015611020573d6000803e3d6000fd5b505050506040513d602081101561103657600080fd5b81019080805190602001909291905050501015151561105457600080fd5b61105d83610e3d565b905060008111151561106e57600080fd5b608354811115151561107f57600080fd5b608260009054906101000a900473ffffffffffffffffffffffffffffffffffffffff1673ffffffffffffffffffffffffffffffffffffffff163181111515156110c757600080fd5b608260009054906101000a900473ffffffffffffffffffffffffffffffffffffffff1673ffffffffffffffffffffffffffffffffffffffff16639dc29fac33856040518363ffffffff167c0100000000000000000000000000000000000000000000000000000000028152600401808373ffffffffffffffffffffffffffffffffffffffff1673ffffffffffffffffffffffffffffffffffffffff16815260200182815260200192505050600060405180830381600087803b15801561118c57600080fd5b505af11580156111a0573d6000803e3d6000fd5b505050506111b0608354826115d5565b608381905550608260009054906101000a900473ffffffffffffffffffffffffffffffffffffffff1673ffffffffffffffffffffffffffffffffffffffff16631cc1472d33836040518363ffffffff167c0100000000000000000000000000000000000000000000000000000000028152600401808373ffffffffffffffffffffffffffffffffffffffff1673ffffffffffffffffffffffffffffffffffffffff16815260200182815260200192505050600060405180830381600087803b15801561127b57600080fd5b505af115801561128f573d6000803e3d6000fd5b5050505050919050565b6000341115156112a857600080fd5b6112b46083543461148c565b608381905550608260009054906101000a900473ffffffffffffffffffffffffffffffffffffffff1673ffffffffffffffffffffffffffffffffffffffff166108fc349081150290604051600060405180830381858888f19350505050158015611322573d6000803e3d6000fd5b50565b608160009054906101000a900473ffffffffffffffffffffffffffffffffffffffff1673ffffffffffffffffffffffffffffffffffffffff163373ffffffffffffffffffffffffffffffffffffffff1614151561138157600080fd5b61138a816115ee565b50565b600061148561145e608260009054906101000a900473ffffffffffffffffffffffffffffffffffffffff1673ffffffffffffffffffffffffffffffffffffffff166318160ddd6040518163ffffffff167c0100000000000000000000000000000000000000000000000000000000028152600401602060405180830381600087803b15801561141b57600080fd5b505af115801561142f573d6000803e3d6000fd5b505050506040513d602081101561144557600080fd5b810190808051906020019092919050505060845461148c565b61146c60835460855461148c565b608660009054906101000a900463ffffffff1685610881565b9050919050565b60008082840190508381101515156114a057fe5b8091505092915050565b600080828402905060008414806114cb57508284828115156114c857fe5b04145b15156114d357fe5b8091505092915050565b6000806000806000807002000000000000000000000000000000008a10151561150257fe5b886f800000000000000000000000000000008b0281151561151f57fe5b04925070015bf0a8b1457695355fb8ac404e7a79e383101561154b57611544836116ea565b9350611557565b61155483611cb9565b93505b8663ffffffff168863ffffffff16850281151561157057fe5b0491507008000000000000000000000000000000008210156115a05761159582611def565b607f955095506115c8565b6115a9826123af565b90506115c281607f0360ff16839060020a90048261246f565b81955095505b5050505094509492505050565b60008183101515156115e357fe5b818303905092915050565b600073ffffffffffffffffffffffffffffffffffffffff168173ffffffffffffffffffffffffffffffffffffffff161415151561162a57600080fd5b8073ffffffffffffffffffffffffffffffffffffffff16608160009054906101000a900473ffffffffffffffffffffffffffffffffffffffff1673ffffffffffffffffffffffffffffffffffffffff167f8be0079c531659141344cd1fd0a4f28419497f9722a3daafe3b4186f6b6457e060405160405180910390a380608160006101000a81548173ffffffffffffffffffffffffffffffffffffffff021916908373ffffffffffffffffffffffffffffffffffffffff16021790555050565b60008060008060008093506fd3094c70f034de4b96ff7d5b6f99fcd886101515611754576f40000000000000000000000000000000840193506fd3094c70f034de4b96ff7d5b6f99fcd86f80000000000000000000000000000000870281151561175057fe5b0495505b6fa45af1e1f40c333b3de1db4dd55f29a7861015156117b3576f20000000000000000000000000000000840193506fa45af1e1f40c333b3de1db4dd55f29a76f8000000000000000000000000000000087028115156117af57fe5b0495505b6f910b022db7ae67ce76b441c27035c6a186101515611812576f10000000000000000000000000000000840193506f910b022db7ae67ce76b441c27035c6a16f80000000000000000000000000000000870281151561180e57fe5b0495505b6f88415abbe9a76bead8d00cf112e4d4a886101515611871576f08000000000000000000000000000000840193506f88415abbe9a76bead8d00cf112e4d4a86f80000000000000000000000000000000870281151561186d57fe5b0495505b6f84102b00893f64c705e841d5d4064bd3861015156118d0576f04000000000000000000000000000000840193506f84102b00893f64c705e841d5d4064bd36f8000000000000000000000000000000087028115156118cc57fe5b0495505b6f8204055aaef1c8bd5c3259f4822735a28610151561192f576f02000000000000000000000000000000840193506f8204055aaef1c8bd5c3259f4822735a26f80000000000000000000000000000000870281151561192b57fe5b0495505b6f810100ab00222d861931c15e39b44e998610151561198e576f01000000000000000000000000000000840193506f810100ab00222d861931c15e39b44e996f80000000000000000000000000000000870281151561198a57fe5b0495505b6f808040155aabbbe9451521693554f733861015156119ec576e800000000000000000000000000000840193506f808040155aabbbe9451521693554f7336f8000000000000000000000000000000087028115156119e857fe5b0495505b6f80000000000000000000000000000000860392508291506f80000000000000000000000000000000838402811515611a2157fe5b04905070010000000000000000000000000000000083700100000000000000000000000000000000038302811515611a5557fe5b04840193506f80000000000000000000000000000000818302811515611a7757fe5b049150700200000000000000000000000000000000836faaaaaaaaaaaaaaaaaaaaaaaaaaaaaaaa038302811515611aaa57fe5b04840193506f80000000000000000000000000000000818302811515611acc57fe5b049150700300000000000000000000000000000000836f99999999999999999999999999999999038302811515611aff57fe5b04840193506f80000000000000000000000000000000818302811515611b2157fe5b049150700400000000000000000000000000000000836f92492492492492492492492492492492038302811515611b5457fe5b04840193506f80000000000000000000000000000000818302811515611b7657fe5b049150700500000000000000000000000000000000836f8e38e38e38e38e38e38e38e38e38e38e038302811515611ba957fe5b04840193506f80000000000000000000000000000000818302811515611bcb57fe5b049150700600000000000000000000000000000000836f8ba2e8ba2e8ba2e8ba2e8ba2e8ba2e8b038302811515611bfe57fe5b04840193506f80000000000000000000000000000000818302811515611c2057fe5b049150700700000000000000000000000000000000836f89d89d89d89d89d89d89d89d89d89d89038302811515611c5357fe5b04840193506f80000000000000000000000000000000818302811515611c7557fe5b049150700800000000000000000000000000000000836f88888888888888888888888888888888038302811515611ca857fe5b048401935083945050505050919050565b6000806000806000925070010000000000000000000000000000000085101515611d2957611d016f8000000000000000000000000000000086811515611cfb57fe5b04612893565b91508160ff16859060020a900494506f800000000000000000000000000000008260ff160292505b6f80000000000000000000000000000000851115611db757607f90505b60008160ff161115611db6576f80000000000000000000000000000000858602811515611d6f57fe5b04945070010000000000000000000000000000000085101515611daa576001859060020a900494506001810360ff1660019060020a02830192505b80600190039050611d46565b5b6f05b9de1d10bf4103d647b0955897ba806f03f80fe03f80fe03f80fe03f80fe03f88402811515611de457fe5b049350505050919050565b600080600080600092506f1000000000000000000000000000000085811515611e1457fe5b0691508190506f80000000000000000000000000000000828202811515611e3757fe5b0490506710e1b3be415a00008102830192506f80000000000000000000000000000000828202811515611e6657fe5b0490506705a0913f6b1e00008102830192506f80000000000000000000000000000000828202811515611e9557fe5b049050670168244fdac780008102830192506f80000000000000000000000000000000828202811515611ec457fe5b049050664807432bc180008102830192506f80000000000000000000000000000000828202811515611ef257fe5b049050660c0135dca040008102830192506f80000000000000000000000000000000828202811515611f2057fe5b0490506601b707b1cdc0008102830192506f80000000000000000000000000000000828202811515611f4e57fe5b0490506536e0f639b8008102830192506f80000000000000000000000000000000828202811515611f7b57fe5b049050650618fee9f8008102830192506f80000000000000000000000000000000828202811515611fa857fe5b049050649c197dcc008102830192506f80000000000000000000000000000000828202811515611fd457fe5b049050640e30dce4008102830192506f8000000000000000000000000000000082820281151561200057fe5b04905064012ebd13008102830192506f8000000000000000000000000000000082820281151561202c57fe5b0490506317499f008102830192506f8000000000000000000000000000000082820281151561205757fe5b0490506301a9d4808102830192506f8000000000000000000000000000000082820281151561208257fe5b049050621c63808102830192506f800000000000000000000000000000008282028115156120ac57fe5b0490506201c6388102830192506f800000000000000000000000000000008282028115156120d657fe5b049050611ab88102830192506f800000000000000000000000000000008282028115156120ff57fe5b04905061017c8102830192506f8000000000000000000000000000000082820281151561212857fe5b04905060148102830192506f8000000000000000000000000000000082820281151561215057fe5b04905060018102830192506f80000000000000000000000000000000826721c3677c82b400008581151561218057fe5b040101925060006f1000000000000000000000000000000086161415156121d45770018ebef9eac820ae8682b9793ac6d1e7767001c3d6a24ed82218787d624d3e5eba95f984028115156121d057fe5b0492505b60006f200000000000000000000000000000008616141515612223577001368b2fc6f9609fe7aceb46aa619baed470018ebef9eac820ae8682b9793ac6d1e778840281151561221f57fe5b0492505b60006f400000000000000000000000000000008616141515612271576fbc5ab1b16779be3575bd8f0520a9f21f7001368b2fc6f9609fe7aceb46aa619baed5840281151561226d57fe5b0492505b60006f8000000000000000000000000000000086161415156122be576f454aaa8efe072e7f6ddbab84b40a55c96fbc5ab1b16779be3575bd8f0520a9f21e84028115156122ba57fe5b0492505b6000700100000000000000000000000000000000861614151561230c576f0960aadc109e7a3bf4578099615711ea6f454aaa8efe072e7f6ddbab84b40a55c5840281151561230857fe5b0492505b60007002000000000000000000000000000000008616141515612359576e2bf84208204f5977f9a8cf01fdce3d6f0960aadc109e7a3bf4578099615711d7840281151561235557fe5b0492505b600070040000000000000000000000000000000086161415156123a4576d03c6ab775dd0b95b4cbee7e65d116e2bf84208204f5977f9a8cf01fdc30784028115156123a057fe5b0492505b829350505050919050565b60008060008060209250607f91505b8160ff166001840160ff16101561241057600282840160ff168115156123e057fe5b0490508460018260ff166080811015156123f657fe5b01541015156124075780925061240b565b8091505b6123be565b8460018360ff1660808110151561242357fe5b015410151561243457819350612467565b8460018460ff1660808110151561244757fe5b015410151561245857829350612467565b6000151561246257fe5b600093505b505050919050565b6000806000849150600090508360ff168583029060020a900491506f03442c4e6074a82f1797f72ac00000008202810190508360ff168583029060020a900491506f0116b96f757c380fb287fd0e400000008202810190508360ff168583029060020a900491506e45ae5bdd5f0e03eca1ff43900000008202810190508360ff168583029060020a900491506e0defabf91302cd95b9ffda500000008202810190508360ff168583029060020a900491506e02529ca9832b22439efff9b80000008202810190508360ff168583029060020a900491506d54f1cf12bd04e516b6da880000008202810190508360ff168583029060020a900491506d0a9e39e257a09ca2d6db510000008202810190508360ff168583029060020a900491506d012e066e7b839fa050c3090000008202810190508360ff168583029060020a900491506c1e33d7d926c329a1ad1a8000008202810190508360ff168583029060020a900491506c02bee513bdb4a6b19b5f8000008202810190508360ff168583029060020a900491506b3a9316fa79b88eccf2a000008202810190508360ff168583029060020a900491506b048177ebe1fa8123752000008202810190508360ff168583029060020a900491506a5263fe90242dcbacf000008202810190508360ff168583029060020a900491506a057e22099c030d941000008202810190508360ff168583029060020a900491506957e22099c030d94100008202810190508360ff168583029060020a9004915069052b6b545699763100008202810190508360ff168583029060020a90049150684985f67696bf7480008202810190508360ff168583029060020a900491506803dea12ea99e4980008202810190508360ff168583029060020a900491506731880f2214b6e0008202810190508360ff168583029060020a9004915067025bcff56eb360008202810190508360ff168583029060020a90049150661b722e10ab10008202810190508360ff168583029060020a900491506601317c700770008202810190508360ff168583029060020a90049150650cba84aafa008202810190508360ff168583029060020a900491506482573a0a008202810190508360ff168583029060020a900491506405035ad9008202810190508360ff168583029060020a90049150632f881b008202810190508360ff168583029060020a900491506301b293408202810190508360ff168583029060020a90049150620efc408202810190508360ff168583029060020a90049150617fe08202810190508360ff168583029060020a900491506104208202810190508360ff168583029060020a9004915060218202810190508360ff168583029060020a9004915060018202810190508360ff1660019060020a02856f0688589cc0e9505e2f2fee55800000008381151561288657fe5b0401019250505092915050565b60008060008091506101008410156128ca575b60018411156128c5576001849060020a900493506001820191506128a6565b612915565b608090505b60008160ff161115612914578060ff1660019060020a0284101515612901578060ff16849060020a9004935080821791505b60018160ff169060020a900490506128cf565b5b81925050509190505600a165627a7a723058203c108824fca237ec08f91f1740b3f79a3fe4fff5f3709b1d1259ab447d9260bc0029",
  "source": "pragma solidity ^0.4.18;\n\n/**\n* The ClubTokenController is a replaceable endpoint for minting and unminting ClubToken.sol\n*/\n\n\nimport \"zeppelin-solidity/contracts/ownership/Ownable.sol\";\nimport './ClubToken.sol';\nimport \"bancor-contracts/solidity/contracts/converter/BancorFormula.sol\";\n\ncontract ClubTokenController is BancorFormula, Ownable {\n\n\n    address clubToken;\n\n    uint256 public poolBalance;\n    uint256 public virtualSupply;\n    uint256 public virtualBalance;\n    uint32 public reserveRatio; // represented in ppm, 1-1000000\n\n    constructor(address _clubToken) public {\n        clubToken = _clubToken;\n    }\n\n    function () public payable {\n        buy(msg.sender);\n    }\n\n    /**\n    * @dev gets the amount of tokens returned from spending Eth\n    * @param buyValue The amount of Eth to be spent\n    * @return A uint256 representing the amount of tokens gained in exchange for the Eth.\n    */\n    function getBuy(uint256 buyValue) public constant returns(uint256) {\n        return calculatePurchaseReturn(\n            safeAdd(ClubToken(clubToken).totalSupply(), virtualSupply),\n            safeAdd(poolBalance, virtualBalance),\n            reserveRatio,\n            buyValue);\n    }\n\n\n    /**\n    * @dev gets the amount of Eth returned from selling tokens\n    * @param sellAmount The amount of tokens to be sold\n    * @return A uint256 representing the amount of Eth gained in exchange for the tokens.\n    */\n\n    function getSell(uint256 sellAmount) public constant returns(uint256) {\n        return calculateSaleReturn(\n            safeAdd(ClubToken(clubToken).totalSupply(), virtualSupply),\n            safeAdd(poolBalance, virtualBalance),\n            reserveRatio,\n            sellAmount);\n    }\n\n    /**\n    * @dev updates the Reserve Ratio variable\n    * @param _reserveRatio The reserve ratio that determines the curve\n    * @return A boolean representing whether or not the update was successful.\n    */\n    function updateReserveRatio(uint32 _reserveRatio) public onlyOwner returns(bool){\n        reserveRatio = _reserveRatio;\n        return true;\n    }\n\n    /**\n    * @dev updates the Virtual Supply variable\n    * @param _virtualSupply The virtual supply of tokens used for calculating buys and sells\n    * @return A boolean representing whether or not the update was successful.\n    */\n    function updateVirtualSupply(uint256 _virtualSupply) public onlyOwner returns(bool){\n        virtualSupply = _virtualSupply;\n        return true;\n    }\n\n    /**\n    * @dev updates the Virtual Balance variable\n    * @param _virtualBalance The virtual balance of the contract used for calculating buys and sells\n    * @return A boolean representing whether or not the update was successful.\n    */\n    function updateVirtualBalance(uint256 _virtualBalance) public onlyOwner returns(bool){\n        virtualBalance = _virtualBalance;\n        return true;\n    }\n\n    /**\n    * @dev donate Donate Eth to the poolBalance without increasing the totalSupply\n    */\n    function donate() public payable {\n        require(msg.value > 0);\n        poolBalance = safeAdd(poolBalance, msg.value);\n        clubToken.transfer(msg.value);\n    }\n\n    /**\n    * @dev buy Buy ClubTokens with Eth\n    * @param buyer The address that should receive the new tokens\n    */\n    function buy(address buyer) public payable returns(bool) {\n        require(msg.value > 0);\n        uint256 tokens = getBuy(msg.value);\n        require(tokens > 0);\n        require(ClubToken(clubToken).mint(buyer, tokens));\n        poolBalance = safeAdd(poolBalance, msg.value);\n        clubToken.transfer(msg.value);\n    }\n\n\n    /**\n    * @dev sell Sell ClubTokens for Eth\n    * @param sellAmount The amount of tokens to sell\n    */\n    function sell(uint256 sellAmount) public returns(bool) {\n        require(sellAmount > 0);\n        require(ClubToken(clubToken).balanceOf(msg.sender) >= sellAmount);\n        uint256 saleReturn = getSell(sellAmount);\n        require(saleReturn > 0);\n        require(saleReturn <= poolBalance);\n        require(saleReturn <= clubToken.balance);\n        ClubToken(clubToken).burn(msg.sender, sellAmount);\n        poolBalance = safeSub(poolBalance, saleReturn);\n        ClubToken(clubToken).moveEth(msg.sender, saleReturn);\n    }\n\n\n }\n",
  "sourcePath": "/Users/billy/clovers/clovers-contracts/contracts/ClubTokenController.sol",
  "compiler": {
    "name": "solc",
    "version": "0.4.24+commit.e67f0147.Emscripten.clang"
  },
  "schemaVersion": "2.0.1",
  "updatedAt": "2018-07-30T10:09:13.396Z"
}