{
  "contractName": "ClubTokenController",
  "abi": [
    {
      "constant": true,
      "inputs": [],
      "name": "reserveRatio",
      "outputs": [
        {
          "name": "",
          "type": "uint32"
        }
      ],
      "payable": false,
      "stateMutability": "view",
      "type": "function"
    },
    {
      "constant": false,
      "inputs": [
        {
          "name": "token",
          "type": "address"
        }
      ],
      "name": "reclaimToken",
      "outputs": [],
      "payable": false,
      "stateMutability": "nonpayable",
      "type": "function"
    },
    {
      "constant": true,
      "inputs": [],
      "name": "virtualSupply",
      "outputs": [
        {
          "name": "",
          "type": "uint256"
        }
      ],
      "payable": false,
      "stateMutability": "view",
      "type": "function"
    },
    {
      "constant": true,
      "inputs": [
        {
          "name": "_supply",
          "type": "uint256"
        },
        {
          "name": "_connectorBalance",
          "type": "uint256"
        },
        {
          "name": "_connectorWeight",
          "type": "uint32"
        },
        {
          "name": "_depositAmount",
          "type": "uint256"
        }
      ],
      "name": "calculatePurchaseReturn",
      "outputs": [
        {
          "name": "",
          "type": "uint256"
        }
      ],
      "payable": false,
      "stateMutability": "view",
      "type": "function"
    },
    {
      "constant": true,
      "inputs": [
        {
          "name": "_supply",
          "type": "uint256"
        },
        {
          "name": "_connectorBalance",
          "type": "uint256"
        },
        {
          "name": "_connectorWeight",
          "type": "uint32"
        },
        {
          "name": "_sellAmount",
          "type": "uint256"
        }
      ],
      "name": "calculateSaleReturn",
      "outputs": [
        {
          "name": "",
          "type": "uint256"
        }
      ],
      "payable": false,
      "stateMutability": "view",
      "type": "function"
    },
    {
      "constant": true,
      "inputs": [],
      "name": "version",
      "outputs": [
        {
          "name": "",
          "type": "string"
        }
      ],
      "payable": false,
      "stateMutability": "view",
      "type": "function"
    },
    {
      "constant": true,
      "inputs": [
        {
          "name": "_fromConnectorBalance",
          "type": "uint256"
        },
        {
          "name": "_fromConnectorWeight",
          "type": "uint32"
        },
        {
          "name": "_toConnectorBalance",
          "type": "uint256"
        },
        {
          "name": "_toConnectorWeight",
          "type": "uint32"
        },
        {
          "name": "_amount",
          "type": "uint256"
        }
      ],
      "name": "calculateCrossConnectorReturn",
      "outputs": [
        {
          "name": "",
          "type": "uint256"
        }
      ],
      "payable": false,
      "stateMutability": "view",
      "type": "function"
    },
    {
      "constant": false,
      "inputs": [],
      "name": "renounceOwnership",
      "outputs": [],
      "payable": false,
      "stateMutability": "nonpayable",
      "type": "function"
    },
    {
      "constant": true,
      "inputs": [],
      "name": "curationMarket",
      "outputs": [
        {
          "name": "",
          "type": "address"
        }
      ],
      "payable": false,
      "stateMutability": "view",
      "type": "function"
    },
    {
      "constant": true,
      "inputs": [],
      "name": "owner",
      "outputs": [
        {
          "name": "",
          "type": "address"
        }
      ],
      "payable": false,
      "stateMutability": "view",
      "type": "function"
    },
    {
      "constant": true,
      "inputs": [],
      "name": "simpleCloversMarket",
      "outputs": [
        {
          "name": "",
          "type": "address"
        }
      ],
      "payable": false,
      "stateMutability": "view",
      "type": "function"
    },
    {
      "constant": false,
      "inputs": [
        {
          "name": "from_",
          "type": "address"
        },
        {
          "name": "value_",
          "type": "uint256"
        },
        {
          "name": "data_",
          "type": "bytes"
        }
      ],
      "name": "tokenFallback",
      "outputs": [],
      "payable": false,
      "stateMutability": "nonpayable",
      "type": "function"
    },
    {
      "constant": true,
      "inputs": [],
      "name": "clubToken",
      "outputs": [
        {
          "name": "",
          "type": "address"
        }
      ],
      "payable": false,
      "stateMutability": "view",
      "type": "function"
    },
    {
      "constant": true,
      "inputs": [],
      "name": "virtualBalance",
      "outputs": [
        {
          "name": "",
          "type": "uint256"
        }
      ],
      "payable": false,
      "stateMutability": "view",
      "type": "function"
    },
    {
      "constant": false,
      "inputs": [
        {
          "name": "_newOwner",
          "type": "address"
        }
      ],
      "name": "transferOwnership",
      "outputs": [],
      "payable": false,
      "stateMutability": "nonpayable",
      "type": "function"
    },
    {
      "inputs": [
        {
          "name": "_clubToken",
          "type": "address"
        }
      ],
      "payable": false,
      "stateMutability": "nonpayable",
      "type": "constructor"
    },
    {
      "payable": true,
      "stateMutability": "payable",
      "type": "fallback"
    },
    {
      "anonymous": false,
      "inputs": [
        {
          "indexed": false,
          "name": "buyer",
          "type": "address"
        },
        {
          "indexed": false,
          "name": "tokens",
          "type": "uint256"
        },
        {
          "indexed": false,
          "name": "value",
          "type": "uint256"
        },
        {
          "indexed": false,
          "name": "poolBalance",
          "type": "uint256"
        },
        {
          "indexed": false,
          "name": "tokenSupply",
          "type": "uint256"
        }
      ],
      "name": "Buy",
      "type": "event"
    },
    {
      "anonymous": false,
      "inputs": [
        {
          "indexed": false,
          "name": "seller",
          "type": "address"
        },
        {
          "indexed": false,
          "name": "tokens",
          "type": "uint256"
        },
        {
          "indexed": false,
          "name": "value",
          "type": "uint256"
        },
        {
          "indexed": false,
          "name": "poolBalance",
          "type": "uint256"
        },
        {
          "indexed": false,
          "name": "tokenSupply",
          "type": "uint256"
        }
      ],
      "name": "Sell",
      "type": "event"
    },
    {
      "anonymous": false,
      "inputs": [
        {
          "indexed": true,
          "name": "previousOwner",
          "type": "address"
        }
      ],
      "name": "OwnershipRenounced",
      "type": "event"
    },
    {
      "anonymous": false,
      "inputs": [
        {
          "indexed": true,
          "name": "previousOwner",
          "type": "address"
        },
        {
          "indexed": true,
          "name": "newOwner",
          "type": "address"
        }
      ],
      "name": "OwnershipTransferred",
      "type": "event"
    },
    {
      "constant": true,
      "inputs": [],
      "name": "poolBalance",
      "outputs": [
        {
          "name": "",
          "type": "uint256"
        }
      ],
      "payable": false,
      "stateMutability": "view",
      "type": "function"
    },
    {
      "constant": true,
      "inputs": [
        {
          "name": "buyValue",
          "type": "uint256"
        }
      ],
      "name": "getBuy",
      "outputs": [
        {
          "name": "",
          "type": "uint256"
        }
      ],
      "payable": false,
      "stateMutability": "view",
      "type": "function"
    },
    {
      "constant": true,
      "inputs": [
        {
          "name": "sellAmount",
          "type": "uint256"
        }
      ],
      "name": "getSell",
      "outputs": [
        {
          "name": "",
          "type": "uint256"
        }
      ],
      "payable": false,
      "stateMutability": "view",
      "type": "function"
    },
    {
      "constant": false,
      "inputs": [
        {
          "name": "_reserveRatio",
          "type": "uint32"
        }
      ],
      "name": "updateReserveRatio",
      "outputs": [
        {
          "name": "",
          "type": "bool"
        }
      ],
      "payable": false,
      "stateMutability": "nonpayable",
      "type": "function"
    },
    {
      "constant": false,
      "inputs": [
        {
          "name": "_virtualSupply",
          "type": "uint256"
        }
      ],
      "name": "updateVirtualSupply",
      "outputs": [
        {
          "name": "",
          "type": "bool"
        }
      ],
      "payable": false,
      "stateMutability": "nonpayable",
      "type": "function"
    },
    {
      "constant": false,
      "inputs": [
        {
          "name": "_virtualBalance",
          "type": "uint256"
        }
      ],
      "name": "updateVirtualBalance",
      "outputs": [
        {
          "name": "",
          "type": "bool"
        }
      ],
      "payable": false,
      "stateMutability": "nonpayable",
      "type": "function"
    },
    {
      "constant": false,
      "inputs": [
        {
          "name": "_simpleCloversMarket",
          "type": "address"
        }
      ],
      "name": "updateSimpleCloversMarket",
      "outputs": [
        {
          "name": "",
          "type": "bool"
        }
      ],
      "payable": false,
      "stateMutability": "nonpayable",
      "type": "function"
    },
    {
      "constant": false,
      "inputs": [
        {
          "name": "_curationMarket",
          "type": "address"
        }
      ],
      "name": "updateCurationMarket",
      "outputs": [
        {
          "name": "",
          "type": "bool"
        }
      ],
      "payable": false,
      "stateMutability": "nonpayable",
      "type": "function"
    },
    {
      "constant": false,
      "inputs": [],
      "name": "donate",
      "outputs": [],
      "payable": true,
      "stateMutability": "payable",
      "type": "function"
    },
    {
      "constant": false,
      "inputs": [
        {
          "name": "from",
          "type": "address"
        },
        {
          "name": "to",
          "type": "address"
        },
        {
          "name": "amount",
          "type": "uint256"
        }
      ],
      "name": "transferFrom",
      "outputs": [],
      "payable": false,
      "stateMutability": "nonpayable",
      "type": "function"
    },
    {
      "constant": false,
      "inputs": [
        {
          "name": "buyer",
          "type": "address"
        }
      ],
      "name": "buy",
      "outputs": [
        {
          "name": "",
          "type": "bool"
        }
      ],
      "payable": true,
      "stateMutability": "payable",
      "type": "function"
    },
    {
      "constant": false,
      "inputs": [
        {
          "name": "sellAmount",
          "type": "uint256"
        }
      ],
      "name": "sell",
      "outputs": [
        {
          "name": "",
          "type": "bool"
        }
      ],
      "payable": false,
      "stateMutability": "nonpayable",
      "type": "function"
    }
  ],
  "bytecode": "0x60806040526040805190810160405280600381526020017f302e330000000000000000000000000000000000000000000000000000000000815250600090805190602001906200005192919062000ffc565b503480156200005f57600080fd5b50604051602080620045e683398101806040528101908080519060200190929190505050701c35fedd14ffffffffffffffffffffffff60016020608081101515620000a657fe5b0181905550701b0ce43b323fffffffffffffffffffffff60016021608081101515620000ce57fe5b01819055507019f0028ec1ffffffffffffffffffffffff60016022608081101515620000f657fe5b01819055507018ded91f0e7fffffffffffffffffffffff600160236080811015156200011e57fe5b01819055507017d8ec7f0417ffffffffffffffffffffff600160246080811015156200014657fe5b01819055507016ddc6556cdbffffffffffffffffffffff600160256080811015156200016e57fe5b01819055507015ecf52776a1ffffffffffffffffffffff600160266080811015156200019657fe5b01819055507015060c256cb2ffffffffffffffffffffff60016027608081101515620001be57fe5b0181905550701428a2f98d72ffffffffffffffffffffff60016028608081101515620001e657fe5b01819055507013545598e5c23fffffffffffffffffffff600160296080811015156200020e57fe5b0181905550701288c4161ce1dfffffffffffffffffffff6001602a6080811015156200023657fe5b01819055507011c592761c666fffffffffffffffffffff6001602b6080811015156200025e57fe5b018190555070110a688680a757ffffffffffffffffffff6001602c6080811015156200028657fe5b0181905550701056f1b5bedf77ffffffffffffffffffff6001602d608081101515620002ae57fe5b0181905550700faadceceeff8bffffffffffffffffffff6001602e608081101515620002d657fe5b0181905550700f05dc6b27edadffffffffffffffffffff6001602f608081101515620002fe57fe5b0181905550700e67a5a25da4107fffffffffffffffffff600160306080811015156200032657fe5b0181905550700dcff115b14eedffffffffffffffffffff600160316080811015156200034e57fe5b0181905550700d3e7a392431239fffffffffffffffffff600160326080811015156200037657fe5b0181905550700cb2ff529eb71e4fffffffffffffffffff600160336080811015156200039e57fe5b0181905550700c2d415c3db974afffffffffffffffffff60016034608081101515620003c657fe5b0181905550700bad03e7d883f69bffffffffffffffffff60016035608081101515620003ee57fe5b0181905550700b320d03b2c343d5ffffffffffffffffff600160366080811015156200041657fe5b0181905550700abc25204e02828dffffffffffffffffff600160376080811015156200043e57fe5b0181905550700a4b16f74ee4bb207fffffffffffffffff600160386080811015156200046657fe5b01819055507009deaf736ac1f569ffffffffffffffffff600160396080811015156200048e57fe5b0181905550700976bd9952c7aa957fffffffffffffffff6001603a608081101515620004b657fe5b01819055507009131271922eaa606fffffffffffffffff6001603b608081101515620004de57fe5b01819055507008b380f3558668c46fffffffffffffffff6001603c6080811015156200050657fe5b0181905550700857ddf0117efa215bffffffffffffffff6001603d6080811015156200052e57fe5b01819055507007ffffffffffffffffffffffffffffffff6001603e6080811015156200055657fe5b01819055507007abbf6f6abb9d087fffffffffffffffff6001603f6080811015156200057e57fe5b018190555070075af62cbac95f7dfa7fffffffffffffff60016040608081101515620005a657fe5b018190555070070d7fb7452e187ac13fffffffffffffff60016041608081101515620005ce57fe5b01819055507006c3390ecc8af379295fffffffffffffff60016042608081101515620005f657fe5b018190555070067c00a3b07ffc01fd6fffffffffffffff600160436080811015156200061e57fe5b0181905550700637b647c39cbb9d3d27ffffffffffffff600160446080811015156200064657fe5b01819055507005f63b1fc104dbd39587ffffffffffffff600160456080811015156200066e57fe5b01819055507005b771955b36e12f7235ffffffffffffff600160466080811015156200069657fe5b018190555070057b3d49dda84556d6f6ffffffffffffff60016047608081101515620006be57fe5b018190555070054183095b2c8ececf30ffffffffffffff60016048608081101515620006e657fe5b018190555070050a28be635ca2b888f77fffffffffffff600160496080811015156200070e57fe5b01819055507004d5156639708c9db33c3fffffffffffff6001604a6080811015156200073657fe5b01819055507004a23105873875bd52dfdfffffffffffff6001604b6080811015156200075e57fe5b0181905550700471649d87199aa990756fffffffffffff6001604c6080811015156200078657fe5b01819055507004429a21a029d4c1457cfbffffffffffff6001604d608081101515620007ae57fe5b0181905550700415bc6d6fb7dd71af2cb3ffffffffffff6001604e608081101515620007d657fe5b01819055507003eab73b3bbfe282243ce1ffffffffffff6001604f608081101515620007fe57fe5b01819055507003c1771ac9fb6b4c18e229ffffffffffff600160506080811015156200082657fe5b0181905550700399e96897690418f785257fffffffffff600160516080811015156200084e57fe5b0181905550700373fc456c53bb779bf0ea9fffffffffff600160526080811015156200087657fe5b018190555070034f9e8e490c48e67e6ab8bfffffffffff600160536080811015156200089e57fe5b018190555070032cbfd4a7adc790560b3337ffffffffff60016054608081101515620008c657fe5b018190555070030b50570f6e5d2acca94613ffffffffff60016055608081101515620008ee57fe5b01819055507002eb40f9f620fda6b56c2861ffffffffff600160566080811015156200091657fe5b01819055507002cc8340ecb0d0f520a6af58ffffffffff600160576080811015156200093e57fe5b01819055507002af09481380a0a35cf1ba02ffffffffff600160586080811015156200096657fe5b0181905550700292c5bdd3b92ec810287b1b3fffffffff600160596080811015156200098e57fe5b0181905550700277abdcdab07d5a77ac6d6b9fffffffff6001605a608081101515620009b657fe5b018190555070025daf6654b1eaa55fd64df5efffffffff6001605b608081101515620009de57fe5b0181905550700244c49c648baa98192dce88b7ffffffff6001605c60808110151562000a0657fe5b018190555070022ce03cd5619a311b2471268bffffffff6001605d60808110151562000a2e57fe5b0181905550700215f77c045fbe885654a44a0fffffffff6001605e60808110151562000a5657fe5b01819055507001ffffffffffffffffffffffffffffffff6001605f60808110151562000a7e57fe5b01819055507001eaefdbdaaee7421fc4d3ede5ffffffff6001606060808110151562000aa657fe5b01819055507001d6bd8b2eb257df7e8ca57b09bfffffff6001606160808110151562000ace57fe5b01819055507001c35fedd14b861eb0443f7f133fffffff6001606260808110151562000af657fe5b01819055507001b0ce43b322bcde4a56e8ada5afffffff6001606360808110151562000b1e57fe5b018190555070019f0028ec1fff007f5a195a39dfffffff6001606460808110151562000b4657fe5b018190555070018ded91f0e72ee74f49b15ba527ffffff6001606560808110151562000b6e57fe5b018190555070017d8ec7f04136f4e5615fd41a63ffffff6001606660808110151562000b9657fe5b018190555070016ddc6556cdb84bdc8d12d22e6fffffff6001606760808110151562000bbe57fe5b018190555070015ecf52776a1155b5bd8395814f7fffff6001606860808110151562000be657fe5b018190555070015060c256cb23b3b3cc3754cf40ffffff6001606960808110151562000c0e57fe5b01819055507001428a2f98d728ae223ddab715be3fffff6001606a60808110151562000c3657fe5b018190555070013545598e5c23276ccf0ede68034fffff6001606b60808110151562000c5e57fe5b01819055507001288c4161ce1d6f54b7f61081194fffff6001606c60808110151562000c8657fe5b018190555070011c592761c666aa641d5a01a40f17ffff6001606d60808110151562000cae57fe5b0181905550700110a688680a7530515f3e6e6cfdcdffff6001606e60808110151562000cd657fe5b01819055507001056f1b5bedf75c6bcb2ce8aed428ffff6001606f60808110151562000cfe57fe5b01819055506ffaadceceeff8a0890f3875f008277fff6001607060808110151562000d2557fe5b01819055506ff05dc6b27edad306388a600f6ba0bfff6001607160808110151562000d4c57fe5b01819055506fe67a5a25da41063de1495d5b18cdbfff6001607260808110151562000d7357fe5b01819055506fdcff115b14eedde6fc3aa5353f2e4fff6001607360808110151562000d9a57fe5b01819055506fd3e7a3924312399f9aae2e0f868f8fff6001607460808110151562000dc157fe5b01819055506fcb2ff529eb71e41582cccd5a1ee26fff6001607560808110151562000de857fe5b01819055506fc2d415c3db974ab32a51840c0b67edff6001607660808110151562000e0f57fe5b01819055506fbad03e7d883f69ad5b0a186184e06bff6001607760808110151562000e3657fe5b01819055506fb320d03b2c343d4829abd6075f0cc5ff6001607860808110151562000e5d57fe5b01819055506fabc25204e02828d73c6e80bcdb1a95bf6001607960808110151562000e8457fe5b01819055506fa4b16f74ee4bb2040a1ec6c15fbbf2df6001607a60808110151562000eab57fe5b01819055506f9deaf736ac1f569deb1b5ae3f36c130f6001607b60808110151562000ed257fe5b01819055506f976bd9952c7aa957f5937d790ef650376001607c60808110151562000ef957fe5b01819055506f9131271922eaa6064b73a22d0bd4f2bf6001607d60808110151562000f2057fe5b01819055506f8b380f3558668c46c91c49a2f8e967b96001607e60808110151562000f4757fe5b01819055506f857ddf0117efa215952912839f6473e66001607f60808110151562000f6e57fe5b018190555033608160006101000a81548173ffffffffffffffffffffffffffffffffffffffff021916908373ffffffffffffffffffffffffffffffffffffffff16021790555080608260006101000a81548173ffffffffffffffffffffffffffffffffffffffff021916908373ffffffffffffffffffffffffffffffffffffffff16021790555050620010ab565b828054600181600116156101000203166002900490600052602060002090601f016020900481019282601f106200103f57805160ff191683800117855562001070565b8280016001018555821562001070579182015b828111156200106f57825182559160200191906001019062001052565b5b5090506200107f919062001083565b5090565b620010a891905b80821115620010a45760008160009055506001016200108a565b5090565b90565b61352b80620010bb6000396000f30060806040526004361061015e576000357c0100000000000000000000000000000000000000000000000000000000900463ffffffff1680627173c81461016a5780630c7d5cd8146101c557806314cdfccf146101fc57806317ffc3201461024157806323b872dd14610284578063277b2f97146102f157806329a00e7c1461031c57806349f9b0f71461038157806354fd4d50146103e657806365098bb314610476578063715018a6146104eb57806372420f0614610502578063783f0e40146105595780638da5cb5b146105a457806396365d44146105fb578063975e4b2a14610626578063b77d0df81461067d578063c0ee0b8a146106c2578063d010ed7014610727578063d76bbd5214610782578063dcd2af17146107d9578063dde4a70b14610804578063e4849b3214610845578063ed88c68e1461088a578063f088d54714610894578063f2fde38b146108e2578063f32a547c14610925575b61016733610966565b50005b34801561017657600080fd5b506101ab600480360381019080803573ffffffffffffffffffffffffffffffffffffffff169060200190929190505050610c56565b604051808215151515815260200191505060405180910390f35b3480156101d157600080fd5b506101da610cfe565b604051808263ffffffff1663ffffffff16815260200191505060405180910390f35b34801561020857600080fd5b5061022760048036038101908080359060200190929190505050610d14565b604051808215151515815260200191505060405180910390f35b34801561024d57600080fd5b50610282600480360381019080803573ffffffffffffffffffffffffffffffffffffffff169060200190929190505050610d82565b005b34801561029057600080fd5b506102ef600480360381019080803573ffffffffffffffffffffffffffffffffffffffff169060200190929190803573ffffffffffffffffffffffffffffffffffffffff16906020019092919080359060200190929190505050610f09565b005b3480156102fd57600080fd5b506103066110f7565b6040518082815260200191505060405180910390f35b34801561032857600080fd5b5061036b6004803603810190808035906020019092919080359060200190929190803563ffffffff169060200190929190803590602001909291905050506110fd565b6040518082815260200191505060405180910390f35b34801561038d57600080fd5b506103d06004803603810190808035906020019092919080359060200190929190803563ffffffff169060200190929190803590602001909291905050506111dc565b6040518082815260200191505060405180910390f35b3480156103f257600080fd5b506103fb6112e0565b6040518080602001828103825283818151815260200191508051906020019080838360005b8381101561043b578082015181840152602081019050610420565b50505050905090810190601f1680156104685780820380516001836020036101000a031916815260200191505b509250505060405180910390f35b34801561048257600080fd5b506104d560048036038101908080359060200190929190803563ffffffff16906020019092919080359060200190929190803563ffffffff1690602001909291908035906020019092919050505061137e565b6040518082815260200191505060405180910390f35b3480156104f757600080fd5b5061050061148c565b005b34801561050e57600080fd5b50610517611591565b604051808273ffffffffffffffffffffffffffffffffffffffff1673ffffffffffffffffffffffffffffffffffffffff16815260200191505060405180910390f35b34801561056557600080fd5b5061058a600480360381019080803563ffffffff1690602001909291905050506115b7565b604051808215151515815260200191505060405180910390f35b3480156105b057600080fd5b506105b961163f565b604051808273ffffffffffffffffffffffffffffffffffffffff1673ffffffffffffffffffffffffffffffffffffffff16815260200191505060405180910390f35b34801561060757600080fd5b50610610611665565b6040518082815260200191505060405180910390f35b34801561063257600080fd5b5061063b6116a6565b604051808273ffffffffffffffffffffffffffffffffffffffff1673ffffffffffffffffffffffffffffffffffffffff16815260200191505060405180910390f35b34801561068957600080fd5b506106a8600480360381019080803590602001909291905050506116cc565b604051808215151515815260200191505060405180910390f35b3480156106ce57600080fd5b50610725600480360381019080803573ffffffffffffffffffffffffffffffffffffffff1690602001909291908035906020019092919080359060200190820180359060200191909192939192939050505061173a565b005b34801561073357600080fd5b50610768600480360381019080803573ffffffffffffffffffffffffffffffffffffffff16906020019092919050505061173f565b604051808215151515815260200191505060405180910390f35b34801561078e57600080fd5b506107976117e7565b604051808273ffffffffffffffffffffffffffffffffffffffff1673ffffffffffffffffffffffffffffffffffffffff16815260200191505060405180910390f35b3480156107e557600080fd5b506107ee61180d565b6040518082815260200191505060405180910390f35b34801561081057600080fd5b5061082f60048036038101908080359060200190929190505050611813565b6040518082815260200191505060405180910390f35b34801561085157600080fd5b5061087060048036038101908080359060200190929190505050611917565b604051808215151515815260200191505060405180910390f35b610892611db1565b005b6108c8600480360381019080803573ffffffffffffffffffffffffffffffffffffffff169060200190929190505050610966565b604051808215151515815260200191505060405180910390f35b3480156108ee57600080fd5b50610923600480360381019080803573ffffffffffffffffffffffffffffffffffffffff169060200190929190505050611e2b565b005b34801561093157600080fd5b5061095060048036038101908080359060200190929190505050611e93565b6040518082815260200191505060405180910390f35b60008060003411151561097857600080fd5b61098134611e93565b905060008111151561099257600080fd5b608260009054906101000a900473ffffffffffffffffffffffffffffffffffffffff1673ffffffffffffffffffffffffffffffffffffffff166340c10f1984836040518363ffffffff167c0100000000000000000000000000000000000000000000000000000000028152600401808373ffffffffffffffffffffffffffffffffffffffff1673ffffffffffffffffffffffffffffffffffffffff16815260200182815260200192505050602060405180830381600087803b158015610a5757600080fd5b505af1158015610a6b573d6000803e3d6000fd5b505050506040513d6020811015610a8157600080fd5b81019080805190602001909291905050501515610a9d57600080fd5b608260009054906101000a900473ffffffffffffffffffffffffffffffffffffffff1673ffffffffffffffffffffffffffffffffffffffff166108fc349081150290604051600060405180830381858888f19350505050158015610b05573d6000803e3d6000fd5b507f064fb1933e186be0b289a87e98518dc18cc9856ecbc9f1353d1a138ddf733ec5838234610b32611665565b608260009054906101000a900473ffffffffffffffffffffffffffffffffffffffff1673ffffffffffffffffffffffffffffffffffffffff166318160ddd6040518163ffffffff167c0100000000000000000000000000000000000000000000000000000000028152600401602060405180830381600087803b158015610bb857600080fd5b505af1158015610bcc573d6000803e3d6000fd5b505050506040513d6020811015610be257600080fd5b8101908080519060200190929190505050604051808673ffffffffffffffffffffffffffffffffffffffff1673ffffffffffffffffffffffffffffffffffffffff1681526020018581526020018481526020018381526020018281526020019550505050505060405180910390a150919050565b6000608160009054906101000a900473ffffffffffffffffffffffffffffffffffffffff1673ffffffffffffffffffffffffffffffffffffffff163373ffffffffffffffffffffffffffffffffffffffff16141515610cb457600080fd5b81608460006101000a81548173ffffffffffffffffffffffffffffffffffffffff021916908373ffffffffffffffffffffffffffffffffffffffff16021790555060019050919050565b608760009054906101000a900463ffffffff1681565b6000608160009054906101000a900473ffffffffffffffffffffffffffffffffffffffff1673ffffffffffffffffffffffffffffffffffffffff163373ffffffffffffffffffffffffffffffffffffffff16141515610d7257600080fd5b8160858190555060019050919050565b6000608160009054906101000a900473ffffffffffffffffffffffffffffffffffffffff1673ffffffffffffffffffffffffffffffffffffffff163373ffffffffffffffffffffffffffffffffffffffff16141515610de057600080fd5b8173ffffffffffffffffffffffffffffffffffffffff166370a08231306040518263ffffffff167c0100000000000000000000000000000000000000000000000000000000028152600401808273ffffffffffffffffffffffffffffffffffffffff1673ffffffffffffffffffffffffffffffffffffffff168152602001915050602060405180830381600087803b158015610e7b57600080fd5b505af1158015610e8f573d6000803e3d6000fd5b505050506040513d6020811015610ea557600080fd5b81019080805190602001909291905050509050610f05608160009054906101000a900473ffffffffffffffffffffffffffffffffffffffff16828473ffffffffffffffffffffffffffffffffffffffff16611f979092919063ffffffff16565b5050565b608360009054906101000a900473ffffffffffffffffffffffffffffffffffffffff1673ffffffffffffffffffffffffffffffffffffffff163373ffffffffffffffffffffffffffffffffffffffff161480610fb25750608460009054906101000a900473ffffffffffffffffffffffffffffffffffffffff1673ffffffffffffffffffffffffffffffffffffffff163373ffffffffffffffffffffffffffffffffffffffff16145b1515610fbd57600080fd5b608260009054906101000a900473ffffffffffffffffffffffffffffffffffffffff1673ffffffffffffffffffffffffffffffffffffffff166323b872dd8484846040518463ffffffff167c0100000000000000000000000000000000000000000000000000000000028152600401808473ffffffffffffffffffffffffffffffffffffffff1673ffffffffffffffffffffffffffffffffffffffff1681526020018373ffffffffffffffffffffffffffffffffffffffff1673ffffffffffffffffffffffffffffffffffffffff1681526020018281526020019350505050602060405180830381600087803b1580156110b657600080fd5b505af11580156110ca573d6000803e3d6000fd5b505050506040513d60208110156110e057600080fd5b810190808051906020019092919050505050505050565b60855481565b600080600080600080891180156111145750600088115b8015611126575060008763ffffffff16115b80156111415750620f424063ffffffff168763ffffffff1611155b151561114c57600080fd5b600086141561115e57600094506111d0565b620f424063ffffffff168763ffffffff16141561119157876111808a88612085565b81151561118957fe5b0494506111d0565b61119b86896120b8565b91506111ac828989620f42406120d6565b80945081955050508260ff166111c28a86612085565b9060020a9004905088810394505b50505050949350505050565b60008060008060008060008a1180156111f55750600089115b8015611207575060008863ffffffff16115b80156112225750620f424063ffffffff168863ffffffff1611155b801561122e5750898711155b151561123957600080fd5b600087141561124b57600095506112d3565b8987141561125b578895506112d3565b620f424063ffffffff168863ffffffff16141561128e578961127d8a89612085565b81151561128657fe5b0495506112d3565b868a0392506112a28a84620f42408b6120d6565b80955081965050506112b48986612085565b91508360ff16899060020a029050848183038115156112cf57fe5b0495505b5050505050949350505050565b60008054600181600116156101000203166002900480601f0160208091040260200160405190810160405280929190818152602001828054600181600116156101000203166002900480156113765780601f1061134b57610100808354040283529160200191611376565b820191906000526020600020905b81548152906001019060200180831161135957829003601f168201915b505050505081565b60008060008060008060008b11801561139d575060008a63ffffffff16115b80156113b85750620f424063ffffffff168a63ffffffff1611155b80156113c45750600089115b80156113d6575060008863ffffffff16115b80156113f15750620f424063ffffffff168863ffffffff1611155b15156113fc57600080fd5b8763ffffffff168a63ffffffff1614156114355761141a8b886120b8565b6114248a89612085565b81151561142d57fe5b04955061147e565b61143f8b886120b8565b925061144d838c8c8b6120d6565b809550819650505061145f8986612085565b91508360ff16899060020a0290508481830381151561147a57fe5b0495505b505050505095945050505050565b608160009054906101000a900473ffffffffffffffffffffffffffffffffffffffff1673ffffffffffffffffffffffffffffffffffffffff163373ffffffffffffffffffffffffffffffffffffffff161415156114e857600080fd5b608160009054906101000a900473ffffffffffffffffffffffffffffffffffffffff1673ffffffffffffffffffffffffffffffffffffffff167ff8df31144d9c2f0f6b59d69b8b98abd5459d07f2742c4df920b25aae33c6482060405160405180910390a26000608160006101000a81548173ffffffffffffffffffffffffffffffffffffffff021916908373ffffffffffffffffffffffffffffffffffffffff160217905550565b608460009054906101000a900473ffffffffffffffffffffffffffffffffffffffff1681565b6000608160009054906101000a900473ffffffffffffffffffffffffffffffffffffffff1673ffffffffffffffffffffffffffffffffffffffff163373ffffffffffffffffffffffffffffffffffffffff1614151561161557600080fd5b81608760006101000a81548163ffffffff021916908363ffffffff16021790555060019050919050565b608160009054906101000a900473ffffffffffffffffffffffffffffffffffffffff1681565b6000608260009054906101000a900473ffffffffffffffffffffffffffffffffffffffff1673ffffffffffffffffffffffffffffffffffffffff1631905090565b608360009054906101000a900473ffffffffffffffffffffffffffffffffffffffff1681565b6000608160009054906101000a900473ffffffffffffffffffffffffffffffffffffffff1673ffffffffffffffffffffffffffffffffffffffff163373ffffffffffffffffffffffffffffffffffffffff1614151561172a57600080fd5b8160868190555060019050919050565b600080fd5b6000608160009054906101000a900473ffffffffffffffffffffffffffffffffffffffff1673ffffffffffffffffffffffffffffffffffffffff163373ffffffffffffffffffffffffffffffffffffffff1614151561179d57600080fd5b81608360006101000a81548173ffffffffffffffffffffffffffffffffffffffff021916908373ffffffffffffffffffffffffffffffffffffffff16021790555060019050919050565b608260009054906101000a900473ffffffffffffffffffffffffffffffffffffffff1681565b60865481565b60006119106118e4608260009054906101000a900473ffffffffffffffffffffffffffffffffffffffff1673ffffffffffffffffffffffffffffffffffffffff166318160ddd6040518163ffffffff167c0100000000000000000000000000000000000000000000000000000000028152600401602060405180830381600087803b1580156118a157600080fd5b505af11580156118b5573d6000803e3d6000fd5b505050506040513d60208110156118cb57600080fd5b81019080805190602001909291905050506085546120b8565b6118f76118ef611665565b6086546120b8565b608760009054906101000a900463ffffffff16856111dc565b9050919050565b60008060008311151561192957600080fd5b82608260009054906101000a900473ffffffffffffffffffffffffffffffffffffffff1673ffffffffffffffffffffffffffffffffffffffff166370a08231336040518263ffffffff167c0100000000000000000000000000000000000000000000000000000000028152600401808273ffffffffffffffffffffffffffffffffffffffff1673ffffffffffffffffffffffffffffffffffffffff168152602001915050602060405180830381600087803b1580156119e757600080fd5b505af11580156119fb573d6000803e3d6000fd5b505050506040513d6020811015611a1157600080fd5b810190808051906020019092919050505010151515611a2f57600080fd5b611a3883611813565b9050600081111515611a4957600080fd5b611a51611665565b8111151515611a5f57600080fd5b608260009054906101000a900473ffffffffffffffffffffffffffffffffffffffff1673ffffffffffffffffffffffffffffffffffffffff16318111151515611aa757600080fd5b608260009054906101000a900473ffffffffffffffffffffffffffffffffffffffff1673ffffffffffffffffffffffffffffffffffffffff16639dc29fac33856040518363ffffffff167c0100000000000000000000000000000000000000000000000000000000028152600401808373ffffffffffffffffffffffffffffffffffffffff1673ffffffffffffffffffffffffffffffffffffffff16815260200182815260200192505050600060405180830381600087803b158015611b6c57600080fd5b505af1158015611b80573d6000803e3d6000fd5b50505050608260009054906101000a900473ffffffffffffffffffffffffffffffffffffffff1673ffffffffffffffffffffffffffffffffffffffff16631cc1472d33836040518363ffffffff167c0100000000000000000000000000000000000000000000000000000000028152600401808373ffffffffffffffffffffffffffffffffffffffff1673ffffffffffffffffffffffffffffffffffffffff16815260200182815260200192505050600060405180830381600087803b158015611c4957600080fd5b505af1158015611c5d573d6000803e3d6000fd5b505050507f483f8aec0fd892ac72ad1ba8d0e9c9e73db59c12d263fd71de480b5b3deeae3c338483611c8d611665565b608260009054906101000a900473ffffffffffffffffffffffffffffffffffffffff1673ffffffffffffffffffffffffffffffffffffffff166318160ddd6040518163ffffffff167c0100000000000000000000000000000000000000000000000000000000028152600401602060405180830381600087803b158015611d1357600080fd5b505af1158015611d27573d6000803e3d6000fd5b505050506040513d6020811015611d3d57600080fd5b8101908080519060200190929190505050604051808673ffffffffffffffffffffffffffffffffffffffff1673ffffffffffffffffffffffffffffffffffffffff1681526020018581526020018481526020018381526020018281526020019550505050505060405180910390a150919050565b600034111515611dc057600080fd5b608260009054906101000a900473ffffffffffffffffffffffffffffffffffffffff1673ffffffffffffffffffffffffffffffffffffffff166108fc349081150290604051600060405180830381858888f19350505050158015611e28573d6000803e3d6000fd5b50565b608160009054906101000a900473ffffffffffffffffffffffffffffffffffffffff1673ffffffffffffffffffffffffffffffffffffffff163373ffffffffffffffffffffffffffffffffffffffff16141515611e8757600080fd5b611e90816121ce565b50565b6000611f90611f64608260009054906101000a900473ffffffffffffffffffffffffffffffffffffffff1673ffffffffffffffffffffffffffffffffffffffff166318160ddd6040518163ffffffff167c0100000000000000000000000000000000000000000000000000000000028152600401602060405180830381600087803b158015611f2157600080fd5b505af1158015611f35573d6000803e3d6000fd5b505050506040513d6020811015611f4b57600080fd5b81019080805190602001909291905050506085546120b8565b611f77611f6f611665565b6086546120b8565b608760009054906101000a900463ffffffff16856110fd565b9050919050565b8273ffffffffffffffffffffffffffffffffffffffff1663a9059cbb83836040518363ffffffff167c0100000000000000000000000000000000000000000000000000000000028152600401808373ffffffffffffffffffffffffffffffffffffffff1673ffffffffffffffffffffffffffffffffffffffff16815260200182815260200192505050602060405180830381600087803b15801561203a57600080fd5b505af115801561204e573d6000803e3d6000fd5b505050506040513d602081101561206457600080fd5b8101908080519060200190929190505050151561208057600080fd5b505050565b600080828402905060008414806120a657508284828115156120a357fe5b04145b15156120ae57fe5b8091505092915050565b60008082840190508381101515156120cc57fe5b8091505092915050565b6000806000806000807002000000000000000000000000000000008a1015156120fb57fe5b886f800000000000000000000000000000008b0281151561211857fe5b04925070015bf0a8b1457695355fb8ac404e7a79e38310156121445761213d836122ca565b9350612150565b61214d83612899565b93505b8663ffffffff168863ffffffff16850281151561216957fe5b0491507008000000000000000000000000000000008210156121995761218e826129cf565b607f955095506121c1565b6121a282612f8f565b90506121bb81607f0360ff16839060020a90048261304f565b81955095505b5050505094509492505050565b600073ffffffffffffffffffffffffffffffffffffffff168173ffffffffffffffffffffffffffffffffffffffff161415151561220a57600080fd5b8073ffffffffffffffffffffffffffffffffffffffff16608160009054906101000a900473ffffffffffffffffffffffffffffffffffffffff1673ffffffffffffffffffffffffffffffffffffffff167f8be0079c531659141344cd1fd0a4f28419497f9722a3daafe3b4186f6b6457e060405160405180910390a380608160006101000a81548173ffffffffffffffffffffffffffffffffffffffff021916908373ffffffffffffffffffffffffffffffffffffffff16021790555050565b60008060008060008093506fd3094c70f034de4b96ff7d5b6f99fcd886101515612334576f40000000000000000000000000000000840193506fd3094c70f034de4b96ff7d5b6f99fcd86f80000000000000000000000000000000870281151561233057fe5b0495505b6fa45af1e1f40c333b3de1db4dd55f29a786101515612393576f20000000000000000000000000000000840193506fa45af1e1f40c333b3de1db4dd55f29a76f80000000000000000000000000000000870281151561238f57fe5b0495505b6f910b022db7ae67ce76b441c27035c6a1861015156123f2576f10000000000000000000000000000000840193506f910b022db7ae67ce76b441c27035c6a16f8000000000000000000000000000000087028115156123ee57fe5b0495505b6f88415abbe9a76bead8d00cf112e4d4a886101515612451576f08000000000000000000000000000000840193506f88415abbe9a76bead8d00cf112e4d4a86f80000000000000000000000000000000870281151561244d57fe5b0495505b6f84102b00893f64c705e841d5d4064bd3861015156124b0576f04000000000000000000000000000000840193506f84102b00893f64c705e841d5d4064bd36f8000000000000000000000000000000087028115156124ac57fe5b0495505b6f8204055aaef1c8bd5c3259f4822735a28610151561250f576f02000000000000000000000000000000840193506f8204055aaef1c8bd5c3259f4822735a26f80000000000000000000000000000000870281151561250b57fe5b0495505b6f810100ab00222d861931c15e39b44e998610151561256e576f01000000000000000000000000000000840193506f810100ab00222d861931c15e39b44e996f80000000000000000000000000000000870281151561256a57fe5b0495505b6f808040155aabbbe9451521693554f733861015156125cc576e800000000000000000000000000000840193506f808040155aabbbe9451521693554f7336f8000000000000000000000000000000087028115156125c857fe5b0495505b6f80000000000000000000000000000000860392508291506f8000000000000000000000000000000083840281151561260157fe5b0490507001000000000000000000000000000000008370010000000000000000000000000000000003830281151561263557fe5b04840193506f8000000000000000000000000000000081830281151561265757fe5b049150700200000000000000000000000000000000836faaaaaaaaaaaaaaaaaaaaaaaaaaaaaaaa03830281151561268a57fe5b04840193506f800000000000000000000000000000008183028115156126ac57fe5b049150700300000000000000000000000000000000836f999999999999999999999999999999990383028115156126df57fe5b04840193506f8000000000000000000000000000000081830281151561270157fe5b049150700400000000000000000000000000000000836f9249249249249249249249249249249203830281151561273457fe5b04840193506f8000000000000000000000000000000081830281151561275657fe5b049150700500000000000000000000000000000000836f8e38e38e38e38e38e38e38e38e38e38e03830281151561278957fe5b04840193506f800000000000000000000000000000008183028115156127ab57fe5b049150700600000000000000000000000000000000836f8ba2e8ba2e8ba2e8ba2e8ba2e8ba2e8b0383028115156127de57fe5b04840193506f8000000000000000000000000000000081830281151561280057fe5b049150700700000000000000000000000000000000836f89d89d89d89d89d89d89d89d89d89d8903830281151561283357fe5b04840193506f8000000000000000000000000000000081830281151561285557fe5b049150700800000000000000000000000000000000836f8888888888888888888888888888888803830281151561288857fe5b048401935083945050505050919050565b6000806000806000925070010000000000000000000000000000000085101515612909576128e16f80000000000000000000000000000000868115156128db57fe5b04613473565b91508160ff16859060020a900494506f800000000000000000000000000000008260ff160292505b6f8000000000000000000000000000000085111561299757607f90505b60008160ff161115612996576f8000000000000000000000000000000085860281151561294f57fe5b0494507001000000000000000000000000000000008510151561298a576001859060020a900494506001810360ff1660019060020a02830192505b80600190039050612926565b5b6f05b9de1d10bf4103d647b0955897ba806f03f80fe03f80fe03f80fe03f80fe03f884028115156129c457fe5b049350505050919050565b600080600080600092506f10000000000000000000000000000000858115156129f457fe5b0691508190506f80000000000000000000000000000000828202811515612a1757fe5b0490506710e1b3be415a00008102830192506f80000000000000000000000000000000828202811515612a4657fe5b0490506705a0913f6b1e00008102830192506f80000000000000000000000000000000828202811515612a7557fe5b049050670168244fdac780008102830192506f80000000000000000000000000000000828202811515612aa457fe5b049050664807432bc180008102830192506f80000000000000000000000000000000828202811515612ad257fe5b049050660c0135dca040008102830192506f80000000000000000000000000000000828202811515612b0057fe5b0490506601b707b1cdc0008102830192506f80000000000000000000000000000000828202811515612b2e57fe5b0490506536e0f639b8008102830192506f80000000000000000000000000000000828202811515612b5b57fe5b049050650618fee9f8008102830192506f80000000000000000000000000000000828202811515612b8857fe5b049050649c197dcc008102830192506f80000000000000000000000000000000828202811515612bb457fe5b049050640e30dce4008102830192506f80000000000000000000000000000000828202811515612be057fe5b04905064012ebd13008102830192506f80000000000000000000000000000000828202811515612c0c57fe5b0490506317499f008102830192506f80000000000000000000000000000000828202811515612c3757fe5b0490506301a9d4808102830192506f80000000000000000000000000000000828202811515612c6257fe5b049050621c63808102830192506f80000000000000000000000000000000828202811515612c8c57fe5b0490506201c6388102830192506f80000000000000000000000000000000828202811515612cb657fe5b049050611ab88102830192506f80000000000000000000000000000000828202811515612cdf57fe5b04905061017c8102830192506f80000000000000000000000000000000828202811515612d0857fe5b04905060148102830192506f80000000000000000000000000000000828202811515612d3057fe5b04905060018102830192506f80000000000000000000000000000000826721c3677c82b4000085811515612d6057fe5b040101925060006f100000000000000000000000000000008616141515612db45770018ebef9eac820ae8682b9793ac6d1e7767001c3d6a24ed82218787d624d3e5eba95f98402811515612db057fe5b0492505b60006f200000000000000000000000000000008616141515612e03577001368b2fc6f9609fe7aceb46aa619baed470018ebef9eac820ae8682b9793ac6d1e7788402811515612dff57fe5b0492505b60006f400000000000000000000000000000008616141515612e51576fbc5ab1b16779be3575bd8f0520a9f21f7001368b2fc6f9609fe7aceb46aa619baed58402811515612e4d57fe5b0492505b60006f800000000000000000000000000000008616141515612e9e576f454aaa8efe072e7f6ddbab84b40a55c96fbc5ab1b16779be3575bd8f0520a9f21e8402811515612e9a57fe5b0492505b60007001000000000000000000000000000000008616141515612eec576f0960aadc109e7a3bf4578099615711ea6f454aaa8efe072e7f6ddbab84b40a55c58402811515612ee857fe5b0492505b60007002000000000000000000000000000000008616141515612f39576e2bf84208204f5977f9a8cf01fdce3d6f0960aadc109e7a3bf4578099615711d78402811515612f3557fe5b0492505b60007004000000000000000000000000000000008616141515612f84576d03c6ab775dd0b95b4cbee7e65d116e2bf84208204f5977f9a8cf01fdc3078402811515612f8057fe5b0492505b829350505050919050565b60008060008060209250607f91505b8160ff166001840160ff161015612ff057600282840160ff16811515612fc057fe5b0490508460018260ff16608081101515612fd657fe5b0154101515612fe757809250612feb565b8091505b612f9e565b8460018360ff1660808110151561300357fe5b015410151561301457819350613047565b8460018460ff1660808110151561302757fe5b015410151561303857829350613047565b6000151561304257fe5b600093505b505050919050565b6000806000849150600090508360ff168583029060020a900491506f03442c4e6074a82f1797f72ac00000008202810190508360ff168583029060020a900491506f0116b96f757c380fb287fd0e400000008202810190508360ff168583029060020a900491506e45ae5bdd5f0e03eca1ff43900000008202810190508360ff168583029060020a900491506e0defabf91302cd95b9ffda500000008202810190508360ff168583029060020a900491506e02529ca9832b22439efff9b80000008202810190508360ff168583029060020a900491506d54f1cf12bd04e516b6da880000008202810190508360ff168583029060020a900491506d0a9e39e257a09ca2d6db510000008202810190508360ff168583029060020a900491506d012e066e7b839fa050c3090000008202810190508360ff168583029060020a900491506c1e33d7d926c329a1ad1a8000008202810190508360ff168583029060020a900491506c02bee513bdb4a6b19b5f8000008202810190508360ff168583029060020a900491506b3a9316fa79b88eccf2a000008202810190508360ff168583029060020a900491506b048177ebe1fa8123752000008202810190508360ff168583029060020a900491506a5263fe90242dcbacf000008202810190508360ff168583029060020a900491506a057e22099c030d941000008202810190508360ff168583029060020a900491506957e22099c030d94100008202810190508360ff168583029060020a9004915069052b6b545699763100008202810190508360ff168583029060020a90049150684985f67696bf7480008202810190508360ff168583029060020a900491506803dea12ea99e4980008202810190508360ff168583029060020a900491506731880f2214b6e0008202810190508360ff168583029060020a9004915067025bcff56eb360008202810190508360ff168583029060020a90049150661b722e10ab10008202810190508360ff168583029060020a900491506601317c700770008202810190508360ff168583029060020a90049150650cba84aafa008202810190508360ff168583029060020a900491506482573a0a008202810190508360ff168583029060020a900491506405035ad9008202810190508360ff168583029060020a90049150632f881b008202810190508360ff168583029060020a900491506301b293408202810190508360ff168583029060020a90049150620efc408202810190508360ff168583029060020a90049150617fe08202810190508360ff168583029060020a900491506104208202810190508360ff168583029060020a9004915060218202810190508360ff168583029060020a9004915060018202810190508360ff1660019060020a02856f0688589cc0e9505e2f2fee55800000008381151561346657fe5b0401019250505092915050565b60008060008091506101008410156134aa575b60018411156134a5576001849060020a90049350600182019150613486565b6134f5565b608090505b60008160ff1611156134f4578060ff1660019060020a02841015156134e1578060ff16849060020a9004935080821791505b60018160ff169060020a900490506134af565b5b81925050509190505600a165627a7a7230582063489dcd6f5d8922b9b4868c6a3a9ded1c0b6ed6552c19dced414d213c7cbe7c0029",
  "source": "pragma solidity ^0.4.18;\n\n/**\n* The ClubTokenController is a replaceable endpoint for minting and unminting ClubToken.sol\n*/\n\n\nimport './IClubToken.sol';\nimport './IClubTokenController.sol';\nimport \"bancor-contracts/solidity/contracts/converter/BancorFormula.sol\";\nimport \"zeppelin-solidity/contracts/ownership/HasNoTokens.sol\";\n\ncontract ClubTokenController is IClubTokenController, BancorFormula, HasNoTokens {\n    event Buy(address buyer, uint256 tokens, uint256 value, uint256 poolBalance, uint256 tokenSupply);\n    event Sell(address seller, uint256 tokens, uint256 value, uint256 poolBalance, uint256 tokenSupply);\n\n    address public clubToken;\n    address public simpleCloversMarket;\n    address public curationMarket;\n\n    /* uint256 public poolBalance; */\n    uint256 public virtualSupply;\n    uint256 public virtualBalance;\n    uint32 public reserveRatio; // represented in ppm, 1-1000000\n\n    constructor(address _clubToken) public {\n        clubToken = _clubToken;\n    }\n\n    function () public payable {\n        buy(msg.sender);\n    }\n\n    function poolBalance() public constant returns(uint256) {\n        return clubToken.balance;\n    }\n\n    /**\n    * @dev gets the amount of tokens returned from spending Eth\n    * @param buyValue The amount of Eth to be spent\n    * @return A uint256 representing the amount of tokens gained in exchange for the Eth.\n    */\n    function getBuy(uint256 buyValue) public constant returns(uint256) {\n        return calculatePurchaseReturn(\n            safeAdd(IClubToken(clubToken).totalSupply(), virtualSupply),\n            safeAdd(poolBalance(), virtualBalance),\n            reserveRatio,\n            buyValue);\n    }\n\n\n    /**\n    * @dev gets the amount of Eth returned from selling tokens\n    * @param sellAmount The amount of tokens to be sold\n    * @return A uint256 representing the amount of Eth gained in exchange for the tokens.\n    */\n\n    function getSell(uint256 sellAmount) public constant returns(uint256) {\n        return calculateSaleReturn(\n            safeAdd(IClubToken(clubToken).totalSupply(), virtualSupply),\n            safeAdd(poolBalance(), virtualBalance),\n            reserveRatio,\n            sellAmount);\n    }\n\n    /**\n    * @dev updates the Reserve Ratio variable\n    * @param _reserveRatio The reserve ratio that determines the curve\n    * @return A boolean representing whether or not the update was successful.\n    */\n    function updateReserveRatio(uint32 _reserveRatio) public onlyOwner returns(bool){\n        reserveRatio = _reserveRatio;\n        return true;\n    }\n\n    /**\n    * @dev updates the Virtual Supply variable\n    * @param _virtualSupply The virtual supply of tokens used for calculating buys and sells\n    * @return A boolean representing whether or not the update was successful.\n    */\n    function updateVirtualSupply(uint256 _virtualSupply) public onlyOwner returns(bool){\n        virtualSupply = _virtualSupply;\n        return true;\n    }\n\n    /**\n    * @dev updates the Virtual Balance variable\n    * @param _virtualBalance The virtual balance of the contract used for calculating buys and sells\n    * @return A boolean representing whether or not the update was successful.\n    */\n    function updateVirtualBalance(uint256 _virtualBalance) public onlyOwner returns(bool){\n        virtualBalance = _virtualBalance;\n        return true;\n    }\n    /**\n    * @dev updates the poolBalance\n    * @param _poolBalance The eth balance of ClubToken.sol\n    * @return A boolean representing whether or not the update was successful.\n    */\n    /* function updatePoolBalance(uint256 _poolBalance) public onlyOwner returns(bool){\n        poolBalance = _poolBalance;\n        return true;\n    } */\n\n    /**\n    * @dev updates the SimpleCloversMarket address\n    * @param _simpleCloversMarket The address of the simpleCloversMarket\n    * @return A boolean representing whether or not the update was successful.\n    */\n    function updateSimpleCloversMarket(address _simpleCloversMarket) public onlyOwner returns(bool){\n        simpleCloversMarket = _simpleCloversMarket;\n        return true;\n    }\n\n    /**\n    * @dev updates the CurationMarket address\n    * @param _curationMarket The address of the curationMarket\n    * @return A boolean representing whether or not the update was successful.\n    */\n    function updateCurationMarket(address _curationMarket) public onlyOwner returns(bool){\n        curationMarket = _curationMarket;\n        return true;\n    }\n\n    /**\n    * @dev donate Donate Eth to the poolBalance without increasing the totalSupply\n    */\n    function donate() public payable {\n        require(msg.value > 0);\n        /* poolBalance = safeAdd(poolBalance, msg.value); */\n        clubToken.transfer(msg.value);\n    }\n\n    function transferFrom(address from, address to, uint256 amount) public {\n        require(msg.sender == simpleCloversMarket || msg.sender == curationMarket);\n        IClubToken(clubToken).transferFrom(from, to, amount);\n    }\n\n    /**\n    * @dev buy Buy ClubTokens with Eth\n    * @param buyer The address that should receive the new tokens\n    */\n    function buy(address buyer) public payable returns(bool) {\n        require(msg.value > 0);\n        uint256 tokens = getBuy(msg.value);\n        require(tokens > 0);\n        require(IClubToken(clubToken).mint(buyer, tokens));\n        /* poolBalance = safeAdd(poolBalance, msg.value); */\n        clubToken.transfer(msg.value);\n        emit Buy(buyer, tokens, msg.value, poolBalance(), IClubToken(clubToken).totalSupply());\n    }\n\n\n    /**\n    * @dev sell Sell ClubTokens for Eth\n    * @param sellAmount The amount of tokens to sell\n    */\n    function sell(uint256 sellAmount) public returns(bool) {\n        require(sellAmount > 0);\n        require(IClubToken(clubToken).balanceOf(msg.sender) >= sellAmount);\n        uint256 saleReturn = getSell(sellAmount);\n        require(saleReturn > 0);\n        require(saleReturn <= poolBalance());\n        require(saleReturn <= clubToken.balance);\n        IClubToken(clubToken).burn(msg.sender, sellAmount);\n        /* poolBalance = safeSub(poolBalance, saleReturn); */\n        IClubToken(clubToken).moveEth(msg.sender, saleReturn);\n        emit Sell(msg.sender, sellAmount, saleReturn, poolBalance(), IClubToken(clubToken).totalSupply());\n    }\n\n\n }\n",
  "sourcePath": "/Users/billy/clovers/clovers-contracts/contracts/ClubTokenController.sol",
  "compiler": {
    "name": "solc",
    "version": "0.4.24+commit.e67f0147.Emscripten.clang"
  },
  "schemaVersion": "2.0.1",
  "updatedAt": "2018-08-06T14:55:38.820Z"
}