{
  "contractName": "ClubTokenController",
  "abi": [
    {
      "constant": true,
      "inputs": [],
      "name": "reserveRatio",
      "outputs": [
        {
          "name": "",
          "type": "uint32"
        }
      ],
      "payable": false,
      "stateMutability": "view",
      "type": "function"
    },
    {
      "constant": true,
      "inputs": [],
      "name": "support",
      "outputs": [
        {
          "name": "",
          "type": "address"
        }
      ],
      "payable": false,
      "stateMutability": "view",
      "type": "function"
    },
    {
      "constant": true,
      "inputs": [
        {
          "name": "_admin",
          "type": "address"
        }
      ],
      "name": "isAdmin",
      "outputs": [
        {
          "name": "",
          "type": "bool"
        }
      ],
      "payable": false,
      "stateMutability": "view",
      "type": "function"
    },
    {
      "constant": true,
      "inputs": [],
      "name": "virtualSupply",
      "outputs": [
        {
          "name": "",
          "type": "uint256"
        }
      ],
      "payable": false,
      "stateMutability": "view",
      "type": "function"
    },
    {
      "constant": true,
      "inputs": [
        {
          "name": "_supply",
          "type": "uint256"
        },
        {
          "name": "_connectorBalance",
          "type": "uint256"
        },
        {
          "name": "_connectorWeight",
          "type": "uint32"
        },
        {
          "name": "_depositAmount",
          "type": "uint256"
        }
      ],
      "name": "calculatePurchaseReturn",
      "outputs": [
        {
          "name": "",
          "type": "uint256"
        }
      ],
      "payable": false,
      "stateMutability": "view",
      "type": "function"
    },
    {
      "constant": true,
      "inputs": [
        {
          "name": "",
          "type": "address"
        }
      ],
      "name": "admins",
      "outputs": [
        {
          "name": "",
          "type": "bool"
        }
      ],
      "payable": false,
      "stateMutability": "view",
      "type": "function"
    },
    {
      "constant": true,
      "inputs": [
        {
          "name": "_supply",
          "type": "uint256"
        },
        {
          "name": "_connectorBalance",
          "type": "uint256"
        },
        {
          "name": "_connectorWeight",
          "type": "uint32"
        },
        {
          "name": "_sellAmount",
          "type": "uint256"
        }
      ],
      "name": "calculateSaleReturn",
      "outputs": [
        {
          "name": "",
          "type": "uint256"
        }
      ],
      "payable": false,
      "stateMutability": "view",
      "type": "function"
    },
    {
      "constant": true,
      "inputs": [],
      "name": "version",
      "outputs": [
        {
          "name": "",
          "type": "string"
        }
      ],
      "payable": false,
      "stateMutability": "view",
      "type": "function"
    },
    {
      "constant": false,
      "inputs": [
        {
          "name": "_newAdmin",
          "type": "address"
        }
      ],
      "name": "transferAdminship",
      "outputs": [],
      "payable": false,
      "stateMutability": "nonpayable",
      "type": "function"
    },
    {
      "constant": true,
      "inputs": [],
      "name": "paused",
      "outputs": [
        {
          "name": "",
          "type": "bool"
        }
      ],
      "payable": false,
      "stateMutability": "view",
      "type": "function"
    },
    {
      "constant": true,
      "inputs": [
        {
          "name": "_fromConnectorBalance",
          "type": "uint256"
        },
        {
          "name": "_fromConnectorWeight",
          "type": "uint32"
        },
        {
          "name": "_toConnectorBalance",
          "type": "uint256"
        },
        {
          "name": "_toConnectorWeight",
          "type": "uint32"
        },
        {
          "name": "_amount",
          "type": "uint256"
        }
      ],
      "name": "calculateCrossConnectorReturn",
      "outputs": [
        {
          "name": "",
          "type": "uint256"
        }
      ],
      "payable": false,
      "stateMutability": "view",
      "type": "function"
    },
    {
      "constant": false,
      "inputs": [
        {
          "name": "_previousAdmin",
          "type": "address"
        }
      ],
      "name": "renounceAdminship",
      "outputs": [],
      "payable": false,
      "stateMutability": "nonpayable",
      "type": "function"
    },
    {
      "constant": false,
      "inputs": [],
      "name": "renounceOwnership",
      "outputs": [],
      "payable": false,
      "stateMutability": "nonpayable",
      "type": "function"
    },
    {
      "constant": true,
      "inputs": [],
      "name": "curationMarket",
      "outputs": [
        {
          "name": "",
          "type": "address"
        }
      ],
      "payable": false,
      "stateMutability": "view",
      "type": "function"
    },
    {
      "constant": true,
      "inputs": [],
      "name": "owner",
      "outputs": [
        {
          "name": "",
          "type": "address"
        }
      ],
      "payable": false,
      "stateMutability": "view",
      "type": "function"
    },
    {
      "constant": true,
      "inputs": [],
      "name": "simpleCloversMarket",
      "outputs": [
        {
          "name": "",
          "type": "address"
        }
      ],
      "payable": false,
      "stateMutability": "view",
      "type": "function"
    },
    {
      "constant": true,
      "inputs": [],
      "name": "clubToken",
      "outputs": [
        {
          "name": "",
          "type": "address"
        }
      ],
      "payable": false,
      "stateMutability": "view",
      "type": "function"
    },
    {
      "constant": true,
      "inputs": [],
      "name": "virtualBalance",
      "outputs": [
        {
          "name": "",
          "type": "uint256"
        }
      ],
      "payable": false,
      "stateMutability": "view",
      "type": "function"
    },
    {
      "constant": false,
      "inputs": [
        {
          "name": "_newOwner",
          "type": "address"
        }
      ],
      "name": "transferOwnership",
      "outputs": [],
      "payable": false,
      "stateMutability": "nonpayable",
      "type": "function"
    },
    {
      "inputs": [
        {
          "name": "_clubToken",
          "type": "address"
        }
      ],
      "payable": false,
      "stateMutability": "nonpayable",
      "type": "constructor"
    },
    {
      "payable": true,
      "stateMutability": "payable",
      "type": "fallback"
    },
    {
      "anonymous": false,
      "inputs": [
        {
          "indexed": false,
          "name": "buyer",
          "type": "address"
        },
        {
          "indexed": false,
          "name": "tokens",
          "type": "uint256"
        },
        {
          "indexed": false,
          "name": "value",
          "type": "uint256"
        },
        {
          "indexed": false,
          "name": "poolBalance",
          "type": "uint256"
        },
        {
          "indexed": false,
          "name": "tokenSupply",
          "type": "uint256"
        }
      ],
      "name": "Buy",
      "type": "event"
    },
    {
      "anonymous": false,
      "inputs": [
        {
          "indexed": false,
          "name": "seller",
          "type": "address"
        },
        {
          "indexed": false,
          "name": "tokens",
          "type": "uint256"
        },
        {
          "indexed": false,
          "name": "value",
          "type": "uint256"
        },
        {
          "indexed": false,
          "name": "poolBalance",
          "type": "uint256"
        },
        {
          "indexed": false,
          "name": "tokenSupply",
          "type": "uint256"
        }
      ],
      "name": "Sell",
      "type": "event"
    },
    {
      "anonymous": false,
      "inputs": [
        {
          "indexed": true,
          "name": "previousOwner",
          "type": "address"
        }
      ],
      "name": "OwnershipRenounced",
      "type": "event"
    },
    {
      "anonymous": false,
      "inputs": [
        {
          "indexed": true,
          "name": "previousOwner",
          "type": "address"
        },
        {
          "indexed": true,
          "name": "newOwner",
          "type": "address"
        }
      ],
      "name": "OwnershipTransferred",
      "type": "event"
    },
    {
      "anonymous": false,
      "inputs": [
        {
          "indexed": true,
          "name": "previousAdmin",
          "type": "address"
        }
      ],
      "name": "AdminshipRenounced",
      "type": "event"
    },
    {
      "anonymous": false,
      "inputs": [
        {
          "indexed": true,
          "name": "previousAdmin",
          "type": "address"
        },
        {
          "indexed": true,
          "name": "newAdmin",
          "type": "address"
        }
      ],
      "name": "AdminshipTransferred",
      "type": "event"
    },
    {
      "constant": true,
      "inputs": [],
      "name": "poolBalance",
      "outputs": [
        {
          "name": "",
          "type": "uint256"
        }
      ],
      "payable": false,
      "stateMutability": "view",
      "type": "function"
    },
    {
      "constant": true,
      "inputs": [
        {
          "name": "buyValue",
          "type": "uint256"
        }
      ],
      "name": "getBuy",
      "outputs": [
        {
          "name": "",
          "type": "uint256"
        }
      ],
      "payable": false,
      "stateMutability": "view",
      "type": "function"
    },
    {
      "constant": true,
      "inputs": [
        {
          "name": "sellAmount",
          "type": "uint256"
        }
      ],
      "name": "getSell",
      "outputs": [
        {
          "name": "",
          "type": "uint256"
        }
      ],
      "payable": false,
      "stateMutability": "view",
      "type": "function"
    },
    {
      "constant": false,
      "inputs": [
        {
          "name": "_paused",
          "type": "bool"
        }
      ],
      "name": "updatePaused",
      "outputs": [],
      "payable": false,
      "stateMutability": "nonpayable",
      "type": "function"
    },
    {
      "constant": false,
      "inputs": [
        {
          "name": "_reserveRatio",
          "type": "uint32"
        }
      ],
      "name": "updateReserveRatio",
      "outputs": [
        {
          "name": "",
          "type": "bool"
        }
      ],
      "payable": false,
      "stateMutability": "nonpayable",
      "type": "function"
    },
    {
      "constant": false,
      "inputs": [
        {
          "name": "_virtualSupply",
          "type": "uint256"
        }
      ],
      "name": "updateVirtualSupply",
      "outputs": [
        {
          "name": "",
          "type": "bool"
        }
      ],
      "payable": false,
      "stateMutability": "nonpayable",
      "type": "function"
    },
    {
      "constant": false,
      "inputs": [
        {
          "name": "_virtualBalance",
          "type": "uint256"
        }
      ],
      "name": "updateVirtualBalance",
      "outputs": [
        {
          "name": "",
          "type": "bool"
        }
      ],
      "payable": false,
      "stateMutability": "nonpayable",
      "type": "function"
    },
    {
      "constant": false,
      "inputs": [
        {
          "name": "_simpleCloversMarket",
          "type": "address"
        }
      ],
      "name": "updateSimpleCloversMarket",
      "outputs": [
        {
          "name": "",
          "type": "bool"
        }
      ],
      "payable": false,
      "stateMutability": "nonpayable",
      "type": "function"
    },
    {
      "constant": false,
      "inputs": [
        {
          "name": "_curationMarket",
          "type": "address"
        }
      ],
      "name": "updateCurationMarket",
      "outputs": [
        {
          "name": "",
          "type": "bool"
        }
      ],
      "payable": false,
      "stateMutability": "nonpayable",
      "type": "function"
    },
    {
      "constant": false,
      "inputs": [
        {
          "name": "_support",
          "type": "address"
        }
      ],
      "name": "updateSupport",
      "outputs": [
        {
          "name": "",
          "type": "bool"
        }
      ],
      "payable": false,
      "stateMutability": "nonpayable",
      "type": "function"
    },
    {
      "constant": false,
      "inputs": [],
      "name": "donate",
      "outputs": [],
      "payable": true,
      "stateMutability": "payable",
      "type": "function"
    },
    {
      "constant": false,
      "inputs": [
        {
          "name": "from",
          "type": "address"
        },
        {
          "name": "amount",
          "type": "uint256"
        }
      ],
      "name": "burn",
      "outputs": [],
      "payable": false,
      "stateMutability": "nonpayable",
      "type": "function"
    },
    {
      "constant": false,
      "inputs": [
        {
          "name": "from",
          "type": "address"
        },
        {
          "name": "to",
          "type": "address"
        },
        {
          "name": "amount",
          "type": "uint256"
        }
      ],
      "name": "transferFrom",
      "outputs": [],
      "payable": false,
      "stateMutability": "nonpayable",
      "type": "function"
    },
    {
      "constant": false,
      "inputs": [
        {
          "name": "buyer",
          "type": "address"
        }
      ],
      "name": "buy",
      "outputs": [
        {
          "name": "",
          "type": "bool"
        }
      ],
      "payable": true,
      "stateMutability": "payable",
      "type": "function"
    },
    {
      "constant": false,
      "inputs": [
        {
          "name": "sellAmount",
          "type": "uint256"
        }
      ],
      "name": "sell",
      "outputs": [
        {
          "name": "",
          "type": "bool"
        }
      ],
      "payable": false,
      "stateMutability": "nonpayable",
      "type": "function"
    }
  ],
  "bytecode": "0x60c0604052600360808190527f302e33000000000000000000000000000000000000000000000000000000000060a090815262000040916000919062000871565b503480156200004e57600080fd5b506040516020806200357583398101604090815290516001606060020a641c35fedd1502036021556001605e60020a646c3390ecc902036022556001606160020a640cf801476102036023556001605f60020a6431bdb23e1d02036024556001605b60020a6502fb1d8fe08302036025556001605a60020a6505b771955b3702036026556001605960020a650af67a93bb5102036027556001605860020a6515060c256cb302036028556001605860020a651428a2f98d7302036029556001605660020a654d51566397090203602a556001605560020a65944620b0e70f0203602b557011c592761c666fffffffffffffffffffff602c5570110a688680a757ffffffffffffffffffff602d55701056f1b5bedf77ffffffffffffffffffff602e55700faadceceeff8bffffffffffffffffffff602f55700f05dc6b27edadffffffffffffffffffff603055700e67a5a25da4107fffffffffffffffffff603155700dcff115b14eedffffffffffffffffffff603255700d3e7a392431239fffffffffffffffffff603355700cb2ff529eb71e4fffffffffffffffffff603455700c2d415c3db974afffffffffffffffffff603555700bad03e7d883f69bffffffffffffffffff603655700b320d03b2c343d5ffffffffffffffffff603755700abc25204e02828dffffffffffffffffff603855700a4b16f74ee4bb207fffffffffffffffff6039557009deaf736ac1f569ffffffffffffffffff603a55700976bd9952c7aa957fffffffffffffffff603b557009131271922eaa606fffffffffffffffff603c557008b380f3558668c46fffffffffffffffff603d55700857ddf0117efa215bffffffffffffffff603e556001608360020a03603f557007abbf6f6abb9d087fffffffffffffffff825570075af62cbac95f7dfa7fffffffffffffff60415570070d7fb7452e187ac13fffffffffffffff6042557006c3390ecc8af379295fffffffffffffff60435570067c00a3b07ffc01fd6fffffffffffffff604455700637b647c39cbb9d3d27ffffffffffffff6045557005f63b1fc104dbd39587ffffffffffffff6046557005b771955b36e12f7235ffffffffffffff60475570057b3d49dda84556d6f6ffffffffffffff60485570054183095b2c8ececf30ffffffffffffff60495570050a28be635ca2b888f77fffffffffffff604a557004d5156639708c9db33c3fffffffffffff604b557004a23105873875bd52dfdfffffffffffff604c55700471649d87199aa990756fffffffffffff604d557004429a21a029d4c1457cfbffffffffffff604e55700415bc6d6fb7dd71af2cb3ffffffffffff604f557003eab73b3bbfe282243ce1ffffffffffff6050557003c1771ac9fb6b4c18e229ffffffffffff605155700399e96897690418f785257fffffffffff605255700373fc456c53bb779bf0ea9fffffffffff60535570034f9e8e490c48e67e6ab8bfffffffffff60545570032cbfd4a7adc790560b3337ffffffffff60555570030b50570f6e5d2acca94613ffffffffff6056557002eb40f9f620fda6b56c2861ffffffffff6057557002cc8340ecb0d0f520a6af58ffffffffff6058557002af09481380a0a35cf1ba02ffffffffff605955700292c5bdd3b92ec810287b1b3fffffffff605a55700277abdcdab07d5a77ac6d6b9fffffffff605b5570025daf6654b1eaa55fd64df5efffffffff605c55700244c49c648baa98192dce88b7ffffffff605d5570022ce03cd5619a311b2471268bffffffff605e55700215f77c045fbe885654a44a0fffffffff605f556001608160020a036060557001eaefdbdaaee7421fc4d3ede5ffffffff6061557001d6bd8b2eb257df7e8ca57b09bfffffff6062557001c35fedd14b861eb0443f7f133fffffff6063557001b0ce43b322bcde4a56e8ada5afffffff60645570019f0028ec1fff007f5a195a39dfffffff60655570018ded91f0e72ee74f49b15ba527ffffff60665570017d8ec7f04136f4e5615fd41a63ffffff60675570016ddc6556cdb84bdc8d12d22e6fffffff60685570015ecf52776a1155b5bd8395814f7fffff60695570015060c256cb23b3b3cc3754cf40ffffff606a557001428a2f98d728ae223ddab715be3fffff606b5570013545598e5c23276ccf0ede68034fffff606c557001288c4161ce1d6f54b7f61081194fffff606d5570011c592761c666aa641d5a01a40f17ffff606e55700110a688680a7530515f3e6e6cfdcdffff606f557001056f1b5bedf75c6bcb2ce8aed428ffff6070556ffaadceceeff8a0890f3875f008277fff6071556ff05dc6b27edad306388a600f6ba0bfff6072556fe67a5a25da41063de1495d5b18cdbfff6073556fdcff115b14eedde6fc3aa5353f2e4fff6074556fd3e7a3924312399f9aae2e0f868f8fff6075556fcb2ff529eb71e41582cccd5a1ee26fff6076556fc2d415c3db974ab32a51840c0b67edff6077556fbad03e7d883f69ad5b0a186184e06bff6078556fb320d03b2c343d4829abd6075f0cc5ff6079556fabc25204e02828d73c6e80bcdb1a95bf607a556fa4b16f74ee4bb2040a1ec6c15fbbf2df607b556f9deaf736ac1f569deb1b5ae3f36c130f607c556f976bd9952c7aa957f5937d790ef65037607d556f9131271922eaa6064b73a22d0bd4f2bf607e556f8b380f3558668c46c91c49a2f8e967b9607f556f857ddf0117efa215952912839f6473e66080553360008181526081602052929092208054600160ff199091161790556082805460838054600160a060020a03909416600160a060020a031994851617905560a060020a60ff02199216909217167401000000000000000000000000000000000000000017905562000916565b828054600181600116156101000203166002900490600052602060002090601f016020900481019282601f10620008b457805160ff1916838001178555620008e4565b82800160010185558215620008e4579182015b82811115620008e4578251825591602001919060010190620008c7565b50620008f2929150620008f6565b5090565b6200091391905b80821115620008f25760008155600101620008fd565b90565b612c4f80620009266000396000f3006080604052600436106101aa5763ffffffff7c01000000000000000000000000000000000000000000000000000000006000350416627173c881146101b657806305598b3e146101f857806308cdc2a8146102265780630c7d5cd814610242578063119f87471461027057806314cdfccf146102ae57806323b872dd146102c657806324d7806c146102fd578063277b2f971461032b57806329a00e7c14610352578063429b62e51461037957806349f9b0f7146103a757806354fd4d50146103ce5780635be7cc16146104585780635c975abb1461048657806365098bb31461049b5780636fce9d88146104c9578063715018a6146104f757806372420f061461050c578063783f0e40146105215780638da5cb5b1461053f57806396365d4414610554578063975e4b2a146105695780639dc29fac1461057e578063b77d0df8146105af578063d010ed70146105c7578063d76bbd52146105f5578063dcd2af171461060a578063dde4a70b1461061f578063e4849b3214610637578063ed88c68e1461064f578063f088d54714610657578063f2fde38b14610678578063f32a547c146106a6575b6101b3336106be565b50005b3480156101c257600080fd5b506101e473ffffffffffffffffffffffffffffffffffffffff600435166109cf565b604080519115158252519081900360200190f35b34801561020457600080fd5b506101e473ffffffffffffffffffffffffffffffffffffffff60043516610a40565b34801561023257600080fd5b506102406004351515610ab1565b005b34801561024e57600080fd5b50610257610b1f565b6040805163ffffffff9092168252519081900360200190f35b34801561027c57600080fd5b50610285610b2b565b6040805173ffffffffffffffffffffffffffffffffffffffff9092168252519081900360200190f35b3480156102ba57600080fd5b506101e4600435610b47565b3480156102d257600080fd5b5061024073ffffffffffffffffffffffffffffffffffffffff60043581169060243516604435610b77565b34801561030957600080fd5b506101e473ffffffffffffffffffffffffffffffffffffffff60043516610c96565b34801561033757600080fd5b50610340610cc1565b60408051918252519081900360200190f35b34801561035e57600080fd5b5061034060043560243563ffffffff60443516606435610cc7565b34801561038557600080fd5b506101e473ffffffffffffffffffffffffffffffffffffffff60043516610d95565b3480156103b357600080fd5b5061034060043560243563ffffffff60443516606435610daa565b3480156103da57600080fd5b506103e3610e9b565b6040805160208082528351818301528351919283929083019185019080838360005b8381101561041d578181015183820152602001610405565b50505050905090810190601f16801561044a5780820380516001836020036101000a031916815260200191505b509250505060405180910390f35b34801561046457600080fd5b5061024073ffffffffffffffffffffffffffffffffffffffff60043516610f47565b34801561049257600080fd5b506101e4610f71565b3480156104a757600080fd5b5061034060043563ffffffff6024358116906044359060643516608435610f92565b3480156104d557600080fd5b5061024073ffffffffffffffffffffffffffffffffffffffff6004351661108f565b34801561050357600080fd5b5061024061113a565b34801561051857600080fd5b506102856111cd565b34801561052d57600080fd5b506101e463ffffffff600435166111e9565b34801561054b57600080fd5b5061028561124a565b34801561056057600080fd5b50610340611266565b34801561057557600080fd5b50610285611283565b34801561058a57600080fd5b5061024073ffffffffffffffffffffffffffffffffffffffff6004351660243561129f565b3480156105bb57600080fd5b506101e460043561135a565b3480156105d357600080fd5b506101e473ffffffffffffffffffffffffffffffffffffffff6004351661138a565b34801561060157600080fd5b506102856113fb565b34801561061657600080fd5b50610340611417565b34801561062b57600080fd5b5061034060043561141d565b34801561064357600080fd5b506101e4600435611507565b61024061182a565b6101e473ffffffffffffffffffffffffffffffffffffffff600435166106be565b34801561068457600080fd5b5061024073ffffffffffffffffffffffffffffffffffffffff6004351661187d565b3480156106b257600080fd5b506103406004356118aa565b608254600090819074010000000000000000000000000000000000000000900460ff161580610704575060825473ffffffffffffffffffffffffffffffffffffffff1633145b8061071e57503260009081526081602052604090205460ff165b151561078b57604080517f08c379a000000000000000000000000000000000000000000000000000000000815260206004820152601b60248201527f436f6e7472616374206d757374206e6f74206265207061757365640000000000604482015290519081900360640190fd5b6000341161079857600080fd5b6107a1346118aa565b9050600081116107b057600080fd5b608354604080517f40c10f1900000000000000000000000000000000000000000000000000000000815273ffffffffffffffffffffffffffffffffffffffff868116600483015260248201859052915191909216916340c10f199160448083019260209291908290030181600087803b15801561082c57600080fd5b505af1158015610840573d6000803e3d6000fd5b505050506040513d602081101561085657600080fd5b5051151561086357600080fd5b60835460405173ffffffffffffffffffffffffffffffffffffffff909116903480156108fc02916000818181858888f193505050501580156108a9573d6000803e3d6000fd5b507f064fb1933e186be0b289a87e98518dc18cc9856ecbc9f1353d1a138ddf733ec58382346108d6611266565b608360009054906101000a900473ffffffffffffffffffffffffffffffffffffffff1673ffffffffffffffffffffffffffffffffffffffff166318160ddd6040518163ffffffff167c0100000000000000000000000000000000000000000000000000000000028152600401602060405180830381600087803b15801561095c57600080fd5b505af1158015610970573d6000803e3d6000fd5b505050506040513d602081101561098657600080fd5b50516040805173ffffffffffffffffffffffffffffffffffffffff909616865260208601949094528484019290925260608401526080830152519081900360a00190a150919050565b60825460009073ffffffffffffffffffffffffffffffffffffffff1633146109f657600080fd5b506085805473ffffffffffffffffffffffffffffffffffffffff83167fffffffffffffffffffffffff00000000000000000000000000000000000000009091161790556001919050565b60825460009073ffffffffffffffffffffffffffffffffffffffff163314610a6757600080fd5b506086805473ffffffffffffffffffffffffffffffffffffffff83167fffffffffffffffffffffffff00000000000000000000000000000000000000009091161790556001919050565b60825473ffffffffffffffffffffffffffffffffffffffff163314610ad557600080fd5b6082805491151574010000000000000000000000000000000000000000027fffffffffffffffffffffff00ffffffffffffffffffffffffffffffffffffffff909216919091179055565b60895463ffffffff1681565b60865473ffffffffffffffffffffffffffffffffffffffff1681565b60825460009073ffffffffffffffffffffffffffffffffffffffff163314610b6e57600080fd5b50608755600190565b60845473ffffffffffffffffffffffffffffffffffffffff16331480610bb4575060855473ffffffffffffffffffffffffffffffffffffffff1633145b80610bd6575060865473ffffffffffffffffffffffffffffffffffffffff1633145b1515610be157600080fd5b608354604080517f23b872dd00000000000000000000000000000000000000000000000000000000815273ffffffffffffffffffffffffffffffffffffffff8681166004830152858116602483015260448201859052915191909216916323b872dd9160648083019260209291908290030181600087803b158015610c6557600080fd5b505af1158015610c79573d6000803e3d6000fd5b505050506040513d6020811015610c8f57600080fd5b5050505050565b73ffffffffffffffffffffffffffffffffffffffff1660009081526081602052604090205460ff1690565b60875481565b60008060008060008089118015610cde5750600088115b8015610cf0575060008763ffffffff16115b8015610d055750620f424063ffffffff881611155b1515610d1057600080fd5b851515610d205760009450610d89565b63ffffffff8716620f42401415610d4d5787610d3c8a88611952565b811515610d4557fe5b049450610d89565b610d57868961197d565b9150610d68828989620f424061198c565b909450925060ff8316610d7b8a86611952565b9060020a9004905088810394505b50505050949350505050565b60816020526000908152604090205460ff1681565b60008060008060008060008a118015610dc35750600089115b8015610dd5575060008863ffffffff16115b8015610dea5750620f424063ffffffff891611155b8015610df65750898711155b1515610e0157600080fd5b861515610e115760009550610e8e565b89871415610e2157889550610e8e565b63ffffffff8816620f42401415610e4e5789610e3d8a89611952565b811515610e4657fe5b049550610e8e565b868a039250610e628a84620f42408b61198c565b9095509350610e718986611952565b91505060ff831660020a880284818303811515610e8a57fe5b0495505b5050505050949350505050565b6000805460408051602060026001851615610100027fffffffffffffffffffffffffffffffffffffffffffffffffffffffffffffffff0190941693909304601f81018490048402820184019092528181529291830182828015610f3f5780601f10610f1457610100808354040283529160200191610f3f565b820191906000526020600020905b815481529060010190602001808311610f2257829003601f168201915b505050505081565b3360009081526081602052604090205460ff161515610f6557600080fd5b610f6e81611a82565b50565b60825474010000000000000000000000000000000000000000900460ff1681565b60008060008060008060008b118015610fb1575060008a63ffffffff16115b8015610fc65750620f424063ffffffff8b1611155b8015610fd25750600089115b8015610fe4575060008863ffffffff16115b8015610ff95750620f424063ffffffff891611155b151561100457600080fd5b8763ffffffff168a63ffffffff16141561103d576110228b8861197d565b61102c8a89611952565b81151561103557fe5b049550611081565b6110478b8861197d565b9250611055838c8c8b61198c565b90955093506110648986611952565b91505060ff831660020a88028481830381151561107d57fe5b0495505b505050505095945050505050565b3360009081526081602052604090205460ff1615156110ad57600080fd5b60405173ffffffffffffffffffffffffffffffffffffffff8216907f1a2dbeec1a0714342f862f53c671a69a6cb438bf5aa44fc01a7ccff6fbde85ef90600090a273ffffffffffffffffffffffffffffffffffffffff16600090815260816020526040902080547fffffffffffffffffffffffffffffffffffffffffffffffffffffffffffffff00169055565b60825473ffffffffffffffffffffffffffffffffffffffff16331461115e57600080fd5b60825460405173ffffffffffffffffffffffffffffffffffffffff909116907ff8df31144d9c2f0f6b59d69b8b98abd5459d07f2742c4df920b25aae33c6482090600090a2608280547fffffffffffffffffffffffff0000000000000000000000000000000000000000169055565b60855473ffffffffffffffffffffffffffffffffffffffff1681565b60825460009073ffffffffffffffffffffffffffffffffffffffff16331461121057600080fd5b506089805463ffffffff83167fffffffffffffffffffffffffffffffffffffffffffffffffffffffff000000009091161790556001919050565b60825473ffffffffffffffffffffffffffffffffffffffff1681565b60835473ffffffffffffffffffffffffffffffffffffffff163190565b60845473ffffffffffffffffffffffffffffffffffffffff1681565b60845473ffffffffffffffffffffffffffffffffffffffff1633146112c357600080fd5b608354604080517f9dc29fac00000000000000000000000000000000000000000000000000000000815273ffffffffffffffffffffffffffffffffffffffff85811660048301526024820185905291519190921691639dc29fac91604480830192600092919082900301818387803b15801561133e57600080fd5b505af1158015611352573d6000803e3d6000fd5b505050505050565b60825460009073ffffffffffffffffffffffffffffffffffffffff16331461138157600080fd5b50608855600190565b60825460009073ffffffffffffffffffffffffffffffffffffffff1633146113b157600080fd5b506084805473ffffffffffffffffffffffffffffffffffffffff83167fffffffffffffffffffffffff00000000000000000000000000000000000000009091161790556001919050565b60835473ffffffffffffffffffffffffffffffffffffffff1681565b60885481565b60006115016114df608360009054906101000a900473ffffffffffffffffffffffffffffffffffffffff1673ffffffffffffffffffffffffffffffffffffffff166318160ddd6040518163ffffffff167c0100000000000000000000000000000000000000000000000000000000028152600401602060405180830381600087803b1580156114ab57600080fd5b505af11580156114bf573d6000803e3d6000fd5b505050506040513d60208110156114d557600080fd5b505160875461197d565b6114f26114ea611266565b60885461197d565b60895463ffffffff1685610daa565b92915050565b608254600090819074010000000000000000000000000000000000000000900460ff16158061154d575060825473ffffffffffffffffffffffffffffffffffffffff1633145b8061156757503260009081526081602052604090205460ff165b15156115d457604080517f08c379a000000000000000000000000000000000000000000000000000000000815260206004820152601b60248201527f436f6e7472616374206d757374206e6f74206265207061757365640000000000604482015290519081900360640190fd5b600083116115e157600080fd5b608354604080517f70a082310000000000000000000000000000000000000000000000000000000081523360048201529051859273ffffffffffffffffffffffffffffffffffffffff16916370a082319160248083019260209291908290030181600087803b15801561165357600080fd5b505af1158015611667573d6000803e3d6000fd5b505050506040513d602081101561167d57600080fd5b5051101561168a57600080fd5b6116938361141d565b9050600081116116a257600080fd5b6116aa611266565b8111156116b657600080fd5b60835473ffffffffffffffffffffffffffffffffffffffff16318111156116dc57600080fd5b608354604080517f9dc29fac00000000000000000000000000000000000000000000000000000000815233600482015260248101869052905173ffffffffffffffffffffffffffffffffffffffff90921691639dc29fac9160448082019260009290919082900301818387803b15801561175557600080fd5b505af1158015611769573d6000803e3d6000fd5b5050608354604080517f1cc1472d00000000000000000000000000000000000000000000000000000000815233600482015260248101869052905173ffffffffffffffffffffffffffffffffffffffff9092169350631cc1472d925060448082019260009290919082900301818387803b1580156117e657600080fd5b505af11580156117fa573d6000803e3d6000fd5b505050507f483f8aec0fd892ac72ad1ba8d0e9c9e73db59c12d263fd71de480b5b3deeae3c3384836108d6611266565b6000341161183757600080fd5b60835460405173ffffffffffffffffffffffffffffffffffffffff909116903480156108fc02916000818181858888f19350505050158015610f6e573d6000803e3d6000fd5b60825473ffffffffffffffffffffffffffffffffffffffff1633146118a157600080fd5b610f6e81611b36565b6000611501611938608360009054906101000a900473ffffffffffffffffffffffffffffffffffffffff1673ffffffffffffffffffffffffffffffffffffffff166318160ddd6040518163ffffffff167c0100000000000000000000000000000000000000000000000000000000028152600401602060405180830381600087803b1580156114ab57600080fd5b6119436114ea611266565b60895463ffffffff1685610cc7565b600082820283158061196e575082848281151561196b57fe5b04145b151561197657fe5b9392505050565b60008282018381101561197657fe5b600080808080807002000000000000000000000000000000008a106119b057600080fd5b886f800000000000000000000000000000008b028115156119cd57fe5b04925070015bf0a8b1457695355fb8ac404e7a79e38310156119f9576119f283611be6565b9350611a05565b611a02836120da565b93505b8663ffffffff168863ffffffff168502811515611a1e57fe5b049150700800000000000000000000000000000000821015611a4e57611a4382612219565b607f95509550611a75565b611a57826126fe565b9050611a6f60ff607f8390031660020a830482612790565b81955095505b5050505094509492505050565b73ffffffffffffffffffffffffffffffffffffffff81161515611aa457600080fd5b60405173ffffffffffffffffffffffffffffffffffffffff82169033907f2931ebb3d190545dcf6801c37aa686b74f2e1000e753d0fac6e471a2aa5a621390600090a373ffffffffffffffffffffffffffffffffffffffff16600090815260816020526040902080547fffffffffffffffffffffffffffffffffffffffffffffffffffffffffffffff00166001179055565b73ffffffffffffffffffffffffffffffffffffffff81161515611b5857600080fd5b60825460405173ffffffffffffffffffffffffffffffffffffffff8084169216907f8be0079c531659141344cd1fd0a4f28419497f9722a3daafe3b4186f6b6457e090600090a3608280547fffffffffffffffffffffffff00000000000000000000000000000000000000001673ffffffffffffffffffffffffffffffffffffffff92909216919091179055565b6000808080806fd3094c70f034de4b96ff7d5b6f99fcd88610611c41576f4000000000000000000000000000000093909301926fd3094c70f034de4b96ff7d5b6f99fcd86f8000000000000000000000000000000087020495505b6fa45af1e1f40c333b3de1db4dd55f29a78610611c96576f2000000000000000000000000000000093909301926fa45af1e1f40c333b3de1db4dd55f29a76f8000000000000000000000000000000087020495505b6f910b022db7ae67ce76b441c27035c6a18610611ceb576f1000000000000000000000000000000093909301926f910b022db7ae67ce76b441c27035c6a16f8000000000000000000000000000000087020495505b6f88415abbe9a76bead8d00cf112e4d4a88610611d40576f0800000000000000000000000000000093909301926f88415abbe9a76bead8d00cf112e4d4a86f8000000000000000000000000000000087020495505b6f84102b00893f64c705e841d5d4064bd38610611d95576f0400000000000000000000000000000093909301926f84102b00893f64c705e841d5d4064bd36f8000000000000000000000000000000087020495505b6f8204055aaef1c8bd5c3259f4822735a28610611dea576f0200000000000000000000000000000093909301926f8204055aaef1c8bd5c3259f4822735a26f8000000000000000000000000000000087020495505b6f810100ab00222d861931c15e39b44e998610611e3f576f0100000000000000000000000000000093909301926f810100ab00222d861931c15e39b44e996f8000000000000000000000000000000087020495505b6f808040155aabbbe9451521693554f7338610611e93576e80000000000000000000000000000093909301926f808040155aabbbe9451521693554f7336f8000000000000000000000000000000087020495505b7fffffffffffffffffffffffffffffffff80000000000000000000000000000000860192508291506f8000000000000000000000000000000082800204905070010000000000000000000000000000000083810383020493909301926f800000000000000000000000000000008282020491507002000000000000000000000000000000006faaaaaaaaaaaaaaaaaaaaaaaaaaaaaaaa84900383020493909301926f800000000000000000000000000000008282020491507003000000000000000000000000000000006f9999999999999999999999999999999984900383020493909301926f800000000000000000000000000000008282020491507004000000000000000000000000000000006f9249249249249249249249249249249284900383020493909301926f800000000000000000000000000000008282020491507005000000000000000000000000000000006f8e38e38e38e38e38e38e38e38e38e38e84900383020493909301926f800000000000000000000000000000008282020491507006000000000000000000000000000000006f8ba2e8ba2e8ba2e8ba2e8ba2e8ba2e8b84900383020493909301926f800000000000000000000000000000008282020491507007000000000000000000000000000000006f89d89d89d89d89d89d89d89d89d89d8984900383020493909301926f800000000000000000000000000000008282020491507008000000000000000000000000000000006f888888888888888888888888888888888490038302049390930195945050505050565b60008080807001000000000000000000000000000000008510612136576121126f800000000000000000000000000000008604612bb3565b60ff8116600281900a909604956f8000000000000000000000000000000002935091505b6f800000000000000000000000000000008511156121e95750607f5b60008160ff1611156121e9576f8000000000000000000000000000000085800204945070010000000000000000000000000000000085106121c2576002948590049460ff7fffffffffffffffffffffffffffffffffffffffffffffffffffffffffffffffff830116900a92909201915b7fffffffffffffffffffffffffffffffffffffffffffffffffffffffffffffffff01612152565b6f05b9de1d10bf4103d647b0955897ba806f03f80fe03f80fe03f80fe03f80fe03f884020493505b505050919050565b6000670168244fdac780006f800000000000000000000000000000006f0fffffffffffffffffffffffffffffff84168080028290048082028390048083028490049485026710e1b3be415a00009092026705a0913f6b1e000091909102010192909181830204905080664807432bc1800002830192506f800000000000000000000000000000008282028115156122ac57fe5b04905080660c0135dca0400002830192506f800000000000000000000000000000008282028115156122da57fe5b049050806601b707b1cdc00002830192506f8000000000000000000000000000000082820281151561230857fe5b049050806536e0f639b80002830192506f8000000000000000000000000000000082820281151561233557fe5b04905080650618fee9f80002830192506f8000000000000000000000000000000082820281151561236257fe5b04905080649c197dcc0002830192506f8000000000000000000000000000000082820281151561238e57fe5b04905080640e30dce40002830192506f800000000000000000000000000000008282028115156123ba57fe5b0490508064012ebd130002830192506f800000000000000000000000000000008282028115156123e657fe5b049050806317499f0002830192506f8000000000000000000000000000000082820281151561241157fe5b049050806301a9d48002830192506f8000000000000000000000000000000082820281151561243c57fe5b04905080621c638002830192506f8000000000000000000000000000000082820281151561246657fe5b049050806201c63802830192506f8000000000000000000000000000000082820281151561249057fe5b04905080611ab802830192506f800000000000000000000000000000008282028115156124b957fe5b0490508061017c02830192506f800000000000000000000000000000008282028115156124e257fe5b04905080601402830192506f8000000000000000000000000000000082820281151561250a57fe5b6721c3677c82b400009190049384010482016f80000000000000000000000000000000019290506f100000000000000000000000000000008516156125735770018ebef9eac820ae8682b9793ac6d1e7767001c3d6a24ed82218787d624d3e5eba95f984020492505b6f200000000000000000000000000000008516156125b5577001368b2fc6f9609fe7aceb46aa619baed470018ebef9eac820ae8682b9793ac6d1e77884020492505b6f400000000000000000000000000000008516156125f6576fbc5ab1b16779be3575bd8f0520a9f21f7001368b2fc6f9609fe7aceb46aa619baed584020492505b6f80000000000000000000000000000000851615612636576f454aaa8efe072e7f6ddbab84b40a55c96fbc5ab1b16779be3575bd8f0520a9f21e84020492505b700100000000000000000000000000000000851615612677576f0960aadc109e7a3bf4578099615711ea6f454aaa8efe072e7f6ddbab84b40a55c584020492505b7002000000000000000000000000000000008516156126b7576e2bf84208204f5977f9a8cf01fdce3d6f0960aadc109e7a3bf4578099615711d784020492505b7004000000000000000000000000000000008516156126f5576d03c6ab775dd0b95b4cbee7e65d116e2bf84208204f5977f9a8cf01fdc30784020492505b50909392505050565b60006020607f825b8160ff168360010160ff16101561274b57600260ff8484011604905084600160ff83166080811061273357fe5b01541061274257809250612746565b8091505b612706565b84600160ff84166080811061275c57fe5b01541061276b57819350612211565b84600160ff85166080811061277c57fe5b01541061278b57829350612211565b600080fd5b6000806000849150600090508360ff168583029060020a90049150816f03442c4e6074a82f1797f72ac000000002810190508360ff168583029060020a90049150816f0116b96f757c380fb287fd0e4000000002810190508360ff168583029060020a90049150816e45ae5bdd5f0e03eca1ff439000000002810190508360ff168583029060020a90049150816e0defabf91302cd95b9ffda5000000002810190508360ff168583029060020a90049150816e02529ca9832b22439efff9b800000002810190508360ff168583029060020a90049150816d54f1cf12bd04e516b6da8800000002810190508360ff168583029060020a90049150816d0a9e39e257a09ca2d6db5100000002810190508360ff168583029060020a90049150816d012e066e7b839fa050c30900000002810190508360ff168583029060020a90049150816c1e33d7d926c329a1ad1a80000002810190508360ff168583029060020a90049150816c02bee513bdb4a6b19b5f80000002810190508360ff168583029060020a90049150816b3a9316fa79b88eccf2a0000002810190508360ff168583029060020a90049150816b048177ebe1fa81237520000002810190508360ff168583029060020a90049150816a5263fe90242dcbacf0000002810190508360ff168583029060020a90049150816a057e22099c030d9410000002810190508360ff168583029060020a90049150816957e22099c030d941000002810190508360ff168583029060020a900491508169052b6b5456997631000002810190508360ff168583029060020a9004915081684985f67696bf74800002810190508360ff168583029060020a90049150816803dea12ea99e49800002810190508360ff168583029060020a90049150816731880f2214b6e00002810190508360ff168583029060020a900491508167025bcff56eb3600002810190508360ff168583029060020a9004915081661b722e10ab100002810190508360ff168583029060020a90049150816601317c7007700002810190508360ff168583029060020a9004915081650cba84aafa0002810190508360ff168583029060020a90049150816482573a0a0002810190508360ff168583029060020a90049150816405035ad90002810190508360ff168583029060020a9004915081632f881b0002810190508360ff168583029060020a90049150816301b2934002810190508360ff168583029060020a9004915081620efc4002810190508360ff168583029060020a9004915081617fe002810190508360ff168583029060020a900491508161042002810190508360ff168583029060020a9004915081602102810190508360ff168583029060020a9004915081600102810190508360ff1660019060020a02856f0688589cc0e9505e2f2fee558000000083811515612ba757fe5b04010195945050505050565b60008080610100841015612be2575b6001841115612bdd5760029093049260019190910190612bc2565b612c1c565b5060805b60008160ff161115612c1c5760ff811660020a8410612c0f5760ff811660020a90930492908117905b600260ff90911604612be6565b50929150505600a165627a7a72305820bd1ddb0bb7571c77bb7e6aabf02fe3d5a41afbf721f5eb39a749accf42641bed0029",
  "source": "pragma solidity ^0.4.18;\n\n/**\n* The ClubTokenController is a replaceable endpoint for minting and unminting ClubToken.sol\n*/\n\n\nimport './ClubToken.sol';\nimport \"bancor-contracts/solidity/contracts/converter/BancorFormula.sol\";\nimport './helpers/Admin.sol';\nimport 'zeppelin-solidity/contracts/ownership/Ownable.sol';\n\ncontract ClubTokenController is BancorFormula, Admin, Ownable {\n    event Buy(address buyer, uint256 tokens, uint256 value, uint256 poolBalance, uint256 tokenSupply);\n    event Sell(address seller, uint256 tokens, uint256 value, uint256 poolBalance, uint256 tokenSupply);\n\n    bool public paused;\n    address public clubToken;\n    address public simpleCloversMarket;\n    address public curationMarket;\n    address public support;\n\n    /* uint256 public poolBalance; */\n    uint256 public virtualSupply;\n    uint256 public virtualBalance;\n    uint32 public reserveRatio; // represented in ppm, 1-1000000\n\n    constructor(address _clubToken) public {\n        clubToken = _clubToken;\n        paused = true;\n    }\n\n    function () public payable {\n        buy(msg.sender);\n    }\n\n    modifier notPaused() {\n        require(!paused || owner == msg.sender || admins[tx.origin], \"Contract must not be paused\");\n        _;\n    }\n\n    function poolBalance() public constant returns(uint256) {\n        return clubToken.balance;\n    }\n\n    /**\n    * @dev gets the amount of tokens returned from spending Eth\n    * @param buyValue The amount of Eth to be spent\n    * @return A uint256 representing the amount of tokens gained in exchange for the Eth.\n    */\n    function getBuy(uint256 buyValue) public constant returns(uint256) {\n        return calculatePurchaseReturn(\n            safeAdd(ClubToken(clubToken).totalSupply(), virtualSupply),\n            safeAdd(poolBalance(), virtualBalance),\n            reserveRatio,\n            buyValue);\n    }\n\n\n    /**\n    * @dev gets the amount of Eth returned from selling tokens\n    * @param sellAmount The amount of tokens to be sold\n    * @return A uint256 representing the amount of Eth gained in exchange for the tokens.\n    */\n\n    function getSell(uint256 sellAmount) public constant returns(uint256) {\n        return calculateSaleReturn(\n            safeAdd(ClubToken(clubToken).totalSupply(), virtualSupply),\n            safeAdd(poolBalance(), virtualBalance),\n            reserveRatio,\n            sellAmount);\n    }\n\n    function updatePaused(bool _paused) public onlyOwner {\n        paused = _paused;\n    }\n\n    /**\n    * @dev updates the Reserve Ratio variable\n    * @param _reserveRatio The reserve ratio that determines the curve\n    * @return A boolean representing whether or not the update was successful.\n    */\n    function updateReserveRatio(uint32 _reserveRatio) public onlyOwner returns(bool){\n        reserveRatio = _reserveRatio;\n        return true;\n    }\n\n    /**\n    * @dev updates the Virtual Supply variable\n    * @param _virtualSupply The virtual supply of tokens used for calculating buys and sells\n    * @return A boolean representing whether or not the update was successful.\n    */\n    function updateVirtualSupply(uint256 _virtualSupply) public onlyOwner returns(bool){\n        virtualSupply = _virtualSupply;\n        return true;\n    }\n\n    /**\n    * @dev updates the Virtual Balance variable\n    * @param _virtualBalance The virtual balance of the contract used for calculating buys and sells\n    * @return A boolean representing whether or not the update was successful.\n    */\n    function updateVirtualBalance(uint256 _virtualBalance) public onlyOwner returns(bool){\n        virtualBalance = _virtualBalance;\n        return true;\n    }\n    /**\n    * @dev updates the poolBalance\n    * @param _poolBalance The eth balance of ClubToken.sol\n    * @return A boolean representing whether or not the update was successful.\n    */\n    /* function updatePoolBalance(uint256 _poolBalance) public onlyOwner returns(bool){\n        poolBalance = _poolBalance;\n        return true;\n    } */\n\n    /**\n    * @dev updates the SimpleCloversMarket address\n    * @param _simpleCloversMarket The address of the simpleCloversMarket\n    * @return A boolean representing whether or not the update was successful.\n    */\n    function updateSimpleCloversMarket(address _simpleCloversMarket) public onlyOwner returns(bool){\n        simpleCloversMarket = _simpleCloversMarket;\n        return true;\n    }\n\n    /**\n    * @dev updates the CurationMarket address\n    * @param _curationMarket The address of the curationMarket\n    * @return A boolean representing whether or not the update was successful.\n    */\n    function updateCurationMarket(address _curationMarket) public onlyOwner returns(bool){\n        curationMarket = _curationMarket;\n        return true;\n    }\n\n    /**\n    * @dev updates the Support address\n    * @param _support The address of the Support\n    * @return A boolean representing whether or not the update was successful.\n    */\n    function updateSupport(address _support) public onlyOwner returns(bool){\n        support = _support;\n        return true;\n    }\n\n    /**\n    * @dev donate Donate Eth to the poolBalance without increasing the totalSupply\n    */\n    function donate() public payable {\n        require(msg.value > 0);\n        /* poolBalance = safeAdd(poolBalance, msg.value); */\n        clubToken.transfer(msg.value);\n    }\n\n    function burn(address from, uint256 amount) public {\n        require(msg.sender == simpleCloversMarket);\n        ClubToken(clubToken).burn(from, amount);\n    }\n\n    function transferFrom(address from, address to, uint256 amount) public {\n        require(msg.sender == simpleCloversMarket || msg.sender == curationMarket || msg.sender == support);\n        ClubToken(clubToken).transferFrom(from, to, amount);\n    }\n\n    /**\n    * @dev buy Buy ClubTokens with Eth\n    * @param buyer The address that should receive the new tokens\n    */\n    function buy(address buyer) public payable notPaused returns(bool) {\n        require(msg.value > 0);\n        uint256 tokens = getBuy(msg.value);\n        require(tokens > 0);\n        require(ClubToken(clubToken).mint(buyer, tokens));\n        /* poolBalance = safeAdd(poolBalance, msg.value); */\n        clubToken.transfer(msg.value);\n        emit Buy(buyer, tokens, msg.value, poolBalance(), ClubToken(clubToken).totalSupply());\n    }\n\n\n    /**\n    * @dev sell Sell ClubTokens for Eth\n    * @param sellAmount The amount of tokens to sell\n    */\n    function sell(uint256 sellAmount) public notPaused returns(bool) {\n        require(sellAmount > 0);\n        require(ClubToken(clubToken).balanceOf(msg.sender) >= sellAmount);\n        uint256 saleReturn = getSell(sellAmount);\n        require(saleReturn > 0);\n        require(saleReturn <= poolBalance());\n        require(saleReturn <= clubToken.balance);\n        ClubToken(clubToken).burn(msg.sender, sellAmount);\n        /* poolBalance = safeSub(poolBalance, saleReturn); */\n        ClubToken(clubToken).moveEth(msg.sender, saleReturn);\n        emit Sell(msg.sender, sellAmount, saleReturn, poolBalance(), ClubToken(clubToken).totalSupply());\n    }\n\n\n }\n",
  "sourcePath": "/home/billy/GitHub.com/clovers-network/clovers-contracts/contracts/ClubTokenController.sol",
  "compiler": {
    "name": "solc",
    "version": "0.4.24+commit.e67f0147.Emscripten.clang"
  },
  "schemaVersion": "2.0.1",
  "updatedAt": "2019-08-17T12:50:02.073Z"
}