{
  "contractName": "ClubToken",
  "abi": [
    {
      "constant": true,
      "inputs": [],
      "name": "mintingFinished",
      "outputs": [
        {
          "name": "",
          "type": "bool"
        }
      ],
      "payable": false,
      "stateMutability": "view",
      "type": "function"
    },
    {
      "constant": true,
      "inputs": [],
      "name": "name",
      "outputs": [
        {
          "name": "",
          "type": "string"
        }
      ],
      "payable": false,
      "stateMutability": "view",
      "type": "function"
    },
    {
      "constant": false,
      "inputs": [
        {
          "name": "_spender",
          "type": "address"
        },
        {
          "name": "_value",
          "type": "uint256"
        }
      ],
      "name": "approve",
      "outputs": [
        {
          "name": "",
          "type": "bool"
        }
      ],
      "payable": false,
      "stateMutability": "nonpayable",
      "type": "function"
    },
    {
      "constant": true,
      "inputs": [],
      "name": "cloversController",
      "outputs": [
        {
          "name": "",
          "type": "address"
        }
      ],
      "payable": false,
      "stateMutability": "view",
      "type": "function"
    },
    {
      "constant": true,
      "inputs": [],
      "name": "totalSupply",
      "outputs": [
        {
          "name": "",
          "type": "uint256"
        }
      ],
      "payable": false,
      "stateMutability": "view",
      "type": "function"
    },
    {
      "constant": true,
      "inputs": [],
      "name": "decimals",
      "outputs": [
        {
          "name": "",
          "type": "uint8"
        }
      ],
      "payable": false,
      "stateMutability": "view",
      "type": "function"
    },
    {
      "constant": false,
      "inputs": [
        {
          "name": "_to",
          "type": "address"
        },
        {
          "name": "_amount",
          "type": "uint256"
        }
      ],
      "name": "mint",
      "outputs": [
        {
          "name": "",
          "type": "bool"
        }
      ],
      "payable": false,
      "stateMutability": "nonpayable",
      "type": "function"
    },
    {
      "constant": false,
      "inputs": [
        {
          "name": "_spender",
          "type": "address"
        },
        {
          "name": "_subtractedValue",
          "type": "uint256"
        }
      ],
      "name": "decreaseApproval",
      "outputs": [
        {
          "name": "",
          "type": "bool"
        }
      ],
      "payable": false,
      "stateMutability": "nonpayable",
      "type": "function"
    },
    {
      "constant": true,
      "inputs": [
        {
          "name": "_owner",
          "type": "address"
        }
      ],
      "name": "balanceOf",
      "outputs": [
        {
          "name": "",
          "type": "uint256"
        }
      ],
      "payable": false,
      "stateMutability": "view",
      "type": "function"
    },
    {
      "constant": false,
      "inputs": [],
      "name": "renounceOwnership",
      "outputs": [],
      "payable": false,
      "stateMutability": "nonpayable",
      "type": "function"
    },
    {
      "constant": false,
      "inputs": [],
      "name": "finishMinting",
      "outputs": [
        {
          "name": "",
          "type": "bool"
        }
      ],
      "payable": false,
      "stateMutability": "nonpayable",
      "type": "function"
    },
    {
      "constant": true,
      "inputs": [],
      "name": "owner",
      "outputs": [
        {
          "name": "",
          "type": "address"
        }
      ],
      "payable": false,
      "stateMutability": "view",
      "type": "function"
    },
    {
      "constant": true,
      "inputs": [],
      "name": "symbol",
      "outputs": [
        {
          "name": "",
          "type": "string"
        }
      ],
      "payable": false,
      "stateMutability": "view",
      "type": "function"
    },
    {
      "constant": true,
      "inputs": [],
      "name": "clubTokenController",
      "outputs": [
        {
          "name": "",
          "type": "address"
        }
      ],
      "payable": false,
      "stateMutability": "view",
      "type": "function"
    },
    {
      "constant": false,
      "inputs": [
        {
          "name": "_to",
          "type": "address"
        },
        {
          "name": "_value",
          "type": "uint256"
        }
      ],
      "name": "transfer",
      "outputs": [
        {
          "name": "",
          "type": "bool"
        }
      ],
      "payable": false,
      "stateMutability": "nonpayable",
      "type": "function"
    },
    {
      "constant": false,
      "inputs": [
        {
          "name": "_spender",
          "type": "address"
        },
        {
          "name": "_addedValue",
          "type": "uint256"
        }
      ],
      "name": "increaseApproval",
      "outputs": [
        {
          "name": "",
          "type": "bool"
        }
      ],
      "payable": false,
      "stateMutability": "nonpayable",
      "type": "function"
    },
    {
      "constant": true,
      "inputs": [
        {
          "name": "_owner",
          "type": "address"
        },
        {
          "name": "_spender",
          "type": "address"
        }
      ],
      "name": "allowance",
      "outputs": [
        {
          "name": "",
          "type": "uint256"
        }
      ],
      "payable": false,
      "stateMutability": "view",
      "type": "function"
    },
    {
      "constant": false,
      "inputs": [
        {
          "name": "_newOwner",
          "type": "address"
        }
      ],
      "name": "transferOwnership",
      "outputs": [],
      "payable": false,
      "stateMutability": "nonpayable",
      "type": "function"
    },
    {
      "inputs": [
        {
          "name": "_name",
          "type": "string"
        },
        {
          "name": "_symbol",
          "type": "string"
        },
        {
          "name": "_decimals",
          "type": "uint8"
        }
      ],
      "payable": false,
      "stateMutability": "nonpayable",
      "type": "constructor"
    },
    {
      "payable": true,
      "stateMutability": "payable",
      "type": "fallback"
    },
    {
      "anonymous": false,
      "inputs": [
        {
          "indexed": true,
          "name": "burner",
          "type": "address"
        },
        {
          "indexed": false,
          "name": "value",
          "type": "uint256"
        }
      ],
      "name": "Burn",
      "type": "event"
    },
    {
      "anonymous": false,
      "inputs": [
        {
          "indexed": true,
          "name": "to",
          "type": "address"
        },
        {
          "indexed": false,
          "name": "amount",
          "type": "uint256"
        }
      ],
      "name": "Mint",
      "type": "event"
    },
    {
      "anonymous": false,
      "inputs": [],
      "name": "MintFinished",
      "type": "event"
    },
    {
      "anonymous": false,
      "inputs": [
        {
          "indexed": true,
          "name": "previousOwner",
          "type": "address"
        }
      ],
      "name": "OwnershipRenounced",
      "type": "event"
    },
    {
      "anonymous": false,
      "inputs": [
        {
          "indexed": true,
          "name": "previousOwner",
          "type": "address"
        },
        {
          "indexed": true,
          "name": "newOwner",
          "type": "address"
        }
      ],
      "name": "OwnershipTransferred",
      "type": "event"
    },
    {
      "anonymous": false,
      "inputs": [
        {
          "indexed": true,
          "name": "owner",
          "type": "address"
        },
        {
          "indexed": true,
          "name": "spender",
          "type": "address"
        },
        {
          "indexed": false,
          "name": "value",
          "type": "uint256"
        }
      ],
      "name": "Approval",
      "type": "event"
    },
    {
      "anonymous": false,
      "inputs": [
        {
          "indexed": true,
          "name": "from",
          "type": "address"
        },
        {
          "indexed": true,
          "name": "to",
          "type": "address"
        },
        {
          "indexed": false,
          "name": "value",
          "type": "uint256"
        }
      ],
      "name": "Transfer",
      "type": "event"
    },
    {
      "constant": false,
      "inputs": [
        {
          "name": "_clubTokenController",
          "type": "address"
        }
      ],
      "name": "updateClubTokenControllerAddress",
      "outputs": [],
      "payable": false,
      "stateMutability": "nonpayable",
      "type": "function"
    },
    {
      "constant": false,
      "inputs": [
        {
          "name": "_cloversController",
          "type": "address"
        }
      ],
      "name": "updateCloversControllerAddress",
      "outputs": [],
      "payable": false,
      "stateMutability": "nonpayable",
      "type": "function"
    },
    {
      "constant": false,
      "inputs": [
        {
          "name": "_from",
          "type": "address"
        },
        {
          "name": "_to",
          "type": "address"
        },
        {
          "name": "_value",
          "type": "uint256"
        }
      ],
      "name": "transferFrom",
      "outputs": [
        {
          "name": "",
          "type": "bool"
        }
      ],
      "payable": false,
      "stateMutability": "nonpayable",
      "type": "function"
    },
    {
      "constant": false,
      "inputs": [
        {
          "name": "_value",
          "type": "uint256"
        }
      ],
      "name": "burn",
      "outputs": [],
      "payable": false,
      "stateMutability": "nonpayable",
      "type": "function"
    },
    {
      "constant": false,
      "inputs": [
        {
          "name": "_burner",
          "type": "address"
        },
        {
          "name": "_value",
          "type": "uint256"
        }
      ],
      "name": "burn",
      "outputs": [],
      "payable": false,
      "stateMutability": "nonpayable",
      "type": "function"
    },
    {
      "constant": false,
      "inputs": [
        {
          "name": "_to",
          "type": "address"
        },
        {
          "name": "_amount",
          "type": "uint256"
        }
      ],
      "name": "moveEth",
      "outputs": [],
      "payable": false,
      "stateMutability": "nonpayable",
      "type": "function"
    },
    {
      "constant": false,
      "inputs": [
        {
          "name": "_to",
          "type": "address"
        },
        {
          "name": "_amount",
          "type": "uint256"
        },
        {
          "name": "_token",
          "type": "address"
        }
      ],
      "name": "moveToken",
      "outputs": [
        {
          "name": "",
          "type": "bool"
        }
      ],
      "payable": false,
      "stateMutability": "nonpayable",
      "type": "function"
    },
    {
      "constant": false,
      "inputs": [
        {
          "name": "_to",
          "type": "address"
        },
        {
          "name": "_amount",
          "type": "uint256"
        },
        {
          "name": "_token",
          "type": "address"
        }
      ],
      "name": "approveToken",
      "outputs": [
        {
          "name": "",
          "type": "bool"
        }
      ],
      "payable": false,
      "stateMutability": "nonpayable",
      "type": "function"
    }
  ],
  "bytecode": "0x60806040526005805460a860020a60ff02191690553480156200002157600080fd5b50604051620019e4380380620019e48339810160409081528151602080840151928401519184018051909493909301928491849184916200006891600391860190620000b0565b5081516200007e906004906020850190620000b0565b506005805460ff191660ff929092169190911761010060a860020a031916610100330217905550620001559350505050565b828054600181600116156101000203166002900490600052602060002090601f016020900481019282601f10620000f357805160ff191683800117855562000123565b8280016001018555821562000123579182015b828111156200012357825182559160200191906001019062000106565b506200013192915062000135565b5090565b6200015291905b808211156200013157600081556001016200013c565b90565b61187f80620001656000396000f3006080604052600436106101535763ffffffff7c0100000000000000000000000000000000000000000000000000000000600035041663048e62ca811461015557806305d2035b146101a157806306fdde03146101b6578063095ea7b314610240578063124141981461027157806318160ddd146102af5780631cc1472d146102d657806323b872dd14610307578063313ce5671461033e57806340c10f191461036957806342966c681461039a57806366188463146103b257806370a08231146103e3578063715018a6146104115780637d64bcb4146104265780638a56a2261461043b5780638da5cb5b1461046957806395d89b411461047e5780639dc29fac14610493578063a89b55da146104c4578063a9059cbb146104d9578063a91cf1c51461050a578063c863bac114610538578063d73dd62314610570578063dd62ed3e146105a1578063f2fde38b146105d5575b005b34801561016157600080fd5b5061018d73ffffffffffffffffffffffffffffffffffffffff6004358116906024359060443516610603565b604080519115158252519081900360200190f35b3480156101ad57600080fd5b5061018d6107f2565b3480156101c257600080fd5b506101cb610814565b6040805160208082528351818301528351919283929083019185019080838360005b838110156102055781810151838201526020016101ed565b50505050905090810190601f1680156102325780820380516001836020036101000a031916815260200191505b509250505060405180910390f35b34801561024c57600080fd5b5061018d73ffffffffffffffffffffffffffffffffffffffff600435166024356108c0565b34801561027d57600080fd5b50610286610933565b6040805173ffffffffffffffffffffffffffffffffffffffff9092168252519081900360200190f35b3480156102bb57600080fd5b506102c461094f565b60408051918252519081900360200190f35b3480156102e257600080fd5b5061015373ffffffffffffffffffffffffffffffffffffffff60043516602435610955565b34801561031357600080fd5b5061018d73ffffffffffffffffffffffffffffffffffffffff60043581169060243516604435610a1a565b34801561034a57600080fd5b50610353610c49565b6040805160ff9092168252519081900360200190f35b34801561037557600080fd5b5061018d73ffffffffffffffffffffffffffffffffffffffff60043516602435610c52565b3480156103a657600080fd5b50610153600435610ded565b3480156103be57600080fd5b5061018d73ffffffffffffffffffffffffffffffffffffffff60043516602435610df2565b3480156103ef57600080fd5b506102c473ffffffffffffffffffffffffffffffffffffffff60043516610f16565b34801561041d57600080fd5b50610153610f3e565b34801561043257600080fd5b5061018d610fda565b34801561044757600080fd5b5061015373ffffffffffffffffffffffffffffffffffffffff6004351661109e565b34801561047557600080fd5b50610286611130565b34801561048a57600080fd5b506101cb611151565b34801561049f57600080fd5b5061015373ffffffffffffffffffffffffffffffffffffffff600435166024356111ca565b3480156104d057600080fd5b50610286611247565b3480156104e557600080fd5b5061018d73ffffffffffffffffffffffffffffffffffffffff60043516602435611263565b34801561051657600080fd5b5061015373ffffffffffffffffffffffffffffffffffffffff6004351661136b565b34801561054457600080fd5b5061018d73ffffffffffffffffffffffffffffffffffffffff60043581169060243590604435166113fd565b34801561057c57600080fd5b5061018d73ffffffffffffffffffffffffffffffffffffffff60043516602435611512565b3480156105ad57600080fd5b506102c473ffffffffffffffffffffffffffffffffffffffff600435811690602435166115c5565b3480156105e157600080fd5b5061015373ffffffffffffffffffffffffffffffffffffffff600435166115fd565b60075460009073ffffffffffffffffffffffffffffffffffffffff16331480610643575060065473ffffffffffffffffffffffffffffffffffffffff1633145b8061066a5750600554610100900473ffffffffffffffffffffffffffffffffffffffff1633145b151561067557600080fd5b604080517f70a08231000000000000000000000000000000000000000000000000000000008152306004820152905173ffffffffffffffffffffffffffffffffffffffff8416916370a082319160248083019260209291908290030181600087803b1580156106e357600080fd5b505af11580156106f7573d6000803e3d6000fd5b505050506040513d602081101561070d57600080fd5b505183111561071b57600080fd5b8173ffffffffffffffffffffffffffffffffffffffff1663a9059cbb85856040518363ffffffff167c0100000000000000000000000000000000000000000000000000000000028152600401808373ffffffffffffffffffffffffffffffffffffffff1673ffffffffffffffffffffffffffffffffffffffff16815260200182815260200192505050602060405180830381600087803b1580156107be57600080fd5b505af11580156107d2573d6000803e3d6000fd5b505050506040513d60208110156107e857600080fd5b5051949350505050565b6005547501000000000000000000000000000000000000000000900460ff1681565b6003805460408051602060026001851615610100027fffffffffffffffffffffffffffffffffffffffffffffffffffffffffffffffff0190941693909304601f810184900484028201840190925281815292918301828280156108b85780601f1061088d576101008083540402835291602001916108b8565b820191906000526020600020905b81548152906001019060200180831161089b57829003601f168201915b505050505081565b33600081815260026020908152604080832073ffffffffffffffffffffffffffffffffffffffff8716808552908352818420869055815186815291519394909390927f8c5be1e5ebec7d5bd14f71427d1e84f3dd0314c0f7b2291e5b200ac8c7c3b925928290030190a350600192915050565b60065473ffffffffffffffffffffffffffffffffffffffff1681565b60015490565b60075473ffffffffffffffffffffffffffffffffffffffff16331480610992575060065473ffffffffffffffffffffffffffffffffffffffff1633145b806109b95750600554610100900473ffffffffffffffffffffffffffffffffffffffff1633145b15156109c457600080fd5b30318111156109d257600080fd5b60405173ffffffffffffffffffffffffffffffffffffffff83169082156108fc029083906000818181858888f19350505050158015610a15573d6000803e3d6000fd5b505050565b600073ffffffffffffffffffffffffffffffffffffffff83161515610a3e57600080fd5b73ffffffffffffffffffffffffffffffffffffffff8416600090815260208190526040902054821115610a7057600080fd5b60065473ffffffffffffffffffffffffffffffffffffffff163314801590610ab0575060075473ffffffffffffffffffffffffffffffffffffffff163314155b15610b655773ffffffffffffffffffffffffffffffffffffffff84166000908152600260209081526040808320338452909152902054821115610af257600080fd5b73ffffffffffffffffffffffffffffffffffffffff84166000908152600260209081526040808320338452909152902054610b33908363ffffffff61163216565b73ffffffffffffffffffffffffffffffffffffffff851660009081526002602090815260408083203384529091529020555b73ffffffffffffffffffffffffffffffffffffffff8416600090815260208190526040902054610b9b908363ffffffff61163216565b73ffffffffffffffffffffffffffffffffffffffff8086166000908152602081905260408082209390935590851681522054610bdd908363ffffffff61164416565b73ffffffffffffffffffffffffffffffffffffffff8085166000818152602081815260409182902094909455805186815290519193928816927fddf252ad1be2c89b69c2b068fc378daa952ba7f163c4a11628f55a4df523b3ef92918290030190a35060019392505050565b60055460ff1681565b60075460009073ffffffffffffffffffffffffffffffffffffffff16331480610c92575060065473ffffffffffffffffffffffffffffffffffffffff1633145b80610cb95750600554610100900473ffffffffffffffffffffffffffffffffffffffff1633145b1515610cc457600080fd5b6005547501000000000000000000000000000000000000000000900460ff1615610ced57600080fd5b600154610d00908363ffffffff61164416565b60015573ffffffffffffffffffffffffffffffffffffffff8316600090815260208190526040902054610d39908363ffffffff61164416565b73ffffffffffffffffffffffffffffffffffffffff841660008181526020818152604091829020939093558051858152905191927f0f6798a560793a54c3bcfe86a93cde1e73087d944c0ea20544137d412139688592918290030190a260408051838152905173ffffffffffffffffffffffffffffffffffffffff8516916000917fddf252ad1be2c89b69c2b068fc378daa952ba7f163c4a11628f55a4df523b3ef9181900360200190a350600192915050565b600080fd5b33600090815260026020908152604080832073ffffffffffffffffffffffffffffffffffffffff8616845290915281205480831115610e615733600090815260026020908152604080832073ffffffffffffffffffffffffffffffffffffffff88168452909152812055610ea3565b610e71818463ffffffff61163216565b33600090815260026020908152604080832073ffffffffffffffffffffffffffffffffffffffff891684529091529020555b33600081815260026020908152604080832073ffffffffffffffffffffffffffffffffffffffff89168085529083529281902054815190815290519293927f8c5be1e5ebec7d5bd14f71427d1e84f3dd0314c0f7b2291e5b200ac8c7c3b925929181900390910190a35060019392505050565b73ffffffffffffffffffffffffffffffffffffffff1660009081526020819052604090205490565b600554610100900473ffffffffffffffffffffffffffffffffffffffff163314610f6757600080fd5b60055460405161010090910473ffffffffffffffffffffffffffffffffffffffff16907ff8df31144d9c2f0f6b59d69b8b98abd5459d07f2742c4df920b25aae33c6482090600090a2600580547fffffffffffffffffffffff0000000000000000000000000000000000000000ff169055565b600554600090610100900473ffffffffffffffffffffffffffffffffffffffff16331461100657600080fd5b6005547501000000000000000000000000000000000000000000900460ff161561102f57600080fd5b600580547fffffffffffffffffffff00ffffffffffffffffffffffffffffffffffffffffff1675010000000000000000000000000000000000000000001790556040517fae5184fba832cb2b1f702aca6117b8d265eaf03ad33eb133f19dde0f5920fa0890600090a150600190565b600554610100900473ffffffffffffffffffffffffffffffffffffffff1633146110c757600080fd5b73ffffffffffffffffffffffffffffffffffffffff811615156110e957600080fd5b600680547fffffffffffffffffffffffff00000000000000000000000000000000000000001673ffffffffffffffffffffffffffffffffffffffff92909216919091179055565b600554610100900473ffffffffffffffffffffffffffffffffffffffff1681565b6004805460408051602060026001851615610100027fffffffffffffffffffffffffffffffffffffffffffffffffffffffffffffffff0190941693909304601f810184900484028201840190925281815292918301828280156108b85780601f1061088d576101008083540402835291602001916108b8565b60075473ffffffffffffffffffffffffffffffffffffffff16331480611207575060065473ffffffffffffffffffffffffffffffffffffffff1633145b8061122e5750600554610100900473ffffffffffffffffffffffffffffffffffffffff1633145b151561123957600080fd5b6112438282611657565b5050565b60075473ffffffffffffffffffffffffffffffffffffffff1681565b600073ffffffffffffffffffffffffffffffffffffffff8316151561128757600080fd5b336000908152602081905260409020548211156112a357600080fd5b336000908152602081905260409020546112c3908363ffffffff61163216565b336000908152602081905260408082209290925573ffffffffffffffffffffffffffffffffffffffff851681522054611302908363ffffffff61164416565b73ffffffffffffffffffffffffffffffffffffffff8416600081815260208181526040918290209390935580518581529051919233927fddf252ad1be2c89b69c2b068fc378daa952ba7f163c4a11628f55a4df523b3ef9281900390910190a350600192915050565b600554610100900473ffffffffffffffffffffffffffffffffffffffff16331461139457600080fd5b73ffffffffffffffffffffffffffffffffffffffff811615156113b657600080fd5b600780547fffffffffffffffffffffffff00000000000000000000000000000000000000001673ffffffffffffffffffffffffffffffffffffffff92909216919091179055565b60075460009073ffffffffffffffffffffffffffffffffffffffff1633148061143d575060065473ffffffffffffffffffffffffffffffffffffffff1633145b806114645750600554610100900473ffffffffffffffffffffffffffffffffffffffff1633145b151561146f57600080fd5b8173ffffffffffffffffffffffffffffffffffffffff1663095ea7b385856040518363ffffffff167c0100000000000000000000000000000000000000000000000000000000028152600401808373ffffffffffffffffffffffffffffffffffffffff1673ffffffffffffffffffffffffffffffffffffffff16815260200182815260200192505050602060405180830381600087803b1580156107be57600080fd5b33600090815260026020908152604080832073ffffffffffffffffffffffffffffffffffffffff86168452909152812054611553908363ffffffff61164416565b33600081815260026020908152604080832073ffffffffffffffffffffffffffffffffffffffff89168085529083529281902085905580519485525191937f8c5be1e5ebec7d5bd14f71427d1e84f3dd0314c0f7b2291e5b200ac8c7c3b925929081900390910190a350600192915050565b73ffffffffffffffffffffffffffffffffffffffff918216600090815260026020908152604080832093909416825291909152205490565b600554610100900473ffffffffffffffffffffffffffffffffffffffff16331461162657600080fd5b61162f81611799565b50565b60008282111561163e57fe5b50900390565b8181018281101561165157fe5b92915050565b73ffffffffffffffffffffffffffffffffffffffff821660009081526020819052604090205481111561168957600080fd5b73ffffffffffffffffffffffffffffffffffffffff82166000908152602081905260409020546116bf908263ffffffff61163216565b73ffffffffffffffffffffffffffffffffffffffff83166000908152602081905260409020556001546116f8908263ffffffff61163216565b60015560408051828152905173ffffffffffffffffffffffffffffffffffffffff8416917fcc16f5dbb4873280815c1ee09dbd06736cffcc184412cf7a71a0fdb75d397ca5919081900360200190a260408051828152905160009173ffffffffffffffffffffffffffffffffffffffff8516917fddf252ad1be2c89b69c2b068fc378daa952ba7f163c4a11628f55a4df523b3ef9181900360200190a35050565b73ffffffffffffffffffffffffffffffffffffffff811615156117bb57600080fd5b60055460405173ffffffffffffffffffffffffffffffffffffffff80841692610100900416907f8be0079c531659141344cd1fd0a4f28419497f9722a3daafe3b4186f6b6457e090600090a36005805473ffffffffffffffffffffffffffffffffffffffff909216610100027fffffffffffffffffffffff0000000000000000000000000000000000000000ff9092169190911790555600a165627a7a7230582099aae053ac66d87cab812556c17a3f7ce5daa23ce979182efc2fe30867891ed50029",
  "source": "pragma solidity ^0.4.18;\n\n/**\n * ClubToken adheres to ERC20\n * it is a continuously mintable token administered by CloversController/ClubTokenController\n */\n\nimport \"zeppelin-solidity/contracts/token/ERC20/StandardToken.sol\";\nimport \"zeppelin-solidity/contracts/token/ERC20/DetailedERC20.sol\";\nimport \"zeppelin-solidity/contracts/token/ERC20/MintableToken.sol\";\nimport \"zeppelin-solidity/contracts/token/ERC20/BurnableToken.sol\";\n\ncontract ClubToken is StandardToken, DetailedERC20, MintableToken, BurnableToken {\n\n    address public cloversController;\n    address public clubTokenController;\n\n    modifier hasMintPermission() {\n      require(\n          msg.sender == clubTokenController ||\n          msg.sender == cloversController ||\n          msg.sender == owner\n      );\n      _;\n    }\n\n    /**\n    * @dev constructor for the ClubTokens contract\n    * @param _name The name of the token\n    * @param _symbol The symbol of the token\n    * @param _decimals The decimals of the token\n    */\n    constructor(string _name, string _symbol, uint8 _decimals) public\n        DetailedERC20(_name, _symbol, _decimals)\n    {}\n\n    function () public payable {}\n\n    function updateClubTokenControllerAddress(address _clubTokenController) public onlyOwner {\n        require(_clubTokenController != 0);\n        clubTokenController = _clubTokenController;\n    }\n\n    function updateCloversControllerAddress(address _cloversController) public onlyOwner {\n        require(_cloversController != 0);\n        cloversController = _cloversController;\n    }\n\n\n      /**\n       * @dev Transfer tokens from one address to another\n       * @param _from address The address which you want to send tokens from\n       * @param _to address The address which you want to transfer to\n       * @param _value uint256 the amount of tokens to be transferred\n       */\n      function transferFrom(\n        address _from,\n        address _to,\n        uint256 _value\n      )\n        public\n        returns (bool)\n      {\n        require(_to != address(0));\n        require(_value <= balances[_from]);\n        if (msg.sender != cloversController && msg.sender != clubTokenController) {\n            require(_value <= allowed[_from][msg.sender]);\n            allowed[_from][msg.sender] = allowed[_from][msg.sender].sub(_value);\n        }\n        balances[_from] = balances[_from].sub(_value);\n        balances[_to] = balances[_to].add(_value);\n        emit Transfer(_from, _to, _value);\n        return true;\n      }\n\n    /**\n     * @dev Burns a specific amount of tokens.\n     * @param _value The amount of token to be burned.\n     * NOTE: Disabled as tokens should not be burned under circumstances beside selling tokens.\n     */\n    function burn(uint256 _value) public {\n        _value;\n        revert();\n    }\n\n    /**\n     * @dev Burns a specific amount of tokens.\n     * @param _burner The address of the token holder burning their tokens.\n     * @param _value The amount of token to be burned.\n     */\n    function burn(address _burner, uint256 _value) public hasMintPermission {\n      _burn(_burner, _value);\n    }\n\n    /**\n    * @dev Moves Eth to a certain address for use in the ClubTokenController\n    * @param _to The address to receive the Eth.\n    * @param _amount The amount of Eth to be transferred.\n    */\n    function moveEth(address _to, uint256 _amount) public hasMintPermission {\n        require(this.balance >= _amount);\n        _to.transfer(_amount);\n    }\n    /**\n    * @dev Moves Tokens to a certain address for use in the ClubTokenController\n    * @param _to The address to receive the Tokens.\n    * @param _amount The amount of Tokens to be transferred.\n    * @param _token The address of the relevant token contract.\n    * @return bool Whether or not the move was successful\n    */\n    function moveToken(address _to, uint256 _amount, address _token) public hasMintPermission returns (bool) {\n        require(_amount <= StandardToken(_token).balanceOf(this));\n        return StandardToken(_token).transfer(_to, _amount);\n    }\n    /**\n    * @dev Approves Tokens to a certain address for use in the ClubTokenController\n    * @param _to The address to be approved.\n    * @param _amount The amount of Tokens to be approved.\n    * @param _token The address of the relevant token contract.\n    * @return bool Whether or not the approval was successful\n    */\n    function approveToken(address _to, uint256 _amount, address _token) public hasMintPermission returns (bool) {\n        return StandardToken(_token).approve(_to, _amount);\n    }\n}\n",
  "sourcePath": "/home/billyrennekamp/GitHub.com/clovers-network/clovers-contracts/contracts/ClubToken.sol",
  "compiler": {
    "name": "solc",
    "version": "0.4.24+commit.e67f0147.Emscripten.clang"
  },
  "schemaVersion": "2.0.1",
  "updatedAt": "2019-08-14T20:30:33.382Z"
}