{
  "contractName": "CurationMarket",
  "abi": [
    {
      "constant": true,
      "inputs": [
        {
          "name": "",
          "type": "uint256"
        }
      ],
      "name": "cloverMarkets",
      "outputs": [
        {
          "name": "exists",
          "type": "bool"
        },
        {
          "name": "poolBalance",
          "type": "uint256"
        },
        {
          "name": "totalSupply",
          "type": "uint256"
        }
      ],
      "payable": false,
      "stateMutability": "view",
      "type": "function"
    },
    {
      "constant": true,
      "inputs": [],
      "name": "reserveRatio",
      "outputs": [
        {
          "name": "",
          "type": "uint32"
        }
      ],
      "payable": false,
      "stateMutability": "view",
      "type": "function"
    },
    {
      "constant": true,
      "inputs": [],
      "name": "clovers",
      "outputs": [
        {
          "name": "",
          "type": "address"
        }
      ],
      "payable": false,
      "stateMutability": "view",
      "type": "function"
    },
    {
      "constant": true,
      "inputs": [],
      "name": "cloversController",
      "outputs": [
        {
          "name": "",
          "type": "address"
        }
      ],
      "payable": false,
      "stateMutability": "view",
      "type": "function"
    },
    {
      "constant": true,
      "inputs": [],
      "name": "virtualSupply",
      "outputs": [
        {
          "name": "",
          "type": "uint256"
        }
      ],
      "payable": false,
      "stateMutability": "view",
      "type": "function"
    },
    {
      "constant": true,
      "inputs": [
        {
          "name": "_supply",
          "type": "uint256"
        },
        {
          "name": "_connectorBalance",
          "type": "uint256"
        },
        {
          "name": "_connectorWeight",
          "type": "uint32"
        },
        {
          "name": "_depositAmount",
          "type": "uint256"
        }
      ],
      "name": "calculatePurchaseReturn",
      "outputs": [
        {
          "name": "",
          "type": "uint256"
        }
      ],
      "payable": false,
      "stateMutability": "view",
      "type": "function"
    },
    {
      "constant": true,
      "inputs": [
        {
          "name": "_supply",
          "type": "uint256"
        },
        {
          "name": "_connectorBalance",
          "type": "uint256"
        },
        {
          "name": "_connectorWeight",
          "type": "uint32"
        },
        {
          "name": "_sellAmount",
          "type": "uint256"
        }
      ],
      "name": "calculateSaleReturn",
      "outputs": [
        {
          "name": "",
          "type": "uint256"
        }
      ],
      "payable": false,
      "stateMutability": "view",
      "type": "function"
    },
    {
      "constant": true,
      "inputs": [],
      "name": "version",
      "outputs": [
        {
          "name": "",
          "type": "string"
        }
      ],
      "payable": false,
      "stateMutability": "view",
      "type": "function"
    },
    {
      "constant": true,
      "inputs": [
        {
          "name": "_fromConnectorBalance",
          "type": "uint256"
        },
        {
          "name": "_fromConnectorWeight",
          "type": "uint32"
        },
        {
          "name": "_toConnectorBalance",
          "type": "uint256"
        },
        {
          "name": "_toConnectorWeight",
          "type": "uint32"
        },
        {
          "name": "_amount",
          "type": "uint256"
        }
      ],
      "name": "calculateCrossConnectorReturn",
      "outputs": [
        {
          "name": "",
          "type": "uint256"
        }
      ],
      "payable": false,
      "stateMutability": "view",
      "type": "function"
    },
    {
      "constant": false,
      "inputs": [],
      "name": "renounceOwnership",
      "outputs": [],
      "payable": false,
      "stateMutability": "nonpayable",
      "type": "function"
    },
    {
      "constant": true,
      "inputs": [],
      "name": "owner",
      "outputs": [
        {
          "name": "",
          "type": "address"
        }
      ],
      "payable": false,
      "stateMutability": "view",
      "type": "function"
    },
    {
      "constant": true,
      "inputs": [],
      "name": "clubTokenController",
      "outputs": [
        {
          "name": "",
          "type": "address"
        }
      ],
      "payable": false,
      "stateMutability": "view",
      "type": "function"
    },
    {
      "constant": true,
      "inputs": [],
      "name": "clubToken",
      "outputs": [
        {
          "name": "",
          "type": "address"
        }
      ],
      "payable": false,
      "stateMutability": "view",
      "type": "function"
    },
    {
      "constant": true,
      "inputs": [],
      "name": "virtualBalance",
      "outputs": [
        {
          "name": "",
          "type": "uint256"
        }
      ],
      "payable": false,
      "stateMutability": "view",
      "type": "function"
    },
    {
      "constant": false,
      "inputs": [
        {
          "name": "_newOwner",
          "type": "address"
        }
      ],
      "name": "transferOwnership",
      "outputs": [],
      "payable": false,
      "stateMutability": "nonpayable",
      "type": "function"
    },
    {
      "inputs": [
        {
          "name": "_virtualSupply",
          "type": "uint256"
        },
        {
          "name": "_virtualBalance",
          "type": "uint256"
        },
        {
          "name": "_reserveRatio",
          "type": "uint32"
        },
        {
          "name": "_clovers",
          "type": "address"
        },
        {
          "name": "_cloversController",
          "type": "address"
        },
        {
          "name": "_clubToken",
          "type": "address"
        },
        {
          "name": "_clubTokenController",
          "type": "address"
        }
      ],
      "payable": false,
      "stateMutability": "nonpayable",
      "type": "constructor"
    },
    {
      "anonymous": false,
      "inputs": [
        {
          "indexed": false,
          "name": "_tokenId",
          "type": "uint256"
        },
        {
          "indexed": true,
          "name": "from",
          "type": "address"
        },
        {
          "indexed": true,
          "name": "to",
          "type": "address"
        },
        {
          "indexed": false,
          "name": "value",
          "type": "uint256"
        }
      ],
      "name": "Transfer",
      "type": "event"
    },
    {
      "anonymous": false,
      "inputs": [
        {
          "indexed": false,
          "name": "_tokenId",
          "type": "uint256"
        },
        {
          "indexed": true,
          "name": "to",
          "type": "address"
        },
        {
          "indexed": false,
          "name": "amount",
          "type": "uint256"
        }
      ],
      "name": "Mint",
      "type": "event"
    },
    {
      "anonymous": false,
      "inputs": [
        {
          "indexed": false,
          "name": "_tokenId",
          "type": "uint256"
        },
        {
          "indexed": true,
          "name": "burner",
          "type": "address"
        },
        {
          "indexed": false,
          "name": "value",
          "type": "uint256"
        }
      ],
      "name": "Burn",
      "type": "event"
    },
    {
      "anonymous": false,
      "inputs": [
        {
          "indexed": true,
          "name": "previousOwner",
          "type": "address"
        }
      ],
      "name": "OwnershipRenounced",
      "type": "event"
    },
    {
      "anonymous": false,
      "inputs": [
        {
          "indexed": true,
          "name": "previousOwner",
          "type": "address"
        },
        {
          "indexed": true,
          "name": "newOwner",
          "type": "address"
        }
      ],
      "name": "OwnershipTransferred",
      "type": "event"
    },
    {
      "constant": true,
      "inputs": [
        {
          "name": "_tokenId",
          "type": "uint256"
        }
      ],
      "name": "totalSupply",
      "outputs": [
        {
          "name": "",
          "type": "uint256"
        }
      ],
      "payable": false,
      "stateMutability": "view",
      "type": "function"
    },
    {
      "constant": true,
      "inputs": [
        {
          "name": "_tokenId",
          "type": "uint256"
        },
        {
          "name": "_owner",
          "type": "address"
        }
      ],
      "name": "balanceOf",
      "outputs": [
        {
          "name": "",
          "type": "uint256"
        }
      ],
      "payable": false,
      "stateMutability": "view",
      "type": "function"
    },
    {
      "constant": true,
      "inputs": [
        {
          "name": "_tokenId",
          "type": "uint256"
        },
        {
          "name": "buyValue",
          "type": "uint256"
        }
      ],
      "name": "getBuy",
      "outputs": [
        {
          "name": "",
          "type": "uint256"
        }
      ],
      "payable": false,
      "stateMutability": "view",
      "type": "function"
    },
    {
      "constant": true,
      "inputs": [
        {
          "name": "_tokenId",
          "type": "uint256"
        },
        {
          "name": "sellAmount",
          "type": "uint256"
        }
      ],
      "name": "getSell",
      "outputs": [
        {
          "name": "",
          "type": "uint256"
        }
      ],
      "payable": false,
      "stateMutability": "view",
      "type": "function"
    },
    {
      "constant": false,
      "inputs": [
        {
          "name": "_tokenId",
          "type": "uint256"
        },
        {
          "name": "_to",
          "type": "address"
        },
        {
          "name": "_value",
          "type": "uint256"
        }
      ],
      "name": "transfer",
      "outputs": [
        {
          "name": "",
          "type": "bool"
        }
      ],
      "payable": false,
      "stateMutability": "nonpayable",
      "type": "function"
    },
    {
      "constant": false,
      "inputs": [
        {
          "name": "_virtualSupply",
          "type": "uint256"
        }
      ],
      "name": "updateVirtualSupply",
      "outputs": [],
      "payable": false,
      "stateMutability": "nonpayable",
      "type": "function"
    },
    {
      "constant": false,
      "inputs": [
        {
          "name": "_virtualBalance",
          "type": "uint256"
        }
      ],
      "name": "updateVirtualBalance",
      "outputs": [],
      "payable": false,
      "stateMutability": "nonpayable",
      "type": "function"
    },
    {
      "constant": false,
      "inputs": [
        {
          "name": "_reserveRatio",
          "type": "uint32"
        }
      ],
      "name": "updateReserveRatio",
      "outputs": [],
      "payable": false,
      "stateMutability": "nonpayable",
      "type": "function"
    },
    {
      "constant": false,
      "inputs": [
        {
          "name": "_clovers",
          "type": "address"
        }
      ],
      "name": "updateClovers",
      "outputs": [],
      "payable": false,
      "stateMutability": "nonpayable",
      "type": "function"
    },
    {
      "constant": false,
      "inputs": [
        {
          "name": "_cloversController",
          "type": "address"
        }
      ],
      "name": "updateCloversController",
      "outputs": [],
      "payable": false,
      "stateMutability": "nonpayable",
      "type": "function"
    },
    {
      "constant": false,
      "inputs": [
        {
          "name": "_clubToken",
          "type": "address"
        }
      ],
      "name": "updateClubToken",
      "outputs": [],
      "payable": false,
      "stateMutability": "nonpayable",
      "type": "function"
    },
    {
      "constant": false,
      "inputs": [
        {
          "name": "_clubTokenController",
          "type": "address"
        }
      ],
      "name": "updateClubTokenController",
      "outputs": [],
      "payable": false,
      "stateMutability": "nonpayable",
      "type": "function"
    },
    {
      "constant": false,
      "inputs": [
        {
          "name": "_tokenId",
          "type": "uint256"
        },
        {
          "name": "_spendAmount",
          "type": "uint256"
        }
      ],
      "name": "addCloverToMarket",
      "outputs": [],
      "payable": true,
      "stateMutability": "payable",
      "type": "function"
    },
    {
      "constant": false,
      "inputs": [
        {
          "name": "_to",
          "type": "address"
        },
        {
          "name": "_tokenId",
          "type": "uint256"
        },
        {
          "name": "_spendAmount",
          "type": "uint256"
        }
      ],
      "name": "buy",
      "outputs": [
        {
          "name": "",
          "type": "bool"
        }
      ],
      "payable": true,
      "stateMutability": "payable",
      "type": "function"
    },
    {
      "constant": false,
      "inputs": [
        {
          "name": "_tokenId",
          "type": "uint256"
        },
        {
          "name": "sellAmount",
          "type": "uint256"
        }
      ],
      "name": "sell",
      "outputs": [
        {
          "name": "",
          "type": "bool"
        }
      ],
      "payable": false,
      "stateMutability": "nonpayable",
      "type": "function"
    }
  ],
  "bytecode": "0x60806040526040805190810160405280600381526020017f302e330000000000000000000000000000000000000000000000000000000000815250600090805190602001906200005192919062001486565b503480156200005f57600080fd5b5060405160e08062004ff983398101806040528101908080519060200190929190805190602001909291908051906020019092919080519060200190929190805190602001909291908051906020019092919080519060200190929190505050701c35fedd14ffffffffffffffffffffffff60016020608081101515620000e257fe5b0181905550701b0ce43b323fffffffffffffffffffffff600160216080811015156200010a57fe5b01819055507019f0028ec1ffffffffffffffffffffffff600160226080811015156200013257fe5b01819055507018ded91f0e7fffffffffffffffffffffff600160236080811015156200015a57fe5b01819055507017d8ec7f0417ffffffffffffffffffffff600160246080811015156200018257fe5b01819055507016ddc6556cdbffffffffffffffffffffff60016025608081101515620001aa57fe5b01819055507015ecf52776a1ffffffffffffffffffffff60016026608081101515620001d257fe5b01819055507015060c256cb2ffffffffffffffffffffff60016027608081101515620001fa57fe5b0181905550701428a2f98d72ffffffffffffffffffffff600160286080811015156200022257fe5b01819055507013545598e5c23fffffffffffffffffffff600160296080811015156200024a57fe5b0181905550701288c4161ce1dfffffffffffffffffffff6001602a6080811015156200027257fe5b01819055507011c592761c666fffffffffffffffffffff6001602b6080811015156200029a57fe5b018190555070110a688680a757ffffffffffffffffffff6001602c608081101515620002c257fe5b0181905550701056f1b5bedf77ffffffffffffffffffff6001602d608081101515620002ea57fe5b0181905550700faadceceeff8bffffffffffffffffffff6001602e6080811015156200031257fe5b0181905550700f05dc6b27edadffffffffffffffffffff6001602f6080811015156200033a57fe5b0181905550700e67a5a25da4107fffffffffffffffffff600160306080811015156200036257fe5b0181905550700dcff115b14eedffffffffffffffffffff600160316080811015156200038a57fe5b0181905550700d3e7a392431239fffffffffffffffffff60016032608081101515620003b257fe5b0181905550700cb2ff529eb71e4fffffffffffffffffff60016033608081101515620003da57fe5b0181905550700c2d415c3db974afffffffffffffffffff600160346080811015156200040257fe5b0181905550700bad03e7d883f69bffffffffffffffffff600160356080811015156200042a57fe5b0181905550700b320d03b2c343d5ffffffffffffffffff600160366080811015156200045257fe5b0181905550700abc25204e02828dffffffffffffffffff600160376080811015156200047a57fe5b0181905550700a4b16f74ee4bb207fffffffffffffffff60016038608081101515620004a257fe5b01819055507009deaf736ac1f569ffffffffffffffffff60016039608081101515620004ca57fe5b0181905550700976bd9952c7aa957fffffffffffffffff6001603a608081101515620004f257fe5b01819055507009131271922eaa606fffffffffffffffff6001603b6080811015156200051a57fe5b01819055507008b380f3558668c46fffffffffffffffff6001603c6080811015156200054257fe5b0181905550700857ddf0117efa215bffffffffffffffff6001603d6080811015156200056a57fe5b01819055507007ffffffffffffffffffffffffffffffff6001603e6080811015156200059257fe5b01819055507007abbf6f6abb9d087fffffffffffffffff6001603f608081101515620005ba57fe5b018190555070075af62cbac95f7dfa7fffffffffffffff60016040608081101515620005e257fe5b018190555070070d7fb7452e187ac13fffffffffffffff600160416080811015156200060a57fe5b01819055507006c3390ecc8af379295fffffffffffffff600160426080811015156200063257fe5b018190555070067c00a3b07ffc01fd6fffffffffffffff600160436080811015156200065a57fe5b0181905550700637b647c39cbb9d3d27ffffffffffffff600160446080811015156200068257fe5b01819055507005f63b1fc104dbd39587ffffffffffffff60016045608081101515620006aa57fe5b01819055507005b771955b36e12f7235ffffffffffffff60016046608081101515620006d257fe5b018190555070057b3d49dda84556d6f6ffffffffffffff60016047608081101515620006fa57fe5b018190555070054183095b2c8ececf30ffffffffffffff600160486080811015156200072257fe5b018190555070050a28be635ca2b888f77fffffffffffff600160496080811015156200074a57fe5b01819055507004d5156639708c9db33c3fffffffffffff6001604a6080811015156200077257fe5b01819055507004a23105873875bd52dfdfffffffffffff6001604b6080811015156200079a57fe5b0181905550700471649d87199aa990756fffffffffffff6001604c608081101515620007c257fe5b01819055507004429a21a029d4c1457cfbffffffffffff6001604d608081101515620007ea57fe5b0181905550700415bc6d6fb7dd71af2cb3ffffffffffff6001604e6080811015156200081257fe5b01819055507003eab73b3bbfe282243ce1ffffffffffff6001604f6080811015156200083a57fe5b01819055507003c1771ac9fb6b4c18e229ffffffffffff600160506080811015156200086257fe5b0181905550700399e96897690418f785257fffffffffff600160516080811015156200088a57fe5b0181905550700373fc456c53bb779bf0ea9fffffffffff60016052608081101515620008b257fe5b018190555070034f9e8e490c48e67e6ab8bfffffffffff60016053608081101515620008da57fe5b018190555070032cbfd4a7adc790560b3337ffffffffff600160546080811015156200090257fe5b018190555070030b50570f6e5d2acca94613ffffffffff600160556080811015156200092a57fe5b01819055507002eb40f9f620fda6b56c2861ffffffffff600160566080811015156200095257fe5b01819055507002cc8340ecb0d0f520a6af58ffffffffff600160576080811015156200097a57fe5b01819055507002af09481380a0a35cf1ba02ffffffffff60016058608081101515620009a257fe5b0181905550700292c5bdd3b92ec810287b1b3fffffffff60016059608081101515620009ca57fe5b0181905550700277abdcdab07d5a77ac6d6b9fffffffff6001605a608081101515620009f257fe5b018190555070025daf6654b1eaa55fd64df5efffffffff6001605b60808110151562000a1a57fe5b0181905550700244c49c648baa98192dce88b7ffffffff6001605c60808110151562000a4257fe5b018190555070022ce03cd5619a311b2471268bffffffff6001605d60808110151562000a6a57fe5b0181905550700215f77c045fbe885654a44a0fffffffff6001605e60808110151562000a9257fe5b01819055507001ffffffffffffffffffffffffffffffff6001605f60808110151562000aba57fe5b01819055507001eaefdbdaaee7421fc4d3ede5ffffffff6001606060808110151562000ae257fe5b01819055507001d6bd8b2eb257df7e8ca57b09bfffffff6001606160808110151562000b0a57fe5b01819055507001c35fedd14b861eb0443f7f133fffffff6001606260808110151562000b3257fe5b01819055507001b0ce43b322bcde4a56e8ada5afffffff6001606360808110151562000b5a57fe5b018190555070019f0028ec1fff007f5a195a39dfffffff6001606460808110151562000b8257fe5b018190555070018ded91f0e72ee74f49b15ba527ffffff6001606560808110151562000baa57fe5b018190555070017d8ec7f04136f4e5615fd41a63ffffff6001606660808110151562000bd257fe5b018190555070016ddc6556cdb84bdc8d12d22e6fffffff6001606760808110151562000bfa57fe5b018190555070015ecf52776a1155b5bd8395814f7fffff6001606860808110151562000c2257fe5b018190555070015060c256cb23b3b3cc3754cf40ffffff6001606960808110151562000c4a57fe5b01819055507001428a2f98d728ae223ddab715be3fffff6001606a60808110151562000c7257fe5b018190555070013545598e5c23276ccf0ede68034fffff6001606b60808110151562000c9a57fe5b01819055507001288c4161ce1d6f54b7f61081194fffff6001606c60808110151562000cc257fe5b018190555070011c592761c666aa641d5a01a40f17ffff6001606d60808110151562000cea57fe5b0181905550700110a688680a7530515f3e6e6cfdcdffff6001606e60808110151562000d1257fe5b01819055507001056f1b5bedf75c6bcb2ce8aed428ffff6001606f60808110151562000d3a57fe5b01819055506ffaadceceeff8a0890f3875f008277fff6001607060808110151562000d6157fe5b01819055506ff05dc6b27edad306388a600f6ba0bfff6001607160808110151562000d8857fe5b01819055506fe67a5a25da41063de1495d5b18cdbfff6001607260808110151562000daf57fe5b01819055506fdcff115b14eedde6fc3aa5353f2e4fff6001607360808110151562000dd657fe5b01819055506fd3e7a3924312399f9aae2e0f868f8fff6001607460808110151562000dfd57fe5b01819055506fcb2ff529eb71e41582cccd5a1ee26fff6001607560808110151562000e2457fe5b01819055506fc2d415c3db974ab32a51840c0b67edff6001607660808110151562000e4b57fe5b01819055506fbad03e7d883f69ad5b0a186184e06bff6001607760808110151562000e7257fe5b01819055506fb320d03b2c343d4829abd6075f0cc5ff6001607860808110151562000e9957fe5b01819055506fabc25204e02828d73c6e80bcdb1a95bf6001607960808110151562000ec057fe5b01819055506fa4b16f74ee4bb2040a1ec6c15fbbf2df6001607a60808110151562000ee757fe5b01819055506f9deaf736ac1f569deb1b5ae3f36c130f6001607b60808110151562000f0e57fe5b01819055506f976bd9952c7aa957f5937d790ef650376001607c60808110151562000f3557fe5b01819055506f9131271922eaa6064b73a22d0bd4f2bf6001607d60808110151562000f5c57fe5b01819055506f8b380f3558668c46c91c49a2f8e967b96001607e60808110151562000f8357fe5b01819055506f857ddf0117efa215952912839f6473e66001607f60808110151562000faa57fe5b018190555033608160006101000a81548173ffffffffffffffffffffffffffffffffffffffff021916908373ffffffffffffffffffffffffffffffffffffffff1602179055506200100a87620010b3640100000000026401000000009004565b62001024866200111a640100000000026401000000009004565b6200103e8562001181640100000000026401000000009004565b620010588462001202640100000000026401000000009004565b6200107283620012a3640100000000026401000000009004565b6200108c8262001344640100000000026401000000009004565b620010a681620013e5640100000000026401000000009004565b5050505050505062001535565b608160009054906101000a900473ffffffffffffffffffffffffffffffffffffffff1673ffffffffffffffffffffffffffffffffffffffff163373ffffffffffffffffffffffffffffffffffffffff161415156200111057600080fd5b8060868190555050565b608160009054906101000a900473ffffffffffffffffffffffffffffffffffffffff1673ffffffffffffffffffffffffffffffffffffffff163373ffffffffffffffffffffffffffffffffffffffff161415156200117757600080fd5b8060878190555050565b608160009054906101000a900473ffffffffffffffffffffffffffffffffffffffff1673ffffffffffffffffffffffffffffffffffffffff163373ffffffffffffffffffffffffffffffffffffffff16141515620011de57600080fd5b80608860006101000a81548163ffffffff021916908363ffffffff16021790555050565b608160009054906101000a900473ffffffffffffffffffffffffffffffffffffffff1673ffffffffffffffffffffffffffffffffffffffff163373ffffffffffffffffffffffffffffffffffffffff161415156200125f57600080fd5b80608260006101000a81548173ffffffffffffffffffffffffffffffffffffffff021916908373ffffffffffffffffffffffffffffffffffffffff16021790555050565b608160009054906101000a900473ffffffffffffffffffffffffffffffffffffffff1673ffffffffffffffffffffffffffffffffffffffff163373ffffffffffffffffffffffffffffffffffffffff161415156200130057600080fd5b80608360006101000a81548173ffffffffffffffffffffffffffffffffffffffff021916908373ffffffffffffffffffffffffffffffffffffffff16021790555050565b608160009054906101000a900473ffffffffffffffffffffffffffffffffffffffff1673ffffffffffffffffffffffffffffffffffffffff163373ffffffffffffffffffffffffffffffffffffffff16141515620013a157600080fd5b80608460006101000a81548173ffffffffffffffffffffffffffffffffffffffff021916908373ffffffffffffffffffffffffffffffffffffffff16021790555050565b608160009054906101000a900473ffffffffffffffffffffffffffffffffffffffff1673ffffffffffffffffffffffffffffffffffffffff163373ffffffffffffffffffffffffffffffffffffffff161415156200144257600080fd5b80608560006101000a81548173ffffffffffffffffffffffffffffffffffffffff021916908373ffffffffffffffffffffffffffffffffffffffff16021790555050565b828054600181600116156101000203166002900490600052602060002090601f016020900481019282601f10620014c957805160ff1916838001178555620014fa565b82800160010185558215620014fa579182015b82811115620014f9578251825591602001919060010190620014dc565b5b5090506200150991906200150d565b5090565b6200153291905b808211156200152e57600081600090555060010162001514565b5090565b90565b613ab480620015456000396000f300608060405260043610610180576000357c0100000000000000000000000000000000000000000000000000000000900463ffffffff16806303a4d4c8146101855780630c7d5cd8146101d85780630d576bfa1461020f578063124141981461026657806314cdfccf146102bd57806321c2dede146102ea578063277b2f971461031457806329a00e7c1461033f5780633656eec2146103a457806349f9b0f71461040557806354fd4d501461046a57806365098bb3146104fa5780636713e4ee1461056f578063715018a6146105b25780637222489c146105c9578063783f0e401461060c5780638da5cb5b1461063f5780639564e180146106965780639f1c554c146106d9578063a59ac6dd1461071c578063a89b55da1461077e578063b08d098a146107d5578063b77d0df814610820578063bd85b0391461084d578063d76bbd521461088e578063d79875eb146108e5578063dcd2af1714610934578063df647ecb1461095f578063f2fde38b146109aa578063f8548e36146109ed575b600080fd5b34801561019157600080fd5b506101b060048036038101908080359060200190929190505050610a5c565b6040518084151515158152602001838152602001828152602001935050505060405180910390f35b3480156101e457600080fd5b506101ed610a93565b604051808263ffffffff1663ffffffff16815260200191505060405180910390f35b34801561021b57600080fd5b50610224610aa9565b604051808273ffffffffffffffffffffffffffffffffffffffff1673ffffffffffffffffffffffffffffffffffffffff16815260200191505060405180910390f35b34801561027257600080fd5b5061027b610acf565b604051808273ffffffffffffffffffffffffffffffffffffffff1673ffffffffffffffffffffffffffffffffffffffff16815260200191505060405180910390f35b3480156102c957600080fd5b506102e860048036038101908080359060200190929190505050610af5565b005b6103126004803603810190808035906020019092919080359060200190929190505050610b5b565b005b34801561032057600080fd5b50610329610dea565b6040518082815260200191505060405180910390f35b34801561034b57600080fd5b5061038e6004803603810190808035906020019092919080359060200190929190803563ffffffff16906020019092919080359060200190929190505050610df0565b6040518082815260200191505060405180910390f35b3480156103b057600080fd5b506103ef60048036038101908080359060200190929190803573ffffffffffffffffffffffffffffffffffffffff169060200190929190505050610ecf565b6040518082815260200191505060405180910390f35b34801561041157600080fd5b506104546004803603810190808035906020019092919080359060200190929190803563ffffffff16906020019092919080359060200190929190505050610f5e565b6040518082815260200191505060405180910390f35b34801561047657600080fd5b5061047f611062565b6040518080602001828103825283818151815260200191508051906020019080838360005b838110156104bf5780820151818401526020810190506104a4565b50505050905090810190601f1680156104ec5780820380516001836020036101000a031916815260200191505b509250505060405180910390f35b34801561050657600080fd5b5061055960048036038101908080359060200190929190803563ffffffff16906020019092919080359060200190929190803563ffffffff16906020019092919080359060200190929190505050611100565b6040518082815260200191505060405180910390f35b34801561057b57600080fd5b506105b0600480360381019080803573ffffffffffffffffffffffffffffffffffffffff16906020019092919050505061120e565b005b3480156105be57600080fd5b506105c76112ae565b005b3480156105d557600080fd5b5061060a600480360381019080803573ffffffffffffffffffffffffffffffffffffffff1690602001909291905050506113b3565b005b34801561061857600080fd5b5061063d600480360381019080803563ffffffff169060200190929190505050611453565b005b34801561064b57600080fd5b506106546114d3565b604051808273ffffffffffffffffffffffffffffffffffffffff1673ffffffffffffffffffffffffffffffffffffffff16815260200191505060405180910390f35b3480156106a257600080fd5b506106d7600480360381019080803573ffffffffffffffffffffffffffffffffffffffff1690602001909291905050506114f9565b005b3480156106e557600080fd5b5061071a600480360381019080803573ffffffffffffffffffffffffffffffffffffffff169060200190929190505050611599565b005b610764600480360381019080803573ffffffffffffffffffffffffffffffffffffffff1690602001909291908035906020019092919080359060200190929190505050611639565b604051808215151515815260200191505060405180910390f35b34801561078a57600080fd5b50610793611b04565b604051808273ffffffffffffffffffffffffffffffffffffffff1673ffffffffffffffffffffffffffffffffffffffff16815260200191505060405180910390f35b3480156107e157600080fd5b5061080a6004803603810190808035906020019092919080359060200190929190505050611b2a565b6040518082815260200191505060405180910390f35b34801561082c57600080fd5b5061084b60048036038101908080359060200190929190505050611bc5565b005b34801561085957600080fd5b5061087860048036038101908080359060200190929190505050611c2b565b6040518082815260200191505060405180910390f35b34801561089a57600080fd5b506108a3611c7c565b604051808273ffffffffffffffffffffffffffffffffffffffff1673ffffffffffffffffffffffffffffffffffffffff16815260200191505060405180910390f35b3480156108f157600080fd5b5061091a6004803603810190808035906020019092919080359060200190929190505050611ca2565b604051808215151515815260200191505060405180910390f35b34801561094057600080fd5b50610949611ea5565b6040518082815260200191505060405180910390f35b34801561096b57600080fd5b506109946004803603810190808035906020019092919080359060200190929190505050611eab565b6040518082815260200191505060405180910390f35b3480156109b657600080fd5b506109eb600480360381019080803573ffffffffffffffffffffffffffffffffffffffff169060200190929190505050611f46565b005b3480156109f957600080fd5b50610a4260048036038101908080359060200190929190803573ffffffffffffffffffffffffffffffffffffffff16906020019092919080359060200190929190505050611fae565b604051808215151515815260200191505060405180910390f35b60896020528060005260406000206000915090508060000160009054906101000a900460ff16908060010154908060020154905083565b608860009054906101000a900463ffffffff1681565b608260009054906101000a900473ffffffffffffffffffffffffffffffffffffffff1681565b608360009054906101000a900473ffffffffffffffffffffffffffffffffffffffff1681565b608160009054906101000a900473ffffffffffffffffffffffffffffffffffffffff1673ffffffffffffffffffffffffffffffffffffffff163373ffffffffffffffffffffffffffffffffffffffff16141515610b5157600080fd5b8060868190555050565b3373ffffffffffffffffffffffffffffffffffffffff16608260009054906101000a900473ffffffffffffffffffffffffffffffffffffffff1673ffffffffffffffffffffffffffffffffffffffff16636352211e846040518263ffffffff167c010000000000000000000000000000000000000000000000000000000002815260040180828152602001915050602060405180830381600087803b158015610c0357600080fd5b505af1158015610c17573d6000803e3d6000fd5b505050506040513d6020811015610c2d57600080fd5b810190808051906020019092919050505073ffffffffffffffffffffffffffffffffffffffff16141515610c6057600080fd5b6089600083815260200190815260200160002060000160009054906101000a900460ff16151515610c9057600080fd5b60016089600084815260200190815260200160002060000160006101000a81548160ff021916908315150217905550608360009054906101000a900473ffffffffffffffffffffffffffffffffffffffff1673ffffffffffffffffffffffffffffffffffffffff166323b872dd3330856040518463ffffffff167c0100000000000000000000000000000000000000000000000000000000028152600401808473ffffffffffffffffffffffffffffffffffffffff1673ffffffffffffffffffffffffffffffffffffffff1681526020018373ffffffffffffffffffffffffffffffffffffffff1673ffffffffffffffffffffffffffffffffffffffff1681526020018281526020019350505050600060405180830381600087803b158015610db857600080fd5b505af1158015610dcc573d6000803e3d6000fd5b505050506000811115610de657610de4338383611639565b505b5050565b60865481565b60008060008060008089118015610e075750600088115b8015610e19575060008763ffffffff16115b8015610e345750620f424063ffffffff168763ffffffff1611155b1515610e3f57600080fd5b6000861415610e515760009450610ec3565b620f424063ffffffff168763ffffffff161415610e845787610e738a8861225f565b811515610e7c57fe5b049450610ec3565b610e8e8689612292565b9150610e9f828989620f42406122b0565b80945081955050508260ff16610eb58a8661225f565b9060020a9004905088810394505b50505050949350505050565b6000826089600082815260200190815260200160002060000160009054906101000a900460ff161515610f0157600080fd5b6089600085815260200190815260200160002060030160008473ffffffffffffffffffffffffffffffffffffffff1673ffffffffffffffffffffffffffffffffffffffff1681526020019081526020016000205491505092915050565b60008060008060008060008a118015610f775750600089115b8015610f89575060008863ffffffff16115b8015610fa45750620f424063ffffffff168863ffffffff1611155b8015610fb05750898711155b1515610fbb57600080fd5b6000871415610fcd5760009550611055565b89871415610fdd57889550611055565b620f424063ffffffff168863ffffffff1614156110105789610fff8a8961225f565b81151561100857fe5b049550611055565b868a0392506110248a84620f42408b6122b0565b8095508196505050611036898661225f565b91508360ff16899060020a0290508481830381151561105157fe5b0495505b5050505050949350505050565b60008054600181600116156101000203166002900480601f0160208091040260200160405190810160405280929190818152602001828054600181600116156101000203166002900480156110f85780601f106110cd576101008083540402835291602001916110f8565b820191906000526020600020905b8154815290600101906020018083116110db57829003601f168201915b505050505081565b60008060008060008060008b11801561111f575060008a63ffffffff16115b801561113a5750620f424063ffffffff168a63ffffffff1611155b80156111465750600089115b8015611158575060008863ffffffff16115b80156111735750620f424063ffffffff168863ffffffff1611155b151561117e57600080fd5b8763ffffffff168a63ffffffff1614156111b75761119c8b88612292565b6111a68a8961225f565b8115156111af57fe5b049550611200565b6111c18b88612292565b92506111cf838c8c8b6122b0565b80955081965050506111e1898661225f565b91508360ff16899060020a029050848183038115156111fc57fe5b0495505b505050505095945050505050565b608160009054906101000a900473ffffffffffffffffffffffffffffffffffffffff1673ffffffffffffffffffffffffffffffffffffffff163373ffffffffffffffffffffffffffffffffffffffff1614151561126a57600080fd5b80608260006101000a81548173ffffffffffffffffffffffffffffffffffffffff021916908373ffffffffffffffffffffffffffffffffffffffff16021790555050565b608160009054906101000a900473ffffffffffffffffffffffffffffffffffffffff1673ffffffffffffffffffffffffffffffffffffffff163373ffffffffffffffffffffffffffffffffffffffff1614151561130a57600080fd5b608160009054906101000a900473ffffffffffffffffffffffffffffffffffffffff1673ffffffffffffffffffffffffffffffffffffffff167ff8df31144d9c2f0f6b59d69b8b98abd5459d07f2742c4df920b25aae33c6482060405160405180910390a26000608160006101000a81548173ffffffffffffffffffffffffffffffffffffffff021916908373ffffffffffffffffffffffffffffffffffffffff160217905550565b608160009054906101000a900473ffffffffffffffffffffffffffffffffffffffff1673ffffffffffffffffffffffffffffffffffffffff163373ffffffffffffffffffffffffffffffffffffffff1614151561140f57600080fd5b80608360006101000a81548173ffffffffffffffffffffffffffffffffffffffff021916908373ffffffffffffffffffffffffffffffffffffffff16021790555050565b608160009054906101000a900473ffffffffffffffffffffffffffffffffffffffff1673ffffffffffffffffffffffffffffffffffffffff163373ffffffffffffffffffffffffffffffffffffffff161415156114af57600080fd5b80608860006101000a81548163ffffffff021916908363ffffffff16021790555050565b608160009054906101000a900473ffffffffffffffffffffffffffffffffffffffff1681565b608160009054906101000a900473ffffffffffffffffffffffffffffffffffffffff1673ffffffffffffffffffffffffffffffffffffffff163373ffffffffffffffffffffffffffffffffffffffff1614151561155557600080fd5b80608560006101000a81548173ffffffffffffffffffffffffffffffffffffffff021916908373ffffffffffffffffffffffffffffffffffffffff16021790555050565b608160009054906101000a900473ffffffffffffffffffffffffffffffffffffffff1673ffffffffffffffffffffffffffffffffffffffff163373ffffffffffffffffffffffffffffffffffffffff161415156115f557600080fd5b80608460006101000a81548173ffffffffffffffffffffffffffffffffffffffff021916908373ffffffffffffffffffffffffffffffffffffffff16021790555050565b600080836089600082815260200190815260200160002060000160009054906101000a900460ff16151561166c57600080fd5b60008411151561167b57600080fd5b83608460009054906101000a900473ffffffffffffffffffffffffffffffffffffffff1673ffffffffffffffffffffffffffffffffffffffff166370a08231336040518263ffffffff167c0100000000000000000000000000000000000000000000000000000000028152600401808273ffffffffffffffffffffffffffffffffffffffff1673ffffffffffffffffffffffffffffffffffffffff168152602001915050602060405180830381600087803b15801561173957600080fd5b505af115801561174d573d6000803e3d6000fd5b505050506040513d602081101561176357600080fd5b8101908080519060200190929190505050101561187557608560009054906101000a900473ffffffffffffffffffffffffffffffffffffffff1673ffffffffffffffffffffffffffffffffffffffff1663f088d54734336040518363ffffffff167c0100000000000000000000000000000000000000000000000000000000028152600401808273ffffffffffffffffffffffffffffffffffffffff1673ffffffffffffffffffffffffffffffffffffffff1681526020019150506020604051808303818588803b15801561183757600080fd5b505af115801561184b573d6000803e3d6000fd5b50505050506040513d602081101561186257600080fd5b8101908080519060200190929190505050505b83608460009054906101000a900473ffffffffffffffffffffffffffffffffffffffff1673ffffffffffffffffffffffffffffffffffffffff166370a08231336040518263ffffffff167c0100000000000000000000000000000000000000000000000000000000028152600401808273ffffffffffffffffffffffffffffffffffffffff1673ffffffffffffffffffffffffffffffffffffffff168152602001915050602060405180830381600087803b15801561193357600080fd5b505af1158015611947573d6000803e3d6000fd5b505050506040513d602081101561195d57600080fd5b81019080805190602001909291905050501015151561197b57600080fd5b6119858585611b2a565b915060008211151561199657600080fd5b6119a18587846123a8565b15156119ac57600080fd5b6119cc608960008781526020019081526020016000206001015485612292565b6089600087815260200190815260200160002060010181905550608560009054906101000a900473ffffffffffffffffffffffffffffffffffffffff1673ffffffffffffffffffffffffffffffffffffffff166323b872dd3330876040518463ffffffff167c0100000000000000000000000000000000000000000000000000000000028152600401808473ffffffffffffffffffffffffffffffffffffffff1673ffffffffffffffffffffffffffffffffffffffff1681526020018373ffffffffffffffffffffffffffffffffffffffff1673ffffffffffffffffffffffffffffffffffffffff1681526020018281526020019350505050600060405180830381600087803b158015611adf57600080fd5b505af1158015611af3573d6000803e3d6000fd5b505050506001925050509392505050565b608560009054906101000a900473ffffffffffffffffffffffffffffffffffffffff1681565b6000826089600082815260200190815260200160002060000160009054906101000a900460ff161515611b5c57600080fd5b611bbc611b816089600087815260200190815260200160002060020154608654612292565b611ba36089600088815260200190815260200160002060010154608754612292565b608860009054906101000a900463ffffffff1686610df0565b91505092915050565b608160009054906101000a900473ffffffffffffffffffffffffffffffffffffffff1673ffffffffffffffffffffffffffffffffffffffff163373ffffffffffffffffffffffffffffffffffffffff16141515611c2157600080fd5b8060878190555050565b6000816089600082815260200190815260200160002060000160009054906101000a900460ff161515611c5d57600080fd5b6089600084815260200190815260200160002060020154915050919050565b608460009054906101000a900473ffffffffffffffffffffffffffffffffffffffff1681565b600080836089600082815260200190815260200160002060000160009054906101000a900460ff161515611cd557600080fd5b600084111515611ce457600080fd5b83611cef8633610ecf565b10151515611cfc57600080fd5b611d068585611eab565b9150600082111515611d1757600080fd5b60896000868152602001908152602001600020600101548211151515611d3c57600080fd5b611d47853386612567565b1515611d5257600080fd5b611d7260896000878152602001908152602001600020600101548361273e565b6089600087815260200190815260200160002060010181905550608560009054906101000a900473ffffffffffffffffffffffffffffffffffffffff1673ffffffffffffffffffffffffffffffffffffffff166323b872dd3033856040518463ffffffff167c0100000000000000000000000000000000000000000000000000000000028152600401808473ffffffffffffffffffffffffffffffffffffffff1673ffffffffffffffffffffffffffffffffffffffff1681526020018373ffffffffffffffffffffffffffffffffffffffff1673ffffffffffffffffffffffffffffffffffffffff1681526020018281526020019350505050600060405180830381600087803b158015611e8557600080fd5b505af1158015611e99573d6000803e3d6000fd5b50505050505092915050565b60875481565b6000826089600082815260200190815260200160002060000160009054906101000a900460ff161515611edd57600080fd5b611f3d611f026089600087815260200190815260200160002060020154608654612292565b611f246089600088815260200190815260200160002060010154608754612292565b608860009054906101000a900463ffffffff1686610f5e565b91505092915050565b608160009054906101000a900473ffffffffffffffffffffffffffffffffffffffff1673ffffffffffffffffffffffffffffffffffffffff163373ffffffffffffffffffffffffffffffffffffffff16141515611fa257600080fd5b611fab81612757565b50565b6000836089600082815260200190815260200160002060000160009054906101000a900460ff161515611fe057600080fd5b600073ffffffffffffffffffffffffffffffffffffffff168473ffffffffffffffffffffffffffffffffffffffff161415151561201c57600080fd5b6089600086815260200190815260200160002060030160003373ffffffffffffffffffffffffffffffffffffffff1673ffffffffffffffffffffffffffffffffffffffff16815260200190815260200160002054831115151561207e57600080fd5b6120db6089600087815260200190815260200160002060030160003373ffffffffffffffffffffffffffffffffffffffff1673ffffffffffffffffffffffffffffffffffffffff168152602001908152602001600020548461273e565b6089600087815260200190815260200160002060030160003373ffffffffffffffffffffffffffffffffffffffff1673ffffffffffffffffffffffffffffffffffffffff1681526020019081526020016000208190555061218f6089600087815260200190815260200160002060030160008673ffffffffffffffffffffffffffffffffffffffff1673ffffffffffffffffffffffffffffffffffffffff1681526020019081526020016000205484612292565b6089600087815260200190815260200160002060030160008673ffffffffffffffffffffffffffffffffffffffff1673ffffffffffffffffffffffffffffffffffffffff168152602001908152602001600020819055508373ffffffffffffffffffffffffffffffffffffffff163373ffffffffffffffffffffffffffffffffffffffff167ff2dbd98d79f00f7aff338b824931d607bfcc63d47307162470f25a055102d3b08786604051808381526020018281526020019250505060405180910390a360019150509392505050565b60008082840290506000841480612280575082848281151561227d57fe5b04145b151561228857fe5b8091505092915050565b60008082840190508381101515156122a657fe5b8091505092915050565b6000806000806000807002000000000000000000000000000000008a1015156122d557fe5b886f800000000000000000000000000000008b028115156122f257fe5b04925070015bf0a8b1457695355fb8ac404e7a79e383101561231e5761231783612853565b935061232a565b61232783612e22565b93505b8663ffffffff168863ffffffff16850281151561234357fe5b0491507008000000000000000000000000000000008210156123735761236882612f58565b607f9550955061239b565b61237c82613518565b905061239581607f0360ff16839060020a9004826135d8565b81955095505b5050505094509492505050565b60006123ca608960008681526020019081526020016000206002015483612292565b60896000868152602001908152602001600020600201819055506124416089600086815260200190815260200160002060030160008573ffffffffffffffffffffffffffffffffffffffff1673ffffffffffffffffffffffffffffffffffffffff1681526020019081526020016000205483612292565b6089600086815260200190815260200160002060030160008573ffffffffffffffffffffffffffffffffffffffff1673ffffffffffffffffffffffffffffffffffffffff168152602001908152602001600020819055508273ffffffffffffffffffffffffffffffffffffffff167f4e3883c75cc9c752bb1db2e406a822e4a75067ae77ad9a0a4d179f2709b9e1f68584604051808381526020018281526020019250505060405180910390a28273ffffffffffffffffffffffffffffffffffffffff16600073ffffffffffffffffffffffffffffffffffffffff167ff2dbd98d79f00f7aff338b824931d607bfcc63d47307162470f25a055102d3b08685604051808381526020018281526020019250505060405180910390a3600190509392505050565b60006125738484610ecf565b821115151561258157600080fd5b6125de6089600086815260200190815260200160002060030160008573ffffffffffffffffffffffffffffffffffffffff1673ffffffffffffffffffffffffffffffffffffffff168152602001908152602001600020548361273e565b6089600086815260200190815260200160002060030160008573ffffffffffffffffffffffffffffffffffffffff1673ffffffffffffffffffffffffffffffffffffffff1681526020019081526020016000208190555061265560896000868152602001908152602001600020600201548361273e565b60896000868152602001908152602001600020600201819055508273ffffffffffffffffffffffffffffffffffffffff167fe1b6e34006e9871307436c226f232f9c5e7690c1d2c4f4adda4f607a75a9beca8584604051808381526020018281526020019250505060405180910390a2600073ffffffffffffffffffffffffffffffffffffffff168373ffffffffffffffffffffffffffffffffffffffff167ff2dbd98d79f00f7aff338b824931d607bfcc63d47307162470f25a055102d3b08685604051808381526020018281526020019250505060405180910390a3600190509392505050565b600081831015151561274c57fe5b818303905092915050565b600073ffffffffffffffffffffffffffffffffffffffff168173ffffffffffffffffffffffffffffffffffffffff161415151561279357600080fd5b8073ffffffffffffffffffffffffffffffffffffffff16608160009054906101000a900473ffffffffffffffffffffffffffffffffffffffff1673ffffffffffffffffffffffffffffffffffffffff167f8be0079c531659141344cd1fd0a4f28419497f9722a3daafe3b4186f6b6457e060405160405180910390a380608160006101000a81548173ffffffffffffffffffffffffffffffffffffffff021916908373ffffffffffffffffffffffffffffffffffffffff16021790555050565b60008060008060008093506fd3094c70f034de4b96ff7d5b6f99fcd8861015156128bd576f40000000000000000000000000000000840193506fd3094c70f034de4b96ff7d5b6f99fcd86f8000000000000000000000000000000087028115156128b957fe5b0495505b6fa45af1e1f40c333b3de1db4dd55f29a78610151561291c576f20000000000000000000000000000000840193506fa45af1e1f40c333b3de1db4dd55f29a76f80000000000000000000000000000000870281151561291857fe5b0495505b6f910b022db7ae67ce76b441c27035c6a18610151561297b576f10000000000000000000000000000000840193506f910b022db7ae67ce76b441c27035c6a16f80000000000000000000000000000000870281151561297757fe5b0495505b6f88415abbe9a76bead8d00cf112e4d4a8861015156129da576f08000000000000000000000000000000840193506f88415abbe9a76bead8d00cf112e4d4a86f8000000000000000000000000000000087028115156129d657fe5b0495505b6f84102b00893f64c705e841d5d4064bd386101515612a39576f04000000000000000000000000000000840193506f84102b00893f64c705e841d5d4064bd36f800000000000000000000000000000008702811515612a3557fe5b0495505b6f8204055aaef1c8bd5c3259f4822735a286101515612a98576f02000000000000000000000000000000840193506f8204055aaef1c8bd5c3259f4822735a26f800000000000000000000000000000008702811515612a9457fe5b0495505b6f810100ab00222d861931c15e39b44e9986101515612af7576f01000000000000000000000000000000840193506f810100ab00222d861931c15e39b44e996f800000000000000000000000000000008702811515612af357fe5b0495505b6f808040155aabbbe9451521693554f73386101515612b55576e800000000000000000000000000000840193506f808040155aabbbe9451521693554f7336f800000000000000000000000000000008702811515612b5157fe5b0495505b6f80000000000000000000000000000000860392508291506f80000000000000000000000000000000838402811515612b8a57fe5b04905070010000000000000000000000000000000083700100000000000000000000000000000000038302811515612bbe57fe5b04840193506f80000000000000000000000000000000818302811515612be057fe5b049150700200000000000000000000000000000000836faaaaaaaaaaaaaaaaaaaaaaaaaaaaaaaa038302811515612c1357fe5b04840193506f80000000000000000000000000000000818302811515612c3557fe5b049150700300000000000000000000000000000000836f99999999999999999999999999999999038302811515612c6857fe5b04840193506f80000000000000000000000000000000818302811515612c8a57fe5b049150700400000000000000000000000000000000836f92492492492492492492492492492492038302811515612cbd57fe5b04840193506f80000000000000000000000000000000818302811515612cdf57fe5b049150700500000000000000000000000000000000836f8e38e38e38e38e38e38e38e38e38e38e038302811515612d1257fe5b04840193506f80000000000000000000000000000000818302811515612d3457fe5b049150700600000000000000000000000000000000836f8ba2e8ba2e8ba2e8ba2e8ba2e8ba2e8b038302811515612d6757fe5b04840193506f80000000000000000000000000000000818302811515612d8957fe5b049150700700000000000000000000000000000000836f89d89d89d89d89d89d89d89d89d89d89038302811515612dbc57fe5b04840193506f80000000000000000000000000000000818302811515612dde57fe5b049150700800000000000000000000000000000000836f88888888888888888888888888888888038302811515612e1157fe5b048401935083945050505050919050565b6000806000806000925070010000000000000000000000000000000085101515612e9257612e6a6f8000000000000000000000000000000086811515612e6457fe5b046139fc565b91508160ff16859060020a900494506f800000000000000000000000000000008260ff160292505b6f80000000000000000000000000000000851115612f2057607f90505b60008160ff161115612f1f576f80000000000000000000000000000000858602811515612ed857fe5b04945070010000000000000000000000000000000085101515612f13576001859060020a900494506001810360ff1660019060020a02830192505b80600190039050612eaf565b5b6f05b9de1d10bf4103d647b0955897ba806f03f80fe03f80fe03f80fe03f80fe03f88402811515612f4d57fe5b049350505050919050565b600080600080600092506f1000000000000000000000000000000085811515612f7d57fe5b0691508190506f80000000000000000000000000000000828202811515612fa057fe5b0490506710e1b3be415a00008102830192506f80000000000000000000000000000000828202811515612fcf57fe5b0490506705a0913f6b1e00008102830192506f80000000000000000000000000000000828202811515612ffe57fe5b049050670168244fdac780008102830192506f8000000000000000000000000000000082820281151561302d57fe5b049050664807432bc180008102830192506f8000000000000000000000000000000082820281151561305b57fe5b049050660c0135dca040008102830192506f8000000000000000000000000000000082820281151561308957fe5b0490506601b707b1cdc0008102830192506f800000000000000000000000000000008282028115156130b757fe5b0490506536e0f639b8008102830192506f800000000000000000000000000000008282028115156130e457fe5b049050650618fee9f8008102830192506f8000000000000000000000000000000082820281151561311157fe5b049050649c197dcc008102830192506f8000000000000000000000000000000082820281151561313d57fe5b049050640e30dce4008102830192506f8000000000000000000000000000000082820281151561316957fe5b04905064012ebd13008102830192506f8000000000000000000000000000000082820281151561319557fe5b0490506317499f008102830192506f800000000000000000000000000000008282028115156131c057fe5b0490506301a9d4808102830192506f800000000000000000000000000000008282028115156131eb57fe5b049050621c63808102830192506f8000000000000000000000000000000082820281151561321557fe5b0490506201c6388102830192506f8000000000000000000000000000000082820281151561323f57fe5b049050611ab88102830192506f8000000000000000000000000000000082820281151561326857fe5b04905061017c8102830192506f8000000000000000000000000000000082820281151561329157fe5b04905060148102830192506f800000000000000000000000000000008282028115156132b957fe5b04905060018102830192506f80000000000000000000000000000000826721c3677c82b40000858115156132e957fe5b040101925060006f10000000000000000000000000000000861614151561333d5770018ebef9eac820ae8682b9793ac6d1e7767001c3d6a24ed82218787d624d3e5eba95f9840281151561333957fe5b0492505b60006f20000000000000000000000000000000861614151561338c577001368b2fc6f9609fe7aceb46aa619baed470018ebef9eac820ae8682b9793ac6d1e778840281151561338857fe5b0492505b60006f4000000000000000000000000000000086161415156133da576fbc5ab1b16779be3575bd8f0520a9f21f7001368b2fc6f9609fe7aceb46aa619baed584028115156133d657fe5b0492505b60006f800000000000000000000000000000008616141515613427576f454aaa8efe072e7f6ddbab84b40a55c96fbc5ab1b16779be3575bd8f0520a9f21e840281151561342357fe5b0492505b60007001000000000000000000000000000000008616141515613475576f0960aadc109e7a3bf4578099615711ea6f454aaa8efe072e7f6ddbab84b40a55c5840281151561347157fe5b0492505b600070020000000000000000000000000000000086161415156134c2576e2bf84208204f5977f9a8cf01fdce3d6f0960aadc109e7a3bf4578099615711d784028115156134be57fe5b0492505b6000700400000000000000000000000000000000861614151561350d576d03c6ab775dd0b95b4cbee7e65d116e2bf84208204f5977f9a8cf01fdc307840281151561350957fe5b0492505b829350505050919050565b60008060008060209250607f91505b8160ff166001840160ff16101561357957600282840160ff1681151561354957fe5b0490508460018260ff1660808110151561355f57fe5b015410151561357057809250613574565b8091505b613527565b8460018360ff1660808110151561358c57fe5b015410151561359d578193506135d0565b8460018460ff166080811015156135b057fe5b01541015156135c1578293506135d0565b600015156135cb57fe5b600093505b505050919050565b6000806000849150600090508360ff168583029060020a900491506f03442c4e6074a82f1797f72ac00000008202810190508360ff168583029060020a900491506f0116b96f757c380fb287fd0e400000008202810190508360ff168583029060020a900491506e45ae5bdd5f0e03eca1ff43900000008202810190508360ff168583029060020a900491506e0defabf91302cd95b9ffda500000008202810190508360ff168583029060020a900491506e02529ca9832b22439efff9b80000008202810190508360ff168583029060020a900491506d54f1cf12bd04e516b6da880000008202810190508360ff168583029060020a900491506d0a9e39e257a09ca2d6db510000008202810190508360ff168583029060020a900491506d012e066e7b839fa050c3090000008202810190508360ff168583029060020a900491506c1e33d7d926c329a1ad1a8000008202810190508360ff168583029060020a900491506c02bee513bdb4a6b19b5f8000008202810190508360ff168583029060020a900491506b3a9316fa79b88eccf2a000008202810190508360ff168583029060020a900491506b048177ebe1fa8123752000008202810190508360ff168583029060020a900491506a5263fe90242dcbacf000008202810190508360ff168583029060020a900491506a057e22099c030d941000008202810190508360ff168583029060020a900491506957e22099c030d94100008202810190508360ff168583029060020a9004915069052b6b545699763100008202810190508360ff168583029060020a90049150684985f67696bf7480008202810190508360ff168583029060020a900491506803dea12ea99e4980008202810190508360ff168583029060020a900491506731880f2214b6e0008202810190508360ff168583029060020a9004915067025bcff56eb360008202810190508360ff168583029060020a90049150661b722e10ab10008202810190508360ff168583029060020a900491506601317c700770008202810190508360ff168583029060020a90049150650cba84aafa008202810190508360ff168583029060020a900491506482573a0a008202810190508360ff168583029060020a900491506405035ad9008202810190508360ff168583029060020a90049150632f881b008202810190508360ff168583029060020a900491506301b293408202810190508360ff168583029060020a90049150620efc408202810190508360ff168583029060020a90049150617fe08202810190508360ff168583029060020a900491506104208202810190508360ff168583029060020a9004915060218202810190508360ff168583029060020a9004915060018202810190508360ff1660019060020a02856f0688589cc0e9505e2f2fee5580000000838115156139ef57fe5b0401019250505092915050565b6000806000809150610100841015613a33575b6001841115613a2e576001849060020a90049350600182019150613a0f565b613a7e565b608090505b60008160ff161115613a7d578060ff1660019060020a0284101515613a6a578060ff16849060020a9004935080821791505b60018160ff169060020a90049050613a38565b5b81925050509190505600a165627a7a723058204a5eeac1d3cd196d36e2f14ccda3005674cc29d28c6bafc0a374984f3bac177a0029",
  "source": "pragma solidity ^0.4.18;\n\nimport \"zeppelin-solidity/contracts/ownership/ownable.sol\";\nimport \"bancor-contracts/solidity/contracts/converter/BancorFormula.sol\";\nimport \"./ICloversController.sol\";\nimport \"./IClovers.sol\";\nimport \"./IClubTokenController.sol\";\nimport \"./IClubToken.sol\";\n\ncontract CurationMarket is BancorFormula, Ownable {\n\n    address public clovers;\n    address public cloversController;\n    address public clubToken;\n    address public clubTokenController;\n\n    uint256 public virtualSupply;\n    uint256 public virtualBalance;\n    uint32 public reserveRatio; // represented in ppm, 1-1000000\n\n    struct Market {\n        bool exists;\n        uint256 poolBalance;\n        uint256 totalSupply;\n        mapping(address => uint256) balances;\n    }\n    mapping(uint256 => Market) public cloverMarkets;\n\n    event Transfer(uint256 _tokenId, address indexed from, address indexed to, uint256 value);\n    event Mint(uint256 _tokenId, address indexed to, uint256 amount);\n    event Burn(uint256 _tokenId, address indexed burner, uint256 value);\n\n    constructor(\n        uint256 _virtualSupply,\n        uint256 _virtualBalance,\n        uint32 _reserveRatio,\n        address _clovers,\n        address _cloversController,\n        address _clubToken,\n        address _clubTokenController\n    ) public {\n        updateVirtualSupply(_virtualSupply);\n        updateVirtualBalance(_virtualBalance);\n        updateReserveRatio(_reserveRatio);\n\n        updateClovers(_clovers);\n        updateCloversController(_cloversController);\n        updateClubToken(_clubToken);\n        updateClubTokenController(_clubTokenController);\n\n    }\n\n    modifier marketExists(uint256 _tokenId) {\n        require(cloverMarkets[_tokenId].exists);\n        _;\n    }\n\n\n    /**\n    * @dev Total number of tokens in existence\n    */\n    function totalSupply(uint256 _tokenId) public view marketExists(_tokenId) returns (uint256) {\n        return cloverMarkets[_tokenId].totalSupply;\n    }\n\n    /**\n    * @dev Gets the balance of the specified address.\n    * @param _owner The address to query the the balance of.\n    * @return An uint256 representing the amount owned by the passed address.\n    */\n    function balanceOf(uint256 _tokenId, address _owner) public view marketExists(_tokenId) returns (uint256) {\n        return cloverMarkets[_tokenId].balances[_owner];\n    }\n\n    /**\n    * @dev gets the amount of tokens returned from spending Eth\n    * @param buyValue The amount of Eth to be spent\n    * @return A uint256 representing the amount of tokens gained in exchange for the Eth.\n    */\n    function getBuy(uint256 _tokenId, uint256 buyValue) public constant\n    marketExists(_tokenId)\n    returns(uint256){\n        return calculatePurchaseReturn(\n            safeAdd(cloverMarkets[_tokenId].totalSupply, virtualSupply),\n            safeAdd(cloverMarkets[_tokenId].poolBalance, virtualBalance),\n            reserveRatio,\n            buyValue);\n    }\n\n\n    /**\n    * @dev gets the amount of Eth returned from selling tokens\n    * @param sellAmount The amount of tokens to be sold\n    * @return A uint256 representing the amount of Eth gained in exchange for the tokens.\n    */\n\n    function getSell(uint256 _tokenId, uint256 sellAmount) public constant\n    marketExists(_tokenId)\n    returns(uint256) {\n        return calculateSaleReturn(\n            safeAdd(cloverMarkets[_tokenId].totalSupply, virtualSupply),\n            safeAdd(cloverMarkets[_tokenId].poolBalance, virtualBalance),\n            reserveRatio,\n            sellAmount);\n    }\n\n    /**\n    * @dev Transfer token for a specified address\n    * @param _tokenId The _tokenId of the market.\n    * @param _to The address to transfer to.\n    * @param _value The amount to be transferred.\n    */\n    function transfer(uint256 _tokenId, address _to, uint256 _value) public marketExists(_tokenId) returns (bool) {\n        require(_to != address(0));\n        require(_value <= cloverMarkets[_tokenId].balances[msg.sender]);\n\n        cloverMarkets[_tokenId].balances[msg.sender] = safeSub(cloverMarkets[_tokenId].balances[msg.sender], _value);\n        cloverMarkets[_tokenId].balances[_to] = safeAdd(cloverMarkets[_tokenId].balances[_to], _value);\n        emit Transfer(_tokenId, msg.sender, _to, _value);\n        return true;\n    }\n\n    function updateVirtualSupply(uint256 _virtualSupply) public onlyOwner {\n        virtualSupply = _virtualSupply;\n    }\n    function updateVirtualBalance(uint256 _virtualBalance) public onlyOwner {\n        virtualBalance = _virtualBalance;\n    }\n    function updateReserveRatio(uint32 _reserveRatio) public onlyOwner {\n        reserveRatio = _reserveRatio;\n    }\n\n    function updateClovers(address _clovers) public onlyOwner {\n        clovers = _clovers;\n    }\n    function updateCloversController(address _cloversController) public onlyOwner {\n        cloversController = _cloversController;\n    }\n    function updateClubToken(address _clubToken) public onlyOwner {\n        clubToken = _clubToken;\n    }\n    function updateClubTokenController(address _clubTokenController) public onlyOwner {\n        clubTokenController = _clubTokenController;\n    }\n\n\n    function addCloverToMarket(uint256 _tokenId, uint256 _spendAmount) public payable {\n        require(IClovers(clovers).ownerOf(_tokenId) == msg.sender);\n        require(!cloverMarkets[_tokenId].exists);\n        cloverMarkets[_tokenId].exists = true;\n        ICloversController(cloversController).transferFrom(msg.sender, address(this), _tokenId);\n        if (_spendAmount > 0) {\n            buy(msg.sender, _tokenId, _spendAmount);\n        }\n    }\n\n    /**\n    * @dev buy Buy shares with Eth\n    * @param _to The address that should receive the new tokens\n    * @param _tokenId The tokenId that should be bought into\n    */\n    function buy(address _to, uint256 _tokenId, uint256 _spendAmount) public payable\n    marketExists(_tokenId)\n    returns(bool) {\n        require(_spendAmount > 0);\n        if (IClubToken(clubToken).balanceOf(msg.sender) < _spendAmount) {\n            IClubTokenController(clubTokenController).buy.value(msg.value)(msg.sender);\n        }\n        require(IClubToken(clubToken).balanceOf(msg.sender) >= _spendAmount);\n        uint256 tokens = getBuy(_tokenId, _spendAmount);\n        require(tokens > 0);\n        require(_mint(_tokenId, _to, tokens));\n        cloverMarkets[_tokenId].poolBalance = safeAdd(cloverMarkets[_tokenId].poolBalance, _spendAmount);\n        IClubTokenController(clubTokenController).transferFrom(msg.sender, address(this), _spendAmount);\n        return true;\n    }\n\n\n    function _mint(uint256 _tokenId, address _to, uint256 _amount) internal returns(bool) {\n        cloverMarkets[_tokenId].totalSupply = safeAdd(cloverMarkets[_tokenId].totalSupply, _amount);\n        cloverMarkets[_tokenId].balances[_to] = safeAdd(cloverMarkets[_tokenId].balances[_to], _amount);\n        emit Mint(_tokenId, _to, _amount);\n        emit Transfer(_tokenId, address(0), _to, _amount);\n        return true;\n    }\n\n\n    /**\n    * @dev sell Sell ClubTokens for Eth\n    * @param _tokenId The token getting sold\n    * @param sellAmount The amount of tokens to sell\n    */\n    function sell(uint256 _tokenId, uint256 sellAmount) public\n    marketExists(_tokenId)\n    returns(bool) {\n        require(sellAmount > 0);\n        require(balanceOf(_tokenId, msg.sender) >= sellAmount);\n        uint256 saleReturn = getSell(_tokenId, sellAmount);\n        require(saleReturn > 0);\n        require(saleReturn <= cloverMarkets[_tokenId].poolBalance);\n        require(_burn(_tokenId, msg.sender, sellAmount));\n        cloverMarkets[_tokenId].poolBalance = safeSub(cloverMarkets[_tokenId].poolBalance, saleReturn);\n        IClubTokenController(clubTokenController).transferFrom(address(this), msg.sender, saleReturn);\n    }\n\n\n    function _burn(uint256 _tokenId, address _who, uint256 _value) internal returns(bool){\n        require(_value <= balanceOf(_tokenId, _who));\n        // no need to require value <= totalSupply, since that would imply the\n        // sender's balance is greater than the totalSupply, which *should* be an assertion failure\n\n        cloverMarkets[_tokenId].balances[_who] = safeSub(cloverMarkets[_tokenId].balances[_who], _value);\n        cloverMarkets[_tokenId].totalSupply = safeSub(cloverMarkets[_tokenId].totalSupply, _value);\n        emit Burn(_tokenId, _who, _value);\n        emit Transfer(_tokenId, _who, address(0), _value);\n        return true;\n    }\n}\n",
  "sourcePath": "/Users/billy/clovers/clovers-contracts/contracts/CurationMarket.sol",
  "compiler": {
    "name": "solc",
    "version": "0.4.24+commit.e67f0147.Emscripten.clang"
  },
  "schemaVersion": "2.0.1",
  "updatedAt": "2018-08-02T17:09:37.716Z"
}