{
  "contractName": "ERC721BasicToken",
  "abi": [
    {
      "constant": true,
      "inputs": [
        {
          "name": "_interfaceId",
          "type": "bytes4"
        }
      ],
      "name": "supportsInterface",
      "outputs": [
        {
          "name": "",
          "type": "bool"
        }
      ],
      "payable": false,
      "stateMutability": "view",
      "type": "function"
    },
    {
      "constant": true,
      "inputs": [],
      "name": "InterfaceId_ERC165",
      "outputs": [
        {
          "name": "",
          "type": "bytes4"
        }
      ],
      "payable": false,
      "stateMutability": "view",
      "type": "function"
    },
    {
      "inputs": [],
      "payable": false,
      "stateMutability": "nonpayable",
      "type": "constructor"
    },
    {
      "anonymous": false,
      "inputs": [
        {
          "indexed": true,
          "name": "_from",
          "type": "address"
        },
        {
          "indexed": true,
          "name": "_to",
          "type": "address"
        },
        {
          "indexed": true,
          "name": "_tokenId",
          "type": "uint256"
        }
      ],
      "name": "Transfer",
      "type": "event"
    },
    {
      "anonymous": false,
      "inputs": [
        {
          "indexed": true,
          "name": "_owner",
          "type": "address"
        },
        {
          "indexed": true,
          "name": "_approved",
          "type": "address"
        },
        {
          "indexed": true,
          "name": "_tokenId",
          "type": "uint256"
        }
      ],
      "name": "Approval",
      "type": "event"
    },
    {
      "anonymous": false,
      "inputs": [
        {
          "indexed": true,
          "name": "_owner",
          "type": "address"
        },
        {
          "indexed": true,
          "name": "_operator",
          "type": "address"
        },
        {
          "indexed": false,
          "name": "_approved",
          "type": "bool"
        }
      ],
      "name": "ApprovalForAll",
      "type": "event"
    },
    {
      "constant": true,
      "inputs": [
        {
          "name": "_owner",
          "type": "address"
        }
      ],
      "name": "balanceOf",
      "outputs": [
        {
          "name": "",
          "type": "uint256"
        }
      ],
      "payable": false,
      "stateMutability": "view",
      "type": "function"
    },
    {
      "constant": true,
      "inputs": [
        {
          "name": "_tokenId",
          "type": "uint256"
        }
      ],
      "name": "ownerOf",
      "outputs": [
        {
          "name": "",
          "type": "address"
        }
      ],
      "payable": false,
      "stateMutability": "view",
      "type": "function"
    },
    {
      "constant": true,
      "inputs": [
        {
          "name": "_tokenId",
          "type": "uint256"
        }
      ],
      "name": "exists",
      "outputs": [
        {
          "name": "",
          "type": "bool"
        }
      ],
      "payable": false,
      "stateMutability": "view",
      "type": "function"
    },
    {
      "constant": false,
      "inputs": [
        {
          "name": "_to",
          "type": "address"
        },
        {
          "name": "_tokenId",
          "type": "uint256"
        }
      ],
      "name": "approve",
      "outputs": [],
      "payable": false,
      "stateMutability": "nonpayable",
      "type": "function"
    },
    {
      "constant": true,
      "inputs": [
        {
          "name": "_tokenId",
          "type": "uint256"
        }
      ],
      "name": "getApproved",
      "outputs": [
        {
          "name": "",
          "type": "address"
        }
      ],
      "payable": false,
      "stateMutability": "view",
      "type": "function"
    },
    {
      "constant": false,
      "inputs": [
        {
          "name": "_to",
          "type": "address"
        },
        {
          "name": "_approved",
          "type": "bool"
        }
      ],
      "name": "setApprovalForAll",
      "outputs": [],
      "payable": false,
      "stateMutability": "nonpayable",
      "type": "function"
    },
    {
      "constant": true,
      "inputs": [
        {
          "name": "_owner",
          "type": "address"
        },
        {
          "name": "_operator",
          "type": "address"
        }
      ],
      "name": "isApprovedForAll",
      "outputs": [
        {
          "name": "",
          "type": "bool"
        }
      ],
      "payable": false,
      "stateMutability": "view",
      "type": "function"
    },
    {
      "constant": false,
      "inputs": [
        {
          "name": "_from",
          "type": "address"
        },
        {
          "name": "_to",
          "type": "address"
        },
        {
          "name": "_tokenId",
          "type": "uint256"
        }
      ],
      "name": "transferFrom",
      "outputs": [],
      "payable": false,
      "stateMutability": "nonpayable",
      "type": "function"
    },
    {
      "constant": false,
      "inputs": [
        {
          "name": "_from",
          "type": "address"
        },
        {
          "name": "_to",
          "type": "address"
        },
        {
          "name": "_tokenId",
          "type": "uint256"
        }
      ],
      "name": "safeTransferFrom",
      "outputs": [],
      "payable": false,
      "stateMutability": "nonpayable",
      "type": "function"
    },
    {
      "constant": false,
      "inputs": [
        {
          "name": "_from",
          "type": "address"
        },
        {
          "name": "_to",
          "type": "address"
        },
        {
          "name": "_tokenId",
          "type": "uint256"
        },
        {
          "name": "_data",
          "type": "bytes"
        }
      ],
      "name": "safeTransferFrom",
      "outputs": [],
      "payable": false,
      "stateMutability": "nonpayable",
      "type": "function"
    }
  ],
  "bytecode": "0x608060405234801561001057600080fd5b506100437f01ffc9a7000000000000000000000000000000000000000000000000000000006401000000006100ac810204565b6100757f80ac58cd000000000000000000000000000000000000000000000000000000006401000000006100ac810204565b6100a77f4f558e79000000000000000000000000000000000000000000000000000000006401000000006100ac810204565b610118565b7fffffffff0000000000000000000000000000000000000000000000000000000080821614156100db57600080fd5b7fffffffff00000000000000000000000000000000000000000000000000000000166000908152602081905260409020805460ff19166001179055565b610caa806101276000396000f3006080604052600436106100b95763ffffffff7c010000000000000000000000000000000000000000000000000000000060003504166301ffc9a781146100be578063081812fc1461010c578063095ea7b31461014d57806319fa8f501461018057806323b872dd146101ca57806342842e0e146102015780634f558e79146102385780636352211e1461025057806370a0823114610268578063a22cb465146102a8578063b88d4fde146102db578063e985e9c514610357575b600080fd5b3480156100ca57600080fd5b506100f87fffffffff000000000000000000000000000000000000000000000000000000006004351661038b565b604080519115158252519081900360200190f35b34801561011857600080fd5b506101246004356103c2565b6040805173ffffffffffffffffffffffffffffffffffffffff9092168252519081900360200190f35b34801561015957600080fd5b5061017e73ffffffffffffffffffffffffffffffffffffffff600435166024356103ea565b005b34801561018c57600080fd5b506101956104d2565b604080517fffffffff000000000000000000000000000000000000000000000000000000009092168252519081900360200190f35b3480156101d657600080fd5b5061017e73ffffffffffffffffffffffffffffffffffffffff600435811690602435166044356104f6565b34801561020d57600080fd5b5061017e73ffffffffffffffffffffffffffffffffffffffff600435811690602435166044356105cf565b34801561024457600080fd5b506100f8600435610607565b34801561025c57600080fd5b50610124600435610631565b34801561027457600080fd5b5061029673ffffffffffffffffffffffffffffffffffffffff60043516610668565b60408051918252519081900360200190f35b3480156102b457600080fd5b5061017e73ffffffffffffffffffffffffffffffffffffffff6004351660243515156106b5565b3480156102e757600080fd5b50604080516020601f60643560048181013592830184900484028501840190955281845261017e9473ffffffffffffffffffffffffffffffffffffffff81358116956024803590921695604435953695608494019181908401838280828437509497506107719650505050505050565b34801561036357600080fd5b506100f873ffffffffffffffffffffffffffffffffffffffff600435811690602435166107b0565b7fffffffff000000000000000000000000000000000000000000000000000000001660009081526020819052604090205460ff1690565b60009081526002602052604090205473ffffffffffffffffffffffffffffffffffffffff1690565b60006103f582610631565b905073ffffffffffffffffffffffffffffffffffffffff838116908216141561041d57600080fd5b3373ffffffffffffffffffffffffffffffffffffffff82161480610446575061044681336107b0565b151561045157600080fd5b60008281526002602052604080822080547fffffffffffffffffffffffff00000000000000000000000000000000000000001673ffffffffffffffffffffffffffffffffffffffff87811691821790925591518593918516917f8c5be1e5ebec7d5bd14f71427d1e84f3dd0314c0f7b2291e5b200ac8c7c3b92591a4505050565b7f01ffc9a70000000000000000000000000000000000000000000000000000000081565b8061050133826107eb565b151561050c57600080fd5b73ffffffffffffffffffffffffffffffffffffffff8416151561052e57600080fd5b73ffffffffffffffffffffffffffffffffffffffff8316151561055057600080fd5b61055a848361087e565b6105648483610921565b61056e83836109f6565b818373ffffffffffffffffffffffffffffffffffffffff168573ffffffffffffffffffffffffffffffffffffffff167fddf252ad1be2c89b69c2b068fc378daa952ba7f163c4a11628f55a4df523b3ef60405160405180910390a450505050565b806105da33826107eb565b15156105e557600080fd5b6106018484846020604051908101604052806000815250610771565b50505050565b60009081526001602052604090205473ffffffffffffffffffffffffffffffffffffffff16151590565b60008181526001602052604081205473ffffffffffffffffffffffffffffffffffffffff1680151561066257600080fd5b92915050565b600073ffffffffffffffffffffffffffffffffffffffff8216151561068c57600080fd5b5073ffffffffffffffffffffffffffffffffffffffff1660009081526003602052604090205490565b73ffffffffffffffffffffffffffffffffffffffff82163314156106d857600080fd5b33600081815260046020908152604080832073ffffffffffffffffffffffffffffffffffffffff87168085529083529281902080547fffffffffffffffffffffffffffffffffffffffffffffffffffffffffffffff0016861515908117909155815190815290519293927f17307eab39ab6107e8899845ad3d59bd9653f200f220920489ca2b5937696c31929181900390910190a35050565b8161077c33826107eb565b151561078757600080fd5b6107928585856104f6565b61079e85858585610ab8565b15156107a957600080fd5b5050505050565b73ffffffffffffffffffffffffffffffffffffffff918216600090815260046020908152604080832093909416825291909152205460ff1690565b6000806107f783610631565b90508073ffffffffffffffffffffffffffffffffffffffff168473ffffffffffffffffffffffffffffffffffffffff16148061086657508373ffffffffffffffffffffffffffffffffffffffff1661084e846103c2565b73ffffffffffffffffffffffffffffffffffffffff16145b80610876575061087681856107b0565b949350505050565b8173ffffffffffffffffffffffffffffffffffffffff1661089e82610631565b73ffffffffffffffffffffffffffffffffffffffff16146108be57600080fd5b60008181526002602052604090205473ffffffffffffffffffffffffffffffffffffffff161561091d57600081815260026020526040902080547fffffffffffffffffffffffff00000000000000000000000000000000000000001690555b5050565b8173ffffffffffffffffffffffffffffffffffffffff1661094182610631565b73ffffffffffffffffffffffffffffffffffffffff161461096157600080fd5b73ffffffffffffffffffffffffffffffffffffffff821660009081526003602052604090205461099890600163ffffffff610c5716565b73ffffffffffffffffffffffffffffffffffffffff90921660009081526003602090815260408083209490945591815260019091522080547fffffffffffffffffffffffff0000000000000000000000000000000000000000169055565b60008181526001602052604090205473ffffffffffffffffffffffffffffffffffffffff1615610a2557600080fd5b600081815260016020818152604080842080547fffffffffffffffffffffffff00000000000000000000000000000000000000001673ffffffffffffffffffffffffffffffffffffffff88169081179091558452600390915290912054610a8b91610c69565b73ffffffffffffffffffffffffffffffffffffffff90921660009081526003602052604090209190915550565b600080610ada8573ffffffffffffffffffffffffffffffffffffffff16610c76565b1515610ae95760019150610c4e565b6040517f150b7a02000000000000000000000000000000000000000000000000000000008152336004820181815273ffffffffffffffffffffffffffffffffffffffff898116602485015260448401889052608060648501908152875160848601528751918a169463150b7a0294938c938b938b93909160a490910190602085019080838360005b83811015610b89578181015183820152602001610b71565b50505050905090810190601f168015610bb65780820380516001836020036101000a031916815260200191505b5095505050505050602060405180830381600087803b158015610bd857600080fd5b505af1158015610bec573d6000803e3d6000fd5b505050506040513d6020811015610c0257600080fd5b50517fffffffff0000000000000000000000000000000000000000000000000000000081167f150b7a020000000000000000000000000000000000000000000000000000000014925090505b50949350505050565b600082821115610c6357fe5b50900390565b8181018281101561066257fe5b6000903b11905600a165627a7a723058203914ee2d2ca85e801d737b33a5225ea5fb1208633e90a14e47f359ad846486350029",
  "source": "pragma solidity ^0.4.24;\n\nimport \"./ERC721Basic.sol\";\nimport \"./ERC721Receiver.sol\";\nimport \"../../math/SafeMath.sol\";\nimport \"../../AddressUtils.sol\";\nimport \"../../introspection/SupportsInterfaceWithLookup.sol\";\n\n\n/**\n * @title ERC721 Non-Fungible Token Standard basic implementation\n * @dev see https://github.com/ethereum/EIPs/blob/master/EIPS/eip-721.md\n */\ncontract ERC721BasicToken is SupportsInterfaceWithLookup, ERC721Basic {\n\n  bytes4 private constant InterfaceId_ERC721 = 0x80ac58cd;\n  /*\n   * 0x80ac58cd ===\n   *   bytes4(keccak256('balanceOf(address)')) ^\n   *   bytes4(keccak256('ownerOf(uint256)')) ^\n   *   bytes4(keccak256('approve(address,uint256)')) ^\n   *   bytes4(keccak256('getApproved(uint256)')) ^\n   *   bytes4(keccak256('setApprovalForAll(address,bool)')) ^\n   *   bytes4(keccak256('isApprovedForAll(address,address)')) ^\n   *   bytes4(keccak256('transferFrom(address,address,uint256)')) ^\n   *   bytes4(keccak256('safeTransferFrom(address,address,uint256)')) ^\n   *   bytes4(keccak256('safeTransferFrom(address,address,uint256,bytes)'))\n   */\n\n  bytes4 private constant InterfaceId_ERC721Exists = 0x4f558e79;\n  /*\n   * 0x4f558e79 ===\n   *   bytes4(keccak256('exists(uint256)'))\n   */\n\n  using SafeMath for uint256;\n  using AddressUtils for address;\n\n  // Equals to `bytes4(keccak256(\"onERC721Received(address,address,uint256,bytes)\"))`\n  // which can be also obtained as `ERC721Receiver(0).onERC721Received.selector`\n  bytes4 private constant ERC721_RECEIVED = 0x150b7a02;\n\n  // Mapping from token ID to owner\n  mapping (uint256 => address) internal tokenOwner;\n\n  // Mapping from token ID to approved address\n  mapping (uint256 => address) internal tokenApprovals;\n\n  // Mapping from owner to number of owned token\n  mapping (address => uint256) internal ownedTokensCount;\n\n  // Mapping from owner to operator approvals\n  mapping (address => mapping (address => bool)) internal operatorApprovals;\n\n  /**\n   * @dev Guarantees msg.sender is owner of the given token\n   * @param _tokenId uint256 ID of the token to validate its ownership belongs to msg.sender\n   */\n  modifier onlyOwnerOf(uint256 _tokenId) {\n    require(ownerOf(_tokenId) == msg.sender);\n    _;\n  }\n\n  /**\n   * @dev Checks msg.sender can transfer a token, by being owner, approved, or operator\n   * @param _tokenId uint256 ID of the token to validate\n   */\n  modifier canTransfer(uint256 _tokenId) {\n    require(isApprovedOrOwner(msg.sender, _tokenId));\n    _;\n  }\n\n  constructor()\n    public\n  {\n    // register the supported interfaces to conform to ERC721 via ERC165\n    _registerInterface(InterfaceId_ERC721);\n    _registerInterface(InterfaceId_ERC721Exists);\n  }\n\n  /**\n   * @dev Gets the balance of the specified address\n   * @param _owner address to query the balance of\n   * @return uint256 representing the amount owned by the passed address\n   */\n  function balanceOf(address _owner) public view returns (uint256) {\n    require(_owner != address(0));\n    return ownedTokensCount[_owner];\n  }\n\n  /**\n   * @dev Gets the owner of the specified token ID\n   * @param _tokenId uint256 ID of the token to query the owner of\n   * @return owner address currently marked as the owner of the given token ID\n   */\n  function ownerOf(uint256 _tokenId) public view returns (address) {\n    address owner = tokenOwner[_tokenId];\n    require(owner != address(0));\n    return owner;\n  }\n\n  /**\n   * @dev Returns whether the specified token exists\n   * @param _tokenId uint256 ID of the token to query the existence of\n   * @return whether the token exists\n   */\n  function exists(uint256 _tokenId) public view returns (bool) {\n    address owner = tokenOwner[_tokenId];\n    return owner != address(0);\n  }\n\n  /**\n   * @dev Approves another address to transfer the given token ID\n   * The zero address indicates there is no approved address.\n   * There can only be one approved address per token at a given time.\n   * Can only be called by the token owner or an approved operator.\n   * @param _to address to be approved for the given token ID\n   * @param _tokenId uint256 ID of the token to be approved\n   */\n  function approve(address _to, uint256 _tokenId) public {\n    address owner = ownerOf(_tokenId);\n    require(_to != owner);\n    require(msg.sender == owner || isApprovedForAll(owner, msg.sender));\n\n    tokenApprovals[_tokenId] = _to;\n    emit Approval(owner, _to, _tokenId);\n  }\n\n  /**\n   * @dev Gets the approved address for a token ID, or zero if no address set\n   * @param _tokenId uint256 ID of the token to query the approval of\n   * @return address currently approved for the given token ID\n   */\n  function getApproved(uint256 _tokenId) public view returns (address) {\n    return tokenApprovals[_tokenId];\n  }\n\n  /**\n   * @dev Sets or unsets the approval of a given operator\n   * An operator is allowed to transfer all tokens of the sender on their behalf\n   * @param _to operator address to set the approval\n   * @param _approved representing the status of the approval to be set\n   */\n  function setApprovalForAll(address _to, bool _approved) public {\n    require(_to != msg.sender);\n    operatorApprovals[msg.sender][_to] = _approved;\n    emit ApprovalForAll(msg.sender, _to, _approved);\n  }\n\n  /**\n   * @dev Tells whether an operator is approved by a given owner\n   * @param _owner owner address which you want to query the approval of\n   * @param _operator operator address which you want to query the approval of\n   * @return bool whether the given operator is approved by the given owner\n   */\n  function isApprovedForAll(\n    address _owner,\n    address _operator\n  )\n    public\n    view\n    returns (bool)\n  {\n    return operatorApprovals[_owner][_operator];\n  }\n\n  /**\n   * @dev Transfers the ownership of a given token ID to another address\n   * Usage of this method is discouraged, use `safeTransferFrom` whenever possible\n   * Requires the msg sender to be the owner, approved, or operator\n   * @param _from current owner of the token\n   * @param _to address to receive the ownership of the given token ID\n   * @param _tokenId uint256 ID of the token to be transferred\n  */\n  function transferFrom(\n    address _from,\n    address _to,\n    uint256 _tokenId\n  )\n    public\n    canTransfer(_tokenId)\n  {\n    require(_from != address(0));\n    require(_to != address(0));\n\n    clearApproval(_from, _tokenId);\n    removeTokenFrom(_from, _tokenId);\n    addTokenTo(_to, _tokenId);\n\n    emit Transfer(_from, _to, _tokenId);\n  }\n\n  /**\n   * @dev Safely transfers the ownership of a given token ID to another address\n   * If the target address is a contract, it must implement `onERC721Received`,\n   * which is called upon a safe transfer, and return the magic value\n   * `bytes4(keccak256(\"onERC721Received(address,address,uint256,bytes)\"))`; otherwise,\n   * the transfer is reverted.\n   *\n   * Requires the msg sender to be the owner, approved, or operator\n   * @param _from current owner of the token\n   * @param _to address to receive the ownership of the given token ID\n   * @param _tokenId uint256 ID of the token to be transferred\n  */\n  function safeTransferFrom(\n    address _from,\n    address _to,\n    uint256 _tokenId\n  )\n    public\n    canTransfer(_tokenId)\n  {\n    // solium-disable-next-line arg-overflow\n    safeTransferFrom(_from, _to, _tokenId, \"\");\n  }\n\n  /**\n   * @dev Safely transfers the ownership of a given token ID to another address\n   * If the target address is a contract, it must implement `onERC721Received`,\n   * which is called upon a safe transfer, and return the magic value\n   * `bytes4(keccak256(\"onERC721Received(address,address,uint256,bytes)\"))`; otherwise,\n   * the transfer is reverted.\n   * Requires the msg sender to be the owner, approved, or operator\n   * @param _from current owner of the token\n   * @param _to address to receive the ownership of the given token ID\n   * @param _tokenId uint256 ID of the token to be transferred\n   * @param _data bytes data to send along with a safe transfer check\n   */\n  function safeTransferFrom(\n    address _from,\n    address _to,\n    uint256 _tokenId,\n    bytes _data\n  )\n    public\n    canTransfer(_tokenId)\n  {\n    transferFrom(_from, _to, _tokenId);\n    // solium-disable-next-line arg-overflow\n    require(checkAndCallSafeTransfer(_from, _to, _tokenId, _data));\n  }\n\n  /**\n   * @dev Returns whether the given spender can transfer a given token ID\n   * @param _spender address of the spender to query\n   * @param _tokenId uint256 ID of the token to be transferred\n   * @return bool whether the msg.sender is approved for the given token ID,\n   *  is an operator of the owner, or is the owner of the token\n   */\n  function isApprovedOrOwner(\n    address _spender,\n    uint256 _tokenId\n  )\n    internal\n    view\n    returns (bool)\n  {\n    address owner = ownerOf(_tokenId);\n    // Disable solium check because of\n    // https://github.com/duaraghav8/Solium/issues/175\n    // solium-disable-next-line operator-whitespace\n    return (\n      _spender == owner ||\n      getApproved(_tokenId) == _spender ||\n      isApprovedForAll(owner, _spender)\n    );\n  }\n\n  /**\n   * @dev Internal function to mint a new token\n   * Reverts if the given token ID already exists\n   * @param _to The address that will own the minted token\n   * @param _tokenId uint256 ID of the token to be minted by the msg.sender\n   */\n  function _mint(address _to, uint256 _tokenId) internal {\n    require(_to != address(0));\n    addTokenTo(_to, _tokenId);\n    emit Transfer(address(0), _to, _tokenId);\n  }\n\n  /**\n   * @dev Internal function to burn a specific token\n   * Reverts if the token does not exist\n   * @param _tokenId uint256 ID of the token being burned by the msg.sender\n   */\n  function _burn(address _owner, uint256 _tokenId) internal {\n    clearApproval(_owner, _tokenId);\n    removeTokenFrom(_owner, _tokenId);\n    emit Transfer(_owner, address(0), _tokenId);\n  }\n\n  /**\n   * @dev Internal function to clear current approval of a given token ID\n   * Reverts if the given address is not indeed the owner of the token\n   * @param _owner owner of the token\n   * @param _tokenId uint256 ID of the token to be transferred\n   */\n  function clearApproval(address _owner, uint256 _tokenId) internal {\n    require(ownerOf(_tokenId) == _owner);\n    if (tokenApprovals[_tokenId] != address(0)) {\n      tokenApprovals[_tokenId] = address(0);\n    }\n  }\n\n  /**\n   * @dev Internal function to add a token ID to the list of a given address\n   * @param _to address representing the new owner of the given token ID\n   * @param _tokenId uint256 ID of the token to be added to the tokens list of the given address\n   */\n  function addTokenTo(address _to, uint256 _tokenId) internal {\n    require(tokenOwner[_tokenId] == address(0));\n    tokenOwner[_tokenId] = _to;\n    ownedTokensCount[_to] = ownedTokensCount[_to].add(1);\n  }\n\n  /**\n   * @dev Internal function to remove a token ID from the list of a given address\n   * @param _from address representing the previous owner of the given token ID\n   * @param _tokenId uint256 ID of the token to be removed from the tokens list of the given address\n   */\n  function removeTokenFrom(address _from, uint256 _tokenId) internal {\n    require(ownerOf(_tokenId) == _from);\n    ownedTokensCount[_from] = ownedTokensCount[_from].sub(1);\n    tokenOwner[_tokenId] = address(0);\n  }\n\n  /**\n   * @dev Internal function to invoke `onERC721Received` on a target address\n   * The call is not executed if the target address is not a contract\n   * @param _from address representing the previous owner of the given token ID\n   * @param _to target address that will receive the tokens\n   * @param _tokenId uint256 ID of the token to be transferred\n   * @param _data bytes optional data to send along with the call\n   * @return whether the call correctly returned the expected magic value\n   */\n  function checkAndCallSafeTransfer(\n    address _from,\n    address _to,\n    uint256 _tokenId,\n    bytes _data\n  )\n    internal\n    returns (bool)\n  {\n    if (!_to.isContract()) {\n      return true;\n    }\n    bytes4 retval = ERC721Receiver(_to).onERC721Received(\n      msg.sender, _from, _tokenId, _data);\n    return (retval == ERC721_RECEIVED);\n  }\n}\n",
  "sourcePath": "zeppelin-solidity/contracts/token/ERC721/ERC721BasicToken.sol",
  "compiler": {
    "name": "solc",
    "version": "0.4.24+commit.e67f0147.Emscripten.clang"
  },
  "schemaVersion": "2.0.1",
  "updatedAt": "2019-08-27T23:40:13.006Z"
}