{
  "contractName": "HasNoEther",
  "abi": [
    {
      "constant": false,
      "inputs": [],
      "name": "renounceOwnership",
      "outputs": [],
      "payable": false,
      "stateMutability": "nonpayable",
      "type": "function"
    },
    {
      "constant": true,
      "inputs": [],
      "name": "owner",
      "outputs": [
        {
          "name": "",
          "type": "address"
        }
      ],
      "payable": false,
      "stateMutability": "view",
      "type": "function"
    },
    {
      "constant": false,
      "inputs": [
        {
          "name": "_newOwner",
          "type": "address"
        }
      ],
      "name": "transferOwnership",
      "outputs": [],
      "payable": false,
      "stateMutability": "nonpayable",
      "type": "function"
    },
    {
      "inputs": [],
      "payable": true,
      "stateMutability": "payable",
      "type": "constructor"
    },
    {
      "payable": false,
      "stateMutability": "nonpayable",
      "type": "fallback"
    },
    {
      "anonymous": false,
      "inputs": [
        {
          "indexed": true,
          "name": "previousOwner",
          "type": "address"
        }
      ],
      "name": "OwnershipRenounced",
      "type": "event"
    },
    {
      "anonymous": false,
      "inputs": [
        {
          "indexed": true,
          "name": "previousOwner",
          "type": "address"
        },
        {
          "indexed": true,
          "name": "newOwner",
          "type": "address"
        }
      ],
      "name": "OwnershipTransferred",
      "type": "event"
    },
    {
      "constant": false,
      "inputs": [],
      "name": "reclaimEther",
      "outputs": [],
      "payable": false,
      "stateMutability": "nonpayable",
      "type": "function"
    }
  ],
  "bytecode": "0x608060405260008054600160a060020a03191633179055341561002157600080fd5b610327806100306000396000f3006080604052600436106100615763ffffffff7c0100000000000000000000000000000000000000000000000000000000600035041663715018a681146100705780638da5cb5b146100875780639f727c27146100c5578063f2fde38b146100da575b34801561006d57600080fd5b50005b34801561007c57600080fd5b50610085610108565b005b34801561009357600080fd5b5061009c610199565b6040805173ffffffffffffffffffffffffffffffffffffffff9092168252519081900360200190f35b3480156100d157600080fd5b506100856101b5565b3480156100e657600080fd5b5061008573ffffffffffffffffffffffffffffffffffffffff60043516610224565b60005473ffffffffffffffffffffffffffffffffffffffff16331461012c57600080fd5b6000805460405173ffffffffffffffffffffffffffffffffffffffff909116917ff8df31144d9c2f0f6b59d69b8b98abd5459d07f2742c4df920b25aae33c6482091a2600080547fffffffffffffffffffffffff0000000000000000000000000000000000000000169055565b60005473ffffffffffffffffffffffffffffffffffffffff1681565b60005473ffffffffffffffffffffffffffffffffffffffff1633146101d957600080fd5b6000805460405173ffffffffffffffffffffffffffffffffffffffff90911691303180156108fc02929091818181858888f19350505050158015610221573d6000803e3d6000fd5b50565b60005473ffffffffffffffffffffffffffffffffffffffff16331461024857600080fd5b6102218173ffffffffffffffffffffffffffffffffffffffff8116151561026e57600080fd5b6000805460405173ffffffffffffffffffffffffffffffffffffffff808516939216917f8be0079c531659141344cd1fd0a4f28419497f9722a3daafe3b4186f6b6457e091a3600080547fffffffffffffffffffffffff00000000000000000000000000000000000000001673ffffffffffffffffffffffffffffffffffffffff929092169190911790555600a165627a7a72305820e9554865214f3209e0bbf71120268e19209a67a91c3b3155a4d8990cef332afc0029",
  "source": "pragma solidity ^0.4.24;\n\nimport \"./Ownable.sol\";\n\n\n/**\n * @title Contracts that should not own Ether\n * @author Remco Bloemen <remco@2π.com>\n * @dev This tries to block incoming ether to prevent accidental loss of Ether. Should Ether end up\n * in the contract, it will allow the owner to reclaim this ether.\n * @notice Ether can still be sent to this contract by:\n * calling functions labeled `payable`\n * `selfdestruct(contract_address)`\n * mining directly to the contract address\n */\ncontract HasNoEther is Ownable {\n\n  /**\n  * @dev Constructor that rejects incoming Ether\n  * The `payable` flag is added so we can access `msg.value` without compiler warning. If we\n  * leave out payable, then Solidity will allow inheriting contracts to implement a payable\n  * constructor. By doing it this way we prevent a payable constructor from working. Alternatively\n  * we could use assembly to access msg.value.\n  */\n  constructor() public payable {\n    require(msg.value == 0);\n  }\n\n  /**\n   * @dev Disallows direct send by settings a default function without the `payable` flag.\n   */\n  function() external {\n  }\n\n  /**\n   * @dev Transfer all Ether held by the contract to the owner.\n   */\n  function reclaimEther() external onlyOwner {\n    owner.transfer(address(this).balance);\n  }\n}\n",
  "sourcePath": "zeppelin-solidity/contracts/ownership/HasNoEther.sol",
  "compiler": {
    "name": "solc",
    "version": "0.4.24+commit.e67f0147.Emscripten.clang"
  },
  "schemaVersion": "2.0.1",
  "updatedAt": "2019-06-05T09:54:33.815Z"
}