{
  "contractName": "OldToken",
  "abi": [
    {
      "constant": true,
      "inputs": [
        {
          "name": "",
          "type": "bytes16"
        }
      ],
      "name": "clovers",
      "outputs": [
        {
          "name": "exists",
          "type": "bool"
        },
        {
          "name": "first32Moves",
          "type": "bytes28"
        },
        {
          "name": "lastMoves",
          "type": "bytes28"
        },
        {
          "name": "lastPaidAmount",
          "type": "uint256"
        },
        {
          "name": "findersFee",
          "type": "uint256"
        },
        {
          "name": "created",
          "type": "uint256"
        },
        {
          "name": "modified",
          "type": "uint256"
        }
      ],
      "payable": false,
      "stateMutability": "view",
      "type": "function"
    },
    {
      "constant": true,
      "inputs": [],
      "name": "name",
      "outputs": [
        {
          "name": "",
          "type": "string"
        }
      ],
      "payable": false,
      "stateMutability": "view",
      "type": "function"
    },
    {
      "constant": false,
      "inputs": [
        {
          "name": "_spender",
          "type": "address"
        },
        {
          "name": "_value",
          "type": "uint256"
        }
      ],
      "name": "approve",
      "outputs": [
        {
          "name": "",
          "type": "bool"
        }
      ],
      "payable": false,
      "stateMutability": "nonpayable",
      "type": "function"
    },
    {
      "constant": true,
      "inputs": [],
      "name": "totalSupply",
      "outputs": [
        {
          "name": "",
          "type": "uint256"
        }
      ],
      "payable": false,
      "stateMutability": "view",
      "type": "function"
    },
    {
      "constant": false,
      "inputs": [
        {
          "name": "_from",
          "type": "address"
        },
        {
          "name": "_to",
          "type": "address"
        },
        {
          "name": "_value",
          "type": "uint256"
        }
      ],
      "name": "transferFrom",
      "outputs": [
        {
          "name": "",
          "type": "bool"
        }
      ],
      "payable": false,
      "stateMutability": "nonpayable",
      "type": "function"
    },
    {
      "constant": true,
      "inputs": [],
      "name": "INITIAL_SUPPLY",
      "outputs": [
        {
          "name": "",
          "type": "uint256"
        }
      ],
      "payable": false,
      "stateMutability": "view",
      "type": "function"
    },
    {
      "constant": true,
      "inputs": [],
      "name": "decimals",
      "outputs": [
        {
          "name": "",
          "type": "uint256"
        }
      ],
      "payable": false,
      "stateMutability": "view",
      "type": "function"
    },
    {
      "constant": false,
      "inputs": [
        {
          "name": "_spender",
          "type": "address"
        },
        {
          "name": "_subtractedValue",
          "type": "uint256"
        }
      ],
      "name": "decreaseApproval",
      "outputs": [
        {
          "name": "",
          "type": "bool"
        }
      ],
      "payable": false,
      "stateMutability": "nonpayable",
      "type": "function"
    },
    {
      "constant": true,
      "inputs": [
        {
          "name": "_owner",
          "type": "address"
        }
      ],
      "name": "balanceOf",
      "outputs": [
        {
          "name": "",
          "type": "uint256"
        }
      ],
      "payable": false,
      "stateMutability": "view",
      "type": "function"
    },
    {
      "constant": true,
      "inputs": [],
      "name": "owner",
      "outputs": [
        {
          "name": "",
          "type": "address"
        }
      ],
      "payable": false,
      "stateMutability": "view",
      "type": "function"
    },
    {
      "constant": true,
      "inputs": [
        {
          "name": "",
          "type": "uint256"
        }
      ],
      "name": "playerKeys",
      "outputs": [
        {
          "name": "",
          "type": "address"
        }
      ],
      "payable": false,
      "stateMutability": "view",
      "type": "function"
    },
    {
      "constant": true,
      "inputs": [],
      "name": "symbol",
      "outputs": [
        {
          "name": "",
          "type": "string"
        }
      ],
      "payable": false,
      "stateMutability": "view",
      "type": "function"
    },
    {
      "constant": false,
      "inputs": [
        {
          "name": "_to",
          "type": "address"
        },
        {
          "name": "_value",
          "type": "uint256"
        }
      ],
      "name": "transfer",
      "outputs": [
        {
          "name": "",
          "type": "bool"
        }
      ],
      "payable": false,
      "stateMutability": "nonpayable",
      "type": "function"
    },
    {
      "constant": true,
      "inputs": [
        {
          "name": "",
          "type": "uint256"
        }
      ],
      "name": "adminKeys",
      "outputs": [
        {
          "name": "",
          "type": "address"
        }
      ],
      "payable": false,
      "stateMutability": "view",
      "type": "function"
    },
    {
      "constant": false,
      "inputs": [
        {
          "name": "_spender",
          "type": "address"
        },
        {
          "name": "_addedValue",
          "type": "uint256"
        }
      ],
      "name": "increaseApproval",
      "outputs": [
        {
          "name": "",
          "type": "bool"
        }
      ],
      "payable": false,
      "stateMutability": "nonpayable",
      "type": "function"
    },
    {
      "constant": true,
      "inputs": [
        {
          "name": "_owner",
          "type": "address"
        },
        {
          "name": "_spender",
          "type": "address"
        }
      ],
      "name": "allowance",
      "outputs": [
        {
          "name": "",
          "type": "uint256"
        }
      ],
      "payable": false,
      "stateMutability": "view",
      "type": "function"
    },
    {
      "constant": true,
      "inputs": [
        {
          "name": "",
          "type": "address"
        }
      ],
      "name": "players",
      "outputs": [
        {
          "name": "exists",
          "type": "bool"
        },
        {
          "name": "currentCount",
          "type": "uint256"
        }
      ],
      "payable": false,
      "stateMutability": "view",
      "type": "function"
    },
    {
      "constant": true,
      "inputs": [
        {
          "name": "",
          "type": "uint256"
        }
      ],
      "name": "cloverKeys",
      "outputs": [
        {
          "name": "",
          "type": "bytes16"
        }
      ],
      "payable": false,
      "stateMutability": "view",
      "type": "function"
    },
    {
      "inputs": [],
      "payable": false,
      "stateMutability": "nonpayable",
      "type": "constructor"
    },
    {
      "anonymous": false,
      "inputs": [
        {
          "indexed": false,
          "name": "player",
          "type": "address"
        },
        {
          "indexed": false,
          "name": "name",
          "type": "string"
        }
      ],
      "name": "newUserName",
      "type": "event"
    },
    {
      "anonymous": false,
      "inputs": [
        {
          "indexed": false,
          "name": "board",
          "type": "bytes16"
        },
        {
          "indexed": false,
          "name": "name",
          "type": "string"
        }
      ],
      "name": "newCloverName",
      "type": "event"
    },
    {
      "anonymous": false,
      "inputs": [
        {
          "indexed": false,
          "name": "newOwner",
          "type": "address"
        },
        {
          "indexed": false,
          "name": "lastPaidAmount",
          "type": "uint256"
        },
        {
          "indexed": false,
          "name": "board",
          "type": "bytes16"
        },
        {
          "indexed": false,
          "name": "newBoard",
          "type": "bool"
        },
        {
          "indexed": false,
          "name": "first32Moves",
          "type": "bytes28"
        },
        {
          "indexed": false,
          "name": "lastMoves",
          "type": "bytes28"
        },
        {
          "indexed": false,
          "name": "modified",
          "type": "uint256"
        },
        {
          "indexed": false,
          "name": "findersFee",
          "type": "uint256"
        }
      ],
      "name": "Registered",
      "type": "event"
    },
    {
      "anonymous": false,
      "inputs": [
        {
          "indexed": true,
          "name": "owner",
          "type": "address"
        },
        {
          "indexed": true,
          "name": "spender",
          "type": "address"
        },
        {
          "indexed": false,
          "name": "value",
          "type": "uint256"
        }
      ],
      "name": "Approval",
      "type": "event"
    },
    {
      "anonymous": false,
      "inputs": [
        {
          "indexed": true,
          "name": "from",
          "type": "address"
        },
        {
          "indexed": true,
          "name": "to",
          "type": "address"
        },
        {
          "indexed": false,
          "name": "value",
          "type": "uint256"
        }
      ],
      "name": "Transfer",
      "type": "event"
    },
    {
      "constant": true,
      "inputs": [
        {
          "name": "someone",
          "type": "address"
        }
      ],
      "name": "getBalance",
      "outputs": [
        {
          "name": "",
          "type": "uint256"
        }
      ],
      "payable": false,
      "stateMutability": "view",
      "type": "function"
    },
    {
      "constant": true,
      "inputs": [],
      "name": "myAddress",
      "outputs": [
        {
          "name": "",
          "type": "address"
        }
      ],
      "payable": false,
      "stateMutability": "view",
      "type": "function"
    },
    {
      "constant": true,
      "inputs": [],
      "name": "isAdmin",
      "outputs": [
        {
          "name": "",
          "type": "bool"
        }
      ],
      "payable": false,
      "stateMutability": "view",
      "type": "function"
    },
    {
      "constant": true,
      "inputs": [],
      "name": "adminLen",
      "outputs": [
        {
          "name": "",
          "type": "uint256"
        }
      ],
      "payable": false,
      "stateMutability": "view",
      "type": "function"
    },
    {
      "constant": true,
      "inputs": [
        {
          "name": "key",
          "type": "uint256"
        }
      ],
      "name": "adminAt",
      "outputs": [
        {
          "name": "",
          "type": "address"
        }
      ],
      "payable": false,
      "stateMutability": "view",
      "type": "function"
    },
    {
      "constant": true,
      "inputs": [],
      "name": "getTallys",
      "outputs": [
        {
          "name": "",
          "type": "uint256"
        },
        {
          "name": "",
          "type": "uint256"
        },
        {
          "name": "",
          "type": "uint256"
        },
        {
          "name": "",
          "type": "uint256"
        },
        {
          "name": "",
          "type": "uint256"
        },
        {
          "name": "",
          "type": "uint256"
        },
        {
          "name": "",
          "type": "uint256"
        }
      ],
      "payable": false,
      "stateMutability": "view",
      "type": "function"
    },
    {
      "constant": false,
      "inputs": [
        {
          "name": "len",
          "type": "uint256"
        }
      ],
      "name": "changeNameLength",
      "outputs": [],
      "payable": false,
      "stateMutability": "nonpayable",
      "type": "function"
    },
    {
      "constant": false,
      "inputs": [
        {
          "name": "newbie",
          "type": "address"
        }
      ],
      "name": "addAdmin",
      "outputs": [],
      "payable": false,
      "stateMutability": "nonpayable",
      "type": "function"
    },
    {
      "constant": false,
      "inputs": [
        {
          "name": "multiplier",
          "type": "uint256"
        }
      ],
      "name": "updateMultiplier",
      "outputs": [],
      "payable": false,
      "stateMutability": "nonpayable",
      "type": "function"
    },
    {
      "constant": false,
      "inputs": [
        {
          "name": "name",
          "type": "string"
        }
      ],
      "name": "changeName",
      "outputs": [],
      "payable": false,
      "stateMutability": "nonpayable",
      "type": "function"
    },
    {
      "constant": true,
      "inputs": [],
      "name": "listPlayerCount",
      "outputs": [
        {
          "name": "",
          "type": "uint256"
        }
      ],
      "payable": false,
      "stateMutability": "view",
      "type": "function"
    },
    {
      "constant": true,
      "inputs": [
        {
          "name": "playerKey",
          "type": "uint256"
        }
      ],
      "name": "playerAddressByKey",
      "outputs": [
        {
          "name": "",
          "type": "address"
        }
      ],
      "payable": false,
      "stateMutability": "view",
      "type": "function"
    },
    {
      "constant": true,
      "inputs": [
        {
          "name": "player",
          "type": "address"
        }
      ],
      "name": "playerExists",
      "outputs": [
        {
          "name": "",
          "type": "bool"
        }
      ],
      "payable": false,
      "stateMutability": "view",
      "type": "function"
    },
    {
      "constant": true,
      "inputs": [
        {
          "name": "player",
          "type": "address"
        }
      ],
      "name": "playerCurrentCount",
      "outputs": [
        {
          "name": "",
          "type": "uint256"
        }
      ],
      "payable": false,
      "stateMutability": "view",
      "type": "function"
    },
    {
      "constant": true,
      "inputs": [
        {
          "name": "player",
          "type": "address"
        }
      ],
      "name": "playerAllCount",
      "outputs": [
        {
          "name": "",
          "type": "uint256"
        }
      ],
      "payable": false,
      "stateMutability": "view",
      "type": "function"
    },
    {
      "constant": true,
      "inputs": [
        {
          "name": "player",
          "type": "address"
        },
        {
          "name": "cloverKey",
          "type": "uint256"
        }
      ],
      "name": "playerCloverByKey",
      "outputs": [
        {
          "name": "",
          "type": "bytes16"
        }
      ],
      "payable": false,
      "stateMutability": "view",
      "type": "function"
    },
    {
      "constant": true,
      "inputs": [
        {
          "name": "player",
          "type": "address"
        },
        {
          "name": "board",
          "type": "bytes16"
        }
      ],
      "name": "playerOwnsClover",
      "outputs": [
        {
          "name": "",
          "type": "bool"
        }
      ],
      "payable": false,
      "stateMutability": "view",
      "type": "function"
    },
    {
      "constant": true,
      "inputs": [
        {
          "name": "b",
          "type": "bytes16"
        }
      ],
      "name": "cloverExists",
      "outputs": [
        {
          "name": "",
          "type": "bool"
        }
      ],
      "payable": false,
      "stateMutability": "view",
      "type": "function"
    },
    {
      "constant": true,
      "inputs": [],
      "name": "getCloversCount",
      "outputs": [
        {
          "name": "",
          "type": "uint256"
        }
      ],
      "payable": false,
      "stateMutability": "view",
      "type": "function"
    },
    {
      "constant": true,
      "inputs": [
        {
          "name": "boardKey",
          "type": "uint256"
        }
      ],
      "name": "getCloverByKey",
      "outputs": [
        {
          "name": "",
          "type": "bytes16"
        },
        {
          "name": "lastPaidAmount",
          "type": "uint256"
        },
        {
          "name": "owners",
          "type": "uint256"
        },
        {
          "name": "lastOwner",
          "type": "address"
        },
        {
          "name": "first32Moves",
          "type": "bytes28"
        },
        {
          "name": "lastMoves",
          "type": "bytes28"
        }
      ],
      "payable": false,
      "stateMutability": "view",
      "type": "function"
    },
    {
      "constant": true,
      "inputs": [
        {
          "name": "board",
          "type": "bytes16"
        }
      ],
      "name": "getClover",
      "outputs": [
        {
          "name": "",
          "type": "bytes16"
        },
        {
          "name": "lastPaidAmount",
          "type": "uint256"
        },
        {
          "name": "ownersLength",
          "type": "uint256"
        },
        {
          "name": "lastOwner",
          "type": "address"
        },
        {
          "name": "first32Moves",
          "type": "bytes28"
        },
        {
          "name": "lastMoves",
          "type": "bytes28"
        }
      ],
      "payable": false,
      "stateMutability": "view",
      "type": "function"
    },
    {
      "constant": true,
      "inputs": [
        {
          "name": "board",
          "type": "bytes16"
        }
      ],
      "name": "getCloverOwnersLength",
      "outputs": [
        {
          "name": "",
          "type": "uint256"
        }
      ],
      "payable": false,
      "stateMutability": "view",
      "type": "function"
    },
    {
      "constant": true,
      "inputs": [
        {
          "name": "board",
          "type": "bytes16"
        }
      ],
      "name": "getCloverOwner",
      "outputs": [
        {
          "name": "",
          "type": "bytes16"
        },
        {
          "name": "previousOwner",
          "type": "address"
        }
      ],
      "payable": false,
      "stateMutability": "view",
      "type": "function"
    },
    {
      "constant": true,
      "inputs": [
        {
          "name": "board",
          "type": "bytes16"
        },
        {
          "name": "ownerKey",
          "type": "uint256"
        }
      ],
      "name": "getCloverOwnerAtKeyByBoard",
      "outputs": [
        {
          "name": "",
          "type": "bytes16"
        },
        {
          "name": "previousOwner",
          "type": "address"
        }
      ],
      "payable": false,
      "stateMutability": "view",
      "type": "function"
    },
    {
      "constant": true,
      "inputs": [
        {
          "name": "boardKey",
          "type": "uint256"
        },
        {
          "name": "ownerKey",
          "type": "uint256"
        }
      ],
      "name": "getCloverOwnerAtKeyByBoardKey",
      "outputs": [
        {
          "name": "",
          "type": "bytes16"
        },
        {
          "name": "previousOwner",
          "type": "address"
        }
      ],
      "payable": false,
      "stateMutability": "view",
      "type": "function"
    },
    {
      "constant": false,
      "inputs": [
        {
          "name": "board",
          "type": "bytes16"
        },
        {
          "name": "name",
          "type": "string"
        }
      ],
      "name": "renameClover",
      "outputs": [],
      "payable": false,
      "stateMutability": "nonpayable",
      "type": "function"
    },
    {
      "constant": false,
      "inputs": [
        {
          "name": "board",
          "type": "bytes16"
        },
        {
          "name": "startPrice",
          "type": "uint256"
        }
      ],
      "name": "changeStartPrice",
      "outputs": [],
      "payable": false,
      "stateMutability": "nonpayable",
      "type": "function"
    },
    {
      "constant": false,
      "inputs": [
        {
          "name": "first32Moves",
          "type": "bytes28"
        },
        {
          "name": "lastMoves",
          "type": "bytes28"
        },
        {
          "name": "startPrice",
          "type": "uint256"
        }
      ],
      "name": "mineClover",
      "outputs": [],
      "payable": false,
      "stateMutability": "nonpayable",
      "type": "function"
    },
    {
      "constant": false,
      "inputs": [
        {
          "name": "first32Moves",
          "type": "bytes28"
        },
        {
          "name": "lastMoves",
          "type": "bytes28"
        },
        {
          "name": "board",
          "type": "bytes16"
        },
        {
          "name": "startPrice",
          "type": "uint256"
        }
      ],
      "name": "adminMineClover",
      "outputs": [
        {
          "name": "boardKey",
          "type": "uint256"
        }
      ],
      "payable": false,
      "stateMutability": "nonpayable",
      "type": "function"
    },
    {
      "constant": false,
      "inputs": [
        {
          "name": "b",
          "type": "bytes16"
        }
      ],
      "name": "flipClover",
      "outputs": [],
      "payable": false,
      "stateMutability": "nonpayable",
      "type": "function"
    },
    {
      "constant": true,
      "inputs": [
        {
          "name": "first32Moves",
          "type": "bytes28"
        },
        {
          "name": "lastMoves",
          "type": "bytes28"
        }
      ],
      "name": "gameIsValid",
      "outputs": [
        {
          "name": "",
          "type": "bool"
        }
      ],
      "payable": false,
      "stateMutability": "view",
      "type": "function"
    },
    {
      "constant": true,
      "inputs": [
        {
          "name": "first32Moves",
          "type": "bytes28"
        },
        {
          "name": "lastMoves",
          "type": "bytes28"
        }
      ],
      "name": "gameExists",
      "outputs": [
        {
          "name": "",
          "type": "bool"
        }
      ],
      "payable": false,
      "stateMutability": "view",
      "type": "function"
    },
    {
      "constant": false,
      "inputs": [
        {
          "name": "first32Moves",
          "type": "bytes28"
        },
        {
          "name": "lastMoves",
          "type": "bytes28"
        }
      ],
      "name": "debugGame",
      "outputs": [],
      "payable": false,
      "stateMutability": "nonpayable",
      "type": "function"
    },
    {
      "constant": true,
      "inputs": [
        {
          "name": "first32Moves",
          "type": "bytes28"
        },
        {
          "name": "lastMoves",
          "type": "bytes28"
        }
      ],
      "name": "showGame",
      "outputs": [
        {
          "name": "error",
          "type": "bool"
        },
        {
          "name": "complete",
          "type": "bool"
        },
        {
          "name": "symmetrical",
          "type": "bool"
        },
        {
          "name": "RotSym",
          "type": "bool"
        },
        {
          "name": "Y0Sym",
          "type": "bool"
        },
        {
          "name": "X0Sym",
          "type": "bool"
        },
        {
          "name": "XYSym",
          "type": "bool"
        },
        {
          "name": "XnYSym",
          "type": "bool"
        }
      ],
      "payable": false,
      "stateMutability": "view",
      "type": "function"
    },
    {
      "constant": true,
      "inputs": [
        {
          "name": "first32Moves",
          "type": "bytes28"
        },
        {
          "name": "lastMoves",
          "type": "bytes28"
        }
      ],
      "name": "showGame2",
      "outputs": [
        {
          "name": "board",
          "type": "bytes16"
        },
        {
          "name": "blackScore",
          "type": "uint8"
        },
        {
          "name": "whiteScore",
          "type": "uint8"
        },
        {
          "name": "currentPlayer",
          "type": "uint8"
        },
        {
          "name": "moveKey",
          "type": "uint8"
        }
      ],
      "payable": false,
      "stateMutability": "view",
      "type": "function"
    },
    {
      "constant": true,
      "inputs": [
        {
          "name": "b",
          "type": "bytes16"
        }
      ],
      "name": "getSymmetry",
      "outputs": [
        {
          "name": "error",
          "type": "bool"
        },
        {
          "name": "complete",
          "type": "bool"
        },
        {
          "name": "symmetrical",
          "type": "bool"
        },
        {
          "name": "RotSym",
          "type": "bool"
        },
        {
          "name": "Y0Sym",
          "type": "bool"
        },
        {
          "name": "X0Sym",
          "type": "bool"
        },
        {
          "name": "XYSym",
          "type": "bool"
        },
        {
          "name": "XnYSym",
          "type": "bool"
        }
      ],
      "payable": false,
      "stateMutability": "view",
      "type": "function"
    },
    {
      "constant": true,
      "inputs": [
        {
          "name": "b",
          "type": "bytes16"
        }
      ],
      "name": "getFindersFee",
      "outputs": [
        {
          "name": "",
          "type": "uint256"
        }
      ],
      "payable": false,
      "stateMutability": "view",
      "type": "function"
    }
  ],
  "bytecode": "0x6000600381905560045560646005556015600c5560c0604052600960808190527f436c7562546f6b656e000000000000000000000000000000000000000000000060a09081526200005491600e91906200012a565b506040805180820190915260038082527fe299a7000000000000000000000000000000000000000000000000000000000060209092019182526200009b91600f916200012a565b50348015620000a957600080fd5b506004546001818155336000818152602081815260408083209590955560109052928320805460ff1916831790556011805492830181559092527f31ecc21a745e3968a04e9570e4425bc18fa8019c68028196b546d1669c200c68018054600160a060020a03199081168317909155600d80549091169091179055620001cf565b828054600181600116156101000203166002900490600052602060002090601f016020900481019282601f106200016d57805160ff19168380011785556200019d565b828001600101855582156200019d579182015b828111156200019d57825182559160200191906001019062000180565b50620001ab929150620001af565b5090565b620001cc91905b80821115620001ab5760008155600101620001b6565b90565b61416180620001df6000396000f3006080604052600436106102925763ffffffff7c010000000000000000000000000000000000000000000000000000000060003504166306fd150a811461029757806306fdde03146102d3578063095ea7b3146102f55780630b0372fd1461032257806316746ed01461034257806318160ddd146103705780631eb7bc0d1461039257806323b872dd146103bf57806326b85ee1146103df57806329049fff146103f45780632a1ad03f146104285780632ff2e9dc14610448578063313ce5671461045d578063356a099c146104725780633a9e69cb14610494578063451ed116146104b45780634821e607146104c9578063519a337f146104fb5780635353a2d81461051b5780635ffe61461461053b578063626299341461055b578063657701911461057b578063661884631461059057806367588038146105b057806367b9bafc146105d05780636e0fc8bb146105f0578063704802751461061057806370a08231146106305780637b3a838714610650578063851d3bf51461067d5780638d1948c0146106ae5780638da5cb5b146106ce5780638f88236c146106e3578063932705921461070357806395d89b41146107235780639769a84414610738578063a788bed014610760578063a9059cbb14610780578063ade1523f146107a0578063aff125f6146107c0578063b6db75a0146107e0578063b8cfefa8146107f5578063baf4955d14610815578063bbe5230014610835578063cb2f489e14610855578063d42eccbd1461086a578063d73dd6231461088a578063dd62ed3e146108aa578063df9073fa146108ca578063e2eb41ff146108ea578063f69ce26614610918578063f8b2cb4f14610630578063fb9fced614610938578063fedd6c7714610958578063fffcf9a814610978575b600080fd5b3480156102a357600080fd5b506102b76102b2366004613b10565b610998565b6040516102ca9796959493929190613e58565b60405180910390f35b3480156102df57600080fd5b506102e86109de565b6040516102ca9190613fad565b34801561030157600080fd5b50610315610310366004613ae0565b610a6c565b6040516102ca9190613de0565b34801561032e57600080fd5b5061031561033d366004613b10565b610ae4565b34801561034e57600080fd5b5061036261035d366004613cab565b610b0c565b6040516102ca929190613ee9565b34801561037c57600080fd5b50610385610be7565b6040516102ca9190613fbe565b34801561039e57600080fd5b506103b26103ad366004613c8d565b610bed565b6040516102ca9190613d3b565b3480156103cb57600080fd5b506103156103da366004613a63565b610c26565b3480156103eb57600080fd5b506103b2610dfe565b34801561040057600080fd5b5061041461040f366004613b10565b610e02565b6040516102ca989796959493929190613dee565b34801561043457600080fd5b506103b2610443366004613c8d565b610e60565b34801561045457600080fd5b50610385610e71565b34801561046957600080fd5b50610385610e77565b34801561047e57600080fd5b5061049261048d366004613b76565b610e7d565b005b3480156104a057600080fd5b506104926104af366004613b2e565b610fee565b3480156104c057600080fd5b506103856110d3565b3480156104d557600080fd5b506104e96104e4366004613b10565b6110d9565b6040516102ca96959493929190613f12565b34801561050757600080fd5b50610385610516366004613bc5565b6111c8565b34801561052757600080fd5b50610492610536366004613c58565b6114a6565b34801561054757600080fd5b50610492610556366004613c8d565b6114f2565b34801561056757600080fd5b50610385610576366004613b10565b611515565b34801561058757600080fd5b5061038561154d565b34801561059c57600080fd5b506103156105ab366004613ae0565b611553565b3480156105bc57600080fd5b506103156105cb366004613b95565b61167c565b3480156105dc57600080fd5b506103856105eb366004613b10565b6116d5565b3480156105fc57600080fd5b5061031561060b366004613ab0565b611732565b34801561061c57600080fd5b5061049261062b366004613a03565b611782565b34801561063c57600080fd5b5061038561064b366004613a03565b611867565b34801561065c57600080fd5b5061067061066b366004613ae0565b61188f565b6040516102ca9190613edb565b34801561068957600080fd5b5061069d610698366004613b95565b6118fe565b6040516102ca959493929190613f61565b3480156106ba57600080fd5b506103856106c9366004613a03565b61194a565b3480156106da57600080fd5b506103b2611975565b3480156106ef57600080fd5b506103b26106fe366004613c8d565b611991565b34801561070f57600080fd5b5061049261071e366004613c8d565b6119c6565b34801561072f57600080fd5b506102e86119e9565b34801561074457600080fd5b5061074d611a44565b6040516102ca9796959493929190613fcc565b34801561076c57600080fd5b5061038561077b366004613a03565b611a62565b34801561078c57600080fd5b5061031561079b366004613ae0565b611a8d565b3480156107ac57600080fd5b506104926107bb366004613c26565b611b88565b3480156107cc57600080fd5b506103b26107db366004613c8d565b611bad565b3480156107ec57600080fd5b50610315611bbb565b34801561080157600080fd5b506104e9610810366004613c8d565b611bd1565b34801561082157600080fd5b50610414610830366004613b95565b611c3e565b34801561084157600080fd5b50610315610850366004613a03565b611c85565b34801561086157600080fd5b50610385611cb0565b34801561087657600080fd5b50610492610885366004613b10565b611cb6565b34801561089657600080fd5b506103156108a5366004613ae0565b6120a3565b3480156108b657600080fd5b506103856108c5366004613a29565b612149565b3480156108d657600080fd5b506104926108e5366004613b95565b612181565b3480156108f657600080fd5b5061090a610905366004613a03565b612199565b6040516102ca929190613ec0565b34801561092457600080fd5b50610362610933366004613b76565b6121b8565b34801561094457600080fd5b50610315610953366004613b95565b612221565b34801561096457600080fd5b50610670610973366004613c8d565b612285565b34801561098457600080fd5b50610362610993366004613b10565b6122ca565b60146020526000908152604090208054600182015460028301546003840154600485015460059095015460ff851695610100909504640100000000908102959402939087565b600e805460408051602060026001851615610100026000190190941693909304601f81018490048402820184019092528181529291830182828015610a645780601f10610a3957610100808354040283529160200191610a64565b820191906000526020600020905b815481529060010190602001808311610a4757829003601f168201915b505050505081565b33600081815260026020908152604080832073ffffffffffffffffffffffffffffffffffffffff8716808552925280832085905551919290917f8c5be1e5ebec7d5bd14f71427d1e84f3dd0314c0f7b2291e5b200ac8c7c3b92590610ad2908690613fbe565b60405180910390a35060015b92915050565b6fffffffffffffffffffffffffffffffff191660009081526014602052604090205460ff1690565b6000806000601585815481101515610b2057fe5b6000918252602080832060028304015460019092166010026101000a909104700100000000000000000000000000000000026fffffffffffffffffffffffffffffffff1981168352601490915260409091205490915060ff161515610b8457600080fd5b6fffffffffffffffffffffffffffffffff1981166000908152601460205260409020600601805482919086908110610bb857fe5b60009182526020909120015490935073ffffffffffffffffffffffffffffffffffffffff169150509250929050565b60015490565b6000601382815481101515610bfe57fe5b60009182526020909120015473ffffffffffffffffffffffffffffffffffffffff1692915050565b600073ffffffffffffffffffffffffffffffffffffffff83161515610c4a57600080fd5b73ffffffffffffffffffffffffffffffffffffffff8416600090815260208190526040902054821115610c7c57600080fd5b73ffffffffffffffffffffffffffffffffffffffff84166000908152600260209081526040808320338452909152902054821115610cb957600080fd5b73ffffffffffffffffffffffffffffffffffffffff8416600090815260208190526040902054610cef908363ffffffff61236416565b73ffffffffffffffffffffffffffffffffffffffff8086166000908152602081905260408082209390935590851681522054610d31908363ffffffff61237616565b73ffffffffffffffffffffffffffffffffffffffff808516600090815260208181526040808320949094559187168152600282528281203382529091522054610d80908363ffffffff61236416565b73ffffffffffffffffffffffffffffffffffffffff80861660008181526002602090815260408083203384529091529081902093909355915190851691907fddf252ad1be2c89b69c2b068fc378daa952ba7f163c4a11628f55a4df523b3ef90610deb908690613fbe565b60405180910390a35060015b9392505050565b3390565b600080600080600080600080610e1661388a565b6fffffffffffffffffffffffffffffffff198a16610100820152610e3981612383565b9050610e448161261c565b9850985098509850985098509850985050919395975091939597565b6000601182815481101515610bfe57fe5b60045481565b60035481565b6fffffffffffffffffffffffffffffffff198216600090815260146020526040902054829060ff161515610eb057600080fd5b6fffffffffffffffffffffffffffffffff198316600090815260146020526040812060060180543392908110610ee257fe5b60009182526020909120015473ffffffffffffffffffffffffffffffffffffffff1614610f0e57600080fd5b6fffffffffffffffffffffffffffffffff19831660009081526014602052604090206006015460011015610f4157600080fd5b6fffffffffffffffffffffffffffffffff19831660009081526014602052604090819020805460018083015460039093015493517f5c3b20386cb190ab356d48388402e550e47af17282ac5ac49df339be5376a98094610fbc94339489948b9490936101009092046401000000009081029302914291613d69565b60405180910390a1506fffffffffffffffffffffffffffffffff19909116600090815260146020526040902060020155565b6fffffffffffffffffffffffffffffffff198216600090815260146020526040902054829060ff16151561102157600080fd5b600c548251111561103157600080fd5b6fffffffffffffffffffffffffffffffff19831660009081526014602052604090206006018054339190600019810190811061106957fe5b60009182526020909120015473ffffffffffffffffffffffffffffffffffffffff161461109557600080fd5b7f928915afa2256c97955fd7735e2e6ba6d453eb09e7d91e5b03467b5934cca38483836040516110c6929190613f04565b60405180910390a1505050565b60135490565b6fffffffffffffffffffffffffffffffff19811660009081526014602052604081205481908190819081908190879060ff16151561111657600080fd5b6fffffffffffffffffffffffffffffffff19881660009081526014602052604090206002810154600690910180548a9291600019820182811061115557fe5b6000918252602080832091909101546fffffffffffffffffffffffffffffffff199d909d16825260149052604090208054600190910154939c929b919a5073ffffffffffffffffffffffffffffffffffffffff909116985061010090046401000000009081029750909102945092505050565b60006111d261388a565b6fffffffffffffffffffffffffffffffff198416600090815260146020526040902054849060ff161561120457600080fd5b3360009081526010602052604090205460ff16151561122257600080fd5b61122a61264c565b6112388261010001516126fa565b6fffffffffffffffffffffffffffffffff19851661010083015261125b82612383565b91508160400151156112c5576112708261280f565b6fffffffffffffffffffffffffffffffff19861660008181526014602081815260408084206003018681553385528483529084208054909601909555929091529052546001805490910190556112c582612929565b6fffffffffffffffffffffffffffffffff19851660008181526014602090815260408083208054640100000000808e04610100027fffffff00000000000000000000000000000000000000000000000000000000ff90921691909117825560018083018054928e047fffffffff0000000000000000000000000000000000000000000000000000000090931692909217909155600682018054808301825590865293852090930180547fffffffffffffffffffffffff00000000000000000000000000000000000000001633908117909155949093526002830188905582547fffffffffffffffffffffffffffffffffffffffffffffffffffffffffffffff00168217835542600484018190556005840181905560039093015490517f5c3b20386cb190ab356d48388402e550e47af17282ac5ac49df339be5376a980946114199490938a938c9391928f928f9290613d69565b60405180910390a150506015805460018082018084556000939093527f55f448fdea98c4d29eb340757ef0a66cd03dbb9538908a6a81d96026b71ec475600283040180546fffffffffffffffffffffffffffffffff929093166010026101000a91820219909216700100000000000000000000000000000000909604029490941790935550909392505050565b600c54815111156114b657600080fd5b7f51aba8153205aaff23cab0b32a552626c48b35cb38dfb3dd771bb435e63d17b533826040516114e7929190613d49565b60405180910390a150565b3360009081526010602052604090205460ff16151561151057600080fd5b600555565b600061151f61388a565b6fffffffffffffffffffffffffffffffff19831661010082015261154281612383565b9050610df78161280f565b60115490565b33600090815260026020908152604080832073ffffffffffffffffffffffffffffffffffffffff86168452909152812054808311156115c25733600090815260026020908152604080832073ffffffffffffffffffffffffffffffffffffffff88168452909152812055611604565b6115d2818463ffffffff61236416565b33600090815260026020908152604080832073ffffffffffffffffffffffffffffffffffffffff891684529091529020555b33600081815260026020908152604080832073ffffffffffffffffffffffffffffffffffffffff89168085529252918290205491519092917f8c5be1e5ebec7d5bd14f71427d1e84f3dd0314c0f7b2291e5b200ac8c7c3b925916116689190613fbe565b60405180910390a3600191505b5092915050565b600061168661388a565b611690848461292c565b8051909150156116a35760009150611675565b806020015115156116b75760009150611675565b806040015115156116cb5760009150611675565b5060019392505050565b6fffffffffffffffffffffffffffffffff198116600090815260146020526040812054829060ff16151561170857600080fd5b50506fffffffffffffffffffffffffffffffff191660009081526014602052604090206006015490565b73ffffffffffffffffffffffffffffffffffffffff821660009081526012602090815260408083206fffffffffffffffffffffffffffffffff198516845260030190915290205460ff1692915050565b3360009081526010602052604090205460ff1615156117a057600080fd5b3360009081526010602052604090205460ff1615156117be57600080fd5b73ffffffffffffffffffffffffffffffffffffffff16600081815260106020526040812080547fffffffffffffffffffffffffffffffffffffffffffffffffffffffffffffff001660019081179091556011805491820181559091527f31ecc21a745e3968a04e9570e4425bc18fa8019c68028196b546d1669c200c680180547fffffffffffffffffffffffff0000000000000000000000000000000000000000169091179055565b73ffffffffffffffffffffffffffffffffffffffff1660009081526020819052604090205490565b73ffffffffffffffffffffffffffffffffffffffff821660009081526012602052604081206002018054839081106118c357fe5b90600052602060002090600291828204019190066010029054906101000a900470010000000000000000000000000000000002905092915050565b600080600080600061190e61388a565b611918888861292c565b6101008101516101a08201516101c083015161016084015161018090940151929c919b50995091975095509350505050565b73ffffffffffffffffffffffffffffffffffffffff1660009081526012602052604090206002015490565b600d5473ffffffffffffffffffffffffffffffffffffffff1681565b601380548290811061199f57fe5b60009182526020909120015473ffffffffffffffffffffffffffffffffffffffff16905081565b3360009081526010602052604090205460ff1615156119e457600080fd5b600c55565b600f805460408051602060026001851615610100026000190190941693909304601f81018490048402820184019092528181529291830182828015610a645780601f10610a3957610100808354040283529160200191610a64565b600654600754600854600954600a54600b5460055490919293949596565b73ffffffffffffffffffffffffffffffffffffffff1660009081526012602052604090206001015490565b600073ffffffffffffffffffffffffffffffffffffffff83161515611ab157600080fd5b33600090815260208190526040902054821115611acd57600080fd5b33600090815260208190526040902054611aed908363ffffffff61236416565b336000908152602081905260408082209290925573ffffffffffffffffffffffffffffffffffffffff851681522054611b2c908363ffffffff61237616565b73ffffffffffffffffffffffffffffffffffffffff84166000818152602081905260409081902092909255905133907fddf252ad1be2c89b69c2b068fc378daa952ba7f163c4a11628f55a4df523b3ef90610ad2908690613fbe565b611b9061388a565b611b9a848461292c565b9050611ba68183612b26565b5050505050565b601180548290811061199f57fe5b3360009081526010602052604090205460ff1690565b6000806000806000806000601588815481101515611beb57fe5b90600052602060002090600291828204019190066010029054906101000a9004700100000000000000000000000000000000029050611c29816110d9565b949d939c50919a509850965090945092505050565b600080600080600080600080611c5261388a565b611c5c8b8b61292c565b9050611c678161261c565b98509850985098509850985098509850509295985092959890939650565b73ffffffffffffffffffffffffffffffffffffffff1660009081526012602052604090205460ff1690565b60155490565b6fffffffffffffffffffffffffffffffff198116600090815260146020526040812054819081908190859060ff161515611cef57600080fd5b6fffffffffffffffffffffffffffffffff198616600090815260146020526040902060060180543391906000198101908110611d2757fe5b60009182526020909120015473ffffffffffffffffffffffffffffffffffffffff161415611d5457600080fd5b6fffffffffffffffffffffffffffffffff198616600090815260146020526040902060060154600114611dbd576fffffffffffffffffffffffffffffffff1986166000908152601460205260409020600290810154611db89163ffffffff612e6716565b611de4565b6fffffffffffffffffffffffffffffffff1986166000908152601460205260409020600201545b33600090815260208190526040902054909550851115611e0357600080fd5b611e0b61264c565b600193505b60038460ff161015611fbd576fffffffffffffffffffffffffffffffff19861660009081526014602052604090206006015460ff851611611fb2576fffffffffffffffffffffffffffffffff1986166000908152601460205260409020600601805460ff86168103945084908110611e8457fe5b60009182526020808320909101546fffffffffffffffffffffffffffffffff198916835260148252604080842060020154338552928490529092205473ffffffffffffffffffffffffffffffffffffffff9092169350611eea919063ffffffff61236416565b33600090815260208181526040808320939093556fffffffffffffffffffffffffffffffff1989168252601481528282206002015473ffffffffffffffffffffffffffffffffffffffff861683529082905291902054611f4f9163ffffffff61237616565b73ffffffffffffffffffffffffffffffffffffffff8316600090815260208190526040902055600160ff85161415611fb25773ffffffffffffffffffffffffffffffffffffffff8216600090815260126020526040902060010180546000190190555b600190930192611e10565b611fc6866126fa565b6fffffffffffffffffffffffffffffffff19861660008181526014602090815260408083206006810180546001818101835591865293852090930180547fffffffffffffffffffffffff00000000000000000000000000000000000000001633908117909155948452600281018a9055426005820181905581549382015460039092015492517f5c3b20386cb190ab356d48388402e550e47af17282ac5ac49df339be5376a980966120939690958d958f9592946401000000006101009093048302949390920292613d69565b60405180910390a1505050505050565b33600090815260026020908152604080832073ffffffffffffffffffffffffffffffffffffffff861684529091528120546120e4908363ffffffff61237616565b33600081815260026020908152604080832073ffffffffffffffffffffffffffffffffffffffff8916808552925291829020849055905190927f8c5be1e5ebec7d5bd14f71427d1e84f3dd0314c0f7b2291e5b200ac8c7c3b92591610ad29190613fbe565b73ffffffffffffffffffffffffffffffffffffffff918216600090815260026020908152604080832093909416825291909152205490565b61218961388a565b612193838361292c565b50505050565b6012602052600090815260409020805460019091015460ff9091169082565b6fffffffffffffffffffffffffffffffff1982166000908152601460205260408120548190849060ff1615156121ed57600080fd5b6fffffffffffffffffffffffffffffffff1985166000908152601460205260409020600601805486919086908110610bb857fe5b600061222b61388a565b612235848461292c565b80519091501561224457600080fd5b8060200151151561225457600080fd5b61010001516fffffffffffffffffffffffffffffffff191660009081526014602052604090205460ff169392505050565b601580548290811061229357fe5b9060005260206000209060029182820401919006601002915054906101000a90047001000000000000000000000000000000000281565b6fffffffffffffffffffffffffffffffff1981166000908152601460205260408120548190839060ff1615156122ff57600080fd5b6fffffffffffffffffffffffffffffffff19841660009081526014602052604090206006018054859190600019810190811061233757fe5b60009182526020909120015490935073ffffffffffffffffffffffffffffffffffffffff16915050915091565b60008282111561237057fe5b50900390565b81810182811015610ade57fe5b61238b61388a565b6001808080806000805b60088260ff161080156123c4575086806123ac5750855b806123b45750845b806123bc5750835b806123c45750825b156125b6575060005b60088160ff161080156123fc575086806123e45750855b806123ec5750845b806123f45750835b806123fc5750825b156125ab576124178961010001518360070383600703612e90565b6fffffffffffffffffffffffffffffffff191661243a8a61010001518484612e90565b6fffffffffffffffffffffffffffffffff19161461245757600096505b61246a8961010001518383600703612e90565b6fffffffffffffffffffffffffffffffff191661248d8a61010001518484612e90565b6fffffffffffffffffffffffffffffffff1916146124aa57600095505b6124bd8961010001518360070383612e90565b6fffffffffffffffffffffffffffffffff19166124e08a61010001518484612e90565b6fffffffffffffffffffffffffffffffff1916146124fd57600094505b6125138961010001518260070384600703612e90565b6fffffffffffffffffffffffffffffffff19166125368a61010001518484612e90565b6fffffffffffffffffffffffffffffffff19161461255357600093505b6125638961010001518284612e90565b6fffffffffffffffffffffffffffffffff19166125868a61010001518484612e90565b6fffffffffffffffffffffffffffffffff1916146125a357600092505b6001016123cd565b600190910190612395565b86806125bf5750855b806125c75750845b806125cf5750835b806125d75750825b1561260c57600160408a015286151560608a015285151560808a015284151560a08a015283151560c08a015282151560e08a01525b8897505b50505050505050919050565b8051602082015160408301516060840151608085015160a086015160c087015160e0880151919395975091939597565b3360009081526012602052604090205460ff1615156126f85733600081815260126020526040812080547fffffffffffffffffffffffffffffffffffffffffffffffffffffffffffffff001660019081179091556013805491820181559091527f66de8ffda797e3de9c05e8fc57b3bf0ec28a930d40b0d285d93c06501cf6a0900180547fffffffffffffffffffffffff00000000000000000000000000000000000000001690911790555b565b3360009081526012602090815260408083206fffffffffffffffffffffffffffffffff198516845260030190915290205460ff1615156127f1573360009081526012602081815260408084206fffffffffffffffffffffffffffffffff198616855260038101835290842080547fffffffffffffffffffffffffffffffffffffffffffffffffffffffffffffff001660019081179091559282526002908101805480850182559085529190932092810490920180547001000000000000000000000000000000008504601094909316939093026101000a9182026fffffffffffffffffffffffffffffffff92909202199092161790555b50336000908152601260205260409020600190810180549091019055565b60608101516000908190156128605761285d612850600754600101612844600654600101600554612e6790919063ffffffff16565b9063ffffffff612edb16565b829063ffffffff61237616565b90505b82608001511561289357612890612850600854600101612844600654600101600554612e6790919063ffffffff16565b90505b8260a00151156128c6576128c3612850600954600101612844600654600101600554612e6790919063ffffffff16565b90505b8260c00151156128f9576128f6612850600a54600101612844600654600101600554612e6790919063ffffffff16565b90505b8260e0015115610ade57610df7612850600b54600101612844600654600101600554612e6790919063ffffffff16565b50565b61293461388a565b61293c61388a565b7fffffffffffffffffffffffffffffffffffffffffffffffffffffffff0000000080851661012083015283166101408201526000610180820181905260026101a083018190526101c08301528082526020820181905260016101608301527ffffffffffffffe7ffdbfffffffffffff0000000000000000000000000000000061010083015280808080805b603c8260ff161080156129d8575085155b15612af957602087610180015160ff16106129f8578661014001516129ff565b8661012001515b9050612a2181602089610180015160ff16811515612a1957fe5b066020612ef0565b9450612a2c85612f57565b9094509250612a3a85612f92565b159550851586612a4d575060088460ff16105b8015612a5c575060088360ff16105b8015612a6c575060008460ff1610155b8015612a7c575060008360ff1610155b15612aee57612a8c878585612f9f565b6101808101805160010160ff169052805190975015612aee576000875261016087015160ff1660011415612ac7576002610160880152612ad0565b60016101608801525b612adb878585612f9f565b805190975015612aee5760008752600195505b6001909101906129c7565b86511515612b1857612b0a876131d7565b9650612b1587612383565b96505b509498975050505050505050565b815160009015612b3557600080fd5b82602001511515612b4557600080fd5b6101008301516fffffffffffffffffffffffffffffffff191660009081526014602052604090205460ff1615612b7a57600080fd5b612b8261264c565b612b908361010001516126fa565b61012083015161010080850180516fffffffffffffffffffffffffffffffff19908116600090815260146020908152604080832080547fffffff00000000000000000000000000000000000000000000000000000000ff166401000000009889900490970296909617909555610140890151845184168352858320600190810180547fffffffff00000000000000000000000000000000000000000000000000000000169890920497909717905583518316825284822060060180548088018255908352908220018054337fffffffffffffffffffffffff000000000000000000000000000000000000000090911617905582518216815283812060020187905582518216815283812080547fffffffffffffffffffffffffffffffffffffffffffffffffffffffffffffff00169095179094558151811684528284204260049091018190559151168352918190206005019190915583015115612d6857612cf78361280f565b610100840180516fffffffffffffffffffffffffffffffff1990811660009081526014602081815260408084206003908101979097558551851684528084208701543385528483528185208054909101905594519093168252909152200154600180549091019055612d6883612929565b6101008301516101208401516101408501516fffffffffffffffffffffffffffffffff198316600090815260146020526040908190206003015490517f5c3b20386cb190ab356d48388402e550e47af17282ac5ac49df339be5376a98094612dda943394899492936001934291613d69565b60405180910390a15050610100908101516015805460018082018084556000939093527f55f448fdea98c4d29eb340757ef0a66cd03dbb9538908a6a81d96026b71ec475600283040180546fffffffffffffffffffffffffffffffff9290931660100290950a90810219909116700100000000000000000000000000000000909304029190911790915590565b6000821515612e7857506000610ade565b50818102818382811515612e8857fe5b0414610ade57fe5b600080600080612ea0868661339a565b92507003000000000000000000000000000000009150612ec082846133b1565b915050858116612ed081846133cf565b979650505050505050565b60008183811515612ee857fe5b049392505050565b6000647f000000007ffffffffffffffffffffffffffffffffffffffffffffffffffffffffffffffff96007858102908502030182612f318360ff8416613434565b925050858216612f448160ff8416613446565b6401000000009004979650505050505050565b7fffffffffffffffffffffffffffffffffffffffffffffffffffffffffffffffc081810160071692600860ff93859003909201929092160490565b604060ff82161015919050565b612fa761388a565b612faf613906565b600080600080600080600080600360ff16612fd08e61010001518e8e61346f565b60ff1614612fe45760018d528c99506131c7565b612fef8d8d8d6134d2565b909950975060ff8816151561300a5760018d528c99506131c7565b5060009050805b8760ff168160ff16101561312157600096508695506130458d8a60ff84166008811061303957fe5b60200201518e8e613699565b9097509550600092505b8560ff168360ff1610156131195781151561306957600191505b61307c613077888589612ef0565b612f57565b809550819650505061309a8d61010001518e610160015187876137ca565b6fffffffffffffffffffffffffffffffff19166101008e01526101608d015160ff16600214156130eb576101c08d01805160010160ff9081169091526101a08e01805160001901909116905261310e565b6101c08d0180516000190160ff9081169091526101a08e01805160010190911690525b60019092019161304f565b600101613011565b81156131905761313d8d61010001518e61016001518e8e6137ca565b6fffffffffffffffffffffffffffffffff19166101008e01526101608d015160ff166002141561317b576101c08d01805160010160ff16905261318b565b6101a08d01805160010160ff1690525b61319c565b60018d528c99506131c7565b6101608d015160ff16600114156131ba5760026101608e01526131c3565b60016101608e01525b8c99505b5050505050505050509392505050565b6131df61388a565b6131e7613935565b6000806000806131f561388a565b6131fd613964565b88610180015160ff16603c148061321a57506101a089015160ff16155b8061322b57506101c089015160ff16155b156132435760008952600160208a0152889750612610565b60009550600094505b60408560ff1610156132cf5761010089015161327790600860078816880360ff16046007881661346f565b935060ff8416600314156132c4576040805180820190915260086007871680880360ff9081169290920482168352602083015288908816603c81106132b857fe5b60200201526001909501945b60019094019361324c565b6000925060008660ff16111561337357600094505b8560ff168560ff161080156132f7575082155b15613373578660ff8616603c811061330b57fe5b602002015160016101608b01529050613334898260005b60200201518360016020020151612f9f565b8051909250151561334457600192505b60026101608a015261335889826000613322565b8051909250151561336857600192505b6001909401936132e4565b8215613382576001895261260c565b50506001602088015250506000855250929392505050565b600891909102016040036000190160020260ff1690565b60020a70010000000000000000000000000000000091829004020290565b6000808260020a6fffffffffffffffffffffffffffffffff168470010000000000000000000000000000000090046fffffffffffffffffffffffffffffffff1681151561341857fe5b0470010000000000000000000000000000000002949350505050565b60020a64010000000091829004020290565b6000808260020a84640100000000900481151561345f57fe5b0464010000000002949350505050565b6000806000806000613481878761339a565b935070030000000000000000000000000000000092506134a183856133b1565b925082881691506134b282856133cf565b700100000000000000000000000000000000900498975050505050505050565b6134da613906565b60006134e4613906565b60006134ee613906565b6000806134f9613964565b604080516101408101825260001961010082018181526000610120840181905290835283518085018552828152600160208281018290528086019290925285518087018752838152808301829052858701528551808701875281815280830182905260608601528551808701875281815280830184905260808601528551808701875290815280820184905260a08501528451808601865282815280820184905260c0850152845180860190955282855284019190915260e0820192909252909550935084805b60088160ff161015613686578560ff8216600881106135db57fe5b6020020151925082600060200201518c01935082600160200201518b01945060078560000b138061360f575060008560000b125b8061361d575060078460000b135b8061362b575060008460000b125b151561367e576136418d6101000151858761346f565b91508c610160015160ff168260ff1614151561367e5760ff821660031461367e57828860ff89166008811061367257fe5b60200201526001909601955b6001016135c0565b50959b949a509398505050505050505050565b61016084015160009081908190819081808080808060ff8716600114156136c357600295506136c8565b600195505b506000935060015b60098160ff1610156137b5578415156137ad578d5160208f01519082028e01945081028c0192506007600085900b138061370d575060008460000b125b8061371b575060078360000b135b80613729575060008360000b125b1561373f576000985060009750600194506137ad565b61374f8f6101000151858561346f565b91508560ff168260ff1614156137755761376b89898686613859565b90995097506137ad565b8e610160015160ff168260ff16148015613792575060018160ff16115b156137a057600194506137ad565b6000985060009750600194505b6001016136d0565b50969d959c50949a5050505050505050505050565b600080600080600060078760ff1611156137e357600080fd5b60078660ff1611156137f457600080fd5b6137fe878761339a565b9350700300000000000000000000000000000000925061381e83856133b1565b8981189099169891505070010000000000000000000000000000000060ff88160261384981856133b1565b9890981798975050505050505050565b60008064010000000060ff604060088602870101160261387a876007613434565b1796600195909501955050505050565b604080516101e081018252600080825260208201819052918101829052606081018290526080810182905260a0810182905260c0810182905260e08101829052610100810182905261012081018290526101408101829052610160810182905261018081018290526101a081018290526101c081019190915290565b610200604051908101604052806008905b61391f613964565b8152602001906001900390816139175790505090565b610f0060405190810160405280603c905b61394e613964565b8152602001906001900390816139465790505090565b60408051808201825290600290829080388339509192915050565b6000610df78235614065565b6000610df78235614083565b6000610df78235614099565b6000601f820183136139b457600080fd5b81356139c76139c28261401b565b613ff4565b915080825260208301602083018583830111156139e357600080fd5b6139ee8382846140c7565b50505092915050565b6000610df782356140be565b600060208284031215613a1557600080fd5b6000613a21848461397f565b949350505050565b60008060408385031215613a3c57600080fd5b6000613a48858561397f565b9250506020613a598582860161397f565b9150509250929050565b600080600060608486031215613a7857600080fd5b6000613a84868661397f565b9350506020613a958682870161397f565b9250506040613aa6868287016139f7565b9150509250925092565b60008060408385031215613ac357600080fd5b6000613acf858561397f565b9250506020613a598582860161398b565b60008060408385031215613af357600080fd5b6000613aff858561397f565b9250506020613a59858286016139f7565b600060208284031215613b2257600080fd5b6000613a21848461398b565b60008060408385031215613b4157600080fd5b6000613b4d858561398b565b925050602083013567ffffffffffffffff811115613b6a57600080fd5b613a59858286016139a3565b60008060408385031215613b8957600080fd5b6000613aff858561398b565b60008060408385031215613ba857600080fd5b6000613bb48585613997565b9250506020613a5985828601613997565b60008060008060808587031215613bdb57600080fd5b6000613be78787613997565b9450506020613bf887828801613997565b9350506040613c098782880161398b565b9250506060613c1a878288016139f7565b91505092959194509250565b600080600060608486031215613c3b57600080fd5b6000613c478686613997565b9350506020613a9586828701613997565b600060208284031215613c6a57600080fd5b813567ffffffffffffffff811115613c8157600080fd5b613a21848285016139a3565b600060208284031215613c9f57600080fd5b6000613a2184846139f7565b60008060408385031215613cbe57600080fd5b6000613aff85856139f7565b613cd381614065565b82525050565b613cd38161407e565b613cd381614083565b613cd381614099565b6000613cff82614061565b808452613d138160208601602086016140d3565b613d1c816140ff565b9093016020019392505050565b613cd3816140be565b613cd3816140c1565b60208101610ade8284613cca565b60408101613d578285613cca565b8181036020830152613a218184613cf4565b6101008101613d78828b613cca565b613d85602083018a613d29565b613d926040830189613ce2565b613d9f6060830188613cd9565b613dac6080830187613ceb565b613db960a0830186613ceb565b613dc660c0830185613d29565b613dd360e0830184613d29565b9998505050505050505050565b60208101610ade8284613cd9565b6101008101613dfd828b613cd9565b613e0a602083018a613cd9565b613e176040830189613cd9565b613e246060830188613cd9565b613e316080830187613cd9565b613e3e60a0830186613cd9565b613e4b60c0830185613cd9565b613dd360e0830184613cd9565b60e08101613e66828a613cd9565b613e736020830189613ceb565b613e806040830188613ceb565b613e8d6060830187613d29565b613e9a6080830186613d29565b613ea760a0830185613d29565b613eb460c0830184613d29565b98975050505050505050565b60408101613ece8285613cd9565b610df76020830184613d29565b60208101610ade8284613ce2565b60408101613ef78285613ce2565b610df76020830184613cca565b60408101613d578285613ce2565b60c08101613f208289613ce2565b613f2d6020830188613d29565b613f3a6040830187613d29565b613f476060830186613cca565b613f546080830185613ceb565b612ed060a0830184613ceb565b60a08101613f6f8288613ce2565b613f7c6020830187613d32565b613f896040830186613d32565b613f966060830185613d32565b613fa36080830184613d32565b9695505050505050565b60208082528101610df78184613cf4565b60208101610ade8284613d29565b60e08101613fda828a613d29565b613fe76020830189613d29565b613e806040830188613d29565b60405181810167ffffffffffffffff8111828210171561401357600080fd5b604052919050565b600067ffffffffffffffff82111561403257600080fd5b506020601f919091017fffffffffffffffffffffffffffffffffffffffffffffffffffffffffffffffe0160190565b5190565b73ffffffffffffffffffffffffffffffffffffffff1690565b151590565b6fffffffffffffffffffffffffffffffff191690565b7fffffffffffffffffffffffffffffffffffffffffffffffffffffffff000000001690565b90565b60ff1690565b82818337506000910152565b60005b838110156140ee5781810151838201526020016140d6565b838111156121935750506000910152565b601f017fffffffffffffffffffffffffffffffffffffffffffffffffffffffffffffffe016905600a265627a7a723058203bb2def3be529f9f0d151f1a5060e98b1aa9fb1ec17fba9a2dd32dd31619e1bc6c6578706572696d656e74616cf50037",
  "source": "pragma solidity ^0.4.18;\npragma experimental ABIEncoderV2;\n\nimport \"zeppelin-solidity/contracts/token/ERC20/StandardToken.sol\";\nimport \"./OldReversi.sol\";\n// import \"./oraclizeAPI.sol\";\n\n\ncontract OldToken is StandardToken {\n\n  // Token Contract\n\n  uint256 public decimals = 0;\n  uint256 public INITIAL_SUPPLY = 0; // zero decimals\n  uint256 payMultiplier = 100;\n  uint256 Symmetricals;\n  uint256 RotSym;\n  uint256 Y0Sym;\n  uint256 X0Sym;\n  uint256 XYSym;\n  uint256 XnYSym;\n  uint256 nameLength = 21;\n  address public owner;\n  string public name = \"ClubToken\";\n  string public symbol = \"\";\n\n\n\n  function OldToken() {\n    totalSupply_ = INITIAL_SUPPLY;\n    balances[msg.sender] = INITIAL_SUPPLY;\n    admins[msg.sender] = true;\n    adminKeys.push(msg.sender);\n    owner = msg.sender;\n  }\n\n\n  // Modifiers\n\n  modifier onlyOwner { if (msg.sender != owner) revert(); _; }\n  modifier onlyAdmin { if (!admins[msg.sender]) revert(); _; }\n  modifier doesNotExist(bytes16 b) { if (clovers[b].exists) revert(); _; }\n  modifier exists(bytes16 b) { if (!clovers[b].exists) revert(); _; }\n\n\n\n  // Events\n\n  event newUserName(address player, string name);\n  event newCloverName(bytes16 board, string name);\n  event Registered(address newOwner, uint256 lastPaidAmount, bytes16 board, bool newBoard, bytes28 first32Moves, bytes28 lastMoves, uint256 modified, uint256 findersFee);\n\n\n\n  // Contract Administration\n\n  mapping(address => bool) admins;\n  address[] public adminKeys;\n\n  function getBalance(address someone) public constant returns(uint) {\n    return balances[someone];\n  }\n\n  function myAddress () public constant returns (address) {\n    return msg.sender;\n  }\n\n  function isAdmin () public constant returns (bool) {\n    return admins[msg.sender];\n  }  \n\n  function adminLen () public constant returns (uint256) {\n    return adminKeys.length;\n  } \n\n  function adminAt (uint256 key) public constant returns (address) {\n    return adminKeys[key];\n  }\n\n  function getTallys() public constant returns(uint256, uint256, uint256, uint256, uint256, uint256, uint256) {\n    return (Symmetricals, RotSym, Y0Sym, X0Sym, XYSym, XnYSym, payMultiplier);\n  }\n\n  function changeNameLength (uint256 len) public onlyAdmin() {\n    nameLength = len;\n  }\n\n  function addAdmin (address newbie) public onlyAdmin() {\n    if (!admins[msg.sender]) revert();\n    admins[newbie] = true;\n    adminKeys.push(newbie);\n  }\n\n  function updateMultiplier(uint256 multiplier) public onlyAdmin(){\n    payMultiplier = multiplier;\n  }\n\n\n\n\n  // Player Management\n\n  struct Player {\n    bool exists;\n    uint currentCount;\n    bytes16[] cloverKeys;\n    mapping(bytes16 => bool) clovers;\n  }\n\n  mapping(address => Player) public players;\n  address[] public playerKeys;\n\n  function changeName (string name) {\n    if (bytes(name).length > nameLength) revert();\n    newUserName(msg.sender, name);\n  }\n\n  function listPlayerCount() public constant returns(uint) {\n    return playerKeys.length;\n  }\n\n  function playerAddressByKey(uint playerKey) public constant returns(address) {\n    return playerKeys[playerKey];\n  }\n\n  function playerExists(address player) public constant returns(bool) {\n    return players[player].exists;\n  }\n\n  function playerCurrentCount(address player) public constant returns(uint) {\n    return players[player].currentCount;\n  }\n\n  function playerAllCount(address player) public constant returns(uint) {\n    return players[player].cloverKeys.length;\n  }\n\n  function playerCloverByKey(address player, uint cloverKey) public constant returns(bytes16) {\n    return players[player].cloverKeys[cloverKey];\n  }\n\n  function playerOwnsClover(address player, bytes16 board) public constant returns (bool) {\n    return players[player].clovers[board];\n  }\n\n  function addCloverToPlayer (bytes16 board) internal {\n    if (!players[msg.sender].clovers[board]) {\n      players[msg.sender].clovers[board] = true;\n      players[msg.sender].cloverKeys.push(board);\n    }\n    players[msg.sender].currentCount += 1;\n  }\n\n  function registerPlayer() internal {\n    if (!players[msg.sender].exists) {\n      players[msg.sender].exists = true;\n      playerKeys.push(msg.sender);\n    }\n  }\n\n\n\n  // Clover Management\n\n  struct Clover {\n    bool exists;\n    bytes28 first32Moves;\n    bytes28 lastMoves;\n    uint256 lastPaidAmount;\n    uint256 findersFee;\n    uint256 created;\n    uint256 modified;\n    address[] previousOwners;\n    // bool validated;\n  }\n\n  mapping (bytes16 => Clover) public clovers;\n  bytes16[] public cloverKeys;\n\n  function cloverExists(bytes16 b) public constant returns(bool){\n    return clovers[b].exists;\n  }\n\n  function getCloversCount() public constant returns(uint) {\n    return cloverKeys.length;\n  }\n\n  function getCloverByKey (uint boardKey) public constant returns(bytes16, uint lastPaidAmount, uint owners, address lastOwner, bytes28 first32Moves, bytes28 lastMoves) {\n    bytes16 board = cloverKeys[boardKey];\n    return getClover(board);\n  }\n\n  function getClover (bytes16 board) public exists(board) constant returns(bytes16, uint lastPaidAmount, uint ownersLength, address lastOwner, bytes28 first32Moves, bytes28 lastMoves) {\n    return (board, clovers[board].lastPaidAmount, clovers[board].previousOwners.length, clovers[board].previousOwners[clovers[board].previousOwners.length - 1], clovers[board].first32Moves, clovers[board].lastMoves);\n  }\n\n  function getCloverOwnersLength(bytes16 board) public exists(board) constant returns(uint256) {\n    return clovers[board].previousOwners.length;\n  }\n\n  function getCloverOwner(bytes16 board) public exists(board) constant returns(bytes16, address previousOwner) {\n    return (board, clovers[board].previousOwners[ clovers[board].previousOwners.length - 1 ] );\n  }\n\n  function getCloverOwnerAtKeyByBoard(bytes16 board, uint ownerKey) public exists(board) constant returns(bytes16, address previousOwner) {\n    return (board, clovers[board].previousOwners[ownerKey]);\n  }\n\n  function getCloverOwnerAtKeyByBoardKey(uint boardKey, uint ownerKey) public constant returns(bytes16, address previousOwner) {\n    bytes16 board = cloverKeys[boardKey];\n    if(!clovers[board].exists) revert();\n    return (board, clovers[board].previousOwners[ownerKey]);\n  }\n\n  function renameClover(bytes16 board, string name) public exists(board) {\n    if (bytes(name).length > nameLength) revert();\n    if (clovers[board].previousOwners[clovers[board].previousOwners.length - 1] != msg.sender) revert();\n    newCloverName(board, name);\n  }\n\n  function changeStartPrice(bytes16 board, uint256 startPrice) public exists(board) {\n    if(clovers[board].previousOwners[0] != msg.sender) revert();\n    if(clovers[board].previousOwners.length > 1) revert();\n    Registered(msg.sender, startPrice, board, true, clovers[board].first32Moves, clovers[board].lastMoves, now, clovers[board].findersFee);\n    clovers[board].lastPaidAmount = startPrice;\n  }\n\n  function mineClover(bytes28 first32Moves, bytes28 lastMoves, uint256 startPrice) public {\n    Reversi.Game memory game = Reversi.playGame(first32Moves, lastMoves);\n    // Game memory game = playGame(first32Moves, lastMoves);\n    saveGame(game, startPrice);\n  }\n\n  function adminMineClover (bytes28 first32Moves, bytes28 lastMoves, bytes16 board, uint startPrice) public doesNotExist(board) onlyAdmin() returns(uint boardKey) {\n    registerPlayer();\n    addCloverToPlayer(game.board);\n    Reversi.Game memory game;\n    // Game memory game;\n    game.board = board;\n\n    game = Reversi.isSymmetrical(game);\n    // game = isSymmetrical(game);\n    if (game.symmetrical) {\n      clovers[board].findersFee = findersFee(game);\n      balances[msg.sender] += clovers[board].findersFee;\n      totalSupply_ += clovers[board].findersFee;\n      addToSymmTallys(game);\n    }\n    clovers[board].first32Moves = first32Moves;\n    clovers[board].lastMoves = lastMoves;\n    clovers[board].previousOwners.push(msg.sender);\n    clovers[board].lastPaidAmount = startPrice;\n    clovers[board].exists = true;\n    clovers[board].created = now;\n    clovers[board].modified = now;\n    Registered(msg.sender, startPrice, board, true, first32Moves, lastMoves, now, clovers[board].findersFee);\n    return cloverKeys.push(board);\n  }\n\n  function flipClover (bytes16 b) exists(b) public{\n    // every clover asset is for sale determined on an initial start price\n    // if that clover is purchased, the proceeds are divided evenly among the last two buyers\n    // cant flip board you currently own\n    if (clovers[b].previousOwners[ clovers[b].previousOwners.length - 1 ] == msg.sender) revert();\n    uint nextPrice = clovers[b].previousOwners.length == 1 ? clovers[b].lastPaidAmount : clovers[b].lastPaidAmount.mul(2);\n    if (balances[msg.sender] < nextPrice) revert();\n    registerPlayer();\n    for (uint8 i = 1; i < 3; i++) {\n      if (i <= clovers[b].previousOwners.length) {\n        uint256 lastOwnerKey = clovers[b].previousOwners.length - uint(i);\n        address lastOwner = clovers[b].previousOwners[ lastOwnerKey ];\n\n        balances[msg.sender] = balances[msg.sender].sub(clovers[b].lastPaidAmount);\n\n        balances[lastOwner] = balances[lastOwner].add(clovers[b].lastPaidAmount);\n        if (i == 1) {\n          players[lastOwner].currentCount -= 1;\n        }\n      }\n    }\n    addCloverToPlayer(b);\n    clovers[b].previousOwners.push(msg.sender);\n    clovers[b].lastPaidAmount = nextPrice;\n    clovers[b].modified = now;\n    Registered(msg.sender, nextPrice, b, false, clovers[b].first32Moves, clovers[b].lastMoves, clovers[b].modified, clovers[b].findersFee);\n  }\n\n\n  // Game Management\n  //\n  // see ./Reversi.sol for playGame(), isSymmetrical() and Game struct\n\n\n  function gameIsValid(bytes28 first32Moves, bytes28 lastMoves) public constant returns(bool) {\n    Reversi.Game memory game = Reversi.playGame(first32Moves, lastMoves);\n    // Game memory game = playGame(first32Moves, lastMoves);\n    if (game.error) return false;\n    if (!game.complete) return false;\n    if (!game.symmetrical) return false;\n    return true;\n  }\n\n  function gameExists(bytes28 first32Moves, bytes28 lastMoves) public constant returns(bool) {\n    Reversi.Game memory game = Reversi.playGame(first32Moves, lastMoves);\n    // Game memory game = playGame(first32Moves, lastMoves);\n    if (game.error) revert();\n    if (!game.complete) revert();\n    return clovers[game.board].exists;\n  }\n\n  function debugGame(bytes28 first32Moves, bytes28 lastMoves) public{\n    Reversi.Game memory game = Reversi.playGame(first32Moves, lastMoves);\n    // Game memory game = playGame(first32Moves, lastMoves);\n  }\n  function showGame(bytes28 first32Moves, bytes28 lastMoves) public constant returns(bool error, bool complete, bool symmetrical, bool RotSym, bool Y0Sym, bool X0Sym, bool XYSym, bool XnYSym) {\n    Reversi.Game memory game = Reversi.playGame(first32Moves, lastMoves);\n    // Game memory game = playGame(first32Moves, lastMoves);\n    return returnGame(game);\n  }\n\n  function showGame2(bytes28 first32Moves, bytes28 lastMoves) public constant returns(bytes16 board, uint8 blackScore, uint8 whiteScore, uint8 currentPlayer, uint8 moveKey) {\n    Reversi.Game memory game = Reversi.playGame(first32Moves, lastMoves);\n    // Game memory game = playGame(first32Moves, lastMoves);\n    return (game.board, game.blackScore, game.whiteScore, game.currentPlayer, game.moveKey);\n  }\n\n\n  function getSymmetry(bytes16 b) public constant returns(bool error, bool complete, bool symmetrical, bool RotSym, bool Y0Sym, bool X0Sym, bool XYSym, bool XnYSym) {\n    Reversi.Game memory game;\n    // Game memory game;\n    game.board = b;\n    game = Reversi.isSymmetrical(game);\n    // game = isSymmetrical(game);\n    return returnGame(game);\n  }\n\n  function getFindersFee(bytes16 b) public constant returns(uint256) {\n    Reversi.Game memory game;\n    // Game memory game;\n    game.board = b;\n    game = Reversi.isSymmetrical(game);\n    // game = isSymmetrical(game);\n    return findersFee(game);\n  }\n\n  function returnGame(Reversi.Game game) internal returns(bool error, bool complete, bool symmetrical, bool RotSym, bool Y0Sym, bool X0Sym, bool XYSym, bool XnYSym){\n  // function returnGame(Game game) internal returns(bool error, bool complete, bool symmetrical, bool RotSym, bool Y0Sym, bool X0Sym, bool XYSym, bool XnYSym){\n    return (game.error, game.complete, game.symmetrical, game.RotSym, game.Y0Sym, game.X0Sym, game.XYSym, game.XnYSym);\n  }\n\n  function saveGame(Reversi.Game game, uint256 startPrice) internal returns(uint){\n  // function saveGame(Game game, uint256 startPrice) internal returns(uint){\n    if (game.error) revert();\n    if (!game.complete) revert();\n    if (clovers[game.board].exists) revert();\n    \n    registerPlayer();\n    addCloverToPlayer(game.board);\n    clovers[game.board].first32Moves = game.first32Moves;\n    clovers[game.board].lastMoves = game.lastMoves;\n    clovers[game.board].previousOwners.push(msg.sender);\n    clovers[game.board].lastPaidAmount = startPrice;\n    clovers[game.board].exists = true;\n    clovers[game.board].created = now;\n    clovers[game.board].modified = now;\n    if (game.symmetrical) {\n      clovers[game.board].findersFee = findersFee(game);\n      balances[msg.sender] += clovers[game.board].findersFee;\n      totalSupply_ += clovers[game.board].findersFee;\n      addToSymmTallys(game);\n    }\n    Registered(msg.sender, startPrice, game.board, true, game.first32Moves, game.lastMoves, now, clovers[game.board].findersFee);\n    return cloverKeys.push(game.board);\n  }\n\n  function addToSymmTallys (Reversi.Game game) internal {\n    // if (game.symmetrical) Symmetricals += 1;\n    // if (game.RotSym) RotSym += 1;\n    // if (game.Y0Sym) Y0Sym += 1;\n    // if (game.X0Sym) X0Sym += 1;\n    // if (game.XYSym) XYSym += 1;\n    // if (game.XnYSym) XnYSym += 1;\n  }\n\n  function findersFee (Reversi.Game game) internal constant returns(uint256) {\n    uint256 base = 0;\n\n    if (game.RotSym) base = base.add( payMultiplier.mul( Symmetricals + 1 ).div( RotSym + 1 ) );\n    if (game.Y0Sym) base = base.add( payMultiplier.mul( Symmetricals + 1 ).div( Y0Sym + 1 ) );\n    if (game.X0Sym) base = base.add( payMultiplier.mul( Symmetricals + 1 ).div( X0Sym + 1 ) );\n    if (game.XYSym) base = base.add( payMultiplier.mul( Symmetricals + 1 ).div( XYSym + 1 ) );\n    if (game.XnYSym) base = base.add( payMultiplier.mul( Symmetricals + 1 ).div( XnYSym + 1 ) );\n\n    return base;\n  }\n\n\n  // // Oraclize Management\n\n\n  // function claimClover (bytes16 board, bytes28 first32Moves, bytes28 lastMoves, uint256 startPrice) public {\n  //   registerPlayer();\n\n  //   Clover storage clover;\n  //   clover.first32Moves = first32Moves;\n  //   clover.lastMoves = lastMoves;\n  //   clover.lastPaidAmount = startPrice;\n  //   clover.exists = true;\n\n\n  //   clover.previousOwners.push(msg.sender);\n\n  //   clover.validated = false; // redundant\n\n  //   Game memory game;\n  //   game.board = board;\n  //   clover.findersFee = findersFee(game);\n\n  //   clovers[board] = clover;\n\n  // }\n\n  // // = \"json(https://api.infura.io/v1/jsonrpc/rinkeby/eth_call?to=\"\n  // string validateEndpoint = \"json(https://api.infura.io/v1/jsonrpc/rinkeby/eth_call?to=\";\n  // mapping(bytes32=>bytes16) validIds;\n\n  // function updateValidateEndpoint (string endpoint) public onlyAdmin() {\n  //   validateEndpoint = endpoint;\n  // }\n\n  // function __callback(bytes32 myid, bool valid, bytes proof) {\n  //   if (uint8 (validIds[myid]) == 0) throw;\n  //   if (msg.sender != oraclize_cbAddress()) revert();\n  //   if (!valid) revert();\n  //   bytes16 board = validIds[myid];\n  //   address player = clovers[board].previousOwners[0];\n  //   if (!clovers[board].exists) revert();\n  //   if (clovers[board].validated) revert();\n  //   delete validIds[myid];\n\n\n  //   addCloverToPlayerExplicit(board, player);\n\n  //   balances[player] += clovers[board].findersFee;\n  //   clovers[board].validated = valid;\n\n  //   cloverKeys.push(board);  \n  //   Registered(player, clovers[board].lastPaidAmount, board);\n  // }\n\n  // function returnAddress() public constant returns(address) {\n  //   return this;\n  // }\n\n  // function buildString(bytes28 first32Moves, bytes28 lastMoves) public constant returns(string) {\n  //   string query2 = addressToString(address(this));\n  //   // string memory query3 = \"&data=\";\n  //   // string memory func = bytes32ToString(bytes32(bytes4(sha3(\"gameIsValid(bytes28,bytes28)\"))));\n  //   // string memory param1 = bytes32ToString(bytes32(first32Moves));\n  //   // string memory param2 = bytes32ToString(bytes32(lastMoves));\n  //   // string memory closing = \").result\";\n\n  //   return query2;//strConcat(strConcat(validateEndpoint, query2, query3, func, param1), param2, closing);\n\n  // }\n\n  // function verifyGame(bytes16 board, bytes28 first32Moves, bytes28 lastMoves) payable {\n  //   if (oraclize_getPrice(\"URL\") > this.balance) {\n  //       // newOraclizeQuery(\"Oraclize query was NOT sent, please add some ETH to cover for the query fee\");\n  //   } else {\n\n  //       // newOraclizeQuery(\"Oraclize query was sent, standing by for the answer..\");\n  //       bytes32 queryId = oraclize_query(\"URL\", buildString(first32Moves, lastMoves));\n  //       validIds[queryId] = board;\n  //   }\n  // }\n\n  // function addressToString(address x) returns (string) {\n  //     bytes memory b = new bytes(20);\n  //     for (uint i = 0; i < 20; i++)\n  //       b[i] = byte(uint8(uint256(x) / (2**(8*(19 - i)))));\n  //     return string(b);\n  // }\n  // function bytes32ToString (bytes32 data) constant returns (string) {\n  //   bytes memory bytesString = new bytes(32);\n  //   for (uint j=0; j<32; j++) {\n  //     byte char = byte(bytes32(uint(data) * 2 ** (8 * j)));\n  //     if (char != 0) {\n  //       bytesString[j] = char;\n  //     }\n  //   }\n  //   return string(bytesString);\n  // }\n  // function bytes4ToString (bytes4 data) constant returns (string) {\n  //   bytes memory bytesString = new bytes(4);\n  //   for (uint j=0; j<4; j++) {\n  //     byte char = byte(bytes4(uint(data) * 2 ** (8 * j)));\n  //     if (char != 0) {\n  //       bytesString[j] = char;\n  //     }\n  //   }\n  //   return string(bytesString);\n  // }\n\n  // function strConcat(string _a, string _b, string _c, string _d, string _e) internal returns (string) {\n  //     bytes memory _ba = bytes(_a);\n  //     bytes memory _bb = bytes(_b);\n  //     bytes memory _bc = bytes(_c);\n  //     bytes memory _bd = bytes(_d);\n  //     bytes memory _be = bytes(_e);\n  //     string memory abcde = new string(_ba.length + _bb.length + _bc.length + _bd.length + _be.length);\n  //     bytes memory babcde = bytes(abcde);\n  //     uint k = 0;\n  //     for (uint i = 0; i < _ba.length; i++) babcde[k++] = _ba[i];\n  //     for (i = 0; i < _bb.length; i++) babcde[k++] = _bb[i];\n  //     for (i = 0; i < _bc.length; i++) babcde[k++] = _bc[i];\n  //     for (i = 0; i < _bd.length; i++) babcde[k++] = _bd[i];\n  //     for (i = 0; i < _be.length; i++) babcde[k++] = _be[i];\n  //     return string(babcde);\n  // }\n\n  // function strConcat(string _a, string _b, string _c, string _d) internal returns (string) {\n  //     return strConcat(_a, _b, _c, _d, \"\");\n  // }\n\n  // function strConcat(string _a, string _b, string _c) internal returns (string) {\n  //     return strConcat(_a, _b, _c, \"\", \"\");\n  // }\n\n  // function strConcat(string _a, string _b) internal returns (string) {\n  //     return strConcat(_a, _b, \"\", \"\", \"\");\n  // }\n\n\n}",
  "sourcePath": "/home/billyrennekamp/GitHub.com/clovers-network/clovers-contracts/contracts/helpers/OldToken.sol",
  "compiler": {
    "name": "solc",
    "version": "0.4.24+commit.e67f0147.Emscripten.clang"
  },
  "schemaVersion": "2.0.1",
  "updatedAt": "2019-06-05T09:53:09.180Z"
}