{
  "contractName": "OldToken",
  "abi": [
    {
      "constant": true,
      "inputs": [
        {
          "name": "",
          "type": "bytes16"
        }
      ],
      "name": "clovers",
      "outputs": [
        {
          "name": "exists",
          "type": "bool"
        },
        {
          "name": "first32Moves",
          "type": "bytes28"
        },
        {
          "name": "lastMoves",
          "type": "bytes28"
        },
        {
          "name": "lastPaidAmount",
          "type": "uint256"
        },
        {
          "name": "findersFee",
          "type": "uint256"
        },
        {
          "name": "created",
          "type": "uint256"
        },
        {
          "name": "modified",
          "type": "uint256"
        }
      ],
      "payable": false,
      "stateMutability": "view",
      "type": "function"
    },
    {
      "constant": true,
      "inputs": [],
      "name": "name",
      "outputs": [
        {
          "name": "",
          "type": "string"
        }
      ],
      "payable": false,
      "stateMutability": "view",
      "type": "function"
    },
    {
      "constant": false,
      "inputs": [
        {
          "name": "_spender",
          "type": "address"
        },
        {
          "name": "_value",
          "type": "uint256"
        }
      ],
      "name": "approve",
      "outputs": [
        {
          "name": "",
          "type": "bool"
        }
      ],
      "payable": false,
      "stateMutability": "nonpayable",
      "type": "function"
    },
    {
      "constant": true,
      "inputs": [],
      "name": "totalSupply",
      "outputs": [
        {
          "name": "",
          "type": "uint256"
        }
      ],
      "payable": false,
      "stateMutability": "view",
      "type": "function"
    },
    {
      "constant": false,
      "inputs": [
        {
          "name": "_from",
          "type": "address"
        },
        {
          "name": "_to",
          "type": "address"
        },
        {
          "name": "_value",
          "type": "uint256"
        }
      ],
      "name": "transferFrom",
      "outputs": [
        {
          "name": "",
          "type": "bool"
        }
      ],
      "payable": false,
      "stateMutability": "nonpayable",
      "type": "function"
    },
    {
      "constant": true,
      "inputs": [],
      "name": "INITIAL_SUPPLY",
      "outputs": [
        {
          "name": "",
          "type": "uint256"
        }
      ],
      "payable": false,
      "stateMutability": "view",
      "type": "function"
    },
    {
      "constant": true,
      "inputs": [],
      "name": "decimals",
      "outputs": [
        {
          "name": "",
          "type": "uint256"
        }
      ],
      "payable": false,
      "stateMutability": "view",
      "type": "function"
    },
    {
      "constant": false,
      "inputs": [
        {
          "name": "_spender",
          "type": "address"
        },
        {
          "name": "_subtractedValue",
          "type": "uint256"
        }
      ],
      "name": "decreaseApproval",
      "outputs": [
        {
          "name": "",
          "type": "bool"
        }
      ],
      "payable": false,
      "stateMutability": "nonpayable",
      "type": "function"
    },
    {
      "constant": true,
      "inputs": [
        {
          "name": "_owner",
          "type": "address"
        }
      ],
      "name": "balanceOf",
      "outputs": [
        {
          "name": "",
          "type": "uint256"
        }
      ],
      "payable": false,
      "stateMutability": "view",
      "type": "function"
    },
    {
      "constant": true,
      "inputs": [],
      "name": "owner",
      "outputs": [
        {
          "name": "",
          "type": "address"
        }
      ],
      "payable": false,
      "stateMutability": "view",
      "type": "function"
    },
    {
      "constant": true,
      "inputs": [
        {
          "name": "",
          "type": "uint256"
        }
      ],
      "name": "playerKeys",
      "outputs": [
        {
          "name": "",
          "type": "address"
        }
      ],
      "payable": false,
      "stateMutability": "view",
      "type": "function"
    },
    {
      "constant": true,
      "inputs": [],
      "name": "symbol",
      "outputs": [
        {
          "name": "",
          "type": "string"
        }
      ],
      "payable": false,
      "stateMutability": "view",
      "type": "function"
    },
    {
      "constant": false,
      "inputs": [
        {
          "name": "_to",
          "type": "address"
        },
        {
          "name": "_value",
          "type": "uint256"
        }
      ],
      "name": "transfer",
      "outputs": [
        {
          "name": "",
          "type": "bool"
        }
      ],
      "payable": false,
      "stateMutability": "nonpayable",
      "type": "function"
    },
    {
      "constant": true,
      "inputs": [
        {
          "name": "",
          "type": "uint256"
        }
      ],
      "name": "adminKeys",
      "outputs": [
        {
          "name": "",
          "type": "address"
        }
      ],
      "payable": false,
      "stateMutability": "view",
      "type": "function"
    },
    {
      "constant": false,
      "inputs": [
        {
          "name": "_spender",
          "type": "address"
        },
        {
          "name": "_addedValue",
          "type": "uint256"
        }
      ],
      "name": "increaseApproval",
      "outputs": [
        {
          "name": "",
          "type": "bool"
        }
      ],
      "payable": false,
      "stateMutability": "nonpayable",
      "type": "function"
    },
    {
      "constant": true,
      "inputs": [
        {
          "name": "_owner",
          "type": "address"
        },
        {
          "name": "_spender",
          "type": "address"
        }
      ],
      "name": "allowance",
      "outputs": [
        {
          "name": "",
          "type": "uint256"
        }
      ],
      "payable": false,
      "stateMutability": "view",
      "type": "function"
    },
    {
      "constant": true,
      "inputs": [
        {
          "name": "",
          "type": "address"
        }
      ],
      "name": "players",
      "outputs": [
        {
          "name": "exists",
          "type": "bool"
        },
        {
          "name": "currentCount",
          "type": "uint256"
        }
      ],
      "payable": false,
      "stateMutability": "view",
      "type": "function"
    },
    {
      "constant": true,
      "inputs": [
        {
          "name": "",
          "type": "uint256"
        }
      ],
      "name": "cloverKeys",
      "outputs": [
        {
          "name": "",
          "type": "bytes16"
        }
      ],
      "payable": false,
      "stateMutability": "view",
      "type": "function"
    },
    {
      "inputs": [],
      "payable": false,
      "stateMutability": "nonpayable",
      "type": "constructor"
    },
    {
      "anonymous": false,
      "inputs": [
        {
          "indexed": false,
          "name": "player",
          "type": "address"
        },
        {
          "indexed": false,
          "name": "name",
          "type": "string"
        }
      ],
      "name": "newUserName",
      "type": "event"
    },
    {
      "anonymous": false,
      "inputs": [
        {
          "indexed": false,
          "name": "board",
          "type": "bytes16"
        },
        {
          "indexed": false,
          "name": "name",
          "type": "string"
        }
      ],
      "name": "newCloverName",
      "type": "event"
    },
    {
      "anonymous": false,
      "inputs": [
        {
          "indexed": false,
          "name": "newOwner",
          "type": "address"
        },
        {
          "indexed": false,
          "name": "lastPaidAmount",
          "type": "uint256"
        },
        {
          "indexed": false,
          "name": "board",
          "type": "bytes16"
        },
        {
          "indexed": false,
          "name": "newBoard",
          "type": "bool"
        },
        {
          "indexed": false,
          "name": "first32Moves",
          "type": "bytes28"
        },
        {
          "indexed": false,
          "name": "lastMoves",
          "type": "bytes28"
        },
        {
          "indexed": false,
          "name": "modified",
          "type": "uint256"
        },
        {
          "indexed": false,
          "name": "findersFee",
          "type": "uint256"
        }
      ],
      "name": "Registered",
      "type": "event"
    },
    {
      "anonymous": false,
      "inputs": [
        {
          "indexed": true,
          "name": "owner",
          "type": "address"
        },
        {
          "indexed": true,
          "name": "spender",
          "type": "address"
        },
        {
          "indexed": false,
          "name": "value",
          "type": "uint256"
        }
      ],
      "name": "Approval",
      "type": "event"
    },
    {
      "anonymous": false,
      "inputs": [
        {
          "indexed": true,
          "name": "from",
          "type": "address"
        },
        {
          "indexed": true,
          "name": "to",
          "type": "address"
        },
        {
          "indexed": false,
          "name": "value",
          "type": "uint256"
        }
      ],
      "name": "Transfer",
      "type": "event"
    },
    {
      "constant": true,
      "inputs": [
        {
          "name": "someone",
          "type": "address"
        }
      ],
      "name": "getBalance",
      "outputs": [
        {
          "name": "",
          "type": "uint256"
        }
      ],
      "payable": false,
      "stateMutability": "view",
      "type": "function"
    },
    {
      "constant": true,
      "inputs": [],
      "name": "myAddress",
      "outputs": [
        {
          "name": "",
          "type": "address"
        }
      ],
      "payable": false,
      "stateMutability": "view",
      "type": "function"
    },
    {
      "constant": true,
      "inputs": [],
      "name": "isAdmin",
      "outputs": [
        {
          "name": "",
          "type": "bool"
        }
      ],
      "payable": false,
      "stateMutability": "view",
      "type": "function"
    },
    {
      "constant": true,
      "inputs": [],
      "name": "adminLen",
      "outputs": [
        {
          "name": "",
          "type": "uint256"
        }
      ],
      "payable": false,
      "stateMutability": "view",
      "type": "function"
    },
    {
      "constant": true,
      "inputs": [
        {
          "name": "key",
          "type": "uint256"
        }
      ],
      "name": "adminAt",
      "outputs": [
        {
          "name": "",
          "type": "address"
        }
      ],
      "payable": false,
      "stateMutability": "view",
      "type": "function"
    },
    {
      "constant": true,
      "inputs": [],
      "name": "getTallys",
      "outputs": [
        {
          "name": "",
          "type": "uint256"
        },
        {
          "name": "",
          "type": "uint256"
        },
        {
          "name": "",
          "type": "uint256"
        },
        {
          "name": "",
          "type": "uint256"
        },
        {
          "name": "",
          "type": "uint256"
        },
        {
          "name": "",
          "type": "uint256"
        },
        {
          "name": "",
          "type": "uint256"
        }
      ],
      "payable": false,
      "stateMutability": "view",
      "type": "function"
    },
    {
      "constant": false,
      "inputs": [
        {
          "name": "len",
          "type": "uint256"
        }
      ],
      "name": "changeNameLength",
      "outputs": [],
      "payable": false,
      "stateMutability": "nonpayable",
      "type": "function"
    },
    {
      "constant": false,
      "inputs": [
        {
          "name": "newbie",
          "type": "address"
        }
      ],
      "name": "addAdmin",
      "outputs": [],
      "payable": false,
      "stateMutability": "nonpayable",
      "type": "function"
    },
    {
      "constant": false,
      "inputs": [
        {
          "name": "multiplier",
          "type": "uint256"
        }
      ],
      "name": "updateMultiplier",
      "outputs": [],
      "payable": false,
      "stateMutability": "nonpayable",
      "type": "function"
    },
    {
      "constant": false,
      "inputs": [
        {
          "name": "name",
          "type": "string"
        }
      ],
      "name": "changeName",
      "outputs": [],
      "payable": false,
      "stateMutability": "nonpayable",
      "type": "function"
    },
    {
      "constant": true,
      "inputs": [],
      "name": "listPlayerCount",
      "outputs": [
        {
          "name": "",
          "type": "uint256"
        }
      ],
      "payable": false,
      "stateMutability": "view",
      "type": "function"
    },
    {
      "constant": true,
      "inputs": [
        {
          "name": "playerKey",
          "type": "uint256"
        }
      ],
      "name": "playerAddressByKey",
      "outputs": [
        {
          "name": "",
          "type": "address"
        }
      ],
      "payable": false,
      "stateMutability": "view",
      "type": "function"
    },
    {
      "constant": true,
      "inputs": [
        {
          "name": "player",
          "type": "address"
        }
      ],
      "name": "playerExists",
      "outputs": [
        {
          "name": "",
          "type": "bool"
        }
      ],
      "payable": false,
      "stateMutability": "view",
      "type": "function"
    },
    {
      "constant": true,
      "inputs": [
        {
          "name": "player",
          "type": "address"
        }
      ],
      "name": "playerCurrentCount",
      "outputs": [
        {
          "name": "",
          "type": "uint256"
        }
      ],
      "payable": false,
      "stateMutability": "view",
      "type": "function"
    },
    {
      "constant": true,
      "inputs": [
        {
          "name": "player",
          "type": "address"
        }
      ],
      "name": "playerAllCount",
      "outputs": [
        {
          "name": "",
          "type": "uint256"
        }
      ],
      "payable": false,
      "stateMutability": "view",
      "type": "function"
    },
    {
      "constant": true,
      "inputs": [
        {
          "name": "player",
          "type": "address"
        },
        {
          "name": "cloverKey",
          "type": "uint256"
        }
      ],
      "name": "playerCloverByKey",
      "outputs": [
        {
          "name": "",
          "type": "bytes16"
        }
      ],
      "payable": false,
      "stateMutability": "view",
      "type": "function"
    },
    {
      "constant": true,
      "inputs": [
        {
          "name": "player",
          "type": "address"
        },
        {
          "name": "board",
          "type": "bytes16"
        }
      ],
      "name": "playerOwnsClover",
      "outputs": [
        {
          "name": "",
          "type": "bool"
        }
      ],
      "payable": false,
      "stateMutability": "view",
      "type": "function"
    },
    {
      "constant": true,
      "inputs": [
        {
          "name": "b",
          "type": "bytes16"
        }
      ],
      "name": "cloverExists",
      "outputs": [
        {
          "name": "",
          "type": "bool"
        }
      ],
      "payable": false,
      "stateMutability": "view",
      "type": "function"
    },
    {
      "constant": true,
      "inputs": [],
      "name": "getCloversCount",
      "outputs": [
        {
          "name": "",
          "type": "uint256"
        }
      ],
      "payable": false,
      "stateMutability": "view",
      "type": "function"
    },
    {
      "constant": true,
      "inputs": [
        {
          "name": "boardKey",
          "type": "uint256"
        }
      ],
      "name": "getCloverByKey",
      "outputs": [
        {
          "name": "",
          "type": "bytes16"
        },
        {
          "name": "lastPaidAmount",
          "type": "uint256"
        },
        {
          "name": "owners",
          "type": "uint256"
        },
        {
          "name": "lastOwner",
          "type": "address"
        },
        {
          "name": "first32Moves",
          "type": "bytes28"
        },
        {
          "name": "lastMoves",
          "type": "bytes28"
        }
      ],
      "payable": false,
      "stateMutability": "view",
      "type": "function"
    },
    {
      "constant": true,
      "inputs": [
        {
          "name": "board",
          "type": "bytes16"
        }
      ],
      "name": "getClover",
      "outputs": [
        {
          "name": "",
          "type": "bytes16"
        },
        {
          "name": "lastPaidAmount",
          "type": "uint256"
        },
        {
          "name": "ownersLength",
          "type": "uint256"
        },
        {
          "name": "lastOwner",
          "type": "address"
        },
        {
          "name": "first32Moves",
          "type": "bytes28"
        },
        {
          "name": "lastMoves",
          "type": "bytes28"
        }
      ],
      "payable": false,
      "stateMutability": "view",
      "type": "function"
    },
    {
      "constant": true,
      "inputs": [
        {
          "name": "board",
          "type": "bytes16"
        }
      ],
      "name": "getCloverOwnersLength",
      "outputs": [
        {
          "name": "",
          "type": "uint256"
        }
      ],
      "payable": false,
      "stateMutability": "view",
      "type": "function"
    },
    {
      "constant": true,
      "inputs": [
        {
          "name": "board",
          "type": "bytes16"
        }
      ],
      "name": "getCloverOwner",
      "outputs": [
        {
          "name": "",
          "type": "bytes16"
        },
        {
          "name": "previousOwner",
          "type": "address"
        }
      ],
      "payable": false,
      "stateMutability": "view",
      "type": "function"
    },
    {
      "constant": true,
      "inputs": [
        {
          "name": "board",
          "type": "bytes16"
        },
        {
          "name": "ownerKey",
          "type": "uint256"
        }
      ],
      "name": "getCloverOwnerAtKeyByBoard",
      "outputs": [
        {
          "name": "",
          "type": "bytes16"
        },
        {
          "name": "previousOwner",
          "type": "address"
        }
      ],
      "payable": false,
      "stateMutability": "view",
      "type": "function"
    },
    {
      "constant": true,
      "inputs": [
        {
          "name": "boardKey",
          "type": "uint256"
        },
        {
          "name": "ownerKey",
          "type": "uint256"
        }
      ],
      "name": "getCloverOwnerAtKeyByBoardKey",
      "outputs": [
        {
          "name": "",
          "type": "bytes16"
        },
        {
          "name": "previousOwner",
          "type": "address"
        }
      ],
      "payable": false,
      "stateMutability": "view",
      "type": "function"
    },
    {
      "constant": false,
      "inputs": [
        {
          "name": "board",
          "type": "bytes16"
        },
        {
          "name": "name",
          "type": "string"
        }
      ],
      "name": "renameClover",
      "outputs": [],
      "payable": false,
      "stateMutability": "nonpayable",
      "type": "function"
    },
    {
      "constant": false,
      "inputs": [
        {
          "name": "board",
          "type": "bytes16"
        },
        {
          "name": "startPrice",
          "type": "uint256"
        }
      ],
      "name": "changeStartPrice",
      "outputs": [],
      "payable": false,
      "stateMutability": "nonpayable",
      "type": "function"
    },
    {
      "constant": false,
      "inputs": [
        {
          "name": "first32Moves",
          "type": "bytes28"
        },
        {
          "name": "lastMoves",
          "type": "bytes28"
        },
        {
          "name": "startPrice",
          "type": "uint256"
        }
      ],
      "name": "mineClover",
      "outputs": [],
      "payable": false,
      "stateMutability": "nonpayable",
      "type": "function"
    },
    {
      "constant": false,
      "inputs": [
        {
          "name": "first32Moves",
          "type": "bytes28"
        },
        {
          "name": "lastMoves",
          "type": "bytes28"
        },
        {
          "name": "board",
          "type": "bytes16"
        },
        {
          "name": "startPrice",
          "type": "uint256"
        }
      ],
      "name": "adminMineClover",
      "outputs": [
        {
          "name": "boardKey",
          "type": "uint256"
        }
      ],
      "payable": false,
      "stateMutability": "nonpayable",
      "type": "function"
    },
    {
      "constant": false,
      "inputs": [
        {
          "name": "b",
          "type": "bytes16"
        }
      ],
      "name": "flipClover",
      "outputs": [],
      "payable": false,
      "stateMutability": "nonpayable",
      "type": "function"
    },
    {
      "constant": true,
      "inputs": [
        {
          "name": "first32Moves",
          "type": "bytes28"
        },
        {
          "name": "lastMoves",
          "type": "bytes28"
        }
      ],
      "name": "gameIsValid",
      "outputs": [
        {
          "name": "",
          "type": "bool"
        }
      ],
      "payable": false,
      "stateMutability": "view",
      "type": "function"
    },
    {
      "constant": true,
      "inputs": [
        {
          "name": "first32Moves",
          "type": "bytes28"
        },
        {
          "name": "lastMoves",
          "type": "bytes28"
        }
      ],
      "name": "gameExists",
      "outputs": [
        {
          "name": "",
          "type": "bool"
        }
      ],
      "payable": false,
      "stateMutability": "view",
      "type": "function"
    },
    {
      "constant": false,
      "inputs": [
        {
          "name": "first32Moves",
          "type": "bytes28"
        },
        {
          "name": "lastMoves",
          "type": "bytes28"
        }
      ],
      "name": "debugGame",
      "outputs": [],
      "payable": false,
      "stateMutability": "nonpayable",
      "type": "function"
    },
    {
      "constant": true,
      "inputs": [
        {
          "name": "first32Moves",
          "type": "bytes28"
        },
        {
          "name": "lastMoves",
          "type": "bytes28"
        }
      ],
      "name": "showGame",
      "outputs": [
        {
          "name": "error",
          "type": "bool"
        },
        {
          "name": "complete",
          "type": "bool"
        },
        {
          "name": "symmetrical",
          "type": "bool"
        },
        {
          "name": "RotSym",
          "type": "bool"
        },
        {
          "name": "Y0Sym",
          "type": "bool"
        },
        {
          "name": "X0Sym",
          "type": "bool"
        },
        {
          "name": "XYSym",
          "type": "bool"
        },
        {
          "name": "XnYSym",
          "type": "bool"
        }
      ],
      "payable": false,
      "stateMutability": "view",
      "type": "function"
    },
    {
      "constant": true,
      "inputs": [
        {
          "name": "first32Moves",
          "type": "bytes28"
        },
        {
          "name": "lastMoves",
          "type": "bytes28"
        }
      ],
      "name": "showGame2",
      "outputs": [
        {
          "name": "board",
          "type": "bytes16"
        },
        {
          "name": "blackScore",
          "type": "uint8"
        },
        {
          "name": "whiteScore",
          "type": "uint8"
        },
        {
          "name": "currentPlayer",
          "type": "uint8"
        },
        {
          "name": "moveKey",
          "type": "uint8"
        }
      ],
      "payable": false,
      "stateMutability": "view",
      "type": "function"
    },
    {
      "constant": true,
      "inputs": [
        {
          "name": "b",
          "type": "bytes16"
        }
      ],
      "name": "getSymmetry",
      "outputs": [
        {
          "name": "error",
          "type": "bool"
        },
        {
          "name": "complete",
          "type": "bool"
        },
        {
          "name": "symmetrical",
          "type": "bool"
        },
        {
          "name": "RotSym",
          "type": "bool"
        },
        {
          "name": "Y0Sym",
          "type": "bool"
        },
        {
          "name": "X0Sym",
          "type": "bool"
        },
        {
          "name": "XYSym",
          "type": "bool"
        },
        {
          "name": "XnYSym",
          "type": "bool"
        }
      ],
      "payable": false,
      "stateMutability": "view",
      "type": "function"
    },
    {
      "constant": true,
      "inputs": [
        {
          "name": "b",
          "type": "bytes16"
        }
      ],
      "name": "getFindersFee",
      "outputs": [
        {
          "name": "",
          "type": "uint256"
        }
      ],
      "payable": false,
      "stateMutability": "view",
      "type": "function"
    }
  ],
  "bytecode": "0x60806040526000600355600060045560646005556015600c556040805190810160405280600981526020017f436c7562546f6b656e0000000000000000000000000000000000000000000000815250600e90805190602001906200006592919062000215565b506040805190810160405280600381526020017fe299a70000000000000000000000000000000000000000000000000000000000815250600f9080519060200190620000b392919062000215565b50348015620000c157600080fd5b506004546001819055506004546000803373ffffffffffffffffffffffffffffffffffffffff1673ffffffffffffffffffffffffffffffffffffffff168152602001908152602001600020819055506001601060003373ffffffffffffffffffffffffffffffffffffffff1673ffffffffffffffffffffffffffffffffffffffff16815260200190815260200160002060006101000a81548160ff02191690831515021790555060113390806001815401808255809150509060018203906000526020600020016000909192909190916101000a81548173ffffffffffffffffffffffffffffffffffffffff021916908373ffffffffffffffffffffffffffffffffffffffff1602179055505033600d60006101000a81548173ffffffffffffffffffffffffffffffffffffffff021916908373ffffffffffffffffffffffffffffffffffffffff160217905550620002c4565b828054600181600116156101000203166002900490600052602060002090601f016020900481019282601f106200025857805160ff191683800117855562000289565b8280016001018555821562000289579182015b82811115620002885782518255916020019190600101906200026b565b5b5090506200029891906200029c565b5090565b620002c191905b80821115620002bd576000816000905550600101620002a3565b5090565b90565b616a3380620002d46000396000f300608060405260043610610293576000357c0100000000000000000000000000000000000000000000000000000000900463ffffffff16806306fd150a1461029857806306fdde03146102db578063095ea7b3146103065780630b0372fd1461034357806316746ed01461038057806318160ddd146103be5780631eb7bc0d146103e957806323b872dd1461042657806326b85ee11461046357806329049fff1461048e5780632a1ad03f146104d25780632ff2e9dc1461050f578063313ce5671461053a578063356a099c146105655780633a9e69cb1461058e578063451ed116146105b75780634821e607146105e2578063519a337f146106245780635353a2d8146106615780635ffe61461461068a57806362629934146106b357806365770191146106f0578063661884631461071b578063675880381461075857806367b9bafc146107955780636e0fc8bb146107d2578063704802751461080f57806370a08231146108385780637b3a838714610875578063851d3bf5146108b25780638d1948c0146108f35780638da5cb5b146109305780638f88236c1461095b578063932705921461099857806395d89b41146109c15780639769a844146109ec578063a788bed014610a1d578063a9059cbb14610a5a578063ade1523f14610a97578063aff125f614610ac0578063b6db75a014610afd578063b8cfefa814610b28578063baf4955d14610b6a578063bbe5230014610bae578063cb2f489e14610beb578063d42eccbd14610c16578063d73dd62314610c3f578063dd62ed3e14610c7c578063df9073fa14610cb9578063e2eb41ff14610ce2578063f69ce26614610d20578063f8b2cb4f14610d5e578063fb9fced614610d9b578063fedd6c7714610dd8578063fffcf9a814610e15575b600080fd5b3480156102a457600080fd5b506102bf60048036036102ba9190810190616139565b610e53565b6040516102d297969594939291906165ae565b60405180910390f35b3480156102e757600080fd5b506102f0610ec4565b6040516102fd919061676e565b60405180910390f35b34801561031257600080fd5b5061032d600480360361032891908101906160fd565b610f62565b60405161033a9190616515565b60405180910390f35b34801561034f57600080fd5b5061036a60048036036103659190810190616139565b611054565b6040516103779190616515565b60405180910390f35b34801561038c57600080fd5b506103a760048036036103a2919081019061634a565b6110a7565b6040516103b5929190616661565b60405180910390f35b3480156103ca57600080fd5b506103d36111c6565b6040516103e09190616790565b60405180910390f35b3480156103f557600080fd5b50610410600480360361040b9190810190616321565b6111d0565b60405161041d919061644c565b60405180910390f35b34801561043257600080fd5b5061044d60048036036104489190810190616072565b611213565b60405161045a9190616515565b60405180910390f35b34801561046f57600080fd5b506104786115cd565b604051610485919061644c565b60405180910390f35b34801561049a57600080fd5b506104b560048036036104b09190810190616139565b6115d5565b6040516104c9989796959493929190616530565b60405180910390f35b3480156104de57600080fd5b506104f960048036036104f49190810190616321565b61164c565b604051610506919061644c565b60405180910390f35b34801561051b57600080fd5b5061052461168f565b6040516105319190616790565b60405180910390f35b34801561054657600080fd5b5061054f611695565b60405161055c9190616790565b60405180910390f35b34801561057157600080fd5b5061058c600480360361058791908101906161b6565b61169b565b005b34801561059a57600080fd5b506105b560048036036105b09190810190616162565b61194e565b005b3480156105c357600080fd5b506105cc611ae1565b6040516105d99190616790565b60405180910390f35b3480156105ee57600080fd5b5061060960048036036106049190810190616139565b611aee565b60405161061b969594939291906166ba565b60405180910390f35b34801561063057600080fd5b5061064b6004803603610646919081019061622e565b611d33565b6040516106589190616790565b60405180910390f35b34801561066d57600080fd5b50610688600480360361068391908101906162e0565b612309565b005b34801561069657600080fd5b506106b160048036036106ac9190810190616321565b612355565b005b3480156106bf57600080fd5b506106da60048036036106d59190810190616139565b6123b7565b6040516106e79190616790565b60405180910390f35b3480156106fc57600080fd5b50610705612410565b6040516107129190616790565b60405180910390f35b34801561072757600080fd5b50610742600480360361073d91908101906160fd565b61241d565b60405161074f9190616515565b60405180910390f35b34801561076457600080fd5b5061077f600480360361077a91908101906161f2565b6126ae565b60405161078c9190616515565b60405180910390f35b3480156107a157600080fd5b506107bc60048036036107b79190810190616139565b61270b565b6040516107c99190616790565b60405180910390f35b3480156107de57600080fd5b506107f960048036036107f491908101906160c1565b6127ab565b6040516108069190616515565b60405180910390f35b34801561081b57600080fd5b506108366004803603610831919081019061600d565b61283c565b005b34801561084457600080fd5b5061085f600480360361085a919081019061600d565b6129ad565b60405161086c9190616790565b60405180910390f35b34801561088157600080fd5b5061089c600480360361089791908101906160fd565b6129f5565b6040516108a99190616646565b60405180910390f35b3480156108be57600080fd5b506108d960048036036108d491908101906161f2565b612a81565b6040516108ea95949392919061671b565b60405180910390f35b3480156108ff57600080fd5b5061091a6004803603610915919081019061600d565b612ad0565b6040516109279190616790565b60405180910390f35b34801561093c57600080fd5b50610945612b1f565b604051610952919061644c565b60405180910390f35b34801561096757600080fd5b50610982600480360361097d9190810190616321565b612b45565b60405161098f919061644c565b60405180910390f35b3480156109a457600080fd5b506109bf60048036036109ba9190810190616321565b612b83565b005b3480156109cd57600080fd5b506109d6612be5565b6040516109e3919061676e565b60405180910390f35b3480156109f857600080fd5b50610a01612c83565b604051610a1497969594939291906167ab565b60405180910390f35b348015610a2957600080fd5b50610a446004803603610a3f919081019061600d565b612cba565b604051610a519190616790565b60405180910390f35b348015610a6657600080fd5b50610a816004803603610a7c91908101906160fd565b612d06565b604051610a8e9190616515565b60405180910390f35b348015610aa357600080fd5b50610abe6004803603610ab99190810190616291565b612f25565b005b348015610acc57600080fd5b50610ae76004803603610ae29190810190616321565b612f4a565b604051610af4919061644c565b60405180910390f35b348015610b0957600080fd5b50610b12612f88565b604051610b1f9190616515565b60405180910390f35b348015610b3457600080fd5b50610b4f6004803603610b4a9190810190616321565b612fdc565b604051610b61969594939291906166ba565b60405180910390f35b348015610b7657600080fd5b50610b916004803603610b8c91908101906161f2565b61304a565b604051610ba5989796959493929190616530565b60405180910390f35b348015610bba57600080fd5b50610bd56004803603610bd0919081019061600d565b613091565b604051610be29190616515565b60405180910390f35b348015610bf757600080fd5b50610c006130ea565b604051610c0d9190616790565b60405180910390f35b348015610c2257600080fd5b50610c3d6004803603610c389190810190616139565b6130f7565b005b348015610c4b57600080fd5b50610c666004803603610c6191908101906160fd565b61391e565b604051610c739190616515565b60405180910390f35b348015610c8857600080fd5b50610ca36004803603610c9e9190810190616036565b613b1a565b604051610cb09190616790565b60405180910390f35b348015610cc557600080fd5b50610ce06004803603610cdb91908101906161f2565b613ba1565b005b348015610cee57600080fd5b50610d096004803603610d04919081019061600d565b613bba565b604051610d1792919061661d565b60405180910390f35b348015610d2c57600080fd5b50610d476004803603610d4291908101906161b6565b613beb565b604051610d55929190616661565b60405180910390f35b348015610d6a57600080fd5b50610d856004803603610d80919081019061600d565b613cc5565b604051610d929190616790565b60405180910390f35b348015610da757600080fd5b50610dc26004803603610dbd91908101906161f2565b613d0d565b604051610dcf9190616515565b60405180910390f35b348015610de457600080fd5b50610dff6004803603610dfa9190810190616321565b613d9a565b604051610e0c9190616646565b60405180910390f35b348015610e2157600080fd5b50610e3c6004803603610e379190810190616139565b613de0565b604051610e4a929190616661565b60405180910390f35b60146020528060005260406000206000915090508060000160009054906101000a900460ff16908060000160019054906101000a900464010000000002908060010160009054906101000a900464010000000002908060020154908060030154908060040154908060050154905087565b600e8054600181600116156101000203166002900480601f016020809104026020016040519081016040528092919081815260200182805460018160011615610100020316600290048015610f5a5780601f10610f2f57610100808354040283529160200191610f5a565b820191906000526020600020905b815481529060010190602001808311610f3d57829003601f168201915b505050505081565b600081600260003373ffffffffffffffffffffffffffffffffffffffff1673ffffffffffffffffffffffffffffffffffffffff16815260200190815260200160002060008573ffffffffffffffffffffffffffffffffffffffff1673ffffffffffffffffffffffffffffffffffffffff168152602001908152602001600020819055508273ffffffffffffffffffffffffffffffffffffffff163373ffffffffffffffffffffffffffffffffffffffff167f8c5be1e5ebec7d5bd14f71427d1e84f3dd0314c0f7b2291e5b200ac8c7c3b925846040516110429190616790565b60405180910390a36001905092915050565b600060146000836fffffffffffffffffffffffffffffffff19166fffffffffffffffffffffffffffffffff1916815260200190815260200160002060000160009054906101000a900460ff169050919050565b60008060006015858154811015156110bb57fe5b90600052602060002090600291828204019190066010029054906101000a900470010000000000000000000000000000000002905060146000826fffffffffffffffffffffffffffffffff19166fffffffffffffffffffffffffffffffff1916815260200190815260200160002060000160009054906101000a900460ff16151561114557600080fd5b8060146000836fffffffffffffffffffffffffffffffff19166fffffffffffffffffffffffffffffffff191681526020019081526020016000206006018581548110151561118f57fe5b9060005260206000200160009054906101000a900473ffffffffffffffffffffffffffffffffffffffff1692509250509250929050565b6000600154905090565b60006013828154811015156111e157fe5b9060005260206000200160009054906101000a900473ffffffffffffffffffffffffffffffffffffffff169050919050565b60008073ffffffffffffffffffffffffffffffffffffffff168373ffffffffffffffffffffffffffffffffffffffff161415151561125057600080fd5b6000808573ffffffffffffffffffffffffffffffffffffffff1673ffffffffffffffffffffffffffffffffffffffff16815260200190815260200160002054821115151561129d57600080fd5b600260008573ffffffffffffffffffffffffffffffffffffffff1673ffffffffffffffffffffffffffffffffffffffff16815260200190815260200160002060003373ffffffffffffffffffffffffffffffffffffffff1673ffffffffffffffffffffffffffffffffffffffff16815260200190815260200160002054821115151561132857600080fd5b611379826000808773ffffffffffffffffffffffffffffffffffffffff1673ffffffffffffffffffffffffffffffffffffffff16815260200190815260200160002054613efa90919063ffffffff16565b6000808673ffffffffffffffffffffffffffffffffffffffff1673ffffffffffffffffffffffffffffffffffffffff1681526020019081526020016000208190555061140c826000808673ffffffffffffffffffffffffffffffffffffffff1673ffffffffffffffffffffffffffffffffffffffff16815260200190815260200160002054613f1390919063ffffffff16565b6000808573ffffffffffffffffffffffffffffffffffffffff1673ffffffffffffffffffffffffffffffffffffffff168152602001908152602001600020819055506114dd82600260008773ffffffffffffffffffffffffffffffffffffffff1673ffffffffffffffffffffffffffffffffffffffff16815260200190815260200160002060003373ffffffffffffffffffffffffffffffffffffffff1673ffffffffffffffffffffffffffffffffffffffff16815260200190815260200160002054613efa90919063ffffffff16565b600260008673ffffffffffffffffffffffffffffffffffffffff1673ffffffffffffffffffffffffffffffffffffffff16815260200190815260200160002060003373ffffffffffffffffffffffffffffffffffffffff1673ffffffffffffffffffffffffffffffffffffffff168152602001908152602001600020819055508273ffffffffffffffffffffffffffffffffffffffff168473ffffffffffffffffffffffffffffffffffffffff167fddf252ad1be2c89b69c2b068fc378daa952ba7f163c4a11628f55a4df523b3ef846040516115ba9190616790565b60405180910390a3600190509392505050565b600033905090565b6000806000806000806000806115e9615dcd565b898161010001906fffffffffffffffffffffffffffffffff191690816fffffffffffffffffffffffffffffffff19168152505061162581613f2f565b905061163081614227565b9850985098509850985098509850985050919395975091939597565b600060118281548110151561165d57fe5b9060005260206000200160009054906101000a900473ffffffffffffffffffffffffffffffffffffffff169050919050565b60045481565b60035481565b8160146000826fffffffffffffffffffffffffffffffff19166fffffffffffffffffffffffffffffffff1916815260200190815260200160002060000160009054906101000a900460ff1615156116f157600080fd5b3373ffffffffffffffffffffffffffffffffffffffff1660146000856fffffffffffffffffffffffffffffffff19166fffffffffffffffffffffffffffffffff19168152602001908152602001600020600601600081548110151561175257fe5b9060005260206000200160009054906101000a900473ffffffffffffffffffffffffffffffffffffffff1673ffffffffffffffffffffffffffffffffffffffff1614151561179f57600080fd5b600160146000856fffffffffffffffffffffffffffffffff19166fffffffffffffffffffffffffffffffff191681526020019081526020016000206006018054905011156117ec57600080fd5b7f5c3b20386cb190ab356d48388402e550e47af17282ac5ac49df339be5376a980338385600160146000896fffffffffffffffffffffffffffffffff19166fffffffffffffffffffffffffffffffff1916815260200190815260200160002060000160019054906101000a900464010000000002601460008a6fffffffffffffffffffffffffffffffff19166fffffffffffffffffffffffffffffffff1916815260200190815260200160002060010160009054906101000a90046401000000000242601460008c6fffffffffffffffffffffffffffffffff19166fffffffffffffffffffffffffffffffff1916815260200190815260200160002060030154604051611900989796959493929190616497565b60405180910390a18160146000856fffffffffffffffffffffffffffffffff19166fffffffffffffffffffffffffffffffff1916815260200190815260200160002060020181905550505050565b8160146000826fffffffffffffffffffffffffffffffff19166fffffffffffffffffffffffffffffffff1916815260200190815260200160002060000160009054906101000a900460ff1615156119a457600080fd5b600c54825111156119b457600080fd5b3373ffffffffffffffffffffffffffffffffffffffff1660146000856fffffffffffffffffffffffffffffffff19166fffffffffffffffffffffffffffffffff19168152602001908152602001600020600601600160146000876fffffffffffffffffffffffffffffffff19166fffffffffffffffffffffffffffffffff191681526020019081526020016000206006018054905003815481101515611a5657fe5b9060005260206000200160009054906101000a900473ffffffffffffffffffffffffffffffffffffffff1673ffffffffffffffffffffffffffffffffffffffff16141515611aa357600080fd5b7f928915afa2256c97955fd7735e2e6ba6d453eb09e7d91e5b03467b5934cca3848383604051611ad492919061668a565b60405180910390a1505050565b6000601380549050905090565b6000806000806000808660146000826fffffffffffffffffffffffffffffffff19166fffffffffffffffffffffffffffffffff1916815260200190815260200160002060000160009054906101000a900460ff161515611b4d57600080fd5b87601460008a6fffffffffffffffffffffffffffffffff19166fffffffffffffffffffffffffffffffff1916815260200190815260200160002060020154601460008b6fffffffffffffffffffffffffffffffff19166fffffffffffffffffffffffffffffffff1916815260200190815260200160002060060180549050601460008c6fffffffffffffffffffffffffffffffff19166fffffffffffffffffffffffffffffffff191681526020019081526020016000206006016001601460008e6fffffffffffffffffffffffffffffffff19166fffffffffffffffffffffffffffffffff191681526020019081526020016000206006018054905003815481101515611c5657fe5b9060005260206000200160009054906101000a900473ffffffffffffffffffffffffffffffffffffffff16601460008d6fffffffffffffffffffffffffffffffff19166fffffffffffffffffffffffffffffffff1916815260200190815260200160002060000160019054906101000a900464010000000002601460008e6fffffffffffffffffffffffffffffffff19166fffffffffffffffffffffffffffffffff1916815260200190815260200160002060010160009054906101000a9004640100000000029650965096509650965096505091939550919395565b6000611d3d615dcd565b8360146000826fffffffffffffffffffffffffffffffff19166fffffffffffffffffffffffffffffffff1916815260200190815260200160002060000160009054906101000a900460ff1615611d9257600080fd5b601060003373ffffffffffffffffffffffffffffffffffffffff1673ffffffffffffffffffffffffffffffffffffffff16815260200190815260200160002060009054906101000a900460ff161515611dea57600080fd5b611df2614276565b611e00826101000151614390565b848261010001906fffffffffffffffffffffffffffffffff191690816fffffffffffffffffffffffffffffffff191681525050611e3c82613f2f565b9150816040015115611f6f57611e51826145af565b60146000876fffffffffffffffffffffffffffffffff19166fffffffffffffffffffffffffffffffff191681526020019081526020016000206003018190555060146000866fffffffffffffffffffffffffffffffff19166fffffffffffffffffffffffffffffffff19168152602001908152602001600020600301546000803373ffffffffffffffffffffffffffffffffffffffff1673ffffffffffffffffffffffffffffffffffffffff1681526020019081526020016000206000828254019250508190555060146000866fffffffffffffffffffffffffffffffff19166fffffffffffffffffffffffffffffffff1916815260200190815260200160002060030154600160008282540192505081905550611f6e8261474f565b5b8660146000876fffffffffffffffffffffffffffffffff19166fffffffffffffffffffffffffffffffff1916815260200190815260200160002060000160016101000a8154817bffffffffffffffffffffffffffffffffffffffffffffffffffffffff0219169083640100000000900402179055508560146000876fffffffffffffffffffffffffffffffff19166fffffffffffffffffffffffffffffffff1916815260200190815260200160002060010160006101000a8154817bffffffffffffffffffffffffffffffffffffffffffffffffffffffff02191690836401000000009004021790555060146000866fffffffffffffffffffffffffffffffff19166fffffffffffffffffffffffffffffffff191681526020019081526020016000206006013390806001815401808255809150509060018203906000526020600020016000909192909190916101000a81548173ffffffffffffffffffffffffffffffffffffffff021916908373ffffffffffffffffffffffffffffffffffffffff160217905550508360146000876fffffffffffffffffffffffffffffffff19166fffffffffffffffffffffffffffffffff1916815260200190815260200160002060020181905550600160146000876fffffffffffffffffffffffffffffffff19166fffffffffffffffffffffffffffffffff1916815260200190815260200160002060000160006101000a81548160ff0219169083151502179055504260146000876fffffffffffffffffffffffffffffffff19166fffffffffffffffffffffffffffffffff19168152602001908152602001600020600401819055504260146000876fffffffffffffffffffffffffffffffff19166fffffffffffffffffffffffffffffffff19168152602001908152602001600020600501819055507f5c3b20386cb190ab356d48388402e550e47af17282ac5ac49df339be5376a98033858760018b8b42601460008e6fffffffffffffffffffffffffffffffff19166fffffffffffffffffffffffffffffffff191681526020019081526020016000206003015460405161228b989796959493929190616497565b60405180910390a1601585908060018154018082558091505090600182039060005260206000209060029182820401919006601002909192909190916101000a8154816fffffffffffffffffffffffffffffffff02191690837001000000000000000000000000000000009004021790555092505050949350505050565b600c548151111561231957600080fd5b7f51aba8153205aaff23cab0b32a552626c48b35cb38dfb3dd771bb435e63d17b5338260405161234a929190616467565b60405180910390a150565b601060003373ffffffffffffffffffffffffffffffffffffffff1673ffffffffffffffffffffffffffffffffffffffff16815260200190815260200160002060009054906101000a900460ff1615156123ad57600080fd5b8060058190555050565b60006123c1615dcd565b828161010001906fffffffffffffffffffffffffffffffff191690816fffffffffffffffffffffffffffffffff1916815250506123fd81613f2f565b9050612408816145af565b915050919050565b6000601180549050905090565b600080600260003373ffffffffffffffffffffffffffffffffffffffff1673ffffffffffffffffffffffffffffffffffffffff16815260200190815260200160002060008573ffffffffffffffffffffffffffffffffffffffff1673ffffffffffffffffffffffffffffffffffffffff1681526020019081526020016000205490508083111561252e576000600260003373ffffffffffffffffffffffffffffffffffffffff1673ffffffffffffffffffffffffffffffffffffffff16815260200190815260200160002060008673ffffffffffffffffffffffffffffffffffffffff1673ffffffffffffffffffffffffffffffffffffffff168152602001908152602001600020819055506125c2565b6125418382613efa90919063ffffffff16565b600260003373ffffffffffffffffffffffffffffffffffffffff1673ffffffffffffffffffffffffffffffffffffffff16815260200190815260200160002060008673ffffffffffffffffffffffffffffffffffffffff1673ffffffffffffffffffffffffffffffffffffffff168152602001908152602001600020819055505b8373ffffffffffffffffffffffffffffffffffffffff163373ffffffffffffffffffffffffffffffffffffffff167f8c5be1e5ebec7d5bd14f71427d1e84f3dd0314c0f7b2291e5b200ac8c7c3b925600260003373ffffffffffffffffffffffffffffffffffffffff1673ffffffffffffffffffffffffffffffffffffffff16815260200190815260200160002060008873ffffffffffffffffffffffffffffffffffffffff1673ffffffffffffffffffffffffffffffffffffffff1681526020019081526020016000205460405161269b9190616790565b60405180910390a3600191505092915050565b60006126b8615dcd565b6126c28484614752565b90508060000151156126d75760009150612704565b806020015115156126eb5760009150612704565b806040015115156126ff5760009150612704565b600191505b5092915050565b60008160146000826fffffffffffffffffffffffffffffffff19166fffffffffffffffffffffffffffffffff1916815260200190815260200160002060000160009054906101000a900460ff16151561276357600080fd5b60146000846fffffffffffffffffffffffffffffffff19166fffffffffffffffffffffffffffffffff1916815260200190815260200160002060060180549050915050919050565b6000601260008473ffffffffffffffffffffffffffffffffffffffff1673ffffffffffffffffffffffffffffffffffffffff1681526020019081526020016000206003016000836fffffffffffffffffffffffffffffffff19166fffffffffffffffffffffffffffffffff1916815260200190815260200160002060009054906101000a900460ff16905092915050565b601060003373ffffffffffffffffffffffffffffffffffffffff1673ffffffffffffffffffffffffffffffffffffffff16815260200190815260200160002060009054906101000a900460ff16151561289457600080fd5b601060003373ffffffffffffffffffffffffffffffffffffffff1673ffffffffffffffffffffffffffffffffffffffff16815260200190815260200160002060009054906101000a900460ff1615156128ec57600080fd5b6001601060008373ffffffffffffffffffffffffffffffffffffffff1673ffffffffffffffffffffffffffffffffffffffff16815260200190815260200160002060006101000a81548160ff02191690831515021790555060118190806001815401808255809150509060018203906000526020600020016000909192909190916101000a81548173ffffffffffffffffffffffffffffffffffffffff021916908373ffffffffffffffffffffffffffffffffffffffff1602179055505050565b60008060008373ffffffffffffffffffffffffffffffffffffffff1673ffffffffffffffffffffffffffffffffffffffff168152602001908152602001600020549050919050565b6000601260008473ffffffffffffffffffffffffffffffffffffffff1673ffffffffffffffffffffffffffffffffffffffff16815260200190815260200160002060020182815481101515612a4657fe5b90600052602060002090600291828204019190066010029054906101000a900470010000000000000000000000000000000002905092915050565b6000806000806000612a91615dcd565b612a9b8888614752565b9050806101000151816101a00151826101c0015183610160015184610180015195509550955095509550509295509295909350565b6000601260008373ffffffffffffffffffffffffffffffffffffffff1673ffffffffffffffffffffffffffffffffffffffff168152602001908152602001600020600201805490509050919050565b600d60009054906101000a900473ffffffffffffffffffffffffffffffffffffffff1681565b601381815481101515612b5457fe5b906000526020600020016000915054906101000a900473ffffffffffffffffffffffffffffffffffffffff1681565b601060003373ffffffffffffffffffffffffffffffffffffffff1673ffffffffffffffffffffffffffffffffffffffff16815260200190815260200160002060009054906101000a900460ff161515612bdb57600080fd5b80600c8190555050565b600f8054600181600116156101000203166002900480601f016020809104026020016040519081016040528092919081815260200182805460018160011615610100020316600290048015612c7b5780601f10612c5057610100808354040283529160200191612c7b565b820191906000526020600020905b815481529060010190602001808311612c5e57829003601f168201915b505050505081565b6000806000806000806000600654600754600854600954600a54600b54600554965096509650965096509650965090919293949596565b6000601260008373ffffffffffffffffffffffffffffffffffffffff1673ffffffffffffffffffffffffffffffffffffffff168152602001908152602001600020600101549050919050565b60008073ffffffffffffffffffffffffffffffffffffffff168373ffffffffffffffffffffffffffffffffffffffff1614151515612d4357600080fd5b6000803373ffffffffffffffffffffffffffffffffffffffff1673ffffffffffffffffffffffffffffffffffffffff168152602001908152602001600020548211151515612d9057600080fd5b612de1826000803373ffffffffffffffffffffffffffffffffffffffff1673ffffffffffffffffffffffffffffffffffffffff16815260200190815260200160002054613efa90919063ffffffff16565b6000803373ffffffffffffffffffffffffffffffffffffffff1673ffffffffffffffffffffffffffffffffffffffff16815260200190815260200160002081905550612e74826000808673ffffffffffffffffffffffffffffffffffffffff1673ffffffffffffffffffffffffffffffffffffffff16815260200190815260200160002054613f1390919063ffffffff16565b6000808573ffffffffffffffffffffffffffffffffffffffff1673ffffffffffffffffffffffffffffffffffffffff168152602001908152602001600020819055508273ffffffffffffffffffffffffffffffffffffffff163373ffffffffffffffffffffffffffffffffffffffff167fddf252ad1be2c89b69c2b068fc378daa952ba7f163c4a11628f55a4df523b3ef84604051612f139190616790565b60405180910390a36001905092915050565b612f2d615dcd565b612f378484614752565b9050612f438183614a1f565b5050505050565b601181815481101515612f5957fe5b906000526020600020016000915054906101000a900473ffffffffffffffffffffffffffffffffffffffff1681565b6000601060003373ffffffffffffffffffffffffffffffffffffffff1673ffffffffffffffffffffffffffffffffffffffff16815260200190815260200160002060009054906101000a900460ff16905090565b6000806000806000806000601588815481101515612ff657fe5b90600052602060002090600291828204019190066010029054906101000a900470010000000000000000000000000000000002905061303481611aee565b9650965096509650965096505091939550919395565b60008060008060008060008061305e615dcd565b6130688b8b614752565b905061307381614227565b98509850985098509850985098509850509295985092959890939650565b6000601260008373ffffffffffffffffffffffffffffffffffffffff1673ffffffffffffffffffffffffffffffffffffffff16815260200190815260200160002060000160009054906101000a900460ff169050919050565b6000601580549050905090565b6000806000808460146000826fffffffffffffffffffffffffffffffff19166fffffffffffffffffffffffffffffffff1916815260200190815260200160002060000160009054906101000a900460ff16151561315357600080fd5b3373ffffffffffffffffffffffffffffffffffffffff1660146000886fffffffffffffffffffffffffffffffff19166fffffffffffffffffffffffffffffffff191681526020019081526020016000206006016001601460008a6fffffffffffffffffffffffffffffffff19166fffffffffffffffffffffffffffffffff1916815260200190815260200160002060060180549050038154811015156131f557fe5b9060005260206000200160009054906101000a900473ffffffffffffffffffffffffffffffffffffffff1673ffffffffffffffffffffffffffffffffffffffff16141561324157600080fd5b600160146000886fffffffffffffffffffffffffffffffff19166fffffffffffffffffffffffffffffffff1916815260200190815260200160002060060180549050146132dd576132d8600260146000896fffffffffffffffffffffffffffffffff19166fffffffffffffffffffffffffffffffff1916815260200190815260200160002060020154614fcb90919063ffffffff16565b61331b565b60146000876fffffffffffffffffffffffffffffffff19166fffffffffffffffffffffffffffffffff19168152602001908152602001600020600201545b9450846000803373ffffffffffffffffffffffffffffffffffffffff1673ffffffffffffffffffffffffffffffffffffffff16815260200190815260200160002054101561336857600080fd5b613370614276565b600193505b60038460ff1610156136935760146000876fffffffffffffffffffffffffffffffff19166fffffffffffffffffffffffffffffffff19168152602001908152602001600020600601805490508460ff16111515613686578360ff1660146000886fffffffffffffffffffffffffffffffff19166fffffffffffffffffffffffffffffffff191681526020019081526020016000206006018054905003925060146000876fffffffffffffffffffffffffffffffff19166fffffffffffffffffffffffffffffffff191681526020019081526020016000206006018381548110151561345c57fe5b9060005260206000200160009054906101000a900473ffffffffffffffffffffffffffffffffffffffff16915061351660146000886fffffffffffffffffffffffffffffffff19166fffffffffffffffffffffffffffffffff19168152602001908152602001600020600201546000803373ffffffffffffffffffffffffffffffffffffffff1673ffffffffffffffffffffffffffffffffffffffff16815260200190815260200160002054613efa90919063ffffffff16565b6000803373ffffffffffffffffffffffffffffffffffffffff1673ffffffffffffffffffffffffffffffffffffffff168152602001908152602001600020819055506135e560146000886fffffffffffffffffffffffffffffffff19166fffffffffffffffffffffffffffffffff19168152602001908152602001600020600201546000808573ffffffffffffffffffffffffffffffffffffffff1673ffffffffffffffffffffffffffffffffffffffff16815260200190815260200160002054613f1390919063ffffffff16565b6000808473ffffffffffffffffffffffffffffffffffffffff1673ffffffffffffffffffffffffffffffffffffffff1681526020019081526020016000208190555060018460ff161415613685576001601260008473ffffffffffffffffffffffffffffffffffffffff1673ffffffffffffffffffffffffffffffffffffffff168152602001908152602001600020600101600082825403925050819055505b5b8380600101945050613375565b61369c86614390565b60146000876fffffffffffffffffffffffffffffffff19166fffffffffffffffffffffffffffffffff191681526020019081526020016000206006013390806001815401808255809150509060018203906000526020600020016000909192909190916101000a81548173ffffffffffffffffffffffffffffffffffffffff021916908373ffffffffffffffffffffffffffffffffffffffff160217905550508460146000886fffffffffffffffffffffffffffffffff19166fffffffffffffffffffffffffffffffff19168152602001908152602001600020600201819055504260146000886fffffffffffffffffffffffffffffffff19166fffffffffffffffffffffffffffffffff19168152602001908152602001600020600501819055507f5c3b20386cb190ab356d48388402e550e47af17282ac5ac49df339be5376a9803386886000601460008c6fffffffffffffffffffffffffffffffff19166fffffffffffffffffffffffffffffffff1916815260200190815260200160002060000160019054906101000a900464010000000002601460008d6fffffffffffffffffffffffffffffffff19166fffffffffffffffffffffffffffffffff1916815260200190815260200160002060010160009054906101000a900464010000000002601460008e6fffffffffffffffffffffffffffffffff19166fffffffffffffffffffffffffffffffff1916815260200190815260200160002060050154601460008f6fffffffffffffffffffffffffffffffff19166fffffffffffffffffffffffffffffffff191681526020019081526020016000206003015460405161390e989796959493929190616497565b60405180910390a1505050505050565b60006139af82600260003373ffffffffffffffffffffffffffffffffffffffff1673ffffffffffffffffffffffffffffffffffffffff16815260200190815260200160002060008673ffffffffffffffffffffffffffffffffffffffff1673ffffffffffffffffffffffffffffffffffffffff16815260200190815260200160002054613f1390919063ffffffff16565b600260003373ffffffffffffffffffffffffffffffffffffffff1673ffffffffffffffffffffffffffffffffffffffff16815260200190815260200160002060008573ffffffffffffffffffffffffffffffffffffffff1673ffffffffffffffffffffffffffffffffffffffff168152602001908152602001600020819055508273ffffffffffffffffffffffffffffffffffffffff163373ffffffffffffffffffffffffffffffffffffffff167f8c5be1e5ebec7d5bd14f71427d1e84f3dd0314c0f7b2291e5b200ac8c7c3b925600260003373ffffffffffffffffffffffffffffffffffffffff1673ffffffffffffffffffffffffffffffffffffffff16815260200190815260200160002060008773ffffffffffffffffffffffffffffffffffffffff1673ffffffffffffffffffffffffffffffffffffffff16815260200190815260200160002054604051613b089190616790565b60405180910390a36001905092915050565b6000600260008473ffffffffffffffffffffffffffffffffffffffff1673ffffffffffffffffffffffffffffffffffffffff16815260200190815260200160002060008373ffffffffffffffffffffffffffffffffffffffff1673ffffffffffffffffffffffffffffffffffffffff16815260200190815260200160002054905092915050565b613ba9615dcd565b613bb38383614752565b9050505050565b60126020528060005260406000206000915090508060000160009054906101000a900460ff16908060010154905082565b6000808360146000826fffffffffffffffffffffffffffffffff19166fffffffffffffffffffffffffffffffff1916815260200190815260200160002060000160009054906101000a900460ff161515613c4457600080fd5b8460146000876fffffffffffffffffffffffffffffffff19166fffffffffffffffffffffffffffffffff1916815260200190815260200160002060060185815481101515613c8e57fe5b9060005260206000200160009054906101000a900473ffffffffffffffffffffffffffffffffffffffff1692509250509250929050565b60008060008373ffffffffffffffffffffffffffffffffffffffff1673ffffffffffffffffffffffffffffffffffffffff168152602001908152602001600020549050919050565b6000613d17615dcd565b613d218484614752565b9050806000015115613d3257600080fd5b80602001511515613d4257600080fd5b601460008261010001516fffffffffffffffffffffffffffffffff19166fffffffffffffffffffffffffffffffff1916815260200190815260200160002060000160009054906101000a900460ff1691505092915050565b601581815481101515613da957fe5b9060005260206000209060029182820401919006601002915054906101000a90047001000000000000000000000000000000000281565b6000808260146000826fffffffffffffffffffffffffffffffff19166fffffffffffffffffffffffffffffffff1916815260200190815260200160002060000160009054906101000a900460ff161515613e3957600080fd5b8360146000866fffffffffffffffffffffffffffffffff19166fffffffffffffffffffffffffffffffff19168152602001908152602001600020600601600160146000886fffffffffffffffffffffffffffffffff19166fffffffffffffffffffffffffffffffff191681526020019081526020016000206006018054905003815481101515613ec557fe5b9060005260206000200160009054906101000a900473ffffffffffffffffffffffffffffffffffffffff169250925050915091565b6000828211151515613f0857fe5b818303905092915050565b60008183019050828110151515613f2657fe5b80905092915050565b613f37615dcd565b60008060008060008060006001965060019550600194506001935060019250600091505b60088260ff16108015613f8b57508680613f725750855b80613f7a5750845b80613f825750835b80613f8a5750825b5b1561419057600090505b60088160ff16108015613fc557508680613fac5750855b80613fb45750845b80613fbc5750835b80613fc45750825b5b1561418357613fe08961010001518360070383600703615003565b6fffffffffffffffffffffffffffffffff19166140038a61010001518484615003565b6fffffffffffffffffffffffffffffffff191614151561402257600096505b6140358961010001518383600703615003565b6fffffffffffffffffffffffffffffffff19166140588a61010001518484615003565b6fffffffffffffffffffffffffffffffff191614151561407757600095505b61408a8961010001518360070383615003565b6fffffffffffffffffffffffffffffffff19166140ad8a61010001518484615003565b6fffffffffffffffffffffffffffffffff19161415156140cc57600094505b6140e28961010001518260070384600703615003565b6fffffffffffffffffffffffffffffffff19166141058a61010001518484615003565b6fffffffffffffffffffffffffffffffff191614151561412457600093505b6141348961010001518284615003565b6fffffffffffffffffffffffffffffffff19166141578a61010001518484615003565b6fffffffffffffffffffffffffffffffff191614151561417657600092505b8080600101915050613f95565b8180600101925050613f5b565b86806141995750855b806141a15750845b806141a95750835b806141b15750825b156142185760018960400190151590811515815250508689606001901515908115158152505085896080019015159081151581525050848960a0019015159081151581525050838960c0019015159081151581525050828960e00190151590811515815250505b88975050505050505050919050565b600080600080600080600080886000015189602001518a604001518b606001518c608001518d60a001518e60c001518f60e0015197509750975097509750975097509750919395975091939597565b601260003373ffffffffffffffffffffffffffffffffffffffff1673ffffffffffffffffffffffffffffffffffffffff16815260200190815260200160002060000160009054906101000a900460ff16151561438e576001601260003373ffffffffffffffffffffffffffffffffffffffff1673ffffffffffffffffffffffffffffffffffffffff16815260200190815260200160002060000160006101000a81548160ff02191690831515021790555060133390806001815401808255809150509060018203906000526020600020016000909192909190916101000a81548173ffffffffffffffffffffffffffffffffffffffff021916908373ffffffffffffffffffffffffffffffffffffffff160217905550505b565b601260003373ffffffffffffffffffffffffffffffffffffffff1673ffffffffffffffffffffffffffffffffffffffff1681526020019081526020016000206003016000826fffffffffffffffffffffffffffffffff19166fffffffffffffffffffffffffffffffff1916815260200190815260200160002060009054906101000a900460ff16151561455b576001601260003373ffffffffffffffffffffffffffffffffffffffff1673ffffffffffffffffffffffffffffffffffffffff1681526020019081526020016000206003016000836fffffffffffffffffffffffffffffffff19166fffffffffffffffffffffffffffffffff1916815260200190815260200160002060006101000a81548160ff021916908315150217905550601260003373ffffffffffffffffffffffffffffffffffffffff1673ffffffffffffffffffffffffffffffffffffffff16815260200190815260200160002060020181908060018154018082558091505090600182039060005260206000209060029182820401919006601002909192909190916101000a8154816fffffffffffffffffffffffffffffffff021916908370010000000000000000000000000000000090040217905550505b6001601260003373ffffffffffffffffffffffffffffffffffffffff1673ffffffffffffffffffffffffffffffffffffffff1681526020019081526020016000206001016000828254019250508190555050565b60008060009050826060015115614606576146036145f46001600754016145e6600160065401600554614fcb90919063ffffffff16565b61505390919063ffffffff16565b82613f1390919063ffffffff16565b90505b82608001511561465657614653614644600160085401614636600160065401600554614fcb90919063ffffffff16565b61505390919063ffffffff16565b82613f1390919063ffffffff16565b90505b8260a00151156146a6576146a3614694600160095401614686600160065401600554614fcb90919063ffffffff16565b61505390919063ffffffff16565b82613f1390919063ffffffff16565b90505b8260c00151156146f6576146f36146e46001600a54016146d6600160065401600554614fcb90919063ffffffff16565b61505390919063ffffffff16565b82613f1390919063ffffffff16565b90505b8260e0015115614746576147436147346001600b5401614726600160065401600554614fcb90919063ffffffff16565b61505390919063ffffffff16565b82613f1390919063ffffffff16565b90505b80915050919050565b50565b61475a615dcd565b614762615dcd565b6000806000806000808987610120019063ffffffff1916908163ffffffff1916815250508887610140019063ffffffff1916908163ffffffff191681525050600087610180019060ff16908160ff16815250506002876101a0019060ff16908160ff16815250506002876101c0019060ff16908160ff168152505060008760000190151590811515815250506000876020019015159081151581525050600187610160019060ff16908160ff16815250506ffffffffffffffe7ffdbfffffffffffff700100000000000000000000000000000000028761010001906fffffffffffffffffffffffffffffffff191690816fffffffffffffffffffffffffffffffff191681525050600091505b603c8260ff1610801561487f575085155b156149ed57602087610180015160ff161061489f578661014001516148a6565b8661012001515b90506148c881602089610180015160ff168115156148c057fe5b066020615069565b94506148d3856150bf565b80945081955050506148e4856150fe565b159550851580156148f8575060088460ff16105b8015614907575060088360ff16105b8015614917575060008460ff1610155b8015614927575060008360ff1610155b156149e05761493787858561510f565b965060018761018001510187610180019060ff16908160ff16815250508660000151156149df576000876000019015159081151581525050600160ff1687610160015160ff16141561499c57600287610160019060ff16908160ff16815250506149b1565b600187610160019060ff16908160ff16815250505b6149bc87858561510f565b96508660000151156149de576001955060008760000190151590811515815250505b5b5b818060010192505061486e565b86600001511515614a0f57614a0187615411565b9650614a0c87613f2f565b96505b8697505050505050505092915050565b6000826000015115614a3057600080fd5b82602001511515614a4057600080fd5b601460008461010001516fffffffffffffffffffffffffffffffff19166fffffffffffffffffffffffffffffffff1916815260200190815260200160002060000160009054906101000a900460ff1615614a9957600080fd5b614aa1614276565b614aaf836101000151614390565b826101200151601460008561010001516fffffffffffffffffffffffffffffffff19166fffffffffffffffffffffffffffffffff1916815260200190815260200160002060000160016101000a8154817bffffffffffffffffffffffffffffffffffffffffffffffffffffffff021916908364010000000090040217905550826101400151601460008561010001516fffffffffffffffffffffffffffffffff19166fffffffffffffffffffffffffffffffff1916815260200190815260200160002060010160006101000a8154817bffffffffffffffffffffffffffffffffffffffffffffffffffffffff021916908364010000000090040217905550601460008461010001516fffffffffffffffffffffffffffffffff19166fffffffffffffffffffffffffffffffff191681526020019081526020016000206006013390806001815401808255809150509060018203906000526020600020016000909192909190916101000a81548173ffffffffffffffffffffffffffffffffffffffff021916908373ffffffffffffffffffffffffffffffffffffffff1602179055505081601460008561010001516fffffffffffffffffffffffffffffffff19166fffffffffffffffffffffffffffffffff19168152602001908152602001600020600201819055506001601460008561010001516fffffffffffffffffffffffffffffffff19166fffffffffffffffffffffffffffffffff1916815260200190815260200160002060000160006101000a81548160ff02191690831515021790555042601460008561010001516fffffffffffffffffffffffffffffffff19166fffffffffffffffffffffffffffffffff191681526020019081526020016000206004018190555042601460008561010001516fffffffffffffffffffffffffffffffff19166fffffffffffffffffffffffffffffffff1916815260200190815260200160002060050181905550826040015115614ebe57614d91836145af565b601460008561010001516fffffffffffffffffffffffffffffffff19166fffffffffffffffffffffffffffffffff1916815260200190815260200160002060030181905550601460008461010001516fffffffffffffffffffffffffffffffff19166fffffffffffffffffffffffffffffffff19168152602001908152602001600020600301546000803373ffffffffffffffffffffffffffffffffffffffff1673ffffffffffffffffffffffffffffffffffffffff16815260200190815260200160002060008282540192505081905550601460008461010001516fffffffffffffffffffffffffffffffff19166fffffffffffffffffffffffffffffffff1916815260200190815260200160002060030154600160008282540192505081905550614ebd8361474f565b5b7f5c3b20386cb190ab356d48388402e550e47af17282ac5ac49df339be5376a9803383856101000151600187610120015188610140015142601460008c61010001516fffffffffffffffffffffffffffffffff19166fffffffffffffffffffffffffffffffff1916815260200190815260200160002060030154604051614f4c989796959493929190616497565b60405180910390a16015836101000151908060018154018082558091505090600182039060005260206000209060029182820401919006601002909192909190916101000a8154816fffffffffffffffffffffffffffffffff021916908370010000000000000000000000000000000090040217905550905092915050565b600080831415614fde5760009050614ffd565b8183029050818382811515614fef57fe5b04141515614ff957fe5b8090505b92915050565b60008060008061501386866156ca565b9250600370010000000000000000000000000000000002915061503682846156e6565b915081871690506150478184615722565b93505050509392505050565b6000818381151561506057fe5b04905092915050565b600080600080607f64010000000002925060078087026007870203039150615094838360ff1661578b565b925082871690506150a8818360ff166157af565b905080640100000000900493505050509392505050565b60008060008060408503945060088560ff168115156150da57fe5b069150600882860360ff168115156150ee57fe5b0490508181935093505050915091565b600060408260ff1610159050919050565b615117615dcd565b61511f615e81565b600080600080600080600080600360ff166151408e61010001518e8e6157dc565b60ff161415156151635760018d60000190151590811515815250508c9950615401565b61516e8d8d8d615846565b809950819a50505060008860ff16141561519b5760018d60000190151590811515815250508c9950615401565b60009150600090505b8760ff168160ff1610156153015760009650600095506151db8d8a8360ff166008811015156151cf57fe5b60200201518e8e615b85565b8097508198505050600092505b8560ff168360ff1610156152f45781151561520257600191505b615215615210888589615069565b6150bf565b80955081965050506152338d61010001518e61016001518787615cf3565b8d61010001906fffffffffffffffffffffffffffffffff191690816fffffffffffffffffffffffffffffffff191681525050600260ff168d610160015160ff1614156152b25760018d6101c0018181510191509060ff16908160ff168152505060018d6101a0018181510391509060ff16908160ff16815250506152e7565b60018d6101c0018181510391509060ff16908160ff168152505060018d6101a0018181510191509060ff16908160ff16815250505b82806001019350506151e8565b80806001019150506151a4565b81156153a25761531d8d61010001518e61016001518e8e615cf3565b8d61010001906fffffffffffffffffffffffffffffffff191690816fffffffffffffffffffffffffffffffff191681525050600260ff168d610160015160ff1614156153825760018d6101c0018181510191509060ff16908160ff168152505061539d565b60018d6101a0018181510191509060ff16908160ff16815250505b6153bb565b60018d60000190151590811515815250508c9950615401565b600160ff168d610160015160ff1614156153e85760028d610160019060ff16908160ff16815250506153fd565b60018d610160019060ff16908160ff16815250505b8c99505b5050505050505050509392505050565b615419615dcd565b615421615eb0565b60008060008061542f615dcd565b615437615edf565b603c89610180015160ff16148061545657506000896101a0015160ff16145b8061546957506000896101c0015160ff16145b1561549857600089600001901515908115158152505060018960200190151590811515815250508897506156be565b60009550600094505b60408560ff16101561557a576154eb8961010001516008808860ff168115156154c657fe5b06880360ff168115156154d557fe5b0460088860ff168115156154e557fe5b066157dc565b9350600360ff168460ff16141561556d5760408051908101604052806008808860ff1681151561551757fe5b06880360ff1681151561552657fe5b0460ff1660ff16815260200160088760ff1681151561554157fe5b0660ff1660ff16815250878760ff16603c8110151561555c57fe5b602002018190525085806001019650505b84806001019550506154a1565b6000925060008660ff16111561567b57600094505b8560ff168560ff161080156155a2575082155b1561567a57868560ff16603c811015156155b857fe5b60200201519050600189610160019060ff16908160ff1681525050615604898260006002811015156155e657fe5b60200201518360016002811015156155fa57fe5b602002015161510f565b91508160000151151561561657600192505b600289610160019060ff16908160ff168152505061565b8982600060028110151561563d57fe5b602002015183600160028110151561565157fe5b602002015161510f565b91508160000151151561566d57600192505b848060010195505061558f565b5b82156156975760018960000190151590811515815250506156ba565b600189602001901515908115158152505060008960000190151590811515815250505b8897505b50505050505050919050565b600060026001838560080201016040030260ff16905092915050565b6000808260020a847001000000000000000000000000000000009004029050807001000000000000000000000000000000000291505092915050565b6000808260020a6fffffffffffffffffffffffffffffffff168470010000000000000000000000000000000090046fffffffffffffffffffffffffffffffff1681151561576b57fe5b049050807001000000000000000000000000000000000291505092915050565b6000808260020a846401000000009004029050806401000000000291505092915050565b6000808260020a8464010000000090048115156157c857fe5b049050806401000000000291505092915050565b60008060008060006157ee87876156ca565b9350600370010000000000000000000000000000000002925061581183856156e6565b925082881691506158228285615722565b90508070010000000000000000000000000000000090049450505050509392505050565b61584e615e81565b6000615858615e81565b6000615862615e81565b60008061586d615f01565b600080600096506101006040519081016040528060408051908101604052807fffffffffffffffffffffffffffffffffffffffffffffffffffffffffffffffff60000b60000b81526020016000800b60000b815250815260200160408051908101604052807fffffffffffffffffffffffffffffffffffffffffffffffffffffffffffffffff60000b60000b8152602001600160000b60000b815250815260200160408051908101604052806000800b60000b8152602001600160000b60000b81525081526020016040805190810160405280600160000b60000b8152602001600160000b60000b81525081526020016040805190810160405280600160000b60000b81526020016000800b60000b81525081526020016040805190810160405280600160000b60000b81526020017fffffffffffffffffffffffffffffffffffffffffffffffffffffffffffffffff60000b60000b815250815260200160408051908101604052806000800b60000b81526020017fffffffffffffffffffffffffffffffffffffffffffffffffffffffffffffffff60000b60000b815250815260200160408051908101604052807fffffffffffffffffffffffffffffffffffffffffffffffffffffffffffffffff60000b60000b81526020017fffffffffffffffffffffffffffffffffffffffffffffffffffffffffffffffff60000b60000b8152508152509550600090505b60088160ff161015615b6f57858160ff16600881101515615a9957fe5b60200201519250826000600281101515615aaf57fe5b60200201518c019350826001600281101515615ac757fe5b60200201518b01945060078560000b1380615ae5575060008560000b125b80615af3575060078460000b135b80615b01575060008460000b125b1515615b6257615b178d610100015185876157dc565b91508c610160015160ff168260ff16141515615b6157600360ff168260ff16141515615b605782888860ff16600881101515615b4f57fe5b602002018190525086806001019750505b5b5b8080600101915050615a7c565b8787995099505050505050505050935093915050565b60008060008060008060008060008060008097508e61016001519650600160ff168f610160015160ff161415615bbe5760029550615bc3565b600195505b60009450600190505b60098160ff161015615cdb57841515615cce578c8e6000600281101515615bef57fe5b602002015182020193508b8e6001600281101515615c0957fe5b6020020151820201925060078460000b1380615c28575060008460000b125b80615c36575060078360000b135b80615c44575060008360000b125b15615c5a57600098506000975060019450615ccd565b615c6a8f610100015185856157dc565b91508560ff168260ff161415615c9357615c8689898686615d89565b809950819a505050615ccc565b8e610160015160ff168260ff16148015615cb0575060018160ff16115b15615cbe5760019450615ccb565b6000985060009750600194505b5b5b5b8080600101915050615bcc565b88889a509a5050505050505050505094509492505050565b600080600080600060078760ff161115615d0c57600080fd5b60078660ff161115615d1d57600080fd5b615d2787876156ca565b93506003700100000000000000000000000000000000029250615d4a83856156e6565b915088828a181698508760ff16700100000000000000000000000000000000029050615d7681856156e6565b9050808917945050505050949350505050565b600080600060406008850286010160ff16640100000000029050615dae87600761578b565b9650808717965085806001019650508686925092505094509492505050565b6101e06040519081016040528060001515815260200160001515815260200160001515815260200160001515815260200160001515815260200160001515815260200160001515815260200160001515815260200160006fffffffffffffffffffffffffffffffff19168152602001600063ffffffff19168152602001600063ffffffff19168152602001600060ff168152602001600060ff168152602001600060ff168152602001600060ff1681525090565b610200604051908101604052806008905b615e9a615f23565b815260200190600190039081615e925790505090565b610f0060405190810160405280603c905b615ec9615f45565b815260200190600190039081615ec15790505090565b6040805190810160405280600290602082028038833980820191505090505090565b6040805190810160405280600290602082028038833980820191505090505090565b6040805190810160405280600290602082028038833980820191505090505090565b6040805190810160405280600290602082028038833980820191505090505090565b6000615f738235616924565b905092915050565b6000615f878235616944565b905092915050565b6000615f9b8235616970565b905092915050565b600082601f8301121515615fb657600080fd5b8135615fc9615fc482616847565b61681a565b91508082526020830160208301858383011115615fe557600080fd5b615ff08382846169a6565b50505092915050565b6000616005823561699c565b905092915050565b60006020828403121561601f57600080fd5b600061602d84828501615f67565b91505092915050565b6000806040838503121561604957600080fd5b600061605785828601615f67565b925050602061606885828601615f67565b9150509250929050565b60008060006060848603121561608757600080fd5b600061609586828701615f67565b93505060206160a686828701615f67565b92505060406160b786828701615ff9565b9150509250925092565b600080604083850312156160d457600080fd5b60006160e285828601615f67565b92505060206160f385828601615f7b565b9150509250929050565b6000806040838503121561611057600080fd5b600061611e85828601615f67565b925050602061612f85828601615ff9565b9150509250929050565b60006020828403121561614b57600080fd5b600061615984828501615f7b565b91505092915050565b6000806040838503121561617557600080fd5b600061618385828601615f7b565b925050602083013567ffffffffffffffff8111156161a057600080fd5b6161ac85828601615fa3565b9150509250929050565b600080604083850312156161c957600080fd5b60006161d785828601615f7b565b92505060206161e885828601615ff9565b9150509250929050565b6000806040838503121561620557600080fd5b600061621385828601615f8f565b925050602061622485828601615f8f565b9150509250929050565b6000806000806080858703121561624457600080fd5b600061625287828801615f8f565b945050602061626387828801615f8f565b935050604061627487828801615f7b565b925050606061628587828801615ff9565b91505092959194509250565b6000806000606084860312156162a657600080fd5b60006162b486828701615f8f565b93505060206162c586828701615f8f565b92505060406162d686828701615ff9565b9150509250925092565b6000602082840312156162f257600080fd5b600082013567ffffffffffffffff81111561630c57600080fd5b61631884828501615fa3565b91505092915050565b60006020828403121561633357600080fd5b600061634184828501615ff9565b91505092915050565b6000806040838503121561635d57600080fd5b600061636b85828601615ff9565b925050602061637c85828601615ff9565b9150509250929050565b61638f81616889565b82525050565b61639e816168a9565b82525050565b6163ad816168b5565b82525050565b6163bc816168e1565b82525050565b60006163cd8261687e565b8084526163e18160208601602086016169b5565b6163ea816169e8565b602085010191505092915050565b600061640382616873565b8084526164178160208601602086016169b5565b616420816169e8565b602085010191505092915050565b6164378161690d565b82525050565b61644681616917565b82525050565b60006020820190506164616000830184616386565b92915050565b600060408201905061647c6000830185616386565b818103602083015261648e81846163c2565b90509392505050565b6000610100820190506164ad600083018b616386565b6164ba602083018a61642e565b6164c760408301896163a4565b6164d46060830188616395565b6164e160808301876163b3565b6164ee60a08301866163b3565b6164fb60c083018561642e565b61650860e083018461642e565b9998505050505050505050565b600060208201905061652a6000830184616395565b92915050565b600061010082019050616546600083018b616395565b616553602083018a616395565b6165606040830189616395565b61656d6060830188616395565b61657a6080830187616395565b61658760a0830186616395565b61659460c0830185616395565b6165a160e0830184616395565b9998505050505050505050565b600060e0820190506165c3600083018a616395565b6165d060208301896163b3565b6165dd60408301886163b3565b6165ea606083018761642e565b6165f7608083018661642e565b61660460a083018561642e565b61661160c083018461642e565b98975050505050505050565b60006040820190506166326000830185616395565b61663f602083018461642e565b9392505050565b600060208201905061665b60008301846163a4565b92915050565b600060408201905061667660008301856163a4565b6166836020830184616386565b9392505050565b600060408201905061669f60008301856163a4565b81810360208301526166b181846163c2565b90509392505050565b600060c0820190506166cf60008301896163a4565b6166dc602083018861642e565b6166e9604083018761642e565b6166f66060830186616386565b61670360808301856163b3565b61671060a08301846163b3565b979650505050505050565b600060a08201905061673060008301886163a4565b61673d602083018761643d565b61674a604083018661643d565b616757606083018561643d565b616764608083018461643d565b9695505050505050565b6000602082019050818103600083015261678881846163f8565b905092915050565b60006020820190506167a5600083018461642e565b92915050565b600060e0820190506167c0600083018a61642e565b6167cd602083018961642e565b6167da604083018861642e565b6167e7606083018761642e565b6167f4608083018661642e565b61680160a083018561642e565b61680e60c083018461642e565b98975050505050505050565b6000604051905081810181811067ffffffffffffffff8211171561683d57600080fd5b8060405250919050565b600067ffffffffffffffff82111561685e57600080fd5b601f19601f8301169050602081019050919050565b600081519050919050565b600081519050919050565b600073ffffffffffffffffffffffffffffffffffffffff82169050919050565b60008115159050919050565b60007fffffffffffffffffffffffffffffffff0000000000000000000000000000000082169050919050565b60007fffffffffffffffffffffffffffffffffffffffffffffffffffffffff0000000082169050919050565b6000819050919050565b600060ff82169050919050565b600073ffffffffffffffffffffffffffffffffffffffff82169050919050565b60007fffffffffffffffffffffffffffffffff0000000000000000000000000000000082169050919050565b60007fffffffffffffffffffffffffffffffffffffffffffffffffffffffff0000000082169050919050565b6000819050919050565b82818337600083830152505050565b60005b838110156169d35780820151818401526020810190506169b8565b838111156169e2576000848401525b50505050565b6000601f19601f83011690509190505600a265627a7a7230582047cfaa45f9063c82b1c25b4f907461ed0fc2e8036b647cb3cf6f9e650a7984846c6578706572696d656e74616cf50037",
  "source": "pragma solidity ^0.4.18;\npragma experimental ABIEncoderV2;\n\nimport \"zeppelin-solidity/contracts/token/ERC20/StandardToken.sol\";\nimport \"./OldReversi.sol\";\n// import \"./oraclizeAPI.sol\";\n\n\ncontract OldToken is StandardToken {\n\n  // Token Contract\n\n  uint256 public decimals = 0;\n  uint256 public INITIAL_SUPPLY = 0; // zero decimals\n  uint256 payMultiplier = 100;\n  uint256 Symmetricals;\n  uint256 RotSym;\n  uint256 Y0Sym;\n  uint256 X0Sym;\n  uint256 XYSym;\n  uint256 XnYSym;\n  uint256 nameLength = 21;\n  address public owner;\n  string public name = \"ClubToken\";\n  string public symbol = \"\";\n\n\n\n  function OldToken() {\n    totalSupply_ = INITIAL_SUPPLY;\n    balances[msg.sender] = INITIAL_SUPPLY;\n    admins[msg.sender] = true;\n    adminKeys.push(msg.sender);\n    owner = msg.sender;\n  }\n\n\n  // Modifiers\n\n  modifier onlyOwner { if (msg.sender != owner) revert(); _; }\n  modifier onlyAdmin { if (!admins[msg.sender]) revert(); _; }\n  modifier doesNotExist(bytes16 b) { if (clovers[b].exists) revert(); _; }\n  modifier exists(bytes16 b) { if (!clovers[b].exists) revert(); _; }\n\n\n\n  // Events\n\n  event newUserName(address player, string name);\n  event newCloverName(bytes16 board, string name);\n  event Registered(address newOwner, uint256 lastPaidAmount, bytes16 board, bool newBoard, bytes28 first32Moves, bytes28 lastMoves, uint256 modified, uint256 findersFee);\n\n\n\n  // Contract Administration\n\n  mapping(address => bool) admins;\n  address[] public adminKeys;\n\n  function getBalance(address someone) public constant returns(uint) {\n    return balances[someone];\n  }\n\n  function myAddress () public constant returns (address) {\n    return msg.sender;\n  }\n\n  function isAdmin () public constant returns (bool) {\n    return admins[msg.sender];\n  }  \n\n  function adminLen () public constant returns (uint256) {\n    return adminKeys.length;\n  } \n\n  function adminAt (uint256 key) public constant returns (address) {\n    return adminKeys[key];\n  }\n\n  function getTallys() public constant returns(uint256, uint256, uint256, uint256, uint256, uint256, uint256) {\n    return (Symmetricals, RotSym, Y0Sym, X0Sym, XYSym, XnYSym, payMultiplier);\n  }\n\n  function changeNameLength (uint256 len) public onlyAdmin() {\n    nameLength = len;\n  }\n\n  function addAdmin (address newbie) public onlyAdmin() {\n    if (!admins[msg.sender]) revert();\n    admins[newbie] = true;\n    adminKeys.push(newbie);\n  }\n\n  function updateMultiplier(uint256 multiplier) public onlyAdmin(){\n    payMultiplier = multiplier;\n  }\n\n\n\n\n  // Player Management\n\n  struct Player {\n    bool exists;\n    uint currentCount;\n    bytes16[] cloverKeys;\n    mapping(bytes16 => bool) clovers;\n  }\n\n  mapping(address => Player) public players;\n  address[] public playerKeys;\n\n  function changeName (string name) {\n    if (bytes(name).length > nameLength) revert();\n    newUserName(msg.sender, name);\n  }\n\n  function listPlayerCount() public constant returns(uint) {\n    return playerKeys.length;\n  }\n\n  function playerAddressByKey(uint playerKey) public constant returns(address) {\n    return playerKeys[playerKey];\n  }\n\n  function playerExists(address player) public constant returns(bool) {\n    return players[player].exists;\n  }\n\n  function playerCurrentCount(address player) public constant returns(uint) {\n    return players[player].currentCount;\n  }\n\n  function playerAllCount(address player) public constant returns(uint) {\n    return players[player].cloverKeys.length;\n  }\n\n  function playerCloverByKey(address player, uint cloverKey) public constant returns(bytes16) {\n    return players[player].cloverKeys[cloverKey];\n  }\n\n  function playerOwnsClover(address player, bytes16 board) public constant returns (bool) {\n    return players[player].clovers[board];\n  }\n\n  function addCloverToPlayer (bytes16 board) internal {\n    if (!players[msg.sender].clovers[board]) {\n      players[msg.sender].clovers[board] = true;\n      players[msg.sender].cloverKeys.push(board);\n    }\n    players[msg.sender].currentCount += 1;\n  }\n\n  function registerPlayer() internal {\n    if (!players[msg.sender].exists) {\n      players[msg.sender].exists = true;\n      playerKeys.push(msg.sender);\n    }\n  }\n\n\n\n  // Clover Management\n\n  struct Clover {\n    bool exists;\n    bytes28 first32Moves;\n    bytes28 lastMoves;\n    uint256 lastPaidAmount;\n    uint256 findersFee;\n    uint256 created;\n    uint256 modified;\n    address[] previousOwners;\n    // bool validated;\n  }\n\n  mapping (bytes16 => Clover) public clovers;\n  bytes16[] public cloverKeys;\n\n  function cloverExists(bytes16 b) public constant returns(bool){\n    return clovers[b].exists;\n  }\n\n  function getCloversCount() public constant returns(uint) {\n    return cloverKeys.length;\n  }\n\n  function getCloverByKey (uint boardKey) public constant returns(bytes16, uint lastPaidAmount, uint owners, address lastOwner, bytes28 first32Moves, bytes28 lastMoves) {\n    bytes16 board = cloverKeys[boardKey];\n    return getClover(board);\n  }\n\n  function getClover (bytes16 board) public exists(board) constant returns(bytes16, uint lastPaidAmount, uint ownersLength, address lastOwner, bytes28 first32Moves, bytes28 lastMoves) {\n    return (board, clovers[board].lastPaidAmount, clovers[board].previousOwners.length, clovers[board].previousOwners[clovers[board].previousOwners.length - 1], clovers[board].first32Moves, clovers[board].lastMoves);\n  }\n\n  function getCloverOwnersLength(bytes16 board) public exists(board) constant returns(uint256) {\n    return clovers[board].previousOwners.length;\n  }\n\n  function getCloverOwner(bytes16 board) public exists(board) constant returns(bytes16, address previousOwner) {\n    return (board, clovers[board].previousOwners[ clovers[board].previousOwners.length - 1 ] );\n  }\n\n  function getCloverOwnerAtKeyByBoard(bytes16 board, uint ownerKey) public exists(board) constant returns(bytes16, address previousOwner) {\n    return (board, clovers[board].previousOwners[ownerKey]);\n  }\n\n  function getCloverOwnerAtKeyByBoardKey(uint boardKey, uint ownerKey) public constant returns(bytes16, address previousOwner) {\n    bytes16 board = cloverKeys[boardKey];\n    if(!clovers[board].exists) revert();\n    return (board, clovers[board].previousOwners[ownerKey]);\n  }\n\n  function renameClover(bytes16 board, string name) public exists(board) {\n    if (bytes(name).length > nameLength) revert();\n    if (clovers[board].previousOwners[clovers[board].previousOwners.length - 1] != msg.sender) revert();\n    newCloverName(board, name);\n  }\n\n  function changeStartPrice(bytes16 board, uint256 startPrice) public exists(board) {\n    if(clovers[board].previousOwners[0] != msg.sender) revert();\n    if(clovers[board].previousOwners.length > 1) revert();\n    Registered(msg.sender, startPrice, board, true, clovers[board].first32Moves, clovers[board].lastMoves, now, clovers[board].findersFee);\n    clovers[board].lastPaidAmount = startPrice;\n  }\n\n  function mineClover(bytes28 first32Moves, bytes28 lastMoves, uint256 startPrice) public {\n    Reversi.Game memory game = Reversi.playGame(first32Moves, lastMoves);\n    // Game memory game = playGame(first32Moves, lastMoves);\n    saveGame(game, startPrice);\n  }\n\n  function adminMineClover (bytes28 first32Moves, bytes28 lastMoves, bytes16 board, uint startPrice) public doesNotExist(board) onlyAdmin() returns(uint boardKey) {\n    registerPlayer();\n    addCloverToPlayer(game.board);\n    Reversi.Game memory game;\n    // Game memory game;\n    game.board = board;\n\n    game = Reversi.isSymmetrical(game);\n    // game = isSymmetrical(game);\n    if (game.symmetrical) {\n      clovers[board].findersFee = findersFee(game);\n      balances[msg.sender] += clovers[board].findersFee;\n      totalSupply_ += clovers[board].findersFee;\n      addToSymmTallys(game);\n    }\n    clovers[board].first32Moves = first32Moves;\n    clovers[board].lastMoves = lastMoves;\n    clovers[board].previousOwners.push(msg.sender);\n    clovers[board].lastPaidAmount = startPrice;\n    clovers[board].exists = true;\n    clovers[board].created = now;\n    clovers[board].modified = now;\n    Registered(msg.sender, startPrice, board, true, first32Moves, lastMoves, now, clovers[board].findersFee);\n    return cloverKeys.push(board);\n  }\n\n  function flipClover (bytes16 b) exists(b) public{\n    // every clover asset is for sale determined on an initial start price\n    // if that clover is purchased, the proceeds are divided evenly among the last two buyers\n    // cant flip board you currently own\n    if (clovers[b].previousOwners[ clovers[b].previousOwners.length - 1 ] == msg.sender) revert();\n    uint nextPrice = clovers[b].previousOwners.length == 1 ? clovers[b].lastPaidAmount : clovers[b].lastPaidAmount.mul(2);\n    if (balances[msg.sender] < nextPrice) revert();\n    registerPlayer();\n    for (uint8 i = 1; i < 3; i++) {\n      if (i <= clovers[b].previousOwners.length) {\n        uint256 lastOwnerKey = clovers[b].previousOwners.length - uint(i);\n        address lastOwner = clovers[b].previousOwners[ lastOwnerKey ];\n\n        balances[msg.sender] = balances[msg.sender].sub(clovers[b].lastPaidAmount);\n\n        balances[lastOwner] = balances[lastOwner].add(clovers[b].lastPaidAmount);\n        if (i == 1) {\n          players[lastOwner].currentCount -= 1;\n        }\n      }\n    }\n    addCloverToPlayer(b);\n    clovers[b].previousOwners.push(msg.sender);\n    clovers[b].lastPaidAmount = nextPrice;\n    clovers[b].modified = now;\n    Registered(msg.sender, nextPrice, b, false, clovers[b].first32Moves, clovers[b].lastMoves, clovers[b].modified, clovers[b].findersFee);\n  }\n\n\n  // Game Management\n  //\n  // see ./Reversi.sol for playGame(), isSymmetrical() and Game struct\n\n\n  function gameIsValid(bytes28 first32Moves, bytes28 lastMoves) public constant returns(bool) {\n    Reversi.Game memory game = Reversi.playGame(first32Moves, lastMoves);\n    // Game memory game = playGame(first32Moves, lastMoves);\n    if (game.error) return false;\n    if (!game.complete) return false;\n    if (!game.symmetrical) return false;\n    return true;\n  }\n\n  function gameExists(bytes28 first32Moves, bytes28 lastMoves) public constant returns(bool) {\n    Reversi.Game memory game = Reversi.playGame(first32Moves, lastMoves);\n    // Game memory game = playGame(first32Moves, lastMoves);\n    if (game.error) revert();\n    if (!game.complete) revert();\n    return clovers[game.board].exists;\n  }\n\n  function debugGame(bytes28 first32Moves, bytes28 lastMoves) public{\n    Reversi.Game memory game = Reversi.playGame(first32Moves, lastMoves);\n    // Game memory game = playGame(first32Moves, lastMoves);\n  }\n  function showGame(bytes28 first32Moves, bytes28 lastMoves) public constant returns(bool error, bool complete, bool symmetrical, bool RotSym, bool Y0Sym, bool X0Sym, bool XYSym, bool XnYSym) {\n    Reversi.Game memory game = Reversi.playGame(first32Moves, lastMoves);\n    // Game memory game = playGame(first32Moves, lastMoves);\n    return returnGame(game);\n  }\n\n  function showGame2(bytes28 first32Moves, bytes28 lastMoves) public constant returns(bytes16 board, uint8 blackScore, uint8 whiteScore, uint8 currentPlayer, uint8 moveKey) {\n    Reversi.Game memory game = Reversi.playGame(first32Moves, lastMoves);\n    // Game memory game = playGame(first32Moves, lastMoves);\n    return (game.board, game.blackScore, game.whiteScore, game.currentPlayer, game.moveKey);\n  }\n\n\n  function getSymmetry(bytes16 b) public constant returns(bool error, bool complete, bool symmetrical, bool RotSym, bool Y0Sym, bool X0Sym, bool XYSym, bool XnYSym) {\n    Reversi.Game memory game;\n    // Game memory game;\n    game.board = b;\n    game = Reversi.isSymmetrical(game);\n    // game = isSymmetrical(game);\n    return returnGame(game);\n  }\n\n  function getFindersFee(bytes16 b) public constant returns(uint256) {\n    Reversi.Game memory game;\n    // Game memory game;\n    game.board = b;\n    game = Reversi.isSymmetrical(game);\n    // game = isSymmetrical(game);\n    return findersFee(game);\n  }\n\n  function returnGame(Reversi.Game game) internal returns(bool error, bool complete, bool symmetrical, bool RotSym, bool Y0Sym, bool X0Sym, bool XYSym, bool XnYSym){\n  // function returnGame(Game game) internal returns(bool error, bool complete, bool symmetrical, bool RotSym, bool Y0Sym, bool X0Sym, bool XYSym, bool XnYSym){\n    return (game.error, game.complete, game.symmetrical, game.RotSym, game.Y0Sym, game.X0Sym, game.XYSym, game.XnYSym);\n  }\n\n  function saveGame(Reversi.Game game, uint256 startPrice) internal returns(uint){\n  // function saveGame(Game game, uint256 startPrice) internal returns(uint){\n    if (game.error) revert();\n    if (!game.complete) revert();\n    if (clovers[game.board].exists) revert();\n    \n    registerPlayer();\n    addCloverToPlayer(game.board);\n    clovers[game.board].first32Moves = game.first32Moves;\n    clovers[game.board].lastMoves = game.lastMoves;\n    clovers[game.board].previousOwners.push(msg.sender);\n    clovers[game.board].lastPaidAmount = startPrice;\n    clovers[game.board].exists = true;\n    clovers[game.board].created = now;\n    clovers[game.board].modified = now;\n    if (game.symmetrical) {\n      clovers[game.board].findersFee = findersFee(game);\n      balances[msg.sender] += clovers[game.board].findersFee;\n      totalSupply_ += clovers[game.board].findersFee;\n      addToSymmTallys(game);\n    }\n    Registered(msg.sender, startPrice, game.board, true, game.first32Moves, game.lastMoves, now, clovers[game.board].findersFee);\n    return cloverKeys.push(game.board);\n  }\n\n  function addToSymmTallys (Reversi.Game game) internal {\n    // if (game.symmetrical) Symmetricals += 1;\n    // if (game.RotSym) RotSym += 1;\n    // if (game.Y0Sym) Y0Sym += 1;\n    // if (game.X0Sym) X0Sym += 1;\n    // if (game.XYSym) XYSym += 1;\n    // if (game.XnYSym) XnYSym += 1;\n  }\n\n  function findersFee (Reversi.Game game) internal constant returns(uint256) {\n    uint256 base = 0;\n\n    if (game.RotSym) base = base.add( payMultiplier.mul( Symmetricals + 1 ).div( RotSym + 1 ) );\n    if (game.Y0Sym) base = base.add( payMultiplier.mul( Symmetricals + 1 ).div( Y0Sym + 1 ) );\n    if (game.X0Sym) base = base.add( payMultiplier.mul( Symmetricals + 1 ).div( X0Sym + 1 ) );\n    if (game.XYSym) base = base.add( payMultiplier.mul( Symmetricals + 1 ).div( XYSym + 1 ) );\n    if (game.XnYSym) base = base.add( payMultiplier.mul( Symmetricals + 1 ).div( XnYSym + 1 ) );\n\n    return base;\n  }\n\n\n  // // Oraclize Management\n\n\n  // function claimClover (bytes16 board, bytes28 first32Moves, bytes28 lastMoves, uint256 startPrice) public {\n  //   registerPlayer();\n\n  //   Clover storage clover;\n  //   clover.first32Moves = first32Moves;\n  //   clover.lastMoves = lastMoves;\n  //   clover.lastPaidAmount = startPrice;\n  //   clover.exists = true;\n\n\n  //   clover.previousOwners.push(msg.sender);\n\n  //   clover.validated = false; // redundant\n\n  //   Game memory game;\n  //   game.board = board;\n  //   clover.findersFee = findersFee(game);\n\n  //   clovers[board] = clover;\n\n  // }\n\n  // // = \"json(https://api.infura.io/v1/jsonrpc/rinkeby/eth_call?to=\"\n  // string validateEndpoint = \"json(https://api.infura.io/v1/jsonrpc/rinkeby/eth_call?to=\";\n  // mapping(bytes32=>bytes16) validIds;\n\n  // function updateValidateEndpoint (string endpoint) public onlyAdmin() {\n  //   validateEndpoint = endpoint;\n  // }\n\n  // function __callback(bytes32 myid, bool valid, bytes proof) {\n  //   if (uint8 (validIds[myid]) == 0) throw;\n  //   if (msg.sender != oraclize_cbAddress()) revert();\n  //   if (!valid) revert();\n  //   bytes16 board = validIds[myid];\n  //   address player = clovers[board].previousOwners[0];\n  //   if (!clovers[board].exists) revert();\n  //   if (clovers[board].validated) revert();\n  //   delete validIds[myid];\n\n\n  //   addCloverToPlayerExplicit(board, player);\n\n  //   balances[player] += clovers[board].findersFee;\n  //   clovers[board].validated = valid;\n\n  //   cloverKeys.push(board);  \n  //   Registered(player, clovers[board].lastPaidAmount, board);\n  // }\n\n  // function returnAddress() public constant returns(address) {\n  //   return this;\n  // }\n\n  // function buildString(bytes28 first32Moves, bytes28 lastMoves) public constant returns(string) {\n  //   string query2 = addressToString(address(this));\n  //   // string memory query3 = \"&data=\";\n  //   // string memory func = bytes32ToString(bytes32(bytes4(sha3(\"gameIsValid(bytes28,bytes28)\"))));\n  //   // string memory param1 = bytes32ToString(bytes32(first32Moves));\n  //   // string memory param2 = bytes32ToString(bytes32(lastMoves));\n  //   // string memory closing = \").result\";\n\n  //   return query2;//strConcat(strConcat(validateEndpoint, query2, query3, func, param1), param2, closing);\n\n  // }\n\n  // function verifyGame(bytes16 board, bytes28 first32Moves, bytes28 lastMoves) payable {\n  //   if (oraclize_getPrice(\"URL\") > this.balance) {\n  //       // newOraclizeQuery(\"Oraclize query was NOT sent, please add some ETH to cover for the query fee\");\n  //   } else {\n\n  //       // newOraclizeQuery(\"Oraclize query was sent, standing by for the answer..\");\n  //       bytes32 queryId = oraclize_query(\"URL\", buildString(first32Moves, lastMoves));\n  //       validIds[queryId] = board;\n  //   }\n  // }\n\n  // function addressToString(address x) returns (string) {\n  //     bytes memory b = new bytes(20);\n  //     for (uint i = 0; i < 20; i++)\n  //       b[i] = byte(uint8(uint256(x) / (2**(8*(19 - i)))));\n  //     return string(b);\n  // }\n  // function bytes32ToString (bytes32 data) constant returns (string) {\n  //   bytes memory bytesString = new bytes(32);\n  //   for (uint j=0; j<32; j++) {\n  //     byte char = byte(bytes32(uint(data) * 2 ** (8 * j)));\n  //     if (char != 0) {\n  //       bytesString[j] = char;\n  //     }\n  //   }\n  //   return string(bytesString);\n  // }\n  // function bytes4ToString (bytes4 data) constant returns (string) {\n  //   bytes memory bytesString = new bytes(4);\n  //   for (uint j=0; j<4; j++) {\n  //     byte char = byte(bytes4(uint(data) * 2 ** (8 * j)));\n  //     if (char != 0) {\n  //       bytesString[j] = char;\n  //     }\n  //   }\n  //   return string(bytesString);\n  // }\n\n  // function strConcat(string _a, string _b, string _c, string _d, string _e) internal returns (string) {\n  //     bytes memory _ba = bytes(_a);\n  //     bytes memory _bb = bytes(_b);\n  //     bytes memory _bc = bytes(_c);\n  //     bytes memory _bd = bytes(_d);\n  //     bytes memory _be = bytes(_e);\n  //     string memory abcde = new string(_ba.length + _bb.length + _bc.length + _bd.length + _be.length);\n  //     bytes memory babcde = bytes(abcde);\n  //     uint k = 0;\n  //     for (uint i = 0; i < _ba.length; i++) babcde[k++] = _ba[i];\n  //     for (i = 0; i < _bb.length; i++) babcde[k++] = _bb[i];\n  //     for (i = 0; i < _bc.length; i++) babcde[k++] = _bc[i];\n  //     for (i = 0; i < _bd.length; i++) babcde[k++] = _bd[i];\n  //     for (i = 0; i < _be.length; i++) babcde[k++] = _be[i];\n  //     return string(babcde);\n  // }\n\n  // function strConcat(string _a, string _b, string _c, string _d) internal returns (string) {\n  //     return strConcat(_a, _b, _c, _d, \"\");\n  // }\n\n  // function strConcat(string _a, string _b, string _c) internal returns (string) {\n  //     return strConcat(_a, _b, _c, \"\", \"\");\n  // }\n\n  // function strConcat(string _a, string _b) internal returns (string) {\n  //     return strConcat(_a, _b, \"\", \"\", \"\");\n  // }\n\n\n}",
  "sourcePath": "/Users/billy/clovers/clovers-contracts/contracts/helpers/OldToken.sol",
  "compiler": {
    "name": "solc",
    "version": "0.4.24+commit.e67f0147.Emscripten.clang"
  },
  "schemaVersion": "2.0.1",
  "updatedAt": "2018-08-05T09:47:19.509Z"
}