{
  "contractName": "Reversi",
  "abi": [
    {
      "constant": true,
      "inputs": [
        {
          "name": "moves",
          "type": "bytes28[2]"
        }
      ],
      "name": "isValid",
      "outputs": [
        {
          "name": "",
          "type": "bool"
        }
      ],
      "payable": false,
      "stateMutability": "pure",
      "type": "function"
    },
    {
      "constant": true,
      "inputs": [
        {
          "name": "moves",
          "type": "bytes28[2]"
        }
      ],
      "name": "getGame",
      "outputs": [
        {
          "name": "error",
          "type": "bool"
        },
        {
          "name": "complete",
          "type": "bool"
        },
        {
          "name": "symmetrical",
          "type": "bool"
        },
        {
          "name": "board",
          "type": "bytes16"
        },
        {
          "name": "currentPlayer",
          "type": "uint8"
        },
        {
          "name": "moveKey",
          "type": "uint8"
        }
      ],
      "payable": false,
      "stateMutability": "pure",
      "type": "function"
    },
    {
      "constant": true,
      "inputs": [],
      "name": "showColors",
      "outputs": [
        {
          "name": "",
          "type": "uint8"
        },
        {
          "name": "",
          "type": "uint8"
        },
        {
          "name": "",
          "type": "uint8"
        }
      ],
      "payable": false,
      "stateMutability": "pure",
      "type": "function"
    },
    {
      "constant": true,
      "inputs": [
        {
          "name": "RotSym",
          "type": "bool"
        },
        {
          "name": "Y0Sym",
          "type": "bool"
        },
        {
          "name": "X0Sym",
          "type": "bool"
        },
        {
          "name": "XYSym",
          "type": "bool"
        },
        {
          "name": "XnYSym",
          "type": "bool"
        }
      ],
      "name": "returnSymmetricals",
      "outputs": [
        {
          "name": "",
          "type": "uint256"
        }
      ],
      "payable": false,
      "stateMutability": "view",
      "type": "function"
    },
    {
      "constant": true,
      "inputs": [
        {
          "name": "moveSequence",
          "type": "bytes28"
        },
        {
          "name": "moveKey",
          "type": "uint8"
        },
        {
          "name": "movesLength",
          "type": "uint8"
        }
      ],
      "name": "readMove",
      "outputs": [
        {
          "name": "",
          "type": "uint8"
        }
      ],
      "payable": false,
      "stateMutability": "pure",
      "type": "function"
    },
    {
      "constant": true,
      "inputs": [
        {
          "name": "move",
          "type": "uint8"
        }
      ],
      "name": "convertMove",
      "outputs": [
        {
          "name": "",
          "type": "uint8"
        },
        {
          "name": "",
          "type": "uint8"
        }
      ],
      "payable": false,
      "stateMutability": "pure",
      "type": "function"
    }
  ],
  "bytecode": "0x611378610030600b82828239805160001a6073146000811461002057610022565bfe5b5030600052607381538281f300730000000000000000000000000000000000000000301460806040526004361061008e5763ffffffff7c010000000000000000000000000000000000000000000000000000000060003504166308d27c7f8114610093578063271eff94146101135780632f07d8571461015a5780637898b3be14610187578063a250cc34146101b5578063bec0cfa9146101e8575b600080fd5b6040805180820182526100c691369160049160449190839060029083908390808284375093965061023795505050505050565b6040805196151587529415156020870152921515858501526fffffffffffffffffffffffffffffffff19909116606085015260ff90811660808501521660a0830152519081900360c00190f35b60408051808201825261014691369160049160449190839060029083908390808284375093965061028595505050505050565b604080519115158252519081900360200190f35b6101626102ca565b6040805160ff9485168152928416602084015292168183015290519081900360600190f35b61019560ff600435166102d5565b6040805160ff938416815291909216602082015281519081900390910190f35b6101d660043515156024351515604435151560643515156084351515610310565b60408051918252519081900360200190f35b6102217fffffffffffffffffffffffffffffffffffffffffffffffffffffffff000000006004351660ff602435811690604435166103a6565b6040805160ff9092168252519081900360200190f35b600080600080600080610248611257565b61025188610415565b80516020820151604083015161010084015161016085015161018090950151939d929c50909a509850919650945092505050565b600061028f611257565b61029883610415565b8051909150156102ab57600091506102c4565b806020015115156102bf57600091506102c4565b600191505b50919050565b600360016002909192565b7fffffffffffffffffffffffffffffffffffffffffffffffffffffffffffffffc081810160071692600860ff93859003909201929092160490565b600080600187610321576000610324565b60015b60ff169060020a0260ff16905060018661033f576000610342565b60015b60ff1682169060020a02905060018561035c57600061035f565b60015b60ff1682169060020a02905060018461037957600061037c565b60015b60ff1682169060020a02905082610394576000610397565b60015b1660ff16905095945050505050565b640100000000647f00000000600793840292909302919091037ffffffffffffffffffffffffffffffffffffffffffffffffffffffffffffffff90160ff1660020a7fffffffffffffffffffffffffffffffffffffffffffffffffffffffff000000009390931692909204160490565b61041d611257565b610425611257565b82517fffffffffffffffffffffffffffffffffffffffffffffffffffffffff000000009081166101208301526020808501519091166101408301526000610180830181905260026101a084018190526101c084015280835290820181905260016101608301527ffffffffffffffe7ffdbfffffffffffff0000000000000000000000000000000061010083015280808080805b603c8260ff161080156104c9575085155b1561061a57602087610180015160ff16106104e9578661014001516104f0565b8661012001515b905061051281602089610180015160ff1681151561050a57fe5b0660206103a6565b945061051d856102d5565b909450925061052b8561064d565b15955060ff821615801561055157508360ff16600214158061055157508260ff16600314155b1561055e57600180885295505b8515801561056f575060088460ff16105b801561057e575060088360ff16105b801561058e575060008460ff1610155b801561059e575060008360ff1610155b1561060f576105ae87858561065a565b6101808101805160010160ff16905280519097501561060f576000875261016087015160ff16600114156105e95760026101608801526105f2565b60016101608801525b6105fd87858561065a565b80519097501561060f57600180885295505b6001909101906104b8565b8651151561063d576000875261062f876108ce565b965061063a87610aca565b96505b8697505b50505050505050919050565b604060ff82161015919050565b610662611257565b61066a6112d3565b600080600080600080600080600360ff1661068b8e61010001518e8e610d55565b60ff161461069f5760018d528c99506108be565b6106aa8d8d8d610dc7565b909950975060ff881615156106c55760018d528c99506108be565b5060009050805b8760ff168160ff16101561081857600096508695506107008d8a60ff8416600881106106f457fe5b60200201518e8e610fac565b9097509550600092505b8560ff168360ff1610156108105781151561072457600191505b6107376107328885896103a6565b6102d5565b80955081965050506107558d61010001518e610160015187876110e2565b6fffffffffffffffffffffffffffffffff19166101008e01526101608d015160ff16600214156107c4576101c08d01805160010160ff9081169091526101a08e0180517fffffffffffffffffffffffffffffffffffffffffffffffffffffffffffffffff019091169052610805565b6101c08d0180517fffffffffffffffffffffffffffffffffffffffffffffffffffffffffffffffff0160ff9081169091526101a08e01805160010190911690525b60019092019161070a565b6001016106cc565b8115610887576108348d61010001518e61016001518e8e6110e2565b6fffffffffffffffffffffffffffffffff19166101008e01526101608d015160ff1660021415610872576101c08d01805160010160ff169052610882565b6101a08d01805160010160ff1690525b610893565b60018d528c99506108be565b6101608d015160ff16600114156108b15760026101608e01526108ba565b60016101608e01525b8c99505b5050505050505050509392505050565b6108d6611257565b6108de611302565b60008060008060006108ee611331565b88610180015160ff16603c141561090e57600160208a0152889750610641565b60009550600094505b60408560ff16101561099a5761010089015161094290600860078816880360ff160460078816610d55565b935060ff84166003141561098f576040805180820190915260086007871680880360ff9081169290920482168352602083015288908816603c811061098357fe5b60200201526001909501945b600190940193610917565b6000925060008660ff161115610aa2578861010001519150600094505b8560ff168560ff161080156109ca575082155b15610a87578660ff8616603c81106109de57fe5b602002015160016101608b01526000808b526fffffffffffffffffffffffffffffffff1984166101008c0152909150610a28908a9083905b6020020151836001602002015161065a565b80519099501515610a3857600192505b60026101608a01526000808a526fffffffffffffffffffffffffffffffff1983166101008b0152610a6c908a908390610a16565b80519099501515610a7c57600192505b6001909401936109b7565b6fffffffffffffffffffffffffffffffff1982166101008a01525b8215610ab15760018952610abd565b600160208a0152600089525b5096979650505050505050565b610ad2611257565b6001808080806000805b60088260ff16108015610b0b57508680610af35750855b80610afb5750845b80610b035750835b80610b0b5750825b15610cfd575060005b60088160ff16108015610b4357508680610b2b5750855b80610b335750845b80610b3b5750835b80610b435750825b15610cf257610b5e8961010001518360070383600703611184565b6fffffffffffffffffffffffffffffffff1916610b818a61010001518484611184565b6fffffffffffffffffffffffffffffffff191614610b9e57600096505b610bb18961010001518383600703611184565b6fffffffffffffffffffffffffffffffff1916610bd48a61010001518484611184565b6fffffffffffffffffffffffffffffffff191614610bf157600095505b610c048961010001518360070383611184565b6fffffffffffffffffffffffffffffffff1916610c278a61010001518484611184565b6fffffffffffffffffffffffffffffffff191614610c4457600094505b610c5a8961010001518260070384600703611184565b6fffffffffffffffffffffffffffffffff1916610c7d8a61010001518484611184565b6fffffffffffffffffffffffffffffffff191614610c9a57600093505b610caa8961010001518284611184565b6fffffffffffffffffffffffffffffffff1916610ccd8a61010001518484611184565b6fffffffffffffffffffffffffffffffff191614610cea57600092505b600101610b14565b600190910190610adc565b8680610d065750855b80610d0e5750845b80610d165750835b80610d1e5750825b15610abd5750506001604088015293151560608701529115156080860152151560a0850152151560c0840152151560e08301525090565b6000806000610d6485856111db565b7001000000000000000000000000000000006fffffffffffffffffffffffffffffffff821660020a6fffffffffffffffffffffffffffffffff19891604700300000000000000000000000000000000169081049450909250905050509392505050565b610dcf6112d3565b6000610dd96112d3565b6000610de36112d3565b600080610dee611331565b60408051610140810182527fffffffffffffffffffffffffffffffffffffffffffffffffffffffffffffffff61010082018181526000610120840181905290835283518085018552828152600160208281018290528086019290925285518087018752838152808301829052858701528551808701875281815280830182905260608601528551808701875281815280830184905260808601528551808701875290815280820184905260a08501528451808601865282815280820184905260c0850152845180860190955282855284019190915260e0820192909252909550935084805b60088160ff161015610f99578560ff821660088110610eee57fe5b6020020151925082600060200201518c01935082600160200201518b01945060078560000b1380610f22575060008560000b125b80610f30575060078460000b135b80610f3e575060008460000b125b1515610f9157610f548d61010001518587610d55565b91508c610160015160ff168260ff16141515610f915760ff8216600314610f9157828860ff891660088110610f8557fe5b60200201526001909601955b600101610ed3565b50959b949a509398505050505050505050565b60008060008060008060008060008060009650600160ff168e610160015160ff161415610fdc5760029550610fe1565b600195505b506000935060015b60098160ff1610156110ce578415156110c6578c5160208e01519082028d01945081028b0192506007600085900b1380611026575060008460000b125b80611034575060078360000b135b80611042575060008360000b125b15611058576000975060009650600194506110c6565b6110688e61010001518585610d55565b91508560ff168260ff16141561108e5761108488888686611210565b90985096506110c6565b8d610160015160ff168260ff161480156110ab575060018160ff16115b156110b957600194506110c6565b6000975060009650600194505b600101610fe9565b50959c949b50939950505050505050505050565b600080600060078560ff1611156110f857600080fd5b60078460ff16111561110957600080fd5b61111385856111db565b6fffffffffffffffffffffffffffffffff811660020a70030000000000000000000000000000000081028981189099169860ff8916700100000000000000000000000000000000026fffffffffffffffffffffffffffffffff19169091028917945090925090505050949350505050565b60008061119184846111db565b6fffffffffffffffffffffffffffffffff811660020a6fffffffffffffffffffffffffffffffff198716047003000000000000000000000000000000001692509050509392505050565b600891909102016040037fffffffffffffffffffffffffffffffffffffffffffffffffffffffffffffffff0160020260ff1690565b6008020160400160ff16640100000000027fffffffffffffffffffffffffffffffffffffffffffffffffffffffff0000000092909216608002919091179160019190910190565b604080516101e081018252600080825260208201819052918101829052606081018290526080810182905260a0810182905260c0810182905260e08101829052610100810182905261012081018290526101408101829052610160810182905261018081018290526101a081018290526101c081019190915290565b610200604051908101604052806008905b6112ec611331565b8152602001906001900390816112e45790505090565b610f0060405190810160405280603c905b61131b611331565b8152602001906001900390816113135790505090565b604080518082018252906002908290803883395091929150505600a165627a7a72305820fdf2ee2384cc9dc29002c3ab11c1aa48e48cc63ac1bc4c5b4d17e5a431e8499c0029",
  "source": "pragma solidity ^0.4.18;\n\nlibrary Reversi {\n    // event DebugBool(bool boolean);\n    // event DebugBoard(bytes16 board);\n    // event DebugUint(uint u);\n    uint8 constant BLACK = 1; //0b01 //0x1\n    uint8 constant WHITE = 2; //0b10 //0x2\n    uint8 constant EMPTY = 3; //0b11 //0x3\n\n    struct Game {\n        bool error;\n        bool complete;\n        bool symmetrical;\n        bool RotSym;\n        bool Y0Sym;\n        bool X0Sym;\n        bool XYSym;\n        bool XnYSym;\n        bytes16 board;\n        bytes28 first32Moves;\n        bytes28 lastMoves;\n\n        uint8 currentPlayer;\n        uint8 moveKey;\n        uint8 blackScore;\n        uint8 whiteScore;\n        // string msg;\n    }\n\n\n    function isValid (bytes28[2] moves) public pure returns (bool) {\n        Game memory game = playGame(moves);\n        if (game.error) {\n            return false;\n        } else if (!game.complete) {\n            return false;\n        } else {\n            return true;\n        }\n    }\n\n    function getGame (bytes28[2] moves) public pure returns (bool error, bool complete, bool symmetrical, bytes16 board, uint8 currentPlayer, uint8 moveKey) {\n      Game memory game = playGame(moves);\n        return (\n            game.error,\n            game.complete,\n            game.symmetrical,\n            game.board,\n            game.currentPlayer,\n            game.moveKey\n            // game.msg\n        );\n    }\n\n    function showColors () public pure returns(uint8, uint8, uint8) {\n        return (EMPTY, BLACK, WHITE);\n    }\n\n    function playGame (bytes28[2] moves) internal pure returns (Game)  {\n        Game memory game;\n\n        game.first32Moves = moves[0];\n        game.lastMoves = moves[1];\n        game.moveKey = 0;\n        game.blackScore = 2;\n        game.whiteScore = 2;\n\n        game.error = false;\n        game.complete = false;\n        game.currentPlayer = BLACK;\n\n\n        // game.board = bytes16(10625432672847758622720); // completely empty board\n        game.board = bytes16(340282366920938456379662753540715053055); // empty board except for center pieces\n\n        bool skip;\n        uint8 move;\n        uint8 col;\n        uint8 row;\n        uint8 i;\n        bytes28 currentMoves;\n\n        for (i = 0; i < 60 && !skip; i++) {\n            currentMoves = game.moveKey < 32 ? game.first32Moves : game.lastMoves;\n            move = readMove(currentMoves, game.moveKey % 32, 32);\n            (col, row) = convertMove(move);\n            skip = !validMove(move);\n            if (i == 0 && (col != 2 || row != 3)) {\n                skip = true; // this is to force the first move to always be C4 to avoid repeatable boards via mirroring translations\n                game.error = true;\n            }\n            if (!skip && col < 8 && row < 8 && col >= 0 && row >= 0) {\n                // game.msg = \"make a move\";\n                game = makeMove(game, col, row);\n                game.moveKey = game.moveKey + 1;\n                if (game.error) {\n                    game.error = false;\n                    // maybe player has no valid moves and must pass\n                    if (game.currentPlayer == BLACK) {\n                        game.currentPlayer = WHITE;\n                    } else {\n                        game.currentPlayer = BLACK;\n                    }\n                    game = makeMove(game, col, row);\n                    if (game.error) {\n                        game.error = true;\n                        skip = true;\n                    }\n                }\n            }\n        }\n        if (!game.error) {\n            game.error = false;\n            game = isComplete(game);\n            game = isSymmetrical(game);\n        }\n        return game;\n    }\n\n    function makeMove (Game memory game, uint8 col, uint8 row) internal pure returns (Game)  {\n        // square is already occupied\n        if (returnTile(game.board, col, row) != EMPTY){\n            game.error = true;\n            // game.msg = \"Invalid Game (square is already occupied)\";\n            return game;\n        }\n        int8[2][8] memory possibleDirections;\n        uint8  possibleDirectionsLength;\n        (possibleDirections, possibleDirectionsLength) = getPossibleDirections(game, col, row);\n        // no valid directions\n        if (possibleDirectionsLength == 0) {\n            game.error = true;\n            // game.msg = \"Invalid Game (doesnt border other tiles)\";\n            return game;\n        }\n\n        bytes28 newFlips;\n        uint8 newFlipsLength;\n        uint8 newFlipCol;\n        uint8 newFlipRow;\n        uint8 j;\n        bool valid = false;\n        for (uint8 i = 0; i < possibleDirectionsLength; i++) {\n            delete newFlips;\n            delete newFlipsLength;\n            (newFlips, newFlipsLength) = traverseDirection(game, possibleDirections[i], col, row);\n            for (j = 0; j < newFlipsLength; j++) {\n                if (!valid) valid = true;\n                (newFlipCol, newFlipRow) = convertMove(readMove(newFlips, j, newFlipsLength));\n                game.board = turnTile(game.board, game.currentPlayer, newFlipCol, newFlipRow);\n                if (game.currentPlayer == WHITE) {\n                    game.whiteScore += 1;\n                    game.blackScore -= 1;\n                } else {\n                    game.whiteScore -= 1;\n                    game.blackScore += 1;\n                }\n            }\n        }\n\n        //no valid flips in directions\n        if (valid) {\n            game.board = turnTile(game.board, game.currentPlayer, col, row);\n            if (game.currentPlayer == WHITE) {\n                game.whiteScore += 1;\n            } else {\n                game.blackScore += 1;\n            }\n        } else {\n            game.error = true;\n            // game.msg = \"Invalid Game (doesnt flip any other tiles)\";\n            return game;\n        }\n\n        // switch players\n        if (game.currentPlayer == BLACK) {\n            game.currentPlayer = WHITE;\n        } else {\n            game.currentPlayer = BLACK;\n        }\n        return game;\n    }\n\n    function getPossibleDirections (Game memory game, uint8 col, uint8 row) internal pure returns(int8[2][8], uint8){\n\n        int8[2][8] memory possibleDirections;\n        uint8 possibleDirectionsLength = 0;\n        int8[2][8] memory dirs = [\n            [int8(-1), int8(0)], // W\n            [int8(-1), int8(1)], // SW\n            [int8(0), int8(1)], // S\n            [int8(1), int8(1)], // SE\n            [int8(1), int8(0)], // E\n            [int8(1), int8(-1)], // NE\n            [int8(0), int8(-1)], // N\n            [int8(-1), int8(-1)] // NW\n        ];\n        int8 focusedRowPos;\n        int8 focusedColPos;\n        int8[2] memory dir;\n        uint8 testSquare;\n\n        for (uint8 i = 0; i < 8; i++) {\n            dir = dirs[i];\n            focusedColPos = int8(col) + dir[0];\n            focusedRowPos = int8(row) + dir[1];\n\n            // if tile is off the board it is not a valid move\n            if (!(focusedRowPos > 7 || focusedRowPos < 0 || focusedColPos > 7 || focusedColPos < 0)) {\n                testSquare = returnTile(game.board, uint8(focusedColPos), uint8(focusedRowPos));\n\n                // if the surrounding tile is current color or no color it can\"t be part of a capture\n                if (testSquare != game.currentPlayer) {\n                    if (testSquare != EMPTY) {\n                        possibleDirections[possibleDirectionsLength] = dir;\n                        possibleDirectionsLength++;\n                    }\n                }\n            }\n        }\n        return (possibleDirections, possibleDirectionsLength);\n    }\n\n    function traverseDirection (Game memory game, int8[2] dir, uint8 col, uint8 row) internal pure returns(bytes28, uint8) {\n        bytes28 potentialFlips;\n        uint8 potentialFlipsLength = 0;\n\n        if (game.currentPlayer == BLACK) {\n            uint8 opponentColor = WHITE;\n        } else {\n            opponentColor = BLACK;\n        }\n\n        // take one step at a time in this direction\n        // ignoring the first step look for the same color as your tile\n        bool skip = false;\n        int8 testCol;\n        int8 testRow;\n        uint8 tile;\n        for (uint8 j = 1; j < 9; j++) {\n            if (!skip) {\n                testCol = (int8(j) * dir[0]) + int8(col);\n                testRow = (int8(j) * dir[1]) + int8(row);\n                // ran off the board before hitting your own tile\n                if (testCol > 7 || testCol < 0 || testRow > 7 || testRow < 0) {\n                    delete potentialFlips;\n                    potentialFlipsLength = 0;\n                    skip = true;\n                } else{\n\n                    tile = returnTile(game.board, uint8(testCol), uint8(testRow));\n\n                    if (tile == opponentColor) {\n                        // if tile is opposite color it could be flipped, so add to potential flip array\n                        (potentialFlips, potentialFlipsLength) = addMove(potentialFlips, potentialFlipsLength, uint8(testCol), uint8(testRow));\n                    } else if (tile == game.currentPlayer && j > 1) {\n                        // hit current players tile which means capture is complete\n                        skip = true;\n                    } else {\n                        // either hit current players own color before hitting an opponent\"s\n                        // or hit an empty space\n                        delete potentialFlips;\n                        delete potentialFlipsLength;\n                        skip = true;\n                    }\n                }\n            }\n        }\n        return (potentialFlips, potentialFlipsLength);\n    }\n\n    function isComplete (Game memory game) internal pure returns (Game) {\n\n        if (game.moveKey == 60) {\n            // game.msg = \"good game\";\n            game.complete = true;\n            return game;\n        } else {\n            uint8[2][60] memory empties;\n            uint8 emptiesLength = 0;\n            for (uint8 i = 0; i < 64; i++) {\n                uint8 tile = returnTile(game.board, ((i - (i % 8)) / 8), (i % 8));\n                if (tile == EMPTY) {\n                    empties[emptiesLength] = [((i - (i % 8)) / 8), (i % 8)];\n                    emptiesLength++;\n                }\n            }\n            bool validMovesRemains = false;\n            if (emptiesLength > 0) {\n                bytes16 board = game.board;\n                uint8[2] memory move;\n                for (i = 0; i < emptiesLength && !validMovesRemains; i++) {\n                    move = empties[i];\n\n                    game.currentPlayer = BLACK;\n                    game.error = false;\n                    game.board = board;\n                    game = makeMove(game, move[0], move[1]);\n                    if (!game.error) {\n                        validMovesRemains = true;\n                    }\n                    game.currentPlayer = WHITE;\n                    game.error = false;\n                    game.board = board;\n                    game = makeMove(game, move[0], move[1]);\n                    if (!game.error) {\n                        validMovesRemains = true;\n                    }\n                }\n                game.board = board;\n            }\n            if (validMovesRemains) {\n                game.error = true;\n                // game.msg = \"Invalid Game (moves still available)\";\n            } else {\n                // game.msg = \"good game\";\n                game.complete = true;\n                game.error = false;\n            }\n        }\n        return game;\n    }\n\n    function isSymmetrical (Game memory game) internal pure returns (Game) {\n        bool RotSym = true;\n        bool Y0Sym = true;\n        bool X0Sym = true;\n        bool XYSym = true;\n        bool XnYSym = true;\n        for (uint8 i = 0; i < 8 && (RotSym || Y0Sym || X0Sym || XYSym || XnYSym); i++) {\n            for (uint8 j = 0; j < 8 && (RotSym || Y0Sym || X0Sym || XYSym || XnYSym); j++) {\n\n                // rotational symmetry\n                if (returnBytes(game.board, i, j) != returnBytes(game.board, (7 - i), (7 - j))) {\n                    RotSym = false;\n                }\n                // symmetry on y = 0\n                if (returnBytes(game.board, i, j) != returnBytes(game.board, i, (7 - j))) {\n                    Y0Sym = false;\n                }\n                // symmetry on x = 0\n                if (returnBytes(game.board, i, j) != returnBytes(game.board, (7 - i), j)) {\n                    X0Sym = false;\n                }\n                // symmetry on x = y\n                if (returnBytes(game.board, i, j) != returnBytes(game.board, (7 - j), (7 - i))) {\n                    XYSym = false;\n                }\n                // symmetry on x = -y\n                if (returnBytes(game.board, i, j) != returnBytes(game.board, j, i)) {\n                    XnYSym = false;\n                }\n            }\n        }\n        if (RotSym || Y0Sym || X0Sym || XYSym || XnYSym) {\n            game.symmetrical = true;\n            game.RotSym = RotSym;\n            game.Y0Sym = Y0Sym;\n            game.X0Sym = X0Sym;\n            game.XYSym = XYSym;\n            game.XnYSym = XnYSym;\n        }\n        return game;\n    }\n\n\n\n    // Utilities\n\n    function returnSymmetricals (bool RotSym, bool Y0Sym, bool X0Sym, bool XYSym, bool XnYSym) public view returns (uint256) {\n        uint256 symmetries = (RotSym ? 1  : 0) << 1;\n        symmetries = (symmetries & (Y0Sym ? 1 : 0)) << 1;\n        symmetries = (symmetries & (X0Sym ? 1 : 0)) << 1;\n        symmetries = (symmetries & (XYSym ? 1 : 0)) << 1;\n        symmetries = symmetries & (XnYSym ? 1 : 0);\n        return symmetries;\n    }\n\n\n    function returnBytes (bytes16 board, uint8 col, uint8 row) internal pure returns (bytes16) {\n        uint128 push = posToPush(col, row);\n        return (board >> push) & bytes16(3);\n    }\n\n    function turnTile (bytes16 board, uint8 color, uint8 col, uint8 row) internal pure returns (bytes16){\n        if (col > 7) revert();\n        if (row > 7) revert();\n        uint128 push = posToPush(col, row);\n        bytes16 mask = bytes16(3) << push;// 0b00000011 (ones)\n\n        board = ((board ^ mask) & board);\n\n        return board | (bytes16(color) << push);\n    }\n\n    function returnTile (bytes16 board, uint8 col, uint8 row) internal pure returns (uint8){\n        uint128 push = posToPush(col, row);\n        bytes16 tile = (board >> push ) & bytes16(3);\n        return uint8(tile); // returns 2\n    }\n\n    function posToPush (uint8 col, uint8 row) internal pure returns (uint128){\n        return uint128(((64) - ((8 * col) + row + 1)) * 2);\n    }\n\n    function readMove (bytes28 moveSequence, uint8 moveKey, uint8 movesLength) public pure returns(uint8) {\n        bytes28 mask = bytes28(127);\n        uint8 push = (movesLength * 7) - (moveKey * 7) - 7;\n        return uint8((moveSequence >> push) & mask);\n    }\n\n    function addMove (bytes28 moveSequence, uint8 movesLength, uint8 col, uint8 row) internal pure returns (bytes28, uint8) {\n        bytes28 move = bytes28(col + (row * 8) + 64);\n        moveSequence = moveSequence << 7;\n        moveSequence = moveSequence | move;\n        movesLength++;\n        return (moveSequence, movesLength);\n    }\n\n    function validMove (uint8 move) internal pure returns(bool) {\n        return move >= 64;\n    }\n\n    function convertMove (uint8 move) public pure returns(uint8, uint8) {\n        move = move - 64;\n        uint8 col = move % 8;\n        uint8 row = (move - col) / 8;\n        return (col, row);\n    }\n\n\n}\n",
  "sourcePath": "/home/billy/GitHub.com/clovers-network/clovers-contracts/contracts/Reversi.sol",
  "compiler": {
    "name": "solc",
    "version": "0.4.24+commit.e67f0147.Emscripten.clang"
  },
  "schemaVersion": "2.0.1",
  "updatedAt": "2019-08-24T12:45:28.953Z"
}