{
  "contractName": "Reversi",
  "abi": [
    {
      "constant": true,
      "inputs": [],
      "name": "showColors",
      "outputs": [
        {
          "name": "",
          "type": "uint8"
        },
        {
          "name": "",
          "type": "uint8"
        },
        {
          "name": "",
          "type": "uint8"
        }
      ],
      "payable": false,
      "stateMutability": "pure",
      "type": "function"
    },
    {
      "constant": true,
      "inputs": [
        {
          "name": "moves",
          "type": "bytes28[2]"
        }
      ],
      "name": "isValid",
      "outputs": [
        {
          "name": "",
          "type": "bool"
        }
      ],
      "payable": false,
      "stateMutability": "pure",
      "type": "function"
    },
    {
      "constant": true,
      "inputs": [
        {
          "name": "moves",
          "type": "bytes28[2]"
        }
      ],
      "name": "getGame",
      "outputs": [
        {
          "name": "error",
          "type": "bool"
        },
        {
          "name": "complete",
          "type": "bool"
        },
        {
          "name": "symmetrical",
          "type": "bool"
        },
        {
          "name": "board",
          "type": "bytes16"
        },
        {
          "name": "currentPlayer",
          "type": "uint8"
        },
        {
          "name": "moveKey",
          "type": "uint8"
        }
      ],
      "payable": false,
      "stateMutability": "pure",
      "type": "function"
    },
    {
      "constant": true,
      "inputs": [
        {
          "name": "moveSequence",
          "type": "bytes28"
        },
        {
          "name": "moveKey",
          "type": "uint8"
        },
        {
          "name": "movesLength",
          "type": "uint8"
        }
      ],
      "name": "readMove",
      "outputs": [
        {
          "name": "",
          "type": "uint8"
        }
      ],
      "payable": false,
      "stateMutability": "pure",
      "type": "function"
    },
    {
      "constant": true,
      "inputs": [
        {
          "name": "move",
          "type": "uint8"
        }
      ],
      "name": "convertMove",
      "outputs": [
        {
          "name": "",
          "type": "uint8"
        },
        {
          "name": "",
          "type": "uint8"
        }
      ],
      "payable": false,
      "stateMutability": "pure",
      "type": "function"
    }
  ],
  "bytecode": "0x6060604052341561000f57600080fd5b611ac98061001e6000396000f30060606040526004361061006d576000357c0100000000000000000000000000000000000000000000000000000000900463ffffffff16806308d27c7f14610072578063271eff94146100a25780632f07d857146100cd5780637898b3be146100ed578063bec0cfa914610119575b600080fd5b61008760046100829036906117d0565b610144565b604051610099969594939291906118d4565b60405180910390f35b6100b760046100b29036906117d0565b610197565b6040516100c491906118b9565b60405180910390f35b6100d56101de565b6040516100e493929190611979565b60405180910390f35b61010260046100fd90369061185a565b6101f4565b604051610110929190611950565b60405180910390f35b61012e6004610129903690611802565b610233565b60405161013b9190611935565b60405180910390f35b600080600080600080610155611569565b61015e88610277565b90508060000151816020015182604001518361010001518461016001518561018001519650965096509650965096505091939550919395565b60006101a1611569565b6101aa83610277565b90508060000151156101bf57600091506101d8565b806020015115156101d357600091506101d8565b600191505b50919050565b6000806000600360016002925092509250909192565b60008060008060408503945060088560ff1681151561020f57fe5b069150600882860360ff1681151561022357fe5b0490508181935093505050915091565b6000806000607f64010000000002915060078086026007860203039050818160ff168763ffffffff19169060020a9004166401000000009004925050509392505050565b61027f611569565b610287611569565b60008060008060008088600060028110151561029f57fe5b602002015187610120019063ffffffff1916908163ffffffff1916815250508860016002811015156102cd57fe5b602002015187610140019063ffffffff1916908163ffffffff191681525050600087610180019060ff16908160ff16815250506002876101a0019060ff16908160ff16815250506002876101c0019060ff16908160ff168152505060008760000190151590811515815250506000876020019015159081151581525050600187610160019060ff16908160ff16815250506ffffffffffffffe7ffdbfffffffffffff700100000000000000000000000000000000028761010001906fffffffffffffffffffffffffffffffff191690816fffffffffffffffffffffffffffffffff191681525050600091505b603c8260ff161080156103ca575085155b1561053857602087610180015160ff16106103ea578661014001516103f1565b8661012001515b905061041381602089610180015160ff1681151561040b57fe5b066020610233565b945061041e856101f4565b809450819550505061042f8561057a565b15955085158015610443575060088460ff16105b8015610452575060088360ff16105b8015610462575060008460ff1610155b8015610472575060008360ff1610155b1561052b5761048287858561058b565b965060018761018001510187610180019060ff16908160ff168152505086600001511561052a576000876000019015159081151581525050600160ff1687610160015160ff1614156104e757600287610160019060ff16908160ff16815250506104fc565b600187610160019060ff16908160ff16815250505b61050787858561058b565b9650866000015115610529576001876000019015159081151581525050600195505b5b5b81806001019250506103b9565b8660000151151561056b57600087600001901515908115158152505061055d8761088d565b965061056887610bcc565b96505b86975050505050505050919050565b600060408260ff1610159050919050565b610593611569565b61059b61161d565b600080600080600080600080600360ff166105bc8e61010001518e8e610ec4565b60ff161415156105df5760018d60000190151590811515815250508c995061087d565b6105ea8d8d8d610f3a565b809950819a50505060008860ff1614156106175760018d60000190151590811515815250508c995061087d565b60009150600090505b8760ff168160ff16101561077d5760009650600095506106578d8a8360ff1660088110151561064b57fe5b60200201518e8e611279565b8097508198505050600092505b8560ff168360ff1610156107705781151561067e57600191505b61069161068c888589610233565b6101f4565b80955081965050506106af8d61010001518e610160015187876113dd565b8d61010001906fffffffffffffffffffffffffffffffff191690816fffffffffffffffffffffffffffffffff191681525050600260ff168d610160015160ff16141561072e5760018d6101c0018181510191509060ff16908160ff168152505060018d6101a0018181510391509060ff16908160ff1681525050610763565b60018d6101c0018181510391509060ff16908160ff168152505060018d6101a0018181510191509060ff16908160ff16815250505b8280600101935050610664565b8080600101915050610620565b811561081e576107998d61010001518e61016001518e8e6113dd565b8d61010001906fffffffffffffffffffffffffffffffff191690816fffffffffffffffffffffffffffffffff191681525050600260ff168d610160015160ff1614156107fe5760018d6101c0018181510191509060ff16908160ff1681525050610819565b60018d6101a0018181510191509060ff16908160ff16815250505b610837565b60018d60000190151590811515815250508c995061087d565b600160ff168d610160015160ff1614156108645760028d610160019060ff16908160ff1681525050610879565b60018d610160019060ff16908160ff16815250505b8c99505b5050505050505050509392505050565b610895611569565b61089d61164c565b60008060008060006108ad61167b565b603c89610180015160ff1614156108d7576001896020019015159081151581525050889750610bc0565b60009550600094505b60408560ff1610156109b95761092a8961010001516008808860ff1681151561090557fe5b06880360ff1681151561091457fe5b0460088860ff1681151561092457fe5b06610ec4565b9350600360ff168460ff1614156109ac5760408051908101604052806008808860ff1681151561095657fe5b06880360ff1681151561096557fe5b0460ff1660ff16815260200160088760ff1681151561098057fe5b0660ff1660ff16815250878760ff16603c8110151561099b57fe5b602002018190525085806001019650505b84806001019550506108e0565b6000925060008660ff161115610b7d578861010001519150600094505b8560ff168560ff161080156109e9575082155b15610b4957868560ff16603c811015156109ff57fe5b60200201519050600189610160019060ff16908160ff16815250506000896000019015159081151581525050818961010001906fffffffffffffffffffffffffffffffff191690816fffffffffffffffffffffffffffffffff191681525050610a8f89826000600281101515610a7157fe5b6020020151836001600281101515610a8557fe5b602002015161058b565b985088600001511515610aa157600192505b600289610160019060ff16908160ff16815250506000896000019015159081151581525050818961010001906fffffffffffffffffffffffffffffffff191690816fffffffffffffffffffffffffffffffff191681525050610b2a89826000600281101515610b0c57fe5b6020020151836001600281101515610b2057fe5b602002015161058b565b985088600001511515610b3c57600192505b84806001019550506109d6565b818961010001906fffffffffffffffffffffffffffffffff191690816fffffffffffffffffffffffffffffffff1916815250505b8215610b99576001896000019015159081151581525050610bbc565b600189602001901515908115158152505060008960000190151590811515815250505b8897505b50505050505050919050565b610bd4611569565b60008060008060008060006001965060019550600194506001935060019250600091505b60088260ff16108015610c2857508680610c0f5750855b80610c175750845b80610c1f5750835b80610c275750825b5b15610e2d57600090505b60088160ff16108015610c6257508680610c495750855b80610c515750845b80610c595750835b80610c615750825b5b15610e2057610c7d89610100015183600703836007036114a9565b6fffffffffffffffffffffffffffffffff1916610ca08a610100015184846114a9565b6fffffffffffffffffffffffffffffffff1916141515610cbf57600096505b610cd289610100015183836007036114a9565b6fffffffffffffffffffffffffffffffff1916610cf58a610100015184846114a9565b6fffffffffffffffffffffffffffffffff1916141515610d1457600095505b610d2789610100015183600703836114a9565b6fffffffffffffffffffffffffffffffff1916610d4a8a610100015184846114a9565b6fffffffffffffffffffffffffffffffff1916141515610d6957600094505b610d7f89610100015182600703846007036114a9565b6fffffffffffffffffffffffffffffffff1916610da28a610100015184846114a9565b6fffffffffffffffffffffffffffffffff1916141515610dc157600093505b610dd189610100015182846114a9565b6fffffffffffffffffffffffffffffffff1916610df48a610100015184846114a9565b6fffffffffffffffffffffffffffffffff1916141515610e1357600092505b8080600101915050610c32565b8180600101925050610bf8565b8680610e365750855b80610e3e5750845b80610e465750835b80610e4e5750825b15610eb55760018960400190151590811515815250508689606001901515908115158152505085896080019015159081151581525050848960a0019015159081151581525050838960c0019015159081151581525050828960e00190151590811515815250505b88975050505050505050919050565b6000806000610ed38585611505565b9150600370010000000000000000000000000000000002826fffffffffffffffffffffffffffffffff16876fffffffffffffffffffffffffffffffff19169060020a9004169050807001000000000000000000000000000000009004925050509392505050565b610f4261161d565b6000610f4c61161d565b6000610f5661161d565b600080610f616116a5565b600080600096506101006040519081016040528060408051908101604052807fffffffffffffffffffffffffffffffffffffffffffffffffffffffffffffffff60000b60000b81526020016000800b60000b815250815260200160408051908101604052807fffffffffffffffffffffffffffffffffffffffffffffffffffffffffffffffff60000b60000b8152602001600160000b60000b815250815260200160408051908101604052806000800b60000b8152602001600160000b60000b81525081526020016040805190810160405280600160000b60000b8152602001600160000b60000b81525081526020016040805190810160405280600160000b60000b81526020016000800b60000b81525081526020016040805190810160405280600160000b60000b81526020017fffffffffffffffffffffffffffffffffffffffffffffffffffffffffffffffff60000b60000b815250815260200160408051908101604052806000800b60000b81526020017fffffffffffffffffffffffffffffffffffffffffffffffffffffffffffffffff60000b60000b815250815260200160408051908101604052807fffffffffffffffffffffffffffffffffffffffffffffffffffffffffffffffff60000b60000b81526020017fffffffffffffffffffffffffffffffffffffffffffffffffffffffffffffffff60000b60000b8152508152509550600090505b60088160ff16101561126357858160ff1660088110151561118d57fe5b602002015192508260006002811015156111a357fe5b60200201518c0193508260016002811015156111bb57fe5b60200201518b01945060078560000b13806111d9575060008560000b125b806111e7575060078460000b135b806111f5575060008460000b125b15156112565761120b8d61010001518587610ec4565b91508c610160015160ff168260ff1614151561125557600360ff168260ff161415156112545782888860ff1660088110151561124357fe5b602002018190525086806001019750505b5b5b8080600101915050611170565b8787995099505050505050505050935093915050565b60008060008060008060008060008060009650600160ff168e610160015160ff1614156112a957600295506112ae565b600195505b60009450600190505b60098160ff1610156113c6578415156113b9578b8d60006002811015156112da57fe5b602002015182020193508a8d60016002811015156112f457fe5b6020020151820201925060078460000b1380611313575060008460000b125b80611321575060078360000b135b8061132f575060008360000b125b15611345576000975060009650600194506113b8565b6113558e61010001518585610ec4565b91508560ff168260ff16141561137e5761137188888686611521565b80985081995050506113b7565b8d610160015160ff168260ff1614801561139b575060018160ff16115b156113a957600194506113b6565b6000975060009650600194505b5b5b5b80806001019150506112b7565b878799509950505050505050505094509492505050565b600080600060078560ff1611156113f357600080fd5b60078460ff16111561140457600080fd5b61140e8585611505565b9150816fffffffffffffffffffffffffffffffff166003700100000000000000000000000000000000026fffffffffffffffffffffffffffffffff19169060020a02905086818818169650816fffffffffffffffffffffffffffffffff168660ff16700100000000000000000000000000000000026fffffffffffffffffffffffffffffffff19169060020a02871792505050949350505050565b6000806114b68484611505565b9050600370010000000000000000000000000000000002816fffffffffffffffffffffffffffffffff16866fffffffffffffffffffffffffffffffff19169060020a9004169150509392505050565b600060026001838560080201016040030260ff16905092915050565b600080600060406008850286010160ff1664010000000002905060078763ffffffff19169060020a029650808717965085806001019650508686925092505094509492505050565b6101e06040519081016040528060001515815260200160001515815260200160001515815260200160001515815260200160001515815260200160001515815260200160001515815260200160001515815260200160006fffffffffffffffffffffffffffffffff19168152602001600063ffffffff19168152602001600063ffffffff19168152602001600060ff168152602001600060ff168152602001600060ff168152602001600060ff1681525090565b610200604051908101604052806008905b6116366116ce565b81526020019060019003908161162e5790505090565b610f0060405190810160405280603c905b6116656116f7565b81526020019060019003908161165d5790505090565b60408051908101604052806002905b600060ff1681526020019060019003908161168a5790505090565b60408051908101604052806002905b6000800b8152602001906001900390816116b45790505090565b60408051908101604052806002905b6000800b8152602001906001900390816116dd5790505090565b60408051908101604052806002905b600060ff168152602001906001900390816117065790505090565b600082601f830112600081146117365761173b565b600080fd5b50600261174f61174a826119e6565b6119b0565b915081838560208402820111600181146117685761176d565b600080fd5b5060005b8381101561179e578161178488826117a8565b845260208401935060208301925050600181019050611771565b5050505092915050565b60006117b48235611a56565b905092915050565b60006117c88235611a82565b905092915050565b6000604082840312600181146117e5576117ea565b600080fd5b5060006117f984828501611721565b91505092915050565b60008060006060848603126001811461181a5761181f565b600080fd5b50600061182e868287016117a8565b935050602061183f868287016117bc565b9250506040611850868287016117bc565b9150509250925092565b60006020828403126001811461186f57611874565b600080fd5b506000611883848285016117bc565b91505092915050565b61189581611a11565b82525050565b6118a481611a1d565b82525050565b6118b381611a49565b82525050565b60006020820190506118ce600083018461188c565b92915050565b600060c0820190506118e9600083018961188c565b6118f6602083018861188c565b611903604083018761188c565b611910606083018661189b565b61191d60808301856118aa565b61192a60a08301846118aa565b979650505050505050565b600060208201905061194a60008301846118aa565b92915050565b600060408201905061196560008301856118aa565b61197260208301846118aa565b9392505050565b600060608201905061198e60008301866118aa565b61199b60208301856118aa565b6119a860408301846118aa565b949350505050565b6000604051905081810181811067ffffffffffffffff821117600181146119d6576119db565b600080fd5b508060405250919050565b600067ffffffffffffffff821160018114611a0057611a05565b600080fd5b50602082029050919050565b60008115159050919050565b60007fffffffffffffffffffffffffffffffff0000000000000000000000000000000082169050919050565b600060ff82169050919050565b60007fffffffffffffffffffffffffffffffffffffffffffffffffffffffff0000000082169050919050565b600060ff821690509190505600a265627a7a72305820f2b820153894b0938665d6336dce32cf032ec8a935431e0654711202675f86b76c6578706572696d656e74616cf50037",
  "source": "pragma solidity ^0.4.19;\npragma experimental ABIEncoderV2;\n\n\nlibrary Reversi {\n    // event DebugBool(bool boolean);\n    // event DebugBoard(bytes16 board);\n    // event DebugUint(uint u);\n    uint8 constant BLACK = 1; //0b01 //0x1\n    uint8 constant WHITE = 2; //0b10 //0x2\n    uint8 constant EMPTY = 3; //0b11 //0x3\n\n    struct Game {\n        bool error;\n        bool complete;\n        bool symmetrical;\n        bool RotSym;\n        bool Y0Sym;\n        bool X0Sym;\n        bool XYSym;\n        bool XnYSym;\n        bytes16 board;\n        bytes28 first32Moves;\n        bytes28 lastMoves;\n\n        uint8 currentPlayer;\n        uint8 moveKey;\n        uint8 blackScore;\n        uint8 whiteScore;\n        // string msg;\n    }\n\n\n    function showColors () public pure returns(uint8, uint8, uint8) {\n        return (EMPTY, BLACK, WHITE);\n    }\n\n    function isValid (bytes28[2] moves) public pure returns (bool) {\n      Game memory game = playGame(moves);\n      if (game.error) {\n        return false;\n      } else if (!game.complete) {\n        return false;\n      } else {\n        return true;\n      }\n    }\n\n    function getGame (bytes28[2] moves) public pure returns (bool error, bool complete, bool symmetrical, bytes16 board, uint8 currentPlayer, uint8 moveKey) {\n      Game memory game = playGame(moves);\n      return (\n         game.error,\n         game.complete,\n         game.symmetrical,\n         game.board,\n         game.currentPlayer,\n         game.moveKey\n         // game.msg\n      );\n    }\n\n    function playGame (bytes28[2] moves) internal pure returns (Game)  {\n        Game memory game;\n\n        game.first32Moves = moves[0];\n        game.lastMoves = moves[1];\n        game.moveKey = 0;\n        game.blackScore = 2;\n        game.whiteScore = 2;\n\n        game.error = false;\n        game.complete = false;\n        game.currentPlayer = BLACK;\n\n\n        // game.board = bytes16(10625432672847758622720); // completely empty board\n        game.board = bytes16(340282366920938456379662753540715053055); // empty board except for center pieces\n\n        bool skip;\n        uint8 move;\n        uint8 col;\n        uint8 row;\n        uint8 i;\n        bytes28 currentMoves;\n\n        for (i = 0; i < 60 && !skip; i++) {\n            currentMoves = game.moveKey < 32 ? game.first32Moves : game.lastMoves;\n            move = readMove(currentMoves, game.moveKey % 32, 32);\n            (col, row) = convertMove(move);\n            skip = !validMove(move);\n            if (!skip && col < 8 && row < 8 && col >= 0 && row >= 0) {\n                // game.msg = \"make a move\";\n                game = makeMove(game, col, row);\n                game.moveKey = game.moveKey + 1;\n                if (game.error) {\n                    game.error = false;\n                    // maybe player has no valid moves and must pass\n                    if (game.currentPlayer == BLACK) {\n                        game.currentPlayer = WHITE;\n                    } else {\n                        game.currentPlayer = BLACK;\n                    }\n                    game = makeMove(game, col, row);\n                    if (game.error) {\n                        game.error = true;\n                        skip = true;\n                    }\n                }\n            }\n        }\n        if (!game.error) {\n            game.error = false; \n            game = isComplete(game);\n            game = isSymmetrical(game);\n        }\n        return game;\n    }\n    \n    function makeMove (Game memory game, uint8 col, uint8 row) internal pure returns (Game)  {\n        // square is already occupied\n        if (returnTile(game.board, col, row) != EMPTY){\n            game.error = true;\n            // game.msg = \"Invalid Game (square is already occupied)\";\n            return game;\n        }\n        int8[2][8] memory possibleDirections;\n        uint8  possibleDirectionsLength;\n        (possibleDirections, possibleDirectionsLength) = getPossibleDirections(game, col, row);\n        // no valid directions\n        if (possibleDirectionsLength == 0) {\n            game.error = true;\n            // game.msg = \"Invalid Game (doesnt border other tiles)\";\n            return game;\n        }\n\n        bytes28 newFlips;\n        uint8 newFlipsLength;\n        uint8 newFlipCol;\n        uint8 newFlipRow;\n        uint8 j;\n        bool valid = false;\n        for (uint8 i = 0; i < possibleDirectionsLength; i++) {\n            delete newFlips;\n            delete newFlipsLength;\n            (newFlips, newFlipsLength) = traverseDirection(game, possibleDirections[i], col, row);\n            for (j = 0; j < newFlipsLength; j++) {\n                if (!valid) valid = true;\n                (newFlipCol, newFlipRow) = convertMove(readMove(newFlips, j, newFlipsLength));\n                game.board = turnTile(game.board, game.currentPlayer, newFlipCol, newFlipRow);\n                if (game.currentPlayer == WHITE) {\n                    game.whiteScore += 1;\n                    game.blackScore -= 1;\n                } else {\n                    game.whiteScore -= 1;\n                    game.blackScore += 1;\n                }\n            }\n        }\n\n        //no valid flips in directions\n        if (valid) {\n            game.board = turnTile(game.board, game.currentPlayer, col, row);\n            if (game.currentPlayer == WHITE) {\n                game.whiteScore += 1;\n            } else {\n                game.blackScore += 1;\n            }\n        } else {\n            game.error = true;\n            // game.msg = \"Invalid Game (doesnt flip any other tiles)\";\n            return game;\n        }\n\n        // switch players\n        if (game.currentPlayer == BLACK) {\n            game.currentPlayer = WHITE;\n        } else {\n            game.currentPlayer = BLACK;\n        }\n        return game;\n    }\n\n    function getPossibleDirections (Game memory game, uint8 col, uint8 row) internal pure returns(int8[2][8], uint8){\n\n        int8[2][8] memory possibleDirections;\n        uint8 possibleDirectionsLength = 0;\n        int8[2][8] memory dirs = [\n            [int8(-1), int8(0)], // W\n            [int8(-1), int8(1)], // SW\n            [int8(0), int8(1)], // S\n            [int8(1), int8(1)], // SE\n            [int8(1), int8(0)], // E\n            [int8(1), int8(-1)], // NE\n            [int8(0), int8(-1)], // N\n            [int8(-1), int8(-1)] // NW\n        ];\n        int8 focusedRowPos;\n        int8 focusedColPos;\n        int8[2] memory dir;\n        uint8 testSquare;\n\n        for (uint8 i = 0; i < 8; i++) {\n            dir = dirs[i];\n            focusedColPos = int8(col) + dir[0];\n            focusedRowPos = int8(row) + dir[1];\n\n            // if tile is off the board it is not a valid move\n            if (!(focusedRowPos > 7 || focusedRowPos < 0 || focusedColPos > 7 || focusedColPos < 0)) {\n                testSquare = returnTile(game.board, uint8(focusedColPos), uint8(focusedRowPos));\n\n                // if the surrounding tile is current color or no color it can\"t be part of a capture\n                if (testSquare != game.currentPlayer) {\n                    if (testSquare != EMPTY) {\n                        possibleDirections[possibleDirectionsLength] = dir;\n                        possibleDirectionsLength++;\n                    }\n                }\n            }\n        }\n        return (possibleDirections, possibleDirectionsLength);\n    }\n\n    function traverseDirection (Game memory game, int8[2] dir, uint8 col, uint8 row) internal pure returns(bytes28, uint8) {\n        bytes28 potentialFlips;\n        uint8 potentialFlipsLength = 0;\n\n        if (game.currentPlayer == BLACK) {\n            uint8 opponentColor = WHITE;\n        } else {\n            opponentColor = BLACK;\n        }\n\n        // take one step at a time in this direction\n        // ignoring the first step look for the same color as your tile\n        bool skip = false;\n        int8 testCol;\n        int8 testRow;\n        uint8 tile;\n        for (uint8 j = 1; j < 9; j++) {\n            if (!skip) {\n                testCol = (int8(j) * dir[0]) + int8(col);\n                testRow = (int8(j) * dir[1]) + int8(row);\n                // ran off the board before hitting your own tile\n                if (testCol > 7 || testCol < 0 || testRow > 7 || testRow < 0) {\n                    delete potentialFlips;\n                    potentialFlipsLength = 0;\n                    skip = true;\n                } else{\n\n                    tile = returnTile(game.board, uint8(testCol), uint8(testRow));\n\n                    if (tile == opponentColor) {\n                        // if tile is opposite color it could be flipped, so add to potential flip array\n                        (potentialFlips, potentialFlipsLength) = addMove(potentialFlips, potentialFlipsLength, uint8(testCol), uint8(testRow));\n                    } else if (tile == game.currentPlayer && j > 1) {\n                        // hit current players tile which means capture is complete\n                        skip = true;\n                    } else {\n                        // either hit current players own color before hitting an opponent\"s\n                        // or hit an empty space\n                        delete potentialFlips;\n                        delete potentialFlipsLength;\n                        skip = true;\n                    }\n                }\n            }\n        }\n        return (potentialFlips, potentialFlipsLength);\n    }\n\n    function isComplete (Game memory game) internal pure returns (Game) {\n\n        if (game.moveKey == 60) {\n            // game.msg = \"good game\";\n            game.complete = true;\n            return game;\n        } else {\n            uint8[2][60] memory empties;\n            uint8 emptiesLength = 0;\n            for (uint8 i = 0; i < 64; i++) {\n                uint8 tile = returnTile(game.board, ((i - (i % 8)) / 8), (i % 8));\n                if (tile == EMPTY) {\n                    empties[emptiesLength] = [((i - (i % 8)) / 8), (i % 8)];\n                    emptiesLength++;\n                }\n            }\n            bool validMovesRemains = false;\n            if (emptiesLength > 0) {\n                bytes16 board = game.board;\n                uint8[2] memory move;\n                for (i = 0; i < emptiesLength && !validMovesRemains; i++) {\n                    move = empties[i];\n                    \n                    game.currentPlayer = BLACK;\n                    game.error = false;\n                    game.board = board;\n                    game = makeMove(game, move[0], move[1]);\n                    if (!game.error) {\n                        validMovesRemains = true;\n                    }\n                    game.currentPlayer = WHITE;\n                    game.error = false;\n                    game.board = board;\n                    game = makeMove(game, move[0], move[1]);\n                    if (!game.error) {\n                        validMovesRemains = true;\n                    }\n                }\n                game.board = board;\n            } \n            if (validMovesRemains) {\n                game.error = true;\n                // game.msg = \"Invalid Game (moves still available)\";\n            } else {\n                // game.msg = \"good game\";\n                game.complete = true;\n                game.error = false;\n            }\n        }\n        return game;\n    }\n\n    function isSymmetrical (Game memory game) internal pure returns (Game) {\n        bool RotSym = true;\n        bool Y0Sym = true;\n        bool X0Sym = true;\n        bool XYSym = true;\n        bool XnYSym = true;\n        for (uint8 i = 0; i < 8 && (RotSym || Y0Sym || X0Sym || XYSym || XnYSym); i++) {\n            for (uint8 j = 0; j < 8 && (RotSym || Y0Sym || X0Sym || XYSym || XnYSym); j++) {\n\n                // rotational symmetry\n                if (returnBytes(game.board, i, j) != returnBytes(game.board, (7 - i), (7 - j))) {\n                    RotSym = false;\n                }\n                // symmetry on y = 0\n                if (returnBytes(game.board, i, j) != returnBytes(game.board, i, (7 - j))) {\n                    Y0Sym = false;\n                }\n                // symmetry on x = 0\n                if (returnBytes(game.board, i, j) != returnBytes(game.board, (7 - i), j)) {\n                    X0Sym = false;\n                }\n                // symmetry on x = y\n                if (returnBytes(game.board, i, j) != returnBytes(game.board, (7 - j), (7 - i))) {\n                    XYSym = false;\n                }\n                // symmetry on x = -y\n                if (returnBytes(game.board, i, j) != returnBytes(game.board, j, i)) {\n                    XnYSym = false;\n                }\n            }\n        }\n        if (RotSym || Y0Sym || X0Sym || XYSym || XnYSym) {\n            game.symmetrical = true;\n            game.RotSym = RotSym;\n            game.Y0Sym = Y0Sym;\n            game.X0Sym = X0Sym;\n            game.XYSym = XYSym;\n            game.XnYSym = XnYSym;\n        }\n        return game;\n    }\n\n\n\n    // Utilities\n\n\n    function returnBytes (bytes16 board, uint8 col, uint8 row) internal pure returns (bytes16) {\n        uint128 push = posToPush(col, row);\n        return (board >> push) & bytes16(3);\n    }\n\n    function turnTile (bytes16 board, uint8 color, uint8 col, uint8 row) internal pure returns (bytes16){\n        if (col > 7) revert();\n        if (row > 7) revert();\n        uint128 push = posToPush(col, row);\n        bytes16 mask = bytes16(3) << push;// 0b00000011 (ones)\n\n        board = ((board ^ mask) & board);\n\n        return board | (bytes16(color) << push);\n    }\n\n    function returnTile (bytes16 board, uint8 col, uint8 row) internal pure returns (uint8){\n        uint128 push = posToPush(col, row);\n        bytes16 tile = (board >> push ) & bytes16(3);\n        return uint8(tile); // returns 2\n    }\n\n    function posToPush (uint8 col, uint8 row) internal pure returns (uint128){\n        return uint128(((64) - ((8 * col) + row + 1)) * 2);\n    }\n\n    function readMove (bytes28 moveSequence, uint8 moveKey, uint8 movesLength) public pure returns(uint8) {\n        bytes28 mask = bytes28(127);\n        uint8 push = (movesLength * 7) - (moveKey * 7) - 7;\n        return uint8((moveSequence >> push) & mask);\n    }\n\n    function addMove (bytes28 moveSequence, uint8 movesLength, uint8 col, uint8 row) internal pure returns (bytes28, uint8) {\n        bytes28 move = bytes28(col + (row * 8) + 64);\n        moveSequence = moveSequence << 7;\n        moveSequence = moveSequence | move;\n        movesLength++;\n        return (moveSequence, movesLength);\n    }\n\n    function validMove (uint8 move) internal pure returns(bool) {\n        return move >= 64;\n    }\n\n    function convertMove (uint8 move) public pure returns(uint8, uint8) {\n        move = move - 64;\n        uint8 col = move % 8;\n        uint8 row = (move - col) / 8;\n        return (col, row);\n    }\n\n\n}",
  "sourcePath": "/Users/billy/sol/clovers-contracts/contracts/Reversi.sol",
  "compiler": {
    "name": "solc",
    "version": "0.4.19+commit.c4cbbb05.Emscripten.clang"
  },
  "schemaVersion": "1.0.1",
  "updatedAt": "2018-04-04T18:46:03.166Z"
}