{
  "contractName": "Reversi",
  "abi": [
    {
      "constant": true,
      "inputs": [
        {
          "name": "moves",
          "type": "bytes28[2]"
        }
      ],
      "name": "isValid",
      "outputs": [
        {
          "name": "",
          "type": "bool"
        }
      ],
      "payable": false,
      "stateMutability": "pure",
      "type": "function"
    },
    {
      "constant": true,
      "inputs": [
        {
          "name": "moves",
          "type": "bytes28[2]"
        }
      ],
      "name": "getGame",
      "outputs": [
        {
          "name": "error",
          "type": "bool"
        },
        {
          "name": "complete",
          "type": "bool"
        },
        {
          "name": "symmetrical",
          "type": "bool"
        },
        {
          "name": "board",
          "type": "bytes16"
        },
        {
          "name": "currentPlayer",
          "type": "uint8"
        },
        {
          "name": "moveKey",
          "type": "uint8"
        }
      ],
      "payable": false,
      "stateMutability": "pure",
      "type": "function"
    },
    {
      "constant": true,
      "inputs": [],
      "name": "showColors",
      "outputs": [
        {
          "name": "",
          "type": "uint8"
        },
        {
          "name": "",
          "type": "uint8"
        },
        {
          "name": "",
          "type": "uint8"
        }
      ],
      "payable": false,
      "stateMutability": "pure",
      "type": "function"
    },
    {
      "constant": true,
      "inputs": [
        {
          "name": "RotSym",
          "type": "bool"
        },
        {
          "name": "Y0Sym",
          "type": "bool"
        },
        {
          "name": "X0Sym",
          "type": "bool"
        },
        {
          "name": "XYSym",
          "type": "bool"
        },
        {
          "name": "XnYSym",
          "type": "bool"
        }
      ],
      "name": "returnSymmetricals",
      "outputs": [
        {
          "name": "",
          "type": "uint256"
        }
      ],
      "payable": false,
      "stateMutability": "view",
      "type": "function"
    },
    {
      "constant": true,
      "inputs": [
        {
          "name": "moveSequence",
          "type": "bytes28"
        },
        {
          "name": "moveKey",
          "type": "uint8"
        },
        {
          "name": "movesLength",
          "type": "uint8"
        }
      ],
      "name": "readMove",
      "outputs": [
        {
          "name": "",
          "type": "uint8"
        }
      ],
      "payable": false,
      "stateMutability": "pure",
      "type": "function"
    },
    {
      "constant": true,
      "inputs": [
        {
          "name": "move",
          "type": "uint8"
        }
      ],
      "name": "convertMove",
      "outputs": [
        {
          "name": "",
          "type": "uint8"
        },
        {
          "name": "",
          "type": "uint8"
        }
      ],
      "payable": false,
      "stateMutability": "pure",
      "type": "function"
    }
  ],
  "bytecode": "0x6119bb610030600b82828239805160001a6073146000811461002057610022565bfe5b5030600052607381538281f300730000000000000000000000000000000000000000301460806040526004361061008f576000357c0100000000000000000000000000000000000000000000000000000000900463ffffffff16806308d27c7f14610094578063271eff941461014e5780632f07d857146101ab5780637898b3be146101e9578063a250cc3414610233578063bec0cfa914610299575b600080fd5b6100d760048036038101908080604001906002806020026040519081016040528092919082600260200280828437820191505050505091929192905050506102f4565b60405180871515151581526020018615151515815260200185151515158152602001846fffffffffffffffffffffffffffffffff19166fffffffffffffffffffffffffffffffff191681526020018360ff1660ff1681526020018260ff1660ff168152602001965050505050505060405180910390f35b6101916004803603810190808060400190600280602002604051908101604052809291908260026020028082843782019150505050509192919290505050610347565b604051808215151515815260200191505060405180910390f35b6101b361038e565b604051808460ff1660ff1681526020018360ff1660ff1681526020018260ff1660ff168152602001935050505060405180910390f35b61020a600480360381019080803560ff1690602001909291905050506103a4565b604051808360ff1660ff1681526020018260ff1660ff1681526020019250505060405180910390f35b6102836004803603810190808035151590602001909291908035151590602001909291908035151590602001909291908035151590602001909291908035151590602001909291905050506103e3565b6040518082815260200191505060405180910390f35b6102d8600480360381019080803563ffffffff19169060200190929190803560ff169060200190929190803560ff16906020019092919050505061047e565b604051808260ff1660ff16815260200191505060405180910390f35b6000806000806000806103056117f5565b61030e886104c2565b90508060000151816020015182604001518361010001518461016001518561018001519650965096509650965096505091939550919395565b60006103516117f5565b61035a836104c2565b905080600001511561036f5760009150610388565b806020015115156103835760009150610388565b600191505b50919050565b6000806000600360016002925092509250909192565b60008060008060408503945060088560ff168115156103bf57fe5b069150600882860360ff168115156103d357fe5b0490508181935093505050915091565b6000806001876103f45760006103f7565b60015b60ff169060020a0260ff169050600186610412576000610415565b60015b60ff1682169060020a02905060018561042f576000610432565b60015b60ff1682169060020a02905060018461044c57600061044f565b60015b60ff1682169060020a0290508261046757600061046a565b60015b60ff16811690508091505095945050505050565b6000806000607f64010000000002915060078086026007860203039050818160ff168763ffffffff19169060020a9004166401000000009004925050509392505050565b6104ca6117f5565b6104d26117f5565b6000806000806000808860006002811015156104ea57fe5b602002015187610120019063ffffffff1916908163ffffffff19168152505088600160028110151561051857fe5b602002015187610140019063ffffffff1916908163ffffffff191681525050600087610180019060ff16908160ff16815250506002876101a0019060ff16908160ff16815250506002876101c0019060ff16908160ff168152505060008760000190151590811515815250506000876020019015159081151581525050600187610160019060ff16908160ff16815250506ffffffffffffffe7ffdbfffffffffffff700100000000000000000000000000000000028761010001906fffffffffffffffffffffffffffffffff191690816fffffffffffffffffffffffffffffffff191681525050600091505b603c8260ff16108015610615575085155b156107c457602087610180015160ff16106106355786610140015161063c565b8661012001515b905061065e81602089610180015160ff1681151561065657fe5b06602061047e565b9450610669856103a4565b809450819550505061067a85610806565b15955060008260ff161480156106a3575060028460ff161415806106a2575060038360ff1614155b5b156106be576001955060018760000190151590811515815250505b851580156106cf575060088460ff16105b80156106de575060088360ff16105b80156106ee575060008460ff1610155b80156106fe575060008360ff1610155b156107b75761070e878585610817565b965060018761018001510187610180019060ff16908160ff16815250508660000151156107b6576000876000019015159081151581525050600160ff1687610160015160ff16141561077357600287610160019060ff16908160ff1681525050610788565b600187610160019060ff16908160ff16815250505b610793878585610817565b96508660000151156107b5576001876000019015159081151581525050600195505b5b5b8180600101925050610604565b866000015115156107f75760008760000190151590811515815250506107e987610b19565b96506107f487610e58565b96505b86975050505050505050919050565b600060408260ff1610159050919050565b61081f6117f5565b6108276118a9565b600080600080600080600080600360ff166108488e61010001518e8e611150565b60ff1614151561086b5760018d60000190151590811515815250508c9950610b09565b6108768d8d8d6111c6565b809950819a50505060008860ff1614156108a35760018d60000190151590811515815250508c9950610b09565b60009150600090505b8760ff168160ff161015610a095760009650600095506108e38d8a8360ff166008811015156108d757fe5b60200201518e8e611505565b8097508198505050600092505b8560ff168360ff1610156109fc5781151561090a57600191505b61091d61091888858961047e565b6103a4565b809550819650505061093b8d61010001518e61016001518787611669565b8d61010001906fffffffffffffffffffffffffffffffff191690816fffffffffffffffffffffffffffffffff191681525050600260ff168d610160015160ff1614156109ba5760018d6101c0018181510191509060ff16908160ff168152505060018d6101a0018181510391509060ff16908160ff16815250506109ef565b60018d6101c0018181510391509060ff16908160ff168152505060018d6101a0018181510191509060ff16908160ff16815250505b82806001019350506108f0565b80806001019150506108ac565b8115610aaa57610a258d61010001518e61016001518e8e611669565b8d61010001906fffffffffffffffffffffffffffffffff191690816fffffffffffffffffffffffffffffffff191681525050600260ff168d610160015160ff161415610a8a5760018d6101c0018181510191509060ff16908160ff1681525050610aa5565b60018d6101a0018181510191509060ff16908160ff16815250505b610ac3565b60018d60000190151590811515815250508c9950610b09565b600160ff168d610160015160ff161415610af05760028d610160019060ff16908160ff1681525050610b05565b60018d610160019060ff16908160ff16815250505b8c99505b5050505050505050509392505050565b610b216117f5565b610b296118d8565b6000806000806000610b39611907565b603c89610180015160ff161415610b63576001896020019015159081151581525050889750610e4c565b60009550600094505b60408560ff161015610c4557610bb68961010001516008808860ff16811515610b9157fe5b06880360ff16811515610ba057fe5b0460088860ff16811515610bb057fe5b06611150565b9350600360ff168460ff161415610c385760408051908101604052806008808860ff16811515610be257fe5b06880360ff16811515610bf157fe5b0460ff1660ff16815260200160088760ff16811515610c0c57fe5b0660ff1660ff16815250878760ff16603c81101515610c2757fe5b602002018190525085806001019650505b8480600101955050610b6c565b6000925060008660ff161115610e09578861010001519150600094505b8560ff168560ff16108015610c75575082155b15610dd557868560ff16603c81101515610c8b57fe5b60200201519050600189610160019060ff16908160ff16815250506000896000019015159081151581525050818961010001906fffffffffffffffffffffffffffffffff191690816fffffffffffffffffffffffffffffffff191681525050610d1b89826000600281101515610cfd57fe5b6020020151836001600281101515610d1157fe5b6020020151610817565b985088600001511515610d2d57600192505b600289610160019060ff16908160ff16815250506000896000019015159081151581525050818961010001906fffffffffffffffffffffffffffffffff191690816fffffffffffffffffffffffffffffffff191681525050610db689826000600281101515610d9857fe5b6020020151836001600281101515610dac57fe5b6020020151610817565b985088600001511515610dc857600192505b8480600101955050610c62565b818961010001906fffffffffffffffffffffffffffffffff191690816fffffffffffffffffffffffffffffffff1916815250505b8215610e25576001896000019015159081151581525050610e48565b600189602001901515908115158152505060008960000190151590811515815250505b8897505b50505050505050919050565b610e606117f5565b60008060008060008060006001965060019550600194506001935060019250600091505b60088260ff16108015610eb457508680610e9b5750855b80610ea35750845b80610eab5750835b80610eb35750825b5b156110b957600090505b60088160ff16108015610eee57508680610ed55750855b80610edd5750845b80610ee55750835b80610eed5750825b5b156110ac57610f098961010001518360070383600703611735565b6fffffffffffffffffffffffffffffffff1916610f2c8a61010001518484611735565b6fffffffffffffffffffffffffffffffff1916141515610f4b57600096505b610f5e8961010001518383600703611735565b6fffffffffffffffffffffffffffffffff1916610f818a61010001518484611735565b6fffffffffffffffffffffffffffffffff1916141515610fa057600095505b610fb38961010001518360070383611735565b6fffffffffffffffffffffffffffffffff1916610fd68a61010001518484611735565b6fffffffffffffffffffffffffffffffff1916141515610ff557600094505b61100b8961010001518260070384600703611735565b6fffffffffffffffffffffffffffffffff191661102e8a61010001518484611735565b6fffffffffffffffffffffffffffffffff191614151561104d57600093505b61105d8961010001518284611735565b6fffffffffffffffffffffffffffffffff19166110808a61010001518484611735565b6fffffffffffffffffffffffffffffffff191614151561109f57600092505b8080600101915050610ebe565b8180600101925050610e84565b86806110c25750855b806110ca5750845b806110d25750835b806110da5750825b156111415760018960400190151590811515815250508689606001901515908115158152505085896080019015159081151581525050848960a0019015159081151581525050838960c0019015159081151581525050828960e00190151590811515815250505b88975050505050505050919050565b600080600061115f8585611791565b9150600370010000000000000000000000000000000002826fffffffffffffffffffffffffffffffff16876fffffffffffffffffffffffffffffffff19169060020a9004169050807001000000000000000000000000000000009004925050509392505050565b6111ce6118a9565b60006111d86118a9565b60006111e26118a9565b6000806111ed611929565b600080600096506101006040519081016040528060408051908101604052807fffffffffffffffffffffffffffffffffffffffffffffffffffffffffffffffff60000b60000b81526020016000800b60000b815250815260200160408051908101604052807fffffffffffffffffffffffffffffffffffffffffffffffffffffffffffffffff60000b60000b8152602001600160000b60000b815250815260200160408051908101604052806000800b60000b8152602001600160000b60000b81525081526020016040805190810160405280600160000b60000b8152602001600160000b60000b81525081526020016040805190810160405280600160000b60000b81526020016000800b60000b81525081526020016040805190810160405280600160000b60000b81526020017fffffffffffffffffffffffffffffffffffffffffffffffffffffffffffffffff60000b60000b815250815260200160408051908101604052806000800b60000b81526020017fffffffffffffffffffffffffffffffffffffffffffffffffffffffffffffffff60000b60000b815250815260200160408051908101604052807fffffffffffffffffffffffffffffffffffffffffffffffffffffffffffffffff60000b60000b81526020017fffffffffffffffffffffffffffffffffffffffffffffffffffffffffffffffff60000b60000b8152508152509550600090505b60088160ff1610156114ef57858160ff1660088110151561141957fe5b6020020151925082600060028110151561142f57fe5b60200201518c01935082600160028110151561144757fe5b60200201518b01945060078560000b1380611465575060008560000b125b80611473575060078460000b135b80611481575060008460000b125b15156114e2576114978d61010001518587611150565b91508c610160015160ff168260ff161415156114e157600360ff168260ff161415156114e05782888860ff166008811015156114cf57fe5b602002018190525086806001019750505b5b5b80806001019150506113fc565b8787995099505050505050505050935093915050565b60008060008060008060008060008060009650600160ff168e610160015160ff161415611535576002955061153a565b600195505b60009450600190505b60098160ff16101561165257841515611645578b8d600060028110151561156657fe5b602002015182020193508a8d600160028110151561158057fe5b6020020151820201925060078460000b138061159f575060008460000b125b806115ad575060078360000b135b806115bb575060008360000b125b156115d157600097506000965060019450611644565b6115e18e61010001518585611150565b91508560ff168260ff16141561160a576115fd888886866117ad565b8098508199505050611643565b8d610160015160ff168260ff16148015611627575060018160ff16115b156116355760019450611642565b6000975060009650600194505b5b5b5b8080600101915050611543565b878799509950505050505050505094509492505050565b600080600060078560ff16111561167f57600080fd5b60078460ff16111561169057600080fd5b61169a8585611791565b9150816fffffffffffffffffffffffffffffffff166003700100000000000000000000000000000000026fffffffffffffffffffffffffffffffff19169060020a02905086818818169650816fffffffffffffffffffffffffffffffff168660ff16700100000000000000000000000000000000026fffffffffffffffffffffffffffffffff19169060020a02871792505050949350505050565b6000806117428484611791565b9050600370010000000000000000000000000000000002816fffffffffffffffffffffffffffffffff16866fffffffffffffffffffffffffffffffff19169060020a9004169150509392505050565b600060026001838560080201016040030260ff16905092915050565b600080600060406008850286010160ff1664010000000002905060078763ffffffff19169060020a029650808717965085806001019650508686925092505094509492505050565b6101e06040519081016040528060001515815260200160001515815260200160001515815260200160001515815260200160001515815260200160001515815260200160001515815260200160001515815260200160006fffffffffffffffffffffffffffffffff19168152602001600063ffffffff19168152602001600063ffffffff19168152602001600060ff168152602001600060ff168152602001600060ff168152602001600060ff1681525090565b610200604051908101604052806008905b6118c261194b565b8152602001906001900390816118ba5790505090565b610f0060405190810160405280603c905b6118f161196d565b8152602001906001900390816118e95790505090565b6040805190810160405280600290602082028038833980820191505090505090565b6040805190810160405280600290602082028038833980820191505090505090565b6040805190810160405280600290602082028038833980820191505090505090565b60408051908101604052806002906020820280388339808201915050905050905600a165627a7a72305820a6c7588257466c89cf5993eb72674ec30caa70f179e59c47c20afaab7d819d000029",
  "source": "pragma solidity ^0.4.18;\n/* pragma experimental ABIEncoderV2; */\n\nlibrary Reversi {\n    // event DebugBool(bool boolean);\n    // event DebugBoard(bytes16 board);\n    // event DebugUint(uint u);\n    uint8 constant BLACK = 1; //0b01 //0x1\n    uint8 constant WHITE = 2; //0b10 //0x2\n    uint8 constant EMPTY = 3; //0b11 //0x3\n\n    struct Game {\n        bool error;\n        bool complete;\n        bool symmetrical;\n        bool RotSym;\n        bool Y0Sym;\n        bool X0Sym;\n        bool XYSym;\n        bool XnYSym;\n        bytes16 board;\n        bytes28 first32Moves;\n        bytes28 lastMoves;\n\n        uint8 currentPlayer;\n        uint8 moveKey;\n        uint8 blackScore;\n        uint8 whiteScore;\n        // string msg;\n    }\n\n\n    function isValid (bytes28[2] moves) public pure returns (bool) {\n      Game memory game = playGame(moves);\n      if (game.error) {\n        return false;\n      } else if (!game.complete) {\n        return false;\n      } else {\n        return true;\n      }\n    }\n\n    function getGame (bytes28[2] moves) public pure returns (bool error, bool complete, bool symmetrical, bytes16 board, uint8 currentPlayer, uint8 moveKey) {\n      Game memory game = playGame(moves);\n      return (\n         game.error,\n         game.complete,\n         game.symmetrical,\n         game.board,\n         game.currentPlayer,\n         game.moveKey\n         // game.msg\n      );\n    }\n\n    function showColors () public pure returns(uint8, uint8, uint8) {\n        return (EMPTY, BLACK, WHITE);\n    }\n\n    function playGame (bytes28[2] moves) internal pure returns (Game)  {\n        Game memory game;\n\n        game.first32Moves = moves[0];\n        game.lastMoves = moves[1];\n        game.moveKey = 0;\n        game.blackScore = 2;\n        game.whiteScore = 2;\n\n        game.error = false;\n        game.complete = false;\n        game.currentPlayer = BLACK;\n\n\n        // game.board = bytes16(10625432672847758622720); // completely empty board\n        game.board = bytes16(340282366920938456379662753540715053055); // empty board except for center pieces\n\n        bool skip;\n        uint8 move;\n        uint8 col;\n        uint8 row;\n        uint8 i;\n        bytes28 currentMoves;\n\n        for (i = 0; i < 60 && !skip; i++) {\n            currentMoves = game.moveKey < 32 ? game.first32Moves : game.lastMoves;\n            move = readMove(currentMoves, game.moveKey % 32, 32);\n            (col, row) = convertMove(move);\n            skip = !validMove(move);\n            if (i == 0 && (col != 2 || row != 3)) {\n                skip = true; // this is to force the first move to always be C4 to avoid repeatable boards via mirroring translations\n                game.error = true;\n            }\n            if (!skip && col < 8 && row < 8 && col >= 0 && row >= 0) {\n                // game.msg = \"make a move\";\n                game = makeMove(game, col, row);\n                game.moveKey = game.moveKey + 1;\n                if (game.error) {\n                    game.error = false;\n                    // maybe player has no valid moves and must pass\n                    if (game.currentPlayer == BLACK) {\n                        game.currentPlayer = WHITE;\n                    } else {\n                        game.currentPlayer = BLACK;\n                    }\n                    game = makeMove(game, col, row);\n                    if (game.error) {\n                        game.error = true;\n                        skip = true;\n                    }\n                }\n            }\n        }\n        if (!game.error) {\n            game.error = false;\n            game = isComplete(game);\n            game = isSymmetrical(game);\n        }\n        return game;\n    }\n\n    function makeMove (Game memory game, uint8 col, uint8 row) internal pure returns (Game)  {\n        // square is already occupied\n        if (returnTile(game.board, col, row) != EMPTY){\n            game.error = true;\n            // game.msg = \"Invalid Game (square is already occupied)\";\n            return game;\n        }\n        int8[2][8] memory possibleDirections;\n        uint8  possibleDirectionsLength;\n        (possibleDirections, possibleDirectionsLength) = getPossibleDirections(game, col, row);\n        // no valid directions\n        if (possibleDirectionsLength == 0) {\n            game.error = true;\n            // game.msg = \"Invalid Game (doesnt border other tiles)\";\n            return game;\n        }\n\n        bytes28 newFlips;\n        uint8 newFlipsLength;\n        uint8 newFlipCol;\n        uint8 newFlipRow;\n        uint8 j;\n        bool valid = false;\n        for (uint8 i = 0; i < possibleDirectionsLength; i++) {\n            delete newFlips;\n            delete newFlipsLength;\n            (newFlips, newFlipsLength) = traverseDirection(game, possibleDirections[i], col, row);\n            for (j = 0; j < newFlipsLength; j++) {\n                if (!valid) valid = true;\n                (newFlipCol, newFlipRow) = convertMove(readMove(newFlips, j, newFlipsLength));\n                game.board = turnTile(game.board, game.currentPlayer, newFlipCol, newFlipRow);\n                if (game.currentPlayer == WHITE) {\n                    game.whiteScore += 1;\n                    game.blackScore -= 1;\n                } else {\n                    game.whiteScore -= 1;\n                    game.blackScore += 1;\n                }\n            }\n        }\n\n        //no valid flips in directions\n        if (valid) {\n            game.board = turnTile(game.board, game.currentPlayer, col, row);\n            if (game.currentPlayer == WHITE) {\n                game.whiteScore += 1;\n            } else {\n                game.blackScore += 1;\n            }\n        } else {\n            game.error = true;\n            // game.msg = \"Invalid Game (doesnt flip any other tiles)\";\n            return game;\n        }\n\n        // switch players\n        if (game.currentPlayer == BLACK) {\n            game.currentPlayer = WHITE;\n        } else {\n            game.currentPlayer = BLACK;\n        }\n        return game;\n    }\n\n    function getPossibleDirections (Game memory game, uint8 col, uint8 row) internal pure returns(int8[2][8], uint8){\n\n        int8[2][8] memory possibleDirections;\n        uint8 possibleDirectionsLength = 0;\n        int8[2][8] memory dirs = [\n            [int8(-1), int8(0)], // W\n            [int8(-1), int8(1)], // SW\n            [int8(0), int8(1)], // S\n            [int8(1), int8(1)], // SE\n            [int8(1), int8(0)], // E\n            [int8(1), int8(-1)], // NE\n            [int8(0), int8(-1)], // N\n            [int8(-1), int8(-1)] // NW\n        ];\n        int8 focusedRowPos;\n        int8 focusedColPos;\n        int8[2] memory dir;\n        uint8 testSquare;\n\n        for (uint8 i = 0; i < 8; i++) {\n            dir = dirs[i];\n            focusedColPos = int8(col) + dir[0];\n            focusedRowPos = int8(row) + dir[1];\n\n            // if tile is off the board it is not a valid move\n            if (!(focusedRowPos > 7 || focusedRowPos < 0 || focusedColPos > 7 || focusedColPos < 0)) {\n                testSquare = returnTile(game.board, uint8(focusedColPos), uint8(focusedRowPos));\n\n                // if the surrounding tile is current color or no color it can\"t be part of a capture\n                if (testSquare != game.currentPlayer) {\n                    if (testSquare != EMPTY) {\n                        possibleDirections[possibleDirectionsLength] = dir;\n                        possibleDirectionsLength++;\n                    }\n                }\n            }\n        }\n        return (possibleDirections, possibleDirectionsLength);\n    }\n\n    function traverseDirection (Game memory game, int8[2] dir, uint8 col, uint8 row) internal pure returns(bytes28, uint8) {\n        bytes28 potentialFlips;\n        uint8 potentialFlipsLength = 0;\n\n        if (game.currentPlayer == BLACK) {\n            uint8 opponentColor = WHITE;\n        } else {\n            opponentColor = BLACK;\n        }\n\n        // take one step at a time in this direction\n        // ignoring the first step look for the same color as your tile\n        bool skip = false;\n        int8 testCol;\n        int8 testRow;\n        uint8 tile;\n        for (uint8 j = 1; j < 9; j++) {\n            if (!skip) {\n                testCol = (int8(j) * dir[0]) + int8(col);\n                testRow = (int8(j) * dir[1]) + int8(row);\n                // ran off the board before hitting your own tile\n                if (testCol > 7 || testCol < 0 || testRow > 7 || testRow < 0) {\n                    delete potentialFlips;\n                    potentialFlipsLength = 0;\n                    skip = true;\n                } else{\n\n                    tile = returnTile(game.board, uint8(testCol), uint8(testRow));\n\n                    if (tile == opponentColor) {\n                        // if tile is opposite color it could be flipped, so add to potential flip array\n                        (potentialFlips, potentialFlipsLength) = addMove(potentialFlips, potentialFlipsLength, uint8(testCol), uint8(testRow));\n                    } else if (tile == game.currentPlayer && j > 1) {\n                        // hit current players tile which means capture is complete\n                        skip = true;\n                    } else {\n                        // either hit current players own color before hitting an opponent\"s\n                        // or hit an empty space\n                        delete potentialFlips;\n                        delete potentialFlipsLength;\n                        skip = true;\n                    }\n                }\n            }\n        }\n        return (potentialFlips, potentialFlipsLength);\n    }\n\n    function isComplete (Game memory game) internal pure returns (Game) {\n\n        if (game.moveKey == 60) {\n            // game.msg = \"good game\";\n            game.complete = true;\n            return game;\n        } else {\n            uint8[2][60] memory empties;\n            uint8 emptiesLength = 0;\n            for (uint8 i = 0; i < 64; i++) {\n                uint8 tile = returnTile(game.board, ((i - (i % 8)) / 8), (i % 8));\n                if (tile == EMPTY) {\n                    empties[emptiesLength] = [((i - (i % 8)) / 8), (i % 8)];\n                    emptiesLength++;\n                }\n            }\n            bool validMovesRemains = false;\n            if (emptiesLength > 0) {\n                bytes16 board = game.board;\n                uint8[2] memory move;\n                for (i = 0; i < emptiesLength && !validMovesRemains; i++) {\n                    move = empties[i];\n\n                    game.currentPlayer = BLACK;\n                    game.error = false;\n                    game.board = board;\n                    game = makeMove(game, move[0], move[1]);\n                    if (!game.error) {\n                        validMovesRemains = true;\n                    }\n                    game.currentPlayer = WHITE;\n                    game.error = false;\n                    game.board = board;\n                    game = makeMove(game, move[0], move[1]);\n                    if (!game.error) {\n                        validMovesRemains = true;\n                    }\n                }\n                game.board = board;\n            }\n            if (validMovesRemains) {\n                game.error = true;\n                // game.msg = \"Invalid Game (moves still available)\";\n            } else {\n                // game.msg = \"good game\";\n                game.complete = true;\n                game.error = false;\n            }\n        }\n        return game;\n    }\n\n    function isSymmetrical (Game memory game) internal pure returns (Game) {\n        bool RotSym = true;\n        bool Y0Sym = true;\n        bool X0Sym = true;\n        bool XYSym = true;\n        bool XnYSym = true;\n        for (uint8 i = 0; i < 8 && (RotSym || Y0Sym || X0Sym || XYSym || XnYSym); i++) {\n            for (uint8 j = 0; j < 8 && (RotSym || Y0Sym || X0Sym || XYSym || XnYSym); j++) {\n\n                // rotational symmetry\n                if (returnBytes(game.board, i, j) != returnBytes(game.board, (7 - i), (7 - j))) {\n                    RotSym = false;\n                }\n                // symmetry on y = 0\n                if (returnBytes(game.board, i, j) != returnBytes(game.board, i, (7 - j))) {\n                    Y0Sym = false;\n                }\n                // symmetry on x = 0\n                if (returnBytes(game.board, i, j) != returnBytes(game.board, (7 - i), j)) {\n                    X0Sym = false;\n                }\n                // symmetry on x = y\n                if (returnBytes(game.board, i, j) != returnBytes(game.board, (7 - j), (7 - i))) {\n                    XYSym = false;\n                }\n                // symmetry on x = -y\n                if (returnBytes(game.board, i, j) != returnBytes(game.board, j, i)) {\n                    XnYSym = false;\n                }\n            }\n        }\n        if (RotSym || Y0Sym || X0Sym || XYSym || XnYSym) {\n            game.symmetrical = true;\n            game.RotSym = RotSym;\n            game.Y0Sym = Y0Sym;\n            game.X0Sym = X0Sym;\n            game.XYSym = XYSym;\n            game.XnYSym = XnYSym;\n        }\n        return game;\n    }\n\n\n\n    // Utilities\n\n    function returnSymmetricals (bool RotSym, bool Y0Sym, bool X0Sym, bool XYSym, bool XnYSym) public constant returns (uint256) {\n        uint256 symmetries = (RotSym ? 1  : 0) << 1;\n        symmetries = (symmetries & (Y0Sym ? 1 : 0)) << 1;\n        symmetries = (symmetries & (X0Sym ? 1 : 0)) << 1;\n        symmetries = (symmetries & (XYSym ? 1 : 0)) << 1;\n        symmetries = symmetries & (XnYSym ? 1 : 0);\n        return symmetries;\n    }\n\n\n    function returnBytes (bytes16 board, uint8 col, uint8 row) internal pure returns (bytes16) {\n        uint128 push = posToPush(col, row);\n        return (board >> push) & bytes16(3);\n    }\n\n    function turnTile (bytes16 board, uint8 color, uint8 col, uint8 row) internal pure returns (bytes16){\n        if (col > 7) revert();\n        if (row > 7) revert();\n        uint128 push = posToPush(col, row);\n        bytes16 mask = bytes16(3) << push;// 0b00000011 (ones)\n\n        board = ((board ^ mask) & board);\n\n        return board | (bytes16(color) << push);\n    }\n\n    function returnTile (bytes16 board, uint8 col, uint8 row) internal pure returns (uint8){\n        uint128 push = posToPush(col, row);\n        bytes16 tile = (board >> push ) & bytes16(3);\n        return uint8(tile); // returns 2\n    }\n\n    function posToPush (uint8 col, uint8 row) internal pure returns (uint128){\n        return uint128(((64) - ((8 * col) + row + 1)) * 2);\n    }\n\n    function readMove (bytes28 moveSequence, uint8 moveKey, uint8 movesLength) public pure returns(uint8) {\n        bytes28 mask = bytes28(127);\n        uint8 push = (movesLength * 7) - (moveKey * 7) - 7;\n        return uint8((moveSequence >> push) & mask);\n    }\n\n    function addMove (bytes28 moveSequence, uint8 movesLength, uint8 col, uint8 row) internal pure returns (bytes28, uint8) {\n        bytes28 move = bytes28(col + (row * 8) + 64);\n        moveSequence = moveSequence << 7;\n        moveSequence = moveSequence | move;\n        movesLength++;\n        return (moveSequence, movesLength);\n    }\n\n    function validMove (uint8 move) internal pure returns(bool) {\n        return move >= 64;\n    }\n\n    function convertMove (uint8 move) public pure returns(uint8, uint8) {\n        move = move - 64;\n        uint8 col = move % 8;\n        uint8 row = (move - col) / 8;\n        return (col, row);\n    }\n\n\n}\n",
  "sourcePath": "/Users/billy/clovers/clovers-contracts/contracts/Reversi.sol",
  "compiler": {
    "name": "solc",
    "version": "0.4.24+commit.e67f0147.Emscripten.clang"
  },
  "schemaVersion": "2.0.1",
  "updatedAt": "2018-08-02T13:17:06.648Z"
}