{
  "contractName": "ReversiMock",
  "abi": [
    {
      "inputs": [],
      "payable": false,
      "stateMutability": "nonpayable",
      "type": "constructor"
    },
    {
      "constant": false,
      "inputs": [
        {
          "name": "moves",
          "type": "bytes28[2]"
        }
      ],
      "name": "logGame",
      "outputs": [],
      "payable": false,
      "stateMutability": "nonpayable",
      "type": "function"
    }
  ],
  "bytecode": "0x608060405234801561001057600080fd5b5061162b806100206000396000f300608060405260043610610041576000357c0100000000000000000000000000000000000000000000000000000000900463ffffffff168063564fd14214610046575b600080fd5b34801561005257600080fd5b506100966004803603810190808060400190600280602002604051908101604052809291908260026020028082843782019150505050509192919290505050610098565b005b6100a0611465565b6100a9826100af565b90505050565b6100b7611465565b6100bf611465565b6000806000806000808860006002811015156100d757fe5b602002015187610120019063ffffffff1916908163ffffffff19168152505088600160028110151561010557fe5b602002015187610140019063ffffffff1916908163ffffffff191681525050600087610180019060ff16908160ff16815250506002876101a0019060ff16908160ff16815250506002876101c0019060ff16908160ff168152505060008760000190151590811515815250506000876020019015159081151581525050600187610160019060ff16908160ff16815250506ffffffffffffffe7ffdbfffffffffffff700100000000000000000000000000000000028761010001906fffffffffffffffffffffffffffffffff191690816fffffffffffffffffffffffffffffffff191681525050600091505b603c8260ff16108015610202575085155b156103b157602087610180015160ff161061022257866101400151610229565b8661012001515b905061024b81602089610180015160ff1681151561024357fe5b0660206103f3565b945061025685610437565b809450819550505061026785610476565b15955060008260ff16148015610290575060028460ff1614158061028f575060038360ff1614155b5b156102ab576001955060018760000190151590811515815250505b851580156102bc575060088460ff16105b80156102cb575060088360ff16105b80156102db575060008460ff1610155b80156102eb575060008360ff1610155b156103a4576102fb878585610487565b965060018761018001510187610180019060ff16908160ff16815250508660000151156103a3576000876000019015159081151581525050600160ff1687610160015160ff16141561036057600287610160019060ff16908160ff1681525050610375565b600187610160019060ff16908160ff16815250505b610380878585610487565b96508660000151156103a2576001876000019015159081151581525050600195505b5b5b81806001019250506101f1565b866000015115156103e45760008760000190151590811515815250506103d687610789565b96506103e187610ac8565b96505b86975050505050505050919050565b6000806000607f64010000000002915060078086026007860203039050818160ff168763ffffffff19169060020a9004166401000000009004925050509392505050565b60008060008060408503945060088560ff1681151561045257fe5b069150600882860360ff1681151561046657fe5b0490508181935093505050915091565b600060408260ff1610159050919050565b61048f611465565b610497611519565b600080600080600080600080600360ff166104b88e61010001518e8e610dc0565b60ff161415156104db5760018d60000190151590811515815250508c9950610779565b6104e68d8d8d610e36565b809950819a50505060008860ff1614156105135760018d60000190151590811515815250508c9950610779565b60009150600090505b8760ff168160ff1610156106795760009650600095506105538d8a8360ff1660088110151561054757fe5b60200201518e8e611175565b8097508198505050600092505b8560ff168360ff16101561066c5781151561057a57600191505b61058d6105888885896103f3565b610437565b80955081965050506105ab8d61010001518e610160015187876112d9565b8d61010001906fffffffffffffffffffffffffffffffff191690816fffffffffffffffffffffffffffffffff191681525050600260ff168d610160015160ff16141561062a5760018d6101c0018181510191509060ff16908160ff168152505060018d6101a0018181510391509060ff16908160ff168152505061065f565b60018d6101c0018181510391509060ff16908160ff168152505060018d6101a0018181510191509060ff16908160ff16815250505b8280600101935050610560565b808060010191505061051c565b811561071a576106958d61010001518e61016001518e8e6112d9565b8d61010001906fffffffffffffffffffffffffffffffff191690816fffffffffffffffffffffffffffffffff191681525050600260ff168d610160015160ff1614156106fa5760018d6101c0018181510191509060ff16908160ff1681525050610715565b60018d6101a0018181510191509060ff16908160ff16815250505b610733565b60018d60000190151590811515815250508c9950610779565b600160ff168d610160015160ff1614156107605760028d610160019060ff16908160ff1681525050610775565b60018d610160019060ff16908160ff16815250505b8c99505b5050505050505050509392505050565b610791611465565b610799611548565b60008060008060006107a9611577565b603c89610180015160ff1614156107d3576001896020019015159081151581525050889750610abc565b60009550600094505b60408560ff1610156108b5576108268961010001516008808860ff1681151561080157fe5b06880360ff1681151561081057fe5b0460088860ff1681151561082057fe5b06610dc0565b9350600360ff168460ff1614156108a85760408051908101604052806008808860ff1681151561085257fe5b06880360ff1681151561086157fe5b0460ff1660ff16815260200160088760ff1681151561087c57fe5b0660ff1660ff16815250878760ff16603c8110151561089757fe5b602002018190525085806001019650505b84806001019550506107dc565b6000925060008660ff161115610a79578861010001519150600094505b8560ff168560ff161080156108e5575082155b15610a4557868560ff16603c811015156108fb57fe5b60200201519050600189610160019060ff16908160ff16815250506000896000019015159081151581525050818961010001906fffffffffffffffffffffffffffffffff191690816fffffffffffffffffffffffffffffffff19168152505061098b8982600060028110151561096d57fe5b602002015183600160028110151561098157fe5b6020020151610487565b98508860000151151561099d57600192505b600289610160019060ff16908160ff16815250506000896000019015159081151581525050818961010001906fffffffffffffffffffffffffffffffff191690816fffffffffffffffffffffffffffffffff191681525050610a2689826000600281101515610a0857fe5b6020020151836001600281101515610a1c57fe5b6020020151610487565b985088600001511515610a3857600192505b84806001019550506108d2565b818961010001906fffffffffffffffffffffffffffffffff191690816fffffffffffffffffffffffffffffffff1916815250505b8215610a95576001896000019015159081151581525050610ab8565b600189602001901515908115158152505060008960000190151590811515815250505b8897505b50505050505050919050565b610ad0611465565b60008060008060008060006001965060019550600194506001935060019250600091505b60088260ff16108015610b2457508680610b0b5750855b80610b135750845b80610b1b5750835b80610b235750825b5b15610d2957600090505b60088160ff16108015610b5e57508680610b455750855b80610b4d5750845b80610b555750835b80610b5d5750825b5b15610d1c57610b7989610100015183600703836007036113a5565b6fffffffffffffffffffffffffffffffff1916610b9c8a610100015184846113a5565b6fffffffffffffffffffffffffffffffff1916141515610bbb57600096505b610bce89610100015183836007036113a5565b6fffffffffffffffffffffffffffffffff1916610bf18a610100015184846113a5565b6fffffffffffffffffffffffffffffffff1916141515610c1057600095505b610c2389610100015183600703836113a5565b6fffffffffffffffffffffffffffffffff1916610c468a610100015184846113a5565b6fffffffffffffffffffffffffffffffff1916141515610c6557600094505b610c7b89610100015182600703846007036113a5565b6fffffffffffffffffffffffffffffffff1916610c9e8a610100015184846113a5565b6fffffffffffffffffffffffffffffffff1916141515610cbd57600093505b610ccd89610100015182846113a5565b6fffffffffffffffffffffffffffffffff1916610cf08a610100015184846113a5565b6fffffffffffffffffffffffffffffffff1916141515610d0f57600092505b8080600101915050610b2e565b8180600101925050610af4565b8680610d325750855b80610d3a5750845b80610d425750835b80610d4a5750825b15610db15760018960400190151590811515815250508689606001901515908115158152505085896080019015159081151581525050848960a0019015159081151581525050838960c0019015159081151581525050828960e00190151590811515815250505b88975050505050505050919050565b6000806000610dcf8585611401565b9150600370010000000000000000000000000000000002826fffffffffffffffffffffffffffffffff16876fffffffffffffffffffffffffffffffff19169060020a9004169050807001000000000000000000000000000000009004925050509392505050565b610e3e611519565b6000610e48611519565b6000610e52611519565b600080610e5d611599565b600080600096506101006040519081016040528060408051908101604052807fffffffffffffffffffffffffffffffffffffffffffffffffffffffffffffffff60000b60000b81526020016000800b60000b815250815260200160408051908101604052807fffffffffffffffffffffffffffffffffffffffffffffffffffffffffffffffff60000b60000b8152602001600160000b60000b815250815260200160408051908101604052806000800b60000b8152602001600160000b60000b81525081526020016040805190810160405280600160000b60000b8152602001600160000b60000b81525081526020016040805190810160405280600160000b60000b81526020016000800b60000b81525081526020016040805190810160405280600160000b60000b81526020017fffffffffffffffffffffffffffffffffffffffffffffffffffffffffffffffff60000b60000b815250815260200160408051908101604052806000800b60000b81526020017fffffffffffffffffffffffffffffffffffffffffffffffffffffffffffffffff60000b60000b815250815260200160408051908101604052807fffffffffffffffffffffffffffffffffffffffffffffffffffffffffffffffff60000b60000b81526020017fffffffffffffffffffffffffffffffffffffffffffffffffffffffffffffffff60000b60000b8152508152509550600090505b60088160ff16101561115f57858160ff1660088110151561108957fe5b6020020151925082600060028110151561109f57fe5b60200201518c0193508260016002811015156110b757fe5b60200201518b01945060078560000b13806110d5575060008560000b125b806110e3575060078460000b135b806110f1575060008460000b125b1515611152576111078d61010001518587610dc0565b91508c610160015160ff168260ff1614151561115157600360ff168260ff161415156111505782888860ff1660088110151561113f57fe5b602002018190525086806001019750505b5b5b808060010191505061106c565b8787995099505050505050505050935093915050565b60008060008060008060008060008060009650600160ff168e610160015160ff1614156111a557600295506111aa565b600195505b60009450600190505b60098160ff1610156112c2578415156112b5578b8d60006002811015156111d657fe5b602002015182020193508a8d60016002811015156111f057fe5b6020020151820201925060078460000b138061120f575060008460000b125b8061121d575060078360000b135b8061122b575060008360000b125b15611241576000975060009650600194506112b4565b6112518e61010001518585610dc0565b91508560ff168260ff16141561127a5761126d8888868661141d565b80985081995050506112b3565b8d610160015160ff168260ff16148015611297575060018160ff16115b156112a557600194506112b2565b6000975060009650600194505b5b5b5b80806001019150506111b3565b878799509950505050505050505094509492505050565b600080600060078560ff1611156112ef57600080fd5b60078460ff16111561130057600080fd5b61130a8585611401565b9150816fffffffffffffffffffffffffffffffff166003700100000000000000000000000000000000026fffffffffffffffffffffffffffffffff19169060020a02905086818818169650816fffffffffffffffffffffffffffffffff168660ff16700100000000000000000000000000000000026fffffffffffffffffffffffffffffffff19169060020a02871792505050949350505050565b6000806113b28484611401565b9050600370010000000000000000000000000000000002816fffffffffffffffffffffffffffffffff16866fffffffffffffffffffffffffffffffff19169060020a9004169150509392505050565b600060026001838560080201016040030260ff16905092915050565b600080600060406008850286010160ff1664010000000002905060078763ffffffff19169060020a029650808717965085806001019650508686925092505094509492505050565b6101e06040519081016040528060001515815260200160001515815260200160001515815260200160001515815260200160001515815260200160001515815260200160001515815260200160001515815260200160006fffffffffffffffffffffffffffffffff19168152602001600063ffffffff19168152602001600063ffffffff19168152602001600060ff168152602001600060ff168152602001600060ff168152602001600060ff1681525090565b610200604051908101604052806008905b6115326115bb565b81526020019060019003908161152a5790505090565b610f0060405190810160405280603c905b6115616115dd565b8152602001906001900390816115595790505090565b6040805190810160405280600290602082028038833980820191505090505090565b6040805190810160405280600290602082028038833980820191505090505090565b6040805190810160405280600290602082028038833980820191505090505090565b60408051908101604052806002906020820280388339808201915050905050905600a165627a7a72305820dd86488257e8b3a52cad00098b5812f77977637852843ae4241bc274e28240af0029",
  "source": "pragma solidity ^0.4.18;\n\n/**\n * ReversiMock helps w testing Reversi.sol\n */\n\nimport \"../Reversi.sol\";\n\n\ncontract ReversiMock {\n    function ReversiMock() public {}\n    function logGame(bytes28[2] moves) public {\n        Reversi.Game memory game = Reversi.playGame(moves);\n    }\n}",
  "sourcePath": "/Users/billy/clovers/clovers-contracts/contracts/mocks/ReversiMock.sol",
  "compiler": {
    "name": "solc",
    "version": "0.4.24+commit.e67f0147.Emscripten.clang"
  },
  "schemaVersion": "2.0.1",
  "updatedAt": "2018-07-28T12:26:00.608Z"
}