{
  "contractName": "ReversiMock",
  "abi": [
    {
      "inputs": [],
      "payable": false,
      "stateMutability": "nonpayable",
      "type": "constructor"
    },
    {
      "constant": false,
      "inputs": [
        {
          "name": "moves",
          "type": "bytes28[2]"
        }
      ],
      "name": "logGame",
      "outputs": [],
      "payable": false,
      "stateMutability": "nonpayable",
      "type": "function"
    }
  ],
  "bytecode": "0x608060405234801561001057600080fd5b506110a1806100206000396000f3006080604052600436106100405763ffffffff7c0100000000000000000000000000000000000000000000000000000000600035041663564fd1428114610045575b600080fd5b34801561005157600080fd5b5060408051808201825261008591369160049160449190839060029083908390808284375093965061008795505050505050565b005b61009081610094565b5050565b61009c610f80565b6100a4610f80565b82517fffffffffffffffffffffffffffffffffffffffffffffffffffffffff000000009081166101208301526020808501519091166101408301526000610180830181905260026101a084018190526101c084015280835290820181905260016101608301527ffffffffffffffe7ffdbfffffffffffff0000000000000000000000000000000061010083015280808080805b603c8260ff16108015610148575085155b1561029957602087610180015160ff16106101685786610140015161016f565b8661012001515b905061019181602089610180015160ff1681151561018957fe5b0660206102cc565b945061019c8561033b565b90945092506101aa85610376565b15955060ff82161580156101d057508360ff1660021415806101d057508260ff16600314155b156101dd57600180885295505b851580156101ee575060088460ff16105b80156101fd575060088360ff16105b801561020d575060008460ff1610155b801561021d575060008360ff1610155b1561028e5761022d878585610383565b6101808101805160010160ff16905280519097501561028e576000875261016087015160ff1660011415610268576002610160880152610271565b60016101608801525b61027c878585610383565b80519097501561028e57600180885295505b600190910190610137565b865115156102bc57600087526102ae876105f7565b96506102b9876107f3565b96505b8697505b50505050505050919050565b640100000000647f00000000600793840292909302919091037ffffffffffffffffffffffffffffffffffffffffffffffffffffffffffffffff90160ff1660020a7fffffffffffffffffffffffffffffffffffffffffffffffffffffffff000000009390931692909204160490565b7fffffffffffffffffffffffffffffffffffffffffffffffffffffffffffffffc081810160071692600860ff93859003909201929092160490565b604060ff82161015919050565b61038b610f80565b610393610ffc565b600080600080600080600080600360ff166103b48e61010001518e8e610a7e565b60ff16146103c85760018d528c99506105e7565b6103d38d8d8d610af0565b909950975060ff881615156103ee5760018d528c99506105e7565b5060009050805b8760ff168160ff16101561054157600096508695506104298d8a60ff84166008811061041d57fe5b60200201518e8e610cd5565b9097509550600092505b8560ff168360ff1610156105395781151561044d57600191505b61046061045b8885896102cc565b61033b565b809550819650505061047e8d61010001518e61016001518787610e0b565b6fffffffffffffffffffffffffffffffff19166101008e01526101608d015160ff16600214156104ed576101c08d01805160010160ff9081169091526101a08e0180517fffffffffffffffffffffffffffffffffffffffffffffffffffffffffffffffff01909116905261052e565b6101c08d0180517fffffffffffffffffffffffffffffffffffffffffffffffffffffffffffffffff0160ff9081169091526101a08e01805160010190911690525b600190920191610433565b6001016103f5565b81156105b05761055d8d61010001518e61016001518e8e610e0b565b6fffffffffffffffffffffffffffffffff19166101008e01526101608d015160ff166002141561059b576101c08d01805160010160ff1690526105ab565b6101a08d01805160010160ff1690525b6105bc565b60018d528c99506105e7565b6101608d015160ff16600114156105da5760026101608e01526105e3565b60016101608e01525b8c99505b5050505050505050509392505050565b6105ff610f80565b61060761102b565b600080600080600061061761105a565b88610180015160ff16603c141561063757600160208a01528897506102c0565b60009550600094505b60408560ff1610156106c35761010089015161066b90600860078816880360ff160460078816610a7e565b935060ff8416600314156106b8576040805180820190915260086007871680880360ff9081169290920482168352602083015288908816603c81106106ac57fe5b60200201526001909501945b600190940193610640565b6000925060008660ff1611156107cb578861010001519150600094505b8560ff168560ff161080156106f3575082155b156107b0578660ff8616603c811061070757fe5b602002015160016101608b01526000808b526fffffffffffffffffffffffffffffffff1984166101008c0152909150610751908a9083905b60200201518360016020020151610383565b8051909950151561076157600192505b60026101608a01526000808a526fffffffffffffffffffffffffffffffff1983166101008b0152610795908a90839061073f565b805190995015156107a557600192505b6001909401936106e0565b6fffffffffffffffffffffffffffffffff1982166101008a01525b82156107da57600189526107e6565b600160208a0152600089525b5096979650505050505050565b6107fb610f80565b6001808080806000805b60088260ff161080156108345750868061081c5750855b806108245750845b8061082c5750835b806108345750825b15610a26575060005b60088160ff1610801561086c575086806108545750855b8061085c5750845b806108645750835b8061086c5750825b15610a1b576108878961010001518360070383600703610ead565b6fffffffffffffffffffffffffffffffff19166108aa8a61010001518484610ead565b6fffffffffffffffffffffffffffffffff1916146108c757600096505b6108da8961010001518383600703610ead565b6fffffffffffffffffffffffffffffffff19166108fd8a61010001518484610ead565b6fffffffffffffffffffffffffffffffff19161461091a57600095505b61092d8961010001518360070383610ead565b6fffffffffffffffffffffffffffffffff19166109508a61010001518484610ead565b6fffffffffffffffffffffffffffffffff19161461096d57600094505b6109838961010001518260070384600703610ead565b6fffffffffffffffffffffffffffffffff19166109a68a61010001518484610ead565b6fffffffffffffffffffffffffffffffff1916146109c357600093505b6109d38961010001518284610ead565b6fffffffffffffffffffffffffffffffff19166109f68a61010001518484610ead565b6fffffffffffffffffffffffffffffffff191614610a1357600092505b60010161083d565b600190910190610805565b8680610a2f5750855b80610a375750845b80610a3f5750835b80610a475750825b156107e65750506001604088015293151560608701529115156080860152151560a0850152151560c0840152151560e08301525090565b6000806000610a8d8585610f04565b7001000000000000000000000000000000006fffffffffffffffffffffffffffffffff821660020a6fffffffffffffffffffffffffffffffff19891604700300000000000000000000000000000000169081049450909250905050509392505050565b610af8610ffc565b6000610b02610ffc565b6000610b0c610ffc565b600080610b1761105a565b60408051610140810182527fffffffffffffffffffffffffffffffffffffffffffffffffffffffffffffffff61010082018181526000610120840181905290835283518085018552828152600160208281018290528086019290925285518087018752838152808301829052858701528551808701875281815280830182905260608601528551808701875281815280830184905260808601528551808701875290815280820184905260a08501528451808601865282815280820184905260c0850152845180860190955282855284019190915260e0820192909252909550935084805b60088160ff161015610cc2578560ff821660088110610c1757fe5b6020020151925082600060200201518c01935082600160200201518b01945060078560000b1380610c4b575060008560000b125b80610c59575060078460000b135b80610c67575060008460000b125b1515610cba57610c7d8d61010001518587610a7e565b91508c610160015160ff168260ff16141515610cba5760ff8216600314610cba57828860ff891660088110610cae57fe5b60200201526001909601955b600101610bfc565b50959b949a509398505050505050505050565b60008060008060008060008060008060009650600160ff168e610160015160ff161415610d055760029550610d0a565b600195505b506000935060015b60098160ff161015610df757841515610def578c5160208e01519082028d01945081028b0192506007600085900b1380610d4f575060008460000b125b80610d5d575060078360000b135b80610d6b575060008360000b125b15610d8157600097506000965060019450610def565b610d918e61010001518585610a7e565b91508560ff168260ff161415610db757610dad88888686610f39565b9098509650610def565b8d610160015160ff168260ff16148015610dd4575060018160ff16115b15610de25760019450610def565b6000975060009650600194505b600101610d12565b50959c949b50939950505050505050505050565b600080600060078560ff161115610e2157600080fd5b60078460ff161115610e3257600080fd5b610e3c8585610f04565b6fffffffffffffffffffffffffffffffff811660020a70030000000000000000000000000000000081028981189099169860ff8916700100000000000000000000000000000000026fffffffffffffffffffffffffffffffff19169091028917945090925090505050949350505050565b600080610eba8484610f04565b6fffffffffffffffffffffffffffffffff811660020a6fffffffffffffffffffffffffffffffff198716047003000000000000000000000000000000001692509050509392505050565b600891909102016040037fffffffffffffffffffffffffffffffffffffffffffffffffffffffffffffffff0160020260ff1690565b6008020160400160ff16640100000000027fffffffffffffffffffffffffffffffffffffffffffffffffffffffff0000000092909216608002919091179160019190910190565b604080516101e081018252600080825260208201819052918101829052606081018290526080810182905260a0810182905260c0810182905260e08101829052610100810182905261012081018290526101408101829052610160810182905261018081018290526101a081018290526101c081019190915290565b610200604051908101604052806008905b61101561105a565b81526020019060019003908161100d5790505090565b610f0060405190810160405280603c905b61104461105a565b81526020019060019003908161103c5790505090565b604080518082018252906002908290803883395091929150505600a165627a7a723058204c7cb554eace11f2172c82409a4bda2d9e71b580fe0f311817fa5edac3fc5ebd0029",
  "source": "pragma solidity ^0.4.18;\n\n/**\n * ReversiMock helps w testing Reversi.sol\n */\n\nimport \"../Reversi.sol\";\n\n\ncontract ReversiMock {\n    function ReversiMock() public {}\n    function logGame(bytes28[2] moves) public {\n        Reversi.playGame(moves);\n    }\n}\n",
  "sourcePath": "/home/billy/GitHub.com/clovers-network/clovers-contracts/contracts/mocks/ReversiMock.sol",
  "compiler": {
    "name": "solc",
    "version": "0.4.24+commit.e67f0147.Emscripten.clang"
  },
  "schemaVersion": "2.0.1",
  "updatedAt": "2019-08-10T12:32:14.694Z"
}