{
  "contractName": "Reversi",
  "abi": [
    {
      "constant": true,
      "inputs": [],
      "name": "showColors",
      "outputs": [
        {
          "name": "",
          "type": "uint8"
        },
        {
          "name": "",
          "type": "uint8"
        },
        {
          "name": "",
          "type": "uint8"
        }
      ],
      "payable": false,
      "stateMutability": "pure",
      "type": "function"
    },
    {
      "constant": true,
      "inputs": [
        {
          "name": "moves",
          "type": "bytes28[2]"
        }
      ],
      "name": "isValid",
      "outputs": [
        {
          "name": "",
          "type": "bool"
        }
      ],
      "payable": false,
      "stateMutability": "pure",
      "type": "function"
    },
    {
      "constant": true,
      "inputs": [
        {
          "name": "moves",
          "type": "bytes28[2]"
        }
      ],
      "name": "getGame",
      "outputs": [
        {
          "name": "error",
          "type": "bool"
        },
        {
          "name": "complete",
          "type": "bool"
        },
        {
          "name": "symmetrical",
          "type": "bool"
        },
        {
          "name": "board",
          "type": "bytes16"
        },
        {
          "name": "currentPlayer",
          "type": "uint8"
        },
        {
          "name": "moveKey",
          "type": "uint8"
        }
      ],
      "payable": false,
      "stateMutability": "pure",
      "type": "function"
    },
    {
      "constant": true,
      "inputs": [
        {
          "name": "moveSequence",
          "type": "bytes28"
        },
        {
          "name": "moveKey",
          "type": "uint8"
        },
        {
          "name": "movesLength",
          "type": "uint8"
        }
      ],
      "name": "readMove",
      "outputs": [
        {
          "name": "",
          "type": "uint8"
        }
      ],
      "payable": false,
      "stateMutability": "pure",
      "type": "function"
    },
    {
      "constant": true,
      "inputs": [
        {
          "name": "move",
          "type": "uint8"
        }
      ],
      "name": "convertMove",
      "outputs": [
        {
          "name": "",
          "type": "uint8"
        },
        {
          "name": "",
          "type": "uint8"
        }
      ],
      "payable": false,
      "stateMutability": "pure",
      "type": "function"
    }
  ],
  "bytecode": "0x611aa2610030600b82828239805160001a6073146000811461002057610022565bfe5b5030600052607381538281f3007300000000000000000000000000000000000000003014606060405260043610610084576000357c0100000000000000000000000000000000000000000000000000000000900463ffffffff16806308d27c7f14610089578063271eff94146100b95780632f07d857146100e45780637898b3be14610104578063bec0cfa914610130575b600080fd5b61009e60046100999036906117d6565b61015b565b6040516100b0969594939291906118bf565b60405180910390f35b6100ce60046100c99036906117d6565b6101ae565b6040516100db91906118a4565b60405180910390f35b6100ec6101f5565b6040516100fb93929190611964565b60405180910390f35b610119600461011490369061184e565b61020b565b60405161012792919061193b565b60405180910390f35b61014560046101409036906117ff565b61024a565b6040516101529190611920565b60405180910390f35b60008060008060008061016c611580565b6101758861028e565b90508060000151816020015182604001518361010001518461016001518561018001519650965096509650965096505091939550919395565b60006101b8611580565b6101c18361028e565b90508060000151156101d657600091506101ef565b806020015115156101ea57600091506101ef565b600191505b50919050565b6000806000600360016002925092509250909192565b60008060008060408503945060088560ff1681151561022657fe5b069150600882860360ff1681151561023a57fe5b0490508181935093505050915091565b6000806000607f64010000000002915060078086026007860203039050818160ff168763ffffffff19169060020a9004166401000000009004925050509392505050565b610296611580565b61029e611580565b6000806000806000808860006002811015156102b657fe5b602002015187610120019063ffffffff1916908163ffffffff1916815250508860016002811015156102e457fe5b602002015187610140019063ffffffff1916908163ffffffff191681525050600087610180019060ff16908160ff16815250506002876101a0019060ff16908160ff16815250506002876101c0019060ff16908160ff168152505060008760000190151590811515815250506000876020019015159081151581525050600187610160019060ff16908160ff16815250506ffffffffffffffe7ffdbfffffffffffff700100000000000000000000000000000000028761010001906fffffffffffffffffffffffffffffffff191690816fffffffffffffffffffffffffffffffff191681525050600091505b603c8260ff161080156103e1575085155b1561054f57602087610180015160ff161061040157866101400151610408565b8661012001515b905061042a81602089610180015160ff1681151561042257fe5b06602061024a565b94506104358561020b565b809450819550505061044685610591565b1595508515801561045a575060088460ff16105b8015610469575060088360ff16105b8015610479575060008460ff1610155b8015610489575060008360ff1610155b15610542576104998785856105a2565b965060018761018001510187610180019060ff16908160ff1681525050866000015115610541576000876000019015159081151581525050600160ff1687610160015160ff1614156104fe57600287610160019060ff16908160ff1681525050610513565b600187610160019060ff16908160ff16815250505b61051e8785856105a2565b9650866000015115610540576001876000019015159081151581525050600195505b5b5b81806001019250506103d0565b86600001511515610582576000876000019015159081151581525050610574876108a4565b965061057f87610be3565b96505b86975050505050505050919050565b600060408260ff1610159050919050565b6105aa611580565b6105b2611634565b600080600080600080600080600360ff166105d38e61010001518e8e610edb565b60ff161415156105f65760018d60000190151590811515815250508c9950610894565b6106018d8d8d610f51565b809950819a50505060008860ff16141561062e5760018d60000190151590811515815250508c9950610894565b60009150600090505b8760ff168160ff16101561079457600096506000955061066e8d8a8360ff1660088110151561066257fe5b60200201518e8e611290565b8097508198505050600092505b8560ff168360ff1610156107875781151561069557600191505b6106a86106a388858961024a565b61020b565b80955081965050506106c68d61010001518e610160015187876113f4565b8d61010001906fffffffffffffffffffffffffffffffff191690816fffffffffffffffffffffffffffffffff191681525050600260ff168d610160015160ff1614156107455760018d6101c0018181510191509060ff16908160ff168152505060018d6101a0018181510391509060ff16908160ff168152505061077a565b60018d6101c0018181510391509060ff16908160ff168152505060018d6101a0018181510191509060ff16908160ff16815250505b828060010193505061067b565b8080600101915050610637565b8115610835576107b08d61010001518e61016001518e8e6113f4565b8d61010001906fffffffffffffffffffffffffffffffff191690816fffffffffffffffffffffffffffffffff191681525050600260ff168d610160015160ff1614156108155760018d6101c0018181510191509060ff16908160ff1681525050610830565b60018d6101a0018181510191509060ff16908160ff16815250505b61084e565b60018d60000190151590811515815250508c9950610894565b600160ff168d610160015160ff16141561087b5760028d610160019060ff16908160ff1681525050610890565b60018d610160019060ff16908160ff16815250505b8c99505b5050505050505050509392505050565b6108ac611580565b6108b4611663565b60008060008060006108c4611692565b603c89610180015160ff1614156108ee576001896020019015159081151581525050889750610bd7565b60009550600094505b60408560ff1610156109d0576109418961010001516008808860ff1681151561091c57fe5b06880360ff1681151561092b57fe5b0460088860ff1681151561093b57fe5b06610edb565b9350600360ff168460ff1614156109c35760408051908101604052806008808860ff1681151561096d57fe5b06880360ff1681151561097c57fe5b0460ff1660ff16815260200160088760ff1681151561099757fe5b0660ff1660ff16815250878760ff16603c811015156109b257fe5b602002018190525085806001019650505b84806001019550506108f7565b6000925060008660ff161115610b94578861010001519150600094505b8560ff168560ff16108015610a00575082155b15610b6057868560ff16603c81101515610a1657fe5b60200201519050600189610160019060ff16908160ff16815250506000896000019015159081151581525050818961010001906fffffffffffffffffffffffffffffffff191690816fffffffffffffffffffffffffffffffff191681525050610aa689826000600281101515610a8857fe5b6020020151836001600281101515610a9c57fe5b60200201516105a2565b985088600001511515610ab857600192505b600289610160019060ff16908160ff16815250506000896000019015159081151581525050818961010001906fffffffffffffffffffffffffffffffff191690816fffffffffffffffffffffffffffffffff191681525050610b4189826000600281101515610b2357fe5b6020020151836001600281101515610b3757fe5b60200201516105a2565b985088600001511515610b5357600192505b84806001019550506109ed565b818961010001906fffffffffffffffffffffffffffffffff191690816fffffffffffffffffffffffffffffffff1916815250505b8215610bb0576001896000019015159081151581525050610bd3565b600189602001901515908115158152505060008960000190151590811515815250505b8897505b50505050505050919050565b610beb611580565b60008060008060008060006001965060019550600194506001935060019250600091505b60088260ff16108015610c3f57508680610c265750855b80610c2e5750845b80610c365750835b80610c3e5750825b5b15610e4457600090505b60088160ff16108015610c7957508680610c605750855b80610c685750845b80610c705750835b80610c785750825b5b15610e3757610c9489610100015183600703836007036114c0565b6fffffffffffffffffffffffffffffffff1916610cb78a610100015184846114c0565b6fffffffffffffffffffffffffffffffff1916141515610cd657600096505b610ce989610100015183836007036114c0565b6fffffffffffffffffffffffffffffffff1916610d0c8a610100015184846114c0565b6fffffffffffffffffffffffffffffffff1916141515610d2b57600095505b610d3e89610100015183600703836114c0565b6fffffffffffffffffffffffffffffffff1916610d618a610100015184846114c0565b6fffffffffffffffffffffffffffffffff1916141515610d8057600094505b610d9689610100015182600703846007036114c0565b6fffffffffffffffffffffffffffffffff1916610db98a610100015184846114c0565b6fffffffffffffffffffffffffffffffff1916141515610dd857600093505b610de889610100015182846114c0565b6fffffffffffffffffffffffffffffffff1916610e0b8a610100015184846114c0565b6fffffffffffffffffffffffffffffffff1916141515610e2a57600092505b8080600101915050610c49565b8180600101925050610c0f565b8680610e4d5750855b80610e555750845b80610e5d5750835b80610e655750825b15610ecc5760018960400190151590811515815250508689606001901515908115158152505085896080019015159081151581525050848960a0019015159081151581525050838960c0019015159081151581525050828960e00190151590811515815250505b88975050505050505050919050565b6000806000610eea858561151c565b9150600370010000000000000000000000000000000002826fffffffffffffffffffffffffffffffff16876fffffffffffffffffffffffffffffffff19169060020a9004169050807001000000000000000000000000000000009004925050509392505050565b610f59611634565b6000610f63611634565b6000610f6d611634565b600080610f786116bc565b600080600096506101006040519081016040528060408051908101604052807fffffffffffffffffffffffffffffffffffffffffffffffffffffffffffffffff60000b60000b81526020016000800b60000b815250815260200160408051908101604052807fffffffffffffffffffffffffffffffffffffffffffffffffffffffffffffffff60000b60000b8152602001600160000b60000b815250815260200160408051908101604052806000800b60000b8152602001600160000b60000b81525081526020016040805190810160405280600160000b60000b8152602001600160000b60000b81525081526020016040805190810160405280600160000b60000b81526020016000800b60000b81525081526020016040805190810160405280600160000b60000b81526020017fffffffffffffffffffffffffffffffffffffffffffffffffffffffffffffffff60000b60000b815250815260200160408051908101604052806000800b60000b81526020017fffffffffffffffffffffffffffffffffffffffffffffffffffffffffffffffff60000b60000b815250815260200160408051908101604052807fffffffffffffffffffffffffffffffffffffffffffffffffffffffffffffffff60000b60000b81526020017fffffffffffffffffffffffffffffffffffffffffffffffffffffffffffffffff60000b60000b8152508152509550600090505b60088160ff16101561127a57858160ff166008811015156111a457fe5b602002015192508260006002811015156111ba57fe5b60200201518c0193508260016002811015156111d257fe5b60200201518b01945060078560000b13806111f0575060008560000b125b806111fe575060078460000b135b8061120c575060008460000b125b151561126d576112228d61010001518587610edb565b91508c610160015160ff168260ff1614151561126c57600360ff168260ff1614151561126b5782888860ff1660088110151561125a57fe5b602002018190525086806001019750505b5b5b8080600101915050611187565b8787995099505050505050505050935093915050565b60008060008060008060008060008060009650600160ff168e610160015160ff1614156112c057600295506112c5565b600195505b60009450600190505b60098160ff1610156113dd578415156113d0578b8d60006002811015156112f157fe5b602002015182020193508a8d600160028110151561130b57fe5b6020020151820201925060078460000b138061132a575060008460000b125b80611338575060078360000b135b80611346575060008360000b125b1561135c576000975060009650600194506113cf565b61136c8e61010001518585610edb565b91508560ff168260ff1614156113955761138888888686611538565b80985081995050506113ce565b8d610160015160ff168260ff161480156113b2575060018160ff16115b156113c057600194506113cd565b6000975060009650600194505b5b5b5b80806001019150506112ce565b878799509950505050505050505094509492505050565b600080600060078560ff16111561140a57600080fd5b60078460ff16111561141b57600080fd5b611425858561151c565b9150816fffffffffffffffffffffffffffffffff166003700100000000000000000000000000000000026fffffffffffffffffffffffffffffffff19169060020a02905086818818169650816fffffffffffffffffffffffffffffffff168660ff16700100000000000000000000000000000000026fffffffffffffffffffffffffffffffff19169060020a02871792505050949350505050565b6000806114cd848461151c565b9050600370010000000000000000000000000000000002816fffffffffffffffffffffffffffffffff16866fffffffffffffffffffffffffffffffff19169060020a9004169150509392505050565b600060026001838560080201016040030260ff16905092915050565b600080600060406008850286010160ff1664010000000002905060078763ffffffff19169060020a029650808717965085806001019650508686925092505094509492505050565b6101e06040519081016040528060001515815260200160001515815260200160001515815260200160001515815260200160001515815260200160001515815260200160001515815260200160001515815260200160006fffffffffffffffffffffffffffffffff19168152602001600063ffffffff19168152602001600063ffffffff19168152602001600060ff168152602001600060ff168152602001600060ff168152602001600060ff1681525090565b610200604051908101604052806008905b61164d6116e5565b8152602001906001900390816116455790505090565b610f0060405190810160405280603c905b61167c61170e565b8152602001906001900390816116745790505090565b60408051908101604052806002905b600060ff168152602001906001900390816116a15790505090565b60408051908101604052806002905b6000800b8152602001906001900390816116cb5790505090565b60408051908101604052806002905b6000800b8152602001906001900390816116f45790505090565b60408051908101604052806002905b600060ff1681526020019060019003908161171d5790505090565b600082601f830112151561174b57600080fd5b600261175e611759826119c8565b61199b565b9150818385602084028201111561177457600080fd5b60005b838110156117a4578161178a88826117ae565b845260208401935060208301925050600181019050611777565b5050505092915050565b60006117ba8235611a2f565b905092915050565b60006117ce8235611a5b565b905092915050565b6000604082840312156117e857600080fd5b60006117f684828501611738565b91505092915050565b60008060006060848603121561181457600080fd5b6000611822868287016117ae565b9350506020611833868287016117c2565b9250506040611844868287016117c2565b9150509250925092565b60006020828403121561186057600080fd5b600061186e848285016117c2565b91505092915050565b611880816119ea565b82525050565b61188f816119f6565b82525050565b61189e81611a22565b82525050565b60006020820190506118b96000830184611877565b92915050565b600060c0820190506118d46000830189611877565b6118e16020830188611877565b6118ee6040830187611877565b6118fb6060830186611886565b6119086080830185611895565b61191560a0830184611895565b979650505050505050565b60006020820190506119356000830184611895565b92915050565b60006040820190506119506000830185611895565b61195d6020830184611895565b9392505050565b60006060820190506119796000830186611895565b6119866020830185611895565b6119936040830184611895565b949350505050565b6000604051905081810181811067ffffffffffffffff821117156119be57600080fd5b8060405250919050565b600067ffffffffffffffff8211156119df57600080fd5b602082029050919050565b60008115159050919050565b60007fffffffffffffffffffffffffffffffff0000000000000000000000000000000082169050919050565b600060ff82169050919050565b60007fffffffffffffffffffffffffffffffffffffffffffffffffffffffff0000000082169050919050565b600060ff821690509190505600a265627a7a72305820e0d84d939763e63e1bfd0c95e4347675586afc324e02f77d19b5700e5d648c3e6c6578706572696d656e74616cf50037",
  "source": "pragma solidity ^0.4.18;\npragma experimental ABIEncoderV2;\n\n\nlibrary Reversi {\n    // event DebugBool(bool boolean);\n    // event DebugBoard(bytes16 board);\n    // event DebugUint(uint u);\n    uint8 constant BLACK = 1; //0b01 //0x1\n    uint8 constant WHITE = 2; //0b10 //0x2\n    uint8 constant EMPTY = 3; //0b11 //0x3\n\n    struct Game {\n        bool error;\n        bool complete;\n        bool symmetrical;\n        bool RotSym;\n        bool Y0Sym;\n        bool X0Sym;\n        bool XYSym;\n        bool XnYSym;\n        bytes16 board;\n        bytes28 first32Moves;\n        bytes28 lastMoves;\n\n        uint8 currentPlayer;\n        uint8 moveKey;\n        uint8 blackScore;\n        uint8 whiteScore;\n        // string msg;\n    }\n\n\n    function showColors () public pure returns(uint8, uint8, uint8) {\n        return (EMPTY, BLACK, WHITE);\n    }\n\n    function isValid (bytes28[2] moves) public pure returns (bool) {\n      Game memory game = playGame(moves);\n      if (game.error) {\n        return false;\n      } else if (!game.complete) {\n        return false;\n      } else {\n        return true;\n      }\n    }\n\n    function getGame (bytes28[2] moves) public pure returns (bool error, bool complete, bool symmetrical, bytes16 board, uint8 currentPlayer, uint8 moveKey) {\n      Game memory game = playGame(moves);\n      return (\n         game.error,\n         game.complete,\n         game.symmetrical,\n         game.board,\n         game.currentPlayer,\n         game.moveKey\n         // game.msg\n      );\n    }\n\n    function playGame (bytes28[2] moves) internal pure returns (Game)  {\n        Game memory game;\n\n        game.first32Moves = moves[0];\n        game.lastMoves = moves[1];\n        game.moveKey = 0;\n        game.blackScore = 2;\n        game.whiteScore = 2;\n\n        game.error = false;\n        game.complete = false;\n        game.currentPlayer = BLACK;\n\n\n        // game.board = bytes16(10625432672847758622720); // completely empty board\n        game.board = bytes16(340282366920938456379662753540715053055); // empty board except for center pieces\n\n        bool skip;\n        uint8 move;\n        uint8 col;\n        uint8 row;\n        uint8 i;\n        bytes28 currentMoves;\n\n        for (i = 0; i < 60 && !skip; i++) {\n            currentMoves = game.moveKey < 32 ? game.first32Moves : game.lastMoves;\n            move = readMove(currentMoves, game.moveKey % 32, 32);\n            (col, row) = convertMove(move);\n            skip = !validMove(move);\n            if (!skip && col < 8 && row < 8 && col >= 0 && row >= 0) {\n                // game.msg = \"make a move\";\n                game = makeMove(game, col, row);\n                game.moveKey = game.moveKey + 1;\n                if (game.error) {\n                    game.error = false;\n                    // maybe player has no valid moves and must pass\n                    if (game.currentPlayer == BLACK) {\n                        game.currentPlayer = WHITE;\n                    } else {\n                        game.currentPlayer = BLACK;\n                    }\n                    game = makeMove(game, col, row);\n                    if (game.error) {\n                        game.error = true;\n                        skip = true;\n                    }\n                }\n            }\n        }\n        if (!game.error) {\n            game.error = false; \n            game = isComplete(game);\n            game = isSymmetrical(game);\n        }\n        return game;\n    }\n    \n    function makeMove (Game memory game, uint8 col, uint8 row) internal pure returns (Game)  {\n        // square is already occupied\n        if (returnTile(game.board, col, row) != EMPTY){\n            game.error = true;\n            // game.msg = \"Invalid Game (square is already occupied)\";\n            return game;\n        }\n        int8[2][8] memory possibleDirections;\n        uint8  possibleDirectionsLength;\n        (possibleDirections, possibleDirectionsLength) = getPossibleDirections(game, col, row);\n        // no valid directions\n        if (possibleDirectionsLength == 0) {\n            game.error = true;\n            // game.msg = \"Invalid Game (doesnt border other tiles)\";\n            return game;\n        }\n\n        bytes28 newFlips;\n        uint8 newFlipsLength;\n        uint8 newFlipCol;\n        uint8 newFlipRow;\n        uint8 j;\n        bool valid = false;\n        for (uint8 i = 0; i < possibleDirectionsLength; i++) {\n            delete newFlips;\n            delete newFlipsLength;\n            (newFlips, newFlipsLength) = traverseDirection(game, possibleDirections[i], col, row);\n            for (j = 0; j < newFlipsLength; j++) {\n                if (!valid) valid = true;\n                (newFlipCol, newFlipRow) = convertMove(readMove(newFlips, j, newFlipsLength));\n                game.board = turnTile(game.board, game.currentPlayer, newFlipCol, newFlipRow);\n                if (game.currentPlayer == WHITE) {\n                    game.whiteScore += 1;\n                    game.blackScore -= 1;\n                } else {\n                    game.whiteScore -= 1;\n                    game.blackScore += 1;\n                }\n            }\n        }\n\n        //no valid flips in directions\n        if (valid) {\n            game.board = turnTile(game.board, game.currentPlayer, col, row);\n            if (game.currentPlayer == WHITE) {\n                game.whiteScore += 1;\n            } else {\n                game.blackScore += 1;\n            }\n        } else {\n            game.error = true;\n            // game.msg = \"Invalid Game (doesnt flip any other tiles)\";\n            return game;\n        }\n\n        // switch players\n        if (game.currentPlayer == BLACK) {\n            game.currentPlayer = WHITE;\n        } else {\n            game.currentPlayer = BLACK;\n        }\n        return game;\n    }\n\n    function getPossibleDirections (Game memory game, uint8 col, uint8 row) internal pure returns(int8[2][8], uint8){\n\n        int8[2][8] memory possibleDirections;\n        uint8 possibleDirectionsLength = 0;\n        int8[2][8] memory dirs = [\n            [int8(-1), int8(0)], // W\n            [int8(-1), int8(1)], // SW\n            [int8(0), int8(1)], // S\n            [int8(1), int8(1)], // SE\n            [int8(1), int8(0)], // E\n            [int8(1), int8(-1)], // NE\n            [int8(0), int8(-1)], // N\n            [int8(-1), int8(-1)] // NW\n        ];\n        int8 focusedRowPos;\n        int8 focusedColPos;\n        int8[2] memory dir;\n        uint8 testSquare;\n\n        for (uint8 i = 0; i < 8; i++) {\n            dir = dirs[i];\n            focusedColPos = int8(col) + dir[0];\n            focusedRowPos = int8(row) + dir[1];\n\n            // if tile is off the board it is not a valid move\n            if (!(focusedRowPos > 7 || focusedRowPos < 0 || focusedColPos > 7 || focusedColPos < 0)) {\n                testSquare = returnTile(game.board, uint8(focusedColPos), uint8(focusedRowPos));\n\n                // if the surrounding tile is current color or no color it can\"t be part of a capture\n                if (testSquare != game.currentPlayer) {\n                    if (testSquare != EMPTY) {\n                        possibleDirections[possibleDirectionsLength] = dir;\n                        possibleDirectionsLength++;\n                    }\n                }\n            }\n        }\n        return (possibleDirections, possibleDirectionsLength);\n    }\n\n    function traverseDirection (Game memory game, int8[2] dir, uint8 col, uint8 row) internal pure returns(bytes28, uint8) {\n        bytes28 potentialFlips;\n        uint8 potentialFlipsLength = 0;\n\n        if (game.currentPlayer == BLACK) {\n            uint8 opponentColor = WHITE;\n        } else {\n            opponentColor = BLACK;\n        }\n\n        // take one step at a time in this direction\n        // ignoring the first step look for the same color as your tile\n        bool skip = false;\n        int8 testCol;\n        int8 testRow;\n        uint8 tile;\n        for (uint8 j = 1; j < 9; j++) {\n            if (!skip) {\n                testCol = (int8(j) * dir[0]) + int8(col);\n                testRow = (int8(j) * dir[1]) + int8(row);\n                // ran off the board before hitting your own tile\n                if (testCol > 7 || testCol < 0 || testRow > 7 || testRow < 0) {\n                    delete potentialFlips;\n                    potentialFlipsLength = 0;\n                    skip = true;\n                } else{\n\n                    tile = returnTile(game.board, uint8(testCol), uint8(testRow));\n\n                    if (tile == opponentColor) {\n                        // if tile is opposite color it could be flipped, so add to potential flip array\n                        (potentialFlips, potentialFlipsLength) = addMove(potentialFlips, potentialFlipsLength, uint8(testCol), uint8(testRow));\n                    } else if (tile == game.currentPlayer && j > 1) {\n                        // hit current players tile which means capture is complete\n                        skip = true;\n                    } else {\n                        // either hit current players own color before hitting an opponent\"s\n                        // or hit an empty space\n                        delete potentialFlips;\n                        delete potentialFlipsLength;\n                        skip = true;\n                    }\n                }\n            }\n        }\n        return (potentialFlips, potentialFlipsLength);\n    }\n\n    function isComplete (Game memory game) internal pure returns (Game) {\n\n        if (game.moveKey == 60) {\n            // game.msg = \"good game\";\n            game.complete = true;\n            return game;\n        } else {\n            uint8[2][60] memory empties;\n            uint8 emptiesLength = 0;\n            for (uint8 i = 0; i < 64; i++) {\n                uint8 tile = returnTile(game.board, ((i - (i % 8)) / 8), (i % 8));\n                if (tile == EMPTY) {\n                    empties[emptiesLength] = [((i - (i % 8)) / 8), (i % 8)];\n                    emptiesLength++;\n                }\n            }\n            bool validMovesRemains = false;\n            if (emptiesLength > 0) {\n                bytes16 board = game.board;\n                uint8[2] memory move;\n                for (i = 0; i < emptiesLength && !validMovesRemains; i++) {\n                    move = empties[i];\n                    \n                    game.currentPlayer = BLACK;\n                    game.error = false;\n                    game.board = board;\n                    game = makeMove(game, move[0], move[1]);\n                    if (!game.error) {\n                        validMovesRemains = true;\n                    }\n                    game.currentPlayer = WHITE;\n                    game.error = false;\n                    game.board = board;\n                    game = makeMove(game, move[0], move[1]);\n                    if (!game.error) {\n                        validMovesRemains = true;\n                    }\n                }\n                game.board = board;\n            } \n            if (validMovesRemains) {\n                game.error = true;\n                // game.msg = \"Invalid Game (moves still available)\";\n            } else {\n                // game.msg = \"good game\";\n                game.complete = true;\n                game.error = false;\n            }\n        }\n        return game;\n    }\n\n    function isSymmetrical (Game memory game) internal pure returns (Game) {\n        bool RotSym = true;\n        bool Y0Sym = true;\n        bool X0Sym = true;\n        bool XYSym = true;\n        bool XnYSym = true;\n        for (uint8 i = 0; i < 8 && (RotSym || Y0Sym || X0Sym || XYSym || XnYSym); i++) {\n            for (uint8 j = 0; j < 8 && (RotSym || Y0Sym || X0Sym || XYSym || XnYSym); j++) {\n\n                // rotational symmetry\n                if (returnBytes(game.board, i, j) != returnBytes(game.board, (7 - i), (7 - j))) {\n                    RotSym = false;\n                }\n                // symmetry on y = 0\n                if (returnBytes(game.board, i, j) != returnBytes(game.board, i, (7 - j))) {\n                    Y0Sym = false;\n                }\n                // symmetry on x = 0\n                if (returnBytes(game.board, i, j) != returnBytes(game.board, (7 - i), j)) {\n                    X0Sym = false;\n                }\n                // symmetry on x = y\n                if (returnBytes(game.board, i, j) != returnBytes(game.board, (7 - j), (7 - i))) {\n                    XYSym = false;\n                }\n                // symmetry on x = -y\n                if (returnBytes(game.board, i, j) != returnBytes(game.board, j, i)) {\n                    XnYSym = false;\n                }\n            }\n        }\n        if (RotSym || Y0Sym || X0Sym || XYSym || XnYSym) {\n            game.symmetrical = true;\n            game.RotSym = RotSym;\n            game.Y0Sym = Y0Sym;\n            game.X0Sym = X0Sym;\n            game.XYSym = XYSym;\n            game.XnYSym = XnYSym;\n        }\n        return game;\n    }\n\n\n\n    // Utilities\n\n\n    function returnBytes (bytes16 board, uint8 col, uint8 row) internal pure returns (bytes16) {\n        uint128 push = posToPush(col, row);\n        return (board >> push) & bytes16(3);\n    }\n\n    function turnTile (bytes16 board, uint8 color, uint8 col, uint8 row) internal pure returns (bytes16){\n        if (col > 7) revert();\n        if (row > 7) revert();\n        uint128 push = posToPush(col, row);\n        bytes16 mask = bytes16(3) << push;// 0b00000011 (ones)\n\n        board = ((board ^ mask) & board);\n\n        return board | (bytes16(color) << push);\n    }\n\n    function returnTile (bytes16 board, uint8 col, uint8 row) internal pure returns (uint8){\n        uint128 push = posToPush(col, row);\n        bytes16 tile = (board >> push ) & bytes16(3);\n        return uint8(tile); // returns 2\n    }\n\n    function posToPush (uint8 col, uint8 row) internal pure returns (uint128){\n        return uint128(((64) - ((8 * col) + row + 1)) * 2);\n    }\n\n    function readMove (bytes28 moveSequence, uint8 moveKey, uint8 movesLength) public pure returns(uint8) {\n        bytes28 mask = bytes28(127);\n        uint8 push = (movesLength * 7) - (moveKey * 7) - 7;\n        return uint8((moveSequence >> push) & mask);\n    }\n\n    function addMove (bytes28 moveSequence, uint8 movesLength, uint8 col, uint8 row) internal pure returns (bytes28, uint8) {\n        bytes28 move = bytes28(col + (row * 8) + 64);\n        moveSequence = moveSequence << 7;\n        moveSequence = moveSequence | move;\n        movesLength++;\n        return (moveSequence, movesLength);\n    }\n\n    function validMove (uint8 move) internal pure returns(bool) {\n        return move >= 64;\n    }\n\n    function convertMove (uint8 move) public pure returns(uint8, uint8) {\n        move = move - 64;\n        uint8 col = move % 8;\n        uint8 row = (move - col) / 8;\n        return (col, row);\n    }\n\n\n}",
  "sourcePath": "/Users/billy/sol/clovers-contracts/contracts/Reversi.sol",
  "compiler": {
    "name": "solc",
    "version": "0.4.21+commit.dfe3193c.Emscripten.clang"
  },
  "schemaVersion": "2.0.0",
  "updatedAt": "2018-05-02T14:16:29.786Z"
}