{
  "contractName": "SimpleCloversMarket",
  "abi": [
    {
      "constant": true,
      "inputs": [],
      "name": "clovers",
      "outputs": [
        {
          "name": "",
          "type": "address"
        }
      ],
      "payable": false,
      "stateMutability": "view",
      "type": "function"
    },
    {
      "constant": true,
      "inputs": [],
      "name": "cloversController",
      "outputs": [
        {
          "name": "",
          "type": "address"
        }
      ],
      "payable": false,
      "stateMutability": "view",
      "type": "function"
    },
    {
      "constant": false,
      "inputs": [],
      "name": "renounceOwnership",
      "outputs": [],
      "payable": false,
      "stateMutability": "nonpayable",
      "type": "function"
    },
    {
      "constant": true,
      "inputs": [],
      "name": "owner",
      "outputs": [
        {
          "name": "",
          "type": "address"
        }
      ],
      "payable": false,
      "stateMutability": "view",
      "type": "function"
    },
    {
      "constant": true,
      "inputs": [],
      "name": "clubTokenController",
      "outputs": [
        {
          "name": "",
          "type": "address"
        }
      ],
      "payable": false,
      "stateMutability": "view",
      "type": "function"
    },
    {
      "constant": true,
      "inputs": [],
      "name": "clubToken",
      "outputs": [
        {
          "name": "",
          "type": "address"
        }
      ],
      "payable": false,
      "stateMutability": "view",
      "type": "function"
    },
    {
      "constant": false,
      "inputs": [
        {
          "name": "_newOwner",
          "type": "address"
        }
      ],
      "name": "transferOwnership",
      "outputs": [],
      "payable": false,
      "stateMutability": "nonpayable",
      "type": "function"
    },
    {
      "inputs": [
        {
          "name": "_clovers",
          "type": "address"
        },
        {
          "name": "_clubToken",
          "type": "address"
        },
        {
          "name": "_clubTokenController",
          "type": "address"
        },
        {
          "name": "_cloversController",
          "type": "address"
        }
      ],
      "payable": false,
      "stateMutability": "nonpayable",
      "type": "constructor"
    },
    {
      "anonymous": false,
      "inputs": [
        {
          "indexed": false,
          "name": "_tokenId",
          "type": "uint256"
        },
        {
          "indexed": false,
          "name": "price",
          "type": "uint256"
        }
      ],
      "name": "updatePrice",
      "type": "event"
    },
    {
      "anonymous": false,
      "inputs": [
        {
          "indexed": true,
          "name": "previousOwner",
          "type": "address"
        }
      ],
      "name": "OwnershipRenounced",
      "type": "event"
    },
    {
      "anonymous": false,
      "inputs": [
        {
          "indexed": true,
          "name": "previousOwner",
          "type": "address"
        },
        {
          "indexed": true,
          "name": "newOwner",
          "type": "address"
        }
      ],
      "name": "OwnershipTransferred",
      "type": "event"
    },
    {
      "constant": true,
      "inputs": [
        {
          "name": "_tokenId",
          "type": "uint256"
        }
      ],
      "name": "sellFrom",
      "outputs": [
        {
          "name": "",
          "type": "address"
        }
      ],
      "payable": false,
      "stateMutability": "view",
      "type": "function"
    },
    {
      "constant": true,
      "inputs": [
        {
          "name": "_tokenId",
          "type": "uint256"
        }
      ],
      "name": "sellPrice",
      "outputs": [
        {
          "name": "",
          "type": "uint256"
        }
      ],
      "payable": false,
      "stateMutability": "view",
      "type": "function"
    },
    {
      "constant": false,
      "inputs": [
        {
          "name": "_clubTokenController",
          "type": "address"
        }
      ],
      "name": "updateClubTokenController",
      "outputs": [],
      "payable": false,
      "stateMutability": "nonpayable",
      "type": "function"
    },
    {
      "constant": false,
      "inputs": [
        {
          "name": "_cloversController",
          "type": "address"
        }
      ],
      "name": "updateCloversController",
      "outputs": [],
      "payable": false,
      "stateMutability": "nonpayable",
      "type": "function"
    },
    {
      "constant": false,
      "inputs": [
        {
          "name": "_clubToken",
          "type": "address"
        }
      ],
      "name": "updateClubToken",
      "outputs": [],
      "payable": false,
      "stateMutability": "nonpayable",
      "type": "function"
    },
    {
      "constant": false,
      "inputs": [
        {
          "name": "_clovers",
          "type": "address"
        }
      ],
      "name": "updateClovers",
      "outputs": [],
      "payable": false,
      "stateMutability": "nonpayable",
      "type": "function"
    },
    {
      "constant": false,
      "inputs": [
        {
          "name": "_tokenId",
          "type": "uint256"
        }
      ],
      "name": "removeSell",
      "outputs": [],
      "payable": false,
      "stateMutability": "nonpayable",
      "type": "function"
    },
    {
      "constant": false,
      "inputs": [
        {
          "name": "_tokenId",
          "type": "uint256"
        },
        {
          "name": "price",
          "type": "uint256"
        }
      ],
      "name": "sell",
      "outputs": [],
      "payable": false,
      "stateMutability": "nonpayable",
      "type": "function"
    },
    {
      "constant": false,
      "inputs": [
        {
          "name": "_tokenId",
          "type": "uint256"
        }
      ],
      "name": "buy",
      "outputs": [],
      "payable": true,
      "stateMutability": "payable",
      "type": "function"
    }
  ],
  "bytecode": "0x608060405234801561001057600080fd5b5060405160808061104d833981016040908152815160208301519183015160609093015160008054600160a060020a0319163317905590929061005b8464010000000061009a810204565b61006d836401000000006100d3810204565b61007f8264010000000061010c810204565b61009181640100000000610145810204565b5050505061017e565b600054600160a060020a031633146100b157600080fd5b60018054600160a060020a031916600160a060020a0392909216919091179055565b600054600160a060020a031633146100ea57600080fd5b60028054600160a060020a031916600160a060020a0392909216919091179055565b600054600160a060020a0316331461012357600080fd5b60038054600160a060020a031916600160a060020a0392909216919091179055565b600054600160a060020a0316331461015c57600080fd5b60048054600160a060020a031916600160a060020a0392909216919091179055565b610ec08061018d6000396000f3006080604052600436106100e55763ffffffff7c01000000000000000000000000000000000000000000000000000000006000350416630d576bfa81146100ea57806312414198146101285780631cfc02fc1461013d5780636713e4ee14610155578063715018a6146101855780637222489c1461019a5780638da5cb5b146101c8578063911e279c146101dd5780639564e180146102075780639f1c554c14610235578063a89b55da14610263578063afd399f214610278578063d76bbd5214610290578063d79875eb146102a5578063d96a094a146102c0578063f2fde38b146102cb575b600080fd5b3480156100f657600080fd5b506100ff6102f9565b6040805173ffffffffffffffffffffffffffffffffffffffff9092168252519081900360200190f35b34801561013457600080fd5b506100ff610315565b34801561014957600080fd5b506100ff600435610331565b34801561016157600080fd5b5061018373ffffffffffffffffffffffffffffffffffffffff60043516610359565b005b34801561019157600080fd5b506101836103c4565b3480156101a657600080fd5b5061018373ffffffffffffffffffffffffffffffffffffffff60043516610455565b3480156101d457600080fd5b506100ff6104c0565b3480156101e957600080fd5b506101f56004356104dc565b60408051918252519081900360200190f35b34801561021357600080fd5b5061018373ffffffffffffffffffffffffffffffffffffffff600435166104f1565b34801561024157600080fd5b5061018373ffffffffffffffffffffffffffffffffffffffff6004351661055c565b34801561026f57600080fd5b506100ff6105c7565b34801561028457600080fd5b506101836004356105e3565b34801561029c57600080fd5b506100ff610774565b3480156102b157600080fd5b50610183600435602435610790565b6101836004356109c3565b3480156102d757600080fd5b5061018373ffffffffffffffffffffffffffffffffffffffff60043516610db5565b60015473ffffffffffffffffffffffffffffffffffffffff1681565b60045473ffffffffffffffffffffffffffffffffffffffff1681565b60009081526005602052604090205473ffffffffffffffffffffffffffffffffffffffff1690565b60005473ffffffffffffffffffffffffffffffffffffffff16331461037d57600080fd5b600180547fffffffffffffffffffffffff00000000000000000000000000000000000000001673ffffffffffffffffffffffffffffffffffffffff92909216919091179055565b60005473ffffffffffffffffffffffffffffffffffffffff1633146103e857600080fd5b6000805460405173ffffffffffffffffffffffffffffffffffffffff909116917ff8df31144d9c2f0f6b59d69b8b98abd5459d07f2742c4df920b25aae33c6482091a2600080547fffffffffffffffffffffffff0000000000000000000000000000000000000000169055565b60005473ffffffffffffffffffffffffffffffffffffffff16331461047957600080fd5b600480547fffffffffffffffffffffffff00000000000000000000000000000000000000001673ffffffffffffffffffffffffffffffffffffffff92909216919091179055565b60005473ffffffffffffffffffffffffffffffffffffffff1681565b60009081526005602052604090206001015490565b60005473ffffffffffffffffffffffffffffffffffffffff16331461051557600080fd5b600380547fffffffffffffffffffffffff00000000000000000000000000000000000000001673ffffffffffffffffffffffffffffffffffffffff92909216919091179055565b60005473ffffffffffffffffffffffffffffffffffffffff16331461058057600080fd5b600280547fffffffffffffffffffffffff00000000000000000000000000000000000000001673ffffffffffffffffffffffffffffffffffffffff92909216919091179055565b60035473ffffffffffffffffffffffffffffffffffffffff1681565b600154604080517f6352211e000000000000000000000000000000000000000000000000000000008152600481018490529051600092839273ffffffffffffffffffffffffffffffffffffffff90911691636352211e9160248082019260209290919082900301818787803b15801561065b57600080fd5b505af115801561066f573d6000803e3d6000fd5b505050506040513d602081101561068557600080fd5b505160008481526005602052604090205490925073ffffffffffffffffffffffffffffffffffffffff908116915082163314806106ee57508073ffffffffffffffffffffffffffffffffffffffff168273ffffffffffffffffffffffffffffffffffffffff1614155b15156106f957600080fd5b600083815260056020908152604080832080547fffffffffffffffffffffffff000000000000000000000000000000000000000016815560010183905580518681529182019290925281517f82367b2d6e4540d07b2a6e64ecb6a2f8130985e6a17e157c3e556591c6b54f69929181900390910190a1505050565b60025473ffffffffffffffffffffffffffffffffffffffff1681565b6000811161079d57600080fd5b600154604080517f6352211e000000000000000000000000000000000000000000000000000000008152600481018590529051339273ffffffffffffffffffffffffffffffffffffffff1691636352211e9160248083019260209291908290030181600087803b15801561081057600080fd5b505af1158015610824573d6000803e3d6000fd5b505050506040513d602081101561083a57600080fd5b505173ffffffffffffffffffffffffffffffffffffffff161480610875575060045473ffffffffffffffffffffffffffffffffffffffff1633145b151561088057600080fd5b600082815260056020908152604080832060019081018590555481517f6352211e00000000000000000000000000000000000000000000000000000000815260048101879052915173ffffffffffffffffffffffffffffffffffffffff90911693636352211e93602480850194919392918390030190829087803b15801561090757600080fd5b505af115801561091b573d6000803e3d6000fd5b505050506040513d602081101561093157600080fd5b505160008381526005602090815260409182902080547fffffffffffffffffffffffff00000000000000000000000000000000000000001673ffffffffffffffffffffffffffffffffffffffff90941693909317909255805184815291820183905280517f82367b2d6e4540d07b2a6e64ecb6a2f8130985e6a17e157c3e556591c6b54f699281900390910190a15050565b600081815260056020526040812060018101549054909173ffffffffffffffffffffffffffffffffffffffff9091169082116109fe57600080fd5b600154604080517f6352211e00000000000000000000000000000000000000000000000000000000815260048101869052905173ffffffffffffffffffffffffffffffffffffffff808516931691636352211e9160248083019260209291908290030181600087803b158015610a7357600080fd5b505af1158015610a87573d6000803e3d6000fd5b505050506040513d6020811015610a9d57600080fd5b505173ffffffffffffffffffffffffffffffffffffffff1614610abf57600080fd5b600254604080517f70a082310000000000000000000000000000000000000000000000000000000081523360048201529051849273ffffffffffffffffffffffffffffffffffffffff16916370a082319160248083019260209291908290030181600087803b158015610b3157600080fd5b505af1158015610b45573d6000803e3d6000fd5b505050506040513d6020811015610b5b57600080fd5b50511015610c0457600354604080517ff088d547000000000000000000000000000000000000000000000000000000008152336004820152905173ffffffffffffffffffffffffffffffffffffffff9092169163f088d547913491602480830192602092919082900301818588803b158015610bd657600080fd5b505af1158015610bea573d6000803e3d6000fd5b50505050506040513d6020811015610c0157600080fd5b50505b600354604080517f23b872dd00000000000000000000000000000000000000000000000000000000815233600482015273ffffffffffffffffffffffffffffffffffffffff848116602483015260448201869052915191909216916323b872dd91606480830192600092919082900301818387803b158015610c8557600080fd5b505af1158015610c99573d6000803e3d6000fd5b505060048054604080517f23b872dd00000000000000000000000000000000000000000000000000000000815273ffffffffffffffffffffffffffffffffffffffff878116948201949094523360248201526044810189905290519290911693506323b872dd925060648082019260009290919082900301818387803b158015610d2257600080fd5b505af1158015610d36573d6000803e3d6000fd5b505050600084815260056020908152604080832080547fffffffffffffffffffffffff000000000000000000000000000000000000000016815560010183905580518781529182019290925281517f82367b2d6e4540d07b2a6e64ecb6a2f8130985e6a17e157c3e556591c6b54f6993509081900390910190a1505050565b60005473ffffffffffffffffffffffffffffffffffffffff163314610dd957600080fd5b610de281610de5565b50565b73ffffffffffffffffffffffffffffffffffffffff81161515610e0757600080fd5b6000805460405173ffffffffffffffffffffffffffffffffffffffff808516939216917f8be0079c531659141344cd1fd0a4f28419497f9722a3daafe3b4186f6b6457e091a3600080547fffffffffffffffffffffffff00000000000000000000000000000000000000001673ffffffffffffffffffffffffffffffffffffffff929092169190911790555600a165627a7a723058205199902d60f280e45a2b7cff5ba0355660c1a5c7715c53d8704e76173d4dfa440029",
  "source": "pragma solidity ^0.4.24;\n\nimport \"./IClovers.sol\";\nimport \"./IClubToken.sol\";\nimport \"./IClubTokenController.sol\";\nimport \"./ICloversController.sol\";\nimport \"zeppelin-solidity/contracts/ownership/Ownable.sol\";\nimport \"zeppelin-solidity/contracts/math/SafeMath.sol\";\n\ncontract SimpleCloversMarket is Ownable {\n\n    event updatePrice(uint256 _tokenId, uint256 price);\n\n\n    using SafeMath for uint256;\n\n    address public clovers;\n    address public clubToken;\n    address public clubTokenController;\n    address public cloversController;\n    struct Sell {\n        address from;\n        uint256 price;\n    }\n    mapping(uint256 => Sell) sells;\n    constructor(address _clovers, address _clubToken, address _clubTokenController, address _cloversController) public {\n        updateClovers(_clovers);\n        updateClubToken(_clubToken);\n        updateClubTokenController(_clubTokenController);\n        updateCloversController(_cloversController);\n    }\n    function sellFrom(uint256 _tokenId) public view returns(address) {\n        return sells[_tokenId].from;\n    }\n    function sellPrice(uint256 _tokenId) public view returns(uint256){\n        return sells[_tokenId].price;\n    }\n    function updateClubTokenController(address _clubTokenController) public onlyOwner {\n        clubTokenController = _clubTokenController;\n    }\n    function updateCloversController(address _cloversController) public onlyOwner {\n        cloversController = _cloversController;\n    }\n    function updateClubToken(address _clubToken) public onlyOwner {\n        clubToken = _clubToken;\n    }\n    function updateClovers(address _clovers) public onlyOwner {\n        clovers = _clovers;\n    }\n    function removeSell(uint256 _tokenId) public {\n        address owner = IClovers(clovers).ownerOf(_tokenId);\n        address seller = sells[_tokenId].from;\n        require(owner == msg.sender || owner != seller);\n        delete(sells[_tokenId]);\n        updatePrice(_tokenId, 0);\n    }\n\n    function sell(uint256 _tokenId, uint256 price) public {\n        require(price > 0);\n        require(IClovers(clovers).ownerOf(_tokenId) == msg.sender || msg.sender == cloversController);\n        sells[_tokenId].price = price;\n        sells[_tokenId].from = IClovers(clovers).ownerOf(_tokenId);\n        updatePrice(_tokenId, price);\n    }\n    function buy (uint256 _tokenId) public payable {\n        uint256 sellPrice = sells[_tokenId].price;\n        address sellFrom = sells[_tokenId].from;\n        require(sellPrice > 0);\n        require(IClovers(clovers).ownerOf(_tokenId) == sellFrom);\n        if(IClubToken(clubToken).balanceOf(msg.sender) < sellPrice) {\n            IClubTokenController(clubTokenController).buy.value(msg.value)(msg.sender);\n        }\n        IClubTokenController(clubTokenController).transferFrom(msg.sender, sellFrom, sellPrice);\n        ICloversController(cloversController).transferFrom(sellFrom, msg.sender, _tokenId);\n        delete(sells[_tokenId]);\n        updatePrice(_tokenId, 0);\n    }\n\n}\n",
  "sourcePath": "/home/billyrennekamp/GitHub.com/clovers-network/clovers-contracts/contracts/SimpleCloversMarket.sol",
  "compiler": {
    "name": "solc",
    "version": "0.4.24+commit.e67f0147.Emscripten.clang"
  },
  "schemaVersion": "2.0.1",
  "updatedAt": "2019-06-05T09:59:20.673Z"
}