{
  "contractName": "SimpleCloversMarket",
  "abi": [
    {
      "constant": true,
      "inputs": [],
      "name": "clovers",
      "outputs": [
        {
          "name": "",
          "type": "address"
        }
      ],
      "payable": false,
      "stateMutability": "view",
      "type": "function"
    },
    {
      "constant": true,
      "inputs": [],
      "name": "cloversController",
      "outputs": [
        {
          "name": "",
          "type": "address"
        }
      ],
      "payable": false,
      "stateMutability": "view",
      "type": "function"
    },
    {
      "constant": true,
      "inputs": [
        {
          "name": "_admin",
          "type": "address"
        }
      ],
      "name": "isAdmin",
      "outputs": [
        {
          "name": "",
          "type": "bool"
        }
      ],
      "payable": false,
      "stateMutability": "view",
      "type": "function"
    },
    {
      "constant": true,
      "inputs": [
        {
          "name": "",
          "type": "address"
        }
      ],
      "name": "admins",
      "outputs": [
        {
          "name": "",
          "type": "bool"
        }
      ],
      "payable": false,
      "stateMutability": "view",
      "type": "function"
    },
    {
      "constant": false,
      "inputs": [
        {
          "name": "_newAdmin",
          "type": "address"
        }
      ],
      "name": "transferAdminship",
      "outputs": [],
      "payable": false,
      "stateMutability": "nonpayable",
      "type": "function"
    },
    {
      "constant": false,
      "inputs": [
        {
          "name": "_previousAdmin",
          "type": "address"
        }
      ],
      "name": "renounceAdminship",
      "outputs": [],
      "payable": false,
      "stateMutability": "nonpayable",
      "type": "function"
    },
    {
      "constant": false,
      "inputs": [],
      "name": "renounceOwnership",
      "outputs": [],
      "payable": false,
      "stateMutability": "nonpayable",
      "type": "function"
    },
    {
      "constant": true,
      "inputs": [],
      "name": "owner",
      "outputs": [
        {
          "name": "",
          "type": "address"
        }
      ],
      "payable": false,
      "stateMutability": "view",
      "type": "function"
    },
    {
      "constant": true,
      "inputs": [],
      "name": "clubTokenController",
      "outputs": [
        {
          "name": "",
          "type": "address"
        }
      ],
      "payable": false,
      "stateMutability": "view",
      "type": "function"
    },
    {
      "constant": true,
      "inputs": [],
      "name": "clubToken",
      "outputs": [
        {
          "name": "",
          "type": "address"
        }
      ],
      "payable": false,
      "stateMutability": "view",
      "type": "function"
    },
    {
      "constant": false,
      "inputs": [
        {
          "name": "_newOwner",
          "type": "address"
        }
      ],
      "name": "transferOwnership",
      "outputs": [],
      "payable": false,
      "stateMutability": "nonpayable",
      "type": "function"
    },
    {
      "inputs": [
        {
          "name": "_clovers",
          "type": "address"
        },
        {
          "name": "_clubToken",
          "type": "address"
        },
        {
          "name": "_clubTokenController",
          "type": "address"
        },
        {
          "name": "_cloversController",
          "type": "address"
        }
      ],
      "payable": false,
      "stateMutability": "nonpayable",
      "type": "constructor"
    },
    {
      "anonymous": false,
      "inputs": [
        {
          "indexed": false,
          "name": "_tokenId",
          "type": "uint256"
        },
        {
          "indexed": false,
          "name": "price",
          "type": "uint256"
        }
      ],
      "name": "updatePrice",
      "type": "event"
    },
    {
      "anonymous": false,
      "inputs": [
        {
          "indexed": true,
          "name": "previousAdmin",
          "type": "address"
        }
      ],
      "name": "AdminshipRenounced",
      "type": "event"
    },
    {
      "anonymous": false,
      "inputs": [
        {
          "indexed": true,
          "name": "previousAdmin",
          "type": "address"
        },
        {
          "indexed": true,
          "name": "newAdmin",
          "type": "address"
        }
      ],
      "name": "AdminshipTransferred",
      "type": "event"
    },
    {
      "anonymous": false,
      "inputs": [
        {
          "indexed": true,
          "name": "previousOwner",
          "type": "address"
        }
      ],
      "name": "OwnershipRenounced",
      "type": "event"
    },
    {
      "anonymous": false,
      "inputs": [
        {
          "indexed": true,
          "name": "previousOwner",
          "type": "address"
        },
        {
          "indexed": true,
          "name": "newOwner",
          "type": "address"
        }
      ],
      "name": "OwnershipTransferred",
      "type": "event"
    },
    {
      "constant": true,
      "inputs": [
        {
          "name": "_tokenId",
          "type": "uint256"
        }
      ],
      "name": "sellFrom",
      "outputs": [
        {
          "name": "",
          "type": "address"
        }
      ],
      "payable": false,
      "stateMutability": "view",
      "type": "function"
    },
    {
      "constant": true,
      "inputs": [
        {
          "name": "_tokenId",
          "type": "uint256"
        }
      ],
      "name": "sellPrice",
      "outputs": [
        {
          "name": "",
          "type": "uint256"
        }
      ],
      "payable": false,
      "stateMutability": "view",
      "type": "function"
    },
    {
      "constant": false,
      "inputs": [
        {
          "name": "_clubTokenController",
          "type": "address"
        }
      ],
      "name": "updateClubTokenController",
      "outputs": [],
      "payable": false,
      "stateMutability": "nonpayable",
      "type": "function"
    },
    {
      "constant": false,
      "inputs": [
        {
          "name": "_cloversController",
          "type": "address"
        }
      ],
      "name": "updateCloversController",
      "outputs": [],
      "payable": false,
      "stateMutability": "nonpayable",
      "type": "function"
    },
    {
      "constant": false,
      "inputs": [
        {
          "name": "_clubToken",
          "type": "address"
        }
      ],
      "name": "updateClubToken",
      "outputs": [],
      "payable": false,
      "stateMutability": "nonpayable",
      "type": "function"
    },
    {
      "constant": false,
      "inputs": [
        {
          "name": "_clovers",
          "type": "address"
        }
      ],
      "name": "updateClovers",
      "outputs": [],
      "payable": false,
      "stateMutability": "nonpayable",
      "type": "function"
    },
    {
      "constant": false,
      "inputs": [
        {
          "name": "_tokenId",
          "type": "uint256"
        }
      ],
      "name": "removeSell",
      "outputs": [],
      "payable": false,
      "stateMutability": "nonpayable",
      "type": "function"
    },
    {
      "constant": false,
      "inputs": [
        {
          "name": "_tokenId",
          "type": "uint256"
        },
        {
          "name": "price",
          "type": "uint256"
        }
      ],
      "name": "sell",
      "outputs": [],
      "payable": false,
      "stateMutability": "nonpayable",
      "type": "function"
    },
    {
      "constant": false,
      "inputs": [
        {
          "name": "_tokenIds",
          "type": "uint256[]"
        },
        {
          "name": "_prices",
          "type": "uint256[]"
        }
      ],
      "name": "sellMany",
      "outputs": [],
      "payable": false,
      "stateMutability": "nonpayable",
      "type": "function"
    },
    {
      "constant": false,
      "inputs": [
        {
          "name": "_tokenId",
          "type": "uint256"
        }
      ],
      "name": "buy",
      "outputs": [],
      "payable": true,
      "stateMutability": "payable",
      "type": "function"
    }
  ],
  "bytecode": "0x60806040523480156200001157600080fd5b506040516080806200147283398101604090815281516020808401518385015160609095015160008054600160a060020a031916339081178255815260019384905294909420805460ff1916909217909155909290916200007b84640100000000620000c1810204565b6200008f83640100000000620000fb810204565b620000a38264010000000062000135810204565b620000b7816401000000006200016f810204565b50505050620001a9565b600054600160a060020a03163314620000d957600080fd5b60028054600160a060020a031916600160a060020a0392909216919091179055565b600054600160a060020a031633146200011357600080fd5b60038054600160a060020a031916600160a060020a0392909216919091179055565b600054600160a060020a031633146200014d57600080fd5b60048054600160a060020a031916600160a060020a0392909216919091179055565b600054600160a060020a031633146200018757600080fd5b60058054600160a060020a031916600160a060020a0392909216919091179055565b6112b980620001b96000396000f30060806040526004361061011c5763ffffffff7c01000000000000000000000000000000000000000000000000000000006000350416630d576bfa8114610121578063124141981461015f5780631cfc02fc1461017457806324d7806c1461018c5780633b4e1a24146101ce578063429b62e51461025e5780635be7cc161461028c5780636713e4ee146102ba5780636fce9d88146102e8578063715018a6146103165780637222489c1461032b5780638da5cb5b14610359578063911e279c1461036e5780639564e180146103985780639f1c554c146103c6578063a89b55da146103f4578063afd399f214610409578063d76bbd5214610421578063d79875eb14610436578063d96a094a14610451578063f2fde38b1461045c575b600080fd5b34801561012d57600080fd5b5061013661048a565b6040805173ffffffffffffffffffffffffffffffffffffffff9092168252519081900360200190f35b34801561016b57600080fd5b506101366104a6565b34801561018057600080fd5b506101366004356104c2565b34801561019857600080fd5b506101ba73ffffffffffffffffffffffffffffffffffffffff600435166104ea565b604080519115158252519081900360200190f35b3480156101da57600080fd5b506040805160206004803580820135838102808601850190965280855261025c95369593946024949385019291829185019084908082843750506040805187358901803560208181028481018201909552818452989b9a9989019892975090820195509350839250850190849080828437509497506105159650505050505050565b005b34801561026a57600080fd5b506101ba73ffffffffffffffffffffffffffffffffffffffff60043516610588565b34801561029857600080fd5b5061025c73ffffffffffffffffffffffffffffffffffffffff6004351661059d565b3480156102c657600080fd5b5061025c73ffffffffffffffffffffffffffffffffffffffff600435166105c7565b3480156102f457600080fd5b5061025c73ffffffffffffffffffffffffffffffffffffffff60043516610632565b34801561032257600080fd5b5061025c6106dd565b34801561033757600080fd5b5061025c73ffffffffffffffffffffffffffffffffffffffff6004351661076e565b34801561036557600080fd5b506101366107d9565b34801561037a57600080fd5b506103866004356107f5565b60408051918252519081900360200190f35b3480156103a457600080fd5b5061025c73ffffffffffffffffffffffffffffffffffffffff6004351661080a565b3480156103d257600080fd5b5061025c73ffffffffffffffffffffffffffffffffffffffff60043516610875565b34801561040057600080fd5b506101366108e0565b34801561041557600080fd5b5061025c6004356108fc565b34801561042d57600080fd5b50610136610a8d565b34801561044257600080fd5b5061025c600435602435610aa9565b61025c600435610c4d565b34801561046857600080fd5b5061025c73ffffffffffffffffffffffffffffffffffffffff600435166110fa565b60025473ffffffffffffffffffffffffffffffffffffffff1681565b60055473ffffffffffffffffffffffffffffffffffffffff1681565b60009081526006602052604090205473ffffffffffffffffffffffffffffffffffffffff1690565b73ffffffffffffffffffffffffffffffffffffffff1660009081526001602052604090205460ff1690565b60008060008351855114151561052a57600080fd5b600092505b845183101561058157848381518110151561054657fe5b906020019060200201519150838381518110151561056057fe5b9060200190602002015190506105768282610aa9565b60019092019161052f565b5050505050565b60016020526000908152604090205460ff1681565b3360009081526001602052604090205460ff1615156105bb57600080fd5b6105c481611127565b50565b60005473ffffffffffffffffffffffffffffffffffffffff1633146105eb57600080fd5b600280547fffffffffffffffffffffffff00000000000000000000000000000000000000001673ffffffffffffffffffffffffffffffffffffffff92909216919091179055565b3360009081526001602052604090205460ff16151561065057600080fd5b60405173ffffffffffffffffffffffffffffffffffffffff8216907f1a2dbeec1a0714342f862f53c671a69a6cb438bf5aa44fc01a7ccff6fbde85ef90600090a273ffffffffffffffffffffffffffffffffffffffff16600090815260016020526040902080547fffffffffffffffffffffffffffffffffffffffffffffffffffffffffffffff00169055565b60005473ffffffffffffffffffffffffffffffffffffffff16331461070157600080fd5b6000805460405173ffffffffffffffffffffffffffffffffffffffff909116917ff8df31144d9c2f0f6b59d69b8b98abd5459d07f2742c4df920b25aae33c6482091a2600080547fffffffffffffffffffffffff0000000000000000000000000000000000000000169055565b60005473ffffffffffffffffffffffffffffffffffffffff16331461079257600080fd5b600580547fffffffffffffffffffffffff00000000000000000000000000000000000000001673ffffffffffffffffffffffffffffffffffffffff92909216919091179055565b60005473ffffffffffffffffffffffffffffffffffffffff1681565b60009081526006602052604090206001015490565b60005473ffffffffffffffffffffffffffffffffffffffff16331461082e57600080fd5b600480547fffffffffffffffffffffffff00000000000000000000000000000000000000001673ffffffffffffffffffffffffffffffffffffffff92909216919091179055565b60005473ffffffffffffffffffffffffffffffffffffffff16331461089957600080fd5b600380547fffffffffffffffffffffffff00000000000000000000000000000000000000001673ffffffffffffffffffffffffffffffffffffffff92909216919091179055565b60045473ffffffffffffffffffffffffffffffffffffffff1681565b600254604080517f6352211e000000000000000000000000000000000000000000000000000000008152600481018490529051600092839273ffffffffffffffffffffffffffffffffffffffff90911691636352211e9160248082019260209290919082900301818787803b15801561097457600080fd5b505af1158015610988573d6000803e3d6000fd5b505050506040513d602081101561099e57600080fd5b505160008481526006602052604090205490925073ffffffffffffffffffffffffffffffffffffffff90811691508216331480610a0757508073ffffffffffffffffffffffffffffffffffffffff168273ffffffffffffffffffffffffffffffffffffffff1614155b1515610a1257600080fd5b600083815260066020908152604080832080547fffffffffffffffffffffffff000000000000000000000000000000000000000016815560010183905580518681529182019290925281517f82367b2d6e4540d07b2a6e64ecb6a2f8130985e6a17e157c3e556591c6b54f69929181900390910190a1505050565b60035473ffffffffffffffffffffffffffffffffffffffff1681565b6000808211610ab757600080fd5b600254604080517f6352211e00000000000000000000000000000000000000000000000000000000815260048101869052905173ffffffffffffffffffffffffffffffffffffffff90921691636352211e916024808201926020929091908290030181600087803b158015610b2b57600080fd5b505af1158015610b3f573d6000803e3d6000fd5b505050506040513d6020811015610b5557600080fd5b5051905073ffffffffffffffffffffffffffffffffffffffff8116331480610b8c57503360009081526001602052604090205460ff165b80610bae575060055473ffffffffffffffffffffffffffffffffffffffff1633145b1515610bb957600080fd5b6000838152600660209081526040918290206001810185905580547fffffffffffffffffffffffff00000000000000000000000000000000000000001673ffffffffffffffffffffffffffffffffffffffff8516179055815185815290810184905281517f82367b2d6e4540d07b2a6e64ecb6a2f8130985e6a17e157c3e556591c6b54f69929181900390910190a1505050565b600081815260066020526040812060018101549054909173ffffffffffffffffffffffffffffffffffffffff909116908211610c8857600080fd5b600254604080517f6352211e00000000000000000000000000000000000000000000000000000000815260048101869052905173ffffffffffffffffffffffffffffffffffffffff808516931691636352211e9160248083019260209291908290030181600087803b158015610cfd57600080fd5b505af1158015610d11573d6000803e3d6000fd5b505050506040513d6020811015610d2757600080fd5b505173ffffffffffffffffffffffffffffffffffffffff1614610d4957600080fd5b600354604080517f70a082310000000000000000000000000000000000000000000000000000000081523360048201529051849273ffffffffffffffffffffffffffffffffffffffff16916370a082319160248083019260209291908290030181600087803b158015610dbb57600080fd5b505af1158015610dcf573d6000803e3d6000fd5b505050506040513d6020811015610de557600080fd5b50511015610e915760048054604080517ff088d54700000000000000000000000000000000000000000000000000000000815233938101939093525173ffffffffffffffffffffffffffffffffffffffff9091169163f088d54791349160248082019260209290919082900301818588803b158015610e6357600080fd5b505af1158015610e77573d6000803e3d6000fd5b50505050506040513d6020811015610e8e57600080fd5b50505b60025473ffffffffffffffffffffffffffffffffffffffff82811691161415610f4b5760048054604080517f9dc29fac0000000000000000000000000000000000000000000000000000000081523393810193909352602483018590525173ffffffffffffffffffffffffffffffffffffffff90911691639dc29fac91604480830192600092919082900301818387803b158015610f2e57600080fd5b505af1158015610f42573d6000803e3d6000fd5b50505050610fe6565b60048054604080517f23b872dd000000000000000000000000000000000000000000000000000000008152339381019390935273ffffffffffffffffffffffffffffffffffffffff84811660248501526044840186905290519116916323b872dd91606480830192600092919082900301818387803b158015610fcd57600080fd5b505af1158015610fe1573d6000803e3d6000fd5b505050505b600554604080517f23b872dd00000000000000000000000000000000000000000000000000000000815273ffffffffffffffffffffffffffffffffffffffff848116600483015233602483015260448201879052915191909216916323b872dd91606480830192600092919082900301818387803b15801561106757600080fd5b505af115801561107b573d6000803e3d6000fd5b505050600084815260066020908152604080832080547fffffffffffffffffffffffff000000000000000000000000000000000000000016815560010183905580518781529182019290925281517f82367b2d6e4540d07b2a6e64ecb6a2f8130985e6a17e157c3e556591c6b54f6993509081900390910190a1505050565b60005473ffffffffffffffffffffffffffffffffffffffff16331461111e57600080fd5b6105c4816111de565b73ffffffffffffffffffffffffffffffffffffffff8116151561114957600080fd5b60405173ffffffffffffffffffffffffffffffffffffffff82169033907f2931ebb3d190545dcf6801c37aa686b74f2e1000e753d0fac6e471a2aa5a621390600090a373ffffffffffffffffffffffffffffffffffffffff16600090815260016020819052604090912080547fffffffffffffffffffffffffffffffffffffffffffffffffffffffffffffff00169091179055565b73ffffffffffffffffffffffffffffffffffffffff8116151561120057600080fd5b6000805460405173ffffffffffffffffffffffffffffffffffffffff808516939216917f8be0079c531659141344cd1fd0a4f28419497f9722a3daafe3b4186f6b6457e091a3600080547fffffffffffffffffffffffff00000000000000000000000000000000000000001673ffffffffffffffffffffffffffffffffffffffff929092169190911790555600a165627a7a72305820c536f9e5dac2aa4029c6acca150b51a314ffccbf4f3fb12efb64dc602b697ce20029",
  "source": "pragma solidity ^0.4.24;\n\nimport \"./Clovers.sol\";\nimport \"./ClubToken.sol\";\nimport \"./ClubTokenController.sol\";\n// import \"./CloversController.sol\";\nimport \"zeppelin-solidity/contracts/ownership/Ownable.sol\";\nimport \"zeppelin-solidity/contracts/math/SafeMath.sol\";\nimport \"./helpers/Admin.sol\";\n\ncontract ICloversController {\n    function transferFrom(address _from, address _to, uint256 _tokenId) public;\n}\n\ncontract SimpleCloversMarket is Ownable, Admin {\n\n    event updatePrice(uint256 _tokenId, uint256 price);\n\n\n    using SafeMath for uint256;\n\n    address public clovers;\n    address public clubToken;\n    address public clubTokenController;\n    address public cloversController;\n    struct Sell {\n        address from;\n        uint256 price;\n    }\n    mapping(uint256 => Sell) sells;\n    constructor(address _clovers, address _clubToken, address _clubTokenController, address _cloversController) public {\n        updateClovers(_clovers);\n        updateClubToken(_clubToken);\n        updateClubTokenController(_clubTokenController);\n        updateCloversController(_cloversController);\n    }\n    function sellFrom(uint256 _tokenId) public view returns(address) {\n        return sells[_tokenId].from;\n    }\n    function sellPrice(uint256 _tokenId) public view returns(uint256){\n        return sells[_tokenId].price;\n    }\n    function updateClubTokenController(address _clubTokenController) public onlyOwner {\n        clubTokenController = _clubTokenController;\n    }\n    function updateCloversController(address _cloversController) public onlyOwner {\n        cloversController = _cloversController;\n    }\n    function updateClubToken(address _clubToken) public onlyOwner {\n        clubToken = _clubToken;\n    }\n    function updateClovers(address _clovers) public onlyOwner {\n        clovers = _clovers;\n    }\n    function removeSell(uint256 _tokenId) public {\n        address owner = Clovers(clovers).ownerOf(_tokenId);\n        address seller = sells[_tokenId].from;\n        require(owner == msg.sender || owner != seller);\n        delete(sells[_tokenId]);\n        emit updatePrice(_tokenId, 0);\n    }\n\n    function sell(uint256 _tokenId, uint256 price) public {\n        require(price > 0);\n        address tokenOwner = Clovers(clovers).ownerOf(_tokenId);\n        require(tokenOwner == msg.sender || admins[msg.sender] || msg.sender == cloversController);\n        sells[_tokenId].price = price;\n        sells[_tokenId].from = tokenOwner;\n        emit updatePrice(_tokenId, price);\n    }\n\n    function sellMany(uint256[] _tokenIds, uint256[] _prices) public {\n        require(_tokenIds.length == _prices.length);\n        for (uint256 i = 0; i < _tokenIds.length; i++) {\n            uint256 _tokenId = _tokenIds[i];\n            uint256 _price = _prices[i];\n            sell(_tokenId, _price);\n        }\n    }\n\n    function buy (uint256 _tokenId) public payable {\n        uint256 sellPrice = sells[_tokenId].price;\n        address sellFrom = sells[_tokenId].from;\n        require(sellPrice > 0);\n        require(Clovers(clovers).ownerOf(_tokenId) == sellFrom);\n        if(ClubToken(clubToken).balanceOf(msg.sender) < sellPrice) {\n            ClubTokenController(clubTokenController).buy.value(msg.value)(msg.sender);\n        }\n        // if seller is Clovers Contract, burn the money\n        if (sellFrom == clovers) {\n            ClubTokenController(clubTokenController).burn(msg.sender, sellPrice);\n        } else {\n            ClubTokenController(clubTokenController).transferFrom(msg.sender, sellFrom, sellPrice);\n        }\n        ICloversController(cloversController).transferFrom(sellFrom, msg.sender, _tokenId);\n        delete(sells[_tokenId]);\n        emit updatePrice(_tokenId, 0);\n    }\n\n}\n",
  "sourcePath": "/home/billy/GitHub.com/clovers-network/clovers-contracts/contracts/SimpleCloversMarket.sol",
  "compiler": {
    "name": "solc",
    "version": "0.4.24+commit.e67f0147.Emscripten.clang"
  },
  "schemaVersion": "2.0.1",
  "updatedAt": "2019-08-16T18:48:16.950Z"
}