{
  "contractName": "Support",
  "abi": [
    {
      "constant": true,
      "inputs": [],
      "name": "active",
      "outputs": [
        {
          "name": "",
          "type": "bool"
        }
      ],
      "payable": false,
      "stateMutability": "view",
      "type": "function"
    },
    {
      "constant": true,
      "inputs": [],
      "name": "totalContributions",
      "outputs": [
        {
          "name": "",
          "type": "uint256"
        }
      ],
      "payable": false,
      "stateMutability": "view",
      "type": "function"
    },
    {
      "constant": true,
      "inputs": [
        {
          "name": "",
          "type": "address"
        }
      ],
      "name": "contributions",
      "outputs": [
        {
          "name": "",
          "type": "uint256"
        }
      ],
      "payable": false,
      "stateMutability": "view",
      "type": "function"
    },
    {
      "constant": true,
      "inputs": [
        {
          "name": "",
          "type": "address"
        }
      ],
      "name": "withdrawn",
      "outputs": [
        {
          "name": "",
          "type": "bool"
        }
      ],
      "payable": false,
      "stateMutability": "view",
      "type": "function"
    },
    {
      "constant": true,
      "inputs": [],
      "name": "totalTokens",
      "outputs": [
        {
          "name": "",
          "type": "uint256"
        }
      ],
      "payable": false,
      "stateMutability": "view",
      "type": "function"
    },
    {
      "constant": true,
      "inputs": [],
      "name": "owner",
      "outputs": [
        {
          "name": "",
          "type": "address"
        }
      ],
      "payable": false,
      "stateMutability": "view",
      "type": "function"
    },
    {
      "constant": true,
      "inputs": [
        {
          "name": "",
          "type": "address"
        }
      ],
      "name": "whitelist",
      "outputs": [
        {
          "name": "",
          "type": "bool"
        }
      ],
      "payable": false,
      "stateMutability": "view",
      "type": "function"
    },
    {
      "constant": true,
      "inputs": [],
      "name": "limit",
      "outputs": [
        {
          "name": "",
          "type": "uint256"
        }
      ],
      "payable": false,
      "stateMutability": "view",
      "type": "function"
    },
    {
      "constant": true,
      "inputs": [],
      "name": "done",
      "outputs": [
        {
          "name": "",
          "type": "bool"
        }
      ],
      "payable": false,
      "stateMutability": "view",
      "type": "function"
    },
    {
      "constant": true,
      "inputs": [],
      "name": "remainingTokens",
      "outputs": [
        {
          "name": "",
          "type": "uint256"
        }
      ],
      "payable": false,
      "stateMutability": "view",
      "type": "function"
    },
    {
      "constant": true,
      "inputs": [],
      "name": "bondingCurve",
      "outputs": [
        {
          "name": "",
          "type": "address"
        }
      ],
      "payable": false,
      "stateMutability": "view",
      "type": "function"
    },
    {
      "inputs": [
        {
          "name": "_limit",
          "type": "uint256"
        },
        {
          "name": "_bondingCurve",
          "type": "address"
        }
      ],
      "payable": false,
      "stateMutability": "nonpayable",
      "type": "constructor"
    },
    {
      "payable": true,
      "stateMutability": "payable",
      "type": "fallback"
    },
    {
      "constant": false,
      "inputs": [
        {
          "name": "whitelisted",
          "type": "address"
        }
      ],
      "name": "addToWhitelist",
      "outputs": [],
      "payable": false,
      "stateMutability": "nonpayable",
      "type": "function"
    },
    {
      "constant": false,
      "inputs": [
        {
          "name": "blacklisted",
          "type": "address"
        }
      ],
      "name": "removeFromWhitelist",
      "outputs": [],
      "payable": false,
      "stateMutability": "nonpayable",
      "type": "function"
    },
    {
      "constant": false,
      "inputs": [],
      "name": "support",
      "outputs": [],
      "payable": true,
      "stateMutability": "payable",
      "type": "function"
    },
    {
      "constant": false,
      "inputs": [
        {
          "name": "_active",
          "type": "bool"
        }
      ],
      "name": "setActive",
      "outputs": [],
      "payable": false,
      "stateMutability": "nonpayable",
      "type": "function"
    },
    {
      "constant": false,
      "inputs": [
        {
          "name": "_limit",
          "type": "uint256"
        }
      ],
      "name": "setLimit",
      "outputs": [],
      "payable": false,
      "stateMutability": "nonpayable",
      "type": "function"
    },
    {
      "constant": false,
      "inputs": [],
      "name": "makeBuy",
      "outputs": [],
      "payable": false,
      "stateMutability": "nonpayable",
      "type": "function"
    },
    {
      "constant": false,
      "inputs": [],
      "name": "withdraw",
      "outputs": [],
      "payable": false,
      "stateMutability": "nonpayable",
      "type": "function"
    }
  ],
  "bytecode": "0x608060405234801561001057600080fd5b506040516040806111898339810160405280516020909101516005805433600160a060020a03199182161790915560049290925560098054909216600160a060020a03909116179055611121806100686000396000f3006080604052600436106100fb5763ffffffff7c010000000000000000000000000000000000000000000000000000000060003504166302fb0c5e8114610105578063119f8747146100fb57806327ea6f2b1461012e57806337c08923146101465780633ccfd60b1461016d57806342e94c90146101825780636ef61092146101b05780637e1c0c09146101de5780638ab1d681146101f35780638da5cb5b146102215780639b19251a1461025f578063a106b2d41461028d578063a4d66daf146102a2578063acec338a146102b7578063ae8421e1146102d1578063bf583903146102e6578063e43252d7146102fb578063eff1d50e14610329575b61010361033e565b005b34801561011157600080fd5b5061011a610573565b604080519115158252519081900360200190f35b34801561013a57600080fd5b50610103600435610581565b34801561015257600080fd5b5061015b61067e565b60408051918252519081900360200190f35b34801561017957600080fd5b50610103610684565b34801561018e57600080fd5b5061015b73ffffffffffffffffffffffffffffffffffffffff600435166109ab565b3480156101bc57600080fd5b5061011a73ffffffffffffffffffffffffffffffffffffffff600435166109bd565b3480156101ea57600080fd5b5061015b6109d2565b3480156101ff57600080fd5b5061010373ffffffffffffffffffffffffffffffffffffffff600435166109d8565b34801561022d57600080fd5b50610236610b13565b6040805173ffffffffffffffffffffffffffffffffffffffff9092168252519081900360200190f35b34801561026b57600080fd5b5061011a73ffffffffffffffffffffffffffffffffffffffff60043516610b2f565b34801561029957600080fd5b50610103610b44565b3480156102ae57600080fd5b5061015b610ec0565b3480156102c357600080fd5b506101036004351515610ec6565b3480156102dd57600080fd5b5061011a610ff5565b3480156102f257600080fd5b5061015b610ffe565b34801561030757600080fd5b5061010373ffffffffffffffffffffffffffffffffffffffff60043516611004565b34801561033557600080fd5b506102366110d9565b60005460ff16156103b057604080517f08c379a000000000000000000000000000000000000000000000000000000000815260206004820152601460248201527f4d757374206e6f742079657420626520646f6e65000000000000000000000000604482015290519081900360640190fd5b600054610100900460ff16151561042857604080517f08c379a000000000000000000000000000000000000000000000000000000000815260206004820152600e60248201527f4d75737420626520616374697665000000000000000000000000000000000000604482015290519081900360640190fd5b3360009081526007602052604090205460ff1615156104a857604080517f08c379a000000000000000000000000000000000000000000000000000000000815260206004820152601d60248201527f4d75737420626520612077686974656c69737465642061646472657373000000604482015290519081900360640190fd5b600454336000908152600860205260409020543401111561055057604080517f08c379a000000000000000000000000000000000000000000000000000000000815260206004820152602960248201527f4e6f7420616c6c6f77656420746f20636f6e74726962757465206d6f7265207460448201527f68616e206c696d69740000000000000000000000000000000000000000000000606482015290519081900360840190fd5b336000908152600860205260409020805434908101909155600180549091019055565b600054610100900460ff1681565b60055473ffffffffffffffffffffffffffffffffffffffff16331461060757604080517f08c379a000000000000000000000000000000000000000000000000000000000815260206004820152600a60248201527f4f6e6c79204f776e657200000000000000000000000000000000000000000000604482015290519081900360640190fd5b60005460ff161561067957604080517f08c379a000000000000000000000000000000000000000000000000000000000815260206004820152601460248201527f4d757374206e6f742079657420626520646f6e65000000000000000000000000604482015290519081900360640190fd5b600455565b60015481565b6000805460ff1615156106f857604080517f08c379a000000000000000000000000000000000000000000000000000000000815260206004820152600c60248201527f4d75737420626520646f6e650000000000000000000000000000000000000000604482015290519081900360640190fd5b3360009081526007602052604090205460ff16151561077857604080517f08c379a000000000000000000000000000000000000000000000000000000000815260206004820152601d60248201527f4d75737420626520612077686974656c69737465642061646472657373000000604482015290519081900360640190fd5b3360009081526006602052604090205460ff16156107f757604080517f08c379a000000000000000000000000000000000000000000000000000000000815260206004820152601f60248201527f4d757374206e6f7420686176652077697468647261776e20616c726561647900604482015290519081900360640190fd5b33600090815260066020908152604080832080547fffffffffffffffffffffffffffffffffffffffffffffffffffffffffffffff001660019081179091555460035460089093529220540281151561084b57fe5b04905060025481111561085d57506002545b600280548290039055600954604080517fd76bbd52000000000000000000000000000000000000000000000000000000008152905173ffffffffffffffffffffffffffffffffffffffff9092169163d76bbd52916004808201926020929091908290030181600087803b1580156108d357600080fd5b505af11580156108e7573d6000803e3d6000fd5b505050506040513d60208110156108fd57600080fd5b5051604080517f23b872dd00000000000000000000000000000000000000000000000000000000815230600482015233602482015260448101849052905173ffffffffffffffffffffffffffffffffffffffff909216916323b872dd916064808201926020929091908290030181600087803b15801561097c57600080fd5b505af1158015610990573d6000803e3d6000fd5b505050506040513d60208110156109a657600080fd5b505050565b60086020526000908152604090205481565b60066020526000908152604090205460ff1681565b60035481565b60055473ffffffffffffffffffffffffffffffffffffffff163314610a5e57604080517f08c379a000000000000000000000000000000000000000000000000000000000815260206004820152600a60248201527f4f6e6c79204f776e657200000000000000000000000000000000000000000000604482015290519081900360640190fd5b73ffffffffffffffffffffffffffffffffffffffff8116600090815260076020908152604080832080547fffffffffffffffffffffffffffffffffffffffffffffffffffffffffffffff001690556008909152808220549051339282156108fc02929190818181858888f19350505050158015610adf573d6000803e3d6000fd5b5073ffffffffffffffffffffffffffffffffffffffff16600090815260086020526040812080546001805491909103905555565b60055473ffffffffffffffffffffffffffffffffffffffff1681565b60076020526000908152604090205460ff1681565b60055473ffffffffffffffffffffffffffffffffffffffff163314610bca57604080517f08c379a000000000000000000000000000000000000000000000000000000000815260206004820152600a60248201527f4f6e6c79204f776e657200000000000000000000000000000000000000000000604482015290519081900360640190fd5b60005460ff1615610c3c57604080517f08c379a000000000000000000000000000000000000000000000000000000000815260206004820152601460248201527f4d757374206e6f742079657420626520646f6e65000000000000000000000000604482015290519081900360640190fd5b600054610100900460ff1615610cb357604080517f08c379a000000000000000000000000000000000000000000000000000000000815260206004820152601260248201527f4d757374206e6f74206265206163746976650000000000000000000000000000604482015290519081900360640190fd5b600954604080517ff088d5470000000000000000000000000000000000000000000000000000000081523060048201819052915173ffffffffffffffffffffffffffffffffffffffff9093169263f088d54792319160248082019260209290919082900301818588803b158015610d2957600080fd5b505af1158015610d3d573d6000803e3d6000fd5b50505050506040513d6020811015610d5457600080fd5b5050600954604080517fd76bbd52000000000000000000000000000000000000000000000000000000008152905173ffffffffffffffffffffffffffffffffffffffff9092169163d76bbd52916004808201926020929091908290030181600087803b158015610dc357600080fd5b505af1158015610dd7573d6000803e3d6000fd5b505050506040513d6020811015610ded57600080fd5b5051604080517f70a08231000000000000000000000000000000000000000000000000000000008152306004820152905173ffffffffffffffffffffffffffffffffffffffff909216916370a08231916024808201926020929091908290030181600087803b158015610e5f57600080fd5b505af1158015610e73573d6000803e3d6000fd5b505050506040513d6020811015610e8957600080fd5b50516003819055600255600080547fffffffffffffffffffffffffffffffffffffffffffffffffffffffffffffff00166001179055565b60045481565b60055473ffffffffffffffffffffffffffffffffffffffff163314610f4c57604080517f08c379a000000000000000000000000000000000000000000000000000000000815260206004820152600a60248201527f4f6e6c79204f776e657200000000000000000000000000000000000000000000604482015290519081900360640190fd5b60005460ff1615610fbe57604080517f08c379a000000000000000000000000000000000000000000000000000000000815260206004820152601460248201527f4d757374206e6f742079657420626520646f6e65000000000000000000000000604482015290519081900360640190fd5b60008054911515610100027fffffffffffffffffffffffffffffffffffffffffffffffffffffffffffff00ff909216919091179055565b60005460ff1681565b60025481565b60055473ffffffffffffffffffffffffffffffffffffffff16331461108a57604080517f08c379a000000000000000000000000000000000000000000000000000000000815260206004820152600a60248201527f4f6e6c79204f776e657200000000000000000000000000000000000000000000604482015290519081900360640190fd5b73ffffffffffffffffffffffffffffffffffffffff16600090815260076020526040902080547fffffffffffffffffffffffffffffffffffffffffffffffffffffffffffffff00166001179055565b60095473ffffffffffffffffffffffffffffffffffffffff16815600a165627a7a72305820c8b098fb046c6c43949bff3758d5ceec9374ed20a071f0612bd0ac403577aa330029",
  "source": "pragma solidity ^0.4.18;\n\nimport \"./ClubTokenController.sol\";\nimport \"./ClubToken.sol\";\n\ncontract Support {\n    function() public payable {\n        support();\n    }\n\n    bool public done;\n    bool public active;\n    uint256 public totalContributions;\n    uint256 public remainingTokens;\n    uint256 public totalTokens;\n    uint256 public limit;\n    address public owner;\n    mapping(address => bool) public withdrawn;\n    mapping(address => bool) public whitelist;\n    mapping(address => uint256) public contributions;\n    ClubTokenController public bondingCurve;\n\n    modifier onlyOwner() {\n        require(owner == msg.sender, \"Only Owner\");\n        _;\n    }\n    modifier isWhitelisted() {\n        require(whitelist[msg.sender], \"Must be a whitelisted address\");\n        _;\n    }\n    modifier isDone() {\n        require(done, \"Must be done\");\n        _;\n    }\n    modifier isNotDone() {\n        require(!done, \"Must not yet be done\");\n        _;\n    }\n    modifier isActive() {\n        require(active, \"Must be active\");\n        _;\n    }\n    modifier isNotActive() {\n        require(!active, \"Must not be active\");\n        _;\n    }\n    constructor(uint256 _limit, ClubTokenController _bondingCurve) public {\n        owner = msg.sender;\n        limit = _limit;\n        bondingCurve = _bondingCurve;\n    }\n\n    function addToWhitelist(address whitelisted) public onlyOwner {\n        whitelist[whitelisted] = true;\n    }\n\n    function removeFromWhitelist(address blacklisted) public onlyOwner {\n        whitelist[blacklisted] = false;\n        msg.sender.transfer(contributions[blacklisted]);\n        totalContributions -= contributions[blacklisted];\n        contributions[blacklisted] = 0;\n    }\n\n    function support() public payable isNotDone isActive isWhitelisted {\n        require(contributions[msg.sender] + msg.value <= limit, \"Not allowed to contribute more than limit\");\n\n        contributions[msg.sender] += msg.value;\n        totalContributions += msg.value;\n    }\n\n    function setActive(bool _active) public onlyOwner isNotDone {\n        active = _active;\n    }\n\n    function setLimit(uint256 _limit) public onlyOwner isNotDone {\n        limit = _limit;\n    }\n\n    function makeBuy() public onlyOwner isNotDone isNotActive{\n        bondingCurve.buy.value(address(this).balance)(address(this));\n        totalTokens = ClubToken(bondingCurve.clubToken()).balanceOf(address(this));\n        remainingTokens = totalTokens;\n        done = true;\n    }\n\n    function withdraw() public isDone isWhitelisted {\n        require(!withdrawn[msg.sender], \"Must not have withdrawn already\");\n        withdrawn[msg.sender] = true;\n        uint256 percentage = (contributions[msg.sender] * totalTokens) / totalContributions;\n        if (percentage > remainingTokens) {\n            percentage = remainingTokens;\n        }\n        remainingTokens = remainingTokens - percentage;\n        ClubToken(bondingCurve.clubToken()).transferFrom(address(this), msg.sender, percentage);\n    }\n}",
  "sourcePath": "/home/billyrennekamp/GitHub.com/clovers-network/clovers-contracts/contracts/Support.sol",
  "compiler": {
    "name": "solc",
    "version": "0.4.24+commit.e67f0147.Emscripten.clang"
  },
  "schemaVersion": "2.0.1",
  "updatedAt": "2019-08-10T10:58:15.816Z"
}