{
  "contractName": "Support",
  "abi": [
    {
      "constant": true,
      "inputs": [],
      "name": "active",
      "outputs": [
        {
          "name": "",
          "type": "bool"
        }
      ],
      "payable": false,
      "stateMutability": "view",
      "type": "function"
    },
    {
      "constant": true,
      "inputs": [],
      "name": "totalContributions",
      "outputs": [
        {
          "name": "",
          "type": "uint256"
        }
      ],
      "payable": false,
      "stateMutability": "view",
      "type": "function"
    },
    {
      "constant": true,
      "inputs": [
        {
          "name": "",
          "type": "address"
        }
      ],
      "name": "contributions",
      "outputs": [
        {
          "name": "",
          "type": "uint256"
        }
      ],
      "payable": false,
      "stateMutability": "view",
      "type": "function"
    },
    {
      "constant": true,
      "inputs": [
        {
          "name": "",
          "type": "address"
        }
      ],
      "name": "withdrawn",
      "outputs": [
        {
          "name": "",
          "type": "bool"
        }
      ],
      "payable": false,
      "stateMutability": "view",
      "type": "function"
    },
    {
      "constant": true,
      "inputs": [],
      "name": "totalTokens",
      "outputs": [
        {
          "name": "",
          "type": "uint256"
        }
      ],
      "payable": false,
      "stateMutability": "view",
      "type": "function"
    },
    {
      "constant": true,
      "inputs": [],
      "name": "owner",
      "outputs": [
        {
          "name": "",
          "type": "address"
        }
      ],
      "payable": false,
      "stateMutability": "view",
      "type": "function"
    },
    {
      "constant": true,
      "inputs": [
        {
          "name": "",
          "type": "address"
        }
      ],
      "name": "whitelist",
      "outputs": [
        {
          "name": "",
          "type": "bool"
        }
      ],
      "payable": false,
      "stateMutability": "view",
      "type": "function"
    },
    {
      "constant": true,
      "inputs": [],
      "name": "limit",
      "outputs": [
        {
          "name": "",
          "type": "uint256"
        }
      ],
      "payable": false,
      "stateMutability": "view",
      "type": "function"
    },
    {
      "constant": true,
      "inputs": [],
      "name": "done",
      "outputs": [
        {
          "name": "",
          "type": "bool"
        }
      ],
      "payable": false,
      "stateMutability": "view",
      "type": "function"
    },
    {
      "constant": true,
      "inputs": [],
      "name": "remainingTokens",
      "outputs": [
        {
          "name": "",
          "type": "uint256"
        }
      ],
      "payable": false,
      "stateMutability": "view",
      "type": "function"
    },
    {
      "constant": true,
      "inputs": [],
      "name": "bondingCurve",
      "outputs": [
        {
          "name": "",
          "type": "address"
        }
      ],
      "payable": false,
      "stateMutability": "view",
      "type": "function"
    },
    {
      "inputs": [
        {
          "name": "_limit",
          "type": "uint256"
        },
        {
          "name": "_bondingCurve",
          "type": "address"
        }
      ],
      "payable": false,
      "stateMutability": "nonpayable",
      "type": "constructor"
    },
    {
      "payable": true,
      "stateMutability": "payable",
      "type": "fallback"
    },
    {
      "constant": false,
      "inputs": [
        {
          "name": "whitelisted",
          "type": "address"
        }
      ],
      "name": "addToWhitelist",
      "outputs": [],
      "payable": false,
      "stateMutability": "nonpayable",
      "type": "function"
    },
    {
      "constant": true,
      "inputs": [
        {
          "name": "whitelisted",
          "type": "address"
        }
      ],
      "name": "onWhitelist",
      "outputs": [
        {
          "name": "",
          "type": "bool"
        }
      ],
      "payable": false,
      "stateMutability": "view",
      "type": "function"
    },
    {
      "constant": true,
      "inputs": [
        {
          "name": "whitelisted",
          "type": "address"
        }
      ],
      "name": "hasWithdrawn",
      "outputs": [
        {
          "name": "",
          "type": "bool"
        }
      ],
      "payable": false,
      "stateMutability": "view",
      "type": "function"
    },
    {
      "constant": true,
      "inputs": [
        {
          "name": "whitelisted",
          "type": "address"
        }
      ],
      "name": "currentContribution",
      "outputs": [
        {
          "name": "",
          "type": "uint256"
        }
      ],
      "payable": false,
      "stateMutability": "view",
      "type": "function"
    },
    {
      "constant": false,
      "inputs": [
        {
          "name": "blacklisted",
          "type": "address"
        }
      ],
      "name": "removeFromWhitelist",
      "outputs": [],
      "payable": false,
      "stateMutability": "nonpayable",
      "type": "function"
    },
    {
      "constant": false,
      "inputs": [],
      "name": "support",
      "outputs": [],
      "payable": true,
      "stateMutability": "payable",
      "type": "function"
    },
    {
      "constant": false,
      "inputs": [
        {
          "name": "_active",
          "type": "bool"
        }
      ],
      "name": "setActive",
      "outputs": [],
      "payable": false,
      "stateMutability": "nonpayable",
      "type": "function"
    },
    {
      "constant": false,
      "inputs": [
        {
          "name": "_limit",
          "type": "uint256"
        }
      ],
      "name": "setLimit",
      "outputs": [],
      "payable": false,
      "stateMutability": "nonpayable",
      "type": "function"
    },
    {
      "constant": false,
      "inputs": [],
      "name": "makeBuy",
      "outputs": [],
      "payable": false,
      "stateMutability": "nonpayable",
      "type": "function"
    },
    {
      "constant": false,
      "inputs": [],
      "name": "withdraw",
      "outputs": [],
      "payable": false,
      "stateMutability": "nonpayable",
      "type": "function"
    }
  ],
  "bytecode": "0x608060405234801561001057600080fd5b506040516040806112078339810160405280516020909101516005805433600160a060020a03199182161790915560049290925560098054909216600160a060020a0390911617905561119f806100686000396000f30060806040526004361061011c5763ffffffff7c010000000000000000000000000000000000000000000000000000000060003504166302fb0c5e8114610126578063119f87471461011c5780631d6086591461014f57806327ea6f2b1461017d57806337c08923146101955780633ccfd60b146101bc57806342e94c90146101d15780635e2c19db146101ff5780636062ae821461022d5780636ef610921461025b5780637e1c0c09146102895780638ab1d6811461029e5780638da5cb5b146102cc5780639b19251a1461030a578063a106b2d414610338578063a4d66daf1461034d578063acec338a14610362578063ae8421e11461037c578063bf58390314610391578063e43252d7146103a6578063eff1d50e146103d4575b6101246103e9565b005b34801561013257600080fd5b5061013b61061e565b604080519115158252519081900360200190f35b34801561015b57600080fd5b5061013b73ffffffffffffffffffffffffffffffffffffffff6004351661062c565b34801561018957600080fd5b50610124600435610657565b3480156101a157600080fd5b506101aa610754565b60408051918252519081900360200190f35b3480156101c857600080fd5b5061012461075a565b3480156101dd57600080fd5b506101aa73ffffffffffffffffffffffffffffffffffffffff600435166109d6565b34801561020b57600080fd5b5061013b73ffffffffffffffffffffffffffffffffffffffff600435166109e8565b34801561023957600080fd5b506101aa73ffffffffffffffffffffffffffffffffffffffff60043516610a13565b34801561026757600080fd5b5061013b73ffffffffffffffffffffffffffffffffffffffff60043516610a3b565b34801561029557600080fd5b506101aa610a50565b3480156102aa57600080fd5b5061012473ffffffffffffffffffffffffffffffffffffffff60043516610a56565b3480156102d857600080fd5b506102e1610b91565b6040805173ffffffffffffffffffffffffffffffffffffffff9092168252519081900360200190f35b34801561031657600080fd5b5061013b73ffffffffffffffffffffffffffffffffffffffff60043516610bad565b34801561034457600080fd5b50610124610bc2565b34801561035957600080fd5b506101aa610f3e565b34801561036e57600080fd5b506101246004351515610f44565b34801561038857600080fd5b5061013b611073565b34801561039d57600080fd5b506101aa61107c565b3480156103b257600080fd5b5061012473ffffffffffffffffffffffffffffffffffffffff60043516611082565b3480156103e057600080fd5b506102e1611157565b60005460ff161561045b57604080517f08c379a000000000000000000000000000000000000000000000000000000000815260206004820152601460248201527f4d757374206e6f742079657420626520646f6e65000000000000000000000000604482015290519081900360640190fd5b600054610100900460ff1615156104d357604080517f08c379a000000000000000000000000000000000000000000000000000000000815260206004820152600e60248201527f4d75737420626520616374697665000000000000000000000000000000000000604482015290519081900360640190fd5b3360009081526007602052604090205460ff16151561055357604080517f08c379a000000000000000000000000000000000000000000000000000000000815260206004820152601d60248201527f4d75737420626520612077686974656c69737465642061646472657373000000604482015290519081900360640190fd5b60045433600090815260086020526040902054340111156105fb57604080517f08c379a000000000000000000000000000000000000000000000000000000000815260206004820152602960248201527f4e6f7420616c6c6f77656420746f20636f6e74726962757465206d6f7265207460448201527f68616e206c696d69740000000000000000000000000000000000000000000000606482015290519081900360840190fd5b336000908152600860205260409020805434908101909155600180549091019055565b600054610100900460ff1681565b73ffffffffffffffffffffffffffffffffffffffff1660009081526007602052604090205460ff1690565b60055473ffffffffffffffffffffffffffffffffffffffff1633146106dd57604080517f08c379a000000000000000000000000000000000000000000000000000000000815260206004820152600a60248201527f4f6e6c79204f776e657200000000000000000000000000000000000000000000604482015290519081900360640190fd5b60005460ff161561074f57604080517f08c379a000000000000000000000000000000000000000000000000000000000815260206004820152601460248201527f4d757374206e6f742079657420626520646f6e65000000000000000000000000604482015290519081900360640190fd5b600455565b60015481565b6000805460ff1615156107ce57604080517f08c379a000000000000000000000000000000000000000000000000000000000815260206004820152600c60248201527f4d75737420626520646f6e650000000000000000000000000000000000000000604482015290519081900360640190fd5b3360009081526007602052604090205460ff16151561084e57604080517f08c379a000000000000000000000000000000000000000000000000000000000815260206004820152601d60248201527f4d75737420626520612077686974656c69737465642061646472657373000000604482015290519081900360640190fd5b3360009081526006602052604090205460ff16156108cd57604080517f08c379a000000000000000000000000000000000000000000000000000000000815260206004820152601f60248201527f4d757374206e6f7420686176652077697468647261776e20616c726561647900604482015290519081900360640190fd5b33600090815260066020908152604080832080547fffffffffffffffffffffffffffffffffffffffffffffffffffffffffffffff001660019081179091555460035460089093529220540281151561092157fe5b04905060025481111561093357506002545b600280548290039055600954604080517f23b872dd00000000000000000000000000000000000000000000000000000000815230600482015233602482015260448101849052905173ffffffffffffffffffffffffffffffffffffffff909216916323b872dd9160648082019260009290919082900301818387803b1580156109bb57600080fd5b505af11580156109cf573d6000803e3d6000fd5b5050505050565b60086020526000908152604090205481565b73ffffffffffffffffffffffffffffffffffffffff1660009081526006602052604090205460ff1690565b73ffffffffffffffffffffffffffffffffffffffff1660009081526008602052604090205490565b60066020526000908152604090205460ff1681565b60035481565b60055473ffffffffffffffffffffffffffffffffffffffff163314610adc57604080517f08c379a000000000000000000000000000000000000000000000000000000000815260206004820152600a60248201527f4f6e6c79204f776e657200000000000000000000000000000000000000000000604482015290519081900360640190fd5b73ffffffffffffffffffffffffffffffffffffffff8116600090815260076020908152604080832080547fffffffffffffffffffffffffffffffffffffffffffffffffffffffffffffff001690556008909152808220549051339282156108fc02929190818181858888f19350505050158015610b5d573d6000803e3d6000fd5b5073ffffffffffffffffffffffffffffffffffffffff16600090815260086020526040812080546001805491909103905555565b60055473ffffffffffffffffffffffffffffffffffffffff1681565b60076020526000908152604090205460ff1681565b60055473ffffffffffffffffffffffffffffffffffffffff163314610c4857604080517f08c379a000000000000000000000000000000000000000000000000000000000815260206004820152600a60248201527f4f6e6c79204f776e657200000000000000000000000000000000000000000000604482015290519081900360640190fd5b60005460ff1615610cba57604080517f08c379a000000000000000000000000000000000000000000000000000000000815260206004820152601460248201527f4d757374206e6f742079657420626520646f6e65000000000000000000000000604482015290519081900360640190fd5b600054610100900460ff1615610d3157604080517f08c379a000000000000000000000000000000000000000000000000000000000815260206004820152601260248201527f4d757374206e6f74206265206163746976650000000000000000000000000000604482015290519081900360640190fd5b600954604080517ff088d5470000000000000000000000000000000000000000000000000000000081523060048201819052915173ffffffffffffffffffffffffffffffffffffffff9093169263f088d54792319160248082019260209290919082900301818588803b158015610da757600080fd5b505af1158015610dbb573d6000803e3d6000fd5b50505050506040513d6020811015610dd257600080fd5b5050600954604080517fd76bbd52000000000000000000000000000000000000000000000000000000008152905173ffffffffffffffffffffffffffffffffffffffff9092169163d76bbd52916004808201926020929091908290030181600087803b158015610e4157600080fd5b505af1158015610e55573d6000803e3d6000fd5b505050506040513d6020811015610e6b57600080fd5b5051604080517f70a08231000000000000000000000000000000000000000000000000000000008152306004820152905173ffffffffffffffffffffffffffffffffffffffff909216916370a08231916024808201926020929091908290030181600087803b158015610edd57600080fd5b505af1158015610ef1573d6000803e3d6000fd5b505050506040513d6020811015610f0757600080fd5b50516003819055600255600080547fffffffffffffffffffffffffffffffffffffffffffffffffffffffffffffff00166001179055565b60045481565b60055473ffffffffffffffffffffffffffffffffffffffff163314610fca57604080517f08c379a000000000000000000000000000000000000000000000000000000000815260206004820152600a60248201527f4f6e6c79204f776e657200000000000000000000000000000000000000000000604482015290519081900360640190fd5b60005460ff161561103c57604080517f08c379a000000000000000000000000000000000000000000000000000000000815260206004820152601460248201527f4d757374206e6f742079657420626520646f6e65000000000000000000000000604482015290519081900360640190fd5b60008054911515610100027fffffffffffffffffffffffffffffffffffffffffffffffffffffffffffff00ff909216919091179055565b60005460ff1681565b60025481565b60055473ffffffffffffffffffffffffffffffffffffffff16331461110857604080517f08c379a000000000000000000000000000000000000000000000000000000000815260206004820152600a60248201527f4f6e6c79204f776e657200000000000000000000000000000000000000000000604482015290519081900360640190fd5b73ffffffffffffffffffffffffffffffffffffffff16600090815260076020526040902080547fffffffffffffffffffffffffffffffffffffffffffffffffffffffffffffff00166001179055565b60095473ffffffffffffffffffffffffffffffffffffffff16815600a165627a7a72305820b3113526c369c5e16a0116e44b2a85f5538fb2e74f89e7071caee2ee5d2397f50029",
  "source": "pragma solidity ^0.4.18;\n\nimport \"./ClubTokenController.sol\";\n\ncontract Support {\n    function() public payable {\n        support();\n    }\n\n    bool public done;\n    bool public active;\n    uint256 public totalContributions;\n    uint256 public remainingTokens;\n    uint256 public totalTokens;\n    uint256 public limit;\n    address public owner;\n    mapping(address => bool) public withdrawn;\n    mapping(address => bool) public whitelist;\n    mapping(address => uint256) public contributions;\n    ClubTokenController public bondingCurve;\n\n    modifier onlyOwner() {\n        require(owner == msg.sender, \"Only Owner\");\n        _;\n    }\n    modifier isWhitelisted() {\n        require(whitelist[msg.sender], \"Must be a whitelisted address\");\n        _;\n    }\n    modifier isDone() {\n        require(done, \"Must be done\");\n        _;\n    }\n    modifier isNotDone() {\n        require(!done, \"Must not yet be done\");\n        _;\n    }\n    modifier isActive() {\n        require(active, \"Must be active\");\n        _;\n    }\n    modifier isNotActive() {\n        require(!active, \"Must not be active\");\n        _;\n    }\n    constructor(uint256 _limit, ClubTokenController _bondingCurve) public {\n        owner = msg.sender;\n        limit = _limit;\n        bondingCurve = _bondingCurve;\n    }\n\n    function addToWhitelist(address whitelisted) public onlyOwner {\n        whitelist[whitelisted] = true;\n    }\n\n    function onWhitelist(address whitelisted) public view returns(bool) {\n        return whitelist[whitelisted];\n    }\n\n    function hasWithdrawn(address whitelisted) public view returns(bool) {\n        return withdrawn[whitelisted];\n    }\n\n    function currentContribution(address whitelisted) public view returns(uint256) {\n        return contributions[whitelisted];\n    }\n\n    function removeFromWhitelist(address blacklisted) public onlyOwner {\n        whitelist[blacklisted] = false;\n        msg.sender.transfer(contributions[blacklisted]);\n        totalContributions -= contributions[blacklisted];\n        contributions[blacklisted] = 0;\n    }\n\n    function support() public payable isNotDone isActive isWhitelisted {\n        require(contributions[msg.sender] + msg.value <= limit, \"Not allowed to contribute more than limit\");\n\n        contributions[msg.sender] += msg.value;\n        totalContributions += msg.value;\n    }\n\n    function setActive(bool _active) public onlyOwner isNotDone {\n        active = _active;\n    }\n\n    function setLimit(uint256 _limit) public onlyOwner isNotDone {\n        limit = _limit;\n    }\n\n    function makeBuy() public onlyOwner isNotDone isNotActive{\n        bondingCurve.buy.value(address(this).balance)(address(this));\n        totalTokens = ClubToken(bondingCurve.clubToken()).balanceOf(address(this));\n        remainingTokens = totalTokens;\n        done = true;\n    }\n\n    function withdraw() public isDone isWhitelisted {\n        require(!withdrawn[msg.sender], \"Must not have withdrawn already\");\n        withdrawn[msg.sender] = true;\n        uint256 percentage = (contributions[msg.sender] * totalTokens) / totalContributions;\n        if (percentage > remainingTokens) {\n            percentage = remainingTokens;\n        }\n        remainingTokens = remainingTokens - percentage;\n        ClubTokenController(bondingCurve).transferFrom(address(this), msg.sender, percentage);\n    }\n}\n",
  "sourcePath": "/home/billy/GitHub.com/clovers-network/clovers-contracts/contracts/Support.sol",
  "compiler": {
    "name": "solc",
    "version": "0.4.24+commit.e67f0147.Emscripten.clang"
  },
  "schemaVersion": "2.0.1",
  "updatedAt": "2019-08-28T10:01:28.373Z"
}