{
  "contractName": "Support",
  "abi": [
    {
      "constant": true,
      "inputs": [],
      "name": "active",
      "outputs": [
        {
          "name": "",
          "type": "bool"
        }
      ],
      "payable": false,
      "stateMutability": "view",
      "type": "function"
    },
    {
      "constant": true,
      "inputs": [],
      "name": "totalContributions",
      "outputs": [
        {
          "name": "",
          "type": "uint256"
        }
      ],
      "payable": false,
      "stateMutability": "view",
      "type": "function"
    },
    {
      "constant": true,
      "inputs": [
        {
          "name": "",
          "type": "address"
        }
      ],
      "name": "contributions",
      "outputs": [
        {
          "name": "",
          "type": "uint256"
        }
      ],
      "payable": false,
      "stateMutability": "view",
      "type": "function"
    },
    {
      "constant": true,
      "inputs": [
        {
          "name": "",
          "type": "address"
        }
      ],
      "name": "withdrawn",
      "outputs": [
        {
          "name": "",
          "type": "bool"
        }
      ],
      "payable": false,
      "stateMutability": "view",
      "type": "function"
    },
    {
      "constant": true,
      "inputs": [],
      "name": "totalTokens",
      "outputs": [
        {
          "name": "",
          "type": "uint256"
        }
      ],
      "payable": false,
      "stateMutability": "view",
      "type": "function"
    },
    {
      "constant": true,
      "inputs": [],
      "name": "owner",
      "outputs": [
        {
          "name": "",
          "type": "address"
        }
      ],
      "payable": false,
      "stateMutability": "view",
      "type": "function"
    },
    {
      "constant": true,
      "inputs": [
        {
          "name": "",
          "type": "address"
        }
      ],
      "name": "whitelist",
      "outputs": [
        {
          "name": "",
          "type": "bool"
        }
      ],
      "payable": false,
      "stateMutability": "view",
      "type": "function"
    },
    {
      "constant": true,
      "inputs": [],
      "name": "limit",
      "outputs": [
        {
          "name": "",
          "type": "uint256"
        }
      ],
      "payable": false,
      "stateMutability": "view",
      "type": "function"
    },
    {
      "constant": true,
      "inputs": [],
      "name": "done",
      "outputs": [
        {
          "name": "",
          "type": "bool"
        }
      ],
      "payable": false,
      "stateMutability": "view",
      "type": "function"
    },
    {
      "constant": true,
      "inputs": [],
      "name": "remainingTokens",
      "outputs": [
        {
          "name": "",
          "type": "uint256"
        }
      ],
      "payable": false,
      "stateMutability": "view",
      "type": "function"
    },
    {
      "constant": true,
      "inputs": [],
      "name": "bondingCurve",
      "outputs": [
        {
          "name": "",
          "type": "address"
        }
      ],
      "payable": false,
      "stateMutability": "view",
      "type": "function"
    },
    {
      "inputs": [
        {
          "name": "_limit",
          "type": "uint256"
        },
        {
          "name": "_bondingCurve",
          "type": "address"
        }
      ],
      "payable": false,
      "stateMutability": "nonpayable",
      "type": "constructor"
    },
    {
      "payable": true,
      "stateMutability": "payable",
      "type": "fallback"
    },
    {
      "constant": false,
      "inputs": [
        {
          "name": "whitelisted",
          "type": "address"
        }
      ],
      "name": "addToWhitelist",
      "outputs": [],
      "payable": false,
      "stateMutability": "nonpayable",
      "type": "function"
    },
    {
      "constant": true,
      "inputs": [
        {
          "name": "whitelisted",
          "type": "address"
        }
      ],
      "name": "onWhitelist",
      "outputs": [
        {
          "name": "",
          "type": "bool"
        }
      ],
      "payable": false,
      "stateMutability": "view",
      "type": "function"
    },
    {
      "constant": true,
      "inputs": [
        {
          "name": "whitelisted",
          "type": "address"
        }
      ],
      "name": "hasWithdrawn",
      "outputs": [
        {
          "name": "",
          "type": "bool"
        }
      ],
      "payable": false,
      "stateMutability": "view",
      "type": "function"
    },
    {
      "constant": true,
      "inputs": [
        {
          "name": "whitelisted",
          "type": "address"
        }
      ],
      "name": "currentContribution",
      "outputs": [
        {
          "name": "",
          "type": "uint256"
        }
      ],
      "payable": false,
      "stateMutability": "view",
      "type": "function"
    },
    {
      "constant": false,
      "inputs": [
        {
          "name": "blacklisted",
          "type": "address"
        }
      ],
      "name": "removeFromWhitelist",
      "outputs": [],
      "payable": false,
      "stateMutability": "nonpayable",
      "type": "function"
    },
    {
      "constant": false,
      "inputs": [],
      "name": "support",
      "outputs": [],
      "payable": true,
      "stateMutability": "payable",
      "type": "function"
    },
    {
      "constant": false,
      "inputs": [
        {
          "name": "_active",
          "type": "bool"
        }
      ],
      "name": "setActive",
      "outputs": [],
      "payable": false,
      "stateMutability": "nonpayable",
      "type": "function"
    },
    {
      "constant": false,
      "inputs": [
        {
          "name": "_limit",
          "type": "uint256"
        }
      ],
      "name": "setLimit",
      "outputs": [],
      "payable": false,
      "stateMutability": "nonpayable",
      "type": "function"
    },
    {
      "constant": false,
      "inputs": [],
      "name": "makeBuy",
      "outputs": [],
      "payable": false,
      "stateMutability": "nonpayable",
      "type": "function"
    },
    {
      "constant": false,
      "inputs": [],
      "name": "withdraw",
      "outputs": [],
      "payable": false,
      "stateMutability": "nonpayable",
      "type": "function"
    }
  ],
  "bytecode": "0x608060405234801561001057600080fd5b50604051604080611a8a833981018060405281019080805190602001909291908051906020019092919050505033600560006101000a81548173ffffffffffffffffffffffffffffffffffffffff021916908373ffffffffffffffffffffffffffffffffffffffff1602179055508160048190555080600960006101000a81548173ffffffffffffffffffffffffffffffffffffffff021916908373ffffffffffffffffffffffffffffffffffffffff16021790555050506119b3806100d76000396000f30060806040526004361061011d576000357c0100000000000000000000000000000000000000000000000000000000900463ffffffff16806302fb0c5e14610127578063119f8747146101565780631d6086591461016057806327ea6f2b146101bb57806337c08923146101e85780633ccfd60b1461021357806342e94c901461022a5780635e2c19db146102815780636062ae82146102dc5780636ef61092146103335780637e1c0c091461038e5780638ab1d681146103b95780638da5cb5b146103fc5780639b19251a14610453578063a106b2d4146104ae578063a4d66daf146104c5578063acec338a146104f0578063ae8421e11461051f578063bf5839031461054e578063e43252d714610579578063eff1d50e146105bc575b610125610613565b005b34801561013357600080fd5b5061013c61091c565b604051808215151515815260200191505060405180910390f35b61015e610613565b005b34801561016c57600080fd5b506101a1600480360381019080803573ffffffffffffffffffffffffffffffffffffffff16906020019092919050505061092f565b604051808215151515815260200191505060405180910390f35b3480156101c757600080fd5b506101e660048036038101908080359060200190929190505050610985565b005b3480156101f457600080fd5b506101fd610ad8565b6040518082815260200191505060405180910390f35b34801561021f57600080fd5b50610228610ade565b005b34801561023657600080fd5b5061026b600480360381019080803573ffffffffffffffffffffffffffffffffffffffff169060200190929190505050610ec0565b6040518082815260200191505060405180910390f35b34801561028d57600080fd5b506102c2600480360381019080803573ffffffffffffffffffffffffffffffffffffffff169060200190929190505050610ed8565b604051808215151515815260200191505060405180910390f35b3480156102e857600080fd5b5061031d600480360381019080803573ffffffffffffffffffffffffffffffffffffffff169060200190929190505050610f2e565b6040518082815260200191505060405180910390f35b34801561033f57600080fd5b50610374600480360381019080803573ffffffffffffffffffffffffffffffffffffffff169060200190929190505050610f77565b604051808215151515815260200191505060405180910390f35b34801561039a57600080fd5b506103a3610f97565b6040518082815260200191505060405180910390f35b3480156103c557600080fd5b506103fa600480360381019080803573ffffffffffffffffffffffffffffffffffffffff169060200190929190505050610f9d565b005b34801561040857600080fd5b506104116111d7565b604051808273ffffffffffffffffffffffffffffffffffffffff1673ffffffffffffffffffffffffffffffffffffffff16815260200191505060405180910390f35b34801561045f57600080fd5b50610494600480360381019080803573ffffffffffffffffffffffffffffffffffffffff1690602001909291905050506111fd565b604051808215151515815260200191505060405180910390f35b3480156104ba57600080fd5b506104c361121d565b005b3480156104d157600080fd5b506104da6116bd565b6040518082815260200191505060405180910390f35b3480156104fc57600080fd5b5061051d6004803603810190808035151590602001909291905050506116c3565b005b34801561052b57600080fd5b50610534611829565b604051808215151515815260200191505060405180910390f35b34801561055a57600080fd5b5061056361183b565b6040518082815260200191505060405180910390f35b34801561058557600080fd5b506105ba600480360381019080803573ffffffffffffffffffffffffffffffffffffffff169060200190929190505050611841565b005b3480156105c857600080fd5b506105d1611961565b604051808273ffffffffffffffffffffffffffffffffffffffff1673ffffffffffffffffffffffffffffffffffffffff16815260200191505060405180910390f35b6000809054906101000a900460ff16151515610697576040517f08c379a00000000000000000000000000000000000000000000000000000000081526004018080602001828103825260148152602001807f4d757374206e6f742079657420626520646f6e6500000000000000000000000081525060200191505060405180910390fd5b600060019054906101000a900460ff16151561071b576040517f08c379a000000000000000000000000000000000000000000000000000000000815260040180806020018281038252600e8152602001807f4d7573742062652061637469766500000000000000000000000000000000000081525060200191505060405180910390fd5b600760003373ffffffffffffffffffffffffffffffffffffffff1673ffffffffffffffffffffffffffffffffffffffff16815260200190815260200160002060009054906101000a900460ff1615156107dc576040517f08c379a000000000000000000000000000000000000000000000000000000000815260040180806020018281038252601d8152602001807f4d75737420626520612077686974656c6973746564206164647265737300000081525060200191505060405180910390fd5b60045434600860003373ffffffffffffffffffffffffffffffffffffffff1673ffffffffffffffffffffffffffffffffffffffff1681526020019081526020016000205401111515156108bd576040517f08c379a00000000000000000000000000000000000000000000000000000000081526004018080602001828103825260298152602001807f4e6f7420616c6c6f77656420746f20636f6e74726962757465206d6f7265207481526020017f68616e206c696d6974000000000000000000000000000000000000000000000081525060400191505060405180910390fd5b34600860003373ffffffffffffffffffffffffffffffffffffffff1673ffffffffffffffffffffffffffffffffffffffff1681526020019081526020016000206000828254019250508190555034600160008282540192505081905550565b600060019054906101000a900460ff1681565b6000600760008373ffffffffffffffffffffffffffffffffffffffff1673ffffffffffffffffffffffffffffffffffffffff16815260200190815260200160002060009054906101000a900460ff169050919050565b3373ffffffffffffffffffffffffffffffffffffffff16600560009054906101000a900473ffffffffffffffffffffffffffffffffffffffff1673ffffffffffffffffffffffffffffffffffffffff16141515610a4a576040517f08c379a000000000000000000000000000000000000000000000000000000000815260040180806020018281038252600a8152602001807f4f6e6c79204f776e65720000000000000000000000000000000000000000000081525060200191505060405180910390fd5b6000809054906101000a900460ff16151515610ace576040517f08c379a00000000000000000000000000000000000000000000000000000000081526004018080602001828103825260148152602001807f4d757374206e6f742079657420626520646f6e6500000000000000000000000081525060200191505060405180910390fd5b8060048190555050565b60015481565b60008060009054906101000a900460ff161515610b63576040517f08c379a000000000000000000000000000000000000000000000000000000000815260040180806020018281038252600c8152602001807f4d75737420626520646f6e65000000000000000000000000000000000000000081525060200191505060405180910390fd5b600760003373ffffffffffffffffffffffffffffffffffffffff1673ffffffffffffffffffffffffffffffffffffffff16815260200190815260200160002060009054906101000a900460ff161515610c24576040517f08c379a000000000000000000000000000000000000000000000000000000000815260040180806020018281038252601d8152602001807f4d75737420626520612077686974656c6973746564206164647265737300000081525060200191505060405180910390fd5b600660003373ffffffffffffffffffffffffffffffffffffffff1673ffffffffffffffffffffffffffffffffffffffff16815260200190815260200160002060009054906101000a900460ff16151515610ce6576040517f08c379a000000000000000000000000000000000000000000000000000000000815260040180806020018281038252601f8152602001807f4d757374206e6f7420686176652077697468647261776e20616c72656164790081525060200191505060405180910390fd5b6001600660003373ffffffffffffffffffffffffffffffffffffffff1673ffffffffffffffffffffffffffffffffffffffff16815260200190815260200160002060006101000a81548160ff021916908315150217905550600154600354600860003373ffffffffffffffffffffffffffffffffffffffff1673ffffffffffffffffffffffffffffffffffffffff1681526020019081526020016000205402811515610d8e57fe5b049050600254811115610da15760025490505b8060025403600281905550600960009054906101000a900473ffffffffffffffffffffffffffffffffffffffff1673ffffffffffffffffffffffffffffffffffffffff166323b872dd3033846040518463ffffffff167c0100000000000000000000000000000000000000000000000000000000028152600401808473ffffffffffffffffffffffffffffffffffffffff1673ffffffffffffffffffffffffffffffffffffffff1681526020018373ffffffffffffffffffffffffffffffffffffffff1673ffffffffffffffffffffffffffffffffffffffff1681526020018281526020019350505050600060405180830381600087803b158015610ea557600080fd5b505af1158015610eb9573d6000803e3d6000fd5b5050505050565b60086020528060005260406000206000915090505481565b6000600660008373ffffffffffffffffffffffffffffffffffffffff1673ffffffffffffffffffffffffffffffffffffffff16815260200190815260200160002060009054906101000a900460ff169050919050565b6000600860008373ffffffffffffffffffffffffffffffffffffffff1673ffffffffffffffffffffffffffffffffffffffff168152602001908152602001600020549050919050565b60066020528060005260406000206000915054906101000a900460ff1681565b60035481565b3373ffffffffffffffffffffffffffffffffffffffff16600560009054906101000a900473ffffffffffffffffffffffffffffffffffffffff1673ffffffffffffffffffffffffffffffffffffffff16141515611062576040517f08c379a000000000000000000000000000000000000000000000000000000000815260040180806020018281038252600a8152602001807f4f6e6c79204f776e65720000000000000000000000000000000000000000000081525060200191505060405180910390fd5b6000600760008373ffffffffffffffffffffffffffffffffffffffff1673ffffffffffffffffffffffffffffffffffffffff16815260200190815260200160002060006101000a81548160ff0219169083151502179055503373ffffffffffffffffffffffffffffffffffffffff166108fc600860008473ffffffffffffffffffffffffffffffffffffffff1673ffffffffffffffffffffffffffffffffffffffff168152602001908152602001600020549081150290604051600060405180830381858888f1935050505015801561113f573d6000803e3d6000fd5b50600860008273ffffffffffffffffffffffffffffffffffffffff1673ffffffffffffffffffffffffffffffffffffffff168152602001908152602001600020546001600082825403925050819055506000600860008373ffffffffffffffffffffffffffffffffffffffff1673ffffffffffffffffffffffffffffffffffffffff1681526020019081526020016000208190555050565b600560009054906101000a900473ffffffffffffffffffffffffffffffffffffffff1681565b60076020528060005260406000206000915054906101000a900460ff1681565b3373ffffffffffffffffffffffffffffffffffffffff16600560009054906101000a900473ffffffffffffffffffffffffffffffffffffffff1673ffffffffffffffffffffffffffffffffffffffff161415156112e2576040517f08c379a000000000000000000000000000000000000000000000000000000000815260040180806020018281038252600a8152602001807f4f6e6c79204f776e65720000000000000000000000000000000000000000000081525060200191505060405180910390fd5b6000809054906101000a900460ff16151515611366576040517f08c379a00000000000000000000000000000000000000000000000000000000081526004018080602001828103825260148152602001807f4d757374206e6f742079657420626520646f6e6500000000000000000000000081525060200191505060405180910390fd5b600060019054906101000a900460ff161515156113eb576040517f08c379a00000000000000000000000000000000000000000000000000000000081526004018080602001828103825260128152602001807f4d757374206e6f7420626520616374697665000000000000000000000000000081525060200191505060405180910390fd5b600960009054906101000a900473ffffffffffffffffffffffffffffffffffffffff1673ffffffffffffffffffffffffffffffffffffffff1663f088d5473073ffffffffffffffffffffffffffffffffffffffff1631306040518363ffffffff167c0100000000000000000000000000000000000000000000000000000000028152600401808273ffffffffffffffffffffffffffffffffffffffff1673ffffffffffffffffffffffffffffffffffffffff1681526020019150506020604051808303818588803b1580156114bf57600080fd5b505af11580156114d3573d6000803e3d6000fd5b50505050506040513d60208110156114ea57600080fd5b810190808051906020019092919050505050600960009054906101000a900473ffffffffffffffffffffffffffffffffffffffff1673ffffffffffffffffffffffffffffffffffffffff1663d76bbd526040518163ffffffff167c0100000000000000000000000000000000000000000000000000000000028152600401602060405180830381600087803b15801561158257600080fd5b505af1158015611596573d6000803e3d6000fd5b505050506040513d60208110156115ac57600080fd5b810190808051906020019092919050505073ffffffffffffffffffffffffffffffffffffffff166370a08231306040518263ffffffff167c0100000000000000000000000000000000000000000000000000000000028152600401808273ffffffffffffffffffffffffffffffffffffffff1673ffffffffffffffffffffffffffffffffffffffff168152602001915050602060405180830381600087803b15801561165757600080fd5b505af115801561166b573d6000803e3d6000fd5b505050506040513d602081101561168157600080fd5b810190808051906020019092919050505060038190555060035460028190555060016000806101000a81548160ff021916908315150217905550565b60045481565b3373ffffffffffffffffffffffffffffffffffffffff16600560009054906101000a900473ffffffffffffffffffffffffffffffffffffffff1673ffffffffffffffffffffffffffffffffffffffff16141515611788576040517f08c379a000000000000000000000000000000000000000000000000000000000815260040180806020018281038252600a8152602001807f4f6e6c79204f776e65720000000000000000000000000000000000000000000081525060200191505060405180910390fd5b6000809054906101000a900460ff1615151561180c576040517f08c379a00000000000000000000000000000000000000000000000000000000081526004018080602001828103825260148152602001807f4d757374206e6f742079657420626520646f6e6500000000000000000000000081525060200191505060405180910390fd5b80600060016101000a81548160ff02191690831515021790555050565b6000809054906101000a900460ff1681565b60025481565b3373ffffffffffffffffffffffffffffffffffffffff16600560009054906101000a900473ffffffffffffffffffffffffffffffffffffffff1673ffffffffffffffffffffffffffffffffffffffff16141515611906576040517f08c379a000000000000000000000000000000000000000000000000000000000815260040180806020018281038252600a8152602001807f4f6e6c79204f776e65720000000000000000000000000000000000000000000081525060200191505060405180910390fd5b6001600760008373ffffffffffffffffffffffffffffffffffffffff1673ffffffffffffffffffffffffffffffffffffffff16815260200190815260200160002060006101000a81548160ff02191690831515021790555050565b600960009054906101000a900473ffffffffffffffffffffffffffffffffffffffff16815600a165627a7a7230582077742c82f8ed6c2af8ce414ecf6f7d8af78aabde19b402d8c8e41e928f11dd460029",
  "source": "pragma solidity ^0.4.18;\n\nimport \"./ClubTokenController.sol\";\n\ncontract Support {\n    function() public payable {\n        support();\n    }\n\n    bool public done;\n    bool public active;\n    uint256 public totalContributions;\n    uint256 public remainingTokens;\n    uint256 public totalTokens;\n    uint256 public limit;\n    address public owner;\n    mapping(address => bool) public withdrawn;\n    mapping(address => bool) public whitelist;\n    mapping(address => uint256) public contributions;\n    ClubTokenController public bondingCurve;\n\n    modifier onlyOwner() {\n        require(owner == msg.sender, \"Only Owner\");\n        _;\n    }\n    modifier isWhitelisted() {\n        require(whitelist[msg.sender], \"Must be a whitelisted address\");\n        _;\n    }\n    modifier isDone() {\n        require(done, \"Must be done\");\n        _;\n    }\n    modifier isNotDone() {\n        require(!done, \"Must not yet be done\");\n        _;\n    }\n    modifier isActive() {\n        require(active, \"Must be active\");\n        _;\n    }\n    modifier isNotActive() {\n        require(!active, \"Must not be active\");\n        _;\n    }\n    constructor(uint256 _limit, ClubTokenController _bondingCurve) public {\n        owner = msg.sender;\n        limit = _limit;\n        bondingCurve = _bondingCurve;\n    }\n\n    function addToWhitelist(address whitelisted) public onlyOwner {\n        whitelist[whitelisted] = true;\n    }\n\n    function onWhitelist(address whitelisted) public view returns(bool) {\n        return whitelist[whitelisted];\n    }\n\n    function hasWithdrawn(address whitelisted) public view returns(bool) {\n        return withdrawn[whitelisted];\n    }\n\n    function currentContribution(address whitelisted) public view returns(uint256) {\n        return contributions[whitelisted];\n    }\n\n    function removeFromWhitelist(address blacklisted) public onlyOwner {\n        whitelist[blacklisted] = false;\n        msg.sender.transfer(contributions[blacklisted]);\n        totalContributions -= contributions[blacklisted];\n        contributions[blacklisted] = 0;\n    }\n\n    function support() public payable isNotDone isActive isWhitelisted {\n        require(contributions[msg.sender] + msg.value <= limit, \"Not allowed to contribute more than limit\");\n\n        contributions[msg.sender] += msg.value;\n        totalContributions += msg.value;\n    }\n\n    function setActive(bool _active) public onlyOwner isNotDone {\n        active = _active;\n    }\n\n    function setLimit(uint256 _limit) public onlyOwner isNotDone {\n        limit = _limit;\n    }\n\n    function makeBuy() public onlyOwner isNotDone isNotActive{\n        bondingCurve.buy.value(address(this).balance)(address(this));\n        totalTokens = ClubToken(bondingCurve.clubToken()).balanceOf(address(this));\n        remainingTokens = totalTokens;\n        done = true;\n    }\n\n    function withdraw() public isDone isWhitelisted {\n        require(!withdrawn[msg.sender], \"Must not have withdrawn already\");\n        withdrawn[msg.sender] = true;\n        uint256 percentage = (contributions[msg.sender] * totalTokens) / totalContributions;\n        if (percentage > remainingTokens) {\n            percentage = remainingTokens;\n        }\n        remainingTokens = remainingTokens - percentage;\n        ClubTokenController(bondingCurve).transferFrom(address(this), msg.sender, percentage);\n    }\n}\n",
  "sourcePath": "/home/billy/GitHub.com/clovers-network/clovers-contracts/contracts/Support.sol",
  "compiler": {
    "name": "solc",
    "version": "0.4.24+commit.e67f0147.Emscripten.clang"
  },
  "schemaVersion": "2.0.1",
  "updatedAt": "2019-08-12T10:35:22.882Z"
}